{"abi":[{"inputs":[],"stateMutability":"nonpayable","type":"constructor"},{"inputs":[],"name":"balance","outputs":[{"internalType":"uint256","name":"","type":"uint256"}],"stateMutability":"view","type":"function"},{"inputs":[{"internalType":"string","name":"imsi","type":"string"},{"internalType":"string","name":"homeOperator","type":"string"}],"name":"dataSummaryExists","outputs":[{"internalType":"bool","name":"","type":"bool"}],"stateMutability":"view","type":"function"},{"inputs":[{"internalType":"address","name":"","type":"address"},{"internalType":"string","name":"","type":"string"},{"internalType":"address","name":"","type":"address"}],"name":"dataSummaryTable","outputs":[{"internalType":"string","name":"imsi","type":"string"},{"internalType":"string","name":"number","type":"string"},{"internalType":"string","name":"serviceProvider","type":"string"},{"internalType":"uint256","name":"voiceCallUsage","type":"uint256"},{"internalType":"uint256","name":"internetUsage","type":"uint256"},{"internalType":"uint256","name":"smsUsage","type":"uint256"}],"stateMutability":"view","type":"function"},{"inputs":[],"name":"deposit","outputs":[],"stateMutability":"payable","type":"function"},{"inputs":[{"internalType":"string","name":"visitingOperatorName","type":"string"}],"name":"fetchUserDataSummary","outputs":[{"internalType":"string[]","name":"","type":"string[]"},{"components":[{"internalType":"string","name":"imsi","type":"string"},{"internalType":"string","name":"number","type":"string"},{"internalType":"string","name":"serviceProvider","type":"string"},{"internalType":"uint256","name":"voiceCallUsage","type":"uint256"},{"internalType":"uint256","name":"internetUsage","type":"uint256"},{"internalType":"uint256","name":"smsUsage","type":"uint256"}],"internalType":"struct RoamingDataManagement.UserDataSummary[]","name":"","type":"tuple[]"}],"stateMutability":"view","type":"function"},{"inputs":[{"internalType":"uint256","name":"","type":"uint256"}],"name":"operatorAddresses","outputs":[{"internalType":"address","name":"","type":"address"}],"stateMutability":"view","type":"function"},{"inputs":[{"internalType":"address","name":"","type":"address"}],"name":"operatorsAddrToName","outputs":[{"internalType":"string","name":"","type":"string"}],"stateMutability":"view","type":"function"},{"inputs":[{"internalType":"string","name":"","type":"string"}],"name":"operatorsNameToAddr","outputs":[{"internalType":"address","name":"","type":"address"}],"stateMutability":"view","type":"function"},{"inputs":[{"internalType":"address","name":"operatorAddr","type":"address"},{"internalType":"string","name":"operatorName","type":"string"}],"name":"registerRoamingOperator","outputs":[],"stateMutability":"payable","type":"function"},{"inputs":[{"internalType":"uint256","name":"","type":"uint256"}],"name":"serviceProviders","outputs":[{"internalType":"string","name":"","type":"string"}],"stateMutability":"view","type":"function"},{"inputs":[],"name":"totalDeposit","outputs":[{"internalType":"uint256","name":"","type":"uint256"}],"stateMutability":"view","type":"function"},{"inputs":[{"internalType":"address payable","name":"_to","type":"address"},{"internalType":"uint256","name":"_amount","type":"uint256"}],"name":"transfer","outputs":[],"stateMutability":"nonpayable","type":"function"},{"inputs":[{"internalType":"string","name":"imsi","type":"string"},{"internalType":"string","name":"number","type":"string"},{"internalType":"string","name":"serviceProvider","type":"string"},{"internalType":"uint256","name":"voiceCallUsage","type":"uint256"},{"internalType":"uint256","name":"internetUsage","type":"uint256"},{"internalType":"uint256","name":"smsUsage","type":"uint256"}],"name":"uploadUserDataSummary","outputs":[],"stateMutability":"nonpayable","type":"function"},{"inputs":[{"internalType":"address","name":"","type":"address"},{"internalType":"uint256","name":"","type":"uint256"}],"name":"userTable","outputs":[{"internalType":"string","name":"","type":"string"}],"stateMutability":"view","type":"function"},{"stateMutability":"payable","type":"receive"}],"devdoc":{"kind":"dev","methods":{},"version":1},"evm":{"assembly":"    /* \"RoamingDataManagement.sol\":57:5312  contract RoamingDataManagement {... */\n  mstore(0x40, 0x80)\n    /* \"RoamingDataManagement.sol\":1495:1525  constructor() {... */\n  callvalue\n  dup1\n  iszero\n  tag_1\n  jumpi\n  0x00\n  dup1\n  revert\ntag_1:\n  pop\n    /* \"RoamingDataManagement.sol\":57:5312  contract RoamingDataManagement {... */\n  dataSize(sub_0)\n  dup1\n  dataOffset(sub_0)\n  0x00\n  codecopy\n  0x00\n  return\nstop\n\nsub_0: assembly {\n        /* \"RoamingDataManagement.sol\":57:5312  contract RoamingDataManagement {... */\n      mstore(0x40, 0x80)\n      jumpi(tag_1, lt(calldatasize, 0x04))\n      shr(0xe0, calldataload(0x00))\n      dup1\n      0xa9059cbb\n      gt\n      tag_17\n      jumpi\n      dup1\n      0xc7fa1063\n      gt\n      tag_18\n      jumpi\n      dup1\n      0xc7fa1063\n      eq\n      tag_13\n      jumpi\n      dup1\n      0xd0e30db0\n      eq\n      tag_14\n      jumpi\n      dup1\n      0xf6153ccd\n      eq\n      tag_15\n      jumpi\n      dup1\n      0xfd70c7dd\n      eq\n      tag_16\n      jumpi\n      jump(tag_2)\n    tag_18:\n      dup1\n      0xa9059cbb\n      eq\n      tag_10\n      jumpi\n      dup1\n      0xab6a9f17\n      eq\n      tag_11\n      jumpi\n      dup1\n      0xb69ef8a8\n      eq\n      tag_12\n      jumpi\n      jump(tag_2)\n    tag_17:\n      dup1\n      0x6e6061d1\n      gt\n      tag_19\n      jumpi\n      dup1\n      0x6e6061d1\n      eq\n      tag_6\n      jumpi\n      dup1\n      0x7792a035\n      eq\n      tag_7\n      jumpi\n      dup1\n      0x8f1d613d\n      eq\n      tag_8\n      jumpi\n      dup1\n      0xa8367070\n      eq\n      tag_9\n      jumpi\n      jump(tag_2)\n    tag_19:\n      dup1\n      0x0a02dcc7\n      eq\n      tag_3\n      jumpi\n      dup1\n      0x32f97763\n      eq\n      tag_4\n      jumpi\n      dup1\n      0x64aa65a8\n      eq\n      tag_5\n      jumpi\n      jump(tag_2)\n    tag_1:\n      jumpi(tag_2, calldatasize)\n        /* \"RoamingDataManagement.sol\":1675:1681  1 gwei */\n      0x3b9aca00\n        /* \"RoamingDataManagement.sol\":1662:1671  msg.value */\n      callvalue\n        /* \"RoamingDataManagement.sol\":1662:1681  msg.value >= 1 gwei */\n      lt\n      iszero\n        /* \"RoamingDataManagement.sol\":1654:1682  require(msg.value >= 1 gwei) */\n      tag_22\n      jumpi\n      0x00\n      dup1\n      revert\n    tag_22:\n        /* \"RoamingDataManagement.sol\":57:5312  contract RoamingDataManagement {... */\n      stop\n    tag_2:\n      0x00\n      dup1\n      revert\n        /* \"RoamingDataManagement.sol\":522:554  string[] public serviceProviders */\n    tag_3:\n      callvalue\n      dup1\n      iszero\n      tag_23\n      jumpi\n      0x00\n      dup1\n      revert\n    tag_23:\n      pop\n      tag_24\n      0x04\n      dup1\n      calldatasize\n      sub\n      dup2\n      add\n      swap1\n      tag_25\n      swap2\n      swap1\n      tag_26\n      jump\t// in\n    tag_25:\n      tag_27\n      jump\t// in\n    tag_24:\n      mload(0x40)\n      tag_28\n      swap2\n      swap1\n      tag_29\n      jump\t// in\n    tag_28:\n      mload(0x40)\n      dup1\n      swap2\n      sub\n      swap1\n      return\n        /* \"RoamingDataManagement.sol\":1320:1418  mapping(address => mapping(string => mapping(address => UserDataSummary))) public dataSummaryTable */\n    tag_4:\n      callvalue\n      dup1\n      iszero\n      tag_30\n      jumpi\n      0x00\n      dup1\n      revert\n    tag_30:\n      pop\n      tag_31\n      0x04\n      dup1\n      calldatasize\n      sub\n      dup2\n      add\n      swap1\n      tag_32\n      swap2\n      swap1\n      tag_33\n      jump\t// in\n    tag_32:\n      tag_34\n      jump\t// in\n    tag_31:\n      mload(0x40)\n      tag_35\n      swap7\n      swap6\n      swap5\n      swap4\n      swap3\n      swap2\n      swap1\n      tag_36\n      jump\t// in\n    tag_35:\n      mload(0x40)\n      dup1\n      swap2\n      sub\n      swap1\n      return\n        /* \"RoamingDataManagement.sol\":601:654  mapping(address => string) public operatorsAddrToName */\n    tag_5:\n      callvalue\n      dup1\n      iszero\n      tag_37\n      jumpi\n      0x00\n      dup1\n      revert\n    tag_37:\n      pop\n      tag_38\n      0x04\n      dup1\n      calldatasize\n      sub\n      dup2\n      add\n      swap1\n      tag_39\n      swap2\n      swap1\n      tag_40\n      jump\t// in\n    tag_39:\n      tag_41\n      jump\t// in\n    tag_38:\n      mload(0x40)\n      tag_42\n      swap2\n      swap1\n      tag_29\n      jump\t// in\n    tag_42:\n      mload(0x40)\n      dup1\n      swap2\n      sub\n      swap1\n      return\n        /* \"RoamingDataManagement.sol\":1042:1087  mapping(address => string[]) public userTable */\n    tag_6:\n      callvalue\n      dup1\n      iszero\n      tag_43\n      jumpi\n      0x00\n      dup1\n      revert\n    tag_43:\n      pop\n      tag_44\n      0x04\n      dup1\n      calldatasize\n      sub\n      dup2\n      add\n      swap1\n      tag_45\n      swap2\n      swap1\n      tag_46\n      jump\t// in\n    tag_45:\n      tag_47\n      jump\t// in\n    tag_44:\n      mload(0x40)\n      tag_48\n      swap2\n      swap1\n      tag_29\n      jump\t// in\n    tag_48:\n      mload(0x40)\n      dup1\n      swap2\n      sub\n      swap1\n      return\n        /* \"RoamingDataManagement.sol\":560:594  address[] public operatorAddresses */\n    tag_7:\n      callvalue\n      dup1\n      iszero\n      tag_49\n      jumpi\n      0x00\n      dup1\n      revert\n    tag_49:\n      pop\n      tag_50\n      0x04\n      dup1\n      calldatasize\n      sub\n      dup2\n      add\n      swap1\n      tag_51\n      swap2\n      swap1\n      tag_26\n      jump\t// in\n    tag_51:\n      tag_52\n      jump\t// in\n    tag_50:\n      mload(0x40)\n      tag_53\n      swap2\n      swap1\n      tag_54\n      jump\t// in\n    tag_53:\n      mload(0x40)\n      dup1\n      swap2\n      sub\n      swap1\n      return\n        /* \"RoamingDataManagement.sol\":2560:4083  function uploadUserDataSummary(string memory imsi, string memory number, string memory serviceProvider, ... */\n    tag_8:\n      callvalue\n      dup1\n      iszero\n      tag_55\n      jumpi\n      0x00\n      dup1\n      revert\n    tag_55:\n      pop\n      tag_56\n      0x04\n      dup1\n      calldatasize\n      sub\n      dup2\n      add\n      swap1\n      tag_57\n      swap2\n      swap1\n      tag_58\n      jump\t// in\n    tag_57:\n      tag_59\n      jump\t// in\n    tag_56:\n      stop\n        /* \"RoamingDataManagement.sol\":4416:5054  function fetchUserDataSummary(string memory visitingOperatorName) public view returns(string[] memory, UserDataSummary[] memory) {... */\n    tag_9:\n      callvalue\n      dup1\n      iszero\n      tag_60\n      jumpi\n      0x00\n      dup1\n      revert\n    tag_60:\n      pop\n      tag_61\n      0x04\n      dup1\n      calldatasize\n      sub\n      dup2\n      add\n      swap1\n      tag_62\n      swap2\n      swap1\n      tag_63\n      jump\t// in\n    tag_62:\n      tag_64\n      jump\t// in\n    tag_61:\n      mload(0x40)\n      tag_65\n      swap3\n      swap2\n      swap1\n      tag_66\n      jump\t// in\n    tag_65:\n      mload(0x40)\n      dup1\n      swap2\n      sub\n      swap1\n      return\n        /* \"RoamingDataManagement.sol\":5135:5309  function transfer(address payable _to, uint _amount) public {... */\n    tag_10:\n      callvalue\n      dup1\n      iszero\n      tag_67\n      jumpi\n      0x00\n      dup1\n      revert\n    tag_67:\n      pop\n      tag_68\n      0x04\n      dup1\n      calldatasize\n      sub\n      dup2\n      add\n      swap1\n      tag_69\n      swap2\n      swap1\n      tag_70\n      jump\t// in\n    tag_69:\n      tag_71\n      jump\t// in\n    tag_68:\n      stop\n        /* \"RoamingDataManagement.sol\":4089:4283  function dataSummaryExists(string memory imsi, string memory homeOperator) public view returns(bool) {... */\n    tag_11:\n      callvalue\n      dup1\n      iszero\n      tag_72\n      jumpi\n      0x00\n      dup1\n      revert\n    tag_72:\n      pop\n      tag_73\n      0x04\n      dup1\n      calldatasize\n      sub\n      dup2\n      add\n      swap1\n      tag_74\n      swap2\n      swap1\n      tag_75\n      jump\t// in\n    tag_74:\n      tag_76\n      jump\t// in\n    tag_73:\n      mload(0x40)\n      tag_77\n      swap2\n      swap1\n      tag_78\n      jump\t// in\n    tag_77:\n      mload(0x40)\n      dup1\n      swap2\n      sub\n      swap1\n      return\n        /* \"RoamingDataManagement.sol\":1695:1794  function balance() external view returns(uint256)... */\n    tag_12:\n      callvalue\n      dup1\n      iszero\n      tag_79\n      jumpi\n      0x00\n      dup1\n      revert\n    tag_79:\n      pop\n      tag_80\n      tag_81\n      jump\t// in\n    tag_80:\n      mload(0x40)\n      tag_82\n      swap2\n      swap1\n      tag_83\n      jump\t// in\n    tag_82:\n      mload(0x40)\n      dup1\n      swap2\n      sub\n      swap1\n      return\n        /* \"RoamingDataManagement.sol\":1800:2554  function registerRoamingOperator(address operatorAddr, string memory operatorName) public payable {... */\n    tag_13:\n      tag_84\n      0x04\n      dup1\n      calldatasize\n      sub\n      dup2\n      add\n      swap1\n      tag_85\n      swap2\n      swap1\n      tag_86\n      jump\t// in\n    tag_85:\n      tag_87\n      jump\t// in\n    tag_84:\n      stop\n        /* \"RoamingDataManagement.sol\":1531:1611  function deposit() public payable... */\n    tag_14:\n      tag_88\n      tag_89\n      jump\t// in\n    tag_88:\n      stop\n        /* \"RoamingDataManagement.sol\":720:744  uint public totalDeposit */\n    tag_15:\n      callvalue\n      dup1\n      iszero\n      tag_90\n      jumpi\n      0x00\n      dup1\n      revert\n    tag_90:\n      pop\n      tag_91\n      tag_92\n      jump\t// in\n    tag_91:\n      mload(0x40)\n      tag_93\n      swap2\n      swap1\n      tag_83\n      jump\t// in\n    tag_93:\n      mload(0x40)\n      dup1\n      swap2\n      sub\n      swap1\n      return\n        /* \"RoamingDataManagement.sol\":660:713  mapping(string => address) public operatorsNameToAddr */\n    tag_16:\n      callvalue\n      dup1\n      iszero\n      tag_94\n      jumpi\n      0x00\n      dup1\n      revert\n    tag_94:\n      pop\n      tag_95\n      0x04\n      dup1\n      calldatasize\n      sub\n      dup2\n      add\n      swap1\n      tag_96\n      swap2\n      swap1\n      tag_63\n      jump\t// in\n    tag_96:\n      tag_97\n      jump\t// in\n    tag_95:\n      mload(0x40)\n      tag_98\n      swap2\n      swap1\n      tag_54\n      jump\t// in\n    tag_98:\n      mload(0x40)\n      dup1\n      swap2\n      sub\n      swap1\n      return\n        /* \"RoamingDataManagement.sol\":522:554  string[] public serviceProviders */\n    tag_27:\n      0x00\n      dup2\n      dup2\n      sload\n      dup2\n      lt\n      tag_99\n      jumpi\n      0x00\n      dup1\n      revert\n    tag_99:\n      swap1\n      0x00\n      mstore\n      keccak256(0x00, 0x20)\n      add\n      0x00\n      swap2\n      pop\n      swap1\n      pop\n      dup1\n      sload\n      tag_101\n      swap1\n      tag_102\n      jump\t// in\n    tag_101:\n      dup1\n      0x1f\n      add\n      0x20\n      dup1\n      swap2\n      div\n      mul\n      0x20\n      add\n      mload(0x40)\n      swap1\n      dup2\n      add\n      0x40\n      mstore\n      dup1\n      swap3\n      swap2\n      swap1\n      dup2\n      dup2\n      mstore\n      0x20\n      add\n      dup3\n      dup1\n      sload\n      tag_103\n      swap1\n      tag_102\n      jump\t// in\n    tag_103:\n      dup1\n      iszero\n      tag_104\n      jumpi\n      dup1\n      0x1f\n      lt\n      tag_105\n      jumpi\n      0x0100\n      dup1\n      dup4\n      sload\n      div\n      mul\n      dup4\n      mstore\n      swap2\n      0x20\n      add\n      swap2\n      jump(tag_104)\n    tag_105:\n      dup3\n      add\n      swap2\n      swap1\n      0x00\n      mstore\n      keccak256(0x00, 0x20)\n      swap1\n    tag_106:\n      dup2\n      sload\n      dup2\n      mstore\n      swap1\n      0x01\n      add\n      swap1\n      0x20\n      add\n      dup1\n      dup4\n      gt\n      tag_106\n      jumpi\n      dup3\n      swap1\n      sub\n      0x1f\n      and\n      dup3\n      add\n      swap2\n    tag_104:\n      pop\n      pop\n      pop\n      pop\n      pop\n      dup2\n      jump\t// out\n        /* \"RoamingDataManagement.sol\":1320:1418  mapping(address => mapping(string => mapping(address => UserDataSummary))) public dataSummaryTable */\n    tag_34:\n      mstore(0x20, 0x06)\n      dup3\n      0x00\n      mstore\n      keccak256(0x00, 0x40)\n      dup3\n      dup1\n      mload\n      0x20\n      dup2\n      add\n      dup3\n      add\n      dup1\n      mload\n      dup5\n      dup3\n      mstore\n      0x20\n      dup4\n      add\n      0x20\n      dup6\n      add\n      keccak256\n      dup2\n      dup4\n      mstore\n      dup1\n      swap6\n      pop\n      pop\n      pop\n      pop\n      pop\n      pop\n      0x20\n      mstore\n      dup1\n      0x00\n      mstore\n      keccak256(0x00, 0x40)\n      0x00\n      swap3\n      pop\n      swap3\n      pop\n      pop\n      pop\n      dup1\n      0x00\n      add\n      dup1\n      sload\n      tag_107\n      swap1\n      tag_102\n      jump\t// in\n    tag_107:\n      dup1\n      0x1f\n      add\n      0x20\n      dup1\n      swap2\n      div\n      mul\n      0x20\n      add\n      mload(0x40)\n      swap1\n      dup2\n      add\n      0x40\n      mstore\n      dup1\n      swap3\n      swap2\n      swap1\n      dup2\n      dup2\n      mstore\n      0x20\n      add\n      dup3\n      dup1\n      sload\n      tag_108\n      swap1\n      tag_102\n      jump\t// in\n    tag_108:\n      dup1\n      iszero\n      tag_109\n      jumpi\n      dup1\n      0x1f\n      lt\n      tag_110\n      jumpi\n      0x0100\n      dup1\n      dup4\n      sload\n      div\n      mul\n      dup4\n      mstore\n      swap2\n      0x20\n      add\n      swap2\n      jump(tag_109)\n    tag_110:\n      dup3\n      add\n      swap2\n      swap1\n      0x00\n      mstore\n      keccak256(0x00, 0x20)\n      swap1\n    tag_111:\n      dup2\n      sload\n      dup2\n      mstore\n      swap1\n      0x01\n      add\n      swap1\n      0x20\n      add\n      dup1\n      dup4\n      gt\n      tag_111\n      jumpi\n      dup3\n      swap1\n      sub\n      0x1f\n      and\n      dup3\n      add\n      swap2\n    tag_109:\n      pop\n      pop\n      pop\n      pop\n      pop\n      swap1\n      dup1\n      0x01\n      add\n      dup1\n      sload\n      tag_112\n      swap1\n      tag_102\n      jump\t// in\n    tag_112:\n      dup1\n      0x1f\n      add\n      0x20\n      dup1\n      swap2\n      div\n      mul\n      0x20\n      add\n      mload(0x40)\n      swap1\n      dup2\n      add\n      0x40\n      mstore\n      dup1\n      swap3\n      swap2\n      swap1\n      dup2\n      dup2\n      mstore\n      0x20\n      add\n      dup3\n      dup1\n      sload\n      tag_113\n      swap1\n      tag_102\n      jump\t// in\n    tag_113:\n      dup1\n      iszero\n      tag_114\n      jumpi\n      dup1\n      0x1f\n      lt\n      tag_115\n      jumpi\n      0x0100\n      dup1\n      dup4\n      sload\n      div\n      mul\n      dup4\n      mstore\n      swap2\n      0x20\n      add\n      swap2\n      jump(tag_114)\n    tag_115:\n      dup3\n      add\n      swap2\n      swap1\n      0x00\n      mstore\n      keccak256(0x00, 0x20)\n      swap1\n    tag_116:\n      dup2\n      sload\n      dup2\n      mstore\n      swap1\n      0x01\n      add\n      swap1\n      0x20\n      add\n      dup1\n      dup4\n      gt\n      tag_116\n      jumpi\n      dup3\n      swap1\n      sub\n      0x1f\n      and\n      dup3\n      add\n      swap2\n    tag_114:\n      pop\n      pop\n      pop\n      pop\n      pop\n      swap1\n      dup1\n      0x02\n      add\n      dup1\n      sload\n      tag_117\n      swap1\n      tag_102\n      jump\t// in\n    tag_117:\n      dup1\n      0x1f\n      add\n      0x20\n      dup1\n      swap2\n      div\n      mul\n      0x20\n      add\n      mload(0x40)\n      swap1\n      dup2\n      add\n      0x40\n      mstore\n      dup1\n      swap3\n      swap2\n      swap1\n      dup2\n      dup2\n      mstore\n      0x20\n      add\n      dup3\n      dup1\n      sload\n      tag_118\n      swap1\n      tag_102\n      jump\t// in\n    tag_118:\n      dup1\n      iszero\n      tag_119\n      jumpi\n      dup1\n      0x1f\n      lt\n      tag_120\n      jumpi\n      0x0100\n      dup1\n      dup4\n      sload\n      div\n      mul\n      dup4\n      mstore\n      swap2\n      0x20\n      add\n      swap2\n      jump(tag_119)\n    tag_120:\n      dup3\n      add\n      swap2\n      swap1\n      0x00\n      mstore\n      keccak256(0x00, 0x20)\n      swap1\n    tag_121:\n      dup2\n      sload\n      dup2\n      mstore\n      swap1\n      0x01\n      add\n      swap1\n      0x20\n      add\n      dup1\n      dup4\n      gt\n      tag_121\n      jumpi\n      dup3\n      swap1\n      sub\n      0x1f\n      and\n      dup3\n      add\n      swap2\n    tag_119:\n      pop\n      pop\n      pop\n      pop\n      pop\n      swap1\n      dup1\n      0x03\n      add\n      sload\n      swap1\n      dup1\n      0x04\n      add\n      sload\n      swap1\n      dup1\n      0x05\n      add\n      sload\n      swap1\n      pop\n      dup7\n      jump\t// out\n        /* \"RoamingDataManagement.sol\":601:654  mapping(address => string) public operatorsAddrToName */\n    tag_41:\n      mstore(0x20, 0x02)\n      dup1\n      0x00\n      mstore\n      keccak256(0x00, 0x40)\n      0x00\n      swap2\n      pop\n      swap1\n      pop\n      dup1\n      sload\n      tag_122\n      swap1\n      tag_102\n      jump\t// in\n    tag_122:\n      dup1\n      0x1f\n      add\n      0x20\n      dup1\n      swap2\n      div\n      mul\n      0x20\n      add\n      mload(0x40)\n      swap1\n      dup2\n      add\n      0x40\n      mstore\n      dup1\n      swap3\n      swap2\n      swap1\n      dup2\n      dup2\n      mstore\n      0x20\n      add\n      dup3\n      dup1\n      sload\n      tag_123\n      swap1\n      tag_102\n      jump\t// in\n    tag_123:\n      dup1\n      iszero\n      tag_124\n      jumpi\n      dup1\n      0x1f\n      lt\n      tag_125\n      jumpi\n      0x0100\n      dup1\n      dup4\n      sload\n      div\n      mul\n      dup4\n      mstore\n      swap2\n      0x20\n      add\n      swap2\n      jump(tag_124)\n    tag_125:\n      dup3\n      add\n      swap2\n      swap1\n      0x00\n      mstore\n      keccak256(0x00, 0x20)\n      swap1\n    tag_126:\n      dup2\n      sload\n      dup2\n      mstore\n      swap1\n      0x01\n      add\n      swap1\n      0x20\n      add\n      dup1\n      dup4\n      gt\n      tag_126\n      jumpi\n      dup3\n      swap1\n      sub\n      0x1f\n      and\n      dup3\n      add\n      swap2\n    tag_124:\n      pop\n      pop\n      pop\n      pop\n      pop\n      dup2\n      jump\t// out\n        /* \"RoamingDataManagement.sol\":1042:1087  mapping(address => string[]) public userTable */\n    tag_47:\n      mstore(0x20, 0x05)\n      dup2\n      0x00\n      mstore\n      keccak256(0x00, 0x40)\n      dup2\n      dup2\n      sload\n      dup2\n      lt\n      tag_127\n      jumpi\n      0x00\n      dup1\n      revert\n    tag_127:\n      swap1\n      0x00\n      mstore\n      keccak256(0x00, 0x20)\n      add\n      0x00\n      swap2\n      pop\n      swap2\n      pop\n      pop\n      dup1\n      sload\n      tag_129\n      swap1\n      tag_102\n      jump\t// in\n    tag_129:\n      dup1\n      0x1f\n      add\n      0x20\n      dup1\n      swap2\n      div\n      mul\n      0x20\n      add\n      mload(0x40)\n      swap1\n      dup2\n      add\n      0x40\n      mstore\n      dup1\n      swap3\n      swap2\n      swap1\n      dup2\n      dup2\n      mstore\n      0x20\n      add\n      dup3\n      dup1\n      sload\n      tag_130\n      swap1\n      tag_102\n      jump\t// in\n    tag_130:\n      dup1\n      iszero\n      tag_131\n      jumpi\n      dup1\n      0x1f\n      lt\n      tag_132\n      jumpi\n      0x0100\n      dup1\n      dup4\n      sload\n      div\n      mul\n      dup4\n      mstore\n      swap2\n      0x20\n      add\n      swap2\n      jump(tag_131)\n    tag_132:\n      dup3\n      add\n      swap2\n      swap1\n      0x00\n      mstore\n      keccak256(0x00, 0x20)\n      swap1\n    tag_133:\n      dup2\n      sload\n      dup2\n      mstore\n      swap1\n      0x01\n      add\n      swap1\n      0x20\n      add\n      dup1\n      dup4\n      gt\n      tag_133\n      jumpi\n      dup3\n      swap1\n      sub\n      0x1f\n      and\n      dup3\n      add\n      swap2\n    tag_131:\n      pop\n      pop\n      pop\n      pop\n      pop\n      dup2\n      jump\t// out\n        /* \"RoamingDataManagement.sol\":560:594  address[] public operatorAddresses */\n    tag_52:\n      0x01\n      dup2\n      dup2\n      sload\n      dup2\n      lt\n      tag_134\n      jumpi\n      0x00\n      dup1\n      revert\n    tag_134:\n      swap1\n      0x00\n      mstore\n      keccak256(0x00, 0x20)\n      add\n      0x00\n      swap2\n      pop\n      sload\n      swap1\n      0x0100\n      exp\n      swap1\n      div\n      0xffffffffffffffffffffffffffffffffffffffff\n      and\n      dup2\n      jump\t// out\n        /* \"RoamingDataManagement.sol\":2560:4083  function uploadUserDataSummary(string memory imsi, string memory number, string memory serviceProvider, ... */\n    tag_59:\n        /* \"RoamingDataManagement.sol\":2752:2776  address visitingOperator */\n      0x00\n        /* \"RoamingDataManagement.sol\":2779:2789  msg.sender */\n      caller\n        /* \"RoamingDataManagement.sol\":2752:2789  address visitingOperator = msg.sender */\n      swap1\n      pop\n        /* \"RoamingDataManagement.sol\":2862:2863  0 */\n      0x00\n        /* \"RoamingDataManagement.sol\":2813:2832  operatorsAddrToName */\n      0x02\n        /* \"RoamingDataManagement.sol\":2813:2850  operatorsAddrToName[visitingOperator] */\n      0x00\n        /* \"RoamingDataManagement.sol\":2833:2849  visitingOperator */\n      dup4\n        /* \"RoamingDataManagement.sol\":2813:2850  operatorsAddrToName[visitingOperator] */\n      0xffffffffffffffffffffffffffffffffffffffff\n      and\n      0xffffffffffffffffffffffffffffffffffffffff\n      and\n      dup2\n      mstore\n      0x20\n      add\n      swap1\n      dup2\n      mstore\n      0x20\n      add\n      0x00\n      keccak256\n        /* \"RoamingDataManagement.sol\":2807:2858  bytes(operatorsAddrToName[visitingOperator]).length */\n      dup1\n      sload\n      tag_137\n      swap1\n      tag_102\n      jump\t// in\n    tag_137:\n      swap1\n      pop\n        /* \"RoamingDataManagement.sol\":2807:2863  bytes(operatorsAddrToName[visitingOperator]).length != 0 */\n      sub\n        /* \"RoamingDataManagement.sol\":2799:2864  require(bytes(operatorsAddrToName[visitingOperator]).length != 0) */\n      tag_138\n      jumpi\n      0x00\n      dup1\n      revert\n    tag_138:\n        /* \"RoamingDataManagement.sol\":2930:2933  0x0 */\n      0x00\n        /* \"RoamingDataManagement.sol\":2882:2934  operatorsNameToAddr[serviceProvider] != address(0x0) */\n      0xffffffffffffffffffffffffffffffffffffffff\n      and\n        /* \"RoamingDataManagement.sol\":2882:2901  operatorsNameToAddr */\n      0x03\n        /* \"RoamingDataManagement.sol\":2902:2917  serviceProvider */\n      dup7\n        /* \"RoamingDataManagement.sol\":2882:2918  operatorsNameToAddr[serviceProvider] */\n      mload(0x40)\n      tag_139\n      swap2\n      swap1\n      tag_140\n      jump\t// in\n    tag_139:\n      swap1\n      dup2\n      mstore\n      0x20\n      add\n      mload(0x40)\n      dup1\n      swap2\n      sub\n      swap1\n      keccak256\n      0x00\n      swap1\n      sload\n      swap1\n      0x0100\n      exp\n      swap1\n      div\n      0xffffffffffffffffffffffffffffffffffffffff\n      and\n        /* \"RoamingDataManagement.sol\":2882:2934  operatorsNameToAddr[serviceProvider] != address(0x0) */\n      0xffffffffffffffffffffffffffffffffffffffff\n      and\n      sub\n        /* \"RoamingDataManagement.sol\":2874:2935  require(operatorsNameToAddr[serviceProvider] != address(0x0)) */\n      tag_141\n      jumpi\n      0x00\n      dup1\n      revert\n    tag_141:\n        /* \"RoamingDataManagement.sol\":2946:3027  mapping(string => mapping(address => UserDataSummary)) storage userToSummaryTable */\n      0x00\n        /* \"RoamingDataManagement.sol\":3030:3046  dataSummaryTable */\n      0x06\n        /* \"RoamingDataManagement.sol\":3030:3084  dataSummaryTable[operatorsNameToAddr[serviceProvider]] */\n      0x00\n        /* \"RoamingDataManagement.sol\":3047:3066  operatorsNameToAddr */\n      0x03\n        /* \"RoamingDataManagement.sol\":3067:3082  serviceProvider */\n      dup9\n        /* \"RoamingDataManagement.sol\":3047:3083  operatorsNameToAddr[serviceProvider] */\n      mload(0x40)\n      tag_142\n      swap2\n      swap1\n      tag_140\n      jump\t// in\n    tag_142:\n      swap1\n      dup2\n      mstore\n      0x20\n      add\n      mload(0x40)\n      dup1\n      swap2\n      sub\n      swap1\n      keccak256\n      0x00\n      swap1\n      sload\n      swap1\n      0x0100\n      exp\n      swap1\n      div\n      0xffffffffffffffffffffffffffffffffffffffff\n      and\n        /* \"RoamingDataManagement.sol\":3030:3084  dataSummaryTable[operatorsNameToAddr[serviceProvider]] */\n      0xffffffffffffffffffffffffffffffffffffffff\n      and\n      0xffffffffffffffffffffffffffffffffffffffff\n      and\n      dup2\n      mstore\n      0x20\n      add\n      swap1\n      dup2\n      mstore\n      0x20\n      add\n      0x00\n      keccak256\n        /* \"RoamingDataManagement.sol\":2946:3084  mapping(string => mapping(address => UserDataSummary)) storage userToSummaryTable = dataSummaryTable[operatorsNameToAddr[serviceProvider]] */\n      swap1\n      pop\n        /* \"RoamingDataManagement.sol\":3099:3139  dataSummaryExists(imsi, serviceProvider) */\n      tag_143\n        /* \"RoamingDataManagement.sol\":3117:3121  imsi */\n      dup9\n        /* \"RoamingDataManagement.sol\":3123:3138  serviceProvider */\n      dup8\n        /* \"RoamingDataManagement.sol\":3099:3116  dataSummaryExists */\n      tag_76\n        /* \"RoamingDataManagement.sol\":3099:3139  dataSummaryExists(imsi, serviceProvider) */\n      jump\t// in\n    tag_143:\n        /* \"RoamingDataManagement.sol\":3094:3304  if (!dataSummaryExists(imsi, serviceProvider)) {... */\n      tag_144\n      jumpi\n        /* \"RoamingDataManagement.sol\":3155:3164  userTable */\n      0x05\n        /* \"RoamingDataManagement.sol\":3155:3202  userTable[operatorsNameToAddr[serviceProvider]] */\n      0x00\n        /* \"RoamingDataManagement.sol\":3165:3184  operatorsNameToAddr */\n      0x03\n        /* \"RoamingDataManagement.sol\":3185:3200  serviceProvider */\n      dup9\n        /* \"RoamingDataManagement.sol\":3165:3201  operatorsNameToAddr[serviceProvider] */\n      mload(0x40)\n      tag_145\n      swap2\n      swap1\n      tag_140\n      jump\t// in\n    tag_145:\n      swap1\n      dup2\n      mstore\n      0x20\n      add\n      mload(0x40)\n      dup1\n      swap2\n      sub\n      swap1\n      keccak256\n      0x00\n      swap1\n      sload\n      swap1\n      0x0100\n      exp\n      swap1\n      div\n      0xffffffffffffffffffffffffffffffffffffffff\n      and\n        /* \"RoamingDataManagement.sol\":3155:3202  userTable[operatorsNameToAddr[serviceProvider]] */\n      0xffffffffffffffffffffffffffffffffffffffff\n      and\n      0xffffffffffffffffffffffffffffffffffffffff\n      and\n      dup2\n      mstore\n      0x20\n      add\n      swap1\n      dup2\n      mstore\n      0x20\n      add\n      0x00\n      keccak256\n        /* \"RoamingDataManagement.sol\":3208:3212  imsi */\n      dup9\n        /* \"RoamingDataManagement.sol\":3155:3213  userTable[operatorsNameToAddr[serviceProvider]].push(imsi) */\n      swap1\n      dup1\n      0x01\n      dup2\n      sload\n      add\n      dup1\n      dup3\n      sstore\n      dup1\n      swap2\n      pop\n      pop\n      0x01\n      swap1\n      sub\n      swap1\n      0x00\n      mstore\n      keccak256(0x00, 0x20)\n      add\n      0x00\n      swap1\n      swap2\n      swap1\n      swap2\n      swap1\n      swap2\n      pop\n      swap1\n      dup2\n      tag_147\n      swap2\n      swap1\n      tag_148\n      jump\t// in\n    tag_147:\n      pop\n        /* \"RoamingDataManagement.sol\":3227:3247  numOfUserDataEntries */\n      0x07\n        /* \"RoamingDataManagement.sol\":3227:3285  numOfUserDataEntries[operatorsNameToAddr[serviceProvider]] */\n      0x00\n        /* \"RoamingDataManagement.sol\":3248:3267  operatorsNameToAddr */\n      0x03\n        /* \"RoamingDataManagement.sol\":3268:3283  serviceProvider */\n      dup9\n        /* \"RoamingDataManagement.sol\":3248:3284  operatorsNameToAddr[serviceProvider] */\n      mload(0x40)\n      tag_149\n      swap2\n      swap1\n      tag_140\n      jump\t// in\n    tag_149:\n      swap1\n      dup2\n      mstore\n      0x20\n      add\n      mload(0x40)\n      dup1\n      swap2\n      sub\n      swap1\n      keccak256\n      0x00\n      swap1\n      sload\n      swap1\n      0x0100\n      exp\n      swap1\n      div\n      0xffffffffffffffffffffffffffffffffffffffff\n      and\n        /* \"RoamingDataManagement.sol\":3227:3285  numOfUserDataEntries[operatorsNameToAddr[serviceProvider]] */\n      0xffffffffffffffffffffffffffffffffffffffff\n      and\n      0xffffffffffffffffffffffffffffffffffffffff\n      and\n      dup2\n      mstore\n      0x20\n      add\n      swap1\n      dup2\n      mstore\n      0x20\n      add\n      0x00\n      keccak256\n        /* \"RoamingDataManagement.sol\":3286:3290  imsi */\n      dup9\n        /* \"RoamingDataManagement.sol\":3227:3291  numOfUserDataEntries[operatorsNameToAddr[serviceProvider]][imsi] */\n      mload(0x40)\n      tag_150\n      swap2\n      swap1\n      tag_140\n      jump\t// in\n    tag_150:\n      swap1\n      dup2\n      mstore\n      0x20\n      add\n      mload(0x40)\n      dup1\n      swap2\n      sub\n      swap1\n      keccak256\n      0x00\n        /* \"RoamingDataManagement.sol\":3227:3293  numOfUserDataEntries[operatorsNameToAddr[serviceProvider]][imsi]++ */\n      dup2\n      sload\n      dup1\n      swap3\n      swap2\n      swap1\n      tag_151\n      swap1\n      tag_152\n      jump\t// in\n    tag_151:\n      swap2\n      swap1\n      pop\n      sstore\n      pop\n        /* \"RoamingDataManagement.sol\":3094:3304  if (!dataSummaryExists(imsi, serviceProvider)) {... */\n    tag_144:\n        /* \"RoamingDataManagement.sol\":3322:3402  mapping(address => UserDataSummary) storage usageSummaryTablePerVisitingOperator */\n      0x00\n        /* \"RoamingDataManagement.sol\":3405:3423  userToSummaryTable */\n      dup2\n        /* \"RoamingDataManagement.sol\":3424:3428  imsi */\n      dup10\n        /* \"RoamingDataManagement.sol\":3405:3429  userToSummaryTable[imsi] */\n      mload(0x40)\n      tag_153\n      swap2\n      swap1\n      tag_140\n      jump\t// in\n    tag_153:\n      swap1\n      dup2\n      mstore\n      0x20\n      add\n      mload(0x40)\n      dup1\n      swap2\n      sub\n      swap1\n      keccak256\n        /* \"RoamingDataManagement.sol\":3322:3429  mapping(address => UserDataSummary) storage usageSummaryTablePerVisitingOperator = userToSummaryTable[imsi] */\n      swap1\n      pop\n        /* \"RoamingDataManagement.sol\":3501:3505  imsi */\n      dup9\n        /* \"RoamingDataManagement.sol\":3439:3475  usageSummaryTablePerVisitingOperator */\n      dup2\n        /* \"RoamingDataManagement.sol\":3439:3493  usageSummaryTablePerVisitingOperator[visitingOperator] */\n      0x00\n        /* \"RoamingDataManagement.sol\":3476:3492  visitingOperator */\n      dup6\n        /* \"RoamingDataManagement.sol\":3439:3493  usageSummaryTablePerVisitingOperator[visitingOperator] */\n      0xffffffffffffffffffffffffffffffffffffffff\n      and\n      0xffffffffffffffffffffffffffffffffffffffff\n      and\n      dup2\n      mstore\n      0x20\n      add\n      swap1\n      dup2\n      mstore\n      0x20\n      add\n      0x00\n      keccak256\n        /* \"RoamingDataManagement.sol\":3439:3498  usageSummaryTablePerVisitingOperator[visitingOperator].imsi */\n      0x00\n      add\n        /* \"RoamingDataManagement.sol\":3439:3505  usageSummaryTablePerVisitingOperator[visitingOperator].imsi = imsi */\n      swap1\n      dup2\n      tag_154\n      swap2\n      swap1\n      tag_148\n      jump\t// in\n    tag_154:\n      pop\n        /* \"RoamingDataManagement.sol\":3579:3585  number */\n      dup8\n        /* \"RoamingDataManagement.sol\":3515:3551  usageSummaryTablePerVisitingOperator */\n      dup2\n        /* \"RoamingDataManagement.sol\":3515:3569  usageSummaryTablePerVisitingOperator[visitingOperator] */\n      0x00\n        /* \"RoamingDataManagement.sol\":3552:3568  visitingOperator */\n      dup6\n        /* \"RoamingDataManagement.sol\":3515:3569  usageSummaryTablePerVisitingOperator[visitingOperator] */\n      0xffffffffffffffffffffffffffffffffffffffff\n      and\n      0xffffffffffffffffffffffffffffffffffffffff\n      and\n      dup2\n      mstore\n      0x20\n      add\n      swap1\n      dup2\n      mstore\n      0x20\n      add\n      0x00\n      keccak256\n        /* \"RoamingDataManagement.sol\":3515:3576  usageSummaryTablePerVisitingOperator[visitingOperator].number */\n      0x01\n      add\n        /* \"RoamingDataManagement.sol\":3515:3585  usageSummaryTablePerVisitingOperator[visitingOperator].number = number */\n      swap1\n      dup2\n      tag_155\n      swap2\n      swap1\n      tag_148\n      jump\t// in\n    tag_155:\n      pop\n        /* \"RoamingDataManagement.sol\":3668:3683  serviceProvider */\n      dup7\n        /* \"RoamingDataManagement.sol\":3595:3631  usageSummaryTablePerVisitingOperator */\n      dup2\n        /* \"RoamingDataManagement.sol\":3595:3649  usageSummaryTablePerVisitingOperator[visitingOperator] */\n      0x00\n        /* \"RoamingDataManagement.sol\":3632:3648  visitingOperator */\n      dup6\n        /* \"RoamingDataManagement.sol\":3595:3649  usageSummaryTablePerVisitingOperator[visitingOperator] */\n      0xffffffffffffffffffffffffffffffffffffffff\n      and\n      0xffffffffffffffffffffffffffffffffffffffff\n      and\n      dup2\n      mstore\n      0x20\n      add\n      swap1\n      dup2\n      mstore\n      0x20\n      add\n      0x00\n      keccak256\n        /* \"RoamingDataManagement.sol\":3595:3665  usageSummaryTablePerVisitingOperator[visitingOperator].serviceProvider */\n      0x02\n      add\n        /* \"RoamingDataManagement.sol\":3595:3683  usageSummaryTablePerVisitingOperator[visitingOperator].serviceProvider = serviceProvider */\n      swap1\n      dup2\n      tag_156\n      swap2\n      swap1\n      tag_148\n      jump\t// in\n    tag_156:\n      pop\n        /* \"RoamingDataManagement.sol\":3765:3779  voiceCallUsage */\n      dup6\n        /* \"RoamingDataManagement.sol\":3693:3729  usageSummaryTablePerVisitingOperator */\n      dup2\n        /* \"RoamingDataManagement.sol\":3693:3747  usageSummaryTablePerVisitingOperator[visitingOperator] */\n      0x00\n        /* \"RoamingDataManagement.sol\":3730:3746  visitingOperator */\n      dup6\n        /* \"RoamingDataManagement.sol\":3693:3747  usageSummaryTablePerVisitingOperator[visitingOperator] */\n      0xffffffffffffffffffffffffffffffffffffffff\n      and\n      0xffffffffffffffffffffffffffffffffffffffff\n      and\n      dup2\n      mstore\n      0x20\n      add\n      swap1\n      dup2\n      mstore\n      0x20\n      add\n      0x00\n      keccak256\n        /* \"RoamingDataManagement.sol\":3693:3762  usageSummaryTablePerVisitingOperator[visitingOperator].voiceCallUsage */\n      0x03\n      add\n        /* \"RoamingDataManagement.sol\":3693:3779  usageSummaryTablePerVisitingOperator[visitingOperator].voiceCallUsage = voiceCallUsage */\n      dup2\n      swap1\n      sstore\n      pop\n        /* \"RoamingDataManagement.sol\":3860:3873  internetUsage */\n      dup5\n        /* \"RoamingDataManagement.sol\":3789:3825  usageSummaryTablePerVisitingOperator */\n      dup2\n        /* \"RoamingDataManagement.sol\":3789:3843  usageSummaryTablePerVisitingOperator[visitingOperator] */\n      0x00\n        /* \"RoamingDataManagement.sol\":3826:3842  visitingOperator */\n      dup6\n        /* \"RoamingDataManagement.sol\":3789:3843  usageSummaryTablePerVisitingOperator[visitingOperator] */\n      0xffffffffffffffffffffffffffffffffffffffff\n      and\n      0xffffffffffffffffffffffffffffffffffffffff\n      and\n      dup2\n      mstore\n      0x20\n      add\n      swap1\n      dup2\n      mstore\n      0x20\n      add\n      0x00\n      keccak256\n        /* \"RoamingDataManagement.sol\":3789:3857  usageSummaryTablePerVisitingOperator[visitingOperator].internetUsage */\n      0x04\n      add\n        /* \"RoamingDataManagement.sol\":3789:3873  usageSummaryTablePerVisitingOperator[visitingOperator].internetUsage = internetUsage */\n      dup2\n      swap1\n      sstore\n      pop\n        /* \"RoamingDataManagement.sol\":3949:3957  smsUsage */\n      dup4\n        /* \"RoamingDataManagement.sol\":3883:3919  usageSummaryTablePerVisitingOperator */\n      dup2\n        /* \"RoamingDataManagement.sol\":3883:3937  usageSummaryTablePerVisitingOperator[visitingOperator] */\n      0x00\n        /* \"RoamingDataManagement.sol\":3920:3936  visitingOperator */\n      dup6\n        /* \"RoamingDataManagement.sol\":3883:3937  usageSummaryTablePerVisitingOperator[visitingOperator] */\n      0xffffffffffffffffffffffffffffffffffffffff\n      and\n      0xffffffffffffffffffffffffffffffffffffffff\n      and\n      dup2\n      mstore\n      0x20\n      add\n      swap1\n      dup2\n      mstore\n      0x20\n      add\n      0x00\n      keccak256\n        /* \"RoamingDataManagement.sol\":3883:3946  usageSummaryTablePerVisitingOperator[visitingOperator].smsUsage */\n      0x05\n      add\n        /* \"RoamingDataManagement.sol\":3883:3957  usageSummaryTablePerVisitingOperator[visitingOperator].smsUsage = smsUsage */\n      dup2\n      swap1\n      sstore\n      pop\n        /* \"RoamingDataManagement.sol\":4033:4076  transfer(payable(visitingOperator), 1 gwei) */\n      tag_157\n        /* \"RoamingDataManagement.sol\":4050:4066  visitingOperator */\n      dup4\n        /* \"RoamingDataManagement.sol\":4069:4075  1 gwei */\n      0x3b9aca00\n        /* \"RoamingDataManagement.sol\":4033:4041  transfer */\n      tag_71\n        /* \"RoamingDataManagement.sol\":4033:4076  transfer(payable(visitingOperator), 1 gwei) */\n      jump\t// in\n    tag_157:\n        /* \"RoamingDataManagement.sol\":2741:4083  {... */\n      pop\n      pop\n      pop\n        /* \"RoamingDataManagement.sol\":2560:4083  function uploadUserDataSummary(string memory imsi, string memory number, string memory serviceProvider, ... */\n      pop\n      pop\n      pop\n      pop\n      pop\n      pop\n      jump\t// out\n        /* \"RoamingDataManagement.sol\":4416:5054  function fetchUserDataSummary(string memory visitingOperatorName) public view returns(string[] memory, UserDataSummary[] memory) {... */\n    tag_64:\n        /* \"RoamingDataManagement.sol\":4502:4517  string[] memory */\n      0x60\n        /* \"RoamingDataManagement.sol\":4519:4543  UserDataSummary[] memory */\n      dup1\n        /* \"RoamingDataManagement.sol\":4555:4579  address homeOperatorAddr */\n      0x00\n        /* \"RoamingDataManagement.sol\":4582:4592  msg.sender */\n      caller\n        /* \"RoamingDataManagement.sol\":4555:4592  address homeOperatorAddr = msg.sender */\n      swap1\n      pop\n        /* \"RoamingDataManagement.sol\":4602:4624  string[] storage users */\n      0x00\n        /* \"RoamingDataManagement.sol\":4627:4636  userTable */\n      0x05\n        /* \"RoamingDataManagement.sol\":4627:4654  userTable[homeOperatorAddr] */\n      0x00\n        /* \"RoamingDataManagement.sol\":4637:4653  homeOperatorAddr */\n      dup4\n        /* \"RoamingDataManagement.sol\":4627:4654  userTable[homeOperatorAddr] */\n      0xffffffffffffffffffffffffffffffffffffffff\n      and\n      0xffffffffffffffffffffffffffffffffffffffff\n      and\n      dup2\n      mstore\n      0x20\n      add\n      swap1\n      dup2\n      mstore\n      0x20\n      add\n      0x00\n      keccak256\n        /* \"RoamingDataManagement.sol\":4602:4654  string[] storage users = userTable[homeOperatorAddr] */\n      swap1\n      pop\n        /* \"RoamingDataManagement.sol\":4665:4704  UserDataSummary[] memory dataSummarries */\n      0x00\n        /* \"RoamingDataManagement.sol\":4729:4738  userTable */\n      0x05\n        /* \"RoamingDataManagement.sol\":4729:4756  userTable[homeOperatorAddr] */\n      0x00\n        /* \"RoamingDataManagement.sol\":4739:4755  homeOperatorAddr */\n      dup5\n        /* \"RoamingDataManagement.sol\":4729:4756  userTable[homeOperatorAddr] */\n      0xffffffffffffffffffffffffffffffffffffffff\n      and\n      0xffffffffffffffffffffffffffffffffffffffff\n      and\n      dup2\n      mstore\n      0x20\n      add\n      swap1\n      dup2\n      mstore\n      0x20\n      add\n      0x00\n      keccak256\n        /* \"RoamingDataManagement.sol\":4729:4763  userTable[homeOperatorAddr].length */\n      dup1\n      sload\n      swap1\n      pop\n        /* \"RoamingDataManagement.sol\":4707:4764  new UserDataSummary[](userTable[homeOperatorAddr].length) */\n      0xffffffffffffffff\n      dup2\n      gt\n      iszero\n      tag_159\n      jumpi\n      tag_160\n      tag_161\n      jump\t// in\n    tag_160:\n    tag_159:\n      mload(0x40)\n      swap1\n      dup1\n      dup3\n      mstore\n      dup1\n      0x20\n      mul\n      0x20\n      add\n      dup3\n      add\n      0x40\n      mstore\n      dup1\n      iszero\n      tag_162\n      jumpi\n      dup2\n      0x20\n      add\n    tag_163:\n      tag_164\n      tag_165\n      jump\t// in\n    tag_164:\n      dup2\n      mstore\n      0x20\n      add\n      swap1\n      0x01\n      swap1\n      sub\n      swap1\n      dup2\n      tag_163\n      jumpi\n      swap1\n      pop\n    tag_162:\n      pop\n        /* \"RoamingDataManagement.sol\":4665:4764  UserDataSummary[] memory dataSummarries = new UserDataSummary[](userTable[homeOperatorAddr].length) */\n      swap1\n      pop\n        /* \"RoamingDataManagement.sol\":4779:4785  uint i */\n      0x00\n        /* \"RoamingDataManagement.sol\":4774:4985  for (uint i = 0; i < users.length; ++i) {... */\n    tag_166:\n        /* \"RoamingDataManagement.sol\":4795:4800  users */\n      dup3\n        /* \"RoamingDataManagement.sol\":4795:4807  users.length */\n      dup1\n      sload\n      swap1\n      pop\n        /* \"RoamingDataManagement.sol\":4791:4792  i */\n      dup2\n        /* \"RoamingDataManagement.sol\":4791:4807  i < users.length */\n      lt\n        /* \"RoamingDataManagement.sol\":4774:4985  for (uint i = 0; i < users.length; ++i) {... */\n      iszero\n      tag_167\n      jumpi\n        /* \"RoamingDataManagement.sol\":4828:4846  string memory imsi */\n      0x00\n        /* \"RoamingDataManagement.sol\":4849:4854  users */\n      dup4\n        /* \"RoamingDataManagement.sol\":4855:4856  i */\n      dup3\n        /* \"RoamingDataManagement.sol\":4849:4857  users[i] */\n      dup2\n      sload\n      dup2\n      lt\n      tag_169\n      jumpi\n      tag_170\n      tag_171\n      jump\t// in\n    tag_170:\n    tag_169:\n      swap1\n      0x00\n      mstore\n      keccak256(0x00, 0x20)\n      add\n        /* \"RoamingDataManagement.sol\":4828:4857  string memory imsi = users[i] */\n      dup1\n      sload\n      tag_173\n      swap1\n      tag_102\n      jump\t// in\n    tag_173:\n      dup1\n      0x1f\n      add\n      0x20\n      dup1\n      swap2\n      div\n      mul\n      0x20\n      add\n      mload(0x40)\n      swap1\n      dup2\n      add\n      0x40\n      mstore\n      dup1\n      swap3\n      swap2\n      swap1\n      dup2\n      dup2\n      mstore\n      0x20\n      add\n      dup3\n      dup1\n      sload\n      tag_174\n      swap1\n      tag_102\n      jump\t// in\n    tag_174:\n      dup1\n      iszero\n      tag_175\n      jumpi\n      dup1\n      0x1f\n      lt\n      tag_176\n      jumpi\n      0x0100\n      dup1\n      dup4\n      sload\n      div\n      mul\n      dup4\n      mstore\n      swap2\n      0x20\n      add\n      swap2\n      jump(tag_175)\n    tag_176:\n      dup3\n      add\n      swap2\n      swap1\n      0x00\n      mstore\n      keccak256(0x00, 0x20)\n      swap1\n    tag_177:\n      dup2\n      sload\n      dup2\n      mstore\n      swap1\n      0x01\n      add\n      swap1\n      0x20\n      add\n      dup1\n      dup4\n      gt\n      tag_177\n      jumpi\n      dup3\n      swap1\n      sub\n      0x1f\n      and\n      dup3\n      add\n      swap2\n    tag_175:\n      pop\n      pop\n      pop\n      pop\n      pop\n      swap1\n      pop\n        /* \"RoamingDataManagement.sol\":4891:4907  dataSummaryTable */\n      0x06\n        /* \"RoamingDataManagement.sol\":4891:4925  dataSummaryTable[homeOperatorAddr] */\n      0x00\n        /* \"RoamingDataManagement.sol\":4908:4924  homeOperatorAddr */\n      dup7\n        /* \"RoamingDataManagement.sol\":4891:4925  dataSummaryTable[homeOperatorAddr] */\n      0xffffffffffffffffffffffffffffffffffffffff\n      and\n      0xffffffffffffffffffffffffffffffffffffffff\n      and\n      dup2\n      mstore\n      0x20\n      add\n      swap1\n      dup2\n      mstore\n      0x20\n      add\n      0x00\n      keccak256\n        /* \"RoamingDataManagement.sol\":4926:4930  imsi */\n      dup2\n        /* \"RoamingDataManagement.sol\":4891:4931  dataSummaryTable[homeOperatorAddr][imsi] */\n      mload(0x40)\n      tag_178\n      swap2\n      swap1\n      tag_140\n      jump\t// in\n    tag_178:\n      swap1\n      dup2\n      mstore\n      0x20\n      add\n      mload(0x40)\n      dup1\n      swap2\n      sub\n      swap1\n      keccak256\n        /* \"RoamingDataManagement.sol\":4891:4974  dataSummaryTable[homeOperatorAddr][imsi][operatorsNameToAddr[visitingOperatorName]] */\n      0x00\n        /* \"RoamingDataManagement.sol\":4932:4951  operatorsNameToAddr */\n      0x03\n        /* \"RoamingDataManagement.sol\":4952:4972  visitingOperatorName */\n      dup11\n        /* \"RoamingDataManagement.sol\":4932:4973  operatorsNameToAddr[visitingOperatorName] */\n      mload(0x40)\n      tag_179\n      swap2\n      swap1\n      tag_140\n      jump\t// in\n    tag_179:\n      swap1\n      dup2\n      mstore\n      0x20\n      add\n      mload(0x40)\n      dup1\n      swap2\n      sub\n      swap1\n      keccak256\n      0x00\n      swap1\n      sload\n      swap1\n      0x0100\n      exp\n      swap1\n      div\n      0xffffffffffffffffffffffffffffffffffffffff\n      and\n        /* \"RoamingDataManagement.sol\":4891:4974  dataSummaryTable[homeOperatorAddr][imsi][operatorsNameToAddr[visitingOperatorName]] */\n      0xffffffffffffffffffffffffffffffffffffffff\n      and\n      0xffffffffffffffffffffffffffffffffffffffff\n      and\n      dup2\n      mstore\n      0x20\n      add\n      swap1\n      dup2\n      mstore\n      0x20\n      add\n      0x00\n      keccak256\n        /* \"RoamingDataManagement.sol\":4871:4974  dataSummarries[i] = dataSummaryTable[homeOperatorAddr][imsi][operatorsNameToAddr[visitingOperatorName]] */\n      mload(0x40)\n      dup1\n      0xc0\n      add\n      0x40\n      mstore\n      swap1\n      dup2\n      0x00\n      dup3\n      add\n      dup1\n      sload\n      tag_180\n      swap1\n      tag_102\n      jump\t// in\n    tag_180:\n      dup1\n      0x1f\n      add\n      0x20\n      dup1\n      swap2\n      div\n      mul\n      0x20\n      add\n      mload(0x40)\n      swap1\n      dup2\n      add\n      0x40\n      mstore\n      dup1\n      swap3\n      swap2\n      swap1\n      dup2\n      dup2\n      mstore\n      0x20\n      add\n      dup3\n      dup1\n      sload\n      tag_181\n      swap1\n      tag_102\n      jump\t// in\n    tag_181:\n      dup1\n      iszero\n      tag_182\n      jumpi\n      dup1\n      0x1f\n      lt\n      tag_183\n      jumpi\n      0x0100\n      dup1\n      dup4\n      sload\n      div\n      mul\n      dup4\n      mstore\n      swap2\n      0x20\n      add\n      swap2\n      jump(tag_182)\n    tag_183:\n      dup3\n      add\n      swap2\n      swap1\n      0x00\n      mstore\n      keccak256(0x00, 0x20)\n      swap1\n    tag_184:\n      dup2\n      sload\n      dup2\n      mstore\n      swap1\n      0x01\n      add\n      swap1\n      0x20\n      add\n      dup1\n      dup4\n      gt\n      tag_184\n      jumpi\n      dup3\n      swap1\n      sub\n      0x1f\n      and\n      dup3\n      add\n      swap2\n    tag_182:\n      pop\n      pop\n      pop\n      pop\n      pop\n      dup2\n      mstore\n      0x20\n      add\n      0x01\n      dup3\n      add\n      dup1\n      sload\n      tag_185\n      swap1\n      tag_102\n      jump\t// in\n    tag_185:\n      dup1\n      0x1f\n      add\n      0x20\n      dup1\n      swap2\n      div\n      mul\n      0x20\n      add\n      mload(0x40)\n      swap1\n      dup2\n      add\n      0x40\n      mstore\n      dup1\n      swap3\n      swap2\n      swap1\n      dup2\n      dup2\n      mstore\n      0x20\n      add\n      dup3\n      dup1\n      sload\n      tag_186\n      swap1\n      tag_102\n      jump\t// in\n    tag_186:\n      dup1\n      iszero\n      tag_187\n      jumpi\n      dup1\n      0x1f\n      lt\n      tag_188\n      jumpi\n      0x0100\n      dup1\n      dup4\n      sload\n      div\n      mul\n      dup4\n      mstore\n      swap2\n      0x20\n      add\n      swap2\n      jump(tag_187)\n    tag_188:\n      dup3\n      add\n      swap2\n      swap1\n      0x00\n      mstore\n      keccak256(0x00, 0x20)\n      swap1\n    tag_189:\n      dup2\n      sload\n      dup2\n      mstore\n      swap1\n      0x01\n      add\n      swap1\n      0x20\n      add\n      dup1\n      dup4\n      gt\n      tag_189\n      jumpi\n      dup3\n      swap1\n      sub\n      0x1f\n      and\n      dup3\n      add\n      swap2\n    tag_187:\n      pop\n      pop\n      pop\n      pop\n      pop\n      dup2\n      mstore\n      0x20\n      add\n      0x02\n      dup3\n      add\n      dup1\n      sload\n      tag_190\n      swap1\n      tag_102\n      jump\t// in\n    tag_190:\n      dup1\n      0x1f\n      add\n      0x20\n      dup1\n      swap2\n      div\n      mul\n      0x20\n      add\n      mload(0x40)\n      swap1\n      dup2\n      add\n      0x40\n      mstore\n      dup1\n      swap3\n      swap2\n      swap1\n      dup2\n      dup2\n      mstore\n      0x20\n      add\n      dup3\n      dup1\n      sload\n      tag_191\n      swap1\n      tag_102\n      jump\t// in\n    tag_191:\n      dup1\n      iszero\n      tag_192\n      jumpi\n      dup1\n      0x1f\n      lt\n      tag_193\n      jumpi\n      0x0100\n      dup1\n      dup4\n      sload\n      div\n      mul\n      dup4\n      mstore\n      swap2\n      0x20\n      add\n      swap2\n      jump(tag_192)\n    tag_193:\n      dup3\n      add\n      swap2\n      swap1\n      0x00\n      mstore\n      keccak256(0x00, 0x20)\n      swap1\n    tag_194:\n      dup2\n      sload\n      dup2\n      mstore\n      swap1\n      0x01\n      add\n      swap1\n      0x20\n      add\n      dup1\n      dup4\n      gt\n      tag_194\n      jumpi\n      dup3\n      swap1\n      sub\n      0x1f\n      and\n      dup3\n      add\n      swap2\n    tag_192:\n      pop\n      pop\n      pop\n      pop\n      pop\n      dup2\n      mstore\n      0x20\n      add\n      0x03\n      dup3\n      add\n      sload\n      dup2\n      mstore\n      0x20\n      add\n      0x04\n      dup3\n      add\n      sload\n      dup2\n      mstore\n      0x20\n      add\n      0x05\n      dup3\n      add\n      sload\n      dup2\n      mstore\n      pop\n      pop\n        /* \"RoamingDataManagement.sol\":4871:4885  dataSummarries */\n      dup4\n        /* \"RoamingDataManagement.sol\":4886:4887  i */\n      dup4\n        /* \"RoamingDataManagement.sol\":4871:4888  dataSummarries[i] */\n      dup2\n      mload\n      dup2\n      lt\n      tag_195\n      jumpi\n      tag_196\n      tag_171\n      jump\t// in\n    tag_196:\n    tag_195:\n      0x20\n      mul\n      0x20\n      add\n      add\n        /* \"RoamingDataManagement.sol\":4871:4974  dataSummarries[i] = dataSummaryTable[homeOperatorAddr][imsi][operatorsNameToAddr[visitingOperatorName]] */\n      dup2\n      swap1\n      mstore\n      pop\n        /* \"RoamingDataManagement.sol\":4814:4985  {... */\n      pop\n        /* \"RoamingDataManagement.sol\":4809:4812  ++i */\n      dup1\n      tag_197\n      swap1\n      tag_152\n      jump\t// in\n    tag_197:\n      swap1\n      pop\n        /* \"RoamingDataManagement.sol\":4774:4985  for (uint i = 0; i < users.length; ++i) {... */\n      jump(tag_166)\n    tag_167:\n      pop\n        /* \"RoamingDataManagement.sol\":5003:5012  userTable */\n      0x05\n        /* \"RoamingDataManagement.sol\":5003:5030  userTable[homeOperatorAddr] */\n      0x00\n        /* \"RoamingDataManagement.sol\":5013:5029  homeOperatorAddr */\n      dup5\n        /* \"RoamingDataManagement.sol\":5003:5030  userTable[homeOperatorAddr] */\n      0xffffffffffffffffffffffffffffffffffffffff\n      and\n      0xffffffffffffffffffffffffffffffffffffffff\n      and\n      dup2\n      mstore\n      0x20\n      add\n      swap1\n      dup2\n      mstore\n      0x20\n      add\n      0x00\n      keccak256\n        /* \"RoamingDataManagement.sol\":5032:5046  dataSummarries */\n      dup2\n        /* \"RoamingDataManagement.sol\":4995:5047  return (userTable[homeOperatorAddr], dataSummarries) */\n      dup2\n      dup1\n      sload\n      dup1\n      0x20\n      mul\n      0x20\n      add\n      mload(0x40)\n      swap1\n      dup2\n      add\n      0x40\n      mstore\n      dup1\n      swap3\n      swap2\n      swap1\n      dup2\n      dup2\n      mstore\n      0x20\n      add\n      0x00\n      swap1\n    tag_198:\n      dup3\n      dup3\n      lt\n      iszero\n      tag_199\n      jumpi\n      dup4\n      dup3\n      swap1\n      0x00\n      mstore\n      keccak256(0x00, 0x20)\n      add\n      dup1\n      sload\n      tag_201\n      swap1\n      tag_102\n      jump\t// in\n    tag_201:\n      dup1\n      0x1f\n      add\n      0x20\n      dup1\n      swap2\n      div\n      mul\n      0x20\n      add\n      mload(0x40)\n      swap1\n      dup2\n      add\n      0x40\n      mstore\n      dup1\n      swap3\n      swap2\n      swap1\n      dup2\n      dup2\n      mstore\n      0x20\n      add\n      dup3\n      dup1\n      sload\n      tag_202\n      swap1\n      tag_102\n      jump\t// in\n    tag_202:\n      dup1\n      iszero\n      tag_203\n      jumpi\n      dup1\n      0x1f\n      lt\n      tag_204\n      jumpi\n      0x0100\n      dup1\n      dup4\n      sload\n      div\n      mul\n      dup4\n      mstore\n      swap2\n      0x20\n      add\n      swap2\n      jump(tag_203)\n    tag_204:\n      dup3\n      add\n      swap2\n      swap1\n      0x00\n      mstore\n      keccak256(0x00, 0x20)\n      swap1\n    tag_205:\n      dup2\n      sload\n      dup2\n      mstore\n      swap1\n      0x01\n      add\n      swap1\n      0x20\n      add\n      dup1\n      dup4\n      gt\n      tag_205\n      jumpi\n      dup3\n      swap1\n      sub\n      0x1f\n      and\n      dup3\n      add\n      swap2\n    tag_203:\n      pop\n      pop\n      pop\n      pop\n      pop\n      dup2\n      mstore\n      0x20\n      add\n      swap1\n      0x01\n      add\n      swap1\n      jump(tag_198)\n    tag_199:\n      pop\n      pop\n      pop\n      pop\n      swap2\n      pop\n      swap5\n      pop\n      swap5\n      pop\n      pop\n      pop\n      pop\n        /* \"RoamingDataManagement.sol\":4416:5054  function fetchUserDataSummary(string memory visitingOperatorName) public view returns(string[] memory, UserDataSummary[] memory) {... */\n      swap2\n      pop\n      swap2\n      jump\t// out\n        /* \"RoamingDataManagement.sol\":5135:5309  function transfer(address payable _to, uint _amount) public {... */\n    tag_71:\n        /* \"RoamingDataManagement.sol\":5206:5218  bool success */\n      0x00\n        /* \"RoamingDataManagement.sol\":5224:5227  _to */\n      dup3\n        /* \"RoamingDataManagement.sol\":5224:5232  _to.call */\n      0xffffffffffffffffffffffffffffffffffffffff\n      and\n        /* \"RoamingDataManagement.sol\":5240:5247  _amount */\n      dup3\n        /* \"RoamingDataManagement.sol\":5224:5252  _to.call{value: _amount}(\"\") */\n      mload(0x40)\n      tag_207\n      swap1\n      tag_208\n      jump\t// in\n    tag_207:\n      0x00\n      mload(0x40)\n      dup1\n      dup4\n      sub\n      dup2\n      dup6\n      dup8\n      gas\n      call\n      swap3\n      pop\n      pop\n      pop\n      returndatasize\n      dup1\n      0x00\n      dup2\n      eq\n      tag_211\n      jumpi\n      mload(0x40)\n      swap2\n      pop\n      and(add(returndatasize, 0x3f), not(0x1f))\n      dup3\n      add\n      0x40\n      mstore\n      returndatasize\n      dup3\n      mstore\n      returndatasize\n      0x00\n      0x20\n      dup5\n      add\n      returndatacopy\n      jump(tag_210)\n    tag_211:\n      0x60\n      swap2\n      pop\n    tag_210:\n      pop\n        /* \"RoamingDataManagement.sol\":5205:5252  (bool success, ) = _to.call{value: _amount}(\"\") */\n      pop\n      swap1\n      pop\n        /* \"RoamingDataManagement.sol\":5270:5277  success */\n      dup1\n        /* \"RoamingDataManagement.sol\":5262:5302  require(success, \"Failed to send Ether\") */\n      tag_212\n      jumpi\n      mload(0x40)\n      0x08c379a000000000000000000000000000000000000000000000000000000000\n      dup2\n      mstore\n      0x04\n      add\n      tag_213\n      swap1\n      tag_214\n      jump\t// in\n    tag_213:\n      mload(0x40)\n      dup1\n      swap2\n      sub\n      swap1\n      revert\n    tag_212:\n        /* \"RoamingDataManagement.sol\":5195:5309  {... */\n      pop\n        /* \"RoamingDataManagement.sol\":5135:5309  function transfer(address payable _to, uint _amount) public {... */\n      pop\n      pop\n      jump\t// out\n        /* \"RoamingDataManagement.sol\":4089:4283  function dataSummaryExists(string memory imsi, string memory homeOperator) public view returns(bool) {... */\n    tag_76:\n        /* \"RoamingDataManagement.sol\":4184:4188  bool */\n      0x00\n        /* \"RoamingDataManagement.sol\":4274:4275  0 */\n      dup1\n        /* \"RoamingDataManagement.sol\":4209:4229  numOfUserDataEntries */\n      0x07\n        /* \"RoamingDataManagement.sol\":4209:4264  numOfUserDataEntries[operatorsNameToAddr[homeOperator]] */\n      0x00\n        /* \"RoamingDataManagement.sol\":4230:4249  operatorsNameToAddr */\n      0x03\n        /* \"RoamingDataManagement.sol\":4250:4262  homeOperator */\n      dup6\n        /* \"RoamingDataManagement.sol\":4230:4263  operatorsNameToAddr[homeOperator] */\n      mload(0x40)\n      tag_216\n      swap2\n      swap1\n      tag_140\n      jump\t// in\n    tag_216:\n      swap1\n      dup2\n      mstore\n      0x20\n      add\n      mload(0x40)\n      dup1\n      swap2\n      sub\n      swap1\n      keccak256\n      0x00\n      swap1\n      sload\n      swap1\n      0x0100\n      exp\n      swap1\n      div\n      0xffffffffffffffffffffffffffffffffffffffff\n      and\n        /* \"RoamingDataManagement.sol\":4209:4264  numOfUserDataEntries[operatorsNameToAddr[homeOperator]] */\n      0xffffffffffffffffffffffffffffffffffffffff\n      and\n      0xffffffffffffffffffffffffffffffffffffffff\n      and\n      dup2\n      mstore\n      0x20\n      add\n      swap1\n      dup2\n      mstore\n      0x20\n      add\n      0x00\n      keccak256\n        /* \"RoamingDataManagement.sol\":4265:4269  imsi */\n      dup5\n        /* \"RoamingDataManagement.sol\":4209:4270  numOfUserDataEntries[operatorsNameToAddr[homeOperator]][imsi] */\n      mload(0x40)\n      tag_217\n      swap2\n      swap1\n      tag_140\n      jump\t// in\n    tag_217:\n      swap1\n      dup2\n      mstore\n      0x20\n      add\n      mload(0x40)\n      dup1\n      swap2\n      sub\n      swap1\n      keccak256\n      sload\n        /* \"RoamingDataManagement.sol\":4209:4275  numOfUserDataEntries[operatorsNameToAddr[homeOperator]][imsi] == 0 */\n      eq\n        /* \"RoamingDataManagement.sol\":4207:4276  !(numOfUserDataEntries[operatorsNameToAddr[homeOperator]][imsi] == 0) */\n      iszero\n        /* \"RoamingDataManagement.sol\":4200:4276  return !(numOfUserDataEntries[operatorsNameToAddr[homeOperator]][imsi] == 0) */\n      swap1\n      pop\n        /* \"RoamingDataManagement.sol\":4089:4283  function dataSummaryExists(string memory imsi, string memory homeOperator) public view returns(bool) {... */\n      swap3\n      swap2\n      pop\n      pop\n      jump\t// out\n        /* \"RoamingDataManagement.sol\":1695:1794  function balance() external view returns(uint256)... */\n    tag_81:\n        /* \"RoamingDataManagement.sol\":1736:1743  uint256 */\n      0x00\n        /* \"RoamingDataManagement.sol\":1766:1787  address(this).balance */\n      selfbalance\n        /* \"RoamingDataManagement.sol\":1759:1787  return address(this).balance */\n      swap1\n      pop\n        /* \"RoamingDataManagement.sol\":1695:1794  function balance() external view returns(uint256)... */\n      swap1\n      jump\t// out\n        /* \"RoamingDataManagement.sol\":1800:2554  function registerRoamingOperator(address operatorAddr, string memory operatorName) public payable {... */\n    tag_87:\n        /* \"RoamingDataManagement.sol\":2109:2110  0 */\n      0x00\n        /* \"RoamingDataManagement.sol\":2064:2083  operatorsAddrToName */\n      0x02\n        /* \"RoamingDataManagement.sol\":2064:2097  operatorsAddrToName[operatorAddr] */\n      0x00\n        /* \"RoamingDataManagement.sol\":2084:2096  operatorAddr */\n      dup5\n        /* \"RoamingDataManagement.sol\":2064:2097  operatorsAddrToName[operatorAddr] */\n      0xffffffffffffffffffffffffffffffffffffffff\n      and\n      0xffffffffffffffffffffffffffffffffffffffff\n      and\n      dup2\n      mstore\n      0x20\n      add\n      swap1\n      dup2\n      mstore\n      0x20\n      add\n      0x00\n      keccak256\n        /* \"RoamingDataManagement.sol\":2058:2105  bytes(operatorsAddrToName[operatorAddr]).length */\n      dup1\n      sload\n      tag_220\n      swap1\n      tag_102\n      jump\t// in\n    tag_220:\n      swap1\n      pop\n        /* \"RoamingDataManagement.sol\":2058:2110  bytes(operatorsAddrToName[operatorAddr]).length == 0 */\n      eq\n        /* \"RoamingDataManagement.sol\":2058:2164  bytes(operatorsAddrToName[operatorAddr]).length == 0 && operatorsNameToAddr[operatorName] == address(0x00) */\n      dup1\n      iszero\n      tag_221\n      jumpi\n      pop\n        /* \"RoamingDataManagement.sol\":2159:2163  0x00 */\n      0x00\n        /* \"RoamingDataManagement.sol\":2114:2164  operatorsNameToAddr[operatorName] == address(0x00) */\n      0xffffffffffffffffffffffffffffffffffffffff\n      and\n        /* \"RoamingDataManagement.sol\":2114:2133  operatorsNameToAddr */\n      0x03\n        /* \"RoamingDataManagement.sol\":2134:2146  operatorName */\n      dup3\n        /* \"RoamingDataManagement.sol\":2114:2147  operatorsNameToAddr[operatorName] */\n      mload(0x40)\n      tag_222\n      swap2\n      swap1\n      tag_140\n      jump\t// in\n    tag_222:\n      swap1\n      dup2\n      mstore\n      0x20\n      add\n      mload(0x40)\n      dup1\n      swap2\n      sub\n      swap1\n      keccak256\n      0x00\n      swap1\n      sload\n      swap1\n      0x0100\n      exp\n      swap1\n      div\n      0xffffffffffffffffffffffffffffffffffffffff\n      and\n        /* \"RoamingDataManagement.sol\":2114:2164  operatorsNameToAddr[operatorName] == address(0x00) */\n      0xffffffffffffffffffffffffffffffffffffffff\n      and\n      eq\n        /* \"RoamingDataManagement.sol\":2058:2164  bytes(operatorsAddrToName[operatorAddr]).length == 0 && operatorsNameToAddr[operatorName] == address(0x00) */\n    tag_221:\n        /* \"RoamingDataManagement.sol\":2054:2548  if (bytes(operatorsAddrToName[operatorAddr]).length == 0 && operatorsNameToAddr[operatorName] == address(0x00)) {... */\n      iszero\n      tag_223\n      jumpi\n        /* \"RoamingDataManagement.sol\":2180:2196  serviceProviders */\n      0x00\n        /* \"RoamingDataManagement.sol\":2202:2214  operatorName */\n      dup2\n        /* \"RoamingDataManagement.sol\":2180:2215  serviceProviders.push(operatorName) */\n      swap1\n      dup1\n      0x01\n      dup2\n      sload\n      add\n      dup1\n      dup3\n      sstore\n      dup1\n      swap2\n      pop\n      pop\n      0x01\n      swap1\n      sub\n      swap1\n      0x00\n      mstore\n      keccak256(0x00, 0x20)\n      add\n      0x00\n      swap1\n      swap2\n      swap1\n      swap2\n      swap1\n      swap2\n      pop\n      swap1\n      dup2\n      tag_225\n      swap2\n      swap1\n      tag_148\n      jump\t// in\n    tag_225:\n      pop\n        /* \"RoamingDataManagement.sol\":2229:2246  operatorAddresses */\n      0x01\n        /* \"RoamingDataManagement.sol\":2252:2264  operatorAddr */\n      dup3\n        /* \"RoamingDataManagement.sol\":2229:2265  operatorAddresses.push(operatorAddr) */\n      swap1\n      dup1\n      0x01\n      dup2\n      sload\n      add\n      dup1\n      dup3\n      sstore\n      dup1\n      swap2\n      pop\n      pop\n      0x01\n      swap1\n      sub\n      swap1\n      0x00\n      mstore\n      keccak256(0x00, 0x20)\n      add\n      0x00\n      swap1\n      swap2\n      swap1\n      swap2\n      swap1\n      swap2\n      0x0100\n      exp\n      dup2\n      sload\n      dup2\n      0xffffffffffffffffffffffffffffffffffffffff\n      mul\n      not\n      and\n      swap1\n      dup4\n      0xffffffffffffffffffffffffffffffffffffffff\n      and\n      mul\n      or\n      swap1\n      sstore\n      pop\n        /* \"RoamingDataManagement.sol\":2318:2330  operatorAddr */\n      dup2\n        /* \"RoamingDataManagement.sol\":2282:2301  operatorsNameToAddr */\n      0x03\n        /* \"RoamingDataManagement.sol\":2302:2314  operatorName */\n      dup3\n        /* \"RoamingDataManagement.sol\":2282:2315  operatorsNameToAddr[operatorName] */\n      mload(0x40)\n      tag_227\n      swap2\n      swap1\n      tag_140\n      jump\t// in\n    tag_227:\n      swap1\n      dup2\n      mstore\n      0x20\n      add\n      mload(0x40)\n      dup1\n      swap2\n      sub\n      swap1\n      keccak256\n      0x00\n        /* \"RoamingDataManagement.sol\":2282:2330  operatorsNameToAddr[operatorName] = operatorAddr */\n      0x0100\n      exp\n      dup2\n      sload\n      dup2\n      0xffffffffffffffffffffffffffffffffffffffff\n      mul\n      not\n      and\n      swap1\n      dup4\n      0xffffffffffffffffffffffffffffffffffffffff\n      and\n      mul\n      or\n      swap1\n      sstore\n      pop\n        /* \"RoamingDataManagement.sol\":2380:2392  operatorName */\n      dup1\n        /* \"RoamingDataManagement.sol\":2344:2363  operatorsAddrToName */\n      0x02\n        /* \"RoamingDataManagement.sol\":2344:2377  operatorsAddrToName[operatorAddr] */\n      0x00\n        /* \"RoamingDataManagement.sol\":2364:2376  operatorAddr */\n      dup5\n        /* \"RoamingDataManagement.sol\":2344:2377  operatorsAddrToName[operatorAddr] */\n      0xffffffffffffffffffffffffffffffffffffffff\n      and\n      0xffffffffffffffffffffffffffffffffffffffff\n      and\n      dup2\n      mstore\n      0x20\n      add\n      swap1\n      dup2\n      mstore\n      0x20\n      add\n      0x00\n      keccak256\n        /* \"RoamingDataManagement.sol\":2344:2392  operatorsAddrToName[operatorAddr] = operatorName */\n      swap1\n      dup2\n      tag_228\n      swap2\n      swap1\n      tag_148\n      jump\t// in\n    tag_228:\n      pop\n        /* \"RoamingDataManagement.sol\":2054:2548  if (bytes(operatorsAddrToName[operatorAddr]).length == 0 && operatorsNameToAddr[operatorName] == address(0x00)) {... */\n    tag_223:\n        /* \"RoamingDataManagement.sol\":1800:2554  function registerRoamingOperator(address operatorAddr, string memory operatorName) public payable {... */\n      pop\n      pop\n      jump\t// out\n        /* \"RoamingDataManagement.sol\":1531:1611  function deposit() public payable... */\n    tag_89:\n        /* \"RoamingDataManagement.sol\":1595:1604  msg.value */\n      callvalue\n        /* \"RoamingDataManagement.sol\":1579:1591  totalDeposit */\n      0x04\n      0x00\n        /* \"RoamingDataManagement.sol\":1579:1604  totalDeposit += msg.value */\n      dup3\n      dup3\n      sload\n      tag_230\n      swap2\n      swap1\n      tag_231\n      jump\t// in\n    tag_230:\n      swap3\n      pop\n      pop\n      dup2\n      swap1\n      sstore\n      pop\n        /* \"RoamingDataManagement.sol\":1531:1611  function deposit() public payable... */\n      jump\t// out\n        /* \"RoamingDataManagement.sol\":720:744  uint public totalDeposit */\n    tag_92:\n      sload(0x04)\n      dup2\n      jump\t// out\n        /* \"RoamingDataManagement.sol\":660:713  mapping(string => address) public operatorsNameToAddr */\n    tag_97:\n      0x03\n      dup2\n      dup1\n      mload\n      0x20\n      dup2\n      add\n      dup3\n      add\n      dup1\n      mload\n      dup5\n      dup3\n      mstore\n      0x20\n      dup4\n      add\n      0x20\n      dup6\n      add\n      keccak256\n      dup2\n      dup4\n      mstore\n      dup1\n      swap6\n      pop\n      pop\n      pop\n      pop\n      pop\n      pop\n      0x00\n      swap2\n      pop\n      sload\n      swap1\n      0x0100\n      exp\n      swap1\n      div\n      0xffffffffffffffffffffffffffffffffffffffff\n      and\n      dup2\n      jump\t// out\n    tag_165:\n      mload(0x40)\n      dup1\n      0xc0\n      add\n      0x40\n      mstore\n      dup1\n      0x60\n      dup2\n      mstore\n      0x20\n      add\n      0x60\n      dup2\n      mstore\n      0x20\n      add\n      0x60\n      dup2\n      mstore\n      0x20\n      add\n      0x00\n      dup2\n      mstore\n      0x20\n      add\n      0x00\n      dup2\n      mstore\n      0x20\n      add\n      0x00\n      dup2\n      mstore\n      pop\n      swap1\n      jump\t// out\n        /* \"#utility.yul\":7:82   */\n    tag_232:\n        /* \"#utility.yul\":40:46   */\n      0x00\n        /* \"#utility.yul\":73:75   */\n      0x40\n        /* \"#utility.yul\":67:76   */\n      mload\n        /* \"#utility.yul\":57:76   */\n      swap1\n      pop\n        /* \"#utility.yul\":7:82   */\n      swap1\n      jump\t// out\n        /* \"#utility.yul\":88:205   */\n    tag_233:\n        /* \"#utility.yul\":197:198   */\n      0x00\n        /* \"#utility.yul\":194:195   */\n      dup1\n        /* \"#utility.yul\":187:199   */\n      revert\n        /* \"#utility.yul\":211:328   */\n    tag_234:\n        /* \"#utility.yul\":320:321   */\n      0x00\n        /* \"#utility.yul\":317:318   */\n      dup1\n        /* \"#utility.yul\":310:322   */\n      revert\n        /* \"#utility.yul\":334:411   */\n    tag_235:\n        /* \"#utility.yul\":371:378   */\n      0x00\n        /* \"#utility.yul\":400:405   */\n      dup2\n        /* \"#utility.yul\":389:405   */\n      swap1\n      pop\n        /* \"#utility.yul\":334:411   */\n      swap2\n      swap1\n      pop\n      jump\t// out\n        /* \"#utility.yul\":417:539   */\n    tag_236:\n        /* \"#utility.yul\":490:514   */\n      tag_308\n        /* \"#utility.yul\":508:513   */\n      dup2\n        /* \"#utility.yul\":490:514   */\n      tag_235\n      jump\t// in\n    tag_308:\n        /* \"#utility.yul\":483:488   */\n      dup2\n        /* \"#utility.yul\":480:515   */\n      eq\n        /* \"#utility.yul\":470:533   */\n      tag_309\n      jumpi\n        /* \"#utility.yul\":529:530   */\n      0x00\n        /* \"#utility.yul\":526:527   */\n      dup1\n        /* \"#utility.yul\":519:531   */\n      revert\n        /* \"#utility.yul\":470:533   */\n    tag_309:\n        /* \"#utility.yul\":417:539   */\n      pop\n      jump\t// out\n        /* \"#utility.yul\":545:684   */\n    tag_237:\n        /* \"#utility.yul\":591:596   */\n      0x00\n        /* \"#utility.yul\":629:635   */\n      dup2\n        /* \"#utility.yul\":616:636   */\n      calldataload\n        /* \"#utility.yul\":607:636   */\n      swap1\n      pop\n        /* \"#utility.yul\":645:678   */\n      tag_311\n        /* \"#utility.yul\":672:677   */\n      dup2\n        /* \"#utility.yul\":645:678   */\n      tag_236\n      jump\t// in\n    tag_311:\n        /* \"#utility.yul\":545:684   */\n      swap3\n      swap2\n      pop\n      pop\n      jump\t// out\n        /* \"#utility.yul\":690:1019   */\n    tag_26:\n        /* \"#utility.yul\":749:755   */\n      0x00\n        /* \"#utility.yul\":798:800   */\n      0x20\n        /* \"#utility.yul\":786:795   */\n      dup3\n        /* \"#utility.yul\":777:784   */\n      dup5\n        /* \"#utility.yul\":773:796   */\n      sub\n        /* \"#utility.yul\":769:801   */\n      slt\n        /* \"#utility.yul\":766:885   */\n      iszero\n      tag_313\n      jumpi\n        /* \"#utility.yul\":804:883   */\n      tag_314\n      tag_233\n      jump\t// in\n    tag_314:\n        /* \"#utility.yul\":766:885   */\n    tag_313:\n        /* \"#utility.yul\":924:925   */\n      0x00\n        /* \"#utility.yul\":949:1002   */\n      tag_315\n        /* \"#utility.yul\":994:1001   */\n      dup5\n        /* \"#utility.yul\":985:991   */\n      dup3\n        /* \"#utility.yul\":974:983   */\n      dup6\n        /* \"#utility.yul\":970:992   */\n      add\n        /* \"#utility.yul\":949:1002   */\n      tag_237\n      jump\t// in\n    tag_315:\n        /* \"#utility.yul\":939:1002   */\n      swap2\n      pop\n        /* \"#utility.yul\":895:1012   */\n      pop\n        /* \"#utility.yul\":690:1019   */\n      swap3\n      swap2\n      pop\n      pop\n      jump\t// out\n        /* \"#utility.yul\":1025:1124   */\n    tag_238:\n        /* \"#utility.yul\":1077:1083   */\n      0x00\n        /* \"#utility.yul\":1111:1116   */\n      dup2\n        /* \"#utility.yul\":1105:1117   */\n      mload\n        /* \"#utility.yul\":1095:1117   */\n      swap1\n      pop\n        /* \"#utility.yul\":1025:1124   */\n      swap2\n      swap1\n      pop\n      jump\t// out\n        /* \"#utility.yul\":1130:1299   */\n    tag_239:\n        /* \"#utility.yul\":1214:1225   */\n      0x00\n        /* \"#utility.yul\":1248:1254   */\n      dup3\n        /* \"#utility.yul\":1243:1246   */\n      dup3\n        /* \"#utility.yul\":1236:1255   */\n      mstore\n        /* \"#utility.yul\":1288:1292   */\n      0x20\n        /* \"#utility.yul\":1283:1286   */\n      dup3\n        /* \"#utility.yul\":1279:1293   */\n      add\n        /* \"#utility.yul\":1264:1293   */\n      swap1\n      pop\n        /* \"#utility.yul\":1130:1299   */\n      swap3\n      swap2\n      pop\n      pop\n      jump\t// out\n        /* \"#utility.yul\":1305:1612   */\n    tag_240:\n        /* \"#utility.yul\":1373:1374   */\n      0x00\n        /* \"#utility.yul\":1383:1496   */\n    tag_319:\n        /* \"#utility.yul\":1397:1403   */\n      dup4\n        /* \"#utility.yul\":1394:1395   */\n      dup2\n        /* \"#utility.yul\":1391:1404   */\n      lt\n        /* \"#utility.yul\":1383:1496   */\n      iszero\n      tag_321\n      jumpi\n        /* \"#utility.yul\":1482:1483   */\n      dup1\n        /* \"#utility.yul\":1477:1480   */\n      dup3\n        /* \"#utility.yul\":1473:1484   */\n      add\n        /* \"#utility.yul\":1467:1485   */\n      mload\n        /* \"#utility.yul\":1463:1464   */\n      dup2\n        /* \"#utility.yul\":1458:1461   */\n      dup5\n        /* \"#utility.yul\":1454:1465   */\n      add\n        /* \"#utility.yul\":1447:1486   */\n      mstore\n        /* \"#utility.yul\":1419:1421   */\n      0x20\n        /* \"#utility.yul\":1416:1417   */\n      dup2\n        /* \"#utility.yul\":1412:1422   */\n      add\n        /* \"#utility.yul\":1407:1422   */\n      swap1\n      pop\n        /* \"#utility.yul\":1383:1496   */\n      jump(tag_319)\n    tag_321:\n        /* \"#utility.yul\":1514:1520   */\n      dup4\n        /* \"#utility.yul\":1511:1512   */\n      dup2\n        /* \"#utility.yul\":1508:1521   */\n      gt\n        /* \"#utility.yul\":1505:1606   */\n      iszero\n      tag_322\n      jumpi\n        /* \"#utility.yul\":1594:1595   */\n      0x00\n        /* \"#utility.yul\":1585:1591   */\n      dup5\n        /* \"#utility.yul\":1580:1583   */\n      dup5\n        /* \"#utility.yul\":1576:1592   */\n      add\n        /* \"#utility.yul\":1569:1596   */\n      mstore\n        /* \"#utility.yul\":1505:1606   */\n    tag_322:\n        /* \"#utility.yul\":1354:1612   */\n      pop\n        /* \"#utility.yul\":1305:1612   */\n      pop\n      pop\n      pop\n      jump\t// out\n        /* \"#utility.yul\":1618:1720   */\n    tag_241:\n        /* \"#utility.yul\":1659:1665   */\n      0x00\n        /* \"#utility.yul\":1710:1712   */\n      0x1f\n        /* \"#utility.yul\":1706:1713   */\n      not\n        /* \"#utility.yul\":1701:1703   */\n      0x1f\n        /* \"#utility.yul\":1694:1699   */\n      dup4\n        /* \"#utility.yul\":1690:1704   */\n      add\n        /* \"#utility.yul\":1686:1714   */\n      and\n        /* \"#utility.yul\":1676:1714   */\n      swap1\n      pop\n        /* \"#utility.yul\":1618:1720   */\n      swap2\n      swap1\n      pop\n      jump\t// out\n        /* \"#utility.yul\":1726:2090   */\n    tag_242:\n        /* \"#utility.yul\":1814:1817   */\n      0x00\n        /* \"#utility.yul\":1842:1881   */\n      tag_325\n        /* \"#utility.yul\":1875:1880   */\n      dup3\n        /* \"#utility.yul\":1842:1881   */\n      tag_238\n      jump\t// in\n    tag_325:\n        /* \"#utility.yul\":1897:1968   */\n      tag_326\n        /* \"#utility.yul\":1961:1967   */\n      dup2\n        /* \"#utility.yul\":1956:1959   */\n      dup6\n        /* \"#utility.yul\":1897:1968   */\n      tag_239\n      jump\t// in\n    tag_326:\n        /* \"#utility.yul\":1890:1968   */\n      swap4\n      pop\n        /* \"#utility.yul\":1977:2029   */\n      tag_327\n        /* \"#utility.yul\":2022:2028   */\n      dup2\n        /* \"#utility.yul\":2017:2020   */\n      dup6\n        /* \"#utility.yul\":2010:2014   */\n      0x20\n        /* \"#utility.yul\":2003:2008   */\n      dup7\n        /* \"#utility.yul\":1999:2015   */\n      add\n        /* \"#utility.yul\":1977:2029   */\n      tag_240\n      jump\t// in\n    tag_327:\n        /* \"#utility.yul\":2054:2083   */\n      tag_328\n        /* \"#utility.yul\":2076:2082   */\n      dup2\n        /* \"#utility.yul\":2054:2083   */\n      tag_241\n      jump\t// in\n    tag_328:\n        /* \"#utility.yul\":2049:2052   */\n      dup5\n        /* \"#utility.yul\":2045:2084   */\n      add\n        /* \"#utility.yul\":2038:2084   */\n      swap2\n      pop\n        /* \"#utility.yul\":1818:2090   */\n      pop\n        /* \"#utility.yul\":1726:2090   */\n      swap3\n      swap2\n      pop\n      pop\n      jump\t// out\n        /* \"#utility.yul\":2096:2409   */\n    tag_29:\n        /* \"#utility.yul\":2209:2213   */\n      0x00\n        /* \"#utility.yul\":2247:2249   */\n      0x20\n        /* \"#utility.yul\":2236:2245   */\n      dup3\n        /* \"#utility.yul\":2232:2250   */\n      add\n        /* \"#utility.yul\":2224:2250   */\n      swap1\n      pop\n        /* \"#utility.yul\":2296:2305   */\n      dup2\n        /* \"#utility.yul\":2290:2294   */\n      dup2\n        /* \"#utility.yul\":2286:2306   */\n      sub\n        /* \"#utility.yul\":2282:2283   */\n      0x00\n        /* \"#utility.yul\":2271:2280   */\n      dup4\n        /* \"#utility.yul\":2267:2284   */\n      add\n        /* \"#utility.yul\":2260:2307   */\n      mstore\n        /* \"#utility.yul\":2324:2402   */\n      tag_330\n        /* \"#utility.yul\":2397:2401   */\n      dup2\n        /* \"#utility.yul\":2388:2394   */\n      dup5\n        /* \"#utility.yul\":2324:2402   */\n      tag_242\n      jump\t// in\n    tag_330:\n        /* \"#utility.yul\":2316:2402   */\n      swap1\n      pop\n        /* \"#utility.yul\":2096:2409   */\n      swap3\n      swap2\n      pop\n      pop\n      jump\t// out\n        /* \"#utility.yul\":2415:2541   */\n    tag_243:\n        /* \"#utility.yul\":2452:2459   */\n      0x00\n        /* \"#utility.yul\":2492:2534   */\n      0xffffffffffffffffffffffffffffffffffffffff\n        /* \"#utility.yul\":2485:2490   */\n      dup3\n        /* \"#utility.yul\":2481:2535   */\n      and\n        /* \"#utility.yul\":2470:2535   */\n      swap1\n      pop\n        /* \"#utility.yul\":2415:2541   */\n      swap2\n      swap1\n      pop\n      jump\t// out\n        /* \"#utility.yul\":2547:2643   */\n    tag_244:\n        /* \"#utility.yul\":2584:2591   */\n      0x00\n        /* \"#utility.yul\":2613:2637   */\n      tag_333\n        /* \"#utility.yul\":2631:2636   */\n      dup3\n        /* \"#utility.yul\":2613:2637   */\n      tag_243\n      jump\t// in\n    tag_333:\n        /* \"#utility.yul\":2602:2637   */\n      swap1\n      pop\n        /* \"#utility.yul\":2547:2643   */\n      swap2\n      swap1\n      pop\n      jump\t// out\n        /* \"#utility.yul\":2649:2771   */\n    tag_245:\n        /* \"#utility.yul\":2722:2746   */\n      tag_335\n        /* \"#utility.yul\":2740:2745   */\n      dup2\n        /* \"#utility.yul\":2722:2746   */\n      tag_244\n      jump\t// in\n    tag_335:\n        /* \"#utility.yul\":2715:2720   */\n      dup2\n        /* \"#utility.yul\":2712:2747   */\n      eq\n        /* \"#utility.yul\":2702:2765   */\n      tag_336\n      jumpi\n        /* \"#utility.yul\":2761:2762   */\n      0x00\n        /* \"#utility.yul\":2758:2759   */\n      dup1\n        /* \"#utility.yul\":2751:2763   */\n      revert\n        /* \"#utility.yul\":2702:2765   */\n    tag_336:\n        /* \"#utility.yul\":2649:2771   */\n      pop\n      jump\t// out\n        /* \"#utility.yul\":2777:2916   */\n    tag_246:\n        /* \"#utility.yul\":2823:2828   */\n      0x00\n        /* \"#utility.yul\":2861:2867   */\n      dup2\n        /* \"#utility.yul\":2848:2868   */\n      calldataload\n        /* \"#utility.yul\":2839:2868   */\n      swap1\n      pop\n        /* \"#utility.yul\":2877:2910   */\n      tag_338\n        /* \"#utility.yul\":2904:2909   */\n      dup2\n        /* \"#utility.yul\":2877:2910   */\n      tag_245\n      jump\t// in\n    tag_338:\n        /* \"#utility.yul\":2777:2916   */\n      swap3\n      swap2\n      pop\n      pop\n      jump\t// out\n        /* \"#utility.yul\":2922:3039   */\n    tag_247:\n        /* \"#utility.yul\":3031:3032   */\n      0x00\n        /* \"#utility.yul\":3028:3029   */\n      dup1\n        /* \"#utility.yul\":3021:3033   */\n      revert\n        /* \"#utility.yul\":3045:3162   */\n    tag_248:\n        /* \"#utility.yul\":3154:3155   */\n      0x00\n        /* \"#utility.yul\":3151:3152   */\n      dup1\n        /* \"#utility.yul\":3144:3156   */\n      revert\n        /* \"#utility.yul\":3168:3348   */\n    tag_161:\n        /* \"#utility.yul\":3216:3293   */\n      0x4e487b7100000000000000000000000000000000000000000000000000000000\n        /* \"#utility.yul\":3213:3214   */\n      0x00\n        /* \"#utility.yul\":3206:3294   */\n      mstore\n        /* \"#utility.yul\":3313:3317   */\n      0x41\n        /* \"#utility.yul\":3310:3311   */\n      0x04\n        /* \"#utility.yul\":3303:3318   */\n      mstore\n        /* \"#utility.yul\":3337:3341   */\n      0x24\n        /* \"#utility.yul\":3334:3335   */\n      0x00\n        /* \"#utility.yul\":3327:3342   */\n      revert\n        /* \"#utility.yul\":3354:3635   */\n    tag_249:\n        /* \"#utility.yul\":3437:3464   */\n      tag_343\n        /* \"#utility.yul\":3459:3463   */\n      dup3\n        /* \"#utility.yul\":3437:3464   */\n      tag_241\n      jump\t// in\n    tag_343:\n        /* \"#utility.yul\":3429:3435   */\n      dup2\n        /* \"#utility.yul\":3425:3465   */\n      add\n        /* \"#utility.yul\":3567:3573   */\n      dup2\n        /* \"#utility.yul\":3555:3565   */\n      dup2\n        /* \"#utility.yul\":3552:3574   */\n      lt\n        /* \"#utility.yul\":3531:3549   */\n      0xffffffffffffffff\n        /* \"#utility.yul\":3519:3529   */\n      dup3\n        /* \"#utility.yul\":3516:3550   */\n      gt\n        /* \"#utility.yul\":3513:3575   */\n      or\n        /* \"#utility.yul\":3510:3598   */\n      iszero\n      tag_344\n      jumpi\n        /* \"#utility.yul\":3578:3596   */\n      tag_345\n      tag_161\n      jump\t// in\n    tag_345:\n        /* \"#utility.yul\":3510:3598   */\n    tag_344:\n        /* \"#utility.yul\":3618:3628   */\n      dup1\n        /* \"#utility.yul\":3614:3616   */\n      0x40\n        /* \"#utility.yul\":3607:3629   */\n      mstore\n        /* \"#utility.yul\":3397:3635   */\n      pop\n        /* \"#utility.yul\":3354:3635   */\n      pop\n      pop\n      jump\t// out\n        /* \"#utility.yul\":3641:3770   */\n    tag_250:\n        /* \"#utility.yul\":3675:3681   */\n      0x00\n        /* \"#utility.yul\":3702:3722   */\n      tag_347\n      tag_232\n      jump\t// in\n    tag_347:\n        /* \"#utility.yul\":3692:3722   */\n      swap1\n      pop\n        /* \"#utility.yul\":3731:3764   */\n      tag_348\n        /* \"#utility.yul\":3759:3763   */\n      dup3\n        /* \"#utility.yul\":3751:3757   */\n      dup3\n        /* \"#utility.yul\":3731:3764   */\n      tag_249\n      jump\t// in\n    tag_348:\n        /* \"#utility.yul\":3641:3770   */\n      swap2\n      swap1\n      pop\n      jump\t// out\n        /* \"#utility.yul\":3776:4084   */\n    tag_251:\n        /* \"#utility.yul\":3838:3842   */\n      0x00\n        /* \"#utility.yul\":3928:3946   */\n      0xffffffffffffffff\n        /* \"#utility.yul\":3920:3926   */\n      dup3\n        /* \"#utility.yul\":3917:3947   */\n      gt\n        /* \"#utility.yul\":3914:3970   */\n      iszero\n      tag_350\n      jumpi\n        /* \"#utility.yul\":3950:3968   */\n      tag_351\n      tag_161\n      jump\t// in\n    tag_351:\n        /* \"#utility.yul\":3914:3970   */\n    tag_350:\n        /* \"#utility.yul\":3988:4017   */\n      tag_352\n        /* \"#utility.yul\":4010:4016   */\n      dup3\n        /* \"#utility.yul\":3988:4017   */\n      tag_241\n      jump\t// in\n    tag_352:\n        /* \"#utility.yul\":3980:4017   */\n      swap1\n      pop\n        /* \"#utility.yul\":4072:4076   */\n      0x20\n        /* \"#utility.yul\":4066:4070   */\n      dup2\n        /* \"#utility.yul\":4062:4077   */\n      add\n        /* \"#utility.yul\":4054:4077   */\n      swap1\n      pop\n        /* \"#utility.yul\":3776:4084   */\n      swap2\n      swap1\n      pop\n      jump\t// out\n        /* \"#utility.yul\":4090:4244   */\n    tag_252:\n        /* \"#utility.yul\":4174:4180   */\n      dup3\n        /* \"#utility.yul\":4169:4172   */\n      dup2\n        /* \"#utility.yul\":4164:4167   */\n      dup4\n        /* \"#utility.yul\":4151:4181   */\n      calldatacopy\n        /* \"#utility.yul\":4236:4237   */\n      0x00\n        /* \"#utility.yul\":4227:4233   */\n      dup4\n        /* \"#utility.yul\":4222:4225   */\n      dup4\n        /* \"#utility.yul\":4218:4234   */\n      add\n        /* \"#utility.yul\":4211:4238   */\n      mstore\n        /* \"#utility.yul\":4090:4244   */\n      pop\n      pop\n      pop\n      jump\t// out\n        /* \"#utility.yul\":4250:4662   */\n    tag_253:\n        /* \"#utility.yul\":4328:4333   */\n      0x00\n        /* \"#utility.yul\":4353:4419   */\n      tag_355\n        /* \"#utility.yul\":4369:4418   */\n      tag_356\n        /* \"#utility.yul\":4411:4417   */\n      dup5\n        /* \"#utility.yul\":4369:4418   */\n      tag_251\n      jump\t// in\n    tag_356:\n        /* \"#utility.yul\":4353:4419   */\n      tag_250\n      jump\t// in\n    tag_355:\n        /* \"#utility.yul\":4344:4419   */\n      swap1\n      pop\n        /* \"#utility.yul\":4442:4448   */\n      dup3\n        /* \"#utility.yul\":4435:4440   */\n      dup2\n        /* \"#utility.yul\":4428:4449   */\n      mstore\n        /* \"#utility.yul\":4480:4484   */\n      0x20\n        /* \"#utility.yul\":4473:4478   */\n      dup2\n        /* \"#utility.yul\":4469:4485   */\n      add\n        /* \"#utility.yul\":4518:4521   */\n      dup5\n        /* \"#utility.yul\":4509:4515   */\n      dup5\n        /* \"#utility.yul\":4504:4507   */\n      dup5\n        /* \"#utility.yul\":4500:4516   */\n      add\n        /* \"#utility.yul\":4497:4522   */\n      gt\n        /* \"#utility.yul\":4494:4606   */\n      iszero\n      tag_357\n      jumpi\n        /* \"#utility.yul\":4525:4604   */\n      tag_358\n      tag_248\n      jump\t// in\n    tag_358:\n        /* \"#utility.yul\":4494:4606   */\n    tag_357:\n        /* \"#utility.yul\":4615:4656   */\n      tag_359\n        /* \"#utility.yul\":4649:4655   */\n      dup5\n        /* \"#utility.yul\":4644:4647   */\n      dup3\n        /* \"#utility.yul\":4639:4642   */\n      dup6\n        /* \"#utility.yul\":4615:4656   */\n      tag_252\n      jump\t// in\n    tag_359:\n        /* \"#utility.yul\":4334:4662   */\n      pop\n        /* \"#utility.yul\":4250:4662   */\n      swap4\n      swap3\n      pop\n      pop\n      pop\n      jump\t// out\n        /* \"#utility.yul\":4682:5022   */\n    tag_254:\n        /* \"#utility.yul\":4738:4743   */\n      0x00\n        /* \"#utility.yul\":4787:4790   */\n      dup3\n        /* \"#utility.yul\":4780:4784   */\n      0x1f\n        /* \"#utility.yul\":4772:4778   */\n      dup4\n        /* \"#utility.yul\":4768:4785   */\n      add\n        /* \"#utility.yul\":4764:4791   */\n      slt\n        /* \"#utility.yul\":4754:4876   */\n      tag_361\n      jumpi\n        /* \"#utility.yul\":4795:4874   */\n      tag_362\n      tag_247\n      jump\t// in\n    tag_362:\n        /* \"#utility.yul\":4754:4876   */\n    tag_361:\n        /* \"#utility.yul\":4912:4918   */\n      dup2\n        /* \"#utility.yul\":4899:4919   */\n      calldataload\n        /* \"#utility.yul\":4937:5016   */\n      tag_363\n        /* \"#utility.yul\":5012:5015   */\n      dup5\n        /* \"#utility.yul\":5004:5010   */\n      dup3\n        /* \"#utility.yul\":4997:5001   */\n      0x20\n        /* \"#utility.yul\":4989:4995   */\n      dup7\n        /* \"#utility.yul\":4985:5002   */\n      add\n        /* \"#utility.yul\":4937:5016   */\n      tag_253\n      jump\t// in\n    tag_363:\n        /* \"#utility.yul\":4928:5016   */\n      swap2\n      pop\n        /* \"#utility.yul\":4744:5022   */\n      pop\n        /* \"#utility.yul\":4682:5022   */\n      swap3\n      swap2\n      pop\n      pop\n      jump\t// out\n        /* \"#utility.yul\":5028:5827   */\n    tag_33:\n        /* \"#utility.yul\":5115:5121   */\n      0x00\n        /* \"#utility.yul\":5123:5129   */\n      dup1\n        /* \"#utility.yul\":5131:5137   */\n      0x00\n        /* \"#utility.yul\":5180:5182   */\n      0x60\n        /* \"#utility.yul\":5168:5177   */\n      dup5\n        /* \"#utility.yul\":5159:5166   */\n      dup7\n        /* \"#utility.yul\":5155:5178   */\n      sub\n        /* \"#utility.yul\":5151:5183   */\n      slt\n        /* \"#utility.yul\":5148:5267   */\n      iszero\n      tag_365\n      jumpi\n        /* \"#utility.yul\":5186:5265   */\n      tag_366\n      tag_233\n      jump\t// in\n    tag_366:\n        /* \"#utility.yul\":5148:5267   */\n    tag_365:\n        /* \"#utility.yul\":5306:5307   */\n      0x00\n        /* \"#utility.yul\":5331:5384   */\n      tag_367\n        /* \"#utility.yul\":5376:5383   */\n      dup7\n        /* \"#utility.yul\":5367:5373   */\n      dup3\n        /* \"#utility.yul\":5356:5365   */\n      dup8\n        /* \"#utility.yul\":5352:5374   */\n      add\n        /* \"#utility.yul\":5331:5384   */\n      tag_246\n      jump\t// in\n    tag_367:\n        /* \"#utility.yul\":5321:5384   */\n      swap4\n      pop\n        /* \"#utility.yul\":5277:5394   */\n      pop\n        /* \"#utility.yul\":5461:5463   */\n      0x20\n        /* \"#utility.yul\":5450:5459   */\n      dup5\n        /* \"#utility.yul\":5446:5464   */\n      add\n        /* \"#utility.yul\":5433:5465   */\n      calldataload\n        /* \"#utility.yul\":5492:5510   */\n      0xffffffffffffffff\n        /* \"#utility.yul\":5484:5490   */\n      dup2\n        /* \"#utility.yul\":5481:5511   */\n      gt\n        /* \"#utility.yul\":5478:5595   */\n      iszero\n      tag_368\n      jumpi\n        /* \"#utility.yul\":5514:5593   */\n      tag_369\n      tag_234\n      jump\t// in\n    tag_369:\n        /* \"#utility.yul\":5478:5595   */\n    tag_368:\n        /* \"#utility.yul\":5619:5682   */\n      tag_370\n        /* \"#utility.yul\":5674:5681   */\n      dup7\n        /* \"#utility.yul\":5665:5671   */\n      dup3\n        /* \"#utility.yul\":5654:5663   */\n      dup8\n        /* \"#utility.yul\":5650:5672   */\n      add\n        /* \"#utility.yul\":5619:5682   */\n      tag_254\n      jump\t// in\n    tag_370:\n        /* \"#utility.yul\":5609:5682   */\n      swap3\n      pop\n        /* \"#utility.yul\":5404:5692   */\n      pop\n        /* \"#utility.yul\":5731:5733   */\n      0x40\n        /* \"#utility.yul\":5757:5810   */\n      tag_371\n        /* \"#utility.yul\":5802:5809   */\n      dup7\n        /* \"#utility.yul\":5793:5799   */\n      dup3\n        /* \"#utility.yul\":5782:5791   */\n      dup8\n        /* \"#utility.yul\":5778:5800   */\n      add\n        /* \"#utility.yul\":5757:5810   */\n      tag_246\n      jump\t// in\n    tag_371:\n        /* \"#utility.yul\":5747:5810   */\n      swap2\n      pop\n        /* \"#utility.yul\":5702:5820   */\n      pop\n        /* \"#utility.yul\":5028:5827   */\n      swap3\n      pop\n      swap3\n      pop\n      swap3\n      jump\t// out\n        /* \"#utility.yul\":5833:5951   */\n    tag_255:\n        /* \"#utility.yul\":5920:5944   */\n      tag_373\n        /* \"#utility.yul\":5938:5943   */\n      dup2\n        /* \"#utility.yul\":5920:5944   */\n      tag_235\n      jump\t// in\n    tag_373:\n        /* \"#utility.yul\":5915:5918   */\n      dup3\n        /* \"#utility.yul\":5908:5945   */\n      mstore\n        /* \"#utility.yul\":5833:5951   */\n      pop\n      pop\n      jump\t// out\n        /* \"#utility.yul\":5957:7005   */\n    tag_36:\n        /* \"#utility.yul\":6250:6254   */\n      0x00\n        /* \"#utility.yul\":6288:6291   */\n      0xc0\n        /* \"#utility.yul\":6277:6286   */\n      dup3\n        /* \"#utility.yul\":6273:6292   */\n      add\n        /* \"#utility.yul\":6265:6292   */\n      swap1\n      pop\n        /* \"#utility.yul\":6338:6347   */\n      dup2\n        /* \"#utility.yul\":6332:6336   */\n      dup2\n        /* \"#utility.yul\":6328:6348   */\n      sub\n        /* \"#utility.yul\":6324:6325   */\n      0x00\n        /* \"#utility.yul\":6313:6322   */\n      dup4\n        /* \"#utility.yul\":6309:6326   */\n      add\n        /* \"#utility.yul\":6302:6349   */\n      mstore\n        /* \"#utility.yul\":6366:6444   */\n      tag_375\n        /* \"#utility.yul\":6439:6443   */\n      dup2\n        /* \"#utility.yul\":6430:6436   */\n      dup10\n        /* \"#utility.yul\":6366:6444   */\n      tag_242\n      jump\t// in\n    tag_375:\n        /* \"#utility.yul\":6358:6444   */\n      swap1\n      pop\n        /* \"#utility.yul\":6491:6500   */\n      dup2\n        /* \"#utility.yul\":6485:6489   */\n      dup2\n        /* \"#utility.yul\":6481:6501   */\n      sub\n        /* \"#utility.yul\":6476:6478   */\n      0x20\n        /* \"#utility.yul\":6465:6474   */\n      dup4\n        /* \"#utility.yul\":6461:6479   */\n      add\n        /* \"#utility.yul\":6454:6502   */\n      mstore\n        /* \"#utility.yul\":6519:6597   */\n      tag_376\n        /* \"#utility.yul\":6592:6596   */\n      dup2\n        /* \"#utility.yul\":6583:6589   */\n      dup9\n        /* \"#utility.yul\":6519:6597   */\n      tag_242\n      jump\t// in\n    tag_376:\n        /* \"#utility.yul\":6511:6597   */\n      swap1\n      pop\n        /* \"#utility.yul\":6644:6653   */\n      dup2\n        /* \"#utility.yul\":6638:6642   */\n      dup2\n        /* \"#utility.yul\":6634:6654   */\n      sub\n        /* \"#utility.yul\":6629:6631   */\n      0x40\n        /* \"#utility.yul\":6618:6627   */\n      dup4\n        /* \"#utility.yul\":6614:6632   */\n      add\n        /* \"#utility.yul\":6607:6655   */\n      mstore\n        /* \"#utility.yul\":6672:6750   */\n      tag_377\n        /* \"#utility.yul\":6745:6749   */\n      dup2\n        /* \"#utility.yul\":6736:6742   */\n      dup8\n        /* \"#utility.yul\":6672:6750   */\n      tag_242\n      jump\t// in\n    tag_377:\n        /* \"#utility.yul\":6664:6750   */\n      swap1\n      pop\n        /* \"#utility.yul\":6760:6832   */\n      tag_378\n        /* \"#utility.yul\":6828:6830   */\n      0x60\n        /* \"#utility.yul\":6817:6826   */\n      dup4\n        /* \"#utility.yul\":6813:6831   */\n      add\n        /* \"#utility.yul\":6804:6810   */\n      dup7\n        /* \"#utility.yul\":6760:6832   */\n      tag_255\n      jump\t// in\n    tag_378:\n        /* \"#utility.yul\":6842:6915   */\n      tag_379\n        /* \"#utility.yul\":6910:6913   */\n      0x80\n        /* \"#utility.yul\":6899:6908   */\n      dup4\n        /* \"#utility.yul\":6895:6914   */\n      add\n        /* \"#utility.yul\":6886:6892   */\n      dup6\n        /* \"#utility.yul\":6842:6915   */\n      tag_255\n      jump\t// in\n    tag_379:\n        /* \"#utility.yul\":6925:6998   */\n      tag_380\n        /* \"#utility.yul\":6993:6996   */\n      0xa0\n        /* \"#utility.yul\":6982:6991   */\n      dup4\n        /* \"#utility.yul\":6978:6997   */\n      add\n        /* \"#utility.yul\":6969:6975   */\n      dup5\n        /* \"#utility.yul\":6925:6998   */\n      tag_255\n      jump\t// in\n    tag_380:\n        /* \"#utility.yul\":5957:7005   */\n      swap8\n      swap7\n      pop\n      pop\n      pop\n      pop\n      pop\n      pop\n      pop\n      jump\t// out\n        /* \"#utility.yul\":7011:7340   */\n    tag_40:\n        /* \"#utility.yul\":7070:7076   */\n      0x00\n        /* \"#utility.yul\":7119:7121   */\n      0x20\n        /* \"#utility.yul\":7107:7116   */\n      dup3\n        /* \"#utility.yul\":7098:7105   */\n      dup5\n        /* \"#utility.yul\":7094:7117   */\n      sub\n        /* \"#utility.yul\":7090:7122   */\n      slt\n        /* \"#utility.yul\":7087:7206   */\n      iszero\n      tag_382\n      jumpi\n        /* \"#utility.yul\":7125:7204   */\n      tag_383\n      tag_233\n      jump\t// in\n    tag_383:\n        /* \"#utility.yul\":7087:7206   */\n    tag_382:\n        /* \"#utility.yul\":7245:7246   */\n      0x00\n        /* \"#utility.yul\":7270:7323   */\n      tag_384\n        /* \"#utility.yul\":7315:7322   */\n      dup5\n        /* \"#utility.yul\":7306:7312   */\n      dup3\n        /* \"#utility.yul\":7295:7304   */\n      dup6\n        /* \"#utility.yul\":7291:7313   */\n      add\n        /* \"#utility.yul\":7270:7323   */\n      tag_246\n      jump\t// in\n    tag_384:\n        /* \"#utility.yul\":7260:7323   */\n      swap2\n      pop\n        /* \"#utility.yul\":7216:7333   */\n      pop\n        /* \"#utility.yul\":7011:7340   */\n      swap3\n      swap2\n      pop\n      pop\n      jump\t// out\n        /* \"#utility.yul\":7346:7820   */\n    tag_46:\n        /* \"#utility.yul\":7414:7420   */\n      0x00\n        /* \"#utility.yul\":7422:7428   */\n      dup1\n        /* \"#utility.yul\":7471:7473   */\n      0x40\n        /* \"#utility.yul\":7459:7468   */\n      dup4\n        /* \"#utility.yul\":7450:7457   */\n      dup6\n        /* \"#utility.yul\":7446:7469   */\n      sub\n        /* \"#utility.yul\":7442:7474   */\n      slt\n        /* \"#utility.yul\":7439:7558   */\n      iszero\n      tag_386\n      jumpi\n        /* \"#utility.yul\":7477:7556   */\n      tag_387\n      tag_233\n      jump\t// in\n    tag_387:\n        /* \"#utility.yul\":7439:7558   */\n    tag_386:\n        /* \"#utility.yul\":7597:7598   */\n      0x00\n        /* \"#utility.yul\":7622:7675   */\n      tag_388\n        /* \"#utility.yul\":7667:7674   */\n      dup6\n        /* \"#utility.yul\":7658:7664   */\n      dup3\n        /* \"#utility.yul\":7647:7656   */\n      dup7\n        /* \"#utility.yul\":7643:7665   */\n      add\n        /* \"#utility.yul\":7622:7675   */\n      tag_246\n      jump\t// in\n    tag_388:\n        /* \"#utility.yul\":7612:7675   */\n      swap3\n      pop\n        /* \"#utility.yul\":7568:7685   */\n      pop\n        /* \"#utility.yul\":7724:7726   */\n      0x20\n        /* \"#utility.yul\":7750:7803   */\n      tag_389\n        /* \"#utility.yul\":7795:7802   */\n      dup6\n        /* \"#utility.yul\":7786:7792   */\n      dup3\n        /* \"#utility.yul\":7775:7784   */\n      dup7\n        /* \"#utility.yul\":7771:7793   */\n      add\n        /* \"#utility.yul\":7750:7803   */\n      tag_237\n      jump\t// in\n    tag_389:\n        /* \"#utility.yul\":7740:7803   */\n      swap2\n      pop\n        /* \"#utility.yul\":7695:7813   */\n      pop\n        /* \"#utility.yul\":7346:7820   */\n      swap3\n      pop\n      swap3\n      swap1\n      pop\n      jump\t// out\n        /* \"#utility.yul\":7826:7944   */\n    tag_256:\n        /* \"#utility.yul\":7913:7937   */\n      tag_391\n        /* \"#utility.yul\":7931:7936   */\n      dup2\n        /* \"#utility.yul\":7913:7937   */\n      tag_244\n      jump\t// in\n    tag_391:\n        /* \"#utility.yul\":7908:7911   */\n      dup3\n        /* \"#utility.yul\":7901:7938   */\n      mstore\n        /* \"#utility.yul\":7826:7944   */\n      pop\n      pop\n      jump\t// out\n        /* \"#utility.yul\":7950:8172   */\n    tag_54:\n        /* \"#utility.yul\":8043:8047   */\n      0x00\n        /* \"#utility.yul\":8081:8083   */\n      0x20\n        /* \"#utility.yul\":8070:8079   */\n      dup3\n        /* \"#utility.yul\":8066:8084   */\n      add\n        /* \"#utility.yul\":8058:8084   */\n      swap1\n      pop\n        /* \"#utility.yul\":8094:8165   */\n      tag_393\n        /* \"#utility.yul\":8162:8163   */\n      0x00\n        /* \"#utility.yul\":8151:8160   */\n      dup4\n        /* \"#utility.yul\":8147:8164   */\n      add\n        /* \"#utility.yul\":8138:8144   */\n      dup5\n        /* \"#utility.yul\":8094:8165   */\n      tag_256\n      jump\t// in\n    tag_393:\n        /* \"#utility.yul\":7950:8172   */\n      swap3\n      swap2\n      pop\n      pop\n      jump\t// out\n        /* \"#utility.yul\":8178:9775   */\n    tag_58:\n        /* \"#utility.yul\":8312:8318   */\n      0x00\n        /* \"#utility.yul\":8320:8326   */\n      dup1\n        /* \"#utility.yul\":8328:8334   */\n      0x00\n        /* \"#utility.yul\":8336:8342   */\n      dup1\n        /* \"#utility.yul\":8344:8350   */\n      0x00\n        /* \"#utility.yul\":8352:8358   */\n      dup1\n        /* \"#utility.yul\":8401:8404   */\n      0xc0\n        /* \"#utility.yul\":8389:8398   */\n      dup8\n        /* \"#utility.yul\":8380:8387   */\n      dup10\n        /* \"#utility.yul\":8376:8399   */\n      sub\n        /* \"#utility.yul\":8372:8405   */\n      slt\n        /* \"#utility.yul\":8369:8489   */\n      iszero\n      tag_395\n      jumpi\n        /* \"#utility.yul\":8408:8487   */\n      tag_396\n      tag_233\n      jump\t// in\n    tag_396:\n        /* \"#utility.yul\":8369:8489   */\n    tag_395:\n        /* \"#utility.yul\":8556:8557   */\n      0x00\n        /* \"#utility.yul\":8545:8554   */\n      dup8\n        /* \"#utility.yul\":8541:8558   */\n      add\n        /* \"#utility.yul\":8528:8559   */\n      calldataload\n        /* \"#utility.yul\":8586:8604   */\n      0xffffffffffffffff\n        /* \"#utility.yul\":8578:8584   */\n      dup2\n        /* \"#utility.yul\":8575:8605   */\n      gt\n        /* \"#utility.yul\":8572:8689   */\n      iszero\n      tag_397\n      jumpi\n        /* \"#utility.yul\":8608:8687   */\n      tag_398\n      tag_234\n      jump\t// in\n    tag_398:\n        /* \"#utility.yul\":8572:8689   */\n    tag_397:\n        /* \"#utility.yul\":8713:8776   */\n      tag_399\n        /* \"#utility.yul\":8768:8775   */\n      dup10\n        /* \"#utility.yul\":8759:8765   */\n      dup3\n        /* \"#utility.yul\":8748:8757   */\n      dup11\n        /* \"#utility.yul\":8744:8766   */\n      add\n        /* \"#utility.yul\":8713:8776   */\n      tag_254\n      jump\t// in\n    tag_399:\n        /* \"#utility.yul\":8703:8776   */\n      swap7\n      pop\n        /* \"#utility.yul\":8499:8786   */\n      pop\n        /* \"#utility.yul\":8853:8855   */\n      0x20\n        /* \"#utility.yul\":8842:8851   */\n      dup8\n        /* \"#utility.yul\":8838:8856   */\n      add\n        /* \"#utility.yul\":8825:8857   */\n      calldataload\n        /* \"#utility.yul\":8884:8902   */\n      0xffffffffffffffff\n        /* \"#utility.yul\":8876:8882   */\n      dup2\n        /* \"#utility.yul\":8873:8903   */\n      gt\n        /* \"#utility.yul\":8870:8987   */\n      iszero\n      tag_400\n      jumpi\n        /* \"#utility.yul\":8906:8985   */\n      tag_401\n      tag_234\n      jump\t// in\n    tag_401:\n        /* \"#utility.yul\":8870:8987   */\n    tag_400:\n        /* \"#utility.yul\":9011:9074   */\n      tag_402\n        /* \"#utility.yul\":9066:9073   */\n      dup10\n        /* \"#utility.yul\":9057:9063   */\n      dup3\n        /* \"#utility.yul\":9046:9055   */\n      dup11\n        /* \"#utility.yul\":9042:9064   */\n      add\n        /* \"#utility.yul\":9011:9074   */\n      tag_254\n      jump\t// in\n    tag_402:\n        /* \"#utility.yul\":9001:9074   */\n      swap6\n      pop\n        /* \"#utility.yul\":8796:9084   */\n      pop\n        /* \"#utility.yul\":9151:9153   */\n      0x40\n        /* \"#utility.yul\":9140:9149   */\n      dup8\n        /* \"#utility.yul\":9136:9154   */\n      add\n        /* \"#utility.yul\":9123:9155   */\n      calldataload\n        /* \"#utility.yul\":9182:9200   */\n      0xffffffffffffffff\n        /* \"#utility.yul\":9174:9180   */\n      dup2\n        /* \"#utility.yul\":9171:9201   */\n      gt\n        /* \"#utility.yul\":9168:9285   */\n      iszero\n      tag_403\n      jumpi\n        /* \"#utility.yul\":9204:9283   */\n      tag_404\n      tag_234\n      jump\t// in\n    tag_404:\n        /* \"#utility.yul\":9168:9285   */\n    tag_403:\n        /* \"#utility.yul\":9309:9372   */\n      tag_405\n        /* \"#utility.yul\":9364:9371   */\n      dup10\n        /* \"#utility.yul\":9355:9361   */\n      dup3\n        /* \"#utility.yul\":9344:9353   */\n      dup11\n        /* \"#utility.yul\":9340:9362   */\n      add\n        /* \"#utility.yul\":9309:9372   */\n      tag_254\n      jump\t// in\n    tag_405:\n        /* \"#utility.yul\":9299:9372   */\n      swap5\n      pop\n        /* \"#utility.yul\":9094:9382   */\n      pop\n        /* \"#utility.yul\":9421:9423   */\n      0x60\n        /* \"#utility.yul\":9447:9500   */\n      tag_406\n        /* \"#utility.yul\":9492:9499   */\n      dup10\n        /* \"#utility.yul\":9483:9489   */\n      dup3\n        /* \"#utility.yul\":9472:9481   */\n      dup11\n        /* \"#utility.yul\":9468:9490   */\n      add\n        /* \"#utility.yul\":9447:9500   */\n      tag_237\n      jump\t// in\n    tag_406:\n        /* \"#utility.yul\":9437:9500   */\n      swap4\n      pop\n        /* \"#utility.yul\":9392:9510   */\n      pop\n        /* \"#utility.yul\":9549:9552   */\n      0x80\n        /* \"#utility.yul\":9576:9629   */\n      tag_407\n        /* \"#utility.yul\":9621:9628   */\n      dup10\n        /* \"#utility.yul\":9612:9618   */\n      dup3\n        /* \"#utility.yul\":9601:9610   */\n      dup11\n        /* \"#utility.yul\":9597:9619   */\n      add\n        /* \"#utility.yul\":9576:9629   */\n      tag_237\n      jump\t// in\n    tag_407:\n        /* \"#utility.yul\":9566:9629   */\n      swap3\n      pop\n        /* \"#utility.yul\":9520:9639   */\n      pop\n        /* \"#utility.yul\":9678:9681   */\n      0xa0\n        /* \"#utility.yul\":9705:9758   */\n      tag_408\n        /* \"#utility.yul\":9750:9757   */\n      dup10\n        /* \"#utility.yul\":9741:9747   */\n      dup3\n        /* \"#utility.yul\":9730:9739   */\n      dup11\n        /* \"#utility.yul\":9726:9748   */\n      add\n        /* \"#utility.yul\":9705:9758   */\n      tag_237\n      jump\t// in\n    tag_408:\n        /* \"#utility.yul\":9695:9758   */\n      swap2\n      pop\n        /* \"#utility.yul\":9649:9768   */\n      pop\n        /* \"#utility.yul\":8178:9775   */\n      swap3\n      swap6\n      pop\n      swap3\n      swap6\n      pop\n      swap3\n      swap6\n      jump\t// out\n        /* \"#utility.yul\":9781:10290   */\n    tag_63:\n        /* \"#utility.yul\":9850:9856   */\n      0x00\n        /* \"#utility.yul\":9899:9901   */\n      0x20\n        /* \"#utility.yul\":9887:9896   */\n      dup3\n        /* \"#utility.yul\":9878:9885   */\n      dup5\n        /* \"#utility.yul\":9874:9897   */\n      sub\n        /* \"#utility.yul\":9870:9902   */\n      slt\n        /* \"#utility.yul\":9867:9986   */\n      iszero\n      tag_410\n      jumpi\n        /* \"#utility.yul\":9905:9984   */\n      tag_411\n      tag_233\n      jump\t// in\n    tag_411:\n        /* \"#utility.yul\":9867:9986   */\n    tag_410:\n        /* \"#utility.yul\":10053:10054   */\n      0x00\n        /* \"#utility.yul\":10042:10051   */\n      dup3\n        /* \"#utility.yul\":10038:10055   */\n      add\n        /* \"#utility.yul\":10025:10056   */\n      calldataload\n        /* \"#utility.yul\":10083:10101   */\n      0xffffffffffffffff\n        /* \"#utility.yul\":10075:10081   */\n      dup2\n        /* \"#utility.yul\":10072:10102   */\n      gt\n        /* \"#utility.yul\":10069:10186   */\n      iszero\n      tag_412\n      jumpi\n        /* \"#utility.yul\":10105:10184   */\n      tag_413\n      tag_234\n      jump\t// in\n    tag_413:\n        /* \"#utility.yul\":10069:10186   */\n    tag_412:\n        /* \"#utility.yul\":10210:10273   */\n      tag_414\n        /* \"#utility.yul\":10265:10272   */\n      dup5\n        /* \"#utility.yul\":10256:10262   */\n      dup3\n        /* \"#utility.yul\":10245:10254   */\n      dup6\n        /* \"#utility.yul\":10241:10263   */\n      add\n        /* \"#utility.yul\":10210:10273   */\n      tag_254\n      jump\t// in\n    tag_414:\n        /* \"#utility.yul\":10200:10273   */\n      swap2\n      pop\n        /* \"#utility.yul\":9996:10283   */\n      pop\n        /* \"#utility.yul\":9781:10290   */\n      swap3\n      swap2\n      pop\n      pop\n      jump\t// out\n        /* \"#utility.yul\":10296:10420   */\n    tag_257:\n        /* \"#utility.yul\":10373:10379   */\n      0x00\n        /* \"#utility.yul\":10407:10412   */\n      dup2\n        /* \"#utility.yul\":10401:10413   */\n      mload\n        /* \"#utility.yul\":10391:10413   */\n      swap1\n      pop\n        /* \"#utility.yul\":10296:10420   */\n      swap2\n      swap1\n      pop\n      jump\t// out\n        /* \"#utility.yul\":10426:10620   */\n    tag_258:\n        /* \"#utility.yul\":10535:10546   */\n      0x00\n        /* \"#utility.yul\":10569:10575   */\n      dup3\n        /* \"#utility.yul\":10564:10567   */\n      dup3\n        /* \"#utility.yul\":10557:10576   */\n      mstore\n        /* \"#utility.yul\":10609:10613   */\n      0x20\n        /* \"#utility.yul\":10604:10607   */\n      dup3\n        /* \"#utility.yul\":10600:10614   */\n      add\n        /* \"#utility.yul\":10585:10614   */\n      swap1\n      pop\n        /* \"#utility.yul\":10426:10620   */\n      swap3\n      swap2\n      pop\n      pop\n      jump\t// out\n        /* \"#utility.yul\":10626:10768   */\n    tag_259:\n        /* \"#utility.yul\":10703:10707   */\n      0x00\n        /* \"#utility.yul\":10726:10729   */\n      dup2\n        /* \"#utility.yul\":10718:10729   */\n      swap1\n      pop\n        /* \"#utility.yul\":10756:10760   */\n      0x20\n        /* \"#utility.yul\":10751:10754   */\n      dup3\n        /* \"#utility.yul\":10747:10761   */\n      add\n        /* \"#utility.yul\":10739:10761   */\n      swap1\n      pop\n        /* \"#utility.yul\":10626:10768   */\n      swap2\n      swap1\n      pop\n      jump\t// out\n        /* \"#utility.yul\":10774:10933   */\n    tag_260:\n        /* \"#utility.yul\":10848:10859   */\n      0x00\n        /* \"#utility.yul\":10882:10888   */\n      dup3\n        /* \"#utility.yul\":10877:10880   */\n      dup3\n        /* \"#utility.yul\":10870:10889   */\n      mstore\n        /* \"#utility.yul\":10922:10926   */\n      0x20\n        /* \"#utility.yul\":10917:10920   */\n      dup3\n        /* \"#utility.yul\":10913:10927   */\n      add\n        /* \"#utility.yul\":10898:10927   */\n      swap1\n      pop\n        /* \"#utility.yul\":10774:10933   */\n      swap3\n      swap2\n      pop\n      pop\n      jump\t// out\n        /* \"#utility.yul\":10939:11283   */\n    tag_261:\n        /* \"#utility.yul\":11017:11020   */\n      0x00\n        /* \"#utility.yul\":11045:11084   */\n      tag_420\n        /* \"#utility.yul\":11078:11083   */\n      dup3\n        /* \"#utility.yul\":11045:11084   */\n      tag_238\n      jump\t// in\n    tag_420:\n        /* \"#utility.yul\":11100:11161   */\n      tag_421\n        /* \"#utility.yul\":11154:11160   */\n      dup2\n        /* \"#utility.yul\":11149:11152   */\n      dup6\n        /* \"#utility.yul\":11100:11161   */\n      tag_260\n      jump\t// in\n    tag_421:\n        /* \"#utility.yul\":11093:11161   */\n      swap4\n      pop\n        /* \"#utility.yul\":11170:11222   */\n      tag_422\n        /* \"#utility.yul\":11215:11221   */\n      dup2\n        /* \"#utility.yul\":11210:11213   */\n      dup6\n        /* \"#utility.yul\":11203:11207   */\n      0x20\n        /* \"#utility.yul\":11196:11201   */\n      dup7\n        /* \"#utility.yul\":11192:11208   */\n      add\n        /* \"#utility.yul\":11170:11222   */\n      tag_240\n      jump\t// in\n    tag_422:\n        /* \"#utility.yul\":11247:11276   */\n      tag_423\n        /* \"#utility.yul\":11269:11275   */\n      dup2\n        /* \"#utility.yul\":11247:11276   */\n      tag_241\n      jump\t// in\n    tag_423:\n        /* \"#utility.yul\":11242:11245   */\n      dup5\n        /* \"#utility.yul\":11238:11277   */\n      add\n        /* \"#utility.yul\":11231:11277   */\n      swap2\n      pop\n        /* \"#utility.yul\":11021:11283   */\n      pop\n        /* \"#utility.yul\":10939:11283   */\n      swap3\n      swap2\n      pop\n      pop\n      jump\t// out\n        /* \"#utility.yul\":11289:11485   */\n    tag_262:\n        /* \"#utility.yul\":11378:11388   */\n      0x00\n        /* \"#utility.yul\":11413:11479   */\n      tag_425\n        /* \"#utility.yul\":11475:11478   */\n      dup4\n        /* \"#utility.yul\":11467:11473   */\n      dup4\n        /* \"#utility.yul\":11413:11479   */\n      tag_261\n      jump\t// in\n    tag_425:\n        /* \"#utility.yul\":11399:11479   */\n      swap1\n      pop\n        /* \"#utility.yul\":11289:11485   */\n      swap3\n      swap2\n      pop\n      pop\n      jump\t// out\n        /* \"#utility.yul\":11491:11614   */\n    tag_263:\n        /* \"#utility.yul\":11571:11575   */\n      0x00\n        /* \"#utility.yul\":11603:11607   */\n      0x20\n        /* \"#utility.yul\":11598:11601   */\n      dup3\n        /* \"#utility.yul\":11594:11608   */\n      add\n        /* \"#utility.yul\":11586:11608   */\n      swap1\n      pop\n        /* \"#utility.yul\":11491:11614   */\n      swap2\n      swap1\n      pop\n      jump\t// out\n        /* \"#utility.yul\":11648:12639   */\n    tag_264:\n        /* \"#utility.yul\":11787:11790   */\n      0x00\n        /* \"#utility.yul\":11816:11880   */\n      tag_428\n        /* \"#utility.yul\":11874:11879   */\n      dup3\n        /* \"#utility.yul\":11816:11880   */\n      tag_257\n      jump\t// in\n    tag_428:\n        /* \"#utility.yul\":11896:11992   */\n      tag_429\n        /* \"#utility.yul\":11985:11991   */\n      dup2\n        /* \"#utility.yul\":11980:11983   */\n      dup6\n        /* \"#utility.yul\":11896:11992   */\n      tag_258\n      jump\t// in\n    tag_429:\n        /* \"#utility.yul\":11889:11992   */\n      swap4\n      pop\n        /* \"#utility.yul\":12018:12021   */\n      dup4\n        /* \"#utility.yul\":12063:12067   */\n      0x20\n        /* \"#utility.yul\":12055:12061   */\n      dup3\n        /* \"#utility.yul\":12051:12068   */\n      mul\n        /* \"#utility.yul\":12046:12049   */\n      dup6\n        /* \"#utility.yul\":12042:12069   */\n      add\n        /* \"#utility.yul\":12093:12159   */\n      tag_430\n        /* \"#utility.yul\":12153:12158   */\n      dup6\n        /* \"#utility.yul\":12093:12159   */\n      tag_259\n      jump\t// in\n    tag_430:\n        /* \"#utility.yul\":12182:12189   */\n      dup1\n        /* \"#utility.yul\":12213:12214   */\n      0x00\n        /* \"#utility.yul\":12198:12594   */\n    tag_431:\n        /* \"#utility.yul\":12223:12229   */\n      dup6\n        /* \"#utility.yul\":12220:12221   */\n      dup2\n        /* \"#utility.yul\":12217:12230   */\n      lt\n        /* \"#utility.yul\":12198:12594   */\n      iszero\n      tag_433\n      jumpi\n        /* \"#utility.yul\":12294:12303   */\n      dup5\n        /* \"#utility.yul\":12288:12292   */\n      dup5\n        /* \"#utility.yul\":12284:12304   */\n      sub\n        /* \"#utility.yul\":12279:12282   */\n      dup10\n        /* \"#utility.yul\":12272:12305   */\n      mstore\n        /* \"#utility.yul\":12345:12351   */\n      dup2\n        /* \"#utility.yul\":12339:12352   */\n      mload\n        /* \"#utility.yul\":12373:12457   */\n      tag_434\n        /* \"#utility.yul\":12452:12456   */\n      dup6\n        /* \"#utility.yul\":12437:12450   */\n      dup3\n        /* \"#utility.yul\":12373:12457   */\n      tag_262\n      jump\t// in\n    tag_434:\n        /* \"#utility.yul\":12365:12457   */\n      swap5\n      pop\n        /* \"#utility.yul\":12480:12550   */\n      tag_435\n        /* \"#utility.yul\":12543:12549   */\n      dup4\n        /* \"#utility.yul\":12480:12550   */\n      tag_263\n      jump\t// in\n    tag_435:\n        /* \"#utility.yul\":12470:12550   */\n      swap3\n      pop\n        /* \"#utility.yul\":12579:12583   */\n      0x20\n        /* \"#utility.yul\":12574:12577   */\n      dup11\n        /* \"#utility.yul\":12570:12584   */\n      add\n        /* \"#utility.yul\":12563:12584   */\n      swap10\n      pop\n        /* \"#utility.yul\":12258:12594   */\n      pop\n        /* \"#utility.yul\":12245:12246   */\n      0x01\n        /* \"#utility.yul\":12242:12243   */\n      dup2\n        /* \"#utility.yul\":12238:12247   */\n      add\n        /* \"#utility.yul\":12233:12247   */\n      swap1\n      pop\n        /* \"#utility.yul\":12198:12594   */\n      jump(tag_431)\n    tag_433:\n        /* \"#utility.yul\":12202:12216   */\n      pop\n        /* \"#utility.yul\":12610:12614   */\n      dup3\n        /* \"#utility.yul\":12603:12614   */\n      swap8\n      pop\n        /* \"#utility.yul\":12630:12633   */\n      dup8\n        /* \"#utility.yul\":12623:12633   */\n      swap6\n      pop\n        /* \"#utility.yul\":11792:12639   */\n      pop\n      pop\n      pop\n      pop\n      pop\n        /* \"#utility.yul\":11648:12639   */\n      swap3\n      swap2\n      pop\n      pop\n      jump\t// out\n        /* \"#utility.yul\":12645:12790   */\n    tag_265:\n        /* \"#utility.yul\":12743:12749   */\n      0x00\n        /* \"#utility.yul\":12777:12782   */\n      dup2\n        /* \"#utility.yul\":12771:12783   */\n      mload\n        /* \"#utility.yul\":12761:12783   */\n      swap1\n      pop\n        /* \"#utility.yul\":12645:12790   */\n      swap2\n      swap1\n      pop\n      jump\t// out\n        /* \"#utility.yul\":12796:13011   */\n    tag_266:\n        /* \"#utility.yul\":12926:12937   */\n      0x00\n        /* \"#utility.yul\":12960:12966   */\n      dup3\n        /* \"#utility.yul\":12955:12958   */\n      dup3\n        /* \"#utility.yul\":12948:12967   */\n      mstore\n        /* \"#utility.yul\":13000:13004   */\n      0x20\n        /* \"#utility.yul\":12995:12998   */\n      dup3\n        /* \"#utility.yul\":12991:13005   */\n      add\n        /* \"#utility.yul\":12976:13005   */\n      swap1\n      pop\n        /* \"#utility.yul\":12796:13011   */\n      swap3\n      swap2\n      pop\n      pop\n      jump\t// out\n        /* \"#utility.yul\":13017:13180   */\n    tag_267:\n        /* \"#utility.yul\":13115:13119   */\n      0x00\n        /* \"#utility.yul\":13138:13141   */\n      dup2\n        /* \"#utility.yul\":13130:13141   */\n      swap1\n      pop\n        /* \"#utility.yul\":13168:13172   */\n      0x20\n        /* \"#utility.yul\":13163:13166   */\n      dup3\n        /* \"#utility.yul\":13159:13173   */\n      add\n        /* \"#utility.yul\":13151:13173   */\n      swap1\n      pop\n        /* \"#utility.yul\":13017:13180   */\n      swap2\n      swap1\n      pop\n      jump\t// out\n        /* \"#utility.yul\":13186:13294   */\n    tag_268:\n        /* \"#utility.yul\":13263:13287   */\n      tag_440\n        /* \"#utility.yul\":13281:13286   */\n      dup2\n        /* \"#utility.yul\":13263:13287   */\n      tag_235\n      jump\t// in\n    tag_440:\n        /* \"#utility.yul\":13258:13261   */\n      dup3\n        /* \"#utility.yul\":13251:13288   */\n      mstore\n        /* \"#utility.yul\":13186:13294   */\n      pop\n      pop\n      jump\t// out\n        /* \"#utility.yul\":13400:14882   */\n    tag_269:\n        /* \"#utility.yul\":13521:13524   */\n      0x00\n        /* \"#utility.yul\":13557:13561   */\n      0xc0\n        /* \"#utility.yul\":13552:13555   */\n      dup4\n        /* \"#utility.yul\":13548:13562   */\n      add\n        /* \"#utility.yul\":13644:13648   */\n      0x00\n        /* \"#utility.yul\":13637:13642   */\n      dup4\n        /* \"#utility.yul\":13633:13649   */\n      add\n        /* \"#utility.yul\":13627:13650   */\n      mload\n        /* \"#utility.yul\":13697:13700   */\n      dup5\n        /* \"#utility.yul\":13691:13695   */\n      dup3\n        /* \"#utility.yul\":13687:13701   */\n      sub\n        /* \"#utility.yul\":13680:13684   */\n      0x00\n        /* \"#utility.yul\":13675:13678   */\n      dup7\n        /* \"#utility.yul\":13671:13685   */\n      add\n        /* \"#utility.yul\":13664:13702   */\n      mstore\n        /* \"#utility.yul\":13723:13796   */\n      tag_442\n        /* \"#utility.yul\":13791:13795   */\n      dup3\n        /* \"#utility.yul\":13777:13789   */\n      dup3\n        /* \"#utility.yul\":13723:13796   */\n      tag_261\n      jump\t// in\n    tag_442:\n        /* \"#utility.yul\":13715:13796   */\n      swap2\n      pop\n        /* \"#utility.yul\":13572:13807   */\n      pop\n        /* \"#utility.yul\":13891:13895   */\n      0x20\n        /* \"#utility.yul\":13884:13889   */\n      dup4\n        /* \"#utility.yul\":13880:13896   */\n      add\n        /* \"#utility.yul\":13874:13897   */\n      mload\n        /* \"#utility.yul\":13944:13947   */\n      dup5\n        /* \"#utility.yul\":13938:13942   */\n      dup3\n        /* \"#utility.yul\":13934:13948   */\n      sub\n        /* \"#utility.yul\":13927:13931   */\n      0x20\n        /* \"#utility.yul\":13922:13925   */\n      dup7\n        /* \"#utility.yul\":13918:13932   */\n      add\n        /* \"#utility.yul\":13911:13949   */\n      mstore\n        /* \"#utility.yul\":13970:14043   */\n      tag_443\n        /* \"#utility.yul\":14038:14042   */\n      dup3\n        /* \"#utility.yul\":14024:14036   */\n      dup3\n        /* \"#utility.yul\":13970:14043   */\n      tag_261\n      jump\t// in\n    tag_443:\n        /* \"#utility.yul\":13962:14043   */\n      swap2\n      pop\n        /* \"#utility.yul\":13817:14054   */\n      pop\n        /* \"#utility.yul\":14147:14151   */\n      0x40\n        /* \"#utility.yul\":14140:14145   */\n      dup4\n        /* \"#utility.yul\":14136:14152   */\n      add\n        /* \"#utility.yul\":14130:14153   */\n      mload\n        /* \"#utility.yul\":14200:14203   */\n      dup5\n        /* \"#utility.yul\":14194:14198   */\n      dup3\n        /* \"#utility.yul\":14190:14204   */\n      sub\n        /* \"#utility.yul\":14183:14187   */\n      0x40\n        /* \"#utility.yul\":14178:14181   */\n      dup7\n        /* \"#utility.yul\":14174:14188   */\n      add\n        /* \"#utility.yul\":14167:14205   */\n      mstore\n        /* \"#utility.yul\":14226:14299   */\n      tag_444\n        /* \"#utility.yul\":14294:14298   */\n      dup3\n        /* \"#utility.yul\":14280:14292   */\n      dup3\n        /* \"#utility.yul\":14226:14299   */\n      tag_261\n      jump\t// in\n    tag_444:\n        /* \"#utility.yul\":14218:14299   */\n      swap2\n      pop\n        /* \"#utility.yul\":14064:14310   */\n      pop\n        /* \"#utility.yul\":14402:14406   */\n      0x60\n        /* \"#utility.yul\":14395:14400   */\n      dup4\n        /* \"#utility.yul\":14391:14407   */\n      add\n        /* \"#utility.yul\":14385:14408   */\n      mload\n        /* \"#utility.yul\":14421:14484   */\n      tag_445\n        /* \"#utility.yul\":14478:14482   */\n      0x60\n        /* \"#utility.yul\":14473:14476   */\n      dup7\n        /* \"#utility.yul\":14469:14483   */\n      add\n        /* \"#utility.yul\":14455:14467   */\n      dup3\n        /* \"#utility.yul\":14421:14484   */\n      tag_268\n      jump\t// in\n    tag_445:\n        /* \"#utility.yul\":14320:14494   */\n      pop\n        /* \"#utility.yul\":14585:14589   */\n      0x80\n        /* \"#utility.yul\":14578:14583   */\n      dup4\n        /* \"#utility.yul\":14574:14590   */\n      add\n        /* \"#utility.yul\":14568:14591   */\n      mload\n        /* \"#utility.yul\":14604:14667   */\n      tag_446\n        /* \"#utility.yul\":14661:14665   */\n      0x80\n        /* \"#utility.yul\":14656:14659   */\n      dup7\n        /* \"#utility.yul\":14652:14666   */\n      add\n        /* \"#utility.yul\":14638:14650   */\n      dup3\n        /* \"#utility.yul\":14604:14667   */\n      tag_268\n      jump\t// in\n    tag_446:\n        /* \"#utility.yul\":14504:14677   */\n      pop\n        /* \"#utility.yul\":14763:14767   */\n      0xa0\n        /* \"#utility.yul\":14756:14761   */\n      dup4\n        /* \"#utility.yul\":14752:14768   */\n      add\n        /* \"#utility.yul\":14746:14769   */\n      mload\n        /* \"#utility.yul\":14782:14845   */\n      tag_447\n        /* \"#utility.yul\":14839:14843   */\n      0xa0\n        /* \"#utility.yul\":14834:14837   */\n      dup7\n        /* \"#utility.yul\":14830:14844   */\n      add\n        /* \"#utility.yul\":14816:14828   */\n      dup3\n        /* \"#utility.yul\":14782:14845   */\n      tag_268\n      jump\t// in\n    tag_447:\n        /* \"#utility.yul\":14687:14855   */\n      pop\n        /* \"#utility.yul\":14872:14876   */\n      dup1\n        /* \"#utility.yul\":14865:14876   */\n      swap2\n      pop\n        /* \"#utility.yul\":13526:14882   */\n      pop\n        /* \"#utility.yul\":13400:14882   */\n      swap3\n      swap2\n      pop\n      pop\n      jump\t// out\n        /* \"#utility.yul\":14888:15168   */\n    tag_270:\n        /* \"#utility.yul\":15019:15029   */\n      0x00\n        /* \"#utility.yul\":15054:15162   */\n      tag_449\n        /* \"#utility.yul\":15158:15161   */\n      dup4\n        /* \"#utility.yul\":15150:15156   */\n      dup4\n        /* \"#utility.yul\":15054:15162   */\n      tag_269\n      jump\t// in\n    tag_449:\n        /* \"#utility.yul\":15040:15162   */\n      swap1\n      pop\n        /* \"#utility.yul\":14888:15168   */\n      swap3\n      swap2\n      pop\n      pop\n      jump\t// out\n        /* \"#utility.yul\":15174:15318   */\n    tag_271:\n        /* \"#utility.yul\":15275:15279   */\n      0x00\n        /* \"#utility.yul\":15307:15311   */\n      0x20\n        /* \"#utility.yul\":15302:15305   */\n      dup3\n        /* \"#utility.yul\":15298:15312   */\n      add\n        /* \"#utility.yul\":15290:15312   */\n      swap1\n      pop\n        /* \"#utility.yul\":15174:15318   */\n      swap2\n      swap1\n      pop\n      jump\t// out\n        /* \"#utility.yul\":15428:16587   */\n    tag_272:\n        /* \"#utility.yul\":15609:15612   */\n      0x00\n        /* \"#utility.yul\":15638:15723   */\n      tag_452\n        /* \"#utility.yul\":15717:15722   */\n      dup3\n        /* \"#utility.yul\":15638:15723   */\n      tag_265\n      jump\t// in\n    tag_452:\n        /* \"#utility.yul\":15739:15856   */\n      tag_453\n        /* \"#utility.yul\":15849:15855   */\n      dup2\n        /* \"#utility.yul\":15844:15847   */\n      dup6\n        /* \"#utility.yul\":15739:15856   */\n      tag_266\n      jump\t// in\n    tag_453:\n        /* \"#utility.yul\":15732:15856   */\n      swap4\n      pop\n        /* \"#utility.yul\":15882:15885   */\n      dup4\n        /* \"#utility.yul\":15927:15931   */\n      0x20\n        /* \"#utility.yul\":15919:15925   */\n      dup3\n        /* \"#utility.yul\":15915:15932   */\n      mul\n        /* \"#utility.yul\":15910:15913   */\n      dup6\n        /* \"#utility.yul\":15906:15933   */\n      add\n        /* \"#utility.yul\":15957:16044   */\n      tag_454\n        /* \"#utility.yul\":16038:16043   */\n      dup6\n        /* \"#utility.yul\":15957:16044   */\n      tag_267\n      jump\t// in\n    tag_454:\n        /* \"#utility.yul\":16067:16074   */\n      dup1\n        /* \"#utility.yul\":16098:16099   */\n      0x00\n        /* \"#utility.yul\":16083:16542   */\n    tag_455:\n        /* \"#utility.yul\":16108:16114   */\n      dup6\n        /* \"#utility.yul\":16105:16106   */\n      dup2\n        /* \"#utility.yul\":16102:16115   */\n      lt\n        /* \"#utility.yul\":16083:16542   */\n      iszero\n      tag_457\n      jumpi\n        /* \"#utility.yul\":16179:16188   */\n      dup5\n        /* \"#utility.yul\":16173:16177   */\n      dup5\n        /* \"#utility.yul\":16169:16189   */\n      sub\n        /* \"#utility.yul\":16164:16167   */\n      dup10\n        /* \"#utility.yul\":16157:16190   */\n      mstore\n        /* \"#utility.yul\":16230:16236   */\n      dup2\n        /* \"#utility.yul\":16224:16237   */\n      mload\n        /* \"#utility.yul\":16258:16384   */\n      tag_458\n        /* \"#utility.yul\":16379:16383   */\n      dup6\n        /* \"#utility.yul\":16364:16377   */\n      dup3\n        /* \"#utility.yul\":16258:16384   */\n      tag_270\n      jump\t// in\n    tag_458:\n        /* \"#utility.yul\":16250:16384   */\n      swap5\n      pop\n        /* \"#utility.yul\":16407:16498   */\n      tag_459\n        /* \"#utility.yul\":16491:16497   */\n      dup4\n        /* \"#utility.yul\":16407:16498   */\n      tag_271\n      jump\t// in\n    tag_459:\n        /* \"#utility.yul\":16397:16498   */\n      swap3\n      pop\n        /* \"#utility.yul\":16527:16531   */\n      0x20\n        /* \"#utility.yul\":16522:16525   */\n      dup11\n        /* \"#utility.yul\":16518:16532   */\n      add\n        /* \"#utility.yul\":16511:16532   */\n      swap10\n      pop\n        /* \"#utility.yul\":16143:16542   */\n      pop\n        /* \"#utility.yul\":16130:16131   */\n      0x01\n        /* \"#utility.yul\":16127:16128   */\n      dup2\n        /* \"#utility.yul\":16123:16132   */\n      add\n        /* \"#utility.yul\":16118:16132   */\n      swap1\n      pop\n        /* \"#utility.yul\":16083:16542   */\n      jump(tag_455)\n    tag_457:\n        /* \"#utility.yul\":16087:16101   */\n      pop\n        /* \"#utility.yul\":16558:16562   */\n      dup3\n        /* \"#utility.yul\":16551:16562   */\n      swap8\n      pop\n        /* \"#utility.yul\":16578:16581   */\n      dup8\n        /* \"#utility.yul\":16571:16581   */\n      swap6\n      pop\n        /* \"#utility.yul\":15614:16587   */\n      pop\n      pop\n      pop\n      pop\n      pop\n        /* \"#utility.yul\":15428:16587   */\n      swap3\n      swap2\n      pop\n      pop\n      jump\t// out\n        /* \"#utility.yul\":16593:17391   */\n    tag_66:\n        /* \"#utility.yul\":16896:16900   */\n      0x00\n        /* \"#utility.yul\":16934:16936   */\n      0x40\n        /* \"#utility.yul\":16923:16932   */\n      dup3\n        /* \"#utility.yul\":16919:16937   */\n      add\n        /* \"#utility.yul\":16911:16937   */\n      swap1\n      pop\n        /* \"#utility.yul\":16983:16992   */\n      dup2\n        /* \"#utility.yul\":16977:16981   */\n      dup2\n        /* \"#utility.yul\":16973:16993   */\n      sub\n        /* \"#utility.yul\":16969:16970   */\n      0x00\n        /* \"#utility.yul\":16958:16967   */\n      dup4\n        /* \"#utility.yul\":16954:16971   */\n      add\n        /* \"#utility.yul\":16947:16994   */\n      mstore\n        /* \"#utility.yul\":17011:17139   */\n      tag_461\n        /* \"#utility.yul\":17134:17138   */\n      dup2\n        /* \"#utility.yul\":17125:17131   */\n      dup6\n        /* \"#utility.yul\":17011:17139   */\n      tag_264\n      jump\t// in\n    tag_461:\n        /* \"#utility.yul\":17003:17139   */\n      swap1\n      pop\n        /* \"#utility.yul\":17186:17195   */\n      dup2\n        /* \"#utility.yul\":17180:17184   */\n      dup2\n        /* \"#utility.yul\":17176:17196   */\n      sub\n        /* \"#utility.yul\":17171:17173   */\n      0x20\n        /* \"#utility.yul\":17160:17169   */\n      dup4\n        /* \"#utility.yul\":17156:17174   */\n      add\n        /* \"#utility.yul\":17149:17197   */\n      mstore\n        /* \"#utility.yul\":17214:17384   */\n      tag_462\n        /* \"#utility.yul\":17379:17383   */\n      dup2\n        /* \"#utility.yul\":17370:17376   */\n      dup5\n        /* \"#utility.yul\":17214:17384   */\n      tag_272\n      jump\t// in\n    tag_462:\n        /* \"#utility.yul\":17206:17384   */\n      swap1\n      pop\n        /* \"#utility.yul\":16593:17391   */\n      swap4\n      swap3\n      pop\n      pop\n      pop\n      jump\t// out\n        /* \"#utility.yul\":17397:17501   */\n    tag_273:\n        /* \"#utility.yul\":17442:17449   */\n      0x00\n        /* \"#utility.yul\":17471:17495   */\n      tag_464\n        /* \"#utility.yul\":17489:17494   */\n      dup3\n        /* \"#utility.yul\":17471:17495   */\n      tag_243\n      jump\t// in\n    tag_464:\n        /* \"#utility.yul\":17460:17495   */\n      swap1\n      pop\n        /* \"#utility.yul\":17397:17501   */\n      swap2\n      swap1\n      pop\n      jump\t// out\n        /* \"#utility.yul\":17507:17645   */\n    tag_274:\n        /* \"#utility.yul\":17588:17620   */\n      tag_466\n        /* \"#utility.yul\":17614:17619   */\n      dup2\n        /* \"#utility.yul\":17588:17620   */\n      tag_273\n      jump\t// in\n    tag_466:\n        /* \"#utility.yul\":17581:17586   */\n      dup2\n        /* \"#utility.yul\":17578:17621   */\n      eq\n        /* \"#utility.yul\":17568:17639   */\n      tag_467\n      jumpi\n        /* \"#utility.yul\":17635:17636   */\n      0x00\n        /* \"#utility.yul\":17632:17633   */\n      dup1\n        /* \"#utility.yul\":17625:17637   */\n      revert\n        /* \"#utility.yul\":17568:17639   */\n    tag_467:\n        /* \"#utility.yul\":17507:17645   */\n      pop\n      jump\t// out\n        /* \"#utility.yul\":17651:17806   */\n    tag_275:\n        /* \"#utility.yul\":17705:17710   */\n      0x00\n        /* \"#utility.yul\":17743:17749   */\n      dup2\n        /* \"#utility.yul\":17730:17750   */\n      calldataload\n        /* \"#utility.yul\":17721:17750   */\n      swap1\n      pop\n        /* \"#utility.yul\":17759:17800   */\n      tag_469\n        /* \"#utility.yul\":17794:17799   */\n      dup2\n        /* \"#utility.yul\":17759:17800   */\n      tag_274\n      jump\t// in\n    tag_469:\n        /* \"#utility.yul\":17651:17806   */\n      swap3\n      swap2\n      pop\n      pop\n      jump\t// out\n        /* \"#utility.yul\":17812:18302   */\n    tag_70:\n        /* \"#utility.yul\":17888:17894   */\n      0x00\n        /* \"#utility.yul\":17896:17902   */\n      dup1\n        /* \"#utility.yul\":17945:17947   */\n      0x40\n        /* \"#utility.yul\":17933:17942   */\n      dup4\n        /* \"#utility.yul\":17924:17931   */\n      dup6\n        /* \"#utility.yul\":17920:17943   */\n      sub\n        /* \"#utility.yul\":17916:17948   */\n      slt\n        /* \"#utility.yul\":17913:18032   */\n      iszero\n      tag_471\n      jumpi\n        /* \"#utility.yul\":17951:18030   */\n      tag_472\n      tag_233\n      jump\t// in\n    tag_472:\n        /* \"#utility.yul\":17913:18032   */\n    tag_471:\n        /* \"#utility.yul\":18071:18072   */\n      0x00\n        /* \"#utility.yul\":18096:18157   */\n      tag_473\n        /* \"#utility.yul\":18149:18156   */\n      dup6\n        /* \"#utility.yul\":18140:18146   */\n      dup3\n        /* \"#utility.yul\":18129:18138   */\n      dup7\n        /* \"#utility.yul\":18125:18147   */\n      add\n        /* \"#utility.yul\":18096:18157   */\n      tag_275\n      jump\t// in\n    tag_473:\n        /* \"#utility.yul\":18086:18157   */\n      swap3\n      pop\n        /* \"#utility.yul\":18042:18167   */\n      pop\n        /* \"#utility.yul\":18206:18208   */\n      0x20\n        /* \"#utility.yul\":18232:18285   */\n      tag_474\n        /* \"#utility.yul\":18277:18284   */\n      dup6\n        /* \"#utility.yul\":18268:18274   */\n      dup3\n        /* \"#utility.yul\":18257:18266   */\n      dup7\n        /* \"#utility.yul\":18253:18275   */\n      add\n        /* \"#utility.yul\":18232:18285   */\n      tag_237\n      jump\t// in\n    tag_474:\n        /* \"#utility.yul\":18222:18285   */\n      swap2\n      pop\n        /* \"#utility.yul\":18177:18295   */\n      pop\n        /* \"#utility.yul\":17812:18302   */\n      swap3\n      pop\n      swap3\n      swap1\n      pop\n      jump\t// out\n        /* \"#utility.yul\":18308:19142   */\n    tag_75:\n        /* \"#utility.yul\":18396:18402   */\n      0x00\n        /* \"#utility.yul\":18404:18410   */\n      dup1\n        /* \"#utility.yul\":18453:18455   */\n      0x40\n        /* \"#utility.yul\":18441:18450   */\n      dup4\n        /* \"#utility.yul\":18432:18439   */\n      dup6\n        /* \"#utility.yul\":18428:18451   */\n      sub\n        /* \"#utility.yul\":18424:18456   */\n      slt\n        /* \"#utility.yul\":18421:18540   */\n      iszero\n      tag_476\n      jumpi\n        /* \"#utility.yul\":18459:18538   */\n      tag_477\n      tag_233\n      jump\t// in\n    tag_477:\n        /* \"#utility.yul\":18421:18540   */\n    tag_476:\n        /* \"#utility.yul\":18607:18608   */\n      0x00\n        /* \"#utility.yul\":18596:18605   */\n      dup4\n        /* \"#utility.yul\":18592:18609   */\n      add\n        /* \"#utility.yul\":18579:18610   */\n      calldataload\n        /* \"#utility.yul\":18637:18655   */\n      0xffffffffffffffff\n        /* \"#utility.yul\":18629:18635   */\n      dup2\n        /* \"#utility.yul\":18626:18656   */\n      gt\n        /* \"#utility.yul\":18623:18740   */\n      iszero\n      tag_478\n      jumpi\n        /* \"#utility.yul\":18659:18738   */\n      tag_479\n      tag_234\n      jump\t// in\n    tag_479:\n        /* \"#utility.yul\":18623:18740   */\n    tag_478:\n        /* \"#utility.yul\":18764:18827   */\n      tag_480\n        /* \"#utility.yul\":18819:18826   */\n      dup6\n        /* \"#utility.yul\":18810:18816   */\n      dup3\n        /* \"#utility.yul\":18799:18808   */\n      dup7\n        /* \"#utility.yul\":18795:18817   */\n      add\n        /* \"#utility.yul\":18764:18827   */\n      tag_254\n      jump\t// in\n    tag_480:\n        /* \"#utility.yul\":18754:18827   */\n      swap3\n      pop\n        /* \"#utility.yul\":18550:18837   */\n      pop\n        /* \"#utility.yul\":18904:18906   */\n      0x20\n        /* \"#utility.yul\":18893:18902   */\n      dup4\n        /* \"#utility.yul\":18889:18907   */\n      add\n        /* \"#utility.yul\":18876:18908   */\n      calldataload\n        /* \"#utility.yul\":18935:18953   */\n      0xffffffffffffffff\n        /* \"#utility.yul\":18927:18933   */\n      dup2\n        /* \"#utility.yul\":18924:18954   */\n      gt\n        /* \"#utility.yul\":18921:19038   */\n      iszero\n      tag_481\n      jumpi\n        /* \"#utility.yul\":18957:19036   */\n      tag_482\n      tag_234\n      jump\t// in\n    tag_482:\n        /* \"#utility.yul\":18921:19038   */\n    tag_481:\n        /* \"#utility.yul\":19062:19125   */\n      tag_483\n        /* \"#utility.yul\":19117:19124   */\n      dup6\n        /* \"#utility.yul\":19108:19114   */\n      dup3\n        /* \"#utility.yul\":19097:19106   */\n      dup7\n        /* \"#utility.yul\":19093:19115   */\n      add\n        /* \"#utility.yul\":19062:19125   */\n      tag_254\n      jump\t// in\n    tag_483:\n        /* \"#utility.yul\":19052:19125   */\n      swap2\n      pop\n        /* \"#utility.yul\":18847:19135   */\n      pop\n        /* \"#utility.yul\":18308:19142   */\n      swap3\n      pop\n      swap3\n      swap1\n      pop\n      jump\t// out\n        /* \"#utility.yul\":19148:19238   */\n    tag_276:\n        /* \"#utility.yul\":19182:19189   */\n      0x00\n        /* \"#utility.yul\":19225:19230   */\n      dup2\n        /* \"#utility.yul\":19218:19231   */\n      iszero\n        /* \"#utility.yul\":19211:19232   */\n      iszero\n        /* \"#utility.yul\":19200:19232   */\n      swap1\n      pop\n        /* \"#utility.yul\":19148:19238   */\n      swap2\n      swap1\n      pop\n      jump\t// out\n        /* \"#utility.yul\":19244:19353   */\n    tag_277:\n        /* \"#utility.yul\":19325:19346   */\n      tag_486\n        /* \"#utility.yul\":19340:19345   */\n      dup2\n        /* \"#utility.yul\":19325:19346   */\n      tag_276\n      jump\t// in\n    tag_486:\n        /* \"#utility.yul\":19320:19323   */\n      dup3\n        /* \"#utility.yul\":19313:19347   */\n      mstore\n        /* \"#utility.yul\":19244:19353   */\n      pop\n      pop\n      jump\t// out\n        /* \"#utility.yul\":19359:19569   */\n    tag_78:\n        /* \"#utility.yul\":19446:19450   */\n      0x00\n        /* \"#utility.yul\":19484:19486   */\n      0x20\n        /* \"#utility.yul\":19473:19482   */\n      dup3\n        /* \"#utility.yul\":19469:19487   */\n      add\n        /* \"#utility.yul\":19461:19487   */\n      swap1\n      pop\n        /* \"#utility.yul\":19497:19562   */\n      tag_488\n        /* \"#utility.yul\":19559:19560   */\n      0x00\n        /* \"#utility.yul\":19548:19557   */\n      dup4\n        /* \"#utility.yul\":19544:19561   */\n      add\n        /* \"#utility.yul\":19535:19541   */\n      dup5\n        /* \"#utility.yul\":19497:19562   */\n      tag_277\n      jump\t// in\n    tag_488:\n        /* \"#utility.yul\":19359:19569   */\n      swap3\n      swap2\n      pop\n      pop\n      jump\t// out\n        /* \"#utility.yul\":19575:19797   */\n    tag_83:\n        /* \"#utility.yul\":19668:19672   */\n      0x00\n        /* \"#utility.yul\":19706:19708   */\n      0x20\n        /* \"#utility.yul\":19695:19704   */\n      dup3\n        /* \"#utility.yul\":19691:19709   */\n      add\n        /* \"#utility.yul\":19683:19709   */\n      swap1\n      pop\n        /* \"#utility.yul\":19719:19790   */\n      tag_490\n        /* \"#utility.yul\":19787:19788   */\n      0x00\n        /* \"#utility.yul\":19776:19785   */\n      dup4\n        /* \"#utility.yul\":19772:19789   */\n      add\n        /* \"#utility.yul\":19763:19769   */\n      dup5\n        /* \"#utility.yul\":19719:19790   */\n      tag_255\n      jump\t// in\n    tag_490:\n        /* \"#utility.yul\":19575:19797   */\n      swap3\n      swap2\n      pop\n      pop\n      jump\t// out\n        /* \"#utility.yul\":19803:20457   */\n    tag_86:\n        /* \"#utility.yul\":19881:19887   */\n      0x00\n        /* \"#utility.yul\":19889:19895   */\n      dup1\n        /* \"#utility.yul\":19938:19940   */\n      0x40\n        /* \"#utility.yul\":19926:19935   */\n      dup4\n        /* \"#utility.yul\":19917:19924   */\n      dup6\n        /* \"#utility.yul\":19913:19936   */\n      sub\n        /* \"#utility.yul\":19909:19941   */\n      slt\n        /* \"#utility.yul\":19906:20025   */\n      iszero\n      tag_492\n      jumpi\n        /* \"#utility.yul\":19944:20023   */\n      tag_493\n      tag_233\n      jump\t// in\n    tag_493:\n        /* \"#utility.yul\":19906:20025   */\n    tag_492:\n        /* \"#utility.yul\":20064:20065   */\n      0x00\n        /* \"#utility.yul\":20089:20142   */\n      tag_494\n        /* \"#utility.yul\":20134:20141   */\n      dup6\n        /* \"#utility.yul\":20125:20131   */\n      dup3\n        /* \"#utility.yul\":20114:20123   */\n      dup7\n        /* \"#utility.yul\":20110:20132   */\n      add\n        /* \"#utility.yul\":20089:20142   */\n      tag_246\n      jump\t// in\n    tag_494:\n        /* \"#utility.yul\":20079:20142   */\n      swap3\n      pop\n        /* \"#utility.yul\":20035:20152   */\n      pop\n        /* \"#utility.yul\":20219:20221   */\n      0x20\n        /* \"#utility.yul\":20208:20217   */\n      dup4\n        /* \"#utility.yul\":20204:20222   */\n      add\n        /* \"#utility.yul\":20191:20223   */\n      calldataload\n        /* \"#utility.yul\":20250:20268   */\n      0xffffffffffffffff\n        /* \"#utility.yul\":20242:20248   */\n      dup2\n        /* \"#utility.yul\":20239:20269   */\n      gt\n        /* \"#utility.yul\":20236:20353   */\n      iszero\n      tag_495\n      jumpi\n        /* \"#utility.yul\":20272:20351   */\n      tag_496\n      tag_234\n      jump\t// in\n    tag_496:\n        /* \"#utility.yul\":20236:20353   */\n    tag_495:\n        /* \"#utility.yul\":20377:20440   */\n      tag_497\n        /* \"#utility.yul\":20432:20439   */\n      dup6\n        /* \"#utility.yul\":20423:20429   */\n      dup3\n        /* \"#utility.yul\":20412:20421   */\n      dup7\n        /* \"#utility.yul\":20408:20430   */\n      add\n        /* \"#utility.yul\":20377:20440   */\n      tag_254\n      jump\t// in\n    tag_497:\n        /* \"#utility.yul\":20367:20440   */\n      swap2\n      pop\n        /* \"#utility.yul\":20162:20450   */\n      pop\n        /* \"#utility.yul\":19803:20457   */\n      swap3\n      pop\n      swap3\n      swap1\n      pop\n      jump\t// out\n        /* \"#utility.yul\":20463:20643   */\n    tag_278:\n        /* \"#utility.yul\":20511:20588   */\n      0x4e487b7100000000000000000000000000000000000000000000000000000000\n        /* \"#utility.yul\":20508:20509   */\n      0x00\n        /* \"#utility.yul\":20501:20589   */\n      mstore\n        /* \"#utility.yul\":20608:20612   */\n      0x22\n        /* \"#utility.yul\":20605:20606   */\n      0x04\n        /* \"#utility.yul\":20598:20613   */\n      mstore\n        /* \"#utility.yul\":20632:20636   */\n      0x24\n        /* \"#utility.yul\":20629:20630   */\n      0x00\n        /* \"#utility.yul\":20622:20637   */\n      revert\n        /* \"#utility.yul\":20649:20969   */\n    tag_102:\n        /* \"#utility.yul\":20693:20699   */\n      0x00\n        /* \"#utility.yul\":20730:20731   */\n      0x02\n        /* \"#utility.yul\":20724:20728   */\n      dup3\n        /* \"#utility.yul\":20720:20732   */\n      div\n        /* \"#utility.yul\":20710:20732   */\n      swap1\n      pop\n        /* \"#utility.yul\":20777:20778   */\n      0x01\n        /* \"#utility.yul\":20771:20775   */\n      dup3\n        /* \"#utility.yul\":20767:20779   */\n      and\n        /* \"#utility.yul\":20798:20816   */\n      dup1\n        /* \"#utility.yul\":20788:20869   */\n      tag_500\n      jumpi\n        /* \"#utility.yul\":20854:20858   */\n      0x7f\n        /* \"#utility.yul\":20846:20852   */\n      dup3\n        /* \"#utility.yul\":20842:20859   */\n      and\n        /* \"#utility.yul\":20832:20859   */\n      swap2\n      pop\n        /* \"#utility.yul\":20788:20869   */\n    tag_500:\n        /* \"#utility.yul\":20916:20918   */\n      0x20\n        /* \"#utility.yul\":20908:20914   */\n      dup3\n        /* \"#utility.yul\":20905:20919   */\n      lt\n        /* \"#utility.yul\":20885:20903   */\n      dup2\n        /* \"#utility.yul\":20882:20920   */\n      sub\n        /* \"#utility.yul\":20879:20963   */\n      tag_501\n      jumpi\n        /* \"#utility.yul\":20935:20953   */\n      tag_502\n      tag_278\n      jump\t// in\n    tag_502:\n        /* \"#utility.yul\":20879:20963   */\n    tag_501:\n        /* \"#utility.yul\":20700:20969   */\n      pop\n        /* \"#utility.yul\":20649:20969   */\n      swap2\n      swap1\n      pop\n      jump\t// out\n        /* \"#utility.yul\":20975:21123   */\n    tag_279:\n        /* \"#utility.yul\":21077:21088   */\n      0x00\n        /* \"#utility.yul\":21114:21117   */\n      dup2\n        /* \"#utility.yul\":21099:21117   */\n      swap1\n      pop\n        /* \"#utility.yul\":20975:21123   */\n      swap3\n      swap2\n      pop\n      pop\n      jump\t// out\n        /* \"#utility.yul\":21129:21506   */\n    tag_280:\n        /* \"#utility.yul\":21235:21238   */\n      0x00\n        /* \"#utility.yul\":21263:21302   */\n      tag_505\n        /* \"#utility.yul\":21296:21301   */\n      dup3\n        /* \"#utility.yul\":21263:21302   */\n      tag_238\n      jump\t// in\n    tag_505:\n        /* \"#utility.yul\":21318:21407   */\n      tag_506\n        /* \"#utility.yul\":21400:21406   */\n      dup2\n        /* \"#utility.yul\":21395:21398   */\n      dup6\n        /* \"#utility.yul\":21318:21407   */\n      tag_279\n      jump\t// in\n    tag_506:\n        /* \"#utility.yul\":21311:21407   */\n      swap4\n      pop\n        /* \"#utility.yul\":21416:21468   */\n      tag_507\n        /* \"#utility.yul\":21461:21467   */\n      dup2\n        /* \"#utility.yul\":21456:21459   */\n      dup6\n        /* \"#utility.yul\":21449:21453   */\n      0x20\n        /* \"#utility.yul\":21442:21447   */\n      dup7\n        /* \"#utility.yul\":21438:21454   */\n      add\n        /* \"#utility.yul\":21416:21468   */\n      tag_240\n      jump\t// in\n    tag_507:\n        /* \"#utility.yul\":21493:21499   */\n      dup1\n        /* \"#utility.yul\":21488:21491   */\n      dup5\n        /* \"#utility.yul\":21484:21500   */\n      add\n        /* \"#utility.yul\":21477:21500   */\n      swap2\n      pop\n        /* \"#utility.yul\":21239:21506   */\n      pop\n        /* \"#utility.yul\":21129:21506   */\n      swap3\n      swap2\n      pop\n      pop\n      jump\t// out\n        /* \"#utility.yul\":21512:21787   */\n    tag_140:\n        /* \"#utility.yul\":21644:21647   */\n      0x00\n        /* \"#utility.yul\":21666:21761   */\n      tag_509\n        /* \"#utility.yul\":21757:21760   */\n      dup3\n        /* \"#utility.yul\":21748:21754   */\n      dup5\n        /* \"#utility.yul\":21666:21761   */\n      tag_280\n      jump\t// in\n    tag_509:\n        /* \"#utility.yul\":21659:21761   */\n      swap2\n      pop\n        /* \"#utility.yul\":21778:21781   */\n      dup2\n        /* \"#utility.yul\":21771:21781   */\n      swap1\n      pop\n        /* \"#utility.yul\":21512:21787   */\n      swap3\n      swap2\n      pop\n      pop\n      jump\t// out\n        /* \"#utility.yul\":21793:21934   */\n    tag_281:\n        /* \"#utility.yul\":21842:21846   */\n      0x00\n        /* \"#utility.yul\":21865:21868   */\n      dup2\n        /* \"#utility.yul\":21857:21868   */\n      swap1\n      pop\n        /* \"#utility.yul\":21888:21891   */\n      dup2\n        /* \"#utility.yul\":21885:21886   */\n      0x00\n        /* \"#utility.yul\":21878:21892   */\n      mstore\n        /* \"#utility.yul\":21922:21926   */\n      0x20\n        /* \"#utility.yul\":21919:21920   */\n      0x00\n        /* \"#utility.yul\":21909:21927   */\n      keccak256\n        /* \"#utility.yul\":21901:21927   */\n      swap1\n      pop\n        /* \"#utility.yul\":21793:21934   */\n      swap2\n      swap1\n      pop\n      jump\t// out\n        /* \"#utility.yul\":21940:22033   */\n    tag_282:\n        /* \"#utility.yul\":21977:21983   */\n      0x00\n        /* \"#utility.yul\":22024:22026   */\n      0x20\n        /* \"#utility.yul\":22019:22021   */\n      0x1f\n        /* \"#utility.yul\":22012:22017   */\n      dup4\n        /* \"#utility.yul\":22008:22022   */\n      add\n        /* \"#utility.yul\":22004:22027   */\n      div\n        /* \"#utility.yul\":21994:22027   */\n      swap1\n      pop\n        /* \"#utility.yul\":21940:22033   */\n      swap2\n      swap1\n      pop\n      jump\t// out\n        /* \"#utility.yul\":22039:22146   */\n    tag_283:\n        /* \"#utility.yul\":22083:22091   */\n      0x00\n        /* \"#utility.yul\":22133:22138   */\n      dup3\n        /* \"#utility.yul\":22127:22131   */\n      dup3\n        /* \"#utility.yul\":22123:22139   */\n      shl\n        /* \"#utility.yul\":22102:22139   */\n      swap1\n      pop\n        /* \"#utility.yul\":22039:22146   */\n      swap3\n      swap2\n      pop\n      pop\n      jump\t// out\n        /* \"#utility.yul\":22152:22545   */\n    tag_284:\n        /* \"#utility.yul\":22221:22227   */\n      0x00\n        /* \"#utility.yul\":22271:22272   */\n      0x08\n        /* \"#utility.yul\":22259:22269   */\n      dup4\n        /* \"#utility.yul\":22255:22273   */\n      mul\n        /* \"#utility.yul\":22294:22391   */\n      tag_514\n        /* \"#utility.yul\":22324:22390   */\n      0xffffffffffffffffffffffffffffffffffffffffffffffffffffffffffffffff\n        /* \"#utility.yul\":22313:22322   */\n      dup3\n        /* \"#utility.yul\":22294:22391   */\n      tag_283\n      jump\t// in\n    tag_514:\n        /* \"#utility.yul\":22412:22451   */\n      tag_515\n        /* \"#utility.yul\":22442:22450   */\n      dup7\n        /* \"#utility.yul\":22431:22440   */\n      dup4\n        /* \"#utility.yul\":22412:22451   */\n      tag_283\n      jump\t// in\n    tag_515:\n        /* \"#utility.yul\":22400:22451   */\n      swap6\n      pop\n        /* \"#utility.yul\":22484:22488   */\n      dup1\n        /* \"#utility.yul\":22480:22489   */\n      not\n        /* \"#utility.yul\":22473:22478   */\n      dup5\n        /* \"#utility.yul\":22469:22490   */\n      and\n        /* \"#utility.yul\":22460:22490   */\n      swap4\n      pop\n        /* \"#utility.yul\":22533:22537   */\n      dup1\n        /* \"#utility.yul\":22523:22531   */\n      dup7\n        /* \"#utility.yul\":22519:22538   */\n      and\n        /* \"#utility.yul\":22512:22517   */\n      dup5\n        /* \"#utility.yul\":22509:22539   */\n      or\n        /* \"#utility.yul\":22499:22539   */\n      swap3\n      pop\n        /* \"#utility.yul\":22228:22545   */\n      pop\n      pop\n        /* \"#utility.yul\":22152:22545   */\n      swap4\n      swap3\n      pop\n      pop\n      pop\n      jump\t// out\n        /* \"#utility.yul\":22551:22611   */\n    tag_285:\n        /* \"#utility.yul\":22579:22582   */\n      0x00\n        /* \"#utility.yul\":22600:22605   */\n      dup2\n        /* \"#utility.yul\":22593:22605   */\n      swap1\n      pop\n        /* \"#utility.yul\":22551:22611   */\n      swap2\n      swap1\n      pop\n      jump\t// out\n        /* \"#utility.yul\":22617:22759   */\n    tag_286:\n        /* \"#utility.yul\":22667:22676   */\n      0x00\n        /* \"#utility.yul\":22700:22753   */\n      tag_518\n        /* \"#utility.yul\":22718:22752   */\n      tag_519\n        /* \"#utility.yul\":22727:22751   */\n      tag_520\n        /* \"#utility.yul\":22745:22750   */\n      dup5\n        /* \"#utility.yul\":22727:22751   */\n      tag_235\n      jump\t// in\n    tag_520:\n        /* \"#utility.yul\":22718:22752   */\n      tag_285\n      jump\t// in\n    tag_519:\n        /* \"#utility.yul\":22700:22753   */\n      tag_235\n      jump\t// in\n    tag_518:\n        /* \"#utility.yul\":22687:22753   */\n      swap1\n      pop\n        /* \"#utility.yul\":22617:22759   */\n      swap2\n      swap1\n      pop\n      jump\t// out\n        /* \"#utility.yul\":22765:22840   */\n    tag_287:\n        /* \"#utility.yul\":22808:22811   */\n      0x00\n        /* \"#utility.yul\":22829:22834   */\n      dup2\n        /* \"#utility.yul\":22822:22834   */\n      swap1\n      pop\n        /* \"#utility.yul\":22765:22840   */\n      swap2\n      swap1\n      pop\n      jump\t// out\n        /* \"#utility.yul\":22846:23115   */\n    tag_288:\n        /* \"#utility.yul\":22956:22995   */\n      tag_523\n        /* \"#utility.yul\":22987:22994   */\n      dup4\n        /* \"#utility.yul\":22956:22995   */\n      tag_286\n      jump\t// in\n    tag_523:\n        /* \"#utility.yul\":23017:23108   */\n      tag_524\n        /* \"#utility.yul\":23066:23107   */\n      tag_525\n        /* \"#utility.yul\":23090:23106   */\n      dup3\n        /* \"#utility.yul\":23066:23107   */\n      tag_287\n      jump\t// in\n    tag_525:\n        /* \"#utility.yul\":23058:23064   */\n      dup5\n        /* \"#utility.yul\":23051:23055   */\n      dup5\n        /* \"#utility.yul\":23045:23056   */\n      sload\n        /* \"#utility.yul\":23017:23108   */\n      tag_284\n      jump\t// in\n    tag_524:\n        /* \"#utility.yul\":23011:23015   */\n      dup3\n        /* \"#utility.yul\":23004:23109   */\n      sstore\n        /* \"#utility.yul\":22922:23115   */\n      pop\n        /* \"#utility.yul\":22846:23115   */\n      pop\n      pop\n      pop\n      jump\t// out\n        /* \"#utility.yul\":23121:23194   */\n    tag_289:\n        /* \"#utility.yul\":23166:23169   */\n      0x00\n        /* \"#utility.yul\":23121:23194   */\n      swap1\n      jump\t// out\n        /* \"#utility.yul\":23200:23389   */\n    tag_290:\n        /* \"#utility.yul\":23277:23309   */\n      tag_528\n      tag_289\n      jump\t// in\n    tag_528:\n        /* \"#utility.yul\":23318:23383   */\n      tag_529\n        /* \"#utility.yul\":23376:23382   */\n      dup2\n        /* \"#utility.yul\":23368:23374   */\n      dup5\n        /* \"#utility.yul\":23362:23366   */\n      dup5\n        /* \"#utility.yul\":23318:23383   */\n      tag_288\n      jump\t// in\n    tag_529:\n        /* \"#utility.yul\":23253:23389   */\n      pop\n        /* \"#utility.yul\":23200:23389   */\n      pop\n      pop\n      jump\t// out\n        /* \"#utility.yul\":23395:23581   */\n    tag_291:\n        /* \"#utility.yul\":23455:23575   */\n    tag_531:\n        /* \"#utility.yul\":23472:23475   */\n      dup2\n        /* \"#utility.yul\":23465:23470   */\n      dup2\n        /* \"#utility.yul\":23462:23476   */\n      lt\n        /* \"#utility.yul\":23455:23575   */\n      iszero\n      tag_533\n      jumpi\n        /* \"#utility.yul\":23526:23565   */\n      tag_534\n        /* \"#utility.yul\":23563:23564   */\n      0x00\n        /* \"#utility.yul\":23556:23561   */\n      dup3\n        /* \"#utility.yul\":23526:23565   */\n      tag_290\n      jump\t// in\n    tag_534:\n        /* \"#utility.yul\":23499:23500   */\n      0x01\n        /* \"#utility.yul\":23492:23497   */\n      dup2\n        /* \"#utility.yul\":23488:23501   */\n      add\n        /* \"#utility.yul\":23479:23501   */\n      swap1\n      pop\n        /* \"#utility.yul\":23455:23575   */\n      jump(tag_531)\n    tag_533:\n        /* \"#utility.yul\":23395:23581   */\n      pop\n      pop\n      jump\t// out\n        /* \"#utility.yul\":23587:24130   */\n    tag_292:\n        /* \"#utility.yul\":23688:23690   */\n      0x1f\n        /* \"#utility.yul\":23683:23686   */\n      dup3\n        /* \"#utility.yul\":23680:23691   */\n      gt\n        /* \"#utility.yul\":23677:24123   */\n      iszero\n      tag_536\n      jumpi\n        /* \"#utility.yul\":23722:23760   */\n      tag_537\n        /* \"#utility.yul\":23754:23759   */\n      dup2\n        /* \"#utility.yul\":23722:23760   */\n      tag_281\n      jump\t// in\n    tag_537:\n        /* \"#utility.yul\":23806:23835   */\n      tag_538\n        /* \"#utility.yul\":23824:23834   */\n      dup5\n        /* \"#utility.yul\":23806:23835   */\n      tag_282\n      jump\t// in\n    tag_538:\n        /* \"#utility.yul\":23796:23804   */\n      dup2\n        /* \"#utility.yul\":23792:23836   */\n      add\n        /* \"#utility.yul\":23989:23991   */\n      0x20\n        /* \"#utility.yul\":23977:23987   */\n      dup6\n        /* \"#utility.yul\":23974:23992   */\n      lt\n        /* \"#utility.yul\":23971:24020   */\n      iszero\n      tag_539\n      jumpi\n        /* \"#utility.yul\":24010:24018   */\n      dup2\n        /* \"#utility.yul\":23995:24018   */\n      swap1\n      pop\n        /* \"#utility.yul\":23971:24020   */\n    tag_539:\n        /* \"#utility.yul\":24033:24113   */\n      tag_540\n        /* \"#utility.yul\":24089:24111   */\n      tag_541\n        /* \"#utility.yul\":24107:24110   */\n      dup6\n        /* \"#utility.yul\":24089:24111   */\n      tag_282\n      jump\t// in\n    tag_541:\n        /* \"#utility.yul\":24079:24087   */\n      dup4\n        /* \"#utility.yul\":24075:24112   */\n      add\n        /* \"#utility.yul\":24062:24073   */\n      dup3\n        /* \"#utility.yul\":24033:24113   */\n      tag_291\n      jump\t// in\n    tag_540:\n        /* \"#utility.yul\":23692:24123   */\n      pop\n      pop\n        /* \"#utility.yul\":23677:24123   */\n    tag_536:\n        /* \"#utility.yul\":23587:24130   */\n      pop\n      pop\n      pop\n      jump\t// out\n        /* \"#utility.yul\":24136:24253   */\n    tag_293:\n        /* \"#utility.yul\":24190:24198   */\n      0x00\n        /* \"#utility.yul\":24240:24245   */\n      dup3\n        /* \"#utility.yul\":24234:24238   */\n      dup3\n        /* \"#utility.yul\":24230:24246   */\n      shr\n        /* \"#utility.yul\":24209:24246   */\n      swap1\n      pop\n        /* \"#utility.yul\":24136:24253   */\n      swap3\n      swap2\n      pop\n      pop\n      jump\t// out\n        /* \"#utility.yul\":24259:24428   */\n    tag_294:\n        /* \"#utility.yul\":24303:24309   */\n      0x00\n        /* \"#utility.yul\":24336:24387   */\n      tag_544\n        /* \"#utility.yul\":24384:24385   */\n      0x00\n        /* \"#utility.yul\":24380:24386   */\n      not\n        /* \"#utility.yul\":24372:24377   */\n      dup5\n        /* \"#utility.yul\":24369:24370   */\n      0x08\n        /* \"#utility.yul\":24365:24378   */\n      mul\n        /* \"#utility.yul\":24336:24387   */\n      tag_293\n      jump\t// in\n    tag_544:\n        /* \"#utility.yul\":24332:24388   */\n      not\n        /* \"#utility.yul\":24417:24421   */\n      dup1\n        /* \"#utility.yul\":24411:24415   */\n      dup4\n        /* \"#utility.yul\":24407:24422   */\n      and\n        /* \"#utility.yul\":24397:24422   */\n      swap2\n      pop\n        /* \"#utility.yul\":24310:24428   */\n      pop\n        /* \"#utility.yul\":24259:24428   */\n      swap3\n      swap2\n      pop\n      pop\n      jump\t// out\n        /* \"#utility.yul\":24433:24728   */\n    tag_295:\n        /* \"#utility.yul\":24509:24513   */\n      0x00\n        /* \"#utility.yul\":24655:24684   */\n      tag_546\n        /* \"#utility.yul\":24680:24683   */\n      dup4\n        /* \"#utility.yul\":24674:24678   */\n      dup4\n        /* \"#utility.yul\":24655:24684   */\n      tag_294\n      jump\t// in\n    tag_546:\n        /* \"#utility.yul\":24647:24684   */\n      swap2\n      pop\n        /* \"#utility.yul\":24717:24720   */\n      dup3\n        /* \"#utility.yul\":24714:24715   */\n      0x02\n        /* \"#utility.yul\":24710:24721   */\n      mul\n        /* \"#utility.yul\":24704:24708   */\n      dup3\n        /* \"#utility.yul\":24701:24722   */\n      or\n        /* \"#utility.yul\":24693:24722   */\n      swap1\n      pop\n        /* \"#utility.yul\":24433:24728   */\n      swap3\n      swap2\n      pop\n      pop\n      jump\t// out\n        /* \"#utility.yul\":24733:26128   */\n    tag_148:\n        /* \"#utility.yul\":24850:24887   */\n      tag_548\n        /* \"#utility.yul\":24883:24886   */\n      dup3\n        /* \"#utility.yul\":24850:24887   */\n      tag_238\n      jump\t// in\n    tag_548:\n        /* \"#utility.yul\":24952:24970   */\n      0xffffffffffffffff\n        /* \"#utility.yul\":24944:24950   */\n      dup2\n        /* \"#utility.yul\":24941:24971   */\n      gt\n        /* \"#utility.yul\":24938:24994   */\n      iszero\n      tag_549\n      jumpi\n        /* \"#utility.yul\":24974:24992   */\n      tag_550\n      tag_161\n      jump\t// in\n    tag_550:\n        /* \"#utility.yul\":24938:24994   */\n    tag_549:\n        /* \"#utility.yul\":25018:25056   */\n      tag_551\n        /* \"#utility.yul\":25050:25054   */\n      dup3\n        /* \"#utility.yul\":25044:25055   */\n      sload\n        /* \"#utility.yul\":25018:25056   */\n      tag_102\n      jump\t// in\n    tag_551:\n        /* \"#utility.yul\":25103:25170   */\n      tag_552\n        /* \"#utility.yul\":25163:25169   */\n      dup3\n        /* \"#utility.yul\":25155:25161   */\n      dup3\n        /* \"#utility.yul\":25149:25153   */\n      dup6\n        /* \"#utility.yul\":25103:25170   */\n      tag_292\n      jump\t// in\n    tag_552:\n        /* \"#utility.yul\":25197:25198   */\n      0x00\n        /* \"#utility.yul\":25221:25225   */\n      0x20\n        /* \"#utility.yul\":25208:25225   */\n      swap1\n      pop\n        /* \"#utility.yul\":25253:25255   */\n      0x1f\n        /* \"#utility.yul\":25245:25251   */\n      dup4\n        /* \"#utility.yul\":25242:25256   */\n      gt\n        /* \"#utility.yul\":25270:25271   */\n      0x01\n        /* \"#utility.yul\":25265:25883   */\n      dup2\n      eq\n      tag_554\n      jumpi\n        /* \"#utility.yul\":25927:25928   */\n      0x00\n        /* \"#utility.yul\":25944:25950   */\n      dup5\n        /* \"#utility.yul\":25941:26018   */\n      iszero\n      tag_555\n      jumpi\n        /* \"#utility.yul\":25993:26002   */\n      dup3\n        /* \"#utility.yul\":25988:25991   */\n      dup8\n        /* \"#utility.yul\":25984:26003   */\n      add\n        /* \"#utility.yul\":25978:26004   */\n      mload\n        /* \"#utility.yul\":25969:26004   */\n      swap1\n      pop\n        /* \"#utility.yul\":25941:26018   */\n    tag_555:\n        /* \"#utility.yul\":26044:26111   */\n      tag_556\n        /* \"#utility.yul\":26104:26110   */\n      dup6\n        /* \"#utility.yul\":26097:26102   */\n      dup3\n        /* \"#utility.yul\":26044:26111   */\n      tag_295\n      jump\t// in\n    tag_556:\n        /* \"#utility.yul\":26038:26042   */\n      dup7\n        /* \"#utility.yul\":26031:26112   */\n      sstore\n        /* \"#utility.yul\":25900:26122   */\n      pop\n        /* \"#utility.yul\":25235:26122   */\n      jump(tag_553)\n        /* \"#utility.yul\":25265:25883   */\n    tag_554:\n        /* \"#utility.yul\":25317:25321   */\n      0x1f\n        /* \"#utility.yul\":25313:25322   */\n      not\n        /* \"#utility.yul\":25305:25311   */\n      dup5\n        /* \"#utility.yul\":25301:25323   */\n      and\n        /* \"#utility.yul\":25351:25388   */\n      tag_557\n        /* \"#utility.yul\":25383:25387   */\n      dup7\n        /* \"#utility.yul\":25351:25388   */\n      tag_281\n      jump\t// in\n    tag_557:\n        /* \"#utility.yul\":25410:25411   */\n      0x00\n        /* \"#utility.yul\":25424:25632   */\n    tag_558:\n        /* \"#utility.yul\":25438:25445   */\n      dup3\n        /* \"#utility.yul\":25435:25436   */\n      dup2\n        /* \"#utility.yul\":25432:25446   */\n      lt\n        /* \"#utility.yul\":25424:25632   */\n      iszero\n      tag_560\n      jumpi\n        /* \"#utility.yul\":25517:25526   */\n      dup5\n        /* \"#utility.yul\":25512:25515   */\n      dup10\n        /* \"#utility.yul\":25508:25527   */\n      add\n        /* \"#utility.yul\":25502:25528   */\n      mload\n        /* \"#utility.yul\":25494:25500   */\n      dup3\n        /* \"#utility.yul\":25487:25529   */\n      sstore\n        /* \"#utility.yul\":25568:25569   */\n      0x01\n        /* \"#utility.yul\":25560:25566   */\n      dup3\n        /* \"#utility.yul\":25556:25570   */\n      add\n        /* \"#utility.yul\":25546:25570   */\n      swap2\n      pop\n        /* \"#utility.yul\":25615:25617   */\n      0x20\n        /* \"#utility.yul\":25604:25613   */\n      dup6\n        /* \"#utility.yul\":25600:25618   */\n      add\n        /* \"#utility.yul\":25587:25618   */\n      swap5\n      pop\n        /* \"#utility.yul\":25461:25465   */\n      0x20\n        /* \"#utility.yul\":25458:25459   */\n      dup2\n        /* \"#utility.yul\":25454:25466   */\n      add\n        /* \"#utility.yul\":25449:25466   */\n      swap1\n      pop\n        /* \"#utility.yul\":25424:25632   */\n      jump(tag_558)\n    tag_560:\n        /* \"#utility.yul\":25660:25666   */\n      dup7\n        /* \"#utility.yul\":25651:25658   */\n      dup4\n        /* \"#utility.yul\":25648:25667   */\n      lt\n        /* \"#utility.yul\":25645:25824   */\n      iszero\n      tag_561\n      jumpi\n        /* \"#utility.yul\":25718:25727   */\n      dup5\n        /* \"#utility.yul\":25713:25716   */\n      dup10\n        /* \"#utility.yul\":25709:25728   */\n      add\n        /* \"#utility.yul\":25703:25729   */\n      mload\n        /* \"#utility.yul\":25761:25809   */\n      tag_562\n        /* \"#utility.yul\":25803:25807   */\n      0x1f\n        /* \"#utility.yul\":25795:25801   */\n      dup10\n        /* \"#utility.yul\":25791:25808   */\n      and\n        /* \"#utility.yul\":25780:25789   */\n      dup3\n        /* \"#utility.yul\":25761:25809   */\n      tag_294\n      jump\t// in\n    tag_562:\n        /* \"#utility.yul\":25753:25759   */\n      dup4\n        /* \"#utility.yul\":25746:25810   */\n      sstore\n        /* \"#utility.yul\":25668:25824   */\n      pop\n        /* \"#utility.yul\":25645:25824   */\n    tag_561:\n        /* \"#utility.yul\":25870:25871   */\n      0x01\n        /* \"#utility.yul\":25866:25867   */\n      0x02\n        /* \"#utility.yul\":25858:25864   */\n      dup9\n        /* \"#utility.yul\":25854:25868   */\n      mul\n        /* \"#utility.yul\":25850:25872   */\n      add\n        /* \"#utility.yul\":25844:25848   */\n      dup9\n        /* \"#utility.yul\":25837:25873   */\n      sstore\n        /* \"#utility.yul\":25272:25883   */\n      pop\n      pop\n      pop\n        /* \"#utility.yul\":25235:26122   */\n    tag_553:\n      pop\n        /* \"#utility.yul\":24825:26128   */\n      pop\n      pop\n      pop\n        /* \"#utility.yul\":24733:26128   */\n      pop\n      pop\n      jump\t// out\n        /* \"#utility.yul\":26134:26314   */\n    tag_296:\n        /* \"#utility.yul\":26182:26259   */\n      0x4e487b7100000000000000000000000000000000000000000000000000000000\n        /* \"#utility.yul\":26179:26180   */\n      0x00\n        /* \"#utility.yul\":26172:26260   */\n      mstore\n        /* \"#utility.yul\":26279:26283   */\n      0x11\n        /* \"#utility.yul\":26276:26277   */\n      0x04\n        /* \"#utility.yul\":26269:26284   */\n      mstore\n        /* \"#utility.yul\":26303:26307   */\n      0x24\n        /* \"#utility.yul\":26300:26301   */\n      0x00\n        /* \"#utility.yul\":26293:26308   */\n      revert\n        /* \"#utility.yul\":26320:26553   */\n    tag_152:\n        /* \"#utility.yul\":26359:26362   */\n      0x00\n        /* \"#utility.yul\":26382:26406   */\n      tag_565\n        /* \"#utility.yul\":26400:26405   */\n      dup3\n        /* \"#utility.yul\":26382:26406   */\n      tag_235\n      jump\t// in\n    tag_565:\n        /* \"#utility.yul\":26373:26406   */\n      swap2\n      pop\n        /* \"#utility.yul\":26428:26494   */\n      0xffffffffffffffffffffffffffffffffffffffffffffffffffffffffffffffff\n        /* \"#utility.yul\":26421:26426   */\n      dup3\n        /* \"#utility.yul\":26418:26495   */\n      sub\n        /* \"#utility.yul\":26415:26518   */\n      tag_566\n      jumpi\n        /* \"#utility.yul\":26498:26516   */\n      tag_567\n      tag_296\n      jump\t// in\n    tag_567:\n        /* \"#utility.yul\":26415:26518   */\n    tag_566:\n        /* \"#utility.yul\":26545:26546   */\n      0x01\n        /* \"#utility.yul\":26538:26543   */\n      dup3\n        /* \"#utility.yul\":26534:26547   */\n      add\n        /* \"#utility.yul\":26527:26547   */\n      swap1\n      pop\n        /* \"#utility.yul\":26320:26553   */\n      swap2\n      swap1\n      pop\n      jump\t// out\n        /* \"#utility.yul\":26559:26739   */\n    tag_171:\n        /* \"#utility.yul\":26607:26684   */\n      0x4e487b7100000000000000000000000000000000000000000000000000000000\n        /* \"#utility.yul\":26604:26605   */\n      0x00\n        /* \"#utility.yul\":26597:26685   */\n      mstore\n        /* \"#utility.yul\":26704:26708   */\n      0x32\n        /* \"#utility.yul\":26701:26702   */\n      0x04\n        /* \"#utility.yul\":26694:26709   */\n      mstore\n        /* \"#utility.yul\":26728:26732   */\n      0x24\n        /* \"#utility.yul\":26725:26726   */\n      0x00\n        /* \"#utility.yul\":26718:26733   */\n      revert\n        /* \"#utility.yul\":26745:26892   */\n    tag_297:\n        /* \"#utility.yul\":26846:26857   */\n      0x00\n        /* \"#utility.yul\":26883:26886   */\n      dup2\n        /* \"#utility.yul\":26868:26886   */\n      swap1\n      pop\n        /* \"#utility.yul\":26745:26892   */\n      swap3\n      swap2\n      pop\n      pop\n      jump\t// out\n        /* \"#utility.yul\":26898:27012   */\n    tag_298:\n      pop\n      jump\t// out\n        /* \"#utility.yul\":27018:27416   */\n    tag_299:\n        /* \"#utility.yul\":27177:27180   */\n      0x00\n        /* \"#utility.yul\":27198:27281   */\n      tag_572\n        /* \"#utility.yul\":27279:27280   */\n      0x00\n        /* \"#utility.yul\":27274:27277   */\n      dup4\n        /* \"#utility.yul\":27198:27281   */\n      tag_297\n      jump\t// in\n    tag_572:\n        /* \"#utility.yul\":27191:27281   */\n      swap2\n      pop\n        /* \"#utility.yul\":27290:27383   */\n      tag_573\n        /* \"#utility.yul\":27379:27382   */\n      dup3\n        /* \"#utility.yul\":27290:27383   */\n      tag_298\n      jump\t// in\n    tag_573:\n        /* \"#utility.yul\":27408:27409   */\n      0x00\n        /* \"#utility.yul\":27403:27406   */\n      dup3\n        /* \"#utility.yul\":27399:27410   */\n      add\n        /* \"#utility.yul\":27392:27410   */\n      swap1\n      pop\n        /* \"#utility.yul\":27018:27416   */\n      swap2\n      swap1\n      pop\n      jump\t// out\n        /* \"#utility.yul\":27422:27801   */\n    tag_208:\n        /* \"#utility.yul\":27606:27609   */\n      0x00\n        /* \"#utility.yul\":27628:27775   */\n      tag_575\n        /* \"#utility.yul\":27771:27774   */\n      dup3\n        /* \"#utility.yul\":27628:27775   */\n      tag_299\n      jump\t// in\n    tag_575:\n        /* \"#utility.yul\":27621:27775   */\n      swap2\n      pop\n        /* \"#utility.yul\":27792:27795   */\n      dup2\n        /* \"#utility.yul\":27785:27795   */\n      swap1\n      pop\n        /* \"#utility.yul\":27422:27801   */\n      swap2\n      swap1\n      pop\n      jump\t// out\n        /* \"#utility.yul\":27807:27977   */\n    tag_300:\n        /* \"#utility.yul\":27947:27969   */\n      0x4661696c656420746f2073656e64204574686572000000000000000000000000\n        /* \"#utility.yul\":27943:27944   */\n      0x00\n        /* \"#utility.yul\":27935:27941   */\n      dup3\n        /* \"#utility.yul\":27931:27945   */\n      add\n        /* \"#utility.yul\":27924:27970   */\n      mstore\n        /* \"#utility.yul\":27807:27977   */\n      pop\n      jump\t// out\n        /* \"#utility.yul\":27983:28349   */\n    tag_301:\n        /* \"#utility.yul\":28125:28128   */\n      0x00\n        /* \"#utility.yul\":28146:28213   */\n      tag_578\n        /* \"#utility.yul\":28210:28212   */\n      0x14\n        /* \"#utility.yul\":28205:28208   */\n      dup4\n        /* \"#utility.yul\":28146:28213   */\n      tag_239\n      jump\t// in\n    tag_578:\n        /* \"#utility.yul\":28139:28213   */\n      swap2\n      pop\n        /* \"#utility.yul\":28222:28315   */\n      tag_579\n        /* \"#utility.yul\":28311:28314   */\n      dup3\n        /* \"#utility.yul\":28222:28315   */\n      tag_300\n      jump\t// in\n    tag_579:\n        /* \"#utility.yul\":28340:28342   */\n      0x20\n        /* \"#utility.yul\":28335:28338   */\n      dup3\n        /* \"#utility.yul\":28331:28343   */\n      add\n        /* \"#utility.yul\":28324:28343   */\n      swap1\n      pop\n        /* \"#utility.yul\":27983:28349   */\n      swap2\n      swap1\n      pop\n      jump\t// out\n        /* \"#utility.yul\":28355:28774   */\n    tag_214:\n        /* \"#utility.yul\":28521:28525   */\n      0x00\n        /* \"#utility.yul\":28559:28561   */\n      0x20\n        /* \"#utility.yul\":28548:28557   */\n      dup3\n        /* \"#utility.yul\":28544:28562   */\n      add\n        /* \"#utility.yul\":28536:28562   */\n      swap1\n      pop\n        /* \"#utility.yul\":28608:28617   */\n      dup2\n        /* \"#utility.yul\":28602:28606   */\n      dup2\n        /* \"#utility.yul\":28598:28618   */\n      sub\n        /* \"#utility.yul\":28594:28595   */\n      0x00\n        /* \"#utility.yul\":28583:28592   */\n      dup4\n        /* \"#utility.yul\":28579:28596   */\n      add\n        /* \"#utility.yul\":28572:28619   */\n      mstore\n        /* \"#utility.yul\":28636:28767   */\n      tag_581\n        /* \"#utility.yul\":28762:28766   */\n      dup2\n        /* \"#utility.yul\":28636:28767   */\n      tag_301\n      jump\t// in\n    tag_581:\n        /* \"#utility.yul\":28628:28767   */\n      swap1\n      pop\n        /* \"#utility.yul\":28355:28774   */\n      swap2\n      swap1\n      pop\n      jump\t// out\n        /* \"#utility.yul\":28780:29085   */\n    tag_231:\n        /* \"#utility.yul\":28820:28823   */\n      0x00\n        /* \"#utility.yul\":28839:28859   */\n      tag_583\n        /* \"#utility.yul\":28857:28858   */\n      dup3\n        /* \"#utility.yul\":28839:28859   */\n      tag_235\n      jump\t// in\n    tag_583:\n        /* \"#utility.yul\":28834:28859   */\n      swap2\n      pop\n        /* \"#utility.yul\":28873:28893   */\n      tag_584\n        /* \"#utility.yul\":28891:28892   */\n      dup4\n        /* \"#utility.yul\":28873:28893   */\n      tag_235\n      jump\t// in\n    tag_584:\n        /* \"#utility.yul\":28868:28893   */\n      swap3\n      pop\n        /* \"#utility.yul\":29027:29028   */\n      dup3\n        /* \"#utility.yul\":28959:29025   */\n      0xffffffffffffffffffffffffffffffffffffffffffffffffffffffffffffffff\n        /* \"#utility.yul\":28955:29029   */\n      sub\n        /* \"#utility.yul\":28952:28953   */\n      dup3\n        /* \"#utility.yul\":28949:29030   */\n      gt\n        /* \"#utility.yul\":28946:29053   */\n      iszero\n      tag_585\n      jumpi\n        /* \"#utility.yul\":29033:29051   */\n      tag_586\n      tag_296\n      jump\t// in\n    tag_586:\n        /* \"#utility.yul\":28946:29053   */\n    tag_585:\n        /* \"#utility.yul\":29077:29078   */\n      dup3\n        /* \"#utility.yul\":29074:29075   */\n      dup3\n        /* \"#utility.yul\":29070:29079   */\n      add\n        /* \"#utility.yul\":29063:29079   */\n      swap1\n      pop\n        /* \"#utility.yul\":28780:29085   */\n      swap3\n      swap2\n      pop\n      pop\n      jump\t// out\n\n    auxdata: 0xa26469706673582212208e0816fe9fd10e0609d5c77db81b0afb30850931759a37006a9edf272469629a64736f6c634300080f0033\n}\n","bytecode":{"linkReferences":{},"object":"608060405234801561001057600080fd5b5061254f806100206000396000f3fe6080604052600436106100e15760003560e01c8063a9059cbb1161007f578063c7fa106311610059578063c7fa10631461032c578063d0e30db014610348578063f6153ccd14610352578063fd70c7dd1461037d576100f9565b8063a9059cbb1461029b578063ab6a9f17146102c4578063b69ef8a814610301576100f9565b80636e6061d1116100bb5780636e6061d1146101ba5780637792a035146101f75780638f1d613d14610234578063a83670701461025d576100f9565b80630a02dcc7146100fe57806332f977631461013b57806364aa65a81461017d576100f9565b366100f957633b9aca003410156100f757600080fd5b005b600080fd5b34801561010a57600080fd5b50610125600480360381019061012091906116bc565b6103ba565b6040516101329190611782565b60405180910390f35b34801561014757600080fd5b50610162600480360381019061015d9190611937565b610466565b604051610174969594939291906119b5565b60405180910390f35b34801561018957600080fd5b506101a4600480360381019061019f9190611a2b565b61066a565b6040516101b19190611782565b60405180910390f35b3480156101c657600080fd5b506101e160048036038101906101dc9190611a58565b61070a565b6040516101ee9190611782565b60405180910390f35b34801561020357600080fd5b5061021e600480360381019061021991906116bc565b6107c3565b60405161022b9190611aa7565b60405180910390f35b34801561024057600080fd5b5061025b60048036038101906102569190611ac2565b610802565b005b34801561026957600080fd5b50610284600480360381019061027f9190611ba3565b610cbe565b604051610292929190611e60565b60405180910390f35b3480156102a757600080fd5b506102c260048036038101906102bd9190611ed5565b611261565b005b3480156102d057600080fd5b506102eb60048036038101906102e69190611f15565b611312565b6040516102f89190611fa8565b60405180910390f35b34801561030d57600080fd5b506103166113b9565b6040516103239190611fc3565b60405180910390f35b61034660048036038101906103419190611fde565b6113c1565b005b6103506115d2565b005b34801561035e57600080fd5b506103676115ed565b6040516103749190611fc3565b60405180910390f35b34801561038957600080fd5b506103a4600480360381019061039f9190611ba3565b6115f3565b6040516103b19190611aa7565b60405180910390f35b600081815481106103ca57600080fd5b9060005260206000200160009150905080546103e590612069565b80601f016020809104026020016040519081016040528092919081815260200182805461041190612069565b801561045e5780601f106104335761010080835404028352916020019161045e565b820191906000526020600020905b81548152906001019060200180831161044157829003601f168201915b505050505081565b60066020528260005260406000208280516020810182018051848252602083016020850120818352809550505050505060205280600052604060002060009250925050508060000180546104b990612069565b80601f01602080910402602001604051908101604052809291908181526020018280546104e590612069565b80156105325780601f1061050757610100808354040283529160200191610532565b820191906000526020600020905b81548152906001019060200180831161051557829003601f168201915b50505050509080600101805461054790612069565b80601f016020809104026020016040519081016040528092919081815260200182805461057390612069565b80156105c05780601f10610595576101008083540402835291602001916105c0565b820191906000526020600020905b8154815290600101906020018083116105a357829003601f168201915b5050505050908060020180546105d590612069565b80601f016020809104026020016040519081016040528092919081815260200182805461060190612069565b801561064e5780601f106106235761010080835404028352916020019161064e565b820191906000526020600020905b81548152906001019060200180831161063157829003601f168201915b5050505050908060030154908060040154908060050154905086565b6002602052806000526040600020600091509050805461068990612069565b80601f01602080910402602001604051908101604052809291908181526020018280546106b590612069565b80156107025780601f106106d757610100808354040283529160200191610702565b820191906000526020600020905b8154815290600101906020018083116106e557829003601f168201915b505050505081565b6005602052816000526040600020818154811061072657600080fd5b9060005260206000200160009150915050805461074290612069565b80601f016020809104026020016040519081016040528092919081815260200182805461076e90612069565b80156107bb5780601f10610790576101008083540402835291602001916107bb565b820191906000526020600020905b81548152906001019060200180831161079e57829003601f168201915b505050505081565b600181815481106107d357600080fd5b906000526020600020016000915054906101000a900473ffffffffffffffffffffffffffffffffffffffff1681565b60003390506000600260008373ffffffffffffffffffffffffffffffffffffffff1673ffffffffffffffffffffffffffffffffffffffff168152602001908152602001600020805461085390612069565b90500361085f57600080fd5b600073ffffffffffffffffffffffffffffffffffffffff1660038660405161088791906120d6565b908152602001604051809103902060009054906101000a900473ffffffffffffffffffffffffffffffffffffffff1673ffffffffffffffffffffffffffffffffffffffff16036108d657600080fd5b6000600660006003886040516108ec91906120d6565b908152602001604051809103902060009054906101000a900473ffffffffffffffffffffffffffffffffffffffff1673ffffffffffffffffffffffffffffffffffffffff1673ffffffffffffffffffffffffffffffffffffffff16815260200190815260200160002090506109618887611312565b610ac5576005600060038860405161097991906120d6565b908152602001604051809103902060009054906101000a900473ffffffffffffffffffffffffffffffffffffffff1673ffffffffffffffffffffffffffffffffffffffff1673ffffffffffffffffffffffffffffffffffffffff16815260200190815260200160002088908060018154018082558091505060019003906000526020600020016000909190919091509081610a149190612299565b5060076000600388604051610a2991906120d6565b908152602001604051809103902060009054906101000a900473ffffffffffffffffffffffffffffffffffffffff1673ffffffffffffffffffffffffffffffffffffffff1673ffffffffffffffffffffffffffffffffffffffff16815260200190815260200160002088604051610aa091906120d6565b90815260200160405180910390206000815480929190610abf9061239a565b91905055505b60008189604051610ad691906120d6565b90815260200160405180910390209050888160008573ffffffffffffffffffffffffffffffffffffffff1673ffffffffffffffffffffffffffffffffffffffff1681526020019081526020016000206000019081610b349190612299565b50878160008573ffffffffffffffffffffffffffffffffffffffff1673ffffffffffffffffffffffffffffffffffffffff1681526020019081526020016000206001019081610b839190612299565b50868160008573ffffffffffffffffffffffffffffffffffffffff1673ffffffffffffffffffffffffffffffffffffffff1681526020019081526020016000206002019081610bd29190612299565b50858160008573ffffffffffffffffffffffffffffffffffffffff1673ffffffffffffffffffffffffffffffffffffffff16815260200190815260200160002060030181905550848160008573ffffffffffffffffffffffffffffffffffffffff1673ffffffffffffffffffffffffffffffffffffffff16815260200190815260200160002060040181905550838160008573ffffffffffffffffffffffffffffffffffffffff1673ffffffffffffffffffffffffffffffffffffffff16815260200190815260200160002060050181905550610cb383633b9aca00611261565b505050505050505050565b60608060003390506000600560008373ffffffffffffffffffffffffffffffffffffffff1673ffffffffffffffffffffffffffffffffffffffff16815260200190815260200160002090506000600560008473ffffffffffffffffffffffffffffffffffffffff1673ffffffffffffffffffffffffffffffffffffffff1681526020019081526020016000208054905067ffffffffffffffff811115610d6757610d6661180c565b5b604051908082528060200260200182016040528015610da057816020015b610d8d61163c565b815260200190600190039081610d855790505b50905060005b8280549050811015611141576000838281548110610dc757610dc66123e2565b5b906000526020600020018054610ddc90612069565b80601f0160208091040260200160405190810160405280929190818152602001828054610e0890612069565b8015610e555780601f10610e2a57610100808354040283529160200191610e55565b820191906000526020600020905b815481529060010190602001808311610e3857829003601f168201915b50505050509050600660008673ffffffffffffffffffffffffffffffffffffffff1673ffffffffffffffffffffffffffffffffffffffff16815260200190815260200160002081604051610ea991906120d6565b9081526020016040518091039020600060038a604051610ec991906120d6565b908152602001604051809103902060009054906101000a900473ffffffffffffffffffffffffffffffffffffffff1673ffffffffffffffffffffffffffffffffffffffff1673ffffffffffffffffffffffffffffffffffffffff1681526020019081526020016000206040518060c0016040529081600082018054610f4d90612069565b80601f0160208091040260200160405190810160405280929190818152602001828054610f7990612069565b8015610fc65780601f10610f9b57610100808354040283529160200191610fc6565b820191906000526020600020905b815481529060010190602001808311610fa957829003601f168201915b50505050508152602001600182018054610fdf90612069565b80601f016020809104026020016040519081016040528092919081815260200182805461100b90612069565b80156110585780601f1061102d57610100808354040283529160200191611058565b820191906000526020600020905b81548152906001019060200180831161103b57829003601f168201915b5050505050815260200160028201805461107190612069565b80601f016020809104026020016040519081016040528092919081815260200182805461109d90612069565b80156110ea5780601f106110bf576101008083540402835291602001916110ea565b820191906000526020600020905b8154815290600101906020018083116110cd57829003601f168201915b505050505081526020016003820154815260200160048201548152602001600582015481525050838381518110611124576111236123e2565b5b6020026020010181905250508061113a9061239a565b9050610da6565b50600560008473ffffffffffffffffffffffffffffffffffffffff1673ffffffffffffffffffffffffffffffffffffffff1681526020019081526020016000208181805480602002602001604051908101604052809291908181526020016000905b8282101561124f5783829060005260206000200180546111c290612069565b80601f01602080910402602001604051908101604052809291908181526020018280546111ee90612069565b801561123b5780601f106112105761010080835404028352916020019161123b565b820191906000526020600020905b81548152906001019060200180831161121e57829003601f168201915b5050505050815260200190600101906111a3565b50505050915094509450505050915091565b60008273ffffffffffffffffffffffffffffffffffffffff168260405161128790612442565b60006040518083038185875af1925050503d80600081146112c4576040519150601f19603f3d011682016040523d82523d6000602084013e6112c9565b606091505b505090508061130d576040517f08c379a0000000000000000000000000000000000000000000000000000000008152600401611304906124a3565b60405180910390fd5b505050565b6000806007600060038560405161132991906120d6565b908152602001604051809103902060009054906101000a900473ffffffffffffffffffffffffffffffffffffffff1673ffffffffffffffffffffffffffffffffffffffff1673ffffffffffffffffffffffffffffffffffffffff168152602001908152602001600020846040516113a091906120d6565b9081526020016040518091039020541415905092915050565b600047905090565b6000600260008473ffffffffffffffffffffffffffffffffffffffff1673ffffffffffffffffffffffffffffffffffffffff168152602001908152602001600020805461140d90612069565b90501480156114865750600073ffffffffffffffffffffffffffffffffffffffff1660038260405161143f91906120d6565b908152602001604051809103902060009054906101000a900473ffffffffffffffffffffffffffffffffffffffff1673ffffffffffffffffffffffffffffffffffffffff16145b156115ce576000819080600181540180825580915050600190039060005260206000200160009091909190915090816114bf9190612299565b506001829080600181540180825580915050600190039060005260206000200160009091909190916101000a81548173ffffffffffffffffffffffffffffffffffffffff021916908373ffffffffffffffffffffffffffffffffffffffff1602179055508160038260405161153491906120d6565b908152602001604051809103902060006101000a81548173ffffffffffffffffffffffffffffffffffffffff021916908373ffffffffffffffffffffffffffffffffffffffff16021790555080600260008473ffffffffffffffffffffffffffffffffffffffff1673ffffffffffffffffffffffffffffffffffffffff16815260200190815260200160002090816115cc9190612299565b505b5050565b34600460008282546115e491906124c3565b92505081905550565b60045481565b6003818051602081018201805184825260208301602085012081835280955050505050506000915054906101000a900473ffffffffffffffffffffffffffffffffffffffff1681565b6040518060c001604052806060815260200160608152602001606081526020016000815260200160008152602001600081525090565b6000604051905090565b600080fd5b600080fd5b6000819050919050565b61169981611686565b81146116a457600080fd5b50565b6000813590506116b681611690565b92915050565b6000602082840312156116d2576116d161167c565b5b60006116e0848285016116a7565b91505092915050565b600081519050919050565b600082825260208201905092915050565b60005b83811015611723578082015181840152602081019050611708565b83811115611732576000848401525b50505050565b6000601f19601f8301169050919050565b6000611754826116e9565b61175e81856116f4565b935061176e818560208601611705565b61177781611738565b840191505092915050565b6000602082019050818103600083015261179c8184611749565b905092915050565b600073ffffffffffffffffffffffffffffffffffffffff82169050919050565b60006117cf826117a4565b9050919050565b6117df816117c4565b81146117ea57600080fd5b50565b6000813590506117fc816117d6565b92915050565b600080fd5b600080fd5b7f4e487b7100000000000000000000000000000000000000000000000000000000600052604160045260246000fd5b61184482611738565b810181811067ffffffffffffffff821117156118635761186261180c565b5b80604052505050565b6000611876611672565b9050611882828261183b565b919050565b600067ffffffffffffffff8211156118a2576118a161180c565b5b6118ab82611738565b9050602081019050919050565b82818337600083830152505050565b60006118da6118d584611887565b61186c565b9050828152602081018484840111156118f6576118f5611807565b5b6119018482856118b8565b509392505050565b600082601f83011261191e5761191d611802565b5b813561192e8482602086016118c7565b91505092915050565b6000806000606084860312156119505761194f61167c565b5b600061195e868287016117ed565b935050602084013567ffffffffffffffff81111561197f5761197e611681565b5b61198b86828701611909565b925050604061199c868287016117ed565b9150509250925092565b6119af81611686565b82525050565b600060c08201905081810360008301526119cf8189611749565b905081810360208301526119e38188611749565b905081810360408301526119f78187611749565b9050611a0660608301866119a6565b611a1360808301856119a6565b611a2060a08301846119a6565b979650505050505050565b600060208284031215611a4157611a4061167c565b5b6000611a4f848285016117ed565b91505092915050565b60008060408385031215611a6f57611a6e61167c565b5b6000611a7d858286016117ed565b9250506020611a8e858286016116a7565b9150509250929050565b611aa1816117c4565b82525050565b6000602082019050611abc6000830184611a98565b92915050565b60008060008060008060c08789031215611adf57611ade61167c565b5b600087013567ffffffffffffffff811115611afd57611afc611681565b5b611b0989828a01611909565b965050602087013567ffffffffffffffff811115611b2a57611b29611681565b5b611b3689828a01611909565b955050604087013567ffffffffffffffff811115611b5757611b56611681565b5b611b6389828a01611909565b9450506060611b7489828a016116a7565b9350506080611b8589828a016116a7565b92505060a0611b9689828a016116a7565b9150509295509295509295565b600060208284031215611bb957611bb861167c565b5b600082013567ffffffffffffffff811115611bd757611bd6611681565b5b611be384828501611909565b91505092915050565b600081519050919050565b600082825260208201905092915050565b6000819050602082019050919050565b600082825260208201905092915050565b6000611c34826116e9565b611c3e8185611c18565b9350611c4e818560208601611705565b611c5781611738565b840191505092915050565b6000611c6e8383611c29565b905092915050565b6000602082019050919050565b6000611c8e82611bec565b611c988185611bf7565b935083602082028501611caa85611c08565b8060005b85811015611ce65784840389528151611cc78582611c62565b9450611cd283611c76565b925060208a01995050600181019050611cae565b50829750879550505050505092915050565b600081519050919050565b600082825260208201905092915050565b6000819050602082019050919050565b611d2d81611686565b82525050565b600060c0830160008301518482036000860152611d508282611c29565b91505060208301518482036020860152611d6a8282611c29565b91505060408301518482036040860152611d848282611c29565b9150506060830151611d996060860182611d24565b506080830151611dac6080860182611d24565b5060a0830151611dbf60a0860182611d24565b508091505092915050565b6000611dd68383611d33565b905092915050565b6000602082019050919050565b6000611df682611cf8565b611e008185611d03565b935083602082028501611e1285611d14565b8060005b85811015611e4e5784840389528151611e2f8582611dca565b9450611e3a83611dde565b925060208a01995050600181019050611e16565b50829750879550505050505092915050565b60006040820190508181036000830152611e7a8185611c83565b90508181036020830152611e8e8184611deb565b90509392505050565b6000611ea2826117a4565b9050919050565b611eb281611e97565b8114611ebd57600080fd5b50565b600081359050611ecf81611ea9565b92915050565b60008060408385031215611eec57611eeb61167c565b5b6000611efa85828601611ec0565b9250506020611f0b858286016116a7565b9150509250929050565b60008060408385031215611f2c57611f2b61167c565b5b600083013567ffffffffffffffff811115611f4a57611f49611681565b5b611f5685828601611909565b925050602083013567ffffffffffffffff811115611f7757611f76611681565b5b611f8385828601611909565b9150509250929050565b60008115159050919050565b611fa281611f8d565b82525050565b6000602082019050611fbd6000830184611f99565b92915050565b6000602082019050611fd860008301846119a6565b92915050565b60008060408385031215611ff557611ff461167c565b5b6000612003858286016117ed565b925050602083013567ffffffffffffffff81111561202457612023611681565b5b61203085828601611909565b9150509250929050565b7f4e487b7100000000000000000000000000000000000000000000000000000000600052602260045260246000fd5b6000600282049050600182168061208157607f821691505b6020821081036120945761209361203a565b5b50919050565b600081905092915050565b60006120b0826116e9565b6120ba818561209a565b93506120ca818560208601611705565b80840191505092915050565b60006120e282846120a5565b915081905092915050565b60008190508160005260206000209050919050565b60006020601f8301049050919050565b600082821b905092915050565b60006008830261214f7fffffffffffffffffffffffffffffffffffffffffffffffffffffffffffffffff82612112565b6121598683612112565b95508019841693508086168417925050509392505050565b6000819050919050565b600061219661219161218c84611686565b612171565b611686565b9050919050565b6000819050919050565b6121b08361217b565b6121c46121bc8261219d565b84845461211f565b825550505050565b600090565b6121d96121cc565b6121e48184846121a7565b505050565b5b81811015612208576121fd6000826121d1565b6001810190506121ea565b5050565b601f82111561224d5761221e816120ed565b61222784612102565b81016020851015612236578190505b61224a61224285612102565b8301826121e9565b50505b505050565b600082821c905092915050565b600061227060001984600802612252565b1980831691505092915050565b6000612289838361225f565b9150826002028217905092915050565b6122a2826116e9565b67ffffffffffffffff8111156122bb576122ba61180c565b5b6122c58254612069565b6122d082828561220c565b600060209050601f83116001811461230357600084156122f1578287015190505b6122fb858261227d565b865550612363565b601f198416612311866120ed565b60005b8281101561233957848901518255600182019150602085019450602081019050612314565b868310156123565784890151612352601f89168261225f565b8355505b6001600288020188555050505b505050505050565b7f4e487b7100000000000000000000000000000000000000000000000000000000600052601160045260246000fd5b60006123a582611686565b91507fffffffffffffffffffffffffffffffffffffffffffffffffffffffffffffffff82036123d7576123d661236b565b5b600182019050919050565b7f4e487b7100000000000000000000000000000000000000000000000000000000600052603260045260246000fd5b600081905092915050565b50565b600061242c600083612411565b91506124378261241c565b600082019050919050565b600061244d8261241f565b9150819050919050565b7f4661696c656420746f2073656e64204574686572000000000000000000000000600082015250565b600061248d6014836116f4565b915061249882612457565b602082019050919050565b600060208201905081810360008301526124bc81612480565b9050919050565b60006124ce82611686565b91506124d983611686565b9250827fffffffffffffffffffffffffffffffffffffffffffffffffffffffffffffffff0382111561250e5761250d61236b565b5b82820190509291505056fea26469706673582212208e0816fe9fd10e0609d5c77db81b0afb30850931759a37006a9edf272469629a64736f6c634300080f0033","opcodes":"PUSH1 0x80 PUSH1 0x40 MSTORE CALLVALUE DUP1 ISZERO PUSH2 0x10 JUMPI PUSH1 0x0 DUP1 REVERT JUMPDEST POP PUSH2 0x254F DUP1 PUSH2 0x20 PUSH1 0x0 CODECOPY PUSH1 0x0 RETURN INVALID PUSH1 0x80 PUSH1 0x40 MSTORE PUSH1 0x4 CALLDATASIZE LT PUSH2 0xE1 JUMPI PUSH1 0x0 CALLDATALOAD PUSH1 0xE0 SHR DUP1 PUSH4 0xA9059CBB GT PUSH2 0x7F JUMPI DUP1 PUSH4 0xC7FA1063 GT PUSH2 0x59 JUMPI DUP1 PUSH4 0xC7FA1063 EQ PUSH2 0x32C JUMPI DUP1 PUSH4 0xD0E30DB0 EQ PUSH2 0x348 JUMPI DUP1 PUSH4 0xF6153CCD EQ PUSH2 0x352 JUMPI DUP1 PUSH4 0xFD70C7DD EQ PUSH2 0x37D JUMPI PUSH2 0xF9 JUMP JUMPDEST DUP1 PUSH4 0xA9059CBB EQ PUSH2 0x29B JUMPI DUP1 PUSH4 0xAB6A9F17 EQ PUSH2 0x2C4 JUMPI DUP1 PUSH4 0xB69EF8A8 EQ PUSH2 0x301 JUMPI PUSH2 0xF9 JUMP JUMPDEST DUP1 PUSH4 0x6E6061D1 GT PUSH2 0xBB JUMPI DUP1 PUSH4 0x6E6061D1 EQ PUSH2 0x1BA JUMPI DUP1 PUSH4 0x7792A035 EQ PUSH2 0x1F7 JUMPI DUP1 PUSH4 0x8F1D613D EQ PUSH2 0x234 JUMPI DUP1 PUSH4 0xA8367070 EQ PUSH2 0x25D JUMPI PUSH2 0xF9 JUMP JUMPDEST DUP1 PUSH4 0xA02DCC7 EQ PUSH2 0xFE JUMPI DUP1 PUSH4 0x32F97763 EQ PUSH2 0x13B JUMPI DUP1 PUSH4 0x64AA65A8 EQ PUSH2 0x17D JUMPI PUSH2 0xF9 JUMP JUMPDEST CALLDATASIZE PUSH2 0xF9 JUMPI PUSH4 0x3B9ACA00 CALLVALUE LT ISZERO PUSH2 0xF7 JUMPI PUSH1 0x0 DUP1 REVERT JUMPDEST STOP JUMPDEST PUSH1 0x0 DUP1 REVERT JUMPDEST CALLVALUE DUP1 ISZERO PUSH2 0x10A JUMPI PUSH1 0x0 DUP1 REVERT JUMPDEST POP PUSH2 0x125 PUSH1 0x4 DUP1 CALLDATASIZE SUB DUP2 ADD SWAP1 PUSH2 0x120 SWAP2 SWAP1 PUSH2 0x16BC JUMP JUMPDEST PUSH2 0x3BA JUMP JUMPDEST PUSH1 0x40 MLOAD PUSH2 0x132 SWAP2 SWAP1 PUSH2 0x1782 JUMP JUMPDEST PUSH1 0x40 MLOAD DUP1 SWAP2 SUB SWAP1 RETURN JUMPDEST CALLVALUE DUP1 ISZERO PUSH2 0x147 JUMPI PUSH1 0x0 DUP1 REVERT JUMPDEST POP PUSH2 0x162 PUSH1 0x4 DUP1 CALLDATASIZE SUB DUP2 ADD SWAP1 PUSH2 0x15D SWAP2 SWAP1 PUSH2 0x1937 JUMP JUMPDEST PUSH2 0x466 JUMP JUMPDEST PUSH1 0x40 MLOAD PUSH2 0x174 SWAP7 SWAP6 SWAP5 SWAP4 SWAP3 SWAP2 SWAP1 PUSH2 0x19B5 JUMP JUMPDEST PUSH1 0x40 MLOAD DUP1 SWAP2 SUB SWAP1 RETURN JUMPDEST CALLVALUE DUP1 ISZERO PUSH2 0x189 JUMPI PUSH1 0x0 DUP1 REVERT JUMPDEST POP PUSH2 0x1A4 PUSH1 0x4 DUP1 CALLDATASIZE SUB DUP2 ADD SWAP1 PUSH2 0x19F SWAP2 SWAP1 PUSH2 0x1A2B JUMP JUMPDEST PUSH2 0x66A JUMP JUMPDEST PUSH1 0x40 MLOAD PUSH2 0x1B1 SWAP2 SWAP1 PUSH2 0x1782 JUMP JUMPDEST PUSH1 0x40 MLOAD DUP1 SWAP2 SUB SWAP1 RETURN JUMPDEST CALLVALUE DUP1 ISZERO PUSH2 0x1C6 JUMPI PUSH1 0x0 DUP1 REVERT JUMPDEST POP PUSH2 0x1E1 PUSH1 0x4 DUP1 CALLDATASIZE SUB DUP2 ADD SWAP1 PUSH2 0x1DC SWAP2 SWAP1 PUSH2 0x1A58 JUMP JUMPDEST PUSH2 0x70A JUMP JUMPDEST PUSH1 0x40 MLOAD PUSH2 0x1EE SWAP2 SWAP1 PUSH2 0x1782 JUMP JUMPDEST PUSH1 0x40 MLOAD DUP1 SWAP2 SUB SWAP1 RETURN JUMPDEST CALLVALUE DUP1 ISZERO PUSH2 0x203 JUMPI PUSH1 0x0 DUP1 REVERT JUMPDEST POP PUSH2 0x21E PUSH1 0x4 DUP1 CALLDATASIZE SUB DUP2 ADD SWAP1 PUSH2 0x219 SWAP2 SWAP1 PUSH2 0x16BC JUMP JUMPDEST PUSH2 0x7C3 JUMP JUMPDEST PUSH1 0x40 MLOAD PUSH2 0x22B SWAP2 SWAP1 PUSH2 0x1AA7 JUMP JUMPDEST PUSH1 0x40 MLOAD DUP1 SWAP2 SUB SWAP1 RETURN JUMPDEST CALLVALUE DUP1 ISZERO PUSH2 0x240 JUMPI PUSH1 0x0 DUP1 REVERT JUMPDEST POP PUSH2 0x25B PUSH1 0x4 DUP1 CALLDATASIZE SUB DUP2 ADD SWAP1 PUSH2 0x256 SWAP2 SWAP1 PUSH2 0x1AC2 JUMP JUMPDEST PUSH2 0x802 JUMP JUMPDEST STOP JUMPDEST CALLVALUE DUP1 ISZERO PUSH2 0x269 JUMPI PUSH1 0x0 DUP1 REVERT JUMPDEST POP PUSH2 0x284 PUSH1 0x4 DUP1 CALLDATASIZE SUB DUP2 ADD SWAP1 PUSH2 0x27F SWAP2 SWAP1 PUSH2 0x1BA3 JUMP JUMPDEST PUSH2 0xCBE JUMP JUMPDEST PUSH1 0x40 MLOAD PUSH2 0x292 SWAP3 SWAP2 SWAP1 PUSH2 0x1E60 JUMP JUMPDEST PUSH1 0x40 MLOAD DUP1 SWAP2 SUB SWAP1 RETURN JUMPDEST CALLVALUE DUP1 ISZERO PUSH2 0x2A7 JUMPI PUSH1 0x0 DUP1 REVERT JUMPDEST POP PUSH2 0x2C2 PUSH1 0x4 DUP1 CALLDATASIZE SUB DUP2 ADD SWAP1 PUSH2 0x2BD SWAP2 SWAP1 PUSH2 0x1ED5 JUMP JUMPDEST PUSH2 0x1261 JUMP JUMPDEST STOP JUMPDEST CALLVALUE DUP1 ISZERO PUSH2 0x2D0 JUMPI PUSH1 0x0 DUP1 REVERT JUMPDEST POP PUSH2 0x2EB PUSH1 0x4 DUP1 CALLDATASIZE SUB DUP2 ADD SWAP1 PUSH2 0x2E6 SWAP2 SWAP1 PUSH2 0x1F15 JUMP JUMPDEST PUSH2 0x1312 JUMP JUMPDEST PUSH1 0x40 MLOAD PUSH2 0x2F8 SWAP2 SWAP1 PUSH2 0x1FA8 JUMP JUMPDEST PUSH1 0x40 MLOAD DUP1 SWAP2 SUB SWAP1 RETURN JUMPDEST CALLVALUE DUP1 ISZERO PUSH2 0x30D JUMPI PUSH1 0x0 DUP1 REVERT JUMPDEST POP PUSH2 0x316 PUSH2 0x13B9 JUMP JUMPDEST PUSH1 0x40 MLOAD PUSH2 0x323 SWAP2 SWAP1 PUSH2 0x1FC3 JUMP JUMPDEST PUSH1 0x40 MLOAD DUP1 SWAP2 SUB SWAP1 RETURN JUMPDEST PUSH2 0x346 PUSH1 0x4 DUP1 CALLDATASIZE SUB DUP2 ADD SWAP1 PUSH2 0x341 SWAP2 SWAP1 PUSH2 0x1FDE JUMP JUMPDEST PUSH2 0x13C1 JUMP JUMPDEST STOP JUMPDEST PUSH2 0x350 PUSH2 0x15D2 JUMP JUMPDEST STOP JUMPDEST CALLVALUE DUP1 ISZERO PUSH2 0x35E JUMPI PUSH1 0x0 DUP1 REVERT JUMPDEST POP PUSH2 0x367 PUSH2 0x15ED JUMP JUMPDEST PUSH1 0x40 MLOAD PUSH2 0x374 SWAP2 SWAP1 PUSH2 0x1FC3 JUMP JUMPDEST PUSH1 0x40 MLOAD DUP1 SWAP2 SUB SWAP1 RETURN JUMPDEST CALLVALUE DUP1 ISZERO PUSH2 0x389 JUMPI PUSH1 0x0 DUP1 REVERT JUMPDEST POP PUSH2 0x3A4 PUSH1 0x4 DUP1 CALLDATASIZE SUB DUP2 ADD SWAP1 PUSH2 0x39F SWAP2 SWAP1 PUSH2 0x1BA3 JUMP JUMPDEST PUSH2 0x15F3 JUMP JUMPDEST PUSH1 0x40 MLOAD PUSH2 0x3B1 SWAP2 SWAP1 PUSH2 0x1AA7 JUMP JUMPDEST PUSH1 0x40 MLOAD DUP1 SWAP2 SUB SWAP1 RETURN JUMPDEST PUSH1 0x0 DUP2 DUP2 SLOAD DUP2 LT PUSH2 0x3CA JUMPI PUSH1 0x0 DUP1 REVERT JUMPDEST SWAP1 PUSH1 0x0 MSTORE PUSH1 0x20 PUSH1 0x0 KECCAK256 ADD PUSH1 0x0 SWAP2 POP SWAP1 POP DUP1 SLOAD PUSH2 0x3E5 SWAP1 PUSH2 0x2069 JUMP JUMPDEST DUP1 PUSH1 0x1F ADD PUSH1 0x20 DUP1 SWAP2 DIV MUL PUSH1 0x20 ADD PUSH1 0x40 MLOAD SWAP1 DUP2 ADD PUSH1 0x40 MSTORE DUP1 SWAP3 SWAP2 SWAP1 DUP2 DUP2 MSTORE PUSH1 0x20 ADD DUP3 DUP1 SLOAD PUSH2 0x411 SWAP1 PUSH2 0x2069 JUMP JUMPDEST DUP1 ISZERO PUSH2 0x45E JUMPI DUP1 PUSH1 0x1F LT PUSH2 0x433 JUMPI PUSH2 0x100 DUP1 DUP4 SLOAD DIV MUL DUP4 MSTORE SWAP2 PUSH1 0x20 ADD SWAP2 PUSH2 0x45E JUMP JUMPDEST DUP3 ADD SWAP2 SWAP1 PUSH1 0x0 MSTORE PUSH1 0x20 PUSH1 0x0 KECCAK256 SWAP1 JUMPDEST DUP2 SLOAD DUP2 MSTORE SWAP1 PUSH1 0x1 ADD SWAP1 PUSH1 0x20 ADD DUP1 DUP4 GT PUSH2 0x441 JUMPI DUP3 SWAP1 SUB PUSH1 0x1F AND DUP3 ADD SWAP2 JUMPDEST POP POP POP POP POP DUP2 JUMP JUMPDEST PUSH1 0x6 PUSH1 0x20 MSTORE DUP3 PUSH1 0x0 MSTORE PUSH1 0x40 PUSH1 0x0 KECCAK256 DUP3 DUP1 MLOAD PUSH1 0x20 DUP2 ADD DUP3 ADD DUP1 MLOAD DUP5 DUP3 MSTORE PUSH1 0x20 DUP4 ADD PUSH1 0x20 DUP6 ADD KECCAK256 DUP2 DUP4 MSTORE DUP1 SWAP6 POP POP POP POP POP POP PUSH1 0x20 MSTORE DUP1 PUSH1 0x0 MSTORE PUSH1 0x40 PUSH1 0x0 KECCAK256 PUSH1 0x0 SWAP3 POP SWAP3 POP POP POP DUP1 PUSH1 0x0 ADD DUP1 SLOAD PUSH2 0x4B9 SWAP1 PUSH2 0x2069 JUMP JUMPDEST DUP1 PUSH1 0x1F ADD PUSH1 0x20 DUP1 SWAP2 DIV MUL PUSH1 0x20 ADD PUSH1 0x40 MLOAD SWAP1 DUP2 ADD PUSH1 0x40 MSTORE DUP1 SWAP3 SWAP2 SWAP1 DUP2 DUP2 MSTORE PUSH1 0x20 ADD DUP3 DUP1 SLOAD PUSH2 0x4E5 SWAP1 PUSH2 0x2069 JUMP JUMPDEST DUP1 ISZERO PUSH2 0x532 JUMPI DUP1 PUSH1 0x1F LT PUSH2 0x507 JUMPI PUSH2 0x100 DUP1 DUP4 SLOAD DIV MUL DUP4 MSTORE SWAP2 PUSH1 0x20 ADD SWAP2 PUSH2 0x532 JUMP JUMPDEST DUP3 ADD SWAP2 SWAP1 PUSH1 0x0 MSTORE PUSH1 0x20 PUSH1 0x0 KECCAK256 SWAP1 JUMPDEST DUP2 SLOAD DUP2 MSTORE SWAP1 PUSH1 0x1 ADD SWAP1 PUSH1 0x20 ADD DUP1 DUP4 GT PUSH2 0x515 JUMPI DUP3 SWAP1 SUB PUSH1 0x1F AND DUP3 ADD SWAP2 JUMPDEST POP POP POP POP POP SWAP1 DUP1 PUSH1 0x1 ADD DUP1 SLOAD PUSH2 0x547 SWAP1 PUSH2 0x2069 JUMP JUMPDEST DUP1 PUSH1 0x1F ADD PUSH1 0x20 DUP1 SWAP2 DIV MUL PUSH1 0x20 ADD PUSH1 0x40 MLOAD SWAP1 DUP2 ADD PUSH1 0x40 MSTORE DUP1 SWAP3 SWAP2 SWAP1 DUP2 DUP2 MSTORE PUSH1 0x20 ADD DUP3 DUP1 SLOAD PUSH2 0x573 SWAP1 PUSH2 0x2069 JUMP JUMPDEST DUP1 ISZERO PUSH2 0x5C0 JUMPI DUP1 PUSH1 0x1F LT PUSH2 0x595 JUMPI PUSH2 0x100 DUP1 DUP4 SLOAD DIV MUL DUP4 MSTORE SWAP2 PUSH1 0x20 ADD SWAP2 PUSH2 0x5C0 JUMP JUMPDEST DUP3 ADD SWAP2 SWAP1 PUSH1 0x0 MSTORE PUSH1 0x20 PUSH1 0x0 KECCAK256 SWAP1 JUMPDEST DUP2 SLOAD DUP2 MSTORE SWAP1 PUSH1 0x1 ADD SWAP1 PUSH1 0x20 ADD DUP1 DUP4 GT PUSH2 0x5A3 JUMPI DUP3 SWAP1 SUB PUSH1 0x1F AND DUP3 ADD SWAP2 JUMPDEST POP POP POP POP POP SWAP1 DUP1 PUSH1 0x2 ADD DUP1 SLOAD PUSH2 0x5D5 SWAP1 PUSH2 0x2069 JUMP JUMPDEST DUP1 PUSH1 0x1F ADD PUSH1 0x20 DUP1 SWAP2 DIV MUL PUSH1 0x20 ADD PUSH1 0x40 MLOAD SWAP1 DUP2 ADD PUSH1 0x40 MSTORE DUP1 SWAP3 SWAP2 SWAP1 DUP2 DUP2 MSTORE PUSH1 0x20 ADD DUP3 DUP1 SLOAD PUSH2 0x601 SWAP1 PUSH2 0x2069 JUMP JUMPDEST DUP1 ISZERO PUSH2 0x64E JUMPI DUP1 PUSH1 0x1F LT PUSH2 0x623 JUMPI PUSH2 0x100 DUP1 DUP4 SLOAD DIV MUL DUP4 MSTORE SWAP2 PUSH1 0x20 ADD SWAP2 PUSH2 0x64E JUMP JUMPDEST DUP3 ADD SWAP2 SWAP1 PUSH1 0x0 MSTORE PUSH1 0x20 PUSH1 0x0 KECCAK256 SWAP1 JUMPDEST DUP2 SLOAD DUP2 MSTORE SWAP1 PUSH1 0x1 ADD SWAP1 PUSH1 0x20 ADD DUP1 DUP4 GT PUSH2 0x631 JUMPI DUP3 SWAP1 SUB PUSH1 0x1F AND DUP3 ADD SWAP2 JUMPDEST POP POP POP POP POP SWAP1 DUP1 PUSH1 0x3 ADD SLOAD SWAP1 DUP1 PUSH1 0x4 ADD SLOAD SWAP1 DUP1 PUSH1 0x5 ADD SLOAD SWAP1 POP DUP7 JUMP JUMPDEST PUSH1 0x2 PUSH1 0x20 MSTORE DUP1 PUSH1 0x0 MSTORE PUSH1 0x40 PUSH1 0x0 KECCAK256 PUSH1 0x0 SWAP2 POP SWAP1 POP DUP1 SLOAD PUSH2 0x689 SWAP1 PUSH2 0x2069 JUMP JUMPDEST DUP1 PUSH1 0x1F ADD PUSH1 0x20 DUP1 SWAP2 DIV MUL PUSH1 0x20 ADD PUSH1 0x40 MLOAD SWAP1 DUP2 ADD PUSH1 0x40 MSTORE DUP1 SWAP3 SWAP2 SWAP1 DUP2 DUP2 MSTORE PUSH1 0x20 ADD DUP3 DUP1 SLOAD PUSH2 0x6B5 SWAP1 PUSH2 0x2069 JUMP JUMPDEST DUP1 ISZERO PUSH2 0x702 JUMPI DUP1 PUSH1 0x1F LT PUSH2 0x6D7 JUMPI PUSH2 0x100 DUP1 DUP4 SLOAD DIV MUL DUP4 MSTORE SWAP2 PUSH1 0x20 ADD SWAP2 PUSH2 0x702 JUMP JUMPDEST DUP3 ADD SWAP2 SWAP1 PUSH1 0x0 MSTORE PUSH1 0x20 PUSH1 0x0 KECCAK256 SWAP1 JUMPDEST DUP2 SLOAD DUP2 MSTORE SWAP1 PUSH1 0x1 ADD SWAP1 PUSH1 0x20 ADD DUP1 DUP4 GT PUSH2 0x6E5 JUMPI DUP3 SWAP1 SUB PUSH1 0x1F AND DUP3 ADD SWAP2 JUMPDEST POP POP POP POP POP DUP2 JUMP JUMPDEST PUSH1 0x5 PUSH1 0x20 MSTORE DUP2 PUSH1 0x0 MSTORE PUSH1 0x40 PUSH1 0x0 KECCAK256 DUP2 DUP2 SLOAD DUP2 LT PUSH2 0x726 JUMPI PUSH1 0x0 DUP1 REVERT JUMPDEST SWAP1 PUSH1 0x0 MSTORE PUSH1 0x20 PUSH1 0x0 KECCAK256 ADD PUSH1 0x0 SWAP2 POP SWAP2 POP POP DUP1 SLOAD PUSH2 0x742 SWAP1 PUSH2 0x2069 JUMP JUMPDEST DUP1 PUSH1 0x1F ADD PUSH1 0x20 DUP1 SWAP2 DIV MUL PUSH1 0x20 ADD PUSH1 0x40 MLOAD SWAP1 DUP2 ADD PUSH1 0x40 MSTORE DUP1 SWAP3 SWAP2 SWAP1 DUP2 DUP2 MSTORE PUSH1 0x20 ADD DUP3 DUP1 SLOAD PUSH2 0x76E SWAP1 PUSH2 0x2069 JUMP JUMPDEST DUP1 ISZERO PUSH2 0x7BB JUMPI DUP1 PUSH1 0x1F LT PUSH2 0x790 JUMPI PUSH2 0x100 DUP1 DUP4 SLOAD DIV MUL DUP4 MSTORE SWAP2 PUSH1 0x20 ADD SWAP2 PUSH2 0x7BB JUMP JUMPDEST DUP3 ADD SWAP2 SWAP1 PUSH1 0x0 MSTORE PUSH1 0x20 PUSH1 0x0 KECCAK256 SWAP1 JUMPDEST DUP2 SLOAD DUP2 MSTORE SWAP1 PUSH1 0x1 ADD SWAP1 PUSH1 0x20 ADD DUP1 DUP4 GT PUSH2 0x79E JUMPI DUP3 SWAP1 SUB PUSH1 0x1F AND DUP3 ADD SWAP2 JUMPDEST POP POP POP POP POP DUP2 JUMP JUMPDEST PUSH1 0x1 DUP2 DUP2 SLOAD DUP2 LT PUSH2 0x7D3 JUMPI PUSH1 0x0 DUP1 REVERT JUMPDEST SWAP1 PUSH1 0x0 MSTORE PUSH1 0x20 PUSH1 0x0 KECCAK256 ADD PUSH1 0x0 SWAP2 POP SLOAD SWAP1 PUSH2 0x100 EXP SWAP1 DIV PUSH20 0xFFFFFFFFFFFFFFFFFFFFFFFFFFFFFFFFFFFFFFFF AND DUP2 JUMP JUMPDEST PUSH1 0x0 CALLER SWAP1 POP PUSH1 0x0 PUSH1 0x2 PUSH1 0x0 DUP4 PUSH20 0xFFFFFFFFFFFFFFFFFFFFFFFFFFFFFFFFFFFFFFFF AND PUSH20 0xFFFFFFFFFFFFFFFFFFFFFFFFFFFFFFFFFFFFFFFF AND DUP2 MSTORE PUSH1 0x20 ADD SWAP1 DUP2 MSTORE PUSH1 0x20 ADD PUSH1 0x0 KECCAK256 DUP1 SLOAD PUSH2 0x853 SWAP1 PUSH2 0x2069 JUMP JUMPDEST SWAP1 POP SUB PUSH2 0x85F JUMPI PUSH1 0x0 DUP1 REVERT JUMPDEST PUSH1 0x0 PUSH20 0xFFFFFFFFFFFFFFFFFFFFFFFFFFFFFFFFFFFFFFFF AND PUSH1 0x3 DUP7 PUSH1 0x40 MLOAD PUSH2 0x887 SWAP2 SWAP1 PUSH2 0x20D6 JUMP JUMPDEST SWAP1 DUP2 MSTORE PUSH1 0x20 ADD PUSH1 0x40 MLOAD DUP1 SWAP2 SUB SWAP1 KECCAK256 PUSH1 0x0 SWAP1 SLOAD SWAP1 PUSH2 0x100 EXP SWAP1 DIV PUSH20 0xFFFFFFFFFFFFFFFFFFFFFFFFFFFFFFFFFFFFFFFF AND PUSH20 0xFFFFFFFFFFFFFFFFFFFFFFFFFFFFFFFFFFFFFFFF AND SUB PUSH2 0x8D6 JUMPI PUSH1 0x0 DUP1 REVERT JUMPDEST PUSH1 0x0 PUSH1 0x6 PUSH1 0x0 PUSH1 0x3 DUP9 PUSH1 0x40 MLOAD PUSH2 0x8EC SWAP2 SWAP1 PUSH2 0x20D6 JUMP JUMPDEST SWAP1 DUP2 MSTORE PUSH1 0x20 ADD PUSH1 0x40 MLOAD DUP1 SWAP2 SUB SWAP1 KECCAK256 PUSH1 0x0 SWAP1 SLOAD SWAP1 PUSH2 0x100 EXP SWAP1 DIV PUSH20 0xFFFFFFFFFFFFFFFFFFFFFFFFFFFFFFFFFFFFFFFF AND PUSH20 0xFFFFFFFFFFFFFFFFFFFFFFFFFFFFFFFFFFFFFFFF AND PUSH20 0xFFFFFFFFFFFFFFFFFFFFFFFFFFFFFFFFFFFFFFFF AND DUP2 MSTORE PUSH1 0x20 ADD SWAP1 DUP2 MSTORE PUSH1 0x20 ADD PUSH1 0x0 KECCAK256 SWAP1 POP PUSH2 0x961 DUP9 DUP8 PUSH2 0x1312 JUMP JUMPDEST PUSH2 0xAC5 JUMPI PUSH1 0x5 PUSH1 0x0 PUSH1 0x3 DUP9 PUSH1 0x40 MLOAD PUSH2 0x979 SWAP2 SWAP1 PUSH2 0x20D6 JUMP JUMPDEST SWAP1 DUP2 MSTORE PUSH1 0x20 ADD PUSH1 0x40 MLOAD DUP1 SWAP2 SUB SWAP1 KECCAK256 PUSH1 0x0 SWAP1 SLOAD SWAP1 PUSH2 0x100 EXP SWAP1 DIV PUSH20 0xFFFFFFFFFFFFFFFFFFFFFFFFFFFFFFFFFFFFFFFF AND PUSH20 0xFFFFFFFFFFFFFFFFFFFFFFFFFFFFFFFFFFFFFFFF AND PUSH20 0xFFFFFFFFFFFFFFFFFFFFFFFFFFFFFFFFFFFFFFFF AND DUP2 MSTORE PUSH1 0x20 ADD SWAP1 DUP2 MSTORE PUSH1 0x20 ADD PUSH1 0x0 KECCAK256 DUP9 SWAP1 DUP1 PUSH1 0x1 DUP2 SLOAD ADD DUP1 DUP3 SSTORE DUP1 SWAP2 POP POP PUSH1 0x1 SWAP1 SUB SWAP1 PUSH1 0x0 MSTORE PUSH1 0x20 PUSH1 0x0 KECCAK256 ADD PUSH1 0x0 SWAP1 SWAP2 SWAP1 SWAP2 SWAP1 SWAP2 POP SWAP1 DUP2 PUSH2 0xA14 SWAP2 SWAP1 PUSH2 0x2299 JUMP JUMPDEST POP PUSH1 0x7 PUSH1 0x0 PUSH1 0x3 DUP9 PUSH1 0x40 MLOAD PUSH2 0xA29 SWAP2 SWAP1 PUSH2 0x20D6 JUMP JUMPDEST SWAP1 DUP2 MSTORE PUSH1 0x20 ADD PUSH1 0x40 MLOAD DUP1 SWAP2 SUB SWAP1 KECCAK256 PUSH1 0x0 SWAP1 SLOAD SWAP1 PUSH2 0x100 EXP SWAP1 DIV PUSH20 0xFFFFFFFFFFFFFFFFFFFFFFFFFFFFFFFFFFFFFFFF AND PUSH20 0xFFFFFFFFFFFFFFFFFFFFFFFFFFFFFFFFFFFFFFFF AND PUSH20 0xFFFFFFFFFFFFFFFFFFFFFFFFFFFFFFFFFFFFFFFF AND DUP2 MSTORE PUSH1 0x20 ADD SWAP1 DUP2 MSTORE PUSH1 0x20 ADD PUSH1 0x0 KECCAK256 DUP9 PUSH1 0x40 MLOAD PUSH2 0xAA0 SWAP2 SWAP1 PUSH2 0x20D6 JUMP JUMPDEST SWAP1 DUP2 MSTORE PUSH1 0x20 ADD PUSH1 0x40 MLOAD DUP1 SWAP2 SUB SWAP1 KECCAK256 PUSH1 0x0 DUP2 SLOAD DUP1 SWAP3 SWAP2 SWAP1 PUSH2 0xABF SWAP1 PUSH2 0x239A JUMP JUMPDEST SWAP2 SWAP1 POP SSTORE POP JUMPDEST PUSH1 0x0 DUP2 DUP10 PUSH1 0x40 MLOAD PUSH2 0xAD6 SWAP2 SWAP1 PUSH2 0x20D6 JUMP JUMPDEST SWAP1 DUP2 MSTORE PUSH1 0x20 ADD PUSH1 0x40 MLOAD DUP1 SWAP2 SUB SWAP1 KECCAK256 SWAP1 POP DUP9 DUP2 PUSH1 0x0 DUP6 PUSH20 0xFFFFFFFFFFFFFFFFFFFFFFFFFFFFFFFFFFFFFFFF AND PUSH20 0xFFFFFFFFFFFFFFFFFFFFFFFFFFFFFFFFFFFFFFFF AND DUP2 MSTORE PUSH1 0x20 ADD SWAP1 DUP2 MSTORE PUSH1 0x20 ADD PUSH1 0x0 KECCAK256 PUSH1 0x0 ADD SWAP1 DUP2 PUSH2 0xB34 SWAP2 SWAP1 PUSH2 0x2299 JUMP JUMPDEST POP DUP8 DUP2 PUSH1 0x0 DUP6 PUSH20 0xFFFFFFFFFFFFFFFFFFFFFFFFFFFFFFFFFFFFFFFF AND PUSH20 0xFFFFFFFFFFFFFFFFFFFFFFFFFFFFFFFFFFFFFFFF AND DUP2 MSTORE PUSH1 0x20 ADD SWAP1 DUP2 MSTORE PUSH1 0x20 ADD PUSH1 0x0 KECCAK256 PUSH1 0x1 ADD SWAP1 DUP2 PUSH2 0xB83 SWAP2 SWAP1 PUSH2 0x2299 JUMP JUMPDEST POP DUP7 DUP2 PUSH1 0x0 DUP6 PUSH20 0xFFFFFFFFFFFFFFFFFFFFFFFFFFFFFFFFFFFFFFFF AND PUSH20 0xFFFFFFFFFFFFFFFFFFFFFFFFFFFFFFFFFFFFFFFF AND DUP2 MSTORE PUSH1 0x20 ADD SWAP1 DUP2 MSTORE PUSH1 0x20 ADD PUSH1 0x0 KECCAK256 PUSH1 0x2 ADD SWAP1 DUP2 PUSH2 0xBD2 SWAP2 SWAP1 PUSH2 0x2299 JUMP JUMPDEST POP DUP6 DUP2 PUSH1 0x0 DUP6 PUSH20 0xFFFFFFFFFFFFFFFFFFFFFFFFFFFFFFFFFFFFFFFF AND PUSH20 0xFFFFFFFFFFFFFFFFFFFFFFFFFFFFFFFFFFFFFFFF AND DUP2 MSTORE PUSH1 0x20 ADD SWAP1 DUP2 MSTORE PUSH1 0x20 ADD PUSH1 0x0 KECCAK256 PUSH1 0x3 ADD DUP2 SWAP1 SSTORE POP DUP5 DUP2 PUSH1 0x0 DUP6 PUSH20 0xFFFFFFFFFFFFFFFFFFFFFFFFFFFFFFFFFFFFFFFF AND PUSH20 0xFFFFFFFFFFFFFFFFFFFFFFFFFFFFFFFFFFFFFFFF AND DUP2 MSTORE PUSH1 0x20 ADD SWAP1 DUP2 MSTORE PUSH1 0x20 ADD PUSH1 0x0 KECCAK256 PUSH1 0x4 ADD DUP2 SWAP1 SSTORE POP DUP4 DUP2 PUSH1 0x0 DUP6 PUSH20 0xFFFFFFFFFFFFFFFFFFFFFFFFFFFFFFFFFFFFFFFF AND PUSH20 0xFFFFFFFFFFFFFFFFFFFFFFFFFFFFFFFFFFFFFFFF AND DUP2 MSTORE PUSH1 0x20 ADD SWAP1 DUP2 MSTORE PUSH1 0x20 ADD PUSH1 0x0 KECCAK256 PUSH1 0x5 ADD DUP2 SWAP1 SSTORE POP PUSH2 0xCB3 DUP4 PUSH4 0x3B9ACA00 PUSH2 0x1261 JUMP JUMPDEST POP POP POP POP POP POP POP POP POP JUMP JUMPDEST PUSH1 0x60 DUP1 PUSH1 0x0 CALLER SWAP1 POP PUSH1 0x0 PUSH1 0x5 PUSH1 0x0 DUP4 PUSH20 0xFFFFFFFFFFFFFFFFFFFFFFFFFFFFFFFFFFFFFFFF AND PUSH20 0xFFFFFFFFFFFFFFFFFFFFFFFFFFFFFFFFFFFFFFFF AND DUP2 MSTORE PUSH1 0x20 ADD SWAP1 DUP2 MSTORE PUSH1 0x20 ADD PUSH1 0x0 KECCAK256 SWAP1 POP PUSH1 0x0 PUSH1 0x5 PUSH1 0x0 DUP5 PUSH20 0xFFFFFFFFFFFFFFFFFFFFFFFFFFFFFFFFFFFFFFFF AND PUSH20 0xFFFFFFFFFFFFFFFFFFFFFFFFFFFFFFFFFFFFFFFF AND DUP2 MSTORE PUSH1 0x20 ADD SWAP1 DUP2 MSTORE PUSH1 0x20 ADD PUSH1 0x0 KECCAK256 DUP1 SLOAD SWAP1 POP PUSH8 0xFFFFFFFFFFFFFFFF DUP2 GT ISZERO PUSH2 0xD67 JUMPI PUSH2 0xD66 PUSH2 0x180C JUMP JUMPDEST JUMPDEST PUSH1 0x40 MLOAD SWAP1 DUP1 DUP3 MSTORE DUP1 PUSH1 0x20 MUL PUSH1 0x20 ADD DUP3 ADD PUSH1 0x40 MSTORE DUP1 ISZERO PUSH2 0xDA0 JUMPI DUP2 PUSH1 0x20 ADD JUMPDEST PUSH2 0xD8D PUSH2 0x163C JUMP JUMPDEST DUP2 MSTORE PUSH1 0x20 ADD SWAP1 PUSH1 0x1 SWAP1 SUB SWAP1 DUP2 PUSH2 0xD85 JUMPI SWAP1 POP JUMPDEST POP SWAP1 POP PUSH1 0x0 JUMPDEST DUP3 DUP1 SLOAD SWAP1 POP DUP2 LT ISZERO PUSH2 0x1141 JUMPI PUSH1 0x0 DUP4 DUP3 DUP2 SLOAD DUP2 LT PUSH2 0xDC7 JUMPI PUSH2 0xDC6 PUSH2 0x23E2 JUMP JUMPDEST JUMPDEST SWAP1 PUSH1 0x0 MSTORE PUSH1 0x20 PUSH1 0x0 KECCAK256 ADD DUP1 SLOAD PUSH2 0xDDC SWAP1 PUSH2 0x2069 JUMP JUMPDEST DUP1 PUSH1 0x1F ADD PUSH1 0x20 DUP1 SWAP2 DIV MUL PUSH1 0x20 ADD PUSH1 0x40 MLOAD SWAP1 DUP2 ADD PUSH1 0x40 MSTORE DUP1 SWAP3 SWAP2 SWAP1 DUP2 DUP2 MSTORE PUSH1 0x20 ADD DUP3 DUP1 SLOAD PUSH2 0xE08 SWAP1 PUSH2 0x2069 JUMP JUMPDEST DUP1 ISZERO PUSH2 0xE55 JUMPI DUP1 PUSH1 0x1F LT PUSH2 0xE2A JUMPI PUSH2 0x100 DUP1 DUP4 SLOAD DIV MUL DUP4 MSTORE SWAP2 PUSH1 0x20 ADD SWAP2 PUSH2 0xE55 JUMP JUMPDEST DUP3 ADD SWAP2 SWAP1 PUSH1 0x0 MSTORE PUSH1 0x20 PUSH1 0x0 KECCAK256 SWAP1 JUMPDEST DUP2 SLOAD DUP2 MSTORE SWAP1 PUSH1 0x1 ADD SWAP1 PUSH1 0x20 ADD DUP1 DUP4 GT PUSH2 0xE38 JUMPI DUP3 SWAP1 SUB PUSH1 0x1F AND DUP3 ADD SWAP2 JUMPDEST POP POP POP POP POP SWAP1 POP PUSH1 0x6 PUSH1 0x0 DUP7 PUSH20 0xFFFFFFFFFFFFFFFFFFFFFFFFFFFFFFFFFFFFFFFF AND PUSH20 0xFFFFFFFFFFFFFFFFFFFFFFFFFFFFFFFFFFFFFFFF AND DUP2 MSTORE PUSH1 0x20 ADD SWAP1 DUP2 MSTORE PUSH1 0x20 ADD PUSH1 0x0 KECCAK256 DUP2 PUSH1 0x40 MLOAD PUSH2 0xEA9 SWAP2 SWAP1 PUSH2 0x20D6 JUMP JUMPDEST SWAP1 DUP2 MSTORE PUSH1 0x20 ADD PUSH1 0x40 MLOAD DUP1 SWAP2 SUB SWAP1 KECCAK256 PUSH1 0x0 PUSH1 0x3 DUP11 PUSH1 0x40 MLOAD PUSH2 0xEC9 SWAP2 SWAP1 PUSH2 0x20D6 JUMP JUMPDEST SWAP1 DUP2 MSTORE PUSH1 0x20 ADD PUSH1 0x40 MLOAD DUP1 SWAP2 SUB SWAP1 KECCAK256 PUSH1 0x0 SWAP1 SLOAD SWAP1 PUSH2 0x100 EXP SWAP1 DIV PUSH20 0xFFFFFFFFFFFFFFFFFFFFFFFFFFFFFFFFFFFFFFFF AND PUSH20 0xFFFFFFFFFFFFFFFFFFFFFFFFFFFFFFFFFFFFFFFF AND PUSH20 0xFFFFFFFFFFFFFFFFFFFFFFFFFFFFFFFFFFFFFFFF AND DUP2 MSTORE PUSH1 0x20 ADD SWAP1 DUP2 MSTORE PUSH1 0x20 ADD PUSH1 0x0 KECCAK256 PUSH1 0x40 MLOAD DUP1 PUSH1 0xC0 ADD PUSH1 0x40 MSTORE SWAP1 DUP2 PUSH1 0x0 DUP3 ADD DUP1 SLOAD PUSH2 0xF4D SWAP1 PUSH2 0x2069 JUMP JUMPDEST DUP1 PUSH1 0x1F ADD PUSH1 0x20 DUP1 SWAP2 DIV MUL PUSH1 0x20 ADD PUSH1 0x40 MLOAD SWAP1 DUP2 ADD PUSH1 0x40 MSTORE DUP1 SWAP3 SWAP2 SWAP1 DUP2 DUP2 MSTORE PUSH1 0x20 ADD DUP3 DUP1 SLOAD PUSH2 0xF79 SWAP1 PUSH2 0x2069 JUMP JUMPDEST DUP1 ISZERO PUSH2 0xFC6 JUMPI DUP1 PUSH1 0x1F LT PUSH2 0xF9B JUMPI PUSH2 0x100 DUP1 DUP4 SLOAD DIV MUL DUP4 MSTORE SWAP2 PUSH1 0x20 ADD SWAP2 PUSH2 0xFC6 JUMP JUMPDEST DUP3 ADD SWAP2 SWAP1 PUSH1 0x0 MSTORE PUSH1 0x20 PUSH1 0x0 KECCAK256 SWAP1 JUMPDEST DUP2 SLOAD DUP2 MSTORE SWAP1 PUSH1 0x1 ADD SWAP1 PUSH1 0x20 ADD DUP1 DUP4 GT PUSH2 0xFA9 JUMPI DUP3 SWAP1 SUB PUSH1 0x1F AND DUP3 ADD SWAP2 JUMPDEST POP POP POP POP POP DUP2 MSTORE PUSH1 0x20 ADD PUSH1 0x1 DUP3 ADD DUP1 SLOAD PUSH2 0xFDF SWAP1 PUSH2 0x2069 JUMP JUMPDEST DUP1 PUSH1 0x1F ADD PUSH1 0x20 DUP1 SWAP2 DIV MUL PUSH1 0x20 ADD PUSH1 0x40 MLOAD SWAP1 DUP2 ADD PUSH1 0x40 MSTORE DUP1 SWAP3 SWAP2 SWAP1 DUP2 DUP2 MSTORE PUSH1 0x20 ADD DUP3 DUP1 SLOAD PUSH2 0x100B SWAP1 PUSH2 0x2069 JUMP JUMPDEST DUP1 ISZERO PUSH2 0x1058 JUMPI DUP1 PUSH1 0x1F LT PUSH2 0x102D JUMPI PUSH2 0x100 DUP1 DUP4 SLOAD DIV MUL DUP4 MSTORE SWAP2 PUSH1 0x20 ADD SWAP2 PUSH2 0x1058 JUMP JUMPDEST DUP3 ADD SWAP2 SWAP1 PUSH1 0x0 MSTORE PUSH1 0x20 PUSH1 0x0 KECCAK256 SWAP1 JUMPDEST DUP2 SLOAD DUP2 MSTORE SWAP1 PUSH1 0x1 ADD SWAP1 PUSH1 0x20 ADD DUP1 DUP4 GT PUSH2 0x103B JUMPI DUP3 SWAP1 SUB PUSH1 0x1F AND DUP3 ADD SWAP2 JUMPDEST POP POP POP POP POP DUP2 MSTORE PUSH1 0x20 ADD PUSH1 0x2 DUP3 ADD DUP1 SLOAD PUSH2 0x1071 SWAP1 PUSH2 0x2069 JUMP JUMPDEST DUP1 PUSH1 0x1F ADD PUSH1 0x20 DUP1 SWAP2 DIV MUL PUSH1 0x20 ADD PUSH1 0x40 MLOAD SWAP1 DUP2 ADD PUSH1 0x40 MSTORE DUP1 SWAP3 SWAP2 SWAP1 DUP2 DUP2 MSTORE PUSH1 0x20 ADD DUP3 DUP1 SLOAD PUSH2 0x109D SWAP1 PUSH2 0x2069 JUMP JUMPDEST DUP1 ISZERO PUSH2 0x10EA JUMPI DUP1 PUSH1 0x1F LT PUSH2 0x10BF JUMPI PUSH2 0x100 DUP1 DUP4 SLOAD DIV MUL DUP4 MSTORE SWAP2 PUSH1 0x20 ADD SWAP2 PUSH2 0x10EA JUMP JUMPDEST DUP3 ADD SWAP2 SWAP1 PUSH1 0x0 MSTORE PUSH1 0x20 PUSH1 0x0 KECCAK256 SWAP1 JUMPDEST DUP2 SLOAD DUP2 MSTORE SWAP1 PUSH1 0x1 ADD SWAP1 PUSH1 0x20 ADD DUP1 DUP4 GT PUSH2 0x10CD JUMPI DUP3 SWAP1 SUB PUSH1 0x1F AND DUP3 ADD SWAP2 JUMPDEST POP POP POP POP POP DUP2 MSTORE PUSH1 0x20 ADD PUSH1 0x3 DUP3 ADD SLOAD DUP2 MSTORE PUSH1 0x20 ADD PUSH1 0x4 DUP3 ADD SLOAD DUP2 MSTORE PUSH1 0x20 ADD PUSH1 0x5 DUP3 ADD SLOAD DUP2 MSTORE POP POP DUP4 DUP4 DUP2 MLOAD DUP2 LT PUSH2 0x1124 JUMPI PUSH2 0x1123 PUSH2 0x23E2 JUMP JUMPDEST JUMPDEST PUSH1 0x20 MUL PUSH1 0x20 ADD ADD DUP2 SWAP1 MSTORE POP POP DUP1 PUSH2 0x113A SWAP1 PUSH2 0x239A JUMP JUMPDEST SWAP1 POP PUSH2 0xDA6 JUMP JUMPDEST POP PUSH1 0x5 PUSH1 0x0 DUP5 PUSH20 0xFFFFFFFFFFFFFFFFFFFFFFFFFFFFFFFFFFFFFFFF AND PUSH20 0xFFFFFFFFFFFFFFFFFFFFFFFFFFFFFFFFFFFFFFFF AND DUP2 MSTORE PUSH1 0x20 ADD SWAP1 DUP2 MSTORE PUSH1 0x20 ADD PUSH1 0x0 KECCAK256 DUP2 DUP2 DUP1 SLOAD DUP1 PUSH1 0x20 MUL PUSH1 0x20 ADD PUSH1 0x40 MLOAD SWAP1 DUP2 ADD PUSH1 0x40 MSTORE DUP1 SWAP3 SWAP2 SWAP1 DUP2 DUP2 MSTORE PUSH1 0x20 ADD PUSH1 0x0 SWAP1 JUMPDEST DUP3 DUP3 LT ISZERO PUSH2 0x124F JUMPI DUP4 DUP3 SWAP1 PUSH1 0x0 MSTORE PUSH1 0x20 PUSH1 0x0 KECCAK256 ADD DUP1 SLOAD PUSH2 0x11C2 SWAP1 PUSH2 0x2069 JUMP JUMPDEST DUP1 PUSH1 0x1F ADD PUSH1 0x20 DUP1 SWAP2 DIV MUL PUSH1 0x20 ADD PUSH1 0x40 MLOAD SWAP1 DUP2 ADD PUSH1 0x40 MSTORE DUP1 SWAP3 SWAP2 SWAP1 DUP2 DUP2 MSTORE PUSH1 0x20 ADD DUP3 DUP1 SLOAD PUSH2 0x11EE SWAP1 PUSH2 0x2069 JUMP JUMPDEST DUP1 ISZERO PUSH2 0x123B JUMPI DUP1 PUSH1 0x1F LT PUSH2 0x1210 JUMPI PUSH2 0x100 DUP1 DUP4 SLOAD DIV MUL DUP4 MSTORE SWAP2 PUSH1 0x20 ADD SWAP2 PUSH2 0x123B JUMP JUMPDEST DUP3 ADD SWAP2 SWAP1 PUSH1 0x0 MSTORE PUSH1 0x20 PUSH1 0x0 KECCAK256 SWAP1 JUMPDEST DUP2 SLOAD DUP2 MSTORE SWAP1 PUSH1 0x1 ADD SWAP1 PUSH1 0x20 ADD DUP1 DUP4 GT PUSH2 0x121E JUMPI DUP3 SWAP1 SUB PUSH1 0x1F AND DUP3 ADD SWAP2 JUMPDEST POP POP POP POP POP DUP2 MSTORE PUSH1 0x20 ADD SWAP1 PUSH1 0x1 ADD SWAP1 PUSH2 0x11A3 JUMP JUMPDEST POP POP POP POP SWAP2 POP SWAP5 POP SWAP5 POP POP POP POP SWAP2 POP SWAP2 JUMP JUMPDEST PUSH1 0x0 DUP3 PUSH20 0xFFFFFFFFFFFFFFFFFFFFFFFFFFFFFFFFFFFFFFFF AND DUP3 PUSH1 0x40 MLOAD PUSH2 0x1287 SWAP1 PUSH2 0x2442 JUMP JUMPDEST PUSH1 0x0 PUSH1 0x40 MLOAD DUP1 DUP4 SUB DUP2 DUP6 DUP8 GAS CALL SWAP3 POP POP POP RETURNDATASIZE DUP1 PUSH1 0x0 DUP2 EQ PUSH2 0x12C4 JUMPI PUSH1 0x40 MLOAD SWAP2 POP PUSH1 0x1F NOT PUSH1 0x3F RETURNDATASIZE ADD AND DUP3 ADD PUSH1 0x40 MSTORE RETURNDATASIZE DUP3 MSTORE RETURNDATASIZE PUSH1 0x0 PUSH1 0x20 DUP5 ADD RETURNDATACOPY PUSH2 0x12C9 JUMP JUMPDEST PUSH1 0x60 SWAP2 POP JUMPDEST POP POP SWAP1 POP DUP1 PUSH2 0x130D JUMPI PUSH1 0x40 MLOAD PUSH32 0x8C379A000000000000000000000000000000000000000000000000000000000 DUP2 MSTORE PUSH1 0x4 ADD PUSH2 0x1304 SWAP1 PUSH2 0x24A3 JUMP JUMPDEST PUSH1 0x40 MLOAD DUP1 SWAP2 SUB SWAP1 REVERT JUMPDEST POP POP POP JUMP JUMPDEST PUSH1 0x0 DUP1 PUSH1 0x7 PUSH1 0x0 PUSH1 0x3 DUP6 PUSH1 0x40 MLOAD PUSH2 0x1329 SWAP2 SWAP1 PUSH2 0x20D6 JUMP JUMPDEST SWAP1 DUP2 MSTORE PUSH1 0x20 ADD PUSH1 0x40 MLOAD DUP1 SWAP2 SUB SWAP1 KECCAK256 PUSH1 0x0 SWAP1 SLOAD SWAP1 PUSH2 0x100 EXP SWAP1 DIV PUSH20 0xFFFFFFFFFFFFFFFFFFFFFFFFFFFFFFFFFFFFFFFF AND PUSH20 0xFFFFFFFFFFFFFFFFFFFFFFFFFFFFFFFFFFFFFFFF AND PUSH20 0xFFFFFFFFFFFFFFFFFFFFFFFFFFFFFFFFFFFFFFFF AND DUP2 MSTORE PUSH1 0x20 ADD SWAP1 DUP2 MSTORE PUSH1 0x20 ADD PUSH1 0x0 KECCAK256 DUP5 PUSH1 0x40 MLOAD PUSH2 0x13A0 SWAP2 SWAP1 PUSH2 0x20D6 JUMP JUMPDEST SWAP1 DUP2 MSTORE PUSH1 0x20 ADD PUSH1 0x40 MLOAD DUP1 SWAP2 SUB SWAP1 KECCAK256 SLOAD EQ ISZERO SWAP1 POP SWAP3 SWAP2 POP POP JUMP JUMPDEST PUSH1 0x0 SELFBALANCE SWAP1 POP SWAP1 JUMP JUMPDEST PUSH1 0x0 PUSH1 0x2 PUSH1 0x0 DUP5 PUSH20 0xFFFFFFFFFFFFFFFFFFFFFFFFFFFFFFFFFFFFFFFF AND PUSH20 0xFFFFFFFFFFFFFFFFFFFFFFFFFFFFFFFFFFFFFFFF AND DUP2 MSTORE PUSH1 0x20 ADD SWAP1 DUP2 MSTORE PUSH1 0x20 ADD PUSH1 0x0 KECCAK256 DUP1 SLOAD PUSH2 0x140D SWAP1 PUSH2 0x2069 JUMP JUMPDEST SWAP1 POP EQ DUP1 ISZERO PUSH2 0x1486 JUMPI POP PUSH1 0x0 PUSH20 0xFFFFFFFFFFFFFFFFFFFFFFFFFFFFFFFFFFFFFFFF AND PUSH1 0x3 DUP3 PUSH1 0x40 MLOAD PUSH2 0x143F SWAP2 SWAP1 PUSH2 0x20D6 JUMP JUMPDEST SWAP1 DUP2 MSTORE PUSH1 0x20 ADD PUSH1 0x40 MLOAD DUP1 SWAP2 SUB SWAP1 KECCAK256 PUSH1 0x0 SWAP1 SLOAD SWAP1 PUSH2 0x100 EXP SWAP1 DIV PUSH20 0xFFFFFFFFFFFFFFFFFFFFFFFFFFFFFFFFFFFFFFFF AND PUSH20 0xFFFFFFFFFFFFFFFFFFFFFFFFFFFFFFFFFFFFFFFF AND EQ JUMPDEST ISZERO PUSH2 0x15CE JUMPI PUSH1 0x0 DUP2 SWAP1 DUP1 PUSH1 0x1 DUP2 SLOAD ADD DUP1 DUP3 SSTORE DUP1 SWAP2 POP POP PUSH1 0x1 SWAP1 SUB SWAP1 PUSH1 0x0 MSTORE PUSH1 0x20 PUSH1 0x0 KECCAK256 ADD PUSH1 0x0 SWAP1 SWAP2 SWAP1 SWAP2 SWAP1 SWAP2 POP SWAP1 DUP2 PUSH2 0x14BF SWAP2 SWAP1 PUSH2 0x2299 JUMP JUMPDEST POP PUSH1 0x1 DUP3 SWAP1 DUP1 PUSH1 0x1 DUP2 SLOAD ADD DUP1 DUP3 SSTORE DUP1 SWAP2 POP POP PUSH1 0x1 SWAP1 SUB SWAP1 PUSH1 0x0 MSTORE PUSH1 0x20 PUSH1 0x0 KECCAK256 ADD PUSH1 0x0 SWAP1 SWAP2 SWAP1 SWAP2 SWAP1 SWAP2 PUSH2 0x100 EXP DUP2 SLOAD DUP2 PUSH20 0xFFFFFFFFFFFFFFFFFFFFFFFFFFFFFFFFFFFFFFFF MUL NOT AND SWAP1 DUP4 PUSH20 0xFFFFFFFFFFFFFFFFFFFFFFFFFFFFFFFFFFFFFFFF AND MUL OR SWAP1 SSTORE POP DUP2 PUSH1 0x3 DUP3 PUSH1 0x40 MLOAD PUSH2 0x1534 SWAP2 SWAP1 PUSH2 0x20D6 JUMP JUMPDEST SWAP1 DUP2 MSTORE PUSH1 0x20 ADD PUSH1 0x40 MLOAD DUP1 SWAP2 SUB SWAP1 KECCAK256 PUSH1 0x0 PUSH2 0x100 EXP DUP2 SLOAD DUP2 PUSH20 0xFFFFFFFFFFFFFFFFFFFFFFFFFFFFFFFFFFFFFFFF MUL NOT AND SWAP1 DUP4 PUSH20 0xFFFFFFFFFFFFFFFFFFFFFFFFFFFFFFFFFFFFFFFF AND MUL OR SWAP1 SSTORE POP DUP1 PUSH1 0x2 PUSH1 0x0 DUP5 PUSH20 0xFFFFFFFFFFFFFFFFFFFFFFFFFFFFFFFFFFFFFFFF AND PUSH20 0xFFFFFFFFFFFFFFFFFFFFFFFFFFFFFFFFFFFFFFFF AND DUP2 MSTORE PUSH1 0x20 ADD SWAP1 DUP2 MSTORE PUSH1 0x20 ADD PUSH1 0x0 KECCAK256 SWAP1 DUP2 PUSH2 0x15CC SWAP2 SWAP1 PUSH2 0x2299 JUMP JUMPDEST POP JUMPDEST POP POP JUMP JUMPDEST CALLVALUE PUSH1 0x4 PUSH1 0x0 DUP3 DUP3 SLOAD PUSH2 0x15E4 SWAP2 SWAP1 PUSH2 0x24C3 JUMP JUMPDEST SWAP3 POP POP DUP2 SWAP1 SSTORE POP JUMP JUMPDEST PUSH1 0x4 SLOAD DUP2 JUMP JUMPDEST PUSH1 0x3 DUP2 DUP1 MLOAD PUSH1 0x20 DUP2 ADD DUP3 ADD DUP1 MLOAD DUP5 DUP3 MSTORE PUSH1 0x20 DUP4 ADD PUSH1 0x20 DUP6 ADD KECCAK256 DUP2 DUP4 MSTORE DUP1 SWAP6 POP POP POP POP POP POP PUSH1 0x0 SWAP2 POP SLOAD SWAP1 PUSH2 0x100 EXP SWAP1 DIV PUSH20 0xFFFFFFFFFFFFFFFFFFFFFFFFFFFFFFFFFFFFFFFF AND DUP2 JUMP JUMPDEST PUSH1 0x40 MLOAD DUP1 PUSH1 0xC0 ADD PUSH1 0x40 MSTORE DUP1 PUSH1 0x60 DUP2 MSTORE PUSH1 0x20 ADD PUSH1 0x60 DUP2 MSTORE PUSH1 0x20 ADD PUSH1 0x60 DUP2 MSTORE PUSH1 0x20 ADD PUSH1 0x0 DUP2 MSTORE PUSH1 0x20 ADD PUSH1 0x0 DUP2 MSTORE PUSH1 0x20 ADD PUSH1 0x0 DUP2 MSTORE POP SWAP1 JUMP JUMPDEST PUSH1 0x0 PUSH1 0x40 MLOAD SWAP1 POP SWAP1 JUMP JUMPDEST PUSH1 0x0 DUP1 REVERT JUMPDEST PUSH1 0x0 DUP1 REVERT JUMPDEST PUSH1 0x0 DUP2 SWAP1 POP SWAP2 SWAP1 POP JUMP JUMPDEST PUSH2 0x1699 DUP2 PUSH2 0x1686 JUMP JUMPDEST DUP2 EQ PUSH2 0x16A4 JUMPI PUSH1 0x0 DUP1 REVERT JUMPDEST POP JUMP JUMPDEST PUSH1 0x0 DUP2 CALLDATALOAD SWAP1 POP PUSH2 0x16B6 DUP2 PUSH2 0x1690 JUMP JUMPDEST SWAP3 SWAP2 POP POP JUMP JUMPDEST PUSH1 0x0 PUSH1 0x20 DUP3 DUP5 SUB SLT ISZERO PUSH2 0x16D2 JUMPI PUSH2 0x16D1 PUSH2 0x167C JUMP JUMPDEST JUMPDEST PUSH1 0x0 PUSH2 0x16E0 DUP5 DUP3 DUP6 ADD PUSH2 0x16A7 JUMP JUMPDEST SWAP2 POP POP SWAP3 SWAP2 POP POP JUMP JUMPDEST PUSH1 0x0 DUP2 MLOAD SWAP1 POP SWAP2 SWAP1 POP JUMP JUMPDEST PUSH1 0x0 DUP3 DUP3 MSTORE PUSH1 0x20 DUP3 ADD SWAP1 POP SWAP3 SWAP2 POP POP JUMP JUMPDEST PUSH1 0x0 JUMPDEST DUP4 DUP2 LT ISZERO PUSH2 0x1723 JUMPI DUP1 DUP3 ADD MLOAD DUP2 DUP5 ADD MSTORE PUSH1 0x20 DUP2 ADD SWAP1 POP PUSH2 0x1708 JUMP JUMPDEST DUP4 DUP2 GT ISZERO PUSH2 0x1732 JUMPI PUSH1 0x0 DUP5 DUP5 ADD MSTORE JUMPDEST POP POP POP POP JUMP JUMPDEST PUSH1 0x0 PUSH1 0x1F NOT PUSH1 0x1F DUP4 ADD AND SWAP1 POP SWAP2 SWAP1 POP JUMP JUMPDEST PUSH1 0x0 PUSH2 0x1754 DUP3 PUSH2 0x16E9 JUMP JUMPDEST PUSH2 0x175E DUP2 DUP6 PUSH2 0x16F4 JUMP JUMPDEST SWAP4 POP PUSH2 0x176E DUP2 DUP6 PUSH1 0x20 DUP7 ADD PUSH2 0x1705 JUMP JUMPDEST PUSH2 0x1777 DUP2 PUSH2 0x1738 JUMP JUMPDEST DUP5 ADD SWAP2 POP POP SWAP3 SWAP2 POP POP JUMP JUMPDEST PUSH1 0x0 PUSH1 0x20 DUP3 ADD SWAP1 POP DUP2 DUP2 SUB PUSH1 0x0 DUP4 ADD MSTORE PUSH2 0x179C DUP2 DUP5 PUSH2 0x1749 JUMP JUMPDEST SWAP1 POP SWAP3 SWAP2 POP POP JUMP JUMPDEST PUSH1 0x0 PUSH20 0xFFFFFFFFFFFFFFFFFFFFFFFFFFFFFFFFFFFFFFFF DUP3 AND SWAP1 POP SWAP2 SWAP1 POP JUMP JUMPDEST PUSH1 0x0 PUSH2 0x17CF DUP3 PUSH2 0x17A4 JUMP JUMPDEST SWAP1 POP SWAP2 SWAP1 POP JUMP JUMPDEST PUSH2 0x17DF DUP2 PUSH2 0x17C4 JUMP JUMPDEST DUP2 EQ PUSH2 0x17EA JUMPI PUSH1 0x0 DUP1 REVERT JUMPDEST POP JUMP JUMPDEST PUSH1 0x0 DUP2 CALLDATALOAD SWAP1 POP PUSH2 0x17FC DUP2 PUSH2 0x17D6 JUMP JUMPDEST SWAP3 SWAP2 POP POP JUMP JUMPDEST PUSH1 0x0 DUP1 REVERT JUMPDEST PUSH1 0x0 DUP1 REVERT JUMPDEST PUSH32 0x4E487B7100000000000000000000000000000000000000000000000000000000 PUSH1 0x0 MSTORE PUSH1 0x41 PUSH1 0x4 MSTORE PUSH1 0x24 PUSH1 0x0 REVERT JUMPDEST PUSH2 0x1844 DUP3 PUSH2 0x1738 JUMP JUMPDEST DUP2 ADD DUP2 DUP2 LT PUSH8 0xFFFFFFFFFFFFFFFF DUP3 GT OR ISZERO PUSH2 0x1863 JUMPI PUSH2 0x1862 PUSH2 0x180C JUMP JUMPDEST JUMPDEST DUP1 PUSH1 0x40 MSTORE POP POP POP JUMP JUMPDEST PUSH1 0x0 PUSH2 0x1876 PUSH2 0x1672 JUMP JUMPDEST SWAP1 POP PUSH2 0x1882 DUP3 DUP3 PUSH2 0x183B JUMP JUMPDEST SWAP2 SWAP1 POP JUMP JUMPDEST PUSH1 0x0 PUSH8 0xFFFFFFFFFFFFFFFF DUP3 GT ISZERO PUSH2 0x18A2 JUMPI PUSH2 0x18A1 PUSH2 0x180C JUMP JUMPDEST JUMPDEST PUSH2 0x18AB DUP3 PUSH2 0x1738 JUMP JUMPDEST SWAP1 POP PUSH1 0x20 DUP2 ADD SWAP1 POP SWAP2 SWAP1 POP JUMP JUMPDEST DUP3 DUP2 DUP4 CALLDATACOPY PUSH1 0x0 DUP4 DUP4 ADD MSTORE POP POP POP JUMP JUMPDEST PUSH1 0x0 PUSH2 0x18DA PUSH2 0x18D5 DUP5 PUSH2 0x1887 JUMP JUMPDEST PUSH2 0x186C JUMP JUMPDEST SWAP1 POP DUP3 DUP2 MSTORE PUSH1 0x20 DUP2 ADD DUP5 DUP5 DUP5 ADD GT ISZERO PUSH2 0x18F6 JUMPI PUSH2 0x18F5 PUSH2 0x1807 JUMP JUMPDEST JUMPDEST PUSH2 0x1901 DUP5 DUP3 DUP6 PUSH2 0x18B8 JUMP JUMPDEST POP SWAP4 SWAP3 POP POP POP JUMP JUMPDEST PUSH1 0x0 DUP3 PUSH1 0x1F DUP4 ADD SLT PUSH2 0x191E JUMPI PUSH2 0x191D PUSH2 0x1802 JUMP JUMPDEST JUMPDEST DUP2 CALLDATALOAD PUSH2 0x192E DUP5 DUP3 PUSH1 0x20 DUP7 ADD PUSH2 0x18C7 JUMP JUMPDEST SWAP2 POP POP SWAP3 SWAP2 POP POP JUMP JUMPDEST PUSH1 0x0 DUP1 PUSH1 0x0 PUSH1 0x60 DUP5 DUP7 SUB SLT ISZERO PUSH2 0x1950 JUMPI PUSH2 0x194F PUSH2 0x167C JUMP JUMPDEST JUMPDEST PUSH1 0x0 PUSH2 0x195E DUP7 DUP3 DUP8 ADD PUSH2 0x17ED JUMP JUMPDEST SWAP4 POP POP PUSH1 0x20 DUP5 ADD CALLDATALOAD PUSH8 0xFFFFFFFFFFFFFFFF DUP2 GT ISZERO PUSH2 0x197F JUMPI PUSH2 0x197E PUSH2 0x1681 JUMP JUMPDEST JUMPDEST PUSH2 0x198B DUP7 DUP3 DUP8 ADD PUSH2 0x1909 JUMP JUMPDEST SWAP3 POP POP PUSH1 0x40 PUSH2 0x199C DUP7 DUP3 DUP8 ADD PUSH2 0x17ED JUMP JUMPDEST SWAP2 POP POP SWAP3 POP SWAP3 POP SWAP3 JUMP JUMPDEST PUSH2 0x19AF DUP2 PUSH2 0x1686 JUMP JUMPDEST DUP3 MSTORE POP POP JUMP JUMPDEST PUSH1 0x0 PUSH1 0xC0 DUP3 ADD SWAP1 POP DUP2 DUP2 SUB PUSH1 0x0 DUP4 ADD MSTORE PUSH2 0x19CF DUP2 DUP10 PUSH2 0x1749 JUMP JUMPDEST SWAP1 POP DUP2 DUP2 SUB PUSH1 0x20 DUP4 ADD MSTORE PUSH2 0x19E3 DUP2 DUP9 PUSH2 0x1749 JUMP JUMPDEST SWAP1 POP DUP2 DUP2 SUB PUSH1 0x40 DUP4 ADD MSTORE PUSH2 0x19F7 DUP2 DUP8 PUSH2 0x1749 JUMP JUMPDEST SWAP1 POP PUSH2 0x1A06 PUSH1 0x60 DUP4 ADD DUP7 PUSH2 0x19A6 JUMP JUMPDEST PUSH2 0x1A13 PUSH1 0x80 DUP4 ADD DUP6 PUSH2 0x19A6 JUMP JUMPDEST PUSH2 0x1A20 PUSH1 0xA0 DUP4 ADD DUP5 PUSH2 0x19A6 JUMP JUMPDEST SWAP8 SWAP7 POP POP POP POP POP POP POP JUMP JUMPDEST PUSH1 0x0 PUSH1 0x20 DUP3 DUP5 SUB SLT ISZERO PUSH2 0x1A41 JUMPI PUSH2 0x1A40 PUSH2 0x167C JUMP JUMPDEST JUMPDEST PUSH1 0x0 PUSH2 0x1A4F DUP5 DUP3 DUP6 ADD PUSH2 0x17ED JUMP JUMPDEST SWAP2 POP POP SWAP3 SWAP2 POP POP JUMP JUMPDEST PUSH1 0x0 DUP1 PUSH1 0x40 DUP4 DUP6 SUB SLT ISZERO PUSH2 0x1A6F JUMPI PUSH2 0x1A6E PUSH2 0x167C JUMP JUMPDEST JUMPDEST PUSH1 0x0 PUSH2 0x1A7D DUP6 DUP3 DUP7 ADD PUSH2 0x17ED JUMP JUMPDEST SWAP3 POP POP PUSH1 0x20 PUSH2 0x1A8E DUP6 DUP3 DUP7 ADD PUSH2 0x16A7 JUMP JUMPDEST SWAP2 POP POP SWAP3 POP SWAP3 SWAP1 POP JUMP JUMPDEST PUSH2 0x1AA1 DUP2 PUSH2 0x17C4 JUMP JUMPDEST DUP3 MSTORE POP POP JUMP JUMPDEST PUSH1 0x0 PUSH1 0x20 DUP3 ADD SWAP1 POP PUSH2 0x1ABC PUSH1 0x0 DUP4 ADD DUP5 PUSH2 0x1A98 JUMP JUMPDEST SWAP3 SWAP2 POP POP JUMP JUMPDEST PUSH1 0x0 DUP1 PUSH1 0x0 DUP1 PUSH1 0x0 DUP1 PUSH1 0xC0 DUP8 DUP10 SUB SLT ISZERO PUSH2 0x1ADF JUMPI PUSH2 0x1ADE PUSH2 0x167C JUMP JUMPDEST JUMPDEST PUSH1 0x0 DUP8 ADD CALLDATALOAD PUSH8 0xFFFFFFFFFFFFFFFF DUP2 GT ISZERO PUSH2 0x1AFD JUMPI PUSH2 0x1AFC PUSH2 0x1681 JUMP JUMPDEST JUMPDEST PUSH2 0x1B09 DUP10 DUP3 DUP11 ADD PUSH2 0x1909 JUMP JUMPDEST SWAP7 POP POP PUSH1 0x20 DUP8 ADD CALLDATALOAD PUSH8 0xFFFFFFFFFFFFFFFF DUP2 GT ISZERO PUSH2 0x1B2A JUMPI PUSH2 0x1B29 PUSH2 0x1681 JUMP JUMPDEST JUMPDEST PUSH2 0x1B36 DUP10 DUP3 DUP11 ADD PUSH2 0x1909 JUMP JUMPDEST SWAP6 POP POP PUSH1 0x40 DUP8 ADD CALLDATALOAD PUSH8 0xFFFFFFFFFFFFFFFF DUP2 GT ISZERO PUSH2 0x1B57 JUMPI PUSH2 0x1B56 PUSH2 0x1681 JUMP JUMPDEST JUMPDEST PUSH2 0x1B63 DUP10 DUP3 DUP11 ADD PUSH2 0x1909 JUMP JUMPDEST SWAP5 POP POP PUSH1 0x60 PUSH2 0x1B74 DUP10 DUP3 DUP11 ADD PUSH2 0x16A7 JUMP JUMPDEST SWAP4 POP POP PUSH1 0x80 PUSH2 0x1B85 DUP10 DUP3 DUP11 ADD PUSH2 0x16A7 JUMP JUMPDEST SWAP3 POP POP PUSH1 0xA0 PUSH2 0x1B96 DUP10 DUP3 DUP11 ADD PUSH2 0x16A7 JUMP JUMPDEST SWAP2 POP POP SWAP3 SWAP6 POP SWAP3 SWAP6 POP SWAP3 SWAP6 JUMP JUMPDEST PUSH1 0x0 PUSH1 0x20 DUP3 DUP5 SUB SLT ISZERO PUSH2 0x1BB9 JUMPI PUSH2 0x1BB8 PUSH2 0x167C JUMP JUMPDEST JUMPDEST PUSH1 0x0 DUP3 ADD CALLDATALOAD PUSH8 0xFFFFFFFFFFFFFFFF DUP2 GT ISZERO PUSH2 0x1BD7 JUMPI PUSH2 0x1BD6 PUSH2 0x1681 JUMP JUMPDEST JUMPDEST PUSH2 0x1BE3 DUP5 DUP3 DUP6 ADD PUSH2 0x1909 JUMP JUMPDEST SWAP2 POP POP SWAP3 SWAP2 POP POP JUMP JUMPDEST PUSH1 0x0 DUP2 MLOAD SWAP1 POP SWAP2 SWAP1 POP JUMP JUMPDEST PUSH1 0x0 DUP3 DUP3 MSTORE PUSH1 0x20 DUP3 ADD SWAP1 POP SWAP3 SWAP2 POP POP JUMP JUMPDEST PUSH1 0x0 DUP2 SWAP1 POP PUSH1 0x20 DUP3 ADD SWAP1 POP SWAP2 SWAP1 POP JUMP JUMPDEST PUSH1 0x0 DUP3 DUP3 MSTORE PUSH1 0x20 DUP3 ADD SWAP1 POP SWAP3 SWAP2 POP POP JUMP JUMPDEST PUSH1 0x0 PUSH2 0x1C34 DUP3 PUSH2 0x16E9 JUMP JUMPDEST PUSH2 0x1C3E DUP2 DUP6 PUSH2 0x1C18 JUMP JUMPDEST SWAP4 POP PUSH2 0x1C4E DUP2 DUP6 PUSH1 0x20 DUP7 ADD PUSH2 0x1705 JUMP JUMPDEST PUSH2 0x1C57 DUP2 PUSH2 0x1738 JUMP JUMPDEST DUP5 ADD SWAP2 POP POP SWAP3 SWAP2 POP POP JUMP JUMPDEST PUSH1 0x0 PUSH2 0x1C6E DUP4 DUP4 PUSH2 0x1C29 JUMP JUMPDEST SWAP1 POP SWAP3 SWAP2 POP POP JUMP JUMPDEST PUSH1 0x0 PUSH1 0x20 DUP3 ADD SWAP1 POP SWAP2 SWAP1 POP JUMP JUMPDEST PUSH1 0x0 PUSH2 0x1C8E DUP3 PUSH2 0x1BEC JUMP JUMPDEST PUSH2 0x1C98 DUP2 DUP6 PUSH2 0x1BF7 JUMP JUMPDEST SWAP4 POP DUP4 PUSH1 0x20 DUP3 MUL DUP6 ADD PUSH2 0x1CAA DUP6 PUSH2 0x1C08 JUMP JUMPDEST DUP1 PUSH1 0x0 JUMPDEST DUP6 DUP2 LT ISZERO PUSH2 0x1CE6 JUMPI DUP5 DUP5 SUB DUP10 MSTORE DUP2 MLOAD PUSH2 0x1CC7 DUP6 DUP3 PUSH2 0x1C62 JUMP JUMPDEST SWAP5 POP PUSH2 0x1CD2 DUP4 PUSH2 0x1C76 JUMP JUMPDEST SWAP3 POP PUSH1 0x20 DUP11 ADD SWAP10 POP POP PUSH1 0x1 DUP2 ADD SWAP1 POP PUSH2 0x1CAE JUMP JUMPDEST POP DUP3 SWAP8 POP DUP8 SWAP6 POP POP POP POP POP POP SWAP3 SWAP2 POP POP JUMP JUMPDEST PUSH1 0x0 DUP2 MLOAD SWAP1 POP SWAP2 SWAP1 POP JUMP JUMPDEST PUSH1 0x0 DUP3 DUP3 MSTORE PUSH1 0x20 DUP3 ADD SWAP1 POP SWAP3 SWAP2 POP POP JUMP JUMPDEST PUSH1 0x0 DUP2 SWAP1 POP PUSH1 0x20 DUP3 ADD SWAP1 POP SWAP2 SWAP1 POP JUMP JUMPDEST PUSH2 0x1D2D DUP2 PUSH2 0x1686 JUMP JUMPDEST DUP3 MSTORE POP POP JUMP JUMPDEST PUSH1 0x0 PUSH1 0xC0 DUP4 ADD PUSH1 0x0 DUP4 ADD MLOAD DUP5 DUP3 SUB PUSH1 0x0 DUP7 ADD MSTORE PUSH2 0x1D50 DUP3 DUP3 PUSH2 0x1C29 JUMP JUMPDEST SWAP2 POP POP PUSH1 0x20 DUP4 ADD MLOAD DUP5 DUP3 SUB PUSH1 0x20 DUP7 ADD MSTORE PUSH2 0x1D6A DUP3 DUP3 PUSH2 0x1C29 JUMP JUMPDEST SWAP2 POP POP PUSH1 0x40 DUP4 ADD MLOAD DUP5 DUP3 SUB PUSH1 0x40 DUP7 ADD MSTORE PUSH2 0x1D84 DUP3 DUP3 PUSH2 0x1C29 JUMP JUMPDEST SWAP2 POP POP PUSH1 0x60 DUP4 ADD MLOAD PUSH2 0x1D99 PUSH1 0x60 DUP7 ADD DUP3 PUSH2 0x1D24 JUMP JUMPDEST POP PUSH1 0x80 DUP4 ADD MLOAD PUSH2 0x1DAC PUSH1 0x80 DUP7 ADD DUP3 PUSH2 0x1D24 JUMP JUMPDEST POP PUSH1 0xA0 DUP4 ADD MLOAD PUSH2 0x1DBF PUSH1 0xA0 DUP7 ADD DUP3 PUSH2 0x1D24 JUMP JUMPDEST POP DUP1 SWAP2 POP POP SWAP3 SWAP2 POP POP JUMP JUMPDEST PUSH1 0x0 PUSH2 0x1DD6 DUP4 DUP4 PUSH2 0x1D33 JUMP JUMPDEST SWAP1 POP SWAP3 SWAP2 POP POP JUMP JUMPDEST PUSH1 0x0 PUSH1 0x20 DUP3 ADD SWAP1 POP SWAP2 SWAP1 POP JUMP JUMPDEST PUSH1 0x0 PUSH2 0x1DF6 DUP3 PUSH2 0x1CF8 JUMP JUMPDEST PUSH2 0x1E00 DUP2 DUP6 PUSH2 0x1D03 JUMP JUMPDEST SWAP4 POP DUP4 PUSH1 0x20 DUP3 MUL DUP6 ADD PUSH2 0x1E12 DUP6 PUSH2 0x1D14 JUMP JUMPDEST DUP1 PUSH1 0x0 JUMPDEST DUP6 DUP2 LT ISZERO PUSH2 0x1E4E JUMPI DUP5 DUP5 SUB DUP10 MSTORE DUP2 MLOAD PUSH2 0x1E2F DUP6 DUP3 PUSH2 0x1DCA JUMP JUMPDEST SWAP5 POP PUSH2 0x1E3A DUP4 PUSH2 0x1DDE JUMP JUMPDEST SWAP3 POP PUSH1 0x20 DUP11 ADD SWAP10 POP POP PUSH1 0x1 DUP2 ADD SWAP1 POP PUSH2 0x1E16 JUMP JUMPDEST POP DUP3 SWAP8 POP DUP8 SWAP6 POP POP POP POP POP POP SWAP3 SWAP2 POP POP JUMP JUMPDEST PUSH1 0x0 PUSH1 0x40 DUP3 ADD SWAP1 POP DUP2 DUP2 SUB PUSH1 0x0 DUP4 ADD MSTORE PUSH2 0x1E7A DUP2 DUP6 PUSH2 0x1C83 JUMP JUMPDEST SWAP1 POP DUP2 DUP2 SUB PUSH1 0x20 DUP4 ADD MSTORE PUSH2 0x1E8E DUP2 DUP5 PUSH2 0x1DEB JUMP JUMPDEST SWAP1 POP SWAP4 SWAP3 POP POP POP JUMP JUMPDEST PUSH1 0x0 PUSH2 0x1EA2 DUP3 PUSH2 0x17A4 JUMP JUMPDEST SWAP1 POP SWAP2 SWAP1 POP JUMP JUMPDEST PUSH2 0x1EB2 DUP2 PUSH2 0x1E97 JUMP JUMPDEST DUP2 EQ PUSH2 0x1EBD JUMPI PUSH1 0x0 DUP1 REVERT JUMPDEST POP JUMP JUMPDEST PUSH1 0x0 DUP2 CALLDATALOAD SWAP1 POP PUSH2 0x1ECF DUP2 PUSH2 0x1EA9 JUMP JUMPDEST SWAP3 SWAP2 POP POP JUMP JUMPDEST PUSH1 0x0 DUP1 PUSH1 0x40 DUP4 DUP6 SUB SLT ISZERO PUSH2 0x1EEC JUMPI PUSH2 0x1EEB PUSH2 0x167C JUMP JUMPDEST JUMPDEST PUSH1 0x0 PUSH2 0x1EFA DUP6 DUP3 DUP7 ADD PUSH2 0x1EC0 JUMP JUMPDEST SWAP3 POP POP PUSH1 0x20 PUSH2 0x1F0B DUP6 DUP3 DUP7 ADD PUSH2 0x16A7 JUMP JUMPDEST SWAP2 POP POP SWAP3 POP SWAP3 SWAP1 POP JUMP JUMPDEST PUSH1 0x0 DUP1 PUSH1 0x40 DUP4 DUP6 SUB SLT ISZERO PUSH2 0x1F2C JUMPI PUSH2 0x1F2B PUSH2 0x167C JUMP JUMPDEST JUMPDEST PUSH1 0x0 DUP4 ADD CALLDATALOAD PUSH8 0xFFFFFFFFFFFFFFFF DUP2 GT ISZERO PUSH2 0x1F4A JUMPI PUSH2 0x1F49 PUSH2 0x1681 JUMP JUMPDEST JUMPDEST PUSH2 0x1F56 DUP6 DUP3 DUP7 ADD PUSH2 0x1909 JUMP JUMPDEST SWAP3 POP POP PUSH1 0x20 DUP4 ADD CALLDATALOAD PUSH8 0xFFFFFFFFFFFFFFFF DUP2 GT ISZERO PUSH2 0x1F77 JUMPI PUSH2 0x1F76 PUSH2 0x1681 JUMP JUMPDEST JUMPDEST PUSH2 0x1F83 DUP6 DUP3 DUP7 ADD PUSH2 0x1909 JUMP JUMPDEST SWAP2 POP POP SWAP3 POP SWAP3 SWAP1 POP JUMP JUMPDEST PUSH1 0x0 DUP2 ISZERO ISZERO SWAP1 POP SWAP2 SWAP1 POP JUMP JUMPDEST PUSH2 0x1FA2 DUP2 PUSH2 0x1F8D JUMP JUMPDEST DUP3 MSTORE POP POP JUMP JUMPDEST PUSH1 0x0 PUSH1 0x20 DUP3 ADD SWAP1 POP PUSH2 0x1FBD PUSH1 0x0 DUP4 ADD DUP5 PUSH2 0x1F99 JUMP JUMPDEST SWAP3 SWAP2 POP POP JUMP JUMPDEST PUSH1 0x0 PUSH1 0x20 DUP3 ADD SWAP1 POP PUSH2 0x1FD8 PUSH1 0x0 DUP4 ADD DUP5 PUSH2 0x19A6 JUMP JUMPDEST SWAP3 SWAP2 POP POP JUMP JUMPDEST PUSH1 0x0 DUP1 PUSH1 0x40 DUP4 DUP6 SUB SLT ISZERO PUSH2 0x1FF5 JUMPI PUSH2 0x1FF4 PUSH2 0x167C JUMP JUMPDEST JUMPDEST PUSH1 0x0 PUSH2 0x2003 DUP6 DUP3 DUP7 ADD PUSH2 0x17ED JUMP JUMPDEST SWAP3 POP POP PUSH1 0x20 DUP4 ADD CALLDATALOAD PUSH8 0xFFFFFFFFFFFFFFFF DUP2 GT ISZERO PUSH2 0x2024 JUMPI PUSH2 0x2023 PUSH2 0x1681 JUMP JUMPDEST JUMPDEST PUSH2 0x2030 DUP6 DUP3 DUP7 ADD PUSH2 0x1909 JUMP JUMPDEST SWAP2 POP POP SWAP3 POP SWAP3 SWAP1 POP JUMP JUMPDEST PUSH32 0x4E487B7100000000000000000000000000000000000000000000000000000000 PUSH1 0x0 MSTORE PUSH1 0x22 PUSH1 0x4 MSTORE PUSH1 0x24 PUSH1 0x0 REVERT JUMPDEST PUSH1 0x0 PUSH1 0x2 DUP3 DIV SWAP1 POP PUSH1 0x1 DUP3 AND DUP1 PUSH2 0x2081 JUMPI PUSH1 0x7F DUP3 AND SWAP2 POP JUMPDEST PUSH1 0x20 DUP3 LT DUP2 SUB PUSH2 0x2094 JUMPI PUSH2 0x2093 PUSH2 0x203A JUMP JUMPDEST JUMPDEST POP SWAP2 SWAP1 POP JUMP JUMPDEST PUSH1 0x0 DUP2 SWAP1 POP SWAP3 SWAP2 POP POP JUMP JUMPDEST PUSH1 0x0 PUSH2 0x20B0 DUP3 PUSH2 0x16E9 JUMP JUMPDEST PUSH2 0x20BA DUP2 DUP6 PUSH2 0x209A JUMP JUMPDEST SWAP4 POP PUSH2 0x20CA DUP2 DUP6 PUSH1 0x20 DUP7 ADD PUSH2 0x1705 JUMP JUMPDEST DUP1 DUP5 ADD SWAP2 POP POP SWAP3 SWAP2 POP POP JUMP JUMPDEST PUSH1 0x0 PUSH2 0x20E2 DUP3 DUP5 PUSH2 0x20A5 JUMP JUMPDEST SWAP2 POP DUP2 SWAP1 POP SWAP3 SWAP2 POP POP JUMP JUMPDEST PUSH1 0x0 DUP2 SWAP1 POP DUP2 PUSH1 0x0 MSTORE PUSH1 0x20 PUSH1 0x0 KECCAK256 SWAP1 POP SWAP2 SWAP1 POP JUMP JUMPDEST PUSH1 0x0 PUSH1 0x20 PUSH1 0x1F DUP4 ADD DIV SWAP1 POP SWAP2 SWAP1 POP JUMP JUMPDEST PUSH1 0x0 DUP3 DUP3 SHL SWAP1 POP SWAP3 SWAP2 POP POP JUMP JUMPDEST PUSH1 0x0 PUSH1 0x8 DUP4 MUL PUSH2 0x214F PUSH32 0xFFFFFFFFFFFFFFFFFFFFFFFFFFFFFFFFFFFFFFFFFFFFFFFFFFFFFFFFFFFFFFFF DUP3 PUSH2 0x2112 JUMP JUMPDEST PUSH2 0x2159 DUP7 DUP4 PUSH2 0x2112 JUMP JUMPDEST SWAP6 POP DUP1 NOT DUP5 AND SWAP4 POP DUP1 DUP7 AND DUP5 OR SWAP3 POP POP POP SWAP4 SWAP3 POP POP POP JUMP JUMPDEST PUSH1 0x0 DUP2 SWAP1 POP SWAP2 SWAP1 POP JUMP JUMPDEST PUSH1 0x0 PUSH2 0x2196 PUSH2 0x2191 PUSH2 0x218C DUP5 PUSH2 0x1686 JUMP JUMPDEST PUSH2 0x2171 JUMP JUMPDEST PUSH2 0x1686 JUMP JUMPDEST SWAP1 POP SWAP2 SWAP1 POP JUMP JUMPDEST PUSH1 0x0 DUP2 SWAP1 POP SWAP2 SWAP1 POP JUMP JUMPDEST PUSH2 0x21B0 DUP4 PUSH2 0x217B JUMP JUMPDEST PUSH2 0x21C4 PUSH2 0x21BC DUP3 PUSH2 0x219D JUMP JUMPDEST DUP5 DUP5 SLOAD PUSH2 0x211F JUMP JUMPDEST DUP3 SSTORE POP POP POP POP JUMP JUMPDEST PUSH1 0x0 SWAP1 JUMP JUMPDEST PUSH2 0x21D9 PUSH2 0x21CC JUMP JUMPDEST PUSH2 0x21E4 DUP2 DUP5 DUP5 PUSH2 0x21A7 JUMP JUMPDEST POP POP POP JUMP JUMPDEST JUMPDEST DUP2 DUP2 LT ISZERO PUSH2 0x2208 JUMPI PUSH2 0x21FD PUSH1 0x0 DUP3 PUSH2 0x21D1 JUMP JUMPDEST PUSH1 0x1 DUP2 ADD SWAP1 POP PUSH2 0x21EA JUMP JUMPDEST POP POP JUMP JUMPDEST PUSH1 0x1F DUP3 GT ISZERO PUSH2 0x224D JUMPI PUSH2 0x221E DUP2 PUSH2 0x20ED JUMP JUMPDEST PUSH2 0x2227 DUP5 PUSH2 0x2102 JUMP JUMPDEST DUP2 ADD PUSH1 0x20 DUP6 LT ISZERO PUSH2 0x2236 JUMPI DUP2 SWAP1 POP JUMPDEST PUSH2 0x224A PUSH2 0x2242 DUP6 PUSH2 0x2102 JUMP JUMPDEST DUP4 ADD DUP3 PUSH2 0x21E9 JUMP JUMPDEST POP POP JUMPDEST POP POP POP JUMP JUMPDEST PUSH1 0x0 DUP3 DUP3 SHR SWAP1 POP SWAP3 SWAP2 POP POP JUMP JUMPDEST PUSH1 0x0 PUSH2 0x2270 PUSH1 0x0 NOT DUP5 PUSH1 0x8 MUL PUSH2 0x2252 JUMP JUMPDEST NOT DUP1 DUP4 AND SWAP2 POP POP SWAP3 SWAP2 POP POP JUMP JUMPDEST PUSH1 0x0 PUSH2 0x2289 DUP4 DUP4 PUSH2 0x225F JUMP JUMPDEST SWAP2 POP DUP3 PUSH1 0x2 MUL DUP3 OR SWAP1 POP SWAP3 SWAP2 POP POP JUMP JUMPDEST PUSH2 0x22A2 DUP3 PUSH2 0x16E9 JUMP JUMPDEST PUSH8 0xFFFFFFFFFFFFFFFF DUP2 GT ISZERO PUSH2 0x22BB JUMPI PUSH2 0x22BA PUSH2 0x180C JUMP JUMPDEST JUMPDEST PUSH2 0x22C5 DUP3 SLOAD PUSH2 0x2069 JUMP JUMPDEST PUSH2 0x22D0 DUP3 DUP3 DUP6 PUSH2 0x220C JUMP JUMPDEST PUSH1 0x0 PUSH1 0x20 SWAP1 POP PUSH1 0x1F DUP4 GT PUSH1 0x1 DUP2 EQ PUSH2 0x2303 JUMPI PUSH1 0x0 DUP5 ISZERO PUSH2 0x22F1 JUMPI DUP3 DUP8 ADD MLOAD SWAP1 POP JUMPDEST PUSH2 0x22FB DUP6 DUP3 PUSH2 0x227D JUMP JUMPDEST DUP7 SSTORE POP PUSH2 0x2363 JUMP JUMPDEST PUSH1 0x1F NOT DUP5 AND PUSH2 0x2311 DUP7 PUSH2 0x20ED JUMP JUMPDEST PUSH1 0x0 JUMPDEST DUP3 DUP2 LT ISZERO PUSH2 0x2339 JUMPI DUP5 DUP10 ADD MLOAD DUP3 SSTORE PUSH1 0x1 DUP3 ADD SWAP2 POP PUSH1 0x20 DUP6 ADD SWAP5 POP PUSH1 0x20 DUP2 ADD SWAP1 POP PUSH2 0x2314 JUMP JUMPDEST DUP7 DUP4 LT ISZERO PUSH2 0x2356 JUMPI DUP5 DUP10 ADD MLOAD PUSH2 0x2352 PUSH1 0x1F DUP10 AND DUP3 PUSH2 0x225F JUMP JUMPDEST DUP4 SSTORE POP JUMPDEST PUSH1 0x1 PUSH1 0x2 DUP9 MUL ADD DUP9 SSTORE POP POP POP JUMPDEST POP POP POP POP POP POP JUMP JUMPDEST PUSH32 0x4E487B7100000000000000000000000000000000000000000000000000000000 PUSH1 0x0 MSTORE PUSH1 0x11 PUSH1 0x4 MSTORE PUSH1 0x24 PUSH1 0x0 REVERT JUMPDEST PUSH1 0x0 PUSH2 0x23A5 DUP3 PUSH2 0x1686 JUMP JUMPDEST SWAP2 POP PUSH32 0xFFFFFFFFFFFFFFFFFFFFFFFFFFFFFFFFFFFFFFFFFFFFFFFFFFFFFFFFFFFFFFFF DUP3 SUB PUSH2 0x23D7 JUMPI PUSH2 0x23D6 PUSH2 0x236B JUMP JUMPDEST JUMPDEST PUSH1 0x1 DUP3 ADD SWAP1 POP SWAP2 SWAP1 POP JUMP JUMPDEST PUSH32 0x4E487B7100000000000000000000000000000000000000000000000000000000 PUSH1 0x0 MSTORE PUSH1 0x32 PUSH1 0x4 MSTORE PUSH1 0x24 PUSH1 0x0 REVERT JUMPDEST PUSH1 0x0 DUP2 SWAP1 POP SWAP3 SWAP2 POP POP JUMP JUMPDEST POP JUMP JUMPDEST PUSH1 0x0 PUSH2 0x242C PUSH1 0x0 DUP4 PUSH2 0x2411 JUMP JUMPDEST SWAP2 POP PUSH2 0x2437 DUP3 PUSH2 0x241C JUMP JUMPDEST PUSH1 0x0 DUP3 ADD SWAP1 POP SWAP2 SWAP1 POP JUMP JUMPDEST PUSH1 0x0 PUSH2 0x244D DUP3 PUSH2 0x241F JUMP JUMPDEST SWAP2 POP DUP2 SWAP1 POP SWAP2 SWAP1 POP JUMP JUMPDEST PUSH32 0x4661696C656420746F2073656E64204574686572000000000000000000000000 PUSH1 0x0 DUP3 ADD MSTORE POP JUMP JUMPDEST PUSH1 0x0 PUSH2 0x248D PUSH1 0x14 DUP4 PUSH2 0x16F4 JUMP JUMPDEST SWAP2 POP PUSH2 0x2498 DUP3 PUSH2 0x2457 JUMP JUMPDEST PUSH1 0x20 DUP3 ADD SWAP1 POP SWAP2 SWAP1 POP JUMP JUMPDEST PUSH1 0x0 PUSH1 0x20 DUP3 ADD SWAP1 POP DUP2 DUP2 SUB PUSH1 0x0 DUP4 ADD MSTORE PUSH2 0x24BC DUP2 PUSH2 0x2480 JUMP JUMPDEST SWAP1 POP SWAP2 SWAP1 POP JUMP JUMPDEST PUSH1 0x0 PUSH2 0x24CE DUP3 PUSH2 0x1686 JUMP JUMPDEST SWAP2 POP PUSH2 0x24D9 DUP4 PUSH2 0x1686 JUMP JUMPDEST SWAP3 POP DUP3 PUSH32 0xFFFFFFFFFFFFFFFFFFFFFFFFFFFFFFFFFFFFFFFFFFFFFFFFFFFFFFFFFFFFFFFF SUB DUP3 GT ISZERO PUSH2 0x250E JUMPI PUSH2 0x250D PUSH2 0x236B JUMP JUMPDEST JUMPDEST DUP3 DUP3 ADD SWAP1 POP SWAP3 SWAP2 POP POP JUMP INVALID LOG2 PUSH5 0x6970667358 0x22 SLT KECCAK256 DUP15 ADDMOD AND INVALID SWAP16 0xD1 0xE MOD MULMOD 0xD5 0xC7 PUSH30 0xB81B0AFB30850931759A37006A9EDF272469629A64736F6C634300080F00 CALLER "},"gasEstimates":{"creation":{"codeDepositCost":"1910200","executionCost":"2019","totalCost":"1912219"},"external":{"balance()":"406","dataSummaryExists(string,string)":"infinite","dataSummaryTable(address,string,address)":"infinite","deposit()":"infinite","fetchUserDataSummary(string)":"infinite","operatorAddresses(uint256)":"5001","operatorsAddrToName(address)":"infinite","operatorsNameToAddr(string)":"infinite","registerRoamingOperator(address,string)":"infinite","serviceProviders(uint256)":"infinite","totalDeposit()":"2495","transfer(address,uint256)":"infinite","uploadUserDataSummary(string,string,string,uint256,uint256,uint256)":"infinite","userTable(address,uint256)":"infinite"}},"methodIdentifiers":{"balance()":"b69ef8a8","dataSummaryExists(string,string)":"ab6a9f17","dataSummaryTable(address,string,address)":"32f97763","deposit()":"d0e30db0","fetchUserDataSummary(string)":"a8367070","operatorAddresses(uint256)":"7792a035","operatorsAddrToName(address)":"64aa65a8","operatorsNameToAddr(string)":"fd70c7dd","registerRoamingOperator(address,string)":"c7fa1063","serviceProviders(uint256)":"0a02dcc7","totalDeposit()":"f6153ccd","transfer(address,uint256)":"a9059cbb","uploadUserDataSummary(string,string,string,uint256,uint256,uint256)":"8f1d613d","userTable(address,uint256)":"6e6061d1"}},"storageLayout":{"storage":[{"astId":4,"contract":"RoamingDataManagement.sol:RoamingDataManagement","label":"serviceProviders","offset":0,"slot":"0","type":"t_array(t_string_storage)dyn_storage"},{"astId":7,"contract":"RoamingDataManagement.sol:RoamingDataManagement","label":"operatorAddresses","offset":0,"slot":"1","type":"t_array(t_address)dyn_storage"},{"astId":11,"contract":"RoamingDataManagement.sol:RoamingDataManagement","label":"operatorsAddrToName","offset":0,"slot":"2","type":"t_mapping(t_address,t_string_storage)"},{"astId":15,"contract":"RoamingDataManagement.sol:RoamingDataManagement","label":"operatorsNameToAddr","offset":0,"slot":"3","type":"t_mapping(t_string_memory_ptr,t_address)"},{"astId":17,"contract":"RoamingDataManagement.sol:RoamingDataManagement","label":"totalDeposit","offset":0,"slot":"4","type":"t_uint256"},{"astId":35,"contract":"RoamingDataManagement.sol:RoamingDataManagement","label":"userTable","offset":0,"slot":"5","type":"t_mapping(t_address,t_array(t_string_storage)dyn_storage)"},{"astId":44,"contract":"RoamingDataManagement.sol:RoamingDataManagement","label":"dataSummaryTable","offset":0,"slot":"6","type":"t_mapping(t_address,t_mapping(t_string_memory_ptr,t_mapping(t_address,t_struct(UserDataSummary)30_storage)))"},{"astId":50,"contract":"RoamingDataManagement.sol:RoamingDataManagement","label":"numOfUserDataEntries","offset":0,"slot":"7","type":"t_mapping(t_address,t_mapping(t_string_memory_ptr,t_uint256))"}],"types":{"t_address":{"encoding":"inplace","label":"address","numberOfBytes":"20"},"t_array(t_address)dyn_storage":{"base":"t_address","encoding":"dynamic_array","label":"address[]","numberOfBytes":"32"},"t_array(t_string_storage)dyn_storage":{"base":"t_string_storage","encoding":"dynamic_array","label":"string[]","numberOfBytes":"32"},"t_mapping(t_address,t_array(t_string_storage)dyn_storage)":{"encoding":"mapping","key":"t_address","label":"mapping(address => string[])","numberOfBytes":"32","value":"t_array(t_string_storage)dyn_storage"},"t_mapping(t_address,t_mapping(t_string_memory_ptr,t_mapping(t_address,t_struct(UserDataSummary)30_storage)))":{"encoding":"mapping","key":"t_address","label":"mapping(address => mapping(string => mapping(address => struct RoamingDataManagement.UserDataSummary)))","numberOfBytes":"32","value":"t_mapping(t_string_memory_ptr,t_mapping(t_address,t_struct(UserDataSummary)30_storage))"},"t_mapping(t_address,t_mapping(t_string_memory_ptr,t_uint256))":{"encoding":"mapping","key":"t_address","label":"mapping(address => mapping(string => uint256))","numberOfBytes":"32","value":"t_mapping(t_string_memory_ptr,t_uint256)"},"t_mapping(t_address,t_string_storage)":{"encoding":"mapping","key":"t_address","label":"mapping(address => string)","numberOfBytes":"32","value":"t_string_storage"},"t_mapping(t_address,t_struct(UserDataSummary)30_storage)":{"encoding":"mapping","key":"t_address","label":"mapping(address => struct RoamingDataManagement.UserDataSummary)","numberOfBytes":"32","value":"t_struct(UserDataSummary)30_storage"},"t_mapping(t_string_memory_ptr,t_address)":{"encoding":"mapping","key":"t_string_memory_ptr","label":"mapping(string => address)","numberOfBytes":"32","value":"t_address"},"t_mapping(t_string_memory_ptr,t_mapping(t_address,t_struct(UserDataSummary)30_storage))":{"encoding":"mapping","key":"t_string_memory_ptr","label":"mapping(string => mapping(address => struct RoamingDataManagement.UserDataSummary))","numberOfBytes":"32","value":"t_mapping(t_address,t_struct(UserDataSummary)30_storage)"},"t_mapping(t_string_memory_ptr,t_uint256)":{"encoding":"mapping","key":"t_string_memory_ptr","label":"mapping(string => uint256)","numberOfBytes":"32","value":"t_uint256"},"t_string_memory_ptr":{"encoding":"bytes","label":"string","numberOfBytes":"32"},"t_string_storage":{"encoding":"bytes","label":"string","numberOfBytes":"32"},"t_struct(UserDataSummary)30_storage":{"encoding":"inplace","label":"struct RoamingDataManagement.UserDataSummary","members":[{"astId":19,"contract":"RoamingDataManagement.sol:RoamingDataManagement","label":"imsi","offset":0,"slot":"0","type":"t_string_storage"},{"astId":21,"contract":"RoamingDataManagement.sol:RoamingDataManagement","label":"number","offset":0,"slot":"1","type":"t_string_storage"},{"astId":23,"contract":"RoamingDataManagement.sol:RoamingDataManagement","label":"serviceProvider","offset":0,"slot":"2","type":"t_string_storage"},{"astId":25,"contract":"RoamingDataManagement.sol:RoamingDataManagement","label":"voiceCallUsage","offset":0,"slot":"3","type":"t_uint256"},{"astId":27,"contract":"RoamingDataManagement.sol:RoamingDataManagement","label":"internetUsage","offset":0,"slot":"4","type":"t_uint256"},{"astId":29,"contract":"RoamingDataManagement.sol:RoamingDataManagement","label":"smsUsage","offset":0,"slot":"5","type":"t_uint256"}],"numberOfBytes":"192"},"t_uint256":{"encoding":"inplace","label":"uint256","numberOfBytes":"32"}}},"userdoc":{"kind":"user","methods":{},"version":1}}