{"abi":[{"inputs":[],"stateMutability":"nonpayable","type":"constructor"},{"inputs":[],"name":"balance","outputs":[{"internalType":"uint256","name":"","type":"uint256"}],"stateMutability":"view","type":"function"},{"inputs":[{"internalType":"address","name":"","type":"address"}],"name":"bank","outputs":[{"internalType":"uint256","name":"","type":"uint256"}],"stateMutability":"view","type":"function"},{"inputs":[{"internalType":"uint256","name":"","type":"uint256"}],"name":"billingHistory","outputs":[{"internalType":"address","name":"payer","type":"address"},{"internalType":"address","name":"payee","type":"address"},{"internalType":"uint256","name":"amount","type":"uint256"},{"internalType":"uint256","name":"timestamp","type":"uint256"}],"stateMutability":"view","type":"function"},{"inputs":[{"internalType":"string","name":"imsi","type":"string"},{"internalType":"string","name":"homeOperator","type":"string"}],"name":"dataSummaryExists","outputs":[{"internalType":"bool","name":"","type":"bool"}],"stateMutability":"view","type":"function"},{"inputs":[{"internalType":"address","name":"","type":"address"},{"internalType":"string","name":"","type":"string"},{"internalType":"address","name":"","type":"address"}],"name":"dataSummaryTable","outputs":[{"internalType":"string","name":"imsi","type":"string"},{"internalType":"string","name":"number","type":"string"},{"internalType":"string","name":"serviceProvider","type":"string"},{"internalType":"uint256","name":"serviceStartTime","type":"uint256"},{"internalType":"uint256","name":"voiceCallStartTime","type":"uint256"},{"internalType":"uint256","name":"smsStartTime","type":"uint256"},{"internalType":"uint256","name":"internetStartTime","type":"uint256"},{"internalType":"uint256","name":"voiceCallUsage","type":"uint256"},{"internalType":"uint256","name":"internetUsage","type":"uint256"},{"internalType":"uint256","name":"smsUsage","type":"uint256"}],"stateMutability":"view","type":"function"},{"inputs":[],"name":"deposit","outputs":[],"stateMutability":"payable","type":"function"},{"inputs":[{"internalType":"string","name":"visitingOperatorName","type":"string"}],"name":"fetchUserDataSummary","outputs":[{"internalType":"string[]","name":"","type":"string[]"},{"components":[{"internalType":"string","name":"imsi","type":"string"},{"internalType":"string","name":"number","type":"string"},{"internalType":"string","name":"serviceProvider","type":"string"},{"internalType":"uint256","name":"serviceStartTime","type":"uint256"},{"internalType":"uint256","name":"voiceCallStartTime","type":"uint256"},{"internalType":"uint256","name":"smsStartTime","type":"uint256"},{"internalType":"uint256","name":"internetStartTime","type":"uint256"},{"internalType":"uint256","name":"voiceCallUsage","type":"uint256"},{"internalType":"uint256","name":"internetUsage","type":"uint256"},{"internalType":"uint256","name":"smsUsage","type":"uint256"}],"internalType":"struct RoamingDataManagement.UserDataSummary[]","name":"","type":"tuple[]"}],"stateMutability":"view","type":"function"},{"inputs":[{"internalType":"uint256","name":"","type":"uint256"}],"name":"operatorAddresses","outputs":[{"internalType":"address","name":"","type":"address"}],"stateMutability":"view","type":"function"},{"inputs":[{"internalType":"address","name":"","type":"address"}],"name":"operatorsAddrToName","outputs":[{"internalType":"string","name":"","type":"string"}],"stateMutability":"view","type":"function"},{"inputs":[{"internalType":"string","name":"","type":"string"}],"name":"operatorsNameToAddr","outputs":[{"internalType":"address","name":"","type":"address"}],"stateMutability":"view","type":"function"},{"inputs":[{"internalType":"address","name":"operatorAddr","type":"address"},{"internalType":"string","name":"operatorName","type":"string"},{"internalType":"uint256","name":"currentTimestamp","type":"uint256"}],"name":"registerRoamingOperator","outputs":[],"stateMutability":"payable","type":"function"},{"inputs":[{"internalType":"uint256","name":"","type":"uint256"}],"name":"serviceProviders","outputs":[{"internalType":"string","name":"","type":"string"}],"stateMutability":"view","type":"function"},{"inputs":[],"name":"totalDeposit","outputs":[{"internalType":"uint256","name":"","type":"uint256"}],"stateMutability":"view","type":"function"},{"inputs":[{"internalType":"address payable","name":"_to","type":"address"},{"internalType":"uint256","name":"_amount","type":"uint256"}],"name":"transfer","outputs":[],"stateMutability":"nonpayable","type":"function"},{"inputs":[{"internalType":"string","name":"imsi","type":"string"},{"internalType":"string","name":"number","type":"string"},{"internalType":"string","name":"serviceProvider","type":"string"},{"internalType":"uint256","name":"voiceCallUsage","type":"uint256"},{"internalType":"uint256","name":"internetUsage","type":"uint256"},{"internalType":"uint256","name":"smsUsage","type":"uint256"},{"internalType":"uint256","name":"serviceStartTime","type":"uint256"},{"internalType":"uint256","name":"internetStartTime","type":"uint256"},{"internalType":"uint256","name":"voiceCallStartTime","type":"uint256"},{"internalType":"uint256","name":"smsStartTime","type":"uint256"},{"internalType":"uint256","name":"currentTimestamp","type":"uint256"}],"name":"uploadUserDataSummary","outputs":[],"stateMutability":"nonpayable","type":"function"},{"inputs":[{"internalType":"address","name":"","type":"address"},{"internalType":"uint256","name":"","type":"uint256"}],"name":"userTable","outputs":[{"internalType":"string","name":"","type":"string"}],"stateMutability":"view","type":"function"},{"stateMutability":"payable","type":"receive"}],"devdoc":{"kind":"dev","methods":{},"version":1},"evm":{"assembly":"    /* \"RoamingDataManagement.sol\":57:7029  contract RoamingDataManagement {... */\n  mstore(0x40, 0x80)\n    /* \"RoamingDataManagement.sol\":1861:1891  constructor() {... */\n  callvalue\n  dup1\n  iszero\n  tag_1\n  jumpi\n  0x00\n  dup1\n  revert\ntag_1:\n  pop\n    /* \"RoamingDataManagement.sol\":57:7029  contract RoamingDataManagement {... */\n  dataSize(sub_0)\n  dup1\n  dataOffset(sub_0)\n  0x00\n  codecopy\n  0x00\n  return\nstop\n\nsub_0: assembly {\n        /* \"RoamingDataManagement.sol\":57:7029  contract RoamingDataManagement {... */\n      mstore(0x40, 0x80)\n      jumpi(tag_1, lt(calldatasize, 0x04))\n      shr(0xe0, calldataload(0x00))\n      dup1\n      0xa9059cbb\n      gt\n      tag_19\n      jumpi\n      dup1\n      0xbdc6ab03\n      gt\n      tag_20\n      jumpi\n      dup1\n      0xbdc6ab03\n      eq\n      tag_15\n      jumpi\n      dup1\n      0xd0e30db0\n      eq\n      tag_16\n      jumpi\n      dup1\n      0xf6153ccd\n      eq\n      tag_17\n      jumpi\n      dup1\n      0xfd70c7dd\n      eq\n      tag_18\n      jumpi\n      jump(tag_2)\n    tag_20:\n      dup1\n      0xa9059cbb\n      eq\n      tag_11\n      jumpi\n      dup1\n      0xab6a9f17\n      eq\n      tag_12\n      jumpi\n      dup1\n      0xb205b4f6\n      eq\n      tag_13\n      jumpi\n      dup1\n      0xb69ef8a8\n      eq\n      tag_14\n      jumpi\n      jump(tag_2)\n    tag_19:\n      dup1\n      0x64aa65a8\n      gt\n      tag_21\n      jumpi\n      dup1\n      0x64aa65a8\n      eq\n      tag_7\n      jumpi\n      dup1\n      0x6e6061d1\n      eq\n      tag_8\n      jumpi\n      dup1\n      0x7792a035\n      eq\n      tag_9\n      jumpi\n      dup1\n      0xa8367070\n      eq\n      tag_10\n      jumpi\n      jump(tag_2)\n    tag_21:\n      dup1\n      0x0a02dcc7\n      eq\n      tag_3\n      jumpi\n      dup1\n      0x0cb31a80\n      eq\n      tag_4\n      jumpi\n      dup1\n      0x32f97763\n      eq\n      tag_5\n      jumpi\n      dup1\n      0x529a1baf\n      eq\n      tag_6\n      jumpi\n      jump(tag_2)\n    tag_1:\n      jumpi(tag_2, calldatasize)\n        /* \"RoamingDataManagement.sol\":2041:2047  1 gwei */\n      0x3b9aca00\n        /* \"RoamingDataManagement.sol\":2028:2037  msg.value */\n      callvalue\n        /* \"RoamingDataManagement.sol\":2028:2047  msg.value >= 1 gwei */\n      lt\n      iszero\n        /* \"RoamingDataManagement.sol\":2020:2048  require(msg.value >= 1 gwei) */\n      tag_24\n      jumpi\n      0x00\n      dup1\n      revert\n    tag_24:\n        /* \"RoamingDataManagement.sol\":57:7029  contract RoamingDataManagement {... */\n      stop\n    tag_2:\n      0x00\n      dup1\n      revert\n        /* \"RoamingDataManagement.sol\":522:554  string[] public serviceProviders */\n    tag_3:\n      callvalue\n      dup1\n      iszero\n      tag_25\n      jumpi\n      0x00\n      dup1\n      revert\n    tag_25:\n      pop\n      tag_26\n      0x04\n      dup1\n      calldatasize\n      sub\n      dup2\n      add\n      swap1\n      tag_27\n      swap2\n      swap1\n      tag_28\n      jump\t// in\n    tag_27:\n      tag_29\n      jump\t// in\n    tag_26:\n      mload(0x40)\n      tag_30\n      swap2\n      swap1\n      tag_31\n      jump\t// in\n    tag_30:\n      mload(0x40)\n      dup1\n      swap2\n      sub\n      swap1\n      return\n        /* \"RoamingDataManagement.sol\":1233:1270  BillingRecord[] public billingHistory */\n    tag_4:\n      callvalue\n      dup1\n      iszero\n      tag_32\n      jumpi\n      0x00\n      dup1\n      revert\n    tag_32:\n      pop\n      tag_33\n      0x04\n      dup1\n      calldatasize\n      sub\n      dup2\n      add\n      swap1\n      tag_34\n      swap2\n      swap1\n      tag_28\n      jump\t// in\n    tag_34:\n      tag_35\n      jump\t// in\n    tag_33:\n      mload(0x40)\n      tag_36\n      swap5\n      swap4\n      swap3\n      swap2\n      swap1\n      tag_37\n      jump\t// in\n    tag_36:\n      mload(0x40)\n      dup1\n      swap2\n      sub\n      swap1\n      return\n        /* \"RoamingDataManagement.sol\":1641:1739  mapping(address => mapping(string => mapping(address => UserDataSummary))) public dataSummaryTable */\n    tag_5:\n      callvalue\n      dup1\n      iszero\n      tag_38\n      jumpi\n      0x00\n      dup1\n      revert\n    tag_38:\n      pop\n      tag_39\n      0x04\n      dup1\n      calldatasize\n      sub\n      dup2\n      add\n      swap1\n      tag_40\n      swap2\n      swap1\n      tag_41\n      jump\t// in\n    tag_40:\n      tag_42\n      jump\t// in\n    tag_39:\n      mload(0x40)\n      tag_43\n      swap11\n      swap10\n      swap9\n      swap8\n      swap7\n      swap6\n      swap5\n      swap4\n      swap3\n      swap2\n      swap1\n      tag_44\n      jump\t// in\n    tag_43:\n      mload(0x40)\n      dup1\n      swap2\n      sub\n      swap1\n      return\n        /* \"RoamingDataManagement.sol\":1815:1854  mapping(address => uint256) public bank */\n    tag_6:\n      callvalue\n      dup1\n      iszero\n      tag_45\n      jumpi\n      0x00\n      dup1\n      revert\n    tag_45:\n      pop\n      tag_46\n      0x04\n      dup1\n      calldatasize\n      sub\n      dup2\n      add\n      swap1\n      tag_47\n      swap2\n      swap1\n      tag_48\n      jump\t// in\n    tag_47:\n      tag_49\n      jump\t// in\n    tag_46:\n      mload(0x40)\n      tag_50\n      swap2\n      swap1\n      tag_51\n      jump\t// in\n    tag_50:\n      mload(0x40)\n      dup1\n      swap2\n      sub\n      swap1\n      return\n        /* \"RoamingDataManagement.sol\":601:654  mapping(address => string) public operatorsAddrToName */\n    tag_7:\n      callvalue\n      dup1\n      iszero\n      tag_52\n      jumpi\n      0x00\n      dup1\n      revert\n    tag_52:\n      pop\n      tag_53\n      0x04\n      dup1\n      calldatasize\n      sub\n      dup2\n      add\n      swap1\n      tag_54\n      swap2\n      swap1\n      tag_48\n      jump\t// in\n    tag_54:\n      tag_55\n      jump\t// in\n    tag_53:\n      mload(0x40)\n      tag_56\n      swap2\n      swap1\n      tag_31\n      jump\t// in\n    tag_56:\n      mload(0x40)\n      dup1\n      swap2\n      sub\n      swap1\n      return\n        /* \"RoamingDataManagement.sol\":1363:1408  mapping(address => string[]) public userTable */\n    tag_8:\n      callvalue\n      dup1\n      iszero\n      tag_57\n      jumpi\n      0x00\n      dup1\n      revert\n    tag_57:\n      pop\n      tag_58\n      0x04\n      dup1\n      calldatasize\n      sub\n      dup2\n      add\n      swap1\n      tag_59\n      swap2\n      swap1\n      tag_60\n      jump\t// in\n    tag_59:\n      tag_61\n      jump\t// in\n    tag_58:\n      mload(0x40)\n      tag_62\n      swap2\n      swap1\n      tag_31\n      jump\t// in\n    tag_62:\n      mload(0x40)\n      dup1\n      swap2\n      sub\n      swap1\n      return\n        /* \"RoamingDataManagement.sol\":560:594  address[] public operatorAddresses */\n    tag_9:\n      callvalue\n      dup1\n      iszero\n      tag_63\n      jumpi\n      0x00\n      dup1\n      revert\n    tag_63:\n      pop\n      tag_64\n      0x04\n      dup1\n      calldatasize\n      sub\n      dup2\n      add\n      swap1\n      tag_65\n      swap2\n      swap1\n      tag_28\n      jump\t// in\n    tag_65:\n      tag_66\n      jump\t// in\n    tag_64:\n      mload(0x40)\n      tag_67\n      swap2\n      swap1\n      tag_68\n      jump\t// in\n    tag_67:\n      mload(0x40)\n      dup1\n      swap2\n      sub\n      swap1\n      return\n        /* \"RoamingDataManagement.sol\":6133:6771  function fetchUserDataSummary(string memory visitingOperatorName) public view returns(string[] memory, UserDataSummary[] memory) {... */\n    tag_10:\n      callvalue\n      dup1\n      iszero\n      tag_69\n      jumpi\n      0x00\n      dup1\n      revert\n    tag_69:\n      pop\n      tag_70\n      0x04\n      dup1\n      calldatasize\n      sub\n      dup2\n      add\n      swap1\n      tag_71\n      swap2\n      swap1\n      tag_72\n      jump\t// in\n    tag_71:\n      tag_73\n      jump\t// in\n    tag_70:\n      mload(0x40)\n      tag_74\n      swap3\n      swap2\n      swap1\n      tag_75\n      jump\t// in\n    tag_74:\n      mload(0x40)\n      dup1\n      swap2\n      sub\n      swap1\n      return\n        /* \"RoamingDataManagement.sol\":6852:7026  function transfer(address payable _to, uint _amount) public {... */\n    tag_11:\n      callvalue\n      dup1\n      iszero\n      tag_76\n      jumpi\n      0x00\n      dup1\n      revert\n    tag_76:\n      pop\n      tag_77\n      0x04\n      dup1\n      calldatasize\n      sub\n      dup2\n      add\n      swap1\n      tag_78\n      swap2\n      swap1\n      tag_79\n      jump\t// in\n    tag_78:\n      tag_80\n      jump\t// in\n    tag_77:\n      stop\n        /* \"RoamingDataManagement.sol\":5806:6000  function dataSummaryExists(string memory imsi, string memory homeOperator) public view returns(bool) {... */\n    tag_12:\n      callvalue\n      dup1\n      iszero\n      tag_81\n      jumpi\n      0x00\n      dup1\n      revert\n    tag_81:\n      pop\n      tag_82\n      0x04\n      dup1\n      calldatasize\n      sub\n      dup2\n      add\n      swap1\n      tag_83\n      swap2\n      swap1\n      tag_84\n      jump\t// in\n    tag_83:\n      tag_85\n      jump\t// in\n    tag_82:\n      mload(0x40)\n      tag_86\n      swap2\n      swap1\n      tag_87\n      jump\t// in\n    tag_86:\n      mload(0x40)\n      dup1\n      swap2\n      sub\n      swap1\n      return\n        /* \"RoamingDataManagement.sol\":3242:5800  function uploadUserDataSummary(string memory imsi, string memory number, string memory serviceProvider, ... */\n    tag_13:\n      callvalue\n      dup1\n      iszero\n      tag_88\n      jumpi\n      0x00\n      dup1\n      revert\n    tag_88:\n      pop\n      tag_89\n      0x04\n      dup1\n      calldatasize\n      sub\n      dup2\n      add\n      swap1\n      tag_90\n      swap2\n      swap1\n      tag_91\n      jump\t// in\n    tag_90:\n      tag_92\n      jump\t// in\n    tag_89:\n      stop\n        /* \"RoamingDataManagement.sol\":2061:2160  function balance() external view returns(uint256)... */\n    tag_14:\n      callvalue\n      dup1\n      iszero\n      tag_93\n      jumpi\n      0x00\n      dup1\n      revert\n    tag_93:\n      pop\n      tag_94\n      tag_95\n      jump\t// in\n    tag_94:\n      mload(0x40)\n      tag_96\n      swap2\n      swap1\n      tag_51\n      jump\t// in\n    tag_96:\n      mload(0x40)\n      dup1\n      swap2\n      sub\n      swap1\n      return\n        /* \"RoamingDataManagement.sol\":2166:3236  function registerRoamingOperator(address operatorAddr, string memory operatorName, uint256 currentTimestamp) public payable {... */\n    tag_15:\n      tag_97\n      0x04\n      dup1\n      calldatasize\n      sub\n      dup2\n      add\n      swap1\n      tag_98\n      swap2\n      swap1\n      tag_99\n      jump\t// in\n    tag_98:\n      tag_100\n      jump\t// in\n    tag_97:\n      stop\n        /* \"RoamingDataManagement.sol\":1897:1977  function deposit() public payable... */\n    tag_16:\n      tag_101\n      tag_102\n      jump\t// in\n    tag_101:\n      stop\n        /* \"RoamingDataManagement.sol\":725:749  uint public totalDeposit */\n    tag_17:\n      callvalue\n      dup1\n      iszero\n      tag_103\n      jumpi\n      0x00\n      dup1\n      revert\n    tag_103:\n      pop\n      tag_104\n      tag_105\n      jump\t// in\n    tag_104:\n      mload(0x40)\n      tag_106\n      swap2\n      swap1\n      tag_51\n      jump\t// in\n    tag_106:\n      mload(0x40)\n      dup1\n      swap2\n      sub\n      swap1\n      return\n        /* \"RoamingDataManagement.sol\":660:713  mapping(string => address) public operatorsNameToAddr */\n    tag_18:\n      callvalue\n      dup1\n      iszero\n      tag_107\n      jumpi\n      0x00\n      dup1\n      revert\n    tag_107:\n      pop\n      tag_108\n      0x04\n      dup1\n      calldatasize\n      sub\n      dup2\n      add\n      swap1\n      tag_109\n      swap2\n      swap1\n      tag_72\n      jump\t// in\n    tag_109:\n      tag_110\n      jump\t// in\n    tag_108:\n      mload(0x40)\n      tag_111\n      swap2\n      swap1\n      tag_68\n      jump\t// in\n    tag_111:\n      mload(0x40)\n      dup1\n      swap2\n      sub\n      swap1\n      return\n        /* \"RoamingDataManagement.sol\":522:554  string[] public serviceProviders */\n    tag_29:\n      0x00\n      dup2\n      dup2\n      sload\n      dup2\n      lt\n      tag_112\n      jumpi\n      0x00\n      dup1\n      revert\n    tag_112:\n      swap1\n      0x00\n      mstore\n      keccak256(0x00, 0x20)\n      add\n      0x00\n      swap2\n      pop\n      swap1\n      pop\n      dup1\n      sload\n      tag_114\n      swap1\n      tag_115\n      jump\t// in\n    tag_114:\n      dup1\n      0x1f\n      add\n      0x20\n      dup1\n      swap2\n      div\n      mul\n      0x20\n      add\n      mload(0x40)\n      swap1\n      dup2\n      add\n      0x40\n      mstore\n      dup1\n      swap3\n      swap2\n      swap1\n      dup2\n      dup2\n      mstore\n      0x20\n      add\n      dup3\n      dup1\n      sload\n      tag_116\n      swap1\n      tag_115\n      jump\t// in\n    tag_116:\n      dup1\n      iszero\n      tag_117\n      jumpi\n      dup1\n      0x1f\n      lt\n      tag_118\n      jumpi\n      0x0100\n      dup1\n      dup4\n      sload\n      div\n      mul\n      dup4\n      mstore\n      swap2\n      0x20\n      add\n      swap2\n      jump(tag_117)\n    tag_118:\n      dup3\n      add\n      swap2\n      swap1\n      0x00\n      mstore\n      keccak256(0x00, 0x20)\n      swap1\n    tag_119:\n      dup2\n      sload\n      dup2\n      mstore\n      swap1\n      0x01\n      add\n      swap1\n      0x20\n      add\n      dup1\n      dup4\n      gt\n      tag_119\n      jumpi\n      dup3\n      swap1\n      sub\n      0x1f\n      and\n      dup3\n      add\n      swap2\n    tag_117:\n      pop\n      pop\n      pop\n      pop\n      pop\n      dup2\n      jump\t// out\n        /* \"RoamingDataManagement.sol\":1233:1270  BillingRecord[] public billingHistory */\n    tag_35:\n      0x05\n      dup2\n      dup2\n      sload\n      dup2\n      lt\n      tag_120\n      jumpi\n      0x00\n      dup1\n      revert\n    tag_120:\n      swap1\n      0x00\n      mstore\n      keccak256(0x00, 0x20)\n      swap1\n      0x04\n      mul\n      add\n      0x00\n      swap2\n      pop\n      swap1\n      pop\n      dup1\n      0x00\n      add\n      0x00\n      swap1\n      sload\n      swap1\n      0x0100\n      exp\n      swap1\n      div\n      0xffffffffffffffffffffffffffffffffffffffff\n      and\n      swap1\n      dup1\n      0x01\n      add\n      0x00\n      swap1\n      sload\n      swap1\n      0x0100\n      exp\n      swap1\n      div\n      0xffffffffffffffffffffffffffffffffffffffff\n      and\n      swap1\n      dup1\n      0x02\n      add\n      sload\n      swap1\n      dup1\n      0x03\n      add\n      sload\n      swap1\n      pop\n      dup5\n      jump\t// out\n        /* \"RoamingDataManagement.sol\":1641:1739  mapping(address => mapping(string => mapping(address => UserDataSummary))) public dataSummaryTable */\n    tag_42:\n      mstore(0x20, 0x07)\n      dup3\n      0x00\n      mstore\n      keccak256(0x00, 0x40)\n      dup3\n      dup1\n      mload\n      0x20\n      dup2\n      add\n      dup3\n      add\n      dup1\n      mload\n      dup5\n      dup3\n      mstore\n      0x20\n      dup4\n      add\n      0x20\n      dup6\n      add\n      keccak256\n      dup2\n      dup4\n      mstore\n      dup1\n      swap6\n      pop\n      pop\n      pop\n      pop\n      pop\n      pop\n      0x20\n      mstore\n      dup1\n      0x00\n      mstore\n      keccak256(0x00, 0x40)\n      0x00\n      swap3\n      pop\n      swap3\n      pop\n      pop\n      pop\n      dup1\n      0x00\n      add\n      dup1\n      sload\n      tag_122\n      swap1\n      tag_115\n      jump\t// in\n    tag_122:\n      dup1\n      0x1f\n      add\n      0x20\n      dup1\n      swap2\n      div\n      mul\n      0x20\n      add\n      mload(0x40)\n      swap1\n      dup2\n      add\n      0x40\n      mstore\n      dup1\n      swap3\n      swap2\n      swap1\n      dup2\n      dup2\n      mstore\n      0x20\n      add\n      dup3\n      dup1\n      sload\n      tag_123\n      swap1\n      tag_115\n      jump\t// in\n    tag_123:\n      dup1\n      iszero\n      tag_124\n      jumpi\n      dup1\n      0x1f\n      lt\n      tag_125\n      jumpi\n      0x0100\n      dup1\n      dup4\n      sload\n      div\n      mul\n      dup4\n      mstore\n      swap2\n      0x20\n      add\n      swap2\n      jump(tag_124)\n    tag_125:\n      dup3\n      add\n      swap2\n      swap1\n      0x00\n      mstore\n      keccak256(0x00, 0x20)\n      swap1\n    tag_126:\n      dup2\n      sload\n      dup2\n      mstore\n      swap1\n      0x01\n      add\n      swap1\n      0x20\n      add\n      dup1\n      dup4\n      gt\n      tag_126\n      jumpi\n      dup3\n      swap1\n      sub\n      0x1f\n      and\n      dup3\n      add\n      swap2\n    tag_124:\n      pop\n      pop\n      pop\n      pop\n      pop\n      swap1\n      dup1\n      0x01\n      add\n      dup1\n      sload\n      tag_127\n      swap1\n      tag_115\n      jump\t// in\n    tag_127:\n      dup1\n      0x1f\n      add\n      0x20\n      dup1\n      swap2\n      div\n      mul\n      0x20\n      add\n      mload(0x40)\n      swap1\n      dup2\n      add\n      0x40\n      mstore\n      dup1\n      swap3\n      swap2\n      swap1\n      dup2\n      dup2\n      mstore\n      0x20\n      add\n      dup3\n      dup1\n      sload\n      tag_128\n      swap1\n      tag_115\n      jump\t// in\n    tag_128:\n      dup1\n      iszero\n      tag_129\n      jumpi\n      dup1\n      0x1f\n      lt\n      tag_130\n      jumpi\n      0x0100\n      dup1\n      dup4\n      sload\n      div\n      mul\n      dup4\n      mstore\n      swap2\n      0x20\n      add\n      swap2\n      jump(tag_129)\n    tag_130:\n      dup3\n      add\n      swap2\n      swap1\n      0x00\n      mstore\n      keccak256(0x00, 0x20)\n      swap1\n    tag_131:\n      dup2\n      sload\n      dup2\n      mstore\n      swap1\n      0x01\n      add\n      swap1\n      0x20\n      add\n      dup1\n      dup4\n      gt\n      tag_131\n      jumpi\n      dup3\n      swap1\n      sub\n      0x1f\n      and\n      dup3\n      add\n      swap2\n    tag_129:\n      pop\n      pop\n      pop\n      pop\n      pop\n      swap1\n      dup1\n      0x02\n      add\n      dup1\n      sload\n      tag_132\n      swap1\n      tag_115\n      jump\t// in\n    tag_132:\n      dup1\n      0x1f\n      add\n      0x20\n      dup1\n      swap2\n      div\n      mul\n      0x20\n      add\n      mload(0x40)\n      swap1\n      dup2\n      add\n      0x40\n      mstore\n      dup1\n      swap3\n      swap2\n      swap1\n      dup2\n      dup2\n      mstore\n      0x20\n      add\n      dup3\n      dup1\n      sload\n      tag_133\n      swap1\n      tag_115\n      jump\t// in\n    tag_133:\n      dup1\n      iszero\n      tag_134\n      jumpi\n      dup1\n      0x1f\n      lt\n      tag_135\n      jumpi\n      0x0100\n      dup1\n      dup4\n      sload\n      div\n      mul\n      dup4\n      mstore\n      swap2\n      0x20\n      add\n      swap2\n      jump(tag_134)\n    tag_135:\n      dup3\n      add\n      swap2\n      swap1\n      0x00\n      mstore\n      keccak256(0x00, 0x20)\n      swap1\n    tag_136:\n      dup2\n      sload\n      dup2\n      mstore\n      swap1\n      0x01\n      add\n      swap1\n      0x20\n      add\n      dup1\n      dup4\n      gt\n      tag_136\n      jumpi\n      dup3\n      swap1\n      sub\n      0x1f\n      and\n      dup3\n      add\n      swap2\n    tag_134:\n      pop\n      pop\n      pop\n      pop\n      pop\n      swap1\n      dup1\n      0x03\n      add\n      sload\n      swap1\n      dup1\n      0x04\n      add\n      sload\n      swap1\n      dup1\n      0x05\n      add\n      sload\n      swap1\n      dup1\n      0x06\n      add\n      sload\n      swap1\n      dup1\n      0x07\n      add\n      sload\n      swap1\n      dup1\n      0x08\n      add\n      sload\n      swap1\n      dup1\n      0x09\n      add\n      sload\n      swap1\n      pop\n      dup11\n      jump\t// out\n        /* \"RoamingDataManagement.sol\":1815:1854  mapping(address => uint256) public bank */\n    tag_49:\n      mstore(0x20, 0x09)\n      dup1\n      0x00\n      mstore\n      keccak256(0x00, 0x40)\n      0x00\n      swap2\n      pop\n      swap1\n      pop\n      sload\n      dup2\n      jump\t// out\n        /* \"RoamingDataManagement.sol\":601:654  mapping(address => string) public operatorsAddrToName */\n    tag_55:\n      mstore(0x20, 0x02)\n      dup1\n      0x00\n      mstore\n      keccak256(0x00, 0x40)\n      0x00\n      swap2\n      pop\n      swap1\n      pop\n      dup1\n      sload\n      tag_137\n      swap1\n      tag_115\n      jump\t// in\n    tag_137:\n      dup1\n      0x1f\n      add\n      0x20\n      dup1\n      swap2\n      div\n      mul\n      0x20\n      add\n      mload(0x40)\n      swap1\n      dup2\n      add\n      0x40\n      mstore\n      dup1\n      swap3\n      swap2\n      swap1\n      dup2\n      dup2\n      mstore\n      0x20\n      add\n      dup3\n      dup1\n      sload\n      tag_138\n      swap1\n      tag_115\n      jump\t// in\n    tag_138:\n      dup1\n      iszero\n      tag_139\n      jumpi\n      dup1\n      0x1f\n      lt\n      tag_140\n      jumpi\n      0x0100\n      dup1\n      dup4\n      sload\n      div\n      mul\n      dup4\n      mstore\n      swap2\n      0x20\n      add\n      swap2\n      jump(tag_139)\n    tag_140:\n      dup3\n      add\n      swap2\n      swap1\n      0x00\n      mstore\n      keccak256(0x00, 0x20)\n      swap1\n    tag_141:\n      dup2\n      sload\n      dup2\n      mstore\n      swap1\n      0x01\n      add\n      swap1\n      0x20\n      add\n      dup1\n      dup4\n      gt\n      tag_141\n      jumpi\n      dup3\n      swap1\n      sub\n      0x1f\n      and\n      dup3\n      add\n      swap2\n    tag_139:\n      pop\n      pop\n      pop\n      pop\n      pop\n      dup2\n      jump\t// out\n        /* \"RoamingDataManagement.sol\":1363:1408  mapping(address => string[]) public userTable */\n    tag_61:\n      mstore(0x20, 0x06)\n      dup2\n      0x00\n      mstore\n      keccak256(0x00, 0x40)\n      dup2\n      dup2\n      sload\n      dup2\n      lt\n      tag_142\n      jumpi\n      0x00\n      dup1\n      revert\n    tag_142:\n      swap1\n      0x00\n      mstore\n      keccak256(0x00, 0x20)\n      add\n      0x00\n      swap2\n      pop\n      swap2\n      pop\n      pop\n      dup1\n      sload\n      tag_144\n      swap1\n      tag_115\n      jump\t// in\n    tag_144:\n      dup1\n      0x1f\n      add\n      0x20\n      dup1\n      swap2\n      div\n      mul\n      0x20\n      add\n      mload(0x40)\n      swap1\n      dup2\n      add\n      0x40\n      mstore\n      dup1\n      swap3\n      swap2\n      swap1\n      dup2\n      dup2\n      mstore\n      0x20\n      add\n      dup3\n      dup1\n      sload\n      tag_145\n      swap1\n      tag_115\n      jump\t// in\n    tag_145:\n      dup1\n      iszero\n      tag_146\n      jumpi\n      dup1\n      0x1f\n      lt\n      tag_147\n      jumpi\n      0x0100\n      dup1\n      dup4\n      sload\n      div\n      mul\n      dup4\n      mstore\n      swap2\n      0x20\n      add\n      swap2\n      jump(tag_146)\n    tag_147:\n      dup3\n      add\n      swap2\n      swap1\n      0x00\n      mstore\n      keccak256(0x00, 0x20)\n      swap1\n    tag_148:\n      dup2\n      sload\n      dup2\n      mstore\n      swap1\n      0x01\n      add\n      swap1\n      0x20\n      add\n      dup1\n      dup4\n      gt\n      tag_148\n      jumpi\n      dup3\n      swap1\n      sub\n      0x1f\n      and\n      dup3\n      add\n      swap2\n    tag_146:\n      pop\n      pop\n      pop\n      pop\n      pop\n      dup2\n      jump\t// out\n        /* \"RoamingDataManagement.sol\":560:594  address[] public operatorAddresses */\n    tag_66:\n      0x01\n      dup2\n      dup2\n      sload\n      dup2\n      lt\n      tag_149\n      jumpi\n      0x00\n      dup1\n      revert\n    tag_149:\n      swap1\n      0x00\n      mstore\n      keccak256(0x00, 0x20)\n      add\n      0x00\n      swap2\n      pop\n      sload\n      swap1\n      0x0100\n      exp\n      swap1\n      div\n      0xffffffffffffffffffffffffffffffffffffffff\n      and\n      dup2\n      jump\t// out\n        /* \"RoamingDataManagement.sol\":6133:6771  function fetchUserDataSummary(string memory visitingOperatorName) public view returns(string[] memory, UserDataSummary[] memory) {... */\n    tag_73:\n        /* \"RoamingDataManagement.sol\":6219:6234  string[] memory */\n      0x60\n        /* \"RoamingDataManagement.sol\":6236:6260  UserDataSummary[] memory */\n      dup1\n        /* \"RoamingDataManagement.sol\":6272:6296  address homeOperatorAddr */\n      0x00\n        /* \"RoamingDataManagement.sol\":6299:6309  msg.sender */\n      caller\n        /* \"RoamingDataManagement.sol\":6272:6309  address homeOperatorAddr = msg.sender */\n      swap1\n      pop\n        /* \"RoamingDataManagement.sol\":6319:6341  string[] storage users */\n      0x00\n        /* \"RoamingDataManagement.sol\":6344:6353  userTable */\n      0x06\n        /* \"RoamingDataManagement.sol\":6344:6371  userTable[homeOperatorAddr] */\n      0x00\n        /* \"RoamingDataManagement.sol\":6354:6370  homeOperatorAddr */\n      dup4\n        /* \"RoamingDataManagement.sol\":6344:6371  userTable[homeOperatorAddr] */\n      0xffffffffffffffffffffffffffffffffffffffff\n      and\n      0xffffffffffffffffffffffffffffffffffffffff\n      and\n      dup2\n      mstore\n      0x20\n      add\n      swap1\n      dup2\n      mstore\n      0x20\n      add\n      0x00\n      keccak256\n        /* \"RoamingDataManagement.sol\":6319:6371  string[] storage users = userTable[homeOperatorAddr] */\n      swap1\n      pop\n        /* \"RoamingDataManagement.sol\":6382:6421  UserDataSummary[] memory dataSummarries */\n      0x00\n        /* \"RoamingDataManagement.sol\":6446:6455  userTable */\n      0x06\n        /* \"RoamingDataManagement.sol\":6446:6473  userTable[homeOperatorAddr] */\n      0x00\n        /* \"RoamingDataManagement.sol\":6456:6472  homeOperatorAddr */\n      dup5\n        /* \"RoamingDataManagement.sol\":6446:6473  userTable[homeOperatorAddr] */\n      0xffffffffffffffffffffffffffffffffffffffff\n      and\n      0xffffffffffffffffffffffffffffffffffffffff\n      and\n      dup2\n      mstore\n      0x20\n      add\n      swap1\n      dup2\n      mstore\n      0x20\n      add\n      0x00\n      keccak256\n        /* \"RoamingDataManagement.sol\":6446:6480  userTable[homeOperatorAddr].length */\n      dup1\n      sload\n      swap1\n      pop\n        /* \"RoamingDataManagement.sol\":6424:6481  new UserDataSummary[](userTable[homeOperatorAddr].length) */\n      0xffffffffffffffff\n      dup2\n      gt\n      iszero\n      tag_152\n      jumpi\n      tag_153\n      tag_154\n      jump\t// in\n    tag_153:\n    tag_152:\n      mload(0x40)\n      swap1\n      dup1\n      dup3\n      mstore\n      dup1\n      0x20\n      mul\n      0x20\n      add\n      dup3\n      add\n      0x40\n      mstore\n      dup1\n      iszero\n      tag_155\n      jumpi\n      dup2\n      0x20\n      add\n    tag_156:\n      tag_157\n      tag_158\n      jump\t// in\n    tag_157:\n      dup2\n      mstore\n      0x20\n      add\n      swap1\n      0x01\n      swap1\n      sub\n      swap1\n      dup2\n      tag_156\n      jumpi\n      swap1\n      pop\n    tag_155:\n      pop\n        /* \"RoamingDataManagement.sol\":6382:6481  UserDataSummary[] memory dataSummarries = new UserDataSummary[](userTable[homeOperatorAddr].length) */\n      swap1\n      pop\n        /* \"RoamingDataManagement.sol\":6496:6502  uint i */\n      0x00\n        /* \"RoamingDataManagement.sol\":6491:6702  for (uint i = 0; i < users.length; ++i) {... */\n    tag_159:\n        /* \"RoamingDataManagement.sol\":6512:6517  users */\n      dup3\n        /* \"RoamingDataManagement.sol\":6512:6524  users.length */\n      dup1\n      sload\n      swap1\n      pop\n        /* \"RoamingDataManagement.sol\":6508:6509  i */\n      dup2\n        /* \"RoamingDataManagement.sol\":6508:6524  i < users.length */\n      lt\n        /* \"RoamingDataManagement.sol\":6491:6702  for (uint i = 0; i < users.length; ++i) {... */\n      iszero\n      tag_160\n      jumpi\n        /* \"RoamingDataManagement.sol\":6545:6563  string memory imsi */\n      0x00\n        /* \"RoamingDataManagement.sol\":6566:6571  users */\n      dup4\n        /* \"RoamingDataManagement.sol\":6572:6573  i */\n      dup3\n        /* \"RoamingDataManagement.sol\":6566:6574  users[i] */\n      dup2\n      sload\n      dup2\n      lt\n      tag_162\n      jumpi\n      tag_163\n      tag_164\n      jump\t// in\n    tag_163:\n    tag_162:\n      swap1\n      0x00\n      mstore\n      keccak256(0x00, 0x20)\n      add\n        /* \"RoamingDataManagement.sol\":6545:6574  string memory imsi = users[i] */\n      dup1\n      sload\n      tag_166\n      swap1\n      tag_115\n      jump\t// in\n    tag_166:\n      dup1\n      0x1f\n      add\n      0x20\n      dup1\n      swap2\n      div\n      mul\n      0x20\n      add\n      mload(0x40)\n      swap1\n      dup2\n      add\n      0x40\n      mstore\n      dup1\n      swap3\n      swap2\n      swap1\n      dup2\n      dup2\n      mstore\n      0x20\n      add\n      dup3\n      dup1\n      sload\n      tag_167\n      swap1\n      tag_115\n      jump\t// in\n    tag_167:\n      dup1\n      iszero\n      tag_168\n      jumpi\n      dup1\n      0x1f\n      lt\n      tag_169\n      jumpi\n      0x0100\n      dup1\n      dup4\n      sload\n      div\n      mul\n      dup4\n      mstore\n      swap2\n      0x20\n      add\n      swap2\n      jump(tag_168)\n    tag_169:\n      dup3\n      add\n      swap2\n      swap1\n      0x00\n      mstore\n      keccak256(0x00, 0x20)\n      swap1\n    tag_170:\n      dup2\n      sload\n      dup2\n      mstore\n      swap1\n      0x01\n      add\n      swap1\n      0x20\n      add\n      dup1\n      dup4\n      gt\n      tag_170\n      jumpi\n      dup3\n      swap1\n      sub\n      0x1f\n      and\n      dup3\n      add\n      swap2\n    tag_168:\n      pop\n      pop\n      pop\n      pop\n      pop\n      swap1\n      pop\n        /* \"RoamingDataManagement.sol\":6608:6624  dataSummaryTable */\n      0x07\n        /* \"RoamingDataManagement.sol\":6608:6642  dataSummaryTable[homeOperatorAddr] */\n      0x00\n        /* \"RoamingDataManagement.sol\":6625:6641  homeOperatorAddr */\n      dup7\n        /* \"RoamingDataManagement.sol\":6608:6642  dataSummaryTable[homeOperatorAddr] */\n      0xffffffffffffffffffffffffffffffffffffffff\n      and\n      0xffffffffffffffffffffffffffffffffffffffff\n      and\n      dup2\n      mstore\n      0x20\n      add\n      swap1\n      dup2\n      mstore\n      0x20\n      add\n      0x00\n      keccak256\n        /* \"RoamingDataManagement.sol\":6643:6647  imsi */\n      dup2\n        /* \"RoamingDataManagement.sol\":6608:6648  dataSummaryTable[homeOperatorAddr][imsi] */\n      mload(0x40)\n      tag_171\n      swap2\n      swap1\n      tag_172\n      jump\t// in\n    tag_171:\n      swap1\n      dup2\n      mstore\n      0x20\n      add\n      mload(0x40)\n      dup1\n      swap2\n      sub\n      swap1\n      keccak256\n        /* \"RoamingDataManagement.sol\":6608:6691  dataSummaryTable[homeOperatorAddr][imsi][operatorsNameToAddr[visitingOperatorName]] */\n      0x00\n        /* \"RoamingDataManagement.sol\":6649:6668  operatorsNameToAddr */\n      0x03\n        /* \"RoamingDataManagement.sol\":6669:6689  visitingOperatorName */\n      dup11\n        /* \"RoamingDataManagement.sol\":6649:6690  operatorsNameToAddr[visitingOperatorName] */\n      mload(0x40)\n      tag_173\n      swap2\n      swap1\n      tag_172\n      jump\t// in\n    tag_173:\n      swap1\n      dup2\n      mstore\n      0x20\n      add\n      mload(0x40)\n      dup1\n      swap2\n      sub\n      swap1\n      keccak256\n      0x00\n      swap1\n      sload\n      swap1\n      0x0100\n      exp\n      swap1\n      div\n      0xffffffffffffffffffffffffffffffffffffffff\n      and\n        /* \"RoamingDataManagement.sol\":6608:6691  dataSummaryTable[homeOperatorAddr][imsi][operatorsNameToAddr[visitingOperatorName]] */\n      0xffffffffffffffffffffffffffffffffffffffff\n      and\n      0xffffffffffffffffffffffffffffffffffffffff\n      and\n      dup2\n      mstore\n      0x20\n      add\n      swap1\n      dup2\n      mstore\n      0x20\n      add\n      0x00\n      keccak256\n        /* \"RoamingDataManagement.sol\":6588:6691  dataSummarries[i] = dataSummaryTable[homeOperatorAddr][imsi][operatorsNameToAddr[visitingOperatorName]] */\n      mload(0x40)\n      dup1\n      0x0140\n      add\n      0x40\n      mstore\n      swap1\n      dup2\n      0x00\n      dup3\n      add\n      dup1\n      sload\n      tag_174\n      swap1\n      tag_115\n      jump\t// in\n    tag_174:\n      dup1\n      0x1f\n      add\n      0x20\n      dup1\n      swap2\n      div\n      mul\n      0x20\n      add\n      mload(0x40)\n      swap1\n      dup2\n      add\n      0x40\n      mstore\n      dup1\n      swap3\n      swap2\n      swap1\n      dup2\n      dup2\n      mstore\n      0x20\n      add\n      dup3\n      dup1\n      sload\n      tag_175\n      swap1\n      tag_115\n      jump\t// in\n    tag_175:\n      dup1\n      iszero\n      tag_176\n      jumpi\n      dup1\n      0x1f\n      lt\n      tag_177\n      jumpi\n      0x0100\n      dup1\n      dup4\n      sload\n      div\n      mul\n      dup4\n      mstore\n      swap2\n      0x20\n      add\n      swap2\n      jump(tag_176)\n    tag_177:\n      dup3\n      add\n      swap2\n      swap1\n      0x00\n      mstore\n      keccak256(0x00, 0x20)\n      swap1\n    tag_178:\n      dup2\n      sload\n      dup2\n      mstore\n      swap1\n      0x01\n      add\n      swap1\n      0x20\n      add\n      dup1\n      dup4\n      gt\n      tag_178\n      jumpi\n      dup3\n      swap1\n      sub\n      0x1f\n      and\n      dup3\n      add\n      swap2\n    tag_176:\n      pop\n      pop\n      pop\n      pop\n      pop\n      dup2\n      mstore\n      0x20\n      add\n      0x01\n      dup3\n      add\n      dup1\n      sload\n      tag_179\n      swap1\n      tag_115\n      jump\t// in\n    tag_179:\n      dup1\n      0x1f\n      add\n      0x20\n      dup1\n      swap2\n      div\n      mul\n      0x20\n      add\n      mload(0x40)\n      swap1\n      dup2\n      add\n      0x40\n      mstore\n      dup1\n      swap3\n      swap2\n      swap1\n      dup2\n      dup2\n      mstore\n      0x20\n      add\n      dup3\n      dup1\n      sload\n      tag_180\n      swap1\n      tag_115\n      jump\t// in\n    tag_180:\n      dup1\n      iszero\n      tag_181\n      jumpi\n      dup1\n      0x1f\n      lt\n      tag_182\n      jumpi\n      0x0100\n      dup1\n      dup4\n      sload\n      div\n      mul\n      dup4\n      mstore\n      swap2\n      0x20\n      add\n      swap2\n      jump(tag_181)\n    tag_182:\n      dup3\n      add\n      swap2\n      swap1\n      0x00\n      mstore\n      keccak256(0x00, 0x20)\n      swap1\n    tag_183:\n      dup2\n      sload\n      dup2\n      mstore\n      swap1\n      0x01\n      add\n      swap1\n      0x20\n      add\n      dup1\n      dup4\n      gt\n      tag_183\n      jumpi\n      dup3\n      swap1\n      sub\n      0x1f\n      and\n      dup3\n      add\n      swap2\n    tag_181:\n      pop\n      pop\n      pop\n      pop\n      pop\n      dup2\n      mstore\n      0x20\n      add\n      0x02\n      dup3\n      add\n      dup1\n      sload\n      tag_184\n      swap1\n      tag_115\n      jump\t// in\n    tag_184:\n      dup1\n      0x1f\n      add\n      0x20\n      dup1\n      swap2\n      div\n      mul\n      0x20\n      add\n      mload(0x40)\n      swap1\n      dup2\n      add\n      0x40\n      mstore\n      dup1\n      swap3\n      swap2\n      swap1\n      dup2\n      dup2\n      mstore\n      0x20\n      add\n      dup3\n      dup1\n      sload\n      tag_185\n      swap1\n      tag_115\n      jump\t// in\n    tag_185:\n      dup1\n      iszero\n      tag_186\n      jumpi\n      dup1\n      0x1f\n      lt\n      tag_187\n      jumpi\n      0x0100\n      dup1\n      dup4\n      sload\n      div\n      mul\n      dup4\n      mstore\n      swap2\n      0x20\n      add\n      swap2\n      jump(tag_186)\n    tag_187:\n      dup3\n      add\n      swap2\n      swap1\n      0x00\n      mstore\n      keccak256(0x00, 0x20)\n      swap1\n    tag_188:\n      dup2\n      sload\n      dup2\n      mstore\n      swap1\n      0x01\n      add\n      swap1\n      0x20\n      add\n      dup1\n      dup4\n      gt\n      tag_188\n      jumpi\n      dup3\n      swap1\n      sub\n      0x1f\n      and\n      dup3\n      add\n      swap2\n    tag_186:\n      pop\n      pop\n      pop\n      pop\n      pop\n      dup2\n      mstore\n      0x20\n      add\n      0x03\n      dup3\n      add\n      sload\n      dup2\n      mstore\n      0x20\n      add\n      0x04\n      dup3\n      add\n      sload\n      dup2\n      mstore\n      0x20\n      add\n      0x05\n      dup3\n      add\n      sload\n      dup2\n      mstore\n      0x20\n      add\n      0x06\n      dup3\n      add\n      sload\n      dup2\n      mstore\n      0x20\n      add\n      0x07\n      dup3\n      add\n      sload\n      dup2\n      mstore\n      0x20\n      add\n      0x08\n      dup3\n      add\n      sload\n      dup2\n      mstore\n      0x20\n      add\n      0x09\n      dup3\n      add\n      sload\n      dup2\n      mstore\n      pop\n      pop\n        /* \"RoamingDataManagement.sol\":6588:6602  dataSummarries */\n      dup4\n        /* \"RoamingDataManagement.sol\":6603:6604  i */\n      dup4\n        /* \"RoamingDataManagement.sol\":6588:6605  dataSummarries[i] */\n      dup2\n      mload\n      dup2\n      lt\n      tag_189\n      jumpi\n      tag_190\n      tag_164\n      jump\t// in\n    tag_190:\n    tag_189:\n      0x20\n      mul\n      0x20\n      add\n      add\n        /* \"RoamingDataManagement.sol\":6588:6691  dataSummarries[i] = dataSummaryTable[homeOperatorAddr][imsi][operatorsNameToAddr[visitingOperatorName]] */\n      dup2\n      swap1\n      mstore\n      pop\n        /* \"RoamingDataManagement.sol\":6531:6702  {... */\n      pop\n        /* \"RoamingDataManagement.sol\":6526:6529  ++i */\n      dup1\n      tag_191\n      swap1\n      tag_192\n      jump\t// in\n    tag_191:\n      swap1\n      pop\n        /* \"RoamingDataManagement.sol\":6491:6702  for (uint i = 0; i < users.length; ++i) {... */\n      jump(tag_159)\n    tag_160:\n      pop\n        /* \"RoamingDataManagement.sol\":6720:6729  userTable */\n      0x06\n        /* \"RoamingDataManagement.sol\":6720:6747  userTable[homeOperatorAddr] */\n      0x00\n        /* \"RoamingDataManagement.sol\":6730:6746  homeOperatorAddr */\n      dup5\n        /* \"RoamingDataManagement.sol\":6720:6747  userTable[homeOperatorAddr] */\n      0xffffffffffffffffffffffffffffffffffffffff\n      and\n      0xffffffffffffffffffffffffffffffffffffffff\n      and\n      dup2\n      mstore\n      0x20\n      add\n      swap1\n      dup2\n      mstore\n      0x20\n      add\n      0x00\n      keccak256\n        /* \"RoamingDataManagement.sol\":6749:6763  dataSummarries */\n      dup2\n        /* \"RoamingDataManagement.sol\":6712:6764  return (userTable[homeOperatorAddr], dataSummarries) */\n      dup2\n      dup1\n      sload\n      dup1\n      0x20\n      mul\n      0x20\n      add\n      mload(0x40)\n      swap1\n      dup2\n      add\n      0x40\n      mstore\n      dup1\n      swap3\n      swap2\n      swap1\n      dup2\n      dup2\n      mstore\n      0x20\n      add\n      0x00\n      swap1\n    tag_193:\n      dup3\n      dup3\n      lt\n      iszero\n      tag_194\n      jumpi\n      dup4\n      dup3\n      swap1\n      0x00\n      mstore\n      keccak256(0x00, 0x20)\n      add\n      dup1\n      sload\n      tag_196\n      swap1\n      tag_115\n      jump\t// in\n    tag_196:\n      dup1\n      0x1f\n      add\n      0x20\n      dup1\n      swap2\n      div\n      mul\n      0x20\n      add\n      mload(0x40)\n      swap1\n      dup2\n      add\n      0x40\n      mstore\n      dup1\n      swap3\n      swap2\n      swap1\n      dup2\n      dup2\n      mstore\n      0x20\n      add\n      dup3\n      dup1\n      sload\n      tag_197\n      swap1\n      tag_115\n      jump\t// in\n    tag_197:\n      dup1\n      iszero\n      tag_198\n      jumpi\n      dup1\n      0x1f\n      lt\n      tag_199\n      jumpi\n      0x0100\n      dup1\n      dup4\n      sload\n      div\n      mul\n      dup4\n      mstore\n      swap2\n      0x20\n      add\n      swap2\n      jump(tag_198)\n    tag_199:\n      dup3\n      add\n      swap2\n      swap1\n      0x00\n      mstore\n      keccak256(0x00, 0x20)\n      swap1\n    tag_200:\n      dup2\n      sload\n      dup2\n      mstore\n      swap1\n      0x01\n      add\n      swap1\n      0x20\n      add\n      dup1\n      dup4\n      gt\n      tag_200\n      jumpi\n      dup3\n      swap1\n      sub\n      0x1f\n      and\n      dup3\n      add\n      swap2\n    tag_198:\n      pop\n      pop\n      pop\n      pop\n      pop\n      dup2\n      mstore\n      0x20\n      add\n      swap1\n      0x01\n      add\n      swap1\n      jump(tag_193)\n    tag_194:\n      pop\n      pop\n      pop\n      pop\n      swap2\n      pop\n      swap5\n      pop\n      swap5\n      pop\n      pop\n      pop\n      pop\n        /* \"RoamingDataManagement.sol\":6133:6771  function fetchUserDataSummary(string memory visitingOperatorName) public view returns(string[] memory, UserDataSummary[] memory) {... */\n      swap2\n      pop\n      swap2\n      jump\t// out\n        /* \"RoamingDataManagement.sol\":6852:7026  function transfer(address payable _to, uint _amount) public {... */\n    tag_80:\n        /* \"RoamingDataManagement.sol\":6923:6935  bool success */\n      0x00\n        /* \"RoamingDataManagement.sol\":6941:6944  _to */\n      dup3\n        /* \"RoamingDataManagement.sol\":6941:6949  _to.call */\n      0xffffffffffffffffffffffffffffffffffffffff\n      and\n        /* \"RoamingDataManagement.sol\":6957:6964  _amount */\n      dup3\n        /* \"RoamingDataManagement.sol\":6941:6969  _to.call{value: _amount}(\"\") */\n      mload(0x40)\n      tag_202\n      swap1\n      tag_203\n      jump\t// in\n    tag_202:\n      0x00\n      mload(0x40)\n      dup1\n      dup4\n      sub\n      dup2\n      dup6\n      dup8\n      gas\n      call\n      swap3\n      pop\n      pop\n      pop\n      returndatasize\n      dup1\n      0x00\n      dup2\n      eq\n      tag_206\n      jumpi\n      mload(0x40)\n      swap2\n      pop\n      and(add(returndatasize, 0x3f), not(0x1f))\n      dup3\n      add\n      0x40\n      mstore\n      returndatasize\n      dup3\n      mstore\n      returndatasize\n      0x00\n      0x20\n      dup5\n      add\n      returndatacopy\n      jump(tag_205)\n    tag_206:\n      0x60\n      swap2\n      pop\n    tag_205:\n      pop\n        /* \"RoamingDataManagement.sol\":6922:6969  (bool success, ) = _to.call{value: _amount}(\"\") */\n      pop\n      swap1\n      pop\n        /* \"RoamingDataManagement.sol\":6987:6994  success */\n      dup1\n        /* \"RoamingDataManagement.sol\":6979:7019  require(success, \"Failed to send Ether\") */\n      tag_207\n      jumpi\n      mload(0x40)\n      0x08c379a000000000000000000000000000000000000000000000000000000000\n      dup2\n      mstore\n      0x04\n      add\n      tag_208\n      swap1\n      tag_209\n      jump\t// in\n    tag_208:\n      mload(0x40)\n      dup1\n      swap2\n      sub\n      swap1\n      revert\n    tag_207:\n        /* \"RoamingDataManagement.sol\":6912:7026  {... */\n      pop\n        /* \"RoamingDataManagement.sol\":6852:7026  function transfer(address payable _to, uint _amount) public {... */\n      pop\n      pop\n      jump\t// out\n        /* \"RoamingDataManagement.sol\":5806:6000  function dataSummaryExists(string memory imsi, string memory homeOperator) public view returns(bool) {... */\n    tag_85:\n        /* \"RoamingDataManagement.sol\":5901:5905  bool */\n      0x00\n        /* \"RoamingDataManagement.sol\":5991:5992  0 */\n      dup1\n        /* \"RoamingDataManagement.sol\":5926:5946  numOfUserDataEntries */\n      0x08\n        /* \"RoamingDataManagement.sol\":5926:5981  numOfUserDataEntries[operatorsNameToAddr[homeOperator]] */\n      0x00\n        /* \"RoamingDataManagement.sol\":5947:5966  operatorsNameToAddr */\n      0x03\n        /* \"RoamingDataManagement.sol\":5967:5979  homeOperator */\n      dup6\n        /* \"RoamingDataManagement.sol\":5947:5980  operatorsNameToAddr[homeOperator] */\n      mload(0x40)\n      tag_211\n      swap2\n      swap1\n      tag_172\n      jump\t// in\n    tag_211:\n      swap1\n      dup2\n      mstore\n      0x20\n      add\n      mload(0x40)\n      dup1\n      swap2\n      sub\n      swap1\n      keccak256\n      0x00\n      swap1\n      sload\n      swap1\n      0x0100\n      exp\n      swap1\n      div\n      0xffffffffffffffffffffffffffffffffffffffff\n      and\n        /* \"RoamingDataManagement.sol\":5926:5981  numOfUserDataEntries[operatorsNameToAddr[homeOperator]] */\n      0xffffffffffffffffffffffffffffffffffffffff\n      and\n      0xffffffffffffffffffffffffffffffffffffffff\n      and\n      dup2\n      mstore\n      0x20\n      add\n      swap1\n      dup2\n      mstore\n      0x20\n      add\n      0x00\n      keccak256\n        /* \"RoamingDataManagement.sol\":5982:5986  imsi */\n      dup5\n        /* \"RoamingDataManagement.sol\":5926:5987  numOfUserDataEntries[operatorsNameToAddr[homeOperator]][imsi] */\n      mload(0x40)\n      tag_212\n      swap2\n      swap1\n      tag_172\n      jump\t// in\n    tag_212:\n      swap1\n      dup2\n      mstore\n      0x20\n      add\n      mload(0x40)\n      dup1\n      swap2\n      sub\n      swap1\n      keccak256\n      sload\n        /* \"RoamingDataManagement.sol\":5926:5992  numOfUserDataEntries[operatorsNameToAddr[homeOperator]][imsi] == 0 */\n      eq\n        /* \"RoamingDataManagement.sol\":5924:5993  !(numOfUserDataEntries[operatorsNameToAddr[homeOperator]][imsi] == 0) */\n      iszero\n        /* \"RoamingDataManagement.sol\":5917:5993  return !(numOfUserDataEntries[operatorsNameToAddr[homeOperator]][imsi] == 0) */\n      swap1\n      pop\n        /* \"RoamingDataManagement.sol\":5806:6000  function dataSummaryExists(string memory imsi, string memory homeOperator) public view returns(bool) {... */\n      swap3\n      swap2\n      pop\n      pop\n      jump\t// out\n        /* \"RoamingDataManagement.sol\":3242:5800  function uploadUserDataSummary(string memory imsi, string memory number, string memory serviceProvider, ... */\n    tag_92:\n        /* \"RoamingDataManagement.sol\":3567:3591  address visitingOperator */\n      0x00\n        /* \"RoamingDataManagement.sol\":3594:3604  msg.sender */\n      caller\n        /* \"RoamingDataManagement.sol\":3567:3604  address visitingOperator = msg.sender */\n      swap1\n      pop\n        /* \"RoamingDataManagement.sol\":3677:3678  0 */\n      0x00\n        /* \"RoamingDataManagement.sol\":3628:3647  operatorsAddrToName */\n      0x02\n        /* \"RoamingDataManagement.sol\":3628:3665  operatorsAddrToName[visitingOperator] */\n      0x00\n        /* \"RoamingDataManagement.sol\":3648:3664  visitingOperator */\n      dup4\n        /* \"RoamingDataManagement.sol\":3628:3665  operatorsAddrToName[visitingOperator] */\n      0xffffffffffffffffffffffffffffffffffffffff\n      and\n      0xffffffffffffffffffffffffffffffffffffffff\n      and\n      dup2\n      mstore\n      0x20\n      add\n      swap1\n      dup2\n      mstore\n      0x20\n      add\n      0x00\n      keccak256\n        /* \"RoamingDataManagement.sol\":3622:3673  bytes(operatorsAddrToName[visitingOperator]).length */\n      dup1\n      sload\n      tag_214\n      swap1\n      tag_115\n      jump\t// in\n    tag_214:\n      swap1\n      pop\n        /* \"RoamingDataManagement.sol\":3622:3678  bytes(operatorsAddrToName[visitingOperator]).length != 0 */\n      sub\n        /* \"RoamingDataManagement.sol\":3614:3679  require(bytes(operatorsAddrToName[visitingOperator]).length != 0) */\n      tag_215\n      jumpi\n      0x00\n      dup1\n      revert\n    tag_215:\n        /* \"RoamingDataManagement.sol\":3745:3748  0x0 */\n      0x00\n        /* \"RoamingDataManagement.sol\":3697:3749  operatorsNameToAddr[serviceProvider] != address(0x0) */\n      0xffffffffffffffffffffffffffffffffffffffff\n      and\n        /* \"RoamingDataManagement.sol\":3697:3716  operatorsNameToAddr */\n      0x03\n        /* \"RoamingDataManagement.sol\":3717:3732  serviceProvider */\n      dup12\n        /* \"RoamingDataManagement.sol\":3697:3733  operatorsNameToAddr[serviceProvider] */\n      mload(0x40)\n      tag_216\n      swap2\n      swap1\n      tag_172\n      jump\t// in\n    tag_216:\n      swap1\n      dup2\n      mstore\n      0x20\n      add\n      mload(0x40)\n      dup1\n      swap2\n      sub\n      swap1\n      keccak256\n      0x00\n      swap1\n      sload\n      swap1\n      0x0100\n      exp\n      swap1\n      div\n      0xffffffffffffffffffffffffffffffffffffffff\n      and\n        /* \"RoamingDataManagement.sol\":3697:3749  operatorsNameToAddr[serviceProvider] != address(0x0) */\n      0xffffffffffffffffffffffffffffffffffffffff\n      and\n      sub\n        /* \"RoamingDataManagement.sol\":3689:3750  require(operatorsNameToAddr[serviceProvider] != address(0x0)) */\n      tag_217\n      jumpi\n      0x00\n      dup1\n      revert\n    tag_217:\n        /* \"RoamingDataManagement.sol\":3814:3819  1 wei */\n      0x01\n        /* \"RoamingDataManagement.sol\":3768:3772  bank */\n      0x09\n        /* \"RoamingDataManagement.sol\":3768:3810  bank[operatorsNameToAddr[serviceProvider]] */\n      0x00\n        /* \"RoamingDataManagement.sol\":3773:3792  operatorsNameToAddr */\n      0x03\n        /* \"RoamingDataManagement.sol\":3793:3808  serviceProvider */\n      dup14\n        /* \"RoamingDataManagement.sol\":3773:3809  operatorsNameToAddr[serviceProvider] */\n      mload(0x40)\n      tag_218\n      swap2\n      swap1\n      tag_172\n      jump\t// in\n    tag_218:\n      swap1\n      dup2\n      mstore\n      0x20\n      add\n      mload(0x40)\n      dup1\n      swap2\n      sub\n      swap1\n      keccak256\n      0x00\n      swap1\n      sload\n      swap1\n      0x0100\n      exp\n      swap1\n      div\n      0xffffffffffffffffffffffffffffffffffffffff\n      and\n        /* \"RoamingDataManagement.sol\":3768:3810  bank[operatorsNameToAddr[serviceProvider]] */\n      0xffffffffffffffffffffffffffffffffffffffff\n      and\n      0xffffffffffffffffffffffffffffffffffffffff\n      and\n      dup2\n      mstore\n      0x20\n      add\n      swap1\n      dup2\n      mstore\n      0x20\n      add\n      0x00\n      keccak256\n      sload\n        /* \"RoamingDataManagement.sol\":3768:3819  bank[operatorsNameToAddr[serviceProvider]] >= 1 wei */\n      lt\n      iszero\n        /* \"RoamingDataManagement.sol\":3760:3820  require(bank[operatorsNameToAddr[serviceProvider]] >= 1 wei) */\n      tag_219\n      jumpi\n      0x00\n      dup1\n      revert\n    tag_219:\n        /* \"RoamingDataManagement.sol\":3831:3912  mapping(string => mapping(address => UserDataSummary)) storage userToSummaryTable */\n      0x00\n        /* \"RoamingDataManagement.sol\":3915:3931  dataSummaryTable */\n      0x07\n        /* \"RoamingDataManagement.sol\":3915:3969  dataSummaryTable[operatorsNameToAddr[serviceProvider]] */\n      0x00\n        /* \"RoamingDataManagement.sol\":3932:3951  operatorsNameToAddr */\n      0x03\n        /* \"RoamingDataManagement.sol\":3952:3967  serviceProvider */\n      dup14\n        /* \"RoamingDataManagement.sol\":3932:3968  operatorsNameToAddr[serviceProvider] */\n      mload(0x40)\n      tag_220\n      swap2\n      swap1\n      tag_172\n      jump\t// in\n    tag_220:\n      swap1\n      dup2\n      mstore\n      0x20\n      add\n      mload(0x40)\n      dup1\n      swap2\n      sub\n      swap1\n      keccak256\n      0x00\n      swap1\n      sload\n      swap1\n      0x0100\n      exp\n      swap1\n      div\n      0xffffffffffffffffffffffffffffffffffffffff\n      and\n        /* \"RoamingDataManagement.sol\":3915:3969  dataSummaryTable[operatorsNameToAddr[serviceProvider]] */\n      0xffffffffffffffffffffffffffffffffffffffff\n      and\n      0xffffffffffffffffffffffffffffffffffffffff\n      and\n      dup2\n      mstore\n      0x20\n      add\n      swap1\n      dup2\n      mstore\n      0x20\n      add\n      0x00\n      keccak256\n        /* \"RoamingDataManagement.sol\":3831:3969  mapping(string => mapping(address => UserDataSummary)) storage userToSummaryTable = dataSummaryTable[operatorsNameToAddr[serviceProvider]] */\n      swap1\n      pop\n        /* \"RoamingDataManagement.sol\":3984:4024  dataSummaryExists(imsi, serviceProvider) */\n      tag_221\n        /* \"RoamingDataManagement.sol\":4002:4006  imsi */\n      dup14\n        /* \"RoamingDataManagement.sol\":4008:4023  serviceProvider */\n      dup13\n        /* \"RoamingDataManagement.sol\":3984:4001  dataSummaryExists */\n      tag_85\n        /* \"RoamingDataManagement.sol\":3984:4024  dataSummaryExists(imsi, serviceProvider) */\n      jump\t// in\n    tag_221:\n        /* \"RoamingDataManagement.sol\":3979:4189  if (!dataSummaryExists(imsi, serviceProvider)) {... */\n      tag_222\n      jumpi\n        /* \"RoamingDataManagement.sol\":4040:4049  userTable */\n      0x06\n        /* \"RoamingDataManagement.sol\":4040:4087  userTable[operatorsNameToAddr[serviceProvider]] */\n      0x00\n        /* \"RoamingDataManagement.sol\":4050:4069  operatorsNameToAddr */\n      0x03\n        /* \"RoamingDataManagement.sol\":4070:4085  serviceProvider */\n      dup14\n        /* \"RoamingDataManagement.sol\":4050:4086  operatorsNameToAddr[serviceProvider] */\n      mload(0x40)\n      tag_223\n      swap2\n      swap1\n      tag_172\n      jump\t// in\n    tag_223:\n      swap1\n      dup2\n      mstore\n      0x20\n      add\n      mload(0x40)\n      dup1\n      swap2\n      sub\n      swap1\n      keccak256\n      0x00\n      swap1\n      sload\n      swap1\n      0x0100\n      exp\n      swap1\n      div\n      0xffffffffffffffffffffffffffffffffffffffff\n      and\n        /* \"RoamingDataManagement.sol\":4040:4087  userTable[operatorsNameToAddr[serviceProvider]] */\n      0xffffffffffffffffffffffffffffffffffffffff\n      and\n      0xffffffffffffffffffffffffffffffffffffffff\n      and\n      dup2\n      mstore\n      0x20\n      add\n      swap1\n      dup2\n      mstore\n      0x20\n      add\n      0x00\n      keccak256\n        /* \"RoamingDataManagement.sol\":4093:4097  imsi */\n      dup14\n        /* \"RoamingDataManagement.sol\":4040:4098  userTable[operatorsNameToAddr[serviceProvider]].push(imsi) */\n      swap1\n      dup1\n      0x01\n      dup2\n      sload\n      add\n      dup1\n      dup3\n      sstore\n      dup1\n      swap2\n      pop\n      pop\n      0x01\n      swap1\n      sub\n      swap1\n      0x00\n      mstore\n      keccak256(0x00, 0x20)\n      add\n      0x00\n      swap1\n      swap2\n      swap1\n      swap2\n      swap1\n      swap2\n      pop\n      swap1\n      dup2\n      tag_225\n      swap2\n      swap1\n      tag_226\n      jump\t// in\n    tag_225:\n      pop\n        /* \"RoamingDataManagement.sol\":4112:4132  numOfUserDataEntries */\n      0x08\n        /* \"RoamingDataManagement.sol\":4112:4170  numOfUserDataEntries[operatorsNameToAddr[serviceProvider]] */\n      0x00\n        /* \"RoamingDataManagement.sol\":4133:4152  operatorsNameToAddr */\n      0x03\n        /* \"RoamingDataManagement.sol\":4153:4168  serviceProvider */\n      dup14\n        /* \"RoamingDataManagement.sol\":4133:4169  operatorsNameToAddr[serviceProvider] */\n      mload(0x40)\n      tag_227\n      swap2\n      swap1\n      tag_172\n      jump\t// in\n    tag_227:\n      swap1\n      dup2\n      mstore\n      0x20\n      add\n      mload(0x40)\n      dup1\n      swap2\n      sub\n      swap1\n      keccak256\n      0x00\n      swap1\n      sload\n      swap1\n      0x0100\n      exp\n      swap1\n      div\n      0xffffffffffffffffffffffffffffffffffffffff\n      and\n        /* \"RoamingDataManagement.sol\":4112:4170  numOfUserDataEntries[operatorsNameToAddr[serviceProvider]] */\n      0xffffffffffffffffffffffffffffffffffffffff\n      and\n      0xffffffffffffffffffffffffffffffffffffffff\n      and\n      dup2\n      mstore\n      0x20\n      add\n      swap1\n      dup2\n      mstore\n      0x20\n      add\n      0x00\n      keccak256\n        /* \"RoamingDataManagement.sol\":4171:4175  imsi */\n      dup14\n        /* \"RoamingDataManagement.sol\":4112:4176  numOfUserDataEntries[operatorsNameToAddr[serviceProvider]][imsi] */\n      mload(0x40)\n      tag_228\n      swap2\n      swap1\n      tag_172\n      jump\t// in\n    tag_228:\n      swap1\n      dup2\n      mstore\n      0x20\n      add\n      mload(0x40)\n      dup1\n      swap2\n      sub\n      swap1\n      keccak256\n      0x00\n        /* \"RoamingDataManagement.sol\":4112:4178  numOfUserDataEntries[operatorsNameToAddr[serviceProvider]][imsi]++ */\n      dup2\n      sload\n      dup1\n      swap3\n      swap2\n      swap1\n      tag_229\n      swap1\n      tag_192\n      jump\t// in\n    tag_229:\n      swap2\n      swap1\n      pop\n      sstore\n      pop\n        /* \"RoamingDataManagement.sol\":3979:4189  if (!dataSummaryExists(imsi, serviceProvider)) {... */\n    tag_222:\n        /* \"RoamingDataManagement.sol\":4207:4287  mapping(address => UserDataSummary) storage usageSummaryTablePerVisitingOperator */\n      0x00\n        /* \"RoamingDataManagement.sol\":4290:4308  userToSummaryTable */\n      dup2\n        /* \"RoamingDataManagement.sol\":4309:4313  imsi */\n      dup15\n        /* \"RoamingDataManagement.sol\":4290:4314  userToSummaryTable[imsi] */\n      mload(0x40)\n      tag_230\n      swap2\n      swap1\n      tag_172\n      jump\t// in\n    tag_230:\n      swap1\n      dup2\n      mstore\n      0x20\n      add\n      mload(0x40)\n      dup1\n      swap2\n      sub\n      swap1\n      keccak256\n        /* \"RoamingDataManagement.sol\":4207:4314  mapping(address => UserDataSummary) storage usageSummaryTablePerVisitingOperator = userToSummaryTable[imsi] */\n      swap1\n      pop\n        /* \"RoamingDataManagement.sol\":4386:4390  imsi */\n      dup14\n        /* \"RoamingDataManagement.sol\":4324:4360  usageSummaryTablePerVisitingOperator */\n      dup2\n        /* \"RoamingDataManagement.sol\":4324:4378  usageSummaryTablePerVisitingOperator[visitingOperator] */\n      0x00\n        /* \"RoamingDataManagement.sol\":4361:4377  visitingOperator */\n      dup6\n        /* \"RoamingDataManagement.sol\":4324:4378  usageSummaryTablePerVisitingOperator[visitingOperator] */\n      0xffffffffffffffffffffffffffffffffffffffff\n      and\n      0xffffffffffffffffffffffffffffffffffffffff\n      and\n      dup2\n      mstore\n      0x20\n      add\n      swap1\n      dup2\n      mstore\n      0x20\n      add\n      0x00\n      keccak256\n        /* \"RoamingDataManagement.sol\":4324:4383  usageSummaryTablePerVisitingOperator[visitingOperator].imsi */\n      0x00\n      add\n        /* \"RoamingDataManagement.sol\":4324:4390  usageSummaryTablePerVisitingOperator[visitingOperator].imsi = imsi */\n      swap1\n      dup2\n      tag_231\n      swap2\n      swap1\n      tag_226\n      jump\t// in\n    tag_231:\n      pop\n        /* \"RoamingDataManagement.sol\":4464:4470  number */\n      dup13\n        /* \"RoamingDataManagement.sol\":4400:4436  usageSummaryTablePerVisitingOperator */\n      dup2\n        /* \"RoamingDataManagement.sol\":4400:4454  usageSummaryTablePerVisitingOperator[visitingOperator] */\n      0x00\n        /* \"RoamingDataManagement.sol\":4437:4453  visitingOperator */\n      dup6\n        /* \"RoamingDataManagement.sol\":4400:4454  usageSummaryTablePerVisitingOperator[visitingOperator] */\n      0xffffffffffffffffffffffffffffffffffffffff\n      and\n      0xffffffffffffffffffffffffffffffffffffffff\n      and\n      dup2\n      mstore\n      0x20\n      add\n      swap1\n      dup2\n      mstore\n      0x20\n      add\n      0x00\n      keccak256\n        /* \"RoamingDataManagement.sol\":4400:4461  usageSummaryTablePerVisitingOperator[visitingOperator].number */\n      0x01\n      add\n        /* \"RoamingDataManagement.sol\":4400:4470  usageSummaryTablePerVisitingOperator[visitingOperator].number = number */\n      swap1\n      dup2\n      tag_232\n      swap2\n      swap1\n      tag_226\n      jump\t// in\n    tag_232:\n      pop\n        /* \"RoamingDataManagement.sol\":4553:4568  serviceProvider */\n      dup12\n        /* \"RoamingDataManagement.sol\":4480:4516  usageSummaryTablePerVisitingOperator */\n      dup2\n        /* \"RoamingDataManagement.sol\":4480:4534  usageSummaryTablePerVisitingOperator[visitingOperator] */\n      0x00\n        /* \"RoamingDataManagement.sol\":4517:4533  visitingOperator */\n      dup6\n        /* \"RoamingDataManagement.sol\":4480:4534  usageSummaryTablePerVisitingOperator[visitingOperator] */\n      0xffffffffffffffffffffffffffffffffffffffff\n      and\n      0xffffffffffffffffffffffffffffffffffffffff\n      and\n      dup2\n      mstore\n      0x20\n      add\n      swap1\n      dup2\n      mstore\n      0x20\n      add\n      0x00\n      keccak256\n        /* \"RoamingDataManagement.sol\":4480:4550  usageSummaryTablePerVisitingOperator[visitingOperator].serviceProvider */\n      0x02\n      add\n        /* \"RoamingDataManagement.sol\":4480:4568  usageSummaryTablePerVisitingOperator[visitingOperator].serviceProvider = serviceProvider */\n      swap1\n      dup2\n      tag_233\n      swap2\n      swap1\n      tag_226\n      jump\t// in\n    tag_233:\n      pop\n        /* \"RoamingDataManagement.sol\":4650:4664  voiceCallUsage */\n      dup11\n        /* \"RoamingDataManagement.sol\":4578:4614  usageSummaryTablePerVisitingOperator */\n      dup2\n        /* \"RoamingDataManagement.sol\":4578:4632  usageSummaryTablePerVisitingOperator[visitingOperator] */\n      0x00\n        /* \"RoamingDataManagement.sol\":4615:4631  visitingOperator */\n      dup6\n        /* \"RoamingDataManagement.sol\":4578:4632  usageSummaryTablePerVisitingOperator[visitingOperator] */\n      0xffffffffffffffffffffffffffffffffffffffff\n      and\n      0xffffffffffffffffffffffffffffffffffffffff\n      and\n      dup2\n      mstore\n      0x20\n      add\n      swap1\n      dup2\n      mstore\n      0x20\n      add\n      0x00\n      keccak256\n        /* \"RoamingDataManagement.sol\":4578:4647  usageSummaryTablePerVisitingOperator[visitingOperator].voiceCallUsage */\n      0x07\n      add\n        /* \"RoamingDataManagement.sol\":4578:4664  usageSummaryTablePerVisitingOperator[visitingOperator].voiceCallUsage = voiceCallUsage */\n      dup2\n      swap1\n      sstore\n      pop\n        /* \"RoamingDataManagement.sol\":4745:4758  internetUsage */\n      dup10\n        /* \"RoamingDataManagement.sol\":4674:4710  usageSummaryTablePerVisitingOperator */\n      dup2\n        /* \"RoamingDataManagement.sol\":4674:4728  usageSummaryTablePerVisitingOperator[visitingOperator] */\n      0x00\n        /* \"RoamingDataManagement.sol\":4711:4727  visitingOperator */\n      dup6\n        /* \"RoamingDataManagement.sol\":4674:4728  usageSummaryTablePerVisitingOperator[visitingOperator] */\n      0xffffffffffffffffffffffffffffffffffffffff\n      and\n      0xffffffffffffffffffffffffffffffffffffffff\n      and\n      dup2\n      mstore\n      0x20\n      add\n      swap1\n      dup2\n      mstore\n      0x20\n      add\n      0x00\n      keccak256\n        /* \"RoamingDataManagement.sol\":4674:4742  usageSummaryTablePerVisitingOperator[visitingOperator].internetUsage */\n      0x08\n      add\n        /* \"RoamingDataManagement.sol\":4674:4758  usageSummaryTablePerVisitingOperator[visitingOperator].internetUsage = internetUsage */\n      dup2\n      swap1\n      sstore\n      pop\n        /* \"RoamingDataManagement.sol\":4834:4842  smsUsage */\n      dup9\n        /* \"RoamingDataManagement.sol\":4768:4804  usageSummaryTablePerVisitingOperator */\n      dup2\n        /* \"RoamingDataManagement.sol\":4768:4822  usageSummaryTablePerVisitingOperator[visitingOperator] */\n      0x00\n        /* \"RoamingDataManagement.sol\":4805:4821  visitingOperator */\n      dup6\n        /* \"RoamingDataManagement.sol\":4768:4822  usageSummaryTablePerVisitingOperator[visitingOperator] */\n      0xffffffffffffffffffffffffffffffffffffffff\n      and\n      0xffffffffffffffffffffffffffffffffffffffff\n      and\n      dup2\n      mstore\n      0x20\n      add\n      swap1\n      dup2\n      mstore\n      0x20\n      add\n      0x00\n      keccak256\n        /* \"RoamingDataManagement.sol\":4768:4831  usageSummaryTablePerVisitingOperator[visitingOperator].smsUsage */\n      0x09\n      add\n        /* \"RoamingDataManagement.sol\":4768:4842  usageSummaryTablePerVisitingOperator[visitingOperator].smsUsage = smsUsage */\n      dup2\n      swap1\n      sstore\n      pop\n        /* \"RoamingDataManagement.sol\":4927:4943  serviceStartTime */\n      dup8\n        /* \"RoamingDataManagement.sol\":4853:4889  usageSummaryTablePerVisitingOperator */\n      dup2\n        /* \"RoamingDataManagement.sol\":4853:4907  usageSummaryTablePerVisitingOperator[visitingOperator] */\n      0x00\n        /* \"RoamingDataManagement.sol\":4890:4906  visitingOperator */\n      dup6\n        /* \"RoamingDataManagement.sol\":4853:4907  usageSummaryTablePerVisitingOperator[visitingOperator] */\n      0xffffffffffffffffffffffffffffffffffffffff\n      and\n      0xffffffffffffffffffffffffffffffffffffffff\n      and\n      dup2\n      mstore\n      0x20\n      add\n      swap1\n      dup2\n      mstore\n      0x20\n      add\n      0x00\n      keccak256\n        /* \"RoamingDataManagement.sol\":4853:4924  usageSummaryTablePerVisitingOperator[visitingOperator].serviceStartTime */\n      0x03\n      add\n        /* \"RoamingDataManagement.sol\":4853:4943  usageSummaryTablePerVisitingOperator[visitingOperator].serviceStartTime = serviceStartTime */\n      dup2\n      swap1\n      sstore\n      pop\n        /* \"RoamingDataManagement.sol\":5028:5045  internetStartTime */\n      dup7\n        /* \"RoamingDataManagement.sol\":4953:4989  usageSummaryTablePerVisitingOperator */\n      dup2\n        /* \"RoamingDataManagement.sol\":4953:5007  usageSummaryTablePerVisitingOperator[visitingOperator] */\n      0x00\n        /* \"RoamingDataManagement.sol\":4990:5006  visitingOperator */\n      dup6\n        /* \"RoamingDataManagement.sol\":4953:5007  usageSummaryTablePerVisitingOperator[visitingOperator] */\n      0xffffffffffffffffffffffffffffffffffffffff\n      and\n      0xffffffffffffffffffffffffffffffffffffffff\n      and\n      dup2\n      mstore\n      0x20\n      add\n      swap1\n      dup2\n      mstore\n      0x20\n      add\n      0x00\n      keccak256\n        /* \"RoamingDataManagement.sol\":4953:5025  usageSummaryTablePerVisitingOperator[visitingOperator].internetStartTime */\n      0x06\n      add\n        /* \"RoamingDataManagement.sol\":4953:5045  usageSummaryTablePerVisitingOperator[visitingOperator].internetStartTime = internetStartTime */\n      dup2\n      swap1\n      sstore\n      pop\n        /* \"RoamingDataManagement.sol\":5131:5149  voiceCallStartTime */\n      dup6\n        /* \"RoamingDataManagement.sol\":5055:5091  usageSummaryTablePerVisitingOperator */\n      dup2\n        /* \"RoamingDataManagement.sol\":5055:5109  usageSummaryTablePerVisitingOperator[visitingOperator] */\n      0x00\n        /* \"RoamingDataManagement.sol\":5092:5108  visitingOperator */\n      dup6\n        /* \"RoamingDataManagement.sol\":5055:5109  usageSummaryTablePerVisitingOperator[visitingOperator] */\n      0xffffffffffffffffffffffffffffffffffffffff\n      and\n      0xffffffffffffffffffffffffffffffffffffffff\n      and\n      dup2\n      mstore\n      0x20\n      add\n      swap1\n      dup2\n      mstore\n      0x20\n      add\n      0x00\n      keccak256\n        /* \"RoamingDataManagement.sol\":5055:5128  usageSummaryTablePerVisitingOperator[visitingOperator].voiceCallStartTime */\n      0x04\n      add\n        /* \"RoamingDataManagement.sol\":5055:5149  usageSummaryTablePerVisitingOperator[visitingOperator].voiceCallStartTime = voiceCallStartTime */\n      dup2\n      swap1\n      sstore\n      pop\n        /* \"RoamingDataManagement.sol\":5229:5241  smsStartTime */\n      dup5\n        /* \"RoamingDataManagement.sol\":5159:5195  usageSummaryTablePerVisitingOperator */\n      dup2\n        /* \"RoamingDataManagement.sol\":5159:5213  usageSummaryTablePerVisitingOperator[visitingOperator] */\n      0x00\n        /* \"RoamingDataManagement.sol\":5196:5212  visitingOperator */\n      dup6\n        /* \"RoamingDataManagement.sol\":5159:5213  usageSummaryTablePerVisitingOperator[visitingOperator] */\n      0xffffffffffffffffffffffffffffffffffffffff\n      and\n      0xffffffffffffffffffffffffffffffffffffffff\n      and\n      dup2\n      mstore\n      0x20\n      add\n      swap1\n      dup2\n      mstore\n      0x20\n      add\n      0x00\n      keccak256\n        /* \"RoamingDataManagement.sol\":5159:5226  usageSummaryTablePerVisitingOperator[visitingOperator].smsStartTime */\n      0x05\n      add\n        /* \"RoamingDataManagement.sol\":5159:5241  usageSummaryTablePerVisitingOperator[visitingOperator].smsStartTime = smsStartTime */\n      dup2\n      swap1\n      sstore\n      pop\n        /* \"RoamingDataManagement.sol\":5365:5370  1 wei */\n      0x01\n        /* \"RoamingDataManagement.sol\":5319:5323  bank */\n      0x09\n        /* \"RoamingDataManagement.sol\":5319:5361  bank[operatorsNameToAddr[serviceProvider]] */\n      0x00\n        /* \"RoamingDataManagement.sol\":5324:5343  operatorsNameToAddr */\n      0x03\n        /* \"RoamingDataManagement.sol\":5344:5359  serviceProvider */\n      dup16\n        /* \"RoamingDataManagement.sol\":5324:5360  operatorsNameToAddr[serviceProvider] */\n      mload(0x40)\n      tag_234\n      swap2\n      swap1\n      tag_172\n      jump\t// in\n    tag_234:\n      swap1\n      dup2\n      mstore\n      0x20\n      add\n      mload(0x40)\n      dup1\n      swap2\n      sub\n      swap1\n      keccak256\n      0x00\n      swap1\n      sload\n      swap1\n      0x0100\n      exp\n      swap1\n      div\n      0xffffffffffffffffffffffffffffffffffffffff\n      and\n        /* \"RoamingDataManagement.sol\":5319:5361  bank[operatorsNameToAddr[serviceProvider]] */\n      0xffffffffffffffffffffffffffffffffffffffff\n      and\n      0xffffffffffffffffffffffffffffffffffffffff\n      and\n      dup2\n      mstore\n      0x20\n      add\n      swap1\n      dup2\n      mstore\n      0x20\n      add\n      0x00\n      keccak256\n      0x00\n        /* \"RoamingDataManagement.sol\":5319:5370  bank[operatorsNameToAddr[serviceProvider]] -= 1 wei */\n      dup3\n      dup3\n      sload\n      tag_235\n      swap2\n      swap1\n      tag_236\n      jump\t// in\n    tag_235:\n      swap3\n      pop\n      pop\n      dup2\n      swap1\n      sstore\n      pop\n        /* \"RoamingDataManagement.sol\":5406:5411  1 wei */\n      0x01\n        /* \"RoamingDataManagement.sol\":5380:5384  bank */\n      0x09\n        /* \"RoamingDataManagement.sol\":5380:5402  bank[visitingOperator] */\n      0x00\n        /* \"RoamingDataManagement.sol\":5385:5401  visitingOperator */\n      dup6\n        /* \"RoamingDataManagement.sol\":5380:5402  bank[visitingOperator] */\n      0xffffffffffffffffffffffffffffffffffffffff\n      and\n      0xffffffffffffffffffffffffffffffffffffffff\n      and\n      dup2\n      mstore\n      0x20\n      add\n      swap1\n      dup2\n      mstore\n      0x20\n      add\n      0x00\n      keccak256\n      0x00\n        /* \"RoamingDataManagement.sol\":5380:5411  bank[visitingOperator] += 1 wei */\n      dup3\n      dup3\n      sload\n      tag_237\n      swap2\n      swap1\n      tag_238\n      jump\t// in\n    tag_237:\n      swap3\n      pop\n      pop\n      dup2\n      swap1\n      sstore\n      pop\n        /* \"RoamingDataManagement.sol\":5421:5463  transfer(payable(visitingOperator), 1 wei) */\n      tag_239\n        /* \"RoamingDataManagement.sol\":5438:5454  visitingOperator */\n      dup4\n        /* \"RoamingDataManagement.sol\":5457:5462  1 wei */\n      0x01\n        /* \"RoamingDataManagement.sol\":5421:5429  transfer */\n      tag_80\n        /* \"RoamingDataManagement.sol\":5421:5463  transfer(payable(visitingOperator), 1 wei) */\n      jump\t// in\n    tag_239:\n        /* \"RoamingDataManagement.sol\":5474:5497  BillingRecord memory br */\n      0x00\n        /* \"RoamingDataManagement.sol\":5500:5703  BillingRecord({... */\n      mload(0x40)\n      dup1\n      0x80\n      add\n      0x40\n      mstore\n      dup1\n        /* \"RoamingDataManagement.sol\":5539:5558  operatorsNameToAddr */\n      0x03\n        /* \"RoamingDataManagement.sol\":5559:5574  serviceProvider */\n      dup16\n        /* \"RoamingDataManagement.sol\":5539:5575  operatorsNameToAddr[serviceProvider] */\n      mload(0x40)\n      tag_240\n      swap2\n      swap1\n      tag_172\n      jump\t// in\n    tag_240:\n      swap1\n      dup2\n      mstore\n      0x20\n      add\n      mload(0x40)\n      dup1\n      swap2\n      sub\n      swap1\n      keccak256\n      0x00\n      swap1\n      sload\n      swap1\n      0x0100\n      exp\n      swap1\n      div\n      0xffffffffffffffffffffffffffffffffffffffff\n      and\n        /* \"RoamingDataManagement.sol\":5500:5703  BillingRecord({... */\n      0xffffffffffffffffffffffffffffffffffffffff\n      and\n      dup2\n      mstore\n      0x20\n      add\n        /* \"RoamingDataManagement.sol\":5600:5616  visitingOperator */\n      dup6\n        /* \"RoamingDataManagement.sol\":5500:5703  BillingRecord({... */\n      0xffffffffffffffffffffffffffffffffffffffff\n      and\n      dup2\n      mstore\n      0x20\n      add\n        /* \"RoamingDataManagement.sol\":5642:5647  1 wei */\n      0x01\n        /* \"RoamingDataManagement.sol\":5500:5703  BillingRecord({... */\n      dup2\n      mstore\n      0x20\n      add\n        /* \"RoamingDataManagement.sol\":5676:5692  currentTimestamp */\n      dup7\n        /* \"RoamingDataManagement.sol\":5500:5703  BillingRecord({... */\n      dup2\n      mstore\n      pop\n        /* \"RoamingDataManagement.sol\":5474:5703  BillingRecord memory br = BillingRecord({... */\n      swap1\n      pop\n        /* \"RoamingDataManagement.sol\":5714:5728  billingHistory */\n      0x05\n        /* \"RoamingDataManagement.sol\":5734:5736  br */\n      dup2\n        /* \"RoamingDataManagement.sol\":5714:5737  billingHistory.push(br) */\n      swap1\n      dup1\n      0x01\n      dup2\n      sload\n      add\n      dup1\n      dup3\n      sstore\n      dup1\n      swap2\n      pop\n      pop\n      0x01\n      swap1\n      sub\n      swap1\n      0x00\n      mstore\n      keccak256(0x00, 0x20)\n      swap1\n      0x04\n      mul\n      add\n      0x00\n      swap1\n      swap2\n      swap1\n      swap2\n      swap1\n      swap2\n      pop\n      0x00\n      dup3\n      add\n      mload\n      dup2\n      0x00\n      add\n      exp(0x0100, 0x00)\n      dup2\n      sload\n      dup2\n      0xffffffffffffffffffffffffffffffffffffffff\n      mul\n      not\n      and\n      swap1\n      dup4\n      0xffffffffffffffffffffffffffffffffffffffff\n      and\n      mul\n      or\n      swap1\n      sstore\n      pop\n      0x20\n      dup3\n      add\n      mload\n      dup2\n      0x01\n      add\n      exp(0x0100, 0x00)\n      dup2\n      sload\n      dup2\n      0xffffffffffffffffffffffffffffffffffffffff\n      mul\n      not\n      and\n      swap1\n      dup4\n      0xffffffffffffffffffffffffffffffffffffffff\n      and\n      mul\n      or\n      swap1\n      sstore\n      pop\n      0x40\n      dup3\n      add\n      mload\n      dup2\n      0x02\n      add\n      sstore\n      0x60\n      dup3\n      add\n      mload\n      dup2\n      0x03\n      add\n      sstore\n      pop\n      pop\n        /* \"RoamingDataManagement.sol\":3556:5800  {... */\n      pop\n      pop\n      pop\n      pop\n        /* \"RoamingDataManagement.sol\":3242:5800  function uploadUserDataSummary(string memory imsi, string memory number, string memory serviceProvider, ... */\n      pop\n      pop\n      pop\n      pop\n      pop\n      pop\n      pop\n      pop\n      pop\n      pop\n      pop\n      jump\t// out\n        /* \"RoamingDataManagement.sol\":2061:2160  function balance() external view returns(uint256)... */\n    tag_95:\n        /* \"RoamingDataManagement.sol\":2102:2109  uint256 */\n      0x00\n        /* \"RoamingDataManagement.sol\":2132:2153  address(this).balance */\n      selfbalance\n        /* \"RoamingDataManagement.sol\":2125:2153  return address(this).balance */\n      swap1\n      pop\n        /* \"RoamingDataManagement.sol\":2061:2160  function balance() external view returns(uint256)... */\n      swap1\n      jump\t// out\n        /* \"RoamingDataManagement.sol\":2166:3236  function registerRoamingOperator(address operatorAddr, string memory operatorName, uint256 currentTimestamp) public payable {... */\n    tag_100:\n        /* \"RoamingDataManagement.sol\":2587:2588  0 */\n      0x00\n        /* \"RoamingDataManagement.sol\":2542:2561  operatorsAddrToName */\n      0x02\n        /* \"RoamingDataManagement.sol\":2542:2575  operatorsAddrToName[operatorAddr] */\n      0x00\n        /* \"RoamingDataManagement.sol\":2562:2574  operatorAddr */\n      dup6\n        /* \"RoamingDataManagement.sol\":2542:2575  operatorsAddrToName[operatorAddr] */\n      0xffffffffffffffffffffffffffffffffffffffff\n      and\n      0xffffffffffffffffffffffffffffffffffffffff\n      and\n      dup2\n      mstore\n      0x20\n      add\n      swap1\n      dup2\n      mstore\n      0x20\n      add\n      0x00\n      keccak256\n        /* \"RoamingDataManagement.sol\":2536:2583  bytes(operatorsAddrToName[operatorAddr]).length */\n      dup1\n      sload\n      tag_244\n      swap1\n      tag_115\n      jump\t// in\n    tag_244:\n      swap1\n      pop\n        /* \"RoamingDataManagement.sol\":2536:2588  bytes(operatorsAddrToName[operatorAddr]).length == 0 */\n      eq\n        /* \"RoamingDataManagement.sol\":2536:2642  bytes(operatorsAddrToName[operatorAddr]).length == 0 && operatorsNameToAddr[operatorName] == address(0x00) */\n      dup1\n      iszero\n      tag_245\n      jumpi\n      pop\n        /* \"RoamingDataManagement.sol\":2637:2641  0x00 */\n      0x00\n        /* \"RoamingDataManagement.sol\":2592:2642  operatorsNameToAddr[operatorName] == address(0x00) */\n      0xffffffffffffffffffffffffffffffffffffffff\n      and\n        /* \"RoamingDataManagement.sol\":2592:2611  operatorsNameToAddr */\n      0x03\n        /* \"RoamingDataManagement.sol\":2612:2624  operatorName */\n      dup4\n        /* \"RoamingDataManagement.sol\":2592:2625  operatorsNameToAddr[operatorName] */\n      mload(0x40)\n      tag_246\n      swap2\n      swap1\n      tag_172\n      jump\t// in\n    tag_246:\n      swap1\n      dup2\n      mstore\n      0x20\n      add\n      mload(0x40)\n      dup1\n      swap2\n      sub\n      swap1\n      keccak256\n      0x00\n      swap1\n      sload\n      swap1\n      0x0100\n      exp\n      swap1\n      div\n      0xffffffffffffffffffffffffffffffffffffffff\n      and\n        /* \"RoamingDataManagement.sol\":2592:2642  operatorsNameToAddr[operatorName] == address(0x00) */\n      0xffffffffffffffffffffffffffffffffffffffff\n      and\n      eq\n        /* \"RoamingDataManagement.sol\":2536:2642  bytes(operatorsAddrToName[operatorAddr]).length == 0 && operatorsNameToAddr[operatorName] == address(0x00) */\n    tag_245:\n        /* \"RoamingDataManagement.sol\":2532:3230  if (bytes(operatorsAddrToName[operatorAddr]).length == 0 && operatorsNameToAddr[operatorName] == address(0x00)) {... */\n      iszero\n      tag_247\n      jumpi\n        /* \"RoamingDataManagement.sol\":2679:2686  100 wei */\n      0x64\n        /* \"RoamingDataManagement.sol\":2666:2675  msg.value */\n      callvalue\n        /* \"RoamingDataManagement.sol\":2666:2686  msg.value >= 100 wei */\n      lt\n      iszero\n        /* \"RoamingDataManagement.sol\":2658:2687  require(msg.value >= 100 wei) */\n      tag_248\n      jumpi\n      0x00\n      dup1\n      revert\n    tag_248:\n        /* \"RoamingDataManagement.sol\":2702:2718  serviceProviders */\n      0x00\n        /* \"RoamingDataManagement.sol\":2724:2736  operatorName */\n      dup3\n        /* \"RoamingDataManagement.sol\":2702:2737  serviceProviders.push(operatorName) */\n      swap1\n      dup1\n      0x01\n      dup2\n      sload\n      add\n      dup1\n      dup3\n      sstore\n      dup1\n      swap2\n      pop\n      pop\n      0x01\n      swap1\n      sub\n      swap1\n      0x00\n      mstore\n      keccak256(0x00, 0x20)\n      add\n      0x00\n      swap1\n      swap2\n      swap1\n      swap2\n      swap1\n      swap2\n      pop\n      swap1\n      dup2\n      tag_250\n      swap2\n      swap1\n      tag_226\n      jump\t// in\n    tag_250:\n      pop\n        /* \"RoamingDataManagement.sol\":2751:2768  operatorAddresses */\n      0x01\n        /* \"RoamingDataManagement.sol\":2774:2786  operatorAddr */\n      dup4\n        /* \"RoamingDataManagement.sol\":2751:2787  operatorAddresses.push(operatorAddr) */\n      swap1\n      dup1\n      0x01\n      dup2\n      sload\n      add\n      dup1\n      dup3\n      sstore\n      dup1\n      swap2\n      pop\n      pop\n      0x01\n      swap1\n      sub\n      swap1\n      0x00\n      mstore\n      keccak256(0x00, 0x20)\n      add\n      0x00\n      swap1\n      swap2\n      swap1\n      swap2\n      swap1\n      swap2\n      0x0100\n      exp\n      dup2\n      sload\n      dup2\n      0xffffffffffffffffffffffffffffffffffffffff\n      mul\n      not\n      and\n      swap1\n      dup4\n      0xffffffffffffffffffffffffffffffffffffffff\n      and\n      mul\n      or\n      swap1\n      sstore\n      pop\n        /* \"RoamingDataManagement.sol\":2840:2852  operatorAddr */\n      dup3\n        /* \"RoamingDataManagement.sol\":2804:2823  operatorsNameToAddr */\n      0x03\n        /* \"RoamingDataManagement.sol\":2824:2836  operatorName */\n      dup4\n        /* \"RoamingDataManagement.sol\":2804:2837  operatorsNameToAddr[operatorName] */\n      mload(0x40)\n      tag_252\n      swap2\n      swap1\n      tag_172\n      jump\t// in\n    tag_252:\n      swap1\n      dup2\n      mstore\n      0x20\n      add\n      mload(0x40)\n      dup1\n      swap2\n      sub\n      swap1\n      keccak256\n      0x00\n        /* \"RoamingDataManagement.sol\":2804:2852  operatorsNameToAddr[operatorName] = operatorAddr */\n      0x0100\n      exp\n      dup2\n      sload\n      dup2\n      0xffffffffffffffffffffffffffffffffffffffff\n      mul\n      not\n      and\n      swap1\n      dup4\n      0xffffffffffffffffffffffffffffffffffffffff\n      and\n      mul\n      or\n      swap1\n      sstore\n      pop\n        /* \"RoamingDataManagement.sol\":2902:2914  operatorName */\n      dup2\n        /* \"RoamingDataManagement.sol\":2866:2885  operatorsAddrToName */\n      0x02\n        /* \"RoamingDataManagement.sol\":2866:2899  operatorsAddrToName[operatorAddr] */\n      0x00\n        /* \"RoamingDataManagement.sol\":2886:2898  operatorAddr */\n      dup6\n        /* \"RoamingDataManagement.sol\":2866:2899  operatorsAddrToName[operatorAddr] */\n      0xffffffffffffffffffffffffffffffffffffffff\n      and\n      0xffffffffffffffffffffffffffffffffffffffff\n      and\n      dup2\n      mstore\n      0x20\n      add\n      swap1\n      dup2\n      mstore\n      0x20\n      add\n      0x00\n      keccak256\n        /* \"RoamingDataManagement.sol\":2866:2914  operatorsAddrToName[operatorAddr] = operatorName */\n      swap1\n      dup2\n      tag_253\n      swap2\n      swap1\n      tag_226\n      jump\t// in\n    tag_253:\n      pop\n        /* \"RoamingDataManagement.sol\":2950:2959  msg.value */\n      callvalue\n        /* \"RoamingDataManagement.sol\":2928:2932  bank */\n      0x09\n        /* \"RoamingDataManagement.sol\":2928:2946  bank[operatorAddr] */\n      0x00\n        /* \"RoamingDataManagement.sol\":2933:2945  operatorAddr */\n      dup6\n        /* \"RoamingDataManagement.sol\":2928:2946  bank[operatorAddr] */\n      0xffffffffffffffffffffffffffffffffffffffff\n      and\n      0xffffffffffffffffffffffffffffffffffffffff\n      and\n      dup2\n      mstore\n      0x20\n      add\n      swap1\n      dup2\n      mstore\n      0x20\n      add\n      0x00\n      keccak256\n      0x00\n        /* \"RoamingDataManagement.sol\":2928:2959  bank[operatorAddr] += msg.value */\n      dup3\n      dup3\n      sload\n      tag_254\n      swap2\n      swap1\n      tag_238\n      jump\t// in\n    tag_254:\n      swap3\n      pop\n      pop\n      dup2\n      swap1\n      sstore\n      pop\n        /* \"RoamingDataManagement.sol\":2973:2996  BillingRecord memory br */\n      0x00\n        /* \"RoamingDataManagement.sol\":2999:3181  BillingRecord({... */\n      mload(0x40)\n      dup1\n      0x80\n      add\n      0x40\n      mstore\n      dup1\n        /* \"RoamingDataManagement.sol\":3038:3048  msg.sender */\n      caller\n        /* \"RoamingDataManagement.sol\":2999:3181  BillingRecord({... */\n      0xffffffffffffffffffffffffffffffffffffffff\n      and\n      dup2\n      mstore\n      0x20\n      add\n        /* \"RoamingDataManagement.sol\":3081:3085  this */\n      address\n        /* \"RoamingDataManagement.sol\":2999:3181  BillingRecord({... */\n      0xffffffffffffffffffffffffffffffffffffffff\n      and\n      dup2\n      mstore\n      0x20\n      add\n        /* \"RoamingDataManagement.sol\":3112:3121  msg.value */\n      callvalue\n        /* \"RoamingDataManagement.sol\":2999:3181  BillingRecord({... */\n      dup2\n      mstore\n      0x20\n      add\n        /* \"RoamingDataManagement.sol\":3150:3166  currentTimestamp */\n      dup4\n        /* \"RoamingDataManagement.sol\":2999:3181  BillingRecord({... */\n      dup2\n      mstore\n      pop\n        /* \"RoamingDataManagement.sol\":2973:3181  BillingRecord memory br = BillingRecord({... */\n      swap1\n      pop\n        /* \"RoamingDataManagement.sol\":3196:3210  billingHistory */\n      0x05\n        /* \"RoamingDataManagement.sol\":3216:3218  br */\n      dup2\n        /* \"RoamingDataManagement.sol\":3196:3219  billingHistory.push(br) */\n      swap1\n      dup1\n      0x01\n      dup2\n      sload\n      add\n      dup1\n      dup3\n      sstore\n      dup1\n      swap2\n      pop\n      pop\n      0x01\n      swap1\n      sub\n      swap1\n      0x00\n      mstore\n      keccak256(0x00, 0x20)\n      swap1\n      0x04\n      mul\n      add\n      0x00\n      swap1\n      swap2\n      swap1\n      swap2\n      swap1\n      swap2\n      pop\n      0x00\n      dup3\n      add\n      mload\n      dup2\n      0x00\n      add\n      exp(0x0100, 0x00)\n      dup2\n      sload\n      dup2\n      0xffffffffffffffffffffffffffffffffffffffff\n      mul\n      not\n      and\n      swap1\n      dup4\n      0xffffffffffffffffffffffffffffffffffffffff\n      and\n      mul\n      or\n      swap1\n      sstore\n      pop\n      0x20\n      dup3\n      add\n      mload\n      dup2\n      0x01\n      add\n      exp(0x0100, 0x00)\n      dup2\n      sload\n      dup2\n      0xffffffffffffffffffffffffffffffffffffffff\n      mul\n      not\n      and\n      swap1\n      dup4\n      0xffffffffffffffffffffffffffffffffffffffff\n      and\n      mul\n      or\n      swap1\n      sstore\n      pop\n      0x40\n      dup3\n      add\n      mload\n      dup2\n      0x02\n      add\n      sstore\n      0x60\n      dup3\n      add\n      mload\n      dup2\n      0x03\n      add\n      sstore\n      pop\n      pop\n        /* \"RoamingDataManagement.sol\":2644:3230  {... */\n      pop\n        /* \"RoamingDataManagement.sol\":2532:3230  if (bytes(operatorsAddrToName[operatorAddr]).length == 0 && operatorsNameToAddr[operatorName] == address(0x00)) {... */\n    tag_247:\n        /* \"RoamingDataManagement.sol\":2166:3236  function registerRoamingOperator(address operatorAddr, string memory operatorName, uint256 currentTimestamp) public payable {... */\n      pop\n      pop\n      pop\n      jump\t// out\n        /* \"RoamingDataManagement.sol\":1897:1977  function deposit() public payable... */\n    tag_102:\n        /* \"RoamingDataManagement.sol\":1961:1970  msg.value */\n      callvalue\n        /* \"RoamingDataManagement.sol\":1945:1957  totalDeposit */\n      0x04\n      0x00\n        /* \"RoamingDataManagement.sol\":1945:1970  totalDeposit += msg.value */\n      dup3\n      dup3\n      sload\n      tag_257\n      swap2\n      swap1\n      tag_238\n      jump\t// in\n    tag_257:\n      swap3\n      pop\n      pop\n      dup2\n      swap1\n      sstore\n      pop\n        /* \"RoamingDataManagement.sol\":1897:1977  function deposit() public payable... */\n      jump\t// out\n        /* \"RoamingDataManagement.sol\":725:749  uint public totalDeposit */\n    tag_105:\n      sload(0x04)\n      dup2\n      jump\t// out\n        /* \"RoamingDataManagement.sol\":660:713  mapping(string => address) public operatorsNameToAddr */\n    tag_110:\n      0x03\n      dup2\n      dup1\n      mload\n      0x20\n      dup2\n      add\n      dup3\n      add\n      dup1\n      mload\n      dup5\n      dup3\n      mstore\n      0x20\n      dup4\n      add\n      0x20\n      dup6\n      add\n      keccak256\n      dup2\n      dup4\n      mstore\n      dup1\n      swap6\n      pop\n      pop\n      pop\n      pop\n      pop\n      pop\n      0x00\n      swap2\n      pop\n      sload\n      swap1\n      0x0100\n      exp\n      swap1\n      div\n      0xffffffffffffffffffffffffffffffffffffffff\n      and\n      dup2\n      jump\t// out\n    tag_158:\n      mload(0x40)\n      dup1\n      0x0140\n      add\n      0x40\n      mstore\n      dup1\n      0x60\n      dup2\n      mstore\n      0x20\n      add\n      0x60\n      dup2\n      mstore\n      0x20\n      add\n      0x60\n      dup2\n      mstore\n      0x20\n      add\n      0x00\n      dup2\n      mstore\n      0x20\n      add\n      0x00\n      dup2\n      mstore\n      0x20\n      add\n      0x00\n      dup2\n      mstore\n      0x20\n      add\n      0x00\n      dup2\n      mstore\n      0x20\n      add\n      0x00\n      dup2\n      mstore\n      0x20\n      add\n      0x00\n      dup2\n      mstore\n      0x20\n      add\n      0x00\n      dup2\n      mstore\n      pop\n      swap1\n      jump\t// out\n        /* \"#utility.yul\":7:82   */\n    tag_258:\n        /* \"#utility.yul\":40:46   */\n      0x00\n        /* \"#utility.yul\":73:75   */\n      0x40\n        /* \"#utility.yul\":67:76   */\n      mload\n        /* \"#utility.yul\":57:76   */\n      swap1\n      pop\n        /* \"#utility.yul\":7:82   */\n      swap1\n      jump\t// out\n        /* \"#utility.yul\":88:205   */\n    tag_259:\n        /* \"#utility.yul\":197:198   */\n      0x00\n        /* \"#utility.yul\":194:195   */\n      dup1\n        /* \"#utility.yul\":187:199   */\n      revert\n        /* \"#utility.yul\":211:328   */\n    tag_260:\n        /* \"#utility.yul\":320:321   */\n      0x00\n        /* \"#utility.yul\":317:318   */\n      dup1\n        /* \"#utility.yul\":310:322   */\n      revert\n        /* \"#utility.yul\":334:411   */\n    tag_261:\n        /* \"#utility.yul\":371:378   */\n      0x00\n        /* \"#utility.yul\":400:405   */\n      dup2\n        /* \"#utility.yul\":389:405   */\n      swap1\n      pop\n        /* \"#utility.yul\":334:411   */\n      swap2\n      swap1\n      pop\n      jump\t// out\n        /* \"#utility.yul\":417:539   */\n    tag_262:\n        /* \"#utility.yul\":490:514   */\n      tag_334\n        /* \"#utility.yul\":508:513   */\n      dup2\n        /* \"#utility.yul\":490:514   */\n      tag_261\n      jump\t// in\n    tag_334:\n        /* \"#utility.yul\":483:488   */\n      dup2\n        /* \"#utility.yul\":480:515   */\n      eq\n        /* \"#utility.yul\":470:533   */\n      tag_335\n      jumpi\n        /* \"#utility.yul\":529:530   */\n      0x00\n        /* \"#utility.yul\":526:527   */\n      dup1\n        /* \"#utility.yul\":519:531   */\n      revert\n        /* \"#utility.yul\":470:533   */\n    tag_335:\n        /* \"#utility.yul\":417:539   */\n      pop\n      jump\t// out\n        /* \"#utility.yul\":545:684   */\n    tag_263:\n        /* \"#utility.yul\":591:596   */\n      0x00\n        /* \"#utility.yul\":629:635   */\n      dup2\n        /* \"#utility.yul\":616:636   */\n      calldataload\n        /* \"#utility.yul\":607:636   */\n      swap1\n      pop\n        /* \"#utility.yul\":645:678   */\n      tag_337\n        /* \"#utility.yul\":672:677   */\n      dup2\n        /* \"#utility.yul\":645:678   */\n      tag_262\n      jump\t// in\n    tag_337:\n        /* \"#utility.yul\":545:684   */\n      swap3\n      swap2\n      pop\n      pop\n      jump\t// out\n        /* \"#utility.yul\":690:1019   */\n    tag_28:\n        /* \"#utility.yul\":749:755   */\n      0x00\n        /* \"#utility.yul\":798:800   */\n      0x20\n        /* \"#utility.yul\":786:795   */\n      dup3\n        /* \"#utility.yul\":777:784   */\n      dup5\n        /* \"#utility.yul\":773:796   */\n      sub\n        /* \"#utility.yul\":769:801   */\n      slt\n        /* \"#utility.yul\":766:885   */\n      iszero\n      tag_339\n      jumpi\n        /* \"#utility.yul\":804:883   */\n      tag_340\n      tag_259\n      jump\t// in\n    tag_340:\n        /* \"#utility.yul\":766:885   */\n    tag_339:\n        /* \"#utility.yul\":924:925   */\n      0x00\n        /* \"#utility.yul\":949:1002   */\n      tag_341\n        /* \"#utility.yul\":994:1001   */\n      dup5\n        /* \"#utility.yul\":985:991   */\n      dup3\n        /* \"#utility.yul\":974:983   */\n      dup6\n        /* \"#utility.yul\":970:992   */\n      add\n        /* \"#utility.yul\":949:1002   */\n      tag_263\n      jump\t// in\n    tag_341:\n        /* \"#utility.yul\":939:1002   */\n      swap2\n      pop\n        /* \"#utility.yul\":895:1012   */\n      pop\n        /* \"#utility.yul\":690:1019   */\n      swap3\n      swap2\n      pop\n      pop\n      jump\t// out\n        /* \"#utility.yul\":1025:1124   */\n    tag_264:\n        /* \"#utility.yul\":1077:1083   */\n      0x00\n        /* \"#utility.yul\":1111:1116   */\n      dup2\n        /* \"#utility.yul\":1105:1117   */\n      mload\n        /* \"#utility.yul\":1095:1117   */\n      swap1\n      pop\n        /* \"#utility.yul\":1025:1124   */\n      swap2\n      swap1\n      pop\n      jump\t// out\n        /* \"#utility.yul\":1130:1299   */\n    tag_265:\n        /* \"#utility.yul\":1214:1225   */\n      0x00\n        /* \"#utility.yul\":1248:1254   */\n      dup3\n        /* \"#utility.yul\":1243:1246   */\n      dup3\n        /* \"#utility.yul\":1236:1255   */\n      mstore\n        /* \"#utility.yul\":1288:1292   */\n      0x20\n        /* \"#utility.yul\":1283:1286   */\n      dup3\n        /* \"#utility.yul\":1279:1293   */\n      add\n        /* \"#utility.yul\":1264:1293   */\n      swap1\n      pop\n        /* \"#utility.yul\":1130:1299   */\n      swap3\n      swap2\n      pop\n      pop\n      jump\t// out\n        /* \"#utility.yul\":1305:1551   */\n    tag_266:\n        /* \"#utility.yul\":1386:1387   */\n      0x00\n        /* \"#utility.yul\":1396:1509   */\n    tag_345:\n        /* \"#utility.yul\":1410:1416   */\n      dup4\n        /* \"#utility.yul\":1407:1408   */\n      dup2\n        /* \"#utility.yul\":1404:1417   */\n      lt\n        /* \"#utility.yul\":1396:1509   */\n      iszero\n      tag_347\n      jumpi\n        /* \"#utility.yul\":1495:1496   */\n      dup1\n        /* \"#utility.yul\":1490:1493   */\n      dup3\n        /* \"#utility.yul\":1486:1497   */\n      add\n        /* \"#utility.yul\":1480:1498   */\n      mload\n        /* \"#utility.yul\":1476:1477   */\n      dup2\n        /* \"#utility.yul\":1471:1474   */\n      dup5\n        /* \"#utility.yul\":1467:1478   */\n      add\n        /* \"#utility.yul\":1460:1499   */\n      mstore\n        /* \"#utility.yul\":1432:1434   */\n      0x20\n        /* \"#utility.yul\":1429:1430   */\n      dup2\n        /* \"#utility.yul\":1425:1435   */\n      add\n        /* \"#utility.yul\":1420:1435   */\n      swap1\n      pop\n        /* \"#utility.yul\":1396:1509   */\n      jump(tag_345)\n    tag_347:\n        /* \"#utility.yul\":1543:1544   */\n      0x00\n        /* \"#utility.yul\":1534:1540   */\n      dup5\n        /* \"#utility.yul\":1529:1532   */\n      dup5\n        /* \"#utility.yul\":1525:1541   */\n      add\n        /* \"#utility.yul\":1518:1545   */\n      mstore\n        /* \"#utility.yul\":1367:1551   */\n      pop\n        /* \"#utility.yul\":1305:1551   */\n      pop\n      pop\n      pop\n      jump\t// out\n        /* \"#utility.yul\":1557:1659   */\n    tag_267:\n        /* \"#utility.yul\":1598:1604   */\n      0x00\n        /* \"#utility.yul\":1649:1651   */\n      0x1f\n        /* \"#utility.yul\":1645:1652   */\n      not\n        /* \"#utility.yul\":1640:1642   */\n      0x1f\n        /* \"#utility.yul\":1633:1638   */\n      dup4\n        /* \"#utility.yul\":1629:1643   */\n      add\n        /* \"#utility.yul\":1625:1653   */\n      and\n        /* \"#utility.yul\":1615:1653   */\n      swap1\n      pop\n        /* \"#utility.yul\":1557:1659   */\n      swap2\n      swap1\n      pop\n      jump\t// out\n        /* \"#utility.yul\":1665:2042   */\n    tag_268:\n        /* \"#utility.yul\":1753:1756   */\n      0x00\n        /* \"#utility.yul\":1781:1820   */\n      tag_350\n        /* \"#utility.yul\":1814:1819   */\n      dup3\n        /* \"#utility.yul\":1781:1820   */\n      tag_264\n      jump\t// in\n    tag_350:\n        /* \"#utility.yul\":1836:1907   */\n      tag_351\n        /* \"#utility.yul\":1900:1906   */\n      dup2\n        /* \"#utility.yul\":1895:1898   */\n      dup6\n        /* \"#utility.yul\":1836:1907   */\n      tag_265\n      jump\t// in\n    tag_351:\n        /* \"#utility.yul\":1829:1907   */\n      swap4\n      pop\n        /* \"#utility.yul\":1916:1981   */\n      tag_352\n        /* \"#utility.yul\":1974:1980   */\n      dup2\n        /* \"#utility.yul\":1969:1972   */\n      dup6\n        /* \"#utility.yul\":1962:1966   */\n      0x20\n        /* \"#utility.yul\":1955:1960   */\n      dup7\n        /* \"#utility.yul\":1951:1967   */\n      add\n        /* \"#utility.yul\":1916:1981   */\n      tag_266\n      jump\t// in\n    tag_352:\n        /* \"#utility.yul\":2006:2035   */\n      tag_353\n        /* \"#utility.yul\":2028:2034   */\n      dup2\n        /* \"#utility.yul\":2006:2035   */\n      tag_267\n      jump\t// in\n    tag_353:\n        /* \"#utility.yul\":2001:2004   */\n      dup5\n        /* \"#utility.yul\":1997:2036   */\n      add\n        /* \"#utility.yul\":1990:2036   */\n      swap2\n      pop\n        /* \"#utility.yul\":1757:2042   */\n      pop\n        /* \"#utility.yul\":1665:2042   */\n      swap3\n      swap2\n      pop\n      pop\n      jump\t// out\n        /* \"#utility.yul\":2048:2361   */\n    tag_31:\n        /* \"#utility.yul\":2161:2165   */\n      0x00\n        /* \"#utility.yul\":2199:2201   */\n      0x20\n        /* \"#utility.yul\":2188:2197   */\n      dup3\n        /* \"#utility.yul\":2184:2202   */\n      add\n        /* \"#utility.yul\":2176:2202   */\n      swap1\n      pop\n        /* \"#utility.yul\":2248:2257   */\n      dup2\n        /* \"#utility.yul\":2242:2246   */\n      dup2\n        /* \"#utility.yul\":2238:2258   */\n      sub\n        /* \"#utility.yul\":2234:2235   */\n      0x00\n        /* \"#utility.yul\":2223:2232   */\n      dup4\n        /* \"#utility.yul\":2219:2236   */\n      add\n        /* \"#utility.yul\":2212:2259   */\n      mstore\n        /* \"#utility.yul\":2276:2354   */\n      tag_355\n        /* \"#utility.yul\":2349:2353   */\n      dup2\n        /* \"#utility.yul\":2340:2346   */\n      dup5\n        /* \"#utility.yul\":2276:2354   */\n      tag_268\n      jump\t// in\n    tag_355:\n        /* \"#utility.yul\":2268:2354   */\n      swap1\n      pop\n        /* \"#utility.yul\":2048:2361   */\n      swap3\n      swap2\n      pop\n      pop\n      jump\t// out\n        /* \"#utility.yul\":2367:2493   */\n    tag_269:\n        /* \"#utility.yul\":2404:2411   */\n      0x00\n        /* \"#utility.yul\":2444:2486   */\n      0xffffffffffffffffffffffffffffffffffffffff\n        /* \"#utility.yul\":2437:2442   */\n      dup3\n        /* \"#utility.yul\":2433:2487   */\n      and\n        /* \"#utility.yul\":2422:2487   */\n      swap1\n      pop\n        /* \"#utility.yul\":2367:2493   */\n      swap2\n      swap1\n      pop\n      jump\t// out\n        /* \"#utility.yul\":2499:2595   */\n    tag_270:\n        /* \"#utility.yul\":2536:2543   */\n      0x00\n        /* \"#utility.yul\":2565:2589   */\n      tag_358\n        /* \"#utility.yul\":2583:2588   */\n      dup3\n        /* \"#utility.yul\":2565:2589   */\n      tag_269\n      jump\t// in\n    tag_358:\n        /* \"#utility.yul\":2554:2589   */\n      swap1\n      pop\n        /* \"#utility.yul\":2499:2595   */\n      swap2\n      swap1\n      pop\n      jump\t// out\n        /* \"#utility.yul\":2601:2719   */\n    tag_271:\n        /* \"#utility.yul\":2688:2712   */\n      tag_360\n        /* \"#utility.yul\":2706:2711   */\n      dup2\n        /* \"#utility.yul\":2688:2712   */\n      tag_270\n      jump\t// in\n    tag_360:\n        /* \"#utility.yul\":2683:2686   */\n      dup3\n        /* \"#utility.yul\":2676:2713   */\n      mstore\n        /* \"#utility.yul\":2601:2719   */\n      pop\n      pop\n      jump\t// out\n        /* \"#utility.yul\":2725:2843   */\n    tag_272:\n        /* \"#utility.yul\":2812:2836   */\n      tag_362\n        /* \"#utility.yul\":2830:2835   */\n      dup2\n        /* \"#utility.yul\":2812:2836   */\n      tag_261\n      jump\t// in\n    tag_362:\n        /* \"#utility.yul\":2807:2810   */\n      dup3\n        /* \"#utility.yul\":2800:2837   */\n      mstore\n        /* \"#utility.yul\":2725:2843   */\n      pop\n      pop\n      jump\t// out\n        /* \"#utility.yul\":2849:3402   */\n    tag_37:\n        /* \"#utility.yul\":3026:3030   */\n      0x00\n        /* \"#utility.yul\":3064:3067   */\n      0x80\n        /* \"#utility.yul\":3053:3062   */\n      dup3\n        /* \"#utility.yul\":3049:3068   */\n      add\n        /* \"#utility.yul\":3041:3068   */\n      swap1\n      pop\n        /* \"#utility.yul\":3078:3149   */\n      tag_364\n        /* \"#utility.yul\":3146:3147   */\n      0x00\n        /* \"#utility.yul\":3135:3144   */\n      dup4\n        /* \"#utility.yul\":3131:3148   */\n      add\n        /* \"#utility.yul\":3122:3128   */\n      dup8\n        /* \"#utility.yul\":3078:3149   */\n      tag_271\n      jump\t// in\n    tag_364:\n        /* \"#utility.yul\":3159:3231   */\n      tag_365\n        /* \"#utility.yul\":3227:3229   */\n      0x20\n        /* \"#utility.yul\":3216:3225   */\n      dup4\n        /* \"#utility.yul\":3212:3230   */\n      add\n        /* \"#utility.yul\":3203:3209   */\n      dup7\n        /* \"#utility.yul\":3159:3231   */\n      tag_271\n      jump\t// in\n    tag_365:\n        /* \"#utility.yul\":3241:3313   */\n      tag_366\n        /* \"#utility.yul\":3309:3311   */\n      0x40\n        /* \"#utility.yul\":3298:3307   */\n      dup4\n        /* \"#utility.yul\":3294:3312   */\n      add\n        /* \"#utility.yul\":3285:3291   */\n      dup6\n        /* \"#utility.yul\":3241:3313   */\n      tag_272\n      jump\t// in\n    tag_366:\n        /* \"#utility.yul\":3323:3395   */\n      tag_367\n        /* \"#utility.yul\":3391:3393   */\n      0x60\n        /* \"#utility.yul\":3380:3389   */\n      dup4\n        /* \"#utility.yul\":3376:3394   */\n      add\n        /* \"#utility.yul\":3367:3373   */\n      dup5\n        /* \"#utility.yul\":3323:3395   */\n      tag_272\n      jump\t// in\n    tag_367:\n        /* \"#utility.yul\":2849:3402   */\n      swap6\n      swap5\n      pop\n      pop\n      pop\n      pop\n      pop\n      jump\t// out\n        /* \"#utility.yul\":3408:3530   */\n    tag_273:\n        /* \"#utility.yul\":3481:3505   */\n      tag_369\n        /* \"#utility.yul\":3499:3504   */\n      dup2\n        /* \"#utility.yul\":3481:3505   */\n      tag_270\n      jump\t// in\n    tag_369:\n        /* \"#utility.yul\":3474:3479   */\n      dup2\n        /* \"#utility.yul\":3471:3506   */\n      eq\n        /* \"#utility.yul\":3461:3524   */\n      tag_370\n      jumpi\n        /* \"#utility.yul\":3520:3521   */\n      0x00\n        /* \"#utility.yul\":3517:3518   */\n      dup1\n        /* \"#utility.yul\":3510:3522   */\n      revert\n        /* \"#utility.yul\":3461:3524   */\n    tag_370:\n        /* \"#utility.yul\":3408:3530   */\n      pop\n      jump\t// out\n        /* \"#utility.yul\":3536:3675   */\n    tag_274:\n        /* \"#utility.yul\":3582:3587   */\n      0x00\n        /* \"#utility.yul\":3620:3626   */\n      dup2\n        /* \"#utility.yul\":3607:3627   */\n      calldataload\n        /* \"#utility.yul\":3598:3627   */\n      swap1\n      pop\n        /* \"#utility.yul\":3636:3669   */\n      tag_372\n        /* \"#utility.yul\":3663:3668   */\n      dup2\n        /* \"#utility.yul\":3636:3669   */\n      tag_273\n      jump\t// in\n    tag_372:\n        /* \"#utility.yul\":3536:3675   */\n      swap3\n      swap2\n      pop\n      pop\n      jump\t// out\n        /* \"#utility.yul\":3681:3798   */\n    tag_275:\n        /* \"#utility.yul\":3790:3791   */\n      0x00\n        /* \"#utility.yul\":3787:3788   */\n      dup1\n        /* \"#utility.yul\":3780:3792   */\n      revert\n        /* \"#utility.yul\":3804:3921   */\n    tag_276:\n        /* \"#utility.yul\":3913:3914   */\n      0x00\n        /* \"#utility.yul\":3910:3911   */\n      dup1\n        /* \"#utility.yul\":3903:3915   */\n      revert\n        /* \"#utility.yul\":3927:4107   */\n    tag_154:\n        /* \"#utility.yul\":3975:4052   */\n      0x4e487b7100000000000000000000000000000000000000000000000000000000\n        /* \"#utility.yul\":3972:3973   */\n      0x00\n        /* \"#utility.yul\":3965:4053   */\n      mstore\n        /* \"#utility.yul\":4072:4076   */\n      0x41\n        /* \"#utility.yul\":4069:4070   */\n      0x04\n        /* \"#utility.yul\":4062:4077   */\n      mstore\n        /* \"#utility.yul\":4096:4100   */\n      0x24\n        /* \"#utility.yul\":4093:4094   */\n      0x00\n        /* \"#utility.yul\":4086:4101   */\n      revert\n        /* \"#utility.yul\":4113:4394   */\n    tag_277:\n        /* \"#utility.yul\":4196:4223   */\n      tag_377\n        /* \"#utility.yul\":4218:4222   */\n      dup3\n        /* \"#utility.yul\":4196:4223   */\n      tag_267\n      jump\t// in\n    tag_377:\n        /* \"#utility.yul\":4188:4194   */\n      dup2\n        /* \"#utility.yul\":4184:4224   */\n      add\n        /* \"#utility.yul\":4326:4332   */\n      dup2\n        /* \"#utility.yul\":4314:4324   */\n      dup2\n        /* \"#utility.yul\":4311:4333   */\n      lt\n        /* \"#utility.yul\":4290:4308   */\n      0xffffffffffffffff\n        /* \"#utility.yul\":4278:4288   */\n      dup3\n        /* \"#utility.yul\":4275:4309   */\n      gt\n        /* \"#utility.yul\":4272:4334   */\n      or\n        /* \"#utility.yul\":4269:4357   */\n      iszero\n      tag_378\n      jumpi\n        /* \"#utility.yul\":4337:4355   */\n      tag_379\n      tag_154\n      jump\t// in\n    tag_379:\n        /* \"#utility.yul\":4269:4357   */\n    tag_378:\n        /* \"#utility.yul\":4377:4387   */\n      dup1\n        /* \"#utility.yul\":4373:4375   */\n      0x40\n        /* \"#utility.yul\":4366:4388   */\n      mstore\n        /* \"#utility.yul\":4156:4394   */\n      pop\n        /* \"#utility.yul\":4113:4394   */\n      pop\n      pop\n      jump\t// out\n        /* \"#utility.yul\":4400:4529   */\n    tag_278:\n        /* \"#utility.yul\":4434:4440   */\n      0x00\n        /* \"#utility.yul\":4461:4481   */\n      tag_381\n      tag_258\n      jump\t// in\n    tag_381:\n        /* \"#utility.yul\":4451:4481   */\n      swap1\n      pop\n        /* \"#utility.yul\":4490:4523   */\n      tag_382\n        /* \"#utility.yul\":4518:4522   */\n      dup3\n        /* \"#utility.yul\":4510:4516   */\n      dup3\n        /* \"#utility.yul\":4490:4523   */\n      tag_277\n      jump\t// in\n    tag_382:\n        /* \"#utility.yul\":4400:4529   */\n      swap2\n      swap1\n      pop\n      jump\t// out\n        /* \"#utility.yul\":4535:4843   */\n    tag_279:\n        /* \"#utility.yul\":4597:4601   */\n      0x00\n        /* \"#utility.yul\":4687:4705   */\n      0xffffffffffffffff\n        /* \"#utility.yul\":4679:4685   */\n      dup3\n        /* \"#utility.yul\":4676:4706   */\n      gt\n        /* \"#utility.yul\":4673:4729   */\n      iszero\n      tag_384\n      jumpi\n        /* \"#utility.yul\":4709:4727   */\n      tag_385\n      tag_154\n      jump\t// in\n    tag_385:\n        /* \"#utility.yul\":4673:4729   */\n    tag_384:\n        /* \"#utility.yul\":4747:4776   */\n      tag_386\n        /* \"#utility.yul\":4769:4775   */\n      dup3\n        /* \"#utility.yul\":4747:4776   */\n      tag_267\n      jump\t// in\n    tag_386:\n        /* \"#utility.yul\":4739:4776   */\n      swap1\n      pop\n        /* \"#utility.yul\":4831:4835   */\n      0x20\n        /* \"#utility.yul\":4825:4829   */\n      dup2\n        /* \"#utility.yul\":4821:4836   */\n      add\n        /* \"#utility.yul\":4813:4836   */\n      swap1\n      pop\n        /* \"#utility.yul\":4535:4843   */\n      swap2\n      swap1\n      pop\n      jump\t// out\n        /* \"#utility.yul\":4849:4995   */\n    tag_280:\n        /* \"#utility.yul\":4946:4952   */\n      dup3\n        /* \"#utility.yul\":4941:4944   */\n      dup2\n        /* \"#utility.yul\":4936:4939   */\n      dup4\n        /* \"#utility.yul\":4923:4953   */\n      calldatacopy\n        /* \"#utility.yul\":4987:4988   */\n      0x00\n        /* \"#utility.yul\":4978:4984   */\n      dup4\n        /* \"#utility.yul\":4973:4976   */\n      dup4\n        /* \"#utility.yul\":4969:4985   */\n      add\n        /* \"#utility.yul\":4962:4989   */\n      mstore\n        /* \"#utility.yul\":4849:4995   */\n      pop\n      pop\n      pop\n      jump\t// out\n        /* \"#utility.yul\":5001:5426   */\n    tag_281:\n        /* \"#utility.yul\":5079:5084   */\n      0x00\n        /* \"#utility.yul\":5104:5170   */\n      tag_389\n        /* \"#utility.yul\":5120:5169   */\n      tag_390\n        /* \"#utility.yul\":5162:5168   */\n      dup5\n        /* \"#utility.yul\":5120:5169   */\n      tag_279\n      jump\t// in\n    tag_390:\n        /* \"#utility.yul\":5104:5170   */\n      tag_278\n      jump\t// in\n    tag_389:\n        /* \"#utility.yul\":5095:5170   */\n      swap1\n      pop\n        /* \"#utility.yul\":5193:5199   */\n      dup3\n        /* \"#utility.yul\":5186:5191   */\n      dup2\n        /* \"#utility.yul\":5179:5200   */\n      mstore\n        /* \"#utility.yul\":5231:5235   */\n      0x20\n        /* \"#utility.yul\":5224:5229   */\n      dup2\n        /* \"#utility.yul\":5220:5236   */\n      add\n        /* \"#utility.yul\":5269:5272   */\n      dup5\n        /* \"#utility.yul\":5260:5266   */\n      dup5\n        /* \"#utility.yul\":5255:5258   */\n      dup5\n        /* \"#utility.yul\":5251:5267   */\n      add\n        /* \"#utility.yul\":5248:5273   */\n      gt\n        /* \"#utility.yul\":5245:5357   */\n      iszero\n      tag_391\n      jumpi\n        /* \"#utility.yul\":5276:5355   */\n      tag_392\n      tag_276\n      jump\t// in\n    tag_392:\n        /* \"#utility.yul\":5245:5357   */\n    tag_391:\n        /* \"#utility.yul\":5366:5420   */\n      tag_393\n        /* \"#utility.yul\":5413:5419   */\n      dup5\n        /* \"#utility.yul\":5408:5411   */\n      dup3\n        /* \"#utility.yul\":5403:5406   */\n      dup6\n        /* \"#utility.yul\":5366:5420   */\n      tag_280\n      jump\t// in\n    tag_393:\n        /* \"#utility.yul\":5085:5426   */\n      pop\n        /* \"#utility.yul\":5001:5426   */\n      swap4\n      swap3\n      pop\n      pop\n      pop\n      jump\t// out\n        /* \"#utility.yul\":5446:5786   */\n    tag_282:\n        /* \"#utility.yul\":5502:5507   */\n      0x00\n        /* \"#utility.yul\":5551:5554   */\n      dup3\n        /* \"#utility.yul\":5544:5548   */\n      0x1f\n        /* \"#utility.yul\":5536:5542   */\n      dup4\n        /* \"#utility.yul\":5532:5549   */\n      add\n        /* \"#utility.yul\":5528:5555   */\n      slt\n        /* \"#utility.yul\":5518:5640   */\n      tag_395\n      jumpi\n        /* \"#utility.yul\":5559:5638   */\n      tag_396\n      tag_275\n      jump\t// in\n    tag_396:\n        /* \"#utility.yul\":5518:5640   */\n    tag_395:\n        /* \"#utility.yul\":5676:5682   */\n      dup2\n        /* \"#utility.yul\":5663:5683   */\n      calldataload\n        /* \"#utility.yul\":5701:5780   */\n      tag_397\n        /* \"#utility.yul\":5776:5779   */\n      dup5\n        /* \"#utility.yul\":5768:5774   */\n      dup3\n        /* \"#utility.yul\":5761:5765   */\n      0x20\n        /* \"#utility.yul\":5753:5759   */\n      dup7\n        /* \"#utility.yul\":5749:5766   */\n      add\n        /* \"#utility.yul\":5701:5780   */\n      tag_281\n      jump\t// in\n    tag_397:\n        /* \"#utility.yul\":5692:5780   */\n      swap2\n      pop\n        /* \"#utility.yul\":5508:5786   */\n      pop\n        /* \"#utility.yul\":5446:5786   */\n      swap3\n      swap2\n      pop\n      pop\n      jump\t// out\n        /* \"#utility.yul\":5792:6591   */\n    tag_41:\n        /* \"#utility.yul\":5879:5885   */\n      0x00\n        /* \"#utility.yul\":5887:5893   */\n      dup1\n        /* \"#utility.yul\":5895:5901   */\n      0x00\n        /* \"#utility.yul\":5944:5946   */\n      0x60\n        /* \"#utility.yul\":5932:5941   */\n      dup5\n        /* \"#utility.yul\":5923:5930   */\n      dup7\n        /* \"#utility.yul\":5919:5942   */\n      sub\n        /* \"#utility.yul\":5915:5947   */\n      slt\n        /* \"#utility.yul\":5912:6031   */\n      iszero\n      tag_399\n      jumpi\n        /* \"#utility.yul\":5950:6029   */\n      tag_400\n      tag_259\n      jump\t// in\n    tag_400:\n        /* \"#utility.yul\":5912:6031   */\n    tag_399:\n        /* \"#utility.yul\":6070:6071   */\n      0x00\n        /* \"#utility.yul\":6095:6148   */\n      tag_401\n        /* \"#utility.yul\":6140:6147   */\n      dup7\n        /* \"#utility.yul\":6131:6137   */\n      dup3\n        /* \"#utility.yul\":6120:6129   */\n      dup8\n        /* \"#utility.yul\":6116:6138   */\n      add\n        /* \"#utility.yul\":6095:6148   */\n      tag_274\n      jump\t// in\n    tag_401:\n        /* \"#utility.yul\":6085:6148   */\n      swap4\n      pop\n        /* \"#utility.yul\":6041:6158   */\n      pop\n        /* \"#utility.yul\":6225:6227   */\n      0x20\n        /* \"#utility.yul\":6214:6223   */\n      dup5\n        /* \"#utility.yul\":6210:6228   */\n      add\n        /* \"#utility.yul\":6197:6229   */\n      calldataload\n        /* \"#utility.yul\":6256:6274   */\n      0xffffffffffffffff\n        /* \"#utility.yul\":6248:6254   */\n      dup2\n        /* \"#utility.yul\":6245:6275   */\n      gt\n        /* \"#utility.yul\":6242:6359   */\n      iszero\n      tag_402\n      jumpi\n        /* \"#utility.yul\":6278:6357   */\n      tag_403\n      tag_260\n      jump\t// in\n    tag_403:\n        /* \"#utility.yul\":6242:6359   */\n    tag_402:\n        /* \"#utility.yul\":6383:6446   */\n      tag_404\n        /* \"#utility.yul\":6438:6445   */\n      dup7\n        /* \"#utility.yul\":6429:6435   */\n      dup3\n        /* \"#utility.yul\":6418:6427   */\n      dup8\n        /* \"#utility.yul\":6414:6436   */\n      add\n        /* \"#utility.yul\":6383:6446   */\n      tag_282\n      jump\t// in\n    tag_404:\n        /* \"#utility.yul\":6373:6446   */\n      swap3\n      pop\n        /* \"#utility.yul\":6168:6456   */\n      pop\n        /* \"#utility.yul\":6495:6497   */\n      0x40\n        /* \"#utility.yul\":6521:6574   */\n      tag_405\n        /* \"#utility.yul\":6566:6573   */\n      dup7\n        /* \"#utility.yul\":6557:6563   */\n      dup3\n        /* \"#utility.yul\":6546:6555   */\n      dup8\n        /* \"#utility.yul\":6542:6564   */\n      add\n        /* \"#utility.yul\":6521:6574   */\n      tag_274\n      jump\t// in\n    tag_405:\n        /* \"#utility.yul\":6511:6574   */\n      swap2\n      pop\n        /* \"#utility.yul\":6466:6584   */\n      pop\n        /* \"#utility.yul\":5792:6591   */\n      swap3\n      pop\n      swap3\n      pop\n      swap3\n      jump\t// out\n        /* \"#utility.yul\":6597:8089   */\n    tag_44:\n        /* \"#utility.yul\":7002:7006   */\n      0x00\n        /* \"#utility.yul\":7040:7043   */\n      0x0140\n        /* \"#utility.yul\":7029:7038   */\n      dup3\n        /* \"#utility.yul\":7025:7044   */\n      add\n        /* \"#utility.yul\":7017:7044   */\n      swap1\n      pop\n        /* \"#utility.yul\":7090:7099   */\n      dup2\n        /* \"#utility.yul\":7084:7088   */\n      dup2\n        /* \"#utility.yul\":7080:7100   */\n      sub\n        /* \"#utility.yul\":7076:7077   */\n      0x00\n        /* \"#utility.yul\":7065:7074   */\n      dup4\n        /* \"#utility.yul\":7061:7078   */\n      add\n        /* \"#utility.yul\":7054:7101   */\n      mstore\n        /* \"#utility.yul\":7118:7196   */\n      tag_407\n        /* \"#utility.yul\":7191:7195   */\n      dup2\n        /* \"#utility.yul\":7182:7188   */\n      dup14\n        /* \"#utility.yul\":7118:7196   */\n      tag_268\n      jump\t// in\n    tag_407:\n        /* \"#utility.yul\":7110:7196   */\n      swap1\n      pop\n        /* \"#utility.yul\":7243:7252   */\n      dup2\n        /* \"#utility.yul\":7237:7241   */\n      dup2\n        /* \"#utility.yul\":7233:7253   */\n      sub\n        /* \"#utility.yul\":7228:7230   */\n      0x20\n        /* \"#utility.yul\":7217:7226   */\n      dup4\n        /* \"#utility.yul\":7213:7231   */\n      add\n        /* \"#utility.yul\":7206:7254   */\n      mstore\n        /* \"#utility.yul\":7271:7349   */\n      tag_408\n        /* \"#utility.yul\":7344:7348   */\n      dup2\n        /* \"#utility.yul\":7335:7341   */\n      dup13\n        /* \"#utility.yul\":7271:7349   */\n      tag_268\n      jump\t// in\n    tag_408:\n        /* \"#utility.yul\":7263:7349   */\n      swap1\n      pop\n        /* \"#utility.yul\":7396:7405   */\n      dup2\n        /* \"#utility.yul\":7390:7394   */\n      dup2\n        /* \"#utility.yul\":7386:7406   */\n      sub\n        /* \"#utility.yul\":7381:7383   */\n      0x40\n        /* \"#utility.yul\":7370:7379   */\n      dup4\n        /* \"#utility.yul\":7366:7384   */\n      add\n        /* \"#utility.yul\":7359:7407   */\n      mstore\n        /* \"#utility.yul\":7424:7502   */\n      tag_409\n        /* \"#utility.yul\":7497:7501   */\n      dup2\n        /* \"#utility.yul\":7488:7494   */\n      dup12\n        /* \"#utility.yul\":7424:7502   */\n      tag_268\n      jump\t// in\n    tag_409:\n        /* \"#utility.yul\":7416:7502   */\n      swap1\n      pop\n        /* \"#utility.yul\":7512:7584   */\n      tag_410\n        /* \"#utility.yul\":7580:7582   */\n      0x60\n        /* \"#utility.yul\":7569:7578   */\n      dup4\n        /* \"#utility.yul\":7565:7583   */\n      add\n        /* \"#utility.yul\":7556:7562   */\n      dup11\n        /* \"#utility.yul\":7512:7584   */\n      tag_272\n      jump\t// in\n    tag_410:\n        /* \"#utility.yul\":7594:7667   */\n      tag_411\n        /* \"#utility.yul\":7662:7665   */\n      0x80\n        /* \"#utility.yul\":7651:7660   */\n      dup4\n        /* \"#utility.yul\":7647:7666   */\n      add\n        /* \"#utility.yul\":7638:7644   */\n      dup10\n        /* \"#utility.yul\":7594:7667   */\n      tag_272\n      jump\t// in\n    tag_411:\n        /* \"#utility.yul\":7677:7750   */\n      tag_412\n        /* \"#utility.yul\":7745:7748   */\n      0xa0\n        /* \"#utility.yul\":7734:7743   */\n      dup4\n        /* \"#utility.yul\":7730:7749   */\n      add\n        /* \"#utility.yul\":7721:7727   */\n      dup9\n        /* \"#utility.yul\":7677:7750   */\n      tag_272\n      jump\t// in\n    tag_412:\n        /* \"#utility.yul\":7760:7833   */\n      tag_413\n        /* \"#utility.yul\":7828:7831   */\n      0xc0\n        /* \"#utility.yul\":7817:7826   */\n      dup4\n        /* \"#utility.yul\":7813:7832   */\n      add\n        /* \"#utility.yul\":7804:7810   */\n      dup8\n        /* \"#utility.yul\":7760:7833   */\n      tag_272\n      jump\t// in\n    tag_413:\n        /* \"#utility.yul\":7843:7916   */\n      tag_414\n        /* \"#utility.yul\":7911:7914   */\n      0xe0\n        /* \"#utility.yul\":7900:7909   */\n      dup4\n        /* \"#utility.yul\":7896:7915   */\n      add\n        /* \"#utility.yul\":7887:7893   */\n      dup7\n        /* \"#utility.yul\":7843:7916   */\n      tag_272\n      jump\t// in\n    tag_414:\n        /* \"#utility.yul\":7926:7999   */\n      tag_415\n        /* \"#utility.yul\":7994:7997   */\n      0x0100\n        /* \"#utility.yul\":7983:7992   */\n      dup4\n        /* \"#utility.yul\":7979:7998   */\n      add\n        /* \"#utility.yul\":7970:7976   */\n      dup6\n        /* \"#utility.yul\":7926:7999   */\n      tag_272\n      jump\t// in\n    tag_415:\n        /* \"#utility.yul\":8009:8082   */\n      tag_416\n        /* \"#utility.yul\":8077:8080   */\n      0x0120\n        /* \"#utility.yul\":8066:8075   */\n      dup4\n        /* \"#utility.yul\":8062:8081   */\n      add\n        /* \"#utility.yul\":8053:8059   */\n      dup5\n        /* \"#utility.yul\":8009:8082   */\n      tag_272\n      jump\t// in\n    tag_416:\n        /* \"#utility.yul\":6597:8089   */\n      swap12\n      swap11\n      pop\n      pop\n      pop\n      pop\n      pop\n      pop\n      pop\n      pop\n      pop\n      pop\n      pop\n      jump\t// out\n        /* \"#utility.yul\":8095:8424   */\n    tag_48:\n        /* \"#utility.yul\":8154:8160   */\n      0x00\n        /* \"#utility.yul\":8203:8205   */\n      0x20\n        /* \"#utility.yul\":8191:8200   */\n      dup3\n        /* \"#utility.yul\":8182:8189   */\n      dup5\n        /* \"#utility.yul\":8178:8201   */\n      sub\n        /* \"#utility.yul\":8174:8206   */\n      slt\n        /* \"#utility.yul\":8171:8290   */\n      iszero\n      tag_418\n      jumpi\n        /* \"#utility.yul\":8209:8288   */\n      tag_419\n      tag_259\n      jump\t// in\n    tag_419:\n        /* \"#utility.yul\":8171:8290   */\n    tag_418:\n        /* \"#utility.yul\":8329:8330   */\n      0x00\n        /* \"#utility.yul\":8354:8407   */\n      tag_420\n        /* \"#utility.yul\":8399:8406   */\n      dup5\n        /* \"#utility.yul\":8390:8396   */\n      dup3\n        /* \"#utility.yul\":8379:8388   */\n      dup6\n        /* \"#utility.yul\":8375:8397   */\n      add\n        /* \"#utility.yul\":8354:8407   */\n      tag_274\n      jump\t// in\n    tag_420:\n        /* \"#utility.yul\":8344:8407   */\n      swap2\n      pop\n        /* \"#utility.yul\":8300:8417   */\n      pop\n        /* \"#utility.yul\":8095:8424   */\n      swap3\n      swap2\n      pop\n      pop\n      jump\t// out\n        /* \"#utility.yul\":8430:8652   */\n    tag_51:\n        /* \"#utility.yul\":8523:8527   */\n      0x00\n        /* \"#utility.yul\":8561:8563   */\n      0x20\n        /* \"#utility.yul\":8550:8559   */\n      dup3\n        /* \"#utility.yul\":8546:8564   */\n      add\n        /* \"#utility.yul\":8538:8564   */\n      swap1\n      pop\n        /* \"#utility.yul\":8574:8645   */\n      tag_422\n        /* \"#utility.yul\":8642:8643   */\n      0x00\n        /* \"#utility.yul\":8631:8640   */\n      dup4\n        /* \"#utility.yul\":8627:8644   */\n      add\n        /* \"#utility.yul\":8618:8624   */\n      dup5\n        /* \"#utility.yul\":8574:8645   */\n      tag_272\n      jump\t// in\n    tag_422:\n        /* \"#utility.yul\":8430:8652   */\n      swap3\n      swap2\n      pop\n      pop\n      jump\t// out\n        /* \"#utility.yul\":8658:9132   */\n    tag_60:\n        /* \"#utility.yul\":8726:8732   */\n      0x00\n        /* \"#utility.yul\":8734:8740   */\n      dup1\n        /* \"#utility.yul\":8783:8785   */\n      0x40\n        /* \"#utility.yul\":8771:8780   */\n      dup4\n        /* \"#utility.yul\":8762:8769   */\n      dup6\n        /* \"#utility.yul\":8758:8781   */\n      sub\n        /* \"#utility.yul\":8754:8786   */\n      slt\n        /* \"#utility.yul\":8751:8870   */\n      iszero\n      tag_424\n      jumpi\n        /* \"#utility.yul\":8789:8868   */\n      tag_425\n      tag_259\n      jump\t// in\n    tag_425:\n        /* \"#utility.yul\":8751:8870   */\n    tag_424:\n        /* \"#utility.yul\":8909:8910   */\n      0x00\n        /* \"#utility.yul\":8934:8987   */\n      tag_426\n        /* \"#utility.yul\":8979:8986   */\n      dup6\n        /* \"#utility.yul\":8970:8976   */\n      dup3\n        /* \"#utility.yul\":8959:8968   */\n      dup7\n        /* \"#utility.yul\":8955:8977   */\n      add\n        /* \"#utility.yul\":8934:8987   */\n      tag_274\n      jump\t// in\n    tag_426:\n        /* \"#utility.yul\":8924:8987   */\n      swap3\n      pop\n        /* \"#utility.yul\":8880:8997   */\n      pop\n        /* \"#utility.yul\":9036:9038   */\n      0x20\n        /* \"#utility.yul\":9062:9115   */\n      tag_427\n        /* \"#utility.yul\":9107:9114   */\n      dup6\n        /* \"#utility.yul\":9098:9104   */\n      dup3\n        /* \"#utility.yul\":9087:9096   */\n      dup7\n        /* \"#utility.yul\":9083:9105   */\n      add\n        /* \"#utility.yul\":9062:9115   */\n      tag_263\n      jump\t// in\n    tag_427:\n        /* \"#utility.yul\":9052:9115   */\n      swap2\n      pop\n        /* \"#utility.yul\":9007:9125   */\n      pop\n        /* \"#utility.yul\":8658:9132   */\n      swap3\n      pop\n      swap3\n      swap1\n      pop\n      jump\t// out\n        /* \"#utility.yul\":9138:9360   */\n    tag_68:\n        /* \"#utility.yul\":9231:9235   */\n      0x00\n        /* \"#utility.yul\":9269:9271   */\n      0x20\n        /* \"#utility.yul\":9258:9267   */\n      dup3\n        /* \"#utility.yul\":9254:9272   */\n      add\n        /* \"#utility.yul\":9246:9272   */\n      swap1\n      pop\n        /* \"#utility.yul\":9282:9353   */\n      tag_429\n        /* \"#utility.yul\":9350:9351   */\n      0x00\n        /* \"#utility.yul\":9339:9348   */\n      dup4\n        /* \"#utility.yul\":9335:9352   */\n      add\n        /* \"#utility.yul\":9326:9332   */\n      dup5\n        /* \"#utility.yul\":9282:9353   */\n      tag_271\n      jump\t// in\n    tag_429:\n        /* \"#utility.yul\":9138:9360   */\n      swap3\n      swap2\n      pop\n      pop\n      jump\t// out\n        /* \"#utility.yul\":9366:9875   */\n    tag_72:\n        /* \"#utility.yul\":9435:9441   */\n      0x00\n        /* \"#utility.yul\":9484:9486   */\n      0x20\n        /* \"#utility.yul\":9472:9481   */\n      dup3\n        /* \"#utility.yul\":9463:9470   */\n      dup5\n        /* \"#utility.yul\":9459:9482   */\n      sub\n        /* \"#utility.yul\":9455:9487   */\n      slt\n        /* \"#utility.yul\":9452:9571   */\n      iszero\n      tag_431\n      jumpi\n        /* \"#utility.yul\":9490:9569   */\n      tag_432\n      tag_259\n      jump\t// in\n    tag_432:\n        /* \"#utility.yul\":9452:9571   */\n    tag_431:\n        /* \"#utility.yul\":9638:9639   */\n      0x00\n        /* \"#utility.yul\":9627:9636   */\n      dup3\n        /* \"#utility.yul\":9623:9640   */\n      add\n        /* \"#utility.yul\":9610:9641   */\n      calldataload\n        /* \"#utility.yul\":9668:9686   */\n      0xffffffffffffffff\n        /* \"#utility.yul\":9660:9666   */\n      dup2\n        /* \"#utility.yul\":9657:9687   */\n      gt\n        /* \"#utility.yul\":9654:9771   */\n      iszero\n      tag_433\n      jumpi\n        /* \"#utility.yul\":9690:9769   */\n      tag_434\n      tag_260\n      jump\t// in\n    tag_434:\n        /* \"#utility.yul\":9654:9771   */\n    tag_433:\n        /* \"#utility.yul\":9795:9858   */\n      tag_435\n        /* \"#utility.yul\":9850:9857   */\n      dup5\n        /* \"#utility.yul\":9841:9847   */\n      dup3\n        /* \"#utility.yul\":9830:9839   */\n      dup6\n        /* \"#utility.yul\":9826:9848   */\n      add\n        /* \"#utility.yul\":9795:9858   */\n      tag_282\n      jump\t// in\n    tag_435:\n        /* \"#utility.yul\":9785:9858   */\n      swap2\n      pop\n        /* \"#utility.yul\":9581:9868   */\n      pop\n        /* \"#utility.yul\":9366:9875   */\n      swap3\n      swap2\n      pop\n      pop\n      jump\t// out\n        /* \"#utility.yul\":9881:10005   */\n    tag_283:\n        /* \"#utility.yul\":9958:9964   */\n      0x00\n        /* \"#utility.yul\":9992:9997   */\n      dup2\n        /* \"#utility.yul\":9986:9998   */\n      mload\n        /* \"#utility.yul\":9976:9998   */\n      swap1\n      pop\n        /* \"#utility.yul\":9881:10005   */\n      swap2\n      swap1\n      pop\n      jump\t// out\n        /* \"#utility.yul\":10011:10205   */\n    tag_284:\n        /* \"#utility.yul\":10120:10131   */\n      0x00\n        /* \"#utility.yul\":10154:10160   */\n      dup3\n        /* \"#utility.yul\":10149:10152   */\n      dup3\n        /* \"#utility.yul\":10142:10161   */\n      mstore\n        /* \"#utility.yul\":10194:10198   */\n      0x20\n        /* \"#utility.yul\":10189:10192   */\n      dup3\n        /* \"#utility.yul\":10185:10199   */\n      add\n        /* \"#utility.yul\":10170:10199   */\n      swap1\n      pop\n        /* \"#utility.yul\":10011:10205   */\n      swap3\n      swap2\n      pop\n      pop\n      jump\t// out\n        /* \"#utility.yul\":10211:10353   */\n    tag_285:\n        /* \"#utility.yul\":10288:10292   */\n      0x00\n        /* \"#utility.yul\":10311:10314   */\n      dup2\n        /* \"#utility.yul\":10303:10314   */\n      swap1\n      pop\n        /* \"#utility.yul\":10341:10345   */\n      0x20\n        /* \"#utility.yul\":10336:10339   */\n      dup3\n        /* \"#utility.yul\":10332:10346   */\n      add\n        /* \"#utility.yul\":10324:10346   */\n      swap1\n      pop\n        /* \"#utility.yul\":10211:10353   */\n      swap2\n      swap1\n      pop\n      jump\t// out\n        /* \"#utility.yul\":10359:10518   */\n    tag_286:\n        /* \"#utility.yul\":10433:10444   */\n      0x00\n        /* \"#utility.yul\":10467:10473   */\n      dup3\n        /* \"#utility.yul\":10462:10465   */\n      dup3\n        /* \"#utility.yul\":10455:10474   */\n      mstore\n        /* \"#utility.yul\":10507:10511   */\n      0x20\n        /* \"#utility.yul\":10502:10505   */\n      dup3\n        /* \"#utility.yul\":10498:10512   */\n      add\n        /* \"#utility.yul\":10483:10512   */\n      swap1\n      pop\n        /* \"#utility.yul\":10359:10518   */\n      swap3\n      swap2\n      pop\n      pop\n      jump\t// out\n        /* \"#utility.yul\":10524:10881   */\n    tag_287:\n        /* \"#utility.yul\":10602:10605   */\n      0x00\n        /* \"#utility.yul\":10630:10669   */\n      tag_441\n        /* \"#utility.yul\":10663:10668   */\n      dup3\n        /* \"#utility.yul\":10630:10669   */\n      tag_264\n      jump\t// in\n    tag_441:\n        /* \"#utility.yul\":10685:10746   */\n      tag_442\n        /* \"#utility.yul\":10739:10745   */\n      dup2\n        /* \"#utility.yul\":10734:10737   */\n      dup6\n        /* \"#utility.yul\":10685:10746   */\n      tag_286\n      jump\t// in\n    tag_442:\n        /* \"#utility.yul\":10678:10746   */\n      swap4\n      pop\n        /* \"#utility.yul\":10755:10820   */\n      tag_443\n        /* \"#utility.yul\":10813:10819   */\n      dup2\n        /* \"#utility.yul\":10808:10811   */\n      dup6\n        /* \"#utility.yul\":10801:10805   */\n      0x20\n        /* \"#utility.yul\":10794:10799   */\n      dup7\n        /* \"#utility.yul\":10790:10806   */\n      add\n        /* \"#utility.yul\":10755:10820   */\n      tag_266\n      jump\t// in\n    tag_443:\n        /* \"#utility.yul\":10845:10874   */\n      tag_444\n        /* \"#utility.yul\":10867:10873   */\n      dup2\n        /* \"#utility.yul\":10845:10874   */\n      tag_267\n      jump\t// in\n    tag_444:\n        /* \"#utility.yul\":10840:10843   */\n      dup5\n        /* \"#utility.yul\":10836:10875   */\n      add\n        /* \"#utility.yul\":10829:10875   */\n      swap2\n      pop\n        /* \"#utility.yul\":10606:10881   */\n      pop\n        /* \"#utility.yul\":10524:10881   */\n      swap3\n      swap2\n      pop\n      pop\n      jump\t// out\n        /* \"#utility.yul\":10887:11083   */\n    tag_288:\n        /* \"#utility.yul\":10976:10986   */\n      0x00\n        /* \"#utility.yul\":11011:11077   */\n      tag_446\n        /* \"#utility.yul\":11073:11076   */\n      dup4\n        /* \"#utility.yul\":11065:11071   */\n      dup4\n        /* \"#utility.yul\":11011:11077   */\n      tag_287\n      jump\t// in\n    tag_446:\n        /* \"#utility.yul\":10997:11077   */\n      swap1\n      pop\n        /* \"#utility.yul\":10887:11083   */\n      swap3\n      swap2\n      pop\n      pop\n      jump\t// out\n        /* \"#utility.yul\":11089:11212   */\n    tag_289:\n        /* \"#utility.yul\":11169:11173   */\n      0x00\n        /* \"#utility.yul\":11201:11205   */\n      0x20\n        /* \"#utility.yul\":11196:11199   */\n      dup3\n        /* \"#utility.yul\":11192:11206   */\n      add\n        /* \"#utility.yul\":11184:11206   */\n      swap1\n      pop\n        /* \"#utility.yul\":11089:11212   */\n      swap2\n      swap1\n      pop\n      jump\t// out\n        /* \"#utility.yul\":11246:12237   */\n    tag_290:\n        /* \"#utility.yul\":11385:11388   */\n      0x00\n        /* \"#utility.yul\":11414:11478   */\n      tag_449\n        /* \"#utility.yul\":11472:11477   */\n      dup3\n        /* \"#utility.yul\":11414:11478   */\n      tag_283\n      jump\t// in\n    tag_449:\n        /* \"#utility.yul\":11494:11590   */\n      tag_450\n        /* \"#utility.yul\":11583:11589   */\n      dup2\n        /* \"#utility.yul\":11578:11581   */\n      dup6\n        /* \"#utility.yul\":11494:11590   */\n      tag_284\n      jump\t// in\n    tag_450:\n        /* \"#utility.yul\":11487:11590   */\n      swap4\n      pop\n        /* \"#utility.yul\":11616:11619   */\n      dup4\n        /* \"#utility.yul\":11661:11665   */\n      0x20\n        /* \"#utility.yul\":11653:11659   */\n      dup3\n        /* \"#utility.yul\":11649:11666   */\n      mul\n        /* \"#utility.yul\":11644:11647   */\n      dup6\n        /* \"#utility.yul\":11640:11667   */\n      add\n        /* \"#utility.yul\":11691:11757   */\n      tag_451\n        /* \"#utility.yul\":11751:11756   */\n      dup6\n        /* \"#utility.yul\":11691:11757   */\n      tag_285\n      jump\t// in\n    tag_451:\n        /* \"#utility.yul\":11780:11787   */\n      dup1\n        /* \"#utility.yul\":11811:11812   */\n      0x00\n        /* \"#utility.yul\":11796:12192   */\n    tag_452:\n        /* \"#utility.yul\":11821:11827   */\n      dup6\n        /* \"#utility.yul\":11818:11819   */\n      dup2\n        /* \"#utility.yul\":11815:11828   */\n      lt\n        /* \"#utility.yul\":11796:12192   */\n      iszero\n      tag_454\n      jumpi\n        /* \"#utility.yul\":11892:11901   */\n      dup5\n        /* \"#utility.yul\":11886:11890   */\n      dup5\n        /* \"#utility.yul\":11882:11902   */\n      sub\n        /* \"#utility.yul\":11877:11880   */\n      dup10\n        /* \"#utility.yul\":11870:11903   */\n      mstore\n        /* \"#utility.yul\":11943:11949   */\n      dup2\n        /* \"#utility.yul\":11937:11950   */\n      mload\n        /* \"#utility.yul\":11971:12055   */\n      tag_455\n        /* \"#utility.yul\":12050:12054   */\n      dup6\n        /* \"#utility.yul\":12035:12048   */\n      dup3\n        /* \"#utility.yul\":11971:12055   */\n      tag_288\n      jump\t// in\n    tag_455:\n        /* \"#utility.yul\":11963:12055   */\n      swap5\n      pop\n        /* \"#utility.yul\":12078:12148   */\n      tag_456\n        /* \"#utility.yul\":12141:12147   */\n      dup4\n        /* \"#utility.yul\":12078:12148   */\n      tag_289\n      jump\t// in\n    tag_456:\n        /* \"#utility.yul\":12068:12148   */\n      swap3\n      pop\n        /* \"#utility.yul\":12177:12181   */\n      0x20\n        /* \"#utility.yul\":12172:12175   */\n      dup11\n        /* \"#utility.yul\":12168:12182   */\n      add\n        /* \"#utility.yul\":12161:12182   */\n      swap10\n      pop\n        /* \"#utility.yul\":11856:12192   */\n      pop\n        /* \"#utility.yul\":11843:11844   */\n      0x01\n        /* \"#utility.yul\":11840:11841   */\n      dup2\n        /* \"#utility.yul\":11836:11845   */\n      add\n        /* \"#utility.yul\":11831:11845   */\n      swap1\n      pop\n        /* \"#utility.yul\":11796:12192   */\n      jump(tag_452)\n    tag_454:\n        /* \"#utility.yul\":11800:11814   */\n      pop\n        /* \"#utility.yul\":12208:12212   */\n      dup3\n        /* \"#utility.yul\":12201:12212   */\n      swap8\n      pop\n        /* \"#utility.yul\":12228:12231   */\n      dup8\n        /* \"#utility.yul\":12221:12231   */\n      swap6\n      pop\n        /* \"#utility.yul\":11390:12237   */\n      pop\n      pop\n      pop\n      pop\n      pop\n        /* \"#utility.yul\":11246:12237   */\n      swap3\n      swap2\n      pop\n      pop\n      jump\t// out\n        /* \"#utility.yul\":12243:12388   */\n    tag_291:\n        /* \"#utility.yul\":12341:12347   */\n      0x00\n        /* \"#utility.yul\":12375:12380   */\n      dup2\n        /* \"#utility.yul\":12369:12381   */\n      mload\n        /* \"#utility.yul\":12359:12381   */\n      swap1\n      pop\n        /* \"#utility.yul\":12243:12388   */\n      swap2\n      swap1\n      pop\n      jump\t// out\n        /* \"#utility.yul\":12394:12609   */\n    tag_292:\n        /* \"#utility.yul\":12524:12535   */\n      0x00\n        /* \"#utility.yul\":12558:12564   */\n      dup3\n        /* \"#utility.yul\":12553:12556   */\n      dup3\n        /* \"#utility.yul\":12546:12565   */\n      mstore\n        /* \"#utility.yul\":12598:12602   */\n      0x20\n        /* \"#utility.yul\":12593:12596   */\n      dup3\n        /* \"#utility.yul\":12589:12603   */\n      add\n        /* \"#utility.yul\":12574:12603   */\n      swap1\n      pop\n        /* \"#utility.yul\":12394:12609   */\n      swap3\n      swap2\n      pop\n      pop\n      jump\t// out\n        /* \"#utility.yul\":12615:12778   */\n    tag_293:\n        /* \"#utility.yul\":12713:12717   */\n      0x00\n        /* \"#utility.yul\":12736:12739   */\n      dup2\n        /* \"#utility.yul\":12728:12739   */\n      swap1\n      pop\n        /* \"#utility.yul\":12766:12770   */\n      0x20\n        /* \"#utility.yul\":12761:12764   */\n      dup3\n        /* \"#utility.yul\":12757:12771   */\n      add\n        /* \"#utility.yul\":12749:12771   */\n      swap1\n      pop\n        /* \"#utility.yul\":12615:12778   */\n      swap2\n      swap1\n      pop\n      jump\t// out\n        /* \"#utility.yul\":12784:12892   */\n    tag_294:\n        /* \"#utility.yul\":12861:12885   */\n      tag_461\n        /* \"#utility.yul\":12879:12884   */\n      dup2\n        /* \"#utility.yul\":12861:12885   */\n      tag_261\n      jump\t// in\n    tag_461:\n        /* \"#utility.yul\":12856:12859   */\n      dup3\n        /* \"#utility.yul\":12849:12886   */\n      mstore\n        /* \"#utility.yul\":12784:12892   */\n      pop\n      pop\n      jump\t// out\n        /* \"#utility.yul\":12998:15233   */\n    tag_295:\n        /* \"#utility.yul\":13119:13122   */\n      0x00\n        /* \"#utility.yul\":13155:13161   */\n      0x0140\n        /* \"#utility.yul\":13150:13153   */\n      dup4\n        /* \"#utility.yul\":13146:13162   */\n      add\n        /* \"#utility.yul\":13244:13248   */\n      0x00\n        /* \"#utility.yul\":13237:13242   */\n      dup4\n        /* \"#utility.yul\":13233:13249   */\n      add\n        /* \"#utility.yul\":13227:13250   */\n      mload\n        /* \"#utility.yul\":13297:13300   */\n      dup5\n        /* \"#utility.yul\":13291:13295   */\n      dup3\n        /* \"#utility.yul\":13287:13301   */\n      sub\n        /* \"#utility.yul\":13280:13284   */\n      0x00\n        /* \"#utility.yul\":13275:13278   */\n      dup7\n        /* \"#utility.yul\":13271:13285   */\n      add\n        /* \"#utility.yul\":13264:13302   */\n      mstore\n        /* \"#utility.yul\":13323:13396   */\n      tag_463\n        /* \"#utility.yul\":13391:13395   */\n      dup3\n        /* \"#utility.yul\":13377:13389   */\n      dup3\n        /* \"#utility.yul\":13323:13396   */\n      tag_287\n      jump\t// in\n    tag_463:\n        /* \"#utility.yul\":13315:13396   */\n      swap2\n      pop\n        /* \"#utility.yul\":13172:13407   */\n      pop\n        /* \"#utility.yul\":13491:13495   */\n      0x20\n        /* \"#utility.yul\":13484:13489   */\n      dup4\n        /* \"#utility.yul\":13480:13496   */\n      add\n        /* \"#utility.yul\":13474:13497   */\n      mload\n        /* \"#utility.yul\":13544:13547   */\n      dup5\n        /* \"#utility.yul\":13538:13542   */\n      dup3\n        /* \"#utility.yul\":13534:13548   */\n      sub\n        /* \"#utility.yul\":13527:13531   */\n      0x20\n        /* \"#utility.yul\":13522:13525   */\n      dup7\n        /* \"#utility.yul\":13518:13532   */\n      add\n        /* \"#utility.yul\":13511:13549   */\n      mstore\n        /* \"#utility.yul\":13570:13643   */\n      tag_464\n        /* \"#utility.yul\":13638:13642   */\n      dup3\n        /* \"#utility.yul\":13624:13636   */\n      dup3\n        /* \"#utility.yul\":13570:13643   */\n      tag_287\n      jump\t// in\n    tag_464:\n        /* \"#utility.yul\":13562:13643   */\n      swap2\n      pop\n        /* \"#utility.yul\":13417:13654   */\n      pop\n        /* \"#utility.yul\":13747:13751   */\n      0x40\n        /* \"#utility.yul\":13740:13745   */\n      dup4\n        /* \"#utility.yul\":13736:13752   */\n      add\n        /* \"#utility.yul\":13730:13753   */\n      mload\n        /* \"#utility.yul\":13800:13803   */\n      dup5\n        /* \"#utility.yul\":13794:13798   */\n      dup3\n        /* \"#utility.yul\":13790:13804   */\n      sub\n        /* \"#utility.yul\":13783:13787   */\n      0x40\n        /* \"#utility.yul\":13778:13781   */\n      dup7\n        /* \"#utility.yul\":13774:13788   */\n      add\n        /* \"#utility.yul\":13767:13805   */\n      mstore\n        /* \"#utility.yul\":13826:13899   */\n      tag_465\n        /* \"#utility.yul\":13894:13898   */\n      dup3\n        /* \"#utility.yul\":13880:13892   */\n      dup3\n        /* \"#utility.yul\":13826:13899   */\n      tag_287\n      jump\t// in\n    tag_465:\n        /* \"#utility.yul\":13818:13899   */\n      swap2\n      pop\n        /* \"#utility.yul\":13664:13910   */\n      pop\n        /* \"#utility.yul\":14004:14008   */\n      0x60\n        /* \"#utility.yul\":13997:14002   */\n      dup4\n        /* \"#utility.yul\":13993:14009   */\n      add\n        /* \"#utility.yul\":13987:14010   */\n      mload\n        /* \"#utility.yul\":14023:14086   */\n      tag_466\n        /* \"#utility.yul\":14080:14084   */\n      0x60\n        /* \"#utility.yul\":14075:14078   */\n      dup7\n        /* \"#utility.yul\":14071:14085   */\n      add\n        /* \"#utility.yul\":14057:14069   */\n      dup3\n        /* \"#utility.yul\":14023:14086   */\n      tag_294\n      jump\t// in\n    tag_466:\n        /* \"#utility.yul\":13920:14096   */\n      pop\n        /* \"#utility.yul\":14192:14196   */\n      0x80\n        /* \"#utility.yul\":14185:14190   */\n      dup4\n        /* \"#utility.yul\":14181:14197   */\n      add\n        /* \"#utility.yul\":14175:14198   */\n      mload\n        /* \"#utility.yul\":14211:14274   */\n      tag_467\n        /* \"#utility.yul\":14268:14272   */\n      0x80\n        /* \"#utility.yul\":14263:14266   */\n      dup7\n        /* \"#utility.yul\":14259:14273   */\n      add\n        /* \"#utility.yul\":14245:14257   */\n      dup3\n        /* \"#utility.yul\":14211:14274   */\n      tag_294\n      jump\t// in\n    tag_467:\n        /* \"#utility.yul\":14106:14284   */\n      pop\n        /* \"#utility.yul\":14374:14378   */\n      0xa0\n        /* \"#utility.yul\":14367:14372   */\n      dup4\n        /* \"#utility.yul\":14363:14379   */\n      add\n        /* \"#utility.yul\":14357:14380   */\n      mload\n        /* \"#utility.yul\":14393:14456   */\n      tag_468\n        /* \"#utility.yul\":14450:14454   */\n      0xa0\n        /* \"#utility.yul\":14445:14448   */\n      dup7\n        /* \"#utility.yul\":14441:14455   */\n      add\n        /* \"#utility.yul\":14427:14439   */\n      dup3\n        /* \"#utility.yul\":14393:14456   */\n      tag_294\n      jump\t// in\n    tag_468:\n        /* \"#utility.yul\":14294:14466   */\n      pop\n        /* \"#utility.yul\":14561:14565   */\n      0xc0\n        /* \"#utility.yul\":14554:14559   */\n      dup4\n        /* \"#utility.yul\":14550:14566   */\n      add\n        /* \"#utility.yul\":14544:14567   */\n      mload\n        /* \"#utility.yul\":14580:14643   */\n      tag_469\n        /* \"#utility.yul\":14637:14641   */\n      0xc0\n        /* \"#utility.yul\":14632:14635   */\n      dup7\n        /* \"#utility.yul\":14628:14642   */\n      add\n        /* \"#utility.yul\":14614:14626   */\n      dup3\n        /* \"#utility.yul\":14580:14643   */\n      tag_294\n      jump\t// in\n    tag_469:\n        /* \"#utility.yul\":14476:14653   */\n      pop\n        /* \"#utility.yul\":14745:14749   */\n      0xe0\n        /* \"#utility.yul\":14738:14743   */\n      dup4\n        /* \"#utility.yul\":14734:14750   */\n      add\n        /* \"#utility.yul\":14728:14751   */\n      mload\n        /* \"#utility.yul\":14764:14827   */\n      tag_470\n        /* \"#utility.yul\":14821:14825   */\n      0xe0\n        /* \"#utility.yul\":14816:14819   */\n      dup7\n        /* \"#utility.yul\":14812:14826   */\n      add\n        /* \"#utility.yul\":14798:14810   */\n      dup3\n        /* \"#utility.yul\":14764:14827   */\n      tag_294\n      jump\t// in\n    tag_470:\n        /* \"#utility.yul\":14663:14837   */\n      pop\n        /* \"#utility.yul\":14928:14934   */\n      0x0100\n        /* \"#utility.yul\":14921:14926   */\n      dup4\n        /* \"#utility.yul\":14917:14935   */\n      add\n        /* \"#utility.yul\":14911:14936   */\n      mload\n        /* \"#utility.yul\":14949:15014   */\n      tag_471\n        /* \"#utility.yul\":15006:15012   */\n      0x0100\n        /* \"#utility.yul\":15001:15004   */\n      dup7\n        /* \"#utility.yul\":14997:15013   */\n      add\n        /* \"#utility.yul\":14983:14995   */\n      dup3\n        /* \"#utility.yul\":14949:15014   */\n      tag_294\n      jump\t// in\n    tag_471:\n        /* \"#utility.yul\":14847:15024   */\n      pop\n        /* \"#utility.yul\":15110:15116   */\n      0x0120\n        /* \"#utility.yul\":15103:15108   */\n      dup4\n        /* \"#utility.yul\":15099:15117   */\n      add\n        /* \"#utility.yul\":15093:15118   */\n      mload\n        /* \"#utility.yul\":15131:15196   */\n      tag_472\n        /* \"#utility.yul\":15188:15194   */\n      0x0120\n        /* \"#utility.yul\":15183:15186   */\n      dup7\n        /* \"#utility.yul\":15179:15195   */\n      add\n        /* \"#utility.yul\":15165:15177   */\n      dup3\n        /* \"#utility.yul\":15131:15196   */\n      tag_294\n      jump\t// in\n    tag_472:\n        /* \"#utility.yul\":15034:15206   */\n      pop\n        /* \"#utility.yul\":15223:15227   */\n      dup1\n        /* \"#utility.yul\":15216:15227   */\n      swap2\n      pop\n        /* \"#utility.yul\":13124:15233   */\n      pop\n        /* \"#utility.yul\":12998:15233   */\n      swap3\n      swap2\n      pop\n      pop\n      jump\t// out\n        /* \"#utility.yul\":15239:15519   */\n    tag_296:\n        /* \"#utility.yul\":15370:15380   */\n      0x00\n        /* \"#utility.yul\":15405:15513   */\n      tag_474\n        /* \"#utility.yul\":15509:15512   */\n      dup4\n        /* \"#utility.yul\":15501:15507   */\n      dup4\n        /* \"#utility.yul\":15405:15513   */\n      tag_295\n      jump\t// in\n    tag_474:\n        /* \"#utility.yul\":15391:15513   */\n      swap1\n      pop\n        /* \"#utility.yul\":15239:15519   */\n      swap3\n      swap2\n      pop\n      pop\n      jump\t// out\n        /* \"#utility.yul\":15525:15669   */\n    tag_297:\n        /* \"#utility.yul\":15626:15630   */\n      0x00\n        /* \"#utility.yul\":15658:15662   */\n      0x20\n        /* \"#utility.yul\":15653:15656   */\n      dup3\n        /* \"#utility.yul\":15649:15663   */\n      add\n        /* \"#utility.yul\":15641:15663   */\n      swap1\n      pop\n        /* \"#utility.yul\":15525:15669   */\n      swap2\n      swap1\n      pop\n      jump\t// out\n        /* \"#utility.yul\":15779:16938   */\n    tag_298:\n        /* \"#utility.yul\":15960:15963   */\n      0x00\n        /* \"#utility.yul\":15989:16074   */\n      tag_477\n        /* \"#utility.yul\":16068:16073   */\n      dup3\n        /* \"#utility.yul\":15989:16074   */\n      tag_291\n      jump\t// in\n    tag_477:\n        /* \"#utility.yul\":16090:16207   */\n      tag_478\n        /* \"#utility.yul\":16200:16206   */\n      dup2\n        /* \"#utility.yul\":16195:16198   */\n      dup6\n        /* \"#utility.yul\":16090:16207   */\n      tag_292\n      jump\t// in\n    tag_478:\n        /* \"#utility.yul\":16083:16207   */\n      swap4\n      pop\n        /* \"#utility.yul\":16233:16236   */\n      dup4\n        /* \"#utility.yul\":16278:16282   */\n      0x20\n        /* \"#utility.yul\":16270:16276   */\n      dup3\n        /* \"#utility.yul\":16266:16283   */\n      mul\n        /* \"#utility.yul\":16261:16264   */\n      dup6\n        /* \"#utility.yul\":16257:16284   */\n      add\n        /* \"#utility.yul\":16308:16395   */\n      tag_479\n        /* \"#utility.yul\":16389:16394   */\n      dup6\n        /* \"#utility.yul\":16308:16395   */\n      tag_293\n      jump\t// in\n    tag_479:\n        /* \"#utility.yul\":16418:16425   */\n      dup1\n        /* \"#utility.yul\":16449:16450   */\n      0x00\n        /* \"#utility.yul\":16434:16893   */\n    tag_480:\n        /* \"#utility.yul\":16459:16465   */\n      dup6\n        /* \"#utility.yul\":16456:16457   */\n      dup2\n        /* \"#utility.yul\":16453:16466   */\n      lt\n        /* \"#utility.yul\":16434:16893   */\n      iszero\n      tag_482\n      jumpi\n        /* \"#utility.yul\":16530:16539   */\n      dup5\n        /* \"#utility.yul\":16524:16528   */\n      dup5\n        /* \"#utility.yul\":16520:16540   */\n      sub\n        /* \"#utility.yul\":16515:16518   */\n      dup10\n        /* \"#utility.yul\":16508:16541   */\n      mstore\n        /* \"#utility.yul\":16581:16587   */\n      dup2\n        /* \"#utility.yul\":16575:16588   */\n      mload\n        /* \"#utility.yul\":16609:16735   */\n      tag_483\n        /* \"#utility.yul\":16730:16734   */\n      dup6\n        /* \"#utility.yul\":16715:16728   */\n      dup3\n        /* \"#utility.yul\":16609:16735   */\n      tag_296\n      jump\t// in\n    tag_483:\n        /* \"#utility.yul\":16601:16735   */\n      swap5\n      pop\n        /* \"#utility.yul\":16758:16849   */\n      tag_484\n        /* \"#utility.yul\":16842:16848   */\n      dup4\n        /* \"#utility.yul\":16758:16849   */\n      tag_297\n      jump\t// in\n    tag_484:\n        /* \"#utility.yul\":16748:16849   */\n      swap3\n      pop\n        /* \"#utility.yul\":16878:16882   */\n      0x20\n        /* \"#utility.yul\":16873:16876   */\n      dup11\n        /* \"#utility.yul\":16869:16883   */\n      add\n        /* \"#utility.yul\":16862:16883   */\n      swap10\n      pop\n        /* \"#utility.yul\":16494:16893   */\n      pop\n        /* \"#utility.yul\":16481:16482   */\n      0x01\n        /* \"#utility.yul\":16478:16479   */\n      dup2\n        /* \"#utility.yul\":16474:16483   */\n      add\n        /* \"#utility.yul\":16469:16483   */\n      swap1\n      pop\n        /* \"#utility.yul\":16434:16893   */\n      jump(tag_480)\n    tag_482:\n        /* \"#utility.yul\":16438:16452   */\n      pop\n        /* \"#utility.yul\":16909:16913   */\n      dup3\n        /* \"#utility.yul\":16902:16913   */\n      swap8\n      pop\n        /* \"#utility.yul\":16929:16932   */\n      dup8\n        /* \"#utility.yul\":16922:16932   */\n      swap6\n      pop\n        /* \"#utility.yul\":15965:16938   */\n      pop\n      pop\n      pop\n      pop\n      pop\n        /* \"#utility.yul\":15779:16938   */\n      swap3\n      swap2\n      pop\n      pop\n      jump\t// out\n        /* \"#utility.yul\":16944:17742   */\n    tag_75:\n        /* \"#utility.yul\":17247:17251   */\n      0x00\n        /* \"#utility.yul\":17285:17287   */\n      0x40\n        /* \"#utility.yul\":17274:17283   */\n      dup3\n        /* \"#utility.yul\":17270:17288   */\n      add\n        /* \"#utility.yul\":17262:17288   */\n      swap1\n      pop\n        /* \"#utility.yul\":17334:17343   */\n      dup2\n        /* \"#utility.yul\":17328:17332   */\n      dup2\n        /* \"#utility.yul\":17324:17344   */\n      sub\n        /* \"#utility.yul\":17320:17321   */\n      0x00\n        /* \"#utility.yul\":17309:17318   */\n      dup4\n        /* \"#utility.yul\":17305:17322   */\n      add\n        /* \"#utility.yul\":17298:17345   */\n      mstore\n        /* \"#utility.yul\":17362:17490   */\n      tag_486\n        /* \"#utility.yul\":17485:17489   */\n      dup2\n        /* \"#utility.yul\":17476:17482   */\n      dup6\n        /* \"#utility.yul\":17362:17490   */\n      tag_290\n      jump\t// in\n    tag_486:\n        /* \"#utility.yul\":17354:17490   */\n      swap1\n      pop\n        /* \"#utility.yul\":17537:17546   */\n      dup2\n        /* \"#utility.yul\":17531:17535   */\n      dup2\n        /* \"#utility.yul\":17527:17547   */\n      sub\n        /* \"#utility.yul\":17522:17524   */\n      0x20\n        /* \"#utility.yul\":17511:17520   */\n      dup4\n        /* \"#utility.yul\":17507:17525   */\n      add\n        /* \"#utility.yul\":17500:17548   */\n      mstore\n        /* \"#utility.yul\":17565:17735   */\n      tag_487\n        /* \"#utility.yul\":17730:17734   */\n      dup2\n        /* \"#utility.yul\":17721:17727   */\n      dup5\n        /* \"#utility.yul\":17565:17735   */\n      tag_298\n      jump\t// in\n    tag_487:\n        /* \"#utility.yul\":17557:17735   */\n      swap1\n      pop\n        /* \"#utility.yul\":16944:17742   */\n      swap4\n      swap3\n      pop\n      pop\n      pop\n      jump\t// out\n        /* \"#utility.yul\":17748:17852   */\n    tag_299:\n        /* \"#utility.yul\":17793:17800   */\n      0x00\n        /* \"#utility.yul\":17822:17846   */\n      tag_489\n        /* \"#utility.yul\":17840:17845   */\n      dup3\n        /* \"#utility.yul\":17822:17846   */\n      tag_269\n      jump\t// in\n    tag_489:\n        /* \"#utility.yul\":17811:17846   */\n      swap1\n      pop\n        /* \"#utility.yul\":17748:17852   */\n      swap2\n      swap1\n      pop\n      jump\t// out\n        /* \"#utility.yul\":17858:17996   */\n    tag_300:\n        /* \"#utility.yul\":17939:17971   */\n      tag_491\n        /* \"#utility.yul\":17965:17970   */\n      dup2\n        /* \"#utility.yul\":17939:17971   */\n      tag_299\n      jump\t// in\n    tag_491:\n        /* \"#utility.yul\":17932:17937   */\n      dup2\n        /* \"#utility.yul\":17929:17972   */\n      eq\n        /* \"#utility.yul\":17919:17990   */\n      tag_492\n      jumpi\n        /* \"#utility.yul\":17986:17987   */\n      0x00\n        /* \"#utility.yul\":17983:17984   */\n      dup1\n        /* \"#utility.yul\":17976:17988   */\n      revert\n        /* \"#utility.yul\":17919:17990   */\n    tag_492:\n        /* \"#utility.yul\":17858:17996   */\n      pop\n      jump\t// out\n        /* \"#utility.yul\":18002:18157   */\n    tag_301:\n        /* \"#utility.yul\":18056:18061   */\n      0x00\n        /* \"#utility.yul\":18094:18100   */\n      dup2\n        /* \"#utility.yul\":18081:18101   */\n      calldataload\n        /* \"#utility.yul\":18072:18101   */\n      swap1\n      pop\n        /* \"#utility.yul\":18110:18151   */\n      tag_494\n        /* \"#utility.yul\":18145:18150   */\n      dup2\n        /* \"#utility.yul\":18110:18151   */\n      tag_300\n      jump\t// in\n    tag_494:\n        /* \"#utility.yul\":18002:18157   */\n      swap3\n      swap2\n      pop\n      pop\n      jump\t// out\n        /* \"#utility.yul\":18163:18653   */\n    tag_79:\n        /* \"#utility.yul\":18239:18245   */\n      0x00\n        /* \"#utility.yul\":18247:18253   */\n      dup1\n        /* \"#utility.yul\":18296:18298   */\n      0x40\n        /* \"#utility.yul\":18284:18293   */\n      dup4\n        /* \"#utility.yul\":18275:18282   */\n      dup6\n        /* \"#utility.yul\":18271:18294   */\n      sub\n        /* \"#utility.yul\":18267:18299   */\n      slt\n        /* \"#utility.yul\":18264:18383   */\n      iszero\n      tag_496\n      jumpi\n        /* \"#utility.yul\":18302:18381   */\n      tag_497\n      tag_259\n      jump\t// in\n    tag_497:\n        /* \"#utility.yul\":18264:18383   */\n    tag_496:\n        /* \"#utility.yul\":18422:18423   */\n      0x00\n        /* \"#utility.yul\":18447:18508   */\n      tag_498\n        /* \"#utility.yul\":18500:18507   */\n      dup6\n        /* \"#utility.yul\":18491:18497   */\n      dup3\n        /* \"#utility.yul\":18480:18489   */\n      dup7\n        /* \"#utility.yul\":18476:18498   */\n      add\n        /* \"#utility.yul\":18447:18508   */\n      tag_301\n      jump\t// in\n    tag_498:\n        /* \"#utility.yul\":18437:18508   */\n      swap3\n      pop\n        /* \"#utility.yul\":18393:18518   */\n      pop\n        /* \"#utility.yul\":18557:18559   */\n      0x20\n        /* \"#utility.yul\":18583:18636   */\n      tag_499\n        /* \"#utility.yul\":18628:18635   */\n      dup6\n        /* \"#utility.yul\":18619:18625   */\n      dup3\n        /* \"#utility.yul\":18608:18617   */\n      dup7\n        /* \"#utility.yul\":18604:18626   */\n      add\n        /* \"#utility.yul\":18583:18636   */\n      tag_263\n      jump\t// in\n    tag_499:\n        /* \"#utility.yul\":18573:18636   */\n      swap2\n      pop\n        /* \"#utility.yul\":18528:18646   */\n      pop\n        /* \"#utility.yul\":18163:18653   */\n      swap3\n      pop\n      swap3\n      swap1\n      pop\n      jump\t// out\n        /* \"#utility.yul\":18659:19493   */\n    tag_84:\n        /* \"#utility.yul\":18747:18753   */\n      0x00\n        /* \"#utility.yul\":18755:18761   */\n      dup1\n        /* \"#utility.yul\":18804:18806   */\n      0x40\n        /* \"#utility.yul\":18792:18801   */\n      dup4\n        /* \"#utility.yul\":18783:18790   */\n      dup6\n        /* \"#utility.yul\":18779:18802   */\n      sub\n        /* \"#utility.yul\":18775:18807   */\n      slt\n        /* \"#utility.yul\":18772:18891   */\n      iszero\n      tag_501\n      jumpi\n        /* \"#utility.yul\":18810:18889   */\n      tag_502\n      tag_259\n      jump\t// in\n    tag_502:\n        /* \"#utility.yul\":18772:18891   */\n    tag_501:\n        /* \"#utility.yul\":18958:18959   */\n      0x00\n        /* \"#utility.yul\":18947:18956   */\n      dup4\n        /* \"#utility.yul\":18943:18960   */\n      add\n        /* \"#utility.yul\":18930:18961   */\n      calldataload\n        /* \"#utility.yul\":18988:19006   */\n      0xffffffffffffffff\n        /* \"#utility.yul\":18980:18986   */\n      dup2\n        /* \"#utility.yul\":18977:19007   */\n      gt\n        /* \"#utility.yul\":18974:19091   */\n      iszero\n      tag_503\n      jumpi\n        /* \"#utility.yul\":19010:19089   */\n      tag_504\n      tag_260\n      jump\t// in\n    tag_504:\n        /* \"#utility.yul\":18974:19091   */\n    tag_503:\n        /* \"#utility.yul\":19115:19178   */\n      tag_505\n        /* \"#utility.yul\":19170:19177   */\n      dup6\n        /* \"#utility.yul\":19161:19167   */\n      dup3\n        /* \"#utility.yul\":19150:19159   */\n      dup7\n        /* \"#utility.yul\":19146:19168   */\n      add\n        /* \"#utility.yul\":19115:19178   */\n      tag_282\n      jump\t// in\n    tag_505:\n        /* \"#utility.yul\":19105:19178   */\n      swap3\n      pop\n        /* \"#utility.yul\":18901:19188   */\n      pop\n        /* \"#utility.yul\":19255:19257   */\n      0x20\n        /* \"#utility.yul\":19244:19253   */\n      dup4\n        /* \"#utility.yul\":19240:19258   */\n      add\n        /* \"#utility.yul\":19227:19259   */\n      calldataload\n        /* \"#utility.yul\":19286:19304   */\n      0xffffffffffffffff\n        /* \"#utility.yul\":19278:19284   */\n      dup2\n        /* \"#utility.yul\":19275:19305   */\n      gt\n        /* \"#utility.yul\":19272:19389   */\n      iszero\n      tag_506\n      jumpi\n        /* \"#utility.yul\":19308:19387   */\n      tag_507\n      tag_260\n      jump\t// in\n    tag_507:\n        /* \"#utility.yul\":19272:19389   */\n    tag_506:\n        /* \"#utility.yul\":19413:19476   */\n      tag_508\n        /* \"#utility.yul\":19468:19475   */\n      dup6\n        /* \"#utility.yul\":19459:19465   */\n      dup3\n        /* \"#utility.yul\":19448:19457   */\n      dup7\n        /* \"#utility.yul\":19444:19466   */\n      add\n        /* \"#utility.yul\":19413:19476   */\n      tag_282\n      jump\t// in\n    tag_508:\n        /* \"#utility.yul\":19403:19476   */\n      swap2\n      pop\n        /* \"#utility.yul\":19198:19486   */\n      pop\n        /* \"#utility.yul\":18659:19493   */\n      swap3\n      pop\n      swap3\n      swap1\n      pop\n      jump\t// out\n        /* \"#utility.yul\":19499:19589   */\n    tag_302:\n        /* \"#utility.yul\":19533:19540   */\n      0x00\n        /* \"#utility.yul\":19576:19581   */\n      dup2\n        /* \"#utility.yul\":19569:19582   */\n      iszero\n        /* \"#utility.yul\":19562:19583   */\n      iszero\n        /* \"#utility.yul\":19551:19583   */\n      swap1\n      pop\n        /* \"#utility.yul\":19499:19589   */\n      swap2\n      swap1\n      pop\n      jump\t// out\n        /* \"#utility.yul\":19595:19704   */\n    tag_303:\n        /* \"#utility.yul\":19676:19697   */\n      tag_511\n        /* \"#utility.yul\":19691:19696   */\n      dup2\n        /* \"#utility.yul\":19676:19697   */\n      tag_302\n      jump\t// in\n    tag_511:\n        /* \"#utility.yul\":19671:19674   */\n      dup3\n        /* \"#utility.yul\":19664:19698   */\n      mstore\n        /* \"#utility.yul\":19595:19704   */\n      pop\n      pop\n      jump\t// out\n        /* \"#utility.yul\":19710:19920   */\n    tag_87:\n        /* \"#utility.yul\":19797:19801   */\n      0x00\n        /* \"#utility.yul\":19835:19837   */\n      0x20\n        /* \"#utility.yul\":19824:19833   */\n      dup3\n        /* \"#utility.yul\":19820:19838   */\n      add\n        /* \"#utility.yul\":19812:19838   */\n      swap1\n      pop\n        /* \"#utility.yul\":19848:19913   */\n      tag_513\n        /* \"#utility.yul\":19910:19911   */\n      0x00\n        /* \"#utility.yul\":19899:19908   */\n      dup4\n        /* \"#utility.yul\":19895:19912   */\n      add\n        /* \"#utility.yul\":19886:19892   */\n      dup5\n        /* \"#utility.yul\":19848:19913   */\n      tag_303\n      jump\t// in\n    tag_513:\n        /* \"#utility.yul\":19710:19920   */\n      swap3\n      swap2\n      pop\n      pop\n      jump\t// out\n        /* \"#utility.yul\":19926:22255   */\n    tag_91:\n        /* \"#utility.yul\":20105:20111   */\n      0x00\n        /* \"#utility.yul\":20113:20119   */\n      dup1\n        /* \"#utility.yul\":20121:20127   */\n      0x00\n        /* \"#utility.yul\":20129:20135   */\n      dup1\n        /* \"#utility.yul\":20137:20143   */\n      0x00\n        /* \"#utility.yul\":20145:20151   */\n      dup1\n        /* \"#utility.yul\":20153:20159   */\n      0x00\n        /* \"#utility.yul\":20161:20167   */\n      dup1\n        /* \"#utility.yul\":20169:20175   */\n      0x00\n        /* \"#utility.yul\":20177:20183   */\n      dup1\n        /* \"#utility.yul\":20185:20192   */\n      0x00\n        /* \"#utility.yul\":20235:20238   */\n      0x0160\n        /* \"#utility.yul\":20223:20232   */\n      dup13\n        /* \"#utility.yul\":20214:20221   */\n      dup15\n        /* \"#utility.yul\":20210:20233   */\n      sub\n        /* \"#utility.yul\":20206:20239   */\n      slt\n        /* \"#utility.yul\":20203:20323   */\n      iszero\n      tag_515\n      jumpi\n        /* \"#utility.yul\":20242:20321   */\n      tag_516\n      tag_259\n      jump\t// in\n    tag_516:\n        /* \"#utility.yul\":20203:20323   */\n    tag_515:\n        /* \"#utility.yul\":20390:20391   */\n      0x00\n        /* \"#utility.yul\":20379:20388   */\n      dup13\n        /* \"#utility.yul\":20375:20392   */\n      add\n        /* \"#utility.yul\":20362:20393   */\n      calldataload\n        /* \"#utility.yul\":20420:20438   */\n      0xffffffffffffffff\n        /* \"#utility.yul\":20412:20418   */\n      dup2\n        /* \"#utility.yul\":20409:20439   */\n      gt\n        /* \"#utility.yul\":20406:20523   */\n      iszero\n      tag_517\n      jumpi\n        /* \"#utility.yul\":20442:20521   */\n      tag_518\n      tag_260\n      jump\t// in\n    tag_518:\n        /* \"#utility.yul\":20406:20523   */\n    tag_517:\n        /* \"#utility.yul\":20547:20610   */\n      tag_519\n        /* \"#utility.yul\":20602:20609   */\n      dup15\n        /* \"#utility.yul\":20593:20599   */\n      dup3\n        /* \"#utility.yul\":20582:20591   */\n      dup16\n        /* \"#utility.yul\":20578:20600   */\n      add\n        /* \"#utility.yul\":20547:20610   */\n      tag_282\n      jump\t// in\n    tag_519:\n        /* \"#utility.yul\":20537:20610   */\n      swap12\n      pop\n        /* \"#utility.yul\":20333:20620   */\n      pop\n        /* \"#utility.yul\":20687:20689   */\n      0x20\n        /* \"#utility.yul\":20676:20685   */\n      dup13\n        /* \"#utility.yul\":20672:20690   */\n      add\n        /* \"#utility.yul\":20659:20691   */\n      calldataload\n        /* \"#utility.yul\":20718:20736   */\n      0xffffffffffffffff\n        /* \"#utility.yul\":20710:20716   */\n      dup2\n        /* \"#utility.yul\":20707:20737   */\n      gt\n        /* \"#utility.yul\":20704:20821   */\n      iszero\n      tag_520\n      jumpi\n        /* \"#utility.yul\":20740:20819   */\n      tag_521\n      tag_260\n      jump\t// in\n    tag_521:\n        /* \"#utility.yul\":20704:20821   */\n    tag_520:\n        /* \"#utility.yul\":20845:20908   */\n      tag_522\n        /* \"#utility.yul\":20900:20907   */\n      dup15\n        /* \"#utility.yul\":20891:20897   */\n      dup3\n        /* \"#utility.yul\":20880:20889   */\n      dup16\n        /* \"#utility.yul\":20876:20898   */\n      add\n        /* \"#utility.yul\":20845:20908   */\n      tag_282\n      jump\t// in\n    tag_522:\n        /* \"#utility.yul\":20835:20908   */\n      swap11\n      pop\n        /* \"#utility.yul\":20630:20918   */\n      pop\n        /* \"#utility.yul\":20985:20987   */\n      0x40\n        /* \"#utility.yul\":20974:20983   */\n      dup13\n        /* \"#utility.yul\":20970:20988   */\n      add\n        /* \"#utility.yul\":20957:20989   */\n      calldataload\n        /* \"#utility.yul\":21016:21034   */\n      0xffffffffffffffff\n        /* \"#utility.yul\":21008:21014   */\n      dup2\n        /* \"#utility.yul\":21005:21035   */\n      gt\n        /* \"#utility.yul\":21002:21119   */\n      iszero\n      tag_523\n      jumpi\n        /* \"#utility.yul\":21038:21117   */\n      tag_524\n      tag_260\n      jump\t// in\n    tag_524:\n        /* \"#utility.yul\":21002:21119   */\n    tag_523:\n        /* \"#utility.yul\":21143:21206   */\n      tag_525\n        /* \"#utility.yul\":21198:21205   */\n      dup15\n        /* \"#utility.yul\":21189:21195   */\n      dup3\n        /* \"#utility.yul\":21178:21187   */\n      dup16\n        /* \"#utility.yul\":21174:21196   */\n      add\n        /* \"#utility.yul\":21143:21206   */\n      tag_282\n      jump\t// in\n    tag_525:\n        /* \"#utility.yul\":21133:21206   */\n      swap10\n      pop\n        /* \"#utility.yul\":20928:21216   */\n      pop\n        /* \"#utility.yul\":21255:21257   */\n      0x60\n        /* \"#utility.yul\":21281:21334   */\n      tag_526\n        /* \"#utility.yul\":21326:21333   */\n      dup15\n        /* \"#utility.yul\":21317:21323   */\n      dup3\n        /* \"#utility.yul\":21306:21315   */\n      dup16\n        /* \"#utility.yul\":21302:21324   */\n      add\n        /* \"#utility.yul\":21281:21334   */\n      tag_263\n      jump\t// in\n    tag_526:\n        /* \"#utility.yul\":21271:21334   */\n      swap9\n      pop\n        /* \"#utility.yul\":21226:21344   */\n      pop\n        /* \"#utility.yul\":21383:21386   */\n      0x80\n        /* \"#utility.yul\":21410:21463   */\n      tag_527\n        /* \"#utility.yul\":21455:21462   */\n      dup15\n        /* \"#utility.yul\":21446:21452   */\n      dup3\n        /* \"#utility.yul\":21435:21444   */\n      dup16\n        /* \"#utility.yul\":21431:21453   */\n      add\n        /* \"#utility.yul\":21410:21463   */\n      tag_263\n      jump\t// in\n    tag_527:\n        /* \"#utility.yul\":21400:21463   */\n      swap8\n      pop\n        /* \"#utility.yul\":21354:21473   */\n      pop\n        /* \"#utility.yul\":21512:21515   */\n      0xa0\n        /* \"#utility.yul\":21539:21592   */\n      tag_528\n        /* \"#utility.yul\":21584:21591   */\n      dup15\n        /* \"#utility.yul\":21575:21581   */\n      dup3\n        /* \"#utility.yul\":21564:21573   */\n      dup16\n        /* \"#utility.yul\":21560:21582   */\n      add\n        /* \"#utility.yul\":21539:21592   */\n      tag_263\n      jump\t// in\n    tag_528:\n        /* \"#utility.yul\":21529:21592   */\n      swap7\n      pop\n        /* \"#utility.yul\":21483:21602   */\n      pop\n        /* \"#utility.yul\":21641:21644   */\n      0xc0\n        /* \"#utility.yul\":21668:21721   */\n      tag_529\n        /* \"#utility.yul\":21713:21720   */\n      dup15\n        /* \"#utility.yul\":21704:21710   */\n      dup3\n        /* \"#utility.yul\":21693:21702   */\n      dup16\n        /* \"#utility.yul\":21689:21711   */\n      add\n        /* \"#utility.yul\":21668:21721   */\n      tag_263\n      jump\t// in\n    tag_529:\n        /* \"#utility.yul\":21658:21721   */\n      swap6\n      pop\n        /* \"#utility.yul\":21612:21731   */\n      pop\n        /* \"#utility.yul\":21770:21773   */\n      0xe0\n        /* \"#utility.yul\":21797:21850   */\n      tag_530\n        /* \"#utility.yul\":21842:21849   */\n      dup15\n        /* \"#utility.yul\":21833:21839   */\n      dup3\n        /* \"#utility.yul\":21822:21831   */\n      dup16\n        /* \"#utility.yul\":21818:21840   */\n      add\n        /* \"#utility.yul\":21797:21850   */\n      tag_263\n      jump\t// in\n    tag_530:\n        /* \"#utility.yul\":21787:21850   */\n      swap5\n      pop\n        /* \"#utility.yul\":21741:21860   */\n      pop\n        /* \"#utility.yul\":21899:21902   */\n      0x0100\n        /* \"#utility.yul\":21926:21979   */\n      tag_531\n        /* \"#utility.yul\":21971:21978   */\n      dup15\n        /* \"#utility.yul\":21962:21968   */\n      dup3\n        /* \"#utility.yul\":21951:21960   */\n      dup16\n        /* \"#utility.yul\":21947:21969   */\n      add\n        /* \"#utility.yul\":21926:21979   */\n      tag_263\n      jump\t// in\n    tag_531:\n        /* \"#utility.yul\":21916:21979   */\n      swap4\n      pop\n        /* \"#utility.yul\":21870:21989   */\n      pop\n        /* \"#utility.yul\":22028:22031   */\n      0x0120\n        /* \"#utility.yul\":22055:22108   */\n      tag_532\n        /* \"#utility.yul\":22100:22107   */\n      dup15\n        /* \"#utility.yul\":22091:22097   */\n      dup3\n        /* \"#utility.yul\":22080:22089   */\n      dup16\n        /* \"#utility.yul\":22076:22098   */\n      add\n        /* \"#utility.yul\":22055:22108   */\n      tag_263\n      jump\t// in\n    tag_532:\n        /* \"#utility.yul\":22045:22108   */\n      swap3\n      pop\n        /* \"#utility.yul\":21999:22118   */\n      pop\n        /* \"#utility.yul\":22157:22160   */\n      0x0140\n        /* \"#utility.yul\":22185:22238   */\n      tag_533\n        /* \"#utility.yul\":22230:22237   */\n      dup15\n        /* \"#utility.yul\":22221:22227   */\n      dup3\n        /* \"#utility.yul\":22210:22219   */\n      dup16\n        /* \"#utility.yul\":22206:22228   */\n      add\n        /* \"#utility.yul\":22185:22238   */\n      tag_263\n      jump\t// in\n    tag_533:\n        /* \"#utility.yul\":22174:22238   */\n      swap2\n      pop\n        /* \"#utility.yul\":22128:22248   */\n      pop\n        /* \"#utility.yul\":19926:22255   */\n      swap3\n      swap6\n      swap9\n      swap12\n      pop\n      swap3\n      swap6\n      swap9\n      swap12\n      swap1\n      swap4\n      swap7\n      swap10\n      pop\n      jump\t// out\n        /* \"#utility.yul\":22261:23060   */\n    tag_99:\n        /* \"#utility.yul\":22348:22354   */\n      0x00\n        /* \"#utility.yul\":22356:22362   */\n      dup1\n        /* \"#utility.yul\":22364:22370   */\n      0x00\n        /* \"#utility.yul\":22413:22415   */\n      0x60\n        /* \"#utility.yul\":22401:22410   */\n      dup5\n        /* \"#utility.yul\":22392:22399   */\n      dup7\n        /* \"#utility.yul\":22388:22411   */\n      sub\n        /* \"#utility.yul\":22384:22416   */\n      slt\n        /* \"#utility.yul\":22381:22500   */\n      iszero\n      tag_535\n      jumpi\n        /* \"#utility.yul\":22419:22498   */\n      tag_536\n      tag_259\n      jump\t// in\n    tag_536:\n        /* \"#utility.yul\":22381:22500   */\n    tag_535:\n        /* \"#utility.yul\":22539:22540   */\n      0x00\n        /* \"#utility.yul\":22564:22617   */\n      tag_537\n        /* \"#utility.yul\":22609:22616   */\n      dup7\n        /* \"#utility.yul\":22600:22606   */\n      dup3\n        /* \"#utility.yul\":22589:22598   */\n      dup8\n        /* \"#utility.yul\":22585:22607   */\n      add\n        /* \"#utility.yul\":22564:22617   */\n      tag_274\n      jump\t// in\n    tag_537:\n        /* \"#utility.yul\":22554:22617   */\n      swap4\n      pop\n        /* \"#utility.yul\":22510:22627   */\n      pop\n        /* \"#utility.yul\":22694:22696   */\n      0x20\n        /* \"#utility.yul\":22683:22692   */\n      dup5\n        /* \"#utility.yul\":22679:22697   */\n      add\n        /* \"#utility.yul\":22666:22698   */\n      calldataload\n        /* \"#utility.yul\":22725:22743   */\n      0xffffffffffffffff\n        /* \"#utility.yul\":22717:22723   */\n      dup2\n        /* \"#utility.yul\":22714:22744   */\n      gt\n        /* \"#utility.yul\":22711:22828   */\n      iszero\n      tag_538\n      jumpi\n        /* \"#utility.yul\":22747:22826   */\n      tag_539\n      tag_260\n      jump\t// in\n    tag_539:\n        /* \"#utility.yul\":22711:22828   */\n    tag_538:\n        /* \"#utility.yul\":22852:22915   */\n      tag_540\n        /* \"#utility.yul\":22907:22914   */\n      dup7\n        /* \"#utility.yul\":22898:22904   */\n      dup3\n        /* \"#utility.yul\":22887:22896   */\n      dup8\n        /* \"#utility.yul\":22883:22905   */\n      add\n        /* \"#utility.yul\":22852:22915   */\n      tag_282\n      jump\t// in\n    tag_540:\n        /* \"#utility.yul\":22842:22915   */\n      swap3\n      pop\n        /* \"#utility.yul\":22637:22925   */\n      pop\n        /* \"#utility.yul\":22964:22966   */\n      0x40\n        /* \"#utility.yul\":22990:23043   */\n      tag_541\n        /* \"#utility.yul\":23035:23042   */\n      dup7\n        /* \"#utility.yul\":23026:23032   */\n      dup3\n        /* \"#utility.yul\":23015:23024   */\n      dup8\n        /* \"#utility.yul\":23011:23033   */\n      add\n        /* \"#utility.yul\":22990:23043   */\n      tag_263\n      jump\t// in\n    tag_541:\n        /* \"#utility.yul\":22980:23043   */\n      swap2\n      pop\n        /* \"#utility.yul\":22935:23053   */\n      pop\n        /* \"#utility.yul\":22261:23060   */\n      swap3\n      pop\n      swap3\n      pop\n      swap3\n      jump\t// out\n        /* \"#utility.yul\":23066:23246   */\n    tag_304:\n        /* \"#utility.yul\":23114:23191   */\n      0x4e487b7100000000000000000000000000000000000000000000000000000000\n        /* \"#utility.yul\":23111:23112   */\n      0x00\n        /* \"#utility.yul\":23104:23192   */\n      mstore\n        /* \"#utility.yul\":23211:23215   */\n      0x22\n        /* \"#utility.yul\":23208:23209   */\n      0x04\n        /* \"#utility.yul\":23201:23216   */\n      mstore\n        /* \"#utility.yul\":23235:23239   */\n      0x24\n        /* \"#utility.yul\":23232:23233   */\n      0x00\n        /* \"#utility.yul\":23225:23240   */\n      revert\n        /* \"#utility.yul\":23252:23572   */\n    tag_115:\n        /* \"#utility.yul\":23296:23302   */\n      0x00\n        /* \"#utility.yul\":23333:23334   */\n      0x02\n        /* \"#utility.yul\":23327:23331   */\n      dup3\n        /* \"#utility.yul\":23323:23335   */\n      div\n        /* \"#utility.yul\":23313:23335   */\n      swap1\n      pop\n        /* \"#utility.yul\":23380:23381   */\n      0x01\n        /* \"#utility.yul\":23374:23378   */\n      dup3\n        /* \"#utility.yul\":23370:23382   */\n      and\n        /* \"#utility.yul\":23401:23419   */\n      dup1\n        /* \"#utility.yul\":23391:23472   */\n      tag_544\n      jumpi\n        /* \"#utility.yul\":23457:23461   */\n      0x7f\n        /* \"#utility.yul\":23449:23455   */\n      dup3\n        /* \"#utility.yul\":23445:23462   */\n      and\n        /* \"#utility.yul\":23435:23462   */\n      swap2\n      pop\n        /* \"#utility.yul\":23391:23472   */\n    tag_544:\n        /* \"#utility.yul\":23519:23521   */\n      0x20\n        /* \"#utility.yul\":23511:23517   */\n      dup3\n        /* \"#utility.yul\":23508:23522   */\n      lt\n        /* \"#utility.yul\":23488:23506   */\n      dup2\n        /* \"#utility.yul\":23485:23523   */\n      sub\n        /* \"#utility.yul\":23482:23566   */\n      tag_545\n      jumpi\n        /* \"#utility.yul\":23538:23556   */\n      tag_546\n      tag_304\n      jump\t// in\n    tag_546:\n        /* \"#utility.yul\":23482:23566   */\n    tag_545:\n        /* \"#utility.yul\":23303:23572   */\n      pop\n        /* \"#utility.yul\":23252:23572   */\n      swap2\n      swap1\n      pop\n      jump\t// out\n        /* \"#utility.yul\":23578:23758   */\n    tag_164:\n        /* \"#utility.yul\":23626:23703   */\n      0x4e487b7100000000000000000000000000000000000000000000000000000000\n        /* \"#utility.yul\":23623:23624   */\n      0x00\n        /* \"#utility.yul\":23616:23704   */\n      mstore\n        /* \"#utility.yul\":23723:23727   */\n      0x32\n        /* \"#utility.yul\":23720:23721   */\n      0x04\n        /* \"#utility.yul\":23713:23728   */\n      mstore\n        /* \"#utility.yul\":23747:23751   */\n      0x24\n        /* \"#utility.yul\":23744:23745   */\n      0x00\n        /* \"#utility.yul\":23737:23752   */\n      revert\n        /* \"#utility.yul\":23764:23912   */\n    tag_305:\n        /* \"#utility.yul\":23866:23877   */\n      0x00\n        /* \"#utility.yul\":23903:23906   */\n      dup2\n        /* \"#utility.yul\":23888:23906   */\n      swap1\n      pop\n        /* \"#utility.yul\":23764:23912   */\n      swap3\n      swap2\n      pop\n      pop\n      jump\t// out\n        /* \"#utility.yul\":23918:24308   */\n    tag_306:\n        /* \"#utility.yul\":24024:24027   */\n      0x00\n        /* \"#utility.yul\":24052:24091   */\n      tag_550\n        /* \"#utility.yul\":24085:24090   */\n      dup3\n        /* \"#utility.yul\":24052:24091   */\n      tag_264\n      jump\t// in\n    tag_550:\n        /* \"#utility.yul\":24107:24196   */\n      tag_551\n        /* \"#utility.yul\":24189:24195   */\n      dup2\n        /* \"#utility.yul\":24184:24187   */\n      dup6\n        /* \"#utility.yul\":24107:24196   */\n      tag_305\n      jump\t// in\n    tag_551:\n        /* \"#utility.yul\":24100:24196   */\n      swap4\n      pop\n        /* \"#utility.yul\":24205:24270   */\n      tag_552\n        /* \"#utility.yul\":24263:24269   */\n      dup2\n        /* \"#utility.yul\":24258:24261   */\n      dup6\n        /* \"#utility.yul\":24251:24255   */\n      0x20\n        /* \"#utility.yul\":24244:24249   */\n      dup7\n        /* \"#utility.yul\":24240:24256   */\n      add\n        /* \"#utility.yul\":24205:24270   */\n      tag_266\n      jump\t// in\n    tag_552:\n        /* \"#utility.yul\":24295:24301   */\n      dup1\n        /* \"#utility.yul\":24290:24293   */\n      dup5\n        /* \"#utility.yul\":24286:24302   */\n      add\n        /* \"#utility.yul\":24279:24302   */\n      swap2\n      pop\n        /* \"#utility.yul\":24028:24308   */\n      pop\n        /* \"#utility.yul\":23918:24308   */\n      swap3\n      swap2\n      pop\n      pop\n      jump\t// out\n        /* \"#utility.yul\":24314:24589   */\n    tag_172:\n        /* \"#utility.yul\":24446:24449   */\n      0x00\n        /* \"#utility.yul\":24468:24563   */\n      tag_554\n        /* \"#utility.yul\":24559:24562   */\n      dup3\n        /* \"#utility.yul\":24550:24556   */\n      dup5\n        /* \"#utility.yul\":24468:24563   */\n      tag_306\n      jump\t// in\n    tag_554:\n        /* \"#utility.yul\":24461:24563   */\n      swap2\n      pop\n        /* \"#utility.yul\":24580:24583   */\n      dup2\n        /* \"#utility.yul\":24573:24583   */\n      swap1\n      pop\n        /* \"#utility.yul\":24314:24589   */\n      swap3\n      swap2\n      pop\n      pop\n      jump\t// out\n        /* \"#utility.yul\":24595:24775   */\n    tag_307:\n        /* \"#utility.yul\":24643:24720   */\n      0x4e487b7100000000000000000000000000000000000000000000000000000000\n        /* \"#utility.yul\":24640:24641   */\n      0x00\n        /* \"#utility.yul\":24633:24721   */\n      mstore\n        /* \"#utility.yul\":24740:24744   */\n      0x11\n        /* \"#utility.yul\":24737:24738   */\n      0x04\n        /* \"#utility.yul\":24730:24745   */\n      mstore\n        /* \"#utility.yul\":24764:24768   */\n      0x24\n        /* \"#utility.yul\":24761:24762   */\n      0x00\n        /* \"#utility.yul\":24754:24769   */\n      revert\n        /* \"#utility.yul\":24781:25014   */\n    tag_192:\n        /* \"#utility.yul\":24820:24823   */\n      0x00\n        /* \"#utility.yul\":24843:24867   */\n      tag_557\n        /* \"#utility.yul\":24861:24866   */\n      dup3\n        /* \"#utility.yul\":24843:24867   */\n      tag_261\n      jump\t// in\n    tag_557:\n        /* \"#utility.yul\":24834:24867   */\n      swap2\n      pop\n        /* \"#utility.yul\":24889:24955   */\n      0xffffffffffffffffffffffffffffffffffffffffffffffffffffffffffffffff\n        /* \"#utility.yul\":24882:24887   */\n      dup3\n        /* \"#utility.yul\":24879:24956   */\n      sub\n        /* \"#utility.yul\":24876:24979   */\n      tag_558\n      jumpi\n        /* \"#utility.yul\":24959:24977   */\n      tag_559\n      tag_307\n      jump\t// in\n    tag_559:\n        /* \"#utility.yul\":24876:24979   */\n    tag_558:\n        /* \"#utility.yul\":25006:25007   */\n      0x01\n        /* \"#utility.yul\":24999:25004   */\n      dup3\n        /* \"#utility.yul\":24995:25008   */\n      add\n        /* \"#utility.yul\":24988:25008   */\n      swap1\n      pop\n        /* \"#utility.yul\":24781:25014   */\n      swap2\n      swap1\n      pop\n      jump\t// out\n        /* \"#utility.yul\":25020:25167   */\n    tag_308:\n        /* \"#utility.yul\":25121:25132   */\n      0x00\n        /* \"#utility.yul\":25158:25161   */\n      dup2\n        /* \"#utility.yul\":25143:25161   */\n      swap1\n      pop\n        /* \"#utility.yul\":25020:25167   */\n      swap3\n      swap2\n      pop\n      pop\n      jump\t// out\n        /* \"#utility.yul\":25173:25287   */\n    tag_309:\n      pop\n      jump\t// out\n        /* \"#utility.yul\":25293:25691   */\n    tag_310:\n        /* \"#utility.yul\":25452:25455   */\n      0x00\n        /* \"#utility.yul\":25473:25556   */\n      tag_563\n        /* \"#utility.yul\":25554:25555   */\n      0x00\n        /* \"#utility.yul\":25549:25552   */\n      dup4\n        /* \"#utility.yul\":25473:25556   */\n      tag_308\n      jump\t// in\n    tag_563:\n        /* \"#utility.yul\":25466:25556   */\n      swap2\n      pop\n        /* \"#utility.yul\":25565:25658   */\n      tag_564\n        /* \"#utility.yul\":25654:25657   */\n      dup3\n        /* \"#utility.yul\":25565:25658   */\n      tag_309\n      jump\t// in\n    tag_564:\n        /* \"#utility.yul\":25683:25684   */\n      0x00\n        /* \"#utility.yul\":25678:25681   */\n      dup3\n        /* \"#utility.yul\":25674:25685   */\n      add\n        /* \"#utility.yul\":25667:25685   */\n      swap1\n      pop\n        /* \"#utility.yul\":25293:25691   */\n      swap2\n      swap1\n      pop\n      jump\t// out\n        /* \"#utility.yul\":25697:26076   */\n    tag_203:\n        /* \"#utility.yul\":25881:25884   */\n      0x00\n        /* \"#utility.yul\":25903:26050   */\n      tag_566\n        /* \"#utility.yul\":26046:26049   */\n      dup3\n        /* \"#utility.yul\":25903:26050   */\n      tag_310\n      jump\t// in\n    tag_566:\n        /* \"#utility.yul\":25896:26050   */\n      swap2\n      pop\n        /* \"#utility.yul\":26067:26070   */\n      dup2\n        /* \"#utility.yul\":26060:26070   */\n      swap1\n      pop\n        /* \"#utility.yul\":25697:26076   */\n      swap2\n      swap1\n      pop\n      jump\t// out\n        /* \"#utility.yul\":26082:26252   */\n    tag_311:\n        /* \"#utility.yul\":26222:26244   */\n      0x4661696c656420746f2073656e64204574686572000000000000000000000000\n        /* \"#utility.yul\":26218:26219   */\n      0x00\n        /* \"#utility.yul\":26210:26216   */\n      dup3\n        /* \"#utility.yul\":26206:26220   */\n      add\n        /* \"#utility.yul\":26199:26245   */\n      mstore\n        /* \"#utility.yul\":26082:26252   */\n      pop\n      jump\t// out\n        /* \"#utility.yul\":26258:26624   */\n    tag_312:\n        /* \"#utility.yul\":26400:26403   */\n      0x00\n        /* \"#utility.yul\":26421:26488   */\n      tag_569\n        /* \"#utility.yul\":26485:26487   */\n      0x14\n        /* \"#utility.yul\":26480:26483   */\n      dup4\n        /* \"#utility.yul\":26421:26488   */\n      tag_265\n      jump\t// in\n    tag_569:\n        /* \"#utility.yul\":26414:26488   */\n      swap2\n      pop\n        /* \"#utility.yul\":26497:26590   */\n      tag_570\n        /* \"#utility.yul\":26586:26589   */\n      dup3\n        /* \"#utility.yul\":26497:26590   */\n      tag_311\n      jump\t// in\n    tag_570:\n        /* \"#utility.yul\":26615:26617   */\n      0x20\n        /* \"#utility.yul\":26610:26613   */\n      dup3\n        /* \"#utility.yul\":26606:26618   */\n      add\n        /* \"#utility.yul\":26599:26618   */\n      swap1\n      pop\n        /* \"#utility.yul\":26258:26624   */\n      swap2\n      swap1\n      pop\n      jump\t// out\n        /* \"#utility.yul\":26630:27049   */\n    tag_209:\n        /* \"#utility.yul\":26796:26800   */\n      0x00\n        /* \"#utility.yul\":26834:26836   */\n      0x20\n        /* \"#utility.yul\":26823:26832   */\n      dup3\n        /* \"#utility.yul\":26819:26837   */\n      add\n        /* \"#utility.yul\":26811:26837   */\n      swap1\n      pop\n        /* \"#utility.yul\":26883:26892   */\n      dup2\n        /* \"#utility.yul\":26877:26881   */\n      dup2\n        /* \"#utility.yul\":26873:26893   */\n      sub\n        /* \"#utility.yul\":26869:26870   */\n      0x00\n        /* \"#utility.yul\":26858:26867   */\n      dup4\n        /* \"#utility.yul\":26854:26871   */\n      add\n        /* \"#utility.yul\":26847:26894   */\n      mstore\n        /* \"#utility.yul\":26911:27042   */\n      tag_572\n        /* \"#utility.yul\":27037:27041   */\n      dup2\n        /* \"#utility.yul\":26911:27042   */\n      tag_312\n      jump\t// in\n    tag_572:\n        /* \"#utility.yul\":26903:27042   */\n      swap1\n      pop\n        /* \"#utility.yul\":26630:27049   */\n      swap2\n      swap1\n      pop\n      jump\t// out\n        /* \"#utility.yul\":27055:27196   */\n    tag_313:\n        /* \"#utility.yul\":27104:27108   */\n      0x00\n        /* \"#utility.yul\":27127:27130   */\n      dup2\n        /* \"#utility.yul\":27119:27130   */\n      swap1\n      pop\n        /* \"#utility.yul\":27150:27153   */\n      dup2\n        /* \"#utility.yul\":27147:27148   */\n      0x00\n        /* \"#utility.yul\":27140:27154   */\n      mstore\n        /* \"#utility.yul\":27184:27188   */\n      0x20\n        /* \"#utility.yul\":27181:27182   */\n      0x00\n        /* \"#utility.yul\":27171:27189   */\n      keccak256\n        /* \"#utility.yul\":27163:27189   */\n      swap1\n      pop\n        /* \"#utility.yul\":27055:27196   */\n      swap2\n      swap1\n      pop\n      jump\t// out\n        /* \"#utility.yul\":27202:27295   */\n    tag_314:\n        /* \"#utility.yul\":27239:27245   */\n      0x00\n        /* \"#utility.yul\":27286:27288   */\n      0x20\n        /* \"#utility.yul\":27281:27283   */\n      0x1f\n        /* \"#utility.yul\":27274:27279   */\n      dup4\n        /* \"#utility.yul\":27270:27284   */\n      add\n        /* \"#utility.yul\":27266:27289   */\n      div\n        /* \"#utility.yul\":27256:27289   */\n      swap1\n      pop\n        /* \"#utility.yul\":27202:27295   */\n      swap2\n      swap1\n      pop\n      jump\t// out\n        /* \"#utility.yul\":27301:27408   */\n    tag_315:\n        /* \"#utility.yul\":27345:27353   */\n      0x00\n        /* \"#utility.yul\":27395:27400   */\n      dup3\n        /* \"#utility.yul\":27389:27393   */\n      dup3\n        /* \"#utility.yul\":27385:27401   */\n      shl\n        /* \"#utility.yul\":27364:27401   */\n      swap1\n      pop\n        /* \"#utility.yul\":27301:27408   */\n      swap3\n      swap2\n      pop\n      pop\n      jump\t// out\n        /* \"#utility.yul\":27414:27807   */\n    tag_316:\n        /* \"#utility.yul\":27483:27489   */\n      0x00\n        /* \"#utility.yul\":27533:27534   */\n      0x08\n        /* \"#utility.yul\":27521:27531   */\n      dup4\n        /* \"#utility.yul\":27517:27535   */\n      mul\n        /* \"#utility.yul\":27556:27653   */\n      tag_577\n        /* \"#utility.yul\":27586:27652   */\n      0xffffffffffffffffffffffffffffffffffffffffffffffffffffffffffffffff\n        /* \"#utility.yul\":27575:27584   */\n      dup3\n        /* \"#utility.yul\":27556:27653   */\n      tag_315\n      jump\t// in\n    tag_577:\n        /* \"#utility.yul\":27674:27713   */\n      tag_578\n        /* \"#utility.yul\":27704:27712   */\n      dup7\n        /* \"#utility.yul\":27693:27702   */\n      dup4\n        /* \"#utility.yul\":27674:27713   */\n      tag_315\n      jump\t// in\n    tag_578:\n        /* \"#utility.yul\":27662:27713   */\n      swap6\n      pop\n        /* \"#utility.yul\":27746:27750   */\n      dup1\n        /* \"#utility.yul\":27742:27751   */\n      not\n        /* \"#utility.yul\":27735:27740   */\n      dup5\n        /* \"#utility.yul\":27731:27752   */\n      and\n        /* \"#utility.yul\":27722:27752   */\n      swap4\n      pop\n        /* \"#utility.yul\":27795:27799   */\n      dup1\n        /* \"#utility.yul\":27785:27793   */\n      dup7\n        /* \"#utility.yul\":27781:27800   */\n      and\n        /* \"#utility.yul\":27774:27779   */\n      dup5\n        /* \"#utility.yul\":27771:27801   */\n      or\n        /* \"#utility.yul\":27761:27801   */\n      swap3\n      pop\n        /* \"#utility.yul\":27490:27807   */\n      pop\n      pop\n        /* \"#utility.yul\":27414:27807   */\n      swap4\n      swap3\n      pop\n      pop\n      pop\n      jump\t// out\n        /* \"#utility.yul\":27813:27873   */\n    tag_317:\n        /* \"#utility.yul\":27841:27844   */\n      0x00\n        /* \"#utility.yul\":27862:27867   */\n      dup2\n        /* \"#utility.yul\":27855:27867   */\n      swap1\n      pop\n        /* \"#utility.yul\":27813:27873   */\n      swap2\n      swap1\n      pop\n      jump\t// out\n        /* \"#utility.yul\":27879:28021   */\n    tag_318:\n        /* \"#utility.yul\":27929:27938   */\n      0x00\n        /* \"#utility.yul\":27962:28015   */\n      tag_581\n        /* \"#utility.yul\":27980:28014   */\n      tag_582\n        /* \"#utility.yul\":27989:28013   */\n      tag_583\n        /* \"#utility.yul\":28007:28012   */\n      dup5\n        /* \"#utility.yul\":27989:28013   */\n      tag_261\n      jump\t// in\n    tag_583:\n        /* \"#utility.yul\":27980:28014   */\n      tag_317\n      jump\t// in\n    tag_582:\n        /* \"#utility.yul\":27962:28015   */\n      tag_261\n      jump\t// in\n    tag_581:\n        /* \"#utility.yul\":27949:28015   */\n      swap1\n      pop\n        /* \"#utility.yul\":27879:28021   */\n      swap2\n      swap1\n      pop\n      jump\t// out\n        /* \"#utility.yul\":28027:28102   */\n    tag_319:\n        /* \"#utility.yul\":28070:28073   */\n      0x00\n        /* \"#utility.yul\":28091:28096   */\n      dup2\n        /* \"#utility.yul\":28084:28096   */\n      swap1\n      pop\n        /* \"#utility.yul\":28027:28102   */\n      swap2\n      swap1\n      pop\n      jump\t// out\n        /* \"#utility.yul\":28108:28377   */\n    tag_320:\n        /* \"#utility.yul\":28218:28257   */\n      tag_586\n        /* \"#utility.yul\":28249:28256   */\n      dup4\n        /* \"#utility.yul\":28218:28257   */\n      tag_318\n      jump\t// in\n    tag_586:\n        /* \"#utility.yul\":28279:28370   */\n      tag_587\n        /* \"#utility.yul\":28328:28369   */\n      tag_588\n        /* \"#utility.yul\":28352:28368   */\n      dup3\n        /* \"#utility.yul\":28328:28369   */\n      tag_319\n      jump\t// in\n    tag_588:\n        /* \"#utility.yul\":28320:28326   */\n      dup5\n        /* \"#utility.yul\":28313:28317   */\n      dup5\n        /* \"#utility.yul\":28307:28318   */\n      sload\n        /* \"#utility.yul\":28279:28370   */\n      tag_316\n      jump\t// in\n    tag_587:\n        /* \"#utility.yul\":28273:28277   */\n      dup3\n        /* \"#utility.yul\":28266:28371   */\n      sstore\n        /* \"#utility.yul\":28184:28377   */\n      pop\n        /* \"#utility.yul\":28108:28377   */\n      pop\n      pop\n      pop\n      jump\t// out\n        /* \"#utility.yul\":28383:28456   */\n    tag_321:\n        /* \"#utility.yul\":28428:28431   */\n      0x00\n        /* \"#utility.yul\":28383:28456   */\n      swap1\n      jump\t// out\n        /* \"#utility.yul\":28462:28651   */\n    tag_322:\n        /* \"#utility.yul\":28539:28571   */\n      tag_591\n      tag_321\n      jump\t// in\n    tag_591:\n        /* \"#utility.yul\":28580:28645   */\n      tag_592\n        /* \"#utility.yul\":28638:28644   */\n      dup2\n        /* \"#utility.yul\":28630:28636   */\n      dup5\n        /* \"#utility.yul\":28624:28628   */\n      dup5\n        /* \"#utility.yul\":28580:28645   */\n      tag_320\n      jump\t// in\n    tag_592:\n        /* \"#utility.yul\":28515:28651   */\n      pop\n        /* \"#utility.yul\":28462:28651   */\n      pop\n      pop\n      jump\t// out\n        /* \"#utility.yul\":28657:28843   */\n    tag_323:\n        /* \"#utility.yul\":28717:28837   */\n    tag_594:\n        /* \"#utility.yul\":28734:28737   */\n      dup2\n        /* \"#utility.yul\":28727:28732   */\n      dup2\n        /* \"#utility.yul\":28724:28738   */\n      lt\n        /* \"#utility.yul\":28717:28837   */\n      iszero\n      tag_596\n      jumpi\n        /* \"#utility.yul\":28788:28827   */\n      tag_597\n        /* \"#utility.yul\":28825:28826   */\n      0x00\n        /* \"#utility.yul\":28818:28823   */\n      dup3\n        /* \"#utility.yul\":28788:28827   */\n      tag_322\n      jump\t// in\n    tag_597:\n        /* \"#utility.yul\":28761:28762   */\n      0x01\n        /* \"#utility.yul\":28754:28759   */\n      dup2\n        /* \"#utility.yul\":28750:28763   */\n      add\n        /* \"#utility.yul\":28741:28763   */\n      swap1\n      pop\n        /* \"#utility.yul\":28717:28837   */\n      jump(tag_594)\n    tag_596:\n        /* \"#utility.yul\":28657:28843   */\n      pop\n      pop\n      jump\t// out\n        /* \"#utility.yul\":28849:29392   */\n    tag_324:\n        /* \"#utility.yul\":28950:28952   */\n      0x1f\n        /* \"#utility.yul\":28945:28948   */\n      dup3\n        /* \"#utility.yul\":28942:28953   */\n      gt\n        /* \"#utility.yul\":28939:29385   */\n      iszero\n      tag_599\n      jumpi\n        /* \"#utility.yul\":28984:29022   */\n      tag_600\n        /* \"#utility.yul\":29016:29021   */\n      dup2\n        /* \"#utility.yul\":28984:29022   */\n      tag_313\n      jump\t// in\n    tag_600:\n        /* \"#utility.yul\":29068:29097   */\n      tag_601\n        /* \"#utility.yul\":29086:29096   */\n      dup5\n        /* \"#utility.yul\":29068:29097   */\n      tag_314\n      jump\t// in\n    tag_601:\n        /* \"#utility.yul\":29058:29066   */\n      dup2\n        /* \"#utility.yul\":29054:29098   */\n      add\n        /* \"#utility.yul\":29251:29253   */\n      0x20\n        /* \"#utility.yul\":29239:29249   */\n      dup6\n        /* \"#utility.yul\":29236:29254   */\n      lt\n        /* \"#utility.yul\":29233:29282   */\n      iszero\n      tag_602\n      jumpi\n        /* \"#utility.yul\":29272:29280   */\n      dup2\n        /* \"#utility.yul\":29257:29280   */\n      swap1\n      pop\n        /* \"#utility.yul\":29233:29282   */\n    tag_602:\n        /* \"#utility.yul\":29295:29375   */\n      tag_603\n        /* \"#utility.yul\":29351:29373   */\n      tag_604\n        /* \"#utility.yul\":29369:29372   */\n      dup6\n        /* \"#utility.yul\":29351:29373   */\n      tag_314\n      jump\t// in\n    tag_604:\n        /* \"#utility.yul\":29341:29349   */\n      dup4\n        /* \"#utility.yul\":29337:29374   */\n      add\n        /* \"#utility.yul\":29324:29335   */\n      dup3\n        /* \"#utility.yul\":29295:29375   */\n      tag_323\n      jump\t// in\n    tag_603:\n        /* \"#utility.yul\":28954:29385   */\n      pop\n      pop\n        /* \"#utility.yul\":28939:29385   */\n    tag_599:\n        /* \"#utility.yul\":28849:29392   */\n      pop\n      pop\n      pop\n      jump\t// out\n        /* \"#utility.yul\":29398:29515   */\n    tag_325:\n        /* \"#utility.yul\":29452:29460   */\n      0x00\n        /* \"#utility.yul\":29502:29507   */\n      dup3\n        /* \"#utility.yul\":29496:29500   */\n      dup3\n        /* \"#utility.yul\":29492:29508   */\n      shr\n        /* \"#utility.yul\":29471:29508   */\n      swap1\n      pop\n        /* \"#utility.yul\":29398:29515   */\n      swap3\n      swap2\n      pop\n      pop\n      jump\t// out\n        /* \"#utility.yul\":29521:29690   */\n    tag_326:\n        /* \"#utility.yul\":29565:29571   */\n      0x00\n        /* \"#utility.yul\":29598:29649   */\n      tag_607\n        /* \"#utility.yul\":29646:29647   */\n      0x00\n        /* \"#utility.yul\":29642:29648   */\n      not\n        /* \"#utility.yul\":29634:29639   */\n      dup5\n        /* \"#utility.yul\":29631:29632   */\n      0x08\n        /* \"#utility.yul\":29627:29640   */\n      mul\n        /* \"#utility.yul\":29598:29649   */\n      tag_325\n      jump\t// in\n    tag_607:\n        /* \"#utility.yul\":29594:29650   */\n      not\n        /* \"#utility.yul\":29679:29683   */\n      dup1\n        /* \"#utility.yul\":29673:29677   */\n      dup4\n        /* \"#utility.yul\":29669:29684   */\n      and\n        /* \"#utility.yul\":29659:29684   */\n      swap2\n      pop\n        /* \"#utility.yul\":29572:29690   */\n      pop\n        /* \"#utility.yul\":29521:29690   */\n      swap3\n      swap2\n      pop\n      pop\n      jump\t// out\n        /* \"#utility.yul\":29695:29990   */\n    tag_327:\n        /* \"#utility.yul\":29771:29775   */\n      0x00\n        /* \"#utility.yul\":29917:29946   */\n      tag_609\n        /* \"#utility.yul\":29942:29945   */\n      dup4\n        /* \"#utility.yul\":29936:29940   */\n      dup4\n        /* \"#utility.yul\":29917:29946   */\n      tag_326\n      jump\t// in\n    tag_609:\n        /* \"#utility.yul\":29909:29946   */\n      swap2\n      pop\n        /* \"#utility.yul\":29979:29982   */\n      dup3\n        /* \"#utility.yul\":29976:29977   */\n      0x02\n        /* \"#utility.yul\":29972:29983   */\n      mul\n        /* \"#utility.yul\":29966:29970   */\n      dup3\n        /* \"#utility.yul\":29963:29984   */\n      or\n        /* \"#utility.yul\":29955:29984   */\n      swap1\n      pop\n        /* \"#utility.yul\":29695:29990   */\n      swap3\n      swap2\n      pop\n      pop\n      jump\t// out\n        /* \"#utility.yul\":29995:31390   */\n    tag_226:\n        /* \"#utility.yul\":30112:30149   */\n      tag_611\n        /* \"#utility.yul\":30145:30148   */\n      dup3\n        /* \"#utility.yul\":30112:30149   */\n      tag_264\n      jump\t// in\n    tag_611:\n        /* \"#utility.yul\":30214:30232   */\n      0xffffffffffffffff\n        /* \"#utility.yul\":30206:30212   */\n      dup2\n        /* \"#utility.yul\":30203:30233   */\n      gt\n        /* \"#utility.yul\":30200:30256   */\n      iszero\n      tag_612\n      jumpi\n        /* \"#utility.yul\":30236:30254   */\n      tag_613\n      tag_154\n      jump\t// in\n    tag_613:\n        /* \"#utility.yul\":30200:30256   */\n    tag_612:\n        /* \"#utility.yul\":30280:30318   */\n      tag_614\n        /* \"#utility.yul\":30312:30316   */\n      dup3\n        /* \"#utility.yul\":30306:30317   */\n      sload\n        /* \"#utility.yul\":30280:30318   */\n      tag_115\n      jump\t// in\n    tag_614:\n        /* \"#utility.yul\":30365:30432   */\n      tag_615\n        /* \"#utility.yul\":30425:30431   */\n      dup3\n        /* \"#utility.yul\":30417:30423   */\n      dup3\n        /* \"#utility.yul\":30411:30415   */\n      dup6\n        /* \"#utility.yul\":30365:30432   */\n      tag_324\n      jump\t// in\n    tag_615:\n        /* \"#utility.yul\":30459:30460   */\n      0x00\n        /* \"#utility.yul\":30483:30487   */\n      0x20\n        /* \"#utility.yul\":30470:30487   */\n      swap1\n      pop\n        /* \"#utility.yul\":30515:30517   */\n      0x1f\n        /* \"#utility.yul\":30507:30513   */\n      dup4\n        /* \"#utility.yul\":30504:30518   */\n      gt\n        /* \"#utility.yul\":30532:30533   */\n      0x01\n        /* \"#utility.yul\":30527:31145   */\n      dup2\n      eq\n      tag_617\n      jumpi\n        /* \"#utility.yul\":31189:31190   */\n      0x00\n        /* \"#utility.yul\":31206:31212   */\n      dup5\n        /* \"#utility.yul\":31203:31280   */\n      iszero\n      tag_618\n      jumpi\n        /* \"#utility.yul\":31255:31264   */\n      dup3\n        /* \"#utility.yul\":31250:31253   */\n      dup8\n        /* \"#utility.yul\":31246:31265   */\n      add\n        /* \"#utility.yul\":31240:31266   */\n      mload\n        /* \"#utility.yul\":31231:31266   */\n      swap1\n      pop\n        /* \"#utility.yul\":31203:31280   */\n    tag_618:\n        /* \"#utility.yul\":31306:31373   */\n      tag_619\n        /* \"#utility.yul\":31366:31372   */\n      dup6\n        /* \"#utility.yul\":31359:31364   */\n      dup3\n        /* \"#utility.yul\":31306:31373   */\n      tag_327\n      jump\t// in\n    tag_619:\n        /* \"#utility.yul\":31300:31304   */\n      dup7\n        /* \"#utility.yul\":31293:31374   */\n      sstore\n        /* \"#utility.yul\":31162:31384   */\n      pop\n        /* \"#utility.yul\":30497:31384   */\n      jump(tag_616)\n        /* \"#utility.yul\":30527:31145   */\n    tag_617:\n        /* \"#utility.yul\":30579:30583   */\n      0x1f\n        /* \"#utility.yul\":30575:30584   */\n      not\n        /* \"#utility.yul\":30567:30573   */\n      dup5\n        /* \"#utility.yul\":30563:30585   */\n      and\n        /* \"#utility.yul\":30613:30650   */\n      tag_620\n        /* \"#utility.yul\":30645:30649   */\n      dup7\n        /* \"#utility.yul\":30613:30650   */\n      tag_313\n      jump\t// in\n    tag_620:\n        /* \"#utility.yul\":30672:30673   */\n      0x00\n        /* \"#utility.yul\":30686:30894   */\n    tag_621:\n        /* \"#utility.yul\":30700:30707   */\n      dup3\n        /* \"#utility.yul\":30697:30698   */\n      dup2\n        /* \"#utility.yul\":30694:30708   */\n      lt\n        /* \"#utility.yul\":30686:30894   */\n      iszero\n      tag_623\n      jumpi\n        /* \"#utility.yul\":30779:30788   */\n      dup5\n        /* \"#utility.yul\":30774:30777   */\n      dup10\n        /* \"#utility.yul\":30770:30789   */\n      add\n        /* \"#utility.yul\":30764:30790   */\n      mload\n        /* \"#utility.yul\":30756:30762   */\n      dup3\n        /* \"#utility.yul\":30749:30791   */\n      sstore\n        /* \"#utility.yul\":30830:30831   */\n      0x01\n        /* \"#utility.yul\":30822:30828   */\n      dup3\n        /* \"#utility.yul\":30818:30832   */\n      add\n        /* \"#utility.yul\":30808:30832   */\n      swap2\n      pop\n        /* \"#utility.yul\":30877:30879   */\n      0x20\n        /* \"#utility.yul\":30866:30875   */\n      dup6\n        /* \"#utility.yul\":30862:30880   */\n      add\n        /* \"#utility.yul\":30849:30880   */\n      swap5\n      pop\n        /* \"#utility.yul\":30723:30727   */\n      0x20\n        /* \"#utility.yul\":30720:30721   */\n      dup2\n        /* \"#utility.yul\":30716:30728   */\n      add\n        /* \"#utility.yul\":30711:30728   */\n      swap1\n      pop\n        /* \"#utility.yul\":30686:30894   */\n      jump(tag_621)\n    tag_623:\n        /* \"#utility.yul\":30922:30928   */\n      dup7\n        /* \"#utility.yul\":30913:30920   */\n      dup4\n        /* \"#utility.yul\":30910:30929   */\n      lt\n        /* \"#utility.yul\":30907:31086   */\n      iszero\n      tag_624\n      jumpi\n        /* \"#utility.yul\":30980:30989   */\n      dup5\n        /* \"#utility.yul\":30975:30978   */\n      dup10\n        /* \"#utility.yul\":30971:30990   */\n      add\n        /* \"#utility.yul\":30965:30991   */\n      mload\n        /* \"#utility.yul\":31023:31071   */\n      tag_625\n        /* \"#utility.yul\":31065:31069   */\n      0x1f\n        /* \"#utility.yul\":31057:31063   */\n      dup10\n        /* \"#utility.yul\":31053:31070   */\n      and\n        /* \"#utility.yul\":31042:31051   */\n      dup3\n        /* \"#utility.yul\":31023:31071   */\n      tag_326\n      jump\t// in\n    tag_625:\n        /* \"#utility.yul\":31015:31021   */\n      dup4\n        /* \"#utility.yul\":31008:31072   */\n      sstore\n        /* \"#utility.yul\":30930:31086   */\n      pop\n        /* \"#utility.yul\":30907:31086   */\n    tag_624:\n        /* \"#utility.yul\":31132:31133   */\n      0x01\n        /* \"#utility.yul\":31128:31129   */\n      0x02\n        /* \"#utility.yul\":31120:31126   */\n      dup9\n        /* \"#utility.yul\":31116:31130   */\n      mul\n        /* \"#utility.yul\":31112:31134   */\n      add\n        /* \"#utility.yul\":31106:31110   */\n      dup9\n        /* \"#utility.yul\":31099:31135   */\n      sstore\n        /* \"#utility.yul\":30534:31145   */\n      pop\n      pop\n      pop\n        /* \"#utility.yul\":30497:31384   */\n    tag_616:\n      pop\n        /* \"#utility.yul\":30087:31390   */\n      pop\n      pop\n      pop\n        /* \"#utility.yul\":29995:31390   */\n      pop\n      pop\n      jump\t// out\n        /* \"#utility.yul\":31396:31590   */\n    tag_236:\n        /* \"#utility.yul\":31436:31440   */\n      0x00\n        /* \"#utility.yul\":31456:31476   */\n      tag_627\n        /* \"#utility.yul\":31474:31475   */\n      dup3\n        /* \"#utility.yul\":31456:31476   */\n      tag_261\n      jump\t// in\n    tag_627:\n        /* \"#utility.yul\":31451:31476   */\n      swap2\n      pop\n        /* \"#utility.yul\":31490:31510   */\n      tag_628\n        /* \"#utility.yul\":31508:31509   */\n      dup4\n        /* \"#utility.yul\":31490:31510   */\n      tag_261\n      jump\t// in\n    tag_628:\n        /* \"#utility.yul\":31485:31510   */\n      swap3\n      pop\n        /* \"#utility.yul\":31534:31535   */\n      dup3\n        /* \"#utility.yul\":31531:31532   */\n      dup3\n        /* \"#utility.yul\":31527:31536   */\n      sub\n        /* \"#utility.yul\":31519:31536   */\n      swap1\n      pop\n        /* \"#utility.yul\":31558:31559   */\n      dup2\n        /* \"#utility.yul\":31552:31556   */\n      dup2\n        /* \"#utility.yul\":31549:31560   */\n      gt\n        /* \"#utility.yul\":31546:31583   */\n      iszero\n      tag_629\n      jumpi\n        /* \"#utility.yul\":31563:31581   */\n      tag_630\n      tag_307\n      jump\t// in\n    tag_630:\n        /* \"#utility.yul\":31546:31583   */\n    tag_629:\n        /* \"#utility.yul\":31396:31590   */\n      swap3\n      swap2\n      pop\n      pop\n      jump\t// out\n        /* \"#utility.yul\":31596:31787   */\n    tag_238:\n        /* \"#utility.yul\":31636:31639   */\n      0x00\n        /* \"#utility.yul\":31655:31675   */\n      tag_632\n        /* \"#utility.yul\":31673:31674   */\n      dup3\n        /* \"#utility.yul\":31655:31675   */\n      tag_261\n      jump\t// in\n    tag_632:\n        /* \"#utility.yul\":31650:31675   */\n      swap2\n      pop\n        /* \"#utility.yul\":31689:31709   */\n      tag_633\n        /* \"#utility.yul\":31707:31708   */\n      dup4\n        /* \"#utility.yul\":31689:31709   */\n      tag_261\n      jump\t// in\n    tag_633:\n        /* \"#utility.yul\":31684:31709   */\n      swap3\n      pop\n        /* \"#utility.yul\":31732:31733   */\n      dup3\n        /* \"#utility.yul\":31729:31730   */\n      dup3\n        /* \"#utility.yul\":31725:31734   */\n      add\n        /* \"#utility.yul\":31718:31734   */\n      swap1\n      pop\n        /* \"#utility.yul\":31753:31756   */\n      dup1\n        /* \"#utility.yul\":31750:31751   */\n      dup3\n        /* \"#utility.yul\":31747:31757   */\n      gt\n        /* \"#utility.yul\":31744:31780   */\n      iszero\n      tag_634\n      jumpi\n        /* \"#utility.yul\":31760:31778   */\n      tag_635\n      tag_307\n      jump\t// in\n    tag_635:\n        /* \"#utility.yul\":31744:31780   */\n    tag_634:\n        /* \"#utility.yul\":31596:31787   */\n      swap3\n      swap2\n      pop\n      pop\n      jump\t// out\n\n    auxdata: 0xa26469706673582212206d3b3e5754d0bdfd650ece173f65b2c4da063ee685f8e457eab82b019d439d6464736f6c63430008110033\n}\n","bytecode":{"linkReferences":{},"object":"608060405234801561001057600080fd5b50612da9806100206000396000f3fe6080604052600436106100f75760003560e01c8063a9059cbb1161008a578063bdc6ab0311610059578063bdc6ab03146103c3578063d0e30db0146103df578063f6153ccd146103e9578063fd70c7dd146104145761010f565b8063a9059cbb14610309578063ab6a9f1714610332578063b205b4f61461036f578063b69ef8a8146103985761010f565b806364aa65a8116100c657806364aa65a8146102145780636e6061d1146102515780637792a0351461028e578063a8367070146102cb5761010f565b80630a02dcc7146101145780630cb31a801461015157806332f9776314610191578063529a1baf146101d75761010f565b3661010f57633b9aca0034101561010d57600080fd5b005b600080fd5b34801561012057600080fd5b5061013b60048036038101906101369190611dc2565b610451565b6040516101489190611e7f565b60405180910390f35b34801561015d57600080fd5b5061017860048036038101906101739190611dc2565b6104fd565b6040516101889493929190611ef1565b60405180910390f35b34801561019d57600080fd5b506101b860048036038101906101b39190612097565b61057d565b6040516101ce9a99989796959493929190612106565b60405180910390f35b3480156101e357600080fd5b506101fe60048036038101906101f991906121b7565b610799565b60405161020b91906121e4565b60405180910390f35b34801561022057600080fd5b5061023b600480360381019061023691906121b7565b6107b1565b6040516102489190611e7f565b60405180910390f35b34801561025d57600080fd5b50610278600480360381019061027391906121ff565b610851565b6040516102859190611e7f565b60405180910390f35b34801561029a57600080fd5b506102b560048036038101906102b09190611dc2565b61090a565b6040516102c2919061223f565b60405180910390f35b3480156102d757600080fd5b506102f260048036038101906102ed919061225a565b610949565b604051610300929190612568565b60405180910390f35b34801561031557600080fd5b50610330600480360381019061032b91906125dd565b610f15565b005b34801561033e57600080fd5b506103596004803603810190610354919061261d565b610fc6565b60405161036691906126b0565b60405180910390f35b34801561037b57600080fd5b50610396600480360381019061039191906126cb565b61106d565b005b3480156103a457600080fd5b506103ad61191b565b6040516103ba91906121e4565b60405180910390f35b6103dd60048036038101906103d89190612813565b611923565b005b6103e7611cbb565b005b3480156103f557600080fd5b506103fe611cd6565b60405161040b91906121e4565b60405180910390f35b34801561042057600080fd5b5061043b6004803603810190610436919061225a565b611cdc565b604051610448919061223f565b60405180910390f35b6000818154811061046157600080fd5b90600052602060002001600091509050805461047c906128b1565b80601f01602080910402602001604051908101604052809291908181526020018280546104a8906128b1565b80156104f55780601f106104ca576101008083540402835291602001916104f5565b820191906000526020600020905b8154815290600101906020018083116104d857829003601f168201915b505050505081565b6005818154811061050d57600080fd5b90600052602060002090600402016000915090508060000160009054906101000a900473ffffffffffffffffffffffffffffffffffffffff16908060010160009054906101000a900473ffffffffffffffffffffffffffffffffffffffff16908060020154908060030154905084565b60076020528260005260406000208280516020810182018051848252602083016020850120818352809550505050505060205280600052604060002060009250925050508060000180546105d0906128b1565b80601f01602080910402602001604051908101604052809291908181526020018280546105fc906128b1565b80156106495780601f1061061e57610100808354040283529160200191610649565b820191906000526020600020905b81548152906001019060200180831161062c57829003601f168201915b50505050509080600101805461065e906128b1565b80601f016020809104026020016040519081016040528092919081815260200182805461068a906128b1565b80156106d75780601f106106ac576101008083540402835291602001916106d7565b820191906000526020600020905b8154815290600101906020018083116106ba57829003601f168201915b5050505050908060020180546106ec906128b1565b80601f0160208091040260200160405190810160405280929190818152602001828054610718906128b1565b80156107655780601f1061073a57610100808354040283529160200191610765565b820191906000526020600020905b81548152906001019060200180831161074857829003601f168201915b505050505090806003015490806004015490806005015490806006015490806007015490806008015490806009015490508a565b60096020528060005260406000206000915090505481565b600260205280600052604060002060009150905080546107d0906128b1565b80601f01602080910402602001604051908101604052809291908181526020018280546107fc906128b1565b80156108495780601f1061081e57610100808354040283529160200191610849565b820191906000526020600020905b81548152906001019060200180831161082c57829003601f168201915b505050505081565b6006602052816000526040600020818154811061086d57600080fd5b90600052602060002001600091509150508054610889906128b1565b80601f01602080910402602001604051908101604052809291908181526020018280546108b5906128b1565b80156109025780601f106108d757610100808354040283529160200191610902565b820191906000526020600020905b8154815290600101906020018083116108e557829003601f168201915b505050505081565b6001818154811061091a57600080fd5b906000526020600020016000915054906101000a900473ffffffffffffffffffffffffffffffffffffffff1681565b60608060003390506000600660008373ffffffffffffffffffffffffffffffffffffffff1673ffffffffffffffffffffffffffffffffffffffff16815260200190815260200160002090506000600660008473ffffffffffffffffffffffffffffffffffffffff1673ffffffffffffffffffffffffffffffffffffffff1681526020019081526020016000208054905067ffffffffffffffff8111156109f2576109f1611f6c565b5b604051908082528060200260200182016040528015610a2b57816020015b610a18611d25565b815260200190600190039081610a105790505b50905060005b8280549050811015610df5576000838281548110610a5257610a516128e2565b5b906000526020600020018054610a67906128b1565b80601f0160208091040260200160405190810160405280929190818152602001828054610a93906128b1565b8015610ae05780601f10610ab557610100808354040283529160200191610ae0565b820191906000526020600020905b815481529060010190602001808311610ac357829003601f168201915b50505050509050600760008673ffffffffffffffffffffffffffffffffffffffff1673ffffffffffffffffffffffffffffffffffffffff16815260200190815260200160002081604051610b34919061294d565b9081526020016040518091039020600060038a604051610b54919061294d565b908152602001604051809103902060009054906101000a900473ffffffffffffffffffffffffffffffffffffffff1673ffffffffffffffffffffffffffffffffffffffff1673ffffffffffffffffffffffffffffffffffffffff16815260200190815260200160002060405180610140016040529081600082018054610bd9906128b1565b80601f0160208091040260200160405190810160405280929190818152602001828054610c05906128b1565b8015610c525780601f10610c2757610100808354040283529160200191610c52565b820191906000526020600020905b815481529060010190602001808311610c3557829003601f168201915b50505050508152602001600182018054610c6b906128b1565b80601f0160208091040260200160405190810160405280929190818152602001828054610c97906128b1565b8015610ce45780601f10610cb957610100808354040283529160200191610ce4565b820191906000526020600020905b815481529060010190602001808311610cc757829003601f168201915b50505050508152602001600282018054610cfd906128b1565b80601f0160208091040260200160405190810160405280929190818152602001828054610d29906128b1565b8015610d765780601f10610d4b57610100808354040283529160200191610d76565b820191906000526020600020905b815481529060010190602001808311610d5957829003601f168201915b50505050508152602001600382015481526020016004820154815260200160058201548152602001600682015481526020016007820154815260200160088201548152602001600982015481525050838381518110610dd857610dd76128e2565b5b60200260200101819052505080610dee90612993565b9050610a31565b50600660008473ffffffffffffffffffffffffffffffffffffffff1673ffffffffffffffffffffffffffffffffffffffff1681526020019081526020016000208181805480602002602001604051908101604052809291908181526020016000905b82821015610f03578382906000526020600020018054610e76906128b1565b80601f0160208091040260200160405190810160405280929190818152602001828054610ea2906128b1565b8015610eef5780601f10610ec457610100808354040283529160200191610eef565b820191906000526020600020905b815481529060010190602001808311610ed257829003601f168201915b505050505081526020019060010190610e57565b50505050915094509450505050915091565b60008273ffffffffffffffffffffffffffffffffffffffff1682604051610f3b90612a0c565b60006040518083038185875af1925050503d8060008114610f78576040519150601f19603f3d011682016040523d82523d6000602084013e610f7d565b606091505b5050905080610fc1576040517f08c379a0000000000000000000000000000000000000000000000000000000008152600401610fb890612a6d565b60405180910390fd5b505050565b60008060086000600385604051610fdd919061294d565b908152602001604051809103902060009054906101000a900473ffffffffffffffffffffffffffffffffffffffff1673ffffffffffffffffffffffffffffffffffffffff1673ffffffffffffffffffffffffffffffffffffffff16815260200190815260200160002084604051611054919061294d565b9081526020016040518091039020541415905092915050565b60003390506000600260008373ffffffffffffffffffffffffffffffffffffffff1673ffffffffffffffffffffffffffffffffffffffff16815260200190815260200160002080546110be906128b1565b9050036110ca57600080fd5b600073ffffffffffffffffffffffffffffffffffffffff1660038b6040516110f2919061294d565b908152602001604051809103902060009054906101000a900473ffffffffffffffffffffffffffffffffffffffff1673ffffffffffffffffffffffffffffffffffffffff160361114157600080fd5b60016009600060038d604051611157919061294d565b908152602001604051809103902060009054906101000a900473ffffffffffffffffffffffffffffffffffffffff1673ffffffffffffffffffffffffffffffffffffffff1673ffffffffffffffffffffffffffffffffffffffff1681526020019081526020016000205410156111cc57600080fd5b60006007600060038d6040516111e2919061294d565b908152602001604051809103902060009054906101000a900473ffffffffffffffffffffffffffffffffffffffff1673ffffffffffffffffffffffffffffffffffffffff1673ffffffffffffffffffffffffffffffffffffffff16815260200190815260200160002090506112578d8c610fc6565b6113bb576006600060038d60405161126f919061294d565b908152602001604051809103902060009054906101000a900473ffffffffffffffffffffffffffffffffffffffff1673ffffffffffffffffffffffffffffffffffffffff1673ffffffffffffffffffffffffffffffffffffffff1681526020019081526020016000208d90806001815401808255809150506001900390600052602060002001600090919091909150908161130a9190612c39565b506008600060038d60405161131f919061294d565b908152602001604051809103902060009054906101000a900473ffffffffffffffffffffffffffffffffffffffff1673ffffffffffffffffffffffffffffffffffffffff1673ffffffffffffffffffffffffffffffffffffffff1681526020019081526020016000208d604051611396919061294d565b908152602001604051809103902060008154809291906113b590612993565b91905055505b6000818e6040516113cc919061294d565b908152602001604051809103902090508d8160008573ffffffffffffffffffffffffffffffffffffffff1673ffffffffffffffffffffffffffffffffffffffff168152602001908152602001600020600001908161142a9190612c39565b508c8160008573ffffffffffffffffffffffffffffffffffffffff1673ffffffffffffffffffffffffffffffffffffffff16815260200190815260200160002060010190816114799190612c39565b508b8160008573ffffffffffffffffffffffffffffffffffffffff1673ffffffffffffffffffffffffffffffffffffffff16815260200190815260200160002060020190816114c89190612c39565b508a8160008573ffffffffffffffffffffffffffffffffffffffff1673ffffffffffffffffffffffffffffffffffffffff16815260200190815260200160002060070181905550898160008573ffffffffffffffffffffffffffffffffffffffff1673ffffffffffffffffffffffffffffffffffffffff16815260200190815260200160002060080181905550888160008573ffffffffffffffffffffffffffffffffffffffff1673ffffffffffffffffffffffffffffffffffffffff16815260200190815260200160002060090181905550878160008573ffffffffffffffffffffffffffffffffffffffff1673ffffffffffffffffffffffffffffffffffffffff16815260200190815260200160002060030181905550868160008573ffffffffffffffffffffffffffffffffffffffff1673ffffffffffffffffffffffffffffffffffffffff16815260200190815260200160002060060181905550858160008573ffffffffffffffffffffffffffffffffffffffff1673ffffffffffffffffffffffffffffffffffffffff16815260200190815260200160002060040181905550848160008573ffffffffffffffffffffffffffffffffffffffff1673ffffffffffffffffffffffffffffffffffffffff1681526020019081526020016000206005018190555060016009600060038f6040516116c9919061294d565b908152602001604051809103902060009054906101000a900473ffffffffffffffffffffffffffffffffffffffff1673ffffffffffffffffffffffffffffffffffffffff1673ffffffffffffffffffffffffffffffffffffffff16815260200190815260200160002060008282546117419190612d0b565b925050819055506001600960008573ffffffffffffffffffffffffffffffffffffffff1673ffffffffffffffffffffffffffffffffffffffff16815260200190815260200160002060008282546117989190612d3f565b925050819055506117aa836001610f15565b6000604051806080016040528060038f6040516117c7919061294d565b908152602001604051809103902060009054906101000a900473ffffffffffffffffffffffffffffffffffffffff1673ffffffffffffffffffffffffffffffffffffffff1681526020018573ffffffffffffffffffffffffffffffffffffffff16815260200160018152602001868152509050600581908060018154018082558091505060019003906000526020600020906004020160009091909190915060008201518160000160006101000a81548173ffffffffffffffffffffffffffffffffffffffff021916908373ffffffffffffffffffffffffffffffffffffffff16021790555060208201518160010160006101000a81548173ffffffffffffffffffffffffffffffffffffffff021916908373ffffffffffffffffffffffffffffffffffffffff16021790555060408201518160020155606082015181600301555050505050505050505050505050505050565b600047905090565b6000600260008573ffffffffffffffffffffffffffffffffffffffff1673ffffffffffffffffffffffffffffffffffffffff168152602001908152602001600020805461196f906128b1565b90501480156119e85750600073ffffffffffffffffffffffffffffffffffffffff166003836040516119a1919061294d565b908152602001604051809103902060009054906101000a900473ffffffffffffffffffffffffffffffffffffffff1673ffffffffffffffffffffffffffffffffffffffff16145b15611cb65760643410156119fb57600080fd5b600082908060018154018082558091505060019003906000526020600020016000909190919091509081611a2f9190612c39565b506001839080600181540180825580915050600190039060005260206000200160009091909190916101000a81548173ffffffffffffffffffffffffffffffffffffffff021916908373ffffffffffffffffffffffffffffffffffffffff16021790555082600383604051611aa4919061294d565b908152602001604051809103902060006101000a81548173ffffffffffffffffffffffffffffffffffffffff021916908373ffffffffffffffffffffffffffffffffffffffff16021790555081600260008573ffffffffffffffffffffffffffffffffffffffff1673ffffffffffffffffffffffffffffffffffffffff1681526020019081526020016000209081611b3c9190612c39565b5034600960008573ffffffffffffffffffffffffffffffffffffffff1673ffffffffffffffffffffffffffffffffffffffff1681526020019081526020016000206000828254611b8c9190612d3f565b92505081905550600060405180608001604052803373ffffffffffffffffffffffffffffffffffffffff1681526020013073ffffffffffffffffffffffffffffffffffffffff168152602001348152602001838152509050600581908060018154018082558091505060019003906000526020600020906004020160009091909190915060008201518160000160006101000a81548173ffffffffffffffffffffffffffffffffffffffff021916908373ffffffffffffffffffffffffffffffffffffffff16021790555060208201518160010160006101000a81548173ffffffffffffffffffffffffffffffffffffffff021916908373ffffffffffffffffffffffffffffffffffffffff16021790555060408201518160020155606082015181600301555050505b505050565b3460046000828254611ccd9190612d3f565b92505081905550565b60045481565b6003818051602081018201805184825260208301602085012081835280955050505050506000915054906101000a900473ffffffffffffffffffffffffffffffffffffffff1681565b604051806101400160405280606081526020016060815260200160608152602001600081526020016000815260200160008152602001600081526020016000815260200160008152602001600081525090565b6000604051905090565b600080fd5b600080fd5b6000819050919050565b611d9f81611d8c565b8114611daa57600080fd5b50565b600081359050611dbc81611d96565b92915050565b600060208284031215611dd857611dd7611d82565b5b6000611de684828501611dad565b91505092915050565b600081519050919050565b600082825260208201905092915050565b60005b83811015611e29578082015181840152602081019050611e0e565b60008484015250505050565b6000601f19601f8301169050919050565b6000611e5182611def565b611e5b8185611dfa565b9350611e6b818560208601611e0b565b611e7481611e35565b840191505092915050565b60006020820190508181036000830152611e998184611e46565b905092915050565b600073ffffffffffffffffffffffffffffffffffffffff82169050919050565b6000611ecc82611ea1565b9050919050565b611edc81611ec1565b82525050565b611eeb81611d8c565b82525050565b6000608082019050611f066000830187611ed3565b611f136020830186611ed3565b611f206040830185611ee2565b611f2d6060830184611ee2565b95945050505050565b611f3f81611ec1565b8114611f4a57600080fd5b50565b600081359050611f5c81611f36565b92915050565b600080fd5b600080fd5b7f4e487b7100000000000000000000000000000000000000000000000000000000600052604160045260246000fd5b611fa482611e35565b810181811067ffffffffffffffff82111715611fc357611fc2611f6c565b5b80604052505050565b6000611fd6611d78565b9050611fe28282611f9b565b919050565b600067ffffffffffffffff82111561200257612001611f6c565b5b61200b82611e35565b9050602081019050919050565b82818337600083830152505050565b600061203a61203584611fe7565b611fcc565b90508281526020810184848401111561205657612055611f67565b5b612061848285612018565b509392505050565b600082601f83011261207e5761207d611f62565b5b813561208e848260208601612027565b91505092915050565b6000806000606084860312156120b0576120af611d82565b5b60006120be86828701611f4d565b935050602084013567ffffffffffffffff8111156120df576120de611d87565b5b6120eb86828701612069565b92505060406120fc86828701611f4d565b9150509250925092565b6000610140820190508181036000830152612121818d611e46565b90508181036020830152612135818c611e46565b90508181036040830152612149818b611e46565b9050612158606083018a611ee2565b6121656080830189611ee2565b61217260a0830188611ee2565b61217f60c0830187611ee2565b61218c60e0830186611ee2565b61219a610100830185611ee2565b6121a8610120830184611ee2565b9b9a5050505050505050505050565b6000602082840312156121cd576121cc611d82565b5b60006121db84828501611f4d565b91505092915050565b60006020820190506121f96000830184611ee2565b92915050565b6000806040838503121561221657612215611d82565b5b600061222485828601611f4d565b925050602061223585828601611dad565b9150509250929050565b60006020820190506122546000830184611ed3565b92915050565b6000602082840312156122705761226f611d82565b5b600082013567ffffffffffffffff81111561228e5761228d611d87565b5b61229a84828501612069565b91505092915050565b600081519050919050565b600082825260208201905092915050565b6000819050602082019050919050565b600082825260208201905092915050565b60006122eb82611def565b6122f581856122cf565b9350612305818560208601611e0b565b61230e81611e35565b840191505092915050565b600061232583836122e0565b905092915050565b6000602082019050919050565b6000612345826122a3565b61234f81856122ae565b935083602082028501612361856122bf565b8060005b8581101561239d578484038952815161237e8582612319565b94506123898361232d565b925060208a01995050600181019050612365565b50829750879550505050505092915050565b600081519050919050565b600082825260208201905092915050565b6000819050602082019050919050565b6123e481611d8c565b82525050565b600061014083016000830151848203600086015261240882826122e0565b9150506020830151848203602086015261242282826122e0565b9150506040830151848203604086015261243c82826122e0565b915050606083015161245160608601826123db565b50608083015161246460808601826123db565b5060a083015161247760a08601826123db565b5060c083015161248a60c08601826123db565b5060e083015161249d60e08601826123db565b506101008301516124b26101008601826123db565b506101208301516124c76101208601826123db565b508091505092915050565b60006124de83836123ea565b905092915050565b6000602082019050919050565b60006124fe826123af565b61250881856123ba565b93508360208202850161251a856123cb565b8060005b85811015612556578484038952815161253785826124d2565b9450612542836124e6565b925060208a0199505060018101905061251e565b50829750879550505050505092915050565b60006040820190508181036000830152612582818561233a565b9050818103602083015261259681846124f3565b90509392505050565b60006125aa82611ea1565b9050919050565b6125ba8161259f565b81146125c557600080fd5b50565b6000813590506125d7816125b1565b92915050565b600080604083850312156125f4576125f3611d82565b5b6000612602858286016125c8565b925050602061261385828601611dad565b9150509250929050565b6000806040838503121561263457612633611d82565b5b600083013567ffffffffffffffff81111561265257612651611d87565b5b61265e85828601612069565b925050602083013567ffffffffffffffff81111561267f5761267e611d87565b5b61268b85828601612069565b9150509250929050565b60008115159050919050565b6126aa81612695565b82525050565b60006020820190506126c560008301846126a1565b92915050565b60008060008060008060008060008060006101608c8e0312156126f1576126f0611d82565b5b60008c013567ffffffffffffffff81111561270f5761270e611d87565b5b61271b8e828f01612069565b9b505060208c013567ffffffffffffffff81111561273c5761273b611d87565b5b6127488e828f01612069565b9a505060408c013567ffffffffffffffff81111561276957612768611d87565b5b6127758e828f01612069565b99505060606127868e828f01611dad565b98505060806127978e828f01611dad565b97505060a06127a88e828f01611dad565b96505060c06127b98e828f01611dad565b95505060e06127ca8e828f01611dad565b9450506101006127dc8e828f01611dad565b9350506101206127ee8e828f01611dad565b9250506101406128008e828f01611dad565b9150509295989b509295989b9093969950565b60008060006060848603121561282c5761282b611d82565b5b600061283a86828701611f4d565b935050602084013567ffffffffffffffff81111561285b5761285a611d87565b5b61286786828701612069565b925050604061287886828701611dad565b9150509250925092565b7f4e487b7100000000000000000000000000000000000000000000000000000000600052602260045260246000fd5b600060028204905060018216806128c957607f821691505b6020821081036128dc576128db612882565b5b50919050565b7f4e487b7100000000000000000000000000000000000000000000000000000000600052603260045260246000fd5b600081905092915050565b600061292782611def565b6129318185612911565b9350612941818560208601611e0b565b80840191505092915050565b6000612959828461291c565b915081905092915050565b7f4e487b7100000000000000000000000000000000000000000000000000000000600052601160045260246000fd5b600061299e82611d8c565b91507fffffffffffffffffffffffffffffffffffffffffffffffffffffffffffffffff82036129d0576129cf612964565b5b600182019050919050565b600081905092915050565b50565b60006129f66000836129db565b9150612a01826129e6565b600082019050919050565b6000612a17826129e9565b9150819050919050565b7f4661696c656420746f2073656e64204574686572000000000000000000000000600082015250565b6000612a57601483611dfa565b9150612a6282612a21565b602082019050919050565b60006020820190508181036000830152612a8681612a4a565b9050919050565b60008190508160005260206000209050919050565b60006020601f8301049050919050565b600082821b905092915050565b600060088302612aef7fffffffffffffffffffffffffffffffffffffffffffffffffffffffffffffffff82612ab2565b612af98683612ab2565b95508019841693508086168417925050509392505050565b6000819050919050565b6000612b36612b31612b2c84611d8c565b612b11565b611d8c565b9050919050565b6000819050919050565b612b5083612b1b565b612b64612b5c82612b3d565b848454612abf565b825550505050565b600090565b612b79612b6c565b612b84818484612b47565b505050565b5b81811015612ba857612b9d600082612b71565b600181019050612b8a565b5050565b601f821115612bed57612bbe81612a8d565b612bc784612aa2565b81016020851015612bd6578190505b612bea612be285612aa2565b830182612b89565b50505b505050565b600082821c905092915050565b6000612c1060001984600802612bf2565b1980831691505092915050565b6000612c298383612bff565b9150826002028217905092915050565b612c4282611def565b67ffffffffffffffff811115612c5b57612c5a611f6c565b5b612c6582546128b1565b612c70828285612bac565b600060209050601f831160018114612ca35760008415612c91578287015190505b612c9b8582612c1d565b865550612d03565b601f198416612cb186612a8d565b60005b82811015612cd957848901518255600182019150602085019450602081019050612cb4565b86831015612cf65784890151612cf2601f891682612bff565b8355505b6001600288020188555050505b505050505050565b6000612d1682611d8c565b9150612d2183611d8c565b9250828203905081811115612d3957612d38612964565b5b92915050565b6000612d4a82611d8c565b9150612d5583611d8c565b9250828201905080821115612d6d57612d6c612964565b5b9291505056fea26469706673582212206d3b3e5754d0bdfd650ece173f65b2c4da063ee685f8e457eab82b019d439d6464736f6c63430008110033","opcodes":"PUSH1 0x80 PUSH1 0x40 MSTORE CALLVALUE DUP1 ISZERO PUSH2 0x10 JUMPI PUSH1 0x0 DUP1 REVERT JUMPDEST POP PUSH2 0x2DA9 DUP1 PUSH2 0x20 PUSH1 0x0 CODECOPY PUSH1 0x0 RETURN INVALID PUSH1 0x80 PUSH1 0x40 MSTORE PUSH1 0x4 CALLDATASIZE LT PUSH2 0xF7 JUMPI PUSH1 0x0 CALLDATALOAD PUSH1 0xE0 SHR DUP1 PUSH4 0xA9059CBB GT PUSH2 0x8A JUMPI DUP1 PUSH4 0xBDC6AB03 GT PUSH2 0x59 JUMPI DUP1 PUSH4 0xBDC6AB03 EQ PUSH2 0x3C3 JUMPI DUP1 PUSH4 0xD0E30DB0 EQ PUSH2 0x3DF JUMPI DUP1 PUSH4 0xF6153CCD EQ PUSH2 0x3E9 JUMPI DUP1 PUSH4 0xFD70C7DD EQ PUSH2 0x414 JUMPI PUSH2 0x10F JUMP JUMPDEST DUP1 PUSH4 0xA9059CBB EQ PUSH2 0x309 JUMPI DUP1 PUSH4 0xAB6A9F17 EQ PUSH2 0x332 JUMPI DUP1 PUSH4 0xB205B4F6 EQ PUSH2 0x36F JUMPI DUP1 PUSH4 0xB69EF8A8 EQ PUSH2 0x398 JUMPI PUSH2 0x10F JUMP JUMPDEST DUP1 PUSH4 0x64AA65A8 GT PUSH2 0xC6 JUMPI DUP1 PUSH4 0x64AA65A8 EQ PUSH2 0x214 JUMPI DUP1 PUSH4 0x6E6061D1 EQ PUSH2 0x251 JUMPI DUP1 PUSH4 0x7792A035 EQ PUSH2 0x28E JUMPI DUP1 PUSH4 0xA8367070 EQ PUSH2 0x2CB JUMPI PUSH2 0x10F JUMP JUMPDEST DUP1 PUSH4 0xA02DCC7 EQ PUSH2 0x114 JUMPI DUP1 PUSH4 0xCB31A80 EQ PUSH2 0x151 JUMPI DUP1 PUSH4 0x32F97763 EQ PUSH2 0x191 JUMPI DUP1 PUSH4 0x529A1BAF EQ PUSH2 0x1D7 JUMPI PUSH2 0x10F JUMP JUMPDEST CALLDATASIZE PUSH2 0x10F JUMPI PUSH4 0x3B9ACA00 CALLVALUE LT ISZERO PUSH2 0x10D JUMPI PUSH1 0x0 DUP1 REVERT JUMPDEST STOP JUMPDEST PUSH1 0x0 DUP1 REVERT JUMPDEST CALLVALUE DUP1 ISZERO PUSH2 0x120 JUMPI PUSH1 0x0 DUP1 REVERT JUMPDEST POP PUSH2 0x13B PUSH1 0x4 DUP1 CALLDATASIZE SUB DUP2 ADD SWAP1 PUSH2 0x136 SWAP2 SWAP1 PUSH2 0x1DC2 JUMP JUMPDEST PUSH2 0x451 JUMP JUMPDEST PUSH1 0x40 MLOAD PUSH2 0x148 SWAP2 SWAP1 PUSH2 0x1E7F JUMP JUMPDEST PUSH1 0x40 MLOAD DUP1 SWAP2 SUB SWAP1 RETURN JUMPDEST CALLVALUE DUP1 ISZERO PUSH2 0x15D JUMPI PUSH1 0x0 DUP1 REVERT JUMPDEST POP PUSH2 0x178 PUSH1 0x4 DUP1 CALLDATASIZE SUB DUP2 ADD SWAP1 PUSH2 0x173 SWAP2 SWAP1 PUSH2 0x1DC2 JUMP JUMPDEST PUSH2 0x4FD JUMP JUMPDEST PUSH1 0x40 MLOAD PUSH2 0x188 SWAP5 SWAP4 SWAP3 SWAP2 SWAP1 PUSH2 0x1EF1 JUMP JUMPDEST PUSH1 0x40 MLOAD DUP1 SWAP2 SUB SWAP1 RETURN JUMPDEST CALLVALUE DUP1 ISZERO PUSH2 0x19D JUMPI PUSH1 0x0 DUP1 REVERT JUMPDEST POP PUSH2 0x1B8 PUSH1 0x4 DUP1 CALLDATASIZE SUB DUP2 ADD SWAP1 PUSH2 0x1B3 SWAP2 SWAP1 PUSH2 0x2097 JUMP JUMPDEST PUSH2 0x57D JUMP JUMPDEST PUSH1 0x40 MLOAD PUSH2 0x1CE SWAP11 SWAP10 SWAP9 SWAP8 SWAP7 SWAP6 SWAP5 SWAP4 SWAP3 SWAP2 SWAP1 PUSH2 0x2106 JUMP JUMPDEST PUSH1 0x40 MLOAD DUP1 SWAP2 SUB SWAP1 RETURN JUMPDEST CALLVALUE DUP1 ISZERO PUSH2 0x1E3 JUMPI PUSH1 0x0 DUP1 REVERT JUMPDEST POP PUSH2 0x1FE PUSH1 0x4 DUP1 CALLDATASIZE SUB DUP2 ADD SWAP1 PUSH2 0x1F9 SWAP2 SWAP1 PUSH2 0x21B7 JUMP JUMPDEST PUSH2 0x799 JUMP JUMPDEST PUSH1 0x40 MLOAD PUSH2 0x20B SWAP2 SWAP1 PUSH2 0x21E4 JUMP JUMPDEST PUSH1 0x40 MLOAD DUP1 SWAP2 SUB SWAP1 RETURN JUMPDEST CALLVALUE DUP1 ISZERO PUSH2 0x220 JUMPI PUSH1 0x0 DUP1 REVERT JUMPDEST POP PUSH2 0x23B PUSH1 0x4 DUP1 CALLDATASIZE SUB DUP2 ADD SWAP1 PUSH2 0x236 SWAP2 SWAP1 PUSH2 0x21B7 JUMP JUMPDEST PUSH2 0x7B1 JUMP JUMPDEST PUSH1 0x40 MLOAD PUSH2 0x248 SWAP2 SWAP1 PUSH2 0x1E7F JUMP JUMPDEST PUSH1 0x40 MLOAD DUP1 SWAP2 SUB SWAP1 RETURN JUMPDEST CALLVALUE DUP1 ISZERO PUSH2 0x25D JUMPI PUSH1 0x0 DUP1 REVERT JUMPDEST POP PUSH2 0x278 PUSH1 0x4 DUP1 CALLDATASIZE SUB DUP2 ADD SWAP1 PUSH2 0x273 SWAP2 SWAP1 PUSH2 0x21FF JUMP JUMPDEST PUSH2 0x851 JUMP JUMPDEST PUSH1 0x40 MLOAD PUSH2 0x285 SWAP2 SWAP1 PUSH2 0x1E7F JUMP JUMPDEST PUSH1 0x40 MLOAD DUP1 SWAP2 SUB SWAP1 RETURN JUMPDEST CALLVALUE DUP1 ISZERO PUSH2 0x29A JUMPI PUSH1 0x0 DUP1 REVERT JUMPDEST POP PUSH2 0x2B5 PUSH1 0x4 DUP1 CALLDATASIZE SUB DUP2 ADD SWAP1 PUSH2 0x2B0 SWAP2 SWAP1 PUSH2 0x1DC2 JUMP JUMPDEST PUSH2 0x90A JUMP JUMPDEST PUSH1 0x40 MLOAD PUSH2 0x2C2 SWAP2 SWAP1 PUSH2 0x223F JUMP JUMPDEST PUSH1 0x40 MLOAD DUP1 SWAP2 SUB SWAP1 RETURN JUMPDEST CALLVALUE DUP1 ISZERO PUSH2 0x2D7 JUMPI PUSH1 0x0 DUP1 REVERT JUMPDEST POP PUSH2 0x2F2 PUSH1 0x4 DUP1 CALLDATASIZE SUB DUP2 ADD SWAP1 PUSH2 0x2ED SWAP2 SWAP1 PUSH2 0x225A JUMP JUMPDEST PUSH2 0x949 JUMP JUMPDEST PUSH1 0x40 MLOAD PUSH2 0x300 SWAP3 SWAP2 SWAP1 PUSH2 0x2568 JUMP JUMPDEST PUSH1 0x40 MLOAD DUP1 SWAP2 SUB SWAP1 RETURN JUMPDEST CALLVALUE DUP1 ISZERO PUSH2 0x315 JUMPI PUSH1 0x0 DUP1 REVERT JUMPDEST POP PUSH2 0x330 PUSH1 0x4 DUP1 CALLDATASIZE SUB DUP2 ADD SWAP1 PUSH2 0x32B SWAP2 SWAP1 PUSH2 0x25DD JUMP JUMPDEST PUSH2 0xF15 JUMP JUMPDEST STOP JUMPDEST CALLVALUE DUP1 ISZERO PUSH2 0x33E JUMPI PUSH1 0x0 DUP1 REVERT JUMPDEST POP PUSH2 0x359 PUSH1 0x4 DUP1 CALLDATASIZE SUB DUP2 ADD SWAP1 PUSH2 0x354 SWAP2 SWAP1 PUSH2 0x261D JUMP JUMPDEST PUSH2 0xFC6 JUMP JUMPDEST PUSH1 0x40 MLOAD PUSH2 0x366 SWAP2 SWAP1 PUSH2 0x26B0 JUMP JUMPDEST PUSH1 0x40 MLOAD DUP1 SWAP2 SUB SWAP1 RETURN JUMPDEST CALLVALUE DUP1 ISZERO PUSH2 0x37B JUMPI PUSH1 0x0 DUP1 REVERT JUMPDEST POP PUSH2 0x396 PUSH1 0x4 DUP1 CALLDATASIZE SUB DUP2 ADD SWAP1 PUSH2 0x391 SWAP2 SWAP1 PUSH2 0x26CB JUMP JUMPDEST PUSH2 0x106D JUMP JUMPDEST STOP JUMPDEST CALLVALUE DUP1 ISZERO PUSH2 0x3A4 JUMPI PUSH1 0x0 DUP1 REVERT JUMPDEST POP PUSH2 0x3AD PUSH2 0x191B JUMP JUMPDEST PUSH1 0x40 MLOAD PUSH2 0x3BA SWAP2 SWAP1 PUSH2 0x21E4 JUMP JUMPDEST PUSH1 0x40 MLOAD DUP1 SWAP2 SUB SWAP1 RETURN JUMPDEST PUSH2 0x3DD PUSH1 0x4 DUP1 CALLDATASIZE SUB DUP2 ADD SWAP1 PUSH2 0x3D8 SWAP2 SWAP1 PUSH2 0x2813 JUMP JUMPDEST PUSH2 0x1923 JUMP JUMPDEST STOP JUMPDEST PUSH2 0x3E7 PUSH2 0x1CBB JUMP JUMPDEST STOP JUMPDEST CALLVALUE DUP1 ISZERO PUSH2 0x3F5 JUMPI PUSH1 0x0 DUP1 REVERT JUMPDEST POP PUSH2 0x3FE PUSH2 0x1CD6 JUMP JUMPDEST PUSH1 0x40 MLOAD PUSH2 0x40B SWAP2 SWAP1 PUSH2 0x21E4 JUMP JUMPDEST PUSH1 0x40 MLOAD DUP1 SWAP2 SUB SWAP1 RETURN JUMPDEST CALLVALUE DUP1 ISZERO PUSH2 0x420 JUMPI PUSH1 0x0 DUP1 REVERT JUMPDEST POP PUSH2 0x43B PUSH1 0x4 DUP1 CALLDATASIZE SUB DUP2 ADD SWAP1 PUSH2 0x436 SWAP2 SWAP1 PUSH2 0x225A JUMP JUMPDEST PUSH2 0x1CDC JUMP JUMPDEST PUSH1 0x40 MLOAD PUSH2 0x448 SWAP2 SWAP1 PUSH2 0x223F JUMP JUMPDEST PUSH1 0x40 MLOAD DUP1 SWAP2 SUB SWAP1 RETURN JUMPDEST PUSH1 0x0 DUP2 DUP2 SLOAD DUP2 LT PUSH2 0x461 JUMPI PUSH1 0x0 DUP1 REVERT JUMPDEST SWAP1 PUSH1 0x0 MSTORE PUSH1 0x20 PUSH1 0x0 KECCAK256 ADD PUSH1 0x0 SWAP2 POP SWAP1 POP DUP1 SLOAD PUSH2 0x47C SWAP1 PUSH2 0x28B1 JUMP JUMPDEST DUP1 PUSH1 0x1F ADD PUSH1 0x20 DUP1 SWAP2 DIV MUL PUSH1 0x20 ADD PUSH1 0x40 MLOAD SWAP1 DUP2 ADD PUSH1 0x40 MSTORE DUP1 SWAP3 SWAP2 SWAP1 DUP2 DUP2 MSTORE PUSH1 0x20 ADD DUP3 DUP1 SLOAD PUSH2 0x4A8 SWAP1 PUSH2 0x28B1 JUMP JUMPDEST DUP1 ISZERO PUSH2 0x4F5 JUMPI DUP1 PUSH1 0x1F LT PUSH2 0x4CA JUMPI PUSH2 0x100 DUP1 DUP4 SLOAD DIV MUL DUP4 MSTORE SWAP2 PUSH1 0x20 ADD SWAP2 PUSH2 0x4F5 JUMP JUMPDEST DUP3 ADD SWAP2 SWAP1 PUSH1 0x0 MSTORE PUSH1 0x20 PUSH1 0x0 KECCAK256 SWAP1 JUMPDEST DUP2 SLOAD DUP2 MSTORE SWAP1 PUSH1 0x1 ADD SWAP1 PUSH1 0x20 ADD DUP1 DUP4 GT PUSH2 0x4D8 JUMPI DUP3 SWAP1 SUB PUSH1 0x1F AND DUP3 ADD SWAP2 JUMPDEST POP POP POP POP POP DUP2 JUMP JUMPDEST PUSH1 0x5 DUP2 DUP2 SLOAD DUP2 LT PUSH2 0x50D JUMPI PUSH1 0x0 DUP1 REVERT JUMPDEST SWAP1 PUSH1 0x0 MSTORE PUSH1 0x20 PUSH1 0x0 KECCAK256 SWAP1 PUSH1 0x4 MUL ADD PUSH1 0x0 SWAP2 POP SWAP1 POP DUP1 PUSH1 0x0 ADD PUSH1 0x0 SWAP1 SLOAD SWAP1 PUSH2 0x100 EXP SWAP1 DIV PUSH20 0xFFFFFFFFFFFFFFFFFFFFFFFFFFFFFFFFFFFFFFFF AND SWAP1 DUP1 PUSH1 0x1 ADD PUSH1 0x0 SWAP1 SLOAD SWAP1 PUSH2 0x100 EXP SWAP1 DIV PUSH20 0xFFFFFFFFFFFFFFFFFFFFFFFFFFFFFFFFFFFFFFFF AND SWAP1 DUP1 PUSH1 0x2 ADD SLOAD SWAP1 DUP1 PUSH1 0x3 ADD SLOAD SWAP1 POP DUP5 JUMP JUMPDEST PUSH1 0x7 PUSH1 0x20 MSTORE DUP3 PUSH1 0x0 MSTORE PUSH1 0x40 PUSH1 0x0 KECCAK256 DUP3 DUP1 MLOAD PUSH1 0x20 DUP2 ADD DUP3 ADD DUP1 MLOAD DUP5 DUP3 MSTORE PUSH1 0x20 DUP4 ADD PUSH1 0x20 DUP6 ADD KECCAK256 DUP2 DUP4 MSTORE DUP1 SWAP6 POP POP POP POP POP POP PUSH1 0x20 MSTORE DUP1 PUSH1 0x0 MSTORE PUSH1 0x40 PUSH1 0x0 KECCAK256 PUSH1 0x0 SWAP3 POP SWAP3 POP POP POP DUP1 PUSH1 0x0 ADD DUP1 SLOAD PUSH2 0x5D0 SWAP1 PUSH2 0x28B1 JUMP JUMPDEST DUP1 PUSH1 0x1F ADD PUSH1 0x20 DUP1 SWAP2 DIV MUL PUSH1 0x20 ADD PUSH1 0x40 MLOAD SWAP1 DUP2 ADD PUSH1 0x40 MSTORE DUP1 SWAP3 SWAP2 SWAP1 DUP2 DUP2 MSTORE PUSH1 0x20 ADD DUP3 DUP1 SLOAD PUSH2 0x5FC SWAP1 PUSH2 0x28B1 JUMP JUMPDEST DUP1 ISZERO PUSH2 0x649 JUMPI DUP1 PUSH1 0x1F LT PUSH2 0x61E JUMPI PUSH2 0x100 DUP1 DUP4 SLOAD DIV MUL DUP4 MSTORE SWAP2 PUSH1 0x20 ADD SWAP2 PUSH2 0x649 JUMP JUMPDEST DUP3 ADD SWAP2 SWAP1 PUSH1 0x0 MSTORE PUSH1 0x20 PUSH1 0x0 KECCAK256 SWAP1 JUMPDEST DUP2 SLOAD DUP2 MSTORE SWAP1 PUSH1 0x1 ADD SWAP1 PUSH1 0x20 ADD DUP1 DUP4 GT PUSH2 0x62C JUMPI DUP3 SWAP1 SUB PUSH1 0x1F AND DUP3 ADD SWAP2 JUMPDEST POP POP POP POP POP SWAP1 DUP1 PUSH1 0x1 ADD DUP1 SLOAD PUSH2 0x65E SWAP1 PUSH2 0x28B1 JUMP JUMPDEST DUP1 PUSH1 0x1F ADD PUSH1 0x20 DUP1 SWAP2 DIV MUL PUSH1 0x20 ADD PUSH1 0x40 MLOAD SWAP1 DUP2 ADD PUSH1 0x40 MSTORE DUP1 SWAP3 SWAP2 SWAP1 DUP2 DUP2 MSTORE PUSH1 0x20 ADD DUP3 DUP1 SLOAD PUSH2 0x68A SWAP1 PUSH2 0x28B1 JUMP JUMPDEST DUP1 ISZERO PUSH2 0x6D7 JUMPI DUP1 PUSH1 0x1F LT PUSH2 0x6AC JUMPI PUSH2 0x100 DUP1 DUP4 SLOAD DIV MUL DUP4 MSTORE SWAP2 PUSH1 0x20 ADD SWAP2 PUSH2 0x6D7 JUMP JUMPDEST DUP3 ADD SWAP2 SWAP1 PUSH1 0x0 MSTORE PUSH1 0x20 PUSH1 0x0 KECCAK256 SWAP1 JUMPDEST DUP2 SLOAD DUP2 MSTORE SWAP1 PUSH1 0x1 ADD SWAP1 PUSH1 0x20 ADD DUP1 DUP4 GT PUSH2 0x6BA JUMPI DUP3 SWAP1 SUB PUSH1 0x1F AND DUP3 ADD SWAP2 JUMPDEST POP POP POP POP POP SWAP1 DUP1 PUSH1 0x2 ADD DUP1 SLOAD PUSH2 0x6EC SWAP1 PUSH2 0x28B1 JUMP JUMPDEST DUP1 PUSH1 0x1F ADD PUSH1 0x20 DUP1 SWAP2 DIV MUL PUSH1 0x20 ADD PUSH1 0x40 MLOAD SWAP1 DUP2 ADD PUSH1 0x40 MSTORE DUP1 SWAP3 SWAP2 SWAP1 DUP2 DUP2 MSTORE PUSH1 0x20 ADD DUP3 DUP1 SLOAD PUSH2 0x718 SWAP1 PUSH2 0x28B1 JUMP JUMPDEST DUP1 ISZERO PUSH2 0x765 JUMPI DUP1 PUSH1 0x1F LT PUSH2 0x73A JUMPI PUSH2 0x100 DUP1 DUP4 SLOAD DIV MUL DUP4 MSTORE SWAP2 PUSH1 0x20 ADD SWAP2 PUSH2 0x765 JUMP JUMPDEST DUP3 ADD SWAP2 SWAP1 PUSH1 0x0 MSTORE PUSH1 0x20 PUSH1 0x0 KECCAK256 SWAP1 JUMPDEST DUP2 SLOAD DUP2 MSTORE SWAP1 PUSH1 0x1 ADD SWAP1 PUSH1 0x20 ADD DUP1 DUP4 GT PUSH2 0x748 JUMPI DUP3 SWAP1 SUB PUSH1 0x1F AND DUP3 ADD SWAP2 JUMPDEST POP POP POP POP POP SWAP1 DUP1 PUSH1 0x3 ADD SLOAD SWAP1 DUP1 PUSH1 0x4 ADD SLOAD SWAP1 DUP1 PUSH1 0x5 ADD SLOAD SWAP1 DUP1 PUSH1 0x6 ADD SLOAD SWAP1 DUP1 PUSH1 0x7 ADD SLOAD SWAP1 DUP1 PUSH1 0x8 ADD SLOAD SWAP1 DUP1 PUSH1 0x9 ADD SLOAD SWAP1 POP DUP11 JUMP JUMPDEST PUSH1 0x9 PUSH1 0x20 MSTORE DUP1 PUSH1 0x0 MSTORE PUSH1 0x40 PUSH1 0x0 KECCAK256 PUSH1 0x0 SWAP2 POP SWAP1 POP SLOAD DUP2 JUMP JUMPDEST PUSH1 0x2 PUSH1 0x20 MSTORE DUP1 PUSH1 0x0 MSTORE PUSH1 0x40 PUSH1 0x0 KECCAK256 PUSH1 0x0 SWAP2 POP SWAP1 POP DUP1 SLOAD PUSH2 0x7D0 SWAP1 PUSH2 0x28B1 JUMP JUMPDEST DUP1 PUSH1 0x1F ADD PUSH1 0x20 DUP1 SWAP2 DIV MUL PUSH1 0x20 ADD PUSH1 0x40 MLOAD SWAP1 DUP2 ADD PUSH1 0x40 MSTORE DUP1 SWAP3 SWAP2 SWAP1 DUP2 DUP2 MSTORE PUSH1 0x20 ADD DUP3 DUP1 SLOAD PUSH2 0x7FC SWAP1 PUSH2 0x28B1 JUMP JUMPDEST DUP1 ISZERO PUSH2 0x849 JUMPI DUP1 PUSH1 0x1F LT PUSH2 0x81E JUMPI PUSH2 0x100 DUP1 DUP4 SLOAD DIV MUL DUP4 MSTORE SWAP2 PUSH1 0x20 ADD SWAP2 PUSH2 0x849 JUMP JUMPDEST DUP3 ADD SWAP2 SWAP1 PUSH1 0x0 MSTORE PUSH1 0x20 PUSH1 0x0 KECCAK256 SWAP1 JUMPDEST DUP2 SLOAD DUP2 MSTORE SWAP1 PUSH1 0x1 ADD SWAP1 PUSH1 0x20 ADD DUP1 DUP4 GT PUSH2 0x82C JUMPI DUP3 SWAP1 SUB PUSH1 0x1F AND DUP3 ADD SWAP2 JUMPDEST POP POP POP POP POP DUP2 JUMP JUMPDEST PUSH1 0x6 PUSH1 0x20 MSTORE DUP2 PUSH1 0x0 MSTORE PUSH1 0x40 PUSH1 0x0 KECCAK256 DUP2 DUP2 SLOAD DUP2 LT PUSH2 0x86D JUMPI PUSH1 0x0 DUP1 REVERT JUMPDEST SWAP1 PUSH1 0x0 MSTORE PUSH1 0x20 PUSH1 0x0 KECCAK256 ADD PUSH1 0x0 SWAP2 POP SWAP2 POP POP DUP1 SLOAD PUSH2 0x889 SWAP1 PUSH2 0x28B1 JUMP JUMPDEST DUP1 PUSH1 0x1F ADD PUSH1 0x20 DUP1 SWAP2 DIV MUL PUSH1 0x20 ADD PUSH1 0x40 MLOAD SWAP1 DUP2 ADD PUSH1 0x40 MSTORE DUP1 SWAP3 SWAP2 SWAP1 DUP2 DUP2 MSTORE PUSH1 0x20 ADD DUP3 DUP1 SLOAD PUSH2 0x8B5 SWAP1 PUSH2 0x28B1 JUMP JUMPDEST DUP1 ISZERO PUSH2 0x902 JUMPI DUP1 PUSH1 0x1F LT PUSH2 0x8D7 JUMPI PUSH2 0x100 DUP1 DUP4 SLOAD DIV MUL DUP4 MSTORE SWAP2 PUSH1 0x20 ADD SWAP2 PUSH2 0x902 JUMP JUMPDEST DUP3 ADD SWAP2 SWAP1 PUSH1 0x0 MSTORE PUSH1 0x20 PUSH1 0x0 KECCAK256 SWAP1 JUMPDEST DUP2 SLOAD DUP2 MSTORE SWAP1 PUSH1 0x1 ADD SWAP1 PUSH1 0x20 ADD DUP1 DUP4 GT PUSH2 0x8E5 JUMPI DUP3 SWAP1 SUB PUSH1 0x1F AND DUP3 ADD SWAP2 JUMPDEST POP POP POP POP POP DUP2 JUMP JUMPDEST PUSH1 0x1 DUP2 DUP2 SLOAD DUP2 LT PUSH2 0x91A JUMPI PUSH1 0x0 DUP1 REVERT JUMPDEST SWAP1 PUSH1 0x0 MSTORE PUSH1 0x20 PUSH1 0x0 KECCAK256 ADD PUSH1 0x0 SWAP2 POP SLOAD SWAP1 PUSH2 0x100 EXP SWAP1 DIV PUSH20 0xFFFFFFFFFFFFFFFFFFFFFFFFFFFFFFFFFFFFFFFF AND DUP2 JUMP JUMPDEST PUSH1 0x60 DUP1 PUSH1 0x0 CALLER SWAP1 POP PUSH1 0x0 PUSH1 0x6 PUSH1 0x0 DUP4 PUSH20 0xFFFFFFFFFFFFFFFFFFFFFFFFFFFFFFFFFFFFFFFF AND PUSH20 0xFFFFFFFFFFFFFFFFFFFFFFFFFFFFFFFFFFFFFFFF AND DUP2 MSTORE PUSH1 0x20 ADD SWAP1 DUP2 MSTORE PUSH1 0x20 ADD PUSH1 0x0 KECCAK256 SWAP1 POP PUSH1 0x0 PUSH1 0x6 PUSH1 0x0 DUP5 PUSH20 0xFFFFFFFFFFFFFFFFFFFFFFFFFFFFFFFFFFFFFFFF AND PUSH20 0xFFFFFFFFFFFFFFFFFFFFFFFFFFFFFFFFFFFFFFFF AND DUP2 MSTORE PUSH1 0x20 ADD SWAP1 DUP2 MSTORE PUSH1 0x20 ADD PUSH1 0x0 KECCAK256 DUP1 SLOAD SWAP1 POP PUSH8 0xFFFFFFFFFFFFFFFF DUP2 GT ISZERO PUSH2 0x9F2 JUMPI PUSH2 0x9F1 PUSH2 0x1F6C JUMP JUMPDEST JUMPDEST PUSH1 0x40 MLOAD SWAP1 DUP1 DUP3 MSTORE DUP1 PUSH1 0x20 MUL PUSH1 0x20 ADD DUP3 ADD PUSH1 0x40 MSTORE DUP1 ISZERO PUSH2 0xA2B JUMPI DUP2 PUSH1 0x20 ADD JUMPDEST PUSH2 0xA18 PUSH2 0x1D25 JUMP JUMPDEST DUP2 MSTORE PUSH1 0x20 ADD SWAP1 PUSH1 0x1 SWAP1 SUB SWAP1 DUP2 PUSH2 0xA10 JUMPI SWAP1 POP JUMPDEST POP SWAP1 POP PUSH1 0x0 JUMPDEST DUP3 DUP1 SLOAD SWAP1 POP DUP2 LT ISZERO PUSH2 0xDF5 JUMPI PUSH1 0x0 DUP4 DUP3 DUP2 SLOAD DUP2 LT PUSH2 0xA52 JUMPI PUSH2 0xA51 PUSH2 0x28E2 JUMP JUMPDEST JUMPDEST SWAP1 PUSH1 0x0 MSTORE PUSH1 0x20 PUSH1 0x0 KECCAK256 ADD DUP1 SLOAD PUSH2 0xA67 SWAP1 PUSH2 0x28B1 JUMP JUMPDEST DUP1 PUSH1 0x1F ADD PUSH1 0x20 DUP1 SWAP2 DIV MUL PUSH1 0x20 ADD PUSH1 0x40 MLOAD SWAP1 DUP2 ADD PUSH1 0x40 MSTORE DUP1 SWAP3 SWAP2 SWAP1 DUP2 DUP2 MSTORE PUSH1 0x20 ADD DUP3 DUP1 SLOAD PUSH2 0xA93 SWAP1 PUSH2 0x28B1 JUMP JUMPDEST DUP1 ISZERO PUSH2 0xAE0 JUMPI DUP1 PUSH1 0x1F LT PUSH2 0xAB5 JUMPI PUSH2 0x100 DUP1 DUP4 SLOAD DIV MUL DUP4 MSTORE SWAP2 PUSH1 0x20 ADD SWAP2 PUSH2 0xAE0 JUMP JUMPDEST DUP3 ADD SWAP2 SWAP1 PUSH1 0x0 MSTORE PUSH1 0x20 PUSH1 0x0 KECCAK256 SWAP1 JUMPDEST DUP2 SLOAD DUP2 MSTORE SWAP1 PUSH1 0x1 ADD SWAP1 PUSH1 0x20 ADD DUP1 DUP4 GT PUSH2 0xAC3 JUMPI DUP3 SWAP1 SUB PUSH1 0x1F AND DUP3 ADD SWAP2 JUMPDEST POP POP POP POP POP SWAP1 POP PUSH1 0x7 PUSH1 0x0 DUP7 PUSH20 0xFFFFFFFFFFFFFFFFFFFFFFFFFFFFFFFFFFFFFFFF AND PUSH20 0xFFFFFFFFFFFFFFFFFFFFFFFFFFFFFFFFFFFFFFFF AND DUP2 MSTORE PUSH1 0x20 ADD SWAP1 DUP2 MSTORE PUSH1 0x20 ADD PUSH1 0x0 KECCAK256 DUP2 PUSH1 0x40 MLOAD PUSH2 0xB34 SWAP2 SWAP1 PUSH2 0x294D JUMP JUMPDEST SWAP1 DUP2 MSTORE PUSH1 0x20 ADD PUSH1 0x40 MLOAD DUP1 SWAP2 SUB SWAP1 KECCAK256 PUSH1 0x0 PUSH1 0x3 DUP11 PUSH1 0x40 MLOAD PUSH2 0xB54 SWAP2 SWAP1 PUSH2 0x294D JUMP JUMPDEST SWAP1 DUP2 MSTORE PUSH1 0x20 ADD PUSH1 0x40 MLOAD DUP1 SWAP2 SUB SWAP1 KECCAK256 PUSH1 0x0 SWAP1 SLOAD SWAP1 PUSH2 0x100 EXP SWAP1 DIV PUSH20 0xFFFFFFFFFFFFFFFFFFFFFFFFFFFFFFFFFFFFFFFF AND PUSH20 0xFFFFFFFFFFFFFFFFFFFFFFFFFFFFFFFFFFFFFFFF AND PUSH20 0xFFFFFFFFFFFFFFFFFFFFFFFFFFFFFFFFFFFFFFFF AND DUP2 MSTORE PUSH1 0x20 ADD SWAP1 DUP2 MSTORE PUSH1 0x20 ADD PUSH1 0x0 KECCAK256 PUSH1 0x40 MLOAD DUP1 PUSH2 0x140 ADD PUSH1 0x40 MSTORE SWAP1 DUP2 PUSH1 0x0 DUP3 ADD DUP1 SLOAD PUSH2 0xBD9 SWAP1 PUSH2 0x28B1 JUMP JUMPDEST DUP1 PUSH1 0x1F ADD PUSH1 0x20 DUP1 SWAP2 DIV MUL PUSH1 0x20 ADD PUSH1 0x40 MLOAD SWAP1 DUP2 ADD PUSH1 0x40 MSTORE DUP1 SWAP3 SWAP2 SWAP1 DUP2 DUP2 MSTORE PUSH1 0x20 ADD DUP3 DUP1 SLOAD PUSH2 0xC05 SWAP1 PUSH2 0x28B1 JUMP JUMPDEST DUP1 ISZERO PUSH2 0xC52 JUMPI DUP1 PUSH1 0x1F LT PUSH2 0xC27 JUMPI PUSH2 0x100 DUP1 DUP4 SLOAD DIV MUL DUP4 MSTORE SWAP2 PUSH1 0x20 ADD SWAP2 PUSH2 0xC52 JUMP JUMPDEST DUP3 ADD SWAP2 SWAP1 PUSH1 0x0 MSTORE PUSH1 0x20 PUSH1 0x0 KECCAK256 SWAP1 JUMPDEST DUP2 SLOAD DUP2 MSTORE SWAP1 PUSH1 0x1 ADD SWAP1 PUSH1 0x20 ADD DUP1 DUP4 GT PUSH2 0xC35 JUMPI DUP3 SWAP1 SUB PUSH1 0x1F AND DUP3 ADD SWAP2 JUMPDEST POP POP POP POP POP DUP2 MSTORE PUSH1 0x20 ADD PUSH1 0x1 DUP3 ADD DUP1 SLOAD PUSH2 0xC6B SWAP1 PUSH2 0x28B1 JUMP JUMPDEST DUP1 PUSH1 0x1F ADD PUSH1 0x20 DUP1 SWAP2 DIV MUL PUSH1 0x20 ADD PUSH1 0x40 MLOAD SWAP1 DUP2 ADD PUSH1 0x40 MSTORE DUP1 SWAP3 SWAP2 SWAP1 DUP2 DUP2 MSTORE PUSH1 0x20 ADD DUP3 DUP1 SLOAD PUSH2 0xC97 SWAP1 PUSH2 0x28B1 JUMP JUMPDEST DUP1 ISZERO PUSH2 0xCE4 JUMPI DUP1 PUSH1 0x1F LT PUSH2 0xCB9 JUMPI PUSH2 0x100 DUP1 DUP4 SLOAD DIV MUL DUP4 MSTORE SWAP2 PUSH1 0x20 ADD SWAP2 PUSH2 0xCE4 JUMP JUMPDEST DUP3 ADD SWAP2 SWAP1 PUSH1 0x0 MSTORE PUSH1 0x20 PUSH1 0x0 KECCAK256 SWAP1 JUMPDEST DUP2 SLOAD DUP2 MSTORE SWAP1 PUSH1 0x1 ADD SWAP1 PUSH1 0x20 ADD DUP1 DUP4 GT PUSH2 0xCC7 JUMPI DUP3 SWAP1 SUB PUSH1 0x1F AND DUP3 ADD SWAP2 JUMPDEST POP POP POP POP POP DUP2 MSTORE PUSH1 0x20 ADD PUSH1 0x2 DUP3 ADD DUP1 SLOAD PUSH2 0xCFD SWAP1 PUSH2 0x28B1 JUMP JUMPDEST DUP1 PUSH1 0x1F ADD PUSH1 0x20 DUP1 SWAP2 DIV MUL PUSH1 0x20 ADD PUSH1 0x40 MLOAD SWAP1 DUP2 ADD PUSH1 0x40 MSTORE DUP1 SWAP3 SWAP2 SWAP1 DUP2 DUP2 MSTORE PUSH1 0x20 ADD DUP3 DUP1 SLOAD PUSH2 0xD29 SWAP1 PUSH2 0x28B1 JUMP JUMPDEST DUP1 ISZERO PUSH2 0xD76 JUMPI DUP1 PUSH1 0x1F LT PUSH2 0xD4B JUMPI PUSH2 0x100 DUP1 DUP4 SLOAD DIV MUL DUP4 MSTORE SWAP2 PUSH1 0x20 ADD SWAP2 PUSH2 0xD76 JUMP JUMPDEST DUP3 ADD SWAP2 SWAP1 PUSH1 0x0 MSTORE PUSH1 0x20 PUSH1 0x0 KECCAK256 SWAP1 JUMPDEST DUP2 SLOAD DUP2 MSTORE SWAP1 PUSH1 0x1 ADD SWAP1 PUSH1 0x20 ADD DUP1 DUP4 GT PUSH2 0xD59 JUMPI DUP3 SWAP1 SUB PUSH1 0x1F AND DUP3 ADD SWAP2 JUMPDEST POP POP POP POP POP DUP2 MSTORE PUSH1 0x20 ADD PUSH1 0x3 DUP3 ADD SLOAD DUP2 MSTORE PUSH1 0x20 ADD PUSH1 0x4 DUP3 ADD SLOAD DUP2 MSTORE PUSH1 0x20 ADD PUSH1 0x5 DUP3 ADD SLOAD DUP2 MSTORE PUSH1 0x20 ADD PUSH1 0x6 DUP3 ADD SLOAD DUP2 MSTORE PUSH1 0x20 ADD PUSH1 0x7 DUP3 ADD SLOAD DUP2 MSTORE PUSH1 0x20 ADD PUSH1 0x8 DUP3 ADD SLOAD DUP2 MSTORE PUSH1 0x20 ADD PUSH1 0x9 DUP3 ADD SLOAD DUP2 MSTORE POP POP DUP4 DUP4 DUP2 MLOAD DUP2 LT PUSH2 0xDD8 JUMPI PUSH2 0xDD7 PUSH2 0x28E2 JUMP JUMPDEST JUMPDEST PUSH1 0x20 MUL PUSH1 0x20 ADD ADD DUP2 SWAP1 MSTORE POP POP DUP1 PUSH2 0xDEE SWAP1 PUSH2 0x2993 JUMP JUMPDEST SWAP1 POP PUSH2 0xA31 JUMP JUMPDEST POP PUSH1 0x6 PUSH1 0x0 DUP5 PUSH20 0xFFFFFFFFFFFFFFFFFFFFFFFFFFFFFFFFFFFFFFFF AND PUSH20 0xFFFFFFFFFFFFFFFFFFFFFFFFFFFFFFFFFFFFFFFF AND DUP2 MSTORE PUSH1 0x20 ADD SWAP1 DUP2 MSTORE PUSH1 0x20 ADD PUSH1 0x0 KECCAK256 DUP2 DUP2 DUP1 SLOAD DUP1 PUSH1 0x20 MUL PUSH1 0x20 ADD PUSH1 0x40 MLOAD SWAP1 DUP2 ADD PUSH1 0x40 MSTORE DUP1 SWAP3 SWAP2 SWAP1 DUP2 DUP2 MSTORE PUSH1 0x20 ADD PUSH1 0x0 SWAP1 JUMPDEST DUP3 DUP3 LT ISZERO PUSH2 0xF03 JUMPI DUP4 DUP3 SWAP1 PUSH1 0x0 MSTORE PUSH1 0x20 PUSH1 0x0 KECCAK256 ADD DUP1 SLOAD PUSH2 0xE76 SWAP1 PUSH2 0x28B1 JUMP JUMPDEST DUP1 PUSH1 0x1F ADD PUSH1 0x20 DUP1 SWAP2 DIV MUL PUSH1 0x20 ADD PUSH1 0x40 MLOAD SWAP1 DUP2 ADD PUSH1 0x40 MSTORE DUP1 SWAP3 SWAP2 SWAP1 DUP2 DUP2 MSTORE PUSH1 0x20 ADD DUP3 DUP1 SLOAD PUSH2 0xEA2 SWAP1 PUSH2 0x28B1 JUMP JUMPDEST DUP1 ISZERO PUSH2 0xEEF JUMPI DUP1 PUSH1 0x1F LT PUSH2 0xEC4 JUMPI PUSH2 0x100 DUP1 DUP4 SLOAD DIV MUL DUP4 MSTORE SWAP2 PUSH1 0x20 ADD SWAP2 PUSH2 0xEEF JUMP JUMPDEST DUP3 ADD SWAP2 SWAP1 PUSH1 0x0 MSTORE PUSH1 0x20 PUSH1 0x0 KECCAK256 SWAP1 JUMPDEST DUP2 SLOAD DUP2 MSTORE SWAP1 PUSH1 0x1 ADD SWAP1 PUSH1 0x20 ADD DUP1 DUP4 GT PUSH2 0xED2 JUMPI DUP3 SWAP1 SUB PUSH1 0x1F AND DUP3 ADD SWAP2 JUMPDEST POP POP POP POP POP DUP2 MSTORE PUSH1 0x20 ADD SWAP1 PUSH1 0x1 ADD SWAP1 PUSH2 0xE57 JUMP JUMPDEST POP POP POP POP SWAP2 POP SWAP5 POP SWAP5 POP POP POP POP SWAP2 POP SWAP2 JUMP JUMPDEST PUSH1 0x0 DUP3 PUSH20 0xFFFFFFFFFFFFFFFFFFFFFFFFFFFFFFFFFFFFFFFF AND DUP3 PUSH1 0x40 MLOAD PUSH2 0xF3B SWAP1 PUSH2 0x2A0C JUMP JUMPDEST PUSH1 0x0 PUSH1 0x40 MLOAD DUP1 DUP4 SUB DUP2 DUP6 DUP8 GAS CALL SWAP3 POP POP POP RETURNDATASIZE DUP1 PUSH1 0x0 DUP2 EQ PUSH2 0xF78 JUMPI PUSH1 0x40 MLOAD SWAP2 POP PUSH1 0x1F NOT PUSH1 0x3F RETURNDATASIZE ADD AND DUP3 ADD PUSH1 0x40 MSTORE RETURNDATASIZE DUP3 MSTORE RETURNDATASIZE PUSH1 0x0 PUSH1 0x20 DUP5 ADD RETURNDATACOPY PUSH2 0xF7D JUMP JUMPDEST PUSH1 0x60 SWAP2 POP JUMPDEST POP POP SWAP1 POP DUP1 PUSH2 0xFC1 JUMPI PUSH1 0x40 MLOAD PUSH32 0x8C379A000000000000000000000000000000000000000000000000000000000 DUP2 MSTORE PUSH1 0x4 ADD PUSH2 0xFB8 SWAP1 PUSH2 0x2A6D JUMP JUMPDEST PUSH1 0x40 MLOAD DUP1 SWAP2 SUB SWAP1 REVERT JUMPDEST POP POP POP JUMP JUMPDEST PUSH1 0x0 DUP1 PUSH1 0x8 PUSH1 0x0 PUSH1 0x3 DUP6 PUSH1 0x40 MLOAD PUSH2 0xFDD SWAP2 SWAP1 PUSH2 0x294D JUMP JUMPDEST SWAP1 DUP2 MSTORE PUSH1 0x20 ADD PUSH1 0x40 MLOAD DUP1 SWAP2 SUB SWAP1 KECCAK256 PUSH1 0x0 SWAP1 SLOAD SWAP1 PUSH2 0x100 EXP SWAP1 DIV PUSH20 0xFFFFFFFFFFFFFFFFFFFFFFFFFFFFFFFFFFFFFFFF AND PUSH20 0xFFFFFFFFFFFFFFFFFFFFFFFFFFFFFFFFFFFFFFFF AND PUSH20 0xFFFFFFFFFFFFFFFFFFFFFFFFFFFFFFFFFFFFFFFF AND DUP2 MSTORE PUSH1 0x20 ADD SWAP1 DUP2 MSTORE PUSH1 0x20 ADD PUSH1 0x0 KECCAK256 DUP5 PUSH1 0x40 MLOAD PUSH2 0x1054 SWAP2 SWAP1 PUSH2 0x294D JUMP JUMPDEST SWAP1 DUP2 MSTORE PUSH1 0x20 ADD PUSH1 0x40 MLOAD DUP1 SWAP2 SUB SWAP1 KECCAK256 SLOAD EQ ISZERO SWAP1 POP SWAP3 SWAP2 POP POP JUMP JUMPDEST PUSH1 0x0 CALLER SWAP1 POP PUSH1 0x0 PUSH1 0x2 PUSH1 0x0 DUP4 PUSH20 0xFFFFFFFFFFFFFFFFFFFFFFFFFFFFFFFFFFFFFFFF AND PUSH20 0xFFFFFFFFFFFFFFFFFFFFFFFFFFFFFFFFFFFFFFFF AND DUP2 MSTORE PUSH1 0x20 ADD SWAP1 DUP2 MSTORE PUSH1 0x20 ADD PUSH1 0x0 KECCAK256 DUP1 SLOAD PUSH2 0x10BE SWAP1 PUSH2 0x28B1 JUMP JUMPDEST SWAP1 POP SUB PUSH2 0x10CA JUMPI PUSH1 0x0 DUP1 REVERT JUMPDEST PUSH1 0x0 PUSH20 0xFFFFFFFFFFFFFFFFFFFFFFFFFFFFFFFFFFFFFFFF AND PUSH1 0x3 DUP12 PUSH1 0x40 MLOAD PUSH2 0x10F2 SWAP2 SWAP1 PUSH2 0x294D JUMP JUMPDEST SWAP1 DUP2 MSTORE PUSH1 0x20 ADD PUSH1 0x40 MLOAD DUP1 SWAP2 SUB SWAP1 KECCAK256 PUSH1 0x0 SWAP1 SLOAD SWAP1 PUSH2 0x100 EXP SWAP1 DIV PUSH20 0xFFFFFFFFFFFFFFFFFFFFFFFFFFFFFFFFFFFFFFFF AND PUSH20 0xFFFFFFFFFFFFFFFFFFFFFFFFFFFFFFFFFFFFFFFF AND SUB PUSH2 0x1141 JUMPI PUSH1 0x0 DUP1 REVERT JUMPDEST PUSH1 0x1 PUSH1 0x9 PUSH1 0x0 PUSH1 0x3 DUP14 PUSH1 0x40 MLOAD PUSH2 0x1157 SWAP2 SWAP1 PUSH2 0x294D JUMP JUMPDEST SWAP1 DUP2 MSTORE PUSH1 0x20 ADD PUSH1 0x40 MLOAD DUP1 SWAP2 SUB SWAP1 KECCAK256 PUSH1 0x0 SWAP1 SLOAD SWAP1 PUSH2 0x100 EXP SWAP1 DIV PUSH20 0xFFFFFFFFFFFFFFFFFFFFFFFFFFFFFFFFFFFFFFFF AND PUSH20 0xFFFFFFFFFFFFFFFFFFFFFFFFFFFFFFFFFFFFFFFF AND PUSH20 0xFFFFFFFFFFFFFFFFFFFFFFFFFFFFFFFFFFFFFFFF AND DUP2 MSTORE PUSH1 0x20 ADD SWAP1 DUP2 MSTORE PUSH1 0x20 ADD PUSH1 0x0 KECCAK256 SLOAD LT ISZERO PUSH2 0x11CC JUMPI PUSH1 0x0 DUP1 REVERT JUMPDEST PUSH1 0x0 PUSH1 0x7 PUSH1 0x0 PUSH1 0x3 DUP14 PUSH1 0x40 MLOAD PUSH2 0x11E2 SWAP2 SWAP1 PUSH2 0x294D JUMP JUMPDEST SWAP1 DUP2 MSTORE PUSH1 0x20 ADD PUSH1 0x40 MLOAD DUP1 SWAP2 SUB SWAP1 KECCAK256 PUSH1 0x0 SWAP1 SLOAD SWAP1 PUSH2 0x100 EXP SWAP1 DIV PUSH20 0xFFFFFFFFFFFFFFFFFFFFFFFFFFFFFFFFFFFFFFFF AND PUSH20 0xFFFFFFFFFFFFFFFFFFFFFFFFFFFFFFFFFFFFFFFF AND PUSH20 0xFFFFFFFFFFFFFFFFFFFFFFFFFFFFFFFFFFFFFFFF AND DUP2 MSTORE PUSH1 0x20 ADD SWAP1 DUP2 MSTORE PUSH1 0x20 ADD PUSH1 0x0 KECCAK256 SWAP1 POP PUSH2 0x1257 DUP14 DUP13 PUSH2 0xFC6 JUMP JUMPDEST PUSH2 0x13BB JUMPI PUSH1 0x6 PUSH1 0x0 PUSH1 0x3 DUP14 PUSH1 0x40 MLOAD PUSH2 0x126F SWAP2 SWAP1 PUSH2 0x294D JUMP JUMPDEST SWAP1 DUP2 MSTORE PUSH1 0x20 ADD PUSH1 0x40 MLOAD DUP1 SWAP2 SUB SWAP1 KECCAK256 PUSH1 0x0 SWAP1 SLOAD SWAP1 PUSH2 0x100 EXP SWAP1 DIV PUSH20 0xFFFFFFFFFFFFFFFFFFFFFFFFFFFFFFFFFFFFFFFF AND PUSH20 0xFFFFFFFFFFFFFFFFFFFFFFFFFFFFFFFFFFFFFFFF AND PUSH20 0xFFFFFFFFFFFFFFFFFFFFFFFFFFFFFFFFFFFFFFFF AND DUP2 MSTORE PUSH1 0x20 ADD SWAP1 DUP2 MSTORE PUSH1 0x20 ADD PUSH1 0x0 KECCAK256 DUP14 SWAP1 DUP1 PUSH1 0x1 DUP2 SLOAD ADD DUP1 DUP3 SSTORE DUP1 SWAP2 POP POP PUSH1 0x1 SWAP1 SUB SWAP1 PUSH1 0x0 MSTORE PUSH1 0x20 PUSH1 0x0 KECCAK256 ADD PUSH1 0x0 SWAP1 SWAP2 SWAP1 SWAP2 SWAP1 SWAP2 POP SWAP1 DUP2 PUSH2 0x130A SWAP2 SWAP1 PUSH2 0x2C39 JUMP JUMPDEST POP PUSH1 0x8 PUSH1 0x0 PUSH1 0x3 DUP14 PUSH1 0x40 MLOAD PUSH2 0x131F SWAP2 SWAP1 PUSH2 0x294D JUMP JUMPDEST SWAP1 DUP2 MSTORE PUSH1 0x20 ADD PUSH1 0x40 MLOAD DUP1 SWAP2 SUB SWAP1 KECCAK256 PUSH1 0x0 SWAP1 SLOAD SWAP1 PUSH2 0x100 EXP SWAP1 DIV PUSH20 0xFFFFFFFFFFFFFFFFFFFFFFFFFFFFFFFFFFFFFFFF AND PUSH20 0xFFFFFFFFFFFFFFFFFFFFFFFFFFFFFFFFFFFFFFFF AND PUSH20 0xFFFFFFFFFFFFFFFFFFFFFFFFFFFFFFFFFFFFFFFF AND DUP2 MSTORE PUSH1 0x20 ADD SWAP1 DUP2 MSTORE PUSH1 0x20 ADD PUSH1 0x0 KECCAK256 DUP14 PUSH1 0x40 MLOAD PUSH2 0x1396 SWAP2 SWAP1 PUSH2 0x294D JUMP JUMPDEST SWAP1 DUP2 MSTORE PUSH1 0x20 ADD PUSH1 0x40 MLOAD DUP1 SWAP2 SUB SWAP1 KECCAK256 PUSH1 0x0 DUP2 SLOAD DUP1 SWAP3 SWAP2 SWAP1 PUSH2 0x13B5 SWAP1 PUSH2 0x2993 JUMP JUMPDEST SWAP2 SWAP1 POP SSTORE POP JUMPDEST PUSH1 0x0 DUP2 DUP15 PUSH1 0x40 MLOAD PUSH2 0x13CC SWAP2 SWAP1 PUSH2 0x294D JUMP JUMPDEST SWAP1 DUP2 MSTORE PUSH1 0x20 ADD PUSH1 0x40 MLOAD DUP1 SWAP2 SUB SWAP1 KECCAK256 SWAP1 POP DUP14 DUP2 PUSH1 0x0 DUP6 PUSH20 0xFFFFFFFFFFFFFFFFFFFFFFFFFFFFFFFFFFFFFFFF AND PUSH20 0xFFFFFFFFFFFFFFFFFFFFFFFFFFFFFFFFFFFFFFFF AND DUP2 MSTORE PUSH1 0x20 ADD SWAP1 DUP2 MSTORE PUSH1 0x20 ADD PUSH1 0x0 KECCAK256 PUSH1 0x0 ADD SWAP1 DUP2 PUSH2 0x142A SWAP2 SWAP1 PUSH2 0x2C39 JUMP JUMPDEST POP DUP13 DUP2 PUSH1 0x0 DUP6 PUSH20 0xFFFFFFFFFFFFFFFFFFFFFFFFFFFFFFFFFFFFFFFF AND PUSH20 0xFFFFFFFFFFFFFFFFFFFFFFFFFFFFFFFFFFFFFFFF AND DUP2 MSTORE PUSH1 0x20 ADD SWAP1 DUP2 MSTORE PUSH1 0x20 ADD PUSH1 0x0 KECCAK256 PUSH1 0x1 ADD SWAP1 DUP2 PUSH2 0x1479 SWAP2 SWAP1 PUSH2 0x2C39 JUMP JUMPDEST POP DUP12 DUP2 PUSH1 0x0 DUP6 PUSH20 0xFFFFFFFFFFFFFFFFFFFFFFFFFFFFFFFFFFFFFFFF AND PUSH20 0xFFFFFFFFFFFFFFFFFFFFFFFFFFFFFFFFFFFFFFFF AND DUP2 MSTORE PUSH1 0x20 ADD SWAP1 DUP2 MSTORE PUSH1 0x20 ADD PUSH1 0x0 KECCAK256 PUSH1 0x2 ADD SWAP1 DUP2 PUSH2 0x14C8 SWAP2 SWAP1 PUSH2 0x2C39 JUMP JUMPDEST POP DUP11 DUP2 PUSH1 0x0 DUP6 PUSH20 0xFFFFFFFFFFFFFFFFFFFFFFFFFFFFFFFFFFFFFFFF AND PUSH20 0xFFFFFFFFFFFFFFFFFFFFFFFFFFFFFFFFFFFFFFFF AND DUP2 MSTORE PUSH1 0x20 ADD SWAP1 DUP2 MSTORE PUSH1 0x20 ADD PUSH1 0x0 KECCAK256 PUSH1 0x7 ADD DUP2 SWAP1 SSTORE POP DUP10 DUP2 PUSH1 0x0 DUP6 PUSH20 0xFFFFFFFFFFFFFFFFFFFFFFFFFFFFFFFFFFFFFFFF AND PUSH20 0xFFFFFFFFFFFFFFFFFFFFFFFFFFFFFFFFFFFFFFFF AND DUP2 MSTORE PUSH1 0x20 ADD SWAP1 DUP2 MSTORE PUSH1 0x20 ADD PUSH1 0x0 KECCAK256 PUSH1 0x8 ADD DUP2 SWAP1 SSTORE POP DUP9 DUP2 PUSH1 0x0 DUP6 PUSH20 0xFFFFFFFFFFFFFFFFFFFFFFFFFFFFFFFFFFFFFFFF AND PUSH20 0xFFFFFFFFFFFFFFFFFFFFFFFFFFFFFFFFFFFFFFFF AND DUP2 MSTORE PUSH1 0x20 ADD SWAP1 DUP2 MSTORE PUSH1 0x20 ADD PUSH1 0x0 KECCAK256 PUSH1 0x9 ADD DUP2 SWAP1 SSTORE POP DUP8 DUP2 PUSH1 0x0 DUP6 PUSH20 0xFFFFFFFFFFFFFFFFFFFFFFFFFFFFFFFFFFFFFFFF AND PUSH20 0xFFFFFFFFFFFFFFFFFFFFFFFFFFFFFFFFFFFFFFFF AND DUP2 MSTORE PUSH1 0x20 ADD SWAP1 DUP2 MSTORE PUSH1 0x20 ADD PUSH1 0x0 KECCAK256 PUSH1 0x3 ADD DUP2 SWAP1 SSTORE POP DUP7 DUP2 PUSH1 0x0 DUP6 PUSH20 0xFFFFFFFFFFFFFFFFFFFFFFFFFFFFFFFFFFFFFFFF AND PUSH20 0xFFFFFFFFFFFFFFFFFFFFFFFFFFFFFFFFFFFFFFFF AND DUP2 MSTORE PUSH1 0x20 ADD SWAP1 DUP2 MSTORE PUSH1 0x20 ADD PUSH1 0x0 KECCAK256 PUSH1 0x6 ADD DUP2 SWAP1 SSTORE POP DUP6 DUP2 PUSH1 0x0 DUP6 PUSH20 0xFFFFFFFFFFFFFFFFFFFFFFFFFFFFFFFFFFFFFFFF AND PUSH20 0xFFFFFFFFFFFFFFFFFFFFFFFFFFFFFFFFFFFFFFFF AND DUP2 MSTORE PUSH1 0x20 ADD SWAP1 DUP2 MSTORE PUSH1 0x20 ADD PUSH1 0x0 KECCAK256 PUSH1 0x4 ADD DUP2 SWAP1 SSTORE POP DUP5 DUP2 PUSH1 0x0 DUP6 PUSH20 0xFFFFFFFFFFFFFFFFFFFFFFFFFFFFFFFFFFFFFFFF AND PUSH20 0xFFFFFFFFFFFFFFFFFFFFFFFFFFFFFFFFFFFFFFFF AND DUP2 MSTORE PUSH1 0x20 ADD SWAP1 DUP2 MSTORE PUSH1 0x20 ADD PUSH1 0x0 KECCAK256 PUSH1 0x5 ADD DUP2 SWAP1 SSTORE POP PUSH1 0x1 PUSH1 0x9 PUSH1 0x0 PUSH1 0x3 DUP16 PUSH1 0x40 MLOAD PUSH2 0x16C9 SWAP2 SWAP1 PUSH2 0x294D JUMP JUMPDEST SWAP1 DUP2 MSTORE PUSH1 0x20 ADD PUSH1 0x40 MLOAD DUP1 SWAP2 SUB SWAP1 KECCAK256 PUSH1 0x0 SWAP1 SLOAD SWAP1 PUSH2 0x100 EXP SWAP1 DIV PUSH20 0xFFFFFFFFFFFFFFFFFFFFFFFFFFFFFFFFFFFFFFFF AND PUSH20 0xFFFFFFFFFFFFFFFFFFFFFFFFFFFFFFFFFFFFFFFF AND PUSH20 0xFFFFFFFFFFFFFFFFFFFFFFFFFFFFFFFFFFFFFFFF AND DUP2 MSTORE PUSH1 0x20 ADD SWAP1 DUP2 MSTORE PUSH1 0x20 ADD PUSH1 0x0 KECCAK256 PUSH1 0x0 DUP3 DUP3 SLOAD PUSH2 0x1741 SWAP2 SWAP1 PUSH2 0x2D0B JUMP JUMPDEST SWAP3 POP POP DUP2 SWAP1 SSTORE POP PUSH1 0x1 PUSH1 0x9 PUSH1 0x0 DUP6 PUSH20 0xFFFFFFFFFFFFFFFFFFFFFFFFFFFFFFFFFFFFFFFF AND PUSH20 0xFFFFFFFFFFFFFFFFFFFFFFFFFFFFFFFFFFFFFFFF AND DUP2 MSTORE PUSH1 0x20 ADD SWAP1 DUP2 MSTORE PUSH1 0x20 ADD PUSH1 0x0 KECCAK256 PUSH1 0x0 DUP3 DUP3 SLOAD PUSH2 0x1798 SWAP2 SWAP1 PUSH2 0x2D3F JUMP JUMPDEST SWAP3 POP POP DUP2 SWAP1 SSTORE POP PUSH2 0x17AA DUP4 PUSH1 0x1 PUSH2 0xF15 JUMP JUMPDEST PUSH1 0x0 PUSH1 0x40 MLOAD DUP1 PUSH1 0x80 ADD PUSH1 0x40 MSTORE DUP1 PUSH1 0x3 DUP16 PUSH1 0x40 MLOAD PUSH2 0x17C7 SWAP2 SWAP1 PUSH2 0x294D JUMP JUMPDEST SWAP1 DUP2 MSTORE PUSH1 0x20 ADD PUSH1 0x40 MLOAD DUP1 SWAP2 SUB SWAP1 KECCAK256 PUSH1 0x0 SWAP1 SLOAD SWAP1 PUSH2 0x100 EXP SWAP1 DIV PUSH20 0xFFFFFFFFFFFFFFFFFFFFFFFFFFFFFFFFFFFFFFFF AND PUSH20 0xFFFFFFFFFFFFFFFFFFFFFFFFFFFFFFFFFFFFFFFF AND DUP2 MSTORE PUSH1 0x20 ADD DUP6 PUSH20 0xFFFFFFFFFFFFFFFFFFFFFFFFFFFFFFFFFFFFFFFF AND DUP2 MSTORE PUSH1 0x20 ADD PUSH1 0x1 DUP2 MSTORE PUSH1 0x20 ADD DUP7 DUP2 MSTORE POP SWAP1 POP PUSH1 0x5 DUP2 SWAP1 DUP1 PUSH1 0x1 DUP2 SLOAD ADD DUP1 DUP3 SSTORE DUP1 SWAP2 POP POP PUSH1 0x1 SWAP1 SUB SWAP1 PUSH1 0x0 MSTORE PUSH1 0x20 PUSH1 0x0 KECCAK256 SWAP1 PUSH1 0x4 MUL ADD PUSH1 0x0 SWAP1 SWAP2 SWAP1 SWAP2 SWAP1 SWAP2 POP PUSH1 0x0 DUP3 ADD MLOAD DUP2 PUSH1 0x0 ADD PUSH1 0x0 PUSH2 0x100 EXP DUP2 SLOAD DUP2 PUSH20 0xFFFFFFFFFFFFFFFFFFFFFFFFFFFFFFFFFFFFFFFF MUL NOT AND SWAP1 DUP4 PUSH20 0xFFFFFFFFFFFFFFFFFFFFFFFFFFFFFFFFFFFFFFFF AND MUL OR SWAP1 SSTORE POP PUSH1 0x20 DUP3 ADD MLOAD DUP2 PUSH1 0x1 ADD PUSH1 0x0 PUSH2 0x100 EXP DUP2 SLOAD DUP2 PUSH20 0xFFFFFFFFFFFFFFFFFFFFFFFFFFFFFFFFFFFFFFFF MUL NOT AND SWAP1 DUP4 PUSH20 0xFFFFFFFFFFFFFFFFFFFFFFFFFFFFFFFFFFFFFFFF AND MUL OR SWAP1 SSTORE POP PUSH1 0x40 DUP3 ADD MLOAD DUP2 PUSH1 0x2 ADD SSTORE PUSH1 0x60 DUP3 ADD MLOAD DUP2 PUSH1 0x3 ADD SSTORE POP POP POP POP POP POP POP POP POP POP POP POP POP POP POP POP POP JUMP JUMPDEST PUSH1 0x0 SELFBALANCE SWAP1 POP SWAP1 JUMP JUMPDEST PUSH1 0x0 PUSH1 0x2 PUSH1 0x0 DUP6 PUSH20 0xFFFFFFFFFFFFFFFFFFFFFFFFFFFFFFFFFFFFFFFF AND PUSH20 0xFFFFFFFFFFFFFFFFFFFFFFFFFFFFFFFFFFFFFFFF AND DUP2 MSTORE PUSH1 0x20 ADD SWAP1 DUP2 MSTORE PUSH1 0x20 ADD PUSH1 0x0 KECCAK256 DUP1 SLOAD PUSH2 0x196F SWAP1 PUSH2 0x28B1 JUMP JUMPDEST SWAP1 POP EQ DUP1 ISZERO PUSH2 0x19E8 JUMPI POP PUSH1 0x0 PUSH20 0xFFFFFFFFFFFFFFFFFFFFFFFFFFFFFFFFFFFFFFFF AND PUSH1 0x3 DUP4 PUSH1 0x40 MLOAD PUSH2 0x19A1 SWAP2 SWAP1 PUSH2 0x294D JUMP JUMPDEST SWAP1 DUP2 MSTORE PUSH1 0x20 ADD PUSH1 0x40 MLOAD DUP1 SWAP2 SUB SWAP1 KECCAK256 PUSH1 0x0 SWAP1 SLOAD SWAP1 PUSH2 0x100 EXP SWAP1 DIV PUSH20 0xFFFFFFFFFFFFFFFFFFFFFFFFFFFFFFFFFFFFFFFF AND PUSH20 0xFFFFFFFFFFFFFFFFFFFFFFFFFFFFFFFFFFFFFFFF AND EQ JUMPDEST ISZERO PUSH2 0x1CB6 JUMPI PUSH1 0x64 CALLVALUE LT ISZERO PUSH2 0x19FB JUMPI PUSH1 0x0 DUP1 REVERT JUMPDEST PUSH1 0x0 DUP3 SWAP1 DUP1 PUSH1 0x1 DUP2 SLOAD ADD DUP1 DUP3 SSTORE DUP1 SWAP2 POP POP PUSH1 0x1 SWAP1 SUB SWAP1 PUSH1 0x0 MSTORE PUSH1 0x20 PUSH1 0x0 KECCAK256 ADD PUSH1 0x0 SWAP1 SWAP2 SWAP1 SWAP2 SWAP1 SWAP2 POP SWAP1 DUP2 PUSH2 0x1A2F SWAP2 SWAP1 PUSH2 0x2C39 JUMP JUMPDEST POP PUSH1 0x1 DUP4 SWAP1 DUP1 PUSH1 0x1 DUP2 SLOAD ADD DUP1 DUP3 SSTORE DUP1 SWAP2 POP POP PUSH1 0x1 SWAP1 SUB SWAP1 PUSH1 0x0 MSTORE PUSH1 0x20 PUSH1 0x0 KECCAK256 ADD PUSH1 0x0 SWAP1 SWAP2 SWAP1 SWAP2 SWAP1 SWAP2 PUSH2 0x100 EXP DUP2 SLOAD DUP2 PUSH20 0xFFFFFFFFFFFFFFFFFFFFFFFFFFFFFFFFFFFFFFFF MUL NOT AND SWAP1 DUP4 PUSH20 0xFFFFFFFFFFFFFFFFFFFFFFFFFFFFFFFFFFFFFFFF AND MUL OR SWAP1 SSTORE POP DUP3 PUSH1 0x3 DUP4 PUSH1 0x40 MLOAD PUSH2 0x1AA4 SWAP2 SWAP1 PUSH2 0x294D JUMP JUMPDEST SWAP1 DUP2 MSTORE PUSH1 0x20 ADD PUSH1 0x40 MLOAD DUP1 SWAP2 SUB SWAP1 KECCAK256 PUSH1 0x0 PUSH2 0x100 EXP DUP2 SLOAD DUP2 PUSH20 0xFFFFFFFFFFFFFFFFFFFFFFFFFFFFFFFFFFFFFFFF MUL NOT AND SWAP1 DUP4 PUSH20 0xFFFFFFFFFFFFFFFFFFFFFFFFFFFFFFFFFFFFFFFF AND MUL OR SWAP1 SSTORE POP DUP2 PUSH1 0x2 PUSH1 0x0 DUP6 PUSH20 0xFFFFFFFFFFFFFFFFFFFFFFFFFFFFFFFFFFFFFFFF AND PUSH20 0xFFFFFFFFFFFFFFFFFFFFFFFFFFFFFFFFFFFFFFFF AND DUP2 MSTORE PUSH1 0x20 ADD SWAP1 DUP2 MSTORE PUSH1 0x20 ADD PUSH1 0x0 KECCAK256 SWAP1 DUP2 PUSH2 0x1B3C SWAP2 SWAP1 PUSH2 0x2C39 JUMP JUMPDEST POP CALLVALUE PUSH1 0x9 PUSH1 0x0 DUP6 PUSH20 0xFFFFFFFFFFFFFFFFFFFFFFFFFFFFFFFFFFFFFFFF AND PUSH20 0xFFFFFFFFFFFFFFFFFFFFFFFFFFFFFFFFFFFFFFFF AND DUP2 MSTORE PUSH1 0x20 ADD SWAP1 DUP2 MSTORE PUSH1 0x20 ADD PUSH1 0x0 KECCAK256 PUSH1 0x0 DUP3 DUP3 SLOAD PUSH2 0x1B8C SWAP2 SWAP1 PUSH2 0x2D3F JUMP JUMPDEST SWAP3 POP POP DUP2 SWAP1 SSTORE POP PUSH1 0x0 PUSH1 0x40 MLOAD DUP1 PUSH1 0x80 ADD PUSH1 0x40 MSTORE DUP1 CALLER PUSH20 0xFFFFFFFFFFFFFFFFFFFFFFFFFFFFFFFFFFFFFFFF AND DUP2 MSTORE PUSH1 0x20 ADD ADDRESS PUSH20 0xFFFFFFFFFFFFFFFFFFFFFFFFFFFFFFFFFFFFFFFF AND DUP2 MSTORE PUSH1 0x20 ADD CALLVALUE DUP2 MSTORE PUSH1 0x20 ADD DUP4 DUP2 MSTORE POP SWAP1 POP PUSH1 0x5 DUP2 SWAP1 DUP1 PUSH1 0x1 DUP2 SLOAD ADD DUP1 DUP3 SSTORE DUP1 SWAP2 POP POP PUSH1 0x1 SWAP1 SUB SWAP1 PUSH1 0x0 MSTORE PUSH1 0x20 PUSH1 0x0 KECCAK256 SWAP1 PUSH1 0x4 MUL ADD PUSH1 0x0 SWAP1 SWAP2 SWAP1 SWAP2 SWAP1 SWAP2 POP PUSH1 0x0 DUP3 ADD MLOAD DUP2 PUSH1 0x0 ADD PUSH1 0x0 PUSH2 0x100 EXP DUP2 SLOAD DUP2 PUSH20 0xFFFFFFFFFFFFFFFFFFFFFFFFFFFFFFFFFFFFFFFF MUL NOT AND SWAP1 DUP4 PUSH20 0xFFFFFFFFFFFFFFFFFFFFFFFFFFFFFFFFFFFFFFFF AND MUL OR SWAP1 SSTORE POP PUSH1 0x20 DUP3 ADD MLOAD DUP2 PUSH1 0x1 ADD PUSH1 0x0 PUSH2 0x100 EXP DUP2 SLOAD DUP2 PUSH20 0xFFFFFFFFFFFFFFFFFFFFFFFFFFFFFFFFFFFFFFFF MUL NOT AND SWAP1 DUP4 PUSH20 0xFFFFFFFFFFFFFFFFFFFFFFFFFFFFFFFFFFFFFFFF AND MUL OR SWAP1 SSTORE POP PUSH1 0x40 DUP3 ADD MLOAD DUP2 PUSH1 0x2 ADD SSTORE PUSH1 0x60 DUP3 ADD MLOAD DUP2 PUSH1 0x3 ADD SSTORE POP POP POP JUMPDEST POP POP POP JUMP JUMPDEST CALLVALUE PUSH1 0x4 PUSH1 0x0 DUP3 DUP3 SLOAD PUSH2 0x1CCD SWAP2 SWAP1 PUSH2 0x2D3F JUMP JUMPDEST SWAP3 POP POP DUP2 SWAP1 SSTORE POP JUMP JUMPDEST PUSH1 0x4 SLOAD DUP2 JUMP JUMPDEST PUSH1 0x3 DUP2 DUP1 MLOAD PUSH1 0x20 DUP2 ADD DUP3 ADD DUP1 MLOAD DUP5 DUP3 MSTORE PUSH1 0x20 DUP4 ADD PUSH1 0x20 DUP6 ADD KECCAK256 DUP2 DUP4 MSTORE DUP1 SWAP6 POP POP POP POP POP POP PUSH1 0x0 SWAP2 POP SLOAD SWAP1 PUSH2 0x100 EXP SWAP1 DIV PUSH20 0xFFFFFFFFFFFFFFFFFFFFFFFFFFFFFFFFFFFFFFFF AND DUP2 JUMP JUMPDEST PUSH1 0x40 MLOAD DUP1 PUSH2 0x140 ADD PUSH1 0x40 MSTORE DUP1 PUSH1 0x60 DUP2 MSTORE PUSH1 0x20 ADD PUSH1 0x60 DUP2 MSTORE PUSH1 0x20 ADD PUSH1 0x60 DUP2 MSTORE PUSH1 0x20 ADD PUSH1 0x0 DUP2 MSTORE PUSH1 0x20 ADD PUSH1 0x0 DUP2 MSTORE PUSH1 0x20 ADD PUSH1 0x0 DUP2 MSTORE PUSH1 0x20 ADD PUSH1 0x0 DUP2 MSTORE PUSH1 0x20 ADD PUSH1 0x0 DUP2 MSTORE PUSH1 0x20 ADD PUSH1 0x0 DUP2 MSTORE PUSH1 0x20 ADD PUSH1 0x0 DUP2 MSTORE POP SWAP1 JUMP JUMPDEST PUSH1 0x0 PUSH1 0x40 MLOAD SWAP1 POP SWAP1 JUMP JUMPDEST PUSH1 0x0 DUP1 REVERT JUMPDEST PUSH1 0x0 DUP1 REVERT JUMPDEST PUSH1 0x0 DUP2 SWAP1 POP SWAP2 SWAP1 POP JUMP JUMPDEST PUSH2 0x1D9F DUP2 PUSH2 0x1D8C JUMP JUMPDEST DUP2 EQ PUSH2 0x1DAA JUMPI PUSH1 0x0 DUP1 REVERT JUMPDEST POP JUMP JUMPDEST PUSH1 0x0 DUP2 CALLDATALOAD SWAP1 POP PUSH2 0x1DBC DUP2 PUSH2 0x1D96 JUMP JUMPDEST SWAP3 SWAP2 POP POP JUMP JUMPDEST PUSH1 0x0 PUSH1 0x20 DUP3 DUP5 SUB SLT ISZERO PUSH2 0x1DD8 JUMPI PUSH2 0x1DD7 PUSH2 0x1D82 JUMP JUMPDEST JUMPDEST PUSH1 0x0 PUSH2 0x1DE6 DUP5 DUP3 DUP6 ADD PUSH2 0x1DAD JUMP JUMPDEST SWAP2 POP POP SWAP3 SWAP2 POP POP JUMP JUMPDEST PUSH1 0x0 DUP2 MLOAD SWAP1 POP SWAP2 SWAP1 POP JUMP JUMPDEST PUSH1 0x0 DUP3 DUP3 MSTORE PUSH1 0x20 DUP3 ADD SWAP1 POP SWAP3 SWAP2 POP POP JUMP JUMPDEST PUSH1 0x0 JUMPDEST DUP4 DUP2 LT ISZERO PUSH2 0x1E29 JUMPI DUP1 DUP3 ADD MLOAD DUP2 DUP5 ADD MSTORE PUSH1 0x20 DUP2 ADD SWAP1 POP PUSH2 0x1E0E JUMP JUMPDEST PUSH1 0x0 DUP5 DUP5 ADD MSTORE POP POP POP POP JUMP JUMPDEST PUSH1 0x0 PUSH1 0x1F NOT PUSH1 0x1F DUP4 ADD AND SWAP1 POP SWAP2 SWAP1 POP JUMP JUMPDEST PUSH1 0x0 PUSH2 0x1E51 DUP3 PUSH2 0x1DEF JUMP JUMPDEST PUSH2 0x1E5B DUP2 DUP6 PUSH2 0x1DFA JUMP JUMPDEST SWAP4 POP PUSH2 0x1E6B DUP2 DUP6 PUSH1 0x20 DUP7 ADD PUSH2 0x1E0B JUMP JUMPDEST PUSH2 0x1E74 DUP2 PUSH2 0x1E35 JUMP JUMPDEST DUP5 ADD SWAP2 POP POP SWAP3 SWAP2 POP POP JUMP JUMPDEST PUSH1 0x0 PUSH1 0x20 DUP3 ADD SWAP1 POP DUP2 DUP2 SUB PUSH1 0x0 DUP4 ADD MSTORE PUSH2 0x1E99 DUP2 DUP5 PUSH2 0x1E46 JUMP JUMPDEST SWAP1 POP SWAP3 SWAP2 POP POP JUMP JUMPDEST PUSH1 0x0 PUSH20 0xFFFFFFFFFFFFFFFFFFFFFFFFFFFFFFFFFFFFFFFF DUP3 AND SWAP1 POP SWAP2 SWAP1 POP JUMP JUMPDEST PUSH1 0x0 PUSH2 0x1ECC DUP3 PUSH2 0x1EA1 JUMP JUMPDEST SWAP1 POP SWAP2 SWAP1 POP JUMP JUMPDEST PUSH2 0x1EDC DUP2 PUSH2 0x1EC1 JUMP JUMPDEST DUP3 MSTORE POP POP JUMP JUMPDEST PUSH2 0x1EEB DUP2 PUSH2 0x1D8C JUMP JUMPDEST DUP3 MSTORE POP POP JUMP JUMPDEST PUSH1 0x0 PUSH1 0x80 DUP3 ADD SWAP1 POP PUSH2 0x1F06 PUSH1 0x0 DUP4 ADD DUP8 PUSH2 0x1ED3 JUMP JUMPDEST PUSH2 0x1F13 PUSH1 0x20 DUP4 ADD DUP7 PUSH2 0x1ED3 JUMP JUMPDEST PUSH2 0x1F20 PUSH1 0x40 DUP4 ADD DUP6 PUSH2 0x1EE2 JUMP JUMPDEST PUSH2 0x1F2D PUSH1 0x60 DUP4 ADD DUP5 PUSH2 0x1EE2 JUMP JUMPDEST SWAP6 SWAP5 POP POP POP POP POP JUMP JUMPDEST PUSH2 0x1F3F DUP2 PUSH2 0x1EC1 JUMP JUMPDEST DUP2 EQ PUSH2 0x1F4A JUMPI PUSH1 0x0 DUP1 REVERT JUMPDEST POP JUMP JUMPDEST PUSH1 0x0 DUP2 CALLDATALOAD SWAP1 POP PUSH2 0x1F5C DUP2 PUSH2 0x1F36 JUMP JUMPDEST SWAP3 SWAP2 POP POP JUMP JUMPDEST PUSH1 0x0 DUP1 REVERT JUMPDEST PUSH1 0x0 DUP1 REVERT JUMPDEST PUSH32 0x4E487B7100000000000000000000000000000000000000000000000000000000 PUSH1 0x0 MSTORE PUSH1 0x41 PUSH1 0x4 MSTORE PUSH1 0x24 PUSH1 0x0 REVERT JUMPDEST PUSH2 0x1FA4 DUP3 PUSH2 0x1E35 JUMP JUMPDEST DUP2 ADD DUP2 DUP2 LT PUSH8 0xFFFFFFFFFFFFFFFF DUP3 GT OR ISZERO PUSH2 0x1FC3 JUMPI PUSH2 0x1FC2 PUSH2 0x1F6C JUMP JUMPDEST JUMPDEST DUP1 PUSH1 0x40 MSTORE POP POP POP JUMP JUMPDEST PUSH1 0x0 PUSH2 0x1FD6 PUSH2 0x1D78 JUMP JUMPDEST SWAP1 POP PUSH2 0x1FE2 DUP3 DUP3 PUSH2 0x1F9B JUMP JUMPDEST SWAP2 SWAP1 POP JUMP JUMPDEST PUSH1 0x0 PUSH8 0xFFFFFFFFFFFFFFFF DUP3 GT ISZERO PUSH2 0x2002 JUMPI PUSH2 0x2001 PUSH2 0x1F6C JUMP JUMPDEST JUMPDEST PUSH2 0x200B DUP3 PUSH2 0x1E35 JUMP JUMPDEST SWAP1 POP PUSH1 0x20 DUP2 ADD SWAP1 POP SWAP2 SWAP1 POP JUMP JUMPDEST DUP3 DUP2 DUP4 CALLDATACOPY PUSH1 0x0 DUP4 DUP4 ADD MSTORE POP POP POP JUMP JUMPDEST PUSH1 0x0 PUSH2 0x203A PUSH2 0x2035 DUP5 PUSH2 0x1FE7 JUMP JUMPDEST PUSH2 0x1FCC JUMP JUMPDEST SWAP1 POP DUP3 DUP2 MSTORE PUSH1 0x20 DUP2 ADD DUP5 DUP5 DUP5 ADD GT ISZERO PUSH2 0x2056 JUMPI PUSH2 0x2055 PUSH2 0x1F67 JUMP JUMPDEST JUMPDEST PUSH2 0x2061 DUP5 DUP3 DUP6 PUSH2 0x2018 JUMP JUMPDEST POP SWAP4 SWAP3 POP POP POP JUMP JUMPDEST PUSH1 0x0 DUP3 PUSH1 0x1F DUP4 ADD SLT PUSH2 0x207E JUMPI PUSH2 0x207D PUSH2 0x1F62 JUMP JUMPDEST JUMPDEST DUP2 CALLDATALOAD PUSH2 0x208E DUP5 DUP3 PUSH1 0x20 DUP7 ADD PUSH2 0x2027 JUMP JUMPDEST SWAP2 POP POP SWAP3 SWAP2 POP POP JUMP JUMPDEST PUSH1 0x0 DUP1 PUSH1 0x0 PUSH1 0x60 DUP5 DUP7 SUB SLT ISZERO PUSH2 0x20B0 JUMPI PUSH2 0x20AF PUSH2 0x1D82 JUMP JUMPDEST JUMPDEST PUSH1 0x0 PUSH2 0x20BE DUP7 DUP3 DUP8 ADD PUSH2 0x1F4D JUMP JUMPDEST SWAP4 POP POP PUSH1 0x20 DUP5 ADD CALLDATALOAD PUSH8 0xFFFFFFFFFFFFFFFF DUP2 GT ISZERO PUSH2 0x20DF JUMPI PUSH2 0x20DE PUSH2 0x1D87 JUMP JUMPDEST JUMPDEST PUSH2 0x20EB DUP7 DUP3 DUP8 ADD PUSH2 0x2069 JUMP JUMPDEST SWAP3 POP POP PUSH1 0x40 PUSH2 0x20FC DUP7 DUP3 DUP8 ADD PUSH2 0x1F4D JUMP JUMPDEST SWAP2 POP POP SWAP3 POP SWAP3 POP SWAP3 JUMP JUMPDEST PUSH1 0x0 PUSH2 0x140 DUP3 ADD SWAP1 POP DUP2 DUP2 SUB PUSH1 0x0 DUP4 ADD MSTORE PUSH2 0x2121 DUP2 DUP14 PUSH2 0x1E46 JUMP JUMPDEST SWAP1 POP DUP2 DUP2 SUB PUSH1 0x20 DUP4 ADD MSTORE PUSH2 0x2135 DUP2 DUP13 PUSH2 0x1E46 JUMP JUMPDEST SWAP1 POP DUP2 DUP2 SUB PUSH1 0x40 DUP4 ADD MSTORE PUSH2 0x2149 DUP2 DUP12 PUSH2 0x1E46 JUMP JUMPDEST SWAP1 POP PUSH2 0x2158 PUSH1 0x60 DUP4 ADD DUP11 PUSH2 0x1EE2 JUMP JUMPDEST PUSH2 0x2165 PUSH1 0x80 DUP4 ADD DUP10 PUSH2 0x1EE2 JUMP JUMPDEST PUSH2 0x2172 PUSH1 0xA0 DUP4 ADD DUP9 PUSH2 0x1EE2 JUMP JUMPDEST PUSH2 0x217F PUSH1 0xC0 DUP4 ADD DUP8 PUSH2 0x1EE2 JUMP JUMPDEST PUSH2 0x218C PUSH1 0xE0 DUP4 ADD DUP7 PUSH2 0x1EE2 JUMP JUMPDEST PUSH2 0x219A PUSH2 0x100 DUP4 ADD DUP6 PUSH2 0x1EE2 JUMP JUMPDEST PUSH2 0x21A8 PUSH2 0x120 DUP4 ADD DUP5 PUSH2 0x1EE2 JUMP JUMPDEST SWAP12 SWAP11 POP POP POP POP POP POP POP POP POP POP POP JUMP JUMPDEST PUSH1 0x0 PUSH1 0x20 DUP3 DUP5 SUB SLT ISZERO PUSH2 0x21CD JUMPI PUSH2 0x21CC PUSH2 0x1D82 JUMP JUMPDEST JUMPDEST PUSH1 0x0 PUSH2 0x21DB DUP5 DUP3 DUP6 ADD PUSH2 0x1F4D JUMP JUMPDEST SWAP2 POP POP SWAP3 SWAP2 POP POP JUMP JUMPDEST PUSH1 0x0 PUSH1 0x20 DUP3 ADD SWAP1 POP PUSH2 0x21F9 PUSH1 0x0 DUP4 ADD DUP5 PUSH2 0x1EE2 JUMP JUMPDEST SWAP3 SWAP2 POP POP JUMP JUMPDEST PUSH1 0x0 DUP1 PUSH1 0x40 DUP4 DUP6 SUB SLT ISZERO PUSH2 0x2216 JUMPI PUSH2 0x2215 PUSH2 0x1D82 JUMP JUMPDEST JUMPDEST PUSH1 0x0 PUSH2 0x2224 DUP6 DUP3 DUP7 ADD PUSH2 0x1F4D JUMP JUMPDEST SWAP3 POP POP PUSH1 0x20 PUSH2 0x2235 DUP6 DUP3 DUP7 ADD PUSH2 0x1DAD JUMP JUMPDEST SWAP2 POP POP SWAP3 POP SWAP3 SWAP1 POP JUMP JUMPDEST PUSH1 0x0 PUSH1 0x20 DUP3 ADD SWAP1 POP PUSH2 0x2254 PUSH1 0x0 DUP4 ADD DUP5 PUSH2 0x1ED3 JUMP JUMPDEST SWAP3 SWAP2 POP POP JUMP JUMPDEST PUSH1 0x0 PUSH1 0x20 DUP3 DUP5 SUB SLT ISZERO PUSH2 0x2270 JUMPI PUSH2 0x226F PUSH2 0x1D82 JUMP JUMPDEST JUMPDEST PUSH1 0x0 DUP3 ADD CALLDATALOAD PUSH8 0xFFFFFFFFFFFFFFFF DUP2 GT ISZERO PUSH2 0x228E JUMPI PUSH2 0x228D PUSH2 0x1D87 JUMP JUMPDEST JUMPDEST PUSH2 0x229A DUP5 DUP3 DUP6 ADD PUSH2 0x2069 JUMP JUMPDEST SWAP2 POP POP SWAP3 SWAP2 POP POP JUMP JUMPDEST PUSH1 0x0 DUP2 MLOAD SWAP1 POP SWAP2 SWAP1 POP JUMP JUMPDEST PUSH1 0x0 DUP3 DUP3 MSTORE PUSH1 0x20 DUP3 ADD SWAP1 POP SWAP3 SWAP2 POP POP JUMP JUMPDEST PUSH1 0x0 DUP2 SWAP1 POP PUSH1 0x20 DUP3 ADD SWAP1 POP SWAP2 SWAP1 POP JUMP JUMPDEST PUSH1 0x0 DUP3 DUP3 MSTORE PUSH1 0x20 DUP3 ADD SWAP1 POP SWAP3 SWAP2 POP POP JUMP JUMPDEST PUSH1 0x0 PUSH2 0x22EB DUP3 PUSH2 0x1DEF JUMP JUMPDEST PUSH2 0x22F5 DUP2 DUP6 PUSH2 0x22CF JUMP JUMPDEST SWAP4 POP PUSH2 0x2305 DUP2 DUP6 PUSH1 0x20 DUP7 ADD PUSH2 0x1E0B JUMP JUMPDEST PUSH2 0x230E DUP2 PUSH2 0x1E35 JUMP JUMPDEST DUP5 ADD SWAP2 POP POP SWAP3 SWAP2 POP POP JUMP JUMPDEST PUSH1 0x0 PUSH2 0x2325 DUP4 DUP4 PUSH2 0x22E0 JUMP JUMPDEST SWAP1 POP SWAP3 SWAP2 POP POP JUMP JUMPDEST PUSH1 0x0 PUSH1 0x20 DUP3 ADD SWAP1 POP SWAP2 SWAP1 POP JUMP JUMPDEST PUSH1 0x0 PUSH2 0x2345 DUP3 PUSH2 0x22A3 JUMP JUMPDEST PUSH2 0x234F DUP2 DUP6 PUSH2 0x22AE JUMP JUMPDEST SWAP4 POP DUP4 PUSH1 0x20 DUP3 MUL DUP6 ADD PUSH2 0x2361 DUP6 PUSH2 0x22BF JUMP JUMPDEST DUP1 PUSH1 0x0 JUMPDEST DUP6 DUP2 LT ISZERO PUSH2 0x239D JUMPI DUP5 DUP5 SUB DUP10 MSTORE DUP2 MLOAD PUSH2 0x237E DUP6 DUP3 PUSH2 0x2319 JUMP JUMPDEST SWAP5 POP PUSH2 0x2389 DUP4 PUSH2 0x232D JUMP JUMPDEST SWAP3 POP PUSH1 0x20 DUP11 ADD SWAP10 POP POP PUSH1 0x1 DUP2 ADD SWAP1 POP PUSH2 0x2365 JUMP JUMPDEST POP DUP3 SWAP8 POP DUP8 SWAP6 POP POP POP POP POP POP SWAP3 SWAP2 POP POP JUMP JUMPDEST PUSH1 0x0 DUP2 MLOAD SWAP1 POP SWAP2 SWAP1 POP JUMP JUMPDEST PUSH1 0x0 DUP3 DUP3 MSTORE PUSH1 0x20 DUP3 ADD SWAP1 POP SWAP3 SWAP2 POP POP JUMP JUMPDEST PUSH1 0x0 DUP2 SWAP1 POP PUSH1 0x20 DUP3 ADD SWAP1 POP SWAP2 SWAP1 POP JUMP JUMPDEST PUSH2 0x23E4 DUP2 PUSH2 0x1D8C JUMP JUMPDEST DUP3 MSTORE POP POP JUMP JUMPDEST PUSH1 0x0 PUSH2 0x140 DUP4 ADD PUSH1 0x0 DUP4 ADD MLOAD DUP5 DUP3 SUB PUSH1 0x0 DUP7 ADD MSTORE PUSH2 0x2408 DUP3 DUP3 PUSH2 0x22E0 JUMP JUMPDEST SWAP2 POP POP PUSH1 0x20 DUP4 ADD MLOAD DUP5 DUP3 SUB PUSH1 0x20 DUP7 ADD MSTORE PUSH2 0x2422 DUP3 DUP3 PUSH2 0x22E0 JUMP JUMPDEST SWAP2 POP POP PUSH1 0x40 DUP4 ADD MLOAD DUP5 DUP3 SUB PUSH1 0x40 DUP7 ADD MSTORE PUSH2 0x243C DUP3 DUP3 PUSH2 0x22E0 JUMP JUMPDEST SWAP2 POP POP PUSH1 0x60 DUP4 ADD MLOAD PUSH2 0x2451 PUSH1 0x60 DUP7 ADD DUP3 PUSH2 0x23DB JUMP JUMPDEST POP PUSH1 0x80 DUP4 ADD MLOAD PUSH2 0x2464 PUSH1 0x80 DUP7 ADD DUP3 PUSH2 0x23DB JUMP JUMPDEST POP PUSH1 0xA0 DUP4 ADD MLOAD PUSH2 0x2477 PUSH1 0xA0 DUP7 ADD DUP3 PUSH2 0x23DB JUMP JUMPDEST POP PUSH1 0xC0 DUP4 ADD MLOAD PUSH2 0x248A PUSH1 0xC0 DUP7 ADD DUP3 PUSH2 0x23DB JUMP JUMPDEST POP PUSH1 0xE0 DUP4 ADD MLOAD PUSH2 0x249D PUSH1 0xE0 DUP7 ADD DUP3 PUSH2 0x23DB JUMP JUMPDEST POP PUSH2 0x100 DUP4 ADD MLOAD PUSH2 0x24B2 PUSH2 0x100 DUP7 ADD DUP3 PUSH2 0x23DB JUMP JUMPDEST POP PUSH2 0x120 DUP4 ADD MLOAD PUSH2 0x24C7 PUSH2 0x120 DUP7 ADD DUP3 PUSH2 0x23DB JUMP JUMPDEST POP DUP1 SWAP2 POP POP SWAP3 SWAP2 POP POP JUMP JUMPDEST PUSH1 0x0 PUSH2 0x24DE DUP4 DUP4 PUSH2 0x23EA JUMP JUMPDEST SWAP1 POP SWAP3 SWAP2 POP POP JUMP JUMPDEST PUSH1 0x0 PUSH1 0x20 DUP3 ADD SWAP1 POP SWAP2 SWAP1 POP JUMP JUMPDEST PUSH1 0x0 PUSH2 0x24FE DUP3 PUSH2 0x23AF JUMP JUMPDEST PUSH2 0x2508 DUP2 DUP6 PUSH2 0x23BA JUMP JUMPDEST SWAP4 POP DUP4 PUSH1 0x20 DUP3 MUL DUP6 ADD PUSH2 0x251A DUP6 PUSH2 0x23CB JUMP JUMPDEST DUP1 PUSH1 0x0 JUMPDEST DUP6 DUP2 LT ISZERO PUSH2 0x2556 JUMPI DUP5 DUP5 SUB DUP10 MSTORE DUP2 MLOAD PUSH2 0x2537 DUP6 DUP3 PUSH2 0x24D2 JUMP JUMPDEST SWAP5 POP PUSH2 0x2542 DUP4 PUSH2 0x24E6 JUMP JUMPDEST SWAP3 POP PUSH1 0x20 DUP11 ADD SWAP10 POP POP PUSH1 0x1 DUP2 ADD SWAP1 POP PUSH2 0x251E JUMP JUMPDEST POP DUP3 SWAP8 POP DUP8 SWAP6 POP POP POP POP POP POP SWAP3 SWAP2 POP POP JUMP JUMPDEST PUSH1 0x0 PUSH1 0x40 DUP3 ADD SWAP1 POP DUP2 DUP2 SUB PUSH1 0x0 DUP4 ADD MSTORE PUSH2 0x2582 DUP2 DUP6 PUSH2 0x233A JUMP JUMPDEST SWAP1 POP DUP2 DUP2 SUB PUSH1 0x20 DUP4 ADD MSTORE PUSH2 0x2596 DUP2 DUP5 PUSH2 0x24F3 JUMP JUMPDEST SWAP1 POP SWAP4 SWAP3 POP POP POP JUMP JUMPDEST PUSH1 0x0 PUSH2 0x25AA DUP3 PUSH2 0x1EA1 JUMP JUMPDEST SWAP1 POP SWAP2 SWAP1 POP JUMP JUMPDEST PUSH2 0x25BA DUP2 PUSH2 0x259F JUMP JUMPDEST DUP2 EQ PUSH2 0x25C5 JUMPI PUSH1 0x0 DUP1 REVERT JUMPDEST POP JUMP JUMPDEST PUSH1 0x0 DUP2 CALLDATALOAD SWAP1 POP PUSH2 0x25D7 DUP2 PUSH2 0x25B1 JUMP JUMPDEST SWAP3 SWAP2 POP POP JUMP JUMPDEST PUSH1 0x0 DUP1 PUSH1 0x40 DUP4 DUP6 SUB SLT ISZERO PUSH2 0x25F4 JUMPI PUSH2 0x25F3 PUSH2 0x1D82 JUMP JUMPDEST JUMPDEST PUSH1 0x0 PUSH2 0x2602 DUP6 DUP3 DUP7 ADD PUSH2 0x25C8 JUMP JUMPDEST SWAP3 POP POP PUSH1 0x20 PUSH2 0x2613 DUP6 DUP3 DUP7 ADD PUSH2 0x1DAD JUMP JUMPDEST SWAP2 POP POP SWAP3 POP SWAP3 SWAP1 POP JUMP JUMPDEST PUSH1 0x0 DUP1 PUSH1 0x40 DUP4 DUP6 SUB SLT ISZERO PUSH2 0x2634 JUMPI PUSH2 0x2633 PUSH2 0x1D82 JUMP JUMPDEST JUMPDEST PUSH1 0x0 DUP4 ADD CALLDATALOAD PUSH8 0xFFFFFFFFFFFFFFFF DUP2 GT ISZERO PUSH2 0x2652 JUMPI PUSH2 0x2651 PUSH2 0x1D87 JUMP JUMPDEST JUMPDEST PUSH2 0x265E DUP6 DUP3 DUP7 ADD PUSH2 0x2069 JUMP JUMPDEST SWAP3 POP POP PUSH1 0x20 DUP4 ADD CALLDATALOAD PUSH8 0xFFFFFFFFFFFFFFFF DUP2 GT ISZERO PUSH2 0x267F JUMPI PUSH2 0x267E PUSH2 0x1D87 JUMP JUMPDEST JUMPDEST PUSH2 0x268B DUP6 DUP3 DUP7 ADD PUSH2 0x2069 JUMP JUMPDEST SWAP2 POP POP SWAP3 POP SWAP3 SWAP1 POP JUMP JUMPDEST PUSH1 0x0 DUP2 ISZERO ISZERO SWAP1 POP SWAP2 SWAP1 POP JUMP JUMPDEST PUSH2 0x26AA DUP2 PUSH2 0x2695 JUMP JUMPDEST DUP3 MSTORE POP POP JUMP JUMPDEST PUSH1 0x0 PUSH1 0x20 DUP3 ADD SWAP1 POP PUSH2 0x26C5 PUSH1 0x0 DUP4 ADD DUP5 PUSH2 0x26A1 JUMP JUMPDEST SWAP3 SWAP2 POP POP JUMP JUMPDEST PUSH1 0x0 DUP1 PUSH1 0x0 DUP1 PUSH1 0x0 DUP1 PUSH1 0x0 DUP1 PUSH1 0x0 DUP1 PUSH1 0x0 PUSH2 0x160 DUP13 DUP15 SUB SLT ISZERO PUSH2 0x26F1 JUMPI PUSH2 0x26F0 PUSH2 0x1D82 JUMP JUMPDEST JUMPDEST PUSH1 0x0 DUP13 ADD CALLDATALOAD PUSH8 0xFFFFFFFFFFFFFFFF DUP2 GT ISZERO PUSH2 0x270F JUMPI PUSH2 0x270E PUSH2 0x1D87 JUMP JUMPDEST JUMPDEST PUSH2 0x271B DUP15 DUP3 DUP16 ADD PUSH2 0x2069 JUMP JUMPDEST SWAP12 POP POP PUSH1 0x20 DUP13 ADD CALLDATALOAD PUSH8 0xFFFFFFFFFFFFFFFF DUP2 GT ISZERO PUSH2 0x273C JUMPI PUSH2 0x273B PUSH2 0x1D87 JUMP JUMPDEST JUMPDEST PUSH2 0x2748 DUP15 DUP3 DUP16 ADD PUSH2 0x2069 JUMP JUMPDEST SWAP11 POP POP PUSH1 0x40 DUP13 ADD CALLDATALOAD PUSH8 0xFFFFFFFFFFFFFFFF DUP2 GT ISZERO PUSH2 0x2769 JUMPI PUSH2 0x2768 PUSH2 0x1D87 JUMP JUMPDEST JUMPDEST PUSH2 0x2775 DUP15 DUP3 DUP16 ADD PUSH2 0x2069 JUMP JUMPDEST SWAP10 POP POP PUSH1 0x60 PUSH2 0x2786 DUP15 DUP3 DUP16 ADD PUSH2 0x1DAD JUMP JUMPDEST SWAP9 POP POP PUSH1 0x80 PUSH2 0x2797 DUP15 DUP3 DUP16 ADD PUSH2 0x1DAD JUMP JUMPDEST SWAP8 POP POP PUSH1 0xA0 PUSH2 0x27A8 DUP15 DUP3 DUP16 ADD PUSH2 0x1DAD JUMP JUMPDEST SWAP7 POP POP PUSH1 0xC0 PUSH2 0x27B9 DUP15 DUP3 DUP16 ADD PUSH2 0x1DAD JUMP JUMPDEST SWAP6 POP POP PUSH1 0xE0 PUSH2 0x27CA DUP15 DUP3 DUP16 ADD PUSH2 0x1DAD JUMP JUMPDEST SWAP5 POP POP PUSH2 0x100 PUSH2 0x27DC DUP15 DUP3 DUP16 ADD PUSH2 0x1DAD JUMP JUMPDEST SWAP4 POP POP PUSH2 0x120 PUSH2 0x27EE DUP15 DUP3 DUP16 ADD PUSH2 0x1DAD JUMP JUMPDEST SWAP3 POP POP PUSH2 0x140 PUSH2 0x2800 DUP15 DUP3 DUP16 ADD PUSH2 0x1DAD JUMP JUMPDEST SWAP2 POP POP SWAP3 SWAP6 SWAP9 SWAP12 POP SWAP3 SWAP6 SWAP9 SWAP12 SWAP1 SWAP4 SWAP7 SWAP10 POP JUMP JUMPDEST PUSH1 0x0 DUP1 PUSH1 0x0 PUSH1 0x60 DUP5 DUP7 SUB SLT ISZERO PUSH2 0x282C JUMPI PUSH2 0x282B PUSH2 0x1D82 JUMP JUMPDEST JUMPDEST PUSH1 0x0 PUSH2 0x283A DUP7 DUP3 DUP8 ADD PUSH2 0x1F4D JUMP JUMPDEST SWAP4 POP POP PUSH1 0x20 DUP5 ADD CALLDATALOAD PUSH8 0xFFFFFFFFFFFFFFFF DUP2 GT ISZERO PUSH2 0x285B JUMPI PUSH2 0x285A PUSH2 0x1D87 JUMP JUMPDEST JUMPDEST PUSH2 0x2867 DUP7 DUP3 DUP8 ADD PUSH2 0x2069 JUMP JUMPDEST SWAP3 POP POP PUSH1 0x40 PUSH2 0x2878 DUP7 DUP3 DUP8 ADD PUSH2 0x1DAD JUMP JUMPDEST SWAP2 POP POP SWAP3 POP SWAP3 POP SWAP3 JUMP JUMPDEST PUSH32 0x4E487B7100000000000000000000000000000000000000000000000000000000 PUSH1 0x0 MSTORE PUSH1 0x22 PUSH1 0x4 MSTORE PUSH1 0x24 PUSH1 0x0 REVERT JUMPDEST PUSH1 0x0 PUSH1 0x2 DUP3 DIV SWAP1 POP PUSH1 0x1 DUP3 AND DUP1 PUSH2 0x28C9 JUMPI PUSH1 0x7F DUP3 AND SWAP2 POP JUMPDEST PUSH1 0x20 DUP3 LT DUP2 SUB PUSH2 0x28DC JUMPI PUSH2 0x28DB PUSH2 0x2882 JUMP JUMPDEST JUMPDEST POP SWAP2 SWAP1 POP JUMP JUMPDEST PUSH32 0x4E487B7100000000000000000000000000000000000000000000000000000000 PUSH1 0x0 MSTORE PUSH1 0x32 PUSH1 0x4 MSTORE PUSH1 0x24 PUSH1 0x0 REVERT JUMPDEST PUSH1 0x0 DUP2 SWAP1 POP SWAP3 SWAP2 POP POP JUMP JUMPDEST PUSH1 0x0 PUSH2 0x2927 DUP3 PUSH2 0x1DEF JUMP JUMPDEST PUSH2 0x2931 DUP2 DUP6 PUSH2 0x2911 JUMP JUMPDEST SWAP4 POP PUSH2 0x2941 DUP2 DUP6 PUSH1 0x20 DUP7 ADD PUSH2 0x1E0B JUMP JUMPDEST DUP1 DUP5 ADD SWAP2 POP POP SWAP3 SWAP2 POP POP JUMP JUMPDEST PUSH1 0x0 PUSH2 0x2959 DUP3 DUP5 PUSH2 0x291C JUMP JUMPDEST SWAP2 POP DUP2 SWAP1 POP SWAP3 SWAP2 POP POP JUMP JUMPDEST PUSH32 0x4E487B7100000000000000000000000000000000000000000000000000000000 PUSH1 0x0 MSTORE PUSH1 0x11 PUSH1 0x4 MSTORE PUSH1 0x24 PUSH1 0x0 REVERT JUMPDEST PUSH1 0x0 PUSH2 0x299E DUP3 PUSH2 0x1D8C JUMP JUMPDEST SWAP2 POP PUSH32 0xFFFFFFFFFFFFFFFFFFFFFFFFFFFFFFFFFFFFFFFFFFFFFFFFFFFFFFFFFFFFFFFF DUP3 SUB PUSH2 0x29D0 JUMPI PUSH2 0x29CF PUSH2 0x2964 JUMP JUMPDEST JUMPDEST PUSH1 0x1 DUP3 ADD SWAP1 POP SWAP2 SWAP1 POP JUMP JUMPDEST PUSH1 0x0 DUP2 SWAP1 POP SWAP3 SWAP2 POP POP JUMP JUMPDEST POP JUMP JUMPDEST PUSH1 0x0 PUSH2 0x29F6 PUSH1 0x0 DUP4 PUSH2 0x29DB JUMP JUMPDEST SWAP2 POP PUSH2 0x2A01 DUP3 PUSH2 0x29E6 JUMP JUMPDEST PUSH1 0x0 DUP3 ADD SWAP1 POP SWAP2 SWAP1 POP JUMP JUMPDEST PUSH1 0x0 PUSH2 0x2A17 DUP3 PUSH2 0x29E9 JUMP JUMPDEST SWAP2 POP DUP2 SWAP1 POP SWAP2 SWAP1 POP JUMP JUMPDEST PUSH32 0x4661696C656420746F2073656E64204574686572000000000000000000000000 PUSH1 0x0 DUP3 ADD MSTORE POP JUMP JUMPDEST PUSH1 0x0 PUSH2 0x2A57 PUSH1 0x14 DUP4 PUSH2 0x1DFA JUMP JUMPDEST SWAP2 POP PUSH2 0x2A62 DUP3 PUSH2 0x2A21 JUMP JUMPDEST PUSH1 0x20 DUP3 ADD SWAP1 POP SWAP2 SWAP1 POP JUMP JUMPDEST PUSH1 0x0 PUSH1 0x20 DUP3 ADD SWAP1 POP DUP2 DUP2 SUB PUSH1 0x0 DUP4 ADD MSTORE PUSH2 0x2A86 DUP2 PUSH2 0x2A4A JUMP JUMPDEST SWAP1 POP SWAP2 SWAP1 POP JUMP JUMPDEST PUSH1 0x0 DUP2 SWAP1 POP DUP2 PUSH1 0x0 MSTORE PUSH1 0x20 PUSH1 0x0 KECCAK256 SWAP1 POP SWAP2 SWAP1 POP JUMP JUMPDEST PUSH1 0x0 PUSH1 0x20 PUSH1 0x1F DUP4 ADD DIV SWAP1 POP SWAP2 SWAP1 POP JUMP JUMPDEST PUSH1 0x0 DUP3 DUP3 SHL SWAP1 POP SWAP3 SWAP2 POP POP JUMP JUMPDEST PUSH1 0x0 PUSH1 0x8 DUP4 MUL PUSH2 0x2AEF PUSH32 0xFFFFFFFFFFFFFFFFFFFFFFFFFFFFFFFFFFFFFFFFFFFFFFFFFFFFFFFFFFFFFFFF DUP3 PUSH2 0x2AB2 JUMP JUMPDEST PUSH2 0x2AF9 DUP7 DUP4 PUSH2 0x2AB2 JUMP JUMPDEST SWAP6 POP DUP1 NOT DUP5 AND SWAP4 POP DUP1 DUP7 AND DUP5 OR SWAP3 POP POP POP SWAP4 SWAP3 POP POP POP JUMP JUMPDEST PUSH1 0x0 DUP2 SWAP1 POP SWAP2 SWAP1 POP JUMP JUMPDEST PUSH1 0x0 PUSH2 0x2B36 PUSH2 0x2B31 PUSH2 0x2B2C DUP5 PUSH2 0x1D8C JUMP JUMPDEST PUSH2 0x2B11 JUMP JUMPDEST PUSH2 0x1D8C JUMP JUMPDEST SWAP1 POP SWAP2 SWAP1 POP JUMP JUMPDEST PUSH1 0x0 DUP2 SWAP1 POP SWAP2 SWAP1 POP JUMP JUMPDEST PUSH2 0x2B50 DUP4 PUSH2 0x2B1B JUMP JUMPDEST PUSH2 0x2B64 PUSH2 0x2B5C DUP3 PUSH2 0x2B3D JUMP JUMPDEST DUP5 DUP5 SLOAD PUSH2 0x2ABF JUMP JUMPDEST DUP3 SSTORE POP POP POP POP JUMP JUMPDEST PUSH1 0x0 SWAP1 JUMP JUMPDEST PUSH2 0x2B79 PUSH2 0x2B6C JUMP JUMPDEST PUSH2 0x2B84 DUP2 DUP5 DUP5 PUSH2 0x2B47 JUMP JUMPDEST POP POP POP JUMP JUMPDEST JUMPDEST DUP2 DUP2 LT ISZERO PUSH2 0x2BA8 JUMPI PUSH2 0x2B9D PUSH1 0x0 DUP3 PUSH2 0x2B71 JUMP JUMPDEST PUSH1 0x1 DUP2 ADD SWAP1 POP PUSH2 0x2B8A JUMP JUMPDEST POP POP JUMP JUMPDEST PUSH1 0x1F DUP3 GT ISZERO PUSH2 0x2BED JUMPI PUSH2 0x2BBE DUP2 PUSH2 0x2A8D JUMP JUMPDEST PUSH2 0x2BC7 DUP5 PUSH2 0x2AA2 JUMP JUMPDEST DUP2 ADD PUSH1 0x20 DUP6 LT ISZERO PUSH2 0x2BD6 JUMPI DUP2 SWAP1 POP JUMPDEST PUSH2 0x2BEA PUSH2 0x2BE2 DUP6 PUSH2 0x2AA2 JUMP JUMPDEST DUP4 ADD DUP3 PUSH2 0x2B89 JUMP JUMPDEST POP POP JUMPDEST POP POP POP JUMP JUMPDEST PUSH1 0x0 DUP3 DUP3 SHR SWAP1 POP SWAP3 SWAP2 POP POP JUMP JUMPDEST PUSH1 0x0 PUSH2 0x2C10 PUSH1 0x0 NOT DUP5 PUSH1 0x8 MUL PUSH2 0x2BF2 JUMP JUMPDEST NOT DUP1 DUP4 AND SWAP2 POP POP SWAP3 SWAP2 POP POP JUMP JUMPDEST PUSH1 0x0 PUSH2 0x2C29 DUP4 DUP4 PUSH2 0x2BFF JUMP JUMPDEST SWAP2 POP DUP3 PUSH1 0x2 MUL DUP3 OR SWAP1 POP SWAP3 SWAP2 POP POP JUMP JUMPDEST PUSH2 0x2C42 DUP3 PUSH2 0x1DEF JUMP JUMPDEST PUSH8 0xFFFFFFFFFFFFFFFF DUP2 GT ISZERO PUSH2 0x2C5B JUMPI PUSH2 0x2C5A PUSH2 0x1F6C JUMP JUMPDEST JUMPDEST PUSH2 0x2C65 DUP3 SLOAD PUSH2 0x28B1 JUMP JUMPDEST PUSH2 0x2C70 DUP3 DUP3 DUP6 PUSH2 0x2BAC JUMP JUMPDEST PUSH1 0x0 PUSH1 0x20 SWAP1 POP PUSH1 0x1F DUP4 GT PUSH1 0x1 DUP2 EQ PUSH2 0x2CA3 JUMPI PUSH1 0x0 DUP5 ISZERO PUSH2 0x2C91 JUMPI DUP3 DUP8 ADD MLOAD SWAP1 POP JUMPDEST PUSH2 0x2C9B DUP6 DUP3 PUSH2 0x2C1D JUMP JUMPDEST DUP7 SSTORE POP PUSH2 0x2D03 JUMP JUMPDEST PUSH1 0x1F NOT DUP5 AND PUSH2 0x2CB1 DUP7 PUSH2 0x2A8D JUMP JUMPDEST PUSH1 0x0 JUMPDEST DUP3 DUP2 LT ISZERO PUSH2 0x2CD9 JUMPI DUP5 DUP10 ADD MLOAD DUP3 SSTORE PUSH1 0x1 DUP3 ADD SWAP2 POP PUSH1 0x20 DUP6 ADD SWAP5 POP PUSH1 0x20 DUP2 ADD SWAP1 POP PUSH2 0x2CB4 JUMP JUMPDEST DUP7 DUP4 LT ISZERO PUSH2 0x2CF6 JUMPI DUP5 DUP10 ADD MLOAD PUSH2 0x2CF2 PUSH1 0x1F DUP10 AND DUP3 PUSH2 0x2BFF JUMP JUMPDEST DUP4 SSTORE POP JUMPDEST PUSH1 0x1 PUSH1 0x2 DUP9 MUL ADD DUP9 SSTORE POP POP POP JUMPDEST POP POP POP POP POP POP JUMP JUMPDEST PUSH1 0x0 PUSH2 0x2D16 DUP3 PUSH2 0x1D8C JUMP JUMPDEST SWAP2 POP PUSH2 0x2D21 DUP4 PUSH2 0x1D8C JUMP JUMPDEST SWAP3 POP DUP3 DUP3 SUB SWAP1 POP DUP2 DUP2 GT ISZERO PUSH2 0x2D39 JUMPI PUSH2 0x2D38 PUSH2 0x2964 JUMP JUMPDEST JUMPDEST SWAP3 SWAP2 POP POP JUMP JUMPDEST PUSH1 0x0 PUSH2 0x2D4A DUP3 PUSH2 0x1D8C JUMP JUMPDEST SWAP2 POP PUSH2 0x2D55 DUP4 PUSH2 0x1D8C JUMP JUMPDEST SWAP3 POP DUP3 DUP3 ADD SWAP1 POP DUP1 DUP3 GT ISZERO PUSH2 0x2D6D JUMPI PUSH2 0x2D6C PUSH2 0x2964 JUMP JUMPDEST JUMPDEST SWAP3 SWAP2 POP POP JUMP INVALID LOG2 PUSH5 0x6970667358 0x22 SLT KECCAK256 PUSH14 0x3B3E5754D0BDFD650ECE173F65B2 0xC4 0xDA MOD RETURNDATACOPY 0xE6 DUP6 0xF8 0xE4 JUMPI 0xEA 0xB8 0x2B ADD SWAP14 NUMBER SWAP14 PUSH5 0x64736F6C63 NUMBER STOP ADDMOD GT STOP CALLER "},"gasEstimates":{"creation":{"codeDepositCost":"2337800","executionCost":"2508","totalCost":"2340308"},"external":{"balance()":"428","bank(address)":"2904","billingHistory(uint256)":"infinite","dataSummaryExists(string,string)":"infinite","dataSummaryTable(address,string,address)":"infinite","deposit()":"infinite","fetchUserDataSummary(string)":"infinite","operatorAddresses(uint256)":"5023","operatorsAddrToName(address)":"infinite","operatorsNameToAddr(string)":"infinite","registerRoamingOperator(address,string,uint256)":"infinite","serviceProviders(uint256)":"infinite","totalDeposit()":"2495","transfer(address,uint256)":"infinite","uploadUserDataSummary(string,string,string,uint256,uint256,uint256,uint256,uint256,uint256,uint256,uint256)":"infinite","userTable(address,uint256)":"infinite"}},"methodIdentifiers":{"balance()":"b69ef8a8","bank(address)":"529a1baf","billingHistory(uint256)":"0cb31a80","dataSummaryExists(string,string)":"ab6a9f17","dataSummaryTable(address,string,address)":"32f97763","deposit()":"d0e30db0","fetchUserDataSummary(string)":"a8367070","operatorAddresses(uint256)":"7792a035","operatorsAddrToName(address)":"64aa65a8","operatorsNameToAddr(string)":"fd70c7dd","registerRoamingOperator(address,string,uint256)":"bdc6ab03","serviceProviders(uint256)":"0a02dcc7","totalDeposit()":"f6153ccd","transfer(address,uint256)":"a9059cbb","uploadUserDataSummary(string,string,string,uint256,uint256,uint256,uint256,uint256,uint256,uint256,uint256)":"b205b4f6","userTable(address,uint256)":"6e6061d1"}},"storageLayout":{"storage":[{"astId":4,"contract":"RoamingDataManagement.sol:RoamingDataManagement","label":"serviceProviders","offset":0,"slot":"0","type":"t_array(t_string_storage)dyn_storage"},{"astId":7,"contract":"RoamingDataManagement.sol:RoamingDataManagement","label":"operatorAddresses","offset":0,"slot":"1","type":"t_array(t_address)dyn_storage"},{"astId":11,"contract":"RoamingDataManagement.sol:RoamingDataManagement","label":"operatorsAddrToName","offset":0,"slot":"2","type":"t_mapping(t_address,t_string_storage)"},{"astId":15,"contract":"RoamingDataManagement.sol:RoamingDataManagement","label":"operatorsNameToAddr","offset":0,"slot":"3","type":"t_mapping(t_string_memory_ptr,t_address)"},{"astId":17,"contract":"RoamingDataManagement.sol:RoamingDataManagement","label":"totalDeposit","offset":0,"slot":"4","type":"t_uint256"},{"astId":51,"contract":"RoamingDataManagement.sol:RoamingDataManagement","label":"billingHistory","offset":0,"slot":"5","type":"t_array(t_struct(BillingRecord)47_storage)dyn_storage"},{"astId":56,"contract":"RoamingDataManagement.sol:RoamingDataManagement","label":"userTable","offset":0,"slot":"6","type":"t_mapping(t_address,t_array(t_string_storage)dyn_storage)"},{"astId":65,"contract":"RoamingDataManagement.sol:RoamingDataManagement","label":"dataSummaryTable","offset":0,"slot":"7","type":"t_mapping(t_address,t_mapping(t_string_memory_ptr,t_mapping(t_address,t_struct(UserDataSummary)38_storage)))"},{"astId":71,"contract":"RoamingDataManagement.sol:RoamingDataManagement","label":"numOfUserDataEntries","offset":0,"slot":"8","type":"t_mapping(t_address,t_mapping(t_string_memory_ptr,t_uint256))"},{"astId":75,"contract":"RoamingDataManagement.sol:RoamingDataManagement","label":"bank","offset":0,"slot":"9","type":"t_mapping(t_address,t_uint256)"}],"types":{"t_address":{"encoding":"inplace","label":"address","numberOfBytes":"20"},"t_array(t_address)dyn_storage":{"base":"t_address","encoding":"dynamic_array","label":"address[]","numberOfBytes":"32"},"t_array(t_string_storage)dyn_storage":{"base":"t_string_storage","encoding":"dynamic_array","label":"string[]","numberOfBytes":"32"},"t_array(t_struct(BillingRecord)47_storage)dyn_storage":{"base":"t_struct(BillingRecord)47_storage","encoding":"dynamic_array","label":"struct RoamingDataManagement.BillingRecord[]","numberOfBytes":"32"},"t_mapping(t_address,t_array(t_string_storage)dyn_storage)":{"encoding":"mapping","key":"t_address","label":"mapping(address => string[])","numberOfBytes":"32","value":"t_array(t_string_storage)dyn_storage"},"t_mapping(t_address,t_mapping(t_string_memory_ptr,t_mapping(t_address,t_struct(UserDataSummary)38_storage)))":{"encoding":"mapping","key":"t_address","label":"mapping(address => mapping(string => mapping(address => struct RoamingDataManagement.UserDataSummary)))","numberOfBytes":"32","value":"t_mapping(t_string_memory_ptr,t_mapping(t_address,t_struct(UserDataSummary)38_storage))"},"t_mapping(t_address,t_mapping(t_string_memory_ptr,t_uint256))":{"encoding":"mapping","key":"t_address","label":"mapping(address => mapping(string => uint256))","numberOfBytes":"32","value":"t_mapping(t_string_memory_ptr,t_uint256)"},"t_mapping(t_address,t_string_storage)":{"encoding":"mapping","key":"t_address","label":"mapping(address => string)","numberOfBytes":"32","value":"t_string_storage"},"t_mapping(t_address,t_struct(UserDataSummary)38_storage)":{"encoding":"mapping","key":"t_address","label":"mapping(address => struct RoamingDataManagement.UserDataSummary)","numberOfBytes":"32","value":"t_struct(UserDataSummary)38_storage"},"t_mapping(t_address,t_uint256)":{"encoding":"mapping","key":"t_address","label":"mapping(address => uint256)","numberOfBytes":"32","value":"t_uint256"},"t_mapping(t_string_memory_ptr,t_address)":{"encoding":"mapping","key":"t_string_memory_ptr","label":"mapping(string => address)","numberOfBytes":"32","value":"t_address"},"t_mapping(t_string_memory_ptr,t_mapping(t_address,t_struct(UserDataSummary)38_storage))":{"encoding":"mapping","key":"t_string_memory_ptr","label":"mapping(string => mapping(address => struct RoamingDataManagement.UserDataSummary))","numberOfBytes":"32","value":"t_mapping(t_address,t_struct(UserDataSummary)38_storage)"},"t_mapping(t_string_memory_ptr,t_uint256)":{"encoding":"mapping","key":"t_string_memory_ptr","label":"mapping(string => uint256)","numberOfBytes":"32","value":"t_uint256"},"t_string_memory_ptr":{"encoding":"bytes","label":"string","numberOfBytes":"32"},"t_string_storage":{"encoding":"bytes","label":"string","numberOfBytes":"32"},"t_struct(BillingRecord)47_storage":{"encoding":"inplace","label":"struct RoamingDataManagement.BillingRecord","members":[{"astId":40,"contract":"RoamingDataManagement.sol:RoamingDataManagement","label":"payer","offset":0,"slot":"0","type":"t_address"},{"astId":42,"contract":"RoamingDataManagement.sol:RoamingDataManagement","label":"payee","offset":0,"slot":"1","type":"t_address"},{"astId":44,"contract":"RoamingDataManagement.sol:RoamingDataManagement","label":"amount","offset":0,"slot":"2","type":"t_uint256"},{"astId":46,"contract":"RoamingDataManagement.sol:RoamingDataManagement","label":"timestamp","offset":0,"slot":"3","type":"t_uint256"}],"numberOfBytes":"128"},"t_struct(UserDataSummary)38_storage":{"encoding":"inplace","label":"struct RoamingDataManagement.UserDataSummary","members":[{"astId":19,"contract":"RoamingDataManagement.sol:RoamingDataManagement","label":"imsi","offset":0,"slot":"0","type":"t_string_storage"},{"astId":21,"contract":"RoamingDataManagement.sol:RoamingDataManagement","label":"number","offset":0,"slot":"1","type":"t_string_storage"},{"astId":23,"contract":"RoamingDataManagement.sol:RoamingDataManagement","label":"serviceProvider","offset":0,"slot":"2","type":"t_string_storage"},{"astId":25,"contract":"RoamingDataManagement.sol:RoamingDataManagement","label":"serviceStartTime","offset":0,"slot":"3","type":"t_uint256"},{"astId":27,"contract":"RoamingDataManagement.sol:RoamingDataManagement","label":"voiceCallStartTime","offset":0,"slot":"4","type":"t_uint256"},{"astId":29,"contract":"RoamingDataManagement.sol:RoamingDataManagement","label":"smsStartTime","offset":0,"slot":"5","type":"t_uint256"},{"astId":31,"contract":"RoamingDataManagement.sol:RoamingDataManagement","label":"internetStartTime","offset":0,"slot":"6","type":"t_uint256"},{"astId":33,"contract":"RoamingDataManagement.sol:RoamingDataManagement","label":"voiceCallUsage","offset":0,"slot":"7","type":"t_uint256"},{"astId":35,"contract":"RoamingDataManagement.sol:RoamingDataManagement","label":"internetUsage","offset":0,"slot":"8","type":"t_uint256"},{"astId":37,"contract":"RoamingDataManagement.sol:RoamingDataManagement","label":"smsUsage","offset":0,"slot":"9","type":"t_uint256"}],"numberOfBytes":"320"},"t_uint256":{"encoding":"inplace","label":"uint256","numberOfBytes":"32"}}},"userdoc":{"kind":"user","methods":{},"version":1}}