{"abi":[{"inputs":[],"stateMutability":"nonpayable","type":"constructor"},{"inputs":[],"name":"balance","outputs":[{"internalType":"uint256","name":"","type":"uint256"}],"stateMutability":"view","type":"function"},{"inputs":[{"internalType":"address","name":"","type":"address"}],"name":"bank","outputs":[{"internalType":"uint256","name":"","type":"uint256"}],"stateMutability":"view","type":"function"},{"inputs":[{"internalType":"uint256","name":"","type":"uint256"}],"name":"billingHistory","outputs":[{"internalType":"address","name":"payer","type":"address"},{"internalType":"address","name":"payee","type":"address"},{"internalType":"string","name":"payerName","type":"string"},{"internalType":"string","name":"payeeName","type":"string"},{"internalType":"uint256","name":"amount","type":"uint256"},{"internalType":"uint256","name":"timestamp","type":"uint256"}],"stateMutability":"view","type":"function"},{"inputs":[{"internalType":"string","name":"imsi","type":"string"},{"internalType":"string","name":"homeOperator","type":"string"}],"name":"dataSummaryExists","outputs":[{"internalType":"bool","name":"","type":"bool"}],"stateMutability":"view","type":"function"},{"inputs":[{"internalType":"address","name":"","type":"address"},{"internalType":"string","name":"","type":"string"},{"internalType":"address","name":"","type":"address"}],"name":"dataSummaryTable","outputs":[{"internalType":"string","name":"imsi","type":"string"},{"internalType":"string","name":"number","type":"string"},{"internalType":"string","name":"serviceProvider","type":"string"},{"internalType":"uint256","name":"serviceStartTime","type":"uint256"},{"internalType":"uint256","name":"voiceCallStartTime","type":"uint256"},{"internalType":"uint256","name":"smsStartTime","type":"uint256"},{"internalType":"uint256","name":"internetStartTime","type":"uint256"},{"internalType":"uint256","name":"voiceCallUsage","type":"uint256"},{"internalType":"uint256","name":"internetUsage","type":"uint256"},{"internalType":"uint256","name":"smsUsage","type":"uint256"}],"stateMutability":"view","type":"function"},{"inputs":[],"name":"deposit","outputs":[],"stateMutability":"payable","type":"function"},{"inputs":[],"name":"fetchBillingHistory","outputs":[{"components":[{"internalType":"address","name":"payer","type":"address"},{"internalType":"address","name":"payee","type":"address"},{"internalType":"string","name":"payerName","type":"string"},{"internalType":"string","name":"payeeName","type":"string"},{"internalType":"uint256","name":"amount","type":"uint256"},{"internalType":"uint256","name":"timestamp","type":"uint256"}],"internalType":"struct RoamingDataManagement.BillingRecord[]","name":"","type":"tuple[]"}],"stateMutability":"view","type":"function"},{"inputs":[{"internalType":"string","name":"visitingOperatorName","type":"string"},{"internalType":"string","name":"secretKey","type":"string"}],"name":"fetchUserDataSummary","outputs":[{"internalType":"string[]","name":"","type":"string[]"},{"components":[{"internalType":"string","name":"imsi","type":"string"},{"internalType":"string","name":"number","type":"string"},{"internalType":"string","name":"serviceProvider","type":"string"},{"internalType":"uint256","name":"serviceStartTime","type":"uint256"},{"internalType":"uint256","name":"voiceCallStartTime","type":"uint256"},{"internalType":"uint256","name":"smsStartTime","type":"uint256"},{"internalType":"uint256","name":"internetStartTime","type":"uint256"},{"internalType":"uint256","name":"voiceCallUsage","type":"uint256"},{"internalType":"uint256","name":"internetUsage","type":"uint256"},{"internalType":"uint256","name":"smsUsage","type":"uint256"}],"internalType":"struct RoamingDataManagement.UserDataSummary[]","name":"","type":"tuple[]"}],"stateMutability":"view","type":"function"},{"inputs":[{"internalType":"uint256","name":"","type":"uint256"}],"name":"operatorAddresses","outputs":[{"internalType":"address","name":"","type":"address"}],"stateMutability":"view","type":"function"},{"inputs":[{"internalType":"address","name":"","type":"address"}],"name":"operatorSecretKeysCID","outputs":[{"internalType":"string","name":"","type":"string"}],"stateMutability":"view","type":"function"},{"inputs":[{"internalType":"address","name":"","type":"address"}],"name":"operatorsAddrToName","outputs":[{"internalType":"string","name":"","type":"string"}],"stateMutability":"view","type":"function"},{"inputs":[{"internalType":"string","name":"","type":"string"}],"name":"operatorsNameToAddr","outputs":[{"internalType":"address","name":"","type":"address"}],"stateMutability":"view","type":"function"},{"inputs":[{"internalType":"address","name":"operatorAddr","type":"address"},{"internalType":"string","name":"operatorName","type":"string"},{"internalType":"uint256","name":"currentTimestamp","type":"uint256"},{"internalType":"string","name":"secretKey","type":"string"}],"name":"registerRoamingOperator","outputs":[],"stateMutability":"payable","type":"function"},{"inputs":[{"internalType":"uint256","name":"","type":"uint256"}],"name":"serviceProviders","outputs":[{"internalType":"string","name":"","type":"string"}],"stateMutability":"view","type":"function"},{"inputs":[],"name":"totalDeposit","outputs":[{"internalType":"uint256","name":"","type":"uint256"}],"stateMutability":"view","type":"function"},{"inputs":[{"internalType":"address payable","name":"_to","type":"address"},{"internalType":"uint256","name":"_amount","type":"uint256"}],"name":"transfer","outputs":[],"stateMutability":"nonpayable","type":"function"},{"inputs":[{"internalType":"address","name":"addr","type":"address"},{"internalType":"string","name":"secretKey","type":"string"}],"name":"uploadSecretKey","outputs":[],"stateMutability":"nonpayable","type":"function"},{"inputs":[{"internalType":"string","name":"imsi","type":"string"},{"internalType":"string","name":"number","type":"string"},{"internalType":"string","name":"serviceProvider","type":"string"},{"internalType":"uint256","name":"voiceCallUsage","type":"uint256"},{"internalType":"uint256","name":"internetUsage","type":"uint256"},{"internalType":"uint256","name":"smsUsage","type":"uint256"},{"internalType":"uint256","name":"serviceStartTime","type":"uint256"},{"internalType":"uint256","name":"internetStartTime","type":"uint256"},{"internalType":"uint256","name":"voiceCallStartTime","type":"uint256"},{"internalType":"uint256","name":"smsStartTime","type":"uint256"},{"internalType":"uint256","name":"currentTimestamp","type":"uint256"}],"name":"uploadUserDataSummary","outputs":[],"stateMutability":"nonpayable","type":"function"},{"inputs":[{"internalType":"address","name":"","type":"address"},{"internalType":"uint256","name":"","type":"uint256"}],"name":"userTable","outputs":[{"internalType":"string","name":"","type":"string"}],"stateMutability":"view","type":"function"},{"stateMutability":"payable","type":"receive"}],"devdoc":{"kind":"dev","methods":{},"version":1},"evm":{"assembly":"    /* \"RoamingDataManagement.sol\":57:7798  contract RoamingDataManagement {... */\n  mstore(0x40, 0x80)\n    /* \"RoamingDataManagement.sol\":1641:1663  constructor() {... */\n  callvalue\n  dup1\n  iszero\n  tag_1\n  jumpi\n  0x00\n  dup1\n  revert\ntag_1:\n  pop\n    /* \"RoamingDataManagement.sol\":57:7798  contract RoamingDataManagement {... */\n  dataSize(sub_0)\n  dup1\n  dataOffset(sub_0)\n  0x00\n  codecopy\n  0x00\n  return\nstop\n\nsub_0: assembly {\n        /* \"RoamingDataManagement.sol\":57:7798  contract RoamingDataManagement {... */\n      mstore(0x40, 0x80)\n      jumpi(tag_1, lt(calldatasize, 0x04))\n      shr(0xe0, calldataload(0x00))\n      dup1\n      0x6e6061d1\n      gt\n      tag_22\n      jumpi\n      dup1\n      0xb69ef8a8\n      gt\n      tag_23\n      jumpi\n      dup1\n      0xb69ef8a8\n      eq\n      tag_17\n      jumpi\n      dup1\n      0xd0e30db0\n      eq\n      tag_18\n      jumpi\n      dup1\n      0xf6153ccd\n      eq\n      tag_19\n      jumpi\n      dup1\n      0xfd70c7dd\n      eq\n      tag_20\n      jumpi\n      dup1\n      0xfea2fee9\n      eq\n      tag_21\n      jumpi\n      jump(tag_2)\n    tag_23:\n      dup1\n      0x6e6061d1\n      eq\n      tag_12\n      jumpi\n      dup1\n      0x7792a035\n      eq\n      tag_13\n      jumpi\n      dup1\n      0xa9059cbb\n      eq\n      tag_14\n      jumpi\n      dup1\n      0xab6a9f17\n      eq\n      tag_15\n      jumpi\n      dup1\n      0xb205b4f6\n      eq\n      tag_16\n      jumpi\n      jump(tag_2)\n    tag_22:\n      dup1\n      0x32f97763\n      gt\n      tag_24\n      jumpi\n      dup1\n      0x32f97763\n      eq\n      tag_7\n      jumpi\n      dup1\n      0x44c5c6a5\n      eq\n      tag_8\n      jumpi\n      dup1\n      0x529a1baf\n      eq\n      tag_9\n      jumpi\n      dup1\n      0x5e7d7faa\n      eq\n      tag_10\n      jumpi\n      dup1\n      0x64aa65a8\n      eq\n      tag_11\n      jumpi\n      jump(tag_2)\n    tag_24:\n      dup1\n      0x0a02dcc7\n      eq\n      tag_3\n      jumpi\n      dup1\n      0x0cb31a80\n      eq\n      tag_4\n      jumpi\n      dup1\n      0x11f7b547\n      eq\n      tag_5\n      jumpi\n      dup1\n      0x1889da0a\n      eq\n      tag_6\n      jumpi\n      jump(tag_2)\n    tag_1:\n      jumpi(tag_2, calldatasize)\n        /* \"RoamingDataManagement.sol\":1813:1819  1 gwei */\n      0x3b9aca00\n        /* \"RoamingDataManagement.sol\":1800:1809  msg.value */\n      callvalue\n        /* \"RoamingDataManagement.sol\":1800:1819  msg.value >= 1 gwei */\n      lt\n      iszero\n        /* \"RoamingDataManagement.sol\":1792:1820  require(msg.value >= 1 gwei) */\n      tag_27\n      jumpi\n      0x00\n      dup1\n      revert\n    tag_27:\n        /* \"RoamingDataManagement.sol\":57:7798  contract RoamingDataManagement {... */\n      stop\n    tag_2:\n      0x00\n      dup1\n      revert\n        /* \"RoamingDataManagement.sol\":197:229  string[] public serviceProviders */\n    tag_3:\n      callvalue\n      dup1\n      iszero\n      tag_28\n      jumpi\n      0x00\n      dup1\n      revert\n    tag_28:\n      pop\n      tag_29\n      0x04\n      dup1\n      calldatasize\n      sub\n      dup2\n      add\n      swap1\n      tag_30\n      swap2\n      swap1\n      tag_31\n      jump\t// in\n    tag_30:\n      tag_32\n      jump\t// in\n    tag_29:\n      mload(0x40)\n      tag_33\n      swap2\n      swap1\n      tag_34\n      jump\t// in\n    tag_33:\n      mload(0x40)\n      dup1\n      swap2\n      sub\n      swap1\n      return\n        /* \"RoamingDataManagement.sol\":1013:1050  BillingRecord[] public billingHistory */\n    tag_4:\n      callvalue\n      dup1\n      iszero\n      tag_35\n      jumpi\n      0x00\n      dup1\n      revert\n    tag_35:\n      pop\n      tag_36\n      0x04\n      dup1\n      calldatasize\n      sub\n      dup2\n      add\n      swap1\n      tag_37\n      swap2\n      swap1\n      tag_31\n      jump\t// in\n    tag_37:\n      tag_38\n      jump\t// in\n    tag_36:\n      mload(0x40)\n      tag_39\n      swap7\n      swap6\n      swap5\n      swap4\n      swap3\n      swap2\n      swap1\n      tag_40\n      jump\t// in\n    tag_39:\n      mload(0x40)\n      dup1\n      swap2\n      sub\n      swap1\n      return\n        /* \"RoamingDataManagement.sol\":394:449  mapping(address => string) public operatorSecretKeysCID */\n    tag_5:\n      callvalue\n      dup1\n      iszero\n      tag_41\n      jumpi\n      0x00\n      dup1\n      revert\n    tag_41:\n      pop\n      tag_42\n      0x04\n      dup1\n      calldatasize\n      sub\n      dup2\n      add\n      swap1\n      tag_43\n      swap2\n      swap1\n      tag_44\n      jump\t// in\n    tag_43:\n      tag_45\n      jump\t// in\n    tag_42:\n      mload(0x40)\n      tag_46\n      swap2\n      swap1\n      tag_34\n      jump\t// in\n    tag_46:\n      mload(0x40)\n      dup1\n      swap2\n      sub\n      swap1\n      return\n        /* \"RoamingDataManagement.sol\":6375:7224  function fetchUserDataSummary(string memory visitingOperatorName, string memory secretKey) public view returns(string[] memory, UserDataSummary[] memory) {... */\n    tag_6:\n      callvalue\n      dup1\n      iszero\n      tag_47\n      jumpi\n      0x00\n      dup1\n      revert\n    tag_47:\n      pop\n      tag_48\n      0x04\n      dup1\n      calldatasize\n      sub\n      dup2\n      add\n      swap1\n      tag_49\n      swap2\n      swap1\n      tag_50\n      jump\t// in\n    tag_49:\n      tag_51\n      jump\t// in\n    tag_48:\n      mload(0x40)\n      tag_52\n      swap3\n      swap2\n      swap1\n      tag_53\n      jump\t// in\n    tag_52:\n      mload(0x40)\n      dup1\n      swap2\n      sub\n      swap1\n      return\n        /* \"RoamingDataManagement.sol\":1421:1519  mapping(address => mapping(string => mapping(address => UserDataSummary))) public dataSummaryTable */\n    tag_7:\n      callvalue\n      dup1\n      iszero\n      tag_54\n      jumpi\n      0x00\n      dup1\n      revert\n    tag_54:\n      pop\n      tag_55\n      0x04\n      dup1\n      calldatasize\n      sub\n      dup2\n      add\n      swap1\n      tag_56\n      swap2\n      swap1\n      tag_57\n      jump\t// in\n    tag_56:\n      tag_58\n      jump\t// in\n    tag_55:\n      mload(0x40)\n      tag_59\n      swap11\n      swap10\n      swap9\n      swap8\n      swap7\n      swap6\n      swap5\n      swap4\n      swap3\n      swap2\n      swap1\n      tag_60\n      jump\t// in\n    tag_59:\n      mload(0x40)\n      dup1\n      swap2\n      sub\n      swap1\n      return\n        /* \"RoamingDataManagement.sol\":7230:7343  function fetchBillingHistory() public view returns(BillingRecord[] memory) {... */\n    tag_8:\n      callvalue\n      dup1\n      iszero\n      tag_61\n      jumpi\n      0x00\n      dup1\n      revert\n    tag_61:\n      pop\n      tag_62\n      tag_63\n      jump\t// in\n    tag_62:\n      mload(0x40)\n      tag_64\n      swap2\n      swap1\n      tag_65\n      jump\t// in\n    tag_64:\n      mload(0x40)\n      dup1\n      swap2\n      sub\n      swap1\n      return\n        /* \"RoamingDataManagement.sol\":1595:1634  mapping(address => uint256) public bank */\n    tag_9:\n      callvalue\n      dup1\n      iszero\n      tag_66\n      jumpi\n      0x00\n      dup1\n      revert\n    tag_66:\n      pop\n      tag_67\n      0x04\n      dup1\n      calldatasize\n      sub\n      dup2\n      add\n      swap1\n      tag_68\n      swap2\n      swap1\n      tag_44\n      jump\t// in\n    tag_68:\n      tag_69\n      jump\t// in\n    tag_67:\n      mload(0x40)\n      tag_70\n      swap2\n      swap1\n      tag_71\n      jump\t// in\n    tag_70:\n      mload(0x40)\n      dup1\n      swap2\n      sub\n      swap1\n      return\n        /* \"RoamingDataManagement.sol\":7349:7541  function uploadSecretKey(address addr, string memory secretKey) public {... */\n    tag_10:\n      callvalue\n      dup1\n      iszero\n      tag_72\n      jumpi\n      0x00\n      dup1\n      revert\n    tag_72:\n      pop\n      tag_73\n      0x04\n      dup1\n      calldatasize\n      sub\n      dup2\n      add\n      swap1\n      tag_74\n      swap2\n      swap1\n      tag_75\n      jump\t// in\n    tag_74:\n      tag_76\n      jump\t// in\n    tag_73:\n      stop\n        /* \"RoamingDataManagement.sol\":276:329  mapping(address => string) public operatorsAddrToName */\n    tag_11:\n      callvalue\n      dup1\n      iszero\n      tag_77\n      jumpi\n      0x00\n      dup1\n      revert\n    tag_77:\n      pop\n      tag_78\n      0x04\n      dup1\n      calldatasize\n      sub\n      dup2\n      add\n      swap1\n      tag_79\n      swap2\n      swap1\n      tag_44\n      jump\t// in\n    tag_79:\n      tag_80\n      jump\t// in\n    tag_78:\n      mload(0x40)\n      tag_81\n      swap2\n      swap1\n      tag_34\n      jump\t// in\n    tag_81:\n      mload(0x40)\n      dup1\n      swap2\n      sub\n      swap1\n      return\n        /* \"RoamingDataManagement.sol\":1143:1188  mapping(address => string[]) public userTable */\n    tag_12:\n      callvalue\n      dup1\n      iszero\n      tag_82\n      jumpi\n      0x00\n      dup1\n      revert\n    tag_82:\n      pop\n      tag_83\n      0x04\n      dup1\n      calldatasize\n      sub\n      dup2\n      add\n      swap1\n      tag_84\n      swap2\n      swap1\n      tag_85\n      jump\t// in\n    tag_84:\n      tag_86\n      jump\t// in\n    tag_83:\n      mload(0x40)\n      tag_87\n      swap2\n      swap1\n      tag_34\n      jump\t// in\n    tag_87:\n      mload(0x40)\n      dup1\n      swap2\n      sub\n      swap1\n      return\n        /* \"RoamingDataManagement.sol\":235:269  address[] public operatorAddresses */\n    tag_13:\n      callvalue\n      dup1\n      iszero\n      tag_88\n      jumpi\n      0x00\n      dup1\n      revert\n    tag_88:\n      pop\n      tag_89\n      0x04\n      dup1\n      calldatasize\n      sub\n      dup2\n      add\n      swap1\n      tag_90\n      swap2\n      swap1\n      tag_31\n      jump\t// in\n    tag_90:\n      tag_91\n      jump\t// in\n    tag_89:\n      mload(0x40)\n      tag_92\n      swap2\n      swap1\n      tag_93\n      jump\t// in\n    tag_92:\n      mload(0x40)\n      dup1\n      swap2\n      sub\n      swap1\n      return\n        /* \"RoamingDataManagement.sol\":7622:7796  function transfer(address payable _to, uint _amount) public {... */\n    tag_14:\n      callvalue\n      dup1\n      iszero\n      tag_94\n      jumpi\n      0x00\n      dup1\n      revert\n    tag_94:\n      pop\n      tag_95\n      0x04\n      dup1\n      calldatasize\n      sub\n      dup2\n      add\n      swap1\n      tag_96\n      swap2\n      swap1\n      tag_97\n      jump\t// in\n    tag_96:\n      tag_98\n      jump\t// in\n    tag_95:\n      stop\n        /* \"RoamingDataManagement.sol\":6049:6243  function dataSummaryExists(string memory imsi, string memory homeOperator) public view returns(bool) {... */\n    tag_15:\n      callvalue\n      dup1\n      iszero\n      tag_99\n      jumpi\n      0x00\n      dup1\n      revert\n    tag_99:\n      pop\n      tag_100\n      0x04\n      dup1\n      calldatasize\n      sub\n      dup2\n      add\n      swap1\n      tag_101\n      swap2\n      swap1\n      tag_50\n      jump\t// in\n    tag_101:\n      tag_102\n      jump\t// in\n    tag_100:\n      mload(0x40)\n      tag_103\n      swap2\n      swap1\n      tag_104\n      jump\t// in\n    tag_103:\n      mload(0x40)\n      dup1\n      swap2\n      sub\n      swap1\n      return\n        /* \"RoamingDataManagement.sol\":3160:6043  function uploadUserDataSummary(string memory imsi, string memory number, string memory serviceProvider,... */\n    tag_16:\n      callvalue\n      dup1\n      iszero\n      tag_105\n      jumpi\n      0x00\n      dup1\n      revert\n    tag_105:\n      pop\n      tag_106\n      0x04\n      dup1\n      calldatasize\n      sub\n      dup2\n      add\n      swap1\n      tag_107\n      swap2\n      swap1\n      tag_108\n      jump\t// in\n    tag_107:\n      tag_109\n      jump\t// in\n    tag_106:\n      stop\n        /* \"RoamingDataManagement.sol\":1833:1932  function balance() external view returns(uint256)... */\n    tag_17:\n      callvalue\n      dup1\n      iszero\n      tag_110\n      jumpi\n      0x00\n      dup1\n      revert\n    tag_110:\n      pop\n      tag_111\n      tag_112\n      jump\t// in\n    tag_111:\n      mload(0x40)\n      tag_113\n      swap2\n      swap1\n      tag_71\n      jump\t// in\n    tag_113:\n      mload(0x40)\n      dup1\n      swap2\n      sub\n      swap1\n      return\n        /* \"RoamingDataManagement.sol\":1669:1749  function deposit() public payable... */\n    tag_18:\n      tag_114\n      tag_115\n      jump\t// in\n    tag_114:\n      stop\n        /* \"RoamingDataManagement.sol\":457:481  uint public totalDeposit */\n    tag_19:\n      callvalue\n      dup1\n      iszero\n      tag_116\n      jumpi\n      0x00\n      dup1\n      revert\n    tag_116:\n      pop\n      tag_117\n      tag_118\n      jump\t// in\n    tag_117:\n      mload(0x40)\n      tag_119\n      swap2\n      swap1\n      tag_71\n      jump\t// in\n    tag_119:\n      mload(0x40)\n      dup1\n      swap2\n      sub\n      swap1\n      return\n        /* \"RoamingDataManagement.sol\":335:388  mapping(string => address) public operatorsNameToAddr */\n    tag_20:\n      callvalue\n      dup1\n      iszero\n      tag_120\n      jumpi\n      0x00\n      dup1\n      revert\n    tag_120:\n      pop\n      tag_121\n      0x04\n      dup1\n      calldatasize\n      sub\n      dup2\n      add\n      swap1\n      tag_122\n      swap2\n      swap1\n      tag_123\n      jump\t// in\n    tag_122:\n      tag_124\n      jump\t// in\n    tag_121:\n      mload(0x40)\n      tag_125\n      swap2\n      swap1\n      tag_93\n      jump\t// in\n    tag_125:\n      mload(0x40)\n      dup1\n      swap2\n      sub\n      swap1\n      return\n        /* \"RoamingDataManagement.sol\":1938:3154  function registerRoamingOperator(address operatorAddr, string memory operatorName, uint256 currentTimestamp, string memory secretKey) public payable {... */\n    tag_21:\n      tag_126\n      0x04\n      dup1\n      calldatasize\n      sub\n      dup2\n      add\n      swap1\n      tag_127\n      swap2\n      swap1\n      tag_128\n      jump\t// in\n    tag_127:\n      tag_129\n      jump\t// in\n    tag_126:\n      stop\n        /* \"RoamingDataManagement.sol\":197:229  string[] public serviceProviders */\n    tag_32:\n      0x00\n      dup2\n      dup2\n      sload\n      dup2\n      lt\n      tag_130\n      jumpi\n      0x00\n      dup1\n      revert\n    tag_130:\n      swap1\n      0x00\n      mstore\n      keccak256(0x00, 0x20)\n      add\n      0x00\n      swap2\n      pop\n      swap1\n      pop\n      dup1\n      sload\n      tag_132\n      swap1\n      tag_133\n      jump\t// in\n    tag_132:\n      dup1\n      0x1f\n      add\n      0x20\n      dup1\n      swap2\n      div\n      mul\n      0x20\n      add\n      mload(0x40)\n      swap1\n      dup2\n      add\n      0x40\n      mstore\n      dup1\n      swap3\n      swap2\n      swap1\n      dup2\n      dup2\n      mstore\n      0x20\n      add\n      dup3\n      dup1\n      sload\n      tag_134\n      swap1\n      tag_133\n      jump\t// in\n    tag_134:\n      dup1\n      iszero\n      tag_135\n      jumpi\n      dup1\n      0x1f\n      lt\n      tag_136\n      jumpi\n      0x0100\n      dup1\n      dup4\n      sload\n      div\n      mul\n      dup4\n      mstore\n      swap2\n      0x20\n      add\n      swap2\n      jump(tag_135)\n    tag_136:\n      dup3\n      add\n      swap2\n      swap1\n      0x00\n      mstore\n      keccak256(0x00, 0x20)\n      swap1\n    tag_137:\n      dup2\n      sload\n      dup2\n      mstore\n      swap1\n      0x01\n      add\n      swap1\n      0x20\n      add\n      dup1\n      dup4\n      gt\n      tag_137\n      jumpi\n      dup3\n      swap1\n      sub\n      0x1f\n      and\n      dup3\n      add\n      swap2\n    tag_135:\n      pop\n      pop\n      pop\n      pop\n      pop\n      dup2\n      jump\t// out\n        /* \"RoamingDataManagement.sol\":1013:1050  BillingRecord[] public billingHistory */\n    tag_38:\n      0x06\n      dup2\n      dup2\n      sload\n      dup2\n      lt\n      tag_138\n      jumpi\n      0x00\n      dup1\n      revert\n    tag_138:\n      swap1\n      0x00\n      mstore\n      keccak256(0x00, 0x20)\n      swap1\n      0x06\n      mul\n      add\n      0x00\n      swap2\n      pop\n      swap1\n      pop\n      dup1\n      0x00\n      add\n      0x00\n      swap1\n      sload\n      swap1\n      0x0100\n      exp\n      swap1\n      div\n      0xffffffffffffffffffffffffffffffffffffffff\n      and\n      swap1\n      dup1\n      0x01\n      add\n      0x00\n      swap1\n      sload\n      swap1\n      0x0100\n      exp\n      swap1\n      div\n      0xffffffffffffffffffffffffffffffffffffffff\n      and\n      swap1\n      dup1\n      0x02\n      add\n      dup1\n      sload\n      tag_140\n      swap1\n      tag_133\n      jump\t// in\n    tag_140:\n      dup1\n      0x1f\n      add\n      0x20\n      dup1\n      swap2\n      div\n      mul\n      0x20\n      add\n      mload(0x40)\n      swap1\n      dup2\n      add\n      0x40\n      mstore\n      dup1\n      swap3\n      swap2\n      swap1\n      dup2\n      dup2\n      mstore\n      0x20\n      add\n      dup3\n      dup1\n      sload\n      tag_141\n      swap1\n      tag_133\n      jump\t// in\n    tag_141:\n      dup1\n      iszero\n      tag_142\n      jumpi\n      dup1\n      0x1f\n      lt\n      tag_143\n      jumpi\n      0x0100\n      dup1\n      dup4\n      sload\n      div\n      mul\n      dup4\n      mstore\n      swap2\n      0x20\n      add\n      swap2\n      jump(tag_142)\n    tag_143:\n      dup3\n      add\n      swap2\n      swap1\n      0x00\n      mstore\n      keccak256(0x00, 0x20)\n      swap1\n    tag_144:\n      dup2\n      sload\n      dup2\n      mstore\n      swap1\n      0x01\n      add\n      swap1\n      0x20\n      add\n      dup1\n      dup4\n      gt\n      tag_144\n      jumpi\n      dup3\n      swap1\n      sub\n      0x1f\n      and\n      dup3\n      add\n      swap2\n    tag_142:\n      pop\n      pop\n      pop\n      pop\n      pop\n      swap1\n      dup1\n      0x03\n      add\n      dup1\n      sload\n      tag_145\n      swap1\n      tag_133\n      jump\t// in\n    tag_145:\n      dup1\n      0x1f\n      add\n      0x20\n      dup1\n      swap2\n      div\n      mul\n      0x20\n      add\n      mload(0x40)\n      swap1\n      dup2\n      add\n      0x40\n      mstore\n      dup1\n      swap3\n      swap2\n      swap1\n      dup2\n      dup2\n      mstore\n      0x20\n      add\n      dup3\n      dup1\n      sload\n      tag_146\n      swap1\n      tag_133\n      jump\t// in\n    tag_146:\n      dup1\n      iszero\n      tag_147\n      jumpi\n      dup1\n      0x1f\n      lt\n      tag_148\n      jumpi\n      0x0100\n      dup1\n      dup4\n      sload\n      div\n      mul\n      dup4\n      mstore\n      swap2\n      0x20\n      add\n      swap2\n      jump(tag_147)\n    tag_148:\n      dup3\n      add\n      swap2\n      swap1\n      0x00\n      mstore\n      keccak256(0x00, 0x20)\n      swap1\n    tag_149:\n      dup2\n      sload\n      dup2\n      mstore\n      swap1\n      0x01\n      add\n      swap1\n      0x20\n      add\n      dup1\n      dup4\n      gt\n      tag_149\n      jumpi\n      dup3\n      swap1\n      sub\n      0x1f\n      and\n      dup3\n      add\n      swap2\n    tag_147:\n      pop\n      pop\n      pop\n      pop\n      pop\n      swap1\n      dup1\n      0x04\n      add\n      sload\n      swap1\n      dup1\n      0x05\n      add\n      sload\n      swap1\n      pop\n      dup7\n      jump\t// out\n        /* \"RoamingDataManagement.sol\":394:449  mapping(address => string) public operatorSecretKeysCID */\n    tag_45:\n      mstore(0x20, 0x04)\n      dup1\n      0x00\n      mstore\n      keccak256(0x00, 0x40)\n      0x00\n      swap2\n      pop\n      swap1\n      pop\n      dup1\n      sload\n      tag_150\n      swap1\n      tag_133\n      jump\t// in\n    tag_150:\n      dup1\n      0x1f\n      add\n      0x20\n      dup1\n      swap2\n      div\n      mul\n      0x20\n      add\n      mload(0x40)\n      swap1\n      dup2\n      add\n      0x40\n      mstore\n      dup1\n      swap3\n      swap2\n      swap1\n      dup2\n      dup2\n      mstore\n      0x20\n      add\n      dup3\n      dup1\n      sload\n      tag_151\n      swap1\n      tag_133\n      jump\t// in\n    tag_151:\n      dup1\n      iszero\n      tag_152\n      jumpi\n      dup1\n      0x1f\n      lt\n      tag_153\n      jumpi\n      0x0100\n      dup1\n      dup4\n      sload\n      div\n      mul\n      dup4\n      mstore\n      swap2\n      0x20\n      add\n      swap2\n      jump(tag_152)\n    tag_153:\n      dup3\n      add\n      swap2\n      swap1\n      0x00\n      mstore\n      keccak256(0x00, 0x20)\n      swap1\n    tag_154:\n      dup2\n      sload\n      dup2\n      mstore\n      swap1\n      0x01\n      add\n      swap1\n      0x20\n      add\n      dup1\n      dup4\n      gt\n      tag_154\n      jumpi\n      dup3\n      swap1\n      sub\n      0x1f\n      and\n      dup3\n      add\n      swap2\n    tag_152:\n      pop\n      pop\n      pop\n      pop\n      pop\n      dup2\n      jump\t// out\n        /* \"RoamingDataManagement.sol\":6375:7224  function fetchUserDataSummary(string memory visitingOperatorName, string memory secretKey) public view returns(string[] memory, UserDataSummary[] memory) {... */\n    tag_51:\n        /* \"RoamingDataManagement.sol\":6486:6501  string[] memory */\n      0x60\n        /* \"RoamingDataManagement.sol\":6503:6527  UserDataSummary[] memory */\n      dup1\n        /* \"RoamingDataManagement.sol\":6539:6563  address homeOperatorAddr */\n      0x00\n        /* \"RoamingDataManagement.sol\":6566:6576  msg.sender */\n      caller\n        /* \"RoamingDataManagement.sol\":6539:6576  address homeOperatorAddr = msg.sender */\n      swap1\n      pop\n        /* \"RoamingDataManagement.sol\":6586:6608  string[] storage users */\n      0x00\n        /* \"RoamingDataManagement.sol\":6611:6620  userTable */\n      0x07\n        /* \"RoamingDataManagement.sol\":6611:6638  userTable[homeOperatorAddr] */\n      0x00\n        /* \"RoamingDataManagement.sol\":6621:6637  homeOperatorAddr */\n      dup4\n        /* \"RoamingDataManagement.sol\":6611:6638  userTable[homeOperatorAddr] */\n      0xffffffffffffffffffffffffffffffffffffffff\n      and\n      0xffffffffffffffffffffffffffffffffffffffff\n      and\n      dup2\n      mstore\n      0x20\n      add\n      swap1\n      dup2\n      mstore\n      0x20\n      add\n      0x00\n      keccak256\n        /* \"RoamingDataManagement.sol\":6586:6638  string[] storage users = userTable[homeOperatorAddr] */\n      swap1\n      pop\n        /* \"RoamingDataManagement.sol\":6838:6876  UserDataSummary[] memory dataSummaries */\n      0x00\n        /* \"RoamingDataManagement.sol\":6901:6910  userTable */\n      0x07\n        /* \"RoamingDataManagement.sol\":6901:6928  userTable[homeOperatorAddr] */\n      0x00\n        /* \"RoamingDataManagement.sol\":6911:6927  homeOperatorAddr */\n      dup5\n        /* \"RoamingDataManagement.sol\":6901:6928  userTable[homeOperatorAddr] */\n      0xffffffffffffffffffffffffffffffffffffffff\n      and\n      0xffffffffffffffffffffffffffffffffffffffff\n      and\n      dup2\n      mstore\n      0x20\n      add\n      swap1\n      dup2\n      mstore\n      0x20\n      add\n      0x00\n      keccak256\n        /* \"RoamingDataManagement.sol\":6901:6935  userTable[homeOperatorAddr].length */\n      dup1\n      sload\n      swap1\n      pop\n        /* \"RoamingDataManagement.sol\":6879:6936  new UserDataSummary[](userTable[homeOperatorAddr].length) */\n      0xffffffffffffffff\n      dup2\n      gt\n      iszero\n      tag_156\n      jumpi\n      tag_157\n      tag_158\n      jump\t// in\n    tag_157:\n    tag_156:\n      mload(0x40)\n      swap1\n      dup1\n      dup3\n      mstore\n      dup1\n      0x20\n      mul\n      0x20\n      add\n      dup3\n      add\n      0x40\n      mstore\n      dup1\n      iszero\n      tag_159\n      jumpi\n      dup2\n      0x20\n      add\n    tag_160:\n      tag_161\n      tag_162\n      jump\t// in\n    tag_161:\n      dup2\n      mstore\n      0x20\n      add\n      swap1\n      0x01\n      swap1\n      sub\n      swap1\n      dup2\n      tag_160\n      jumpi\n      swap1\n      pop\n    tag_159:\n      pop\n        /* \"RoamingDataManagement.sol\":6838:6936  UserDataSummary[] memory dataSummaries = new UserDataSummary[](userTable[homeOperatorAddr].length) */\n      swap1\n      pop\n        /* \"RoamingDataManagement.sol\":6951:6957  uint i */\n      0x00\n        /* \"RoamingDataManagement.sol\":6946:7156  for (uint i = 0; i < users.length; ++i) {... */\n    tag_163:\n        /* \"RoamingDataManagement.sol\":6967:6972  users */\n      dup3\n        /* \"RoamingDataManagement.sol\":6967:6979  users.length */\n      dup1\n      sload\n      swap1\n      pop\n        /* \"RoamingDataManagement.sol\":6963:6964  i */\n      dup2\n        /* \"RoamingDataManagement.sol\":6963:6979  i < users.length */\n      lt\n        /* \"RoamingDataManagement.sol\":6946:7156  for (uint i = 0; i < users.length; ++i) {... */\n      iszero\n      tag_164\n      jumpi\n        /* \"RoamingDataManagement.sol\":7000:7018  string memory imsi */\n      0x00\n        /* \"RoamingDataManagement.sol\":7021:7026  users */\n      dup4\n        /* \"RoamingDataManagement.sol\":7027:7028  i */\n      dup3\n        /* \"RoamingDataManagement.sol\":7021:7029  users[i] */\n      dup2\n      sload\n      dup2\n      lt\n      tag_166\n      jumpi\n      tag_167\n      tag_168\n      jump\t// in\n    tag_167:\n    tag_166:\n      swap1\n      0x00\n      mstore\n      keccak256(0x00, 0x20)\n      add\n        /* \"RoamingDataManagement.sol\":7000:7029  string memory imsi = users[i] */\n      dup1\n      sload\n      tag_170\n      swap1\n      tag_133\n      jump\t// in\n    tag_170:\n      dup1\n      0x1f\n      add\n      0x20\n      dup1\n      swap2\n      div\n      mul\n      0x20\n      add\n      mload(0x40)\n      swap1\n      dup2\n      add\n      0x40\n      mstore\n      dup1\n      swap3\n      swap2\n      swap1\n      dup2\n      dup2\n      mstore\n      0x20\n      add\n      dup3\n      dup1\n      sload\n      tag_171\n      swap1\n      tag_133\n      jump\t// in\n    tag_171:\n      dup1\n      iszero\n      tag_172\n      jumpi\n      dup1\n      0x1f\n      lt\n      tag_173\n      jumpi\n      0x0100\n      dup1\n      dup4\n      sload\n      div\n      mul\n      dup4\n      mstore\n      swap2\n      0x20\n      add\n      swap2\n      jump(tag_172)\n    tag_173:\n      dup3\n      add\n      swap2\n      swap1\n      0x00\n      mstore\n      keccak256(0x00, 0x20)\n      swap1\n    tag_174:\n      dup2\n      sload\n      dup2\n      mstore\n      swap1\n      0x01\n      add\n      swap1\n      0x20\n      add\n      dup1\n      dup4\n      gt\n      tag_174\n      jumpi\n      dup3\n      swap1\n      sub\n      0x1f\n      and\n      dup3\n      add\n      swap2\n    tag_172:\n      pop\n      pop\n      pop\n      pop\n      pop\n      swap1\n      pop\n        /* \"RoamingDataManagement.sol\":7062:7078  dataSummaryTable */\n      0x08\n        /* \"RoamingDataManagement.sol\":7062:7096  dataSummaryTable[homeOperatorAddr] */\n      0x00\n        /* \"RoamingDataManagement.sol\":7079:7095  homeOperatorAddr */\n      dup7\n        /* \"RoamingDataManagement.sol\":7062:7096  dataSummaryTable[homeOperatorAddr] */\n      0xffffffffffffffffffffffffffffffffffffffff\n      and\n      0xffffffffffffffffffffffffffffffffffffffff\n      and\n      dup2\n      mstore\n      0x20\n      add\n      swap1\n      dup2\n      mstore\n      0x20\n      add\n      0x00\n      keccak256\n        /* \"RoamingDataManagement.sol\":7097:7101  imsi */\n      dup2\n        /* \"RoamingDataManagement.sol\":7062:7102  dataSummaryTable[homeOperatorAddr][imsi] */\n      mload(0x40)\n      tag_175\n      swap2\n      swap1\n      tag_176\n      jump\t// in\n    tag_175:\n      swap1\n      dup2\n      mstore\n      0x20\n      add\n      mload(0x40)\n      dup1\n      swap2\n      sub\n      swap1\n      keccak256\n        /* \"RoamingDataManagement.sol\":7062:7145  dataSummaryTable[homeOperatorAddr][imsi][operatorsNameToAddr[visitingOperatorName]] */\n      0x00\n        /* \"RoamingDataManagement.sol\":7103:7122  operatorsNameToAddr */\n      0x03\n        /* \"RoamingDataManagement.sol\":7123:7143  visitingOperatorName */\n      dup12\n        /* \"RoamingDataManagement.sol\":7103:7144  operatorsNameToAddr[visitingOperatorName] */\n      mload(0x40)\n      tag_177\n      swap2\n      swap1\n      tag_176\n      jump\t// in\n    tag_177:\n      swap1\n      dup2\n      mstore\n      0x20\n      add\n      mload(0x40)\n      dup1\n      swap2\n      sub\n      swap1\n      keccak256\n      0x00\n      swap1\n      sload\n      swap1\n      0x0100\n      exp\n      swap1\n      div\n      0xffffffffffffffffffffffffffffffffffffffff\n      and\n        /* \"RoamingDataManagement.sol\":7062:7145  dataSummaryTable[homeOperatorAddr][imsi][operatorsNameToAddr[visitingOperatorName]] */\n      0xffffffffffffffffffffffffffffffffffffffff\n      and\n      0xffffffffffffffffffffffffffffffffffffffff\n      and\n      dup2\n      mstore\n      0x20\n      add\n      swap1\n      dup2\n      mstore\n      0x20\n      add\n      0x00\n      keccak256\n        /* \"RoamingDataManagement.sol\":7043:7145  dataSummaries[i] = dataSummaryTable[homeOperatorAddr][imsi][operatorsNameToAddr[visitingOperatorName]] */\n      mload(0x40)\n      dup1\n      0x0140\n      add\n      0x40\n      mstore\n      swap1\n      dup2\n      0x00\n      dup3\n      add\n      dup1\n      sload\n      tag_178\n      swap1\n      tag_133\n      jump\t// in\n    tag_178:\n      dup1\n      0x1f\n      add\n      0x20\n      dup1\n      swap2\n      div\n      mul\n      0x20\n      add\n      mload(0x40)\n      swap1\n      dup2\n      add\n      0x40\n      mstore\n      dup1\n      swap3\n      swap2\n      swap1\n      dup2\n      dup2\n      mstore\n      0x20\n      add\n      dup3\n      dup1\n      sload\n      tag_179\n      swap1\n      tag_133\n      jump\t// in\n    tag_179:\n      dup1\n      iszero\n      tag_180\n      jumpi\n      dup1\n      0x1f\n      lt\n      tag_181\n      jumpi\n      0x0100\n      dup1\n      dup4\n      sload\n      div\n      mul\n      dup4\n      mstore\n      swap2\n      0x20\n      add\n      swap2\n      jump(tag_180)\n    tag_181:\n      dup3\n      add\n      swap2\n      swap1\n      0x00\n      mstore\n      keccak256(0x00, 0x20)\n      swap1\n    tag_182:\n      dup2\n      sload\n      dup2\n      mstore\n      swap1\n      0x01\n      add\n      swap1\n      0x20\n      add\n      dup1\n      dup4\n      gt\n      tag_182\n      jumpi\n      dup3\n      swap1\n      sub\n      0x1f\n      and\n      dup3\n      add\n      swap2\n    tag_180:\n      pop\n      pop\n      pop\n      pop\n      pop\n      dup2\n      mstore\n      0x20\n      add\n      0x01\n      dup3\n      add\n      dup1\n      sload\n      tag_183\n      swap1\n      tag_133\n      jump\t// in\n    tag_183:\n      dup1\n      0x1f\n      add\n      0x20\n      dup1\n      swap2\n      div\n      mul\n      0x20\n      add\n      mload(0x40)\n      swap1\n      dup2\n      add\n      0x40\n      mstore\n      dup1\n      swap3\n      swap2\n      swap1\n      dup2\n      dup2\n      mstore\n      0x20\n      add\n      dup3\n      dup1\n      sload\n      tag_184\n      swap1\n      tag_133\n      jump\t// in\n    tag_184:\n      dup1\n      iszero\n      tag_185\n      jumpi\n      dup1\n      0x1f\n      lt\n      tag_186\n      jumpi\n      0x0100\n      dup1\n      dup4\n      sload\n      div\n      mul\n      dup4\n      mstore\n      swap2\n      0x20\n      add\n      swap2\n      jump(tag_185)\n    tag_186:\n      dup3\n      add\n      swap2\n      swap1\n      0x00\n      mstore\n      keccak256(0x00, 0x20)\n      swap1\n    tag_187:\n      dup2\n      sload\n      dup2\n      mstore\n      swap1\n      0x01\n      add\n      swap1\n      0x20\n      add\n      dup1\n      dup4\n      gt\n      tag_187\n      jumpi\n      dup3\n      swap1\n      sub\n      0x1f\n      and\n      dup3\n      add\n      swap2\n    tag_185:\n      pop\n      pop\n      pop\n      pop\n      pop\n      dup2\n      mstore\n      0x20\n      add\n      0x02\n      dup3\n      add\n      dup1\n      sload\n      tag_188\n      swap1\n      tag_133\n      jump\t// in\n    tag_188:\n      dup1\n      0x1f\n      add\n      0x20\n      dup1\n      swap2\n      div\n      mul\n      0x20\n      add\n      mload(0x40)\n      swap1\n      dup2\n      add\n      0x40\n      mstore\n      dup1\n      swap3\n      swap2\n      swap1\n      dup2\n      dup2\n      mstore\n      0x20\n      add\n      dup3\n      dup1\n      sload\n      tag_189\n      swap1\n      tag_133\n      jump\t// in\n    tag_189:\n      dup1\n      iszero\n      tag_190\n      jumpi\n      dup1\n      0x1f\n      lt\n      tag_191\n      jumpi\n      0x0100\n      dup1\n      dup4\n      sload\n      div\n      mul\n      dup4\n      mstore\n      swap2\n      0x20\n      add\n      swap2\n      jump(tag_190)\n    tag_191:\n      dup3\n      add\n      swap2\n      swap1\n      0x00\n      mstore\n      keccak256(0x00, 0x20)\n      swap1\n    tag_192:\n      dup2\n      sload\n      dup2\n      mstore\n      swap1\n      0x01\n      add\n      swap1\n      0x20\n      add\n      dup1\n      dup4\n      gt\n      tag_192\n      jumpi\n      dup3\n      swap1\n      sub\n      0x1f\n      and\n      dup3\n      add\n      swap2\n    tag_190:\n      pop\n      pop\n      pop\n      pop\n      pop\n      dup2\n      mstore\n      0x20\n      add\n      0x03\n      dup3\n      add\n      sload\n      dup2\n      mstore\n      0x20\n      add\n      0x04\n      dup3\n      add\n      sload\n      dup2\n      mstore\n      0x20\n      add\n      0x05\n      dup3\n      add\n      sload\n      dup2\n      mstore\n      0x20\n      add\n      0x06\n      dup3\n      add\n      sload\n      dup2\n      mstore\n      0x20\n      add\n      0x07\n      dup3\n      add\n      sload\n      dup2\n      mstore\n      0x20\n      add\n      0x08\n      dup3\n      add\n      sload\n      dup2\n      mstore\n      0x20\n      add\n      0x09\n      dup3\n      add\n      sload\n      dup2\n      mstore\n      pop\n      pop\n        /* \"RoamingDataManagement.sol\":7043:7056  dataSummaries */\n      dup4\n        /* \"RoamingDataManagement.sol\":7057:7058  i */\n      dup4\n        /* \"RoamingDataManagement.sol\":7043:7059  dataSummaries[i] */\n      dup2\n      mload\n      dup2\n      lt\n      tag_193\n      jumpi\n      tag_194\n      tag_168\n      jump\t// in\n    tag_194:\n    tag_193:\n      0x20\n      mul\n      0x20\n      add\n      add\n        /* \"RoamingDataManagement.sol\":7043:7145  dataSummaries[i] = dataSummaryTable[homeOperatorAddr][imsi][operatorsNameToAddr[visitingOperatorName]] */\n      dup2\n      swap1\n      mstore\n      pop\n        /* \"RoamingDataManagement.sol\":6986:7156  {... */\n      pop\n        /* \"RoamingDataManagement.sol\":6981:6984  ++i */\n      dup1\n      tag_195\n      swap1\n      tag_196\n      jump\t// in\n    tag_195:\n      swap1\n      pop\n        /* \"RoamingDataManagement.sol\":6946:7156  for (uint i = 0; i < users.length; ++i) {... */\n      jump(tag_163)\n    tag_164:\n      pop\n        /* \"RoamingDataManagement.sol\":7174:7183  userTable */\n      0x07\n        /* \"RoamingDataManagement.sol\":7174:7201  userTable[homeOperatorAddr] */\n      0x00\n        /* \"RoamingDataManagement.sol\":7184:7200  homeOperatorAddr */\n      dup5\n        /* \"RoamingDataManagement.sol\":7174:7201  userTable[homeOperatorAddr] */\n      0xffffffffffffffffffffffffffffffffffffffff\n      and\n      0xffffffffffffffffffffffffffffffffffffffff\n      and\n      dup2\n      mstore\n      0x20\n      add\n      swap1\n      dup2\n      mstore\n      0x20\n      add\n      0x00\n      keccak256\n        /* \"RoamingDataManagement.sol\":7203:7216  dataSummaries */\n      dup2\n        /* \"RoamingDataManagement.sol\":7166:7217  return (userTable[homeOperatorAddr], dataSummaries) */\n      dup2\n      dup1\n      sload\n      dup1\n      0x20\n      mul\n      0x20\n      add\n      mload(0x40)\n      swap1\n      dup2\n      add\n      0x40\n      mstore\n      dup1\n      swap3\n      swap2\n      swap1\n      dup2\n      dup2\n      mstore\n      0x20\n      add\n      0x00\n      swap1\n    tag_197:\n      dup3\n      dup3\n      lt\n      iszero\n      tag_198\n      jumpi\n      dup4\n      dup3\n      swap1\n      0x00\n      mstore\n      keccak256(0x00, 0x20)\n      add\n      dup1\n      sload\n      tag_200\n      swap1\n      tag_133\n      jump\t// in\n    tag_200:\n      dup1\n      0x1f\n      add\n      0x20\n      dup1\n      swap2\n      div\n      mul\n      0x20\n      add\n      mload(0x40)\n      swap1\n      dup2\n      add\n      0x40\n      mstore\n      dup1\n      swap3\n      swap2\n      swap1\n      dup2\n      dup2\n      mstore\n      0x20\n      add\n      dup3\n      dup1\n      sload\n      tag_201\n      swap1\n      tag_133\n      jump\t// in\n    tag_201:\n      dup1\n      iszero\n      tag_202\n      jumpi\n      dup1\n      0x1f\n      lt\n      tag_203\n      jumpi\n      0x0100\n      dup1\n      dup4\n      sload\n      div\n      mul\n      dup4\n      mstore\n      swap2\n      0x20\n      add\n      swap2\n      jump(tag_202)\n    tag_203:\n      dup3\n      add\n      swap2\n      swap1\n      0x00\n      mstore\n      keccak256(0x00, 0x20)\n      swap1\n    tag_204:\n      dup2\n      sload\n      dup2\n      mstore\n      swap1\n      0x01\n      add\n      swap1\n      0x20\n      add\n      dup1\n      dup4\n      gt\n      tag_204\n      jumpi\n      dup3\n      swap1\n      sub\n      0x1f\n      and\n      dup3\n      add\n      swap2\n    tag_202:\n      pop\n      pop\n      pop\n      pop\n      pop\n      dup2\n      mstore\n      0x20\n      add\n      swap1\n      0x01\n      add\n      swap1\n      jump(tag_197)\n    tag_198:\n      pop\n      pop\n      pop\n      pop\n      swap2\n      pop\n      swap5\n      pop\n      swap5\n      pop\n      pop\n      pop\n      pop\n        /* \"RoamingDataManagement.sol\":6375:7224  function fetchUserDataSummary(string memory visitingOperatorName, string memory secretKey) public view returns(string[] memory, UserDataSummary[] memory) {... */\n      swap3\n      pop\n      swap3\n      swap1\n      pop\n      jump\t// out\n        /* \"RoamingDataManagement.sol\":1421:1519  mapping(address => mapping(string => mapping(address => UserDataSummary))) public dataSummaryTable */\n    tag_58:\n      mstore(0x20, 0x08)\n      dup3\n      0x00\n      mstore\n      keccak256(0x00, 0x40)\n      dup3\n      dup1\n      mload\n      0x20\n      dup2\n      add\n      dup3\n      add\n      dup1\n      mload\n      dup5\n      dup3\n      mstore\n      0x20\n      dup4\n      add\n      0x20\n      dup6\n      add\n      keccak256\n      dup2\n      dup4\n      mstore\n      dup1\n      swap6\n      pop\n      pop\n      pop\n      pop\n      pop\n      pop\n      0x20\n      mstore\n      dup1\n      0x00\n      mstore\n      keccak256(0x00, 0x40)\n      0x00\n      swap3\n      pop\n      swap3\n      pop\n      pop\n      pop\n      dup1\n      0x00\n      add\n      dup1\n      sload\n      tag_205\n      swap1\n      tag_133\n      jump\t// in\n    tag_205:\n      dup1\n      0x1f\n      add\n      0x20\n      dup1\n      swap2\n      div\n      mul\n      0x20\n      add\n      mload(0x40)\n      swap1\n      dup2\n      add\n      0x40\n      mstore\n      dup1\n      swap3\n      swap2\n      swap1\n      dup2\n      dup2\n      mstore\n      0x20\n      add\n      dup3\n      dup1\n      sload\n      tag_206\n      swap1\n      tag_133\n      jump\t// in\n    tag_206:\n      dup1\n      iszero\n      tag_207\n      jumpi\n      dup1\n      0x1f\n      lt\n      tag_208\n      jumpi\n      0x0100\n      dup1\n      dup4\n      sload\n      div\n      mul\n      dup4\n      mstore\n      swap2\n      0x20\n      add\n      swap2\n      jump(tag_207)\n    tag_208:\n      dup3\n      add\n      swap2\n      swap1\n      0x00\n      mstore\n      keccak256(0x00, 0x20)\n      swap1\n    tag_209:\n      dup2\n      sload\n      dup2\n      mstore\n      swap1\n      0x01\n      add\n      swap1\n      0x20\n      add\n      dup1\n      dup4\n      gt\n      tag_209\n      jumpi\n      dup3\n      swap1\n      sub\n      0x1f\n      and\n      dup3\n      add\n      swap2\n    tag_207:\n      pop\n      pop\n      pop\n      pop\n      pop\n      swap1\n      dup1\n      0x01\n      add\n      dup1\n      sload\n      tag_210\n      swap1\n      tag_133\n      jump\t// in\n    tag_210:\n      dup1\n      0x1f\n      add\n      0x20\n      dup1\n      swap2\n      div\n      mul\n      0x20\n      add\n      mload(0x40)\n      swap1\n      dup2\n      add\n      0x40\n      mstore\n      dup1\n      swap3\n      swap2\n      swap1\n      dup2\n      dup2\n      mstore\n      0x20\n      add\n      dup3\n      dup1\n      sload\n      tag_211\n      swap1\n      tag_133\n      jump\t// in\n    tag_211:\n      dup1\n      iszero\n      tag_212\n      jumpi\n      dup1\n      0x1f\n      lt\n      tag_213\n      jumpi\n      0x0100\n      dup1\n      dup4\n      sload\n      div\n      mul\n      dup4\n      mstore\n      swap2\n      0x20\n      add\n      swap2\n      jump(tag_212)\n    tag_213:\n      dup3\n      add\n      swap2\n      swap1\n      0x00\n      mstore\n      keccak256(0x00, 0x20)\n      swap1\n    tag_214:\n      dup2\n      sload\n      dup2\n      mstore\n      swap1\n      0x01\n      add\n      swap1\n      0x20\n      add\n      dup1\n      dup4\n      gt\n      tag_214\n      jumpi\n      dup3\n      swap1\n      sub\n      0x1f\n      and\n      dup3\n      add\n      swap2\n    tag_212:\n      pop\n      pop\n      pop\n      pop\n      pop\n      swap1\n      dup1\n      0x02\n      add\n      dup1\n      sload\n      tag_215\n      swap1\n      tag_133\n      jump\t// in\n    tag_215:\n      dup1\n      0x1f\n      add\n      0x20\n      dup1\n      swap2\n      div\n      mul\n      0x20\n      add\n      mload(0x40)\n      swap1\n      dup2\n      add\n      0x40\n      mstore\n      dup1\n      swap3\n      swap2\n      swap1\n      dup2\n      dup2\n      mstore\n      0x20\n      add\n      dup3\n      dup1\n      sload\n      tag_216\n      swap1\n      tag_133\n      jump\t// in\n    tag_216:\n      dup1\n      iszero\n      tag_217\n      jumpi\n      dup1\n      0x1f\n      lt\n      tag_218\n      jumpi\n      0x0100\n      dup1\n      dup4\n      sload\n      div\n      mul\n      dup4\n      mstore\n      swap2\n      0x20\n      add\n      swap2\n      jump(tag_217)\n    tag_218:\n      dup3\n      add\n      swap2\n      swap1\n      0x00\n      mstore\n      keccak256(0x00, 0x20)\n      swap1\n    tag_219:\n      dup2\n      sload\n      dup2\n      mstore\n      swap1\n      0x01\n      add\n      swap1\n      0x20\n      add\n      dup1\n      dup4\n      gt\n      tag_219\n      jumpi\n      dup3\n      swap1\n      sub\n      0x1f\n      and\n      dup3\n      add\n      swap2\n    tag_217:\n      pop\n      pop\n      pop\n      pop\n      pop\n      swap1\n      dup1\n      0x03\n      add\n      sload\n      swap1\n      dup1\n      0x04\n      add\n      sload\n      swap1\n      dup1\n      0x05\n      add\n      sload\n      swap1\n      dup1\n      0x06\n      add\n      sload\n      swap1\n      dup1\n      0x07\n      add\n      sload\n      swap1\n      dup1\n      0x08\n      add\n      sload\n      swap1\n      dup1\n      0x09\n      add\n      sload\n      swap1\n      pop\n      dup11\n      jump\t// out\n        /* \"RoamingDataManagement.sol\":7230:7343  function fetchBillingHistory() public view returns(BillingRecord[] memory) {... */\n    tag_63:\n        /* \"RoamingDataManagement.sol\":7281:7303  BillingRecord[] memory */\n      0x60\n        /* \"RoamingDataManagement.sol\":7322:7336  billingHistory */\n      0x06\n        /* \"RoamingDataManagement.sol\":7315:7336  return billingHistory */\n      dup1\n      sload\n      dup1\n      0x20\n      mul\n      0x20\n      add\n      mload(0x40)\n      swap1\n      dup2\n      add\n      0x40\n      mstore\n      dup1\n      swap3\n      swap2\n      swap1\n      dup2\n      dup2\n      mstore\n      0x20\n      add\n      0x00\n      swap1\n    tag_221:\n      dup3\n      dup3\n      lt\n      iszero\n      tag_222\n      jumpi\n      dup4\n      dup3\n      swap1\n      0x00\n      mstore\n      keccak256(0x00, 0x20)\n      swap1\n      0x06\n      mul\n      add\n      mload(0x40)\n      dup1\n      0xc0\n      add\n      0x40\n      mstore\n      swap1\n      dup2\n      0x00\n      dup3\n      add\n      0x00\n      swap1\n      sload\n      swap1\n      0x0100\n      exp\n      swap1\n      div\n      0xffffffffffffffffffffffffffffffffffffffff\n      and\n      0xffffffffffffffffffffffffffffffffffffffff\n      and\n      0xffffffffffffffffffffffffffffffffffffffff\n      and\n      dup2\n      mstore\n      0x20\n      add\n      0x01\n      dup3\n      add\n      0x00\n      swap1\n      sload\n      swap1\n      0x0100\n      exp\n      swap1\n      div\n      0xffffffffffffffffffffffffffffffffffffffff\n      and\n      0xffffffffffffffffffffffffffffffffffffffff\n      and\n      0xffffffffffffffffffffffffffffffffffffffff\n      and\n      dup2\n      mstore\n      0x20\n      add\n      0x02\n      dup3\n      add\n      dup1\n      sload\n      tag_224\n      swap1\n      tag_133\n      jump\t// in\n    tag_224:\n      dup1\n      0x1f\n      add\n      0x20\n      dup1\n      swap2\n      div\n      mul\n      0x20\n      add\n      mload(0x40)\n      swap1\n      dup2\n      add\n      0x40\n      mstore\n      dup1\n      swap3\n      swap2\n      swap1\n      dup2\n      dup2\n      mstore\n      0x20\n      add\n      dup3\n      dup1\n      sload\n      tag_225\n      swap1\n      tag_133\n      jump\t// in\n    tag_225:\n      dup1\n      iszero\n      tag_226\n      jumpi\n      dup1\n      0x1f\n      lt\n      tag_227\n      jumpi\n      0x0100\n      dup1\n      dup4\n      sload\n      div\n      mul\n      dup4\n      mstore\n      swap2\n      0x20\n      add\n      swap2\n      jump(tag_226)\n    tag_227:\n      dup3\n      add\n      swap2\n      swap1\n      0x00\n      mstore\n      keccak256(0x00, 0x20)\n      swap1\n    tag_228:\n      dup2\n      sload\n      dup2\n      mstore\n      swap1\n      0x01\n      add\n      swap1\n      0x20\n      add\n      dup1\n      dup4\n      gt\n      tag_228\n      jumpi\n      dup3\n      swap1\n      sub\n      0x1f\n      and\n      dup3\n      add\n      swap2\n    tag_226:\n      pop\n      pop\n      pop\n      pop\n      pop\n      dup2\n      mstore\n      0x20\n      add\n      0x03\n      dup3\n      add\n      dup1\n      sload\n      tag_229\n      swap1\n      tag_133\n      jump\t// in\n    tag_229:\n      dup1\n      0x1f\n      add\n      0x20\n      dup1\n      swap2\n      div\n      mul\n      0x20\n      add\n      mload(0x40)\n      swap1\n      dup2\n      add\n      0x40\n      mstore\n      dup1\n      swap3\n      swap2\n      swap1\n      dup2\n      dup2\n      mstore\n      0x20\n      add\n      dup3\n      dup1\n      sload\n      tag_230\n      swap1\n      tag_133\n      jump\t// in\n    tag_230:\n      dup1\n      iszero\n      tag_231\n      jumpi\n      dup1\n      0x1f\n      lt\n      tag_232\n      jumpi\n      0x0100\n      dup1\n      dup4\n      sload\n      div\n      mul\n      dup4\n      mstore\n      swap2\n      0x20\n      add\n      swap2\n      jump(tag_231)\n    tag_232:\n      dup3\n      add\n      swap2\n      swap1\n      0x00\n      mstore\n      keccak256(0x00, 0x20)\n      swap1\n    tag_233:\n      dup2\n      sload\n      dup2\n      mstore\n      swap1\n      0x01\n      add\n      swap1\n      0x20\n      add\n      dup1\n      dup4\n      gt\n      tag_233\n      jumpi\n      dup3\n      swap1\n      sub\n      0x1f\n      and\n      dup3\n      add\n      swap2\n    tag_231:\n      pop\n      pop\n      pop\n      pop\n      pop\n      dup2\n      mstore\n      0x20\n      add\n      0x04\n      dup3\n      add\n      sload\n      dup2\n      mstore\n      0x20\n      add\n      0x05\n      dup3\n      add\n      sload\n      dup2\n      mstore\n      pop\n      pop\n      dup2\n      mstore\n      0x20\n      add\n      swap1\n      0x01\n      add\n      swap1\n      jump(tag_221)\n    tag_222:\n      pop\n      pop\n      pop\n      pop\n      swap1\n      pop\n        /* \"RoamingDataManagement.sol\":7230:7343  function fetchBillingHistory() public view returns(BillingRecord[] memory) {... */\n      swap1\n      jump\t// out\n        /* \"RoamingDataManagement.sol\":1595:1634  mapping(address => uint256) public bank */\n    tag_69:\n      mstore(0x20, 0x0a)\n      dup1\n      0x00\n      mstore\n      keccak256(0x00, 0x40)\n      0x00\n      swap2\n      pop\n      swap1\n      pop\n      sload\n      dup2\n      jump\t// out\n        /* \"RoamingDataManagement.sol\":7349:7541  function uploadSecretKey(address addr, string memory secretKey) public {... */\n    tag_76:\n        /* \"RoamingDataManagement.sol\":7483:7484  0 */\n      0x00\n        /* \"RoamingDataManagement.sol\":7444:7465  operatorSecretKeysCID */\n      0x04\n        /* \"RoamingDataManagement.sol\":7444:7471  operatorSecretKeysCID[addr] */\n      0x00\n        /* \"RoamingDataManagement.sol\":7466:7470  addr */\n      dup5\n        /* \"RoamingDataManagement.sol\":7444:7471  operatorSecretKeysCID[addr] */\n      0xffffffffffffffffffffffffffffffffffffffff\n      and\n      0xffffffffffffffffffffffffffffffffffffffff\n      and\n      dup2\n      mstore\n      0x20\n      add\n      swap1\n      dup2\n      mstore\n      0x20\n      add\n      0x00\n      keccak256\n        /* \"RoamingDataManagement.sol\":7438:7479  bytes(operatorSecretKeysCID[addr]).length */\n      dup1\n      sload\n      tag_235\n      swap1\n      tag_133\n      jump\t// in\n    tag_235:\n      swap1\n      pop\n        /* \"RoamingDataManagement.sol\":7438:7484  bytes(operatorSecretKeysCID[addr]).length == 0 */\n      eq\n        /* \"RoamingDataManagement.sol\":7430:7485  require(bytes(operatorSecretKeysCID[addr]).length == 0) */\n      tag_236\n      jumpi\n      0x00\n      dup1\n      revert\n    tag_236:\n        /* \"RoamingDataManagement.sol\":7525:7534  secretKey */\n      dup1\n        /* \"RoamingDataManagement.sol\":7495:7516  operatorSecretKeysCID */\n      0x04\n        /* \"RoamingDataManagement.sol\":7495:7522  operatorSecretKeysCID[addr] */\n      0x00\n        /* \"RoamingDataManagement.sol\":7517:7521  addr */\n      dup5\n        /* \"RoamingDataManagement.sol\":7495:7522  operatorSecretKeysCID[addr] */\n      0xffffffffffffffffffffffffffffffffffffffff\n      and\n      0xffffffffffffffffffffffffffffffffffffffff\n      and\n      dup2\n      mstore\n      0x20\n      add\n      swap1\n      dup2\n      mstore\n      0x20\n      add\n      0x00\n      keccak256\n        /* \"RoamingDataManagement.sol\":7495:7534  operatorSecretKeysCID[addr] = secretKey */\n      swap1\n      dup2\n      tag_237\n      swap2\n      swap1\n      tag_238\n      jump\t// in\n    tag_237:\n      pop\n        /* \"RoamingDataManagement.sol\":7349:7541  function uploadSecretKey(address addr, string memory secretKey) public {... */\n      pop\n      pop\n      jump\t// out\n        /* \"RoamingDataManagement.sol\":276:329  mapping(address => string) public operatorsAddrToName */\n    tag_80:\n      mstore(0x20, 0x02)\n      dup1\n      0x00\n      mstore\n      keccak256(0x00, 0x40)\n      0x00\n      swap2\n      pop\n      swap1\n      pop\n      dup1\n      sload\n      tag_239\n      swap1\n      tag_133\n      jump\t// in\n    tag_239:\n      dup1\n      0x1f\n      add\n      0x20\n      dup1\n      swap2\n      div\n      mul\n      0x20\n      add\n      mload(0x40)\n      swap1\n      dup2\n      add\n      0x40\n      mstore\n      dup1\n      swap3\n      swap2\n      swap1\n      dup2\n      dup2\n      mstore\n      0x20\n      add\n      dup3\n      dup1\n      sload\n      tag_240\n      swap1\n      tag_133\n      jump\t// in\n    tag_240:\n      dup1\n      iszero\n      tag_241\n      jumpi\n      dup1\n      0x1f\n      lt\n      tag_242\n      jumpi\n      0x0100\n      dup1\n      dup4\n      sload\n      div\n      mul\n      dup4\n      mstore\n      swap2\n      0x20\n      add\n      swap2\n      jump(tag_241)\n    tag_242:\n      dup3\n      add\n      swap2\n      swap1\n      0x00\n      mstore\n      keccak256(0x00, 0x20)\n      swap1\n    tag_243:\n      dup2\n      sload\n      dup2\n      mstore\n      swap1\n      0x01\n      add\n      swap1\n      0x20\n      add\n      dup1\n      dup4\n      gt\n      tag_243\n      jumpi\n      dup3\n      swap1\n      sub\n      0x1f\n      and\n      dup3\n      add\n      swap2\n    tag_241:\n      pop\n      pop\n      pop\n      pop\n      pop\n      dup2\n      jump\t// out\n        /* \"RoamingDataManagement.sol\":1143:1188  mapping(address => string[]) public userTable */\n    tag_86:\n      mstore(0x20, 0x07)\n      dup2\n      0x00\n      mstore\n      keccak256(0x00, 0x40)\n      dup2\n      dup2\n      sload\n      dup2\n      lt\n      tag_244\n      jumpi\n      0x00\n      dup1\n      revert\n    tag_244:\n      swap1\n      0x00\n      mstore\n      keccak256(0x00, 0x20)\n      add\n      0x00\n      swap2\n      pop\n      swap2\n      pop\n      pop\n      dup1\n      sload\n      tag_246\n      swap1\n      tag_133\n      jump\t// in\n    tag_246:\n      dup1\n      0x1f\n      add\n      0x20\n      dup1\n      swap2\n      div\n      mul\n      0x20\n      add\n      mload(0x40)\n      swap1\n      dup2\n      add\n      0x40\n      mstore\n      dup1\n      swap3\n      swap2\n      swap1\n      dup2\n      dup2\n      mstore\n      0x20\n      add\n      dup3\n      dup1\n      sload\n      tag_247\n      swap1\n      tag_133\n      jump\t// in\n    tag_247:\n      dup1\n      iszero\n      tag_248\n      jumpi\n      dup1\n      0x1f\n      lt\n      tag_249\n      jumpi\n      0x0100\n      dup1\n      dup4\n      sload\n      div\n      mul\n      dup4\n      mstore\n      swap2\n      0x20\n      add\n      swap2\n      jump(tag_248)\n    tag_249:\n      dup3\n      add\n      swap2\n      swap1\n      0x00\n      mstore\n      keccak256(0x00, 0x20)\n      swap1\n    tag_250:\n      dup2\n      sload\n      dup2\n      mstore\n      swap1\n      0x01\n      add\n      swap1\n      0x20\n      add\n      dup1\n      dup4\n      gt\n      tag_250\n      jumpi\n      dup3\n      swap1\n      sub\n      0x1f\n      and\n      dup3\n      add\n      swap2\n    tag_248:\n      pop\n      pop\n      pop\n      pop\n      pop\n      dup2\n      jump\t// out\n        /* \"RoamingDataManagement.sol\":235:269  address[] public operatorAddresses */\n    tag_91:\n      0x01\n      dup2\n      dup2\n      sload\n      dup2\n      lt\n      tag_251\n      jumpi\n      0x00\n      dup1\n      revert\n    tag_251:\n      swap1\n      0x00\n      mstore\n      keccak256(0x00, 0x20)\n      add\n      0x00\n      swap2\n      pop\n      sload\n      swap1\n      0x0100\n      exp\n      swap1\n      div\n      0xffffffffffffffffffffffffffffffffffffffff\n      and\n      dup2\n      jump\t// out\n        /* \"RoamingDataManagement.sol\":7622:7796  function transfer(address payable _to, uint _amount) public {... */\n    tag_98:\n        /* \"RoamingDataManagement.sol\":7693:7705  bool success */\n      0x00\n        /* \"RoamingDataManagement.sol\":7711:7714  _to */\n      dup3\n        /* \"RoamingDataManagement.sol\":7711:7719  _to.call */\n      0xffffffffffffffffffffffffffffffffffffffff\n      and\n        /* \"RoamingDataManagement.sol\":7727:7734  _amount */\n      dup3\n        /* \"RoamingDataManagement.sol\":7711:7739  _to.call{value: _amount}(\"\") */\n      mload(0x40)\n      tag_254\n      swap1\n      tag_255\n      jump\t// in\n    tag_254:\n      0x00\n      mload(0x40)\n      dup1\n      dup4\n      sub\n      dup2\n      dup6\n      dup8\n      gas\n      call\n      swap3\n      pop\n      pop\n      pop\n      returndatasize\n      dup1\n      0x00\n      dup2\n      eq\n      tag_258\n      jumpi\n      mload(0x40)\n      swap2\n      pop\n      and(add(returndatasize, 0x3f), not(0x1f))\n      dup3\n      add\n      0x40\n      mstore\n      returndatasize\n      dup3\n      mstore\n      returndatasize\n      0x00\n      0x20\n      dup5\n      add\n      returndatacopy\n      jump(tag_257)\n    tag_258:\n      0x60\n      swap2\n      pop\n    tag_257:\n      pop\n        /* \"RoamingDataManagement.sol\":7692:7739  (bool success, ) = _to.call{value: _amount}(\"\") */\n      pop\n      swap1\n      pop\n        /* \"RoamingDataManagement.sol\":7757:7764  success */\n      dup1\n        /* \"RoamingDataManagement.sol\":7749:7789  require(success, \"Failed to send Ether\") */\n      tag_259\n      jumpi\n      mload(0x40)\n      0x08c379a000000000000000000000000000000000000000000000000000000000\n      dup2\n      mstore\n      0x04\n      add\n      tag_260\n      swap1\n      tag_261\n      jump\t// in\n    tag_260:\n      mload(0x40)\n      dup1\n      swap2\n      sub\n      swap1\n      revert\n    tag_259:\n        /* \"RoamingDataManagement.sol\":7682:7796  {... */\n      pop\n        /* \"RoamingDataManagement.sol\":7622:7796  function transfer(address payable _to, uint _amount) public {... */\n      pop\n      pop\n      jump\t// out\n        /* \"RoamingDataManagement.sol\":6049:6243  function dataSummaryExists(string memory imsi, string memory homeOperator) public view returns(bool) {... */\n    tag_102:\n        /* \"RoamingDataManagement.sol\":6144:6148  bool */\n      0x00\n        /* \"RoamingDataManagement.sol\":6234:6235  0 */\n      dup1\n        /* \"RoamingDataManagement.sol\":6169:6189  numOfUserDataEntries */\n      0x09\n        /* \"RoamingDataManagement.sol\":6169:6224  numOfUserDataEntries[operatorsNameToAddr[homeOperator]] */\n      0x00\n        /* \"RoamingDataManagement.sol\":6190:6209  operatorsNameToAddr */\n      0x03\n        /* \"RoamingDataManagement.sol\":6210:6222  homeOperator */\n      dup6\n        /* \"RoamingDataManagement.sol\":6190:6223  operatorsNameToAddr[homeOperator] */\n      mload(0x40)\n      tag_263\n      swap2\n      swap1\n      tag_176\n      jump\t// in\n    tag_263:\n      swap1\n      dup2\n      mstore\n      0x20\n      add\n      mload(0x40)\n      dup1\n      swap2\n      sub\n      swap1\n      keccak256\n      0x00\n      swap1\n      sload\n      swap1\n      0x0100\n      exp\n      swap1\n      div\n      0xffffffffffffffffffffffffffffffffffffffff\n      and\n        /* \"RoamingDataManagement.sol\":6169:6224  numOfUserDataEntries[operatorsNameToAddr[homeOperator]] */\n      0xffffffffffffffffffffffffffffffffffffffff\n      and\n      0xffffffffffffffffffffffffffffffffffffffff\n      and\n      dup2\n      mstore\n      0x20\n      add\n      swap1\n      dup2\n      mstore\n      0x20\n      add\n      0x00\n      keccak256\n        /* \"RoamingDataManagement.sol\":6225:6229  imsi */\n      dup5\n        /* \"RoamingDataManagement.sol\":6169:6230  numOfUserDataEntries[operatorsNameToAddr[homeOperator]][imsi] */\n      mload(0x40)\n      tag_264\n      swap2\n      swap1\n      tag_176\n      jump\t// in\n    tag_264:\n      swap1\n      dup2\n      mstore\n      0x20\n      add\n      mload(0x40)\n      dup1\n      swap2\n      sub\n      swap1\n      keccak256\n      sload\n        /* \"RoamingDataManagement.sol\":6169:6235  numOfUserDataEntries[operatorsNameToAddr[homeOperator]][imsi] == 0 */\n      eq\n        /* \"RoamingDataManagement.sol\":6167:6236  !(numOfUserDataEntries[operatorsNameToAddr[homeOperator]][imsi] == 0) */\n      iszero\n        /* \"RoamingDataManagement.sol\":6160:6236  return !(numOfUserDataEntries[operatorsNameToAddr[homeOperator]][imsi] == 0) */\n      swap1\n      pop\n        /* \"RoamingDataManagement.sol\":6049:6243  function dataSummaryExists(string memory imsi, string memory homeOperator) public view returns(bool) {... */\n      swap3\n      swap2\n      pop\n      pop\n      jump\t// out\n        /* \"RoamingDataManagement.sol\":3160:6043  function uploadUserDataSummary(string memory imsi, string memory number, string memory serviceProvider,... */\n    tag_109:\n        /* \"RoamingDataManagement.sol\":3812:3836  address visitingOperator */\n      0x00\n        /* \"RoamingDataManagement.sol\":3839:3849  msg.sender */\n      caller\n        /* \"RoamingDataManagement.sol\":3812:3849  address visitingOperator = msg.sender */\n      swap1\n      pop\n        /* \"RoamingDataManagement.sol\":3922:3923  0 */\n      0x00\n        /* \"RoamingDataManagement.sol\":3873:3892  operatorsAddrToName */\n      0x02\n        /* \"RoamingDataManagement.sol\":3873:3910  operatorsAddrToName[visitingOperator] */\n      0x00\n        /* \"RoamingDataManagement.sol\":3893:3909  visitingOperator */\n      dup4\n        /* \"RoamingDataManagement.sol\":3873:3910  operatorsAddrToName[visitingOperator] */\n      0xffffffffffffffffffffffffffffffffffffffff\n      and\n      0xffffffffffffffffffffffffffffffffffffffff\n      and\n      dup2\n      mstore\n      0x20\n      add\n      swap1\n      dup2\n      mstore\n      0x20\n      add\n      0x00\n      keccak256\n        /* \"RoamingDataManagement.sol\":3867:3918  bytes(operatorsAddrToName[visitingOperator]).length */\n      dup1\n      sload\n      tag_266\n      swap1\n      tag_133\n      jump\t// in\n    tag_266:\n      swap1\n      pop\n        /* \"RoamingDataManagement.sol\":3867:3923  bytes(operatorsAddrToName[visitingOperator]).length != 0 */\n      sub\n        /* \"RoamingDataManagement.sol\":3859:3924  require(bytes(operatorsAddrToName[visitingOperator]).length != 0) */\n      tag_267\n      jumpi\n      0x00\n      dup1\n      revert\n    tag_267:\n        /* \"RoamingDataManagement.sol\":3990:3993  0x0 */\n      0x00\n        /* \"RoamingDataManagement.sol\":3942:3994  operatorsNameToAddr[serviceProvider] != address(0x0) */\n      0xffffffffffffffffffffffffffffffffffffffff\n      and\n        /* \"RoamingDataManagement.sol\":3942:3961  operatorsNameToAddr */\n      0x03\n        /* \"RoamingDataManagement.sol\":3962:3977  serviceProvider */\n      dup12\n        /* \"RoamingDataManagement.sol\":3942:3978  operatorsNameToAddr[serviceProvider] */\n      mload(0x40)\n      tag_268\n      swap2\n      swap1\n      tag_176\n      jump\t// in\n    tag_268:\n      swap1\n      dup2\n      mstore\n      0x20\n      add\n      mload(0x40)\n      dup1\n      swap2\n      sub\n      swap1\n      keccak256\n      0x00\n      swap1\n      sload\n      swap1\n      0x0100\n      exp\n      swap1\n      div\n      0xffffffffffffffffffffffffffffffffffffffff\n      and\n        /* \"RoamingDataManagement.sol\":3942:3994  operatorsNameToAddr[serviceProvider] != address(0x0) */\n      0xffffffffffffffffffffffffffffffffffffffff\n      and\n      sub\n        /* \"RoamingDataManagement.sol\":3934:3995  require(operatorsNameToAddr[serviceProvider] != address(0x0)) */\n      tag_269\n      jumpi\n      0x00\n      dup1\n      revert\n    tag_269:\n        /* \"RoamingDataManagement.sol\":4059:4064  1 wei */\n      0x01\n        /* \"RoamingDataManagement.sol\":4013:4017  bank */\n      0x0a\n        /* \"RoamingDataManagement.sol\":4013:4055  bank[operatorsNameToAddr[serviceProvider]] */\n      0x00\n        /* \"RoamingDataManagement.sol\":4018:4037  operatorsNameToAddr */\n      0x03\n        /* \"RoamingDataManagement.sol\":4038:4053  serviceProvider */\n      dup14\n        /* \"RoamingDataManagement.sol\":4018:4054  operatorsNameToAddr[serviceProvider] */\n      mload(0x40)\n      tag_270\n      swap2\n      swap1\n      tag_176\n      jump\t// in\n    tag_270:\n      swap1\n      dup2\n      mstore\n      0x20\n      add\n      mload(0x40)\n      dup1\n      swap2\n      sub\n      swap1\n      keccak256\n      0x00\n      swap1\n      sload\n      swap1\n      0x0100\n      exp\n      swap1\n      div\n      0xffffffffffffffffffffffffffffffffffffffff\n      and\n        /* \"RoamingDataManagement.sol\":4013:4055  bank[operatorsNameToAddr[serviceProvider]] */\n      0xffffffffffffffffffffffffffffffffffffffff\n      and\n      0xffffffffffffffffffffffffffffffffffffffff\n      and\n      dup2\n      mstore\n      0x20\n      add\n      swap1\n      dup2\n      mstore\n      0x20\n      add\n      0x00\n      keccak256\n      sload\n        /* \"RoamingDataManagement.sol\":4013:4064  bank[operatorsNameToAddr[serviceProvider]] >= 1 wei */\n      lt\n      iszero\n        /* \"RoamingDataManagement.sol\":4005:4065  require(bank[operatorsNameToAddr[serviceProvider]] >= 1 wei) */\n      tag_271\n      jumpi\n      0x00\n      dup1\n      revert\n    tag_271:\n        /* \"RoamingDataManagement.sol\":4076:4157  mapping(string => mapping(address => UserDataSummary)) storage userToSummaryTable */\n      0x00\n        /* \"RoamingDataManagement.sol\":4160:4176  dataSummaryTable */\n      0x08\n        /* \"RoamingDataManagement.sol\":4160:4214  dataSummaryTable[operatorsNameToAddr[serviceProvider]] */\n      0x00\n        /* \"RoamingDataManagement.sol\":4177:4196  operatorsNameToAddr */\n      0x03\n        /* \"RoamingDataManagement.sol\":4197:4212  serviceProvider */\n      dup14\n        /* \"RoamingDataManagement.sol\":4177:4213  operatorsNameToAddr[serviceProvider] */\n      mload(0x40)\n      tag_272\n      swap2\n      swap1\n      tag_176\n      jump\t// in\n    tag_272:\n      swap1\n      dup2\n      mstore\n      0x20\n      add\n      mload(0x40)\n      dup1\n      swap2\n      sub\n      swap1\n      keccak256\n      0x00\n      swap1\n      sload\n      swap1\n      0x0100\n      exp\n      swap1\n      div\n      0xffffffffffffffffffffffffffffffffffffffff\n      and\n        /* \"RoamingDataManagement.sol\":4160:4214  dataSummaryTable[operatorsNameToAddr[serviceProvider]] */\n      0xffffffffffffffffffffffffffffffffffffffff\n      and\n      0xffffffffffffffffffffffffffffffffffffffff\n      and\n      dup2\n      mstore\n      0x20\n      add\n      swap1\n      dup2\n      mstore\n      0x20\n      add\n      0x00\n      keccak256\n        /* \"RoamingDataManagement.sol\":4076:4214  mapping(string => mapping(address => UserDataSummary)) storage userToSummaryTable = dataSummaryTable[operatorsNameToAddr[serviceProvider]] */\n      swap1\n      pop\n        /* \"RoamingDataManagement.sol\":4229:4269  dataSummaryExists(imsi, serviceProvider) */\n      tag_273\n        /* \"RoamingDataManagement.sol\":4247:4251  imsi */\n      dup14\n        /* \"RoamingDataManagement.sol\":4253:4268  serviceProvider */\n      dup13\n        /* \"RoamingDataManagement.sol\":4229:4246  dataSummaryExists */\n      tag_102\n        /* \"RoamingDataManagement.sol\":4229:4269  dataSummaryExists(imsi, serviceProvider) */\n      jump\t// in\n    tag_273:\n        /* \"RoamingDataManagement.sol\":4224:4434  if (!dataSummaryExists(imsi, serviceProvider)) {... */\n      tag_274\n      jumpi\n        /* \"RoamingDataManagement.sol\":4285:4294  userTable */\n      0x07\n        /* \"RoamingDataManagement.sol\":4285:4332  userTable[operatorsNameToAddr[serviceProvider]] */\n      0x00\n        /* \"RoamingDataManagement.sol\":4295:4314  operatorsNameToAddr */\n      0x03\n        /* \"RoamingDataManagement.sol\":4315:4330  serviceProvider */\n      dup14\n        /* \"RoamingDataManagement.sol\":4295:4331  operatorsNameToAddr[serviceProvider] */\n      mload(0x40)\n      tag_275\n      swap2\n      swap1\n      tag_176\n      jump\t// in\n    tag_275:\n      swap1\n      dup2\n      mstore\n      0x20\n      add\n      mload(0x40)\n      dup1\n      swap2\n      sub\n      swap1\n      keccak256\n      0x00\n      swap1\n      sload\n      swap1\n      0x0100\n      exp\n      swap1\n      div\n      0xffffffffffffffffffffffffffffffffffffffff\n      and\n        /* \"RoamingDataManagement.sol\":4285:4332  userTable[operatorsNameToAddr[serviceProvider]] */\n      0xffffffffffffffffffffffffffffffffffffffff\n      and\n      0xffffffffffffffffffffffffffffffffffffffff\n      and\n      dup2\n      mstore\n      0x20\n      add\n      swap1\n      dup2\n      mstore\n      0x20\n      add\n      0x00\n      keccak256\n        /* \"RoamingDataManagement.sol\":4338:4342  imsi */\n      dup14\n        /* \"RoamingDataManagement.sol\":4285:4343  userTable[operatorsNameToAddr[serviceProvider]].push(imsi) */\n      swap1\n      dup1\n      0x01\n      dup2\n      sload\n      add\n      dup1\n      dup3\n      sstore\n      dup1\n      swap2\n      pop\n      pop\n      0x01\n      swap1\n      sub\n      swap1\n      0x00\n      mstore\n      keccak256(0x00, 0x20)\n      add\n      0x00\n      swap1\n      swap2\n      swap1\n      swap2\n      swap1\n      swap2\n      pop\n      swap1\n      dup2\n      tag_277\n      swap2\n      swap1\n      tag_238\n      jump\t// in\n    tag_277:\n      pop\n        /* \"RoamingDataManagement.sol\":4357:4377  numOfUserDataEntries */\n      0x09\n        /* \"RoamingDataManagement.sol\":4357:4415  numOfUserDataEntries[operatorsNameToAddr[serviceProvider]] */\n      0x00\n        /* \"RoamingDataManagement.sol\":4378:4397  operatorsNameToAddr */\n      0x03\n        /* \"RoamingDataManagement.sol\":4398:4413  serviceProvider */\n      dup14\n        /* \"RoamingDataManagement.sol\":4378:4414  operatorsNameToAddr[serviceProvider] */\n      mload(0x40)\n      tag_278\n      swap2\n      swap1\n      tag_176\n      jump\t// in\n    tag_278:\n      swap1\n      dup2\n      mstore\n      0x20\n      add\n      mload(0x40)\n      dup1\n      swap2\n      sub\n      swap1\n      keccak256\n      0x00\n      swap1\n      sload\n      swap1\n      0x0100\n      exp\n      swap1\n      div\n      0xffffffffffffffffffffffffffffffffffffffff\n      and\n        /* \"RoamingDataManagement.sol\":4357:4415  numOfUserDataEntries[operatorsNameToAddr[serviceProvider]] */\n      0xffffffffffffffffffffffffffffffffffffffff\n      and\n      0xffffffffffffffffffffffffffffffffffffffff\n      and\n      dup2\n      mstore\n      0x20\n      add\n      swap1\n      dup2\n      mstore\n      0x20\n      add\n      0x00\n      keccak256\n        /* \"RoamingDataManagement.sol\":4416:4420  imsi */\n      dup14\n        /* \"RoamingDataManagement.sol\":4357:4421  numOfUserDataEntries[operatorsNameToAddr[serviceProvider]][imsi] */\n      mload(0x40)\n      tag_279\n      swap2\n      swap1\n      tag_176\n      jump\t// in\n    tag_279:\n      swap1\n      dup2\n      mstore\n      0x20\n      add\n      mload(0x40)\n      dup1\n      swap2\n      sub\n      swap1\n      keccak256\n      0x00\n        /* \"RoamingDataManagement.sol\":4357:4423  numOfUserDataEntries[operatorsNameToAddr[serviceProvider]][imsi]++ */\n      dup2\n      sload\n      dup1\n      swap3\n      swap2\n      swap1\n      tag_280\n      swap1\n      tag_196\n      jump\t// in\n    tag_280:\n      swap2\n      swap1\n      pop\n      sstore\n      pop\n        /* \"RoamingDataManagement.sol\":4224:4434  if (!dataSummaryExists(imsi, serviceProvider)) {... */\n    tag_274:\n        /* \"RoamingDataManagement.sol\":4444:4524  mapping(address => UserDataSummary) storage usageSummaryTablePerVisitingOperator */\n      0x00\n        /* \"RoamingDataManagement.sol\":4527:4545  userToSummaryTable */\n      dup2\n        /* \"RoamingDataManagement.sol\":4546:4550  imsi */\n      dup15\n        /* \"RoamingDataManagement.sol\":4527:4551  userToSummaryTable[imsi] */\n      mload(0x40)\n      tag_281\n      swap2\n      swap1\n      tag_176\n      jump\t// in\n    tag_281:\n      swap1\n      dup2\n      mstore\n      0x20\n      add\n      mload(0x40)\n      dup1\n      swap2\n      sub\n      swap1\n      keccak256\n        /* \"RoamingDataManagement.sol\":4444:4551  mapping(address => UserDataSummary) storage usageSummaryTablePerVisitingOperator = userToSummaryTable[imsi] */\n      swap1\n      pop\n        /* \"RoamingDataManagement.sol\":4623:4627  imsi */\n      dup14\n        /* \"RoamingDataManagement.sol\":4561:4597  usageSummaryTablePerVisitingOperator */\n      dup2\n        /* \"RoamingDataManagement.sol\":4561:4615  usageSummaryTablePerVisitingOperator[visitingOperator] */\n      0x00\n        /* \"RoamingDataManagement.sol\":4598:4614  visitingOperator */\n      dup6\n        /* \"RoamingDataManagement.sol\":4561:4615  usageSummaryTablePerVisitingOperator[visitingOperator] */\n      0xffffffffffffffffffffffffffffffffffffffff\n      and\n      0xffffffffffffffffffffffffffffffffffffffff\n      and\n      dup2\n      mstore\n      0x20\n      add\n      swap1\n      dup2\n      mstore\n      0x20\n      add\n      0x00\n      keccak256\n        /* \"RoamingDataManagement.sol\":4561:4620  usageSummaryTablePerVisitingOperator[visitingOperator].imsi */\n      0x00\n      add\n        /* \"RoamingDataManagement.sol\":4561:4627  usageSummaryTablePerVisitingOperator[visitingOperator].imsi = imsi */\n      swap1\n      dup2\n      tag_282\n      swap2\n      swap1\n      tag_238\n      jump\t// in\n    tag_282:\n      pop\n        /* \"RoamingDataManagement.sol\":4701:4707  number */\n      dup13\n        /* \"RoamingDataManagement.sol\":4637:4673  usageSummaryTablePerVisitingOperator */\n      dup2\n        /* \"RoamingDataManagement.sol\":4637:4691  usageSummaryTablePerVisitingOperator[visitingOperator] */\n      0x00\n        /* \"RoamingDataManagement.sol\":4674:4690  visitingOperator */\n      dup6\n        /* \"RoamingDataManagement.sol\":4637:4691  usageSummaryTablePerVisitingOperator[visitingOperator] */\n      0xffffffffffffffffffffffffffffffffffffffff\n      and\n      0xffffffffffffffffffffffffffffffffffffffff\n      and\n      dup2\n      mstore\n      0x20\n      add\n      swap1\n      dup2\n      mstore\n      0x20\n      add\n      0x00\n      keccak256\n        /* \"RoamingDataManagement.sol\":4637:4698  usageSummaryTablePerVisitingOperator[visitingOperator].number */\n      0x01\n      add\n        /* \"RoamingDataManagement.sol\":4637:4707  usageSummaryTablePerVisitingOperator[visitingOperator].number = number */\n      swap1\n      dup2\n      tag_283\n      swap2\n      swap1\n      tag_238\n      jump\t// in\n    tag_283:\n      pop\n        /* \"RoamingDataManagement.sol\":4790:4805  serviceProvider */\n      dup12\n        /* \"RoamingDataManagement.sol\":4717:4753  usageSummaryTablePerVisitingOperator */\n      dup2\n        /* \"RoamingDataManagement.sol\":4717:4771  usageSummaryTablePerVisitingOperator[visitingOperator] */\n      0x00\n        /* \"RoamingDataManagement.sol\":4754:4770  visitingOperator */\n      dup6\n        /* \"RoamingDataManagement.sol\":4717:4771  usageSummaryTablePerVisitingOperator[visitingOperator] */\n      0xffffffffffffffffffffffffffffffffffffffff\n      and\n      0xffffffffffffffffffffffffffffffffffffffff\n      and\n      dup2\n      mstore\n      0x20\n      add\n      swap1\n      dup2\n      mstore\n      0x20\n      add\n      0x00\n      keccak256\n        /* \"RoamingDataManagement.sol\":4717:4787  usageSummaryTablePerVisitingOperator[visitingOperator].serviceProvider */\n      0x02\n      add\n        /* \"RoamingDataManagement.sol\":4717:4805  usageSummaryTablePerVisitingOperator[visitingOperator].serviceProvider = serviceProvider */\n      swap1\n      dup2\n      tag_284\n      swap2\n      swap1\n      tag_238\n      jump\t// in\n    tag_284:\n      pop\n        /* \"RoamingDataManagement.sol\":4887:4901  voiceCallUsage */\n      dup11\n        /* \"RoamingDataManagement.sol\":4815:4851  usageSummaryTablePerVisitingOperator */\n      dup2\n        /* \"RoamingDataManagement.sol\":4815:4869  usageSummaryTablePerVisitingOperator[visitingOperator] */\n      0x00\n        /* \"RoamingDataManagement.sol\":4852:4868  visitingOperator */\n      dup6\n        /* \"RoamingDataManagement.sol\":4815:4869  usageSummaryTablePerVisitingOperator[visitingOperator] */\n      0xffffffffffffffffffffffffffffffffffffffff\n      and\n      0xffffffffffffffffffffffffffffffffffffffff\n      and\n      dup2\n      mstore\n      0x20\n      add\n      swap1\n      dup2\n      mstore\n      0x20\n      add\n      0x00\n      keccak256\n        /* \"RoamingDataManagement.sol\":4815:4884  usageSummaryTablePerVisitingOperator[visitingOperator].voiceCallUsage */\n      0x07\n      add\n        /* \"RoamingDataManagement.sol\":4815:4901  usageSummaryTablePerVisitingOperator[visitingOperator].voiceCallUsage = voiceCallUsage */\n      dup2\n      swap1\n      sstore\n      pop\n        /* \"RoamingDataManagement.sol\":4982:4995  internetUsage */\n      dup10\n        /* \"RoamingDataManagement.sol\":4911:4947  usageSummaryTablePerVisitingOperator */\n      dup2\n        /* \"RoamingDataManagement.sol\":4911:4965  usageSummaryTablePerVisitingOperator[visitingOperator] */\n      0x00\n        /* \"RoamingDataManagement.sol\":4948:4964  visitingOperator */\n      dup6\n        /* \"RoamingDataManagement.sol\":4911:4965  usageSummaryTablePerVisitingOperator[visitingOperator] */\n      0xffffffffffffffffffffffffffffffffffffffff\n      and\n      0xffffffffffffffffffffffffffffffffffffffff\n      and\n      dup2\n      mstore\n      0x20\n      add\n      swap1\n      dup2\n      mstore\n      0x20\n      add\n      0x00\n      keccak256\n        /* \"RoamingDataManagement.sol\":4911:4979  usageSummaryTablePerVisitingOperator[visitingOperator].internetUsage */\n      0x08\n      add\n        /* \"RoamingDataManagement.sol\":4911:4995  usageSummaryTablePerVisitingOperator[visitingOperator].internetUsage = internetUsage */\n      dup2\n      swap1\n      sstore\n      pop\n        /* \"RoamingDataManagement.sol\":5071:5079  smsUsage */\n      dup9\n        /* \"RoamingDataManagement.sol\":5005:5041  usageSummaryTablePerVisitingOperator */\n      dup2\n        /* \"RoamingDataManagement.sol\":5005:5059  usageSummaryTablePerVisitingOperator[visitingOperator] */\n      0x00\n        /* \"RoamingDataManagement.sol\":5042:5058  visitingOperator */\n      dup6\n        /* \"RoamingDataManagement.sol\":5005:5059  usageSummaryTablePerVisitingOperator[visitingOperator] */\n      0xffffffffffffffffffffffffffffffffffffffff\n      and\n      0xffffffffffffffffffffffffffffffffffffffff\n      and\n      dup2\n      mstore\n      0x20\n      add\n      swap1\n      dup2\n      mstore\n      0x20\n      add\n      0x00\n      keccak256\n        /* \"RoamingDataManagement.sol\":5005:5068  usageSummaryTablePerVisitingOperator[visitingOperator].smsUsage */\n      0x09\n      add\n        /* \"RoamingDataManagement.sol\":5005:5079  usageSummaryTablePerVisitingOperator[visitingOperator].smsUsage = smsUsage */\n      dup2\n      swap1\n      sstore\n      pop\n        /* \"RoamingDataManagement.sol\":5164:5180  serviceStartTime */\n      dup8\n        /* \"RoamingDataManagement.sol\":5090:5126  usageSummaryTablePerVisitingOperator */\n      dup2\n        /* \"RoamingDataManagement.sol\":5090:5144  usageSummaryTablePerVisitingOperator[visitingOperator] */\n      0x00\n        /* \"RoamingDataManagement.sol\":5127:5143  visitingOperator */\n      dup6\n        /* \"RoamingDataManagement.sol\":5090:5144  usageSummaryTablePerVisitingOperator[visitingOperator] */\n      0xffffffffffffffffffffffffffffffffffffffff\n      and\n      0xffffffffffffffffffffffffffffffffffffffff\n      and\n      dup2\n      mstore\n      0x20\n      add\n      swap1\n      dup2\n      mstore\n      0x20\n      add\n      0x00\n      keccak256\n        /* \"RoamingDataManagement.sol\":5090:5161  usageSummaryTablePerVisitingOperator[visitingOperator].serviceStartTime */\n      0x03\n      add\n        /* \"RoamingDataManagement.sol\":5090:5180  usageSummaryTablePerVisitingOperator[visitingOperator].serviceStartTime = serviceStartTime */\n      dup2\n      swap1\n      sstore\n      pop\n        /* \"RoamingDataManagement.sol\":5265:5282  internetStartTime */\n      dup7\n        /* \"RoamingDataManagement.sol\":5190:5226  usageSummaryTablePerVisitingOperator */\n      dup2\n        /* \"RoamingDataManagement.sol\":5190:5244  usageSummaryTablePerVisitingOperator[visitingOperator] */\n      0x00\n        /* \"RoamingDataManagement.sol\":5227:5243  visitingOperator */\n      dup6\n        /* \"RoamingDataManagement.sol\":5190:5244  usageSummaryTablePerVisitingOperator[visitingOperator] */\n      0xffffffffffffffffffffffffffffffffffffffff\n      and\n      0xffffffffffffffffffffffffffffffffffffffff\n      and\n      dup2\n      mstore\n      0x20\n      add\n      swap1\n      dup2\n      mstore\n      0x20\n      add\n      0x00\n      keccak256\n        /* \"RoamingDataManagement.sol\":5190:5262  usageSummaryTablePerVisitingOperator[visitingOperator].internetStartTime */\n      0x06\n      add\n        /* \"RoamingDataManagement.sol\":5190:5282  usageSummaryTablePerVisitingOperator[visitingOperator].internetStartTime = internetStartTime */\n      dup2\n      swap1\n      sstore\n      pop\n        /* \"RoamingDataManagement.sol\":5368:5386  voiceCallStartTime */\n      dup6\n        /* \"RoamingDataManagement.sol\":5292:5328  usageSummaryTablePerVisitingOperator */\n      dup2\n        /* \"RoamingDataManagement.sol\":5292:5346  usageSummaryTablePerVisitingOperator[visitingOperator] */\n      0x00\n        /* \"RoamingDataManagement.sol\":5329:5345  visitingOperator */\n      dup6\n        /* \"RoamingDataManagement.sol\":5292:5346  usageSummaryTablePerVisitingOperator[visitingOperator] */\n      0xffffffffffffffffffffffffffffffffffffffff\n      and\n      0xffffffffffffffffffffffffffffffffffffffff\n      and\n      dup2\n      mstore\n      0x20\n      add\n      swap1\n      dup2\n      mstore\n      0x20\n      add\n      0x00\n      keccak256\n        /* \"RoamingDataManagement.sol\":5292:5365  usageSummaryTablePerVisitingOperator[visitingOperator].voiceCallStartTime */\n      0x04\n      add\n        /* \"RoamingDataManagement.sol\":5292:5386  usageSummaryTablePerVisitingOperator[visitingOperator].voiceCallStartTime = voiceCallStartTime */\n      dup2\n      swap1\n      sstore\n      pop\n        /* \"RoamingDataManagement.sol\":5466:5478  smsStartTime */\n      dup5\n        /* \"RoamingDataManagement.sol\":5396:5432  usageSummaryTablePerVisitingOperator */\n      dup2\n        /* \"RoamingDataManagement.sol\":5396:5450  usageSummaryTablePerVisitingOperator[visitingOperator] */\n      0x00\n        /* \"RoamingDataManagement.sol\":5433:5449  visitingOperator */\n      dup6\n        /* \"RoamingDataManagement.sol\":5396:5450  usageSummaryTablePerVisitingOperator[visitingOperator] */\n      0xffffffffffffffffffffffffffffffffffffffff\n      and\n      0xffffffffffffffffffffffffffffffffffffffff\n      and\n      dup2\n      mstore\n      0x20\n      add\n      swap1\n      dup2\n      mstore\n      0x20\n      add\n      0x00\n      keccak256\n        /* \"RoamingDataManagement.sol\":5396:5463  usageSummaryTablePerVisitingOperator[visitingOperator].smsStartTime */\n      0x05\n      add\n        /* \"RoamingDataManagement.sol\":5396:5478  usageSummaryTablePerVisitingOperator[visitingOperator].smsStartTime = smsStartTime */\n      dup2\n      swap1\n      sstore\n      pop\n        /* \"RoamingDataManagement.sol\":5602:5607  1 wei */\n      0x01\n        /* \"RoamingDataManagement.sol\":5556:5560  bank */\n      0x0a\n        /* \"RoamingDataManagement.sol\":5556:5598  bank[operatorsNameToAddr[serviceProvider]] */\n      0x00\n        /* \"RoamingDataManagement.sol\":5561:5580  operatorsNameToAddr */\n      0x03\n        /* \"RoamingDataManagement.sol\":5581:5596  serviceProvider */\n      dup16\n        /* \"RoamingDataManagement.sol\":5561:5597  operatorsNameToAddr[serviceProvider] */\n      mload(0x40)\n      tag_285\n      swap2\n      swap1\n      tag_176\n      jump\t// in\n    tag_285:\n      swap1\n      dup2\n      mstore\n      0x20\n      add\n      mload(0x40)\n      dup1\n      swap2\n      sub\n      swap1\n      keccak256\n      0x00\n      swap1\n      sload\n      swap1\n      0x0100\n      exp\n      swap1\n      div\n      0xffffffffffffffffffffffffffffffffffffffff\n      and\n        /* \"RoamingDataManagement.sol\":5556:5598  bank[operatorsNameToAddr[serviceProvider]] */\n      0xffffffffffffffffffffffffffffffffffffffff\n      and\n      0xffffffffffffffffffffffffffffffffffffffff\n      and\n      dup2\n      mstore\n      0x20\n      add\n      swap1\n      dup2\n      mstore\n      0x20\n      add\n      0x00\n      keccak256\n      0x00\n        /* \"RoamingDataManagement.sol\":5556:5607  bank[operatorsNameToAddr[serviceProvider]] -= 1 wei */\n      dup3\n      dup3\n      sload\n      tag_286\n      swap2\n      swap1\n      tag_287\n      jump\t// in\n    tag_286:\n      swap3\n      pop\n      pop\n      dup2\n      swap1\n      sstore\n      pop\n        /* \"RoamingDataManagement.sol\":5643:5648  1 wei */\n      0x01\n        /* \"RoamingDataManagement.sol\":5617:5621  bank */\n      0x0a\n        /* \"RoamingDataManagement.sol\":5617:5639  bank[visitingOperator] */\n      0x00\n        /* \"RoamingDataManagement.sol\":5622:5638  visitingOperator */\n      dup6\n        /* \"RoamingDataManagement.sol\":5617:5639  bank[visitingOperator] */\n      0xffffffffffffffffffffffffffffffffffffffff\n      and\n      0xffffffffffffffffffffffffffffffffffffffff\n      and\n      dup2\n      mstore\n      0x20\n      add\n      swap1\n      dup2\n      mstore\n      0x20\n      add\n      0x00\n      keccak256\n      0x00\n        /* \"RoamingDataManagement.sol\":5617:5648  bank[visitingOperator] += 1 wei */\n      dup3\n      dup3\n      sload\n      tag_288\n      swap2\n      swap1\n      tag_289\n      jump\t// in\n    tag_288:\n      swap3\n      pop\n      pop\n      dup2\n      swap1\n      sstore\n      pop\n        /* \"RoamingDataManagement.sol\":5658:5700  transfer(payable(visitingOperator), 1 wei) */\n      tag_290\n        /* \"RoamingDataManagement.sol\":5675:5691  visitingOperator */\n      dup4\n        /* \"RoamingDataManagement.sol\":5694:5699  1 wei */\n      0x01\n        /* \"RoamingDataManagement.sol\":5658:5666  transfer */\n      tag_98\n        /* \"RoamingDataManagement.sol\":5658:5700  transfer(payable(visitingOperator), 1 wei) */\n      jump\t// in\n    tag_290:\n        /* \"RoamingDataManagement.sol\":5711:5734  BillingRecord memory br */\n      0x00\n        /* \"RoamingDataManagement.sol\":5737:6002  BillingRecord({... */\n      mload(0x40)\n      dup1\n      0xc0\n      add\n      0x40\n      mstore\n      dup1\n        /* \"RoamingDataManagement.sol\":5768:5787  operatorsNameToAddr */\n      0x03\n        /* \"RoamingDataManagement.sol\":5788:5803  serviceProvider */\n      dup16\n        /* \"RoamingDataManagement.sol\":5768:5804  operatorsNameToAddr[serviceProvider] */\n      mload(0x40)\n      tag_291\n      swap2\n      swap1\n      tag_176\n      jump\t// in\n    tag_291:\n      swap1\n      dup2\n      mstore\n      0x20\n      add\n      mload(0x40)\n      dup1\n      swap2\n      sub\n      swap1\n      keccak256\n      0x00\n      swap1\n      sload\n      swap1\n      0x0100\n      exp\n      swap1\n      div\n      0xffffffffffffffffffffffffffffffffffffffff\n      and\n        /* \"RoamingDataManagement.sol\":5737:6002  BillingRecord({... */\n      0xffffffffffffffffffffffffffffffffffffffff\n      and\n      dup2\n      mstore\n      0x20\n      add\n        /* \"RoamingDataManagement.sol\":5821:5837  visitingOperator */\n      dup6\n        /* \"RoamingDataManagement.sol\":5737:6002  BillingRecord({... */\n      0xffffffffffffffffffffffffffffffffffffffff\n      and\n      dup2\n      mstore\n      0x20\n      add\n        /* \"RoamingDataManagement.sol\":5858:5873  serviceProvider */\n      dup15\n        /* \"RoamingDataManagement.sol\":5737:6002  BillingRecord({... */\n      dup2\n      mstore\n      0x20\n      add\n        /* \"RoamingDataManagement.sol\":5894:5913  operatorsAddrToName */\n      0x02\n        /* \"RoamingDataManagement.sol\":5894:5931  operatorsAddrToName[visitingOperator] */\n      0x00\n        /* \"RoamingDataManagement.sol\":5914:5930  visitingOperator */\n      dup8\n        /* \"RoamingDataManagement.sol\":5894:5931  operatorsAddrToName[visitingOperator] */\n      0xffffffffffffffffffffffffffffffffffffffff\n      and\n      0xffffffffffffffffffffffffffffffffffffffff\n      and\n      dup2\n      mstore\n      0x20\n      add\n      swap1\n      dup2\n      mstore\n      0x20\n      add\n      0x00\n      keccak256\n        /* \"RoamingDataManagement.sol\":5737:6002  BillingRecord({... */\n      dup1\n      sload\n      tag_292\n      swap1\n      tag_133\n      jump\t// in\n    tag_292:\n      dup1\n      0x1f\n      add\n      0x20\n      dup1\n      swap2\n      div\n      mul\n      0x20\n      add\n      mload(0x40)\n      swap1\n      dup2\n      add\n      0x40\n      mstore\n      dup1\n      swap3\n      swap2\n      swap1\n      dup2\n      dup2\n      mstore\n      0x20\n      add\n      dup3\n      dup1\n      sload\n      tag_293\n      swap1\n      tag_133\n      jump\t// in\n    tag_293:\n      dup1\n      iszero\n      tag_294\n      jumpi\n      dup1\n      0x1f\n      lt\n      tag_295\n      jumpi\n      0x0100\n      dup1\n      dup4\n      sload\n      div\n      mul\n      dup4\n      mstore\n      swap2\n      0x20\n      add\n      swap2\n      jump(tag_294)\n    tag_295:\n      dup3\n      add\n      swap2\n      swap1\n      0x00\n      mstore\n      keccak256(0x00, 0x20)\n      swap1\n    tag_296:\n      dup2\n      sload\n      dup2\n      mstore\n      swap1\n      0x01\n      add\n      swap1\n      0x20\n      add\n      dup1\n      dup4\n      gt\n      tag_296\n      jumpi\n      dup3\n      swap1\n      sub\n      0x1f\n      and\n      dup3\n      add\n      swap2\n    tag_294:\n      pop\n      pop\n      pop\n      pop\n      pop\n      dup2\n      mstore\n      0x20\n      add\n        /* \"RoamingDataManagement.sol\":5949:5954  1 wei */\n      0x01\n        /* \"RoamingDataManagement.sol\":5737:6002  BillingRecord({... */\n      dup2\n      mstore\n      0x20\n      add\n        /* \"RoamingDataManagement.sol\":5975:5991  currentTimestamp */\n      dup7\n        /* \"RoamingDataManagement.sol\":5737:6002  BillingRecord({... */\n      dup2\n      mstore\n      pop\n        /* \"RoamingDataManagement.sol\":5711:6002  BillingRecord memory br = BillingRecord({... */\n      swap1\n      pop\n        /* \"RoamingDataManagement.sol\":6013:6027  billingHistory */\n      0x06\n        /* \"RoamingDataManagement.sol\":6033:6035  br */\n      dup2\n        /* \"RoamingDataManagement.sol\":6013:6036  billingHistory.push(br) */\n      swap1\n      dup1\n      0x01\n      dup2\n      sload\n      add\n      dup1\n      dup3\n      sstore\n      dup1\n      swap2\n      pop\n      pop\n      0x01\n      swap1\n      sub\n      swap1\n      0x00\n      mstore\n      keccak256(0x00, 0x20)\n      swap1\n      0x06\n      mul\n      add\n      0x00\n      swap1\n      swap2\n      swap1\n      swap2\n      swap1\n      swap2\n      pop\n      0x00\n      dup3\n      add\n      mload\n      dup2\n      0x00\n      add\n      exp(0x0100, 0x00)\n      dup2\n      sload\n      dup2\n      0xffffffffffffffffffffffffffffffffffffffff\n      mul\n      not\n      and\n      swap1\n      dup4\n      0xffffffffffffffffffffffffffffffffffffffff\n      and\n      mul\n      or\n      swap1\n      sstore\n      pop\n      0x20\n      dup3\n      add\n      mload\n      dup2\n      0x01\n      add\n      exp(0x0100, 0x00)\n      dup2\n      sload\n      dup2\n      0xffffffffffffffffffffffffffffffffffffffff\n      mul\n      not\n      and\n      swap1\n      dup4\n      0xffffffffffffffffffffffffffffffffffffffff\n      and\n      mul\n      or\n      swap1\n      sstore\n      pop\n      0x40\n      dup3\n      add\n      mload\n      dup2\n      0x02\n      add\n      swap1\n      dup2\n      tag_298\n      swap2\n      swap1\n      tag_238\n      jump\t// in\n    tag_298:\n      pop\n      0x60\n      dup3\n      add\n      mload\n      dup2\n      0x03\n      add\n      swap1\n      dup2\n      tag_299\n      swap2\n      swap1\n      tag_238\n      jump\t// in\n    tag_299:\n      pop\n      0x80\n      dup3\n      add\n      mload\n      dup2\n      0x04\n      add\n      sstore\n      0xa0\n      dup3\n      add\n      mload\n      dup2\n      0x05\n      add\n      sstore\n      pop\n      pop\n        /* \"RoamingDataManagement.sol\":3481:6043  {... */\n      pop\n      pop\n      pop\n      pop\n        /* \"RoamingDataManagement.sol\":3160:6043  function uploadUserDataSummary(string memory imsi, string memory number, string memory serviceProvider,... */\n      pop\n      pop\n      pop\n      pop\n      pop\n      pop\n      pop\n      pop\n      pop\n      pop\n      pop\n      jump\t// out\n        /* \"RoamingDataManagement.sol\":1833:1932  function balance() external view returns(uint256)... */\n    tag_112:\n        /* \"RoamingDataManagement.sol\":1874:1881  uint256 */\n      0x00\n        /* \"RoamingDataManagement.sol\":1904:1925  address(this).balance */\n      selfbalance\n        /* \"RoamingDataManagement.sol\":1897:1925  return address(this).balance */\n      swap1\n      pop\n        /* \"RoamingDataManagement.sol\":1833:1932  function balance() external view returns(uint256)... */\n      swap1\n      jump\t// out\n        /* \"RoamingDataManagement.sol\":1669:1749  function deposit() public payable... */\n    tag_115:\n        /* \"RoamingDataManagement.sol\":1733:1742  msg.value */\n      callvalue\n        /* \"RoamingDataManagement.sol\":1717:1729  totalDeposit */\n      0x05\n      0x00\n        /* \"RoamingDataManagement.sol\":1717:1742  totalDeposit += msg.value */\n      dup3\n      dup3\n      sload\n      tag_302\n      swap2\n      swap1\n      tag_289\n      jump\t// in\n    tag_302:\n      swap3\n      pop\n      pop\n      dup2\n      swap1\n      sstore\n      pop\n        /* \"RoamingDataManagement.sol\":1669:1749  function deposit() public payable... */\n      jump\t// out\n        /* \"RoamingDataManagement.sol\":457:481  uint public totalDeposit */\n    tag_118:\n      sload(0x05)\n      dup2\n      jump\t// out\n        /* \"RoamingDataManagement.sol\":335:388  mapping(string => address) public operatorsNameToAddr */\n    tag_124:\n      0x03\n      dup2\n      dup1\n      mload\n      0x20\n      dup2\n      add\n      dup3\n      add\n      dup1\n      mload\n      dup5\n      dup3\n      mstore\n      0x20\n      dup4\n      add\n      0x20\n      dup6\n      add\n      keccak256\n      dup2\n      dup4\n      mstore\n      dup1\n      swap6\n      pop\n      pop\n      pop\n      pop\n      pop\n      pop\n      0x00\n      swap2\n      pop\n      sload\n      swap1\n      0x0100\n      exp\n      swap1\n      div\n      0xffffffffffffffffffffffffffffffffffffffff\n      and\n      dup2\n      jump\t// out\n        /* \"RoamingDataManagement.sol\":1938:3154  function registerRoamingOperator(address operatorAddr, string memory operatorName, uint256 currentTimestamp, string memory secretKey) public payable {... */\n    tag_129:\n        /* \"RoamingDataManagement.sol\":2384:2385  0 */\n      0x00\n        /* \"RoamingDataManagement.sol\":2339:2358  operatorsAddrToName */\n      0x02\n        /* \"RoamingDataManagement.sol\":2339:2372  operatorsAddrToName[operatorAddr] */\n      0x00\n        /* \"RoamingDataManagement.sol\":2359:2371  operatorAddr */\n      dup7\n        /* \"RoamingDataManagement.sol\":2339:2372  operatorsAddrToName[operatorAddr] */\n      0xffffffffffffffffffffffffffffffffffffffff\n      and\n      0xffffffffffffffffffffffffffffffffffffffff\n      and\n      dup2\n      mstore\n      0x20\n      add\n      swap1\n      dup2\n      mstore\n      0x20\n      add\n      0x00\n      keccak256\n        /* \"RoamingDataManagement.sol\":2333:2380  bytes(operatorsAddrToName[operatorAddr]).length */\n      dup1\n      sload\n      tag_304\n      swap1\n      tag_133\n      jump\t// in\n    tag_304:\n      swap1\n      pop\n        /* \"RoamingDataManagement.sol\":2333:2385  bytes(operatorsAddrToName[operatorAddr]).length == 0 */\n      eq\n        /* \"RoamingDataManagement.sol\":2333:2439  bytes(operatorsAddrToName[operatorAddr]).length == 0 && operatorsNameToAddr[operatorName] == address(0x00) */\n      dup1\n      iszero\n      tag_305\n      jumpi\n      pop\n        /* \"RoamingDataManagement.sol\":2434:2438  0x00 */\n      0x00\n        /* \"RoamingDataManagement.sol\":2389:2439  operatorsNameToAddr[operatorName] == address(0x00) */\n      0xffffffffffffffffffffffffffffffffffffffff\n      and\n        /* \"RoamingDataManagement.sol\":2389:2408  operatorsNameToAddr */\n      0x03\n        /* \"RoamingDataManagement.sol\":2409:2421  operatorName */\n      dup5\n        /* \"RoamingDataManagement.sol\":2389:2422  operatorsNameToAddr[operatorName] */\n      mload(0x40)\n      tag_306\n      swap2\n      swap1\n      tag_176\n      jump\t// in\n    tag_306:\n      swap1\n      dup2\n      mstore\n      0x20\n      add\n      mload(0x40)\n      dup1\n      swap2\n      sub\n      swap1\n      keccak256\n      0x00\n      swap1\n      sload\n      swap1\n      0x0100\n      exp\n      swap1\n      div\n      0xffffffffffffffffffffffffffffffffffffffff\n      and\n        /* \"RoamingDataManagement.sol\":2389:2439  operatorsNameToAddr[operatorName] == address(0x00) */\n      0xffffffffffffffffffffffffffffffffffffffff\n      and\n      eq\n        /* \"RoamingDataManagement.sol\":2333:2439  bytes(operatorsAddrToName[operatorAddr]).length == 0 && operatorsNameToAddr[operatorName] == address(0x00) */\n    tag_305:\n        /* \"RoamingDataManagement.sol\":2329:3148  if (bytes(operatorsAddrToName[operatorAddr]).length == 0 && operatorsNameToAddr[operatorName] == address(0x00)) {... */\n      iszero\n      tag_307\n      jumpi\n        /* \"RoamingDataManagement.sol\":2476:2483  100 wei */\n      0x64\n        /* \"RoamingDataManagement.sol\":2463:2472  msg.value */\n      callvalue\n        /* \"RoamingDataManagement.sol\":2463:2483  msg.value >= 100 wei */\n      lt\n      iszero\n        /* \"RoamingDataManagement.sol\":2455:2484  require(msg.value >= 100 wei) */\n      tag_308\n      jumpi\n      0x00\n      dup1\n      revert\n    tag_308:\n        /* \"RoamingDataManagement.sol\":2498:2514  serviceProviders */\n      0x00\n        /* \"RoamingDataManagement.sol\":2520:2532  operatorName */\n      dup4\n        /* \"RoamingDataManagement.sol\":2498:2533  serviceProviders.push(operatorName) */\n      swap1\n      dup1\n      0x01\n      dup2\n      sload\n      add\n      dup1\n      dup3\n      sstore\n      dup1\n      swap2\n      pop\n      pop\n      0x01\n      swap1\n      sub\n      swap1\n      0x00\n      mstore\n      keccak256(0x00, 0x20)\n      add\n      0x00\n      swap1\n      swap2\n      swap1\n      swap2\n      swap1\n      swap2\n      pop\n      swap1\n      dup2\n      tag_310\n      swap2\n      swap1\n      tag_238\n      jump\t// in\n    tag_310:\n      pop\n        /* \"RoamingDataManagement.sol\":2547:2564  operatorAddresses */\n      0x01\n        /* \"RoamingDataManagement.sol\":2570:2582  operatorAddr */\n      dup5\n        /* \"RoamingDataManagement.sol\":2547:2583  operatorAddresses.push(operatorAddr) */\n      swap1\n      dup1\n      0x01\n      dup2\n      sload\n      add\n      dup1\n      dup3\n      sstore\n      dup1\n      swap2\n      pop\n      pop\n      0x01\n      swap1\n      sub\n      swap1\n      0x00\n      mstore\n      keccak256(0x00, 0x20)\n      add\n      0x00\n      swap1\n      swap2\n      swap1\n      swap2\n      swap1\n      swap2\n      0x0100\n      exp\n      dup2\n      sload\n      dup2\n      0xffffffffffffffffffffffffffffffffffffffff\n      mul\n      not\n      and\n      swap1\n      dup4\n      0xffffffffffffffffffffffffffffffffffffffff\n      and\n      mul\n      or\n      swap1\n      sstore\n      pop\n        /* \"RoamingDataManagement.sol\":2633:2645  operatorAddr */\n      dup4\n        /* \"RoamingDataManagement.sol\":2597:2616  operatorsNameToAddr */\n      0x03\n        /* \"RoamingDataManagement.sol\":2617:2629  operatorName */\n      dup5\n        /* \"RoamingDataManagement.sol\":2597:2630  operatorsNameToAddr[operatorName] */\n      mload(0x40)\n      tag_312\n      swap2\n      swap1\n      tag_176\n      jump\t// in\n    tag_312:\n      swap1\n      dup2\n      mstore\n      0x20\n      add\n      mload(0x40)\n      dup1\n      swap2\n      sub\n      swap1\n      keccak256\n      0x00\n        /* \"RoamingDataManagement.sol\":2597:2645  operatorsNameToAddr[operatorName] = operatorAddr */\n      0x0100\n      exp\n      dup2\n      sload\n      dup2\n      0xffffffffffffffffffffffffffffffffffffffff\n      mul\n      not\n      and\n      swap1\n      dup4\n      0xffffffffffffffffffffffffffffffffffffffff\n      and\n      mul\n      or\n      swap1\n      sstore\n      pop\n        /* \"RoamingDataManagement.sol\":2695:2707  operatorName */\n      dup3\n        /* \"RoamingDataManagement.sol\":2659:2678  operatorsAddrToName */\n      0x02\n        /* \"RoamingDataManagement.sol\":2659:2692  operatorsAddrToName[operatorAddr] */\n      0x00\n        /* \"RoamingDataManagement.sol\":2679:2691  operatorAddr */\n      dup7\n        /* \"RoamingDataManagement.sol\":2659:2692  operatorsAddrToName[operatorAddr] */\n      0xffffffffffffffffffffffffffffffffffffffff\n      and\n      0xffffffffffffffffffffffffffffffffffffffff\n      and\n      dup2\n      mstore\n      0x20\n      add\n      swap1\n      dup2\n      mstore\n      0x20\n      add\n      0x00\n      keccak256\n        /* \"RoamingDataManagement.sol\":2659:2707  operatorsAddrToName[operatorAddr] = operatorName */\n      swap1\n      dup2\n      tag_313\n      swap2\n      swap1\n      tag_238\n      jump\t// in\n    tag_313:\n      pop\n        /* \"RoamingDataManagement.sol\":2743:2752  msg.value */\n      callvalue\n        /* \"RoamingDataManagement.sol\":2721:2725  bank */\n      0x0a\n        /* \"RoamingDataManagement.sol\":2721:2739  bank[operatorAddr] */\n      0x00\n        /* \"RoamingDataManagement.sol\":2726:2738  operatorAddr */\n      dup7\n        /* \"RoamingDataManagement.sol\":2721:2739  bank[operatorAddr] */\n      0xffffffffffffffffffffffffffffffffffffffff\n      and\n      0xffffffffffffffffffffffffffffffffffffffff\n      and\n      dup2\n      mstore\n      0x20\n      add\n      swap1\n      dup2\n      mstore\n      0x20\n      add\n      0x00\n      keccak256\n      0x00\n        /* \"RoamingDataManagement.sol\":2721:2752  bank[operatorAddr] += msg.value */\n      dup3\n      dup3\n      sload\n      tag_314\n      swap2\n      swap1\n      tag_289\n      jump\t// in\n    tag_314:\n      swap3\n      pop\n      pop\n      dup2\n      swap1\n      sstore\n      pop\n        /* \"RoamingDataManagement.sol\":2766:2789  BillingRecord memory br */\n      0x00\n        /* \"RoamingDataManagement.sol\":2792:3045  BillingRecord({... */\n      mload(0x40)\n      dup1\n      0xc0\n      add\n      0x40\n      mstore\n      dup1\n        /* \"RoamingDataManagement.sol\":2827:2837  msg.sender */\n      caller\n        /* \"RoamingDataManagement.sol\":2792:3045  BillingRecord({... */\n      0xffffffffffffffffffffffffffffffffffffffff\n      and\n      dup2\n      mstore\n      0x20\n      add\n        /* \"RoamingDataManagement.sol\":2866:2870  this */\n      address\n        /* \"RoamingDataManagement.sol\":2792:3045  BillingRecord({... */\n      0xffffffffffffffffffffffffffffffffffffffff\n      and\n      dup2\n      mstore\n      0x20\n      add\n        /* \"RoamingDataManagement.sol\":2896:2915  operatorsAddrToName */\n      0x02\n        /* \"RoamingDataManagement.sol\":2896:2927  operatorsAddrToName[msg.sender] */\n      0x00\n        /* \"RoamingDataManagement.sol\":2916:2926  msg.sender */\n      caller\n        /* \"RoamingDataManagement.sol\":2896:2927  operatorsAddrToName[msg.sender] */\n      0xffffffffffffffffffffffffffffffffffffffff\n      and\n      0xffffffffffffffffffffffffffffffffffffffff\n      and\n      dup2\n      mstore\n      0x20\n      add\n      swap1\n      dup2\n      mstore\n      0x20\n      add\n      0x00\n      keccak256\n        /* \"RoamingDataManagement.sol\":2792:3045  BillingRecord({... */\n      dup1\n      sload\n      tag_315\n      swap1\n      tag_133\n      jump\t// in\n    tag_315:\n      dup1\n      0x1f\n      add\n      0x20\n      dup1\n      swap2\n      div\n      mul\n      0x20\n      add\n      mload(0x40)\n      swap1\n      dup2\n      add\n      0x40\n      mstore\n      dup1\n      swap3\n      swap2\n      swap1\n      dup2\n      dup2\n      mstore\n      0x20\n      add\n      dup3\n      dup1\n      sload\n      tag_316\n      swap1\n      tag_133\n      jump\t// in\n    tag_316:\n      dup1\n      iszero\n      tag_317\n      jumpi\n      dup1\n      0x1f\n      lt\n      tag_318\n      jumpi\n      0x0100\n      dup1\n      dup4\n      sload\n      div\n      mul\n      dup4\n      mstore\n      swap2\n      0x20\n      add\n      swap2\n      jump(tag_317)\n    tag_318:\n      dup3\n      add\n      swap2\n      swap1\n      0x00\n      mstore\n      keccak256(0x00, 0x20)\n      swap1\n    tag_319:\n      dup2\n      sload\n      dup2\n      mstore\n      swap1\n      0x01\n      add\n      swap1\n      0x20\n      add\n      dup1\n      dup4\n      gt\n      tag_319\n      jumpi\n      dup3\n      swap1\n      sub\n      0x1f\n      and\n      dup3\n      add\n      swap2\n    tag_317:\n      pop\n      pop\n      pop\n      pop\n      pop\n      dup2\n      mstore\n      0x20\n      add\n      mload(0x40)\n      dup1\n      0x40\n      add\n      0x40\n      mstore\n      dup1\n      0x04\n      dup2\n      mstore\n      0x20\n      add\n      0x42616e6b00000000000000000000000000000000000000000000000000000000\n      dup2\n      mstore\n      pop\n      dup2\n      mstore\n      0x20\n      add\n        /* \"RoamingDataManagement.sol\":2980:2989  msg.value */\n      callvalue\n        /* \"RoamingDataManagement.sol\":2792:3045  BillingRecord({... */\n      dup2\n      mstore\n      0x20\n      add\n        /* \"RoamingDataManagement.sol\":3014:3030  currentTimestamp */\n      dup5\n        /* \"RoamingDataManagement.sol\":2792:3045  BillingRecord({... */\n      dup2\n      mstore\n      pop\n        /* \"RoamingDataManagement.sol\":2766:3045  BillingRecord memory br = BillingRecord({... */\n      swap1\n      pop\n        /* \"RoamingDataManagement.sol\":3060:3074  billingHistory */\n      0x06\n        /* \"RoamingDataManagement.sol\":3080:3082  br */\n      dup2\n        /* \"RoamingDataManagement.sol\":3060:3083  billingHistory.push(br) */\n      swap1\n      dup1\n      0x01\n      dup2\n      sload\n      add\n      dup1\n      dup3\n      sstore\n      dup1\n      swap2\n      pop\n      pop\n      0x01\n      swap1\n      sub\n      swap1\n      0x00\n      mstore\n      keccak256(0x00, 0x20)\n      swap1\n      0x06\n      mul\n      add\n      0x00\n      swap1\n      swap2\n      swap1\n      swap2\n      swap1\n      swap2\n      pop\n      0x00\n      dup3\n      add\n      mload\n      dup2\n      0x00\n      add\n      exp(0x0100, 0x00)\n      dup2\n      sload\n      dup2\n      0xffffffffffffffffffffffffffffffffffffffff\n      mul\n      not\n      and\n      swap1\n      dup4\n      0xffffffffffffffffffffffffffffffffffffffff\n      and\n      mul\n      or\n      swap1\n      sstore\n      pop\n      0x20\n      dup3\n      add\n      mload\n      dup2\n      0x01\n      add\n      exp(0x0100, 0x00)\n      dup2\n      sload\n      dup2\n      0xffffffffffffffffffffffffffffffffffffffff\n      mul\n      not\n      and\n      swap1\n      dup4\n      0xffffffffffffffffffffffffffffffffffffffff\n      and\n      mul\n      or\n      swap1\n      sstore\n      pop\n      0x40\n      dup3\n      add\n      mload\n      dup2\n      0x02\n      add\n      swap1\n      dup2\n      tag_321\n      swap2\n      swap1\n      tag_238\n      jump\t// in\n    tag_321:\n      pop\n      0x60\n      dup3\n      add\n      mload\n      dup2\n      0x03\n      add\n      swap1\n      dup2\n      tag_322\n      swap2\n      swap1\n      tag_238\n      jump\t// in\n    tag_322:\n      pop\n      0x80\n      dup3\n      add\n      mload\n      dup2\n      0x04\n      add\n      sstore\n      0xa0\n      dup3\n      add\n      mload\n      dup2\n      0x05\n      add\n      sstore\n      pop\n      pop\n        /* \"RoamingDataManagement.sol\":3097:3137  uploadSecretKey(operatorAddr, secretKey) */\n      tag_323\n        /* \"RoamingDataManagement.sol\":3113:3125  operatorAddr */\n      dup6\n        /* \"RoamingDataManagement.sol\":3127:3136  secretKey */\n      dup4\n        /* \"RoamingDataManagement.sol\":3097:3112  uploadSecretKey */\n      tag_76\n        /* \"RoamingDataManagement.sol\":3097:3137  uploadSecretKey(operatorAddr, secretKey) */\n      jump\t// in\n    tag_323:\n        /* \"RoamingDataManagement.sol\":2441:3148  {... */\n      pop\n        /* \"RoamingDataManagement.sol\":2329:3148  if (bytes(operatorsAddrToName[operatorAddr]).length == 0 && operatorsNameToAddr[operatorName] == address(0x00)) {... */\n    tag_307:\n        /* \"RoamingDataManagement.sol\":1938:3154  function registerRoamingOperator(address operatorAddr, string memory operatorName, uint256 currentTimestamp, string memory secretKey) public payable {... */\n      pop\n      pop\n      pop\n      pop\n      jump\t// out\n    tag_162:\n      mload(0x40)\n      dup1\n      0x0140\n      add\n      0x40\n      mstore\n      dup1\n      0x60\n      dup2\n      mstore\n      0x20\n      add\n      0x60\n      dup2\n      mstore\n      0x20\n      add\n      0x60\n      dup2\n      mstore\n      0x20\n      add\n      0x00\n      dup2\n      mstore\n      0x20\n      add\n      0x00\n      dup2\n      mstore\n      0x20\n      add\n      0x00\n      dup2\n      mstore\n      0x20\n      add\n      0x00\n      dup2\n      mstore\n      0x20\n      add\n      0x00\n      dup2\n      mstore\n      0x20\n      add\n      0x00\n      dup2\n      mstore\n      0x20\n      add\n      0x00\n      dup2\n      mstore\n      pop\n      swap1\n      jump\t// out\n        /* \"#utility.yul\":7:82   */\n    tag_324:\n        /* \"#utility.yul\":40:46   */\n      0x00\n        /* \"#utility.yul\":73:75   */\n      0x40\n        /* \"#utility.yul\":67:76   */\n      mload\n        /* \"#utility.yul\":57:76   */\n      swap1\n      pop\n        /* \"#utility.yul\":7:82   */\n      swap1\n      jump\t// out\n        /* \"#utility.yul\":88:205   */\n    tag_325:\n        /* \"#utility.yul\":197:198   */\n      0x00\n        /* \"#utility.yul\":194:195   */\n      dup1\n        /* \"#utility.yul\":187:199   */\n      revert\n        /* \"#utility.yul\":211:328   */\n    tag_326:\n        /* \"#utility.yul\":320:321   */\n      0x00\n        /* \"#utility.yul\":317:318   */\n      dup1\n        /* \"#utility.yul\":310:322   */\n      revert\n        /* \"#utility.yul\":334:411   */\n    tag_327:\n        /* \"#utility.yul\":371:378   */\n      0x00\n        /* \"#utility.yul\":400:405   */\n      dup2\n        /* \"#utility.yul\":389:405   */\n      swap1\n      pop\n        /* \"#utility.yul\":334:411   */\n      swap2\n      swap1\n      pop\n      jump\t// out\n        /* \"#utility.yul\":417:539   */\n    tag_328:\n        /* \"#utility.yul\":490:514   */\n      tag_408\n        /* \"#utility.yul\":508:513   */\n      dup2\n        /* \"#utility.yul\":490:514   */\n      tag_327\n      jump\t// in\n    tag_408:\n        /* \"#utility.yul\":483:488   */\n      dup2\n        /* \"#utility.yul\":480:515   */\n      eq\n        /* \"#utility.yul\":470:533   */\n      tag_409\n      jumpi\n        /* \"#utility.yul\":529:530   */\n      0x00\n        /* \"#utility.yul\":526:527   */\n      dup1\n        /* \"#utility.yul\":519:531   */\n      revert\n        /* \"#utility.yul\":470:533   */\n    tag_409:\n        /* \"#utility.yul\":417:539   */\n      pop\n      jump\t// out\n        /* \"#utility.yul\":545:684   */\n    tag_329:\n        /* \"#utility.yul\":591:596   */\n      0x00\n        /* \"#utility.yul\":629:635   */\n      dup2\n        /* \"#utility.yul\":616:636   */\n      calldataload\n        /* \"#utility.yul\":607:636   */\n      swap1\n      pop\n        /* \"#utility.yul\":645:678   */\n      tag_411\n        /* \"#utility.yul\":672:677   */\n      dup2\n        /* \"#utility.yul\":645:678   */\n      tag_328\n      jump\t// in\n    tag_411:\n        /* \"#utility.yul\":545:684   */\n      swap3\n      swap2\n      pop\n      pop\n      jump\t// out\n        /* \"#utility.yul\":690:1019   */\n    tag_31:\n        /* \"#utility.yul\":749:755   */\n      0x00\n        /* \"#utility.yul\":798:800   */\n      0x20\n        /* \"#utility.yul\":786:795   */\n      dup3\n        /* \"#utility.yul\":777:784   */\n      dup5\n        /* \"#utility.yul\":773:796   */\n      sub\n        /* \"#utility.yul\":769:801   */\n      slt\n        /* \"#utility.yul\":766:885   */\n      iszero\n      tag_413\n      jumpi\n        /* \"#utility.yul\":804:883   */\n      tag_414\n      tag_325\n      jump\t// in\n    tag_414:\n        /* \"#utility.yul\":766:885   */\n    tag_413:\n        /* \"#utility.yul\":924:925   */\n      0x00\n        /* \"#utility.yul\":949:1002   */\n      tag_415\n        /* \"#utility.yul\":994:1001   */\n      dup5\n        /* \"#utility.yul\":985:991   */\n      dup3\n        /* \"#utility.yul\":974:983   */\n      dup6\n        /* \"#utility.yul\":970:992   */\n      add\n        /* \"#utility.yul\":949:1002   */\n      tag_329\n      jump\t// in\n    tag_415:\n        /* \"#utility.yul\":939:1002   */\n      swap2\n      pop\n        /* \"#utility.yul\":895:1012   */\n      pop\n        /* \"#utility.yul\":690:1019   */\n      swap3\n      swap2\n      pop\n      pop\n      jump\t// out\n        /* \"#utility.yul\":1025:1124   */\n    tag_330:\n        /* \"#utility.yul\":1077:1083   */\n      0x00\n        /* \"#utility.yul\":1111:1116   */\n      dup2\n        /* \"#utility.yul\":1105:1117   */\n      mload\n        /* \"#utility.yul\":1095:1117   */\n      swap1\n      pop\n        /* \"#utility.yul\":1025:1124   */\n      swap2\n      swap1\n      pop\n      jump\t// out\n        /* \"#utility.yul\":1130:1299   */\n    tag_331:\n        /* \"#utility.yul\":1214:1225   */\n      0x00\n        /* \"#utility.yul\":1248:1254   */\n      dup3\n        /* \"#utility.yul\":1243:1246   */\n      dup3\n        /* \"#utility.yul\":1236:1255   */\n      mstore\n        /* \"#utility.yul\":1288:1292   */\n      0x20\n        /* \"#utility.yul\":1283:1286   */\n      dup3\n        /* \"#utility.yul\":1279:1293   */\n      add\n        /* \"#utility.yul\":1264:1293   */\n      swap1\n      pop\n        /* \"#utility.yul\":1130:1299   */\n      swap3\n      swap2\n      pop\n      pop\n      jump\t// out\n        /* \"#utility.yul\":1305:1551   */\n    tag_332:\n        /* \"#utility.yul\":1386:1387   */\n      0x00\n        /* \"#utility.yul\":1396:1509   */\n    tag_419:\n        /* \"#utility.yul\":1410:1416   */\n      dup4\n        /* \"#utility.yul\":1407:1408   */\n      dup2\n        /* \"#utility.yul\":1404:1417   */\n      lt\n        /* \"#utility.yul\":1396:1509   */\n      iszero\n      tag_421\n      jumpi\n        /* \"#utility.yul\":1495:1496   */\n      dup1\n        /* \"#utility.yul\":1490:1493   */\n      dup3\n        /* \"#utility.yul\":1486:1497   */\n      add\n        /* \"#utility.yul\":1480:1498   */\n      mload\n        /* \"#utility.yul\":1476:1477   */\n      dup2\n        /* \"#utility.yul\":1471:1474   */\n      dup5\n        /* \"#utility.yul\":1467:1478   */\n      add\n        /* \"#utility.yul\":1460:1499   */\n      mstore\n        /* \"#utility.yul\":1432:1434   */\n      0x20\n        /* \"#utility.yul\":1429:1430   */\n      dup2\n        /* \"#utility.yul\":1425:1435   */\n      add\n        /* \"#utility.yul\":1420:1435   */\n      swap1\n      pop\n        /* \"#utility.yul\":1396:1509   */\n      jump(tag_419)\n    tag_421:\n        /* \"#utility.yul\":1543:1544   */\n      0x00\n        /* \"#utility.yul\":1534:1540   */\n      dup5\n        /* \"#utility.yul\":1529:1532   */\n      dup5\n        /* \"#utility.yul\":1525:1541   */\n      add\n        /* \"#utility.yul\":1518:1545   */\n      mstore\n        /* \"#utility.yul\":1367:1551   */\n      pop\n        /* \"#utility.yul\":1305:1551   */\n      pop\n      pop\n      pop\n      jump\t// out\n        /* \"#utility.yul\":1557:1659   */\n    tag_333:\n        /* \"#utility.yul\":1598:1604   */\n      0x00\n        /* \"#utility.yul\":1649:1651   */\n      0x1f\n        /* \"#utility.yul\":1645:1652   */\n      not\n        /* \"#utility.yul\":1640:1642   */\n      0x1f\n        /* \"#utility.yul\":1633:1638   */\n      dup4\n        /* \"#utility.yul\":1629:1643   */\n      add\n        /* \"#utility.yul\":1625:1653   */\n      and\n        /* \"#utility.yul\":1615:1653   */\n      swap1\n      pop\n        /* \"#utility.yul\":1557:1659   */\n      swap2\n      swap1\n      pop\n      jump\t// out\n        /* \"#utility.yul\":1665:2042   */\n    tag_334:\n        /* \"#utility.yul\":1753:1756   */\n      0x00\n        /* \"#utility.yul\":1781:1820   */\n      tag_424\n        /* \"#utility.yul\":1814:1819   */\n      dup3\n        /* \"#utility.yul\":1781:1820   */\n      tag_330\n      jump\t// in\n    tag_424:\n        /* \"#utility.yul\":1836:1907   */\n      tag_425\n        /* \"#utility.yul\":1900:1906   */\n      dup2\n        /* \"#utility.yul\":1895:1898   */\n      dup6\n        /* \"#utility.yul\":1836:1907   */\n      tag_331\n      jump\t// in\n    tag_425:\n        /* \"#utility.yul\":1829:1907   */\n      swap4\n      pop\n        /* \"#utility.yul\":1916:1981   */\n      tag_426\n        /* \"#utility.yul\":1974:1980   */\n      dup2\n        /* \"#utility.yul\":1969:1972   */\n      dup6\n        /* \"#utility.yul\":1962:1966   */\n      0x20\n        /* \"#utility.yul\":1955:1960   */\n      dup7\n        /* \"#utility.yul\":1951:1967   */\n      add\n        /* \"#utility.yul\":1916:1981   */\n      tag_332\n      jump\t// in\n    tag_426:\n        /* \"#utility.yul\":2006:2035   */\n      tag_427\n        /* \"#utility.yul\":2028:2034   */\n      dup2\n        /* \"#utility.yul\":2006:2035   */\n      tag_333\n      jump\t// in\n    tag_427:\n        /* \"#utility.yul\":2001:2004   */\n      dup5\n        /* \"#utility.yul\":1997:2036   */\n      add\n        /* \"#utility.yul\":1990:2036   */\n      swap2\n      pop\n        /* \"#utility.yul\":1757:2042   */\n      pop\n        /* \"#utility.yul\":1665:2042   */\n      swap3\n      swap2\n      pop\n      pop\n      jump\t// out\n        /* \"#utility.yul\":2048:2361   */\n    tag_34:\n        /* \"#utility.yul\":2161:2165   */\n      0x00\n        /* \"#utility.yul\":2199:2201   */\n      0x20\n        /* \"#utility.yul\":2188:2197   */\n      dup3\n        /* \"#utility.yul\":2184:2202   */\n      add\n        /* \"#utility.yul\":2176:2202   */\n      swap1\n      pop\n        /* \"#utility.yul\":2248:2257   */\n      dup2\n        /* \"#utility.yul\":2242:2246   */\n      dup2\n        /* \"#utility.yul\":2238:2258   */\n      sub\n        /* \"#utility.yul\":2234:2235   */\n      0x00\n        /* \"#utility.yul\":2223:2232   */\n      dup4\n        /* \"#utility.yul\":2219:2236   */\n      add\n        /* \"#utility.yul\":2212:2259   */\n      mstore\n        /* \"#utility.yul\":2276:2354   */\n      tag_429\n        /* \"#utility.yul\":2349:2353   */\n      dup2\n        /* \"#utility.yul\":2340:2346   */\n      dup5\n        /* \"#utility.yul\":2276:2354   */\n      tag_334\n      jump\t// in\n    tag_429:\n        /* \"#utility.yul\":2268:2354   */\n      swap1\n      pop\n        /* \"#utility.yul\":2048:2361   */\n      swap3\n      swap2\n      pop\n      pop\n      jump\t// out\n        /* \"#utility.yul\":2367:2493   */\n    tag_335:\n        /* \"#utility.yul\":2404:2411   */\n      0x00\n        /* \"#utility.yul\":2444:2486   */\n      0xffffffffffffffffffffffffffffffffffffffff\n        /* \"#utility.yul\":2437:2442   */\n      dup3\n        /* \"#utility.yul\":2433:2487   */\n      and\n        /* \"#utility.yul\":2422:2487   */\n      swap1\n      pop\n        /* \"#utility.yul\":2367:2493   */\n      swap2\n      swap1\n      pop\n      jump\t// out\n        /* \"#utility.yul\":2499:2595   */\n    tag_336:\n        /* \"#utility.yul\":2536:2543   */\n      0x00\n        /* \"#utility.yul\":2565:2589   */\n      tag_432\n        /* \"#utility.yul\":2583:2588   */\n      dup3\n        /* \"#utility.yul\":2565:2589   */\n      tag_335\n      jump\t// in\n    tag_432:\n        /* \"#utility.yul\":2554:2589   */\n      swap1\n      pop\n        /* \"#utility.yul\":2499:2595   */\n      swap2\n      swap1\n      pop\n      jump\t// out\n        /* \"#utility.yul\":2601:2719   */\n    tag_337:\n        /* \"#utility.yul\":2688:2712   */\n      tag_434\n        /* \"#utility.yul\":2706:2711   */\n      dup2\n        /* \"#utility.yul\":2688:2712   */\n      tag_336\n      jump\t// in\n    tag_434:\n        /* \"#utility.yul\":2683:2686   */\n      dup3\n        /* \"#utility.yul\":2676:2713   */\n      mstore\n        /* \"#utility.yul\":2601:2719   */\n      pop\n      pop\n      jump\t// out\n        /* \"#utility.yul\":2725:2843   */\n    tag_338:\n        /* \"#utility.yul\":2812:2836   */\n      tag_436\n        /* \"#utility.yul\":2830:2835   */\n      dup2\n        /* \"#utility.yul\":2812:2836   */\n      tag_327\n      jump\t// in\n    tag_436:\n        /* \"#utility.yul\":2807:2810   */\n      dup3\n        /* \"#utility.yul\":2800:2837   */\n      mstore\n        /* \"#utility.yul\":2725:2843   */\n      pop\n      pop\n      jump\t// out\n        /* \"#utility.yul\":2849:3806   */\n    tag_40:\n        /* \"#utility.yul\":3122:3126   */\n      0x00\n        /* \"#utility.yul\":3160:3163   */\n      0xc0\n        /* \"#utility.yul\":3149:3158   */\n      dup3\n        /* \"#utility.yul\":3145:3164   */\n      add\n        /* \"#utility.yul\":3137:3164   */\n      swap1\n      pop\n        /* \"#utility.yul\":3174:3245   */\n      tag_438\n        /* \"#utility.yul\":3242:3243   */\n      0x00\n        /* \"#utility.yul\":3231:3240   */\n      dup4\n        /* \"#utility.yul\":3227:3244   */\n      add\n        /* \"#utility.yul\":3218:3224   */\n      dup10\n        /* \"#utility.yul\":3174:3245   */\n      tag_337\n      jump\t// in\n    tag_438:\n        /* \"#utility.yul\":3255:3327   */\n      tag_439\n        /* \"#utility.yul\":3323:3325   */\n      0x20\n        /* \"#utility.yul\":3312:3321   */\n      dup4\n        /* \"#utility.yul\":3308:3326   */\n      add\n        /* \"#utility.yul\":3299:3305   */\n      dup9\n        /* \"#utility.yul\":3255:3327   */\n      tag_337\n      jump\t// in\n    tag_439:\n        /* \"#utility.yul\":3374:3383   */\n      dup2\n        /* \"#utility.yul\":3368:3372   */\n      dup2\n        /* \"#utility.yul\":3364:3384   */\n      sub\n        /* \"#utility.yul\":3359:3361   */\n      0x40\n        /* \"#utility.yul\":3348:3357   */\n      dup4\n        /* \"#utility.yul\":3344:3362   */\n      add\n        /* \"#utility.yul\":3337:3385   */\n      mstore\n        /* \"#utility.yul\":3402:3480   */\n      tag_440\n        /* \"#utility.yul\":3475:3479   */\n      dup2\n        /* \"#utility.yul\":3466:3472   */\n      dup8\n        /* \"#utility.yul\":3402:3480   */\n      tag_334\n      jump\t// in\n    tag_440:\n        /* \"#utility.yul\":3394:3480   */\n      swap1\n      pop\n        /* \"#utility.yul\":3527:3536   */\n      dup2\n        /* \"#utility.yul\":3521:3525   */\n      dup2\n        /* \"#utility.yul\":3517:3537   */\n      sub\n        /* \"#utility.yul\":3512:3514   */\n      0x60\n        /* \"#utility.yul\":3501:3510   */\n      dup4\n        /* \"#utility.yul\":3497:3515   */\n      add\n        /* \"#utility.yul\":3490:3538   */\n      mstore\n        /* \"#utility.yul\":3555:3633   */\n      tag_441\n        /* \"#utility.yul\":3628:3632   */\n      dup2\n        /* \"#utility.yul\":3619:3625   */\n      dup7\n        /* \"#utility.yul\":3555:3633   */\n      tag_334\n      jump\t// in\n    tag_441:\n        /* \"#utility.yul\":3547:3633   */\n      swap1\n      pop\n        /* \"#utility.yul\":3643:3716   */\n      tag_442\n        /* \"#utility.yul\":3711:3714   */\n      0x80\n        /* \"#utility.yul\":3700:3709   */\n      dup4\n        /* \"#utility.yul\":3696:3715   */\n      add\n        /* \"#utility.yul\":3687:3693   */\n      dup6\n        /* \"#utility.yul\":3643:3716   */\n      tag_338\n      jump\t// in\n    tag_442:\n        /* \"#utility.yul\":3726:3799   */\n      tag_443\n        /* \"#utility.yul\":3794:3797   */\n      0xa0\n        /* \"#utility.yul\":3783:3792   */\n      dup4\n        /* \"#utility.yul\":3779:3798   */\n      add\n        /* \"#utility.yul\":3770:3776   */\n      dup5\n        /* \"#utility.yul\":3726:3799   */\n      tag_338\n      jump\t// in\n    tag_443:\n        /* \"#utility.yul\":2849:3806   */\n      swap8\n      swap7\n      pop\n      pop\n      pop\n      pop\n      pop\n      pop\n      pop\n      jump\t// out\n        /* \"#utility.yul\":3812:3934   */\n    tag_339:\n        /* \"#utility.yul\":3885:3909   */\n      tag_445\n        /* \"#utility.yul\":3903:3908   */\n      dup2\n        /* \"#utility.yul\":3885:3909   */\n      tag_336\n      jump\t// in\n    tag_445:\n        /* \"#utility.yul\":3878:3883   */\n      dup2\n        /* \"#utility.yul\":3875:3910   */\n      eq\n        /* \"#utility.yul\":3865:3928   */\n      tag_446\n      jumpi\n        /* \"#utility.yul\":3924:3925   */\n      0x00\n        /* \"#utility.yul\":3921:3922   */\n      dup1\n        /* \"#utility.yul\":3914:3926   */\n      revert\n        /* \"#utility.yul\":3865:3928   */\n    tag_446:\n        /* \"#utility.yul\":3812:3934   */\n      pop\n      jump\t// out\n        /* \"#utility.yul\":3940:4079   */\n    tag_340:\n        /* \"#utility.yul\":3986:3991   */\n      0x00\n        /* \"#utility.yul\":4024:4030   */\n      dup2\n        /* \"#utility.yul\":4011:4031   */\n      calldataload\n        /* \"#utility.yul\":4002:4031   */\n      swap1\n      pop\n        /* \"#utility.yul\":4040:4073   */\n      tag_448\n        /* \"#utility.yul\":4067:4072   */\n      dup2\n        /* \"#utility.yul\":4040:4073   */\n      tag_339\n      jump\t// in\n    tag_448:\n        /* \"#utility.yul\":3940:4079   */\n      swap3\n      swap2\n      pop\n      pop\n      jump\t// out\n        /* \"#utility.yul\":4085:4414   */\n    tag_44:\n        /* \"#utility.yul\":4144:4150   */\n      0x00\n        /* \"#utility.yul\":4193:4195   */\n      0x20\n        /* \"#utility.yul\":4181:4190   */\n      dup3\n        /* \"#utility.yul\":4172:4179   */\n      dup5\n        /* \"#utility.yul\":4168:4191   */\n      sub\n        /* \"#utility.yul\":4164:4196   */\n      slt\n        /* \"#utility.yul\":4161:4280   */\n      iszero\n      tag_450\n      jumpi\n        /* \"#utility.yul\":4199:4278   */\n      tag_451\n      tag_325\n      jump\t// in\n    tag_451:\n        /* \"#utility.yul\":4161:4280   */\n    tag_450:\n        /* \"#utility.yul\":4319:4320   */\n      0x00\n        /* \"#utility.yul\":4344:4397   */\n      tag_452\n        /* \"#utility.yul\":4389:4396   */\n      dup5\n        /* \"#utility.yul\":4380:4386   */\n      dup3\n        /* \"#utility.yul\":4369:4378   */\n      dup6\n        /* \"#utility.yul\":4365:4387   */\n      add\n        /* \"#utility.yul\":4344:4397   */\n      tag_340\n      jump\t// in\n    tag_452:\n        /* \"#utility.yul\":4334:4397   */\n      swap2\n      pop\n        /* \"#utility.yul\":4290:4407   */\n      pop\n        /* \"#utility.yul\":4085:4414   */\n      swap3\n      swap2\n      pop\n      pop\n      jump\t// out\n        /* \"#utility.yul\":4420:4537   */\n    tag_341:\n        /* \"#utility.yul\":4529:4530   */\n      0x00\n        /* \"#utility.yul\":4526:4527   */\n      dup1\n        /* \"#utility.yul\":4519:4531   */\n      revert\n        /* \"#utility.yul\":4543:4660   */\n    tag_342:\n        /* \"#utility.yul\":4652:4653   */\n      0x00\n        /* \"#utility.yul\":4649:4650   */\n      dup1\n        /* \"#utility.yul\":4642:4654   */\n      revert\n        /* \"#utility.yul\":4666:4846   */\n    tag_158:\n        /* \"#utility.yul\":4714:4791   */\n      0x4e487b7100000000000000000000000000000000000000000000000000000000\n        /* \"#utility.yul\":4711:4712   */\n      0x00\n        /* \"#utility.yul\":4704:4792   */\n      mstore\n        /* \"#utility.yul\":4811:4815   */\n      0x41\n        /* \"#utility.yul\":4808:4809   */\n      0x04\n        /* \"#utility.yul\":4801:4816   */\n      mstore\n        /* \"#utility.yul\":4835:4839   */\n      0x24\n        /* \"#utility.yul\":4832:4833   */\n      0x00\n        /* \"#utility.yul\":4825:4840   */\n      revert\n        /* \"#utility.yul\":4852:5133   */\n    tag_343:\n        /* \"#utility.yul\":4935:4962   */\n      tag_457\n        /* \"#utility.yul\":4957:4961   */\n      dup3\n        /* \"#utility.yul\":4935:4962   */\n      tag_333\n      jump\t// in\n    tag_457:\n        /* \"#utility.yul\":4927:4933   */\n      dup2\n        /* \"#utility.yul\":4923:4963   */\n      add\n        /* \"#utility.yul\":5065:5071   */\n      dup2\n        /* \"#utility.yul\":5053:5063   */\n      dup2\n        /* \"#utility.yul\":5050:5072   */\n      lt\n        /* \"#utility.yul\":5029:5047   */\n      0xffffffffffffffff\n        /* \"#utility.yul\":5017:5027   */\n      dup3\n        /* \"#utility.yul\":5014:5048   */\n      gt\n        /* \"#utility.yul\":5011:5073   */\n      or\n        /* \"#utility.yul\":5008:5096   */\n      iszero\n      tag_458\n      jumpi\n        /* \"#utility.yul\":5076:5094   */\n      tag_459\n      tag_158\n      jump\t// in\n    tag_459:\n        /* \"#utility.yul\":5008:5096   */\n    tag_458:\n        /* \"#utility.yul\":5116:5126   */\n      dup1\n        /* \"#utility.yul\":5112:5114   */\n      0x40\n        /* \"#utility.yul\":5105:5127   */\n      mstore\n        /* \"#utility.yul\":4895:5133   */\n      pop\n        /* \"#utility.yul\":4852:5133   */\n      pop\n      pop\n      jump\t// out\n        /* \"#utility.yul\":5139:5268   */\n    tag_344:\n        /* \"#utility.yul\":5173:5179   */\n      0x00\n        /* \"#utility.yul\":5200:5220   */\n      tag_461\n      tag_324\n      jump\t// in\n    tag_461:\n        /* \"#utility.yul\":5190:5220   */\n      swap1\n      pop\n        /* \"#utility.yul\":5229:5262   */\n      tag_462\n        /* \"#utility.yul\":5257:5261   */\n      dup3\n        /* \"#utility.yul\":5249:5255   */\n      dup3\n        /* \"#utility.yul\":5229:5262   */\n      tag_343\n      jump\t// in\n    tag_462:\n        /* \"#utility.yul\":5139:5268   */\n      swap2\n      swap1\n      pop\n      jump\t// out\n        /* \"#utility.yul\":5274:5582   */\n    tag_345:\n        /* \"#utility.yul\":5336:5340   */\n      0x00\n        /* \"#utility.yul\":5426:5444   */\n      0xffffffffffffffff\n        /* \"#utility.yul\":5418:5424   */\n      dup3\n        /* \"#utility.yul\":5415:5445   */\n      gt\n        /* \"#utility.yul\":5412:5468   */\n      iszero\n      tag_464\n      jumpi\n        /* \"#utility.yul\":5448:5466   */\n      tag_465\n      tag_158\n      jump\t// in\n    tag_465:\n        /* \"#utility.yul\":5412:5468   */\n    tag_464:\n        /* \"#utility.yul\":5486:5515   */\n      tag_466\n        /* \"#utility.yul\":5508:5514   */\n      dup3\n        /* \"#utility.yul\":5486:5515   */\n      tag_333\n      jump\t// in\n    tag_466:\n        /* \"#utility.yul\":5478:5515   */\n      swap1\n      pop\n        /* \"#utility.yul\":5570:5574   */\n      0x20\n        /* \"#utility.yul\":5564:5568   */\n      dup2\n        /* \"#utility.yul\":5560:5575   */\n      add\n        /* \"#utility.yul\":5552:5575   */\n      swap1\n      pop\n        /* \"#utility.yul\":5274:5582   */\n      swap2\n      swap1\n      pop\n      jump\t// out\n        /* \"#utility.yul\":5588:5734   */\n    tag_346:\n        /* \"#utility.yul\":5685:5691   */\n      dup3\n        /* \"#utility.yul\":5680:5683   */\n      dup2\n        /* \"#utility.yul\":5675:5678   */\n      dup4\n        /* \"#utility.yul\":5662:5692   */\n      calldatacopy\n        /* \"#utility.yul\":5726:5727   */\n      0x00\n        /* \"#utility.yul\":5717:5723   */\n      dup4\n        /* \"#utility.yul\":5712:5715   */\n      dup4\n        /* \"#utility.yul\":5708:5724   */\n      add\n        /* \"#utility.yul\":5701:5728   */\n      mstore\n        /* \"#utility.yul\":5588:5734   */\n      pop\n      pop\n      pop\n      jump\t// out\n        /* \"#utility.yul\":5740:6165   */\n    tag_347:\n        /* \"#utility.yul\":5818:5823   */\n      0x00\n        /* \"#utility.yul\":5843:5909   */\n      tag_469\n        /* \"#utility.yul\":5859:5908   */\n      tag_470\n        /* \"#utility.yul\":5901:5907   */\n      dup5\n        /* \"#utility.yul\":5859:5908   */\n      tag_345\n      jump\t// in\n    tag_470:\n        /* \"#utility.yul\":5843:5909   */\n      tag_344\n      jump\t// in\n    tag_469:\n        /* \"#utility.yul\":5834:5909   */\n      swap1\n      pop\n        /* \"#utility.yul\":5932:5938   */\n      dup3\n        /* \"#utility.yul\":5925:5930   */\n      dup2\n        /* \"#utility.yul\":5918:5939   */\n      mstore\n        /* \"#utility.yul\":5970:5974   */\n      0x20\n        /* \"#utility.yul\":5963:5968   */\n      dup2\n        /* \"#utility.yul\":5959:5975   */\n      add\n        /* \"#utility.yul\":6008:6011   */\n      dup5\n        /* \"#utility.yul\":5999:6005   */\n      dup5\n        /* \"#utility.yul\":5994:5997   */\n      dup5\n        /* \"#utility.yul\":5990:6006   */\n      add\n        /* \"#utility.yul\":5987:6012   */\n      gt\n        /* \"#utility.yul\":5984:6096   */\n      iszero\n      tag_471\n      jumpi\n        /* \"#utility.yul\":6015:6094   */\n      tag_472\n      tag_342\n      jump\t// in\n    tag_472:\n        /* \"#utility.yul\":5984:6096   */\n    tag_471:\n        /* \"#utility.yul\":6105:6159   */\n      tag_473\n        /* \"#utility.yul\":6152:6158   */\n      dup5\n        /* \"#utility.yul\":6147:6150   */\n      dup3\n        /* \"#utility.yul\":6142:6145   */\n      dup6\n        /* \"#utility.yul\":6105:6159   */\n      tag_346\n      jump\t// in\n    tag_473:\n        /* \"#utility.yul\":5824:6165   */\n      pop\n        /* \"#utility.yul\":5740:6165   */\n      swap4\n      swap3\n      pop\n      pop\n      pop\n      jump\t// out\n        /* \"#utility.yul\":6185:6525   */\n    tag_348:\n        /* \"#utility.yul\":6241:6246   */\n      0x00\n        /* \"#utility.yul\":6290:6293   */\n      dup3\n        /* \"#utility.yul\":6283:6287   */\n      0x1f\n        /* \"#utility.yul\":6275:6281   */\n      dup4\n        /* \"#utility.yul\":6271:6288   */\n      add\n        /* \"#utility.yul\":6267:6294   */\n      slt\n        /* \"#utility.yul\":6257:6379   */\n      tag_475\n      jumpi\n        /* \"#utility.yul\":6298:6377   */\n      tag_476\n      tag_341\n      jump\t// in\n    tag_476:\n        /* \"#utility.yul\":6257:6379   */\n    tag_475:\n        /* \"#utility.yul\":6415:6421   */\n      dup2\n        /* \"#utility.yul\":6402:6422   */\n      calldataload\n        /* \"#utility.yul\":6440:6519   */\n      tag_477\n        /* \"#utility.yul\":6515:6518   */\n      dup5\n        /* \"#utility.yul\":6507:6513   */\n      dup3\n        /* \"#utility.yul\":6500:6504   */\n      0x20\n        /* \"#utility.yul\":6492:6498   */\n      dup7\n        /* \"#utility.yul\":6488:6505   */\n      add\n        /* \"#utility.yul\":6440:6519   */\n      tag_347\n      jump\t// in\n    tag_477:\n        /* \"#utility.yul\":6431:6519   */\n      swap2\n      pop\n        /* \"#utility.yul\":6247:6525   */\n      pop\n        /* \"#utility.yul\":6185:6525   */\n      swap3\n      swap2\n      pop\n      pop\n      jump\t// out\n        /* \"#utility.yul\":6531:7365   */\n    tag_50:\n        /* \"#utility.yul\":6619:6625   */\n      0x00\n        /* \"#utility.yul\":6627:6633   */\n      dup1\n        /* \"#utility.yul\":6676:6678   */\n      0x40\n        /* \"#utility.yul\":6664:6673   */\n      dup4\n        /* \"#utility.yul\":6655:6662   */\n      dup6\n        /* \"#utility.yul\":6651:6674   */\n      sub\n        /* \"#utility.yul\":6647:6679   */\n      slt\n        /* \"#utility.yul\":6644:6763   */\n      iszero\n      tag_479\n      jumpi\n        /* \"#utility.yul\":6682:6761   */\n      tag_480\n      tag_325\n      jump\t// in\n    tag_480:\n        /* \"#utility.yul\":6644:6763   */\n    tag_479:\n        /* \"#utility.yul\":6830:6831   */\n      0x00\n        /* \"#utility.yul\":6819:6828   */\n      dup4\n        /* \"#utility.yul\":6815:6832   */\n      add\n        /* \"#utility.yul\":6802:6833   */\n      calldataload\n        /* \"#utility.yul\":6860:6878   */\n      0xffffffffffffffff\n        /* \"#utility.yul\":6852:6858   */\n      dup2\n        /* \"#utility.yul\":6849:6879   */\n      gt\n        /* \"#utility.yul\":6846:6963   */\n      iszero\n      tag_481\n      jumpi\n        /* \"#utility.yul\":6882:6961   */\n      tag_482\n      tag_326\n      jump\t// in\n    tag_482:\n        /* \"#utility.yul\":6846:6963   */\n    tag_481:\n        /* \"#utility.yul\":6987:7050   */\n      tag_483\n        /* \"#utility.yul\":7042:7049   */\n      dup6\n        /* \"#utility.yul\":7033:7039   */\n      dup3\n        /* \"#utility.yul\":7022:7031   */\n      dup7\n        /* \"#utility.yul\":7018:7040   */\n      add\n        /* \"#utility.yul\":6987:7050   */\n      tag_348\n      jump\t// in\n    tag_483:\n        /* \"#utility.yul\":6977:7050   */\n      swap3\n      pop\n        /* \"#utility.yul\":6773:7060   */\n      pop\n        /* \"#utility.yul\":7127:7129   */\n      0x20\n        /* \"#utility.yul\":7116:7125   */\n      dup4\n        /* \"#utility.yul\":7112:7130   */\n      add\n        /* \"#utility.yul\":7099:7131   */\n      calldataload\n        /* \"#utility.yul\":7158:7176   */\n      0xffffffffffffffff\n        /* \"#utility.yul\":7150:7156   */\n      dup2\n        /* \"#utility.yul\":7147:7177   */\n      gt\n        /* \"#utility.yul\":7144:7261   */\n      iszero\n      tag_484\n      jumpi\n        /* \"#utility.yul\":7180:7259   */\n      tag_485\n      tag_326\n      jump\t// in\n    tag_485:\n        /* \"#utility.yul\":7144:7261   */\n    tag_484:\n        /* \"#utility.yul\":7285:7348   */\n      tag_486\n        /* \"#utility.yul\":7340:7347   */\n      dup6\n        /* \"#utility.yul\":7331:7337   */\n      dup3\n        /* \"#utility.yul\":7320:7329   */\n      dup7\n        /* \"#utility.yul\":7316:7338   */\n      add\n        /* \"#utility.yul\":7285:7348   */\n      tag_348\n      jump\t// in\n    tag_486:\n        /* \"#utility.yul\":7275:7348   */\n      swap2\n      pop\n        /* \"#utility.yul\":7070:7358   */\n      pop\n        /* \"#utility.yul\":6531:7365   */\n      swap3\n      pop\n      swap3\n      swap1\n      pop\n      jump\t// out\n        /* \"#utility.yul\":7371:7495   */\n    tag_349:\n        /* \"#utility.yul\":7448:7454   */\n      0x00\n        /* \"#utility.yul\":7482:7487   */\n      dup2\n        /* \"#utility.yul\":7476:7488   */\n      mload\n        /* \"#utility.yul\":7466:7488   */\n      swap1\n      pop\n        /* \"#utility.yul\":7371:7495   */\n      swap2\n      swap1\n      pop\n      jump\t// out\n        /* \"#utility.yul\":7501:7695   */\n    tag_350:\n        /* \"#utility.yul\":7610:7621   */\n      0x00\n        /* \"#utility.yul\":7644:7650   */\n      dup3\n        /* \"#utility.yul\":7639:7642   */\n      dup3\n        /* \"#utility.yul\":7632:7651   */\n      mstore\n        /* \"#utility.yul\":7684:7688   */\n      0x20\n        /* \"#utility.yul\":7679:7682   */\n      dup3\n        /* \"#utility.yul\":7675:7689   */\n      add\n        /* \"#utility.yul\":7660:7689   */\n      swap1\n      pop\n        /* \"#utility.yul\":7501:7695   */\n      swap3\n      swap2\n      pop\n      pop\n      jump\t// out\n        /* \"#utility.yul\":7701:7843   */\n    tag_351:\n        /* \"#utility.yul\":7778:7782   */\n      0x00\n        /* \"#utility.yul\":7801:7804   */\n      dup2\n        /* \"#utility.yul\":7793:7804   */\n      swap1\n      pop\n        /* \"#utility.yul\":7831:7835   */\n      0x20\n        /* \"#utility.yul\":7826:7829   */\n      dup3\n        /* \"#utility.yul\":7822:7836   */\n      add\n        /* \"#utility.yul\":7814:7836   */\n      swap1\n      pop\n        /* \"#utility.yul\":7701:7843   */\n      swap2\n      swap1\n      pop\n      jump\t// out\n        /* \"#utility.yul\":7849:8008   */\n    tag_352:\n        /* \"#utility.yul\":7923:7934   */\n      0x00\n        /* \"#utility.yul\":7957:7963   */\n      dup3\n        /* \"#utility.yul\":7952:7955   */\n      dup3\n        /* \"#utility.yul\":7945:7964   */\n      mstore\n        /* \"#utility.yul\":7997:8001   */\n      0x20\n        /* \"#utility.yul\":7992:7995   */\n      dup3\n        /* \"#utility.yul\":7988:8002   */\n      add\n        /* \"#utility.yul\":7973:8002   */\n      swap1\n      pop\n        /* \"#utility.yul\":7849:8008   */\n      swap3\n      swap2\n      pop\n      pop\n      jump\t// out\n        /* \"#utility.yul\":8014:8371   */\n    tag_353:\n        /* \"#utility.yul\":8092:8095   */\n      0x00\n        /* \"#utility.yul\":8120:8159   */\n      tag_492\n        /* \"#utility.yul\":8153:8158   */\n      dup3\n        /* \"#utility.yul\":8120:8159   */\n      tag_330\n      jump\t// in\n    tag_492:\n        /* \"#utility.yul\":8175:8236   */\n      tag_493\n        /* \"#utility.yul\":8229:8235   */\n      dup2\n        /* \"#utility.yul\":8224:8227   */\n      dup6\n        /* \"#utility.yul\":8175:8236   */\n      tag_352\n      jump\t// in\n    tag_493:\n        /* \"#utility.yul\":8168:8236   */\n      swap4\n      pop\n        /* \"#utility.yul\":8245:8310   */\n      tag_494\n        /* \"#utility.yul\":8303:8309   */\n      dup2\n        /* \"#utility.yul\":8298:8301   */\n      dup6\n        /* \"#utility.yul\":8291:8295   */\n      0x20\n        /* \"#utility.yul\":8284:8289   */\n      dup7\n        /* \"#utility.yul\":8280:8296   */\n      add\n        /* \"#utility.yul\":8245:8310   */\n      tag_332\n      jump\t// in\n    tag_494:\n        /* \"#utility.yul\":8335:8364   */\n      tag_495\n        /* \"#utility.yul\":8357:8363   */\n      dup2\n        /* \"#utility.yul\":8335:8364   */\n      tag_333\n      jump\t// in\n    tag_495:\n        /* \"#utility.yul\":8330:8333   */\n      dup5\n        /* \"#utility.yul\":8326:8365   */\n      add\n        /* \"#utility.yul\":8319:8365   */\n      swap2\n      pop\n        /* \"#utility.yul\":8096:8371   */\n      pop\n        /* \"#utility.yul\":8014:8371   */\n      swap3\n      swap2\n      pop\n      pop\n      jump\t// out\n        /* \"#utility.yul\":8377:8573   */\n    tag_354:\n        /* \"#utility.yul\":8466:8476   */\n      0x00\n        /* \"#utility.yul\":8501:8567   */\n      tag_497\n        /* \"#utility.yul\":8563:8566   */\n      dup4\n        /* \"#utility.yul\":8555:8561   */\n      dup4\n        /* \"#utility.yul\":8501:8567   */\n      tag_353\n      jump\t// in\n    tag_497:\n        /* \"#utility.yul\":8487:8567   */\n      swap1\n      pop\n        /* \"#utility.yul\":8377:8573   */\n      swap3\n      swap2\n      pop\n      pop\n      jump\t// out\n        /* \"#utility.yul\":8579:8702   */\n    tag_355:\n        /* \"#utility.yul\":8659:8663   */\n      0x00\n        /* \"#utility.yul\":8691:8695   */\n      0x20\n        /* \"#utility.yul\":8686:8689   */\n      dup3\n        /* \"#utility.yul\":8682:8696   */\n      add\n        /* \"#utility.yul\":8674:8696   */\n      swap1\n      pop\n        /* \"#utility.yul\":8579:8702   */\n      swap2\n      swap1\n      pop\n      jump\t// out\n        /* \"#utility.yul\":8736:9727   */\n    tag_356:\n        /* \"#utility.yul\":8875:8878   */\n      0x00\n        /* \"#utility.yul\":8904:8968   */\n      tag_500\n        /* \"#utility.yul\":8962:8967   */\n      dup3\n        /* \"#utility.yul\":8904:8968   */\n      tag_349\n      jump\t// in\n    tag_500:\n        /* \"#utility.yul\":8984:9080   */\n      tag_501\n        /* \"#utility.yul\":9073:9079   */\n      dup2\n        /* \"#utility.yul\":9068:9071   */\n      dup6\n        /* \"#utility.yul\":8984:9080   */\n      tag_350\n      jump\t// in\n    tag_501:\n        /* \"#utility.yul\":8977:9080   */\n      swap4\n      pop\n        /* \"#utility.yul\":9106:9109   */\n      dup4\n        /* \"#utility.yul\":9151:9155   */\n      0x20\n        /* \"#utility.yul\":9143:9149   */\n      dup3\n        /* \"#utility.yul\":9139:9156   */\n      mul\n        /* \"#utility.yul\":9134:9137   */\n      dup6\n        /* \"#utility.yul\":9130:9157   */\n      add\n        /* \"#utility.yul\":9181:9247   */\n      tag_502\n        /* \"#utility.yul\":9241:9246   */\n      dup6\n        /* \"#utility.yul\":9181:9247   */\n      tag_351\n      jump\t// in\n    tag_502:\n        /* \"#utility.yul\":9270:9277   */\n      dup1\n        /* \"#utility.yul\":9301:9302   */\n      0x00\n        /* \"#utility.yul\":9286:9682   */\n    tag_503:\n        /* \"#utility.yul\":9311:9317   */\n      dup6\n        /* \"#utility.yul\":9308:9309   */\n      dup2\n        /* \"#utility.yul\":9305:9318   */\n      lt\n        /* \"#utility.yul\":9286:9682   */\n      iszero\n      tag_505\n      jumpi\n        /* \"#utility.yul\":9382:9391   */\n      dup5\n        /* \"#utility.yul\":9376:9380   */\n      dup5\n        /* \"#utility.yul\":9372:9392   */\n      sub\n        /* \"#utility.yul\":9367:9370   */\n      dup10\n        /* \"#utility.yul\":9360:9393   */\n      mstore\n        /* \"#utility.yul\":9433:9439   */\n      dup2\n        /* \"#utility.yul\":9427:9440   */\n      mload\n        /* \"#utility.yul\":9461:9545   */\n      tag_506\n        /* \"#utility.yul\":9540:9544   */\n      dup6\n        /* \"#utility.yul\":9525:9538   */\n      dup3\n        /* \"#utility.yul\":9461:9545   */\n      tag_354\n      jump\t// in\n    tag_506:\n        /* \"#utility.yul\":9453:9545   */\n      swap5\n      pop\n        /* \"#utility.yul\":9568:9638   */\n      tag_507\n        /* \"#utility.yul\":9631:9637   */\n      dup4\n        /* \"#utility.yul\":9568:9638   */\n      tag_355\n      jump\t// in\n    tag_507:\n        /* \"#utility.yul\":9558:9638   */\n      swap3\n      pop\n        /* \"#utility.yul\":9667:9671   */\n      0x20\n        /* \"#utility.yul\":9662:9665   */\n      dup11\n        /* \"#utility.yul\":9658:9672   */\n      add\n        /* \"#utility.yul\":9651:9672   */\n      swap10\n      pop\n        /* \"#utility.yul\":9346:9682   */\n      pop\n        /* \"#utility.yul\":9333:9334   */\n      0x01\n        /* \"#utility.yul\":9330:9331   */\n      dup2\n        /* \"#utility.yul\":9326:9335   */\n      add\n        /* \"#utility.yul\":9321:9335   */\n      swap1\n      pop\n        /* \"#utility.yul\":9286:9682   */\n      jump(tag_503)\n    tag_505:\n        /* \"#utility.yul\":9290:9304   */\n      pop\n        /* \"#utility.yul\":9698:9702   */\n      dup3\n        /* \"#utility.yul\":9691:9702   */\n      swap8\n      pop\n        /* \"#utility.yul\":9718:9721   */\n      dup8\n        /* \"#utility.yul\":9711:9721   */\n      swap6\n      pop\n        /* \"#utility.yul\":8880:9727   */\n      pop\n      pop\n      pop\n      pop\n      pop\n        /* \"#utility.yul\":8736:9727   */\n      swap3\n      swap2\n      pop\n      pop\n      jump\t// out\n        /* \"#utility.yul\":9733:9878   */\n    tag_357:\n        /* \"#utility.yul\":9831:9837   */\n      0x00\n        /* \"#utility.yul\":9865:9870   */\n      dup2\n        /* \"#utility.yul\":9859:9871   */\n      mload\n        /* \"#utility.yul\":9849:9871   */\n      swap1\n      pop\n        /* \"#utility.yul\":9733:9878   */\n      swap2\n      swap1\n      pop\n      jump\t// out\n        /* \"#utility.yul\":9884:10099   */\n    tag_358:\n        /* \"#utility.yul\":10014:10025   */\n      0x00\n        /* \"#utility.yul\":10048:10054   */\n      dup3\n        /* \"#utility.yul\":10043:10046   */\n      dup3\n        /* \"#utility.yul\":10036:10055   */\n      mstore\n        /* \"#utility.yul\":10088:10092   */\n      0x20\n        /* \"#utility.yul\":10083:10086   */\n      dup3\n        /* \"#utility.yul\":10079:10093   */\n      add\n        /* \"#utility.yul\":10064:10093   */\n      swap1\n      pop\n        /* \"#utility.yul\":9884:10099   */\n      swap3\n      swap2\n      pop\n      pop\n      jump\t// out\n        /* \"#utility.yul\":10105:10268   */\n    tag_359:\n        /* \"#utility.yul\":10203:10207   */\n      0x00\n        /* \"#utility.yul\":10226:10229   */\n      dup2\n        /* \"#utility.yul\":10218:10229   */\n      swap1\n      pop\n        /* \"#utility.yul\":10256:10260   */\n      0x20\n        /* \"#utility.yul\":10251:10254   */\n      dup3\n        /* \"#utility.yul\":10247:10261   */\n      add\n        /* \"#utility.yul\":10239:10261   */\n      swap1\n      pop\n        /* \"#utility.yul\":10105:10268   */\n      swap2\n      swap1\n      pop\n      jump\t// out\n        /* \"#utility.yul\":10274:10382   */\n    tag_360:\n        /* \"#utility.yul\":10351:10375   */\n      tag_512\n        /* \"#utility.yul\":10369:10374   */\n      dup2\n        /* \"#utility.yul\":10351:10375   */\n      tag_327\n      jump\t// in\n    tag_512:\n        /* \"#utility.yul\":10346:10349   */\n      dup3\n        /* \"#utility.yul\":10339:10376   */\n      mstore\n        /* \"#utility.yul\":10274:10382   */\n      pop\n      pop\n      jump\t// out\n        /* \"#utility.yul\":10488:12723   */\n    tag_361:\n        /* \"#utility.yul\":10609:10612   */\n      0x00\n        /* \"#utility.yul\":10645:10651   */\n      0x0140\n        /* \"#utility.yul\":10640:10643   */\n      dup4\n        /* \"#utility.yul\":10636:10652   */\n      add\n        /* \"#utility.yul\":10734:10738   */\n      0x00\n        /* \"#utility.yul\":10727:10732   */\n      dup4\n        /* \"#utility.yul\":10723:10739   */\n      add\n        /* \"#utility.yul\":10717:10740   */\n      mload\n        /* \"#utility.yul\":10787:10790   */\n      dup5\n        /* \"#utility.yul\":10781:10785   */\n      dup3\n        /* \"#utility.yul\":10777:10791   */\n      sub\n        /* \"#utility.yul\":10770:10774   */\n      0x00\n        /* \"#utility.yul\":10765:10768   */\n      dup7\n        /* \"#utility.yul\":10761:10775   */\n      add\n        /* \"#utility.yul\":10754:10792   */\n      mstore\n        /* \"#utility.yul\":10813:10886   */\n      tag_514\n        /* \"#utility.yul\":10881:10885   */\n      dup3\n        /* \"#utility.yul\":10867:10879   */\n      dup3\n        /* \"#utility.yul\":10813:10886   */\n      tag_353\n      jump\t// in\n    tag_514:\n        /* \"#utility.yul\":10805:10886   */\n      swap2\n      pop\n        /* \"#utility.yul\":10662:10897   */\n      pop\n        /* \"#utility.yul\":10981:10985   */\n      0x20\n        /* \"#utility.yul\":10974:10979   */\n      dup4\n        /* \"#utility.yul\":10970:10986   */\n      add\n        /* \"#utility.yul\":10964:10987   */\n      mload\n        /* \"#utility.yul\":11034:11037   */\n      dup5\n        /* \"#utility.yul\":11028:11032   */\n      dup3\n        /* \"#utility.yul\":11024:11038   */\n      sub\n        /* \"#utility.yul\":11017:11021   */\n      0x20\n        /* \"#utility.yul\":11012:11015   */\n      dup7\n        /* \"#utility.yul\":11008:11022   */\n      add\n        /* \"#utility.yul\":11001:11039   */\n      mstore\n        /* \"#utility.yul\":11060:11133   */\n      tag_515\n        /* \"#utility.yul\":11128:11132   */\n      dup3\n        /* \"#utility.yul\":11114:11126   */\n      dup3\n        /* \"#utility.yul\":11060:11133   */\n      tag_353\n      jump\t// in\n    tag_515:\n        /* \"#utility.yul\":11052:11133   */\n      swap2\n      pop\n        /* \"#utility.yul\":10907:11144   */\n      pop\n        /* \"#utility.yul\":11237:11241   */\n      0x40\n        /* \"#utility.yul\":11230:11235   */\n      dup4\n        /* \"#utility.yul\":11226:11242   */\n      add\n        /* \"#utility.yul\":11220:11243   */\n      mload\n        /* \"#utility.yul\":11290:11293   */\n      dup5\n        /* \"#utility.yul\":11284:11288   */\n      dup3\n        /* \"#utility.yul\":11280:11294   */\n      sub\n        /* \"#utility.yul\":11273:11277   */\n      0x40\n        /* \"#utility.yul\":11268:11271   */\n      dup7\n        /* \"#utility.yul\":11264:11278   */\n      add\n        /* \"#utility.yul\":11257:11295   */\n      mstore\n        /* \"#utility.yul\":11316:11389   */\n      tag_516\n        /* \"#utility.yul\":11384:11388   */\n      dup3\n        /* \"#utility.yul\":11370:11382   */\n      dup3\n        /* \"#utility.yul\":11316:11389   */\n      tag_353\n      jump\t// in\n    tag_516:\n        /* \"#utility.yul\":11308:11389   */\n      swap2\n      pop\n        /* \"#utility.yul\":11154:11400   */\n      pop\n        /* \"#utility.yul\":11494:11498   */\n      0x60\n        /* \"#utility.yul\":11487:11492   */\n      dup4\n        /* \"#utility.yul\":11483:11499   */\n      add\n        /* \"#utility.yul\":11477:11500   */\n      mload\n        /* \"#utility.yul\":11513:11576   */\n      tag_517\n        /* \"#utility.yul\":11570:11574   */\n      0x60\n        /* \"#utility.yul\":11565:11568   */\n      dup7\n        /* \"#utility.yul\":11561:11575   */\n      add\n        /* \"#utility.yul\":11547:11559   */\n      dup3\n        /* \"#utility.yul\":11513:11576   */\n      tag_360\n      jump\t// in\n    tag_517:\n        /* \"#utility.yul\":11410:11586   */\n      pop\n        /* \"#utility.yul\":11682:11686   */\n      0x80\n        /* \"#utility.yul\":11675:11680   */\n      dup4\n        /* \"#utility.yul\":11671:11687   */\n      add\n        /* \"#utility.yul\":11665:11688   */\n      mload\n        /* \"#utility.yul\":11701:11764   */\n      tag_518\n        /* \"#utility.yul\":11758:11762   */\n      0x80\n        /* \"#utility.yul\":11753:11756   */\n      dup7\n        /* \"#utility.yul\":11749:11763   */\n      add\n        /* \"#utility.yul\":11735:11747   */\n      dup3\n        /* \"#utility.yul\":11701:11764   */\n      tag_360\n      jump\t// in\n    tag_518:\n        /* \"#utility.yul\":11596:11774   */\n      pop\n        /* \"#utility.yul\":11864:11868   */\n      0xa0\n        /* \"#utility.yul\":11857:11862   */\n      dup4\n        /* \"#utility.yul\":11853:11869   */\n      add\n        /* \"#utility.yul\":11847:11870   */\n      mload\n        /* \"#utility.yul\":11883:11946   */\n      tag_519\n        /* \"#utility.yul\":11940:11944   */\n      0xa0\n        /* \"#utility.yul\":11935:11938   */\n      dup7\n        /* \"#utility.yul\":11931:11945   */\n      add\n        /* \"#utility.yul\":11917:11929   */\n      dup3\n        /* \"#utility.yul\":11883:11946   */\n      tag_360\n      jump\t// in\n    tag_519:\n        /* \"#utility.yul\":11784:11956   */\n      pop\n        /* \"#utility.yul\":12051:12055   */\n      0xc0\n        /* \"#utility.yul\":12044:12049   */\n      dup4\n        /* \"#utility.yul\":12040:12056   */\n      add\n        /* \"#utility.yul\":12034:12057   */\n      mload\n        /* \"#utility.yul\":12070:12133   */\n      tag_520\n        /* \"#utility.yul\":12127:12131   */\n      0xc0\n        /* \"#utility.yul\":12122:12125   */\n      dup7\n        /* \"#utility.yul\":12118:12132   */\n      add\n        /* \"#utility.yul\":12104:12116   */\n      dup3\n        /* \"#utility.yul\":12070:12133   */\n      tag_360\n      jump\t// in\n    tag_520:\n        /* \"#utility.yul\":11966:12143   */\n      pop\n        /* \"#utility.yul\":12235:12239   */\n      0xe0\n        /* \"#utility.yul\":12228:12233   */\n      dup4\n        /* \"#utility.yul\":12224:12240   */\n      add\n        /* \"#utility.yul\":12218:12241   */\n      mload\n        /* \"#utility.yul\":12254:12317   */\n      tag_521\n        /* \"#utility.yul\":12311:12315   */\n      0xe0\n        /* \"#utility.yul\":12306:12309   */\n      dup7\n        /* \"#utility.yul\":12302:12316   */\n      add\n        /* \"#utility.yul\":12288:12300   */\n      dup3\n        /* \"#utility.yul\":12254:12317   */\n      tag_360\n      jump\t// in\n    tag_521:\n        /* \"#utility.yul\":12153:12327   */\n      pop\n        /* \"#utility.yul\":12418:12424   */\n      0x0100\n        /* \"#utility.yul\":12411:12416   */\n      dup4\n        /* \"#utility.yul\":12407:12425   */\n      add\n        /* \"#utility.yul\":12401:12426   */\n      mload\n        /* \"#utility.yul\":12439:12504   */\n      tag_522\n        /* \"#utility.yul\":12496:12502   */\n      0x0100\n        /* \"#utility.yul\":12491:12494   */\n      dup7\n        /* \"#utility.yul\":12487:12503   */\n      add\n        /* \"#utility.yul\":12473:12485   */\n      dup3\n        /* \"#utility.yul\":12439:12504   */\n      tag_360\n      jump\t// in\n    tag_522:\n        /* \"#utility.yul\":12337:12514   */\n      pop\n        /* \"#utility.yul\":12600:12606   */\n      0x0120\n        /* \"#utility.yul\":12593:12598   */\n      dup4\n        /* \"#utility.yul\":12589:12607   */\n      add\n        /* \"#utility.yul\":12583:12608   */\n      mload\n        /* \"#utility.yul\":12621:12686   */\n      tag_523\n        /* \"#utility.yul\":12678:12684   */\n      0x0120\n        /* \"#utility.yul\":12673:12676   */\n      dup7\n        /* \"#utility.yul\":12669:12685   */\n      add\n        /* \"#utility.yul\":12655:12667   */\n      dup3\n        /* \"#utility.yul\":12621:12686   */\n      tag_360\n      jump\t// in\n    tag_523:\n        /* \"#utility.yul\":12524:12696   */\n      pop\n        /* \"#utility.yul\":12713:12717   */\n      dup1\n        /* \"#utility.yul\":12706:12717   */\n      swap2\n      pop\n        /* \"#utility.yul\":10614:12723   */\n      pop\n        /* \"#utility.yul\":10488:12723   */\n      swap3\n      swap2\n      pop\n      pop\n      jump\t// out\n        /* \"#utility.yul\":12729:13009   */\n    tag_362:\n        /* \"#utility.yul\":12860:12870   */\n      0x00\n        /* \"#utility.yul\":12895:13003   */\n      tag_525\n        /* \"#utility.yul\":12999:13002   */\n      dup4\n        /* \"#utility.yul\":12991:12997   */\n      dup4\n        /* \"#utility.yul\":12895:13003   */\n      tag_361\n      jump\t// in\n    tag_525:\n        /* \"#utility.yul\":12881:13003   */\n      swap1\n      pop\n        /* \"#utility.yul\":12729:13009   */\n      swap3\n      swap2\n      pop\n      pop\n      jump\t// out\n        /* \"#utility.yul\":13015:13159   */\n    tag_363:\n        /* \"#utility.yul\":13116:13120   */\n      0x00\n        /* \"#utility.yul\":13148:13152   */\n      0x20\n        /* \"#utility.yul\":13143:13146   */\n      dup3\n        /* \"#utility.yul\":13139:13153   */\n      add\n        /* \"#utility.yul\":13131:13153   */\n      swap1\n      pop\n        /* \"#utility.yul\":13015:13159   */\n      swap2\n      swap1\n      pop\n      jump\t// out\n        /* \"#utility.yul\":13269:14428   */\n    tag_364:\n        /* \"#utility.yul\":13450:13453   */\n      0x00\n        /* \"#utility.yul\":13479:13564   */\n      tag_528\n        /* \"#utility.yul\":13558:13563   */\n      dup3\n        /* \"#utility.yul\":13479:13564   */\n      tag_357\n      jump\t// in\n    tag_528:\n        /* \"#utility.yul\":13580:13697   */\n      tag_529\n        /* \"#utility.yul\":13690:13696   */\n      dup2\n        /* \"#utility.yul\":13685:13688   */\n      dup6\n        /* \"#utility.yul\":13580:13697   */\n      tag_358\n      jump\t// in\n    tag_529:\n        /* \"#utility.yul\":13573:13697   */\n      swap4\n      pop\n        /* \"#utility.yul\":13723:13726   */\n      dup4\n        /* \"#utility.yul\":13768:13772   */\n      0x20\n        /* \"#utility.yul\":13760:13766   */\n      dup3\n        /* \"#utility.yul\":13756:13773   */\n      mul\n        /* \"#utility.yul\":13751:13754   */\n      dup6\n        /* \"#utility.yul\":13747:13774   */\n      add\n        /* \"#utility.yul\":13798:13885   */\n      tag_530\n        /* \"#utility.yul\":13879:13884   */\n      dup6\n        /* \"#utility.yul\":13798:13885   */\n      tag_359\n      jump\t// in\n    tag_530:\n        /* \"#utility.yul\":13908:13915   */\n      dup1\n        /* \"#utility.yul\":13939:13940   */\n      0x00\n        /* \"#utility.yul\":13924:14383   */\n    tag_531:\n        /* \"#utility.yul\":13949:13955   */\n      dup6\n        /* \"#utility.yul\":13946:13947   */\n      dup2\n        /* \"#utility.yul\":13943:13956   */\n      lt\n        /* \"#utility.yul\":13924:14383   */\n      iszero\n      tag_533\n      jumpi\n        /* \"#utility.yul\":14020:14029   */\n      dup5\n        /* \"#utility.yul\":14014:14018   */\n      dup5\n        /* \"#utility.yul\":14010:14030   */\n      sub\n        /* \"#utility.yul\":14005:14008   */\n      dup10\n        /* \"#utility.yul\":13998:14031   */\n      mstore\n        /* \"#utility.yul\":14071:14077   */\n      dup2\n        /* \"#utility.yul\":14065:14078   */\n      mload\n        /* \"#utility.yul\":14099:14225   */\n      tag_534\n        /* \"#utility.yul\":14220:14224   */\n      dup6\n        /* \"#utility.yul\":14205:14218   */\n      dup3\n        /* \"#utility.yul\":14099:14225   */\n      tag_362\n      jump\t// in\n    tag_534:\n        /* \"#utility.yul\":14091:14225   */\n      swap5\n      pop\n        /* \"#utility.yul\":14248:14339   */\n      tag_535\n        /* \"#utility.yul\":14332:14338   */\n      dup4\n        /* \"#utility.yul\":14248:14339   */\n      tag_363\n      jump\t// in\n    tag_535:\n        /* \"#utility.yul\":14238:14339   */\n      swap3\n      pop\n        /* \"#utility.yul\":14368:14372   */\n      0x20\n        /* \"#utility.yul\":14363:14366   */\n      dup11\n        /* \"#utility.yul\":14359:14373   */\n      add\n        /* \"#utility.yul\":14352:14373   */\n      swap10\n      pop\n        /* \"#utility.yul\":13984:14383   */\n      pop\n        /* \"#utility.yul\":13971:13972   */\n      0x01\n        /* \"#utility.yul\":13968:13969   */\n      dup2\n        /* \"#utility.yul\":13964:13973   */\n      add\n        /* \"#utility.yul\":13959:13973   */\n      swap1\n      pop\n        /* \"#utility.yul\":13924:14383   */\n      jump(tag_531)\n    tag_533:\n        /* \"#utility.yul\":13928:13942   */\n      pop\n        /* \"#utility.yul\":14399:14403   */\n      dup3\n        /* \"#utility.yul\":14392:14403   */\n      swap8\n      pop\n        /* \"#utility.yul\":14419:14422   */\n      dup8\n        /* \"#utility.yul\":14412:14422   */\n      swap6\n      pop\n        /* \"#utility.yul\":13455:14428   */\n      pop\n      pop\n      pop\n      pop\n      pop\n        /* \"#utility.yul\":13269:14428   */\n      swap3\n      swap2\n      pop\n      pop\n      jump\t// out\n        /* \"#utility.yul\":14434:15232   */\n    tag_53:\n        /* \"#utility.yul\":14737:14741   */\n      0x00\n        /* \"#utility.yul\":14775:14777   */\n      0x40\n        /* \"#utility.yul\":14764:14773   */\n      dup3\n        /* \"#utility.yul\":14760:14778   */\n      add\n        /* \"#utility.yul\":14752:14778   */\n      swap1\n      pop\n        /* \"#utility.yul\":14824:14833   */\n      dup2\n        /* \"#utility.yul\":14818:14822   */\n      dup2\n        /* \"#utility.yul\":14814:14834   */\n      sub\n        /* \"#utility.yul\":14810:14811   */\n      0x00\n        /* \"#utility.yul\":14799:14808   */\n      dup4\n        /* \"#utility.yul\":14795:14812   */\n      add\n        /* \"#utility.yul\":14788:14835   */\n      mstore\n        /* \"#utility.yul\":14852:14980   */\n      tag_537\n        /* \"#utility.yul\":14975:14979   */\n      dup2\n        /* \"#utility.yul\":14966:14972   */\n      dup6\n        /* \"#utility.yul\":14852:14980   */\n      tag_356\n      jump\t// in\n    tag_537:\n        /* \"#utility.yul\":14844:14980   */\n      swap1\n      pop\n        /* \"#utility.yul\":15027:15036   */\n      dup2\n        /* \"#utility.yul\":15021:15025   */\n      dup2\n        /* \"#utility.yul\":15017:15037   */\n      sub\n        /* \"#utility.yul\":15012:15014   */\n      0x20\n        /* \"#utility.yul\":15001:15010   */\n      dup4\n        /* \"#utility.yul\":14997:15015   */\n      add\n        /* \"#utility.yul\":14990:15038   */\n      mstore\n        /* \"#utility.yul\":15055:15225   */\n      tag_538\n        /* \"#utility.yul\":15220:15224   */\n      dup2\n        /* \"#utility.yul\":15211:15217   */\n      dup5\n        /* \"#utility.yul\":15055:15225   */\n      tag_364\n      jump\t// in\n    tag_538:\n        /* \"#utility.yul\":15047:15225   */\n      swap1\n      pop\n        /* \"#utility.yul\":14434:15232   */\n      swap4\n      swap3\n      pop\n      pop\n      pop\n      jump\t// out\n        /* \"#utility.yul\":15238:16037   */\n    tag_57:\n        /* \"#utility.yul\":15325:15331   */\n      0x00\n        /* \"#utility.yul\":15333:15339   */\n      dup1\n        /* \"#utility.yul\":15341:15347   */\n      0x00\n        /* \"#utility.yul\":15390:15392   */\n      0x60\n        /* \"#utility.yul\":15378:15387   */\n      dup5\n        /* \"#utility.yul\":15369:15376   */\n      dup7\n        /* \"#utility.yul\":15365:15388   */\n      sub\n        /* \"#utility.yul\":15361:15393   */\n      slt\n        /* \"#utility.yul\":15358:15477   */\n      iszero\n      tag_540\n      jumpi\n        /* \"#utility.yul\":15396:15475   */\n      tag_541\n      tag_325\n      jump\t// in\n    tag_541:\n        /* \"#utility.yul\":15358:15477   */\n    tag_540:\n        /* \"#utility.yul\":15516:15517   */\n      0x00\n        /* \"#utility.yul\":15541:15594   */\n      tag_542\n        /* \"#utility.yul\":15586:15593   */\n      dup7\n        /* \"#utility.yul\":15577:15583   */\n      dup3\n        /* \"#utility.yul\":15566:15575   */\n      dup8\n        /* \"#utility.yul\":15562:15584   */\n      add\n        /* \"#utility.yul\":15541:15594   */\n      tag_340\n      jump\t// in\n    tag_542:\n        /* \"#utility.yul\":15531:15594   */\n      swap4\n      pop\n        /* \"#utility.yul\":15487:15604   */\n      pop\n        /* \"#utility.yul\":15671:15673   */\n      0x20\n        /* \"#utility.yul\":15660:15669   */\n      dup5\n        /* \"#utility.yul\":15656:15674   */\n      add\n        /* \"#utility.yul\":15643:15675   */\n      calldataload\n        /* \"#utility.yul\":15702:15720   */\n      0xffffffffffffffff\n        /* \"#utility.yul\":15694:15700   */\n      dup2\n        /* \"#utility.yul\":15691:15721   */\n      gt\n        /* \"#utility.yul\":15688:15805   */\n      iszero\n      tag_543\n      jumpi\n        /* \"#utility.yul\":15724:15803   */\n      tag_544\n      tag_326\n      jump\t// in\n    tag_544:\n        /* \"#utility.yul\":15688:15805   */\n    tag_543:\n        /* \"#utility.yul\":15829:15892   */\n      tag_545\n        /* \"#utility.yul\":15884:15891   */\n      dup7\n        /* \"#utility.yul\":15875:15881   */\n      dup3\n        /* \"#utility.yul\":15864:15873   */\n      dup8\n        /* \"#utility.yul\":15860:15882   */\n      add\n        /* \"#utility.yul\":15829:15892   */\n      tag_348\n      jump\t// in\n    tag_545:\n        /* \"#utility.yul\":15819:15892   */\n      swap3\n      pop\n        /* \"#utility.yul\":15614:15902   */\n      pop\n        /* \"#utility.yul\":15941:15943   */\n      0x40\n        /* \"#utility.yul\":15967:16020   */\n      tag_546\n        /* \"#utility.yul\":16012:16019   */\n      dup7\n        /* \"#utility.yul\":16003:16009   */\n      dup3\n        /* \"#utility.yul\":15992:16001   */\n      dup8\n        /* \"#utility.yul\":15988:16010   */\n      add\n        /* \"#utility.yul\":15967:16020   */\n      tag_340\n      jump\t// in\n    tag_546:\n        /* \"#utility.yul\":15957:16020   */\n      swap2\n      pop\n        /* \"#utility.yul\":15912:16030   */\n      pop\n        /* \"#utility.yul\":15238:16037   */\n      swap3\n      pop\n      swap3\n      pop\n      swap3\n      jump\t// out\n        /* \"#utility.yul\":16043:17535   */\n    tag_60:\n        /* \"#utility.yul\":16448:16452   */\n      0x00\n        /* \"#utility.yul\":16486:16489   */\n      0x0140\n        /* \"#utility.yul\":16475:16484   */\n      dup3\n        /* \"#utility.yul\":16471:16490   */\n      add\n        /* \"#utility.yul\":16463:16490   */\n      swap1\n      pop\n        /* \"#utility.yul\":16536:16545   */\n      dup2\n        /* \"#utility.yul\":16530:16534   */\n      dup2\n        /* \"#utility.yul\":16526:16546   */\n      sub\n        /* \"#utility.yul\":16522:16523   */\n      0x00\n        /* \"#utility.yul\":16511:16520   */\n      dup4\n        /* \"#utility.yul\":16507:16524   */\n      add\n        /* \"#utility.yul\":16500:16547   */\n      mstore\n        /* \"#utility.yul\":16564:16642   */\n      tag_548\n        /* \"#utility.yul\":16637:16641   */\n      dup2\n        /* \"#utility.yul\":16628:16634   */\n      dup14\n        /* \"#utility.yul\":16564:16642   */\n      tag_334\n      jump\t// in\n    tag_548:\n        /* \"#utility.yul\":16556:16642   */\n      swap1\n      pop\n        /* \"#utility.yul\":16689:16698   */\n      dup2\n        /* \"#utility.yul\":16683:16687   */\n      dup2\n        /* \"#utility.yul\":16679:16699   */\n      sub\n        /* \"#utility.yul\":16674:16676   */\n      0x20\n        /* \"#utility.yul\":16663:16672   */\n      dup4\n        /* \"#utility.yul\":16659:16677   */\n      add\n        /* \"#utility.yul\":16652:16700   */\n      mstore\n        /* \"#utility.yul\":16717:16795   */\n      tag_549\n        /* \"#utility.yul\":16790:16794   */\n      dup2\n        /* \"#utility.yul\":16781:16787   */\n      dup13\n        /* \"#utility.yul\":16717:16795   */\n      tag_334\n      jump\t// in\n    tag_549:\n        /* \"#utility.yul\":16709:16795   */\n      swap1\n      pop\n        /* \"#utility.yul\":16842:16851   */\n      dup2\n        /* \"#utility.yul\":16836:16840   */\n      dup2\n        /* \"#utility.yul\":16832:16852   */\n      sub\n        /* \"#utility.yul\":16827:16829   */\n      0x40\n        /* \"#utility.yul\":16816:16825   */\n      dup4\n        /* \"#utility.yul\":16812:16830   */\n      add\n        /* \"#utility.yul\":16805:16853   */\n      mstore\n        /* \"#utility.yul\":16870:16948   */\n      tag_550\n        /* \"#utility.yul\":16943:16947   */\n      dup2\n        /* \"#utility.yul\":16934:16940   */\n      dup12\n        /* \"#utility.yul\":16870:16948   */\n      tag_334\n      jump\t// in\n    tag_550:\n        /* \"#utility.yul\":16862:16948   */\n      swap1\n      pop\n        /* \"#utility.yul\":16958:17030   */\n      tag_551\n        /* \"#utility.yul\":17026:17028   */\n      0x60\n        /* \"#utility.yul\":17015:17024   */\n      dup4\n        /* \"#utility.yul\":17011:17029   */\n      add\n        /* \"#utility.yul\":17002:17008   */\n      dup11\n        /* \"#utility.yul\":16958:17030   */\n      tag_338\n      jump\t// in\n    tag_551:\n        /* \"#utility.yul\":17040:17113   */\n      tag_552\n        /* \"#utility.yul\":17108:17111   */\n      0x80\n        /* \"#utility.yul\":17097:17106   */\n      dup4\n        /* \"#utility.yul\":17093:17112   */\n      add\n        /* \"#utility.yul\":17084:17090   */\n      dup10\n        /* \"#utility.yul\":17040:17113   */\n      tag_338\n      jump\t// in\n    tag_552:\n        /* \"#utility.yul\":17123:17196   */\n      tag_553\n        /* \"#utility.yul\":17191:17194   */\n      0xa0\n        /* \"#utility.yul\":17180:17189   */\n      dup4\n        /* \"#utility.yul\":17176:17195   */\n      add\n        /* \"#utility.yul\":17167:17173   */\n      dup9\n        /* \"#utility.yul\":17123:17196   */\n      tag_338\n      jump\t// in\n    tag_553:\n        /* \"#utility.yul\":17206:17279   */\n      tag_554\n        /* \"#utility.yul\":17274:17277   */\n      0xc0\n        /* \"#utility.yul\":17263:17272   */\n      dup4\n        /* \"#utility.yul\":17259:17278   */\n      add\n        /* \"#utility.yul\":17250:17256   */\n      dup8\n        /* \"#utility.yul\":17206:17279   */\n      tag_338\n      jump\t// in\n    tag_554:\n        /* \"#utility.yul\":17289:17362   */\n      tag_555\n        /* \"#utility.yul\":17357:17360   */\n      0xe0\n        /* \"#utility.yul\":17346:17355   */\n      dup4\n        /* \"#utility.yul\":17342:17361   */\n      add\n        /* \"#utility.yul\":17333:17339   */\n      dup7\n        /* \"#utility.yul\":17289:17362   */\n      tag_338\n      jump\t// in\n    tag_555:\n        /* \"#utility.yul\":17372:17445   */\n      tag_556\n        /* \"#utility.yul\":17440:17443   */\n      0x0100\n        /* \"#utility.yul\":17429:17438   */\n      dup4\n        /* \"#utility.yul\":17425:17444   */\n      add\n        /* \"#utility.yul\":17416:17422   */\n      dup6\n        /* \"#utility.yul\":17372:17445   */\n      tag_338\n      jump\t// in\n    tag_556:\n        /* \"#utility.yul\":17455:17528   */\n      tag_557\n        /* \"#utility.yul\":17523:17526   */\n      0x0120\n        /* \"#utility.yul\":17512:17521   */\n      dup4\n        /* \"#utility.yul\":17508:17527   */\n      add\n        /* \"#utility.yul\":17499:17505   */\n      dup5\n        /* \"#utility.yul\":17455:17528   */\n      tag_338\n      jump\t// in\n    tag_557:\n        /* \"#utility.yul\":16043:17535   */\n      swap12\n      swap11\n      pop\n      pop\n      pop\n      pop\n      pop\n      pop\n      pop\n      pop\n      pop\n      pop\n      pop\n      jump\t// out\n        /* \"#utility.yul\":17541:17684   */\n    tag_365:\n        /* \"#utility.yul\":17637:17643   */\n      0x00\n        /* \"#utility.yul\":17671:17676   */\n      dup2\n        /* \"#utility.yul\":17665:17677   */\n      mload\n        /* \"#utility.yul\":17655:17677   */\n      swap1\n      pop\n        /* \"#utility.yul\":17541:17684   */\n      swap2\n      swap1\n      pop\n      jump\t// out\n        /* \"#utility.yul\":17690:17903   */\n    tag_366:\n        /* \"#utility.yul\":17818:17829   */\n      0x00\n        /* \"#utility.yul\":17852:17858   */\n      dup3\n        /* \"#utility.yul\":17847:17850   */\n      dup3\n        /* \"#utility.yul\":17840:17859   */\n      mstore\n        /* \"#utility.yul\":17892:17896   */\n      0x20\n        /* \"#utility.yul\":17887:17890   */\n      dup3\n        /* \"#utility.yul\":17883:17897   */\n      add\n        /* \"#utility.yul\":17868:17897   */\n      swap1\n      pop\n        /* \"#utility.yul\":17690:17903   */\n      swap3\n      swap2\n      pop\n      pop\n      jump\t// out\n        /* \"#utility.yul\":17909:18070   */\n    tag_367:\n        /* \"#utility.yul\":18005:18009   */\n      0x00\n        /* \"#utility.yul\":18028:18031   */\n      dup2\n        /* \"#utility.yul\":18020:18031   */\n      swap1\n      pop\n        /* \"#utility.yul\":18058:18062   */\n      0x20\n        /* \"#utility.yul\":18053:18056   */\n      dup3\n        /* \"#utility.yul\":18049:18063   */\n      add\n        /* \"#utility.yul\":18041:18063   */\n      swap1\n      pop\n        /* \"#utility.yul\":17909:18070   */\n      swap2\n      swap1\n      pop\n      jump\t// out\n        /* \"#utility.yul\":18076:18184   */\n    tag_368:\n        /* \"#utility.yul\":18153:18177   */\n      tag_562\n        /* \"#utility.yul\":18171:18176   */\n      dup2\n        /* \"#utility.yul\":18153:18177   */\n      tag_336\n      jump\t// in\n    tag_562:\n        /* \"#utility.yul\":18148:18151   */\n      dup3\n        /* \"#utility.yul\":18141:18178   */\n      mstore\n        /* \"#utility.yul\":18076:18184   */\n      pop\n      pop\n      jump\t// out\n        /* \"#utility.yul\":18286:19676   */\n    tag_369:\n        /* \"#utility.yul\":18403:18406   */\n      0x00\n        /* \"#utility.yul\":18439:18443   */\n      0xc0\n        /* \"#utility.yul\":18434:18437   */\n      dup4\n        /* \"#utility.yul\":18430:18444   */\n      add\n        /* \"#utility.yul\":18527:18531   */\n      0x00\n        /* \"#utility.yul\":18520:18525   */\n      dup4\n        /* \"#utility.yul\":18516:18532   */\n      add\n        /* \"#utility.yul\":18510:18533   */\n      mload\n        /* \"#utility.yul\":18546:18609   */\n      tag_564\n        /* \"#utility.yul\":18603:18607   */\n      0x00\n        /* \"#utility.yul\":18598:18601   */\n      dup7\n        /* \"#utility.yul\":18594:18608   */\n      add\n        /* \"#utility.yul\":18580:18592   */\n      dup3\n        /* \"#utility.yul\":18546:18609   */\n      tag_368\n      jump\t// in\n    tag_564:\n        /* \"#utility.yul\":18454:18619   */\n      pop\n        /* \"#utility.yul\":18702:18706   */\n      0x20\n        /* \"#utility.yul\":18695:18700   */\n      dup4\n        /* \"#utility.yul\":18691:18707   */\n      add\n        /* \"#utility.yul\":18685:18708   */\n      mload\n        /* \"#utility.yul\":18721:18784   */\n      tag_565\n        /* \"#utility.yul\":18778:18782   */\n      0x20\n        /* \"#utility.yul\":18773:18776   */\n      dup7\n        /* \"#utility.yul\":18769:18783   */\n      add\n        /* \"#utility.yul\":18755:18767   */\n      dup3\n        /* \"#utility.yul\":18721:18784   */\n      tag_368\n      jump\t// in\n    tag_565:\n        /* \"#utility.yul\":18629:18794   */\n      pop\n        /* \"#utility.yul\":18881:18885   */\n      0x40\n        /* \"#utility.yul\":18874:18879   */\n      dup4\n        /* \"#utility.yul\":18870:18886   */\n      add\n        /* \"#utility.yul\":18864:18887   */\n      mload\n        /* \"#utility.yul\":18934:18937   */\n      dup5\n        /* \"#utility.yul\":18928:18932   */\n      dup3\n        /* \"#utility.yul\":18924:18938   */\n      sub\n        /* \"#utility.yul\":18917:18921   */\n      0x40\n        /* \"#utility.yul\":18912:18915   */\n      dup7\n        /* \"#utility.yul\":18908:18922   */\n      add\n        /* \"#utility.yul\":18901:18939   */\n      mstore\n        /* \"#utility.yul\":18960:19033   */\n      tag_566\n        /* \"#utility.yul\":19028:19032   */\n      dup3\n        /* \"#utility.yul\":19014:19026   */\n      dup3\n        /* \"#utility.yul\":18960:19033   */\n      tag_353\n      jump\t// in\n    tag_566:\n        /* \"#utility.yul\":18952:19033   */\n      swap2\n      pop\n        /* \"#utility.yul\":18804:19044   */\n      pop\n        /* \"#utility.yul\":19131:19135   */\n      0x60\n        /* \"#utility.yul\":19124:19129   */\n      dup4\n        /* \"#utility.yul\":19120:19136   */\n      add\n        /* \"#utility.yul\":19114:19137   */\n      mload\n        /* \"#utility.yul\":19184:19187   */\n      dup5\n        /* \"#utility.yul\":19178:19182   */\n      dup3\n        /* \"#utility.yul\":19174:19188   */\n      sub\n        /* \"#utility.yul\":19167:19171   */\n      0x60\n        /* \"#utility.yul\":19162:19165   */\n      dup7\n        /* \"#utility.yul\":19158:19172   */\n      add\n        /* \"#utility.yul\":19151:19189   */\n      mstore\n        /* \"#utility.yul\":19210:19283   */\n      tag_567\n        /* \"#utility.yul\":19278:19282   */\n      dup3\n        /* \"#utility.yul\":19264:19276   */\n      dup3\n        /* \"#utility.yul\":19210:19283   */\n      tag_353\n      jump\t// in\n    tag_567:\n        /* \"#utility.yul\":19202:19283   */\n      swap2\n      pop\n        /* \"#utility.yul\":19054:19294   */\n      pop\n        /* \"#utility.yul\":19378:19382   */\n      0x80\n        /* \"#utility.yul\":19371:19376   */\n      dup4\n        /* \"#utility.yul\":19367:19383   */\n      add\n        /* \"#utility.yul\":19361:19384   */\n      mload\n        /* \"#utility.yul\":19397:19460   */\n      tag_568\n        /* \"#utility.yul\":19454:19458   */\n      0x80\n        /* \"#utility.yul\":19449:19452   */\n      dup7\n        /* \"#utility.yul\":19445:19459   */\n      add\n        /* \"#utility.yul\":19431:19443   */\n      dup3\n        /* \"#utility.yul\":19397:19460   */\n      tag_360\n      jump\t// in\n    tag_568:\n        /* \"#utility.yul\":19304:19470   */\n      pop\n        /* \"#utility.yul\":19557:19561   */\n      0xa0\n        /* \"#utility.yul\":19550:19555   */\n      dup4\n        /* \"#utility.yul\":19546:19562   */\n      add\n        /* \"#utility.yul\":19540:19563   */\n      mload\n        /* \"#utility.yul\":19576:19639   */\n      tag_569\n        /* \"#utility.yul\":19633:19637   */\n      0xa0\n        /* \"#utility.yul\":19628:19631   */\n      dup7\n        /* \"#utility.yul\":19624:19638   */\n      add\n        /* \"#utility.yul\":19610:19622   */\n      dup3\n        /* \"#utility.yul\":19576:19639   */\n      tag_360\n      jump\t// in\n    tag_569:\n        /* \"#utility.yul\":19480:19649   */\n      pop\n        /* \"#utility.yul\":19666:19670   */\n      dup1\n        /* \"#utility.yul\":19659:19670   */\n      swap2\n      pop\n        /* \"#utility.yul\":18408:19676   */\n      pop\n        /* \"#utility.yul\":18286:19676   */\n      swap3\n      swap2\n      pop\n      pop\n      jump\t// out\n        /* \"#utility.yul\":19682:19954   */\n    tag_370:\n        /* \"#utility.yul\":19809:19819   */\n      0x00\n        /* \"#utility.yul\":19844:19948   */\n      tag_571\n        /* \"#utility.yul\":19944:19947   */\n      dup4\n        /* \"#utility.yul\":19936:19942   */\n      dup4\n        /* \"#utility.yul\":19844:19948   */\n      tag_369\n      jump\t// in\n    tag_571:\n        /* \"#utility.yul\":19830:19948   */\n      swap1\n      pop\n        /* \"#utility.yul\":19682:19954   */\n      swap3\n      swap2\n      pop\n      pop\n      jump\t// out\n        /* \"#utility.yul\":19960:20102   */\n    tag_371:\n        /* \"#utility.yul\":20059:20063   */\n      0x00\n        /* \"#utility.yul\":20091:20095   */\n      0x20\n        /* \"#utility.yul\":20086:20089   */\n      dup3\n        /* \"#utility.yul\":20082:20096   */\n      add\n        /* \"#utility.yul\":20074:20096   */\n      swap1\n      pop\n        /* \"#utility.yul\":19960:20102   */\n      swap2\n      swap1\n      pop\n      jump\t// out\n        /* \"#utility.yul\":20208:21351   */\n    tag_372:\n        /* \"#utility.yul\":20385:20388   */\n      0x00\n        /* \"#utility.yul\":20414:20497   */\n      tag_574\n        /* \"#utility.yul\":20491:20496   */\n      dup3\n        /* \"#utility.yul\":20414:20497   */\n      tag_365\n      jump\t// in\n    tag_574:\n        /* \"#utility.yul\":20513:20628   */\n      tag_575\n        /* \"#utility.yul\":20621:20627   */\n      dup2\n        /* \"#utility.yul\":20616:20619   */\n      dup6\n        /* \"#utility.yul\":20513:20628   */\n      tag_366\n      jump\t// in\n    tag_575:\n        /* \"#utility.yul\":20506:20628   */\n      swap4\n      pop\n        /* \"#utility.yul\":20654:20657   */\n      dup4\n        /* \"#utility.yul\":20699:20703   */\n      0x20\n        /* \"#utility.yul\":20691:20697   */\n      dup3\n        /* \"#utility.yul\":20687:20704   */\n      mul\n        /* \"#utility.yul\":20682:20685   */\n      dup6\n        /* \"#utility.yul\":20678:20705   */\n      add\n        /* \"#utility.yul\":20729:20814   */\n      tag_576\n        /* \"#utility.yul\":20808:20813   */\n      dup6\n        /* \"#utility.yul\":20729:20814   */\n      tag_367\n      jump\t// in\n    tag_576:\n        /* \"#utility.yul\":20837:20844   */\n      dup1\n        /* \"#utility.yul\":20868:20869   */\n      0x00\n        /* \"#utility.yul\":20853:21306   */\n    tag_577:\n        /* \"#utility.yul\":20878:20884   */\n      dup6\n        /* \"#utility.yul\":20875:20876   */\n      dup2\n        /* \"#utility.yul\":20872:20885   */\n      lt\n        /* \"#utility.yul\":20853:21306   */\n      iszero\n      tag_579\n      jumpi\n        /* \"#utility.yul\":20949:20958   */\n      dup5\n        /* \"#utility.yul\":20943:20947   */\n      dup5\n        /* \"#utility.yul\":20939:20959   */\n      sub\n        /* \"#utility.yul\":20934:20937   */\n      dup10\n        /* \"#utility.yul\":20927:20960   */\n      mstore\n        /* \"#utility.yul\":21000:21006   */\n      dup2\n        /* \"#utility.yul\":20994:21007   */\n      mload\n        /* \"#utility.yul\":21028:21150   */\n      tag_580\n        /* \"#utility.yul\":21145:21149   */\n      dup6\n        /* \"#utility.yul\":21130:21143   */\n      dup3\n        /* \"#utility.yul\":21028:21150   */\n      tag_370\n      jump\t// in\n    tag_580:\n        /* \"#utility.yul\":21020:21150   */\n      swap5\n      pop\n        /* \"#utility.yul\":21173:21262   */\n      tag_581\n        /* \"#utility.yul\":21255:21261   */\n      dup4\n        /* \"#utility.yul\":21173:21262   */\n      tag_371\n      jump\t// in\n    tag_581:\n        /* \"#utility.yul\":21163:21262   */\n      swap3\n      pop\n        /* \"#utility.yul\":21291:21295   */\n      0x20\n        /* \"#utility.yul\":21286:21289   */\n      dup11\n        /* \"#utility.yul\":21282:21296   */\n      add\n        /* \"#utility.yul\":21275:21296   */\n      swap10\n      pop\n        /* \"#utility.yul\":20913:21306   */\n      pop\n        /* \"#utility.yul\":20900:20901   */\n      0x01\n        /* \"#utility.yul\":20897:20898   */\n      dup2\n        /* \"#utility.yul\":20893:20902   */\n      add\n        /* \"#utility.yul\":20888:20902   */\n      swap1\n      pop\n        /* \"#utility.yul\":20853:21306   */\n      jump(tag_577)\n    tag_579:\n        /* \"#utility.yul\":20857:20871   */\n      pop\n        /* \"#utility.yul\":21322:21326   */\n      dup3\n        /* \"#utility.yul\":21315:21326   */\n      swap8\n      pop\n        /* \"#utility.yul\":21342:21345   */\n      dup8\n        /* \"#utility.yul\":21335:21345   */\n      swap6\n      pop\n        /* \"#utility.yul\":20390:21351   */\n      pop\n      pop\n      pop\n      pop\n      pop\n        /* \"#utility.yul\":20208:21351   */\n      swap3\n      swap2\n      pop\n      pop\n      jump\t// out\n        /* \"#utility.yul\":21357:21846   */\n    tag_65:\n        /* \"#utility.yul\":21558:21562   */\n      0x00\n        /* \"#utility.yul\":21596:21598   */\n      0x20\n        /* \"#utility.yul\":21585:21594   */\n      dup3\n        /* \"#utility.yul\":21581:21599   */\n      add\n        /* \"#utility.yul\":21573:21599   */\n      swap1\n      pop\n        /* \"#utility.yul\":21645:21654   */\n      dup2\n        /* \"#utility.yul\":21639:21643   */\n      dup2\n        /* \"#utility.yul\":21635:21655   */\n      sub\n        /* \"#utility.yul\":21631:21632   */\n      0x00\n        /* \"#utility.yul\":21620:21629   */\n      dup4\n        /* \"#utility.yul\":21616:21633   */\n      add\n        /* \"#utility.yul\":21609:21656   */\n      mstore\n        /* \"#utility.yul\":21673:21839   */\n      tag_583\n        /* \"#utility.yul\":21834:21838   */\n      dup2\n        /* \"#utility.yul\":21825:21831   */\n      dup5\n        /* \"#utility.yul\":21673:21839   */\n      tag_372\n      jump\t// in\n    tag_583:\n        /* \"#utility.yul\":21665:21839   */\n      swap1\n      pop\n        /* \"#utility.yul\":21357:21846   */\n      swap3\n      swap2\n      pop\n      pop\n      jump\t// out\n        /* \"#utility.yul\":21852:22074   */\n    tag_71:\n        /* \"#utility.yul\":21945:21949   */\n      0x00\n        /* \"#utility.yul\":21983:21985   */\n      0x20\n        /* \"#utility.yul\":21972:21981   */\n      dup3\n        /* \"#utility.yul\":21968:21986   */\n      add\n        /* \"#utility.yul\":21960:21986   */\n      swap1\n      pop\n        /* \"#utility.yul\":21996:22067   */\n      tag_585\n        /* \"#utility.yul\":22064:22065   */\n      0x00\n        /* \"#utility.yul\":22053:22062   */\n      dup4\n        /* \"#utility.yul\":22049:22066   */\n      add\n        /* \"#utility.yul\":22040:22046   */\n      dup5\n        /* \"#utility.yul\":21996:22067   */\n      tag_338\n      jump\t// in\n    tag_585:\n        /* \"#utility.yul\":21852:22074   */\n      swap3\n      swap2\n      pop\n      pop\n      jump\t// out\n        /* \"#utility.yul\":22080:22734   */\n    tag_75:\n        /* \"#utility.yul\":22158:22164   */\n      0x00\n        /* \"#utility.yul\":22166:22172   */\n      dup1\n        /* \"#utility.yul\":22215:22217   */\n      0x40\n        /* \"#utility.yul\":22203:22212   */\n      dup4\n        /* \"#utility.yul\":22194:22201   */\n      dup6\n        /* \"#utility.yul\":22190:22213   */\n      sub\n        /* \"#utility.yul\":22186:22218   */\n      slt\n        /* \"#utility.yul\":22183:22302   */\n      iszero\n      tag_587\n      jumpi\n        /* \"#utility.yul\":22221:22300   */\n      tag_588\n      tag_325\n      jump\t// in\n    tag_588:\n        /* \"#utility.yul\":22183:22302   */\n    tag_587:\n        /* \"#utility.yul\":22341:22342   */\n      0x00\n        /* \"#utility.yul\":22366:22419   */\n      tag_589\n        /* \"#utility.yul\":22411:22418   */\n      dup6\n        /* \"#utility.yul\":22402:22408   */\n      dup3\n        /* \"#utility.yul\":22391:22400   */\n      dup7\n        /* \"#utility.yul\":22387:22409   */\n      add\n        /* \"#utility.yul\":22366:22419   */\n      tag_340\n      jump\t// in\n    tag_589:\n        /* \"#utility.yul\":22356:22419   */\n      swap3\n      pop\n        /* \"#utility.yul\":22312:22429   */\n      pop\n        /* \"#utility.yul\":22496:22498   */\n      0x20\n        /* \"#utility.yul\":22485:22494   */\n      dup4\n        /* \"#utility.yul\":22481:22499   */\n      add\n        /* \"#utility.yul\":22468:22500   */\n      calldataload\n        /* \"#utility.yul\":22527:22545   */\n      0xffffffffffffffff\n        /* \"#utility.yul\":22519:22525   */\n      dup2\n        /* \"#utility.yul\":22516:22546   */\n      gt\n        /* \"#utility.yul\":22513:22630   */\n      iszero\n      tag_590\n      jumpi\n        /* \"#utility.yul\":22549:22628   */\n      tag_591\n      tag_326\n      jump\t// in\n    tag_591:\n        /* \"#utility.yul\":22513:22630   */\n    tag_590:\n        /* \"#utility.yul\":22654:22717   */\n      tag_592\n        /* \"#utility.yul\":22709:22716   */\n      dup6\n        /* \"#utility.yul\":22700:22706   */\n      dup3\n        /* \"#utility.yul\":22689:22698   */\n      dup7\n        /* \"#utility.yul\":22685:22707   */\n      add\n        /* \"#utility.yul\":22654:22717   */\n      tag_348\n      jump\t// in\n    tag_592:\n        /* \"#utility.yul\":22644:22717   */\n      swap2\n      pop\n        /* \"#utility.yul\":22439:22727   */\n      pop\n        /* \"#utility.yul\":22080:22734   */\n      swap3\n      pop\n      swap3\n      swap1\n      pop\n      jump\t// out\n        /* \"#utility.yul\":22740:23214   */\n    tag_85:\n        /* \"#utility.yul\":22808:22814   */\n      0x00\n        /* \"#utility.yul\":22816:22822   */\n      dup1\n        /* \"#utility.yul\":22865:22867   */\n      0x40\n        /* \"#utility.yul\":22853:22862   */\n      dup4\n        /* \"#utility.yul\":22844:22851   */\n      dup6\n        /* \"#utility.yul\":22840:22863   */\n      sub\n        /* \"#utility.yul\":22836:22868   */\n      slt\n        /* \"#utility.yul\":22833:22952   */\n      iszero\n      tag_594\n      jumpi\n        /* \"#utility.yul\":22871:22950   */\n      tag_595\n      tag_325\n      jump\t// in\n    tag_595:\n        /* \"#utility.yul\":22833:22952   */\n    tag_594:\n        /* \"#utility.yul\":22991:22992   */\n      0x00\n        /* \"#utility.yul\":23016:23069   */\n      tag_596\n        /* \"#utility.yul\":23061:23068   */\n      dup6\n        /* \"#utility.yul\":23052:23058   */\n      dup3\n        /* \"#utility.yul\":23041:23050   */\n      dup7\n        /* \"#utility.yul\":23037:23059   */\n      add\n        /* \"#utility.yul\":23016:23069   */\n      tag_340\n      jump\t// in\n    tag_596:\n        /* \"#utility.yul\":23006:23069   */\n      swap3\n      pop\n        /* \"#utility.yul\":22962:23079   */\n      pop\n        /* \"#utility.yul\":23118:23120   */\n      0x20\n        /* \"#utility.yul\":23144:23197   */\n      tag_597\n        /* \"#utility.yul\":23189:23196   */\n      dup6\n        /* \"#utility.yul\":23180:23186   */\n      dup3\n        /* \"#utility.yul\":23169:23178   */\n      dup7\n        /* \"#utility.yul\":23165:23187   */\n      add\n        /* \"#utility.yul\":23144:23197   */\n      tag_329\n      jump\t// in\n    tag_597:\n        /* \"#utility.yul\":23134:23197   */\n      swap2\n      pop\n        /* \"#utility.yul\":23089:23207   */\n      pop\n        /* \"#utility.yul\":22740:23214   */\n      swap3\n      pop\n      swap3\n      swap1\n      pop\n      jump\t// out\n        /* \"#utility.yul\":23220:23442   */\n    tag_93:\n        /* \"#utility.yul\":23313:23317   */\n      0x00\n        /* \"#utility.yul\":23351:23353   */\n      0x20\n        /* \"#utility.yul\":23340:23349   */\n      dup3\n        /* \"#utility.yul\":23336:23354   */\n      add\n        /* \"#utility.yul\":23328:23354   */\n      swap1\n      pop\n        /* \"#utility.yul\":23364:23435   */\n      tag_599\n        /* \"#utility.yul\":23432:23433   */\n      0x00\n        /* \"#utility.yul\":23421:23430   */\n      dup4\n        /* \"#utility.yul\":23417:23434   */\n      add\n        /* \"#utility.yul\":23408:23414   */\n      dup5\n        /* \"#utility.yul\":23364:23435   */\n      tag_337\n      jump\t// in\n    tag_599:\n        /* \"#utility.yul\":23220:23442   */\n      swap3\n      swap2\n      pop\n      pop\n      jump\t// out\n        /* \"#utility.yul\":23448:23552   */\n    tag_373:\n        /* \"#utility.yul\":23493:23500   */\n      0x00\n        /* \"#utility.yul\":23522:23546   */\n      tag_601\n        /* \"#utility.yul\":23540:23545   */\n      dup3\n        /* \"#utility.yul\":23522:23546   */\n      tag_335\n      jump\t// in\n    tag_601:\n        /* \"#utility.yul\":23511:23546   */\n      swap1\n      pop\n        /* \"#utility.yul\":23448:23552   */\n      swap2\n      swap1\n      pop\n      jump\t// out\n        /* \"#utility.yul\":23558:23696   */\n    tag_374:\n        /* \"#utility.yul\":23639:23671   */\n      tag_603\n        /* \"#utility.yul\":23665:23670   */\n      dup2\n        /* \"#utility.yul\":23639:23671   */\n      tag_373\n      jump\t// in\n    tag_603:\n        /* \"#utility.yul\":23632:23637   */\n      dup2\n        /* \"#utility.yul\":23629:23672   */\n      eq\n        /* \"#utility.yul\":23619:23690   */\n      tag_604\n      jumpi\n        /* \"#utility.yul\":23686:23687   */\n      0x00\n        /* \"#utility.yul\":23683:23684   */\n      dup1\n        /* \"#utility.yul\":23676:23688   */\n      revert\n        /* \"#utility.yul\":23619:23690   */\n    tag_604:\n        /* \"#utility.yul\":23558:23696   */\n      pop\n      jump\t// out\n        /* \"#utility.yul\":23702:23857   */\n    tag_375:\n        /* \"#utility.yul\":23756:23761   */\n      0x00\n        /* \"#utility.yul\":23794:23800   */\n      dup2\n        /* \"#utility.yul\":23781:23801   */\n      calldataload\n        /* \"#utility.yul\":23772:23801   */\n      swap1\n      pop\n        /* \"#utility.yul\":23810:23851   */\n      tag_606\n        /* \"#utility.yul\":23845:23850   */\n      dup2\n        /* \"#utility.yul\":23810:23851   */\n      tag_374\n      jump\t// in\n    tag_606:\n        /* \"#utility.yul\":23702:23857   */\n      swap3\n      swap2\n      pop\n      pop\n      jump\t// out\n        /* \"#utility.yul\":23863:24353   */\n    tag_97:\n        /* \"#utility.yul\":23939:23945   */\n      0x00\n        /* \"#utility.yul\":23947:23953   */\n      dup1\n        /* \"#utility.yul\":23996:23998   */\n      0x40\n        /* \"#utility.yul\":23984:23993   */\n      dup4\n        /* \"#utility.yul\":23975:23982   */\n      dup6\n        /* \"#utility.yul\":23971:23994   */\n      sub\n        /* \"#utility.yul\":23967:23999   */\n      slt\n        /* \"#utility.yul\":23964:24083   */\n      iszero\n      tag_608\n      jumpi\n        /* \"#utility.yul\":24002:24081   */\n      tag_609\n      tag_325\n      jump\t// in\n    tag_609:\n        /* \"#utility.yul\":23964:24083   */\n    tag_608:\n        /* \"#utility.yul\":24122:24123   */\n      0x00\n        /* \"#utility.yul\":24147:24208   */\n      tag_610\n        /* \"#utility.yul\":24200:24207   */\n      dup6\n        /* \"#utility.yul\":24191:24197   */\n      dup3\n        /* \"#utility.yul\":24180:24189   */\n      dup7\n        /* \"#utility.yul\":24176:24198   */\n      add\n        /* \"#utility.yul\":24147:24208   */\n      tag_375\n      jump\t// in\n    tag_610:\n        /* \"#utility.yul\":24137:24208   */\n      swap3\n      pop\n        /* \"#utility.yul\":24093:24218   */\n      pop\n        /* \"#utility.yul\":24257:24259   */\n      0x20\n        /* \"#utility.yul\":24283:24336   */\n      tag_611\n        /* \"#utility.yul\":24328:24335   */\n      dup6\n        /* \"#utility.yul\":24319:24325   */\n      dup3\n        /* \"#utility.yul\":24308:24317   */\n      dup7\n        /* \"#utility.yul\":24304:24326   */\n      add\n        /* \"#utility.yul\":24283:24336   */\n      tag_329\n      jump\t// in\n    tag_611:\n        /* \"#utility.yul\":24273:24336   */\n      swap2\n      pop\n        /* \"#utility.yul\":24228:24346   */\n      pop\n        /* \"#utility.yul\":23863:24353   */\n      swap3\n      pop\n      swap3\n      swap1\n      pop\n      jump\t// out\n        /* \"#utility.yul\":24359:24449   */\n    tag_376:\n        /* \"#utility.yul\":24393:24400   */\n      0x00\n        /* \"#utility.yul\":24436:24441   */\n      dup2\n        /* \"#utility.yul\":24429:24442   */\n      iszero\n        /* \"#utility.yul\":24422:24443   */\n      iszero\n        /* \"#utility.yul\":24411:24443   */\n      swap1\n      pop\n        /* \"#utility.yul\":24359:24449   */\n      swap2\n      swap1\n      pop\n      jump\t// out\n        /* \"#utility.yul\":24455:24564   */\n    tag_377:\n        /* \"#utility.yul\":24536:24557   */\n      tag_614\n        /* \"#utility.yul\":24551:24556   */\n      dup2\n        /* \"#utility.yul\":24536:24557   */\n      tag_376\n      jump\t// in\n    tag_614:\n        /* \"#utility.yul\":24531:24534   */\n      dup3\n        /* \"#utility.yul\":24524:24558   */\n      mstore\n        /* \"#utility.yul\":24455:24564   */\n      pop\n      pop\n      jump\t// out\n        /* \"#utility.yul\":24570:24780   */\n    tag_104:\n        /* \"#utility.yul\":24657:24661   */\n      0x00\n        /* \"#utility.yul\":24695:24697   */\n      0x20\n        /* \"#utility.yul\":24684:24693   */\n      dup3\n        /* \"#utility.yul\":24680:24698   */\n      add\n        /* \"#utility.yul\":24672:24698   */\n      swap1\n      pop\n        /* \"#utility.yul\":24708:24773   */\n      tag_616\n        /* \"#utility.yul\":24770:24771   */\n      0x00\n        /* \"#utility.yul\":24759:24768   */\n      dup4\n        /* \"#utility.yul\":24755:24772   */\n      add\n        /* \"#utility.yul\":24746:24752   */\n      dup5\n        /* \"#utility.yul\":24708:24773   */\n      tag_377\n      jump\t// in\n    tag_616:\n        /* \"#utility.yul\":24570:24780   */\n      swap3\n      swap2\n      pop\n      pop\n      jump\t// out\n        /* \"#utility.yul\":24786:27115   */\n    tag_108:\n        /* \"#utility.yul\":24965:24971   */\n      0x00\n        /* \"#utility.yul\":24973:24979   */\n      dup1\n        /* \"#utility.yul\":24981:24987   */\n      0x00\n        /* \"#utility.yul\":24989:24995   */\n      dup1\n        /* \"#utility.yul\":24997:25003   */\n      0x00\n        /* \"#utility.yul\":25005:25011   */\n      dup1\n        /* \"#utility.yul\":25013:25019   */\n      0x00\n        /* \"#utility.yul\":25021:25027   */\n      dup1\n        /* \"#utility.yul\":25029:25035   */\n      0x00\n        /* \"#utility.yul\":25037:25043   */\n      dup1\n        /* \"#utility.yul\":25045:25052   */\n      0x00\n        /* \"#utility.yul\":25095:25098   */\n      0x0160\n        /* \"#utility.yul\":25083:25092   */\n      dup13\n        /* \"#utility.yul\":25074:25081   */\n      dup15\n        /* \"#utility.yul\":25070:25093   */\n      sub\n        /* \"#utility.yul\":25066:25099   */\n      slt\n        /* \"#utility.yul\":25063:25183   */\n      iszero\n      tag_618\n      jumpi\n        /* \"#utility.yul\":25102:25181   */\n      tag_619\n      tag_325\n      jump\t// in\n    tag_619:\n        /* \"#utility.yul\":25063:25183   */\n    tag_618:\n        /* \"#utility.yul\":25250:25251   */\n      0x00\n        /* \"#utility.yul\":25239:25248   */\n      dup13\n        /* \"#utility.yul\":25235:25252   */\n      add\n        /* \"#utility.yul\":25222:25253   */\n      calldataload\n        /* \"#utility.yul\":25280:25298   */\n      0xffffffffffffffff\n        /* \"#utility.yul\":25272:25278   */\n      dup2\n        /* \"#utility.yul\":25269:25299   */\n      gt\n        /* \"#utility.yul\":25266:25383   */\n      iszero\n      tag_620\n      jumpi\n        /* \"#utility.yul\":25302:25381   */\n      tag_621\n      tag_326\n      jump\t// in\n    tag_621:\n        /* \"#utility.yul\":25266:25383   */\n    tag_620:\n        /* \"#utility.yul\":25407:25470   */\n      tag_622\n        /* \"#utility.yul\":25462:25469   */\n      dup15\n        /* \"#utility.yul\":25453:25459   */\n      dup3\n        /* \"#utility.yul\":25442:25451   */\n      dup16\n        /* \"#utility.yul\":25438:25460   */\n      add\n        /* \"#utility.yul\":25407:25470   */\n      tag_348\n      jump\t// in\n    tag_622:\n        /* \"#utility.yul\":25397:25470   */\n      swap12\n      pop\n        /* \"#utility.yul\":25193:25480   */\n      pop\n        /* \"#utility.yul\":25547:25549   */\n      0x20\n        /* \"#utility.yul\":25536:25545   */\n      dup13\n        /* \"#utility.yul\":25532:25550   */\n      add\n        /* \"#utility.yul\":25519:25551   */\n      calldataload\n        /* \"#utility.yul\":25578:25596   */\n      0xffffffffffffffff\n        /* \"#utility.yul\":25570:25576   */\n      dup2\n        /* \"#utility.yul\":25567:25597   */\n      gt\n        /* \"#utility.yul\":25564:25681   */\n      iszero\n      tag_623\n      jumpi\n        /* \"#utility.yul\":25600:25679   */\n      tag_624\n      tag_326\n      jump\t// in\n    tag_624:\n        /* \"#utility.yul\":25564:25681   */\n    tag_623:\n        /* \"#utility.yul\":25705:25768   */\n      tag_625\n        /* \"#utility.yul\":25760:25767   */\n      dup15\n        /* \"#utility.yul\":25751:25757   */\n      dup3\n        /* \"#utility.yul\":25740:25749   */\n      dup16\n        /* \"#utility.yul\":25736:25758   */\n      add\n        /* \"#utility.yul\":25705:25768   */\n      tag_348\n      jump\t// in\n    tag_625:\n        /* \"#utility.yul\":25695:25768   */\n      swap11\n      pop\n        /* \"#utility.yul\":25490:25778   */\n      pop\n        /* \"#utility.yul\":25845:25847   */\n      0x40\n        /* \"#utility.yul\":25834:25843   */\n      dup13\n        /* \"#utility.yul\":25830:25848   */\n      add\n        /* \"#utility.yul\":25817:25849   */\n      calldataload\n        /* \"#utility.yul\":25876:25894   */\n      0xffffffffffffffff\n        /* \"#utility.yul\":25868:25874   */\n      dup2\n        /* \"#utility.yul\":25865:25895   */\n      gt\n        /* \"#utility.yul\":25862:25979   */\n      iszero\n      tag_626\n      jumpi\n        /* \"#utility.yul\":25898:25977   */\n      tag_627\n      tag_326\n      jump\t// in\n    tag_627:\n        /* \"#utility.yul\":25862:25979   */\n    tag_626:\n        /* \"#utility.yul\":26003:26066   */\n      tag_628\n        /* \"#utility.yul\":26058:26065   */\n      dup15\n        /* \"#utility.yul\":26049:26055   */\n      dup3\n        /* \"#utility.yul\":26038:26047   */\n      dup16\n        /* \"#utility.yul\":26034:26056   */\n      add\n        /* \"#utility.yul\":26003:26066   */\n      tag_348\n      jump\t// in\n    tag_628:\n        /* \"#utility.yul\":25993:26066   */\n      swap10\n      pop\n        /* \"#utility.yul\":25788:26076   */\n      pop\n        /* \"#utility.yul\":26115:26117   */\n      0x60\n        /* \"#utility.yul\":26141:26194   */\n      tag_629\n        /* \"#utility.yul\":26186:26193   */\n      dup15\n        /* \"#utility.yul\":26177:26183   */\n      dup3\n        /* \"#utility.yul\":26166:26175   */\n      dup16\n        /* \"#utility.yul\":26162:26184   */\n      add\n        /* \"#utility.yul\":26141:26194   */\n      tag_329\n      jump\t// in\n    tag_629:\n        /* \"#utility.yul\":26131:26194   */\n      swap9\n      pop\n        /* \"#utility.yul\":26086:26204   */\n      pop\n        /* \"#utility.yul\":26243:26246   */\n      0x80\n        /* \"#utility.yul\":26270:26323   */\n      tag_630\n        /* \"#utility.yul\":26315:26322   */\n      dup15\n        /* \"#utility.yul\":26306:26312   */\n      dup3\n        /* \"#utility.yul\":26295:26304   */\n      dup16\n        /* \"#utility.yul\":26291:26313   */\n      add\n        /* \"#utility.yul\":26270:26323   */\n      tag_329\n      jump\t// in\n    tag_630:\n        /* \"#utility.yul\":26260:26323   */\n      swap8\n      pop\n        /* \"#utility.yul\":26214:26333   */\n      pop\n        /* \"#utility.yul\":26372:26375   */\n      0xa0\n        /* \"#utility.yul\":26399:26452   */\n      tag_631\n        /* \"#utility.yul\":26444:26451   */\n      dup15\n        /* \"#utility.yul\":26435:26441   */\n      dup3\n        /* \"#utility.yul\":26424:26433   */\n      dup16\n        /* \"#utility.yul\":26420:26442   */\n      add\n        /* \"#utility.yul\":26399:26452   */\n      tag_329\n      jump\t// in\n    tag_631:\n        /* \"#utility.yul\":26389:26452   */\n      swap7\n      pop\n        /* \"#utility.yul\":26343:26462   */\n      pop\n        /* \"#utility.yul\":26501:26504   */\n      0xc0\n        /* \"#utility.yul\":26528:26581   */\n      tag_632\n        /* \"#utility.yul\":26573:26580   */\n      dup15\n        /* \"#utility.yul\":26564:26570   */\n      dup3\n        /* \"#utility.yul\":26553:26562   */\n      dup16\n        /* \"#utility.yul\":26549:26571   */\n      add\n        /* \"#utility.yul\":26528:26581   */\n      tag_329\n      jump\t// in\n    tag_632:\n        /* \"#utility.yul\":26518:26581   */\n      swap6\n      pop\n        /* \"#utility.yul\":26472:26591   */\n      pop\n        /* \"#utility.yul\":26630:26633   */\n      0xe0\n        /* \"#utility.yul\":26657:26710   */\n      tag_633\n        /* \"#utility.yul\":26702:26709   */\n      dup15\n        /* \"#utility.yul\":26693:26699   */\n      dup3\n        /* \"#utility.yul\":26682:26691   */\n      dup16\n        /* \"#utility.yul\":26678:26700   */\n      add\n        /* \"#utility.yul\":26657:26710   */\n      tag_329\n      jump\t// in\n    tag_633:\n        /* \"#utility.yul\":26647:26710   */\n      swap5\n      pop\n        /* \"#utility.yul\":26601:26720   */\n      pop\n        /* \"#utility.yul\":26759:26762   */\n      0x0100\n        /* \"#utility.yul\":26786:26839   */\n      tag_634\n        /* \"#utility.yul\":26831:26838   */\n      dup15\n        /* \"#utility.yul\":26822:26828   */\n      dup3\n        /* \"#utility.yul\":26811:26820   */\n      dup16\n        /* \"#utility.yul\":26807:26829   */\n      add\n        /* \"#utility.yul\":26786:26839   */\n      tag_329\n      jump\t// in\n    tag_634:\n        /* \"#utility.yul\":26776:26839   */\n      swap4\n      pop\n        /* \"#utility.yul\":26730:26849   */\n      pop\n        /* \"#utility.yul\":26888:26891   */\n      0x0120\n        /* \"#utility.yul\":26915:26968   */\n      tag_635\n        /* \"#utility.yul\":26960:26967   */\n      dup15\n        /* \"#utility.yul\":26951:26957   */\n      dup3\n        /* \"#utility.yul\":26940:26949   */\n      dup16\n        /* \"#utility.yul\":26936:26958   */\n      add\n        /* \"#utility.yul\":26915:26968   */\n      tag_329\n      jump\t// in\n    tag_635:\n        /* \"#utility.yul\":26905:26968   */\n      swap3\n      pop\n        /* \"#utility.yul\":26859:26978   */\n      pop\n        /* \"#utility.yul\":27017:27020   */\n      0x0140\n        /* \"#utility.yul\":27045:27098   */\n      tag_636\n        /* \"#utility.yul\":27090:27097   */\n      dup15\n        /* \"#utility.yul\":27081:27087   */\n      dup3\n        /* \"#utility.yul\":27070:27079   */\n      dup16\n        /* \"#utility.yul\":27066:27088   */\n      add\n        /* \"#utility.yul\":27045:27098   */\n      tag_329\n      jump\t// in\n    tag_636:\n        /* \"#utility.yul\":27034:27098   */\n      swap2\n      pop\n        /* \"#utility.yul\":26988:27108   */\n      pop\n        /* \"#utility.yul\":24786:27115   */\n      swap3\n      swap6\n      swap9\n      swap12\n      pop\n      swap3\n      swap6\n      swap9\n      swap12\n      swap1\n      swap4\n      swap7\n      swap10\n      pop\n      jump\t// out\n        /* \"#utility.yul\":27121:27630   */\n    tag_123:\n        /* \"#utility.yul\":27190:27196   */\n      0x00\n        /* \"#utility.yul\":27239:27241   */\n      0x20\n        /* \"#utility.yul\":27227:27236   */\n      dup3\n        /* \"#utility.yul\":27218:27225   */\n      dup5\n        /* \"#utility.yul\":27214:27237   */\n      sub\n        /* \"#utility.yul\":27210:27242   */\n      slt\n        /* \"#utility.yul\":27207:27326   */\n      iszero\n      tag_638\n      jumpi\n        /* \"#utility.yul\":27245:27324   */\n      tag_639\n      tag_325\n      jump\t// in\n    tag_639:\n        /* \"#utility.yul\":27207:27326   */\n    tag_638:\n        /* \"#utility.yul\":27393:27394   */\n      0x00\n        /* \"#utility.yul\":27382:27391   */\n      dup3\n        /* \"#utility.yul\":27378:27395   */\n      add\n        /* \"#utility.yul\":27365:27396   */\n      calldataload\n        /* \"#utility.yul\":27423:27441   */\n      0xffffffffffffffff\n        /* \"#utility.yul\":27415:27421   */\n      dup2\n        /* \"#utility.yul\":27412:27442   */\n      gt\n        /* \"#utility.yul\":27409:27526   */\n      iszero\n      tag_640\n      jumpi\n        /* \"#utility.yul\":27445:27524   */\n      tag_641\n      tag_326\n      jump\t// in\n    tag_641:\n        /* \"#utility.yul\":27409:27526   */\n    tag_640:\n        /* \"#utility.yul\":27550:27613   */\n      tag_642\n        /* \"#utility.yul\":27605:27612   */\n      dup5\n        /* \"#utility.yul\":27596:27602   */\n      dup3\n        /* \"#utility.yul\":27585:27594   */\n      dup6\n        /* \"#utility.yul\":27581:27603   */\n      add\n        /* \"#utility.yul\":27550:27613   */\n      tag_348\n      jump\t// in\n    tag_642:\n        /* \"#utility.yul\":27540:27613   */\n      swap2\n      pop\n        /* \"#utility.yul\":27336:27623   */\n      pop\n        /* \"#utility.yul\":27121:27630   */\n      swap3\n      swap2\n      pop\n      pop\n      jump\t// out\n        /* \"#utility.yul\":27636:28761   */\n    tag_128:\n        /* \"#utility.yul\":27742:27748   */\n      0x00\n        /* \"#utility.yul\":27750:27756   */\n      dup1\n        /* \"#utility.yul\":27758:27764   */\n      0x00\n        /* \"#utility.yul\":27766:27772   */\n      dup1\n        /* \"#utility.yul\":27815:27818   */\n      0x80\n        /* \"#utility.yul\":27803:27812   */\n      dup6\n        /* \"#utility.yul\":27794:27801   */\n      dup8\n        /* \"#utility.yul\":27790:27813   */\n      sub\n        /* \"#utility.yul\":27786:27819   */\n      slt\n        /* \"#utility.yul\":27783:27903   */\n      iszero\n      tag_644\n      jumpi\n        /* \"#utility.yul\":27822:27901   */\n      tag_645\n      tag_325\n      jump\t// in\n    tag_645:\n        /* \"#utility.yul\":27783:27903   */\n    tag_644:\n        /* \"#utility.yul\":27942:27943   */\n      0x00\n        /* \"#utility.yul\":27967:28020   */\n      tag_646\n        /* \"#utility.yul\":28012:28019   */\n      dup8\n        /* \"#utility.yul\":28003:28009   */\n      dup3\n        /* \"#utility.yul\":27992:28001   */\n      dup9\n        /* \"#utility.yul\":27988:28010   */\n      add\n        /* \"#utility.yul\":27967:28020   */\n      tag_340\n      jump\t// in\n    tag_646:\n        /* \"#utility.yul\":27957:28020   */\n      swap5\n      pop\n        /* \"#utility.yul\":27913:28030   */\n      pop\n        /* \"#utility.yul\":28097:28099   */\n      0x20\n        /* \"#utility.yul\":28086:28095   */\n      dup6\n        /* \"#utility.yul\":28082:28100   */\n      add\n        /* \"#utility.yul\":28069:28101   */\n      calldataload\n        /* \"#utility.yul\":28128:28146   */\n      0xffffffffffffffff\n        /* \"#utility.yul\":28120:28126   */\n      dup2\n        /* \"#utility.yul\":28117:28147   */\n      gt\n        /* \"#utility.yul\":28114:28231   */\n      iszero\n      tag_647\n      jumpi\n        /* \"#utility.yul\":28150:28229   */\n      tag_648\n      tag_326\n      jump\t// in\n    tag_648:\n        /* \"#utility.yul\":28114:28231   */\n    tag_647:\n        /* \"#utility.yul\":28255:28318   */\n      tag_649\n        /* \"#utility.yul\":28310:28317   */\n      dup8\n        /* \"#utility.yul\":28301:28307   */\n      dup3\n        /* \"#utility.yul\":28290:28299   */\n      dup9\n        /* \"#utility.yul\":28286:28308   */\n      add\n        /* \"#utility.yul\":28255:28318   */\n      tag_348\n      jump\t// in\n    tag_649:\n        /* \"#utility.yul\":28245:28318   */\n      swap4\n      pop\n        /* \"#utility.yul\":28040:28328   */\n      pop\n        /* \"#utility.yul\":28367:28369   */\n      0x40\n        /* \"#utility.yul\":28393:28446   */\n      tag_650\n        /* \"#utility.yul\":28438:28445   */\n      dup8\n        /* \"#utility.yul\":28429:28435   */\n      dup3\n        /* \"#utility.yul\":28418:28427   */\n      dup9\n        /* \"#utility.yul\":28414:28436   */\n      add\n        /* \"#utility.yul\":28393:28446   */\n      tag_329\n      jump\t// in\n    tag_650:\n        /* \"#utility.yul\":28383:28446   */\n      swap3\n      pop\n        /* \"#utility.yul\":28338:28456   */\n      pop\n        /* \"#utility.yul\":28523:28525   */\n      0x60\n        /* \"#utility.yul\":28512:28521   */\n      dup6\n        /* \"#utility.yul\":28508:28526   */\n      add\n        /* \"#utility.yul\":28495:28527   */\n      calldataload\n        /* \"#utility.yul\":28554:28572   */\n      0xffffffffffffffff\n        /* \"#utility.yul\":28546:28552   */\n      dup2\n        /* \"#utility.yul\":28543:28573   */\n      gt\n        /* \"#utility.yul\":28540:28657   */\n      iszero\n      tag_651\n      jumpi\n        /* \"#utility.yul\":28576:28655   */\n      tag_652\n      tag_326\n      jump\t// in\n    tag_652:\n        /* \"#utility.yul\":28540:28657   */\n    tag_651:\n        /* \"#utility.yul\":28681:28744   */\n      tag_653\n        /* \"#utility.yul\":28736:28743   */\n      dup8\n        /* \"#utility.yul\":28727:28733   */\n      dup3\n        /* \"#utility.yul\":28716:28725   */\n      dup9\n        /* \"#utility.yul\":28712:28734   */\n      add\n        /* \"#utility.yul\":28681:28744   */\n      tag_348\n      jump\t// in\n    tag_653:\n        /* \"#utility.yul\":28671:28744   */\n      swap2\n      pop\n        /* \"#utility.yul\":28466:28754   */\n      pop\n        /* \"#utility.yul\":27636:28761   */\n      swap3\n      swap6\n      swap2\n      swap5\n      pop\n      swap3\n      pop\n      jump\t// out\n        /* \"#utility.yul\":28767:28947   */\n    tag_378:\n        /* \"#utility.yul\":28815:28892   */\n      0x4e487b7100000000000000000000000000000000000000000000000000000000\n        /* \"#utility.yul\":28812:28813   */\n      0x00\n        /* \"#utility.yul\":28805:28893   */\n      mstore\n        /* \"#utility.yul\":28912:28916   */\n      0x22\n        /* \"#utility.yul\":28909:28910   */\n      0x04\n        /* \"#utility.yul\":28902:28917   */\n      mstore\n        /* \"#utility.yul\":28936:28940   */\n      0x24\n        /* \"#utility.yul\":28933:28934   */\n      0x00\n        /* \"#utility.yul\":28926:28941   */\n      revert\n        /* \"#utility.yul\":28953:29273   */\n    tag_133:\n        /* \"#utility.yul\":28997:29003   */\n      0x00\n        /* \"#utility.yul\":29034:29035   */\n      0x02\n        /* \"#utility.yul\":29028:29032   */\n      dup3\n        /* \"#utility.yul\":29024:29036   */\n      div\n        /* \"#utility.yul\":29014:29036   */\n      swap1\n      pop\n        /* \"#utility.yul\":29081:29082   */\n      0x01\n        /* \"#utility.yul\":29075:29079   */\n      dup3\n        /* \"#utility.yul\":29071:29083   */\n      and\n        /* \"#utility.yul\":29102:29120   */\n      dup1\n        /* \"#utility.yul\":29092:29173   */\n      tag_656\n      jumpi\n        /* \"#utility.yul\":29158:29162   */\n      0x7f\n        /* \"#utility.yul\":29150:29156   */\n      dup3\n        /* \"#utility.yul\":29146:29163   */\n      and\n        /* \"#utility.yul\":29136:29163   */\n      swap2\n      pop\n        /* \"#utility.yul\":29092:29173   */\n    tag_656:\n        /* \"#utility.yul\":29220:29222   */\n      0x20\n        /* \"#utility.yul\":29212:29218   */\n      dup3\n        /* \"#utility.yul\":29209:29223   */\n      lt\n        /* \"#utility.yul\":29189:29207   */\n      dup2\n        /* \"#utility.yul\":29186:29224   */\n      sub\n        /* \"#utility.yul\":29183:29267   */\n      tag_657\n      jumpi\n        /* \"#utility.yul\":29239:29257   */\n      tag_658\n      tag_378\n      jump\t// in\n    tag_658:\n        /* \"#utility.yul\":29183:29267   */\n    tag_657:\n        /* \"#utility.yul\":29004:29273   */\n      pop\n        /* \"#utility.yul\":28953:29273   */\n      swap2\n      swap1\n      pop\n      jump\t// out\n        /* \"#utility.yul\":29279:29459   */\n    tag_168:\n        /* \"#utility.yul\":29327:29404   */\n      0x4e487b7100000000000000000000000000000000000000000000000000000000\n        /* \"#utility.yul\":29324:29325   */\n      0x00\n        /* \"#utility.yul\":29317:29405   */\n      mstore\n        /* \"#utility.yul\":29424:29428   */\n      0x32\n        /* \"#utility.yul\":29421:29422   */\n      0x04\n        /* \"#utility.yul\":29414:29429   */\n      mstore\n        /* \"#utility.yul\":29448:29452   */\n      0x24\n        /* \"#utility.yul\":29445:29446   */\n      0x00\n        /* \"#utility.yul\":29438:29453   */\n      revert\n        /* \"#utility.yul\":29465:29613   */\n    tag_379:\n        /* \"#utility.yul\":29567:29578   */\n      0x00\n        /* \"#utility.yul\":29604:29607   */\n      dup2\n        /* \"#utility.yul\":29589:29607   */\n      swap1\n      pop\n        /* \"#utility.yul\":29465:29613   */\n      swap3\n      swap2\n      pop\n      pop\n      jump\t// out\n        /* \"#utility.yul\":29619:30009   */\n    tag_380:\n        /* \"#utility.yul\":29725:29728   */\n      0x00\n        /* \"#utility.yul\":29753:29792   */\n      tag_662\n        /* \"#utility.yul\":29786:29791   */\n      dup3\n        /* \"#utility.yul\":29753:29792   */\n      tag_330\n      jump\t// in\n    tag_662:\n        /* \"#utility.yul\":29808:29897   */\n      tag_663\n        /* \"#utility.yul\":29890:29896   */\n      dup2\n        /* \"#utility.yul\":29885:29888   */\n      dup6\n        /* \"#utility.yul\":29808:29897   */\n      tag_379\n      jump\t// in\n    tag_663:\n        /* \"#utility.yul\":29801:29897   */\n      swap4\n      pop\n        /* \"#utility.yul\":29906:29971   */\n      tag_664\n        /* \"#utility.yul\":29964:29970   */\n      dup2\n        /* \"#utility.yul\":29959:29962   */\n      dup6\n        /* \"#utility.yul\":29952:29956   */\n      0x20\n        /* \"#utility.yul\":29945:29950   */\n      dup7\n        /* \"#utility.yul\":29941:29957   */\n      add\n        /* \"#utility.yul\":29906:29971   */\n      tag_332\n      jump\t// in\n    tag_664:\n        /* \"#utility.yul\":29996:30002   */\n      dup1\n        /* \"#utility.yul\":29991:29994   */\n      dup5\n        /* \"#utility.yul\":29987:30003   */\n      add\n        /* \"#utility.yul\":29980:30003   */\n      swap2\n      pop\n        /* \"#utility.yul\":29729:30009   */\n      pop\n        /* \"#utility.yul\":29619:30009   */\n      swap3\n      swap2\n      pop\n      pop\n      jump\t// out\n        /* \"#utility.yul\":30015:30290   */\n    tag_176:\n        /* \"#utility.yul\":30147:30150   */\n      0x00\n        /* \"#utility.yul\":30169:30264   */\n      tag_666\n        /* \"#utility.yul\":30260:30263   */\n      dup3\n        /* \"#utility.yul\":30251:30257   */\n      dup5\n        /* \"#utility.yul\":30169:30264   */\n      tag_380\n      jump\t// in\n    tag_666:\n        /* \"#utility.yul\":30162:30264   */\n      swap2\n      pop\n        /* \"#utility.yul\":30281:30284   */\n      dup2\n        /* \"#utility.yul\":30274:30284   */\n      swap1\n      pop\n        /* \"#utility.yul\":30015:30290   */\n      swap3\n      swap2\n      pop\n      pop\n      jump\t// out\n        /* \"#utility.yul\":30296:30476   */\n    tag_381:\n        /* \"#utility.yul\":30344:30421   */\n      0x4e487b7100000000000000000000000000000000000000000000000000000000\n        /* \"#utility.yul\":30341:30342   */\n      0x00\n        /* \"#utility.yul\":30334:30422   */\n      mstore\n        /* \"#utility.yul\":30441:30445   */\n      0x11\n        /* \"#utility.yul\":30438:30439   */\n      0x04\n        /* \"#utility.yul\":30431:30446   */\n      mstore\n        /* \"#utility.yul\":30465:30469   */\n      0x24\n        /* \"#utility.yul\":30462:30463   */\n      0x00\n        /* \"#utility.yul\":30455:30470   */\n      revert\n        /* \"#utility.yul\":30482:30715   */\n    tag_196:\n        /* \"#utility.yul\":30521:30524   */\n      0x00\n        /* \"#utility.yul\":30544:30568   */\n      tag_669\n        /* \"#utility.yul\":30562:30567   */\n      dup3\n        /* \"#utility.yul\":30544:30568   */\n      tag_327\n      jump\t// in\n    tag_669:\n        /* \"#utility.yul\":30535:30568   */\n      swap2\n      pop\n        /* \"#utility.yul\":30590:30656   */\n      0xffffffffffffffffffffffffffffffffffffffffffffffffffffffffffffffff\n        /* \"#utility.yul\":30583:30588   */\n      dup3\n        /* \"#utility.yul\":30580:30657   */\n      sub\n        /* \"#utility.yul\":30577:30680   */\n      tag_670\n      jumpi\n        /* \"#utility.yul\":30660:30678   */\n      tag_671\n      tag_381\n      jump\t// in\n    tag_671:\n        /* \"#utility.yul\":30577:30680   */\n    tag_670:\n        /* \"#utility.yul\":30707:30708   */\n      0x01\n        /* \"#utility.yul\":30700:30705   */\n      dup3\n        /* \"#utility.yul\":30696:30709   */\n      add\n        /* \"#utility.yul\":30689:30709   */\n      swap1\n      pop\n        /* \"#utility.yul\":30482:30715   */\n      swap2\n      swap1\n      pop\n      jump\t// out\n        /* \"#utility.yul\":30721:30862   */\n    tag_382:\n        /* \"#utility.yul\":30770:30774   */\n      0x00\n        /* \"#utility.yul\":30793:30796   */\n      dup2\n        /* \"#utility.yul\":30785:30796   */\n      swap1\n      pop\n        /* \"#utility.yul\":30816:30819   */\n      dup2\n        /* \"#utility.yul\":30813:30814   */\n      0x00\n        /* \"#utility.yul\":30806:30820   */\n      mstore\n        /* \"#utility.yul\":30850:30854   */\n      0x20\n        /* \"#utility.yul\":30847:30848   */\n      0x00\n        /* \"#utility.yul\":30837:30855   */\n      keccak256\n        /* \"#utility.yul\":30829:30855   */\n      swap1\n      pop\n        /* \"#utility.yul\":30721:30862   */\n      swap2\n      swap1\n      pop\n      jump\t// out\n        /* \"#utility.yul\":30868:30961   */\n    tag_383:\n        /* \"#utility.yul\":30905:30911   */\n      0x00\n        /* \"#utility.yul\":30952:30954   */\n      0x20\n        /* \"#utility.yul\":30947:30949   */\n      0x1f\n        /* \"#utility.yul\":30940:30945   */\n      dup4\n        /* \"#utility.yul\":30936:30950   */\n      add\n        /* \"#utility.yul\":30932:30955   */\n      div\n        /* \"#utility.yul\":30922:30955   */\n      swap1\n      pop\n        /* \"#utility.yul\":30868:30961   */\n      swap2\n      swap1\n      pop\n      jump\t// out\n        /* \"#utility.yul\":30967:31074   */\n    tag_384:\n        /* \"#utility.yul\":31011:31019   */\n      0x00\n        /* \"#utility.yul\":31061:31066   */\n      dup3\n        /* \"#utility.yul\":31055:31059   */\n      dup3\n        /* \"#utility.yul\":31051:31067   */\n      shl\n        /* \"#utility.yul\":31030:31067   */\n      swap1\n      pop\n        /* \"#utility.yul\":30967:31074   */\n      swap3\n      swap2\n      pop\n      pop\n      jump\t// out\n        /* \"#utility.yul\":31080:31473   */\n    tag_385:\n        /* \"#utility.yul\":31149:31155   */\n      0x00\n        /* \"#utility.yul\":31199:31200   */\n      0x08\n        /* \"#utility.yul\":31187:31197   */\n      dup4\n        /* \"#utility.yul\":31183:31201   */\n      mul\n        /* \"#utility.yul\":31222:31319   */\n      tag_676\n        /* \"#utility.yul\":31252:31318   */\n      0xffffffffffffffffffffffffffffffffffffffffffffffffffffffffffffffff\n        /* \"#utility.yul\":31241:31250   */\n      dup3\n        /* \"#utility.yul\":31222:31319   */\n      tag_384\n      jump\t// in\n    tag_676:\n        /* \"#utility.yul\":31340:31379   */\n      tag_677\n        /* \"#utility.yul\":31370:31378   */\n      dup7\n        /* \"#utility.yul\":31359:31368   */\n      dup4\n        /* \"#utility.yul\":31340:31379   */\n      tag_384\n      jump\t// in\n    tag_677:\n        /* \"#utility.yul\":31328:31379   */\n      swap6\n      pop\n        /* \"#utility.yul\":31412:31416   */\n      dup1\n        /* \"#utility.yul\":31408:31417   */\n      not\n        /* \"#utility.yul\":31401:31406   */\n      dup5\n        /* \"#utility.yul\":31397:31418   */\n      and\n        /* \"#utility.yul\":31388:31418   */\n      swap4\n      pop\n        /* \"#utility.yul\":31461:31465   */\n      dup1\n        /* \"#utility.yul\":31451:31459   */\n      dup7\n        /* \"#utility.yul\":31447:31466   */\n      and\n        /* \"#utility.yul\":31440:31445   */\n      dup5\n        /* \"#utility.yul\":31437:31467   */\n      or\n        /* \"#utility.yul\":31427:31467   */\n      swap3\n      pop\n        /* \"#utility.yul\":31156:31473   */\n      pop\n      pop\n        /* \"#utility.yul\":31080:31473   */\n      swap4\n      swap3\n      pop\n      pop\n      pop\n      jump\t// out\n        /* \"#utility.yul\":31479:31539   */\n    tag_386:\n        /* \"#utility.yul\":31507:31510   */\n      0x00\n        /* \"#utility.yul\":31528:31533   */\n      dup2\n        /* \"#utility.yul\":31521:31533   */\n      swap1\n      pop\n        /* \"#utility.yul\":31479:31539   */\n      swap2\n      swap1\n      pop\n      jump\t// out\n        /* \"#utility.yul\":31545:31687   */\n    tag_387:\n        /* \"#utility.yul\":31595:31604   */\n      0x00\n        /* \"#utility.yul\":31628:31681   */\n      tag_680\n        /* \"#utility.yul\":31646:31680   */\n      tag_681\n        /* \"#utility.yul\":31655:31679   */\n      tag_682\n        /* \"#utility.yul\":31673:31678   */\n      dup5\n        /* \"#utility.yul\":31655:31679   */\n      tag_327\n      jump\t// in\n    tag_682:\n        /* \"#utility.yul\":31646:31680   */\n      tag_386\n      jump\t// in\n    tag_681:\n        /* \"#utility.yul\":31628:31681   */\n      tag_327\n      jump\t// in\n    tag_680:\n        /* \"#utility.yul\":31615:31681   */\n      swap1\n      pop\n        /* \"#utility.yul\":31545:31687   */\n      swap2\n      swap1\n      pop\n      jump\t// out\n        /* \"#utility.yul\":31693:31768   */\n    tag_388:\n        /* \"#utility.yul\":31736:31739   */\n      0x00\n        /* \"#utility.yul\":31757:31762   */\n      dup2\n        /* \"#utility.yul\":31750:31762   */\n      swap1\n      pop\n        /* \"#utility.yul\":31693:31768   */\n      swap2\n      swap1\n      pop\n      jump\t// out\n        /* \"#utility.yul\":31774:32043   */\n    tag_389:\n        /* \"#utility.yul\":31884:31923   */\n      tag_685\n        /* \"#utility.yul\":31915:31922   */\n      dup4\n        /* \"#utility.yul\":31884:31923   */\n      tag_387\n      jump\t// in\n    tag_685:\n        /* \"#utility.yul\":31945:32036   */\n      tag_686\n        /* \"#utility.yul\":31994:32035   */\n      tag_687\n        /* \"#utility.yul\":32018:32034   */\n      dup3\n        /* \"#utility.yul\":31994:32035   */\n      tag_388\n      jump\t// in\n    tag_687:\n        /* \"#utility.yul\":31986:31992   */\n      dup5\n        /* \"#utility.yul\":31979:31983   */\n      dup5\n        /* \"#utility.yul\":31973:31984   */\n      sload\n        /* \"#utility.yul\":31945:32036   */\n      tag_385\n      jump\t// in\n    tag_686:\n        /* \"#utility.yul\":31939:31943   */\n      dup3\n        /* \"#utility.yul\":31932:32037   */\n      sstore\n        /* \"#utility.yul\":31850:32043   */\n      pop\n        /* \"#utility.yul\":31774:32043   */\n      pop\n      pop\n      pop\n      jump\t// out\n        /* \"#utility.yul\":32049:32122   */\n    tag_390:\n        /* \"#utility.yul\":32094:32097   */\n      0x00\n        /* \"#utility.yul\":32049:32122   */\n      swap1\n      jump\t// out\n        /* \"#utility.yul\":32128:32317   */\n    tag_391:\n        /* \"#utility.yul\":32205:32237   */\n      tag_690\n      tag_390\n      jump\t// in\n    tag_690:\n        /* \"#utility.yul\":32246:32311   */\n      tag_691\n        /* \"#utility.yul\":32304:32310   */\n      dup2\n        /* \"#utility.yul\":32296:32302   */\n      dup5\n        /* \"#utility.yul\":32290:32294   */\n      dup5\n        /* \"#utility.yul\":32246:32311   */\n      tag_389\n      jump\t// in\n    tag_691:\n        /* \"#utility.yul\":32181:32317   */\n      pop\n        /* \"#utility.yul\":32128:32317   */\n      pop\n      pop\n      jump\t// out\n        /* \"#utility.yul\":32323:32509   */\n    tag_392:\n        /* \"#utility.yul\":32383:32503   */\n    tag_693:\n        /* \"#utility.yul\":32400:32403   */\n      dup2\n        /* \"#utility.yul\":32393:32398   */\n      dup2\n        /* \"#utility.yul\":32390:32404   */\n      lt\n        /* \"#utility.yul\":32383:32503   */\n      iszero\n      tag_695\n      jumpi\n        /* \"#utility.yul\":32454:32493   */\n      tag_696\n        /* \"#utility.yul\":32491:32492   */\n      0x00\n        /* \"#utility.yul\":32484:32489   */\n      dup3\n        /* \"#utility.yul\":32454:32493   */\n      tag_391\n      jump\t// in\n    tag_696:\n        /* \"#utility.yul\":32427:32428   */\n      0x01\n        /* \"#utility.yul\":32420:32425   */\n      dup2\n        /* \"#utility.yul\":32416:32429   */\n      add\n        /* \"#utility.yul\":32407:32429   */\n      swap1\n      pop\n        /* \"#utility.yul\":32383:32503   */\n      jump(tag_693)\n    tag_695:\n        /* \"#utility.yul\":32323:32509   */\n      pop\n      pop\n      jump\t// out\n        /* \"#utility.yul\":32515:33058   */\n    tag_393:\n        /* \"#utility.yul\":32616:32618   */\n      0x1f\n        /* \"#utility.yul\":32611:32614   */\n      dup3\n        /* \"#utility.yul\":32608:32619   */\n      gt\n        /* \"#utility.yul\":32605:33051   */\n      iszero\n      tag_698\n      jumpi\n        /* \"#utility.yul\":32650:32688   */\n      tag_699\n        /* \"#utility.yul\":32682:32687   */\n      dup2\n        /* \"#utility.yul\":32650:32688   */\n      tag_382\n      jump\t// in\n    tag_699:\n        /* \"#utility.yul\":32734:32763   */\n      tag_700\n        /* \"#utility.yul\":32752:32762   */\n      dup5\n        /* \"#utility.yul\":32734:32763   */\n      tag_383\n      jump\t// in\n    tag_700:\n        /* \"#utility.yul\":32724:32732   */\n      dup2\n        /* \"#utility.yul\":32720:32764   */\n      add\n        /* \"#utility.yul\":32917:32919   */\n      0x20\n        /* \"#utility.yul\":32905:32915   */\n      dup6\n        /* \"#utility.yul\":32902:32920   */\n      lt\n        /* \"#utility.yul\":32899:32948   */\n      iszero\n      tag_701\n      jumpi\n        /* \"#utility.yul\":32938:32946   */\n      dup2\n        /* \"#utility.yul\":32923:32946   */\n      swap1\n      pop\n        /* \"#utility.yul\":32899:32948   */\n    tag_701:\n        /* \"#utility.yul\":32961:33041   */\n      tag_702\n        /* \"#utility.yul\":33017:33039   */\n      tag_703\n        /* \"#utility.yul\":33035:33038   */\n      dup6\n        /* \"#utility.yul\":33017:33039   */\n      tag_383\n      jump\t// in\n    tag_703:\n        /* \"#utility.yul\":33007:33015   */\n      dup4\n        /* \"#utility.yul\":33003:33040   */\n      add\n        /* \"#utility.yul\":32990:33001   */\n      dup3\n        /* \"#utility.yul\":32961:33041   */\n      tag_392\n      jump\t// in\n    tag_702:\n        /* \"#utility.yul\":32620:33051   */\n      pop\n      pop\n        /* \"#utility.yul\":32605:33051   */\n    tag_698:\n        /* \"#utility.yul\":32515:33058   */\n      pop\n      pop\n      pop\n      jump\t// out\n        /* \"#utility.yul\":33064:33181   */\n    tag_394:\n        /* \"#utility.yul\":33118:33126   */\n      0x00\n        /* \"#utility.yul\":33168:33173   */\n      dup3\n        /* \"#utility.yul\":33162:33166   */\n      dup3\n        /* \"#utility.yul\":33158:33174   */\n      shr\n        /* \"#utility.yul\":33137:33174   */\n      swap1\n      pop\n        /* \"#utility.yul\":33064:33181   */\n      swap3\n      swap2\n      pop\n      pop\n      jump\t// out\n        /* \"#utility.yul\":33187:33356   */\n    tag_395:\n        /* \"#utility.yul\":33231:33237   */\n      0x00\n        /* \"#utility.yul\":33264:33315   */\n      tag_706\n        /* \"#utility.yul\":33312:33313   */\n      0x00\n        /* \"#utility.yul\":33308:33314   */\n      not\n        /* \"#utility.yul\":33300:33305   */\n      dup5\n        /* \"#utility.yul\":33297:33298   */\n      0x08\n        /* \"#utility.yul\":33293:33306   */\n      mul\n        /* \"#utility.yul\":33264:33315   */\n      tag_394\n      jump\t// in\n    tag_706:\n        /* \"#utility.yul\":33260:33316   */\n      not\n        /* \"#utility.yul\":33345:33349   */\n      dup1\n        /* \"#utility.yul\":33339:33343   */\n      dup4\n        /* \"#utility.yul\":33335:33350   */\n      and\n        /* \"#utility.yul\":33325:33350   */\n      swap2\n      pop\n        /* \"#utility.yul\":33238:33356   */\n      pop\n        /* \"#utility.yul\":33187:33356   */\n      swap3\n      swap2\n      pop\n      pop\n      jump\t// out\n        /* \"#utility.yul\":33361:33656   */\n    tag_396:\n        /* \"#utility.yul\":33437:33441   */\n      0x00\n        /* \"#utility.yul\":33583:33612   */\n      tag_708\n        /* \"#utility.yul\":33608:33611   */\n      dup4\n        /* \"#utility.yul\":33602:33606   */\n      dup4\n        /* \"#utility.yul\":33583:33612   */\n      tag_395\n      jump\t// in\n    tag_708:\n        /* \"#utility.yul\":33575:33612   */\n      swap2\n      pop\n        /* \"#utility.yul\":33645:33648   */\n      dup3\n        /* \"#utility.yul\":33642:33643   */\n      0x02\n        /* \"#utility.yul\":33638:33649   */\n      mul\n        /* \"#utility.yul\":33632:33636   */\n      dup3\n        /* \"#utility.yul\":33629:33650   */\n      or\n        /* \"#utility.yul\":33621:33650   */\n      swap1\n      pop\n        /* \"#utility.yul\":33361:33656   */\n      swap3\n      swap2\n      pop\n      pop\n      jump\t// out\n        /* \"#utility.yul\":33661:35056   */\n    tag_238:\n        /* \"#utility.yul\":33778:33815   */\n      tag_710\n        /* \"#utility.yul\":33811:33814   */\n      dup3\n        /* \"#utility.yul\":33778:33815   */\n      tag_330\n      jump\t// in\n    tag_710:\n        /* \"#utility.yul\":33880:33898   */\n      0xffffffffffffffff\n        /* \"#utility.yul\":33872:33878   */\n      dup2\n        /* \"#utility.yul\":33869:33899   */\n      gt\n        /* \"#utility.yul\":33866:33922   */\n      iszero\n      tag_711\n      jumpi\n        /* \"#utility.yul\":33902:33920   */\n      tag_712\n      tag_158\n      jump\t// in\n    tag_712:\n        /* \"#utility.yul\":33866:33922   */\n    tag_711:\n        /* \"#utility.yul\":33946:33984   */\n      tag_713\n        /* \"#utility.yul\":33978:33982   */\n      dup3\n        /* \"#utility.yul\":33972:33983   */\n      sload\n        /* \"#utility.yul\":33946:33984   */\n      tag_133\n      jump\t// in\n    tag_713:\n        /* \"#utility.yul\":34031:34098   */\n      tag_714\n        /* \"#utility.yul\":34091:34097   */\n      dup3\n        /* \"#utility.yul\":34083:34089   */\n      dup3\n        /* \"#utility.yul\":34077:34081   */\n      dup6\n        /* \"#utility.yul\":34031:34098   */\n      tag_393\n      jump\t// in\n    tag_714:\n        /* \"#utility.yul\":34125:34126   */\n      0x00\n        /* \"#utility.yul\":34149:34153   */\n      0x20\n        /* \"#utility.yul\":34136:34153   */\n      swap1\n      pop\n        /* \"#utility.yul\":34181:34183   */\n      0x1f\n        /* \"#utility.yul\":34173:34179   */\n      dup4\n        /* \"#utility.yul\":34170:34184   */\n      gt\n        /* \"#utility.yul\":34198:34199   */\n      0x01\n        /* \"#utility.yul\":34193:34811   */\n      dup2\n      eq\n      tag_716\n      jumpi\n        /* \"#utility.yul\":34855:34856   */\n      0x00\n        /* \"#utility.yul\":34872:34878   */\n      dup5\n        /* \"#utility.yul\":34869:34946   */\n      iszero\n      tag_717\n      jumpi\n        /* \"#utility.yul\":34921:34930   */\n      dup3\n        /* \"#utility.yul\":34916:34919   */\n      dup8\n        /* \"#utility.yul\":34912:34931   */\n      add\n        /* \"#utility.yul\":34906:34932   */\n      mload\n        /* \"#utility.yul\":34897:34932   */\n      swap1\n      pop\n        /* \"#utility.yul\":34869:34946   */\n    tag_717:\n        /* \"#utility.yul\":34972:35039   */\n      tag_718\n        /* \"#utility.yul\":35032:35038   */\n      dup6\n        /* \"#utility.yul\":35025:35030   */\n      dup3\n        /* \"#utility.yul\":34972:35039   */\n      tag_396\n      jump\t// in\n    tag_718:\n        /* \"#utility.yul\":34966:34970   */\n      dup7\n        /* \"#utility.yul\":34959:35040   */\n      sstore\n        /* \"#utility.yul\":34828:35050   */\n      pop\n        /* \"#utility.yul\":34163:35050   */\n      jump(tag_715)\n        /* \"#utility.yul\":34193:34811   */\n    tag_716:\n        /* \"#utility.yul\":34245:34249   */\n      0x1f\n        /* \"#utility.yul\":34241:34250   */\n      not\n        /* \"#utility.yul\":34233:34239   */\n      dup5\n        /* \"#utility.yul\":34229:34251   */\n      and\n        /* \"#utility.yul\":34279:34316   */\n      tag_719\n        /* \"#utility.yul\":34311:34315   */\n      dup7\n        /* \"#utility.yul\":34279:34316   */\n      tag_382\n      jump\t// in\n    tag_719:\n        /* \"#utility.yul\":34338:34339   */\n      0x00\n        /* \"#utility.yul\":34352:34560   */\n    tag_720:\n        /* \"#utility.yul\":34366:34373   */\n      dup3\n        /* \"#utility.yul\":34363:34364   */\n      dup2\n        /* \"#utility.yul\":34360:34374   */\n      lt\n        /* \"#utility.yul\":34352:34560   */\n      iszero\n      tag_722\n      jumpi\n        /* \"#utility.yul\":34445:34454   */\n      dup5\n        /* \"#utility.yul\":34440:34443   */\n      dup10\n        /* \"#utility.yul\":34436:34455   */\n      add\n        /* \"#utility.yul\":34430:34456   */\n      mload\n        /* \"#utility.yul\":34422:34428   */\n      dup3\n        /* \"#utility.yul\":34415:34457   */\n      sstore\n        /* \"#utility.yul\":34496:34497   */\n      0x01\n        /* \"#utility.yul\":34488:34494   */\n      dup3\n        /* \"#utility.yul\":34484:34498   */\n      add\n        /* \"#utility.yul\":34474:34498   */\n      swap2\n      pop\n        /* \"#utility.yul\":34543:34545   */\n      0x20\n        /* \"#utility.yul\":34532:34541   */\n      dup6\n        /* \"#utility.yul\":34528:34546   */\n      add\n        /* \"#utility.yul\":34515:34546   */\n      swap5\n      pop\n        /* \"#utility.yul\":34389:34393   */\n      0x20\n        /* \"#utility.yul\":34386:34387   */\n      dup2\n        /* \"#utility.yul\":34382:34394   */\n      add\n        /* \"#utility.yul\":34377:34394   */\n      swap1\n      pop\n        /* \"#utility.yul\":34352:34560   */\n      jump(tag_720)\n    tag_722:\n        /* \"#utility.yul\":34588:34594   */\n      dup7\n        /* \"#utility.yul\":34579:34586   */\n      dup4\n        /* \"#utility.yul\":34576:34595   */\n      lt\n        /* \"#utility.yul\":34573:34752   */\n      iszero\n      tag_723\n      jumpi\n        /* \"#utility.yul\":34646:34655   */\n      dup5\n        /* \"#utility.yul\":34641:34644   */\n      dup10\n        /* \"#utility.yul\":34637:34656   */\n      add\n        /* \"#utility.yul\":34631:34657   */\n      mload\n        /* \"#utility.yul\":34689:34737   */\n      tag_724\n        /* \"#utility.yul\":34731:34735   */\n      0x1f\n        /* \"#utility.yul\":34723:34729   */\n      dup10\n        /* \"#utility.yul\":34719:34736   */\n      and\n        /* \"#utility.yul\":34708:34717   */\n      dup3\n        /* \"#utility.yul\":34689:34737   */\n      tag_395\n      jump\t// in\n    tag_724:\n        /* \"#utility.yul\":34681:34687   */\n      dup4\n        /* \"#utility.yul\":34674:34738   */\n      sstore\n        /* \"#utility.yul\":34596:34752   */\n      pop\n        /* \"#utility.yul\":34573:34752   */\n    tag_723:\n        /* \"#utility.yul\":34798:34799   */\n      0x01\n        /* \"#utility.yul\":34794:34795   */\n      0x02\n        /* \"#utility.yul\":34786:34792   */\n      dup9\n        /* \"#utility.yul\":34782:34796   */\n      mul\n        /* \"#utility.yul\":34778:34800   */\n      add\n        /* \"#utility.yul\":34772:34776   */\n      dup9\n        /* \"#utility.yul\":34765:34801   */\n      sstore\n        /* \"#utility.yul\":34200:34811   */\n      pop\n      pop\n      pop\n        /* \"#utility.yul\":34163:35050   */\n    tag_715:\n      pop\n        /* \"#utility.yul\":33753:35056   */\n      pop\n      pop\n      pop\n        /* \"#utility.yul\":33661:35056   */\n      pop\n      pop\n      jump\t// out\n        /* \"#utility.yul\":35062:35209   */\n    tag_397:\n        /* \"#utility.yul\":35163:35174   */\n      0x00\n        /* \"#utility.yul\":35200:35203   */\n      dup2\n        /* \"#utility.yul\":35185:35203   */\n      swap1\n      pop\n        /* \"#utility.yul\":35062:35209   */\n      swap3\n      swap2\n      pop\n      pop\n      jump\t// out\n        /* \"#utility.yul\":35215:35329   */\n    tag_398:\n      pop\n      jump\t// out\n        /* \"#utility.yul\":35335:35733   */\n    tag_399:\n        /* \"#utility.yul\":35494:35497   */\n      0x00\n        /* \"#utility.yul\":35515:35598   */\n      tag_728\n        /* \"#utility.yul\":35596:35597   */\n      0x00\n        /* \"#utility.yul\":35591:35594   */\n      dup4\n        /* \"#utility.yul\":35515:35598   */\n      tag_397\n      jump\t// in\n    tag_728:\n        /* \"#utility.yul\":35508:35598   */\n      swap2\n      pop\n        /* \"#utility.yul\":35607:35700   */\n      tag_729\n        /* \"#utility.yul\":35696:35699   */\n      dup3\n        /* \"#utility.yul\":35607:35700   */\n      tag_398\n      jump\t// in\n    tag_729:\n        /* \"#utility.yul\":35725:35726   */\n      0x00\n        /* \"#utility.yul\":35720:35723   */\n      dup3\n        /* \"#utility.yul\":35716:35727   */\n      add\n        /* \"#utility.yul\":35709:35727   */\n      swap1\n      pop\n        /* \"#utility.yul\":35335:35733   */\n      swap2\n      swap1\n      pop\n      jump\t// out\n        /* \"#utility.yul\":35739:36118   */\n    tag_255:\n        /* \"#utility.yul\":35923:35926   */\n      0x00\n        /* \"#utility.yul\":35945:36092   */\n      tag_731\n        /* \"#utility.yul\":36088:36091   */\n      dup3\n        /* \"#utility.yul\":35945:36092   */\n      tag_399\n      jump\t// in\n    tag_731:\n        /* \"#utility.yul\":35938:36092   */\n      swap2\n      pop\n        /* \"#utility.yul\":36109:36112   */\n      dup2\n        /* \"#utility.yul\":36102:36112   */\n      swap1\n      pop\n        /* \"#utility.yul\":35739:36118   */\n      swap2\n      swap1\n      pop\n      jump\t// out\n        /* \"#utility.yul\":36124:36294   */\n    tag_400:\n        /* \"#utility.yul\":36264:36286   */\n      0x4661696c656420746f2073656e64204574686572000000000000000000000000\n        /* \"#utility.yul\":36260:36261   */\n      0x00\n        /* \"#utility.yul\":36252:36258   */\n      dup3\n        /* \"#utility.yul\":36248:36262   */\n      add\n        /* \"#utility.yul\":36241:36287   */\n      mstore\n        /* \"#utility.yul\":36124:36294   */\n      pop\n      jump\t// out\n        /* \"#utility.yul\":36300:36666   */\n    tag_401:\n        /* \"#utility.yul\":36442:36445   */\n      0x00\n        /* \"#utility.yul\":36463:36530   */\n      tag_734\n        /* \"#utility.yul\":36527:36529   */\n      0x14\n        /* \"#utility.yul\":36522:36525   */\n      dup4\n        /* \"#utility.yul\":36463:36530   */\n      tag_331\n      jump\t// in\n    tag_734:\n        /* \"#utility.yul\":36456:36530   */\n      swap2\n      pop\n        /* \"#utility.yul\":36539:36632   */\n      tag_735\n        /* \"#utility.yul\":36628:36631   */\n      dup3\n        /* \"#utility.yul\":36539:36632   */\n      tag_400\n      jump\t// in\n    tag_735:\n        /* \"#utility.yul\":36657:36659   */\n      0x20\n        /* \"#utility.yul\":36652:36655   */\n      dup3\n        /* \"#utility.yul\":36648:36660   */\n      add\n        /* \"#utility.yul\":36641:36660   */\n      swap1\n      pop\n        /* \"#utility.yul\":36300:36666   */\n      swap2\n      swap1\n      pop\n      jump\t// out\n        /* \"#utility.yul\":36672:37091   */\n    tag_261:\n        /* \"#utility.yul\":36838:36842   */\n      0x00\n        /* \"#utility.yul\":36876:36878   */\n      0x20\n        /* \"#utility.yul\":36865:36874   */\n      dup3\n        /* \"#utility.yul\":36861:36879   */\n      add\n        /* \"#utility.yul\":36853:36879   */\n      swap1\n      pop\n        /* \"#utility.yul\":36925:36934   */\n      dup2\n        /* \"#utility.yul\":36919:36923   */\n      dup2\n        /* \"#utility.yul\":36915:36935   */\n      sub\n        /* \"#utility.yul\":36911:36912   */\n      0x00\n        /* \"#utility.yul\":36900:36909   */\n      dup4\n        /* \"#utility.yul\":36896:36913   */\n      add\n        /* \"#utility.yul\":36889:36936   */\n      mstore\n        /* \"#utility.yul\":36953:37084   */\n      tag_737\n        /* \"#utility.yul\":37079:37083   */\n      dup2\n        /* \"#utility.yul\":36953:37084   */\n      tag_401\n      jump\t// in\n    tag_737:\n        /* \"#utility.yul\":36945:37084   */\n      swap1\n      pop\n        /* \"#utility.yul\":36672:37091   */\n      swap2\n      swap1\n      pop\n      jump\t// out\n        /* \"#utility.yul\":37097:37291   */\n    tag_287:\n        /* \"#utility.yul\":37137:37141   */\n      0x00\n        /* \"#utility.yul\":37157:37177   */\n      tag_739\n        /* \"#utility.yul\":37175:37176   */\n      dup3\n        /* \"#utility.yul\":37157:37177   */\n      tag_327\n      jump\t// in\n    tag_739:\n        /* \"#utility.yul\":37152:37177   */\n      swap2\n      pop\n        /* \"#utility.yul\":37191:37211   */\n      tag_740\n        /* \"#utility.yul\":37209:37210   */\n      dup4\n        /* \"#utility.yul\":37191:37211   */\n      tag_327\n      jump\t// in\n    tag_740:\n        /* \"#utility.yul\":37186:37211   */\n      swap3\n      pop\n        /* \"#utility.yul\":37235:37236   */\n      dup3\n        /* \"#utility.yul\":37232:37233   */\n      dup3\n        /* \"#utility.yul\":37228:37237   */\n      sub\n        /* \"#utility.yul\":37220:37237   */\n      swap1\n      pop\n        /* \"#utility.yul\":37259:37260   */\n      dup2\n        /* \"#utility.yul\":37253:37257   */\n      dup2\n        /* \"#utility.yul\":37250:37261   */\n      gt\n        /* \"#utility.yul\":37247:37284   */\n      iszero\n      tag_741\n      jumpi\n        /* \"#utility.yul\":37264:37282   */\n      tag_742\n      tag_381\n      jump\t// in\n    tag_742:\n        /* \"#utility.yul\":37247:37284   */\n    tag_741:\n        /* \"#utility.yul\":37097:37291   */\n      swap3\n      swap2\n      pop\n      pop\n      jump\t// out\n        /* \"#utility.yul\":37297:37488   */\n    tag_289:\n        /* \"#utility.yul\":37337:37340   */\n      0x00\n        /* \"#utility.yul\":37356:37376   */\n      tag_744\n        /* \"#utility.yul\":37374:37375   */\n      dup3\n        /* \"#utility.yul\":37356:37376   */\n      tag_327\n      jump\t// in\n    tag_744:\n        /* \"#utility.yul\":37351:37376   */\n      swap2\n      pop\n        /* \"#utility.yul\":37390:37410   */\n      tag_745\n        /* \"#utility.yul\":37408:37409   */\n      dup4\n        /* \"#utility.yul\":37390:37410   */\n      tag_327\n      jump\t// in\n    tag_745:\n        /* \"#utility.yul\":37385:37410   */\n      swap3\n      pop\n        /* \"#utility.yul\":37433:37434   */\n      dup3\n        /* \"#utility.yul\":37430:37431   */\n      dup3\n        /* \"#utility.yul\":37426:37435   */\n      add\n        /* \"#utility.yul\":37419:37435   */\n      swap1\n      pop\n        /* \"#utility.yul\":37454:37457   */\n      dup1\n        /* \"#utility.yul\":37451:37452   */\n      dup3\n        /* \"#utility.yul\":37448:37458   */\n      gt\n        /* \"#utility.yul\":37445:37481   */\n      iszero\n      tag_746\n      jumpi\n        /* \"#utility.yul\":37461:37479   */\n      tag_747\n      tag_381\n      jump\t// in\n    tag_747:\n        /* \"#utility.yul\":37445:37481   */\n    tag_746:\n        /* \"#utility.yul\":37297:37488   */\n      swap3\n      swap2\n      pop\n      pop\n      jump\t// out\n\n    auxdata: 0xa264697066735822122076c57d4b44b0e729aaade9b4c3f78e7d58951fd64566655386b79c2e576aabc164736f6c63430008110033\n}\n","bytecode":{"linkReferences":{},"object":"608060405234801561001057600080fd5b5061377e806100206000396000f3fe6080604052600436106101185760003560e01c80636e6061d1116100a0578063b69ef8a811610064578063b69ef8a81461044c578063d0e30db014610477578063f6153ccd14610481578063fd70c7dd146104ac578063fea2fee9146104e957610130565b80636e6061d1146103435780637792a03514610380578063a9059cbb146103bd578063ab6a9f17146103e6578063b205b4f61461042357610130565b806332f97763116100e757806332f977631461022f57806344c5c6a514610275578063529a1baf146102a05780635e7d7faa146102dd57806364aa65a81461030657610130565b80630a02dcc7146101355780630cb31a801461017257806311f7b547146101b45780631889da0a146101f157610130565b3661013057633b9aca0034101561012e57600080fd5b005b600080fd5b34801561014157600080fd5b5061015c6004803603810190610157919061255e565b610505565b604051610169919061261b565b60405180910390f35b34801561017e57600080fd5b506101996004803603810190610194919061255e565b6105b1565b6040516101ab9695949392919061268d565b60405180910390f35b3480156101c057600080fd5b506101db60048036038101906101d69190612728565b61074d565b6040516101e8919061261b565b60405180910390f35b3480156101fd57600080fd5b506102186004803603810190610213919061288a565b6107ed565b604051610226929190612bc7565b60405180910390f35b34801561023b57600080fd5b5061025660048036038101906102519190612bfe565b610dbb565b60405161026c9a99989796959493929190612c6d565b60405180910390f35b34801561028157600080fd5b5061028a610fd7565b6040516102979190612e7f565b60405180910390f35b3480156102ac57600080fd5b506102c760048036038101906102c29190612728565b61121a565b6040516102d49190612ea1565b60405180910390f35b3480156102e957600080fd5b5061030460048036038101906102ff9190612ebc565b611232565b005b34801561031257600080fd5b5061032d60048036038101906103289190612728565b6112db565b60405161033a919061261b565b60405180910390f35b34801561034f57600080fd5b5061036a60048036038101906103659190612f18565b61137b565b604051610377919061261b565b60405180910390f35b34801561038c57600080fd5b506103a760048036038101906103a2919061255e565b611434565b6040516103b49190612f58565b60405180910390f35b3480156103c957600080fd5b506103e460048036038101906103df9190612fb1565b611473565b005b3480156103f257600080fd5b5061040d6004803603810190610408919061288a565b611524565b60405161041a919061300c565b60405180910390f35b34801561042f57600080fd5b5061044a60048036038101906104459190613027565b6115cb565b005b34801561045857600080fd5b50610461611f78565b60405161046e9190612ea1565b60405180910390f35b61047f611f80565b005b34801561048d57600080fd5b50610496611f9b565b6040516104a39190612ea1565b60405180910390f35b3480156104b857600080fd5b506104d360048036038101906104ce919061316f565b611fa1565b6040516104e09190612f58565b60405180910390f35b61050360048036038101906104fe91906131b8565b611fea565b005b6000818154811061051557600080fd5b90600052602060002001600091509050805461053090613286565b80601f016020809104026020016040519081016040528092919081815260200182805461055c90613286565b80156105a95780601f1061057e576101008083540402835291602001916105a9565b820191906000526020600020905b81548152906001019060200180831161058c57829003601f168201915b505050505081565b600681815481106105c157600080fd5b90600052602060002090600602016000915090508060000160009054906101000a900473ffffffffffffffffffffffffffffffffffffffff16908060010160009054906101000a900473ffffffffffffffffffffffffffffffffffffffff169080600201805461063090613286565b80601f016020809104026020016040519081016040528092919081815260200182805461065c90613286565b80156106a95780601f1061067e576101008083540402835291602001916106a9565b820191906000526020600020905b81548152906001019060200180831161068c57829003601f168201915b5050505050908060030180546106be90613286565b80601f01602080910402602001604051908101604052809291908181526020018280546106ea90613286565b80156107375780601f1061070c57610100808354040283529160200191610737565b820191906000526020600020905b81548152906001019060200180831161071a57829003601f168201915b5050505050908060040154908060050154905086565b6004602052806000526040600020600091509050805461076c90613286565b80601f016020809104026020016040519081016040528092919081815260200182805461079890613286565b80156107e55780601f106107ba576101008083540402835291602001916107e5565b820191906000526020600020905b8154815290600101906020018083116107c857829003601f168201915b505050505081565b60608060003390506000600760008373ffffffffffffffffffffffffffffffffffffffff1673ffffffffffffffffffffffffffffffffffffffff16815260200190815260200160002090506000600760008473ffffffffffffffffffffffffffffffffffffffff1673ffffffffffffffffffffffffffffffffffffffff1681526020019081526020016000208054905067ffffffffffffffff8111156108965761089561275f565b5b6040519080825280602002602001820160405280156108cf57816020015b6108bc6124c1565b8152602001906001900390816108b45790505b50905060005b8280549050811015610c995760008382815481106108f6576108f56132b7565b5b90600052602060002001805461090b90613286565b80601f016020809104026020016040519081016040528092919081815260200182805461093790613286565b80156109845780601f1061095957610100808354040283529160200191610984565b820191906000526020600020905b81548152906001019060200180831161096757829003601f168201915b50505050509050600860008673ffffffffffffffffffffffffffffffffffffffff1673ffffffffffffffffffffffffffffffffffffffff168152602001908152602001600020816040516109d89190613322565b9081526020016040518091039020600060038b6040516109f89190613322565b908152602001604051809103902060009054906101000a900473ffffffffffffffffffffffffffffffffffffffff1673ffffffffffffffffffffffffffffffffffffffff1673ffffffffffffffffffffffffffffffffffffffff16815260200190815260200160002060405180610140016040529081600082018054610a7d90613286565b80601f0160208091040260200160405190810160405280929190818152602001828054610aa990613286565b8015610af65780601f10610acb57610100808354040283529160200191610af6565b820191906000526020600020905b815481529060010190602001808311610ad957829003601f168201915b50505050508152602001600182018054610b0f90613286565b80601f0160208091040260200160405190810160405280929190818152602001828054610b3b90613286565b8015610b885780601f10610b5d57610100808354040283529160200191610b88565b820191906000526020600020905b815481529060010190602001808311610b6b57829003601f168201915b50505050508152602001600282018054610ba190613286565b80601f0160208091040260200160405190810160405280929190818152602001828054610bcd90613286565b8015610c1a5780601f10610bef57610100808354040283529160200191610c1a565b820191906000526020600020905b815481529060010190602001808311610bfd57829003601f168201915b50505050508152602001600382015481526020016004820154815260200160058201548152602001600682015481526020016007820154815260200160088201548152602001600982015481525050838381518110610c7c57610c7b6132b7565b5b60200260200101819052505080610c9290613368565b90506108d5565b50600760008473ffffffffffffffffffffffffffffffffffffffff1673ffffffffffffffffffffffffffffffffffffffff1681526020019081526020016000208181805480602002602001604051908101604052809291908181526020016000905b82821015610da7578382906000526020600020018054610d1a90613286565b80601f0160208091040260200160405190810160405280929190818152602001828054610d4690613286565b8015610d935780601f10610d6857610100808354040283529160200191610d93565b820191906000526020600020905b815481529060010190602001808311610d7657829003601f168201915b505050505081526020019060010190610cfb565b505050509150945094505050509250929050565b6008602052826000526040600020828051602081018201805184825260208301602085012081835280955050505050506020528060005260406000206000925092505050806000018054610e0e90613286565b80601f0160208091040260200160405190810160405280929190818152602001828054610e3a90613286565b8015610e875780601f10610e5c57610100808354040283529160200191610e87565b820191906000526020600020905b815481529060010190602001808311610e6a57829003601f168201915b505050505090806001018054610e9c90613286565b80601f0160208091040260200160405190810160405280929190818152602001828054610ec890613286565b8015610f155780601f10610eea57610100808354040283529160200191610f15565b820191906000526020600020905b815481529060010190602001808311610ef857829003601f168201915b505050505090806002018054610f2a90613286565b80601f0160208091040260200160405190810160405280929190818152602001828054610f5690613286565b8015610fa35780601f10610f7857610100808354040283529160200191610fa3565b820191906000526020600020905b815481529060010190602001808311610f8657829003601f168201915b505050505090806003015490806004015490806005015490806006015490806007015490806008015490806009015490508a565b60606006805480602002602001604051908101604052809291908181526020016000905b8282101561121157838290600052602060002090600602016040518060c00160405290816000820160009054906101000a900473ffffffffffffffffffffffffffffffffffffffff1673ffffffffffffffffffffffffffffffffffffffff1673ffffffffffffffffffffffffffffffffffffffff1681526020016001820160009054906101000a900473ffffffffffffffffffffffffffffffffffffffff1673ffffffffffffffffffffffffffffffffffffffff1673ffffffffffffffffffffffffffffffffffffffff1681526020016002820180546110da90613286565b80601f016020809104026020016040519081016040528092919081815260200182805461110690613286565b80156111535780601f1061112857610100808354040283529160200191611153565b820191906000526020600020905b81548152906001019060200180831161113657829003601f168201915b5050505050815260200160038201805461116c90613286565b80601f016020809104026020016040519081016040528092919081815260200182805461119890613286565b80156111e55780601f106111ba576101008083540402835291602001916111e5565b820191906000526020600020905b8154815290600101906020018083116111c857829003601f168201915b505050505081526020016004820154815260200160058201548152505081526020019060010190610ffb565b50505050905090565b600a6020528060005260406000206000915090505481565b6000600460008473ffffffffffffffffffffffffffffffffffffffff1673ffffffffffffffffffffffffffffffffffffffff168152602001908152602001600020805461127e90613286565b90501461128a57600080fd5b80600460008473ffffffffffffffffffffffffffffffffffffffff1673ffffffffffffffffffffffffffffffffffffffff16815260200190815260200160002090816112d6919061355c565b505050565b600260205280600052604060002060009150905080546112fa90613286565b80601f016020809104026020016040519081016040528092919081815260200182805461132690613286565b80156113735780601f1061134857610100808354040283529160200191611373565b820191906000526020600020905b81548152906001019060200180831161135657829003601f168201915b505050505081565b6007602052816000526040600020818154811061139757600080fd5b906000526020600020016000915091505080546113b390613286565b80601f01602080910402602001604051908101604052809291908181526020018280546113df90613286565b801561142c5780601f106114015761010080835404028352916020019161142c565b820191906000526020600020905b81548152906001019060200180831161140f57829003601f168201915b505050505081565b6001818154811061144457600080fd5b906000526020600020016000915054906101000a900473ffffffffffffffffffffffffffffffffffffffff1681565b60008273ffffffffffffffffffffffffffffffffffffffff16826040516114999061365f565b60006040518083038185875af1925050503d80600081146114d6576040519150601f19603f3d011682016040523d82523d6000602084013e6114db565b606091505b505090508061151f576040517f08c379a0000000000000000000000000000000000000000000000000000000008152600401611516906136c0565b60405180910390fd5b505050565b6000806009600060038560405161153b9190613322565b908152602001604051809103902060009054906101000a900473ffffffffffffffffffffffffffffffffffffffff1673ffffffffffffffffffffffffffffffffffffffff1673ffffffffffffffffffffffffffffffffffffffff168152602001908152602001600020846040516115b29190613322565b9081526020016040518091039020541415905092915050565b60003390506000600260008373ffffffffffffffffffffffffffffffffffffffff1673ffffffffffffffffffffffffffffffffffffffff168152602001908152602001600020805461161c90613286565b90500361162857600080fd5b600073ffffffffffffffffffffffffffffffffffffffff1660038b6040516116509190613322565b908152602001604051809103902060009054906101000a900473ffffffffffffffffffffffffffffffffffffffff1673ffffffffffffffffffffffffffffffffffffffff160361169f57600080fd5b6001600a600060038d6040516116b59190613322565b908152602001604051809103902060009054906101000a900473ffffffffffffffffffffffffffffffffffffffff1673ffffffffffffffffffffffffffffffffffffffff1673ffffffffffffffffffffffffffffffffffffffff16815260200190815260200160002054101561172a57600080fd5b60006008600060038d6040516117409190613322565b908152602001604051809103902060009054906101000a900473ffffffffffffffffffffffffffffffffffffffff1673ffffffffffffffffffffffffffffffffffffffff1673ffffffffffffffffffffffffffffffffffffffff16815260200190815260200160002090506117b58d8c611524565b611919576007600060038d6040516117cd9190613322565b908152602001604051809103902060009054906101000a900473ffffffffffffffffffffffffffffffffffffffff1673ffffffffffffffffffffffffffffffffffffffff1673ffffffffffffffffffffffffffffffffffffffff1681526020019081526020016000208d908060018154018082558091505060019003906000526020600020016000909190919091509081611868919061355c565b506009600060038d60405161187d9190613322565b908152602001604051809103902060009054906101000a900473ffffffffffffffffffffffffffffffffffffffff1673ffffffffffffffffffffffffffffffffffffffff1673ffffffffffffffffffffffffffffffffffffffff1681526020019081526020016000208d6040516118f49190613322565b9081526020016040518091039020600081548092919061191390613368565b91905055505b6000818e60405161192a9190613322565b908152602001604051809103902090508d8160008573ffffffffffffffffffffffffffffffffffffffff1673ffffffffffffffffffffffffffffffffffffffff1681526020019081526020016000206000019081611988919061355c565b508c8160008573ffffffffffffffffffffffffffffffffffffffff1673ffffffffffffffffffffffffffffffffffffffff16815260200190815260200160002060010190816119d7919061355c565b508b8160008573ffffffffffffffffffffffffffffffffffffffff1673ffffffffffffffffffffffffffffffffffffffff1681526020019081526020016000206002019081611a26919061355c565b508a8160008573ffffffffffffffffffffffffffffffffffffffff1673ffffffffffffffffffffffffffffffffffffffff16815260200190815260200160002060070181905550898160008573ffffffffffffffffffffffffffffffffffffffff1673ffffffffffffffffffffffffffffffffffffffff16815260200190815260200160002060080181905550888160008573ffffffffffffffffffffffffffffffffffffffff1673ffffffffffffffffffffffffffffffffffffffff16815260200190815260200160002060090181905550878160008573ffffffffffffffffffffffffffffffffffffffff1673ffffffffffffffffffffffffffffffffffffffff16815260200190815260200160002060030181905550868160008573ffffffffffffffffffffffffffffffffffffffff1673ffffffffffffffffffffffffffffffffffffffff16815260200190815260200160002060060181905550858160008573ffffffffffffffffffffffffffffffffffffffff1673ffffffffffffffffffffffffffffffffffffffff16815260200190815260200160002060040181905550848160008573ffffffffffffffffffffffffffffffffffffffff1673ffffffffffffffffffffffffffffffffffffffff168152602001908152602001600020600501819055506001600a600060038f604051611c279190613322565b908152602001604051809103902060009054906101000a900473ffffffffffffffffffffffffffffffffffffffff1673ffffffffffffffffffffffffffffffffffffffff1673ffffffffffffffffffffffffffffffffffffffff1681526020019081526020016000206000828254611c9f91906136e0565b925050819055506001600a60008573ffffffffffffffffffffffffffffffffffffffff1673ffffffffffffffffffffffffffffffffffffffff1681526020019081526020016000206000828254611cf69190613714565b92505081905550611d08836001611473565b60006040518060c0016040528060038f604051611d259190613322565b908152602001604051809103902060009054906101000a900473ffffffffffffffffffffffffffffffffffffffff1673ffffffffffffffffffffffffffffffffffffffff1681526020018573ffffffffffffffffffffffffffffffffffffffff1681526020018e8152602001600260008773ffffffffffffffffffffffffffffffffffffffff1673ffffffffffffffffffffffffffffffffffffffff1681526020019081526020016000208054611ddb90613286565b80601f0160208091040260200160405190810160405280929190818152602001828054611e0790613286565b8015611e545780601f10611e2957610100808354040283529160200191611e54565b820191906000526020600020905b815481529060010190602001808311611e3757829003601f168201915b5050505050815260200160018152602001868152509050600681908060018154018082558091505060019003906000526020600020906006020160009091909190915060008201518160000160006101000a81548173ffffffffffffffffffffffffffffffffffffffff021916908373ffffffffffffffffffffffffffffffffffffffff16021790555060208201518160010160006101000a81548173ffffffffffffffffffffffffffffffffffffffff021916908373ffffffffffffffffffffffffffffffffffffffff1602179055506040820151816002019081611f3a919061355c565b506060820151816003019081611f50919061355c565b506080820151816004015560a082015181600501555050505050505050505050505050505050565b600047905090565b3460056000828254611f929190613714565b92505081905550565b60055481565b6003818051602081018201805184825260208301602085012081835280955050505050506000915054906101000a900473ffffffffffffffffffffffffffffffffffffffff1681565b6000600260008673ffffffffffffffffffffffffffffffffffffffff1673ffffffffffffffffffffffffffffffffffffffff168152602001908152602001600020805461203690613286565b90501480156120af5750600073ffffffffffffffffffffffffffffffffffffffff166003846040516120689190613322565b908152602001604051809103902060009054906101000a900473ffffffffffffffffffffffffffffffffffffffff1673ffffffffffffffffffffffffffffffffffffffff16145b156124bb5760643410156120c257600080fd5b6000839080600181540180825580915050600190039060005260206000200160009091909190915090816120f6919061355c565b506001849080600181540180825580915050600190039060005260206000200160009091909190916101000a81548173ffffffffffffffffffffffffffffffffffffffff021916908373ffffffffffffffffffffffffffffffffffffffff1602179055508360038460405161216b9190613322565b908152602001604051809103902060006101000a81548173ffffffffffffffffffffffffffffffffffffffff021916908373ffffffffffffffffffffffffffffffffffffffff16021790555082600260008673ffffffffffffffffffffffffffffffffffffffff1673ffffffffffffffffffffffffffffffffffffffff1681526020019081526020016000209081612203919061355c565b5034600a60008673ffffffffffffffffffffffffffffffffffffffff1673ffffffffffffffffffffffffffffffffffffffff16815260200190815260200160002060008282546122539190613714565b9250508190555060006040518060c001604052803373ffffffffffffffffffffffffffffffffffffffff1681526020013073ffffffffffffffffffffffffffffffffffffffff168152602001600260003373ffffffffffffffffffffffffffffffffffffffff1673ffffffffffffffffffffffffffffffffffffffff16815260200190815260200160002080546122e990613286565b80601f016020809104026020016040519081016040528092919081815260200182805461231590613286565b80156123625780601f1061233757610100808354040283529160200191612362565b820191906000526020600020905b81548152906001019060200180831161234557829003601f168201915b505050505081526020016040518060400160405280600481526020017f42616e6b000000000000000000000000000000000000000000000000000000008152508152602001348152602001848152509050600681908060018154018082558091505060019003906000526020600020906006020160009091909190915060008201518160000160006101000a81548173ffffffffffffffffffffffffffffffffffffffff021916908373ffffffffffffffffffffffffffffffffffffffff16021790555060208201518160010160006101000a81548173ffffffffffffffffffffffffffffffffffffffff021916908373ffffffffffffffffffffffffffffffffffffffff1602179055506040820151816002019081612482919061355c565b506060820151816003019081612498919061355c565b506080820151816004015560a0820151816005015550506124b98583611232565b505b50505050565b604051806101400160405280606081526020016060815260200160608152602001600081526020016000815260200160008152602001600081526020016000815260200160008152602001600081525090565b6000604051905090565b600080fd5b600080fd5b6000819050919050565b61253b81612528565b811461254657600080fd5b50565b60008135905061255881612532565b92915050565b6000602082840312156125745761257361251e565b5b600061258284828501612549565b91505092915050565b600081519050919050565b600082825260208201905092915050565b60005b838110156125c55780820151818401526020810190506125aa565b60008484015250505050565b6000601f19601f8301169050919050565b60006125ed8261258b565b6125f78185612596565b93506126078185602086016125a7565b612610816125d1565b840191505092915050565b6000602082019050818103600083015261263581846125e2565b905092915050565b600073ffffffffffffffffffffffffffffffffffffffff82169050919050565b60006126688261263d565b9050919050565b6126788161265d565b82525050565b61268781612528565b82525050565b600060c0820190506126a2600083018961266f565b6126af602083018861266f565b81810360408301526126c181876125e2565b905081810360608301526126d581866125e2565b90506126e4608083018561267e565b6126f160a083018461267e565b979650505050505050565b6127058161265d565b811461271057600080fd5b50565b600081359050612722816126fc565b92915050565b60006020828403121561273e5761273d61251e565b5b600061274c84828501612713565b91505092915050565b600080fd5b600080fd5b7f4e487b7100000000000000000000000000000000000000000000000000000000600052604160045260246000fd5b612797826125d1565b810181811067ffffffffffffffff821117156127b6576127b561275f565b5b80604052505050565b60006127c9612514565b90506127d5828261278e565b919050565b600067ffffffffffffffff8211156127f5576127f461275f565b5b6127fe826125d1565b9050602081019050919050565b82818337600083830152505050565b600061282d612828846127da565b6127bf565b9050828152602081018484840111156128495761284861275a565b5b61285484828561280b565b509392505050565b600082601f83011261287157612870612755565b5b813561288184826020860161281a565b91505092915050565b600080604083850312156128a1576128a061251e565b5b600083013567ffffffffffffffff8111156128bf576128be612523565b5b6128cb8582860161285c565b925050602083013567ffffffffffffffff8111156128ec576128eb612523565b5b6128f88582860161285c565b9150509250929050565b600081519050919050565b600082825260208201905092915050565b6000819050602082019050919050565b600082825260208201905092915050565b600061294a8261258b565b612954818561292e565b93506129648185602086016125a7565b61296d816125d1565b840191505092915050565b6000612984838361293f565b905092915050565b6000602082019050919050565b60006129a482612902565b6129ae818561290d565b9350836020820285016129c08561291e565b8060005b858110156129fc57848403895281516129dd8582612978565b94506129e88361298c565b925060208a019950506001810190506129c4565b50829750879550505050505092915050565b600081519050919050565b600082825260208201905092915050565b6000819050602082019050919050565b612a4381612528565b82525050565b6000610140830160008301518482036000860152612a67828261293f565b91505060208301518482036020860152612a81828261293f565b91505060408301518482036040860152612a9b828261293f565b9150506060830151612ab06060860182612a3a565b506080830151612ac36080860182612a3a565b5060a0830151612ad660a0860182612a3a565b5060c0830151612ae960c0860182612a3a565b5060e0830151612afc60e0860182612a3a565b50610100830151612b11610100860182612a3a565b50610120830151612b26610120860182612a3a565b508091505092915050565b6000612b3d8383612a49565b905092915050565b6000602082019050919050565b6000612b5d82612a0e565b612b678185612a19565b935083602082028501612b7985612a2a565b8060005b85811015612bb55784840389528151612b968582612b31565b9450612ba183612b45565b925060208a01995050600181019050612b7d565b50829750879550505050505092915050565b60006040820190508181036000830152612be18185612999565b90508181036020830152612bf58184612b52565b90509392505050565b600080600060608486031215612c1757612c1661251e565b5b6000612c2586828701612713565b935050602084013567ffffffffffffffff811115612c4657612c45612523565b5b612c528682870161285c565b9250506040612c6386828701612713565b9150509250925092565b6000610140820190508181036000830152612c88818d6125e2565b90508181036020830152612c9c818c6125e2565b90508181036040830152612cb0818b6125e2565b9050612cbf606083018a61267e565b612ccc608083018961267e565b612cd960a083018861267e565b612ce660c083018761267e565b612cf360e083018661267e565b612d0161010083018561267e565b612d0f61012083018461267e565b9b9a5050505050505050505050565b600081519050919050565b600082825260208201905092915050565b6000819050602082019050919050565b612d538161265d565b82525050565b600060c083016000830151612d716000860182612d4a565b506020830151612d846020860182612d4a565b5060408301518482036040860152612d9c828261293f565b91505060608301518482036060860152612db6828261293f565b9150506080830151612dcb6080860182612a3a565b5060a0830151612dde60a0860182612a3a565b508091505092915050565b6000612df58383612d59565b905092915050565b6000602082019050919050565b6000612e1582612d1e565b612e1f8185612d29565b935083602082028501612e3185612d3a565b8060005b85811015612e6d5784840389528151612e4e8582612de9565b9450612e5983612dfd565b925060208a01995050600181019050612e35565b50829750879550505050505092915050565b60006020820190508181036000830152612e998184612e0a565b905092915050565b6000602082019050612eb6600083018461267e565b92915050565b60008060408385031215612ed357612ed261251e565b5b6000612ee185828601612713565b925050602083013567ffffffffffffffff811115612f0257612f01612523565b5b612f0e8582860161285c565b9150509250929050565b60008060408385031215612f2f57612f2e61251e565b5b6000612f3d85828601612713565b9250506020612f4e85828601612549565b9150509250929050565b6000602082019050612f6d600083018461266f565b92915050565b6000612f7e8261263d565b9050919050565b612f8e81612f73565b8114612f9957600080fd5b50565b600081359050612fab81612f85565b92915050565b60008060408385031215612fc857612fc761251e565b5b6000612fd685828601612f9c565b9250506020612fe785828601612549565b9150509250929050565b60008115159050919050565b61300681612ff1565b82525050565b60006020820190506130216000830184612ffd565b92915050565b60008060008060008060008060008060006101608c8e03121561304d5761304c61251e565b5b60008c013567ffffffffffffffff81111561306b5761306a612523565b5b6130778e828f0161285c565b9b505060208c013567ffffffffffffffff81111561309857613097612523565b5b6130a48e828f0161285c565b9a505060408c013567ffffffffffffffff8111156130c5576130c4612523565b5b6130d18e828f0161285c565b99505060606130e28e828f01612549565b98505060806130f38e828f01612549565b97505060a06131048e828f01612549565b96505060c06131158e828f01612549565b95505060e06131268e828f01612549565b9450506101006131388e828f01612549565b93505061012061314a8e828f01612549565b92505061014061315c8e828f01612549565b9150509295989b509295989b9093969950565b6000602082840312156131855761318461251e565b5b600082013567ffffffffffffffff8111156131a3576131a2612523565b5b6131af8482850161285c565b91505092915050565b600080600080608085870312156131d2576131d161251e565b5b60006131e087828801612713565b945050602085013567ffffffffffffffff81111561320157613200612523565b5b61320d8782880161285c565b935050604061321e87828801612549565b925050606085013567ffffffffffffffff81111561323f5761323e612523565b5b61324b8782880161285c565b91505092959194509250565b7f4e487b7100000000000000000000000000000000000000000000000000000000600052602260045260246000fd5b6000600282049050600182168061329e57607f821691505b6020821081036132b1576132b0613257565b5b50919050565b7f4e487b7100000000000000000000000000000000000000000000000000000000600052603260045260246000fd5b600081905092915050565b60006132fc8261258b565b61330681856132e6565b93506133168185602086016125a7565b80840191505092915050565b600061332e82846132f1565b915081905092915050565b7f4e487b7100000000000000000000000000000000000000000000000000000000600052601160045260246000fd5b600061337382612528565b91507fffffffffffffffffffffffffffffffffffffffffffffffffffffffffffffffff82036133a5576133a4613339565b5b600182019050919050565b60008190508160005260206000209050919050565b60006020601f8301049050919050565b600082821b905092915050565b6000600883026134127fffffffffffffffffffffffffffffffffffffffffffffffffffffffffffffffff826133d5565b61341c86836133d5565b95508019841693508086168417925050509392505050565b6000819050919050565b600061345961345461344f84612528565b613434565b612528565b9050919050565b6000819050919050565b6134738361343e565b61348761347f82613460565b8484546133e2565b825550505050565b600090565b61349c61348f565b6134a781848461346a565b505050565b5b818110156134cb576134c0600082613494565b6001810190506134ad565b5050565b601f821115613510576134e1816133b0565b6134ea846133c5565b810160208510156134f9578190505b61350d613505856133c5565b8301826134ac565b50505b505050565b600082821c905092915050565b600061353360001984600802613515565b1980831691505092915050565b600061354c8383613522565b9150826002028217905092915050565b6135658261258b565b67ffffffffffffffff81111561357e5761357d61275f565b5b6135888254613286565b6135938282856134cf565b600060209050601f8311600181146135c657600084156135b4578287015190505b6135be8582613540565b865550613626565b601f1984166135d4866133b0565b60005b828110156135fc578489015182556001820191506020850194506020810190506135d7565b868310156136195784890151613615601f891682613522565b8355505b6001600288020188555050505b505050505050565b600081905092915050565b50565b600061364960008361362e565b915061365482613639565b600082019050919050565b600061366a8261363c565b9150819050919050565b7f4661696c656420746f2073656e64204574686572000000000000000000000000600082015250565b60006136aa601483612596565b91506136b582613674565b602082019050919050565b600060208201905081810360008301526136d98161369d565b9050919050565b60006136eb82612528565b91506136f683612528565b925082820390508181111561370e5761370d613339565b5b92915050565b600061371f82612528565b915061372a83612528565b925082820190508082111561374257613741613339565b5b9291505056fea264697066735822122076c57d4b44b0e729aaade9b4c3f78e7d58951fd64566655386b79c2e576aabc164736f6c63430008110033","opcodes":"PUSH1 0x80 PUSH1 0x40 MSTORE CALLVALUE DUP1 ISZERO PUSH2 0x10 JUMPI PUSH1 0x0 DUP1 REVERT JUMPDEST POP PUSH2 0x377E DUP1 PUSH2 0x20 PUSH1 0x0 CODECOPY PUSH1 0x0 RETURN INVALID PUSH1 0x80 PUSH1 0x40 MSTORE PUSH1 0x4 CALLDATASIZE LT PUSH2 0x118 JUMPI PUSH1 0x0 CALLDATALOAD PUSH1 0xE0 SHR DUP1 PUSH4 0x6E6061D1 GT PUSH2 0xA0 JUMPI DUP1 PUSH4 0xB69EF8A8 GT PUSH2 0x64 JUMPI DUP1 PUSH4 0xB69EF8A8 EQ PUSH2 0x44C JUMPI DUP1 PUSH4 0xD0E30DB0 EQ PUSH2 0x477 JUMPI DUP1 PUSH4 0xF6153CCD EQ PUSH2 0x481 JUMPI DUP1 PUSH4 0xFD70C7DD EQ PUSH2 0x4AC JUMPI DUP1 PUSH4 0xFEA2FEE9 EQ PUSH2 0x4E9 JUMPI PUSH2 0x130 JUMP JUMPDEST DUP1 PUSH4 0x6E6061D1 EQ PUSH2 0x343 JUMPI DUP1 PUSH4 0x7792A035 EQ PUSH2 0x380 JUMPI DUP1 PUSH4 0xA9059CBB EQ PUSH2 0x3BD JUMPI DUP1 PUSH4 0xAB6A9F17 EQ PUSH2 0x3E6 JUMPI DUP1 PUSH4 0xB205B4F6 EQ PUSH2 0x423 JUMPI PUSH2 0x130 JUMP JUMPDEST DUP1 PUSH4 0x32F97763 GT PUSH2 0xE7 JUMPI DUP1 PUSH4 0x32F97763 EQ PUSH2 0x22F JUMPI DUP1 PUSH4 0x44C5C6A5 EQ PUSH2 0x275 JUMPI DUP1 PUSH4 0x529A1BAF EQ PUSH2 0x2A0 JUMPI DUP1 PUSH4 0x5E7D7FAA EQ PUSH2 0x2DD JUMPI DUP1 PUSH4 0x64AA65A8 EQ PUSH2 0x306 JUMPI PUSH2 0x130 JUMP JUMPDEST DUP1 PUSH4 0xA02DCC7 EQ PUSH2 0x135 JUMPI DUP1 PUSH4 0xCB31A80 EQ PUSH2 0x172 JUMPI DUP1 PUSH4 0x11F7B547 EQ PUSH2 0x1B4 JUMPI DUP1 PUSH4 0x1889DA0A EQ PUSH2 0x1F1 JUMPI PUSH2 0x130 JUMP JUMPDEST CALLDATASIZE PUSH2 0x130 JUMPI PUSH4 0x3B9ACA00 CALLVALUE LT ISZERO PUSH2 0x12E JUMPI PUSH1 0x0 DUP1 REVERT JUMPDEST STOP JUMPDEST PUSH1 0x0 DUP1 REVERT JUMPDEST CALLVALUE DUP1 ISZERO PUSH2 0x141 JUMPI PUSH1 0x0 DUP1 REVERT JUMPDEST POP PUSH2 0x15C PUSH1 0x4 DUP1 CALLDATASIZE SUB DUP2 ADD SWAP1 PUSH2 0x157 SWAP2 SWAP1 PUSH2 0x255E JUMP JUMPDEST PUSH2 0x505 JUMP JUMPDEST PUSH1 0x40 MLOAD PUSH2 0x169 SWAP2 SWAP1 PUSH2 0x261B JUMP JUMPDEST PUSH1 0x40 MLOAD DUP1 SWAP2 SUB SWAP1 RETURN JUMPDEST CALLVALUE DUP1 ISZERO PUSH2 0x17E JUMPI PUSH1 0x0 DUP1 REVERT JUMPDEST POP PUSH2 0x199 PUSH1 0x4 DUP1 CALLDATASIZE SUB DUP2 ADD SWAP1 PUSH2 0x194 SWAP2 SWAP1 PUSH2 0x255E JUMP JUMPDEST PUSH2 0x5B1 JUMP JUMPDEST PUSH1 0x40 MLOAD PUSH2 0x1AB SWAP7 SWAP6 SWAP5 SWAP4 SWAP3 SWAP2 SWAP1 PUSH2 0x268D JUMP JUMPDEST PUSH1 0x40 MLOAD DUP1 SWAP2 SUB SWAP1 RETURN JUMPDEST CALLVALUE DUP1 ISZERO PUSH2 0x1C0 JUMPI PUSH1 0x0 DUP1 REVERT JUMPDEST POP PUSH2 0x1DB PUSH1 0x4 DUP1 CALLDATASIZE SUB DUP2 ADD SWAP1 PUSH2 0x1D6 SWAP2 SWAP1 PUSH2 0x2728 JUMP JUMPDEST PUSH2 0x74D JUMP JUMPDEST PUSH1 0x40 MLOAD PUSH2 0x1E8 SWAP2 SWAP1 PUSH2 0x261B JUMP JUMPDEST PUSH1 0x40 MLOAD DUP1 SWAP2 SUB SWAP1 RETURN JUMPDEST CALLVALUE DUP1 ISZERO PUSH2 0x1FD JUMPI PUSH1 0x0 DUP1 REVERT JUMPDEST POP PUSH2 0x218 PUSH1 0x4 DUP1 CALLDATASIZE SUB DUP2 ADD SWAP1 PUSH2 0x213 SWAP2 SWAP1 PUSH2 0x288A JUMP JUMPDEST PUSH2 0x7ED JUMP JUMPDEST PUSH1 0x40 MLOAD PUSH2 0x226 SWAP3 SWAP2 SWAP1 PUSH2 0x2BC7 JUMP JUMPDEST PUSH1 0x40 MLOAD DUP1 SWAP2 SUB SWAP1 RETURN JUMPDEST CALLVALUE DUP1 ISZERO PUSH2 0x23B JUMPI PUSH1 0x0 DUP1 REVERT JUMPDEST POP PUSH2 0x256 PUSH1 0x4 DUP1 CALLDATASIZE SUB DUP2 ADD SWAP1 PUSH2 0x251 SWAP2 SWAP1 PUSH2 0x2BFE JUMP JUMPDEST PUSH2 0xDBB JUMP JUMPDEST PUSH1 0x40 MLOAD PUSH2 0x26C SWAP11 SWAP10 SWAP9 SWAP8 SWAP7 SWAP6 SWAP5 SWAP4 SWAP3 SWAP2 SWAP1 PUSH2 0x2C6D JUMP JUMPDEST PUSH1 0x40 MLOAD DUP1 SWAP2 SUB SWAP1 RETURN JUMPDEST CALLVALUE DUP1 ISZERO PUSH2 0x281 JUMPI PUSH1 0x0 DUP1 REVERT JUMPDEST POP PUSH2 0x28A PUSH2 0xFD7 JUMP JUMPDEST PUSH1 0x40 MLOAD PUSH2 0x297 SWAP2 SWAP1 PUSH2 0x2E7F JUMP JUMPDEST PUSH1 0x40 MLOAD DUP1 SWAP2 SUB SWAP1 RETURN JUMPDEST CALLVALUE DUP1 ISZERO PUSH2 0x2AC JUMPI PUSH1 0x0 DUP1 REVERT JUMPDEST POP PUSH2 0x2C7 PUSH1 0x4 DUP1 CALLDATASIZE SUB DUP2 ADD SWAP1 PUSH2 0x2C2 SWAP2 SWAP1 PUSH2 0x2728 JUMP JUMPDEST PUSH2 0x121A JUMP JUMPDEST PUSH1 0x40 MLOAD PUSH2 0x2D4 SWAP2 SWAP1 PUSH2 0x2EA1 JUMP JUMPDEST PUSH1 0x40 MLOAD DUP1 SWAP2 SUB SWAP1 RETURN JUMPDEST CALLVALUE DUP1 ISZERO PUSH2 0x2E9 JUMPI PUSH1 0x0 DUP1 REVERT JUMPDEST POP PUSH2 0x304 PUSH1 0x4 DUP1 CALLDATASIZE SUB DUP2 ADD SWAP1 PUSH2 0x2FF SWAP2 SWAP1 PUSH2 0x2EBC JUMP JUMPDEST PUSH2 0x1232 JUMP JUMPDEST STOP JUMPDEST CALLVALUE DUP1 ISZERO PUSH2 0x312 JUMPI PUSH1 0x0 DUP1 REVERT JUMPDEST POP PUSH2 0x32D PUSH1 0x4 DUP1 CALLDATASIZE SUB DUP2 ADD SWAP1 PUSH2 0x328 SWAP2 SWAP1 PUSH2 0x2728 JUMP JUMPDEST PUSH2 0x12DB JUMP JUMPDEST PUSH1 0x40 MLOAD PUSH2 0x33A SWAP2 SWAP1 PUSH2 0x261B JUMP JUMPDEST PUSH1 0x40 MLOAD DUP1 SWAP2 SUB SWAP1 RETURN JUMPDEST CALLVALUE DUP1 ISZERO PUSH2 0x34F JUMPI PUSH1 0x0 DUP1 REVERT JUMPDEST POP PUSH2 0x36A PUSH1 0x4 DUP1 CALLDATASIZE SUB DUP2 ADD SWAP1 PUSH2 0x365 SWAP2 SWAP1 PUSH2 0x2F18 JUMP JUMPDEST PUSH2 0x137B JUMP JUMPDEST PUSH1 0x40 MLOAD PUSH2 0x377 SWAP2 SWAP1 PUSH2 0x261B JUMP JUMPDEST PUSH1 0x40 MLOAD DUP1 SWAP2 SUB SWAP1 RETURN JUMPDEST CALLVALUE DUP1 ISZERO PUSH2 0x38C JUMPI PUSH1 0x0 DUP1 REVERT JUMPDEST POP PUSH2 0x3A7 PUSH1 0x4 DUP1 CALLDATASIZE SUB DUP2 ADD SWAP1 PUSH2 0x3A2 SWAP2 SWAP1 PUSH2 0x255E JUMP JUMPDEST PUSH2 0x1434 JUMP JUMPDEST PUSH1 0x40 MLOAD PUSH2 0x3B4 SWAP2 SWAP1 PUSH2 0x2F58 JUMP JUMPDEST PUSH1 0x40 MLOAD DUP1 SWAP2 SUB SWAP1 RETURN JUMPDEST CALLVALUE DUP1 ISZERO PUSH2 0x3C9 JUMPI PUSH1 0x0 DUP1 REVERT JUMPDEST POP PUSH2 0x3E4 PUSH1 0x4 DUP1 CALLDATASIZE SUB DUP2 ADD SWAP1 PUSH2 0x3DF SWAP2 SWAP1 PUSH2 0x2FB1 JUMP JUMPDEST PUSH2 0x1473 JUMP JUMPDEST STOP JUMPDEST CALLVALUE DUP1 ISZERO PUSH2 0x3F2 JUMPI PUSH1 0x0 DUP1 REVERT JUMPDEST POP PUSH2 0x40D PUSH1 0x4 DUP1 CALLDATASIZE SUB DUP2 ADD SWAP1 PUSH2 0x408 SWAP2 SWAP1 PUSH2 0x288A JUMP JUMPDEST PUSH2 0x1524 JUMP JUMPDEST PUSH1 0x40 MLOAD PUSH2 0x41A SWAP2 SWAP1 PUSH2 0x300C JUMP JUMPDEST PUSH1 0x40 MLOAD DUP1 SWAP2 SUB SWAP1 RETURN JUMPDEST CALLVALUE DUP1 ISZERO PUSH2 0x42F JUMPI PUSH1 0x0 DUP1 REVERT JUMPDEST POP PUSH2 0x44A PUSH1 0x4 DUP1 CALLDATASIZE SUB DUP2 ADD SWAP1 PUSH2 0x445 SWAP2 SWAP1 PUSH2 0x3027 JUMP JUMPDEST PUSH2 0x15CB JUMP JUMPDEST STOP JUMPDEST CALLVALUE DUP1 ISZERO PUSH2 0x458 JUMPI PUSH1 0x0 DUP1 REVERT JUMPDEST POP PUSH2 0x461 PUSH2 0x1F78 JUMP JUMPDEST PUSH1 0x40 MLOAD PUSH2 0x46E SWAP2 SWAP1 PUSH2 0x2EA1 JUMP JUMPDEST PUSH1 0x40 MLOAD DUP1 SWAP2 SUB SWAP1 RETURN JUMPDEST PUSH2 0x47F PUSH2 0x1F80 JUMP JUMPDEST STOP JUMPDEST CALLVALUE DUP1 ISZERO PUSH2 0x48D JUMPI PUSH1 0x0 DUP1 REVERT JUMPDEST POP PUSH2 0x496 PUSH2 0x1F9B JUMP JUMPDEST PUSH1 0x40 MLOAD PUSH2 0x4A3 SWAP2 SWAP1 PUSH2 0x2EA1 JUMP JUMPDEST PUSH1 0x40 MLOAD DUP1 SWAP2 SUB SWAP1 RETURN JUMPDEST CALLVALUE DUP1 ISZERO PUSH2 0x4B8 JUMPI PUSH1 0x0 DUP1 REVERT JUMPDEST POP PUSH2 0x4D3 PUSH1 0x4 DUP1 CALLDATASIZE SUB DUP2 ADD SWAP1 PUSH2 0x4CE SWAP2 SWAP1 PUSH2 0x316F JUMP JUMPDEST PUSH2 0x1FA1 JUMP JUMPDEST PUSH1 0x40 MLOAD PUSH2 0x4E0 SWAP2 SWAP1 PUSH2 0x2F58 JUMP JUMPDEST PUSH1 0x40 MLOAD DUP1 SWAP2 SUB SWAP1 RETURN JUMPDEST PUSH2 0x503 PUSH1 0x4 DUP1 CALLDATASIZE SUB DUP2 ADD SWAP1 PUSH2 0x4FE SWAP2 SWAP1 PUSH2 0x31B8 JUMP JUMPDEST PUSH2 0x1FEA JUMP JUMPDEST STOP JUMPDEST PUSH1 0x0 DUP2 DUP2 SLOAD DUP2 LT PUSH2 0x515 JUMPI PUSH1 0x0 DUP1 REVERT JUMPDEST SWAP1 PUSH1 0x0 MSTORE PUSH1 0x20 PUSH1 0x0 KECCAK256 ADD PUSH1 0x0 SWAP2 POP SWAP1 POP DUP1 SLOAD PUSH2 0x530 SWAP1 PUSH2 0x3286 JUMP JUMPDEST DUP1 PUSH1 0x1F ADD PUSH1 0x20 DUP1 SWAP2 DIV MUL PUSH1 0x20 ADD PUSH1 0x40 MLOAD SWAP1 DUP2 ADD PUSH1 0x40 MSTORE DUP1 SWAP3 SWAP2 SWAP1 DUP2 DUP2 MSTORE PUSH1 0x20 ADD DUP3 DUP1 SLOAD PUSH2 0x55C SWAP1 PUSH2 0x3286 JUMP JUMPDEST DUP1 ISZERO PUSH2 0x5A9 JUMPI DUP1 PUSH1 0x1F LT PUSH2 0x57E JUMPI PUSH2 0x100 DUP1 DUP4 SLOAD DIV MUL DUP4 MSTORE SWAP2 PUSH1 0x20 ADD SWAP2 PUSH2 0x5A9 JUMP JUMPDEST DUP3 ADD SWAP2 SWAP1 PUSH1 0x0 MSTORE PUSH1 0x20 PUSH1 0x0 KECCAK256 SWAP1 JUMPDEST DUP2 SLOAD DUP2 MSTORE SWAP1 PUSH1 0x1 ADD SWAP1 PUSH1 0x20 ADD DUP1 DUP4 GT PUSH2 0x58C JUMPI DUP3 SWAP1 SUB PUSH1 0x1F AND DUP3 ADD SWAP2 JUMPDEST POP POP POP POP POP DUP2 JUMP JUMPDEST PUSH1 0x6 DUP2 DUP2 SLOAD DUP2 LT PUSH2 0x5C1 JUMPI PUSH1 0x0 DUP1 REVERT JUMPDEST SWAP1 PUSH1 0x0 MSTORE PUSH1 0x20 PUSH1 0x0 KECCAK256 SWAP1 PUSH1 0x6 MUL ADD PUSH1 0x0 SWAP2 POP SWAP1 POP DUP1 PUSH1 0x0 ADD PUSH1 0x0 SWAP1 SLOAD SWAP1 PUSH2 0x100 EXP SWAP1 DIV PUSH20 0xFFFFFFFFFFFFFFFFFFFFFFFFFFFFFFFFFFFFFFFF AND SWAP1 DUP1 PUSH1 0x1 ADD PUSH1 0x0 SWAP1 SLOAD SWAP1 PUSH2 0x100 EXP SWAP1 DIV PUSH20 0xFFFFFFFFFFFFFFFFFFFFFFFFFFFFFFFFFFFFFFFF AND SWAP1 DUP1 PUSH1 0x2 ADD DUP1 SLOAD PUSH2 0x630 SWAP1 PUSH2 0x3286 JUMP JUMPDEST DUP1 PUSH1 0x1F ADD PUSH1 0x20 DUP1 SWAP2 DIV MUL PUSH1 0x20 ADD PUSH1 0x40 MLOAD SWAP1 DUP2 ADD PUSH1 0x40 MSTORE DUP1 SWAP3 SWAP2 SWAP1 DUP2 DUP2 MSTORE PUSH1 0x20 ADD DUP3 DUP1 SLOAD PUSH2 0x65C SWAP1 PUSH2 0x3286 JUMP JUMPDEST DUP1 ISZERO PUSH2 0x6A9 JUMPI DUP1 PUSH1 0x1F LT PUSH2 0x67E JUMPI PUSH2 0x100 DUP1 DUP4 SLOAD DIV MUL DUP4 MSTORE SWAP2 PUSH1 0x20 ADD SWAP2 PUSH2 0x6A9 JUMP JUMPDEST DUP3 ADD SWAP2 SWAP1 PUSH1 0x0 MSTORE PUSH1 0x20 PUSH1 0x0 KECCAK256 SWAP1 JUMPDEST DUP2 SLOAD DUP2 MSTORE SWAP1 PUSH1 0x1 ADD SWAP1 PUSH1 0x20 ADD DUP1 DUP4 GT PUSH2 0x68C JUMPI DUP3 SWAP1 SUB PUSH1 0x1F AND DUP3 ADD SWAP2 JUMPDEST POP POP POP POP POP SWAP1 DUP1 PUSH1 0x3 ADD DUP1 SLOAD PUSH2 0x6BE SWAP1 PUSH2 0x3286 JUMP JUMPDEST DUP1 PUSH1 0x1F ADD PUSH1 0x20 DUP1 SWAP2 DIV MUL PUSH1 0x20 ADD PUSH1 0x40 MLOAD SWAP1 DUP2 ADD PUSH1 0x40 MSTORE DUP1 SWAP3 SWAP2 SWAP1 DUP2 DUP2 MSTORE PUSH1 0x20 ADD DUP3 DUP1 SLOAD PUSH2 0x6EA SWAP1 PUSH2 0x3286 JUMP JUMPDEST DUP1 ISZERO PUSH2 0x737 JUMPI DUP1 PUSH1 0x1F LT PUSH2 0x70C JUMPI PUSH2 0x100 DUP1 DUP4 SLOAD DIV MUL DUP4 MSTORE SWAP2 PUSH1 0x20 ADD SWAP2 PUSH2 0x737 JUMP JUMPDEST DUP3 ADD SWAP2 SWAP1 PUSH1 0x0 MSTORE PUSH1 0x20 PUSH1 0x0 KECCAK256 SWAP1 JUMPDEST DUP2 SLOAD DUP2 MSTORE SWAP1 PUSH1 0x1 ADD SWAP1 PUSH1 0x20 ADD DUP1 DUP4 GT PUSH2 0x71A JUMPI DUP3 SWAP1 SUB PUSH1 0x1F AND DUP3 ADD SWAP2 JUMPDEST POP POP POP POP POP SWAP1 DUP1 PUSH1 0x4 ADD SLOAD SWAP1 DUP1 PUSH1 0x5 ADD SLOAD SWAP1 POP DUP7 JUMP JUMPDEST PUSH1 0x4 PUSH1 0x20 MSTORE DUP1 PUSH1 0x0 MSTORE PUSH1 0x40 PUSH1 0x0 KECCAK256 PUSH1 0x0 SWAP2 POP SWAP1 POP DUP1 SLOAD PUSH2 0x76C SWAP1 PUSH2 0x3286 JUMP JUMPDEST DUP1 PUSH1 0x1F ADD PUSH1 0x20 DUP1 SWAP2 DIV MUL PUSH1 0x20 ADD PUSH1 0x40 MLOAD SWAP1 DUP2 ADD PUSH1 0x40 MSTORE DUP1 SWAP3 SWAP2 SWAP1 DUP2 DUP2 MSTORE PUSH1 0x20 ADD DUP3 DUP1 SLOAD PUSH2 0x798 SWAP1 PUSH2 0x3286 JUMP JUMPDEST DUP1 ISZERO PUSH2 0x7E5 JUMPI DUP1 PUSH1 0x1F LT PUSH2 0x7BA JUMPI PUSH2 0x100 DUP1 DUP4 SLOAD DIV MUL DUP4 MSTORE SWAP2 PUSH1 0x20 ADD SWAP2 PUSH2 0x7E5 JUMP JUMPDEST DUP3 ADD SWAP2 SWAP1 PUSH1 0x0 MSTORE PUSH1 0x20 PUSH1 0x0 KECCAK256 SWAP1 JUMPDEST DUP2 SLOAD DUP2 MSTORE SWAP1 PUSH1 0x1 ADD SWAP1 PUSH1 0x20 ADD DUP1 DUP4 GT PUSH2 0x7C8 JUMPI DUP3 SWAP1 SUB PUSH1 0x1F AND DUP3 ADD SWAP2 JUMPDEST POP POP POP POP POP DUP2 JUMP JUMPDEST PUSH1 0x60 DUP1 PUSH1 0x0 CALLER SWAP1 POP PUSH1 0x0 PUSH1 0x7 PUSH1 0x0 DUP4 PUSH20 0xFFFFFFFFFFFFFFFFFFFFFFFFFFFFFFFFFFFFFFFF AND PUSH20 0xFFFFFFFFFFFFFFFFFFFFFFFFFFFFFFFFFFFFFFFF AND DUP2 MSTORE PUSH1 0x20 ADD SWAP1 DUP2 MSTORE PUSH1 0x20 ADD PUSH1 0x0 KECCAK256 SWAP1 POP PUSH1 0x0 PUSH1 0x7 PUSH1 0x0 DUP5 PUSH20 0xFFFFFFFFFFFFFFFFFFFFFFFFFFFFFFFFFFFFFFFF AND PUSH20 0xFFFFFFFFFFFFFFFFFFFFFFFFFFFFFFFFFFFFFFFF AND DUP2 MSTORE PUSH1 0x20 ADD SWAP1 DUP2 MSTORE PUSH1 0x20 ADD PUSH1 0x0 KECCAK256 DUP1 SLOAD SWAP1 POP PUSH8 0xFFFFFFFFFFFFFFFF DUP2 GT ISZERO PUSH2 0x896 JUMPI PUSH2 0x895 PUSH2 0x275F JUMP JUMPDEST JUMPDEST PUSH1 0x40 MLOAD SWAP1 DUP1 DUP3 MSTORE DUP1 PUSH1 0x20 MUL PUSH1 0x20 ADD DUP3 ADD PUSH1 0x40 MSTORE DUP1 ISZERO PUSH2 0x8CF JUMPI DUP2 PUSH1 0x20 ADD JUMPDEST PUSH2 0x8BC PUSH2 0x24C1 JUMP JUMPDEST DUP2 MSTORE PUSH1 0x20 ADD SWAP1 PUSH1 0x1 SWAP1 SUB SWAP1 DUP2 PUSH2 0x8B4 JUMPI SWAP1 POP JUMPDEST POP SWAP1 POP PUSH1 0x0 JUMPDEST DUP3 DUP1 SLOAD SWAP1 POP DUP2 LT ISZERO PUSH2 0xC99 JUMPI PUSH1 0x0 DUP4 DUP3 DUP2 SLOAD DUP2 LT PUSH2 0x8F6 JUMPI PUSH2 0x8F5 PUSH2 0x32B7 JUMP JUMPDEST JUMPDEST SWAP1 PUSH1 0x0 MSTORE PUSH1 0x20 PUSH1 0x0 KECCAK256 ADD DUP1 SLOAD PUSH2 0x90B SWAP1 PUSH2 0x3286 JUMP JUMPDEST DUP1 PUSH1 0x1F ADD PUSH1 0x20 DUP1 SWAP2 DIV MUL PUSH1 0x20 ADD PUSH1 0x40 MLOAD SWAP1 DUP2 ADD PUSH1 0x40 MSTORE DUP1 SWAP3 SWAP2 SWAP1 DUP2 DUP2 MSTORE PUSH1 0x20 ADD DUP3 DUP1 SLOAD PUSH2 0x937 SWAP1 PUSH2 0x3286 JUMP JUMPDEST DUP1 ISZERO PUSH2 0x984 JUMPI DUP1 PUSH1 0x1F LT PUSH2 0x959 JUMPI PUSH2 0x100 DUP1 DUP4 SLOAD DIV MUL DUP4 MSTORE SWAP2 PUSH1 0x20 ADD SWAP2 PUSH2 0x984 JUMP JUMPDEST DUP3 ADD SWAP2 SWAP1 PUSH1 0x0 MSTORE PUSH1 0x20 PUSH1 0x0 KECCAK256 SWAP1 JUMPDEST DUP2 SLOAD DUP2 MSTORE SWAP1 PUSH1 0x1 ADD SWAP1 PUSH1 0x20 ADD DUP1 DUP4 GT PUSH2 0x967 JUMPI DUP3 SWAP1 SUB PUSH1 0x1F AND DUP3 ADD SWAP2 JUMPDEST POP POP POP POP POP SWAP1 POP PUSH1 0x8 PUSH1 0x0 DUP7 PUSH20 0xFFFFFFFFFFFFFFFFFFFFFFFFFFFFFFFFFFFFFFFF AND PUSH20 0xFFFFFFFFFFFFFFFFFFFFFFFFFFFFFFFFFFFFFFFF AND DUP2 MSTORE PUSH1 0x20 ADD SWAP1 DUP2 MSTORE PUSH1 0x20 ADD PUSH1 0x0 KECCAK256 DUP2 PUSH1 0x40 MLOAD PUSH2 0x9D8 SWAP2 SWAP1 PUSH2 0x3322 JUMP JUMPDEST SWAP1 DUP2 MSTORE PUSH1 0x20 ADD PUSH1 0x40 MLOAD DUP1 SWAP2 SUB SWAP1 KECCAK256 PUSH1 0x0 PUSH1 0x3 DUP12 PUSH1 0x40 MLOAD PUSH2 0x9F8 SWAP2 SWAP1 PUSH2 0x3322 JUMP JUMPDEST SWAP1 DUP2 MSTORE PUSH1 0x20 ADD PUSH1 0x40 MLOAD DUP1 SWAP2 SUB SWAP1 KECCAK256 PUSH1 0x0 SWAP1 SLOAD SWAP1 PUSH2 0x100 EXP SWAP1 DIV PUSH20 0xFFFFFFFFFFFFFFFFFFFFFFFFFFFFFFFFFFFFFFFF AND PUSH20 0xFFFFFFFFFFFFFFFFFFFFFFFFFFFFFFFFFFFFFFFF AND PUSH20 0xFFFFFFFFFFFFFFFFFFFFFFFFFFFFFFFFFFFFFFFF AND DUP2 MSTORE PUSH1 0x20 ADD SWAP1 DUP2 MSTORE PUSH1 0x20 ADD PUSH1 0x0 KECCAK256 PUSH1 0x40 MLOAD DUP1 PUSH2 0x140 ADD PUSH1 0x40 MSTORE SWAP1 DUP2 PUSH1 0x0 DUP3 ADD DUP1 SLOAD PUSH2 0xA7D SWAP1 PUSH2 0x3286 JUMP JUMPDEST DUP1 PUSH1 0x1F ADD PUSH1 0x20 DUP1 SWAP2 DIV MUL PUSH1 0x20 ADD PUSH1 0x40 MLOAD SWAP1 DUP2 ADD PUSH1 0x40 MSTORE DUP1 SWAP3 SWAP2 SWAP1 DUP2 DUP2 MSTORE PUSH1 0x20 ADD DUP3 DUP1 SLOAD PUSH2 0xAA9 SWAP1 PUSH2 0x3286 JUMP JUMPDEST DUP1 ISZERO PUSH2 0xAF6 JUMPI DUP1 PUSH1 0x1F LT PUSH2 0xACB JUMPI PUSH2 0x100 DUP1 DUP4 SLOAD DIV MUL DUP4 MSTORE SWAP2 PUSH1 0x20 ADD SWAP2 PUSH2 0xAF6 JUMP JUMPDEST DUP3 ADD SWAP2 SWAP1 PUSH1 0x0 MSTORE PUSH1 0x20 PUSH1 0x0 KECCAK256 SWAP1 JUMPDEST DUP2 SLOAD DUP2 MSTORE SWAP1 PUSH1 0x1 ADD SWAP1 PUSH1 0x20 ADD DUP1 DUP4 GT PUSH2 0xAD9 JUMPI DUP3 SWAP1 SUB PUSH1 0x1F AND DUP3 ADD SWAP2 JUMPDEST POP POP POP POP POP DUP2 MSTORE PUSH1 0x20 ADD PUSH1 0x1 DUP3 ADD DUP1 SLOAD PUSH2 0xB0F SWAP1 PUSH2 0x3286 JUMP JUMPDEST DUP1 PUSH1 0x1F ADD PUSH1 0x20 DUP1 SWAP2 DIV MUL PUSH1 0x20 ADD PUSH1 0x40 MLOAD SWAP1 DUP2 ADD PUSH1 0x40 MSTORE DUP1 SWAP3 SWAP2 SWAP1 DUP2 DUP2 MSTORE PUSH1 0x20 ADD DUP3 DUP1 SLOAD PUSH2 0xB3B SWAP1 PUSH2 0x3286 JUMP JUMPDEST DUP1 ISZERO PUSH2 0xB88 JUMPI DUP1 PUSH1 0x1F LT PUSH2 0xB5D JUMPI PUSH2 0x100 DUP1 DUP4 SLOAD DIV MUL DUP4 MSTORE SWAP2 PUSH1 0x20 ADD SWAP2 PUSH2 0xB88 JUMP JUMPDEST DUP3 ADD SWAP2 SWAP1 PUSH1 0x0 MSTORE PUSH1 0x20 PUSH1 0x0 KECCAK256 SWAP1 JUMPDEST DUP2 SLOAD DUP2 MSTORE SWAP1 PUSH1 0x1 ADD SWAP1 PUSH1 0x20 ADD DUP1 DUP4 GT PUSH2 0xB6B JUMPI DUP3 SWAP1 SUB PUSH1 0x1F AND DUP3 ADD SWAP2 JUMPDEST POP POP POP POP POP DUP2 MSTORE PUSH1 0x20 ADD PUSH1 0x2 DUP3 ADD DUP1 SLOAD PUSH2 0xBA1 SWAP1 PUSH2 0x3286 JUMP JUMPDEST DUP1 PUSH1 0x1F ADD PUSH1 0x20 DUP1 SWAP2 DIV MUL PUSH1 0x20 ADD PUSH1 0x40 MLOAD SWAP1 DUP2 ADD PUSH1 0x40 MSTORE DUP1 SWAP3 SWAP2 SWAP1 DUP2 DUP2 MSTORE PUSH1 0x20 ADD DUP3 DUP1 SLOAD PUSH2 0xBCD SWAP1 PUSH2 0x3286 JUMP JUMPDEST DUP1 ISZERO PUSH2 0xC1A JUMPI DUP1 PUSH1 0x1F LT PUSH2 0xBEF JUMPI PUSH2 0x100 DUP1 DUP4 SLOAD DIV MUL DUP4 MSTORE SWAP2 PUSH1 0x20 ADD SWAP2 PUSH2 0xC1A JUMP JUMPDEST DUP3 ADD SWAP2 SWAP1 PUSH1 0x0 MSTORE PUSH1 0x20 PUSH1 0x0 KECCAK256 SWAP1 JUMPDEST DUP2 SLOAD DUP2 MSTORE SWAP1 PUSH1 0x1 ADD SWAP1 PUSH1 0x20 ADD DUP1 DUP4 GT PUSH2 0xBFD JUMPI DUP3 SWAP1 SUB PUSH1 0x1F AND DUP3 ADD SWAP2 JUMPDEST POP POP POP POP POP DUP2 MSTORE PUSH1 0x20 ADD PUSH1 0x3 DUP3 ADD SLOAD DUP2 MSTORE PUSH1 0x20 ADD PUSH1 0x4 DUP3 ADD SLOAD DUP2 MSTORE PUSH1 0x20 ADD PUSH1 0x5 DUP3 ADD SLOAD DUP2 MSTORE PUSH1 0x20 ADD PUSH1 0x6 DUP3 ADD SLOAD DUP2 MSTORE PUSH1 0x20 ADD PUSH1 0x7 DUP3 ADD SLOAD DUP2 MSTORE PUSH1 0x20 ADD PUSH1 0x8 DUP3 ADD SLOAD DUP2 MSTORE PUSH1 0x20 ADD PUSH1 0x9 DUP3 ADD SLOAD DUP2 MSTORE POP POP DUP4 DUP4 DUP2 MLOAD DUP2 LT PUSH2 0xC7C JUMPI PUSH2 0xC7B PUSH2 0x32B7 JUMP JUMPDEST JUMPDEST PUSH1 0x20 MUL PUSH1 0x20 ADD ADD DUP2 SWAP1 MSTORE POP POP DUP1 PUSH2 0xC92 SWAP1 PUSH2 0x3368 JUMP JUMPDEST SWAP1 POP PUSH2 0x8D5 JUMP JUMPDEST POP PUSH1 0x7 PUSH1 0x0 DUP5 PUSH20 0xFFFFFFFFFFFFFFFFFFFFFFFFFFFFFFFFFFFFFFFF AND PUSH20 0xFFFFFFFFFFFFFFFFFFFFFFFFFFFFFFFFFFFFFFFF AND DUP2 MSTORE PUSH1 0x20 ADD SWAP1 DUP2 MSTORE PUSH1 0x20 ADD PUSH1 0x0 KECCAK256 DUP2 DUP2 DUP1 SLOAD DUP1 PUSH1 0x20 MUL PUSH1 0x20 ADD PUSH1 0x40 MLOAD SWAP1 DUP2 ADD PUSH1 0x40 MSTORE DUP1 SWAP3 SWAP2 SWAP1 DUP2 DUP2 MSTORE PUSH1 0x20 ADD PUSH1 0x0 SWAP1 JUMPDEST DUP3 DUP3 LT ISZERO PUSH2 0xDA7 JUMPI DUP4 DUP3 SWAP1 PUSH1 0x0 MSTORE PUSH1 0x20 PUSH1 0x0 KECCAK256 ADD DUP1 SLOAD PUSH2 0xD1A SWAP1 PUSH2 0x3286 JUMP JUMPDEST DUP1 PUSH1 0x1F ADD PUSH1 0x20 DUP1 SWAP2 DIV MUL PUSH1 0x20 ADD PUSH1 0x40 MLOAD SWAP1 DUP2 ADD PUSH1 0x40 MSTORE DUP1 SWAP3 SWAP2 SWAP1 DUP2 DUP2 MSTORE PUSH1 0x20 ADD DUP3 DUP1 SLOAD PUSH2 0xD46 SWAP1 PUSH2 0x3286 JUMP JUMPDEST DUP1 ISZERO PUSH2 0xD93 JUMPI DUP1 PUSH1 0x1F LT PUSH2 0xD68 JUMPI PUSH2 0x100 DUP1 DUP4 SLOAD DIV MUL DUP4 MSTORE SWAP2 PUSH1 0x20 ADD SWAP2 PUSH2 0xD93 JUMP JUMPDEST DUP3 ADD SWAP2 SWAP1 PUSH1 0x0 MSTORE PUSH1 0x20 PUSH1 0x0 KECCAK256 SWAP1 JUMPDEST DUP2 SLOAD DUP2 MSTORE SWAP1 PUSH1 0x1 ADD SWAP1 PUSH1 0x20 ADD DUP1 DUP4 GT PUSH2 0xD76 JUMPI DUP3 SWAP1 SUB PUSH1 0x1F AND DUP3 ADD SWAP2 JUMPDEST POP POP POP POP POP DUP2 MSTORE PUSH1 0x20 ADD SWAP1 PUSH1 0x1 ADD SWAP1 PUSH2 0xCFB JUMP JUMPDEST POP POP POP POP SWAP2 POP SWAP5 POP SWAP5 POP POP POP POP SWAP3 POP SWAP3 SWAP1 POP JUMP JUMPDEST PUSH1 0x8 PUSH1 0x20 MSTORE DUP3 PUSH1 0x0 MSTORE PUSH1 0x40 PUSH1 0x0 KECCAK256 DUP3 DUP1 MLOAD PUSH1 0x20 DUP2 ADD DUP3 ADD DUP1 MLOAD DUP5 DUP3 MSTORE PUSH1 0x20 DUP4 ADD PUSH1 0x20 DUP6 ADD KECCAK256 DUP2 DUP4 MSTORE DUP1 SWAP6 POP POP POP POP POP POP PUSH1 0x20 MSTORE DUP1 PUSH1 0x0 MSTORE PUSH1 0x40 PUSH1 0x0 KECCAK256 PUSH1 0x0 SWAP3 POP SWAP3 POP POP POP DUP1 PUSH1 0x0 ADD DUP1 SLOAD PUSH2 0xE0E SWAP1 PUSH2 0x3286 JUMP JUMPDEST DUP1 PUSH1 0x1F ADD PUSH1 0x20 DUP1 SWAP2 DIV MUL PUSH1 0x20 ADD PUSH1 0x40 MLOAD SWAP1 DUP2 ADD PUSH1 0x40 MSTORE DUP1 SWAP3 SWAP2 SWAP1 DUP2 DUP2 MSTORE PUSH1 0x20 ADD DUP3 DUP1 SLOAD PUSH2 0xE3A SWAP1 PUSH2 0x3286 JUMP JUMPDEST DUP1 ISZERO PUSH2 0xE87 JUMPI DUP1 PUSH1 0x1F LT PUSH2 0xE5C JUMPI PUSH2 0x100 DUP1 DUP4 SLOAD DIV MUL DUP4 MSTORE SWAP2 PUSH1 0x20 ADD SWAP2 PUSH2 0xE87 JUMP JUMPDEST DUP3 ADD SWAP2 SWAP1 PUSH1 0x0 MSTORE PUSH1 0x20 PUSH1 0x0 KECCAK256 SWAP1 JUMPDEST DUP2 SLOAD DUP2 MSTORE SWAP1 PUSH1 0x1 ADD SWAP1 PUSH1 0x20 ADD DUP1 DUP4 GT PUSH2 0xE6A JUMPI DUP3 SWAP1 SUB PUSH1 0x1F AND DUP3 ADD SWAP2 JUMPDEST POP POP POP POP POP SWAP1 DUP1 PUSH1 0x1 ADD DUP1 SLOAD PUSH2 0xE9C SWAP1 PUSH2 0x3286 JUMP JUMPDEST DUP1 PUSH1 0x1F ADD PUSH1 0x20 DUP1 SWAP2 DIV MUL PUSH1 0x20 ADD PUSH1 0x40 MLOAD SWAP1 DUP2 ADD PUSH1 0x40 MSTORE DUP1 SWAP3 SWAP2 SWAP1 DUP2 DUP2 MSTORE PUSH1 0x20 ADD DUP3 DUP1 SLOAD PUSH2 0xEC8 SWAP1 PUSH2 0x3286 JUMP JUMPDEST DUP1 ISZERO PUSH2 0xF15 JUMPI DUP1 PUSH1 0x1F LT PUSH2 0xEEA JUMPI PUSH2 0x100 DUP1 DUP4 SLOAD DIV MUL DUP4 MSTORE SWAP2 PUSH1 0x20 ADD SWAP2 PUSH2 0xF15 JUMP JUMPDEST DUP3 ADD SWAP2 SWAP1 PUSH1 0x0 MSTORE PUSH1 0x20 PUSH1 0x0 KECCAK256 SWAP1 JUMPDEST DUP2 SLOAD DUP2 MSTORE SWAP1 PUSH1 0x1 ADD SWAP1 PUSH1 0x20 ADD DUP1 DUP4 GT PUSH2 0xEF8 JUMPI DUP3 SWAP1 SUB PUSH1 0x1F AND DUP3 ADD SWAP2 JUMPDEST POP POP POP POP POP SWAP1 DUP1 PUSH1 0x2 ADD DUP1 SLOAD PUSH2 0xF2A SWAP1 PUSH2 0x3286 JUMP JUMPDEST DUP1 PUSH1 0x1F ADD PUSH1 0x20 DUP1 SWAP2 DIV MUL PUSH1 0x20 ADD PUSH1 0x40 MLOAD SWAP1 DUP2 ADD PUSH1 0x40 MSTORE DUP1 SWAP3 SWAP2 SWAP1 DUP2 DUP2 MSTORE PUSH1 0x20 ADD DUP3 DUP1 SLOAD PUSH2 0xF56 SWAP1 PUSH2 0x3286 JUMP JUMPDEST DUP1 ISZERO PUSH2 0xFA3 JUMPI DUP1 PUSH1 0x1F LT PUSH2 0xF78 JUMPI PUSH2 0x100 DUP1 DUP4 SLOAD DIV MUL DUP4 MSTORE SWAP2 PUSH1 0x20 ADD SWAP2 PUSH2 0xFA3 JUMP JUMPDEST DUP3 ADD SWAP2 SWAP1 PUSH1 0x0 MSTORE PUSH1 0x20 PUSH1 0x0 KECCAK256 SWAP1 JUMPDEST DUP2 SLOAD DUP2 MSTORE SWAP1 PUSH1 0x1 ADD SWAP1 PUSH1 0x20 ADD DUP1 DUP4 GT PUSH2 0xF86 JUMPI DUP3 SWAP1 SUB PUSH1 0x1F AND DUP3 ADD SWAP2 JUMPDEST POP POP POP POP POP SWAP1 DUP1 PUSH1 0x3 ADD SLOAD SWAP1 DUP1 PUSH1 0x4 ADD SLOAD SWAP1 DUP1 PUSH1 0x5 ADD SLOAD SWAP1 DUP1 PUSH1 0x6 ADD SLOAD SWAP1 DUP1 PUSH1 0x7 ADD SLOAD SWAP1 DUP1 PUSH1 0x8 ADD SLOAD SWAP1 DUP1 PUSH1 0x9 ADD SLOAD SWAP1 POP DUP11 JUMP JUMPDEST PUSH1 0x60 PUSH1 0x6 DUP1 SLOAD DUP1 PUSH1 0x20 MUL PUSH1 0x20 ADD PUSH1 0x40 MLOAD SWAP1 DUP2 ADD PUSH1 0x40 MSTORE DUP1 SWAP3 SWAP2 SWAP1 DUP2 DUP2 MSTORE PUSH1 0x20 ADD PUSH1 0x0 SWAP1 JUMPDEST DUP3 DUP3 LT ISZERO PUSH2 0x1211 JUMPI DUP4 DUP3 SWAP1 PUSH1 0x0 MSTORE PUSH1 0x20 PUSH1 0x0 KECCAK256 SWAP1 PUSH1 0x6 MUL ADD PUSH1 0x40 MLOAD DUP1 PUSH1 0xC0 ADD PUSH1 0x40 MSTORE SWAP1 DUP2 PUSH1 0x0 DUP3 ADD PUSH1 0x0 SWAP1 SLOAD SWAP1 PUSH2 0x100 EXP SWAP1 DIV PUSH20 0xFFFFFFFFFFFFFFFFFFFFFFFFFFFFFFFFFFFFFFFF AND PUSH20 0xFFFFFFFFFFFFFFFFFFFFFFFFFFFFFFFFFFFFFFFF AND PUSH20 0xFFFFFFFFFFFFFFFFFFFFFFFFFFFFFFFFFFFFFFFF AND DUP2 MSTORE PUSH1 0x20 ADD PUSH1 0x1 DUP3 ADD PUSH1 0x0 SWAP1 SLOAD SWAP1 PUSH2 0x100 EXP SWAP1 DIV PUSH20 0xFFFFFFFFFFFFFFFFFFFFFFFFFFFFFFFFFFFFFFFF AND PUSH20 0xFFFFFFFFFFFFFFFFFFFFFFFFFFFFFFFFFFFFFFFF AND PUSH20 0xFFFFFFFFFFFFFFFFFFFFFFFFFFFFFFFFFFFFFFFF AND DUP2 MSTORE PUSH1 0x20 ADD PUSH1 0x2 DUP3 ADD DUP1 SLOAD PUSH2 0x10DA SWAP1 PUSH2 0x3286 JUMP JUMPDEST DUP1 PUSH1 0x1F ADD PUSH1 0x20 DUP1 SWAP2 DIV MUL PUSH1 0x20 ADD PUSH1 0x40 MLOAD SWAP1 DUP2 ADD PUSH1 0x40 MSTORE DUP1 SWAP3 SWAP2 SWAP1 DUP2 DUP2 MSTORE PUSH1 0x20 ADD DUP3 DUP1 SLOAD PUSH2 0x1106 SWAP1 PUSH2 0x3286 JUMP JUMPDEST DUP1 ISZERO PUSH2 0x1153 JUMPI DUP1 PUSH1 0x1F LT PUSH2 0x1128 JUMPI PUSH2 0x100 DUP1 DUP4 SLOAD DIV MUL DUP4 MSTORE SWAP2 PUSH1 0x20 ADD SWAP2 PUSH2 0x1153 JUMP JUMPDEST DUP3 ADD SWAP2 SWAP1 PUSH1 0x0 MSTORE PUSH1 0x20 PUSH1 0x0 KECCAK256 SWAP1 JUMPDEST DUP2 SLOAD DUP2 MSTORE SWAP1 PUSH1 0x1 ADD SWAP1 PUSH1 0x20 ADD DUP1 DUP4 GT PUSH2 0x1136 JUMPI DUP3 SWAP1 SUB PUSH1 0x1F AND DUP3 ADD SWAP2 JUMPDEST POP POP POP POP POP DUP2 MSTORE PUSH1 0x20 ADD PUSH1 0x3 DUP3 ADD DUP1 SLOAD PUSH2 0x116C SWAP1 PUSH2 0x3286 JUMP JUMPDEST DUP1 PUSH1 0x1F ADD PUSH1 0x20 DUP1 SWAP2 DIV MUL PUSH1 0x20 ADD PUSH1 0x40 MLOAD SWAP1 DUP2 ADD PUSH1 0x40 MSTORE DUP1 SWAP3 SWAP2 SWAP1 DUP2 DUP2 MSTORE PUSH1 0x20 ADD DUP3 DUP1 SLOAD PUSH2 0x1198 SWAP1 PUSH2 0x3286 JUMP JUMPDEST DUP1 ISZERO PUSH2 0x11E5 JUMPI DUP1 PUSH1 0x1F LT PUSH2 0x11BA JUMPI PUSH2 0x100 DUP1 DUP4 SLOAD DIV MUL DUP4 MSTORE SWAP2 PUSH1 0x20 ADD SWAP2 PUSH2 0x11E5 JUMP JUMPDEST DUP3 ADD SWAP2 SWAP1 PUSH1 0x0 MSTORE PUSH1 0x20 PUSH1 0x0 KECCAK256 SWAP1 JUMPDEST DUP2 SLOAD DUP2 MSTORE SWAP1 PUSH1 0x1 ADD SWAP1 PUSH1 0x20 ADD DUP1 DUP4 GT PUSH2 0x11C8 JUMPI DUP3 SWAP1 SUB PUSH1 0x1F AND DUP3 ADD SWAP2 JUMPDEST POP POP POP POP POP DUP2 MSTORE PUSH1 0x20 ADD PUSH1 0x4 DUP3 ADD SLOAD DUP2 MSTORE PUSH1 0x20 ADD PUSH1 0x5 DUP3 ADD SLOAD DUP2 MSTORE POP POP DUP2 MSTORE PUSH1 0x20 ADD SWAP1 PUSH1 0x1 ADD SWAP1 PUSH2 0xFFB JUMP JUMPDEST POP POP POP POP SWAP1 POP SWAP1 JUMP JUMPDEST PUSH1 0xA PUSH1 0x20 MSTORE DUP1 PUSH1 0x0 MSTORE PUSH1 0x40 PUSH1 0x0 KECCAK256 PUSH1 0x0 SWAP2 POP SWAP1 POP SLOAD DUP2 JUMP JUMPDEST PUSH1 0x0 PUSH1 0x4 PUSH1 0x0 DUP5 PUSH20 0xFFFFFFFFFFFFFFFFFFFFFFFFFFFFFFFFFFFFFFFF AND PUSH20 0xFFFFFFFFFFFFFFFFFFFFFFFFFFFFFFFFFFFFFFFF AND DUP2 MSTORE PUSH1 0x20 ADD SWAP1 DUP2 MSTORE PUSH1 0x20 ADD PUSH1 0x0 KECCAK256 DUP1 SLOAD PUSH2 0x127E SWAP1 PUSH2 0x3286 JUMP JUMPDEST SWAP1 POP EQ PUSH2 0x128A JUMPI PUSH1 0x0 DUP1 REVERT JUMPDEST DUP1 PUSH1 0x4 PUSH1 0x0 DUP5 PUSH20 0xFFFFFFFFFFFFFFFFFFFFFFFFFFFFFFFFFFFFFFFF AND PUSH20 0xFFFFFFFFFFFFFFFFFFFFFFFFFFFFFFFFFFFFFFFF AND DUP2 MSTORE PUSH1 0x20 ADD SWAP1 DUP2 MSTORE PUSH1 0x20 ADD PUSH1 0x0 KECCAK256 SWAP1 DUP2 PUSH2 0x12D6 SWAP2 SWAP1 PUSH2 0x355C JUMP JUMPDEST POP POP POP JUMP JUMPDEST PUSH1 0x2 PUSH1 0x20 MSTORE DUP1 PUSH1 0x0 MSTORE PUSH1 0x40 PUSH1 0x0 KECCAK256 PUSH1 0x0 SWAP2 POP SWAP1 POP DUP1 SLOAD PUSH2 0x12FA SWAP1 PUSH2 0x3286 JUMP JUMPDEST DUP1 PUSH1 0x1F ADD PUSH1 0x20 DUP1 SWAP2 DIV MUL PUSH1 0x20 ADD PUSH1 0x40 MLOAD SWAP1 DUP2 ADD PUSH1 0x40 MSTORE DUP1 SWAP3 SWAP2 SWAP1 DUP2 DUP2 MSTORE PUSH1 0x20 ADD DUP3 DUP1 SLOAD PUSH2 0x1326 SWAP1 PUSH2 0x3286 JUMP JUMPDEST DUP1 ISZERO PUSH2 0x1373 JUMPI DUP1 PUSH1 0x1F LT PUSH2 0x1348 JUMPI PUSH2 0x100 DUP1 DUP4 SLOAD DIV MUL DUP4 MSTORE SWAP2 PUSH1 0x20 ADD SWAP2 PUSH2 0x1373 JUMP JUMPDEST DUP3 ADD SWAP2 SWAP1 PUSH1 0x0 MSTORE PUSH1 0x20 PUSH1 0x0 KECCAK256 SWAP1 JUMPDEST DUP2 SLOAD DUP2 MSTORE SWAP1 PUSH1 0x1 ADD SWAP1 PUSH1 0x20 ADD DUP1 DUP4 GT PUSH2 0x1356 JUMPI DUP3 SWAP1 SUB PUSH1 0x1F AND DUP3 ADD SWAP2 JUMPDEST POP POP POP POP POP DUP2 JUMP JUMPDEST PUSH1 0x7 PUSH1 0x20 MSTORE DUP2 PUSH1 0x0 MSTORE PUSH1 0x40 PUSH1 0x0 KECCAK256 DUP2 DUP2 SLOAD DUP2 LT PUSH2 0x1397 JUMPI PUSH1 0x0 DUP1 REVERT JUMPDEST SWAP1 PUSH1 0x0 MSTORE PUSH1 0x20 PUSH1 0x0 KECCAK256 ADD PUSH1 0x0 SWAP2 POP SWAP2 POP POP DUP1 SLOAD PUSH2 0x13B3 SWAP1 PUSH2 0x3286 JUMP JUMPDEST DUP1 PUSH1 0x1F ADD PUSH1 0x20 DUP1 SWAP2 DIV MUL PUSH1 0x20 ADD PUSH1 0x40 MLOAD SWAP1 DUP2 ADD PUSH1 0x40 MSTORE DUP1 SWAP3 SWAP2 SWAP1 DUP2 DUP2 MSTORE PUSH1 0x20 ADD DUP3 DUP1 SLOAD PUSH2 0x13DF SWAP1 PUSH2 0x3286 JUMP JUMPDEST DUP1 ISZERO PUSH2 0x142C JUMPI DUP1 PUSH1 0x1F LT PUSH2 0x1401 JUMPI PUSH2 0x100 DUP1 DUP4 SLOAD DIV MUL DUP4 MSTORE SWAP2 PUSH1 0x20 ADD SWAP2 PUSH2 0x142C JUMP JUMPDEST DUP3 ADD SWAP2 SWAP1 PUSH1 0x0 MSTORE PUSH1 0x20 PUSH1 0x0 KECCAK256 SWAP1 JUMPDEST DUP2 SLOAD DUP2 MSTORE SWAP1 PUSH1 0x1 ADD SWAP1 PUSH1 0x20 ADD DUP1 DUP4 GT PUSH2 0x140F JUMPI DUP3 SWAP1 SUB PUSH1 0x1F AND DUP3 ADD SWAP2 JUMPDEST POP POP POP POP POP DUP2 JUMP JUMPDEST PUSH1 0x1 DUP2 DUP2 SLOAD DUP2 LT PUSH2 0x1444 JUMPI PUSH1 0x0 DUP1 REVERT JUMPDEST SWAP1 PUSH1 0x0 MSTORE PUSH1 0x20 PUSH1 0x0 KECCAK256 ADD PUSH1 0x0 SWAP2 POP SLOAD SWAP1 PUSH2 0x100 EXP SWAP1 DIV PUSH20 0xFFFFFFFFFFFFFFFFFFFFFFFFFFFFFFFFFFFFFFFF AND DUP2 JUMP JUMPDEST PUSH1 0x0 DUP3 PUSH20 0xFFFFFFFFFFFFFFFFFFFFFFFFFFFFFFFFFFFFFFFF AND DUP3 PUSH1 0x40 MLOAD PUSH2 0x1499 SWAP1 PUSH2 0x365F JUMP JUMPDEST PUSH1 0x0 PUSH1 0x40 MLOAD DUP1 DUP4 SUB DUP2 DUP6 DUP8 GAS CALL SWAP3 POP POP POP RETURNDATASIZE DUP1 PUSH1 0x0 DUP2 EQ PUSH2 0x14D6 JUMPI PUSH1 0x40 MLOAD SWAP2 POP PUSH1 0x1F NOT PUSH1 0x3F RETURNDATASIZE ADD AND DUP3 ADD PUSH1 0x40 MSTORE RETURNDATASIZE DUP3 MSTORE RETURNDATASIZE PUSH1 0x0 PUSH1 0x20 DUP5 ADD RETURNDATACOPY PUSH2 0x14DB JUMP JUMPDEST PUSH1 0x60 SWAP2 POP JUMPDEST POP POP SWAP1 POP DUP1 PUSH2 0x151F JUMPI PUSH1 0x40 MLOAD PUSH32 0x8C379A000000000000000000000000000000000000000000000000000000000 DUP2 MSTORE PUSH1 0x4 ADD PUSH2 0x1516 SWAP1 PUSH2 0x36C0 JUMP JUMPDEST PUSH1 0x40 MLOAD DUP1 SWAP2 SUB SWAP1 REVERT JUMPDEST POP POP POP JUMP JUMPDEST PUSH1 0x0 DUP1 PUSH1 0x9 PUSH1 0x0 PUSH1 0x3 DUP6 PUSH1 0x40 MLOAD PUSH2 0x153B SWAP2 SWAP1 PUSH2 0x3322 JUMP JUMPDEST SWAP1 DUP2 MSTORE PUSH1 0x20 ADD PUSH1 0x40 MLOAD DUP1 SWAP2 SUB SWAP1 KECCAK256 PUSH1 0x0 SWAP1 SLOAD SWAP1 PUSH2 0x100 EXP SWAP1 DIV PUSH20 0xFFFFFFFFFFFFFFFFFFFFFFFFFFFFFFFFFFFFFFFF AND PUSH20 0xFFFFFFFFFFFFFFFFFFFFFFFFFFFFFFFFFFFFFFFF AND PUSH20 0xFFFFFFFFFFFFFFFFFFFFFFFFFFFFFFFFFFFFFFFF AND DUP2 MSTORE PUSH1 0x20 ADD SWAP1 DUP2 MSTORE PUSH1 0x20 ADD PUSH1 0x0 KECCAK256 DUP5 PUSH1 0x40 MLOAD PUSH2 0x15B2 SWAP2 SWAP1 PUSH2 0x3322 JUMP JUMPDEST SWAP1 DUP2 MSTORE PUSH1 0x20 ADD PUSH1 0x40 MLOAD DUP1 SWAP2 SUB SWAP1 KECCAK256 SLOAD EQ ISZERO SWAP1 POP SWAP3 SWAP2 POP POP JUMP JUMPDEST PUSH1 0x0 CALLER SWAP1 POP PUSH1 0x0 PUSH1 0x2 PUSH1 0x0 DUP4 PUSH20 0xFFFFFFFFFFFFFFFFFFFFFFFFFFFFFFFFFFFFFFFF AND PUSH20 0xFFFFFFFFFFFFFFFFFFFFFFFFFFFFFFFFFFFFFFFF AND DUP2 MSTORE PUSH1 0x20 ADD SWAP1 DUP2 MSTORE PUSH1 0x20 ADD PUSH1 0x0 KECCAK256 DUP1 SLOAD PUSH2 0x161C SWAP1 PUSH2 0x3286 JUMP JUMPDEST SWAP1 POP SUB PUSH2 0x1628 JUMPI PUSH1 0x0 DUP1 REVERT JUMPDEST PUSH1 0x0 PUSH20 0xFFFFFFFFFFFFFFFFFFFFFFFFFFFFFFFFFFFFFFFF AND PUSH1 0x3 DUP12 PUSH1 0x40 MLOAD PUSH2 0x1650 SWAP2 SWAP1 PUSH2 0x3322 JUMP JUMPDEST SWAP1 DUP2 MSTORE PUSH1 0x20 ADD PUSH1 0x40 MLOAD DUP1 SWAP2 SUB SWAP1 KECCAK256 PUSH1 0x0 SWAP1 SLOAD SWAP1 PUSH2 0x100 EXP SWAP1 DIV PUSH20 0xFFFFFFFFFFFFFFFFFFFFFFFFFFFFFFFFFFFFFFFF AND PUSH20 0xFFFFFFFFFFFFFFFFFFFFFFFFFFFFFFFFFFFFFFFF AND SUB PUSH2 0x169F JUMPI PUSH1 0x0 DUP1 REVERT JUMPDEST PUSH1 0x1 PUSH1 0xA PUSH1 0x0 PUSH1 0x3 DUP14 PUSH1 0x40 MLOAD PUSH2 0x16B5 SWAP2 SWAP1 PUSH2 0x3322 JUMP JUMPDEST SWAP1 DUP2 MSTORE PUSH1 0x20 ADD PUSH1 0x40 MLOAD DUP1 SWAP2 SUB SWAP1 KECCAK256 PUSH1 0x0 SWAP1 SLOAD SWAP1 PUSH2 0x100 EXP SWAP1 DIV PUSH20 0xFFFFFFFFFFFFFFFFFFFFFFFFFFFFFFFFFFFFFFFF AND PUSH20 0xFFFFFFFFFFFFFFFFFFFFFFFFFFFFFFFFFFFFFFFF AND PUSH20 0xFFFFFFFFFFFFFFFFFFFFFFFFFFFFFFFFFFFFFFFF AND DUP2 MSTORE PUSH1 0x20 ADD SWAP1 DUP2 MSTORE PUSH1 0x20 ADD PUSH1 0x0 KECCAK256 SLOAD LT ISZERO PUSH2 0x172A JUMPI PUSH1 0x0 DUP1 REVERT JUMPDEST PUSH1 0x0 PUSH1 0x8 PUSH1 0x0 PUSH1 0x3 DUP14 PUSH1 0x40 MLOAD PUSH2 0x1740 SWAP2 SWAP1 PUSH2 0x3322 JUMP JUMPDEST SWAP1 DUP2 MSTORE PUSH1 0x20 ADD PUSH1 0x40 MLOAD DUP1 SWAP2 SUB SWAP1 KECCAK256 PUSH1 0x0 SWAP1 SLOAD SWAP1 PUSH2 0x100 EXP SWAP1 DIV PUSH20 0xFFFFFFFFFFFFFFFFFFFFFFFFFFFFFFFFFFFFFFFF AND PUSH20 0xFFFFFFFFFFFFFFFFFFFFFFFFFFFFFFFFFFFFFFFF AND PUSH20 0xFFFFFFFFFFFFFFFFFFFFFFFFFFFFFFFFFFFFFFFF AND DUP2 MSTORE PUSH1 0x20 ADD SWAP1 DUP2 MSTORE PUSH1 0x20 ADD PUSH1 0x0 KECCAK256 SWAP1 POP PUSH2 0x17B5 DUP14 DUP13 PUSH2 0x1524 JUMP JUMPDEST PUSH2 0x1919 JUMPI PUSH1 0x7 PUSH1 0x0 PUSH1 0x3 DUP14 PUSH1 0x40 MLOAD PUSH2 0x17CD SWAP2 SWAP1 PUSH2 0x3322 JUMP JUMPDEST SWAP1 DUP2 MSTORE PUSH1 0x20 ADD PUSH1 0x40 MLOAD DUP1 SWAP2 SUB SWAP1 KECCAK256 PUSH1 0x0 SWAP1 SLOAD SWAP1 PUSH2 0x100 EXP SWAP1 DIV PUSH20 0xFFFFFFFFFFFFFFFFFFFFFFFFFFFFFFFFFFFFFFFF AND PUSH20 0xFFFFFFFFFFFFFFFFFFFFFFFFFFFFFFFFFFFFFFFF AND PUSH20 0xFFFFFFFFFFFFFFFFFFFFFFFFFFFFFFFFFFFFFFFF AND DUP2 MSTORE PUSH1 0x20 ADD SWAP1 DUP2 MSTORE PUSH1 0x20 ADD PUSH1 0x0 KECCAK256 DUP14 SWAP1 DUP1 PUSH1 0x1 DUP2 SLOAD ADD DUP1 DUP3 SSTORE DUP1 SWAP2 POP POP PUSH1 0x1 SWAP1 SUB SWAP1 PUSH1 0x0 MSTORE PUSH1 0x20 PUSH1 0x0 KECCAK256 ADD PUSH1 0x0 SWAP1 SWAP2 SWAP1 SWAP2 SWAP1 SWAP2 POP SWAP1 DUP2 PUSH2 0x1868 SWAP2 SWAP1 PUSH2 0x355C JUMP JUMPDEST POP PUSH1 0x9 PUSH1 0x0 PUSH1 0x3 DUP14 PUSH1 0x40 MLOAD PUSH2 0x187D SWAP2 SWAP1 PUSH2 0x3322 JUMP JUMPDEST SWAP1 DUP2 MSTORE PUSH1 0x20 ADD PUSH1 0x40 MLOAD DUP1 SWAP2 SUB SWAP1 KECCAK256 PUSH1 0x0 SWAP1 SLOAD SWAP1 PUSH2 0x100 EXP SWAP1 DIV PUSH20 0xFFFFFFFFFFFFFFFFFFFFFFFFFFFFFFFFFFFFFFFF AND PUSH20 0xFFFFFFFFFFFFFFFFFFFFFFFFFFFFFFFFFFFFFFFF AND PUSH20 0xFFFFFFFFFFFFFFFFFFFFFFFFFFFFFFFFFFFFFFFF AND DUP2 MSTORE PUSH1 0x20 ADD SWAP1 DUP2 MSTORE PUSH1 0x20 ADD PUSH1 0x0 KECCAK256 DUP14 PUSH1 0x40 MLOAD PUSH2 0x18F4 SWAP2 SWAP1 PUSH2 0x3322 JUMP JUMPDEST SWAP1 DUP2 MSTORE PUSH1 0x20 ADD PUSH1 0x40 MLOAD DUP1 SWAP2 SUB SWAP1 KECCAK256 PUSH1 0x0 DUP2 SLOAD DUP1 SWAP3 SWAP2 SWAP1 PUSH2 0x1913 SWAP1 PUSH2 0x3368 JUMP JUMPDEST SWAP2 SWAP1 POP SSTORE POP JUMPDEST PUSH1 0x0 DUP2 DUP15 PUSH1 0x40 MLOAD PUSH2 0x192A SWAP2 SWAP1 PUSH2 0x3322 JUMP JUMPDEST SWAP1 DUP2 MSTORE PUSH1 0x20 ADD PUSH1 0x40 MLOAD DUP1 SWAP2 SUB SWAP1 KECCAK256 SWAP1 POP DUP14 DUP2 PUSH1 0x0 DUP6 PUSH20 0xFFFFFFFFFFFFFFFFFFFFFFFFFFFFFFFFFFFFFFFF AND PUSH20 0xFFFFFFFFFFFFFFFFFFFFFFFFFFFFFFFFFFFFFFFF AND DUP2 MSTORE PUSH1 0x20 ADD SWAP1 DUP2 MSTORE PUSH1 0x20 ADD PUSH1 0x0 KECCAK256 PUSH1 0x0 ADD SWAP1 DUP2 PUSH2 0x1988 SWAP2 SWAP1 PUSH2 0x355C JUMP JUMPDEST POP DUP13 DUP2 PUSH1 0x0 DUP6 PUSH20 0xFFFFFFFFFFFFFFFFFFFFFFFFFFFFFFFFFFFFFFFF AND PUSH20 0xFFFFFFFFFFFFFFFFFFFFFFFFFFFFFFFFFFFFFFFF AND DUP2 MSTORE PUSH1 0x20 ADD SWAP1 DUP2 MSTORE PUSH1 0x20 ADD PUSH1 0x0 KECCAK256 PUSH1 0x1 ADD SWAP1 DUP2 PUSH2 0x19D7 SWAP2 SWAP1 PUSH2 0x355C JUMP JUMPDEST POP DUP12 DUP2 PUSH1 0x0 DUP6 PUSH20 0xFFFFFFFFFFFFFFFFFFFFFFFFFFFFFFFFFFFFFFFF AND PUSH20 0xFFFFFFFFFFFFFFFFFFFFFFFFFFFFFFFFFFFFFFFF AND DUP2 MSTORE PUSH1 0x20 ADD SWAP1 DUP2 MSTORE PUSH1 0x20 ADD PUSH1 0x0 KECCAK256 PUSH1 0x2 ADD SWAP1 DUP2 PUSH2 0x1A26 SWAP2 SWAP1 PUSH2 0x355C JUMP JUMPDEST POP DUP11 DUP2 PUSH1 0x0 DUP6 PUSH20 0xFFFFFFFFFFFFFFFFFFFFFFFFFFFFFFFFFFFFFFFF AND PUSH20 0xFFFFFFFFFFFFFFFFFFFFFFFFFFFFFFFFFFFFFFFF AND DUP2 MSTORE PUSH1 0x20 ADD SWAP1 DUP2 MSTORE PUSH1 0x20 ADD PUSH1 0x0 KECCAK256 PUSH1 0x7 ADD DUP2 SWAP1 SSTORE POP DUP10 DUP2 PUSH1 0x0 DUP6 PUSH20 0xFFFFFFFFFFFFFFFFFFFFFFFFFFFFFFFFFFFFFFFF AND PUSH20 0xFFFFFFFFFFFFFFFFFFFFFFFFFFFFFFFFFFFFFFFF AND DUP2 MSTORE PUSH1 0x20 ADD SWAP1 DUP2 MSTORE PUSH1 0x20 ADD PUSH1 0x0 KECCAK256 PUSH1 0x8 ADD DUP2 SWAP1 SSTORE POP DUP9 DUP2 PUSH1 0x0 DUP6 PUSH20 0xFFFFFFFFFFFFFFFFFFFFFFFFFFFFFFFFFFFFFFFF AND PUSH20 0xFFFFFFFFFFFFFFFFFFFFFFFFFFFFFFFFFFFFFFFF AND DUP2 MSTORE PUSH1 0x20 ADD SWAP1 DUP2 MSTORE PUSH1 0x20 ADD PUSH1 0x0 KECCAK256 PUSH1 0x9 ADD DUP2 SWAP1 SSTORE POP DUP8 DUP2 PUSH1 0x0 DUP6 PUSH20 0xFFFFFFFFFFFFFFFFFFFFFFFFFFFFFFFFFFFFFFFF AND PUSH20 0xFFFFFFFFFFFFFFFFFFFFFFFFFFFFFFFFFFFFFFFF AND DUP2 MSTORE PUSH1 0x20 ADD SWAP1 DUP2 MSTORE PUSH1 0x20 ADD PUSH1 0x0 KECCAK256 PUSH1 0x3 ADD DUP2 SWAP1 SSTORE POP DUP7 DUP2 PUSH1 0x0 DUP6 PUSH20 0xFFFFFFFFFFFFFFFFFFFFFFFFFFFFFFFFFFFFFFFF AND PUSH20 0xFFFFFFFFFFFFFFFFFFFFFFFFFFFFFFFFFFFFFFFF AND DUP2 MSTORE PUSH1 0x20 ADD SWAP1 DUP2 MSTORE PUSH1 0x20 ADD PUSH1 0x0 KECCAK256 PUSH1 0x6 ADD DUP2 SWAP1 SSTORE POP DUP6 DUP2 PUSH1 0x0 DUP6 PUSH20 0xFFFFFFFFFFFFFFFFFFFFFFFFFFFFFFFFFFFFFFFF AND PUSH20 0xFFFFFFFFFFFFFFFFFFFFFFFFFFFFFFFFFFFFFFFF AND DUP2 MSTORE PUSH1 0x20 ADD SWAP1 DUP2 MSTORE PUSH1 0x20 ADD PUSH1 0x0 KECCAK256 PUSH1 0x4 ADD DUP2 SWAP1 SSTORE POP DUP5 DUP2 PUSH1 0x0 DUP6 PUSH20 0xFFFFFFFFFFFFFFFFFFFFFFFFFFFFFFFFFFFFFFFF AND PUSH20 0xFFFFFFFFFFFFFFFFFFFFFFFFFFFFFFFFFFFFFFFF AND DUP2 MSTORE PUSH1 0x20 ADD SWAP1 DUP2 MSTORE PUSH1 0x20 ADD PUSH1 0x0 KECCAK256 PUSH1 0x5 ADD DUP2 SWAP1 SSTORE POP PUSH1 0x1 PUSH1 0xA PUSH1 0x0 PUSH1 0x3 DUP16 PUSH1 0x40 MLOAD PUSH2 0x1C27 SWAP2 SWAP1 PUSH2 0x3322 JUMP JUMPDEST SWAP1 DUP2 MSTORE PUSH1 0x20 ADD PUSH1 0x40 MLOAD DUP1 SWAP2 SUB SWAP1 KECCAK256 PUSH1 0x0 SWAP1 SLOAD SWAP1 PUSH2 0x100 EXP SWAP1 DIV PUSH20 0xFFFFFFFFFFFFFFFFFFFFFFFFFFFFFFFFFFFFFFFF AND PUSH20 0xFFFFFFFFFFFFFFFFFFFFFFFFFFFFFFFFFFFFFFFF AND PUSH20 0xFFFFFFFFFFFFFFFFFFFFFFFFFFFFFFFFFFFFFFFF AND DUP2 MSTORE PUSH1 0x20 ADD SWAP1 DUP2 MSTORE PUSH1 0x20 ADD PUSH1 0x0 KECCAK256 PUSH1 0x0 DUP3 DUP3 SLOAD PUSH2 0x1C9F SWAP2 SWAP1 PUSH2 0x36E0 JUMP JUMPDEST SWAP3 POP POP DUP2 SWAP1 SSTORE POP PUSH1 0x1 PUSH1 0xA PUSH1 0x0 DUP6 PUSH20 0xFFFFFFFFFFFFFFFFFFFFFFFFFFFFFFFFFFFFFFFF AND PUSH20 0xFFFFFFFFFFFFFFFFFFFFFFFFFFFFFFFFFFFFFFFF AND DUP2 MSTORE PUSH1 0x20 ADD SWAP1 DUP2 MSTORE PUSH1 0x20 ADD PUSH1 0x0 KECCAK256 PUSH1 0x0 DUP3 DUP3 SLOAD PUSH2 0x1CF6 SWAP2 SWAP1 PUSH2 0x3714 JUMP JUMPDEST SWAP3 POP POP DUP2 SWAP1 SSTORE POP PUSH2 0x1D08 DUP4 PUSH1 0x1 PUSH2 0x1473 JUMP JUMPDEST PUSH1 0x0 PUSH1 0x40 MLOAD DUP1 PUSH1 0xC0 ADD PUSH1 0x40 MSTORE DUP1 PUSH1 0x3 DUP16 PUSH1 0x40 MLOAD PUSH2 0x1D25 SWAP2 SWAP1 PUSH2 0x3322 JUMP JUMPDEST SWAP1 DUP2 MSTORE PUSH1 0x20 ADD PUSH1 0x40 MLOAD DUP1 SWAP2 SUB SWAP1 KECCAK256 PUSH1 0x0 SWAP1 SLOAD SWAP1 PUSH2 0x100 EXP SWAP1 DIV PUSH20 0xFFFFFFFFFFFFFFFFFFFFFFFFFFFFFFFFFFFFFFFF AND PUSH20 0xFFFFFFFFFFFFFFFFFFFFFFFFFFFFFFFFFFFFFFFF AND DUP2 MSTORE PUSH1 0x20 ADD DUP6 PUSH20 0xFFFFFFFFFFFFFFFFFFFFFFFFFFFFFFFFFFFFFFFF AND DUP2 MSTORE PUSH1 0x20 ADD DUP15 DUP2 MSTORE PUSH1 0x20 ADD PUSH1 0x2 PUSH1 0x0 DUP8 PUSH20 0xFFFFFFFFFFFFFFFFFFFFFFFFFFFFFFFFFFFFFFFF AND PUSH20 0xFFFFFFFFFFFFFFFFFFFFFFFFFFFFFFFFFFFFFFFF AND DUP2 MSTORE PUSH1 0x20 ADD SWAP1 DUP2 MSTORE PUSH1 0x20 ADD PUSH1 0x0 KECCAK256 DUP1 SLOAD PUSH2 0x1DDB SWAP1 PUSH2 0x3286 JUMP JUMPDEST DUP1 PUSH1 0x1F ADD PUSH1 0x20 DUP1 SWAP2 DIV MUL PUSH1 0x20 ADD PUSH1 0x40 MLOAD SWAP1 DUP2 ADD PUSH1 0x40 MSTORE DUP1 SWAP3 SWAP2 SWAP1 DUP2 DUP2 MSTORE PUSH1 0x20 ADD DUP3 DUP1 SLOAD PUSH2 0x1E07 SWAP1 PUSH2 0x3286 JUMP JUMPDEST DUP1 ISZERO PUSH2 0x1E54 JUMPI DUP1 PUSH1 0x1F LT PUSH2 0x1E29 JUMPI PUSH2 0x100 DUP1 DUP4 SLOAD DIV MUL DUP4 MSTORE SWAP2 PUSH1 0x20 ADD SWAP2 PUSH2 0x1E54 JUMP JUMPDEST DUP3 ADD SWAP2 SWAP1 PUSH1 0x0 MSTORE PUSH1 0x20 PUSH1 0x0 KECCAK256 SWAP1 JUMPDEST DUP2 SLOAD DUP2 MSTORE SWAP1 PUSH1 0x1 ADD SWAP1 PUSH1 0x20 ADD DUP1 DUP4 GT PUSH2 0x1E37 JUMPI DUP3 SWAP1 SUB PUSH1 0x1F AND DUP3 ADD SWAP2 JUMPDEST POP POP POP POP POP DUP2 MSTORE PUSH1 0x20 ADD PUSH1 0x1 DUP2 MSTORE PUSH1 0x20 ADD DUP7 DUP2 MSTORE POP SWAP1 POP PUSH1 0x6 DUP2 SWAP1 DUP1 PUSH1 0x1 DUP2 SLOAD ADD DUP1 DUP3 SSTORE DUP1 SWAP2 POP POP PUSH1 0x1 SWAP1 SUB SWAP1 PUSH1 0x0 MSTORE PUSH1 0x20 PUSH1 0x0 KECCAK256 SWAP1 PUSH1 0x6 MUL ADD PUSH1 0x0 SWAP1 SWAP2 SWAP1 SWAP2 SWAP1 SWAP2 POP PUSH1 0x0 DUP3 ADD MLOAD DUP2 PUSH1 0x0 ADD PUSH1 0x0 PUSH2 0x100 EXP DUP2 SLOAD DUP2 PUSH20 0xFFFFFFFFFFFFFFFFFFFFFFFFFFFFFFFFFFFFFFFF MUL NOT AND SWAP1 DUP4 PUSH20 0xFFFFFFFFFFFFFFFFFFFFFFFFFFFFFFFFFFFFFFFF AND MUL OR SWAP1 SSTORE POP PUSH1 0x20 DUP3 ADD MLOAD DUP2 PUSH1 0x1 ADD PUSH1 0x0 PUSH2 0x100 EXP DUP2 SLOAD DUP2 PUSH20 0xFFFFFFFFFFFFFFFFFFFFFFFFFFFFFFFFFFFFFFFF MUL NOT AND SWAP1 DUP4 PUSH20 0xFFFFFFFFFFFFFFFFFFFFFFFFFFFFFFFFFFFFFFFF AND MUL OR SWAP1 SSTORE POP PUSH1 0x40 DUP3 ADD MLOAD DUP2 PUSH1 0x2 ADD SWAP1 DUP2 PUSH2 0x1F3A SWAP2 SWAP1 PUSH2 0x355C JUMP JUMPDEST POP PUSH1 0x60 DUP3 ADD MLOAD DUP2 PUSH1 0x3 ADD SWAP1 DUP2 PUSH2 0x1F50 SWAP2 SWAP1 PUSH2 0x355C JUMP JUMPDEST POP PUSH1 0x80 DUP3 ADD MLOAD DUP2 PUSH1 0x4 ADD SSTORE PUSH1 0xA0 DUP3 ADD MLOAD DUP2 PUSH1 0x5 ADD SSTORE POP POP POP POP POP POP POP POP POP POP POP POP POP POP POP POP POP JUMP JUMPDEST PUSH1 0x0 SELFBALANCE SWAP1 POP SWAP1 JUMP JUMPDEST CALLVALUE PUSH1 0x5 PUSH1 0x0 DUP3 DUP3 SLOAD PUSH2 0x1F92 SWAP2 SWAP1 PUSH2 0x3714 JUMP JUMPDEST SWAP3 POP POP DUP2 SWAP1 SSTORE POP JUMP JUMPDEST PUSH1 0x5 SLOAD DUP2 JUMP JUMPDEST PUSH1 0x3 DUP2 DUP1 MLOAD PUSH1 0x20 DUP2 ADD DUP3 ADD DUP1 MLOAD DUP5 DUP3 MSTORE PUSH1 0x20 DUP4 ADD PUSH1 0x20 DUP6 ADD KECCAK256 DUP2 DUP4 MSTORE DUP1 SWAP6 POP POP POP POP POP POP PUSH1 0x0 SWAP2 POP SLOAD SWAP1 PUSH2 0x100 EXP SWAP1 DIV PUSH20 0xFFFFFFFFFFFFFFFFFFFFFFFFFFFFFFFFFFFFFFFF AND DUP2 JUMP JUMPDEST PUSH1 0x0 PUSH1 0x2 PUSH1 0x0 DUP7 PUSH20 0xFFFFFFFFFFFFFFFFFFFFFFFFFFFFFFFFFFFFFFFF AND PUSH20 0xFFFFFFFFFFFFFFFFFFFFFFFFFFFFFFFFFFFFFFFF AND DUP2 MSTORE PUSH1 0x20 ADD SWAP1 DUP2 MSTORE PUSH1 0x20 ADD PUSH1 0x0 KECCAK256 DUP1 SLOAD PUSH2 0x2036 SWAP1 PUSH2 0x3286 JUMP JUMPDEST SWAP1 POP EQ DUP1 ISZERO PUSH2 0x20AF JUMPI POP PUSH1 0x0 PUSH20 0xFFFFFFFFFFFFFFFFFFFFFFFFFFFFFFFFFFFFFFFF AND PUSH1 0x3 DUP5 PUSH1 0x40 MLOAD PUSH2 0x2068 SWAP2 SWAP1 PUSH2 0x3322 JUMP JUMPDEST SWAP1 DUP2 MSTORE PUSH1 0x20 ADD PUSH1 0x40 MLOAD DUP1 SWAP2 SUB SWAP1 KECCAK256 PUSH1 0x0 SWAP1 SLOAD SWAP1 PUSH2 0x100 EXP SWAP1 DIV PUSH20 0xFFFFFFFFFFFFFFFFFFFFFFFFFFFFFFFFFFFFFFFF AND PUSH20 0xFFFFFFFFFFFFFFFFFFFFFFFFFFFFFFFFFFFFFFFF AND EQ JUMPDEST ISZERO PUSH2 0x24BB JUMPI PUSH1 0x64 CALLVALUE LT ISZERO PUSH2 0x20C2 JUMPI PUSH1 0x0 DUP1 REVERT JUMPDEST PUSH1 0x0 DUP4 SWAP1 DUP1 PUSH1 0x1 DUP2 SLOAD ADD DUP1 DUP3 SSTORE DUP1 SWAP2 POP POP PUSH1 0x1 SWAP1 SUB SWAP1 PUSH1 0x0 MSTORE PUSH1 0x20 PUSH1 0x0 KECCAK256 ADD PUSH1 0x0 SWAP1 SWAP2 SWAP1 SWAP2 SWAP1 SWAP2 POP SWAP1 DUP2 PUSH2 0x20F6 SWAP2 SWAP1 PUSH2 0x355C JUMP JUMPDEST POP PUSH1 0x1 DUP5 SWAP1 DUP1 PUSH1 0x1 DUP2 SLOAD ADD DUP1 DUP3 SSTORE DUP1 SWAP2 POP POP PUSH1 0x1 SWAP1 SUB SWAP1 PUSH1 0x0 MSTORE PUSH1 0x20 PUSH1 0x0 KECCAK256 ADD PUSH1 0x0 SWAP1 SWAP2 SWAP1 SWAP2 SWAP1 SWAP2 PUSH2 0x100 EXP DUP2 SLOAD DUP2 PUSH20 0xFFFFFFFFFFFFFFFFFFFFFFFFFFFFFFFFFFFFFFFF MUL NOT AND SWAP1 DUP4 PUSH20 0xFFFFFFFFFFFFFFFFFFFFFFFFFFFFFFFFFFFFFFFF AND MUL OR SWAP1 SSTORE POP DUP4 PUSH1 0x3 DUP5 PUSH1 0x40 MLOAD PUSH2 0x216B SWAP2 SWAP1 PUSH2 0x3322 JUMP JUMPDEST SWAP1 DUP2 MSTORE PUSH1 0x20 ADD PUSH1 0x40 MLOAD DUP1 SWAP2 SUB SWAP1 KECCAK256 PUSH1 0x0 PUSH2 0x100 EXP DUP2 SLOAD DUP2 PUSH20 0xFFFFFFFFFFFFFFFFFFFFFFFFFFFFFFFFFFFFFFFF MUL NOT AND SWAP1 DUP4 PUSH20 0xFFFFFFFFFFFFFFFFFFFFFFFFFFFFFFFFFFFFFFFF AND MUL OR SWAP1 SSTORE POP DUP3 PUSH1 0x2 PUSH1 0x0 DUP7 PUSH20 0xFFFFFFFFFFFFFFFFFFFFFFFFFFFFFFFFFFFFFFFF AND PUSH20 0xFFFFFFFFFFFFFFFFFFFFFFFFFFFFFFFFFFFFFFFF AND DUP2 MSTORE PUSH1 0x20 ADD SWAP1 DUP2 MSTORE PUSH1 0x20 ADD PUSH1 0x0 KECCAK256 SWAP1 DUP2 PUSH2 0x2203 SWAP2 SWAP1 PUSH2 0x355C JUMP JUMPDEST POP CALLVALUE PUSH1 0xA PUSH1 0x0 DUP7 PUSH20 0xFFFFFFFFFFFFFFFFFFFFFFFFFFFFFFFFFFFFFFFF AND PUSH20 0xFFFFFFFFFFFFFFFFFFFFFFFFFFFFFFFFFFFFFFFF AND DUP2 MSTORE PUSH1 0x20 ADD SWAP1 DUP2 MSTORE PUSH1 0x20 ADD PUSH1 0x0 KECCAK256 PUSH1 0x0 DUP3 DUP3 SLOAD PUSH2 0x2253 SWAP2 SWAP1 PUSH2 0x3714 JUMP JUMPDEST SWAP3 POP POP DUP2 SWAP1 SSTORE POP PUSH1 0x0 PUSH1 0x40 MLOAD DUP1 PUSH1 0xC0 ADD PUSH1 0x40 MSTORE DUP1 CALLER PUSH20 0xFFFFFFFFFFFFFFFFFFFFFFFFFFFFFFFFFFFFFFFF AND DUP2 MSTORE PUSH1 0x20 ADD ADDRESS PUSH20 0xFFFFFFFFFFFFFFFFFFFFFFFFFFFFFFFFFFFFFFFF AND DUP2 MSTORE PUSH1 0x20 ADD PUSH1 0x2 PUSH1 0x0 CALLER PUSH20 0xFFFFFFFFFFFFFFFFFFFFFFFFFFFFFFFFFFFFFFFF AND PUSH20 0xFFFFFFFFFFFFFFFFFFFFFFFFFFFFFFFFFFFFFFFF AND DUP2 MSTORE PUSH1 0x20 ADD SWAP1 DUP2 MSTORE PUSH1 0x20 ADD PUSH1 0x0 KECCAK256 DUP1 SLOAD PUSH2 0x22E9 SWAP1 PUSH2 0x3286 JUMP JUMPDEST DUP1 PUSH1 0x1F ADD PUSH1 0x20 DUP1 SWAP2 DIV MUL PUSH1 0x20 ADD PUSH1 0x40 MLOAD SWAP1 DUP2 ADD PUSH1 0x40 MSTORE DUP1 SWAP3 SWAP2 SWAP1 DUP2 DUP2 MSTORE PUSH1 0x20 ADD DUP3 DUP1 SLOAD PUSH2 0x2315 SWAP1 PUSH2 0x3286 JUMP JUMPDEST DUP1 ISZERO PUSH2 0x2362 JUMPI DUP1 PUSH1 0x1F LT PUSH2 0x2337 JUMPI PUSH2 0x100 DUP1 DUP4 SLOAD DIV MUL DUP4 MSTORE SWAP2 PUSH1 0x20 ADD SWAP2 PUSH2 0x2362 JUMP JUMPDEST DUP3 ADD SWAP2 SWAP1 PUSH1 0x0 MSTORE PUSH1 0x20 PUSH1 0x0 KECCAK256 SWAP1 JUMPDEST DUP2 SLOAD DUP2 MSTORE SWAP1 PUSH1 0x1 ADD SWAP1 PUSH1 0x20 ADD DUP1 DUP4 GT PUSH2 0x2345 JUMPI DUP3 SWAP1 SUB PUSH1 0x1F AND DUP3 ADD SWAP2 JUMPDEST POP POP POP POP POP DUP2 MSTORE PUSH1 0x20 ADD PUSH1 0x40 MLOAD DUP1 PUSH1 0x40 ADD PUSH1 0x40 MSTORE DUP1 PUSH1 0x4 DUP2 MSTORE PUSH1 0x20 ADD PUSH32 0x42616E6B00000000000000000000000000000000000000000000000000000000 DUP2 MSTORE POP DUP2 MSTORE PUSH1 0x20 ADD CALLVALUE DUP2 MSTORE PUSH1 0x20 ADD DUP5 DUP2 MSTORE POP SWAP1 POP PUSH1 0x6 DUP2 SWAP1 DUP1 PUSH1 0x1 DUP2 SLOAD ADD DUP1 DUP3 SSTORE DUP1 SWAP2 POP POP PUSH1 0x1 SWAP1 SUB SWAP1 PUSH1 0x0 MSTORE PUSH1 0x20 PUSH1 0x0 KECCAK256 SWAP1 PUSH1 0x6 MUL ADD PUSH1 0x0 SWAP1 SWAP2 SWAP1 SWAP2 SWAP1 SWAP2 POP PUSH1 0x0 DUP3 ADD MLOAD DUP2 PUSH1 0x0 ADD PUSH1 0x0 PUSH2 0x100 EXP DUP2 SLOAD DUP2 PUSH20 0xFFFFFFFFFFFFFFFFFFFFFFFFFFFFFFFFFFFFFFFF MUL NOT AND SWAP1 DUP4 PUSH20 0xFFFFFFFFFFFFFFFFFFFFFFFFFFFFFFFFFFFFFFFF AND MUL OR SWAP1 SSTORE POP PUSH1 0x20 DUP3 ADD MLOAD DUP2 PUSH1 0x1 ADD PUSH1 0x0 PUSH2 0x100 EXP DUP2 SLOAD DUP2 PUSH20 0xFFFFFFFFFFFFFFFFFFFFFFFFFFFFFFFFFFFFFFFF MUL NOT AND SWAP1 DUP4 PUSH20 0xFFFFFFFFFFFFFFFFFFFFFFFFFFFFFFFFFFFFFFFF AND MUL OR SWAP1 SSTORE POP PUSH1 0x40 DUP3 ADD MLOAD DUP2 PUSH1 0x2 ADD SWAP1 DUP2 PUSH2 0x2482 SWAP2 SWAP1 PUSH2 0x355C JUMP JUMPDEST POP PUSH1 0x60 DUP3 ADD MLOAD DUP2 PUSH1 0x3 ADD SWAP1 DUP2 PUSH2 0x2498 SWAP2 SWAP1 PUSH2 0x355C JUMP JUMPDEST POP PUSH1 0x80 DUP3 ADD MLOAD DUP2 PUSH1 0x4 ADD SSTORE PUSH1 0xA0 DUP3 ADD MLOAD DUP2 PUSH1 0x5 ADD SSTORE POP POP PUSH2 0x24B9 DUP6 DUP4 PUSH2 0x1232 JUMP JUMPDEST POP JUMPDEST POP POP POP POP JUMP JUMPDEST PUSH1 0x40 MLOAD DUP1 PUSH2 0x140 ADD PUSH1 0x40 MSTORE DUP1 PUSH1 0x60 DUP2 MSTORE PUSH1 0x20 ADD PUSH1 0x60 DUP2 MSTORE PUSH1 0x20 ADD PUSH1 0x60 DUP2 MSTORE PUSH1 0x20 ADD PUSH1 0x0 DUP2 MSTORE PUSH1 0x20 ADD PUSH1 0x0 DUP2 MSTORE PUSH1 0x20 ADD PUSH1 0x0 DUP2 MSTORE PUSH1 0x20 ADD PUSH1 0x0 DUP2 MSTORE PUSH1 0x20 ADD PUSH1 0x0 DUP2 MSTORE PUSH1 0x20 ADD PUSH1 0x0 DUP2 MSTORE PUSH1 0x20 ADD PUSH1 0x0 DUP2 MSTORE POP SWAP1 JUMP JUMPDEST PUSH1 0x0 PUSH1 0x40 MLOAD SWAP1 POP SWAP1 JUMP JUMPDEST PUSH1 0x0 DUP1 REVERT JUMPDEST PUSH1 0x0 DUP1 REVERT JUMPDEST PUSH1 0x0 DUP2 SWAP1 POP SWAP2 SWAP1 POP JUMP JUMPDEST PUSH2 0x253B DUP2 PUSH2 0x2528 JUMP JUMPDEST DUP2 EQ PUSH2 0x2546 JUMPI PUSH1 0x0 DUP1 REVERT JUMPDEST POP JUMP JUMPDEST PUSH1 0x0 DUP2 CALLDATALOAD SWAP1 POP PUSH2 0x2558 DUP2 PUSH2 0x2532 JUMP JUMPDEST SWAP3 SWAP2 POP POP JUMP JUMPDEST PUSH1 0x0 PUSH1 0x20 DUP3 DUP5 SUB SLT ISZERO PUSH2 0x2574 JUMPI PUSH2 0x2573 PUSH2 0x251E JUMP JUMPDEST JUMPDEST PUSH1 0x0 PUSH2 0x2582 DUP5 DUP3 DUP6 ADD PUSH2 0x2549 JUMP JUMPDEST SWAP2 POP POP SWAP3 SWAP2 POP POP JUMP JUMPDEST PUSH1 0x0 DUP2 MLOAD SWAP1 POP SWAP2 SWAP1 POP JUMP JUMPDEST PUSH1 0x0 DUP3 DUP3 MSTORE PUSH1 0x20 DUP3 ADD SWAP1 POP SWAP3 SWAP2 POP POP JUMP JUMPDEST PUSH1 0x0 JUMPDEST DUP4 DUP2 LT ISZERO PUSH2 0x25C5 JUMPI DUP1 DUP3 ADD MLOAD DUP2 DUP5 ADD MSTORE PUSH1 0x20 DUP2 ADD SWAP1 POP PUSH2 0x25AA JUMP JUMPDEST PUSH1 0x0 DUP5 DUP5 ADD MSTORE POP POP POP POP JUMP JUMPDEST PUSH1 0x0 PUSH1 0x1F NOT PUSH1 0x1F DUP4 ADD AND SWAP1 POP SWAP2 SWAP1 POP JUMP JUMPDEST PUSH1 0x0 PUSH2 0x25ED DUP3 PUSH2 0x258B JUMP JUMPDEST PUSH2 0x25F7 DUP2 DUP6 PUSH2 0x2596 JUMP JUMPDEST SWAP4 POP PUSH2 0x2607 DUP2 DUP6 PUSH1 0x20 DUP7 ADD PUSH2 0x25A7 JUMP JUMPDEST PUSH2 0x2610 DUP2 PUSH2 0x25D1 JUMP JUMPDEST DUP5 ADD SWAP2 POP POP SWAP3 SWAP2 POP POP JUMP JUMPDEST PUSH1 0x0 PUSH1 0x20 DUP3 ADD SWAP1 POP DUP2 DUP2 SUB PUSH1 0x0 DUP4 ADD MSTORE PUSH2 0x2635 DUP2 DUP5 PUSH2 0x25E2 JUMP JUMPDEST SWAP1 POP SWAP3 SWAP2 POP POP JUMP JUMPDEST PUSH1 0x0 PUSH20 0xFFFFFFFFFFFFFFFFFFFFFFFFFFFFFFFFFFFFFFFF DUP3 AND SWAP1 POP SWAP2 SWAP1 POP JUMP JUMPDEST PUSH1 0x0 PUSH2 0x2668 DUP3 PUSH2 0x263D JUMP JUMPDEST SWAP1 POP SWAP2 SWAP1 POP JUMP JUMPDEST PUSH2 0x2678 DUP2 PUSH2 0x265D JUMP JUMPDEST DUP3 MSTORE POP POP JUMP JUMPDEST PUSH2 0x2687 DUP2 PUSH2 0x2528 JUMP JUMPDEST DUP3 MSTORE POP POP JUMP JUMPDEST PUSH1 0x0 PUSH1 0xC0 DUP3 ADD SWAP1 POP PUSH2 0x26A2 PUSH1 0x0 DUP4 ADD DUP10 PUSH2 0x266F JUMP JUMPDEST PUSH2 0x26AF PUSH1 0x20 DUP4 ADD DUP9 PUSH2 0x266F JUMP JUMPDEST DUP2 DUP2 SUB PUSH1 0x40 DUP4 ADD MSTORE PUSH2 0x26C1 DUP2 DUP8 PUSH2 0x25E2 JUMP JUMPDEST SWAP1 POP DUP2 DUP2 SUB PUSH1 0x60 DUP4 ADD MSTORE PUSH2 0x26D5 DUP2 DUP7 PUSH2 0x25E2 JUMP JUMPDEST SWAP1 POP PUSH2 0x26E4 PUSH1 0x80 DUP4 ADD DUP6 PUSH2 0x267E JUMP JUMPDEST PUSH2 0x26F1 PUSH1 0xA0 DUP4 ADD DUP5 PUSH2 0x267E JUMP JUMPDEST SWAP8 SWAP7 POP POP POP POP POP POP POP JUMP JUMPDEST PUSH2 0x2705 DUP2 PUSH2 0x265D JUMP JUMPDEST DUP2 EQ PUSH2 0x2710 JUMPI PUSH1 0x0 DUP1 REVERT JUMPDEST POP JUMP JUMPDEST PUSH1 0x0 DUP2 CALLDATALOAD SWAP1 POP PUSH2 0x2722 DUP2 PUSH2 0x26FC JUMP JUMPDEST SWAP3 SWAP2 POP POP JUMP JUMPDEST PUSH1 0x0 PUSH1 0x20 DUP3 DUP5 SUB SLT ISZERO PUSH2 0x273E JUMPI PUSH2 0x273D PUSH2 0x251E JUMP JUMPDEST JUMPDEST PUSH1 0x0 PUSH2 0x274C DUP5 DUP3 DUP6 ADD PUSH2 0x2713 JUMP JUMPDEST SWAP2 POP POP SWAP3 SWAP2 POP POP JUMP JUMPDEST PUSH1 0x0 DUP1 REVERT JUMPDEST PUSH1 0x0 DUP1 REVERT JUMPDEST PUSH32 0x4E487B7100000000000000000000000000000000000000000000000000000000 PUSH1 0x0 MSTORE PUSH1 0x41 PUSH1 0x4 MSTORE PUSH1 0x24 PUSH1 0x0 REVERT JUMPDEST PUSH2 0x2797 DUP3 PUSH2 0x25D1 JUMP JUMPDEST DUP2 ADD DUP2 DUP2 LT PUSH8 0xFFFFFFFFFFFFFFFF DUP3 GT OR ISZERO PUSH2 0x27B6 JUMPI PUSH2 0x27B5 PUSH2 0x275F JUMP JUMPDEST JUMPDEST DUP1 PUSH1 0x40 MSTORE POP POP POP JUMP JUMPDEST PUSH1 0x0 PUSH2 0x27C9 PUSH2 0x2514 JUMP JUMPDEST SWAP1 POP PUSH2 0x27D5 DUP3 DUP3 PUSH2 0x278E JUMP JUMPDEST SWAP2 SWAP1 POP JUMP JUMPDEST PUSH1 0x0 PUSH8 0xFFFFFFFFFFFFFFFF DUP3 GT ISZERO PUSH2 0x27F5 JUMPI PUSH2 0x27F4 PUSH2 0x275F JUMP JUMPDEST JUMPDEST PUSH2 0x27FE DUP3 PUSH2 0x25D1 JUMP JUMPDEST SWAP1 POP PUSH1 0x20 DUP2 ADD SWAP1 POP SWAP2 SWAP1 POP JUMP JUMPDEST DUP3 DUP2 DUP4 CALLDATACOPY PUSH1 0x0 DUP4 DUP4 ADD MSTORE POP POP POP JUMP JUMPDEST PUSH1 0x0 PUSH2 0x282D PUSH2 0x2828 DUP5 PUSH2 0x27DA JUMP JUMPDEST PUSH2 0x27BF JUMP JUMPDEST SWAP1 POP DUP3 DUP2 MSTORE PUSH1 0x20 DUP2 ADD DUP5 DUP5 DUP5 ADD GT ISZERO PUSH2 0x2849 JUMPI PUSH2 0x2848 PUSH2 0x275A JUMP JUMPDEST JUMPDEST PUSH2 0x2854 DUP5 DUP3 DUP6 PUSH2 0x280B JUMP JUMPDEST POP SWAP4 SWAP3 POP POP POP JUMP JUMPDEST PUSH1 0x0 DUP3 PUSH1 0x1F DUP4 ADD SLT PUSH2 0x2871 JUMPI PUSH2 0x2870 PUSH2 0x2755 JUMP JUMPDEST JUMPDEST DUP2 CALLDATALOAD PUSH2 0x2881 DUP5 DUP3 PUSH1 0x20 DUP7 ADD PUSH2 0x281A JUMP JUMPDEST SWAP2 POP POP SWAP3 SWAP2 POP POP JUMP JUMPDEST PUSH1 0x0 DUP1 PUSH1 0x40 DUP4 DUP6 SUB SLT ISZERO PUSH2 0x28A1 JUMPI PUSH2 0x28A0 PUSH2 0x251E JUMP JUMPDEST JUMPDEST PUSH1 0x0 DUP4 ADD CALLDATALOAD PUSH8 0xFFFFFFFFFFFFFFFF DUP2 GT ISZERO PUSH2 0x28BF JUMPI PUSH2 0x28BE PUSH2 0x2523 JUMP JUMPDEST JUMPDEST PUSH2 0x28CB DUP6 DUP3 DUP7 ADD PUSH2 0x285C JUMP JUMPDEST SWAP3 POP POP PUSH1 0x20 DUP4 ADD CALLDATALOAD PUSH8 0xFFFFFFFFFFFFFFFF DUP2 GT ISZERO PUSH2 0x28EC JUMPI PUSH2 0x28EB PUSH2 0x2523 JUMP JUMPDEST JUMPDEST PUSH2 0x28F8 DUP6 DUP3 DUP7 ADD PUSH2 0x285C JUMP JUMPDEST SWAP2 POP POP SWAP3 POP SWAP3 SWAP1 POP JUMP JUMPDEST PUSH1 0x0 DUP2 MLOAD SWAP1 POP SWAP2 SWAP1 POP JUMP JUMPDEST PUSH1 0x0 DUP3 DUP3 MSTORE PUSH1 0x20 DUP3 ADD SWAP1 POP SWAP3 SWAP2 POP POP JUMP JUMPDEST PUSH1 0x0 DUP2 SWAP1 POP PUSH1 0x20 DUP3 ADD SWAP1 POP SWAP2 SWAP1 POP JUMP JUMPDEST PUSH1 0x0 DUP3 DUP3 MSTORE PUSH1 0x20 DUP3 ADD SWAP1 POP SWAP3 SWAP2 POP POP JUMP JUMPDEST PUSH1 0x0 PUSH2 0x294A DUP3 PUSH2 0x258B JUMP JUMPDEST PUSH2 0x2954 DUP2 DUP6 PUSH2 0x292E JUMP JUMPDEST SWAP4 POP PUSH2 0x2964 DUP2 DUP6 PUSH1 0x20 DUP7 ADD PUSH2 0x25A7 JUMP JUMPDEST PUSH2 0x296D DUP2 PUSH2 0x25D1 JUMP JUMPDEST DUP5 ADD SWAP2 POP POP SWAP3 SWAP2 POP POP JUMP JUMPDEST PUSH1 0x0 PUSH2 0x2984 DUP4 DUP4 PUSH2 0x293F JUMP JUMPDEST SWAP1 POP SWAP3 SWAP2 POP POP JUMP JUMPDEST PUSH1 0x0 PUSH1 0x20 DUP3 ADD SWAP1 POP SWAP2 SWAP1 POP JUMP JUMPDEST PUSH1 0x0 PUSH2 0x29A4 DUP3 PUSH2 0x2902 JUMP JUMPDEST PUSH2 0x29AE DUP2 DUP6 PUSH2 0x290D JUMP JUMPDEST SWAP4 POP DUP4 PUSH1 0x20 DUP3 MUL DUP6 ADD PUSH2 0x29C0 DUP6 PUSH2 0x291E JUMP JUMPDEST DUP1 PUSH1 0x0 JUMPDEST DUP6 DUP2 LT ISZERO PUSH2 0x29FC JUMPI DUP5 DUP5 SUB DUP10 MSTORE DUP2 MLOAD PUSH2 0x29DD DUP6 DUP3 PUSH2 0x2978 JUMP JUMPDEST SWAP5 POP PUSH2 0x29E8 DUP4 PUSH2 0x298C JUMP JUMPDEST SWAP3 POP PUSH1 0x20 DUP11 ADD SWAP10 POP POP PUSH1 0x1 DUP2 ADD SWAP1 POP PUSH2 0x29C4 JUMP JUMPDEST POP DUP3 SWAP8 POP DUP8 SWAP6 POP POP POP POP POP POP SWAP3 SWAP2 POP POP JUMP JUMPDEST PUSH1 0x0 DUP2 MLOAD SWAP1 POP SWAP2 SWAP1 POP JUMP JUMPDEST PUSH1 0x0 DUP3 DUP3 MSTORE PUSH1 0x20 DUP3 ADD SWAP1 POP SWAP3 SWAP2 POP POP JUMP JUMPDEST PUSH1 0x0 DUP2 SWAP1 POP PUSH1 0x20 DUP3 ADD SWAP1 POP SWAP2 SWAP1 POP JUMP JUMPDEST PUSH2 0x2A43 DUP2 PUSH2 0x2528 JUMP JUMPDEST DUP3 MSTORE POP POP JUMP JUMPDEST PUSH1 0x0 PUSH2 0x140 DUP4 ADD PUSH1 0x0 DUP4 ADD MLOAD DUP5 DUP3 SUB PUSH1 0x0 DUP7 ADD MSTORE PUSH2 0x2A67 DUP3 DUP3 PUSH2 0x293F JUMP JUMPDEST SWAP2 POP POP PUSH1 0x20 DUP4 ADD MLOAD DUP5 DUP3 SUB PUSH1 0x20 DUP7 ADD MSTORE PUSH2 0x2A81 DUP3 DUP3 PUSH2 0x293F JUMP JUMPDEST SWAP2 POP POP PUSH1 0x40 DUP4 ADD MLOAD DUP5 DUP3 SUB PUSH1 0x40 DUP7 ADD MSTORE PUSH2 0x2A9B DUP3 DUP3 PUSH2 0x293F JUMP JUMPDEST SWAP2 POP POP PUSH1 0x60 DUP4 ADD MLOAD PUSH2 0x2AB0 PUSH1 0x60 DUP7 ADD DUP3 PUSH2 0x2A3A JUMP JUMPDEST POP PUSH1 0x80 DUP4 ADD MLOAD PUSH2 0x2AC3 PUSH1 0x80 DUP7 ADD DUP3 PUSH2 0x2A3A JUMP JUMPDEST POP PUSH1 0xA0 DUP4 ADD MLOAD PUSH2 0x2AD6 PUSH1 0xA0 DUP7 ADD DUP3 PUSH2 0x2A3A JUMP JUMPDEST POP PUSH1 0xC0 DUP4 ADD MLOAD PUSH2 0x2AE9 PUSH1 0xC0 DUP7 ADD DUP3 PUSH2 0x2A3A JUMP JUMPDEST POP PUSH1 0xE0 DUP4 ADD MLOAD PUSH2 0x2AFC PUSH1 0xE0 DUP7 ADD DUP3 PUSH2 0x2A3A JUMP JUMPDEST POP PUSH2 0x100 DUP4 ADD MLOAD PUSH2 0x2B11 PUSH2 0x100 DUP7 ADD DUP3 PUSH2 0x2A3A JUMP JUMPDEST POP PUSH2 0x120 DUP4 ADD MLOAD PUSH2 0x2B26 PUSH2 0x120 DUP7 ADD DUP3 PUSH2 0x2A3A JUMP JUMPDEST POP DUP1 SWAP2 POP POP SWAP3 SWAP2 POP POP JUMP JUMPDEST PUSH1 0x0 PUSH2 0x2B3D DUP4 DUP4 PUSH2 0x2A49 JUMP JUMPDEST SWAP1 POP SWAP3 SWAP2 POP POP JUMP JUMPDEST PUSH1 0x0 PUSH1 0x20 DUP3 ADD SWAP1 POP SWAP2 SWAP1 POP JUMP JUMPDEST PUSH1 0x0 PUSH2 0x2B5D DUP3 PUSH2 0x2A0E JUMP JUMPDEST PUSH2 0x2B67 DUP2 DUP6 PUSH2 0x2A19 JUMP JUMPDEST SWAP4 POP DUP4 PUSH1 0x20 DUP3 MUL DUP6 ADD PUSH2 0x2B79 DUP6 PUSH2 0x2A2A JUMP JUMPDEST DUP1 PUSH1 0x0 JUMPDEST DUP6 DUP2 LT ISZERO PUSH2 0x2BB5 JUMPI DUP5 DUP5 SUB DUP10 MSTORE DUP2 MLOAD PUSH2 0x2B96 DUP6 DUP3 PUSH2 0x2B31 JUMP JUMPDEST SWAP5 POP PUSH2 0x2BA1 DUP4 PUSH2 0x2B45 JUMP JUMPDEST SWAP3 POP PUSH1 0x20 DUP11 ADD SWAP10 POP POP PUSH1 0x1 DUP2 ADD SWAP1 POP PUSH2 0x2B7D JUMP JUMPDEST POP DUP3 SWAP8 POP DUP8 SWAP6 POP POP POP POP POP POP SWAP3 SWAP2 POP POP JUMP JUMPDEST PUSH1 0x0 PUSH1 0x40 DUP3 ADD SWAP1 POP DUP2 DUP2 SUB PUSH1 0x0 DUP4 ADD MSTORE PUSH2 0x2BE1 DUP2 DUP6 PUSH2 0x2999 JUMP JUMPDEST SWAP1 POP DUP2 DUP2 SUB PUSH1 0x20 DUP4 ADD MSTORE PUSH2 0x2BF5 DUP2 DUP5 PUSH2 0x2B52 JUMP JUMPDEST SWAP1 POP SWAP4 SWAP3 POP POP POP JUMP JUMPDEST PUSH1 0x0 DUP1 PUSH1 0x0 PUSH1 0x60 DUP5 DUP7 SUB SLT ISZERO PUSH2 0x2C17 JUMPI PUSH2 0x2C16 PUSH2 0x251E JUMP JUMPDEST JUMPDEST PUSH1 0x0 PUSH2 0x2C25 DUP7 DUP3 DUP8 ADD PUSH2 0x2713 JUMP JUMPDEST SWAP4 POP POP PUSH1 0x20 DUP5 ADD CALLDATALOAD PUSH8 0xFFFFFFFFFFFFFFFF DUP2 GT ISZERO PUSH2 0x2C46 JUMPI PUSH2 0x2C45 PUSH2 0x2523 JUMP JUMPDEST JUMPDEST PUSH2 0x2C52 DUP7 DUP3 DUP8 ADD PUSH2 0x285C JUMP JUMPDEST SWAP3 POP POP PUSH1 0x40 PUSH2 0x2C63 DUP7 DUP3 DUP8 ADD PUSH2 0x2713 JUMP JUMPDEST SWAP2 POP POP SWAP3 POP SWAP3 POP SWAP3 JUMP JUMPDEST PUSH1 0x0 PUSH2 0x140 DUP3 ADD SWAP1 POP DUP2 DUP2 SUB PUSH1 0x0 DUP4 ADD MSTORE PUSH2 0x2C88 DUP2 DUP14 PUSH2 0x25E2 JUMP JUMPDEST SWAP1 POP DUP2 DUP2 SUB PUSH1 0x20 DUP4 ADD MSTORE PUSH2 0x2C9C DUP2 DUP13 PUSH2 0x25E2 JUMP JUMPDEST SWAP1 POP DUP2 DUP2 SUB PUSH1 0x40 DUP4 ADD MSTORE PUSH2 0x2CB0 DUP2 DUP12 PUSH2 0x25E2 JUMP JUMPDEST SWAP1 POP PUSH2 0x2CBF PUSH1 0x60 DUP4 ADD DUP11 PUSH2 0x267E JUMP JUMPDEST PUSH2 0x2CCC PUSH1 0x80 DUP4 ADD DUP10 PUSH2 0x267E JUMP JUMPDEST PUSH2 0x2CD9 PUSH1 0xA0 DUP4 ADD DUP9 PUSH2 0x267E JUMP JUMPDEST PUSH2 0x2CE6 PUSH1 0xC0 DUP4 ADD DUP8 PUSH2 0x267E JUMP JUMPDEST PUSH2 0x2CF3 PUSH1 0xE0 DUP4 ADD DUP7 PUSH2 0x267E JUMP JUMPDEST PUSH2 0x2D01 PUSH2 0x100 DUP4 ADD DUP6 PUSH2 0x267E JUMP JUMPDEST PUSH2 0x2D0F PUSH2 0x120 DUP4 ADD DUP5 PUSH2 0x267E JUMP JUMPDEST SWAP12 SWAP11 POP POP POP POP POP POP POP POP POP POP POP JUMP JUMPDEST PUSH1 0x0 DUP2 MLOAD SWAP1 POP SWAP2 SWAP1 POP JUMP JUMPDEST PUSH1 0x0 DUP3 DUP3 MSTORE PUSH1 0x20 DUP3 ADD SWAP1 POP SWAP3 SWAP2 POP POP JUMP JUMPDEST PUSH1 0x0 DUP2 SWAP1 POP PUSH1 0x20 DUP3 ADD SWAP1 POP SWAP2 SWAP1 POP JUMP JUMPDEST PUSH2 0x2D53 DUP2 PUSH2 0x265D JUMP JUMPDEST DUP3 MSTORE POP POP JUMP JUMPDEST PUSH1 0x0 PUSH1 0xC0 DUP4 ADD PUSH1 0x0 DUP4 ADD MLOAD PUSH2 0x2D71 PUSH1 0x0 DUP7 ADD DUP3 PUSH2 0x2D4A JUMP JUMPDEST POP PUSH1 0x20 DUP4 ADD MLOAD PUSH2 0x2D84 PUSH1 0x20 DUP7 ADD DUP3 PUSH2 0x2D4A JUMP JUMPDEST POP PUSH1 0x40 DUP4 ADD MLOAD DUP5 DUP3 SUB PUSH1 0x40 DUP7 ADD MSTORE PUSH2 0x2D9C DUP3 DUP3 PUSH2 0x293F JUMP JUMPDEST SWAP2 POP POP PUSH1 0x60 DUP4 ADD MLOAD DUP5 DUP3 SUB PUSH1 0x60 DUP7 ADD MSTORE PUSH2 0x2DB6 DUP3 DUP3 PUSH2 0x293F JUMP JUMPDEST SWAP2 POP POP PUSH1 0x80 DUP4 ADD MLOAD PUSH2 0x2DCB PUSH1 0x80 DUP7 ADD DUP3 PUSH2 0x2A3A JUMP JUMPDEST POP PUSH1 0xA0 DUP4 ADD MLOAD PUSH2 0x2DDE PUSH1 0xA0 DUP7 ADD DUP3 PUSH2 0x2A3A JUMP JUMPDEST POP DUP1 SWAP2 POP POP SWAP3 SWAP2 POP POP JUMP JUMPDEST PUSH1 0x0 PUSH2 0x2DF5 DUP4 DUP4 PUSH2 0x2D59 JUMP JUMPDEST SWAP1 POP SWAP3 SWAP2 POP POP JUMP JUMPDEST PUSH1 0x0 PUSH1 0x20 DUP3 ADD SWAP1 POP SWAP2 SWAP1 POP JUMP JUMPDEST PUSH1 0x0 PUSH2 0x2E15 DUP3 PUSH2 0x2D1E JUMP JUMPDEST PUSH2 0x2E1F DUP2 DUP6 PUSH2 0x2D29 JUMP JUMPDEST SWAP4 POP DUP4 PUSH1 0x20 DUP3 MUL DUP6 ADD PUSH2 0x2E31 DUP6 PUSH2 0x2D3A JUMP JUMPDEST DUP1 PUSH1 0x0 JUMPDEST DUP6 DUP2 LT ISZERO PUSH2 0x2E6D JUMPI DUP5 DUP5 SUB DUP10 MSTORE DUP2 MLOAD PUSH2 0x2E4E DUP6 DUP3 PUSH2 0x2DE9 JUMP JUMPDEST SWAP5 POP PUSH2 0x2E59 DUP4 PUSH2 0x2DFD JUMP JUMPDEST SWAP3 POP PUSH1 0x20 DUP11 ADD SWAP10 POP POP PUSH1 0x1 DUP2 ADD SWAP1 POP PUSH2 0x2E35 JUMP JUMPDEST POP DUP3 SWAP8 POP DUP8 SWAP6 POP POP POP POP POP POP SWAP3 SWAP2 POP POP JUMP JUMPDEST PUSH1 0x0 PUSH1 0x20 DUP3 ADD SWAP1 POP DUP2 DUP2 SUB PUSH1 0x0 DUP4 ADD MSTORE PUSH2 0x2E99 DUP2 DUP5 PUSH2 0x2E0A JUMP JUMPDEST SWAP1 POP SWAP3 SWAP2 POP POP JUMP JUMPDEST PUSH1 0x0 PUSH1 0x20 DUP3 ADD SWAP1 POP PUSH2 0x2EB6 PUSH1 0x0 DUP4 ADD DUP5 PUSH2 0x267E JUMP JUMPDEST SWAP3 SWAP2 POP POP JUMP JUMPDEST PUSH1 0x0 DUP1 PUSH1 0x40 DUP4 DUP6 SUB SLT ISZERO PUSH2 0x2ED3 JUMPI PUSH2 0x2ED2 PUSH2 0x251E JUMP JUMPDEST JUMPDEST PUSH1 0x0 PUSH2 0x2EE1 DUP6 DUP3 DUP7 ADD PUSH2 0x2713 JUMP JUMPDEST SWAP3 POP POP PUSH1 0x20 DUP4 ADD CALLDATALOAD PUSH8 0xFFFFFFFFFFFFFFFF DUP2 GT ISZERO PUSH2 0x2F02 JUMPI PUSH2 0x2F01 PUSH2 0x2523 JUMP JUMPDEST JUMPDEST PUSH2 0x2F0E DUP6 DUP3 DUP7 ADD PUSH2 0x285C JUMP JUMPDEST SWAP2 POP POP SWAP3 POP SWAP3 SWAP1 POP JUMP JUMPDEST PUSH1 0x0 DUP1 PUSH1 0x40 DUP4 DUP6 SUB SLT ISZERO PUSH2 0x2F2F JUMPI PUSH2 0x2F2E PUSH2 0x251E JUMP JUMPDEST JUMPDEST PUSH1 0x0 PUSH2 0x2F3D DUP6 DUP3 DUP7 ADD PUSH2 0x2713 JUMP JUMPDEST SWAP3 POP POP PUSH1 0x20 PUSH2 0x2F4E DUP6 DUP3 DUP7 ADD PUSH2 0x2549 JUMP JUMPDEST SWAP2 POP POP SWAP3 POP SWAP3 SWAP1 POP JUMP JUMPDEST PUSH1 0x0 PUSH1 0x20 DUP3 ADD SWAP1 POP PUSH2 0x2F6D PUSH1 0x0 DUP4 ADD DUP5 PUSH2 0x266F JUMP JUMPDEST SWAP3 SWAP2 POP POP JUMP JUMPDEST PUSH1 0x0 PUSH2 0x2F7E DUP3 PUSH2 0x263D JUMP JUMPDEST SWAP1 POP SWAP2 SWAP1 POP JUMP JUMPDEST PUSH2 0x2F8E DUP2 PUSH2 0x2F73 JUMP JUMPDEST DUP2 EQ PUSH2 0x2F99 JUMPI PUSH1 0x0 DUP1 REVERT JUMPDEST POP JUMP JUMPDEST PUSH1 0x0 DUP2 CALLDATALOAD SWAP1 POP PUSH2 0x2FAB DUP2 PUSH2 0x2F85 JUMP JUMPDEST SWAP3 SWAP2 POP POP JUMP JUMPDEST PUSH1 0x0 DUP1 PUSH1 0x40 DUP4 DUP6 SUB SLT ISZERO PUSH2 0x2FC8 JUMPI PUSH2 0x2FC7 PUSH2 0x251E JUMP JUMPDEST JUMPDEST PUSH1 0x0 PUSH2 0x2FD6 DUP6 DUP3 DUP7 ADD PUSH2 0x2F9C JUMP JUMPDEST SWAP3 POP POP PUSH1 0x20 PUSH2 0x2FE7 DUP6 DUP3 DUP7 ADD PUSH2 0x2549 JUMP JUMPDEST SWAP2 POP POP SWAP3 POP SWAP3 SWAP1 POP JUMP JUMPDEST PUSH1 0x0 DUP2 ISZERO ISZERO SWAP1 POP SWAP2 SWAP1 POP JUMP JUMPDEST PUSH2 0x3006 DUP2 PUSH2 0x2FF1 JUMP JUMPDEST DUP3 MSTORE POP POP JUMP JUMPDEST PUSH1 0x0 PUSH1 0x20 DUP3 ADD SWAP1 POP PUSH2 0x3021 PUSH1 0x0 DUP4 ADD DUP5 PUSH2 0x2FFD JUMP JUMPDEST SWAP3 SWAP2 POP POP JUMP JUMPDEST PUSH1 0x0 DUP1 PUSH1 0x0 DUP1 PUSH1 0x0 DUP1 PUSH1 0x0 DUP1 PUSH1 0x0 DUP1 PUSH1 0x0 PUSH2 0x160 DUP13 DUP15 SUB SLT ISZERO PUSH2 0x304D JUMPI PUSH2 0x304C PUSH2 0x251E JUMP JUMPDEST JUMPDEST PUSH1 0x0 DUP13 ADD CALLDATALOAD PUSH8 0xFFFFFFFFFFFFFFFF DUP2 GT ISZERO PUSH2 0x306B JUMPI PUSH2 0x306A PUSH2 0x2523 JUMP JUMPDEST JUMPDEST PUSH2 0x3077 DUP15 DUP3 DUP16 ADD PUSH2 0x285C JUMP JUMPDEST SWAP12 POP POP PUSH1 0x20 DUP13 ADD CALLDATALOAD PUSH8 0xFFFFFFFFFFFFFFFF DUP2 GT ISZERO PUSH2 0x3098 JUMPI PUSH2 0x3097 PUSH2 0x2523 JUMP JUMPDEST JUMPDEST PUSH2 0x30A4 DUP15 DUP3 DUP16 ADD PUSH2 0x285C JUMP JUMPDEST SWAP11 POP POP PUSH1 0x40 DUP13 ADD CALLDATALOAD PUSH8 0xFFFFFFFFFFFFFFFF DUP2 GT ISZERO PUSH2 0x30C5 JUMPI PUSH2 0x30C4 PUSH2 0x2523 JUMP JUMPDEST JUMPDEST PUSH2 0x30D1 DUP15 DUP3 DUP16 ADD PUSH2 0x285C JUMP JUMPDEST SWAP10 POP POP PUSH1 0x60 PUSH2 0x30E2 DUP15 DUP3 DUP16 ADD PUSH2 0x2549 JUMP JUMPDEST SWAP9 POP POP PUSH1 0x80 PUSH2 0x30F3 DUP15 DUP3 DUP16 ADD PUSH2 0x2549 JUMP JUMPDEST SWAP8 POP POP PUSH1 0xA0 PUSH2 0x3104 DUP15 DUP3 DUP16 ADD PUSH2 0x2549 JUMP JUMPDEST SWAP7 POP POP PUSH1 0xC0 PUSH2 0x3115 DUP15 DUP3 DUP16 ADD PUSH2 0x2549 JUMP JUMPDEST SWAP6 POP POP PUSH1 0xE0 PUSH2 0x3126 DUP15 DUP3 DUP16 ADD PUSH2 0x2549 JUMP JUMPDEST SWAP5 POP POP PUSH2 0x100 PUSH2 0x3138 DUP15 DUP3 DUP16 ADD PUSH2 0x2549 JUMP JUMPDEST SWAP4 POP POP PUSH2 0x120 PUSH2 0x314A DUP15 DUP3 DUP16 ADD PUSH2 0x2549 JUMP JUMPDEST SWAP3 POP POP PUSH2 0x140 PUSH2 0x315C DUP15 DUP3 DUP16 ADD PUSH2 0x2549 JUMP JUMPDEST SWAP2 POP POP SWAP3 SWAP6 SWAP9 SWAP12 POP SWAP3 SWAP6 SWAP9 SWAP12 SWAP1 SWAP4 SWAP7 SWAP10 POP JUMP JUMPDEST PUSH1 0x0 PUSH1 0x20 DUP3 DUP5 SUB SLT ISZERO PUSH2 0x3185 JUMPI PUSH2 0x3184 PUSH2 0x251E JUMP JUMPDEST JUMPDEST PUSH1 0x0 DUP3 ADD CALLDATALOAD PUSH8 0xFFFFFFFFFFFFFFFF DUP2 GT ISZERO PUSH2 0x31A3 JUMPI PUSH2 0x31A2 PUSH2 0x2523 JUMP JUMPDEST JUMPDEST PUSH2 0x31AF DUP5 DUP3 DUP6 ADD PUSH2 0x285C JUMP JUMPDEST SWAP2 POP POP SWAP3 SWAP2 POP POP JUMP JUMPDEST PUSH1 0x0 DUP1 PUSH1 0x0 DUP1 PUSH1 0x80 DUP6 DUP8 SUB SLT ISZERO PUSH2 0x31D2 JUMPI PUSH2 0x31D1 PUSH2 0x251E JUMP JUMPDEST JUMPDEST PUSH1 0x0 PUSH2 0x31E0 DUP8 DUP3 DUP9 ADD PUSH2 0x2713 JUMP JUMPDEST SWAP5 POP POP PUSH1 0x20 DUP6 ADD CALLDATALOAD PUSH8 0xFFFFFFFFFFFFFFFF DUP2 GT ISZERO PUSH2 0x3201 JUMPI PUSH2 0x3200 PUSH2 0x2523 JUMP JUMPDEST JUMPDEST PUSH2 0x320D DUP8 DUP3 DUP9 ADD PUSH2 0x285C JUMP JUMPDEST SWAP4 POP POP PUSH1 0x40 PUSH2 0x321E DUP8 DUP3 DUP9 ADD PUSH2 0x2549 JUMP JUMPDEST SWAP3 POP POP PUSH1 0x60 DUP6 ADD CALLDATALOAD PUSH8 0xFFFFFFFFFFFFFFFF DUP2 GT ISZERO PUSH2 0x323F JUMPI PUSH2 0x323E PUSH2 0x2523 JUMP JUMPDEST JUMPDEST PUSH2 0x324B DUP8 DUP3 DUP9 ADD PUSH2 0x285C JUMP JUMPDEST SWAP2 POP POP SWAP3 SWAP6 SWAP2 SWAP5 POP SWAP3 POP JUMP JUMPDEST PUSH32 0x4E487B7100000000000000000000000000000000000000000000000000000000 PUSH1 0x0 MSTORE PUSH1 0x22 PUSH1 0x4 MSTORE PUSH1 0x24 PUSH1 0x0 REVERT JUMPDEST PUSH1 0x0 PUSH1 0x2 DUP3 DIV SWAP1 POP PUSH1 0x1 DUP3 AND DUP1 PUSH2 0x329E JUMPI PUSH1 0x7F DUP3 AND SWAP2 POP JUMPDEST PUSH1 0x20 DUP3 LT DUP2 SUB PUSH2 0x32B1 JUMPI PUSH2 0x32B0 PUSH2 0x3257 JUMP JUMPDEST JUMPDEST POP SWAP2 SWAP1 POP JUMP JUMPDEST PUSH32 0x4E487B7100000000000000000000000000000000000000000000000000000000 PUSH1 0x0 MSTORE PUSH1 0x32 PUSH1 0x4 MSTORE PUSH1 0x24 PUSH1 0x0 REVERT JUMPDEST PUSH1 0x0 DUP2 SWAP1 POP SWAP3 SWAP2 POP POP JUMP JUMPDEST PUSH1 0x0 PUSH2 0x32FC DUP3 PUSH2 0x258B JUMP JUMPDEST PUSH2 0x3306 DUP2 DUP6 PUSH2 0x32E6 JUMP JUMPDEST SWAP4 POP PUSH2 0x3316 DUP2 DUP6 PUSH1 0x20 DUP7 ADD PUSH2 0x25A7 JUMP JUMPDEST DUP1 DUP5 ADD SWAP2 POP POP SWAP3 SWAP2 POP POP JUMP JUMPDEST PUSH1 0x0 PUSH2 0x332E DUP3 DUP5 PUSH2 0x32F1 JUMP JUMPDEST SWAP2 POP DUP2 SWAP1 POP SWAP3 SWAP2 POP POP JUMP JUMPDEST PUSH32 0x4E487B7100000000000000000000000000000000000000000000000000000000 PUSH1 0x0 MSTORE PUSH1 0x11 PUSH1 0x4 MSTORE PUSH1 0x24 PUSH1 0x0 REVERT JUMPDEST PUSH1 0x0 PUSH2 0x3373 DUP3 PUSH2 0x2528 JUMP JUMPDEST SWAP2 POP PUSH32 0xFFFFFFFFFFFFFFFFFFFFFFFFFFFFFFFFFFFFFFFFFFFFFFFFFFFFFFFFFFFFFFFF DUP3 SUB PUSH2 0x33A5 JUMPI PUSH2 0x33A4 PUSH2 0x3339 JUMP JUMPDEST JUMPDEST PUSH1 0x1 DUP3 ADD SWAP1 POP SWAP2 SWAP1 POP JUMP JUMPDEST PUSH1 0x0 DUP2 SWAP1 POP DUP2 PUSH1 0x0 MSTORE PUSH1 0x20 PUSH1 0x0 KECCAK256 SWAP1 POP SWAP2 SWAP1 POP JUMP JUMPDEST PUSH1 0x0 PUSH1 0x20 PUSH1 0x1F DUP4 ADD DIV SWAP1 POP SWAP2 SWAP1 POP JUMP JUMPDEST PUSH1 0x0 DUP3 DUP3 SHL SWAP1 POP SWAP3 SWAP2 POP POP JUMP JUMPDEST PUSH1 0x0 PUSH1 0x8 DUP4 MUL PUSH2 0x3412 PUSH32 0xFFFFFFFFFFFFFFFFFFFFFFFFFFFFFFFFFFFFFFFFFFFFFFFFFFFFFFFFFFFFFFFF DUP3 PUSH2 0x33D5 JUMP JUMPDEST PUSH2 0x341C DUP7 DUP4 PUSH2 0x33D5 JUMP JUMPDEST SWAP6 POP DUP1 NOT DUP5 AND SWAP4 POP DUP1 DUP7 AND DUP5 OR SWAP3 POP POP POP SWAP4 SWAP3 POP POP POP JUMP JUMPDEST PUSH1 0x0 DUP2 SWAP1 POP SWAP2 SWAP1 POP JUMP JUMPDEST PUSH1 0x0 PUSH2 0x3459 PUSH2 0x3454 PUSH2 0x344F DUP5 PUSH2 0x2528 JUMP JUMPDEST PUSH2 0x3434 JUMP JUMPDEST PUSH2 0x2528 JUMP JUMPDEST SWAP1 POP SWAP2 SWAP1 POP JUMP JUMPDEST PUSH1 0x0 DUP2 SWAP1 POP SWAP2 SWAP1 POP JUMP JUMPDEST PUSH2 0x3473 DUP4 PUSH2 0x343E JUMP JUMPDEST PUSH2 0x3487 PUSH2 0x347F DUP3 PUSH2 0x3460 JUMP JUMPDEST DUP5 DUP5 SLOAD PUSH2 0x33E2 JUMP JUMPDEST DUP3 SSTORE POP POP POP POP JUMP JUMPDEST PUSH1 0x0 SWAP1 JUMP JUMPDEST PUSH2 0x349C PUSH2 0x348F JUMP JUMPDEST PUSH2 0x34A7 DUP2 DUP5 DUP5 PUSH2 0x346A JUMP JUMPDEST POP POP POP JUMP JUMPDEST JUMPDEST DUP2 DUP2 LT ISZERO PUSH2 0x34CB JUMPI PUSH2 0x34C0 PUSH1 0x0 DUP3 PUSH2 0x3494 JUMP JUMPDEST PUSH1 0x1 DUP2 ADD SWAP1 POP PUSH2 0x34AD JUMP JUMPDEST POP POP JUMP JUMPDEST PUSH1 0x1F DUP3 GT ISZERO PUSH2 0x3510 JUMPI PUSH2 0x34E1 DUP2 PUSH2 0x33B0 JUMP JUMPDEST PUSH2 0x34EA DUP5 PUSH2 0x33C5 JUMP JUMPDEST DUP2 ADD PUSH1 0x20 DUP6 LT ISZERO PUSH2 0x34F9 JUMPI DUP2 SWAP1 POP JUMPDEST PUSH2 0x350D PUSH2 0x3505 DUP6 PUSH2 0x33C5 JUMP JUMPDEST DUP4 ADD DUP3 PUSH2 0x34AC JUMP JUMPDEST POP POP JUMPDEST POP POP POP JUMP JUMPDEST PUSH1 0x0 DUP3 DUP3 SHR SWAP1 POP SWAP3 SWAP2 POP POP JUMP JUMPDEST PUSH1 0x0 PUSH2 0x3533 PUSH1 0x0 NOT DUP5 PUSH1 0x8 MUL PUSH2 0x3515 JUMP JUMPDEST NOT DUP1 DUP4 AND SWAP2 POP POP SWAP3 SWAP2 POP POP JUMP JUMPDEST PUSH1 0x0 PUSH2 0x354C DUP4 DUP4 PUSH2 0x3522 JUMP JUMPDEST SWAP2 POP DUP3 PUSH1 0x2 MUL DUP3 OR SWAP1 POP SWAP3 SWAP2 POP POP JUMP JUMPDEST PUSH2 0x3565 DUP3 PUSH2 0x258B JUMP JUMPDEST PUSH8 0xFFFFFFFFFFFFFFFF DUP2 GT ISZERO PUSH2 0x357E JUMPI PUSH2 0x357D PUSH2 0x275F JUMP JUMPDEST JUMPDEST PUSH2 0x3588 DUP3 SLOAD PUSH2 0x3286 JUMP JUMPDEST PUSH2 0x3593 DUP3 DUP3 DUP6 PUSH2 0x34CF JUMP JUMPDEST PUSH1 0x0 PUSH1 0x20 SWAP1 POP PUSH1 0x1F DUP4 GT PUSH1 0x1 DUP2 EQ PUSH2 0x35C6 JUMPI PUSH1 0x0 DUP5 ISZERO PUSH2 0x35B4 JUMPI DUP3 DUP8 ADD MLOAD SWAP1 POP JUMPDEST PUSH2 0x35BE DUP6 DUP3 PUSH2 0x3540 JUMP JUMPDEST DUP7 SSTORE POP PUSH2 0x3626 JUMP JUMPDEST PUSH1 0x1F NOT DUP5 AND PUSH2 0x35D4 DUP7 PUSH2 0x33B0 JUMP JUMPDEST PUSH1 0x0 JUMPDEST DUP3 DUP2 LT ISZERO PUSH2 0x35FC JUMPI DUP5 DUP10 ADD MLOAD DUP3 SSTORE PUSH1 0x1 DUP3 ADD SWAP2 POP PUSH1 0x20 DUP6 ADD SWAP5 POP PUSH1 0x20 DUP2 ADD SWAP1 POP PUSH2 0x35D7 JUMP JUMPDEST DUP7 DUP4 LT ISZERO PUSH2 0x3619 JUMPI DUP5 DUP10 ADD MLOAD PUSH2 0x3615 PUSH1 0x1F DUP10 AND DUP3 PUSH2 0x3522 JUMP JUMPDEST DUP4 SSTORE POP JUMPDEST PUSH1 0x1 PUSH1 0x2 DUP9 MUL ADD DUP9 SSTORE POP POP POP JUMPDEST POP POP POP POP POP POP JUMP JUMPDEST PUSH1 0x0 DUP2 SWAP1 POP SWAP3 SWAP2 POP POP JUMP JUMPDEST POP JUMP JUMPDEST PUSH1 0x0 PUSH2 0x3649 PUSH1 0x0 DUP4 PUSH2 0x362E JUMP JUMPDEST SWAP2 POP PUSH2 0x3654 DUP3 PUSH2 0x3639 JUMP JUMPDEST PUSH1 0x0 DUP3 ADD SWAP1 POP SWAP2 SWAP1 POP JUMP JUMPDEST PUSH1 0x0 PUSH2 0x366A DUP3 PUSH2 0x363C JUMP JUMPDEST SWAP2 POP DUP2 SWAP1 POP SWAP2 SWAP1 POP JUMP JUMPDEST PUSH32 0x4661696C656420746F2073656E64204574686572000000000000000000000000 PUSH1 0x0 DUP3 ADD MSTORE POP JUMP JUMPDEST PUSH1 0x0 PUSH2 0x36AA PUSH1 0x14 DUP4 PUSH2 0x2596 JUMP JUMPDEST SWAP2 POP PUSH2 0x36B5 DUP3 PUSH2 0x3674 JUMP JUMPDEST PUSH1 0x20 DUP3 ADD SWAP1 POP SWAP2 SWAP1 POP JUMP JUMPDEST PUSH1 0x0 PUSH1 0x20 DUP3 ADD SWAP1 POP DUP2 DUP2 SUB PUSH1 0x0 DUP4 ADD MSTORE PUSH2 0x36D9 DUP2 PUSH2 0x369D JUMP JUMPDEST SWAP1 POP SWAP2 SWAP1 POP JUMP JUMPDEST PUSH1 0x0 PUSH2 0x36EB DUP3 PUSH2 0x2528 JUMP JUMPDEST SWAP2 POP PUSH2 0x36F6 DUP4 PUSH2 0x2528 JUMP JUMPDEST SWAP3 POP DUP3 DUP3 SUB SWAP1 POP DUP2 DUP2 GT ISZERO PUSH2 0x370E JUMPI PUSH2 0x370D PUSH2 0x3339 JUMP JUMPDEST JUMPDEST SWAP3 SWAP2 POP POP JUMP JUMPDEST PUSH1 0x0 PUSH2 0x371F DUP3 PUSH2 0x2528 JUMP JUMPDEST SWAP2 POP PUSH2 0x372A DUP4 PUSH2 0x2528 JUMP JUMPDEST SWAP3 POP DUP3 DUP3 ADD SWAP1 POP DUP1 DUP3 GT ISZERO PUSH2 0x3742 JUMPI PUSH2 0x3741 PUSH2 0x3339 JUMP JUMPDEST JUMPDEST SWAP3 SWAP2 POP POP JUMP INVALID LOG2 PUSH5 0x6970667358 0x22 SLT KECCAK256 PUSH23 0xC57D4B44B0E729AAADE9B4C3F78E7D58951FD645666553 DUP7 0xB7 SWAP13 0x2E JUMPI PUSH11 0xABC164736F6C6343000811 STOP CALLER "},"gasEstimates":{"creation":{"codeDepositCost":"2841200","executionCost":"3100","totalCost":"2844300"},"external":{"balance()":"361","bank(address)":"2881","billingHistory(uint256)":"infinite","dataSummaryExists(string,string)":"infinite","dataSummaryTable(address,string,address)":"infinite","deposit()":"infinite","fetchBillingHistory()":"infinite","fetchUserDataSummary(string,string)":"infinite","operatorAddresses(uint256)":"5001","operatorSecretKeysCID(address)":"infinite","operatorsAddrToName(address)":"infinite","operatorsNameToAddr(string)":"infinite","registerRoamingOperator(address,string,uint256,string)":"infinite","serviceProviders(uint256)":"infinite","totalDeposit()":"2495","transfer(address,uint256)":"infinite","uploadSecretKey(address,string)":"infinite","uploadUserDataSummary(string,string,string,uint256,uint256,uint256,uint256,uint256,uint256,uint256,uint256)":"infinite","userTable(address,uint256)":"infinite"}},"methodIdentifiers":{"balance()":"b69ef8a8","bank(address)":"529a1baf","billingHistory(uint256)":"0cb31a80","dataSummaryExists(string,string)":"ab6a9f17","dataSummaryTable(address,string,address)":"32f97763","deposit()":"d0e30db0","fetchBillingHistory()":"44c5c6a5","fetchUserDataSummary(string,string)":"1889da0a","operatorAddresses(uint256)":"7792a035","operatorSecretKeysCID(address)":"11f7b547","operatorsAddrToName(address)":"64aa65a8","operatorsNameToAddr(string)":"fd70c7dd","registerRoamingOperator(address,string,uint256,string)":"fea2fee9","serviceProviders(uint256)":"0a02dcc7","totalDeposit()":"f6153ccd","transfer(address,uint256)":"a9059cbb","uploadSecretKey(address,string)":"5e7d7faa","uploadUserDataSummary(string,string,string,uint256,uint256,uint256,uint256,uint256,uint256,uint256,uint256)":"b205b4f6","userTable(address,uint256)":"6e6061d1"}},"storageLayout":{"storage":[{"astId":4,"contract":"RoamingDataManagement.sol:RoamingDataManagement","label":"serviceProviders","offset":0,"slot":"0","type":"t_array(t_string_storage)dyn_storage"},{"astId":7,"contract":"RoamingDataManagement.sol:RoamingDataManagement","label":"operatorAddresses","offset":0,"slot":"1","type":"t_array(t_address)dyn_storage"},{"astId":11,"contract":"RoamingDataManagement.sol:RoamingDataManagement","label":"operatorsAddrToName","offset":0,"slot":"2","type":"t_mapping(t_address,t_string_storage)"},{"astId":15,"contract":"RoamingDataManagement.sol:RoamingDataManagement","label":"operatorsNameToAddr","offset":0,"slot":"3","type":"t_mapping(t_string_memory_ptr,t_address)"},{"astId":19,"contract":"RoamingDataManagement.sol:RoamingDataManagement","label":"operatorSecretKeysCID","offset":0,"slot":"4","type":"t_mapping(t_address,t_string_storage)"},{"astId":21,"contract":"RoamingDataManagement.sol:RoamingDataManagement","label":"totalDeposit","offset":0,"slot":"5","type":"t_uint256"},{"astId":59,"contract":"RoamingDataManagement.sol:RoamingDataManagement","label":"billingHistory","offset":0,"slot":"6","type":"t_array(t_struct(BillingRecord)55_storage)dyn_storage"},{"astId":64,"contract":"RoamingDataManagement.sol:RoamingDataManagement","label":"userTable","offset":0,"slot":"7","type":"t_mapping(t_address,t_array(t_string_storage)dyn_storage)"},{"astId":73,"contract":"RoamingDataManagement.sol:RoamingDataManagement","label":"dataSummaryTable","offset":0,"slot":"8","type":"t_mapping(t_address,t_mapping(t_string_memory_ptr,t_mapping(t_address,t_struct(UserDataSummary)42_storage)))"},{"astId":79,"contract":"RoamingDataManagement.sol:RoamingDataManagement","label":"numOfUserDataEntries","offset":0,"slot":"9","type":"t_mapping(t_address,t_mapping(t_string_memory_ptr,t_uint256))"},{"astId":83,"contract":"RoamingDataManagement.sol:RoamingDataManagement","label":"bank","offset":0,"slot":"10","type":"t_mapping(t_address,t_uint256)"}],"types":{"t_address":{"encoding":"inplace","label":"address","numberOfBytes":"20"},"t_array(t_address)dyn_storage":{"base":"t_address","encoding":"dynamic_array","label":"address[]","numberOfBytes":"32"},"t_array(t_string_storage)dyn_storage":{"base":"t_string_storage","encoding":"dynamic_array","label":"string[]","numberOfBytes":"32"},"t_array(t_struct(BillingRecord)55_storage)dyn_storage":{"base":"t_struct(BillingRecord)55_storage","encoding":"dynamic_array","label":"struct RoamingDataManagement.BillingRecord[]","numberOfBytes":"32"},"t_mapping(t_address,t_array(t_string_storage)dyn_storage)":{"encoding":"mapping","key":"t_address","label":"mapping(address => string[])","numberOfBytes":"32","value":"t_array(t_string_storage)dyn_storage"},"t_mapping(t_address,t_mapping(t_string_memory_ptr,t_mapping(t_address,t_struct(UserDataSummary)42_storage)))":{"encoding":"mapping","key":"t_address","label":"mapping(address => mapping(string => mapping(address => struct RoamingDataManagement.UserDataSummary)))","numberOfBytes":"32","value":"t_mapping(t_string_memory_ptr,t_mapping(t_address,t_struct(UserDataSummary)42_storage))"},"t_mapping(t_address,t_mapping(t_string_memory_ptr,t_uint256))":{"encoding":"mapping","key":"t_address","label":"mapping(address => mapping(string => uint256))","numberOfBytes":"32","value":"t_mapping(t_string_memory_ptr,t_uint256)"},"t_mapping(t_address,t_string_storage)":{"encoding":"mapping","key":"t_address","label":"mapping(address => string)","numberOfBytes":"32","value":"t_string_storage"},"t_mapping(t_address,t_struct(UserDataSummary)42_storage)":{"encoding":"mapping","key":"t_address","label":"mapping(address => struct RoamingDataManagement.UserDataSummary)","numberOfBytes":"32","value":"t_struct(UserDataSummary)42_storage"},"t_mapping(t_address,t_uint256)":{"encoding":"mapping","key":"t_address","label":"mapping(address => uint256)","numberOfBytes":"32","value":"t_uint256"},"t_mapping(t_string_memory_ptr,t_address)":{"encoding":"mapping","key":"t_string_memory_ptr","label":"mapping(string => address)","numberOfBytes":"32","value":"t_address"},"t_mapping(t_string_memory_ptr,t_mapping(t_address,t_struct(UserDataSummary)42_storage))":{"encoding":"mapping","key":"t_string_memory_ptr","label":"mapping(string => mapping(address => struct RoamingDataManagement.UserDataSummary))","numberOfBytes":"32","value":"t_mapping(t_address,t_struct(UserDataSummary)42_storage)"},"t_mapping(t_string_memory_ptr,t_uint256)":{"encoding":"mapping","key":"t_string_memory_ptr","label":"mapping(string => uint256)","numberOfBytes":"32","value":"t_uint256"},"t_string_memory_ptr":{"encoding":"bytes","label":"string","numberOfBytes":"32"},"t_string_storage":{"encoding":"bytes","label":"string","numberOfBytes":"32"},"t_struct(BillingRecord)55_storage":{"encoding":"inplace","label":"struct RoamingDataManagement.BillingRecord","members":[{"astId":44,"contract":"RoamingDataManagement.sol:RoamingDataManagement","label":"payer","offset":0,"slot":"0","type":"t_address"},{"astId":46,"contract":"RoamingDataManagement.sol:RoamingDataManagement","label":"payee","offset":0,"slot":"1","type":"t_address"},{"astId":48,"contract":"RoamingDataManagement.sol:RoamingDataManagement","label":"payerName","offset":0,"slot":"2","type":"t_string_storage"},{"astId":50,"contract":"RoamingDataManagement.sol:RoamingDataManagement","label":"payeeName","offset":0,"slot":"3","type":"t_string_storage"},{"astId":52,"contract":"RoamingDataManagement.sol:RoamingDataManagement","label":"amount","offset":0,"slot":"4","type":"t_uint256"},{"astId":54,"contract":"RoamingDataManagement.sol:RoamingDataManagement","label":"timestamp","offset":0,"slot":"5","type":"t_uint256"}],"numberOfBytes":"192"},"t_struct(UserDataSummary)42_storage":{"encoding":"inplace","label":"struct RoamingDataManagement.UserDataSummary","members":[{"astId":23,"contract":"RoamingDataManagement.sol:RoamingDataManagement","label":"imsi","offset":0,"slot":"0","type":"t_string_storage"},{"astId":25,"contract":"RoamingDataManagement.sol:RoamingDataManagement","label":"number","offset":0,"slot":"1","type":"t_string_storage"},{"astId":27,"contract":"RoamingDataManagement.sol:RoamingDataManagement","label":"serviceProvider","offset":0,"slot":"2","type":"t_string_storage"},{"astId":29,"contract":"RoamingDataManagement.sol:RoamingDataManagement","label":"serviceStartTime","offset":0,"slot":"3","type":"t_uint256"},{"astId":31,"contract":"RoamingDataManagement.sol:RoamingDataManagement","label":"voiceCallStartTime","offset":0,"slot":"4","type":"t_uint256"},{"astId":33,"contract":"RoamingDataManagement.sol:RoamingDataManagement","label":"smsStartTime","offset":0,"slot":"5","type":"t_uint256"},{"astId":35,"contract":"RoamingDataManagement.sol:RoamingDataManagement","label":"internetStartTime","offset":0,"slot":"6","type":"t_uint256"},{"astId":37,"contract":"RoamingDataManagement.sol:RoamingDataManagement","label":"voiceCallUsage","offset":0,"slot":"7","type":"t_uint256"},{"astId":39,"contract":"RoamingDataManagement.sol:RoamingDataManagement","label":"internetUsage","offset":0,"slot":"8","type":"t_uint256"},{"astId":41,"contract":"RoamingDataManagement.sol:RoamingDataManagement","label":"smsUsage","offset":0,"slot":"9","type":"t_uint256"}],"numberOfBytes":"320"},"t_uint256":{"encoding":"inplace","label":"uint256","numberOfBytes":"32"}}},"userdoc":{"kind":"user","methods":{},"version":1}}