{"abi":[{"inputs":[],"stateMutability":"nonpayable","type":"constructor"},{"inputs":[],"name":"balance","outputs":[{"internalType":"uint256","name":"","type":"uint256"}],"stateMutability":"view","type":"function"},{"inputs":[{"internalType":"address","name":"","type":"address"}],"name":"bank","outputs":[{"internalType":"uint256","name":"","type":"uint256"}],"stateMutability":"view","type":"function"},{"inputs":[{"internalType":"uint256","name":"","type":"uint256"}],"name":"billingHistory","outputs":[{"internalType":"address","name":"payer","type":"address"},{"internalType":"address","name":"payee","type":"address"},{"internalType":"uint256","name":"amount","type":"uint256"},{"internalType":"uint256","name":"timestamp","type":"uint256"}],"stateMutability":"view","type":"function"},{"inputs":[{"internalType":"string","name":"imsi","type":"string"},{"internalType":"string","name":"homeOperator","type":"string"}],"name":"dataSummaryExists","outputs":[{"internalType":"bool","name":"","type":"bool"}],"stateMutability":"view","type":"function"},{"inputs":[{"internalType":"address","name":"","type":"address"},{"internalType":"string","name":"","type":"string"},{"internalType":"address","name":"","type":"address"}],"name":"dataSummaryTable","outputs":[{"internalType":"string","name":"imsi","type":"string"},{"internalType":"string","name":"number","type":"string"},{"internalType":"string","name":"serviceProvider","type":"string"},{"internalType":"uint256","name":"voiceCallUsage","type":"uint256"},{"internalType":"uint256","name":"internetUsage","type":"uint256"},{"internalType":"uint256","name":"smsUsage","type":"uint256"}],"stateMutability":"view","type":"function"},{"inputs":[],"name":"deposit","outputs":[],"stateMutability":"payable","type":"function"},{"inputs":[{"internalType":"string","name":"visitingOperatorName","type":"string"}],"name":"fetchUserDataSummary","outputs":[{"internalType":"string[]","name":"","type":"string[]"},{"components":[{"internalType":"string","name":"imsi","type":"string"},{"internalType":"string","name":"number","type":"string"},{"internalType":"string","name":"serviceProvider","type":"string"},{"internalType":"uint256","name":"voiceCallUsage","type":"uint256"},{"internalType":"uint256","name":"internetUsage","type":"uint256"},{"internalType":"uint256","name":"smsUsage","type":"uint256"}],"internalType":"struct RoamingDataManagement.UserDataSummary[]","name":"","type":"tuple[]"}],"stateMutability":"view","type":"function"},{"inputs":[{"internalType":"uint256","name":"","type":"uint256"}],"name":"operatorAddresses","outputs":[{"internalType":"address","name":"","type":"address"}],"stateMutability":"view","type":"function"},{"inputs":[{"internalType":"address","name":"","type":"address"}],"name":"operatorsAddrToName","outputs":[{"internalType":"string","name":"","type":"string"}],"stateMutability":"view","type":"function"},{"inputs":[{"internalType":"string","name":"","type":"string"}],"name":"operatorsNameToAddr","outputs":[{"internalType":"address","name":"","type":"address"}],"stateMutability":"view","type":"function"},{"inputs":[{"internalType":"address","name":"operatorAddr","type":"address"},{"internalType":"string","name":"operatorName","type":"string"}],"name":"registerRoamingOperator","outputs":[],"stateMutability":"payable","type":"function"},{"inputs":[{"internalType":"uint256","name":"","type":"uint256"}],"name":"serviceProviders","outputs":[{"internalType":"string","name":"","type":"string"}],"stateMutability":"view","type":"function"},{"inputs":[],"name":"totalDeposit","outputs":[{"internalType":"uint256","name":"","type":"uint256"}],"stateMutability":"view","type":"function"},{"inputs":[{"internalType":"address payable","name":"_to","type":"address"},{"internalType":"uint256","name":"_amount","type":"uint256"}],"name":"transfer","outputs":[],"stateMutability":"nonpayable","type":"function"},{"inputs":[{"internalType":"string","name":"imsi","type":"string"},{"internalType":"string","name":"number","type":"string"},{"internalType":"string","name":"serviceProvider","type":"string"},{"internalType":"uint256","name":"voiceCallUsage","type":"uint256"},{"internalType":"uint256","name":"internetUsage","type":"uint256"},{"internalType":"uint256","name":"smsUsage","type":"uint256"}],"name":"uploadUserDataSummary","outputs":[],"stateMutability":"nonpayable","type":"function"},{"inputs":[{"internalType":"address","name":"","type":"address"},{"internalType":"uint256","name":"","type":"uint256"}],"name":"userTable","outputs":[{"internalType":"string","name":"","type":"string"}],"stateMutability":"view","type":"function"},{"stateMutability":"payable","type":"receive"}],"devdoc":{"kind":"dev","methods":{},"version":1},"evm":{"assembly":"    /* \"RoamingDataManagement.sol\":57:5976  contract RoamingDataManagement {... */\n  mstore(0x40, 0x80)\n    /* \"RoamingDataManagement.sol\":1726:1756  constructor() {... */\n  callvalue\n  dup1\n  iszero\n  tag_1\n  jumpi\n  0x00\n  dup1\n  revert\ntag_1:\n  pop\n    /* \"RoamingDataManagement.sol\":57:5976  contract RoamingDataManagement {... */\n  dataSize(sub_0)\n  dup1\n  dataOffset(sub_0)\n  0x00\n  codecopy\n  0x00\n  return\nstop\n\nsub_0: assembly {\n        /* \"RoamingDataManagement.sol\":57:5976  contract RoamingDataManagement {... */\n      mstore(0x40, 0x80)\n      jumpi(tag_1, lt(calldatasize, 0x04))\n      shr(0xe0, calldataload(0x00))\n      dup1\n      0xa8367070\n      gt\n      tag_19\n      jumpi\n      dup1\n      0xc7fa1063\n      gt\n      tag_20\n      jumpi\n      dup1\n      0xc7fa1063\n      eq\n      tag_15\n      jumpi\n      dup1\n      0xd0e30db0\n      eq\n      tag_16\n      jumpi\n      dup1\n      0xf6153ccd\n      eq\n      tag_17\n      jumpi\n      dup1\n      0xfd70c7dd\n      eq\n      tag_18\n      jumpi\n      jump(tag_2)\n    tag_20:\n      dup1\n      0xa8367070\n      eq\n      tag_11\n      jumpi\n      dup1\n      0xa9059cbb\n      eq\n      tag_12\n      jumpi\n      dup1\n      0xab6a9f17\n      eq\n      tag_13\n      jumpi\n      dup1\n      0xb69ef8a8\n      eq\n      tag_14\n      jumpi\n      jump(tag_2)\n    tag_19:\n      dup1\n      0x64aa65a8\n      gt\n      tag_21\n      jumpi\n      dup1\n      0x64aa65a8\n      eq\n      tag_7\n      jumpi\n      dup1\n      0x6e6061d1\n      eq\n      tag_8\n      jumpi\n      dup1\n      0x7792a035\n      eq\n      tag_9\n      jumpi\n      dup1\n      0x8f1d613d\n      eq\n      tag_10\n      jumpi\n      jump(tag_2)\n    tag_21:\n      dup1\n      0x0a02dcc7\n      eq\n      tag_3\n      jumpi\n      dup1\n      0x0cb31a80\n      eq\n      tag_4\n      jumpi\n      dup1\n      0x32f97763\n      eq\n      tag_5\n      jumpi\n      dup1\n      0x529a1baf\n      eq\n      tag_6\n      jumpi\n      jump(tag_2)\n    tag_1:\n      jumpi(tag_2, calldatasize)\n        /* \"RoamingDataManagement.sol\":1906:1912  1 gwei */\n      0x3b9aca00\n        /* \"RoamingDataManagement.sol\":1893:1902  msg.value */\n      callvalue\n        /* \"RoamingDataManagement.sol\":1893:1912  msg.value >= 1 gwei */\n      lt\n      iszero\n        /* \"RoamingDataManagement.sol\":1885:1913  require(msg.value >= 1 gwei) */\n      tag_24\n      jumpi\n      0x00\n      dup1\n      revert\n    tag_24:\n        /* \"RoamingDataManagement.sol\":57:5976  contract RoamingDataManagement {... */\n      stop\n    tag_2:\n      0x00\n      dup1\n      revert\n        /* \"RoamingDataManagement.sol\":522:554  string[] public serviceProviders */\n    tag_3:\n      callvalue\n      dup1\n      iszero\n      tag_25\n      jumpi\n      0x00\n      dup1\n      revert\n    tag_25:\n      pop\n      tag_26\n      0x04\n      dup1\n      calldatasize\n      sub\n      dup2\n      add\n      swap1\n      tag_27\n      swap2\n      swap1\n      tag_28\n      jump\t// in\n    tag_27:\n      tag_29\n      jump\t// in\n    tag_26:\n      mload(0x40)\n      tag_30\n      swap2\n      swap1\n      tag_31\n      jump\t// in\n    tag_30:\n      mload(0x40)\n      dup1\n      swap2\n      sub\n      swap1\n      return\n        /* \"RoamingDataManagement.sol\":1098:1135  BillingRecord[] public billingHistory */\n    tag_4:\n      callvalue\n      dup1\n      iszero\n      tag_32\n      jumpi\n      0x00\n      dup1\n      revert\n    tag_32:\n      pop\n      tag_33\n      0x04\n      dup1\n      calldatasize\n      sub\n      dup2\n      add\n      swap1\n      tag_34\n      swap2\n      swap1\n      tag_28\n      jump\t// in\n    tag_34:\n      tag_35\n      jump\t// in\n    tag_33:\n      mload(0x40)\n      tag_36\n      swap5\n      swap4\n      swap3\n      swap2\n      swap1\n      tag_37\n      jump\t// in\n    tag_36:\n      mload(0x40)\n      dup1\n      swap2\n      sub\n      swap1\n      return\n        /* \"RoamingDataManagement.sol\":1506:1604  mapping(address => mapping(string => mapping(address => UserDataSummary))) public dataSummaryTable */\n    tag_5:\n      callvalue\n      dup1\n      iszero\n      tag_38\n      jumpi\n      0x00\n      dup1\n      revert\n    tag_38:\n      pop\n      tag_39\n      0x04\n      dup1\n      calldatasize\n      sub\n      dup2\n      add\n      swap1\n      tag_40\n      swap2\n      swap1\n      tag_41\n      jump\t// in\n    tag_40:\n      tag_42\n      jump\t// in\n    tag_39:\n      mload(0x40)\n      tag_43\n      swap7\n      swap6\n      swap5\n      swap4\n      swap3\n      swap2\n      swap1\n      tag_44\n      jump\t// in\n    tag_43:\n      mload(0x40)\n      dup1\n      swap2\n      sub\n      swap1\n      return\n        /* \"RoamingDataManagement.sol\":1680:1719  mapping(address => uint256) public bank */\n    tag_6:\n      callvalue\n      dup1\n      iszero\n      tag_45\n      jumpi\n      0x00\n      dup1\n      revert\n    tag_45:\n      pop\n      tag_46\n      0x04\n      dup1\n      calldatasize\n      sub\n      dup2\n      add\n      swap1\n      tag_47\n      swap2\n      swap1\n      tag_48\n      jump\t// in\n    tag_47:\n      tag_49\n      jump\t// in\n    tag_46:\n      mload(0x40)\n      tag_50\n      swap2\n      swap1\n      tag_51\n      jump\t// in\n    tag_50:\n      mload(0x40)\n      dup1\n      swap2\n      sub\n      swap1\n      return\n        /* \"RoamingDataManagement.sol\":601:654  mapping(address => string) public operatorsAddrToName */\n    tag_7:\n      callvalue\n      dup1\n      iszero\n      tag_52\n      jumpi\n      0x00\n      dup1\n      revert\n    tag_52:\n      pop\n      tag_53\n      0x04\n      dup1\n      calldatasize\n      sub\n      dup2\n      add\n      swap1\n      tag_54\n      swap2\n      swap1\n      tag_48\n      jump\t// in\n    tag_54:\n      tag_55\n      jump\t// in\n    tag_53:\n      mload(0x40)\n      tag_56\n      swap2\n      swap1\n      tag_31\n      jump\t// in\n    tag_56:\n      mload(0x40)\n      dup1\n      swap2\n      sub\n      swap1\n      return\n        /* \"RoamingDataManagement.sol\":1228:1273  mapping(address => string[]) public userTable */\n    tag_8:\n      callvalue\n      dup1\n      iszero\n      tag_57\n      jumpi\n      0x00\n      dup1\n      revert\n    tag_57:\n      pop\n      tag_58\n      0x04\n      dup1\n      calldatasize\n      sub\n      dup2\n      add\n      swap1\n      tag_59\n      swap2\n      swap1\n      tag_60\n      jump\t// in\n    tag_59:\n      tag_61\n      jump\t// in\n    tag_58:\n      mload(0x40)\n      tag_62\n      swap2\n      swap1\n      tag_31\n      jump\t// in\n    tag_62:\n      mload(0x40)\n      dup1\n      swap2\n      sub\n      swap1\n      return\n        /* \"RoamingDataManagement.sol\":560:594  address[] public operatorAddresses */\n    tag_9:\n      callvalue\n      dup1\n      iszero\n      tag_63\n      jumpi\n      0x00\n      dup1\n      revert\n    tag_63:\n      pop\n      tag_64\n      0x04\n      dup1\n      calldatasize\n      sub\n      dup2\n      add\n      swap1\n      tag_65\n      swap2\n      swap1\n      tag_28\n      jump\t// in\n    tag_65:\n      tag_66\n      jump\t// in\n    tag_64:\n      mload(0x40)\n      tag_67\n      swap2\n      swap1\n      tag_68\n      jump\t// in\n    tag_67:\n      mload(0x40)\n      dup1\n      swap2\n      sub\n      swap1\n      return\n        /* \"RoamingDataManagement.sol\":2997:4747  function uploadUserDataSummary(string memory imsi, string memory number, string memory serviceProvider, ... */\n    tag_10:\n      callvalue\n      dup1\n      iszero\n      tag_69\n      jumpi\n      0x00\n      dup1\n      revert\n    tag_69:\n      pop\n      tag_70\n      0x04\n      dup1\n      calldatasize\n      sub\n      dup2\n      add\n      swap1\n      tag_71\n      swap2\n      swap1\n      tag_72\n      jump\t// in\n    tag_71:\n      tag_73\n      jump\t// in\n    tag_70:\n      stop\n        /* \"RoamingDataManagement.sol\":5080:5718  function fetchUserDataSummary(string memory visitingOperatorName) public view returns(string[] memory, UserDataSummary[] memory) {... */\n    tag_11:\n      callvalue\n      dup1\n      iszero\n      tag_74\n      jumpi\n      0x00\n      dup1\n      revert\n    tag_74:\n      pop\n      tag_75\n      0x04\n      dup1\n      calldatasize\n      sub\n      dup2\n      add\n      swap1\n      tag_76\n      swap2\n      swap1\n      tag_77\n      jump\t// in\n    tag_76:\n      tag_78\n      jump\t// in\n    tag_75:\n      mload(0x40)\n      tag_79\n      swap3\n      swap2\n      swap1\n      tag_80\n      jump\t// in\n    tag_79:\n      mload(0x40)\n      dup1\n      swap2\n      sub\n      swap1\n      return\n        /* \"RoamingDataManagement.sol\":5799:5973  function transfer(address payable _to, uint _amount) public {... */\n    tag_12:\n      callvalue\n      dup1\n      iszero\n      tag_81\n      jumpi\n      0x00\n      dup1\n      revert\n    tag_81:\n      pop\n      tag_82\n      0x04\n      dup1\n      calldatasize\n      sub\n      dup2\n      add\n      swap1\n      tag_83\n      swap2\n      swap1\n      tag_84\n      jump\t// in\n    tag_83:\n      tag_85\n      jump\t// in\n    tag_82:\n      stop\n        /* \"RoamingDataManagement.sol\":4753:4947  function dataSummaryExists(string memory imsi, string memory homeOperator) public view returns(bool) {... */\n    tag_13:\n      callvalue\n      dup1\n      iszero\n      tag_86\n      jumpi\n      0x00\n      dup1\n      revert\n    tag_86:\n      pop\n      tag_87\n      0x04\n      dup1\n      calldatasize\n      sub\n      dup2\n      add\n      swap1\n      tag_88\n      swap2\n      swap1\n      tag_89\n      jump\t// in\n    tag_88:\n      tag_90\n      jump\t// in\n    tag_87:\n      mload(0x40)\n      tag_91\n      swap2\n      swap1\n      tag_92\n      jump\t// in\n    tag_91:\n      mload(0x40)\n      dup1\n      swap2\n      sub\n      swap1\n      return\n        /* \"RoamingDataManagement.sol\":1926:2025  function balance() external view returns(uint256)... */\n    tag_14:\n      callvalue\n      dup1\n      iszero\n      tag_93\n      jumpi\n      0x00\n      dup1\n      revert\n    tag_93:\n      pop\n      tag_94\n      tag_95\n      jump\t// in\n    tag_94:\n      mload(0x40)\n      tag_96\n      swap2\n      swap1\n      tag_51\n      jump\t// in\n    tag_96:\n      mload(0x40)\n      dup1\n      swap2\n      sub\n      swap1\n      return\n        /* \"RoamingDataManagement.sol\":2031:2991  function registerRoamingOperator(address operatorAddr, string memory operatorName) public payable {... */\n    tag_15:\n      tag_97\n      0x04\n      dup1\n      calldatasize\n      sub\n      dup2\n      add\n      swap1\n      tag_98\n      swap2\n      swap1\n      tag_99\n      jump\t// in\n    tag_98:\n      tag_100\n      jump\t// in\n    tag_97:\n      stop\n        /* \"RoamingDataManagement.sol\":1762:1842  function deposit() public payable... */\n    tag_16:\n      tag_101\n      tag_102\n      jump\t// in\n    tag_101:\n      stop\n        /* \"RoamingDataManagement.sol\":725:749  uint public totalDeposit */\n    tag_17:\n      callvalue\n      dup1\n      iszero\n      tag_103\n      jumpi\n      0x00\n      dup1\n      revert\n    tag_103:\n      pop\n      tag_104\n      tag_105\n      jump\t// in\n    tag_104:\n      mload(0x40)\n      tag_106\n      swap2\n      swap1\n      tag_51\n      jump\t// in\n    tag_106:\n      mload(0x40)\n      dup1\n      swap2\n      sub\n      swap1\n      return\n        /* \"RoamingDataManagement.sol\":660:713  mapping(string => address) public operatorsNameToAddr */\n    tag_18:\n      callvalue\n      dup1\n      iszero\n      tag_107\n      jumpi\n      0x00\n      dup1\n      revert\n    tag_107:\n      pop\n      tag_108\n      0x04\n      dup1\n      calldatasize\n      sub\n      dup2\n      add\n      swap1\n      tag_109\n      swap2\n      swap1\n      tag_77\n      jump\t// in\n    tag_109:\n      tag_110\n      jump\t// in\n    tag_108:\n      mload(0x40)\n      tag_111\n      swap2\n      swap1\n      tag_68\n      jump\t// in\n    tag_111:\n      mload(0x40)\n      dup1\n      swap2\n      sub\n      swap1\n      return\n        /* \"RoamingDataManagement.sol\":522:554  string[] public serviceProviders */\n    tag_29:\n      0x00\n      dup2\n      dup2\n      sload\n      dup2\n      lt\n      tag_112\n      jumpi\n      0x00\n      dup1\n      revert\n    tag_112:\n      swap1\n      0x00\n      mstore\n      keccak256(0x00, 0x20)\n      add\n      0x00\n      swap2\n      pop\n      swap1\n      pop\n      dup1\n      sload\n      tag_114\n      swap1\n      tag_115\n      jump\t// in\n    tag_114:\n      dup1\n      0x1f\n      add\n      0x20\n      dup1\n      swap2\n      div\n      mul\n      0x20\n      add\n      mload(0x40)\n      swap1\n      dup2\n      add\n      0x40\n      mstore\n      dup1\n      swap3\n      swap2\n      swap1\n      dup2\n      dup2\n      mstore\n      0x20\n      add\n      dup3\n      dup1\n      sload\n      tag_116\n      swap1\n      tag_115\n      jump\t// in\n    tag_116:\n      dup1\n      iszero\n      tag_117\n      jumpi\n      dup1\n      0x1f\n      lt\n      tag_118\n      jumpi\n      0x0100\n      dup1\n      dup4\n      sload\n      div\n      mul\n      dup4\n      mstore\n      swap2\n      0x20\n      add\n      swap2\n      jump(tag_117)\n    tag_118:\n      dup3\n      add\n      swap2\n      swap1\n      0x00\n      mstore\n      keccak256(0x00, 0x20)\n      swap1\n    tag_119:\n      dup2\n      sload\n      dup2\n      mstore\n      swap1\n      0x01\n      add\n      swap1\n      0x20\n      add\n      dup1\n      dup4\n      gt\n      tag_119\n      jumpi\n      dup3\n      swap1\n      sub\n      0x1f\n      and\n      dup3\n      add\n      swap2\n    tag_117:\n      pop\n      pop\n      pop\n      pop\n      pop\n      dup2\n      jump\t// out\n        /* \"RoamingDataManagement.sol\":1098:1135  BillingRecord[] public billingHistory */\n    tag_35:\n      0x05\n      dup2\n      dup2\n      sload\n      dup2\n      lt\n      tag_120\n      jumpi\n      0x00\n      dup1\n      revert\n    tag_120:\n      swap1\n      0x00\n      mstore\n      keccak256(0x00, 0x20)\n      swap1\n      0x04\n      mul\n      add\n      0x00\n      swap2\n      pop\n      swap1\n      pop\n      dup1\n      0x00\n      add\n      0x00\n      swap1\n      sload\n      swap1\n      0x0100\n      exp\n      swap1\n      div\n      0xffffffffffffffffffffffffffffffffffffffff\n      and\n      swap1\n      dup1\n      0x01\n      add\n      0x00\n      swap1\n      sload\n      swap1\n      0x0100\n      exp\n      swap1\n      div\n      0xffffffffffffffffffffffffffffffffffffffff\n      and\n      swap1\n      dup1\n      0x02\n      add\n      sload\n      swap1\n      dup1\n      0x03\n      add\n      sload\n      swap1\n      pop\n      dup5\n      jump\t// out\n        /* \"RoamingDataManagement.sol\":1506:1604  mapping(address => mapping(string => mapping(address => UserDataSummary))) public dataSummaryTable */\n    tag_42:\n      mstore(0x20, 0x07)\n      dup3\n      0x00\n      mstore\n      keccak256(0x00, 0x40)\n      dup3\n      dup1\n      mload\n      0x20\n      dup2\n      add\n      dup3\n      add\n      dup1\n      mload\n      dup5\n      dup3\n      mstore\n      0x20\n      dup4\n      add\n      0x20\n      dup6\n      add\n      keccak256\n      dup2\n      dup4\n      mstore\n      dup1\n      swap6\n      pop\n      pop\n      pop\n      pop\n      pop\n      pop\n      0x20\n      mstore\n      dup1\n      0x00\n      mstore\n      keccak256(0x00, 0x40)\n      0x00\n      swap3\n      pop\n      swap3\n      pop\n      pop\n      pop\n      dup1\n      0x00\n      add\n      dup1\n      sload\n      tag_122\n      swap1\n      tag_115\n      jump\t// in\n    tag_122:\n      dup1\n      0x1f\n      add\n      0x20\n      dup1\n      swap2\n      div\n      mul\n      0x20\n      add\n      mload(0x40)\n      swap1\n      dup2\n      add\n      0x40\n      mstore\n      dup1\n      swap3\n      swap2\n      swap1\n      dup2\n      dup2\n      mstore\n      0x20\n      add\n      dup3\n      dup1\n      sload\n      tag_123\n      swap1\n      tag_115\n      jump\t// in\n    tag_123:\n      dup1\n      iszero\n      tag_124\n      jumpi\n      dup1\n      0x1f\n      lt\n      tag_125\n      jumpi\n      0x0100\n      dup1\n      dup4\n      sload\n      div\n      mul\n      dup4\n      mstore\n      swap2\n      0x20\n      add\n      swap2\n      jump(tag_124)\n    tag_125:\n      dup3\n      add\n      swap2\n      swap1\n      0x00\n      mstore\n      keccak256(0x00, 0x20)\n      swap1\n    tag_126:\n      dup2\n      sload\n      dup2\n      mstore\n      swap1\n      0x01\n      add\n      swap1\n      0x20\n      add\n      dup1\n      dup4\n      gt\n      tag_126\n      jumpi\n      dup3\n      swap1\n      sub\n      0x1f\n      and\n      dup3\n      add\n      swap2\n    tag_124:\n      pop\n      pop\n      pop\n      pop\n      pop\n      swap1\n      dup1\n      0x01\n      add\n      dup1\n      sload\n      tag_127\n      swap1\n      tag_115\n      jump\t// in\n    tag_127:\n      dup1\n      0x1f\n      add\n      0x20\n      dup1\n      swap2\n      div\n      mul\n      0x20\n      add\n      mload(0x40)\n      swap1\n      dup2\n      add\n      0x40\n      mstore\n      dup1\n      swap3\n      swap2\n      swap1\n      dup2\n      dup2\n      mstore\n      0x20\n      add\n      dup3\n      dup1\n      sload\n      tag_128\n      swap1\n      tag_115\n      jump\t// in\n    tag_128:\n      dup1\n      iszero\n      tag_129\n      jumpi\n      dup1\n      0x1f\n      lt\n      tag_130\n      jumpi\n      0x0100\n      dup1\n      dup4\n      sload\n      div\n      mul\n      dup4\n      mstore\n      swap2\n      0x20\n      add\n      swap2\n      jump(tag_129)\n    tag_130:\n      dup3\n      add\n      swap2\n      swap1\n      0x00\n      mstore\n      keccak256(0x00, 0x20)\n      swap1\n    tag_131:\n      dup2\n      sload\n      dup2\n      mstore\n      swap1\n      0x01\n      add\n      swap1\n      0x20\n      add\n      dup1\n      dup4\n      gt\n      tag_131\n      jumpi\n      dup3\n      swap1\n      sub\n      0x1f\n      and\n      dup3\n      add\n      swap2\n    tag_129:\n      pop\n      pop\n      pop\n      pop\n      pop\n      swap1\n      dup1\n      0x02\n      add\n      dup1\n      sload\n      tag_132\n      swap1\n      tag_115\n      jump\t// in\n    tag_132:\n      dup1\n      0x1f\n      add\n      0x20\n      dup1\n      swap2\n      div\n      mul\n      0x20\n      add\n      mload(0x40)\n      swap1\n      dup2\n      add\n      0x40\n      mstore\n      dup1\n      swap3\n      swap2\n      swap1\n      dup2\n      dup2\n      mstore\n      0x20\n      add\n      dup3\n      dup1\n      sload\n      tag_133\n      swap1\n      tag_115\n      jump\t// in\n    tag_133:\n      dup1\n      iszero\n      tag_134\n      jumpi\n      dup1\n      0x1f\n      lt\n      tag_135\n      jumpi\n      0x0100\n      dup1\n      dup4\n      sload\n      div\n      mul\n      dup4\n      mstore\n      swap2\n      0x20\n      add\n      swap2\n      jump(tag_134)\n    tag_135:\n      dup3\n      add\n      swap2\n      swap1\n      0x00\n      mstore\n      keccak256(0x00, 0x20)\n      swap1\n    tag_136:\n      dup2\n      sload\n      dup2\n      mstore\n      swap1\n      0x01\n      add\n      swap1\n      0x20\n      add\n      dup1\n      dup4\n      gt\n      tag_136\n      jumpi\n      dup3\n      swap1\n      sub\n      0x1f\n      and\n      dup3\n      add\n      swap2\n    tag_134:\n      pop\n      pop\n      pop\n      pop\n      pop\n      swap1\n      dup1\n      0x03\n      add\n      sload\n      swap1\n      dup1\n      0x04\n      add\n      sload\n      swap1\n      dup1\n      0x05\n      add\n      sload\n      swap1\n      pop\n      dup7\n      jump\t// out\n        /* \"RoamingDataManagement.sol\":1680:1719  mapping(address => uint256) public bank */\n    tag_49:\n      mstore(0x20, 0x09)\n      dup1\n      0x00\n      mstore\n      keccak256(0x00, 0x40)\n      0x00\n      swap2\n      pop\n      swap1\n      pop\n      sload\n      dup2\n      jump\t// out\n        /* \"RoamingDataManagement.sol\":601:654  mapping(address => string) public operatorsAddrToName */\n    tag_55:\n      mstore(0x20, 0x02)\n      dup1\n      0x00\n      mstore\n      keccak256(0x00, 0x40)\n      0x00\n      swap2\n      pop\n      swap1\n      pop\n      dup1\n      sload\n      tag_137\n      swap1\n      tag_115\n      jump\t// in\n    tag_137:\n      dup1\n      0x1f\n      add\n      0x20\n      dup1\n      swap2\n      div\n      mul\n      0x20\n      add\n      mload(0x40)\n      swap1\n      dup2\n      add\n      0x40\n      mstore\n      dup1\n      swap3\n      swap2\n      swap1\n      dup2\n      dup2\n      mstore\n      0x20\n      add\n      dup3\n      dup1\n      sload\n      tag_138\n      swap1\n      tag_115\n      jump\t// in\n    tag_138:\n      dup1\n      iszero\n      tag_139\n      jumpi\n      dup1\n      0x1f\n      lt\n      tag_140\n      jumpi\n      0x0100\n      dup1\n      dup4\n      sload\n      div\n      mul\n      dup4\n      mstore\n      swap2\n      0x20\n      add\n      swap2\n      jump(tag_139)\n    tag_140:\n      dup3\n      add\n      swap2\n      swap1\n      0x00\n      mstore\n      keccak256(0x00, 0x20)\n      swap1\n    tag_141:\n      dup2\n      sload\n      dup2\n      mstore\n      swap1\n      0x01\n      add\n      swap1\n      0x20\n      add\n      dup1\n      dup4\n      gt\n      tag_141\n      jumpi\n      dup3\n      swap1\n      sub\n      0x1f\n      and\n      dup3\n      add\n      swap2\n    tag_139:\n      pop\n      pop\n      pop\n      pop\n      pop\n      dup2\n      jump\t// out\n        /* \"RoamingDataManagement.sol\":1228:1273  mapping(address => string[]) public userTable */\n    tag_61:\n      mstore(0x20, 0x06)\n      dup2\n      0x00\n      mstore\n      keccak256(0x00, 0x40)\n      dup2\n      dup2\n      sload\n      dup2\n      lt\n      tag_142\n      jumpi\n      0x00\n      dup1\n      revert\n    tag_142:\n      swap1\n      0x00\n      mstore\n      keccak256(0x00, 0x20)\n      add\n      0x00\n      swap2\n      pop\n      swap2\n      pop\n      pop\n      dup1\n      sload\n      tag_144\n      swap1\n      tag_115\n      jump\t// in\n    tag_144:\n      dup1\n      0x1f\n      add\n      0x20\n      dup1\n      swap2\n      div\n      mul\n      0x20\n      add\n      mload(0x40)\n      swap1\n      dup2\n      add\n      0x40\n      mstore\n      dup1\n      swap3\n      swap2\n      swap1\n      dup2\n      dup2\n      mstore\n      0x20\n      add\n      dup3\n      dup1\n      sload\n      tag_145\n      swap1\n      tag_115\n      jump\t// in\n    tag_145:\n      dup1\n      iszero\n      tag_146\n      jumpi\n      dup1\n      0x1f\n      lt\n      tag_147\n      jumpi\n      0x0100\n      dup1\n      dup4\n      sload\n      div\n      mul\n      dup4\n      mstore\n      swap2\n      0x20\n      add\n      swap2\n      jump(tag_146)\n    tag_147:\n      dup3\n      add\n      swap2\n      swap1\n      0x00\n      mstore\n      keccak256(0x00, 0x20)\n      swap1\n    tag_148:\n      dup2\n      sload\n      dup2\n      mstore\n      swap1\n      0x01\n      add\n      swap1\n      0x20\n      add\n      dup1\n      dup4\n      gt\n      tag_148\n      jumpi\n      dup3\n      swap1\n      sub\n      0x1f\n      and\n      dup3\n      add\n      swap2\n    tag_146:\n      pop\n      pop\n      pop\n      pop\n      pop\n      dup2\n      jump\t// out\n        /* \"RoamingDataManagement.sol\":560:594  address[] public operatorAddresses */\n    tag_66:\n      0x01\n      dup2\n      dup2\n      sload\n      dup2\n      lt\n      tag_149\n      jumpi\n      0x00\n      dup1\n      revert\n    tag_149:\n      swap1\n      0x00\n      mstore\n      keccak256(0x00, 0x20)\n      add\n      0x00\n      swap2\n      pop\n      sload\n      swap1\n      0x0100\n      exp\n      swap1\n      div\n      0xffffffffffffffffffffffffffffffffffffffff\n      and\n      dup2\n      jump\t// out\n        /* \"RoamingDataManagement.sol\":2997:4747  function uploadUserDataSummary(string memory imsi, string memory number, string memory serviceProvider, ... */\n    tag_73:\n        /* \"RoamingDataManagement.sol\":3189:3213  address visitingOperator */\n      0x00\n        /* \"RoamingDataManagement.sol\":3216:3226  msg.sender */\n      caller\n        /* \"RoamingDataManagement.sol\":3189:3226  address visitingOperator = msg.sender */\n      swap1\n      pop\n        /* \"RoamingDataManagement.sol\":3299:3300  0 */\n      0x00\n        /* \"RoamingDataManagement.sol\":3250:3269  operatorsAddrToName */\n      0x02\n        /* \"RoamingDataManagement.sol\":3250:3287  operatorsAddrToName[visitingOperator] */\n      0x00\n        /* \"RoamingDataManagement.sol\":3270:3286  visitingOperator */\n      dup4\n        /* \"RoamingDataManagement.sol\":3250:3287  operatorsAddrToName[visitingOperator] */\n      0xffffffffffffffffffffffffffffffffffffffff\n      and\n      0xffffffffffffffffffffffffffffffffffffffff\n      and\n      dup2\n      mstore\n      0x20\n      add\n      swap1\n      dup2\n      mstore\n      0x20\n      add\n      0x00\n      keccak256\n        /* \"RoamingDataManagement.sol\":3244:3295  bytes(operatorsAddrToName[visitingOperator]).length */\n      dup1\n      sload\n      tag_152\n      swap1\n      tag_115\n      jump\t// in\n    tag_152:\n      swap1\n      pop\n        /* \"RoamingDataManagement.sol\":3244:3300  bytes(operatorsAddrToName[visitingOperator]).length != 0 */\n      sub\n        /* \"RoamingDataManagement.sol\":3236:3301  require(bytes(operatorsAddrToName[visitingOperator]).length != 0) */\n      tag_153\n      jumpi\n      0x00\n      dup1\n      revert\n    tag_153:\n        /* \"RoamingDataManagement.sol\":3367:3370  0x0 */\n      0x00\n        /* \"RoamingDataManagement.sol\":3319:3371  operatorsNameToAddr[serviceProvider] != address(0x0) */\n      0xffffffffffffffffffffffffffffffffffffffff\n      and\n        /* \"RoamingDataManagement.sol\":3319:3338  operatorsNameToAddr */\n      0x03\n        /* \"RoamingDataManagement.sol\":3339:3354  serviceProvider */\n      dup7\n        /* \"RoamingDataManagement.sol\":3319:3355  operatorsNameToAddr[serviceProvider] */\n      mload(0x40)\n      tag_154\n      swap2\n      swap1\n      tag_155\n      jump\t// in\n    tag_154:\n      swap1\n      dup2\n      mstore\n      0x20\n      add\n      mload(0x40)\n      dup1\n      swap2\n      sub\n      swap1\n      keccak256\n      0x00\n      swap1\n      sload\n      swap1\n      0x0100\n      exp\n      swap1\n      div\n      0xffffffffffffffffffffffffffffffffffffffff\n      and\n        /* \"RoamingDataManagement.sol\":3319:3371  operatorsNameToAddr[serviceProvider] != address(0x0) */\n      0xffffffffffffffffffffffffffffffffffffffff\n      and\n      sub\n        /* \"RoamingDataManagement.sol\":3311:3372  require(operatorsNameToAddr[serviceProvider] != address(0x0)) */\n      tag_156\n      jumpi\n      0x00\n      dup1\n      revert\n    tag_156:\n        /* \"RoamingDataManagement.sol\":3436:3441  1 wei */\n      0x01\n        /* \"RoamingDataManagement.sol\":3390:3394  bank */\n      0x09\n        /* \"RoamingDataManagement.sol\":3390:3432  bank[operatorsNameToAddr[serviceProvider]] */\n      0x00\n        /* \"RoamingDataManagement.sol\":3395:3414  operatorsNameToAddr */\n      0x03\n        /* \"RoamingDataManagement.sol\":3415:3430  serviceProvider */\n      dup9\n        /* \"RoamingDataManagement.sol\":3395:3431  operatorsNameToAddr[serviceProvider] */\n      mload(0x40)\n      tag_157\n      swap2\n      swap1\n      tag_155\n      jump\t// in\n    tag_157:\n      swap1\n      dup2\n      mstore\n      0x20\n      add\n      mload(0x40)\n      dup1\n      swap2\n      sub\n      swap1\n      keccak256\n      0x00\n      swap1\n      sload\n      swap1\n      0x0100\n      exp\n      swap1\n      div\n      0xffffffffffffffffffffffffffffffffffffffff\n      and\n        /* \"RoamingDataManagement.sol\":3390:3432  bank[operatorsNameToAddr[serviceProvider]] */\n      0xffffffffffffffffffffffffffffffffffffffff\n      and\n      0xffffffffffffffffffffffffffffffffffffffff\n      and\n      dup2\n      mstore\n      0x20\n      add\n      swap1\n      dup2\n      mstore\n      0x20\n      add\n      0x00\n      keccak256\n      sload\n        /* \"RoamingDataManagement.sol\":3390:3441  bank[operatorsNameToAddr[serviceProvider]] >= 1 wei */\n      lt\n      iszero\n        /* \"RoamingDataManagement.sol\":3382:3442  require(bank[operatorsNameToAddr[serviceProvider]] >= 1 wei) */\n      tag_158\n      jumpi\n      0x00\n      dup1\n      revert\n    tag_158:\n        /* \"RoamingDataManagement.sol\":3453:3534  mapping(string => mapping(address => UserDataSummary)) storage userToSummaryTable */\n      0x00\n        /* \"RoamingDataManagement.sol\":3537:3553  dataSummaryTable */\n      0x07\n        /* \"RoamingDataManagement.sol\":3537:3591  dataSummaryTable[operatorsNameToAddr[serviceProvider]] */\n      0x00\n        /* \"RoamingDataManagement.sol\":3554:3573  operatorsNameToAddr */\n      0x03\n        /* \"RoamingDataManagement.sol\":3574:3589  serviceProvider */\n      dup9\n        /* \"RoamingDataManagement.sol\":3554:3590  operatorsNameToAddr[serviceProvider] */\n      mload(0x40)\n      tag_159\n      swap2\n      swap1\n      tag_155\n      jump\t// in\n    tag_159:\n      swap1\n      dup2\n      mstore\n      0x20\n      add\n      mload(0x40)\n      dup1\n      swap2\n      sub\n      swap1\n      keccak256\n      0x00\n      swap1\n      sload\n      swap1\n      0x0100\n      exp\n      swap1\n      div\n      0xffffffffffffffffffffffffffffffffffffffff\n      and\n        /* \"RoamingDataManagement.sol\":3537:3591  dataSummaryTable[operatorsNameToAddr[serviceProvider]] */\n      0xffffffffffffffffffffffffffffffffffffffff\n      and\n      0xffffffffffffffffffffffffffffffffffffffff\n      and\n      dup2\n      mstore\n      0x20\n      add\n      swap1\n      dup2\n      mstore\n      0x20\n      add\n      0x00\n      keccak256\n        /* \"RoamingDataManagement.sol\":3453:3591  mapping(string => mapping(address => UserDataSummary)) storage userToSummaryTable = dataSummaryTable[operatorsNameToAddr[serviceProvider]] */\n      swap1\n      pop\n        /* \"RoamingDataManagement.sol\":3606:3646  dataSummaryExists(imsi, serviceProvider) */\n      tag_160\n        /* \"RoamingDataManagement.sol\":3624:3628  imsi */\n      dup9\n        /* \"RoamingDataManagement.sol\":3630:3645  serviceProvider */\n      dup8\n        /* \"RoamingDataManagement.sol\":3606:3623  dataSummaryExists */\n      tag_90\n        /* \"RoamingDataManagement.sol\":3606:3646  dataSummaryExists(imsi, serviceProvider) */\n      jump\t// in\n    tag_160:\n        /* \"RoamingDataManagement.sol\":3601:3811  if (!dataSummaryExists(imsi, serviceProvider)) {... */\n      tag_161\n      jumpi\n        /* \"RoamingDataManagement.sol\":3662:3671  userTable */\n      0x06\n        /* \"RoamingDataManagement.sol\":3662:3709  userTable[operatorsNameToAddr[serviceProvider]] */\n      0x00\n        /* \"RoamingDataManagement.sol\":3672:3691  operatorsNameToAddr */\n      0x03\n        /* \"RoamingDataManagement.sol\":3692:3707  serviceProvider */\n      dup9\n        /* \"RoamingDataManagement.sol\":3672:3708  operatorsNameToAddr[serviceProvider] */\n      mload(0x40)\n      tag_162\n      swap2\n      swap1\n      tag_155\n      jump\t// in\n    tag_162:\n      swap1\n      dup2\n      mstore\n      0x20\n      add\n      mload(0x40)\n      dup1\n      swap2\n      sub\n      swap1\n      keccak256\n      0x00\n      swap1\n      sload\n      swap1\n      0x0100\n      exp\n      swap1\n      div\n      0xffffffffffffffffffffffffffffffffffffffff\n      and\n        /* \"RoamingDataManagement.sol\":3662:3709  userTable[operatorsNameToAddr[serviceProvider]] */\n      0xffffffffffffffffffffffffffffffffffffffff\n      and\n      0xffffffffffffffffffffffffffffffffffffffff\n      and\n      dup2\n      mstore\n      0x20\n      add\n      swap1\n      dup2\n      mstore\n      0x20\n      add\n      0x00\n      keccak256\n        /* \"RoamingDataManagement.sol\":3715:3719  imsi */\n      dup9\n        /* \"RoamingDataManagement.sol\":3662:3720  userTable[operatorsNameToAddr[serviceProvider]].push(imsi) */\n      swap1\n      dup1\n      0x01\n      dup2\n      sload\n      add\n      dup1\n      dup3\n      sstore\n      dup1\n      swap2\n      pop\n      pop\n      0x01\n      swap1\n      sub\n      swap1\n      0x00\n      mstore\n      keccak256(0x00, 0x20)\n      add\n      0x00\n      swap1\n      swap2\n      swap1\n      swap2\n      swap1\n      swap2\n      pop\n      swap1\n      dup2\n      tag_164\n      swap2\n      swap1\n      tag_165\n      jump\t// in\n    tag_164:\n      pop\n        /* \"RoamingDataManagement.sol\":3734:3754  numOfUserDataEntries */\n      0x08\n        /* \"RoamingDataManagement.sol\":3734:3792  numOfUserDataEntries[operatorsNameToAddr[serviceProvider]] */\n      0x00\n        /* \"RoamingDataManagement.sol\":3755:3774  operatorsNameToAddr */\n      0x03\n        /* \"RoamingDataManagement.sol\":3775:3790  serviceProvider */\n      dup9\n        /* \"RoamingDataManagement.sol\":3755:3791  operatorsNameToAddr[serviceProvider] */\n      mload(0x40)\n      tag_166\n      swap2\n      swap1\n      tag_155\n      jump\t// in\n    tag_166:\n      swap1\n      dup2\n      mstore\n      0x20\n      add\n      mload(0x40)\n      dup1\n      swap2\n      sub\n      swap1\n      keccak256\n      0x00\n      swap1\n      sload\n      swap1\n      0x0100\n      exp\n      swap1\n      div\n      0xffffffffffffffffffffffffffffffffffffffff\n      and\n        /* \"RoamingDataManagement.sol\":3734:3792  numOfUserDataEntries[operatorsNameToAddr[serviceProvider]] */\n      0xffffffffffffffffffffffffffffffffffffffff\n      and\n      0xffffffffffffffffffffffffffffffffffffffff\n      and\n      dup2\n      mstore\n      0x20\n      add\n      swap1\n      dup2\n      mstore\n      0x20\n      add\n      0x00\n      keccak256\n        /* \"RoamingDataManagement.sol\":3793:3797  imsi */\n      dup9\n        /* \"RoamingDataManagement.sol\":3734:3798  numOfUserDataEntries[operatorsNameToAddr[serviceProvider]][imsi] */\n      mload(0x40)\n      tag_167\n      swap2\n      swap1\n      tag_155\n      jump\t// in\n    tag_167:\n      swap1\n      dup2\n      mstore\n      0x20\n      add\n      mload(0x40)\n      dup1\n      swap2\n      sub\n      swap1\n      keccak256\n      0x00\n        /* \"RoamingDataManagement.sol\":3734:3800  numOfUserDataEntries[operatorsNameToAddr[serviceProvider]][imsi]++ */\n      dup2\n      sload\n      dup1\n      swap3\n      swap2\n      swap1\n      tag_168\n      swap1\n      tag_169\n      jump\t// in\n    tag_168:\n      swap2\n      swap1\n      pop\n      sstore\n      pop\n        /* \"RoamingDataManagement.sol\":3601:3811  if (!dataSummaryExists(imsi, serviceProvider)) {... */\n    tag_161:\n        /* \"RoamingDataManagement.sol\":3829:3909  mapping(address => UserDataSummary) storage usageSummaryTablePerVisitingOperator */\n      0x00\n        /* \"RoamingDataManagement.sol\":3912:3930  userToSummaryTable */\n      dup2\n        /* \"RoamingDataManagement.sol\":3931:3935  imsi */\n      dup10\n        /* \"RoamingDataManagement.sol\":3912:3936  userToSummaryTable[imsi] */\n      mload(0x40)\n      tag_170\n      swap2\n      swap1\n      tag_155\n      jump\t// in\n    tag_170:\n      swap1\n      dup2\n      mstore\n      0x20\n      add\n      mload(0x40)\n      dup1\n      swap2\n      sub\n      swap1\n      keccak256\n        /* \"RoamingDataManagement.sol\":3829:3936  mapping(address => UserDataSummary) storage usageSummaryTablePerVisitingOperator = userToSummaryTable[imsi] */\n      swap1\n      pop\n        /* \"RoamingDataManagement.sol\":4008:4012  imsi */\n      dup9\n        /* \"RoamingDataManagement.sol\":3946:3982  usageSummaryTablePerVisitingOperator */\n      dup2\n        /* \"RoamingDataManagement.sol\":3946:4000  usageSummaryTablePerVisitingOperator[visitingOperator] */\n      0x00\n        /* \"RoamingDataManagement.sol\":3983:3999  visitingOperator */\n      dup6\n        /* \"RoamingDataManagement.sol\":3946:4000  usageSummaryTablePerVisitingOperator[visitingOperator] */\n      0xffffffffffffffffffffffffffffffffffffffff\n      and\n      0xffffffffffffffffffffffffffffffffffffffff\n      and\n      dup2\n      mstore\n      0x20\n      add\n      swap1\n      dup2\n      mstore\n      0x20\n      add\n      0x00\n      keccak256\n        /* \"RoamingDataManagement.sol\":3946:4005  usageSummaryTablePerVisitingOperator[visitingOperator].imsi */\n      0x00\n      add\n        /* \"RoamingDataManagement.sol\":3946:4012  usageSummaryTablePerVisitingOperator[visitingOperator].imsi = imsi */\n      swap1\n      dup2\n      tag_171\n      swap2\n      swap1\n      tag_165\n      jump\t// in\n    tag_171:\n      pop\n        /* \"RoamingDataManagement.sol\":4086:4092  number */\n      dup8\n        /* \"RoamingDataManagement.sol\":4022:4058  usageSummaryTablePerVisitingOperator */\n      dup2\n        /* \"RoamingDataManagement.sol\":4022:4076  usageSummaryTablePerVisitingOperator[visitingOperator] */\n      0x00\n        /* \"RoamingDataManagement.sol\":4059:4075  visitingOperator */\n      dup6\n        /* \"RoamingDataManagement.sol\":4022:4076  usageSummaryTablePerVisitingOperator[visitingOperator] */\n      0xffffffffffffffffffffffffffffffffffffffff\n      and\n      0xffffffffffffffffffffffffffffffffffffffff\n      and\n      dup2\n      mstore\n      0x20\n      add\n      swap1\n      dup2\n      mstore\n      0x20\n      add\n      0x00\n      keccak256\n        /* \"RoamingDataManagement.sol\":4022:4083  usageSummaryTablePerVisitingOperator[visitingOperator].number */\n      0x01\n      add\n        /* \"RoamingDataManagement.sol\":4022:4092  usageSummaryTablePerVisitingOperator[visitingOperator].number = number */\n      swap1\n      dup2\n      tag_172\n      swap2\n      swap1\n      tag_165\n      jump\t// in\n    tag_172:\n      pop\n        /* \"RoamingDataManagement.sol\":4175:4190  serviceProvider */\n      dup7\n        /* \"RoamingDataManagement.sol\":4102:4138  usageSummaryTablePerVisitingOperator */\n      dup2\n        /* \"RoamingDataManagement.sol\":4102:4156  usageSummaryTablePerVisitingOperator[visitingOperator] */\n      0x00\n        /* \"RoamingDataManagement.sol\":4139:4155  visitingOperator */\n      dup6\n        /* \"RoamingDataManagement.sol\":4102:4156  usageSummaryTablePerVisitingOperator[visitingOperator] */\n      0xffffffffffffffffffffffffffffffffffffffff\n      and\n      0xffffffffffffffffffffffffffffffffffffffff\n      and\n      dup2\n      mstore\n      0x20\n      add\n      swap1\n      dup2\n      mstore\n      0x20\n      add\n      0x00\n      keccak256\n        /* \"RoamingDataManagement.sol\":4102:4172  usageSummaryTablePerVisitingOperator[visitingOperator].serviceProvider */\n      0x02\n      add\n        /* \"RoamingDataManagement.sol\":4102:4190  usageSummaryTablePerVisitingOperator[visitingOperator].serviceProvider = serviceProvider */\n      swap1\n      dup2\n      tag_173\n      swap2\n      swap1\n      tag_165\n      jump\t// in\n    tag_173:\n      pop\n        /* \"RoamingDataManagement.sol\":4272:4286  voiceCallUsage */\n      dup6\n        /* \"RoamingDataManagement.sol\":4200:4236  usageSummaryTablePerVisitingOperator */\n      dup2\n        /* \"RoamingDataManagement.sol\":4200:4254  usageSummaryTablePerVisitingOperator[visitingOperator] */\n      0x00\n        /* \"RoamingDataManagement.sol\":4237:4253  visitingOperator */\n      dup6\n        /* \"RoamingDataManagement.sol\":4200:4254  usageSummaryTablePerVisitingOperator[visitingOperator] */\n      0xffffffffffffffffffffffffffffffffffffffff\n      and\n      0xffffffffffffffffffffffffffffffffffffffff\n      and\n      dup2\n      mstore\n      0x20\n      add\n      swap1\n      dup2\n      mstore\n      0x20\n      add\n      0x00\n      keccak256\n        /* \"RoamingDataManagement.sol\":4200:4269  usageSummaryTablePerVisitingOperator[visitingOperator].voiceCallUsage */\n      0x03\n      add\n        /* \"RoamingDataManagement.sol\":4200:4286  usageSummaryTablePerVisitingOperator[visitingOperator].voiceCallUsage = voiceCallUsage */\n      dup2\n      swap1\n      sstore\n      pop\n        /* \"RoamingDataManagement.sol\":4367:4380  internetUsage */\n      dup5\n        /* \"RoamingDataManagement.sol\":4296:4332  usageSummaryTablePerVisitingOperator */\n      dup2\n        /* \"RoamingDataManagement.sol\":4296:4350  usageSummaryTablePerVisitingOperator[visitingOperator] */\n      0x00\n        /* \"RoamingDataManagement.sol\":4333:4349  visitingOperator */\n      dup6\n        /* \"RoamingDataManagement.sol\":4296:4350  usageSummaryTablePerVisitingOperator[visitingOperator] */\n      0xffffffffffffffffffffffffffffffffffffffff\n      and\n      0xffffffffffffffffffffffffffffffffffffffff\n      and\n      dup2\n      mstore\n      0x20\n      add\n      swap1\n      dup2\n      mstore\n      0x20\n      add\n      0x00\n      keccak256\n        /* \"RoamingDataManagement.sol\":4296:4364  usageSummaryTablePerVisitingOperator[visitingOperator].internetUsage */\n      0x04\n      add\n        /* \"RoamingDataManagement.sol\":4296:4380  usageSummaryTablePerVisitingOperator[visitingOperator].internetUsage = internetUsage */\n      dup2\n      swap1\n      sstore\n      pop\n        /* \"RoamingDataManagement.sol\":4456:4464  smsUsage */\n      dup4\n        /* \"RoamingDataManagement.sol\":4390:4426  usageSummaryTablePerVisitingOperator */\n      dup2\n        /* \"RoamingDataManagement.sol\":4390:4444  usageSummaryTablePerVisitingOperator[visitingOperator] */\n      0x00\n        /* \"RoamingDataManagement.sol\":4427:4443  visitingOperator */\n      dup6\n        /* \"RoamingDataManagement.sol\":4390:4444  usageSummaryTablePerVisitingOperator[visitingOperator] */\n      0xffffffffffffffffffffffffffffffffffffffff\n      and\n      0xffffffffffffffffffffffffffffffffffffffff\n      and\n      dup2\n      mstore\n      0x20\n      add\n      swap1\n      dup2\n      mstore\n      0x20\n      add\n      0x00\n      keccak256\n        /* \"RoamingDataManagement.sol\":4390:4453  usageSummaryTablePerVisitingOperator[visitingOperator].smsUsage */\n      0x05\n      add\n        /* \"RoamingDataManagement.sol\":4390:4464  usageSummaryTablePerVisitingOperator[visitingOperator].smsUsage = smsUsage */\n      dup2\n      swap1\n      sstore\n      pop\n        /* \"RoamingDataManagement.sol\":4586:4591  1 wei */\n      0x01\n        /* \"RoamingDataManagement.sol\":4540:4544  bank */\n      0x09\n        /* \"RoamingDataManagement.sol\":4540:4582  bank[operatorsNameToAddr[serviceProvider]] */\n      0x00\n        /* \"RoamingDataManagement.sol\":4545:4564  operatorsNameToAddr */\n      0x03\n        /* \"RoamingDataManagement.sol\":4565:4580  serviceProvider */\n      dup11\n        /* \"RoamingDataManagement.sol\":4545:4581  operatorsNameToAddr[serviceProvider] */\n      mload(0x40)\n      tag_174\n      swap2\n      swap1\n      tag_155\n      jump\t// in\n    tag_174:\n      swap1\n      dup2\n      mstore\n      0x20\n      add\n      mload(0x40)\n      dup1\n      swap2\n      sub\n      swap1\n      keccak256\n      0x00\n      swap1\n      sload\n      swap1\n      0x0100\n      exp\n      swap1\n      div\n      0xffffffffffffffffffffffffffffffffffffffff\n      and\n        /* \"RoamingDataManagement.sol\":4540:4582  bank[operatorsNameToAddr[serviceProvider]] */\n      0xffffffffffffffffffffffffffffffffffffffff\n      and\n      0xffffffffffffffffffffffffffffffffffffffff\n      and\n      dup2\n      mstore\n      0x20\n      add\n      swap1\n      dup2\n      mstore\n      0x20\n      add\n      0x00\n      keccak256\n      0x00\n        /* \"RoamingDataManagement.sol\":4540:4591  bank[operatorsNameToAddr[serviceProvider]] -= 1 wei */\n      dup3\n      dup3\n      sload\n      tag_175\n      swap2\n      swap1\n      tag_176\n      jump\t// in\n    tag_175:\n      swap3\n      pop\n      pop\n      dup2\n      swap1\n      sstore\n      pop\n        /* \"RoamingDataManagement.sol\":4627:4632  1 wei */\n      0x01\n        /* \"RoamingDataManagement.sol\":4601:4605  bank */\n      0x09\n        /* \"RoamingDataManagement.sol\":4601:4623  bank[visitingOperator] */\n      0x00\n        /* \"RoamingDataManagement.sol\":4606:4622  visitingOperator */\n      dup6\n        /* \"RoamingDataManagement.sol\":4601:4623  bank[visitingOperator] */\n      0xffffffffffffffffffffffffffffffffffffffff\n      and\n      0xffffffffffffffffffffffffffffffffffffffff\n      and\n      dup2\n      mstore\n      0x20\n      add\n      swap1\n      dup2\n      mstore\n      0x20\n      add\n      0x00\n      keccak256\n      0x00\n        /* \"RoamingDataManagement.sol\":4601:4632  bank[visitingOperator] += 1 wei */\n      dup3\n      dup3\n      sload\n      tag_177\n      swap2\n      swap1\n      tag_178\n      jump\t// in\n    tag_177:\n      swap3\n      pop\n      pop\n      dup2\n      swap1\n      sstore\n      pop\n        /* \"RoamingDataManagement.sol\":4642:4684  transfer(payable(visitingOperator), 1 wei) */\n      tag_179\n        /* \"RoamingDataManagement.sol\":4659:4675  visitingOperator */\n      dup4\n        /* \"RoamingDataManagement.sol\":4678:4683  1 wei */\n      0x01\n        /* \"RoamingDataManagement.sol\":4642:4650  transfer */\n      tag_85\n        /* \"RoamingDataManagement.sol\":4642:4684  transfer(payable(visitingOperator), 1 wei) */\n      jump\t// in\n    tag_179:\n        /* \"RoamingDataManagement.sol\":3178:4747  {... */\n      pop\n      pop\n      pop\n        /* \"RoamingDataManagement.sol\":2997:4747  function uploadUserDataSummary(string memory imsi, string memory number, string memory serviceProvider, ... */\n      pop\n      pop\n      pop\n      pop\n      pop\n      pop\n      jump\t// out\n        /* \"RoamingDataManagement.sol\":5080:5718  function fetchUserDataSummary(string memory visitingOperatorName) public view returns(string[] memory, UserDataSummary[] memory) {... */\n    tag_78:\n        /* \"RoamingDataManagement.sol\":5166:5181  string[] memory */\n      0x60\n        /* \"RoamingDataManagement.sol\":5183:5207  UserDataSummary[] memory */\n      dup1\n        /* \"RoamingDataManagement.sol\":5219:5243  address homeOperatorAddr */\n      0x00\n        /* \"RoamingDataManagement.sol\":5246:5256  msg.sender */\n      caller\n        /* \"RoamingDataManagement.sol\":5219:5256  address homeOperatorAddr = msg.sender */\n      swap1\n      pop\n        /* \"RoamingDataManagement.sol\":5266:5288  string[] storage users */\n      0x00\n        /* \"RoamingDataManagement.sol\":5291:5300  userTable */\n      0x06\n        /* \"RoamingDataManagement.sol\":5291:5318  userTable[homeOperatorAddr] */\n      0x00\n        /* \"RoamingDataManagement.sol\":5301:5317  homeOperatorAddr */\n      dup4\n        /* \"RoamingDataManagement.sol\":5291:5318  userTable[homeOperatorAddr] */\n      0xffffffffffffffffffffffffffffffffffffffff\n      and\n      0xffffffffffffffffffffffffffffffffffffffff\n      and\n      dup2\n      mstore\n      0x20\n      add\n      swap1\n      dup2\n      mstore\n      0x20\n      add\n      0x00\n      keccak256\n        /* \"RoamingDataManagement.sol\":5266:5318  string[] storage users = userTable[homeOperatorAddr] */\n      swap1\n      pop\n        /* \"RoamingDataManagement.sol\":5329:5368  UserDataSummary[] memory dataSummarries */\n      0x00\n        /* \"RoamingDataManagement.sol\":5393:5402  userTable */\n      0x06\n        /* \"RoamingDataManagement.sol\":5393:5420  userTable[homeOperatorAddr] */\n      0x00\n        /* \"RoamingDataManagement.sol\":5403:5419  homeOperatorAddr */\n      dup5\n        /* \"RoamingDataManagement.sol\":5393:5420  userTable[homeOperatorAddr] */\n      0xffffffffffffffffffffffffffffffffffffffff\n      and\n      0xffffffffffffffffffffffffffffffffffffffff\n      and\n      dup2\n      mstore\n      0x20\n      add\n      swap1\n      dup2\n      mstore\n      0x20\n      add\n      0x00\n      keccak256\n        /* \"RoamingDataManagement.sol\":5393:5427  userTable[homeOperatorAddr].length */\n      dup1\n      sload\n      swap1\n      pop\n        /* \"RoamingDataManagement.sol\":5371:5428  new UserDataSummary[](userTable[homeOperatorAddr].length) */\n      0xffffffffffffffff\n      dup2\n      gt\n      iszero\n      tag_181\n      jumpi\n      tag_182\n      tag_183\n      jump\t// in\n    tag_182:\n    tag_181:\n      mload(0x40)\n      swap1\n      dup1\n      dup3\n      mstore\n      dup1\n      0x20\n      mul\n      0x20\n      add\n      dup3\n      add\n      0x40\n      mstore\n      dup1\n      iszero\n      tag_184\n      jumpi\n      dup2\n      0x20\n      add\n    tag_185:\n      tag_186\n      tag_187\n      jump\t// in\n    tag_186:\n      dup2\n      mstore\n      0x20\n      add\n      swap1\n      0x01\n      swap1\n      sub\n      swap1\n      dup2\n      tag_185\n      jumpi\n      swap1\n      pop\n    tag_184:\n      pop\n        /* \"RoamingDataManagement.sol\":5329:5428  UserDataSummary[] memory dataSummarries = new UserDataSummary[](userTable[homeOperatorAddr].length) */\n      swap1\n      pop\n        /* \"RoamingDataManagement.sol\":5443:5449  uint i */\n      0x00\n        /* \"RoamingDataManagement.sol\":5438:5649  for (uint i = 0; i < users.length; ++i) {... */\n    tag_188:\n        /* \"RoamingDataManagement.sol\":5459:5464  users */\n      dup3\n        /* \"RoamingDataManagement.sol\":5459:5471  users.length */\n      dup1\n      sload\n      swap1\n      pop\n        /* \"RoamingDataManagement.sol\":5455:5456  i */\n      dup2\n        /* \"RoamingDataManagement.sol\":5455:5471  i < users.length */\n      lt\n        /* \"RoamingDataManagement.sol\":5438:5649  for (uint i = 0; i < users.length; ++i) {... */\n      iszero\n      tag_189\n      jumpi\n        /* \"RoamingDataManagement.sol\":5492:5510  string memory imsi */\n      0x00\n        /* \"RoamingDataManagement.sol\":5513:5518  users */\n      dup4\n        /* \"RoamingDataManagement.sol\":5519:5520  i */\n      dup3\n        /* \"RoamingDataManagement.sol\":5513:5521  users[i] */\n      dup2\n      sload\n      dup2\n      lt\n      tag_191\n      jumpi\n      tag_192\n      tag_193\n      jump\t// in\n    tag_192:\n    tag_191:\n      swap1\n      0x00\n      mstore\n      keccak256(0x00, 0x20)\n      add\n        /* \"RoamingDataManagement.sol\":5492:5521  string memory imsi = users[i] */\n      dup1\n      sload\n      tag_195\n      swap1\n      tag_115\n      jump\t// in\n    tag_195:\n      dup1\n      0x1f\n      add\n      0x20\n      dup1\n      swap2\n      div\n      mul\n      0x20\n      add\n      mload(0x40)\n      swap1\n      dup2\n      add\n      0x40\n      mstore\n      dup1\n      swap3\n      swap2\n      swap1\n      dup2\n      dup2\n      mstore\n      0x20\n      add\n      dup3\n      dup1\n      sload\n      tag_196\n      swap1\n      tag_115\n      jump\t// in\n    tag_196:\n      dup1\n      iszero\n      tag_197\n      jumpi\n      dup1\n      0x1f\n      lt\n      tag_198\n      jumpi\n      0x0100\n      dup1\n      dup4\n      sload\n      div\n      mul\n      dup4\n      mstore\n      swap2\n      0x20\n      add\n      swap2\n      jump(tag_197)\n    tag_198:\n      dup3\n      add\n      swap2\n      swap1\n      0x00\n      mstore\n      keccak256(0x00, 0x20)\n      swap1\n    tag_199:\n      dup2\n      sload\n      dup2\n      mstore\n      swap1\n      0x01\n      add\n      swap1\n      0x20\n      add\n      dup1\n      dup4\n      gt\n      tag_199\n      jumpi\n      dup3\n      swap1\n      sub\n      0x1f\n      and\n      dup3\n      add\n      swap2\n    tag_197:\n      pop\n      pop\n      pop\n      pop\n      pop\n      swap1\n      pop\n        /* \"RoamingDataManagement.sol\":5555:5571  dataSummaryTable */\n      0x07\n        /* \"RoamingDataManagement.sol\":5555:5589  dataSummaryTable[homeOperatorAddr] */\n      0x00\n        /* \"RoamingDataManagement.sol\":5572:5588  homeOperatorAddr */\n      dup7\n        /* \"RoamingDataManagement.sol\":5555:5589  dataSummaryTable[homeOperatorAddr] */\n      0xffffffffffffffffffffffffffffffffffffffff\n      and\n      0xffffffffffffffffffffffffffffffffffffffff\n      and\n      dup2\n      mstore\n      0x20\n      add\n      swap1\n      dup2\n      mstore\n      0x20\n      add\n      0x00\n      keccak256\n        /* \"RoamingDataManagement.sol\":5590:5594  imsi */\n      dup2\n        /* \"RoamingDataManagement.sol\":5555:5595  dataSummaryTable[homeOperatorAddr][imsi] */\n      mload(0x40)\n      tag_200\n      swap2\n      swap1\n      tag_155\n      jump\t// in\n    tag_200:\n      swap1\n      dup2\n      mstore\n      0x20\n      add\n      mload(0x40)\n      dup1\n      swap2\n      sub\n      swap1\n      keccak256\n        /* \"RoamingDataManagement.sol\":5555:5638  dataSummaryTable[homeOperatorAddr][imsi][operatorsNameToAddr[visitingOperatorName]] */\n      0x00\n        /* \"RoamingDataManagement.sol\":5596:5615  operatorsNameToAddr */\n      0x03\n        /* \"RoamingDataManagement.sol\":5616:5636  visitingOperatorName */\n      dup11\n        /* \"RoamingDataManagement.sol\":5596:5637  operatorsNameToAddr[visitingOperatorName] */\n      mload(0x40)\n      tag_201\n      swap2\n      swap1\n      tag_155\n      jump\t// in\n    tag_201:\n      swap1\n      dup2\n      mstore\n      0x20\n      add\n      mload(0x40)\n      dup1\n      swap2\n      sub\n      swap1\n      keccak256\n      0x00\n      swap1\n      sload\n      swap1\n      0x0100\n      exp\n      swap1\n      div\n      0xffffffffffffffffffffffffffffffffffffffff\n      and\n        /* \"RoamingDataManagement.sol\":5555:5638  dataSummaryTable[homeOperatorAddr][imsi][operatorsNameToAddr[visitingOperatorName]] */\n      0xffffffffffffffffffffffffffffffffffffffff\n      and\n      0xffffffffffffffffffffffffffffffffffffffff\n      and\n      dup2\n      mstore\n      0x20\n      add\n      swap1\n      dup2\n      mstore\n      0x20\n      add\n      0x00\n      keccak256\n        /* \"RoamingDataManagement.sol\":5535:5638  dataSummarries[i] = dataSummaryTable[homeOperatorAddr][imsi][operatorsNameToAddr[visitingOperatorName]] */\n      mload(0x40)\n      dup1\n      0xc0\n      add\n      0x40\n      mstore\n      swap1\n      dup2\n      0x00\n      dup3\n      add\n      dup1\n      sload\n      tag_202\n      swap1\n      tag_115\n      jump\t// in\n    tag_202:\n      dup1\n      0x1f\n      add\n      0x20\n      dup1\n      swap2\n      div\n      mul\n      0x20\n      add\n      mload(0x40)\n      swap1\n      dup2\n      add\n      0x40\n      mstore\n      dup1\n      swap3\n      swap2\n      swap1\n      dup2\n      dup2\n      mstore\n      0x20\n      add\n      dup3\n      dup1\n      sload\n      tag_203\n      swap1\n      tag_115\n      jump\t// in\n    tag_203:\n      dup1\n      iszero\n      tag_204\n      jumpi\n      dup1\n      0x1f\n      lt\n      tag_205\n      jumpi\n      0x0100\n      dup1\n      dup4\n      sload\n      div\n      mul\n      dup4\n      mstore\n      swap2\n      0x20\n      add\n      swap2\n      jump(tag_204)\n    tag_205:\n      dup3\n      add\n      swap2\n      swap1\n      0x00\n      mstore\n      keccak256(0x00, 0x20)\n      swap1\n    tag_206:\n      dup2\n      sload\n      dup2\n      mstore\n      swap1\n      0x01\n      add\n      swap1\n      0x20\n      add\n      dup1\n      dup4\n      gt\n      tag_206\n      jumpi\n      dup3\n      swap1\n      sub\n      0x1f\n      and\n      dup3\n      add\n      swap2\n    tag_204:\n      pop\n      pop\n      pop\n      pop\n      pop\n      dup2\n      mstore\n      0x20\n      add\n      0x01\n      dup3\n      add\n      dup1\n      sload\n      tag_207\n      swap1\n      tag_115\n      jump\t// in\n    tag_207:\n      dup1\n      0x1f\n      add\n      0x20\n      dup1\n      swap2\n      div\n      mul\n      0x20\n      add\n      mload(0x40)\n      swap1\n      dup2\n      add\n      0x40\n      mstore\n      dup1\n      swap3\n      swap2\n      swap1\n      dup2\n      dup2\n      mstore\n      0x20\n      add\n      dup3\n      dup1\n      sload\n      tag_208\n      swap1\n      tag_115\n      jump\t// in\n    tag_208:\n      dup1\n      iszero\n      tag_209\n      jumpi\n      dup1\n      0x1f\n      lt\n      tag_210\n      jumpi\n      0x0100\n      dup1\n      dup4\n      sload\n      div\n      mul\n      dup4\n      mstore\n      swap2\n      0x20\n      add\n      swap2\n      jump(tag_209)\n    tag_210:\n      dup3\n      add\n      swap2\n      swap1\n      0x00\n      mstore\n      keccak256(0x00, 0x20)\n      swap1\n    tag_211:\n      dup2\n      sload\n      dup2\n      mstore\n      swap1\n      0x01\n      add\n      swap1\n      0x20\n      add\n      dup1\n      dup4\n      gt\n      tag_211\n      jumpi\n      dup3\n      swap1\n      sub\n      0x1f\n      and\n      dup3\n      add\n      swap2\n    tag_209:\n      pop\n      pop\n      pop\n      pop\n      pop\n      dup2\n      mstore\n      0x20\n      add\n      0x02\n      dup3\n      add\n      dup1\n      sload\n      tag_212\n      swap1\n      tag_115\n      jump\t// in\n    tag_212:\n      dup1\n      0x1f\n      add\n      0x20\n      dup1\n      swap2\n      div\n      mul\n      0x20\n      add\n      mload(0x40)\n      swap1\n      dup2\n      add\n      0x40\n      mstore\n      dup1\n      swap3\n      swap2\n      swap1\n      dup2\n      dup2\n      mstore\n      0x20\n      add\n      dup3\n      dup1\n      sload\n      tag_213\n      swap1\n      tag_115\n      jump\t// in\n    tag_213:\n      dup1\n      iszero\n      tag_214\n      jumpi\n      dup1\n      0x1f\n      lt\n      tag_215\n      jumpi\n      0x0100\n      dup1\n      dup4\n      sload\n      div\n      mul\n      dup4\n      mstore\n      swap2\n      0x20\n      add\n      swap2\n      jump(tag_214)\n    tag_215:\n      dup3\n      add\n      swap2\n      swap1\n      0x00\n      mstore\n      keccak256(0x00, 0x20)\n      swap1\n    tag_216:\n      dup2\n      sload\n      dup2\n      mstore\n      swap1\n      0x01\n      add\n      swap1\n      0x20\n      add\n      dup1\n      dup4\n      gt\n      tag_216\n      jumpi\n      dup3\n      swap1\n      sub\n      0x1f\n      and\n      dup3\n      add\n      swap2\n    tag_214:\n      pop\n      pop\n      pop\n      pop\n      pop\n      dup2\n      mstore\n      0x20\n      add\n      0x03\n      dup3\n      add\n      sload\n      dup2\n      mstore\n      0x20\n      add\n      0x04\n      dup3\n      add\n      sload\n      dup2\n      mstore\n      0x20\n      add\n      0x05\n      dup3\n      add\n      sload\n      dup2\n      mstore\n      pop\n      pop\n        /* \"RoamingDataManagement.sol\":5535:5549  dataSummarries */\n      dup4\n        /* \"RoamingDataManagement.sol\":5550:5551  i */\n      dup4\n        /* \"RoamingDataManagement.sol\":5535:5552  dataSummarries[i] */\n      dup2\n      mload\n      dup2\n      lt\n      tag_217\n      jumpi\n      tag_218\n      tag_193\n      jump\t// in\n    tag_218:\n    tag_217:\n      0x20\n      mul\n      0x20\n      add\n      add\n        /* \"RoamingDataManagement.sol\":5535:5638  dataSummarries[i] = dataSummaryTable[homeOperatorAddr][imsi][operatorsNameToAddr[visitingOperatorName]] */\n      dup2\n      swap1\n      mstore\n      pop\n        /* \"RoamingDataManagement.sol\":5478:5649  {... */\n      pop\n        /* \"RoamingDataManagement.sol\":5473:5476  ++i */\n      dup1\n      tag_219\n      swap1\n      tag_169\n      jump\t// in\n    tag_219:\n      swap1\n      pop\n        /* \"RoamingDataManagement.sol\":5438:5649  for (uint i = 0; i < users.length; ++i) {... */\n      jump(tag_188)\n    tag_189:\n      pop\n        /* \"RoamingDataManagement.sol\":5667:5676  userTable */\n      0x06\n        /* \"RoamingDataManagement.sol\":5667:5694  userTable[homeOperatorAddr] */\n      0x00\n        /* \"RoamingDataManagement.sol\":5677:5693  homeOperatorAddr */\n      dup5\n        /* \"RoamingDataManagement.sol\":5667:5694  userTable[homeOperatorAddr] */\n      0xffffffffffffffffffffffffffffffffffffffff\n      and\n      0xffffffffffffffffffffffffffffffffffffffff\n      and\n      dup2\n      mstore\n      0x20\n      add\n      swap1\n      dup2\n      mstore\n      0x20\n      add\n      0x00\n      keccak256\n        /* \"RoamingDataManagement.sol\":5696:5710  dataSummarries */\n      dup2\n        /* \"RoamingDataManagement.sol\":5659:5711  return (userTable[homeOperatorAddr], dataSummarries) */\n      dup2\n      dup1\n      sload\n      dup1\n      0x20\n      mul\n      0x20\n      add\n      mload(0x40)\n      swap1\n      dup2\n      add\n      0x40\n      mstore\n      dup1\n      swap3\n      swap2\n      swap1\n      dup2\n      dup2\n      mstore\n      0x20\n      add\n      0x00\n      swap1\n    tag_220:\n      dup3\n      dup3\n      lt\n      iszero\n      tag_221\n      jumpi\n      dup4\n      dup3\n      swap1\n      0x00\n      mstore\n      keccak256(0x00, 0x20)\n      add\n      dup1\n      sload\n      tag_223\n      swap1\n      tag_115\n      jump\t// in\n    tag_223:\n      dup1\n      0x1f\n      add\n      0x20\n      dup1\n      swap2\n      div\n      mul\n      0x20\n      add\n      mload(0x40)\n      swap1\n      dup2\n      add\n      0x40\n      mstore\n      dup1\n      swap3\n      swap2\n      swap1\n      dup2\n      dup2\n      mstore\n      0x20\n      add\n      dup3\n      dup1\n      sload\n      tag_224\n      swap1\n      tag_115\n      jump\t// in\n    tag_224:\n      dup1\n      iszero\n      tag_225\n      jumpi\n      dup1\n      0x1f\n      lt\n      tag_226\n      jumpi\n      0x0100\n      dup1\n      dup4\n      sload\n      div\n      mul\n      dup4\n      mstore\n      swap2\n      0x20\n      add\n      swap2\n      jump(tag_225)\n    tag_226:\n      dup3\n      add\n      swap2\n      swap1\n      0x00\n      mstore\n      keccak256(0x00, 0x20)\n      swap1\n    tag_227:\n      dup2\n      sload\n      dup2\n      mstore\n      swap1\n      0x01\n      add\n      swap1\n      0x20\n      add\n      dup1\n      dup4\n      gt\n      tag_227\n      jumpi\n      dup3\n      swap1\n      sub\n      0x1f\n      and\n      dup3\n      add\n      swap2\n    tag_225:\n      pop\n      pop\n      pop\n      pop\n      pop\n      dup2\n      mstore\n      0x20\n      add\n      swap1\n      0x01\n      add\n      swap1\n      jump(tag_220)\n    tag_221:\n      pop\n      pop\n      pop\n      pop\n      swap2\n      pop\n      swap5\n      pop\n      swap5\n      pop\n      pop\n      pop\n      pop\n        /* \"RoamingDataManagement.sol\":5080:5718  function fetchUserDataSummary(string memory visitingOperatorName) public view returns(string[] memory, UserDataSummary[] memory) {... */\n      swap2\n      pop\n      swap2\n      jump\t// out\n        /* \"RoamingDataManagement.sol\":5799:5973  function transfer(address payable _to, uint _amount) public {... */\n    tag_85:\n        /* \"RoamingDataManagement.sol\":5870:5882  bool success */\n      0x00\n        /* \"RoamingDataManagement.sol\":5888:5891  _to */\n      dup3\n        /* \"RoamingDataManagement.sol\":5888:5896  _to.call */\n      0xffffffffffffffffffffffffffffffffffffffff\n      and\n        /* \"RoamingDataManagement.sol\":5904:5911  _amount */\n      dup3\n        /* \"RoamingDataManagement.sol\":5888:5916  _to.call{value: _amount}(\"\") */\n      mload(0x40)\n      tag_229\n      swap1\n      tag_230\n      jump\t// in\n    tag_229:\n      0x00\n      mload(0x40)\n      dup1\n      dup4\n      sub\n      dup2\n      dup6\n      dup8\n      gas\n      call\n      swap3\n      pop\n      pop\n      pop\n      returndatasize\n      dup1\n      0x00\n      dup2\n      eq\n      tag_233\n      jumpi\n      mload(0x40)\n      swap2\n      pop\n      and(add(returndatasize, 0x3f), not(0x1f))\n      dup3\n      add\n      0x40\n      mstore\n      returndatasize\n      dup3\n      mstore\n      returndatasize\n      0x00\n      0x20\n      dup5\n      add\n      returndatacopy\n      jump(tag_232)\n    tag_233:\n      0x60\n      swap2\n      pop\n    tag_232:\n      pop\n        /* \"RoamingDataManagement.sol\":5869:5916  (bool success, ) = _to.call{value: _amount}(\"\") */\n      pop\n      swap1\n      pop\n        /* \"RoamingDataManagement.sol\":5934:5941  success */\n      dup1\n        /* \"RoamingDataManagement.sol\":5926:5966  require(success, \"Failed to send Ether\") */\n      tag_234\n      jumpi\n      mload(0x40)\n      0x08c379a000000000000000000000000000000000000000000000000000000000\n      dup2\n      mstore\n      0x04\n      add\n      tag_235\n      swap1\n      tag_236\n      jump\t// in\n    tag_235:\n      mload(0x40)\n      dup1\n      swap2\n      sub\n      swap1\n      revert\n    tag_234:\n        /* \"RoamingDataManagement.sol\":5859:5973  {... */\n      pop\n        /* \"RoamingDataManagement.sol\":5799:5973  function transfer(address payable _to, uint _amount) public {... */\n      pop\n      pop\n      jump\t// out\n        /* \"RoamingDataManagement.sol\":4753:4947  function dataSummaryExists(string memory imsi, string memory homeOperator) public view returns(bool) {... */\n    tag_90:\n        /* \"RoamingDataManagement.sol\":4848:4852  bool */\n      0x00\n        /* \"RoamingDataManagement.sol\":4938:4939  0 */\n      dup1\n        /* \"RoamingDataManagement.sol\":4873:4893  numOfUserDataEntries */\n      0x08\n        /* \"RoamingDataManagement.sol\":4873:4928  numOfUserDataEntries[operatorsNameToAddr[homeOperator]] */\n      0x00\n        /* \"RoamingDataManagement.sol\":4894:4913  operatorsNameToAddr */\n      0x03\n        /* \"RoamingDataManagement.sol\":4914:4926  homeOperator */\n      dup6\n        /* \"RoamingDataManagement.sol\":4894:4927  operatorsNameToAddr[homeOperator] */\n      mload(0x40)\n      tag_238\n      swap2\n      swap1\n      tag_155\n      jump\t// in\n    tag_238:\n      swap1\n      dup2\n      mstore\n      0x20\n      add\n      mload(0x40)\n      dup1\n      swap2\n      sub\n      swap1\n      keccak256\n      0x00\n      swap1\n      sload\n      swap1\n      0x0100\n      exp\n      swap1\n      div\n      0xffffffffffffffffffffffffffffffffffffffff\n      and\n        /* \"RoamingDataManagement.sol\":4873:4928  numOfUserDataEntries[operatorsNameToAddr[homeOperator]] */\n      0xffffffffffffffffffffffffffffffffffffffff\n      and\n      0xffffffffffffffffffffffffffffffffffffffff\n      and\n      dup2\n      mstore\n      0x20\n      add\n      swap1\n      dup2\n      mstore\n      0x20\n      add\n      0x00\n      keccak256\n        /* \"RoamingDataManagement.sol\":4929:4933  imsi */\n      dup5\n        /* \"RoamingDataManagement.sol\":4873:4934  numOfUserDataEntries[operatorsNameToAddr[homeOperator]][imsi] */\n      mload(0x40)\n      tag_239\n      swap2\n      swap1\n      tag_155\n      jump\t// in\n    tag_239:\n      swap1\n      dup2\n      mstore\n      0x20\n      add\n      mload(0x40)\n      dup1\n      swap2\n      sub\n      swap1\n      keccak256\n      sload\n        /* \"RoamingDataManagement.sol\":4873:4939  numOfUserDataEntries[operatorsNameToAddr[homeOperator]][imsi] == 0 */\n      eq\n        /* \"RoamingDataManagement.sol\":4871:4940  !(numOfUserDataEntries[operatorsNameToAddr[homeOperator]][imsi] == 0) */\n      iszero\n        /* \"RoamingDataManagement.sol\":4864:4940  return !(numOfUserDataEntries[operatorsNameToAddr[homeOperator]][imsi] == 0) */\n      swap1\n      pop\n        /* \"RoamingDataManagement.sol\":4753:4947  function dataSummaryExists(string memory imsi, string memory homeOperator) public view returns(bool) {... */\n      swap3\n      swap2\n      pop\n      pop\n      jump\t// out\n        /* \"RoamingDataManagement.sol\":1926:2025  function balance() external view returns(uint256)... */\n    tag_95:\n        /* \"RoamingDataManagement.sol\":1967:1974  uint256 */\n      0x00\n        /* \"RoamingDataManagement.sol\":1997:2018  address(this).balance */\n      selfbalance\n        /* \"RoamingDataManagement.sol\":1990:2018  return address(this).balance */\n      swap1\n      pop\n        /* \"RoamingDataManagement.sol\":1926:2025  function balance() external view returns(uint256)... */\n      swap1\n      jump\t// out\n        /* \"RoamingDataManagement.sol\":2031:2991  function registerRoamingOperator(address operatorAddr, string memory operatorName) public payable {... */\n    tag_100:\n        /* \"RoamingDataManagement.sol\":2426:2427  0 */\n      0x00\n        /* \"RoamingDataManagement.sol\":2381:2400  operatorsAddrToName */\n      0x02\n        /* \"RoamingDataManagement.sol\":2381:2414  operatorsAddrToName[operatorAddr] */\n      0x00\n        /* \"RoamingDataManagement.sol\":2401:2413  operatorAddr */\n      dup5\n        /* \"RoamingDataManagement.sol\":2381:2414  operatorsAddrToName[operatorAddr] */\n      0xffffffffffffffffffffffffffffffffffffffff\n      and\n      0xffffffffffffffffffffffffffffffffffffffff\n      and\n      dup2\n      mstore\n      0x20\n      add\n      swap1\n      dup2\n      mstore\n      0x20\n      add\n      0x00\n      keccak256\n        /* \"RoamingDataManagement.sol\":2375:2422  bytes(operatorsAddrToName[operatorAddr]).length */\n      dup1\n      sload\n      tag_242\n      swap1\n      tag_115\n      jump\t// in\n    tag_242:\n      swap1\n      pop\n        /* \"RoamingDataManagement.sol\":2375:2427  bytes(operatorsAddrToName[operatorAddr]).length == 0 */\n      eq\n        /* \"RoamingDataManagement.sol\":2375:2481  bytes(operatorsAddrToName[operatorAddr]).length == 0 && operatorsNameToAddr[operatorName] == address(0x00) */\n      dup1\n      iszero\n      tag_243\n      jumpi\n      pop\n        /* \"RoamingDataManagement.sol\":2476:2480  0x00 */\n      0x00\n        /* \"RoamingDataManagement.sol\":2431:2481  operatorsNameToAddr[operatorName] == address(0x00) */\n      0xffffffffffffffffffffffffffffffffffffffff\n      and\n        /* \"RoamingDataManagement.sol\":2431:2450  operatorsNameToAddr */\n      0x03\n        /* \"RoamingDataManagement.sol\":2451:2463  operatorName */\n      dup3\n        /* \"RoamingDataManagement.sol\":2431:2464  operatorsNameToAddr[operatorName] */\n      mload(0x40)\n      tag_244\n      swap2\n      swap1\n      tag_155\n      jump\t// in\n    tag_244:\n      swap1\n      dup2\n      mstore\n      0x20\n      add\n      mload(0x40)\n      dup1\n      swap2\n      sub\n      swap1\n      keccak256\n      0x00\n      swap1\n      sload\n      swap1\n      0x0100\n      exp\n      swap1\n      div\n      0xffffffffffffffffffffffffffffffffffffffff\n      and\n        /* \"RoamingDataManagement.sol\":2431:2481  operatorsNameToAddr[operatorName] == address(0x00) */\n      0xffffffffffffffffffffffffffffffffffffffff\n      and\n      eq\n        /* \"RoamingDataManagement.sol\":2375:2481  bytes(operatorsAddrToName[operatorAddr]).length == 0 && operatorsNameToAddr[operatorName] == address(0x00) */\n    tag_243:\n        /* \"RoamingDataManagement.sol\":2371:2985  if (bytes(operatorsAddrToName[operatorAddr]).length == 0 && operatorsNameToAddr[operatorName] == address(0x00)) {... */\n      iszero\n      tag_245\n      jumpi\n        /* \"RoamingDataManagement.sol\":2518:2525  100 wei */\n      0x64\n        /* \"RoamingDataManagement.sol\":2505:2514  msg.value */\n      callvalue\n        /* \"RoamingDataManagement.sol\":2505:2525  msg.value >= 100 wei */\n      lt\n      iszero\n        /* \"RoamingDataManagement.sol\":2497:2526  require(msg.value >= 100 wei) */\n      tag_246\n      jumpi\n      0x00\n      dup1\n      revert\n    tag_246:\n        /* \"RoamingDataManagement.sol\":2541:2557  serviceProviders */\n      0x00\n        /* \"RoamingDataManagement.sol\":2563:2575  operatorName */\n      dup2\n        /* \"RoamingDataManagement.sol\":2541:2576  serviceProviders.push(operatorName) */\n      swap1\n      dup1\n      0x01\n      dup2\n      sload\n      add\n      dup1\n      dup3\n      sstore\n      dup1\n      swap2\n      pop\n      pop\n      0x01\n      swap1\n      sub\n      swap1\n      0x00\n      mstore\n      keccak256(0x00, 0x20)\n      add\n      0x00\n      swap1\n      swap2\n      swap1\n      swap2\n      swap1\n      swap2\n      pop\n      swap1\n      dup2\n      tag_248\n      swap2\n      swap1\n      tag_165\n      jump\t// in\n    tag_248:\n      pop\n        /* \"RoamingDataManagement.sol\":2590:2607  operatorAddresses */\n      0x01\n        /* \"RoamingDataManagement.sol\":2613:2625  operatorAddr */\n      dup3\n        /* \"RoamingDataManagement.sol\":2590:2626  operatorAddresses.push(operatorAddr) */\n      swap1\n      dup1\n      0x01\n      dup2\n      sload\n      add\n      dup1\n      dup3\n      sstore\n      dup1\n      swap2\n      pop\n      pop\n      0x01\n      swap1\n      sub\n      swap1\n      0x00\n      mstore\n      keccak256(0x00, 0x20)\n      add\n      0x00\n      swap1\n      swap2\n      swap1\n      swap2\n      swap1\n      swap2\n      0x0100\n      exp\n      dup2\n      sload\n      dup2\n      0xffffffffffffffffffffffffffffffffffffffff\n      mul\n      not\n      and\n      swap1\n      dup4\n      0xffffffffffffffffffffffffffffffffffffffff\n      and\n      mul\n      or\n      swap1\n      sstore\n      pop\n        /* \"RoamingDataManagement.sol\":2679:2691  operatorAddr */\n      dup2\n        /* \"RoamingDataManagement.sol\":2643:2662  operatorsNameToAddr */\n      0x03\n        /* \"RoamingDataManagement.sol\":2663:2675  operatorName */\n      dup3\n        /* \"RoamingDataManagement.sol\":2643:2676  operatorsNameToAddr[operatorName] */\n      mload(0x40)\n      tag_250\n      swap2\n      swap1\n      tag_155\n      jump\t// in\n    tag_250:\n      swap1\n      dup2\n      mstore\n      0x20\n      add\n      mload(0x40)\n      dup1\n      swap2\n      sub\n      swap1\n      keccak256\n      0x00\n        /* \"RoamingDataManagement.sol\":2643:2691  operatorsNameToAddr[operatorName] = operatorAddr */\n      0x0100\n      exp\n      dup2\n      sload\n      dup2\n      0xffffffffffffffffffffffffffffffffffffffff\n      mul\n      not\n      and\n      swap1\n      dup4\n      0xffffffffffffffffffffffffffffffffffffffff\n      and\n      mul\n      or\n      swap1\n      sstore\n      pop\n        /* \"RoamingDataManagement.sol\":2741:2753  operatorName */\n      dup1\n        /* \"RoamingDataManagement.sol\":2705:2724  operatorsAddrToName */\n      0x02\n        /* \"RoamingDataManagement.sol\":2705:2738  operatorsAddrToName[operatorAddr] */\n      0x00\n        /* \"RoamingDataManagement.sol\":2725:2737  operatorAddr */\n      dup5\n        /* \"RoamingDataManagement.sol\":2705:2738  operatorsAddrToName[operatorAddr] */\n      0xffffffffffffffffffffffffffffffffffffffff\n      and\n      0xffffffffffffffffffffffffffffffffffffffff\n      and\n      dup2\n      mstore\n      0x20\n      add\n      swap1\n      dup2\n      mstore\n      0x20\n      add\n      0x00\n      keccak256\n        /* \"RoamingDataManagement.sol\":2705:2753  operatorsAddrToName[operatorAddr] = operatorName */\n      swap1\n      dup2\n      tag_251\n      swap2\n      swap1\n      tag_165\n      jump\t// in\n    tag_251:\n      pop\n        /* \"RoamingDataManagement.sol\":2789:2798  msg.value */\n      callvalue\n        /* \"RoamingDataManagement.sol\":2767:2771  bank */\n      0x09\n        /* \"RoamingDataManagement.sol\":2767:2785  bank[operatorAddr] */\n      0x00\n        /* \"RoamingDataManagement.sol\":2772:2784  operatorAddr */\n      dup5\n        /* \"RoamingDataManagement.sol\":2767:2785  bank[operatorAddr] */\n      0xffffffffffffffffffffffffffffffffffffffff\n      and\n      0xffffffffffffffffffffffffffffffffffffffff\n      and\n      dup2\n      mstore\n      0x20\n      add\n      swap1\n      dup2\n      mstore\n      0x20\n      add\n      0x00\n      keccak256\n      0x00\n        /* \"RoamingDataManagement.sol\":2767:2798  bank[operatorAddr] += msg.value */\n      dup3\n      dup3\n      sload\n      tag_252\n      swap2\n      swap1\n      tag_178\n      jump\t// in\n    tag_252:\n      swap3\n      pop\n      pop\n      dup2\n      swap1\n      sstore\n      pop\n        /* \"RoamingDataManagement.sol\":2371:2985  if (bytes(operatorsAddrToName[operatorAddr]).length == 0 && operatorsNameToAddr[operatorName] == address(0x00)) {... */\n    tag_245:\n        /* \"RoamingDataManagement.sol\":2031:2991  function registerRoamingOperator(address operatorAddr, string memory operatorName) public payable {... */\n      pop\n      pop\n      jump\t// out\n        /* \"RoamingDataManagement.sol\":1762:1842  function deposit() public payable... */\n    tag_102:\n        /* \"RoamingDataManagement.sol\":1826:1835  msg.value */\n      callvalue\n        /* \"RoamingDataManagement.sol\":1810:1822  totalDeposit */\n      0x04\n      0x00\n        /* \"RoamingDataManagement.sol\":1810:1835  totalDeposit += msg.value */\n      dup3\n      dup3\n      sload\n      tag_254\n      swap2\n      swap1\n      tag_178\n      jump\t// in\n    tag_254:\n      swap3\n      pop\n      pop\n      dup2\n      swap1\n      sstore\n      pop\n        /* \"RoamingDataManagement.sol\":1762:1842  function deposit() public payable... */\n      jump\t// out\n        /* \"RoamingDataManagement.sol\":725:749  uint public totalDeposit */\n    tag_105:\n      sload(0x04)\n      dup2\n      jump\t// out\n        /* \"RoamingDataManagement.sol\":660:713  mapping(string => address) public operatorsNameToAddr */\n    tag_110:\n      0x03\n      dup2\n      dup1\n      mload\n      0x20\n      dup2\n      add\n      dup3\n      add\n      dup1\n      mload\n      dup5\n      dup3\n      mstore\n      0x20\n      dup4\n      add\n      0x20\n      dup6\n      add\n      keccak256\n      dup2\n      dup4\n      mstore\n      dup1\n      swap6\n      pop\n      pop\n      pop\n      pop\n      pop\n      pop\n      0x00\n      swap2\n      pop\n      sload\n      swap1\n      0x0100\n      exp\n      swap1\n      div\n      0xffffffffffffffffffffffffffffffffffffffff\n      and\n      dup2\n      jump\t// out\n    tag_187:\n      mload(0x40)\n      dup1\n      0xc0\n      add\n      0x40\n      mstore\n      dup1\n      0x60\n      dup2\n      mstore\n      0x20\n      add\n      0x60\n      dup2\n      mstore\n      0x20\n      add\n      0x60\n      dup2\n      mstore\n      0x20\n      add\n      0x00\n      dup2\n      mstore\n      0x20\n      add\n      0x00\n      dup2\n      mstore\n      0x20\n      add\n      0x00\n      dup2\n      mstore\n      pop\n      swap1\n      jump\t// out\n        /* \"#utility.yul\":7:82   */\n    tag_255:\n        /* \"#utility.yul\":40:46   */\n      0x00\n        /* \"#utility.yul\":73:75   */\n      0x40\n        /* \"#utility.yul\":67:76   */\n      mload\n        /* \"#utility.yul\":57:76   */\n      swap1\n      pop\n        /* \"#utility.yul\":7:82   */\n      swap1\n      jump\t// out\n        /* \"#utility.yul\":88:205   */\n    tag_256:\n        /* \"#utility.yul\":197:198   */\n      0x00\n        /* \"#utility.yul\":194:195   */\n      dup1\n        /* \"#utility.yul\":187:199   */\n      revert\n        /* \"#utility.yul\":211:328   */\n    tag_257:\n        /* \"#utility.yul\":320:321   */\n      0x00\n        /* \"#utility.yul\":317:318   */\n      dup1\n        /* \"#utility.yul\":310:322   */\n      revert\n        /* \"#utility.yul\":334:411   */\n    tag_258:\n        /* \"#utility.yul\":371:378   */\n      0x00\n        /* \"#utility.yul\":400:405   */\n      dup2\n        /* \"#utility.yul\":389:405   */\n      swap1\n      pop\n        /* \"#utility.yul\":334:411   */\n      swap2\n      swap1\n      pop\n      jump\t// out\n        /* \"#utility.yul\":417:539   */\n    tag_259:\n        /* \"#utility.yul\":490:514   */\n      tag_331\n        /* \"#utility.yul\":508:513   */\n      dup2\n        /* \"#utility.yul\":490:514   */\n      tag_258\n      jump\t// in\n    tag_331:\n        /* \"#utility.yul\":483:488   */\n      dup2\n        /* \"#utility.yul\":480:515   */\n      eq\n        /* \"#utility.yul\":470:533   */\n      tag_332\n      jumpi\n        /* \"#utility.yul\":529:530   */\n      0x00\n        /* \"#utility.yul\":526:527   */\n      dup1\n        /* \"#utility.yul\":519:531   */\n      revert\n        /* \"#utility.yul\":470:533   */\n    tag_332:\n        /* \"#utility.yul\":417:539   */\n      pop\n      jump\t// out\n        /* \"#utility.yul\":545:684   */\n    tag_260:\n        /* \"#utility.yul\":591:596   */\n      0x00\n        /* \"#utility.yul\":629:635   */\n      dup2\n        /* \"#utility.yul\":616:636   */\n      calldataload\n        /* \"#utility.yul\":607:636   */\n      swap1\n      pop\n        /* \"#utility.yul\":645:678   */\n      tag_334\n        /* \"#utility.yul\":672:677   */\n      dup2\n        /* \"#utility.yul\":645:678   */\n      tag_259\n      jump\t// in\n    tag_334:\n        /* \"#utility.yul\":545:684   */\n      swap3\n      swap2\n      pop\n      pop\n      jump\t// out\n        /* \"#utility.yul\":690:1019   */\n    tag_28:\n        /* \"#utility.yul\":749:755   */\n      0x00\n        /* \"#utility.yul\":798:800   */\n      0x20\n        /* \"#utility.yul\":786:795   */\n      dup3\n        /* \"#utility.yul\":777:784   */\n      dup5\n        /* \"#utility.yul\":773:796   */\n      sub\n        /* \"#utility.yul\":769:801   */\n      slt\n        /* \"#utility.yul\":766:885   */\n      iszero\n      tag_336\n      jumpi\n        /* \"#utility.yul\":804:883   */\n      tag_337\n      tag_256\n      jump\t// in\n    tag_337:\n        /* \"#utility.yul\":766:885   */\n    tag_336:\n        /* \"#utility.yul\":924:925   */\n      0x00\n        /* \"#utility.yul\":949:1002   */\n      tag_338\n        /* \"#utility.yul\":994:1001   */\n      dup5\n        /* \"#utility.yul\":985:991   */\n      dup3\n        /* \"#utility.yul\":974:983   */\n      dup6\n        /* \"#utility.yul\":970:992   */\n      add\n        /* \"#utility.yul\":949:1002   */\n      tag_260\n      jump\t// in\n    tag_338:\n        /* \"#utility.yul\":939:1002   */\n      swap2\n      pop\n        /* \"#utility.yul\":895:1012   */\n      pop\n        /* \"#utility.yul\":690:1019   */\n      swap3\n      swap2\n      pop\n      pop\n      jump\t// out\n        /* \"#utility.yul\":1025:1124   */\n    tag_261:\n        /* \"#utility.yul\":1077:1083   */\n      0x00\n        /* \"#utility.yul\":1111:1116   */\n      dup2\n        /* \"#utility.yul\":1105:1117   */\n      mload\n        /* \"#utility.yul\":1095:1117   */\n      swap1\n      pop\n        /* \"#utility.yul\":1025:1124   */\n      swap2\n      swap1\n      pop\n      jump\t// out\n        /* \"#utility.yul\":1130:1299   */\n    tag_262:\n        /* \"#utility.yul\":1214:1225   */\n      0x00\n        /* \"#utility.yul\":1248:1254   */\n      dup3\n        /* \"#utility.yul\":1243:1246   */\n      dup3\n        /* \"#utility.yul\":1236:1255   */\n      mstore\n        /* \"#utility.yul\":1288:1292   */\n      0x20\n        /* \"#utility.yul\":1283:1286   */\n      dup3\n        /* \"#utility.yul\":1279:1293   */\n      add\n        /* \"#utility.yul\":1264:1293   */\n      swap1\n      pop\n        /* \"#utility.yul\":1130:1299   */\n      swap3\n      swap2\n      pop\n      pop\n      jump\t// out\n        /* \"#utility.yul\":1305:1551   */\n    tag_263:\n        /* \"#utility.yul\":1386:1387   */\n      0x00\n        /* \"#utility.yul\":1396:1509   */\n    tag_342:\n        /* \"#utility.yul\":1410:1416   */\n      dup4\n        /* \"#utility.yul\":1407:1408   */\n      dup2\n        /* \"#utility.yul\":1404:1417   */\n      lt\n        /* \"#utility.yul\":1396:1509   */\n      iszero\n      tag_344\n      jumpi\n        /* \"#utility.yul\":1495:1496   */\n      dup1\n        /* \"#utility.yul\":1490:1493   */\n      dup3\n        /* \"#utility.yul\":1486:1497   */\n      add\n        /* \"#utility.yul\":1480:1498   */\n      mload\n        /* \"#utility.yul\":1476:1477   */\n      dup2\n        /* \"#utility.yul\":1471:1474   */\n      dup5\n        /* \"#utility.yul\":1467:1478   */\n      add\n        /* \"#utility.yul\":1460:1499   */\n      mstore\n        /* \"#utility.yul\":1432:1434   */\n      0x20\n        /* \"#utility.yul\":1429:1430   */\n      dup2\n        /* \"#utility.yul\":1425:1435   */\n      add\n        /* \"#utility.yul\":1420:1435   */\n      swap1\n      pop\n        /* \"#utility.yul\":1396:1509   */\n      jump(tag_342)\n    tag_344:\n        /* \"#utility.yul\":1543:1544   */\n      0x00\n        /* \"#utility.yul\":1534:1540   */\n      dup5\n        /* \"#utility.yul\":1529:1532   */\n      dup5\n        /* \"#utility.yul\":1525:1541   */\n      add\n        /* \"#utility.yul\":1518:1545   */\n      mstore\n        /* \"#utility.yul\":1367:1551   */\n      pop\n        /* \"#utility.yul\":1305:1551   */\n      pop\n      pop\n      pop\n      jump\t// out\n        /* \"#utility.yul\":1557:1659   */\n    tag_264:\n        /* \"#utility.yul\":1598:1604   */\n      0x00\n        /* \"#utility.yul\":1649:1651   */\n      0x1f\n        /* \"#utility.yul\":1645:1652   */\n      not\n        /* \"#utility.yul\":1640:1642   */\n      0x1f\n        /* \"#utility.yul\":1633:1638   */\n      dup4\n        /* \"#utility.yul\":1629:1643   */\n      add\n        /* \"#utility.yul\":1625:1653   */\n      and\n        /* \"#utility.yul\":1615:1653   */\n      swap1\n      pop\n        /* \"#utility.yul\":1557:1659   */\n      swap2\n      swap1\n      pop\n      jump\t// out\n        /* \"#utility.yul\":1665:2042   */\n    tag_265:\n        /* \"#utility.yul\":1753:1756   */\n      0x00\n        /* \"#utility.yul\":1781:1820   */\n      tag_347\n        /* \"#utility.yul\":1814:1819   */\n      dup3\n        /* \"#utility.yul\":1781:1820   */\n      tag_261\n      jump\t// in\n    tag_347:\n        /* \"#utility.yul\":1836:1907   */\n      tag_348\n        /* \"#utility.yul\":1900:1906   */\n      dup2\n        /* \"#utility.yul\":1895:1898   */\n      dup6\n        /* \"#utility.yul\":1836:1907   */\n      tag_262\n      jump\t// in\n    tag_348:\n        /* \"#utility.yul\":1829:1907   */\n      swap4\n      pop\n        /* \"#utility.yul\":1916:1981   */\n      tag_349\n        /* \"#utility.yul\":1974:1980   */\n      dup2\n        /* \"#utility.yul\":1969:1972   */\n      dup6\n        /* \"#utility.yul\":1962:1966   */\n      0x20\n        /* \"#utility.yul\":1955:1960   */\n      dup7\n        /* \"#utility.yul\":1951:1967   */\n      add\n        /* \"#utility.yul\":1916:1981   */\n      tag_263\n      jump\t// in\n    tag_349:\n        /* \"#utility.yul\":2006:2035   */\n      tag_350\n        /* \"#utility.yul\":2028:2034   */\n      dup2\n        /* \"#utility.yul\":2006:2035   */\n      tag_264\n      jump\t// in\n    tag_350:\n        /* \"#utility.yul\":2001:2004   */\n      dup5\n        /* \"#utility.yul\":1997:2036   */\n      add\n        /* \"#utility.yul\":1990:2036   */\n      swap2\n      pop\n        /* \"#utility.yul\":1757:2042   */\n      pop\n        /* \"#utility.yul\":1665:2042   */\n      swap3\n      swap2\n      pop\n      pop\n      jump\t// out\n        /* \"#utility.yul\":2048:2361   */\n    tag_31:\n        /* \"#utility.yul\":2161:2165   */\n      0x00\n        /* \"#utility.yul\":2199:2201   */\n      0x20\n        /* \"#utility.yul\":2188:2197   */\n      dup3\n        /* \"#utility.yul\":2184:2202   */\n      add\n        /* \"#utility.yul\":2176:2202   */\n      swap1\n      pop\n        /* \"#utility.yul\":2248:2257   */\n      dup2\n        /* \"#utility.yul\":2242:2246   */\n      dup2\n        /* \"#utility.yul\":2238:2258   */\n      sub\n        /* \"#utility.yul\":2234:2235   */\n      0x00\n        /* \"#utility.yul\":2223:2232   */\n      dup4\n        /* \"#utility.yul\":2219:2236   */\n      add\n        /* \"#utility.yul\":2212:2259   */\n      mstore\n        /* \"#utility.yul\":2276:2354   */\n      tag_352\n        /* \"#utility.yul\":2349:2353   */\n      dup2\n        /* \"#utility.yul\":2340:2346   */\n      dup5\n        /* \"#utility.yul\":2276:2354   */\n      tag_265\n      jump\t// in\n    tag_352:\n        /* \"#utility.yul\":2268:2354   */\n      swap1\n      pop\n        /* \"#utility.yul\":2048:2361   */\n      swap3\n      swap2\n      pop\n      pop\n      jump\t// out\n        /* \"#utility.yul\":2367:2493   */\n    tag_266:\n        /* \"#utility.yul\":2404:2411   */\n      0x00\n        /* \"#utility.yul\":2444:2486   */\n      0xffffffffffffffffffffffffffffffffffffffff\n        /* \"#utility.yul\":2437:2442   */\n      dup3\n        /* \"#utility.yul\":2433:2487   */\n      and\n        /* \"#utility.yul\":2422:2487   */\n      swap1\n      pop\n        /* \"#utility.yul\":2367:2493   */\n      swap2\n      swap1\n      pop\n      jump\t// out\n        /* \"#utility.yul\":2499:2595   */\n    tag_267:\n        /* \"#utility.yul\":2536:2543   */\n      0x00\n        /* \"#utility.yul\":2565:2589   */\n      tag_355\n        /* \"#utility.yul\":2583:2588   */\n      dup3\n        /* \"#utility.yul\":2565:2589   */\n      tag_266\n      jump\t// in\n    tag_355:\n        /* \"#utility.yul\":2554:2589   */\n      swap1\n      pop\n        /* \"#utility.yul\":2499:2595   */\n      swap2\n      swap1\n      pop\n      jump\t// out\n        /* \"#utility.yul\":2601:2719   */\n    tag_268:\n        /* \"#utility.yul\":2688:2712   */\n      tag_357\n        /* \"#utility.yul\":2706:2711   */\n      dup2\n        /* \"#utility.yul\":2688:2712   */\n      tag_267\n      jump\t// in\n    tag_357:\n        /* \"#utility.yul\":2683:2686   */\n      dup3\n        /* \"#utility.yul\":2676:2713   */\n      mstore\n        /* \"#utility.yul\":2601:2719   */\n      pop\n      pop\n      jump\t// out\n        /* \"#utility.yul\":2725:2843   */\n    tag_269:\n        /* \"#utility.yul\":2812:2836   */\n      tag_359\n        /* \"#utility.yul\":2830:2835   */\n      dup2\n        /* \"#utility.yul\":2812:2836   */\n      tag_258\n      jump\t// in\n    tag_359:\n        /* \"#utility.yul\":2807:2810   */\n      dup3\n        /* \"#utility.yul\":2800:2837   */\n      mstore\n        /* \"#utility.yul\":2725:2843   */\n      pop\n      pop\n      jump\t// out\n        /* \"#utility.yul\":2849:3402   */\n    tag_37:\n        /* \"#utility.yul\":3026:3030   */\n      0x00\n        /* \"#utility.yul\":3064:3067   */\n      0x80\n        /* \"#utility.yul\":3053:3062   */\n      dup3\n        /* \"#utility.yul\":3049:3068   */\n      add\n        /* \"#utility.yul\":3041:3068   */\n      swap1\n      pop\n        /* \"#utility.yul\":3078:3149   */\n      tag_361\n        /* \"#utility.yul\":3146:3147   */\n      0x00\n        /* \"#utility.yul\":3135:3144   */\n      dup4\n        /* \"#utility.yul\":3131:3148   */\n      add\n        /* \"#utility.yul\":3122:3128   */\n      dup8\n        /* \"#utility.yul\":3078:3149   */\n      tag_268\n      jump\t// in\n    tag_361:\n        /* \"#utility.yul\":3159:3231   */\n      tag_362\n        /* \"#utility.yul\":3227:3229   */\n      0x20\n        /* \"#utility.yul\":3216:3225   */\n      dup4\n        /* \"#utility.yul\":3212:3230   */\n      add\n        /* \"#utility.yul\":3203:3209   */\n      dup7\n        /* \"#utility.yul\":3159:3231   */\n      tag_268\n      jump\t// in\n    tag_362:\n        /* \"#utility.yul\":3241:3313   */\n      tag_363\n        /* \"#utility.yul\":3309:3311   */\n      0x40\n        /* \"#utility.yul\":3298:3307   */\n      dup4\n        /* \"#utility.yul\":3294:3312   */\n      add\n        /* \"#utility.yul\":3285:3291   */\n      dup6\n        /* \"#utility.yul\":3241:3313   */\n      tag_269\n      jump\t// in\n    tag_363:\n        /* \"#utility.yul\":3323:3395   */\n      tag_364\n        /* \"#utility.yul\":3391:3393   */\n      0x60\n        /* \"#utility.yul\":3380:3389   */\n      dup4\n        /* \"#utility.yul\":3376:3394   */\n      add\n        /* \"#utility.yul\":3367:3373   */\n      dup5\n        /* \"#utility.yul\":3323:3395   */\n      tag_269\n      jump\t// in\n    tag_364:\n        /* \"#utility.yul\":2849:3402   */\n      swap6\n      swap5\n      pop\n      pop\n      pop\n      pop\n      pop\n      jump\t// out\n        /* \"#utility.yul\":3408:3530   */\n    tag_270:\n        /* \"#utility.yul\":3481:3505   */\n      tag_366\n        /* \"#utility.yul\":3499:3504   */\n      dup2\n        /* \"#utility.yul\":3481:3505   */\n      tag_267\n      jump\t// in\n    tag_366:\n        /* \"#utility.yul\":3474:3479   */\n      dup2\n        /* \"#utility.yul\":3471:3506   */\n      eq\n        /* \"#utility.yul\":3461:3524   */\n      tag_367\n      jumpi\n        /* \"#utility.yul\":3520:3521   */\n      0x00\n        /* \"#utility.yul\":3517:3518   */\n      dup1\n        /* \"#utility.yul\":3510:3522   */\n      revert\n        /* \"#utility.yul\":3461:3524   */\n    tag_367:\n        /* \"#utility.yul\":3408:3530   */\n      pop\n      jump\t// out\n        /* \"#utility.yul\":3536:3675   */\n    tag_271:\n        /* \"#utility.yul\":3582:3587   */\n      0x00\n        /* \"#utility.yul\":3620:3626   */\n      dup2\n        /* \"#utility.yul\":3607:3627   */\n      calldataload\n        /* \"#utility.yul\":3598:3627   */\n      swap1\n      pop\n        /* \"#utility.yul\":3636:3669   */\n      tag_369\n        /* \"#utility.yul\":3663:3668   */\n      dup2\n        /* \"#utility.yul\":3636:3669   */\n      tag_270\n      jump\t// in\n    tag_369:\n        /* \"#utility.yul\":3536:3675   */\n      swap3\n      swap2\n      pop\n      pop\n      jump\t// out\n        /* \"#utility.yul\":3681:3798   */\n    tag_272:\n        /* \"#utility.yul\":3790:3791   */\n      0x00\n        /* \"#utility.yul\":3787:3788   */\n      dup1\n        /* \"#utility.yul\":3780:3792   */\n      revert\n        /* \"#utility.yul\":3804:3921   */\n    tag_273:\n        /* \"#utility.yul\":3913:3914   */\n      0x00\n        /* \"#utility.yul\":3910:3911   */\n      dup1\n        /* \"#utility.yul\":3903:3915   */\n      revert\n        /* \"#utility.yul\":3927:4107   */\n    tag_183:\n        /* \"#utility.yul\":3975:4052   */\n      0x4e487b7100000000000000000000000000000000000000000000000000000000\n        /* \"#utility.yul\":3972:3973   */\n      0x00\n        /* \"#utility.yul\":3965:4053   */\n      mstore\n        /* \"#utility.yul\":4072:4076   */\n      0x41\n        /* \"#utility.yul\":4069:4070   */\n      0x04\n        /* \"#utility.yul\":4062:4077   */\n      mstore\n        /* \"#utility.yul\":4096:4100   */\n      0x24\n        /* \"#utility.yul\":4093:4094   */\n      0x00\n        /* \"#utility.yul\":4086:4101   */\n      revert\n        /* \"#utility.yul\":4113:4394   */\n    tag_274:\n        /* \"#utility.yul\":4196:4223   */\n      tag_374\n        /* \"#utility.yul\":4218:4222   */\n      dup3\n        /* \"#utility.yul\":4196:4223   */\n      tag_264\n      jump\t// in\n    tag_374:\n        /* \"#utility.yul\":4188:4194   */\n      dup2\n        /* \"#utility.yul\":4184:4224   */\n      add\n        /* \"#utility.yul\":4326:4332   */\n      dup2\n        /* \"#utility.yul\":4314:4324   */\n      dup2\n        /* \"#utility.yul\":4311:4333   */\n      lt\n        /* \"#utility.yul\":4290:4308   */\n      0xffffffffffffffff\n        /* \"#utility.yul\":4278:4288   */\n      dup3\n        /* \"#utility.yul\":4275:4309   */\n      gt\n        /* \"#utility.yul\":4272:4334   */\n      or\n        /* \"#utility.yul\":4269:4357   */\n      iszero\n      tag_375\n      jumpi\n        /* \"#utility.yul\":4337:4355   */\n      tag_376\n      tag_183\n      jump\t// in\n    tag_376:\n        /* \"#utility.yul\":4269:4357   */\n    tag_375:\n        /* \"#utility.yul\":4377:4387   */\n      dup1\n        /* \"#utility.yul\":4373:4375   */\n      0x40\n        /* \"#utility.yul\":4366:4388   */\n      mstore\n        /* \"#utility.yul\":4156:4394   */\n      pop\n        /* \"#utility.yul\":4113:4394   */\n      pop\n      pop\n      jump\t// out\n        /* \"#utility.yul\":4400:4529   */\n    tag_275:\n        /* \"#utility.yul\":4434:4440   */\n      0x00\n        /* \"#utility.yul\":4461:4481   */\n      tag_378\n      tag_255\n      jump\t// in\n    tag_378:\n        /* \"#utility.yul\":4451:4481   */\n      swap1\n      pop\n        /* \"#utility.yul\":4490:4523   */\n      tag_379\n        /* \"#utility.yul\":4518:4522   */\n      dup3\n        /* \"#utility.yul\":4510:4516   */\n      dup3\n        /* \"#utility.yul\":4490:4523   */\n      tag_274\n      jump\t// in\n    tag_379:\n        /* \"#utility.yul\":4400:4529   */\n      swap2\n      swap1\n      pop\n      jump\t// out\n        /* \"#utility.yul\":4535:4843   */\n    tag_276:\n        /* \"#utility.yul\":4597:4601   */\n      0x00\n        /* \"#utility.yul\":4687:4705   */\n      0xffffffffffffffff\n        /* \"#utility.yul\":4679:4685   */\n      dup3\n        /* \"#utility.yul\":4676:4706   */\n      gt\n        /* \"#utility.yul\":4673:4729   */\n      iszero\n      tag_381\n      jumpi\n        /* \"#utility.yul\":4709:4727   */\n      tag_382\n      tag_183\n      jump\t// in\n    tag_382:\n        /* \"#utility.yul\":4673:4729   */\n    tag_381:\n        /* \"#utility.yul\":4747:4776   */\n      tag_383\n        /* \"#utility.yul\":4769:4775   */\n      dup3\n        /* \"#utility.yul\":4747:4776   */\n      tag_264\n      jump\t// in\n    tag_383:\n        /* \"#utility.yul\":4739:4776   */\n      swap1\n      pop\n        /* \"#utility.yul\":4831:4835   */\n      0x20\n        /* \"#utility.yul\":4825:4829   */\n      dup2\n        /* \"#utility.yul\":4821:4836   */\n      add\n        /* \"#utility.yul\":4813:4836   */\n      swap1\n      pop\n        /* \"#utility.yul\":4535:4843   */\n      swap2\n      swap1\n      pop\n      jump\t// out\n        /* \"#utility.yul\":4849:4995   */\n    tag_277:\n        /* \"#utility.yul\":4946:4952   */\n      dup3\n        /* \"#utility.yul\":4941:4944   */\n      dup2\n        /* \"#utility.yul\":4936:4939   */\n      dup4\n        /* \"#utility.yul\":4923:4953   */\n      calldatacopy\n        /* \"#utility.yul\":4987:4988   */\n      0x00\n        /* \"#utility.yul\":4978:4984   */\n      dup4\n        /* \"#utility.yul\":4973:4976   */\n      dup4\n        /* \"#utility.yul\":4969:4985   */\n      add\n        /* \"#utility.yul\":4962:4989   */\n      mstore\n        /* \"#utility.yul\":4849:4995   */\n      pop\n      pop\n      pop\n      jump\t// out\n        /* \"#utility.yul\":5001:5426   */\n    tag_278:\n        /* \"#utility.yul\":5079:5084   */\n      0x00\n        /* \"#utility.yul\":5104:5170   */\n      tag_386\n        /* \"#utility.yul\":5120:5169   */\n      tag_387\n        /* \"#utility.yul\":5162:5168   */\n      dup5\n        /* \"#utility.yul\":5120:5169   */\n      tag_276\n      jump\t// in\n    tag_387:\n        /* \"#utility.yul\":5104:5170   */\n      tag_275\n      jump\t// in\n    tag_386:\n        /* \"#utility.yul\":5095:5170   */\n      swap1\n      pop\n        /* \"#utility.yul\":5193:5199   */\n      dup3\n        /* \"#utility.yul\":5186:5191   */\n      dup2\n        /* \"#utility.yul\":5179:5200   */\n      mstore\n        /* \"#utility.yul\":5231:5235   */\n      0x20\n        /* \"#utility.yul\":5224:5229   */\n      dup2\n        /* \"#utility.yul\":5220:5236   */\n      add\n        /* \"#utility.yul\":5269:5272   */\n      dup5\n        /* \"#utility.yul\":5260:5266   */\n      dup5\n        /* \"#utility.yul\":5255:5258   */\n      dup5\n        /* \"#utility.yul\":5251:5267   */\n      add\n        /* \"#utility.yul\":5248:5273   */\n      gt\n        /* \"#utility.yul\":5245:5357   */\n      iszero\n      tag_388\n      jumpi\n        /* \"#utility.yul\":5276:5355   */\n      tag_389\n      tag_273\n      jump\t// in\n    tag_389:\n        /* \"#utility.yul\":5245:5357   */\n    tag_388:\n        /* \"#utility.yul\":5366:5420   */\n      tag_390\n        /* \"#utility.yul\":5413:5419   */\n      dup5\n        /* \"#utility.yul\":5408:5411   */\n      dup3\n        /* \"#utility.yul\":5403:5406   */\n      dup6\n        /* \"#utility.yul\":5366:5420   */\n      tag_277\n      jump\t// in\n    tag_390:\n        /* \"#utility.yul\":5085:5426   */\n      pop\n        /* \"#utility.yul\":5001:5426   */\n      swap4\n      swap3\n      pop\n      pop\n      pop\n      jump\t// out\n        /* \"#utility.yul\":5446:5786   */\n    tag_279:\n        /* \"#utility.yul\":5502:5507   */\n      0x00\n        /* \"#utility.yul\":5551:5554   */\n      dup3\n        /* \"#utility.yul\":5544:5548   */\n      0x1f\n        /* \"#utility.yul\":5536:5542   */\n      dup4\n        /* \"#utility.yul\":5532:5549   */\n      add\n        /* \"#utility.yul\":5528:5555   */\n      slt\n        /* \"#utility.yul\":5518:5640   */\n      tag_392\n      jumpi\n        /* \"#utility.yul\":5559:5638   */\n      tag_393\n      tag_272\n      jump\t// in\n    tag_393:\n        /* \"#utility.yul\":5518:5640   */\n    tag_392:\n        /* \"#utility.yul\":5676:5682   */\n      dup2\n        /* \"#utility.yul\":5663:5683   */\n      calldataload\n        /* \"#utility.yul\":5701:5780   */\n      tag_394\n        /* \"#utility.yul\":5776:5779   */\n      dup5\n        /* \"#utility.yul\":5768:5774   */\n      dup3\n        /* \"#utility.yul\":5761:5765   */\n      0x20\n        /* \"#utility.yul\":5753:5759   */\n      dup7\n        /* \"#utility.yul\":5749:5766   */\n      add\n        /* \"#utility.yul\":5701:5780   */\n      tag_278\n      jump\t// in\n    tag_394:\n        /* \"#utility.yul\":5692:5780   */\n      swap2\n      pop\n        /* \"#utility.yul\":5508:5786   */\n      pop\n        /* \"#utility.yul\":5446:5786   */\n      swap3\n      swap2\n      pop\n      pop\n      jump\t// out\n        /* \"#utility.yul\":5792:6591   */\n    tag_41:\n        /* \"#utility.yul\":5879:5885   */\n      0x00\n        /* \"#utility.yul\":5887:5893   */\n      dup1\n        /* \"#utility.yul\":5895:5901   */\n      0x00\n        /* \"#utility.yul\":5944:5946   */\n      0x60\n        /* \"#utility.yul\":5932:5941   */\n      dup5\n        /* \"#utility.yul\":5923:5930   */\n      dup7\n        /* \"#utility.yul\":5919:5942   */\n      sub\n        /* \"#utility.yul\":5915:5947   */\n      slt\n        /* \"#utility.yul\":5912:6031   */\n      iszero\n      tag_396\n      jumpi\n        /* \"#utility.yul\":5950:6029   */\n      tag_397\n      tag_256\n      jump\t// in\n    tag_397:\n        /* \"#utility.yul\":5912:6031   */\n    tag_396:\n        /* \"#utility.yul\":6070:6071   */\n      0x00\n        /* \"#utility.yul\":6095:6148   */\n      tag_398\n        /* \"#utility.yul\":6140:6147   */\n      dup7\n        /* \"#utility.yul\":6131:6137   */\n      dup3\n        /* \"#utility.yul\":6120:6129   */\n      dup8\n        /* \"#utility.yul\":6116:6138   */\n      add\n        /* \"#utility.yul\":6095:6148   */\n      tag_271\n      jump\t// in\n    tag_398:\n        /* \"#utility.yul\":6085:6148   */\n      swap4\n      pop\n        /* \"#utility.yul\":6041:6158   */\n      pop\n        /* \"#utility.yul\":6225:6227   */\n      0x20\n        /* \"#utility.yul\":6214:6223   */\n      dup5\n        /* \"#utility.yul\":6210:6228   */\n      add\n        /* \"#utility.yul\":6197:6229   */\n      calldataload\n        /* \"#utility.yul\":6256:6274   */\n      0xffffffffffffffff\n        /* \"#utility.yul\":6248:6254   */\n      dup2\n        /* \"#utility.yul\":6245:6275   */\n      gt\n        /* \"#utility.yul\":6242:6359   */\n      iszero\n      tag_399\n      jumpi\n        /* \"#utility.yul\":6278:6357   */\n      tag_400\n      tag_257\n      jump\t// in\n    tag_400:\n        /* \"#utility.yul\":6242:6359   */\n    tag_399:\n        /* \"#utility.yul\":6383:6446   */\n      tag_401\n        /* \"#utility.yul\":6438:6445   */\n      dup7\n        /* \"#utility.yul\":6429:6435   */\n      dup3\n        /* \"#utility.yul\":6418:6427   */\n      dup8\n        /* \"#utility.yul\":6414:6436   */\n      add\n        /* \"#utility.yul\":6383:6446   */\n      tag_279\n      jump\t// in\n    tag_401:\n        /* \"#utility.yul\":6373:6446   */\n      swap3\n      pop\n        /* \"#utility.yul\":6168:6456   */\n      pop\n        /* \"#utility.yul\":6495:6497   */\n      0x40\n        /* \"#utility.yul\":6521:6574   */\n      tag_402\n        /* \"#utility.yul\":6566:6573   */\n      dup7\n        /* \"#utility.yul\":6557:6563   */\n      dup3\n        /* \"#utility.yul\":6546:6555   */\n      dup8\n        /* \"#utility.yul\":6542:6564   */\n      add\n        /* \"#utility.yul\":6521:6574   */\n      tag_271\n      jump\t// in\n    tag_402:\n        /* \"#utility.yul\":6511:6574   */\n      swap2\n      pop\n        /* \"#utility.yul\":6466:6584   */\n      pop\n        /* \"#utility.yul\":5792:6591   */\n      swap3\n      pop\n      swap3\n      pop\n      swap3\n      jump\t// out\n        /* \"#utility.yul\":6597:7645   */\n    tag_44:\n        /* \"#utility.yul\":6890:6894   */\n      0x00\n        /* \"#utility.yul\":6928:6931   */\n      0xc0\n        /* \"#utility.yul\":6917:6926   */\n      dup3\n        /* \"#utility.yul\":6913:6932   */\n      add\n        /* \"#utility.yul\":6905:6932   */\n      swap1\n      pop\n        /* \"#utility.yul\":6978:6987   */\n      dup2\n        /* \"#utility.yul\":6972:6976   */\n      dup2\n        /* \"#utility.yul\":6968:6988   */\n      sub\n        /* \"#utility.yul\":6964:6965   */\n      0x00\n        /* \"#utility.yul\":6953:6962   */\n      dup4\n        /* \"#utility.yul\":6949:6966   */\n      add\n        /* \"#utility.yul\":6942:6989   */\n      mstore\n        /* \"#utility.yul\":7006:7084   */\n      tag_404\n        /* \"#utility.yul\":7079:7083   */\n      dup2\n        /* \"#utility.yul\":7070:7076   */\n      dup10\n        /* \"#utility.yul\":7006:7084   */\n      tag_265\n      jump\t// in\n    tag_404:\n        /* \"#utility.yul\":6998:7084   */\n      swap1\n      pop\n        /* \"#utility.yul\":7131:7140   */\n      dup2\n        /* \"#utility.yul\":7125:7129   */\n      dup2\n        /* \"#utility.yul\":7121:7141   */\n      sub\n        /* \"#utility.yul\":7116:7118   */\n      0x20\n        /* \"#utility.yul\":7105:7114   */\n      dup4\n        /* \"#utility.yul\":7101:7119   */\n      add\n        /* \"#utility.yul\":7094:7142   */\n      mstore\n        /* \"#utility.yul\":7159:7237   */\n      tag_405\n        /* \"#utility.yul\":7232:7236   */\n      dup2\n        /* \"#utility.yul\":7223:7229   */\n      dup9\n        /* \"#utility.yul\":7159:7237   */\n      tag_265\n      jump\t// in\n    tag_405:\n        /* \"#utility.yul\":7151:7237   */\n      swap1\n      pop\n        /* \"#utility.yul\":7284:7293   */\n      dup2\n        /* \"#utility.yul\":7278:7282   */\n      dup2\n        /* \"#utility.yul\":7274:7294   */\n      sub\n        /* \"#utility.yul\":7269:7271   */\n      0x40\n        /* \"#utility.yul\":7258:7267   */\n      dup4\n        /* \"#utility.yul\":7254:7272   */\n      add\n        /* \"#utility.yul\":7247:7295   */\n      mstore\n        /* \"#utility.yul\":7312:7390   */\n      tag_406\n        /* \"#utility.yul\":7385:7389   */\n      dup2\n        /* \"#utility.yul\":7376:7382   */\n      dup8\n        /* \"#utility.yul\":7312:7390   */\n      tag_265\n      jump\t// in\n    tag_406:\n        /* \"#utility.yul\":7304:7390   */\n      swap1\n      pop\n        /* \"#utility.yul\":7400:7472   */\n      tag_407\n        /* \"#utility.yul\":7468:7470   */\n      0x60\n        /* \"#utility.yul\":7457:7466   */\n      dup4\n        /* \"#utility.yul\":7453:7471   */\n      add\n        /* \"#utility.yul\":7444:7450   */\n      dup7\n        /* \"#utility.yul\":7400:7472   */\n      tag_269\n      jump\t// in\n    tag_407:\n        /* \"#utility.yul\":7482:7555   */\n      tag_408\n        /* \"#utility.yul\":7550:7553   */\n      0x80\n        /* \"#utility.yul\":7539:7548   */\n      dup4\n        /* \"#utility.yul\":7535:7554   */\n      add\n        /* \"#utility.yul\":7526:7532   */\n      dup6\n        /* \"#utility.yul\":7482:7555   */\n      tag_269\n      jump\t// in\n    tag_408:\n        /* \"#utility.yul\":7565:7638   */\n      tag_409\n        /* \"#utility.yul\":7633:7636   */\n      0xa0\n        /* \"#utility.yul\":7622:7631   */\n      dup4\n        /* \"#utility.yul\":7618:7637   */\n      add\n        /* \"#utility.yul\":7609:7615   */\n      dup5\n        /* \"#utility.yul\":7565:7638   */\n      tag_269\n      jump\t// in\n    tag_409:\n        /* \"#utility.yul\":6597:7645   */\n      swap8\n      swap7\n      pop\n      pop\n      pop\n      pop\n      pop\n      pop\n      pop\n      jump\t// out\n        /* \"#utility.yul\":7651:7980   */\n    tag_48:\n        /* \"#utility.yul\":7710:7716   */\n      0x00\n        /* \"#utility.yul\":7759:7761   */\n      0x20\n        /* \"#utility.yul\":7747:7756   */\n      dup3\n        /* \"#utility.yul\":7738:7745   */\n      dup5\n        /* \"#utility.yul\":7734:7757   */\n      sub\n        /* \"#utility.yul\":7730:7762   */\n      slt\n        /* \"#utility.yul\":7727:7846   */\n      iszero\n      tag_411\n      jumpi\n        /* \"#utility.yul\":7765:7844   */\n      tag_412\n      tag_256\n      jump\t// in\n    tag_412:\n        /* \"#utility.yul\":7727:7846   */\n    tag_411:\n        /* \"#utility.yul\":7885:7886   */\n      0x00\n        /* \"#utility.yul\":7910:7963   */\n      tag_413\n        /* \"#utility.yul\":7955:7962   */\n      dup5\n        /* \"#utility.yul\":7946:7952   */\n      dup3\n        /* \"#utility.yul\":7935:7944   */\n      dup6\n        /* \"#utility.yul\":7931:7953   */\n      add\n        /* \"#utility.yul\":7910:7963   */\n      tag_271\n      jump\t// in\n    tag_413:\n        /* \"#utility.yul\":7900:7963   */\n      swap2\n      pop\n        /* \"#utility.yul\":7856:7973   */\n      pop\n        /* \"#utility.yul\":7651:7980   */\n      swap3\n      swap2\n      pop\n      pop\n      jump\t// out\n        /* \"#utility.yul\":7986:8208   */\n    tag_51:\n        /* \"#utility.yul\":8079:8083   */\n      0x00\n        /* \"#utility.yul\":8117:8119   */\n      0x20\n        /* \"#utility.yul\":8106:8115   */\n      dup3\n        /* \"#utility.yul\":8102:8120   */\n      add\n        /* \"#utility.yul\":8094:8120   */\n      swap1\n      pop\n        /* \"#utility.yul\":8130:8201   */\n      tag_415\n        /* \"#utility.yul\":8198:8199   */\n      0x00\n        /* \"#utility.yul\":8187:8196   */\n      dup4\n        /* \"#utility.yul\":8183:8200   */\n      add\n        /* \"#utility.yul\":8174:8180   */\n      dup5\n        /* \"#utility.yul\":8130:8201   */\n      tag_269\n      jump\t// in\n    tag_415:\n        /* \"#utility.yul\":7986:8208   */\n      swap3\n      swap2\n      pop\n      pop\n      jump\t// out\n        /* \"#utility.yul\":8214:8688   */\n    tag_60:\n        /* \"#utility.yul\":8282:8288   */\n      0x00\n        /* \"#utility.yul\":8290:8296   */\n      dup1\n        /* \"#utility.yul\":8339:8341   */\n      0x40\n        /* \"#utility.yul\":8327:8336   */\n      dup4\n        /* \"#utility.yul\":8318:8325   */\n      dup6\n        /* \"#utility.yul\":8314:8337   */\n      sub\n        /* \"#utility.yul\":8310:8342   */\n      slt\n        /* \"#utility.yul\":8307:8426   */\n      iszero\n      tag_417\n      jumpi\n        /* \"#utility.yul\":8345:8424   */\n      tag_418\n      tag_256\n      jump\t// in\n    tag_418:\n        /* \"#utility.yul\":8307:8426   */\n    tag_417:\n        /* \"#utility.yul\":8465:8466   */\n      0x00\n        /* \"#utility.yul\":8490:8543   */\n      tag_419\n        /* \"#utility.yul\":8535:8542   */\n      dup6\n        /* \"#utility.yul\":8526:8532   */\n      dup3\n        /* \"#utility.yul\":8515:8524   */\n      dup7\n        /* \"#utility.yul\":8511:8533   */\n      add\n        /* \"#utility.yul\":8490:8543   */\n      tag_271\n      jump\t// in\n    tag_419:\n        /* \"#utility.yul\":8480:8543   */\n      swap3\n      pop\n        /* \"#utility.yul\":8436:8553   */\n      pop\n        /* \"#utility.yul\":8592:8594   */\n      0x20\n        /* \"#utility.yul\":8618:8671   */\n      tag_420\n        /* \"#utility.yul\":8663:8670   */\n      dup6\n        /* \"#utility.yul\":8654:8660   */\n      dup3\n        /* \"#utility.yul\":8643:8652   */\n      dup7\n        /* \"#utility.yul\":8639:8661   */\n      add\n        /* \"#utility.yul\":8618:8671   */\n      tag_260\n      jump\t// in\n    tag_420:\n        /* \"#utility.yul\":8608:8671   */\n      swap2\n      pop\n        /* \"#utility.yul\":8563:8681   */\n      pop\n        /* \"#utility.yul\":8214:8688   */\n      swap3\n      pop\n      swap3\n      swap1\n      pop\n      jump\t// out\n        /* \"#utility.yul\":8694:8916   */\n    tag_68:\n        /* \"#utility.yul\":8787:8791   */\n      0x00\n        /* \"#utility.yul\":8825:8827   */\n      0x20\n        /* \"#utility.yul\":8814:8823   */\n      dup3\n        /* \"#utility.yul\":8810:8828   */\n      add\n        /* \"#utility.yul\":8802:8828   */\n      swap1\n      pop\n        /* \"#utility.yul\":8838:8909   */\n      tag_422\n        /* \"#utility.yul\":8906:8907   */\n      0x00\n        /* \"#utility.yul\":8895:8904   */\n      dup4\n        /* \"#utility.yul\":8891:8908   */\n      add\n        /* \"#utility.yul\":8882:8888   */\n      dup5\n        /* \"#utility.yul\":8838:8909   */\n      tag_268\n      jump\t// in\n    tag_422:\n        /* \"#utility.yul\":8694:8916   */\n      swap3\n      swap2\n      pop\n      pop\n      jump\t// out\n        /* \"#utility.yul\":8922:10519   */\n    tag_72:\n        /* \"#utility.yul\":9056:9062   */\n      0x00\n        /* \"#utility.yul\":9064:9070   */\n      dup1\n        /* \"#utility.yul\":9072:9078   */\n      0x00\n        /* \"#utility.yul\":9080:9086   */\n      dup1\n        /* \"#utility.yul\":9088:9094   */\n      0x00\n        /* \"#utility.yul\":9096:9102   */\n      dup1\n        /* \"#utility.yul\":9145:9148   */\n      0xc0\n        /* \"#utility.yul\":9133:9142   */\n      dup8\n        /* \"#utility.yul\":9124:9131   */\n      dup10\n        /* \"#utility.yul\":9120:9143   */\n      sub\n        /* \"#utility.yul\":9116:9149   */\n      slt\n        /* \"#utility.yul\":9113:9233   */\n      iszero\n      tag_424\n      jumpi\n        /* \"#utility.yul\":9152:9231   */\n      tag_425\n      tag_256\n      jump\t// in\n    tag_425:\n        /* \"#utility.yul\":9113:9233   */\n    tag_424:\n        /* \"#utility.yul\":9300:9301   */\n      0x00\n        /* \"#utility.yul\":9289:9298   */\n      dup8\n        /* \"#utility.yul\":9285:9302   */\n      add\n        /* \"#utility.yul\":9272:9303   */\n      calldataload\n        /* \"#utility.yul\":9330:9348   */\n      0xffffffffffffffff\n        /* \"#utility.yul\":9322:9328   */\n      dup2\n        /* \"#utility.yul\":9319:9349   */\n      gt\n        /* \"#utility.yul\":9316:9433   */\n      iszero\n      tag_426\n      jumpi\n        /* \"#utility.yul\":9352:9431   */\n      tag_427\n      tag_257\n      jump\t// in\n    tag_427:\n        /* \"#utility.yul\":9316:9433   */\n    tag_426:\n        /* \"#utility.yul\":9457:9520   */\n      tag_428\n        /* \"#utility.yul\":9512:9519   */\n      dup10\n        /* \"#utility.yul\":9503:9509   */\n      dup3\n        /* \"#utility.yul\":9492:9501   */\n      dup11\n        /* \"#utility.yul\":9488:9510   */\n      add\n        /* \"#utility.yul\":9457:9520   */\n      tag_279\n      jump\t// in\n    tag_428:\n        /* \"#utility.yul\":9447:9520   */\n      swap7\n      pop\n        /* \"#utility.yul\":9243:9530   */\n      pop\n        /* \"#utility.yul\":9597:9599   */\n      0x20\n        /* \"#utility.yul\":9586:9595   */\n      dup8\n        /* \"#utility.yul\":9582:9600   */\n      add\n        /* \"#utility.yul\":9569:9601   */\n      calldataload\n        /* \"#utility.yul\":9628:9646   */\n      0xffffffffffffffff\n        /* \"#utility.yul\":9620:9626   */\n      dup2\n        /* \"#utility.yul\":9617:9647   */\n      gt\n        /* \"#utility.yul\":9614:9731   */\n      iszero\n      tag_429\n      jumpi\n        /* \"#utility.yul\":9650:9729   */\n      tag_430\n      tag_257\n      jump\t// in\n    tag_430:\n        /* \"#utility.yul\":9614:9731   */\n    tag_429:\n        /* \"#utility.yul\":9755:9818   */\n      tag_431\n        /* \"#utility.yul\":9810:9817   */\n      dup10\n        /* \"#utility.yul\":9801:9807   */\n      dup3\n        /* \"#utility.yul\":9790:9799   */\n      dup11\n        /* \"#utility.yul\":9786:9808   */\n      add\n        /* \"#utility.yul\":9755:9818   */\n      tag_279\n      jump\t// in\n    tag_431:\n        /* \"#utility.yul\":9745:9818   */\n      swap6\n      pop\n        /* \"#utility.yul\":9540:9828   */\n      pop\n        /* \"#utility.yul\":9895:9897   */\n      0x40\n        /* \"#utility.yul\":9884:9893   */\n      dup8\n        /* \"#utility.yul\":9880:9898   */\n      add\n        /* \"#utility.yul\":9867:9899   */\n      calldataload\n        /* \"#utility.yul\":9926:9944   */\n      0xffffffffffffffff\n        /* \"#utility.yul\":9918:9924   */\n      dup2\n        /* \"#utility.yul\":9915:9945   */\n      gt\n        /* \"#utility.yul\":9912:10029   */\n      iszero\n      tag_432\n      jumpi\n        /* \"#utility.yul\":9948:10027   */\n      tag_433\n      tag_257\n      jump\t// in\n    tag_433:\n        /* \"#utility.yul\":9912:10029   */\n    tag_432:\n        /* \"#utility.yul\":10053:10116   */\n      tag_434\n        /* \"#utility.yul\":10108:10115   */\n      dup10\n        /* \"#utility.yul\":10099:10105   */\n      dup3\n        /* \"#utility.yul\":10088:10097   */\n      dup11\n        /* \"#utility.yul\":10084:10106   */\n      add\n        /* \"#utility.yul\":10053:10116   */\n      tag_279\n      jump\t// in\n    tag_434:\n        /* \"#utility.yul\":10043:10116   */\n      swap5\n      pop\n        /* \"#utility.yul\":9838:10126   */\n      pop\n        /* \"#utility.yul\":10165:10167   */\n      0x60\n        /* \"#utility.yul\":10191:10244   */\n      tag_435\n        /* \"#utility.yul\":10236:10243   */\n      dup10\n        /* \"#utility.yul\":10227:10233   */\n      dup3\n        /* \"#utility.yul\":10216:10225   */\n      dup11\n        /* \"#utility.yul\":10212:10234   */\n      add\n        /* \"#utility.yul\":10191:10244   */\n      tag_260\n      jump\t// in\n    tag_435:\n        /* \"#utility.yul\":10181:10244   */\n      swap4\n      pop\n        /* \"#utility.yul\":10136:10254   */\n      pop\n        /* \"#utility.yul\":10293:10296   */\n      0x80\n        /* \"#utility.yul\":10320:10373   */\n      tag_436\n        /* \"#utility.yul\":10365:10372   */\n      dup10\n        /* \"#utility.yul\":10356:10362   */\n      dup3\n        /* \"#utility.yul\":10345:10354   */\n      dup11\n        /* \"#utility.yul\":10341:10363   */\n      add\n        /* \"#utility.yul\":10320:10373   */\n      tag_260\n      jump\t// in\n    tag_436:\n        /* \"#utility.yul\":10310:10373   */\n      swap3\n      pop\n        /* \"#utility.yul\":10264:10383   */\n      pop\n        /* \"#utility.yul\":10422:10425   */\n      0xa0\n        /* \"#utility.yul\":10449:10502   */\n      tag_437\n        /* \"#utility.yul\":10494:10501   */\n      dup10\n        /* \"#utility.yul\":10485:10491   */\n      dup3\n        /* \"#utility.yul\":10474:10483   */\n      dup11\n        /* \"#utility.yul\":10470:10492   */\n      add\n        /* \"#utility.yul\":10449:10502   */\n      tag_260\n      jump\t// in\n    tag_437:\n        /* \"#utility.yul\":10439:10502   */\n      swap2\n      pop\n        /* \"#utility.yul\":10393:10512   */\n      pop\n        /* \"#utility.yul\":8922:10519   */\n      swap3\n      swap6\n      pop\n      swap3\n      swap6\n      pop\n      swap3\n      swap6\n      jump\t// out\n        /* \"#utility.yul\":10525:11034   */\n    tag_77:\n        /* \"#utility.yul\":10594:10600   */\n      0x00\n        /* \"#utility.yul\":10643:10645   */\n      0x20\n        /* \"#utility.yul\":10631:10640   */\n      dup3\n        /* \"#utility.yul\":10622:10629   */\n      dup5\n        /* \"#utility.yul\":10618:10641   */\n      sub\n        /* \"#utility.yul\":10614:10646   */\n      slt\n        /* \"#utility.yul\":10611:10730   */\n      iszero\n      tag_439\n      jumpi\n        /* \"#utility.yul\":10649:10728   */\n      tag_440\n      tag_256\n      jump\t// in\n    tag_440:\n        /* \"#utility.yul\":10611:10730   */\n    tag_439:\n        /* \"#utility.yul\":10797:10798   */\n      0x00\n        /* \"#utility.yul\":10786:10795   */\n      dup3\n        /* \"#utility.yul\":10782:10799   */\n      add\n        /* \"#utility.yul\":10769:10800   */\n      calldataload\n        /* \"#utility.yul\":10827:10845   */\n      0xffffffffffffffff\n        /* \"#utility.yul\":10819:10825   */\n      dup2\n        /* \"#utility.yul\":10816:10846   */\n      gt\n        /* \"#utility.yul\":10813:10930   */\n      iszero\n      tag_441\n      jumpi\n        /* \"#utility.yul\":10849:10928   */\n      tag_442\n      tag_257\n      jump\t// in\n    tag_442:\n        /* \"#utility.yul\":10813:10930   */\n    tag_441:\n        /* \"#utility.yul\":10954:11017   */\n      tag_443\n        /* \"#utility.yul\":11009:11016   */\n      dup5\n        /* \"#utility.yul\":11000:11006   */\n      dup3\n        /* \"#utility.yul\":10989:10998   */\n      dup6\n        /* \"#utility.yul\":10985:11007   */\n      add\n        /* \"#utility.yul\":10954:11017   */\n      tag_279\n      jump\t// in\n    tag_443:\n        /* \"#utility.yul\":10944:11017   */\n      swap2\n      pop\n        /* \"#utility.yul\":10740:11027   */\n      pop\n        /* \"#utility.yul\":10525:11034   */\n      swap3\n      swap2\n      pop\n      pop\n      jump\t// out\n        /* \"#utility.yul\":11040:11164   */\n    tag_280:\n        /* \"#utility.yul\":11117:11123   */\n      0x00\n        /* \"#utility.yul\":11151:11156   */\n      dup2\n        /* \"#utility.yul\":11145:11157   */\n      mload\n        /* \"#utility.yul\":11135:11157   */\n      swap1\n      pop\n        /* \"#utility.yul\":11040:11164   */\n      swap2\n      swap1\n      pop\n      jump\t// out\n        /* \"#utility.yul\":11170:11364   */\n    tag_281:\n        /* \"#utility.yul\":11279:11290   */\n      0x00\n        /* \"#utility.yul\":11313:11319   */\n      dup3\n        /* \"#utility.yul\":11308:11311   */\n      dup3\n        /* \"#utility.yul\":11301:11320   */\n      mstore\n        /* \"#utility.yul\":11353:11357   */\n      0x20\n        /* \"#utility.yul\":11348:11351   */\n      dup3\n        /* \"#utility.yul\":11344:11358   */\n      add\n        /* \"#utility.yul\":11329:11358   */\n      swap1\n      pop\n        /* \"#utility.yul\":11170:11364   */\n      swap3\n      swap2\n      pop\n      pop\n      jump\t// out\n        /* \"#utility.yul\":11370:11512   */\n    tag_282:\n        /* \"#utility.yul\":11447:11451   */\n      0x00\n        /* \"#utility.yul\":11470:11473   */\n      dup2\n        /* \"#utility.yul\":11462:11473   */\n      swap1\n      pop\n        /* \"#utility.yul\":11500:11504   */\n      0x20\n        /* \"#utility.yul\":11495:11498   */\n      dup3\n        /* \"#utility.yul\":11491:11505   */\n      add\n        /* \"#utility.yul\":11483:11505   */\n      swap1\n      pop\n        /* \"#utility.yul\":11370:11512   */\n      swap2\n      swap1\n      pop\n      jump\t// out\n        /* \"#utility.yul\":11518:11677   */\n    tag_283:\n        /* \"#utility.yul\":11592:11603   */\n      0x00\n        /* \"#utility.yul\":11626:11632   */\n      dup3\n        /* \"#utility.yul\":11621:11624   */\n      dup3\n        /* \"#utility.yul\":11614:11633   */\n      mstore\n        /* \"#utility.yul\":11666:11670   */\n      0x20\n        /* \"#utility.yul\":11661:11664   */\n      dup3\n        /* \"#utility.yul\":11657:11671   */\n      add\n        /* \"#utility.yul\":11642:11671   */\n      swap1\n      pop\n        /* \"#utility.yul\":11518:11677   */\n      swap3\n      swap2\n      pop\n      pop\n      jump\t// out\n        /* \"#utility.yul\":11683:12040   */\n    tag_284:\n        /* \"#utility.yul\":11761:11764   */\n      0x00\n        /* \"#utility.yul\":11789:11828   */\n      tag_449\n        /* \"#utility.yul\":11822:11827   */\n      dup3\n        /* \"#utility.yul\":11789:11828   */\n      tag_261\n      jump\t// in\n    tag_449:\n        /* \"#utility.yul\":11844:11905   */\n      tag_450\n        /* \"#utility.yul\":11898:11904   */\n      dup2\n        /* \"#utility.yul\":11893:11896   */\n      dup6\n        /* \"#utility.yul\":11844:11905   */\n      tag_283\n      jump\t// in\n    tag_450:\n        /* \"#utility.yul\":11837:11905   */\n      swap4\n      pop\n        /* \"#utility.yul\":11914:11979   */\n      tag_451\n        /* \"#utility.yul\":11972:11978   */\n      dup2\n        /* \"#utility.yul\":11967:11970   */\n      dup6\n        /* \"#utility.yul\":11960:11964   */\n      0x20\n        /* \"#utility.yul\":11953:11958   */\n      dup7\n        /* \"#utility.yul\":11949:11965   */\n      add\n        /* \"#utility.yul\":11914:11979   */\n      tag_263\n      jump\t// in\n    tag_451:\n        /* \"#utility.yul\":12004:12033   */\n      tag_452\n        /* \"#utility.yul\":12026:12032   */\n      dup2\n        /* \"#utility.yul\":12004:12033   */\n      tag_264\n      jump\t// in\n    tag_452:\n        /* \"#utility.yul\":11999:12002   */\n      dup5\n        /* \"#utility.yul\":11995:12034   */\n      add\n        /* \"#utility.yul\":11988:12034   */\n      swap2\n      pop\n        /* \"#utility.yul\":11765:12040   */\n      pop\n        /* \"#utility.yul\":11683:12040   */\n      swap3\n      swap2\n      pop\n      pop\n      jump\t// out\n        /* \"#utility.yul\":12046:12242   */\n    tag_285:\n        /* \"#utility.yul\":12135:12145   */\n      0x00\n        /* \"#utility.yul\":12170:12236   */\n      tag_454\n        /* \"#utility.yul\":12232:12235   */\n      dup4\n        /* \"#utility.yul\":12224:12230   */\n      dup4\n        /* \"#utility.yul\":12170:12236   */\n      tag_284\n      jump\t// in\n    tag_454:\n        /* \"#utility.yul\":12156:12236   */\n      swap1\n      pop\n        /* \"#utility.yul\":12046:12242   */\n      swap3\n      swap2\n      pop\n      pop\n      jump\t// out\n        /* \"#utility.yul\":12248:12371   */\n    tag_286:\n        /* \"#utility.yul\":12328:12332   */\n      0x00\n        /* \"#utility.yul\":12360:12364   */\n      0x20\n        /* \"#utility.yul\":12355:12358   */\n      dup3\n        /* \"#utility.yul\":12351:12365   */\n      add\n        /* \"#utility.yul\":12343:12365   */\n      swap1\n      pop\n        /* \"#utility.yul\":12248:12371   */\n      swap2\n      swap1\n      pop\n      jump\t// out\n        /* \"#utility.yul\":12405:13396   */\n    tag_287:\n        /* \"#utility.yul\":12544:12547   */\n      0x00\n        /* \"#utility.yul\":12573:12637   */\n      tag_457\n        /* \"#utility.yul\":12631:12636   */\n      dup3\n        /* \"#utility.yul\":12573:12637   */\n      tag_280\n      jump\t// in\n    tag_457:\n        /* \"#utility.yul\":12653:12749   */\n      tag_458\n        /* \"#utility.yul\":12742:12748   */\n      dup2\n        /* \"#utility.yul\":12737:12740   */\n      dup6\n        /* \"#utility.yul\":12653:12749   */\n      tag_281\n      jump\t// in\n    tag_458:\n        /* \"#utility.yul\":12646:12749   */\n      swap4\n      pop\n        /* \"#utility.yul\":12775:12778   */\n      dup4\n        /* \"#utility.yul\":12820:12824   */\n      0x20\n        /* \"#utility.yul\":12812:12818   */\n      dup3\n        /* \"#utility.yul\":12808:12825   */\n      mul\n        /* \"#utility.yul\":12803:12806   */\n      dup6\n        /* \"#utility.yul\":12799:12826   */\n      add\n        /* \"#utility.yul\":12850:12916   */\n      tag_459\n        /* \"#utility.yul\":12910:12915   */\n      dup6\n        /* \"#utility.yul\":12850:12916   */\n      tag_282\n      jump\t// in\n    tag_459:\n        /* \"#utility.yul\":12939:12946   */\n      dup1\n        /* \"#utility.yul\":12970:12971   */\n      0x00\n        /* \"#utility.yul\":12955:13351   */\n    tag_460:\n        /* \"#utility.yul\":12980:12986   */\n      dup6\n        /* \"#utility.yul\":12977:12978   */\n      dup2\n        /* \"#utility.yul\":12974:12987   */\n      lt\n        /* \"#utility.yul\":12955:13351   */\n      iszero\n      tag_462\n      jumpi\n        /* \"#utility.yul\":13051:13060   */\n      dup5\n        /* \"#utility.yul\":13045:13049   */\n      dup5\n        /* \"#utility.yul\":13041:13061   */\n      sub\n        /* \"#utility.yul\":13036:13039   */\n      dup10\n        /* \"#utility.yul\":13029:13062   */\n      mstore\n        /* \"#utility.yul\":13102:13108   */\n      dup2\n        /* \"#utility.yul\":13096:13109   */\n      mload\n        /* \"#utility.yul\":13130:13214   */\n      tag_463\n        /* \"#utility.yul\":13209:13213   */\n      dup6\n        /* \"#utility.yul\":13194:13207   */\n      dup3\n        /* \"#utility.yul\":13130:13214   */\n      tag_285\n      jump\t// in\n    tag_463:\n        /* \"#utility.yul\":13122:13214   */\n      swap5\n      pop\n        /* \"#utility.yul\":13237:13307   */\n      tag_464\n        /* \"#utility.yul\":13300:13306   */\n      dup4\n        /* \"#utility.yul\":13237:13307   */\n      tag_286\n      jump\t// in\n    tag_464:\n        /* \"#utility.yul\":13227:13307   */\n      swap3\n      pop\n        /* \"#utility.yul\":13336:13340   */\n      0x20\n        /* \"#utility.yul\":13331:13334   */\n      dup11\n        /* \"#utility.yul\":13327:13341   */\n      add\n        /* \"#utility.yul\":13320:13341   */\n      swap10\n      pop\n        /* \"#utility.yul\":13015:13351   */\n      pop\n        /* \"#utility.yul\":13002:13003   */\n      0x01\n        /* \"#utility.yul\":12999:13000   */\n      dup2\n        /* \"#utility.yul\":12995:13004   */\n      add\n        /* \"#utility.yul\":12990:13004   */\n      swap1\n      pop\n        /* \"#utility.yul\":12955:13351   */\n      jump(tag_460)\n    tag_462:\n        /* \"#utility.yul\":12959:12973   */\n      pop\n        /* \"#utility.yul\":13367:13371   */\n      dup3\n        /* \"#utility.yul\":13360:13371   */\n      swap8\n      pop\n        /* \"#utility.yul\":13387:13390   */\n      dup8\n        /* \"#utility.yul\":13380:13390   */\n      swap6\n      pop\n        /* \"#utility.yul\":12549:13396   */\n      pop\n      pop\n      pop\n      pop\n      pop\n        /* \"#utility.yul\":12405:13396   */\n      swap3\n      swap2\n      pop\n      pop\n      jump\t// out\n        /* \"#utility.yul\":13402:13547   */\n    tag_288:\n        /* \"#utility.yul\":13500:13506   */\n      0x00\n        /* \"#utility.yul\":13534:13539   */\n      dup2\n        /* \"#utility.yul\":13528:13540   */\n      mload\n        /* \"#utility.yul\":13518:13540   */\n      swap1\n      pop\n        /* \"#utility.yul\":13402:13547   */\n      swap2\n      swap1\n      pop\n      jump\t// out\n        /* \"#utility.yul\":13553:13768   */\n    tag_289:\n        /* \"#utility.yul\":13683:13694   */\n      0x00\n        /* \"#utility.yul\":13717:13723   */\n      dup3\n        /* \"#utility.yul\":13712:13715   */\n      dup3\n        /* \"#utility.yul\":13705:13724   */\n      mstore\n        /* \"#utility.yul\":13757:13761   */\n      0x20\n        /* \"#utility.yul\":13752:13755   */\n      dup3\n        /* \"#utility.yul\":13748:13762   */\n      add\n        /* \"#utility.yul\":13733:13762   */\n      swap1\n      pop\n        /* \"#utility.yul\":13553:13768   */\n      swap3\n      swap2\n      pop\n      pop\n      jump\t// out\n        /* \"#utility.yul\":13774:13937   */\n    tag_290:\n        /* \"#utility.yul\":13872:13876   */\n      0x00\n        /* \"#utility.yul\":13895:13898   */\n      dup2\n        /* \"#utility.yul\":13887:13898   */\n      swap1\n      pop\n        /* \"#utility.yul\":13925:13929   */\n      0x20\n        /* \"#utility.yul\":13920:13923   */\n      dup3\n        /* \"#utility.yul\":13916:13930   */\n      add\n        /* \"#utility.yul\":13908:13930   */\n      swap1\n      pop\n        /* \"#utility.yul\":13774:13937   */\n      swap2\n      swap1\n      pop\n      jump\t// out\n        /* \"#utility.yul\":13943:14051   */\n    tag_291:\n        /* \"#utility.yul\":14020:14044   */\n      tag_469\n        /* \"#utility.yul\":14038:14043   */\n      dup2\n        /* \"#utility.yul\":14020:14044   */\n      tag_258\n      jump\t// in\n    tag_469:\n        /* \"#utility.yul\":14015:14018   */\n      dup3\n        /* \"#utility.yul\":14008:14045   */\n      mstore\n        /* \"#utility.yul\":13943:14051   */\n      pop\n      pop\n      jump\t// out\n        /* \"#utility.yul\":14157:15639   */\n    tag_292:\n        /* \"#utility.yul\":14278:14281   */\n      0x00\n        /* \"#utility.yul\":14314:14318   */\n      0xc0\n        /* \"#utility.yul\":14309:14312   */\n      dup4\n        /* \"#utility.yul\":14305:14319   */\n      add\n        /* \"#utility.yul\":14401:14405   */\n      0x00\n        /* \"#utility.yul\":14394:14399   */\n      dup4\n        /* \"#utility.yul\":14390:14406   */\n      add\n        /* \"#utility.yul\":14384:14407   */\n      mload\n        /* \"#utility.yul\":14454:14457   */\n      dup5\n        /* \"#utility.yul\":14448:14452   */\n      dup3\n        /* \"#utility.yul\":14444:14458   */\n      sub\n        /* \"#utility.yul\":14437:14441   */\n      0x00\n        /* \"#utility.yul\":14432:14435   */\n      dup7\n        /* \"#utility.yul\":14428:14442   */\n      add\n        /* \"#utility.yul\":14421:14459   */\n      mstore\n        /* \"#utility.yul\":14480:14553   */\n      tag_471\n        /* \"#utility.yul\":14548:14552   */\n      dup3\n        /* \"#utility.yul\":14534:14546   */\n      dup3\n        /* \"#utility.yul\":14480:14553   */\n      tag_284\n      jump\t// in\n    tag_471:\n        /* \"#utility.yul\":14472:14553   */\n      swap2\n      pop\n        /* \"#utility.yul\":14329:14564   */\n      pop\n        /* \"#utility.yul\":14648:14652   */\n      0x20\n        /* \"#utility.yul\":14641:14646   */\n      dup4\n        /* \"#utility.yul\":14637:14653   */\n      add\n        /* \"#utility.yul\":14631:14654   */\n      mload\n        /* \"#utility.yul\":14701:14704   */\n      dup5\n        /* \"#utility.yul\":14695:14699   */\n      dup3\n        /* \"#utility.yul\":14691:14705   */\n      sub\n        /* \"#utility.yul\":14684:14688   */\n      0x20\n        /* \"#utility.yul\":14679:14682   */\n      dup7\n        /* \"#utility.yul\":14675:14689   */\n      add\n        /* \"#utility.yul\":14668:14706   */\n      mstore\n        /* \"#utility.yul\":14727:14800   */\n      tag_472\n        /* \"#utility.yul\":14795:14799   */\n      dup3\n        /* \"#utility.yul\":14781:14793   */\n      dup3\n        /* \"#utility.yul\":14727:14800   */\n      tag_284\n      jump\t// in\n    tag_472:\n        /* \"#utility.yul\":14719:14800   */\n      swap2\n      pop\n        /* \"#utility.yul\":14574:14811   */\n      pop\n        /* \"#utility.yul\":14904:14908   */\n      0x40\n        /* \"#utility.yul\":14897:14902   */\n      dup4\n        /* \"#utility.yul\":14893:14909   */\n      add\n        /* \"#utility.yul\":14887:14910   */\n      mload\n        /* \"#utility.yul\":14957:14960   */\n      dup5\n        /* \"#utility.yul\":14951:14955   */\n      dup3\n        /* \"#utility.yul\":14947:14961   */\n      sub\n        /* \"#utility.yul\":14940:14944   */\n      0x40\n        /* \"#utility.yul\":14935:14938   */\n      dup7\n        /* \"#utility.yul\":14931:14945   */\n      add\n        /* \"#utility.yul\":14924:14962   */\n      mstore\n        /* \"#utility.yul\":14983:15056   */\n      tag_473\n        /* \"#utility.yul\":15051:15055   */\n      dup3\n        /* \"#utility.yul\":15037:15049   */\n      dup3\n        /* \"#utility.yul\":14983:15056   */\n      tag_284\n      jump\t// in\n    tag_473:\n        /* \"#utility.yul\":14975:15056   */\n      swap2\n      pop\n        /* \"#utility.yul\":14821:15067   */\n      pop\n        /* \"#utility.yul\":15159:15163   */\n      0x60\n        /* \"#utility.yul\":15152:15157   */\n      dup4\n        /* \"#utility.yul\":15148:15164   */\n      add\n        /* \"#utility.yul\":15142:15165   */\n      mload\n        /* \"#utility.yul\":15178:15241   */\n      tag_474\n        /* \"#utility.yul\":15235:15239   */\n      0x60\n        /* \"#utility.yul\":15230:15233   */\n      dup7\n        /* \"#utility.yul\":15226:15240   */\n      add\n        /* \"#utility.yul\":15212:15224   */\n      dup3\n        /* \"#utility.yul\":15178:15241   */\n      tag_291\n      jump\t// in\n    tag_474:\n        /* \"#utility.yul\":15077:15251   */\n      pop\n        /* \"#utility.yul\":15342:15346   */\n      0x80\n        /* \"#utility.yul\":15335:15340   */\n      dup4\n        /* \"#utility.yul\":15331:15347   */\n      add\n        /* \"#utility.yul\":15325:15348   */\n      mload\n        /* \"#utility.yul\":15361:15424   */\n      tag_475\n        /* \"#utility.yul\":15418:15422   */\n      0x80\n        /* \"#utility.yul\":15413:15416   */\n      dup7\n        /* \"#utility.yul\":15409:15423   */\n      add\n        /* \"#utility.yul\":15395:15407   */\n      dup3\n        /* \"#utility.yul\":15361:15424   */\n      tag_291\n      jump\t// in\n    tag_475:\n        /* \"#utility.yul\":15261:15434   */\n      pop\n        /* \"#utility.yul\":15520:15524   */\n      0xa0\n        /* \"#utility.yul\":15513:15518   */\n      dup4\n        /* \"#utility.yul\":15509:15525   */\n      add\n        /* \"#utility.yul\":15503:15526   */\n      mload\n        /* \"#utility.yul\":15539:15602   */\n      tag_476\n        /* \"#utility.yul\":15596:15600   */\n      0xa0\n        /* \"#utility.yul\":15591:15594   */\n      dup7\n        /* \"#utility.yul\":15587:15601   */\n      add\n        /* \"#utility.yul\":15573:15585   */\n      dup3\n        /* \"#utility.yul\":15539:15602   */\n      tag_291\n      jump\t// in\n    tag_476:\n        /* \"#utility.yul\":15444:15612   */\n      pop\n        /* \"#utility.yul\":15629:15633   */\n      dup1\n        /* \"#utility.yul\":15622:15633   */\n      swap2\n      pop\n        /* \"#utility.yul\":14283:15639   */\n      pop\n        /* \"#utility.yul\":14157:15639   */\n      swap3\n      swap2\n      pop\n      pop\n      jump\t// out\n        /* \"#utility.yul\":15645:15925   */\n    tag_293:\n        /* \"#utility.yul\":15776:15786   */\n      0x00\n        /* \"#utility.yul\":15811:15919   */\n      tag_478\n        /* \"#utility.yul\":15915:15918   */\n      dup4\n        /* \"#utility.yul\":15907:15913   */\n      dup4\n        /* \"#utility.yul\":15811:15919   */\n      tag_292\n      jump\t// in\n    tag_478:\n        /* \"#utility.yul\":15797:15919   */\n      swap1\n      pop\n        /* \"#utility.yul\":15645:15925   */\n      swap3\n      swap2\n      pop\n      pop\n      jump\t// out\n        /* \"#utility.yul\":15931:16075   */\n    tag_294:\n        /* \"#utility.yul\":16032:16036   */\n      0x00\n        /* \"#utility.yul\":16064:16068   */\n      0x20\n        /* \"#utility.yul\":16059:16062   */\n      dup3\n        /* \"#utility.yul\":16055:16069   */\n      add\n        /* \"#utility.yul\":16047:16069   */\n      swap1\n      pop\n        /* \"#utility.yul\":15931:16075   */\n      swap2\n      swap1\n      pop\n      jump\t// out\n        /* \"#utility.yul\":16185:17344   */\n    tag_295:\n        /* \"#utility.yul\":16366:16369   */\n      0x00\n        /* \"#utility.yul\":16395:16480   */\n      tag_481\n        /* \"#utility.yul\":16474:16479   */\n      dup3\n        /* \"#utility.yul\":16395:16480   */\n      tag_288\n      jump\t// in\n    tag_481:\n        /* \"#utility.yul\":16496:16613   */\n      tag_482\n        /* \"#utility.yul\":16606:16612   */\n      dup2\n        /* \"#utility.yul\":16601:16604   */\n      dup6\n        /* \"#utility.yul\":16496:16613   */\n      tag_289\n      jump\t// in\n    tag_482:\n        /* \"#utility.yul\":16489:16613   */\n      swap4\n      pop\n        /* \"#utility.yul\":16639:16642   */\n      dup4\n        /* \"#utility.yul\":16684:16688   */\n      0x20\n        /* \"#utility.yul\":16676:16682   */\n      dup3\n        /* \"#utility.yul\":16672:16689   */\n      mul\n        /* \"#utility.yul\":16667:16670   */\n      dup6\n        /* \"#utility.yul\":16663:16690   */\n      add\n        /* \"#utility.yul\":16714:16801   */\n      tag_483\n        /* \"#utility.yul\":16795:16800   */\n      dup6\n        /* \"#utility.yul\":16714:16801   */\n      tag_290\n      jump\t// in\n    tag_483:\n        /* \"#utility.yul\":16824:16831   */\n      dup1\n        /* \"#utility.yul\":16855:16856   */\n      0x00\n        /* \"#utility.yul\":16840:17299   */\n    tag_484:\n        /* \"#utility.yul\":16865:16871   */\n      dup6\n        /* \"#utility.yul\":16862:16863   */\n      dup2\n        /* \"#utility.yul\":16859:16872   */\n      lt\n        /* \"#utility.yul\":16840:17299   */\n      iszero\n      tag_486\n      jumpi\n        /* \"#utility.yul\":16936:16945   */\n      dup5\n        /* \"#utility.yul\":16930:16934   */\n      dup5\n        /* \"#utility.yul\":16926:16946   */\n      sub\n        /* \"#utility.yul\":16921:16924   */\n      dup10\n        /* \"#utility.yul\":16914:16947   */\n      mstore\n        /* \"#utility.yul\":16987:16993   */\n      dup2\n        /* \"#utility.yul\":16981:16994   */\n      mload\n        /* \"#utility.yul\":17015:17141   */\n      tag_487\n        /* \"#utility.yul\":17136:17140   */\n      dup6\n        /* \"#utility.yul\":17121:17134   */\n      dup3\n        /* \"#utility.yul\":17015:17141   */\n      tag_293\n      jump\t// in\n    tag_487:\n        /* \"#utility.yul\":17007:17141   */\n      swap5\n      pop\n        /* \"#utility.yul\":17164:17255   */\n      tag_488\n        /* \"#utility.yul\":17248:17254   */\n      dup4\n        /* \"#utility.yul\":17164:17255   */\n      tag_294\n      jump\t// in\n    tag_488:\n        /* \"#utility.yul\":17154:17255   */\n      swap3\n      pop\n        /* \"#utility.yul\":17284:17288   */\n      0x20\n        /* \"#utility.yul\":17279:17282   */\n      dup11\n        /* \"#utility.yul\":17275:17289   */\n      add\n        /* \"#utility.yul\":17268:17289   */\n      swap10\n      pop\n        /* \"#utility.yul\":16900:17299   */\n      pop\n        /* \"#utility.yul\":16887:16888   */\n      0x01\n        /* \"#utility.yul\":16884:16885   */\n      dup2\n        /* \"#utility.yul\":16880:16889   */\n      add\n        /* \"#utility.yul\":16875:16889   */\n      swap1\n      pop\n        /* \"#utility.yul\":16840:17299   */\n      jump(tag_484)\n    tag_486:\n        /* \"#utility.yul\":16844:16858   */\n      pop\n        /* \"#utility.yul\":17315:17319   */\n      dup3\n        /* \"#utility.yul\":17308:17319   */\n      swap8\n      pop\n        /* \"#utility.yul\":17335:17338   */\n      dup8\n        /* \"#utility.yul\":17328:17338   */\n      swap6\n      pop\n        /* \"#utility.yul\":16371:17344   */\n      pop\n      pop\n      pop\n      pop\n      pop\n        /* \"#utility.yul\":16185:17344   */\n      swap3\n      swap2\n      pop\n      pop\n      jump\t// out\n        /* \"#utility.yul\":17350:18148   */\n    tag_80:\n        /* \"#utility.yul\":17653:17657   */\n      0x00\n        /* \"#utility.yul\":17691:17693   */\n      0x40\n        /* \"#utility.yul\":17680:17689   */\n      dup3\n        /* \"#utility.yul\":17676:17694   */\n      add\n        /* \"#utility.yul\":17668:17694   */\n      swap1\n      pop\n        /* \"#utility.yul\":17740:17749   */\n      dup2\n        /* \"#utility.yul\":17734:17738   */\n      dup2\n        /* \"#utility.yul\":17730:17750   */\n      sub\n        /* \"#utility.yul\":17726:17727   */\n      0x00\n        /* \"#utility.yul\":17715:17724   */\n      dup4\n        /* \"#utility.yul\":17711:17728   */\n      add\n        /* \"#utility.yul\":17704:17751   */\n      mstore\n        /* \"#utility.yul\":17768:17896   */\n      tag_490\n        /* \"#utility.yul\":17891:17895   */\n      dup2\n        /* \"#utility.yul\":17882:17888   */\n      dup6\n        /* \"#utility.yul\":17768:17896   */\n      tag_287\n      jump\t// in\n    tag_490:\n        /* \"#utility.yul\":17760:17896   */\n      swap1\n      pop\n        /* \"#utility.yul\":17943:17952   */\n      dup2\n        /* \"#utility.yul\":17937:17941   */\n      dup2\n        /* \"#utility.yul\":17933:17953   */\n      sub\n        /* \"#utility.yul\":17928:17930   */\n      0x20\n        /* \"#utility.yul\":17917:17926   */\n      dup4\n        /* \"#utility.yul\":17913:17931   */\n      add\n        /* \"#utility.yul\":17906:17954   */\n      mstore\n        /* \"#utility.yul\":17971:18141   */\n      tag_491\n        /* \"#utility.yul\":18136:18140   */\n      dup2\n        /* \"#utility.yul\":18127:18133   */\n      dup5\n        /* \"#utility.yul\":17971:18141   */\n      tag_295\n      jump\t// in\n    tag_491:\n        /* \"#utility.yul\":17963:18141   */\n      swap1\n      pop\n        /* \"#utility.yul\":17350:18148   */\n      swap4\n      swap3\n      pop\n      pop\n      pop\n      jump\t// out\n        /* \"#utility.yul\":18154:18258   */\n    tag_296:\n        /* \"#utility.yul\":18199:18206   */\n      0x00\n        /* \"#utility.yul\":18228:18252   */\n      tag_493\n        /* \"#utility.yul\":18246:18251   */\n      dup3\n        /* \"#utility.yul\":18228:18252   */\n      tag_266\n      jump\t// in\n    tag_493:\n        /* \"#utility.yul\":18217:18252   */\n      swap1\n      pop\n        /* \"#utility.yul\":18154:18258   */\n      swap2\n      swap1\n      pop\n      jump\t// out\n        /* \"#utility.yul\":18264:18402   */\n    tag_297:\n        /* \"#utility.yul\":18345:18377   */\n      tag_495\n        /* \"#utility.yul\":18371:18376   */\n      dup2\n        /* \"#utility.yul\":18345:18377   */\n      tag_296\n      jump\t// in\n    tag_495:\n        /* \"#utility.yul\":18338:18343   */\n      dup2\n        /* \"#utility.yul\":18335:18378   */\n      eq\n        /* \"#utility.yul\":18325:18396   */\n      tag_496\n      jumpi\n        /* \"#utility.yul\":18392:18393   */\n      0x00\n        /* \"#utility.yul\":18389:18390   */\n      dup1\n        /* \"#utility.yul\":18382:18394   */\n      revert\n        /* \"#utility.yul\":18325:18396   */\n    tag_496:\n        /* \"#utility.yul\":18264:18402   */\n      pop\n      jump\t// out\n        /* \"#utility.yul\":18408:18563   */\n    tag_298:\n        /* \"#utility.yul\":18462:18467   */\n      0x00\n        /* \"#utility.yul\":18500:18506   */\n      dup2\n        /* \"#utility.yul\":18487:18507   */\n      calldataload\n        /* \"#utility.yul\":18478:18507   */\n      swap1\n      pop\n        /* \"#utility.yul\":18516:18557   */\n      tag_498\n        /* \"#utility.yul\":18551:18556   */\n      dup2\n        /* \"#utility.yul\":18516:18557   */\n      tag_297\n      jump\t// in\n    tag_498:\n        /* \"#utility.yul\":18408:18563   */\n      swap3\n      swap2\n      pop\n      pop\n      jump\t// out\n        /* \"#utility.yul\":18569:19059   */\n    tag_84:\n        /* \"#utility.yul\":18645:18651   */\n      0x00\n        /* \"#utility.yul\":18653:18659   */\n      dup1\n        /* \"#utility.yul\":18702:18704   */\n      0x40\n        /* \"#utility.yul\":18690:18699   */\n      dup4\n        /* \"#utility.yul\":18681:18688   */\n      dup6\n        /* \"#utility.yul\":18677:18700   */\n      sub\n        /* \"#utility.yul\":18673:18705   */\n      slt\n        /* \"#utility.yul\":18670:18789   */\n      iszero\n      tag_500\n      jumpi\n        /* \"#utility.yul\":18708:18787   */\n      tag_501\n      tag_256\n      jump\t// in\n    tag_501:\n        /* \"#utility.yul\":18670:18789   */\n    tag_500:\n        /* \"#utility.yul\":18828:18829   */\n      0x00\n        /* \"#utility.yul\":18853:18914   */\n      tag_502\n        /* \"#utility.yul\":18906:18913   */\n      dup6\n        /* \"#utility.yul\":18897:18903   */\n      dup3\n        /* \"#utility.yul\":18886:18895   */\n      dup7\n        /* \"#utility.yul\":18882:18904   */\n      add\n        /* \"#utility.yul\":18853:18914   */\n      tag_298\n      jump\t// in\n    tag_502:\n        /* \"#utility.yul\":18843:18914   */\n      swap3\n      pop\n        /* \"#utility.yul\":18799:18924   */\n      pop\n        /* \"#utility.yul\":18963:18965   */\n      0x20\n        /* \"#utility.yul\":18989:19042   */\n      tag_503\n        /* \"#utility.yul\":19034:19041   */\n      dup6\n        /* \"#utility.yul\":19025:19031   */\n      dup3\n        /* \"#utility.yul\":19014:19023   */\n      dup7\n        /* \"#utility.yul\":19010:19032   */\n      add\n        /* \"#utility.yul\":18989:19042   */\n      tag_260\n      jump\t// in\n    tag_503:\n        /* \"#utility.yul\":18979:19042   */\n      swap2\n      pop\n        /* \"#utility.yul\":18934:19052   */\n      pop\n        /* \"#utility.yul\":18569:19059   */\n      swap3\n      pop\n      swap3\n      swap1\n      pop\n      jump\t// out\n        /* \"#utility.yul\":19065:19899   */\n    tag_89:\n        /* \"#utility.yul\":19153:19159   */\n      0x00\n        /* \"#utility.yul\":19161:19167   */\n      dup1\n        /* \"#utility.yul\":19210:19212   */\n      0x40\n        /* \"#utility.yul\":19198:19207   */\n      dup4\n        /* \"#utility.yul\":19189:19196   */\n      dup6\n        /* \"#utility.yul\":19185:19208   */\n      sub\n        /* \"#utility.yul\":19181:19213   */\n      slt\n        /* \"#utility.yul\":19178:19297   */\n      iszero\n      tag_505\n      jumpi\n        /* \"#utility.yul\":19216:19295   */\n      tag_506\n      tag_256\n      jump\t// in\n    tag_506:\n        /* \"#utility.yul\":19178:19297   */\n    tag_505:\n        /* \"#utility.yul\":19364:19365   */\n      0x00\n        /* \"#utility.yul\":19353:19362   */\n      dup4\n        /* \"#utility.yul\":19349:19366   */\n      add\n        /* \"#utility.yul\":19336:19367   */\n      calldataload\n        /* \"#utility.yul\":19394:19412   */\n      0xffffffffffffffff\n        /* \"#utility.yul\":19386:19392   */\n      dup2\n        /* \"#utility.yul\":19383:19413   */\n      gt\n        /* \"#utility.yul\":19380:19497   */\n      iszero\n      tag_507\n      jumpi\n        /* \"#utility.yul\":19416:19495   */\n      tag_508\n      tag_257\n      jump\t// in\n    tag_508:\n        /* \"#utility.yul\":19380:19497   */\n    tag_507:\n        /* \"#utility.yul\":19521:19584   */\n      tag_509\n        /* \"#utility.yul\":19576:19583   */\n      dup6\n        /* \"#utility.yul\":19567:19573   */\n      dup3\n        /* \"#utility.yul\":19556:19565   */\n      dup7\n        /* \"#utility.yul\":19552:19574   */\n      add\n        /* \"#utility.yul\":19521:19584   */\n      tag_279\n      jump\t// in\n    tag_509:\n        /* \"#utility.yul\":19511:19584   */\n      swap3\n      pop\n        /* \"#utility.yul\":19307:19594   */\n      pop\n        /* \"#utility.yul\":19661:19663   */\n      0x20\n        /* \"#utility.yul\":19650:19659   */\n      dup4\n        /* \"#utility.yul\":19646:19664   */\n      add\n        /* \"#utility.yul\":19633:19665   */\n      calldataload\n        /* \"#utility.yul\":19692:19710   */\n      0xffffffffffffffff\n        /* \"#utility.yul\":19684:19690   */\n      dup2\n        /* \"#utility.yul\":19681:19711   */\n      gt\n        /* \"#utility.yul\":19678:19795   */\n      iszero\n      tag_510\n      jumpi\n        /* \"#utility.yul\":19714:19793   */\n      tag_511\n      tag_257\n      jump\t// in\n    tag_511:\n        /* \"#utility.yul\":19678:19795   */\n    tag_510:\n        /* \"#utility.yul\":19819:19882   */\n      tag_512\n        /* \"#utility.yul\":19874:19881   */\n      dup6\n        /* \"#utility.yul\":19865:19871   */\n      dup3\n        /* \"#utility.yul\":19854:19863   */\n      dup7\n        /* \"#utility.yul\":19850:19872   */\n      add\n        /* \"#utility.yul\":19819:19882   */\n      tag_279\n      jump\t// in\n    tag_512:\n        /* \"#utility.yul\":19809:19882   */\n      swap2\n      pop\n        /* \"#utility.yul\":19604:19892   */\n      pop\n        /* \"#utility.yul\":19065:19899   */\n      swap3\n      pop\n      swap3\n      swap1\n      pop\n      jump\t// out\n        /* \"#utility.yul\":19905:19995   */\n    tag_299:\n        /* \"#utility.yul\":19939:19946   */\n      0x00\n        /* \"#utility.yul\":19982:19987   */\n      dup2\n        /* \"#utility.yul\":19975:19988   */\n      iszero\n        /* \"#utility.yul\":19968:19989   */\n      iszero\n        /* \"#utility.yul\":19957:19989   */\n      swap1\n      pop\n        /* \"#utility.yul\":19905:19995   */\n      swap2\n      swap1\n      pop\n      jump\t// out\n        /* \"#utility.yul\":20001:20110   */\n    tag_300:\n        /* \"#utility.yul\":20082:20103   */\n      tag_515\n        /* \"#utility.yul\":20097:20102   */\n      dup2\n        /* \"#utility.yul\":20082:20103   */\n      tag_299\n      jump\t// in\n    tag_515:\n        /* \"#utility.yul\":20077:20080   */\n      dup3\n        /* \"#utility.yul\":20070:20104   */\n      mstore\n        /* \"#utility.yul\":20001:20110   */\n      pop\n      pop\n      jump\t// out\n        /* \"#utility.yul\":20116:20326   */\n    tag_92:\n        /* \"#utility.yul\":20203:20207   */\n      0x00\n        /* \"#utility.yul\":20241:20243   */\n      0x20\n        /* \"#utility.yul\":20230:20239   */\n      dup3\n        /* \"#utility.yul\":20226:20244   */\n      add\n        /* \"#utility.yul\":20218:20244   */\n      swap1\n      pop\n        /* \"#utility.yul\":20254:20319   */\n      tag_517\n        /* \"#utility.yul\":20316:20317   */\n      0x00\n        /* \"#utility.yul\":20305:20314   */\n      dup4\n        /* \"#utility.yul\":20301:20318   */\n      add\n        /* \"#utility.yul\":20292:20298   */\n      dup5\n        /* \"#utility.yul\":20254:20319   */\n      tag_300\n      jump\t// in\n    tag_517:\n        /* \"#utility.yul\":20116:20326   */\n      swap3\n      swap2\n      pop\n      pop\n      jump\t// out\n        /* \"#utility.yul\":20332:20986   */\n    tag_99:\n        /* \"#utility.yul\":20410:20416   */\n      0x00\n        /* \"#utility.yul\":20418:20424   */\n      dup1\n        /* \"#utility.yul\":20467:20469   */\n      0x40\n        /* \"#utility.yul\":20455:20464   */\n      dup4\n        /* \"#utility.yul\":20446:20453   */\n      dup6\n        /* \"#utility.yul\":20442:20465   */\n      sub\n        /* \"#utility.yul\":20438:20470   */\n      slt\n        /* \"#utility.yul\":20435:20554   */\n      iszero\n      tag_519\n      jumpi\n        /* \"#utility.yul\":20473:20552   */\n      tag_520\n      tag_256\n      jump\t// in\n    tag_520:\n        /* \"#utility.yul\":20435:20554   */\n    tag_519:\n        /* \"#utility.yul\":20593:20594   */\n      0x00\n        /* \"#utility.yul\":20618:20671   */\n      tag_521\n        /* \"#utility.yul\":20663:20670   */\n      dup6\n        /* \"#utility.yul\":20654:20660   */\n      dup3\n        /* \"#utility.yul\":20643:20652   */\n      dup7\n        /* \"#utility.yul\":20639:20661   */\n      add\n        /* \"#utility.yul\":20618:20671   */\n      tag_271\n      jump\t// in\n    tag_521:\n        /* \"#utility.yul\":20608:20671   */\n      swap3\n      pop\n        /* \"#utility.yul\":20564:20681   */\n      pop\n        /* \"#utility.yul\":20748:20750   */\n      0x20\n        /* \"#utility.yul\":20737:20746   */\n      dup4\n        /* \"#utility.yul\":20733:20751   */\n      add\n        /* \"#utility.yul\":20720:20752   */\n      calldataload\n        /* \"#utility.yul\":20779:20797   */\n      0xffffffffffffffff\n        /* \"#utility.yul\":20771:20777   */\n      dup2\n        /* \"#utility.yul\":20768:20798   */\n      gt\n        /* \"#utility.yul\":20765:20882   */\n      iszero\n      tag_522\n      jumpi\n        /* \"#utility.yul\":20801:20880   */\n      tag_523\n      tag_257\n      jump\t// in\n    tag_523:\n        /* \"#utility.yul\":20765:20882   */\n    tag_522:\n        /* \"#utility.yul\":20906:20969   */\n      tag_524\n        /* \"#utility.yul\":20961:20968   */\n      dup6\n        /* \"#utility.yul\":20952:20958   */\n      dup3\n        /* \"#utility.yul\":20941:20950   */\n      dup7\n        /* \"#utility.yul\":20937:20959   */\n      add\n        /* \"#utility.yul\":20906:20969   */\n      tag_279\n      jump\t// in\n    tag_524:\n        /* \"#utility.yul\":20896:20969   */\n      swap2\n      pop\n        /* \"#utility.yul\":20691:20979   */\n      pop\n        /* \"#utility.yul\":20332:20986   */\n      swap3\n      pop\n      swap3\n      swap1\n      pop\n      jump\t// out\n        /* \"#utility.yul\":20992:21172   */\n    tag_301:\n        /* \"#utility.yul\":21040:21117   */\n      0x4e487b7100000000000000000000000000000000000000000000000000000000\n        /* \"#utility.yul\":21037:21038   */\n      0x00\n        /* \"#utility.yul\":21030:21118   */\n      mstore\n        /* \"#utility.yul\":21137:21141   */\n      0x22\n        /* \"#utility.yul\":21134:21135   */\n      0x04\n        /* \"#utility.yul\":21127:21142   */\n      mstore\n        /* \"#utility.yul\":21161:21165   */\n      0x24\n        /* \"#utility.yul\":21158:21159   */\n      0x00\n        /* \"#utility.yul\":21151:21166   */\n      revert\n        /* \"#utility.yul\":21178:21498   */\n    tag_115:\n        /* \"#utility.yul\":21222:21228   */\n      0x00\n        /* \"#utility.yul\":21259:21260   */\n      0x02\n        /* \"#utility.yul\":21253:21257   */\n      dup3\n        /* \"#utility.yul\":21249:21261   */\n      div\n        /* \"#utility.yul\":21239:21261   */\n      swap1\n      pop\n        /* \"#utility.yul\":21306:21307   */\n      0x01\n        /* \"#utility.yul\":21300:21304   */\n      dup3\n        /* \"#utility.yul\":21296:21308   */\n      and\n        /* \"#utility.yul\":21327:21345   */\n      dup1\n        /* \"#utility.yul\":21317:21398   */\n      tag_527\n      jumpi\n        /* \"#utility.yul\":21383:21387   */\n      0x7f\n        /* \"#utility.yul\":21375:21381   */\n      dup3\n        /* \"#utility.yul\":21371:21388   */\n      and\n        /* \"#utility.yul\":21361:21388   */\n      swap2\n      pop\n        /* \"#utility.yul\":21317:21398   */\n    tag_527:\n        /* \"#utility.yul\":21445:21447   */\n      0x20\n        /* \"#utility.yul\":21437:21443   */\n      dup3\n        /* \"#utility.yul\":21434:21448   */\n      lt\n        /* \"#utility.yul\":21414:21432   */\n      dup2\n        /* \"#utility.yul\":21411:21449   */\n      sub\n        /* \"#utility.yul\":21408:21492   */\n      tag_528\n      jumpi\n        /* \"#utility.yul\":21464:21482   */\n      tag_529\n      tag_301\n      jump\t// in\n    tag_529:\n        /* \"#utility.yul\":21408:21492   */\n    tag_528:\n        /* \"#utility.yul\":21229:21498   */\n      pop\n        /* \"#utility.yul\":21178:21498   */\n      swap2\n      swap1\n      pop\n      jump\t// out\n        /* \"#utility.yul\":21504:21652   */\n    tag_302:\n        /* \"#utility.yul\":21606:21617   */\n      0x00\n        /* \"#utility.yul\":21643:21646   */\n      dup2\n        /* \"#utility.yul\":21628:21646   */\n      swap1\n      pop\n        /* \"#utility.yul\":21504:21652   */\n      swap3\n      swap2\n      pop\n      pop\n      jump\t// out\n        /* \"#utility.yul\":21658:22048   */\n    tag_303:\n        /* \"#utility.yul\":21764:21767   */\n      0x00\n        /* \"#utility.yul\":21792:21831   */\n      tag_532\n        /* \"#utility.yul\":21825:21830   */\n      dup3\n        /* \"#utility.yul\":21792:21831   */\n      tag_261\n      jump\t// in\n    tag_532:\n        /* \"#utility.yul\":21847:21936   */\n      tag_533\n        /* \"#utility.yul\":21929:21935   */\n      dup2\n        /* \"#utility.yul\":21924:21927   */\n      dup6\n        /* \"#utility.yul\":21847:21936   */\n      tag_302\n      jump\t// in\n    tag_533:\n        /* \"#utility.yul\":21840:21936   */\n      swap4\n      pop\n        /* \"#utility.yul\":21945:22010   */\n      tag_534\n        /* \"#utility.yul\":22003:22009   */\n      dup2\n        /* \"#utility.yul\":21998:22001   */\n      dup6\n        /* \"#utility.yul\":21991:21995   */\n      0x20\n        /* \"#utility.yul\":21984:21989   */\n      dup7\n        /* \"#utility.yul\":21980:21996   */\n      add\n        /* \"#utility.yul\":21945:22010   */\n      tag_263\n      jump\t// in\n    tag_534:\n        /* \"#utility.yul\":22035:22041   */\n      dup1\n        /* \"#utility.yul\":22030:22033   */\n      dup5\n        /* \"#utility.yul\":22026:22042   */\n      add\n        /* \"#utility.yul\":22019:22042   */\n      swap2\n      pop\n        /* \"#utility.yul\":21768:22048   */\n      pop\n        /* \"#utility.yul\":21658:22048   */\n      swap3\n      swap2\n      pop\n      pop\n      jump\t// out\n        /* \"#utility.yul\":22054:22329   */\n    tag_155:\n        /* \"#utility.yul\":22186:22189   */\n      0x00\n        /* \"#utility.yul\":22208:22303   */\n      tag_536\n        /* \"#utility.yul\":22299:22302   */\n      dup3\n        /* \"#utility.yul\":22290:22296   */\n      dup5\n        /* \"#utility.yul\":22208:22303   */\n      tag_303\n      jump\t// in\n    tag_536:\n        /* \"#utility.yul\":22201:22303   */\n      swap2\n      pop\n        /* \"#utility.yul\":22320:22323   */\n      dup2\n        /* \"#utility.yul\":22313:22323   */\n      swap1\n      pop\n        /* \"#utility.yul\":22054:22329   */\n      swap3\n      swap2\n      pop\n      pop\n      jump\t// out\n        /* \"#utility.yul\":22335:22476   */\n    tag_304:\n        /* \"#utility.yul\":22384:22388   */\n      0x00\n        /* \"#utility.yul\":22407:22410   */\n      dup2\n        /* \"#utility.yul\":22399:22410   */\n      swap1\n      pop\n        /* \"#utility.yul\":22430:22433   */\n      dup2\n        /* \"#utility.yul\":22427:22428   */\n      0x00\n        /* \"#utility.yul\":22420:22434   */\n      mstore\n        /* \"#utility.yul\":22464:22468   */\n      0x20\n        /* \"#utility.yul\":22461:22462   */\n      0x00\n        /* \"#utility.yul\":22451:22469   */\n      keccak256\n        /* \"#utility.yul\":22443:22469   */\n      swap1\n      pop\n        /* \"#utility.yul\":22335:22476   */\n      swap2\n      swap1\n      pop\n      jump\t// out\n        /* \"#utility.yul\":22482:22575   */\n    tag_305:\n        /* \"#utility.yul\":22519:22525   */\n      0x00\n        /* \"#utility.yul\":22566:22568   */\n      0x20\n        /* \"#utility.yul\":22561:22563   */\n      0x1f\n        /* \"#utility.yul\":22554:22559   */\n      dup4\n        /* \"#utility.yul\":22550:22564   */\n      add\n        /* \"#utility.yul\":22546:22569   */\n      div\n        /* \"#utility.yul\":22536:22569   */\n      swap1\n      pop\n        /* \"#utility.yul\":22482:22575   */\n      swap2\n      swap1\n      pop\n      jump\t// out\n        /* \"#utility.yul\":22581:22688   */\n    tag_306:\n        /* \"#utility.yul\":22625:22633   */\n      0x00\n        /* \"#utility.yul\":22675:22680   */\n      dup3\n        /* \"#utility.yul\":22669:22673   */\n      dup3\n        /* \"#utility.yul\":22665:22681   */\n      shl\n        /* \"#utility.yul\":22644:22681   */\n      swap1\n      pop\n        /* \"#utility.yul\":22581:22688   */\n      swap3\n      swap2\n      pop\n      pop\n      jump\t// out\n        /* \"#utility.yul\":22694:23087   */\n    tag_307:\n        /* \"#utility.yul\":22763:22769   */\n      0x00\n        /* \"#utility.yul\":22813:22814   */\n      0x08\n        /* \"#utility.yul\":22801:22811   */\n      dup4\n        /* \"#utility.yul\":22797:22815   */\n      mul\n        /* \"#utility.yul\":22836:22933   */\n      tag_541\n        /* \"#utility.yul\":22866:22932   */\n      0xffffffffffffffffffffffffffffffffffffffffffffffffffffffffffffffff\n        /* \"#utility.yul\":22855:22864   */\n      dup3\n        /* \"#utility.yul\":22836:22933   */\n      tag_306\n      jump\t// in\n    tag_541:\n        /* \"#utility.yul\":22954:22993   */\n      tag_542\n        /* \"#utility.yul\":22984:22992   */\n      dup7\n        /* \"#utility.yul\":22973:22982   */\n      dup4\n        /* \"#utility.yul\":22954:22993   */\n      tag_306\n      jump\t// in\n    tag_542:\n        /* \"#utility.yul\":22942:22993   */\n      swap6\n      pop\n        /* \"#utility.yul\":23026:23030   */\n      dup1\n        /* \"#utility.yul\":23022:23031   */\n      not\n        /* \"#utility.yul\":23015:23020   */\n      dup5\n        /* \"#utility.yul\":23011:23032   */\n      and\n        /* \"#utility.yul\":23002:23032   */\n      swap4\n      pop\n        /* \"#utility.yul\":23075:23079   */\n      dup1\n        /* \"#utility.yul\":23065:23073   */\n      dup7\n        /* \"#utility.yul\":23061:23080   */\n      and\n        /* \"#utility.yul\":23054:23059   */\n      dup5\n        /* \"#utility.yul\":23051:23081   */\n      or\n        /* \"#utility.yul\":23041:23081   */\n      swap3\n      pop\n        /* \"#utility.yul\":22770:23087   */\n      pop\n      pop\n        /* \"#utility.yul\":22694:23087   */\n      swap4\n      swap3\n      pop\n      pop\n      pop\n      jump\t// out\n        /* \"#utility.yul\":23093:23153   */\n    tag_308:\n        /* \"#utility.yul\":23121:23124   */\n      0x00\n        /* \"#utility.yul\":23142:23147   */\n      dup2\n        /* \"#utility.yul\":23135:23147   */\n      swap1\n      pop\n        /* \"#utility.yul\":23093:23153   */\n      swap2\n      swap1\n      pop\n      jump\t// out\n        /* \"#utility.yul\":23159:23301   */\n    tag_309:\n        /* \"#utility.yul\":23209:23218   */\n      0x00\n        /* \"#utility.yul\":23242:23295   */\n      tag_545\n        /* \"#utility.yul\":23260:23294   */\n      tag_546\n        /* \"#utility.yul\":23269:23293   */\n      tag_547\n        /* \"#utility.yul\":23287:23292   */\n      dup5\n        /* \"#utility.yul\":23269:23293   */\n      tag_258\n      jump\t// in\n    tag_547:\n        /* \"#utility.yul\":23260:23294   */\n      tag_308\n      jump\t// in\n    tag_546:\n        /* \"#utility.yul\":23242:23295   */\n      tag_258\n      jump\t// in\n    tag_545:\n        /* \"#utility.yul\":23229:23295   */\n      swap1\n      pop\n        /* \"#utility.yul\":23159:23301   */\n      swap2\n      swap1\n      pop\n      jump\t// out\n        /* \"#utility.yul\":23307:23382   */\n    tag_310:\n        /* \"#utility.yul\":23350:23353   */\n      0x00\n        /* \"#utility.yul\":23371:23376   */\n      dup2\n        /* \"#utility.yul\":23364:23376   */\n      swap1\n      pop\n        /* \"#utility.yul\":23307:23382   */\n      swap2\n      swap1\n      pop\n      jump\t// out\n        /* \"#utility.yul\":23388:23657   */\n    tag_311:\n        /* \"#utility.yul\":23498:23537   */\n      tag_550\n        /* \"#utility.yul\":23529:23536   */\n      dup4\n        /* \"#utility.yul\":23498:23537   */\n      tag_309\n      jump\t// in\n    tag_550:\n        /* \"#utility.yul\":23559:23650   */\n      tag_551\n        /* \"#utility.yul\":23608:23649   */\n      tag_552\n        /* \"#utility.yul\":23632:23648   */\n      dup3\n        /* \"#utility.yul\":23608:23649   */\n      tag_310\n      jump\t// in\n    tag_552:\n        /* \"#utility.yul\":23600:23606   */\n      dup5\n        /* \"#utility.yul\":23593:23597   */\n      dup5\n        /* \"#utility.yul\":23587:23598   */\n      sload\n        /* \"#utility.yul\":23559:23650   */\n      tag_307\n      jump\t// in\n    tag_551:\n        /* \"#utility.yul\":23553:23557   */\n      dup3\n        /* \"#utility.yul\":23546:23651   */\n      sstore\n        /* \"#utility.yul\":23464:23657   */\n      pop\n        /* \"#utility.yul\":23388:23657   */\n      pop\n      pop\n      pop\n      jump\t// out\n        /* \"#utility.yul\":23663:23736   */\n    tag_312:\n        /* \"#utility.yul\":23708:23711   */\n      0x00\n        /* \"#utility.yul\":23663:23736   */\n      swap1\n      jump\t// out\n        /* \"#utility.yul\":23742:23931   */\n    tag_313:\n        /* \"#utility.yul\":23819:23851   */\n      tag_555\n      tag_312\n      jump\t// in\n    tag_555:\n        /* \"#utility.yul\":23860:23925   */\n      tag_556\n        /* \"#utility.yul\":23918:23924   */\n      dup2\n        /* \"#utility.yul\":23910:23916   */\n      dup5\n        /* \"#utility.yul\":23904:23908   */\n      dup5\n        /* \"#utility.yul\":23860:23925   */\n      tag_311\n      jump\t// in\n    tag_556:\n        /* \"#utility.yul\":23795:23931   */\n      pop\n        /* \"#utility.yul\":23742:23931   */\n      pop\n      pop\n      jump\t// out\n        /* \"#utility.yul\":23937:24123   */\n    tag_314:\n        /* \"#utility.yul\":23997:24117   */\n    tag_558:\n        /* \"#utility.yul\":24014:24017   */\n      dup2\n        /* \"#utility.yul\":24007:24012   */\n      dup2\n        /* \"#utility.yul\":24004:24018   */\n      lt\n        /* \"#utility.yul\":23997:24117   */\n      iszero\n      tag_560\n      jumpi\n        /* \"#utility.yul\":24068:24107   */\n      tag_561\n        /* \"#utility.yul\":24105:24106   */\n      0x00\n        /* \"#utility.yul\":24098:24103   */\n      dup3\n        /* \"#utility.yul\":24068:24107   */\n      tag_313\n      jump\t// in\n    tag_561:\n        /* \"#utility.yul\":24041:24042   */\n      0x01\n        /* \"#utility.yul\":24034:24039   */\n      dup2\n        /* \"#utility.yul\":24030:24043   */\n      add\n        /* \"#utility.yul\":24021:24043   */\n      swap1\n      pop\n        /* \"#utility.yul\":23997:24117   */\n      jump(tag_558)\n    tag_560:\n        /* \"#utility.yul\":23937:24123   */\n      pop\n      pop\n      jump\t// out\n        /* \"#utility.yul\":24129:24672   */\n    tag_315:\n        /* \"#utility.yul\":24230:24232   */\n      0x1f\n        /* \"#utility.yul\":24225:24228   */\n      dup3\n        /* \"#utility.yul\":24222:24233   */\n      gt\n        /* \"#utility.yul\":24219:24665   */\n      iszero\n      tag_563\n      jumpi\n        /* \"#utility.yul\":24264:24302   */\n      tag_564\n        /* \"#utility.yul\":24296:24301   */\n      dup2\n        /* \"#utility.yul\":24264:24302   */\n      tag_304\n      jump\t// in\n    tag_564:\n        /* \"#utility.yul\":24348:24377   */\n      tag_565\n        /* \"#utility.yul\":24366:24376   */\n      dup5\n        /* \"#utility.yul\":24348:24377   */\n      tag_305\n      jump\t// in\n    tag_565:\n        /* \"#utility.yul\":24338:24346   */\n      dup2\n        /* \"#utility.yul\":24334:24378   */\n      add\n        /* \"#utility.yul\":24531:24533   */\n      0x20\n        /* \"#utility.yul\":24519:24529   */\n      dup6\n        /* \"#utility.yul\":24516:24534   */\n      lt\n        /* \"#utility.yul\":24513:24562   */\n      iszero\n      tag_566\n      jumpi\n        /* \"#utility.yul\":24552:24560   */\n      dup2\n        /* \"#utility.yul\":24537:24560   */\n      swap1\n      pop\n        /* \"#utility.yul\":24513:24562   */\n    tag_566:\n        /* \"#utility.yul\":24575:24655   */\n      tag_567\n        /* \"#utility.yul\":24631:24653   */\n      tag_568\n        /* \"#utility.yul\":24649:24652   */\n      dup6\n        /* \"#utility.yul\":24631:24653   */\n      tag_305\n      jump\t// in\n    tag_568:\n        /* \"#utility.yul\":24621:24629   */\n      dup4\n        /* \"#utility.yul\":24617:24654   */\n      add\n        /* \"#utility.yul\":24604:24615   */\n      dup3\n        /* \"#utility.yul\":24575:24655   */\n      tag_314\n      jump\t// in\n    tag_567:\n        /* \"#utility.yul\":24234:24665   */\n      pop\n      pop\n        /* \"#utility.yul\":24219:24665   */\n    tag_563:\n        /* \"#utility.yul\":24129:24672   */\n      pop\n      pop\n      pop\n      jump\t// out\n        /* \"#utility.yul\":24678:24795   */\n    tag_316:\n        /* \"#utility.yul\":24732:24740   */\n      0x00\n        /* \"#utility.yul\":24782:24787   */\n      dup3\n        /* \"#utility.yul\":24776:24780   */\n      dup3\n        /* \"#utility.yul\":24772:24788   */\n      shr\n        /* \"#utility.yul\":24751:24788   */\n      swap1\n      pop\n        /* \"#utility.yul\":24678:24795   */\n      swap3\n      swap2\n      pop\n      pop\n      jump\t// out\n        /* \"#utility.yul\":24801:24970   */\n    tag_317:\n        /* \"#utility.yul\":24845:24851   */\n      0x00\n        /* \"#utility.yul\":24878:24929   */\n      tag_571\n        /* \"#utility.yul\":24926:24927   */\n      0x00\n        /* \"#utility.yul\":24922:24928   */\n      not\n        /* \"#utility.yul\":24914:24919   */\n      dup5\n        /* \"#utility.yul\":24911:24912   */\n      0x08\n        /* \"#utility.yul\":24907:24920   */\n      mul\n        /* \"#utility.yul\":24878:24929   */\n      tag_316\n      jump\t// in\n    tag_571:\n        /* \"#utility.yul\":24874:24930   */\n      not\n        /* \"#utility.yul\":24959:24963   */\n      dup1\n        /* \"#utility.yul\":24953:24957   */\n      dup4\n        /* \"#utility.yul\":24949:24964   */\n      and\n        /* \"#utility.yul\":24939:24964   */\n      swap2\n      pop\n        /* \"#utility.yul\":24852:24970   */\n      pop\n        /* \"#utility.yul\":24801:24970   */\n      swap3\n      swap2\n      pop\n      pop\n      jump\t// out\n        /* \"#utility.yul\":24975:25270   */\n    tag_318:\n        /* \"#utility.yul\":25051:25055   */\n      0x00\n        /* \"#utility.yul\":25197:25226   */\n      tag_573\n        /* \"#utility.yul\":25222:25225   */\n      dup4\n        /* \"#utility.yul\":25216:25220   */\n      dup4\n        /* \"#utility.yul\":25197:25226   */\n      tag_317\n      jump\t// in\n    tag_573:\n        /* \"#utility.yul\":25189:25226   */\n      swap2\n      pop\n        /* \"#utility.yul\":25259:25262   */\n      dup3\n        /* \"#utility.yul\":25256:25257   */\n      0x02\n        /* \"#utility.yul\":25252:25263   */\n      mul\n        /* \"#utility.yul\":25246:25250   */\n      dup3\n        /* \"#utility.yul\":25243:25264   */\n      or\n        /* \"#utility.yul\":25235:25264   */\n      swap1\n      pop\n        /* \"#utility.yul\":24975:25270   */\n      swap3\n      swap2\n      pop\n      pop\n      jump\t// out\n        /* \"#utility.yul\":25275:26670   */\n    tag_165:\n        /* \"#utility.yul\":25392:25429   */\n      tag_575\n        /* \"#utility.yul\":25425:25428   */\n      dup3\n        /* \"#utility.yul\":25392:25429   */\n      tag_261\n      jump\t// in\n    tag_575:\n        /* \"#utility.yul\":25494:25512   */\n      0xffffffffffffffff\n        /* \"#utility.yul\":25486:25492   */\n      dup2\n        /* \"#utility.yul\":25483:25513   */\n      gt\n        /* \"#utility.yul\":25480:25536   */\n      iszero\n      tag_576\n      jumpi\n        /* \"#utility.yul\":25516:25534   */\n      tag_577\n      tag_183\n      jump\t// in\n    tag_577:\n        /* \"#utility.yul\":25480:25536   */\n    tag_576:\n        /* \"#utility.yul\":25560:25598   */\n      tag_578\n        /* \"#utility.yul\":25592:25596   */\n      dup3\n        /* \"#utility.yul\":25586:25597   */\n      sload\n        /* \"#utility.yul\":25560:25598   */\n      tag_115\n      jump\t// in\n    tag_578:\n        /* \"#utility.yul\":25645:25712   */\n      tag_579\n        /* \"#utility.yul\":25705:25711   */\n      dup3\n        /* \"#utility.yul\":25697:25703   */\n      dup3\n        /* \"#utility.yul\":25691:25695   */\n      dup6\n        /* \"#utility.yul\":25645:25712   */\n      tag_315\n      jump\t// in\n    tag_579:\n        /* \"#utility.yul\":25739:25740   */\n      0x00\n        /* \"#utility.yul\":25763:25767   */\n      0x20\n        /* \"#utility.yul\":25750:25767   */\n      swap1\n      pop\n        /* \"#utility.yul\":25795:25797   */\n      0x1f\n        /* \"#utility.yul\":25787:25793   */\n      dup4\n        /* \"#utility.yul\":25784:25798   */\n      gt\n        /* \"#utility.yul\":25812:25813   */\n      0x01\n        /* \"#utility.yul\":25807:26425   */\n      dup2\n      eq\n      tag_581\n      jumpi\n        /* \"#utility.yul\":26469:26470   */\n      0x00\n        /* \"#utility.yul\":26486:26492   */\n      dup5\n        /* \"#utility.yul\":26483:26560   */\n      iszero\n      tag_582\n      jumpi\n        /* \"#utility.yul\":26535:26544   */\n      dup3\n        /* \"#utility.yul\":26530:26533   */\n      dup8\n        /* \"#utility.yul\":26526:26545   */\n      add\n        /* \"#utility.yul\":26520:26546   */\n      mload\n        /* \"#utility.yul\":26511:26546   */\n      swap1\n      pop\n        /* \"#utility.yul\":26483:26560   */\n    tag_582:\n        /* \"#utility.yul\":26586:26653   */\n      tag_583\n        /* \"#utility.yul\":26646:26652   */\n      dup6\n        /* \"#utility.yul\":26639:26644   */\n      dup3\n        /* \"#utility.yul\":26586:26653   */\n      tag_318\n      jump\t// in\n    tag_583:\n        /* \"#utility.yul\":26580:26584   */\n      dup7\n        /* \"#utility.yul\":26573:26654   */\n      sstore\n        /* \"#utility.yul\":26442:26664   */\n      pop\n        /* \"#utility.yul\":25777:26664   */\n      jump(tag_580)\n        /* \"#utility.yul\":25807:26425   */\n    tag_581:\n        /* \"#utility.yul\":25859:25863   */\n      0x1f\n        /* \"#utility.yul\":25855:25864   */\n      not\n        /* \"#utility.yul\":25847:25853   */\n      dup5\n        /* \"#utility.yul\":25843:25865   */\n      and\n        /* \"#utility.yul\":25893:25930   */\n      tag_584\n        /* \"#utility.yul\":25925:25929   */\n      dup7\n        /* \"#utility.yul\":25893:25930   */\n      tag_304\n      jump\t// in\n    tag_584:\n        /* \"#utility.yul\":25952:25953   */\n      0x00\n        /* \"#utility.yul\":25966:26174   */\n    tag_585:\n        /* \"#utility.yul\":25980:25987   */\n      dup3\n        /* \"#utility.yul\":25977:25978   */\n      dup2\n        /* \"#utility.yul\":25974:25988   */\n      lt\n        /* \"#utility.yul\":25966:26174   */\n      iszero\n      tag_587\n      jumpi\n        /* \"#utility.yul\":26059:26068   */\n      dup5\n        /* \"#utility.yul\":26054:26057   */\n      dup10\n        /* \"#utility.yul\":26050:26069   */\n      add\n        /* \"#utility.yul\":26044:26070   */\n      mload\n        /* \"#utility.yul\":26036:26042   */\n      dup3\n        /* \"#utility.yul\":26029:26071   */\n      sstore\n        /* \"#utility.yul\":26110:26111   */\n      0x01\n        /* \"#utility.yul\":26102:26108   */\n      dup3\n        /* \"#utility.yul\":26098:26112   */\n      add\n        /* \"#utility.yul\":26088:26112   */\n      swap2\n      pop\n        /* \"#utility.yul\":26157:26159   */\n      0x20\n        /* \"#utility.yul\":26146:26155   */\n      dup6\n        /* \"#utility.yul\":26142:26160   */\n      add\n        /* \"#utility.yul\":26129:26160   */\n      swap5\n      pop\n        /* \"#utility.yul\":26003:26007   */\n      0x20\n        /* \"#utility.yul\":26000:26001   */\n      dup2\n        /* \"#utility.yul\":25996:26008   */\n      add\n        /* \"#utility.yul\":25991:26008   */\n      swap1\n      pop\n        /* \"#utility.yul\":25966:26174   */\n      jump(tag_585)\n    tag_587:\n        /* \"#utility.yul\":26202:26208   */\n      dup7\n        /* \"#utility.yul\":26193:26200   */\n      dup4\n        /* \"#utility.yul\":26190:26209   */\n      lt\n        /* \"#utility.yul\":26187:26366   */\n      iszero\n      tag_588\n      jumpi\n        /* \"#utility.yul\":26260:26269   */\n      dup5\n        /* \"#utility.yul\":26255:26258   */\n      dup10\n        /* \"#utility.yul\":26251:26270   */\n      add\n        /* \"#utility.yul\":26245:26271   */\n      mload\n        /* \"#utility.yul\":26303:26351   */\n      tag_589\n        /* \"#utility.yul\":26345:26349   */\n      0x1f\n        /* \"#utility.yul\":26337:26343   */\n      dup10\n        /* \"#utility.yul\":26333:26350   */\n      and\n        /* \"#utility.yul\":26322:26331   */\n      dup3\n        /* \"#utility.yul\":26303:26351   */\n      tag_317\n      jump\t// in\n    tag_589:\n        /* \"#utility.yul\":26295:26301   */\n      dup4\n        /* \"#utility.yul\":26288:26352   */\n      sstore\n        /* \"#utility.yul\":26210:26366   */\n      pop\n        /* \"#utility.yul\":26187:26366   */\n    tag_588:\n        /* \"#utility.yul\":26412:26413   */\n      0x01\n        /* \"#utility.yul\":26408:26409   */\n      0x02\n        /* \"#utility.yul\":26400:26406   */\n      dup9\n        /* \"#utility.yul\":26396:26410   */\n      mul\n        /* \"#utility.yul\":26392:26414   */\n      add\n        /* \"#utility.yul\":26386:26390   */\n      dup9\n        /* \"#utility.yul\":26379:26415   */\n      sstore\n        /* \"#utility.yul\":25814:26425   */\n      pop\n      pop\n      pop\n        /* \"#utility.yul\":25777:26664   */\n    tag_580:\n      pop\n        /* \"#utility.yul\":25367:26670   */\n      pop\n      pop\n      pop\n        /* \"#utility.yul\":25275:26670   */\n      pop\n      pop\n      jump\t// out\n        /* \"#utility.yul\":26676:26856   */\n    tag_319:\n        /* \"#utility.yul\":26724:26801   */\n      0x4e487b7100000000000000000000000000000000000000000000000000000000\n        /* \"#utility.yul\":26721:26722   */\n      0x00\n        /* \"#utility.yul\":26714:26802   */\n      mstore\n        /* \"#utility.yul\":26821:26825   */\n      0x11\n        /* \"#utility.yul\":26818:26819   */\n      0x04\n        /* \"#utility.yul\":26811:26826   */\n      mstore\n        /* \"#utility.yul\":26845:26849   */\n      0x24\n        /* \"#utility.yul\":26842:26843   */\n      0x00\n        /* \"#utility.yul\":26835:26850   */\n      revert\n        /* \"#utility.yul\":26862:27095   */\n    tag_169:\n        /* \"#utility.yul\":26901:26904   */\n      0x00\n        /* \"#utility.yul\":26924:26948   */\n      tag_592\n        /* \"#utility.yul\":26942:26947   */\n      dup3\n        /* \"#utility.yul\":26924:26948   */\n      tag_258\n      jump\t// in\n    tag_592:\n        /* \"#utility.yul\":26915:26948   */\n      swap2\n      pop\n        /* \"#utility.yul\":26970:27036   */\n      0xffffffffffffffffffffffffffffffffffffffffffffffffffffffffffffffff\n        /* \"#utility.yul\":26963:26968   */\n      dup3\n        /* \"#utility.yul\":26960:27037   */\n      sub\n        /* \"#utility.yul\":26957:27060   */\n      tag_593\n      jumpi\n        /* \"#utility.yul\":27040:27058   */\n      tag_594\n      tag_319\n      jump\t// in\n    tag_594:\n        /* \"#utility.yul\":26957:27060   */\n    tag_593:\n        /* \"#utility.yul\":27087:27088   */\n      0x01\n        /* \"#utility.yul\":27080:27085   */\n      dup3\n        /* \"#utility.yul\":27076:27089   */\n      add\n        /* \"#utility.yul\":27069:27089   */\n      swap1\n      pop\n        /* \"#utility.yul\":26862:27095   */\n      swap2\n      swap1\n      pop\n      jump\t// out\n        /* \"#utility.yul\":27101:27295   */\n    tag_176:\n        /* \"#utility.yul\":27141:27145   */\n      0x00\n        /* \"#utility.yul\":27161:27181   */\n      tag_596\n        /* \"#utility.yul\":27179:27180   */\n      dup3\n        /* \"#utility.yul\":27161:27181   */\n      tag_258\n      jump\t// in\n    tag_596:\n        /* \"#utility.yul\":27156:27181   */\n      swap2\n      pop\n        /* \"#utility.yul\":27195:27215   */\n      tag_597\n        /* \"#utility.yul\":27213:27214   */\n      dup4\n        /* \"#utility.yul\":27195:27215   */\n      tag_258\n      jump\t// in\n    tag_597:\n        /* \"#utility.yul\":27190:27215   */\n      swap3\n      pop\n        /* \"#utility.yul\":27239:27240   */\n      dup3\n        /* \"#utility.yul\":27236:27237   */\n      dup3\n        /* \"#utility.yul\":27232:27241   */\n      sub\n        /* \"#utility.yul\":27224:27241   */\n      swap1\n      pop\n        /* \"#utility.yul\":27263:27264   */\n      dup2\n        /* \"#utility.yul\":27257:27261   */\n      dup2\n        /* \"#utility.yul\":27254:27265   */\n      gt\n        /* \"#utility.yul\":27251:27288   */\n      iszero\n      tag_598\n      jumpi\n        /* \"#utility.yul\":27268:27286   */\n      tag_599\n      tag_319\n      jump\t// in\n    tag_599:\n        /* \"#utility.yul\":27251:27288   */\n    tag_598:\n        /* \"#utility.yul\":27101:27295   */\n      swap3\n      swap2\n      pop\n      pop\n      jump\t// out\n        /* \"#utility.yul\":27301:27492   */\n    tag_178:\n        /* \"#utility.yul\":27341:27344   */\n      0x00\n        /* \"#utility.yul\":27360:27380   */\n      tag_601\n        /* \"#utility.yul\":27378:27379   */\n      dup3\n        /* \"#utility.yul\":27360:27380   */\n      tag_258\n      jump\t// in\n    tag_601:\n        /* \"#utility.yul\":27355:27380   */\n      swap2\n      pop\n        /* \"#utility.yul\":27394:27414   */\n      tag_602\n        /* \"#utility.yul\":27412:27413   */\n      dup4\n        /* \"#utility.yul\":27394:27414   */\n      tag_258\n      jump\t// in\n    tag_602:\n        /* \"#utility.yul\":27389:27414   */\n      swap3\n      pop\n        /* \"#utility.yul\":27437:27438   */\n      dup3\n        /* \"#utility.yul\":27434:27435   */\n      dup3\n        /* \"#utility.yul\":27430:27439   */\n      add\n        /* \"#utility.yul\":27423:27439   */\n      swap1\n      pop\n        /* \"#utility.yul\":27458:27461   */\n      dup1\n        /* \"#utility.yul\":27455:27456   */\n      dup3\n        /* \"#utility.yul\":27452:27462   */\n      gt\n        /* \"#utility.yul\":27449:27485   */\n      iszero\n      tag_603\n      jumpi\n        /* \"#utility.yul\":27465:27483   */\n      tag_604\n      tag_319\n      jump\t// in\n    tag_604:\n        /* \"#utility.yul\":27449:27485   */\n    tag_603:\n        /* \"#utility.yul\":27301:27492   */\n      swap3\n      swap2\n      pop\n      pop\n      jump\t// out\n        /* \"#utility.yul\":27498:27678   */\n    tag_193:\n        /* \"#utility.yul\":27546:27623   */\n      0x4e487b7100000000000000000000000000000000000000000000000000000000\n        /* \"#utility.yul\":27543:27544   */\n      0x00\n        /* \"#utility.yul\":27536:27624   */\n      mstore\n        /* \"#utility.yul\":27643:27647   */\n      0x32\n        /* \"#utility.yul\":27640:27641   */\n      0x04\n        /* \"#utility.yul\":27633:27648   */\n      mstore\n        /* \"#utility.yul\":27667:27671   */\n      0x24\n        /* \"#utility.yul\":27664:27665   */\n      0x00\n        /* \"#utility.yul\":27657:27672   */\n      revert\n        /* \"#utility.yul\":27684:27831   */\n    tag_320:\n        /* \"#utility.yul\":27785:27796   */\n      0x00\n        /* \"#utility.yul\":27822:27825   */\n      dup2\n        /* \"#utility.yul\":27807:27825   */\n      swap1\n      pop\n        /* \"#utility.yul\":27684:27831   */\n      swap3\n      swap2\n      pop\n      pop\n      jump\t// out\n        /* \"#utility.yul\":27837:27951   */\n    tag_321:\n      pop\n      jump\t// out\n        /* \"#utility.yul\":27957:28355   */\n    tag_322:\n        /* \"#utility.yul\":28116:28119   */\n      0x00\n        /* \"#utility.yul\":28137:28220   */\n      tag_609\n        /* \"#utility.yul\":28218:28219   */\n      0x00\n        /* \"#utility.yul\":28213:28216   */\n      dup4\n        /* \"#utility.yul\":28137:28220   */\n      tag_320\n      jump\t// in\n    tag_609:\n        /* \"#utility.yul\":28130:28220   */\n      swap2\n      pop\n        /* \"#utility.yul\":28229:28322   */\n      tag_610\n        /* \"#utility.yul\":28318:28321   */\n      dup3\n        /* \"#utility.yul\":28229:28322   */\n      tag_321\n      jump\t// in\n    tag_610:\n        /* \"#utility.yul\":28347:28348   */\n      0x00\n        /* \"#utility.yul\":28342:28345   */\n      dup3\n        /* \"#utility.yul\":28338:28349   */\n      add\n        /* \"#utility.yul\":28331:28349   */\n      swap1\n      pop\n        /* \"#utility.yul\":27957:28355   */\n      swap2\n      swap1\n      pop\n      jump\t// out\n        /* \"#utility.yul\":28361:28740   */\n    tag_230:\n        /* \"#utility.yul\":28545:28548   */\n      0x00\n        /* \"#utility.yul\":28567:28714   */\n      tag_612\n        /* \"#utility.yul\":28710:28713   */\n      dup3\n        /* \"#utility.yul\":28567:28714   */\n      tag_322\n      jump\t// in\n    tag_612:\n        /* \"#utility.yul\":28560:28714   */\n      swap2\n      pop\n        /* \"#utility.yul\":28731:28734   */\n      dup2\n        /* \"#utility.yul\":28724:28734   */\n      swap1\n      pop\n        /* \"#utility.yul\":28361:28740   */\n      swap2\n      swap1\n      pop\n      jump\t// out\n        /* \"#utility.yul\":28746:28916   */\n    tag_323:\n        /* \"#utility.yul\":28886:28908   */\n      0x4661696c656420746f2073656e64204574686572000000000000000000000000\n        /* \"#utility.yul\":28882:28883   */\n      0x00\n        /* \"#utility.yul\":28874:28880   */\n      dup3\n        /* \"#utility.yul\":28870:28884   */\n      add\n        /* \"#utility.yul\":28863:28909   */\n      mstore\n        /* \"#utility.yul\":28746:28916   */\n      pop\n      jump\t// out\n        /* \"#utility.yul\":28922:29288   */\n    tag_324:\n        /* \"#utility.yul\":29064:29067   */\n      0x00\n        /* \"#utility.yul\":29085:29152   */\n      tag_615\n        /* \"#utility.yul\":29149:29151   */\n      0x14\n        /* \"#utility.yul\":29144:29147   */\n      dup4\n        /* \"#utility.yul\":29085:29152   */\n      tag_262\n      jump\t// in\n    tag_615:\n        /* \"#utility.yul\":29078:29152   */\n      swap2\n      pop\n        /* \"#utility.yul\":29161:29254   */\n      tag_616\n        /* \"#utility.yul\":29250:29253   */\n      dup3\n        /* \"#utility.yul\":29161:29254   */\n      tag_323\n      jump\t// in\n    tag_616:\n        /* \"#utility.yul\":29279:29281   */\n      0x20\n        /* \"#utility.yul\":29274:29277   */\n      dup3\n        /* \"#utility.yul\":29270:29282   */\n      add\n        /* \"#utility.yul\":29263:29282   */\n      swap1\n      pop\n        /* \"#utility.yul\":28922:29288   */\n      swap2\n      swap1\n      pop\n      jump\t// out\n        /* \"#utility.yul\":29294:29713   */\n    tag_236:\n        /* \"#utility.yul\":29460:29464   */\n      0x00\n        /* \"#utility.yul\":29498:29500   */\n      0x20\n        /* \"#utility.yul\":29487:29496   */\n      dup3\n        /* \"#utility.yul\":29483:29501   */\n      add\n        /* \"#utility.yul\":29475:29501   */\n      swap1\n      pop\n        /* \"#utility.yul\":29547:29556   */\n      dup2\n        /* \"#utility.yul\":29541:29545   */\n      dup2\n        /* \"#utility.yul\":29537:29557   */\n      sub\n        /* \"#utility.yul\":29533:29534   */\n      0x00\n        /* \"#utility.yul\":29522:29531   */\n      dup4\n        /* \"#utility.yul\":29518:29535   */\n      add\n        /* \"#utility.yul\":29511:29558   */\n      mstore\n        /* \"#utility.yul\":29575:29706   */\n      tag_618\n        /* \"#utility.yul\":29701:29705   */\n      dup2\n        /* \"#utility.yul\":29575:29706   */\n      tag_324\n      jump\t// in\n    tag_618:\n        /* \"#utility.yul\":29567:29706   */\n      swap1\n      pop\n        /* \"#utility.yul\":29294:29713   */\n      swap2\n      swap1\n      pop\n      jump\t// out\n\n    auxdata: 0xa2646970667358221220e5530e35605b923b47e1d43bc77f1f72f71c0b5b367da77d051e57ba8e39b88964736f6c63430008110033\n}\n","bytecode":{"linkReferences":{},"object":"608060405234801561001057600080fd5b506128a0806100206000396000f3fe6080604052600436106100f75760003560e01c8063a83670701161008a578063c7fa106311610059578063c7fa1063146103bf578063d0e30db0146103db578063f6153ccd146103e5578063fd70c7dd146104105761010f565b8063a8367070146102f0578063a9059cbb1461032e578063ab6a9f1714610357578063b69ef8a8146103945761010f565b806364aa65a8116100c657806364aa65a8146102105780636e6061d11461024d5780637792a0351461028a5780638f1d613d146102c75761010f565b80630a02dcc7146101145780630cb31a801461015157806332f9776314610191578063529a1baf146101d35761010f565b3661010f57633b9aca0034101561010d57600080fd5b005b600080fd5b34801561012057600080fd5b5061013b600480360381019061013691906119bf565b61044d565b6040516101489190611a7c565b60405180910390f35b34801561015d57600080fd5b50610178600480360381019061017391906119bf565b6104f9565b6040516101889493929190611aee565b60405180910390f35b34801561019d57600080fd5b506101b860048036038101906101b39190611c94565b610579565b6040516101ca96959493929190611d03565b60405180910390f35b3480156101df57600080fd5b506101fa60048036038101906101f59190611d79565b61077d565b6040516102079190611da6565b60405180910390f35b34801561021c57600080fd5b5061023760048036038101906102329190611d79565b610795565b6040516102449190611a7c565b60405180910390f35b34801561025957600080fd5b50610274600480360381019061026f9190611dc1565b610835565b6040516102819190611a7c565b60405180910390f35b34801561029657600080fd5b506102b160048036038101906102ac91906119bf565b6108ee565b6040516102be9190611e01565b60405180910390f35b3480156102d357600080fd5b506102ee60048036038101906102e99190611e1c565b61092d565b005b3480156102fc57600080fd5b5061031760048036038101906103129190611efd565b610f5d565b6040516103259291906121ba565b60405180910390f35b34801561033a57600080fd5b506103556004803603810190610350919061222f565b611500565b005b34801561036357600080fd5b5061037e6004803603810190610379919061226f565b6115b1565b60405161038b9190612302565b60405180910390f35b3480156103a057600080fd5b506103a9611658565b6040516103b69190611da6565b60405180910390f35b6103d960048036038101906103d4919061231d565b611660565b005b6103e36118d5565b005b3480156103f157600080fd5b506103fa6118f0565b6040516104079190611da6565b60405180910390f35b34801561041c57600080fd5b5061043760048036038101906104329190611efd565b6118f6565b6040516104449190611e01565b60405180910390f35b6000818154811061045d57600080fd5b906000526020600020016000915090508054610478906123a8565b80601f01602080910402602001604051908101604052809291908181526020018280546104a4906123a8565b80156104f15780601f106104c6576101008083540402835291602001916104f1565b820191906000526020600020905b8154815290600101906020018083116104d457829003601f168201915b505050505081565b6005818154811061050957600080fd5b90600052602060002090600402016000915090508060000160009054906101000a900473ffffffffffffffffffffffffffffffffffffffff16908060010160009054906101000a900473ffffffffffffffffffffffffffffffffffffffff16908060020154908060030154905084565b60076020528260005260406000208280516020810182018051848252602083016020850120818352809550505050505060205280600052604060002060009250925050508060000180546105cc906123a8565b80601f01602080910402602001604051908101604052809291908181526020018280546105f8906123a8565b80156106455780601f1061061a57610100808354040283529160200191610645565b820191906000526020600020905b81548152906001019060200180831161062857829003601f168201915b50505050509080600101805461065a906123a8565b80601f0160208091040260200160405190810160405280929190818152602001828054610686906123a8565b80156106d35780601f106106a8576101008083540402835291602001916106d3565b820191906000526020600020905b8154815290600101906020018083116106b657829003601f168201915b5050505050908060020180546106e8906123a8565b80601f0160208091040260200160405190810160405280929190818152602001828054610714906123a8565b80156107615780601f1061073657610100808354040283529160200191610761565b820191906000526020600020905b81548152906001019060200180831161074457829003601f168201915b5050505050908060030154908060040154908060050154905086565b60096020528060005260406000206000915090505481565b600260205280600052604060002060009150905080546107b4906123a8565b80601f01602080910402602001604051908101604052809291908181526020018280546107e0906123a8565b801561082d5780601f106108025761010080835404028352916020019161082d565b820191906000526020600020905b81548152906001019060200180831161081057829003601f168201915b505050505081565b6006602052816000526040600020818154811061085157600080fd5b9060005260206000200160009150915050805461086d906123a8565b80601f0160208091040260200160405190810160405280929190818152602001828054610899906123a8565b80156108e65780601f106108bb576101008083540402835291602001916108e6565b820191906000526020600020905b8154815290600101906020018083116108c957829003601f168201915b505050505081565b600181815481106108fe57600080fd5b906000526020600020016000915054906101000a900473ffffffffffffffffffffffffffffffffffffffff1681565b60003390506000600260008373ffffffffffffffffffffffffffffffffffffffff1673ffffffffffffffffffffffffffffffffffffffff168152602001908152602001600020805461097e906123a8565b90500361098a57600080fd5b600073ffffffffffffffffffffffffffffffffffffffff166003866040516109b29190612415565b908152602001604051809103902060009054906101000a900473ffffffffffffffffffffffffffffffffffffffff1673ffffffffffffffffffffffffffffffffffffffff1603610a0157600080fd5b600160096000600388604051610a179190612415565b908152602001604051809103902060009054906101000a900473ffffffffffffffffffffffffffffffffffffffff1673ffffffffffffffffffffffffffffffffffffffff1673ffffffffffffffffffffffffffffffffffffffff168152602001908152602001600020541015610a8c57600080fd5b600060076000600388604051610aa29190612415565b908152602001604051809103902060009054906101000a900473ffffffffffffffffffffffffffffffffffffffff1673ffffffffffffffffffffffffffffffffffffffff1673ffffffffffffffffffffffffffffffffffffffff1681526020019081526020016000209050610b1788876115b1565b610c7b5760066000600388604051610b2f9190612415565b908152602001604051809103902060009054906101000a900473ffffffffffffffffffffffffffffffffffffffff1673ffffffffffffffffffffffffffffffffffffffff1673ffffffffffffffffffffffffffffffffffffffff16815260200190815260200160002088908060018154018082558091505060019003906000526020600020016000909190919091509081610bca91906125d8565b5060086000600388604051610bdf9190612415565b908152602001604051809103902060009054906101000a900473ffffffffffffffffffffffffffffffffffffffff1673ffffffffffffffffffffffffffffffffffffffff1673ffffffffffffffffffffffffffffffffffffffff16815260200190815260200160002088604051610c569190612415565b90815260200160405180910390206000815480929190610c75906126d9565b91905055505b60008189604051610c8c9190612415565b90815260200160405180910390209050888160008573ffffffffffffffffffffffffffffffffffffffff1673ffffffffffffffffffffffffffffffffffffffff1681526020019081526020016000206000019081610cea91906125d8565b50878160008573ffffffffffffffffffffffffffffffffffffffff1673ffffffffffffffffffffffffffffffffffffffff1681526020019081526020016000206001019081610d3991906125d8565b50868160008573ffffffffffffffffffffffffffffffffffffffff1673ffffffffffffffffffffffffffffffffffffffff1681526020019081526020016000206002019081610d8891906125d8565b50858160008573ffffffffffffffffffffffffffffffffffffffff1673ffffffffffffffffffffffffffffffffffffffff16815260200190815260200160002060030181905550848160008573ffffffffffffffffffffffffffffffffffffffff1673ffffffffffffffffffffffffffffffffffffffff16815260200190815260200160002060040181905550838160008573ffffffffffffffffffffffffffffffffffffffff1673ffffffffffffffffffffffffffffffffffffffff1681526020019081526020016000206005018190555060016009600060038a604051610e719190612415565b908152602001604051809103902060009054906101000a900473ffffffffffffffffffffffffffffffffffffffff1673ffffffffffffffffffffffffffffffffffffffff1673ffffffffffffffffffffffffffffffffffffffff1681526020019081526020016000206000828254610ee99190612721565b925050819055506001600960008573ffffffffffffffffffffffffffffffffffffffff1673ffffffffffffffffffffffffffffffffffffffff1681526020019081526020016000206000828254610f409190612755565b92505081905550610f52836001611500565b505050505050505050565b60608060003390506000600660008373ffffffffffffffffffffffffffffffffffffffff1673ffffffffffffffffffffffffffffffffffffffff16815260200190815260200160002090506000600660008473ffffffffffffffffffffffffffffffffffffffff1673ffffffffffffffffffffffffffffffffffffffff1681526020019081526020016000208054905067ffffffffffffffff81111561100657611005611b69565b5b60405190808252806020026020018201604052801561103f57816020015b61102c61193f565b8152602001906001900390816110245790505b50905060005b82805490508110156113e057600083828154811061106657611065612789565b5b90600052602060002001805461107b906123a8565b80601f01602080910402602001604051908101604052809291908181526020018280546110a7906123a8565b80156110f45780601f106110c9576101008083540402835291602001916110f4565b820191906000526020600020905b8154815290600101906020018083116110d757829003601f168201915b50505050509050600760008673ffffffffffffffffffffffffffffffffffffffff1673ffffffffffffffffffffffffffffffffffffffff168152602001908152602001600020816040516111489190612415565b9081526020016040518091039020600060038a6040516111689190612415565b908152602001604051809103902060009054906101000a900473ffffffffffffffffffffffffffffffffffffffff1673ffffffffffffffffffffffffffffffffffffffff1673ffffffffffffffffffffffffffffffffffffffff1681526020019081526020016000206040518060c00160405290816000820180546111ec906123a8565b80601f0160208091040260200160405190810160405280929190818152602001828054611218906123a8565b80156112655780601f1061123a57610100808354040283529160200191611265565b820191906000526020600020905b81548152906001019060200180831161124857829003601f168201915b5050505050815260200160018201805461127e906123a8565b80601f01602080910402602001604051908101604052809291908181526020018280546112aa906123a8565b80156112f75780601f106112cc576101008083540402835291602001916112f7565b820191906000526020600020905b8154815290600101906020018083116112da57829003601f168201915b50505050508152602001600282018054611310906123a8565b80601f016020809104026020016040519081016040528092919081815260200182805461133c906123a8565b80156113895780601f1061135e57610100808354040283529160200191611389565b820191906000526020600020905b81548152906001019060200180831161136c57829003601f168201915b5050505050815260200160038201548152602001600482015481526020016005820154815250508383815181106113c3576113c2612789565b5b602002602001018190525050806113d9906126d9565b9050611045565b50600660008473ffffffffffffffffffffffffffffffffffffffff1673ffffffffffffffffffffffffffffffffffffffff1681526020019081526020016000208181805480602002602001604051908101604052809291908181526020016000905b828210156114ee578382906000526020600020018054611461906123a8565b80601f016020809104026020016040519081016040528092919081815260200182805461148d906123a8565b80156114da5780601f106114af576101008083540402835291602001916114da565b820191906000526020600020905b8154815290600101906020018083116114bd57829003601f168201915b505050505081526020019060010190611442565b50505050915094509450505050915091565b60008273ffffffffffffffffffffffffffffffffffffffff1682604051611526906127e9565b60006040518083038185875af1925050503d8060008114611563576040519150601f19603f3d011682016040523d82523d6000602084013e611568565b606091505b50509050806115ac576040517f08c379a00000000000000000000000000000000000000000000000000000000081526004016115a39061284a565b60405180910390fd5b505050565b600080600860006003856040516115c89190612415565b908152602001604051809103902060009054906101000a900473ffffffffffffffffffffffffffffffffffffffff1673ffffffffffffffffffffffffffffffffffffffff1673ffffffffffffffffffffffffffffffffffffffff1681526020019081526020016000208460405161163f9190612415565b9081526020016040518091039020541415905092915050565b600047905090565b6000600260008473ffffffffffffffffffffffffffffffffffffffff1673ffffffffffffffffffffffffffffffffffffffff16815260200190815260200160002080546116ac906123a8565b90501480156117255750600073ffffffffffffffffffffffffffffffffffffffff166003826040516116de9190612415565b908152602001604051809103902060009054906101000a900473ffffffffffffffffffffffffffffffffffffffff1673ffffffffffffffffffffffffffffffffffffffff16145b156118d157606434101561173857600080fd5b60008190806001815401808255809150506001900390600052602060002001600090919091909150908161176c91906125d8565b506001829080600181540180825580915050600190039060005260206000200160009091909190916101000a81548173ffffffffffffffffffffffffffffffffffffffff021916908373ffffffffffffffffffffffffffffffffffffffff160217905550816003826040516117e19190612415565b908152602001604051809103902060006101000a81548173ffffffffffffffffffffffffffffffffffffffff021916908373ffffffffffffffffffffffffffffffffffffffff16021790555080600260008473ffffffffffffffffffffffffffffffffffffffff1673ffffffffffffffffffffffffffffffffffffffff168152602001908152602001600020908161187991906125d8565b5034600960008473ffffffffffffffffffffffffffffffffffffffff1673ffffffffffffffffffffffffffffffffffffffff16815260200190815260200160002060008282546118c99190612755565b925050819055505b5050565b34600460008282546118e79190612755565b92505081905550565b60045481565b6003818051602081018201805184825260208301602085012081835280955050505050506000915054906101000a900473ffffffffffffffffffffffffffffffffffffffff1681565b6040518060c001604052806060815260200160608152602001606081526020016000815260200160008152602001600081525090565b6000604051905090565b600080fd5b600080fd5b6000819050919050565b61199c81611989565b81146119a757600080fd5b50565b6000813590506119b981611993565b92915050565b6000602082840312156119d5576119d461197f565b5b60006119e3848285016119aa565b91505092915050565b600081519050919050565b600082825260208201905092915050565b60005b83811015611a26578082015181840152602081019050611a0b565b60008484015250505050565b6000601f19601f8301169050919050565b6000611a4e826119ec565b611a5881856119f7565b9350611a68818560208601611a08565b611a7181611a32565b840191505092915050565b60006020820190508181036000830152611a968184611a43565b905092915050565b600073ffffffffffffffffffffffffffffffffffffffff82169050919050565b6000611ac982611a9e565b9050919050565b611ad981611abe565b82525050565b611ae881611989565b82525050565b6000608082019050611b036000830187611ad0565b611b106020830186611ad0565b611b1d6040830185611adf565b611b2a6060830184611adf565b95945050505050565b611b3c81611abe565b8114611b4757600080fd5b50565b600081359050611b5981611b33565b92915050565b600080fd5b600080fd5b7f4e487b7100000000000000000000000000000000000000000000000000000000600052604160045260246000fd5b611ba182611a32565b810181811067ffffffffffffffff82111715611bc057611bbf611b69565b5b80604052505050565b6000611bd3611975565b9050611bdf8282611b98565b919050565b600067ffffffffffffffff821115611bff57611bfe611b69565b5b611c0882611a32565b9050602081019050919050565b82818337600083830152505050565b6000611c37611c3284611be4565b611bc9565b905082815260208101848484011115611c5357611c52611b64565b5b611c5e848285611c15565b509392505050565b600082601f830112611c7b57611c7a611b5f565b5b8135611c8b848260208601611c24565b91505092915050565b600080600060608486031215611cad57611cac61197f565b5b6000611cbb86828701611b4a565b935050602084013567ffffffffffffffff811115611cdc57611cdb611984565b5b611ce886828701611c66565b9250506040611cf986828701611b4a565b9150509250925092565b600060c0820190508181036000830152611d1d8189611a43565b90508181036020830152611d318188611a43565b90508181036040830152611d458187611a43565b9050611d546060830186611adf565b611d616080830185611adf565b611d6e60a0830184611adf565b979650505050505050565b600060208284031215611d8f57611d8e61197f565b5b6000611d9d84828501611b4a565b91505092915050565b6000602082019050611dbb6000830184611adf565b92915050565b60008060408385031215611dd857611dd761197f565b5b6000611de685828601611b4a565b9250506020611df7858286016119aa565b9150509250929050565b6000602082019050611e166000830184611ad0565b92915050565b60008060008060008060c08789031215611e3957611e3861197f565b5b600087013567ffffffffffffffff811115611e5757611e56611984565b5b611e6389828a01611c66565b965050602087013567ffffffffffffffff811115611e8457611e83611984565b5b611e9089828a01611c66565b955050604087013567ffffffffffffffff811115611eb157611eb0611984565b5b611ebd89828a01611c66565b9450506060611ece89828a016119aa565b9350506080611edf89828a016119aa565b92505060a0611ef089828a016119aa565b9150509295509295509295565b600060208284031215611f1357611f1261197f565b5b600082013567ffffffffffffffff811115611f3157611f30611984565b5b611f3d84828501611c66565b91505092915050565b600081519050919050565b600082825260208201905092915050565b6000819050602082019050919050565b600082825260208201905092915050565b6000611f8e826119ec565b611f988185611f72565b9350611fa8818560208601611a08565b611fb181611a32565b840191505092915050565b6000611fc88383611f83565b905092915050565b6000602082019050919050565b6000611fe882611f46565b611ff28185611f51565b93508360208202850161200485611f62565b8060005b8581101561204057848403895281516120218582611fbc565b945061202c83611fd0565b925060208a01995050600181019050612008565b50829750879550505050505092915050565b600081519050919050565b600082825260208201905092915050565b6000819050602082019050919050565b61208781611989565b82525050565b600060c08301600083015184820360008601526120aa8282611f83565b915050602083015184820360208601526120c48282611f83565b915050604083015184820360408601526120de8282611f83565b91505060608301516120f3606086018261207e565b506080830151612106608086018261207e565b5060a083015161211960a086018261207e565b508091505092915050565b6000612130838361208d565b905092915050565b6000602082019050919050565b600061215082612052565b61215a818561205d565b93508360208202850161216c8561206e565b8060005b858110156121a857848403895281516121898582612124565b945061219483612138565b925060208a01995050600181019050612170565b50829750879550505050505092915050565b600060408201905081810360008301526121d48185611fdd565b905081810360208301526121e88184612145565b90509392505050565b60006121fc82611a9e565b9050919050565b61220c816121f1565b811461221757600080fd5b50565b60008135905061222981612203565b92915050565b600080604083850312156122465761224561197f565b5b60006122548582860161221a565b9250506020612265858286016119aa565b9150509250929050565b600080604083850312156122865761228561197f565b5b600083013567ffffffffffffffff8111156122a4576122a3611984565b5b6122b085828601611c66565b925050602083013567ffffffffffffffff8111156122d1576122d0611984565b5b6122dd85828601611c66565b9150509250929050565b60008115159050919050565b6122fc816122e7565b82525050565b600060208201905061231760008301846122f3565b92915050565b600080604083850312156123345761233361197f565b5b600061234285828601611b4a565b925050602083013567ffffffffffffffff81111561236357612362611984565b5b61236f85828601611c66565b9150509250929050565b7f4e487b7100000000000000000000000000000000000000000000000000000000600052602260045260246000fd5b600060028204905060018216806123c057607f821691505b6020821081036123d3576123d2612379565b5b50919050565b600081905092915050565b60006123ef826119ec565b6123f981856123d9565b9350612409818560208601611a08565b80840191505092915050565b600061242182846123e4565b915081905092915050565b60008190508160005260206000209050919050565b60006020601f8301049050919050565b600082821b905092915050565b60006008830261248e7fffffffffffffffffffffffffffffffffffffffffffffffffffffffffffffffff82612451565b6124988683612451565b95508019841693508086168417925050509392505050565b6000819050919050565b60006124d56124d06124cb84611989565b6124b0565b611989565b9050919050565b6000819050919050565b6124ef836124ba565b6125036124fb826124dc565b84845461245e565b825550505050565b600090565b61251861250b565b6125238184846124e6565b505050565b5b818110156125475761253c600082612510565b600181019050612529565b5050565b601f82111561258c5761255d8161242c565b61256684612441565b81016020851015612575578190505b61258961258185612441565b830182612528565b50505b505050565b600082821c905092915050565b60006125af60001984600802612591565b1980831691505092915050565b60006125c8838361259e565b9150826002028217905092915050565b6125e1826119ec565b67ffffffffffffffff8111156125fa576125f9611b69565b5b61260482546123a8565b61260f82828561254b565b600060209050601f8311600181146126425760008415612630578287015190505b61263a85826125bc565b8655506126a2565b601f1984166126508661242c565b60005b8281101561267857848901518255600182019150602085019450602081019050612653565b868310156126955784890151612691601f89168261259e565b8355505b6001600288020188555050505b505050505050565b7f4e487b7100000000000000000000000000000000000000000000000000000000600052601160045260246000fd5b60006126e482611989565b91507fffffffffffffffffffffffffffffffffffffffffffffffffffffffffffffffff8203612716576127156126aa565b5b600182019050919050565b600061272c82611989565b915061273783611989565b925082820390508181111561274f5761274e6126aa565b5b92915050565b600061276082611989565b915061276b83611989565b9250828201905080821115612783576127826126aa565b5b92915050565b7f4e487b7100000000000000000000000000000000000000000000000000000000600052603260045260246000fd5b600081905092915050565b50565b60006127d36000836127b8565b91506127de826127c3565b600082019050919050565b60006127f4826127c6565b9150819050919050565b7f4661696c656420746f2073656e64204574686572000000000000000000000000600082015250565b60006128346014836119f7565b915061283f826127fe565b602082019050919050565b6000602082019050818103600083015261286381612827565b905091905056fea2646970667358221220e5530e35605b923b47e1d43bc77f1f72f71c0b5b367da77d051e57ba8e39b88964736f6c63430008110033","opcodes":"PUSH1 0x80 PUSH1 0x40 MSTORE CALLVALUE DUP1 ISZERO PUSH2 0x10 JUMPI PUSH1 0x0 DUP1 REVERT JUMPDEST POP PUSH2 0x28A0 DUP1 PUSH2 0x20 PUSH1 0x0 CODECOPY PUSH1 0x0 RETURN INVALID PUSH1 0x80 PUSH1 0x40 MSTORE PUSH1 0x4 CALLDATASIZE LT PUSH2 0xF7 JUMPI PUSH1 0x0 CALLDATALOAD PUSH1 0xE0 SHR DUP1 PUSH4 0xA8367070 GT PUSH2 0x8A JUMPI DUP1 PUSH4 0xC7FA1063 GT PUSH2 0x59 JUMPI DUP1 PUSH4 0xC7FA1063 EQ PUSH2 0x3BF JUMPI DUP1 PUSH4 0xD0E30DB0 EQ PUSH2 0x3DB JUMPI DUP1 PUSH4 0xF6153CCD EQ PUSH2 0x3E5 JUMPI DUP1 PUSH4 0xFD70C7DD EQ PUSH2 0x410 JUMPI PUSH2 0x10F JUMP JUMPDEST DUP1 PUSH4 0xA8367070 EQ PUSH2 0x2F0 JUMPI DUP1 PUSH4 0xA9059CBB EQ PUSH2 0x32E JUMPI DUP1 PUSH4 0xAB6A9F17 EQ PUSH2 0x357 JUMPI DUP1 PUSH4 0xB69EF8A8 EQ PUSH2 0x394 JUMPI PUSH2 0x10F JUMP JUMPDEST DUP1 PUSH4 0x64AA65A8 GT PUSH2 0xC6 JUMPI DUP1 PUSH4 0x64AA65A8 EQ PUSH2 0x210 JUMPI DUP1 PUSH4 0x6E6061D1 EQ PUSH2 0x24D JUMPI DUP1 PUSH4 0x7792A035 EQ PUSH2 0x28A JUMPI DUP1 PUSH4 0x8F1D613D EQ PUSH2 0x2C7 JUMPI PUSH2 0x10F JUMP JUMPDEST DUP1 PUSH4 0xA02DCC7 EQ PUSH2 0x114 JUMPI DUP1 PUSH4 0xCB31A80 EQ PUSH2 0x151 JUMPI DUP1 PUSH4 0x32F97763 EQ PUSH2 0x191 JUMPI DUP1 PUSH4 0x529A1BAF EQ PUSH2 0x1D3 JUMPI PUSH2 0x10F JUMP JUMPDEST CALLDATASIZE PUSH2 0x10F JUMPI PUSH4 0x3B9ACA00 CALLVALUE LT ISZERO PUSH2 0x10D JUMPI PUSH1 0x0 DUP1 REVERT JUMPDEST STOP JUMPDEST PUSH1 0x0 DUP1 REVERT JUMPDEST CALLVALUE DUP1 ISZERO PUSH2 0x120 JUMPI PUSH1 0x0 DUP1 REVERT JUMPDEST POP PUSH2 0x13B PUSH1 0x4 DUP1 CALLDATASIZE SUB DUP2 ADD SWAP1 PUSH2 0x136 SWAP2 SWAP1 PUSH2 0x19BF JUMP JUMPDEST PUSH2 0x44D JUMP JUMPDEST PUSH1 0x40 MLOAD PUSH2 0x148 SWAP2 SWAP1 PUSH2 0x1A7C JUMP JUMPDEST PUSH1 0x40 MLOAD DUP1 SWAP2 SUB SWAP1 RETURN JUMPDEST CALLVALUE DUP1 ISZERO PUSH2 0x15D JUMPI PUSH1 0x0 DUP1 REVERT JUMPDEST POP PUSH2 0x178 PUSH1 0x4 DUP1 CALLDATASIZE SUB DUP2 ADD SWAP1 PUSH2 0x173 SWAP2 SWAP1 PUSH2 0x19BF JUMP JUMPDEST PUSH2 0x4F9 JUMP JUMPDEST PUSH1 0x40 MLOAD PUSH2 0x188 SWAP5 SWAP4 SWAP3 SWAP2 SWAP1 PUSH2 0x1AEE JUMP JUMPDEST PUSH1 0x40 MLOAD DUP1 SWAP2 SUB SWAP1 RETURN JUMPDEST CALLVALUE DUP1 ISZERO PUSH2 0x19D JUMPI PUSH1 0x0 DUP1 REVERT JUMPDEST POP PUSH2 0x1B8 PUSH1 0x4 DUP1 CALLDATASIZE SUB DUP2 ADD SWAP1 PUSH2 0x1B3 SWAP2 SWAP1 PUSH2 0x1C94 JUMP JUMPDEST PUSH2 0x579 JUMP JUMPDEST PUSH1 0x40 MLOAD PUSH2 0x1CA SWAP7 SWAP6 SWAP5 SWAP4 SWAP3 SWAP2 SWAP1 PUSH2 0x1D03 JUMP JUMPDEST PUSH1 0x40 MLOAD DUP1 SWAP2 SUB SWAP1 RETURN JUMPDEST CALLVALUE DUP1 ISZERO PUSH2 0x1DF JUMPI PUSH1 0x0 DUP1 REVERT JUMPDEST POP PUSH2 0x1FA PUSH1 0x4 DUP1 CALLDATASIZE SUB DUP2 ADD SWAP1 PUSH2 0x1F5 SWAP2 SWAP1 PUSH2 0x1D79 JUMP JUMPDEST PUSH2 0x77D JUMP JUMPDEST PUSH1 0x40 MLOAD PUSH2 0x207 SWAP2 SWAP1 PUSH2 0x1DA6 JUMP JUMPDEST PUSH1 0x40 MLOAD DUP1 SWAP2 SUB SWAP1 RETURN JUMPDEST CALLVALUE DUP1 ISZERO PUSH2 0x21C JUMPI PUSH1 0x0 DUP1 REVERT JUMPDEST POP PUSH2 0x237 PUSH1 0x4 DUP1 CALLDATASIZE SUB DUP2 ADD SWAP1 PUSH2 0x232 SWAP2 SWAP1 PUSH2 0x1D79 JUMP JUMPDEST PUSH2 0x795 JUMP JUMPDEST PUSH1 0x40 MLOAD PUSH2 0x244 SWAP2 SWAP1 PUSH2 0x1A7C JUMP JUMPDEST PUSH1 0x40 MLOAD DUP1 SWAP2 SUB SWAP1 RETURN JUMPDEST CALLVALUE DUP1 ISZERO PUSH2 0x259 JUMPI PUSH1 0x0 DUP1 REVERT JUMPDEST POP PUSH2 0x274 PUSH1 0x4 DUP1 CALLDATASIZE SUB DUP2 ADD SWAP1 PUSH2 0x26F SWAP2 SWAP1 PUSH2 0x1DC1 JUMP JUMPDEST PUSH2 0x835 JUMP JUMPDEST PUSH1 0x40 MLOAD PUSH2 0x281 SWAP2 SWAP1 PUSH2 0x1A7C JUMP JUMPDEST PUSH1 0x40 MLOAD DUP1 SWAP2 SUB SWAP1 RETURN JUMPDEST CALLVALUE DUP1 ISZERO PUSH2 0x296 JUMPI PUSH1 0x0 DUP1 REVERT JUMPDEST POP PUSH2 0x2B1 PUSH1 0x4 DUP1 CALLDATASIZE SUB DUP2 ADD SWAP1 PUSH2 0x2AC SWAP2 SWAP1 PUSH2 0x19BF JUMP JUMPDEST PUSH2 0x8EE JUMP JUMPDEST PUSH1 0x40 MLOAD PUSH2 0x2BE SWAP2 SWAP1 PUSH2 0x1E01 JUMP JUMPDEST PUSH1 0x40 MLOAD DUP1 SWAP2 SUB SWAP1 RETURN JUMPDEST CALLVALUE DUP1 ISZERO PUSH2 0x2D3 JUMPI PUSH1 0x0 DUP1 REVERT JUMPDEST POP PUSH2 0x2EE PUSH1 0x4 DUP1 CALLDATASIZE SUB DUP2 ADD SWAP1 PUSH2 0x2E9 SWAP2 SWAP1 PUSH2 0x1E1C JUMP JUMPDEST PUSH2 0x92D JUMP JUMPDEST STOP JUMPDEST CALLVALUE DUP1 ISZERO PUSH2 0x2FC JUMPI PUSH1 0x0 DUP1 REVERT JUMPDEST POP PUSH2 0x317 PUSH1 0x4 DUP1 CALLDATASIZE SUB DUP2 ADD SWAP1 PUSH2 0x312 SWAP2 SWAP1 PUSH2 0x1EFD JUMP JUMPDEST PUSH2 0xF5D JUMP JUMPDEST PUSH1 0x40 MLOAD PUSH2 0x325 SWAP3 SWAP2 SWAP1 PUSH2 0x21BA JUMP JUMPDEST PUSH1 0x40 MLOAD DUP1 SWAP2 SUB SWAP1 RETURN JUMPDEST CALLVALUE DUP1 ISZERO PUSH2 0x33A JUMPI PUSH1 0x0 DUP1 REVERT JUMPDEST POP PUSH2 0x355 PUSH1 0x4 DUP1 CALLDATASIZE SUB DUP2 ADD SWAP1 PUSH2 0x350 SWAP2 SWAP1 PUSH2 0x222F JUMP JUMPDEST PUSH2 0x1500 JUMP JUMPDEST STOP JUMPDEST CALLVALUE DUP1 ISZERO PUSH2 0x363 JUMPI PUSH1 0x0 DUP1 REVERT JUMPDEST POP PUSH2 0x37E PUSH1 0x4 DUP1 CALLDATASIZE SUB DUP2 ADD SWAP1 PUSH2 0x379 SWAP2 SWAP1 PUSH2 0x226F JUMP JUMPDEST PUSH2 0x15B1 JUMP JUMPDEST PUSH1 0x40 MLOAD PUSH2 0x38B SWAP2 SWAP1 PUSH2 0x2302 JUMP JUMPDEST PUSH1 0x40 MLOAD DUP1 SWAP2 SUB SWAP1 RETURN JUMPDEST CALLVALUE DUP1 ISZERO PUSH2 0x3A0 JUMPI PUSH1 0x0 DUP1 REVERT JUMPDEST POP PUSH2 0x3A9 PUSH2 0x1658 JUMP JUMPDEST PUSH1 0x40 MLOAD PUSH2 0x3B6 SWAP2 SWAP1 PUSH2 0x1DA6 JUMP JUMPDEST PUSH1 0x40 MLOAD DUP1 SWAP2 SUB SWAP1 RETURN JUMPDEST PUSH2 0x3D9 PUSH1 0x4 DUP1 CALLDATASIZE SUB DUP2 ADD SWAP1 PUSH2 0x3D4 SWAP2 SWAP1 PUSH2 0x231D JUMP JUMPDEST PUSH2 0x1660 JUMP JUMPDEST STOP JUMPDEST PUSH2 0x3E3 PUSH2 0x18D5 JUMP JUMPDEST STOP JUMPDEST CALLVALUE DUP1 ISZERO PUSH2 0x3F1 JUMPI PUSH1 0x0 DUP1 REVERT JUMPDEST POP PUSH2 0x3FA PUSH2 0x18F0 JUMP JUMPDEST PUSH1 0x40 MLOAD PUSH2 0x407 SWAP2 SWAP1 PUSH2 0x1DA6 JUMP JUMPDEST PUSH1 0x40 MLOAD DUP1 SWAP2 SUB SWAP1 RETURN JUMPDEST CALLVALUE DUP1 ISZERO PUSH2 0x41C JUMPI PUSH1 0x0 DUP1 REVERT JUMPDEST POP PUSH2 0x437 PUSH1 0x4 DUP1 CALLDATASIZE SUB DUP2 ADD SWAP1 PUSH2 0x432 SWAP2 SWAP1 PUSH2 0x1EFD JUMP JUMPDEST PUSH2 0x18F6 JUMP JUMPDEST PUSH1 0x40 MLOAD PUSH2 0x444 SWAP2 SWAP1 PUSH2 0x1E01 JUMP JUMPDEST PUSH1 0x40 MLOAD DUP1 SWAP2 SUB SWAP1 RETURN JUMPDEST PUSH1 0x0 DUP2 DUP2 SLOAD DUP2 LT PUSH2 0x45D JUMPI PUSH1 0x0 DUP1 REVERT JUMPDEST SWAP1 PUSH1 0x0 MSTORE PUSH1 0x20 PUSH1 0x0 KECCAK256 ADD PUSH1 0x0 SWAP2 POP SWAP1 POP DUP1 SLOAD PUSH2 0x478 SWAP1 PUSH2 0x23A8 JUMP JUMPDEST DUP1 PUSH1 0x1F ADD PUSH1 0x20 DUP1 SWAP2 DIV MUL PUSH1 0x20 ADD PUSH1 0x40 MLOAD SWAP1 DUP2 ADD PUSH1 0x40 MSTORE DUP1 SWAP3 SWAP2 SWAP1 DUP2 DUP2 MSTORE PUSH1 0x20 ADD DUP3 DUP1 SLOAD PUSH2 0x4A4 SWAP1 PUSH2 0x23A8 JUMP JUMPDEST DUP1 ISZERO PUSH2 0x4F1 JUMPI DUP1 PUSH1 0x1F LT PUSH2 0x4C6 JUMPI PUSH2 0x100 DUP1 DUP4 SLOAD DIV MUL DUP4 MSTORE SWAP2 PUSH1 0x20 ADD SWAP2 PUSH2 0x4F1 JUMP JUMPDEST DUP3 ADD SWAP2 SWAP1 PUSH1 0x0 MSTORE PUSH1 0x20 PUSH1 0x0 KECCAK256 SWAP1 JUMPDEST DUP2 SLOAD DUP2 MSTORE SWAP1 PUSH1 0x1 ADD SWAP1 PUSH1 0x20 ADD DUP1 DUP4 GT PUSH2 0x4D4 JUMPI DUP3 SWAP1 SUB PUSH1 0x1F AND DUP3 ADD SWAP2 JUMPDEST POP POP POP POP POP DUP2 JUMP JUMPDEST PUSH1 0x5 DUP2 DUP2 SLOAD DUP2 LT PUSH2 0x509 JUMPI PUSH1 0x0 DUP1 REVERT JUMPDEST SWAP1 PUSH1 0x0 MSTORE PUSH1 0x20 PUSH1 0x0 KECCAK256 SWAP1 PUSH1 0x4 MUL ADD PUSH1 0x0 SWAP2 POP SWAP1 POP DUP1 PUSH1 0x0 ADD PUSH1 0x0 SWAP1 SLOAD SWAP1 PUSH2 0x100 EXP SWAP1 DIV PUSH20 0xFFFFFFFFFFFFFFFFFFFFFFFFFFFFFFFFFFFFFFFF AND SWAP1 DUP1 PUSH1 0x1 ADD PUSH1 0x0 SWAP1 SLOAD SWAP1 PUSH2 0x100 EXP SWAP1 DIV PUSH20 0xFFFFFFFFFFFFFFFFFFFFFFFFFFFFFFFFFFFFFFFF AND SWAP1 DUP1 PUSH1 0x2 ADD SLOAD SWAP1 DUP1 PUSH1 0x3 ADD SLOAD SWAP1 POP DUP5 JUMP JUMPDEST PUSH1 0x7 PUSH1 0x20 MSTORE DUP3 PUSH1 0x0 MSTORE PUSH1 0x40 PUSH1 0x0 KECCAK256 DUP3 DUP1 MLOAD PUSH1 0x20 DUP2 ADD DUP3 ADD DUP1 MLOAD DUP5 DUP3 MSTORE PUSH1 0x20 DUP4 ADD PUSH1 0x20 DUP6 ADD KECCAK256 DUP2 DUP4 MSTORE DUP1 SWAP6 POP POP POP POP POP POP PUSH1 0x20 MSTORE DUP1 PUSH1 0x0 MSTORE PUSH1 0x40 PUSH1 0x0 KECCAK256 PUSH1 0x0 SWAP3 POP SWAP3 POP POP POP DUP1 PUSH1 0x0 ADD DUP1 SLOAD PUSH2 0x5CC SWAP1 PUSH2 0x23A8 JUMP JUMPDEST DUP1 PUSH1 0x1F ADD PUSH1 0x20 DUP1 SWAP2 DIV MUL PUSH1 0x20 ADD PUSH1 0x40 MLOAD SWAP1 DUP2 ADD PUSH1 0x40 MSTORE DUP1 SWAP3 SWAP2 SWAP1 DUP2 DUP2 MSTORE PUSH1 0x20 ADD DUP3 DUP1 SLOAD PUSH2 0x5F8 SWAP1 PUSH2 0x23A8 JUMP JUMPDEST DUP1 ISZERO PUSH2 0x645 JUMPI DUP1 PUSH1 0x1F LT PUSH2 0x61A JUMPI PUSH2 0x100 DUP1 DUP4 SLOAD DIV MUL DUP4 MSTORE SWAP2 PUSH1 0x20 ADD SWAP2 PUSH2 0x645 JUMP JUMPDEST DUP3 ADD SWAP2 SWAP1 PUSH1 0x0 MSTORE PUSH1 0x20 PUSH1 0x0 KECCAK256 SWAP1 JUMPDEST DUP2 SLOAD DUP2 MSTORE SWAP1 PUSH1 0x1 ADD SWAP1 PUSH1 0x20 ADD DUP1 DUP4 GT PUSH2 0x628 JUMPI DUP3 SWAP1 SUB PUSH1 0x1F AND DUP3 ADD SWAP2 JUMPDEST POP POP POP POP POP SWAP1 DUP1 PUSH1 0x1 ADD DUP1 SLOAD PUSH2 0x65A SWAP1 PUSH2 0x23A8 JUMP JUMPDEST DUP1 PUSH1 0x1F ADD PUSH1 0x20 DUP1 SWAP2 DIV MUL PUSH1 0x20 ADD PUSH1 0x40 MLOAD SWAP1 DUP2 ADD PUSH1 0x40 MSTORE DUP1 SWAP3 SWAP2 SWAP1 DUP2 DUP2 MSTORE PUSH1 0x20 ADD DUP3 DUP1 SLOAD PUSH2 0x686 SWAP1 PUSH2 0x23A8 JUMP JUMPDEST DUP1 ISZERO PUSH2 0x6D3 JUMPI DUP1 PUSH1 0x1F LT PUSH2 0x6A8 JUMPI PUSH2 0x100 DUP1 DUP4 SLOAD DIV MUL DUP4 MSTORE SWAP2 PUSH1 0x20 ADD SWAP2 PUSH2 0x6D3 JUMP JUMPDEST DUP3 ADD SWAP2 SWAP1 PUSH1 0x0 MSTORE PUSH1 0x20 PUSH1 0x0 KECCAK256 SWAP1 JUMPDEST DUP2 SLOAD DUP2 MSTORE SWAP1 PUSH1 0x1 ADD SWAP1 PUSH1 0x20 ADD DUP1 DUP4 GT PUSH2 0x6B6 JUMPI DUP3 SWAP1 SUB PUSH1 0x1F AND DUP3 ADD SWAP2 JUMPDEST POP POP POP POP POP SWAP1 DUP1 PUSH1 0x2 ADD DUP1 SLOAD PUSH2 0x6E8 SWAP1 PUSH2 0x23A8 JUMP JUMPDEST DUP1 PUSH1 0x1F ADD PUSH1 0x20 DUP1 SWAP2 DIV MUL PUSH1 0x20 ADD PUSH1 0x40 MLOAD SWAP1 DUP2 ADD PUSH1 0x40 MSTORE DUP1 SWAP3 SWAP2 SWAP1 DUP2 DUP2 MSTORE PUSH1 0x20 ADD DUP3 DUP1 SLOAD PUSH2 0x714 SWAP1 PUSH2 0x23A8 JUMP JUMPDEST DUP1 ISZERO PUSH2 0x761 JUMPI DUP1 PUSH1 0x1F LT PUSH2 0x736 JUMPI PUSH2 0x100 DUP1 DUP4 SLOAD DIV MUL DUP4 MSTORE SWAP2 PUSH1 0x20 ADD SWAP2 PUSH2 0x761 JUMP JUMPDEST DUP3 ADD SWAP2 SWAP1 PUSH1 0x0 MSTORE PUSH1 0x20 PUSH1 0x0 KECCAK256 SWAP1 JUMPDEST DUP2 SLOAD DUP2 MSTORE SWAP1 PUSH1 0x1 ADD SWAP1 PUSH1 0x20 ADD DUP1 DUP4 GT PUSH2 0x744 JUMPI DUP3 SWAP1 SUB PUSH1 0x1F AND DUP3 ADD SWAP2 JUMPDEST POP POP POP POP POP SWAP1 DUP1 PUSH1 0x3 ADD SLOAD SWAP1 DUP1 PUSH1 0x4 ADD SLOAD SWAP1 DUP1 PUSH1 0x5 ADD SLOAD SWAP1 POP DUP7 JUMP JUMPDEST PUSH1 0x9 PUSH1 0x20 MSTORE DUP1 PUSH1 0x0 MSTORE PUSH1 0x40 PUSH1 0x0 KECCAK256 PUSH1 0x0 SWAP2 POP SWAP1 POP SLOAD DUP2 JUMP JUMPDEST PUSH1 0x2 PUSH1 0x20 MSTORE DUP1 PUSH1 0x0 MSTORE PUSH1 0x40 PUSH1 0x0 KECCAK256 PUSH1 0x0 SWAP2 POP SWAP1 POP DUP1 SLOAD PUSH2 0x7B4 SWAP1 PUSH2 0x23A8 JUMP JUMPDEST DUP1 PUSH1 0x1F ADD PUSH1 0x20 DUP1 SWAP2 DIV MUL PUSH1 0x20 ADD PUSH1 0x40 MLOAD SWAP1 DUP2 ADD PUSH1 0x40 MSTORE DUP1 SWAP3 SWAP2 SWAP1 DUP2 DUP2 MSTORE PUSH1 0x20 ADD DUP3 DUP1 SLOAD PUSH2 0x7E0 SWAP1 PUSH2 0x23A8 JUMP JUMPDEST DUP1 ISZERO PUSH2 0x82D JUMPI DUP1 PUSH1 0x1F LT PUSH2 0x802 JUMPI PUSH2 0x100 DUP1 DUP4 SLOAD DIV MUL DUP4 MSTORE SWAP2 PUSH1 0x20 ADD SWAP2 PUSH2 0x82D JUMP JUMPDEST DUP3 ADD SWAP2 SWAP1 PUSH1 0x0 MSTORE PUSH1 0x20 PUSH1 0x0 KECCAK256 SWAP1 JUMPDEST DUP2 SLOAD DUP2 MSTORE SWAP1 PUSH1 0x1 ADD SWAP1 PUSH1 0x20 ADD DUP1 DUP4 GT PUSH2 0x810 JUMPI DUP3 SWAP1 SUB PUSH1 0x1F AND DUP3 ADD SWAP2 JUMPDEST POP POP POP POP POP DUP2 JUMP JUMPDEST PUSH1 0x6 PUSH1 0x20 MSTORE DUP2 PUSH1 0x0 MSTORE PUSH1 0x40 PUSH1 0x0 KECCAK256 DUP2 DUP2 SLOAD DUP2 LT PUSH2 0x851 JUMPI PUSH1 0x0 DUP1 REVERT JUMPDEST SWAP1 PUSH1 0x0 MSTORE PUSH1 0x20 PUSH1 0x0 KECCAK256 ADD PUSH1 0x0 SWAP2 POP SWAP2 POP POP DUP1 SLOAD PUSH2 0x86D SWAP1 PUSH2 0x23A8 JUMP JUMPDEST DUP1 PUSH1 0x1F ADD PUSH1 0x20 DUP1 SWAP2 DIV MUL PUSH1 0x20 ADD PUSH1 0x40 MLOAD SWAP1 DUP2 ADD PUSH1 0x40 MSTORE DUP1 SWAP3 SWAP2 SWAP1 DUP2 DUP2 MSTORE PUSH1 0x20 ADD DUP3 DUP1 SLOAD PUSH2 0x899 SWAP1 PUSH2 0x23A8 JUMP JUMPDEST DUP1 ISZERO PUSH2 0x8E6 JUMPI DUP1 PUSH1 0x1F LT PUSH2 0x8BB JUMPI PUSH2 0x100 DUP1 DUP4 SLOAD DIV MUL DUP4 MSTORE SWAP2 PUSH1 0x20 ADD SWAP2 PUSH2 0x8E6 JUMP JUMPDEST DUP3 ADD SWAP2 SWAP1 PUSH1 0x0 MSTORE PUSH1 0x20 PUSH1 0x0 KECCAK256 SWAP1 JUMPDEST DUP2 SLOAD DUP2 MSTORE SWAP1 PUSH1 0x1 ADD SWAP1 PUSH1 0x20 ADD DUP1 DUP4 GT PUSH2 0x8C9 JUMPI DUP3 SWAP1 SUB PUSH1 0x1F AND DUP3 ADD SWAP2 JUMPDEST POP POP POP POP POP DUP2 JUMP JUMPDEST PUSH1 0x1 DUP2 DUP2 SLOAD DUP2 LT PUSH2 0x8FE JUMPI PUSH1 0x0 DUP1 REVERT JUMPDEST SWAP1 PUSH1 0x0 MSTORE PUSH1 0x20 PUSH1 0x0 KECCAK256 ADD PUSH1 0x0 SWAP2 POP SLOAD SWAP1 PUSH2 0x100 EXP SWAP1 DIV PUSH20 0xFFFFFFFFFFFFFFFFFFFFFFFFFFFFFFFFFFFFFFFF AND DUP2 JUMP JUMPDEST PUSH1 0x0 CALLER SWAP1 POP PUSH1 0x0 PUSH1 0x2 PUSH1 0x0 DUP4 PUSH20 0xFFFFFFFFFFFFFFFFFFFFFFFFFFFFFFFFFFFFFFFF AND PUSH20 0xFFFFFFFFFFFFFFFFFFFFFFFFFFFFFFFFFFFFFFFF AND DUP2 MSTORE PUSH1 0x20 ADD SWAP1 DUP2 MSTORE PUSH1 0x20 ADD PUSH1 0x0 KECCAK256 DUP1 SLOAD PUSH2 0x97E SWAP1 PUSH2 0x23A8 JUMP JUMPDEST SWAP1 POP SUB PUSH2 0x98A JUMPI PUSH1 0x0 DUP1 REVERT JUMPDEST PUSH1 0x0 PUSH20 0xFFFFFFFFFFFFFFFFFFFFFFFFFFFFFFFFFFFFFFFF AND PUSH1 0x3 DUP7 PUSH1 0x40 MLOAD PUSH2 0x9B2 SWAP2 SWAP1 PUSH2 0x2415 JUMP JUMPDEST SWAP1 DUP2 MSTORE PUSH1 0x20 ADD PUSH1 0x40 MLOAD DUP1 SWAP2 SUB SWAP1 KECCAK256 PUSH1 0x0 SWAP1 SLOAD SWAP1 PUSH2 0x100 EXP SWAP1 DIV PUSH20 0xFFFFFFFFFFFFFFFFFFFFFFFFFFFFFFFFFFFFFFFF AND PUSH20 0xFFFFFFFFFFFFFFFFFFFFFFFFFFFFFFFFFFFFFFFF AND SUB PUSH2 0xA01 JUMPI PUSH1 0x0 DUP1 REVERT JUMPDEST PUSH1 0x1 PUSH1 0x9 PUSH1 0x0 PUSH1 0x3 DUP9 PUSH1 0x40 MLOAD PUSH2 0xA17 SWAP2 SWAP1 PUSH2 0x2415 JUMP JUMPDEST SWAP1 DUP2 MSTORE PUSH1 0x20 ADD PUSH1 0x40 MLOAD DUP1 SWAP2 SUB SWAP1 KECCAK256 PUSH1 0x0 SWAP1 SLOAD SWAP1 PUSH2 0x100 EXP SWAP1 DIV PUSH20 0xFFFFFFFFFFFFFFFFFFFFFFFFFFFFFFFFFFFFFFFF AND PUSH20 0xFFFFFFFFFFFFFFFFFFFFFFFFFFFFFFFFFFFFFFFF AND PUSH20 0xFFFFFFFFFFFFFFFFFFFFFFFFFFFFFFFFFFFFFFFF AND DUP2 MSTORE PUSH1 0x20 ADD SWAP1 DUP2 MSTORE PUSH1 0x20 ADD PUSH1 0x0 KECCAK256 SLOAD LT ISZERO PUSH2 0xA8C JUMPI PUSH1 0x0 DUP1 REVERT JUMPDEST PUSH1 0x0 PUSH1 0x7 PUSH1 0x0 PUSH1 0x3 DUP9 PUSH1 0x40 MLOAD PUSH2 0xAA2 SWAP2 SWAP1 PUSH2 0x2415 JUMP JUMPDEST SWAP1 DUP2 MSTORE PUSH1 0x20 ADD PUSH1 0x40 MLOAD DUP1 SWAP2 SUB SWAP1 KECCAK256 PUSH1 0x0 SWAP1 SLOAD SWAP1 PUSH2 0x100 EXP SWAP1 DIV PUSH20 0xFFFFFFFFFFFFFFFFFFFFFFFFFFFFFFFFFFFFFFFF AND PUSH20 0xFFFFFFFFFFFFFFFFFFFFFFFFFFFFFFFFFFFFFFFF AND PUSH20 0xFFFFFFFFFFFFFFFFFFFFFFFFFFFFFFFFFFFFFFFF AND DUP2 MSTORE PUSH1 0x20 ADD SWAP1 DUP2 MSTORE PUSH1 0x20 ADD PUSH1 0x0 KECCAK256 SWAP1 POP PUSH2 0xB17 DUP9 DUP8 PUSH2 0x15B1 JUMP JUMPDEST PUSH2 0xC7B JUMPI PUSH1 0x6 PUSH1 0x0 PUSH1 0x3 DUP9 PUSH1 0x40 MLOAD PUSH2 0xB2F SWAP2 SWAP1 PUSH2 0x2415 JUMP JUMPDEST SWAP1 DUP2 MSTORE PUSH1 0x20 ADD PUSH1 0x40 MLOAD DUP1 SWAP2 SUB SWAP1 KECCAK256 PUSH1 0x0 SWAP1 SLOAD SWAP1 PUSH2 0x100 EXP SWAP1 DIV PUSH20 0xFFFFFFFFFFFFFFFFFFFFFFFFFFFFFFFFFFFFFFFF AND PUSH20 0xFFFFFFFFFFFFFFFFFFFFFFFFFFFFFFFFFFFFFFFF AND PUSH20 0xFFFFFFFFFFFFFFFFFFFFFFFFFFFFFFFFFFFFFFFF AND DUP2 MSTORE PUSH1 0x20 ADD SWAP1 DUP2 MSTORE PUSH1 0x20 ADD PUSH1 0x0 KECCAK256 DUP9 SWAP1 DUP1 PUSH1 0x1 DUP2 SLOAD ADD DUP1 DUP3 SSTORE DUP1 SWAP2 POP POP PUSH1 0x1 SWAP1 SUB SWAP1 PUSH1 0x0 MSTORE PUSH1 0x20 PUSH1 0x0 KECCAK256 ADD PUSH1 0x0 SWAP1 SWAP2 SWAP1 SWAP2 SWAP1 SWAP2 POP SWAP1 DUP2 PUSH2 0xBCA SWAP2 SWAP1 PUSH2 0x25D8 JUMP JUMPDEST POP PUSH1 0x8 PUSH1 0x0 PUSH1 0x3 DUP9 PUSH1 0x40 MLOAD PUSH2 0xBDF SWAP2 SWAP1 PUSH2 0x2415 JUMP JUMPDEST SWAP1 DUP2 MSTORE PUSH1 0x20 ADD PUSH1 0x40 MLOAD DUP1 SWAP2 SUB SWAP1 KECCAK256 PUSH1 0x0 SWAP1 SLOAD SWAP1 PUSH2 0x100 EXP SWAP1 DIV PUSH20 0xFFFFFFFFFFFFFFFFFFFFFFFFFFFFFFFFFFFFFFFF AND PUSH20 0xFFFFFFFFFFFFFFFFFFFFFFFFFFFFFFFFFFFFFFFF AND PUSH20 0xFFFFFFFFFFFFFFFFFFFFFFFFFFFFFFFFFFFFFFFF AND DUP2 MSTORE PUSH1 0x20 ADD SWAP1 DUP2 MSTORE PUSH1 0x20 ADD PUSH1 0x0 KECCAK256 DUP9 PUSH1 0x40 MLOAD PUSH2 0xC56 SWAP2 SWAP1 PUSH2 0x2415 JUMP JUMPDEST SWAP1 DUP2 MSTORE PUSH1 0x20 ADD PUSH1 0x40 MLOAD DUP1 SWAP2 SUB SWAP1 KECCAK256 PUSH1 0x0 DUP2 SLOAD DUP1 SWAP3 SWAP2 SWAP1 PUSH2 0xC75 SWAP1 PUSH2 0x26D9 JUMP JUMPDEST SWAP2 SWAP1 POP SSTORE POP JUMPDEST PUSH1 0x0 DUP2 DUP10 PUSH1 0x40 MLOAD PUSH2 0xC8C SWAP2 SWAP1 PUSH2 0x2415 JUMP JUMPDEST SWAP1 DUP2 MSTORE PUSH1 0x20 ADD PUSH1 0x40 MLOAD DUP1 SWAP2 SUB SWAP1 KECCAK256 SWAP1 POP DUP9 DUP2 PUSH1 0x0 DUP6 PUSH20 0xFFFFFFFFFFFFFFFFFFFFFFFFFFFFFFFFFFFFFFFF AND PUSH20 0xFFFFFFFFFFFFFFFFFFFFFFFFFFFFFFFFFFFFFFFF AND DUP2 MSTORE PUSH1 0x20 ADD SWAP1 DUP2 MSTORE PUSH1 0x20 ADD PUSH1 0x0 KECCAK256 PUSH1 0x0 ADD SWAP1 DUP2 PUSH2 0xCEA SWAP2 SWAP1 PUSH2 0x25D8 JUMP JUMPDEST POP DUP8 DUP2 PUSH1 0x0 DUP6 PUSH20 0xFFFFFFFFFFFFFFFFFFFFFFFFFFFFFFFFFFFFFFFF AND PUSH20 0xFFFFFFFFFFFFFFFFFFFFFFFFFFFFFFFFFFFFFFFF AND DUP2 MSTORE PUSH1 0x20 ADD SWAP1 DUP2 MSTORE PUSH1 0x20 ADD PUSH1 0x0 KECCAK256 PUSH1 0x1 ADD SWAP1 DUP2 PUSH2 0xD39 SWAP2 SWAP1 PUSH2 0x25D8 JUMP JUMPDEST POP DUP7 DUP2 PUSH1 0x0 DUP6 PUSH20 0xFFFFFFFFFFFFFFFFFFFFFFFFFFFFFFFFFFFFFFFF AND PUSH20 0xFFFFFFFFFFFFFFFFFFFFFFFFFFFFFFFFFFFFFFFF AND DUP2 MSTORE PUSH1 0x20 ADD SWAP1 DUP2 MSTORE PUSH1 0x20 ADD PUSH1 0x0 KECCAK256 PUSH1 0x2 ADD SWAP1 DUP2 PUSH2 0xD88 SWAP2 SWAP1 PUSH2 0x25D8 JUMP JUMPDEST POP DUP6 DUP2 PUSH1 0x0 DUP6 PUSH20 0xFFFFFFFFFFFFFFFFFFFFFFFFFFFFFFFFFFFFFFFF AND PUSH20 0xFFFFFFFFFFFFFFFFFFFFFFFFFFFFFFFFFFFFFFFF AND DUP2 MSTORE PUSH1 0x20 ADD SWAP1 DUP2 MSTORE PUSH1 0x20 ADD PUSH1 0x0 KECCAK256 PUSH1 0x3 ADD DUP2 SWAP1 SSTORE POP DUP5 DUP2 PUSH1 0x0 DUP6 PUSH20 0xFFFFFFFFFFFFFFFFFFFFFFFFFFFFFFFFFFFFFFFF AND PUSH20 0xFFFFFFFFFFFFFFFFFFFFFFFFFFFFFFFFFFFFFFFF AND DUP2 MSTORE PUSH1 0x20 ADD SWAP1 DUP2 MSTORE PUSH1 0x20 ADD PUSH1 0x0 KECCAK256 PUSH1 0x4 ADD DUP2 SWAP1 SSTORE POP DUP4 DUP2 PUSH1 0x0 DUP6 PUSH20 0xFFFFFFFFFFFFFFFFFFFFFFFFFFFFFFFFFFFFFFFF AND PUSH20 0xFFFFFFFFFFFFFFFFFFFFFFFFFFFFFFFFFFFFFFFF AND DUP2 MSTORE PUSH1 0x20 ADD SWAP1 DUP2 MSTORE PUSH1 0x20 ADD PUSH1 0x0 KECCAK256 PUSH1 0x5 ADD DUP2 SWAP1 SSTORE POP PUSH1 0x1 PUSH1 0x9 PUSH1 0x0 PUSH1 0x3 DUP11 PUSH1 0x40 MLOAD PUSH2 0xE71 SWAP2 SWAP1 PUSH2 0x2415 JUMP JUMPDEST SWAP1 DUP2 MSTORE PUSH1 0x20 ADD PUSH1 0x40 MLOAD DUP1 SWAP2 SUB SWAP1 KECCAK256 PUSH1 0x0 SWAP1 SLOAD SWAP1 PUSH2 0x100 EXP SWAP1 DIV PUSH20 0xFFFFFFFFFFFFFFFFFFFFFFFFFFFFFFFFFFFFFFFF AND PUSH20 0xFFFFFFFFFFFFFFFFFFFFFFFFFFFFFFFFFFFFFFFF AND PUSH20 0xFFFFFFFFFFFFFFFFFFFFFFFFFFFFFFFFFFFFFFFF AND DUP2 MSTORE PUSH1 0x20 ADD SWAP1 DUP2 MSTORE PUSH1 0x20 ADD PUSH1 0x0 KECCAK256 PUSH1 0x0 DUP3 DUP3 SLOAD PUSH2 0xEE9 SWAP2 SWAP1 PUSH2 0x2721 JUMP JUMPDEST SWAP3 POP POP DUP2 SWAP1 SSTORE POP PUSH1 0x1 PUSH1 0x9 PUSH1 0x0 DUP6 PUSH20 0xFFFFFFFFFFFFFFFFFFFFFFFFFFFFFFFFFFFFFFFF AND PUSH20 0xFFFFFFFFFFFFFFFFFFFFFFFFFFFFFFFFFFFFFFFF AND DUP2 MSTORE PUSH1 0x20 ADD SWAP1 DUP2 MSTORE PUSH1 0x20 ADD PUSH1 0x0 KECCAK256 PUSH1 0x0 DUP3 DUP3 SLOAD PUSH2 0xF40 SWAP2 SWAP1 PUSH2 0x2755 JUMP JUMPDEST SWAP3 POP POP DUP2 SWAP1 SSTORE POP PUSH2 0xF52 DUP4 PUSH1 0x1 PUSH2 0x1500 JUMP JUMPDEST POP POP POP POP POP POP POP POP POP JUMP JUMPDEST PUSH1 0x60 DUP1 PUSH1 0x0 CALLER SWAP1 POP PUSH1 0x0 PUSH1 0x6 PUSH1 0x0 DUP4 PUSH20 0xFFFFFFFFFFFFFFFFFFFFFFFFFFFFFFFFFFFFFFFF AND PUSH20 0xFFFFFFFFFFFFFFFFFFFFFFFFFFFFFFFFFFFFFFFF AND DUP2 MSTORE PUSH1 0x20 ADD SWAP1 DUP2 MSTORE PUSH1 0x20 ADD PUSH1 0x0 KECCAK256 SWAP1 POP PUSH1 0x0 PUSH1 0x6 PUSH1 0x0 DUP5 PUSH20 0xFFFFFFFFFFFFFFFFFFFFFFFFFFFFFFFFFFFFFFFF AND PUSH20 0xFFFFFFFFFFFFFFFFFFFFFFFFFFFFFFFFFFFFFFFF AND DUP2 MSTORE PUSH1 0x20 ADD SWAP1 DUP2 MSTORE PUSH1 0x20 ADD PUSH1 0x0 KECCAK256 DUP1 SLOAD SWAP1 POP PUSH8 0xFFFFFFFFFFFFFFFF DUP2 GT ISZERO PUSH2 0x1006 JUMPI PUSH2 0x1005 PUSH2 0x1B69 JUMP JUMPDEST JUMPDEST PUSH1 0x40 MLOAD SWAP1 DUP1 DUP3 MSTORE DUP1 PUSH1 0x20 MUL PUSH1 0x20 ADD DUP3 ADD PUSH1 0x40 MSTORE DUP1 ISZERO PUSH2 0x103F JUMPI DUP2 PUSH1 0x20 ADD JUMPDEST PUSH2 0x102C PUSH2 0x193F JUMP JUMPDEST DUP2 MSTORE PUSH1 0x20 ADD SWAP1 PUSH1 0x1 SWAP1 SUB SWAP1 DUP2 PUSH2 0x1024 JUMPI SWAP1 POP JUMPDEST POP SWAP1 POP PUSH1 0x0 JUMPDEST DUP3 DUP1 SLOAD SWAP1 POP DUP2 LT ISZERO PUSH2 0x13E0 JUMPI PUSH1 0x0 DUP4 DUP3 DUP2 SLOAD DUP2 LT PUSH2 0x1066 JUMPI PUSH2 0x1065 PUSH2 0x2789 JUMP JUMPDEST JUMPDEST SWAP1 PUSH1 0x0 MSTORE PUSH1 0x20 PUSH1 0x0 KECCAK256 ADD DUP1 SLOAD PUSH2 0x107B SWAP1 PUSH2 0x23A8 JUMP JUMPDEST DUP1 PUSH1 0x1F ADD PUSH1 0x20 DUP1 SWAP2 DIV MUL PUSH1 0x20 ADD PUSH1 0x40 MLOAD SWAP1 DUP2 ADD PUSH1 0x40 MSTORE DUP1 SWAP3 SWAP2 SWAP1 DUP2 DUP2 MSTORE PUSH1 0x20 ADD DUP3 DUP1 SLOAD PUSH2 0x10A7 SWAP1 PUSH2 0x23A8 JUMP JUMPDEST DUP1 ISZERO PUSH2 0x10F4 JUMPI DUP1 PUSH1 0x1F LT PUSH2 0x10C9 JUMPI PUSH2 0x100 DUP1 DUP4 SLOAD DIV MUL DUP4 MSTORE SWAP2 PUSH1 0x20 ADD SWAP2 PUSH2 0x10F4 JUMP JUMPDEST DUP3 ADD SWAP2 SWAP1 PUSH1 0x0 MSTORE PUSH1 0x20 PUSH1 0x0 KECCAK256 SWAP1 JUMPDEST DUP2 SLOAD DUP2 MSTORE SWAP1 PUSH1 0x1 ADD SWAP1 PUSH1 0x20 ADD DUP1 DUP4 GT PUSH2 0x10D7 JUMPI DUP3 SWAP1 SUB PUSH1 0x1F AND DUP3 ADD SWAP2 JUMPDEST POP POP POP POP POP SWAP1 POP PUSH1 0x7 PUSH1 0x0 DUP7 PUSH20 0xFFFFFFFFFFFFFFFFFFFFFFFFFFFFFFFFFFFFFFFF AND PUSH20 0xFFFFFFFFFFFFFFFFFFFFFFFFFFFFFFFFFFFFFFFF AND DUP2 MSTORE PUSH1 0x20 ADD SWAP1 DUP2 MSTORE PUSH1 0x20 ADD PUSH1 0x0 KECCAK256 DUP2 PUSH1 0x40 MLOAD PUSH2 0x1148 SWAP2 SWAP1 PUSH2 0x2415 JUMP JUMPDEST SWAP1 DUP2 MSTORE PUSH1 0x20 ADD PUSH1 0x40 MLOAD DUP1 SWAP2 SUB SWAP1 KECCAK256 PUSH1 0x0 PUSH1 0x3 DUP11 PUSH1 0x40 MLOAD PUSH2 0x1168 SWAP2 SWAP1 PUSH2 0x2415 JUMP JUMPDEST SWAP1 DUP2 MSTORE PUSH1 0x20 ADD PUSH1 0x40 MLOAD DUP1 SWAP2 SUB SWAP1 KECCAK256 PUSH1 0x0 SWAP1 SLOAD SWAP1 PUSH2 0x100 EXP SWAP1 DIV PUSH20 0xFFFFFFFFFFFFFFFFFFFFFFFFFFFFFFFFFFFFFFFF AND PUSH20 0xFFFFFFFFFFFFFFFFFFFFFFFFFFFFFFFFFFFFFFFF AND PUSH20 0xFFFFFFFFFFFFFFFFFFFFFFFFFFFFFFFFFFFFFFFF AND DUP2 MSTORE PUSH1 0x20 ADD SWAP1 DUP2 MSTORE PUSH1 0x20 ADD PUSH1 0x0 KECCAK256 PUSH1 0x40 MLOAD DUP1 PUSH1 0xC0 ADD PUSH1 0x40 MSTORE SWAP1 DUP2 PUSH1 0x0 DUP3 ADD DUP1 SLOAD PUSH2 0x11EC SWAP1 PUSH2 0x23A8 JUMP JUMPDEST DUP1 PUSH1 0x1F ADD PUSH1 0x20 DUP1 SWAP2 DIV MUL PUSH1 0x20 ADD PUSH1 0x40 MLOAD SWAP1 DUP2 ADD PUSH1 0x40 MSTORE DUP1 SWAP3 SWAP2 SWAP1 DUP2 DUP2 MSTORE PUSH1 0x20 ADD DUP3 DUP1 SLOAD PUSH2 0x1218 SWAP1 PUSH2 0x23A8 JUMP JUMPDEST DUP1 ISZERO PUSH2 0x1265 JUMPI DUP1 PUSH1 0x1F LT PUSH2 0x123A JUMPI PUSH2 0x100 DUP1 DUP4 SLOAD DIV MUL DUP4 MSTORE SWAP2 PUSH1 0x20 ADD SWAP2 PUSH2 0x1265 JUMP JUMPDEST DUP3 ADD SWAP2 SWAP1 PUSH1 0x0 MSTORE PUSH1 0x20 PUSH1 0x0 KECCAK256 SWAP1 JUMPDEST DUP2 SLOAD DUP2 MSTORE SWAP1 PUSH1 0x1 ADD SWAP1 PUSH1 0x20 ADD DUP1 DUP4 GT PUSH2 0x1248 JUMPI DUP3 SWAP1 SUB PUSH1 0x1F AND DUP3 ADD SWAP2 JUMPDEST POP POP POP POP POP DUP2 MSTORE PUSH1 0x20 ADD PUSH1 0x1 DUP3 ADD DUP1 SLOAD PUSH2 0x127E SWAP1 PUSH2 0x23A8 JUMP JUMPDEST DUP1 PUSH1 0x1F ADD PUSH1 0x20 DUP1 SWAP2 DIV MUL PUSH1 0x20 ADD PUSH1 0x40 MLOAD SWAP1 DUP2 ADD PUSH1 0x40 MSTORE DUP1 SWAP3 SWAP2 SWAP1 DUP2 DUP2 MSTORE PUSH1 0x20 ADD DUP3 DUP1 SLOAD PUSH2 0x12AA SWAP1 PUSH2 0x23A8 JUMP JUMPDEST DUP1 ISZERO PUSH2 0x12F7 JUMPI DUP1 PUSH1 0x1F LT PUSH2 0x12CC JUMPI PUSH2 0x100 DUP1 DUP4 SLOAD DIV MUL DUP4 MSTORE SWAP2 PUSH1 0x20 ADD SWAP2 PUSH2 0x12F7 JUMP JUMPDEST DUP3 ADD SWAP2 SWAP1 PUSH1 0x0 MSTORE PUSH1 0x20 PUSH1 0x0 KECCAK256 SWAP1 JUMPDEST DUP2 SLOAD DUP2 MSTORE SWAP1 PUSH1 0x1 ADD SWAP1 PUSH1 0x20 ADD DUP1 DUP4 GT PUSH2 0x12DA JUMPI DUP3 SWAP1 SUB PUSH1 0x1F AND DUP3 ADD SWAP2 JUMPDEST POP POP POP POP POP DUP2 MSTORE PUSH1 0x20 ADD PUSH1 0x2 DUP3 ADD DUP1 SLOAD PUSH2 0x1310 SWAP1 PUSH2 0x23A8 JUMP JUMPDEST DUP1 PUSH1 0x1F ADD PUSH1 0x20 DUP1 SWAP2 DIV MUL PUSH1 0x20 ADD PUSH1 0x40 MLOAD SWAP1 DUP2 ADD PUSH1 0x40 MSTORE DUP1 SWAP3 SWAP2 SWAP1 DUP2 DUP2 MSTORE PUSH1 0x20 ADD DUP3 DUP1 SLOAD PUSH2 0x133C SWAP1 PUSH2 0x23A8 JUMP JUMPDEST DUP1 ISZERO PUSH2 0x1389 JUMPI DUP1 PUSH1 0x1F LT PUSH2 0x135E JUMPI PUSH2 0x100 DUP1 DUP4 SLOAD DIV MUL DUP4 MSTORE SWAP2 PUSH1 0x20 ADD SWAP2 PUSH2 0x1389 JUMP JUMPDEST DUP3 ADD SWAP2 SWAP1 PUSH1 0x0 MSTORE PUSH1 0x20 PUSH1 0x0 KECCAK256 SWAP1 JUMPDEST DUP2 SLOAD DUP2 MSTORE SWAP1 PUSH1 0x1 ADD SWAP1 PUSH1 0x20 ADD DUP1 DUP4 GT PUSH2 0x136C JUMPI DUP3 SWAP1 SUB PUSH1 0x1F AND DUP3 ADD SWAP2 JUMPDEST POP POP POP POP POP DUP2 MSTORE PUSH1 0x20 ADD PUSH1 0x3 DUP3 ADD SLOAD DUP2 MSTORE PUSH1 0x20 ADD PUSH1 0x4 DUP3 ADD SLOAD DUP2 MSTORE PUSH1 0x20 ADD PUSH1 0x5 DUP3 ADD SLOAD DUP2 MSTORE POP POP DUP4 DUP4 DUP2 MLOAD DUP2 LT PUSH2 0x13C3 JUMPI PUSH2 0x13C2 PUSH2 0x2789 JUMP JUMPDEST JUMPDEST PUSH1 0x20 MUL PUSH1 0x20 ADD ADD DUP2 SWAP1 MSTORE POP POP DUP1 PUSH2 0x13D9 SWAP1 PUSH2 0x26D9 JUMP JUMPDEST SWAP1 POP PUSH2 0x1045 JUMP JUMPDEST POP PUSH1 0x6 PUSH1 0x0 DUP5 PUSH20 0xFFFFFFFFFFFFFFFFFFFFFFFFFFFFFFFFFFFFFFFF AND PUSH20 0xFFFFFFFFFFFFFFFFFFFFFFFFFFFFFFFFFFFFFFFF AND DUP2 MSTORE PUSH1 0x20 ADD SWAP1 DUP2 MSTORE PUSH1 0x20 ADD PUSH1 0x0 KECCAK256 DUP2 DUP2 DUP1 SLOAD DUP1 PUSH1 0x20 MUL PUSH1 0x20 ADD PUSH1 0x40 MLOAD SWAP1 DUP2 ADD PUSH1 0x40 MSTORE DUP1 SWAP3 SWAP2 SWAP1 DUP2 DUP2 MSTORE PUSH1 0x20 ADD PUSH1 0x0 SWAP1 JUMPDEST DUP3 DUP3 LT ISZERO PUSH2 0x14EE JUMPI DUP4 DUP3 SWAP1 PUSH1 0x0 MSTORE PUSH1 0x20 PUSH1 0x0 KECCAK256 ADD DUP1 SLOAD PUSH2 0x1461 SWAP1 PUSH2 0x23A8 JUMP JUMPDEST DUP1 PUSH1 0x1F ADD PUSH1 0x20 DUP1 SWAP2 DIV MUL PUSH1 0x20 ADD PUSH1 0x40 MLOAD SWAP1 DUP2 ADD PUSH1 0x40 MSTORE DUP1 SWAP3 SWAP2 SWAP1 DUP2 DUP2 MSTORE PUSH1 0x20 ADD DUP3 DUP1 SLOAD PUSH2 0x148D SWAP1 PUSH2 0x23A8 JUMP JUMPDEST DUP1 ISZERO PUSH2 0x14DA JUMPI DUP1 PUSH1 0x1F LT PUSH2 0x14AF JUMPI PUSH2 0x100 DUP1 DUP4 SLOAD DIV MUL DUP4 MSTORE SWAP2 PUSH1 0x20 ADD SWAP2 PUSH2 0x14DA JUMP JUMPDEST DUP3 ADD SWAP2 SWAP1 PUSH1 0x0 MSTORE PUSH1 0x20 PUSH1 0x0 KECCAK256 SWAP1 JUMPDEST DUP2 SLOAD DUP2 MSTORE SWAP1 PUSH1 0x1 ADD SWAP1 PUSH1 0x20 ADD DUP1 DUP4 GT PUSH2 0x14BD JUMPI DUP3 SWAP1 SUB PUSH1 0x1F AND DUP3 ADD SWAP2 JUMPDEST POP POP POP POP POP DUP2 MSTORE PUSH1 0x20 ADD SWAP1 PUSH1 0x1 ADD SWAP1 PUSH2 0x1442 JUMP JUMPDEST POP POP POP POP SWAP2 POP SWAP5 POP SWAP5 POP POP POP POP SWAP2 POP SWAP2 JUMP JUMPDEST PUSH1 0x0 DUP3 PUSH20 0xFFFFFFFFFFFFFFFFFFFFFFFFFFFFFFFFFFFFFFFF AND DUP3 PUSH1 0x40 MLOAD PUSH2 0x1526 SWAP1 PUSH2 0x27E9 JUMP JUMPDEST PUSH1 0x0 PUSH1 0x40 MLOAD DUP1 DUP4 SUB DUP2 DUP6 DUP8 GAS CALL SWAP3 POP POP POP RETURNDATASIZE DUP1 PUSH1 0x0 DUP2 EQ PUSH2 0x1563 JUMPI PUSH1 0x40 MLOAD SWAP2 POP PUSH1 0x1F NOT PUSH1 0x3F RETURNDATASIZE ADD AND DUP3 ADD PUSH1 0x40 MSTORE RETURNDATASIZE DUP3 MSTORE RETURNDATASIZE PUSH1 0x0 PUSH1 0x20 DUP5 ADD RETURNDATACOPY PUSH2 0x1568 JUMP JUMPDEST PUSH1 0x60 SWAP2 POP JUMPDEST POP POP SWAP1 POP DUP1 PUSH2 0x15AC JUMPI PUSH1 0x40 MLOAD PUSH32 0x8C379A000000000000000000000000000000000000000000000000000000000 DUP2 MSTORE PUSH1 0x4 ADD PUSH2 0x15A3 SWAP1 PUSH2 0x284A JUMP JUMPDEST PUSH1 0x40 MLOAD DUP1 SWAP2 SUB SWAP1 REVERT JUMPDEST POP POP POP JUMP JUMPDEST PUSH1 0x0 DUP1 PUSH1 0x8 PUSH1 0x0 PUSH1 0x3 DUP6 PUSH1 0x40 MLOAD PUSH2 0x15C8 SWAP2 SWAP1 PUSH2 0x2415 JUMP JUMPDEST SWAP1 DUP2 MSTORE PUSH1 0x20 ADD PUSH1 0x40 MLOAD DUP1 SWAP2 SUB SWAP1 KECCAK256 PUSH1 0x0 SWAP1 SLOAD SWAP1 PUSH2 0x100 EXP SWAP1 DIV PUSH20 0xFFFFFFFFFFFFFFFFFFFFFFFFFFFFFFFFFFFFFFFF AND PUSH20 0xFFFFFFFFFFFFFFFFFFFFFFFFFFFFFFFFFFFFFFFF AND PUSH20 0xFFFFFFFFFFFFFFFFFFFFFFFFFFFFFFFFFFFFFFFF AND DUP2 MSTORE PUSH1 0x20 ADD SWAP1 DUP2 MSTORE PUSH1 0x20 ADD PUSH1 0x0 KECCAK256 DUP5 PUSH1 0x40 MLOAD PUSH2 0x163F SWAP2 SWAP1 PUSH2 0x2415 JUMP JUMPDEST SWAP1 DUP2 MSTORE PUSH1 0x20 ADD PUSH1 0x40 MLOAD DUP1 SWAP2 SUB SWAP1 KECCAK256 SLOAD EQ ISZERO SWAP1 POP SWAP3 SWAP2 POP POP JUMP JUMPDEST PUSH1 0x0 SELFBALANCE SWAP1 POP SWAP1 JUMP JUMPDEST PUSH1 0x0 PUSH1 0x2 PUSH1 0x0 DUP5 PUSH20 0xFFFFFFFFFFFFFFFFFFFFFFFFFFFFFFFFFFFFFFFF AND PUSH20 0xFFFFFFFFFFFFFFFFFFFFFFFFFFFFFFFFFFFFFFFF AND DUP2 MSTORE PUSH1 0x20 ADD SWAP1 DUP2 MSTORE PUSH1 0x20 ADD PUSH1 0x0 KECCAK256 DUP1 SLOAD PUSH2 0x16AC SWAP1 PUSH2 0x23A8 JUMP JUMPDEST SWAP1 POP EQ DUP1 ISZERO PUSH2 0x1725 JUMPI POP PUSH1 0x0 PUSH20 0xFFFFFFFFFFFFFFFFFFFFFFFFFFFFFFFFFFFFFFFF AND PUSH1 0x3 DUP3 PUSH1 0x40 MLOAD PUSH2 0x16DE SWAP2 SWAP1 PUSH2 0x2415 JUMP JUMPDEST SWAP1 DUP2 MSTORE PUSH1 0x20 ADD PUSH1 0x40 MLOAD DUP1 SWAP2 SUB SWAP1 KECCAK256 PUSH1 0x0 SWAP1 SLOAD SWAP1 PUSH2 0x100 EXP SWAP1 DIV PUSH20 0xFFFFFFFFFFFFFFFFFFFFFFFFFFFFFFFFFFFFFFFF AND PUSH20 0xFFFFFFFFFFFFFFFFFFFFFFFFFFFFFFFFFFFFFFFF AND EQ JUMPDEST ISZERO PUSH2 0x18D1 JUMPI PUSH1 0x64 CALLVALUE LT ISZERO PUSH2 0x1738 JUMPI PUSH1 0x0 DUP1 REVERT JUMPDEST PUSH1 0x0 DUP2 SWAP1 DUP1 PUSH1 0x1 DUP2 SLOAD ADD DUP1 DUP3 SSTORE DUP1 SWAP2 POP POP PUSH1 0x1 SWAP1 SUB SWAP1 PUSH1 0x0 MSTORE PUSH1 0x20 PUSH1 0x0 KECCAK256 ADD PUSH1 0x0 SWAP1 SWAP2 SWAP1 SWAP2 SWAP1 SWAP2 POP SWAP1 DUP2 PUSH2 0x176C SWAP2 SWAP1 PUSH2 0x25D8 JUMP JUMPDEST POP PUSH1 0x1 DUP3 SWAP1 DUP1 PUSH1 0x1 DUP2 SLOAD ADD DUP1 DUP3 SSTORE DUP1 SWAP2 POP POP PUSH1 0x1 SWAP1 SUB SWAP1 PUSH1 0x0 MSTORE PUSH1 0x20 PUSH1 0x0 KECCAK256 ADD PUSH1 0x0 SWAP1 SWAP2 SWAP1 SWAP2 SWAP1 SWAP2 PUSH2 0x100 EXP DUP2 SLOAD DUP2 PUSH20 0xFFFFFFFFFFFFFFFFFFFFFFFFFFFFFFFFFFFFFFFF MUL NOT AND SWAP1 DUP4 PUSH20 0xFFFFFFFFFFFFFFFFFFFFFFFFFFFFFFFFFFFFFFFF AND MUL OR SWAP1 SSTORE POP DUP2 PUSH1 0x3 DUP3 PUSH1 0x40 MLOAD PUSH2 0x17E1 SWAP2 SWAP1 PUSH2 0x2415 JUMP JUMPDEST SWAP1 DUP2 MSTORE PUSH1 0x20 ADD PUSH1 0x40 MLOAD DUP1 SWAP2 SUB SWAP1 KECCAK256 PUSH1 0x0 PUSH2 0x100 EXP DUP2 SLOAD DUP2 PUSH20 0xFFFFFFFFFFFFFFFFFFFFFFFFFFFFFFFFFFFFFFFF MUL NOT AND SWAP1 DUP4 PUSH20 0xFFFFFFFFFFFFFFFFFFFFFFFFFFFFFFFFFFFFFFFF AND MUL OR SWAP1 SSTORE POP DUP1 PUSH1 0x2 PUSH1 0x0 DUP5 PUSH20 0xFFFFFFFFFFFFFFFFFFFFFFFFFFFFFFFFFFFFFFFF AND PUSH20 0xFFFFFFFFFFFFFFFFFFFFFFFFFFFFFFFFFFFFFFFF AND DUP2 MSTORE PUSH1 0x20 ADD SWAP1 DUP2 MSTORE PUSH1 0x20 ADD PUSH1 0x0 KECCAK256 SWAP1 DUP2 PUSH2 0x1879 SWAP2 SWAP1 PUSH2 0x25D8 JUMP JUMPDEST POP CALLVALUE PUSH1 0x9 PUSH1 0x0 DUP5 PUSH20 0xFFFFFFFFFFFFFFFFFFFFFFFFFFFFFFFFFFFFFFFF AND PUSH20 0xFFFFFFFFFFFFFFFFFFFFFFFFFFFFFFFFFFFFFFFF AND DUP2 MSTORE PUSH1 0x20 ADD SWAP1 DUP2 MSTORE PUSH1 0x20 ADD PUSH1 0x0 KECCAK256 PUSH1 0x0 DUP3 DUP3 SLOAD PUSH2 0x18C9 SWAP2 SWAP1 PUSH2 0x2755 JUMP JUMPDEST SWAP3 POP POP DUP2 SWAP1 SSTORE POP JUMPDEST POP POP JUMP JUMPDEST CALLVALUE PUSH1 0x4 PUSH1 0x0 DUP3 DUP3 SLOAD PUSH2 0x18E7 SWAP2 SWAP1 PUSH2 0x2755 JUMP JUMPDEST SWAP3 POP POP DUP2 SWAP1 SSTORE POP JUMP JUMPDEST PUSH1 0x4 SLOAD DUP2 JUMP JUMPDEST PUSH1 0x3 DUP2 DUP1 MLOAD PUSH1 0x20 DUP2 ADD DUP3 ADD DUP1 MLOAD DUP5 DUP3 MSTORE PUSH1 0x20 DUP4 ADD PUSH1 0x20 DUP6 ADD KECCAK256 DUP2 DUP4 MSTORE DUP1 SWAP6 POP POP POP POP POP POP PUSH1 0x0 SWAP2 POP SLOAD SWAP1 PUSH2 0x100 EXP SWAP1 DIV PUSH20 0xFFFFFFFFFFFFFFFFFFFFFFFFFFFFFFFFFFFFFFFF AND DUP2 JUMP JUMPDEST PUSH1 0x40 MLOAD DUP1 PUSH1 0xC0 ADD PUSH1 0x40 MSTORE DUP1 PUSH1 0x60 DUP2 MSTORE PUSH1 0x20 ADD PUSH1 0x60 DUP2 MSTORE PUSH1 0x20 ADD PUSH1 0x60 DUP2 MSTORE PUSH1 0x20 ADD PUSH1 0x0 DUP2 MSTORE PUSH1 0x20 ADD PUSH1 0x0 DUP2 MSTORE PUSH1 0x20 ADD PUSH1 0x0 DUP2 MSTORE POP SWAP1 JUMP JUMPDEST PUSH1 0x0 PUSH1 0x40 MLOAD SWAP1 POP SWAP1 JUMP JUMPDEST PUSH1 0x0 DUP1 REVERT JUMPDEST PUSH1 0x0 DUP1 REVERT JUMPDEST PUSH1 0x0 DUP2 SWAP1 POP SWAP2 SWAP1 POP JUMP JUMPDEST PUSH2 0x199C DUP2 PUSH2 0x1989 JUMP JUMPDEST DUP2 EQ PUSH2 0x19A7 JUMPI PUSH1 0x0 DUP1 REVERT JUMPDEST POP JUMP JUMPDEST PUSH1 0x0 DUP2 CALLDATALOAD SWAP1 POP PUSH2 0x19B9 DUP2 PUSH2 0x1993 JUMP JUMPDEST SWAP3 SWAP2 POP POP JUMP JUMPDEST PUSH1 0x0 PUSH1 0x20 DUP3 DUP5 SUB SLT ISZERO PUSH2 0x19D5 JUMPI PUSH2 0x19D4 PUSH2 0x197F JUMP JUMPDEST JUMPDEST PUSH1 0x0 PUSH2 0x19E3 DUP5 DUP3 DUP6 ADD PUSH2 0x19AA JUMP JUMPDEST SWAP2 POP POP SWAP3 SWAP2 POP POP JUMP JUMPDEST PUSH1 0x0 DUP2 MLOAD SWAP1 POP SWAP2 SWAP1 POP JUMP JUMPDEST PUSH1 0x0 DUP3 DUP3 MSTORE PUSH1 0x20 DUP3 ADD SWAP1 POP SWAP3 SWAP2 POP POP JUMP JUMPDEST PUSH1 0x0 JUMPDEST DUP4 DUP2 LT ISZERO PUSH2 0x1A26 JUMPI DUP1 DUP3 ADD MLOAD DUP2 DUP5 ADD MSTORE PUSH1 0x20 DUP2 ADD SWAP1 POP PUSH2 0x1A0B JUMP JUMPDEST PUSH1 0x0 DUP5 DUP5 ADD MSTORE POP POP POP POP JUMP JUMPDEST PUSH1 0x0 PUSH1 0x1F NOT PUSH1 0x1F DUP4 ADD AND SWAP1 POP SWAP2 SWAP1 POP JUMP JUMPDEST PUSH1 0x0 PUSH2 0x1A4E DUP3 PUSH2 0x19EC JUMP JUMPDEST PUSH2 0x1A58 DUP2 DUP6 PUSH2 0x19F7 JUMP JUMPDEST SWAP4 POP PUSH2 0x1A68 DUP2 DUP6 PUSH1 0x20 DUP7 ADD PUSH2 0x1A08 JUMP JUMPDEST PUSH2 0x1A71 DUP2 PUSH2 0x1A32 JUMP JUMPDEST DUP5 ADD SWAP2 POP POP SWAP3 SWAP2 POP POP JUMP JUMPDEST PUSH1 0x0 PUSH1 0x20 DUP3 ADD SWAP1 POP DUP2 DUP2 SUB PUSH1 0x0 DUP4 ADD MSTORE PUSH2 0x1A96 DUP2 DUP5 PUSH2 0x1A43 JUMP JUMPDEST SWAP1 POP SWAP3 SWAP2 POP POP JUMP JUMPDEST PUSH1 0x0 PUSH20 0xFFFFFFFFFFFFFFFFFFFFFFFFFFFFFFFFFFFFFFFF DUP3 AND SWAP1 POP SWAP2 SWAP1 POP JUMP JUMPDEST PUSH1 0x0 PUSH2 0x1AC9 DUP3 PUSH2 0x1A9E JUMP JUMPDEST SWAP1 POP SWAP2 SWAP1 POP JUMP JUMPDEST PUSH2 0x1AD9 DUP2 PUSH2 0x1ABE JUMP JUMPDEST DUP3 MSTORE POP POP JUMP JUMPDEST PUSH2 0x1AE8 DUP2 PUSH2 0x1989 JUMP JUMPDEST DUP3 MSTORE POP POP JUMP JUMPDEST PUSH1 0x0 PUSH1 0x80 DUP3 ADD SWAP1 POP PUSH2 0x1B03 PUSH1 0x0 DUP4 ADD DUP8 PUSH2 0x1AD0 JUMP JUMPDEST PUSH2 0x1B10 PUSH1 0x20 DUP4 ADD DUP7 PUSH2 0x1AD0 JUMP JUMPDEST PUSH2 0x1B1D PUSH1 0x40 DUP4 ADD DUP6 PUSH2 0x1ADF JUMP JUMPDEST PUSH2 0x1B2A PUSH1 0x60 DUP4 ADD DUP5 PUSH2 0x1ADF JUMP JUMPDEST SWAP6 SWAP5 POP POP POP POP POP JUMP JUMPDEST PUSH2 0x1B3C DUP2 PUSH2 0x1ABE JUMP JUMPDEST DUP2 EQ PUSH2 0x1B47 JUMPI PUSH1 0x0 DUP1 REVERT JUMPDEST POP JUMP JUMPDEST PUSH1 0x0 DUP2 CALLDATALOAD SWAP1 POP PUSH2 0x1B59 DUP2 PUSH2 0x1B33 JUMP JUMPDEST SWAP3 SWAP2 POP POP JUMP JUMPDEST PUSH1 0x0 DUP1 REVERT JUMPDEST PUSH1 0x0 DUP1 REVERT JUMPDEST PUSH32 0x4E487B7100000000000000000000000000000000000000000000000000000000 PUSH1 0x0 MSTORE PUSH1 0x41 PUSH1 0x4 MSTORE PUSH1 0x24 PUSH1 0x0 REVERT JUMPDEST PUSH2 0x1BA1 DUP3 PUSH2 0x1A32 JUMP JUMPDEST DUP2 ADD DUP2 DUP2 LT PUSH8 0xFFFFFFFFFFFFFFFF DUP3 GT OR ISZERO PUSH2 0x1BC0 JUMPI PUSH2 0x1BBF PUSH2 0x1B69 JUMP JUMPDEST JUMPDEST DUP1 PUSH1 0x40 MSTORE POP POP POP JUMP JUMPDEST PUSH1 0x0 PUSH2 0x1BD3 PUSH2 0x1975 JUMP JUMPDEST SWAP1 POP PUSH2 0x1BDF DUP3 DUP3 PUSH2 0x1B98 JUMP JUMPDEST SWAP2 SWAP1 POP JUMP JUMPDEST PUSH1 0x0 PUSH8 0xFFFFFFFFFFFFFFFF DUP3 GT ISZERO PUSH2 0x1BFF JUMPI PUSH2 0x1BFE PUSH2 0x1B69 JUMP JUMPDEST JUMPDEST PUSH2 0x1C08 DUP3 PUSH2 0x1A32 JUMP JUMPDEST SWAP1 POP PUSH1 0x20 DUP2 ADD SWAP1 POP SWAP2 SWAP1 POP JUMP JUMPDEST DUP3 DUP2 DUP4 CALLDATACOPY PUSH1 0x0 DUP4 DUP4 ADD MSTORE POP POP POP JUMP JUMPDEST PUSH1 0x0 PUSH2 0x1C37 PUSH2 0x1C32 DUP5 PUSH2 0x1BE4 JUMP JUMPDEST PUSH2 0x1BC9 JUMP JUMPDEST SWAP1 POP DUP3 DUP2 MSTORE PUSH1 0x20 DUP2 ADD DUP5 DUP5 DUP5 ADD GT ISZERO PUSH2 0x1C53 JUMPI PUSH2 0x1C52 PUSH2 0x1B64 JUMP JUMPDEST JUMPDEST PUSH2 0x1C5E DUP5 DUP3 DUP6 PUSH2 0x1C15 JUMP JUMPDEST POP SWAP4 SWAP3 POP POP POP JUMP JUMPDEST PUSH1 0x0 DUP3 PUSH1 0x1F DUP4 ADD SLT PUSH2 0x1C7B JUMPI PUSH2 0x1C7A PUSH2 0x1B5F JUMP JUMPDEST JUMPDEST DUP2 CALLDATALOAD PUSH2 0x1C8B DUP5 DUP3 PUSH1 0x20 DUP7 ADD PUSH2 0x1C24 JUMP JUMPDEST SWAP2 POP POP SWAP3 SWAP2 POP POP JUMP JUMPDEST PUSH1 0x0 DUP1 PUSH1 0x0 PUSH1 0x60 DUP5 DUP7 SUB SLT ISZERO PUSH2 0x1CAD JUMPI PUSH2 0x1CAC PUSH2 0x197F JUMP JUMPDEST JUMPDEST PUSH1 0x0 PUSH2 0x1CBB DUP7 DUP3 DUP8 ADD PUSH2 0x1B4A JUMP JUMPDEST SWAP4 POP POP PUSH1 0x20 DUP5 ADD CALLDATALOAD PUSH8 0xFFFFFFFFFFFFFFFF DUP2 GT ISZERO PUSH2 0x1CDC JUMPI PUSH2 0x1CDB PUSH2 0x1984 JUMP JUMPDEST JUMPDEST PUSH2 0x1CE8 DUP7 DUP3 DUP8 ADD PUSH2 0x1C66 JUMP JUMPDEST SWAP3 POP POP PUSH1 0x40 PUSH2 0x1CF9 DUP7 DUP3 DUP8 ADD PUSH2 0x1B4A JUMP JUMPDEST SWAP2 POP POP SWAP3 POP SWAP3 POP SWAP3 JUMP JUMPDEST PUSH1 0x0 PUSH1 0xC0 DUP3 ADD SWAP1 POP DUP2 DUP2 SUB PUSH1 0x0 DUP4 ADD MSTORE PUSH2 0x1D1D DUP2 DUP10 PUSH2 0x1A43 JUMP JUMPDEST SWAP1 POP DUP2 DUP2 SUB PUSH1 0x20 DUP4 ADD MSTORE PUSH2 0x1D31 DUP2 DUP9 PUSH2 0x1A43 JUMP JUMPDEST SWAP1 POP DUP2 DUP2 SUB PUSH1 0x40 DUP4 ADD MSTORE PUSH2 0x1D45 DUP2 DUP8 PUSH2 0x1A43 JUMP JUMPDEST SWAP1 POP PUSH2 0x1D54 PUSH1 0x60 DUP4 ADD DUP7 PUSH2 0x1ADF JUMP JUMPDEST PUSH2 0x1D61 PUSH1 0x80 DUP4 ADD DUP6 PUSH2 0x1ADF JUMP JUMPDEST PUSH2 0x1D6E PUSH1 0xA0 DUP4 ADD DUP5 PUSH2 0x1ADF JUMP JUMPDEST SWAP8 SWAP7 POP POP POP POP POP POP POP JUMP JUMPDEST PUSH1 0x0 PUSH1 0x20 DUP3 DUP5 SUB SLT ISZERO PUSH2 0x1D8F JUMPI PUSH2 0x1D8E PUSH2 0x197F JUMP JUMPDEST JUMPDEST PUSH1 0x0 PUSH2 0x1D9D DUP5 DUP3 DUP6 ADD PUSH2 0x1B4A JUMP JUMPDEST SWAP2 POP POP SWAP3 SWAP2 POP POP JUMP JUMPDEST PUSH1 0x0 PUSH1 0x20 DUP3 ADD SWAP1 POP PUSH2 0x1DBB PUSH1 0x0 DUP4 ADD DUP5 PUSH2 0x1ADF JUMP JUMPDEST SWAP3 SWAP2 POP POP JUMP JUMPDEST PUSH1 0x0 DUP1 PUSH1 0x40 DUP4 DUP6 SUB SLT ISZERO PUSH2 0x1DD8 JUMPI PUSH2 0x1DD7 PUSH2 0x197F JUMP JUMPDEST JUMPDEST PUSH1 0x0 PUSH2 0x1DE6 DUP6 DUP3 DUP7 ADD PUSH2 0x1B4A JUMP JUMPDEST SWAP3 POP POP PUSH1 0x20 PUSH2 0x1DF7 DUP6 DUP3 DUP7 ADD PUSH2 0x19AA JUMP JUMPDEST SWAP2 POP POP SWAP3 POP SWAP3 SWAP1 POP JUMP JUMPDEST PUSH1 0x0 PUSH1 0x20 DUP3 ADD SWAP1 POP PUSH2 0x1E16 PUSH1 0x0 DUP4 ADD DUP5 PUSH2 0x1AD0 JUMP JUMPDEST SWAP3 SWAP2 POP POP JUMP JUMPDEST PUSH1 0x0 DUP1 PUSH1 0x0 DUP1 PUSH1 0x0 DUP1 PUSH1 0xC0 DUP8 DUP10 SUB SLT ISZERO PUSH2 0x1E39 JUMPI PUSH2 0x1E38 PUSH2 0x197F JUMP JUMPDEST JUMPDEST PUSH1 0x0 DUP8 ADD CALLDATALOAD PUSH8 0xFFFFFFFFFFFFFFFF DUP2 GT ISZERO PUSH2 0x1E57 JUMPI PUSH2 0x1E56 PUSH2 0x1984 JUMP JUMPDEST JUMPDEST PUSH2 0x1E63 DUP10 DUP3 DUP11 ADD PUSH2 0x1C66 JUMP JUMPDEST SWAP7 POP POP PUSH1 0x20 DUP8 ADD CALLDATALOAD PUSH8 0xFFFFFFFFFFFFFFFF DUP2 GT ISZERO PUSH2 0x1E84 JUMPI PUSH2 0x1E83 PUSH2 0x1984 JUMP JUMPDEST JUMPDEST PUSH2 0x1E90 DUP10 DUP3 DUP11 ADD PUSH2 0x1C66 JUMP JUMPDEST SWAP6 POP POP PUSH1 0x40 DUP8 ADD CALLDATALOAD PUSH8 0xFFFFFFFFFFFFFFFF DUP2 GT ISZERO PUSH2 0x1EB1 JUMPI PUSH2 0x1EB0 PUSH2 0x1984 JUMP JUMPDEST JUMPDEST PUSH2 0x1EBD DUP10 DUP3 DUP11 ADD PUSH2 0x1C66 JUMP JUMPDEST SWAP5 POP POP PUSH1 0x60 PUSH2 0x1ECE DUP10 DUP3 DUP11 ADD PUSH2 0x19AA JUMP JUMPDEST SWAP4 POP POP PUSH1 0x80 PUSH2 0x1EDF DUP10 DUP3 DUP11 ADD PUSH2 0x19AA JUMP JUMPDEST SWAP3 POP POP PUSH1 0xA0 PUSH2 0x1EF0 DUP10 DUP3 DUP11 ADD PUSH2 0x19AA JUMP JUMPDEST SWAP2 POP POP SWAP3 SWAP6 POP SWAP3 SWAP6 POP SWAP3 SWAP6 JUMP JUMPDEST PUSH1 0x0 PUSH1 0x20 DUP3 DUP5 SUB SLT ISZERO PUSH2 0x1F13 JUMPI PUSH2 0x1F12 PUSH2 0x197F JUMP JUMPDEST JUMPDEST PUSH1 0x0 DUP3 ADD CALLDATALOAD PUSH8 0xFFFFFFFFFFFFFFFF DUP2 GT ISZERO PUSH2 0x1F31 JUMPI PUSH2 0x1F30 PUSH2 0x1984 JUMP JUMPDEST JUMPDEST PUSH2 0x1F3D DUP5 DUP3 DUP6 ADD PUSH2 0x1C66 JUMP JUMPDEST SWAP2 POP POP SWAP3 SWAP2 POP POP JUMP JUMPDEST PUSH1 0x0 DUP2 MLOAD SWAP1 POP SWAP2 SWAP1 POP JUMP JUMPDEST PUSH1 0x0 DUP3 DUP3 MSTORE PUSH1 0x20 DUP3 ADD SWAP1 POP SWAP3 SWAP2 POP POP JUMP JUMPDEST PUSH1 0x0 DUP2 SWAP1 POP PUSH1 0x20 DUP3 ADD SWAP1 POP SWAP2 SWAP1 POP JUMP JUMPDEST PUSH1 0x0 DUP3 DUP3 MSTORE PUSH1 0x20 DUP3 ADD SWAP1 POP SWAP3 SWAP2 POP POP JUMP JUMPDEST PUSH1 0x0 PUSH2 0x1F8E DUP3 PUSH2 0x19EC JUMP JUMPDEST PUSH2 0x1F98 DUP2 DUP6 PUSH2 0x1F72 JUMP JUMPDEST SWAP4 POP PUSH2 0x1FA8 DUP2 DUP6 PUSH1 0x20 DUP7 ADD PUSH2 0x1A08 JUMP JUMPDEST PUSH2 0x1FB1 DUP2 PUSH2 0x1A32 JUMP JUMPDEST DUP5 ADD SWAP2 POP POP SWAP3 SWAP2 POP POP JUMP JUMPDEST PUSH1 0x0 PUSH2 0x1FC8 DUP4 DUP4 PUSH2 0x1F83 JUMP JUMPDEST SWAP1 POP SWAP3 SWAP2 POP POP JUMP JUMPDEST PUSH1 0x0 PUSH1 0x20 DUP3 ADD SWAP1 POP SWAP2 SWAP1 POP JUMP JUMPDEST PUSH1 0x0 PUSH2 0x1FE8 DUP3 PUSH2 0x1F46 JUMP JUMPDEST PUSH2 0x1FF2 DUP2 DUP6 PUSH2 0x1F51 JUMP JUMPDEST SWAP4 POP DUP4 PUSH1 0x20 DUP3 MUL DUP6 ADD PUSH2 0x2004 DUP6 PUSH2 0x1F62 JUMP JUMPDEST DUP1 PUSH1 0x0 JUMPDEST DUP6 DUP2 LT ISZERO PUSH2 0x2040 JUMPI DUP5 DUP5 SUB DUP10 MSTORE DUP2 MLOAD PUSH2 0x2021 DUP6 DUP3 PUSH2 0x1FBC JUMP JUMPDEST SWAP5 POP PUSH2 0x202C DUP4 PUSH2 0x1FD0 JUMP JUMPDEST SWAP3 POP PUSH1 0x20 DUP11 ADD SWAP10 POP POP PUSH1 0x1 DUP2 ADD SWAP1 POP PUSH2 0x2008 JUMP JUMPDEST POP DUP3 SWAP8 POP DUP8 SWAP6 POP POP POP POP POP POP SWAP3 SWAP2 POP POP JUMP JUMPDEST PUSH1 0x0 DUP2 MLOAD SWAP1 POP SWAP2 SWAP1 POP JUMP JUMPDEST PUSH1 0x0 DUP3 DUP3 MSTORE PUSH1 0x20 DUP3 ADD SWAP1 POP SWAP3 SWAP2 POP POP JUMP JUMPDEST PUSH1 0x0 DUP2 SWAP1 POP PUSH1 0x20 DUP3 ADD SWAP1 POP SWAP2 SWAP1 POP JUMP JUMPDEST PUSH2 0x2087 DUP2 PUSH2 0x1989 JUMP JUMPDEST DUP3 MSTORE POP POP JUMP JUMPDEST PUSH1 0x0 PUSH1 0xC0 DUP4 ADD PUSH1 0x0 DUP4 ADD MLOAD DUP5 DUP3 SUB PUSH1 0x0 DUP7 ADD MSTORE PUSH2 0x20AA DUP3 DUP3 PUSH2 0x1F83 JUMP JUMPDEST SWAP2 POP POP PUSH1 0x20 DUP4 ADD MLOAD DUP5 DUP3 SUB PUSH1 0x20 DUP7 ADD MSTORE PUSH2 0x20C4 DUP3 DUP3 PUSH2 0x1F83 JUMP JUMPDEST SWAP2 POP POP PUSH1 0x40 DUP4 ADD MLOAD DUP5 DUP3 SUB PUSH1 0x40 DUP7 ADD MSTORE PUSH2 0x20DE DUP3 DUP3 PUSH2 0x1F83 JUMP JUMPDEST SWAP2 POP POP PUSH1 0x60 DUP4 ADD MLOAD PUSH2 0x20F3 PUSH1 0x60 DUP7 ADD DUP3 PUSH2 0x207E JUMP JUMPDEST POP PUSH1 0x80 DUP4 ADD MLOAD PUSH2 0x2106 PUSH1 0x80 DUP7 ADD DUP3 PUSH2 0x207E JUMP JUMPDEST POP PUSH1 0xA0 DUP4 ADD MLOAD PUSH2 0x2119 PUSH1 0xA0 DUP7 ADD DUP3 PUSH2 0x207E JUMP JUMPDEST POP DUP1 SWAP2 POP POP SWAP3 SWAP2 POP POP JUMP JUMPDEST PUSH1 0x0 PUSH2 0x2130 DUP4 DUP4 PUSH2 0x208D JUMP JUMPDEST SWAP1 POP SWAP3 SWAP2 POP POP JUMP JUMPDEST PUSH1 0x0 PUSH1 0x20 DUP3 ADD SWAP1 POP SWAP2 SWAP1 POP JUMP JUMPDEST PUSH1 0x0 PUSH2 0x2150 DUP3 PUSH2 0x2052 JUMP JUMPDEST PUSH2 0x215A DUP2 DUP6 PUSH2 0x205D JUMP JUMPDEST SWAP4 POP DUP4 PUSH1 0x20 DUP3 MUL DUP6 ADD PUSH2 0x216C DUP6 PUSH2 0x206E JUMP JUMPDEST DUP1 PUSH1 0x0 JUMPDEST DUP6 DUP2 LT ISZERO PUSH2 0x21A8 JUMPI DUP5 DUP5 SUB DUP10 MSTORE DUP2 MLOAD PUSH2 0x2189 DUP6 DUP3 PUSH2 0x2124 JUMP JUMPDEST SWAP5 POP PUSH2 0x2194 DUP4 PUSH2 0x2138 JUMP JUMPDEST SWAP3 POP PUSH1 0x20 DUP11 ADD SWAP10 POP POP PUSH1 0x1 DUP2 ADD SWAP1 POP PUSH2 0x2170 JUMP JUMPDEST POP DUP3 SWAP8 POP DUP8 SWAP6 POP POP POP POP POP POP SWAP3 SWAP2 POP POP JUMP JUMPDEST PUSH1 0x0 PUSH1 0x40 DUP3 ADD SWAP1 POP DUP2 DUP2 SUB PUSH1 0x0 DUP4 ADD MSTORE PUSH2 0x21D4 DUP2 DUP6 PUSH2 0x1FDD JUMP JUMPDEST SWAP1 POP DUP2 DUP2 SUB PUSH1 0x20 DUP4 ADD MSTORE PUSH2 0x21E8 DUP2 DUP5 PUSH2 0x2145 JUMP JUMPDEST SWAP1 POP SWAP4 SWAP3 POP POP POP JUMP JUMPDEST PUSH1 0x0 PUSH2 0x21FC DUP3 PUSH2 0x1A9E JUMP JUMPDEST SWAP1 POP SWAP2 SWAP1 POP JUMP JUMPDEST PUSH2 0x220C DUP2 PUSH2 0x21F1 JUMP JUMPDEST DUP2 EQ PUSH2 0x2217 JUMPI PUSH1 0x0 DUP1 REVERT JUMPDEST POP JUMP JUMPDEST PUSH1 0x0 DUP2 CALLDATALOAD SWAP1 POP PUSH2 0x2229 DUP2 PUSH2 0x2203 JUMP JUMPDEST SWAP3 SWAP2 POP POP JUMP JUMPDEST PUSH1 0x0 DUP1 PUSH1 0x40 DUP4 DUP6 SUB SLT ISZERO PUSH2 0x2246 JUMPI PUSH2 0x2245 PUSH2 0x197F JUMP JUMPDEST JUMPDEST PUSH1 0x0 PUSH2 0x2254 DUP6 DUP3 DUP7 ADD PUSH2 0x221A JUMP JUMPDEST SWAP3 POP POP PUSH1 0x20 PUSH2 0x2265 DUP6 DUP3 DUP7 ADD PUSH2 0x19AA JUMP JUMPDEST SWAP2 POP POP SWAP3 POP SWAP3 SWAP1 POP JUMP JUMPDEST PUSH1 0x0 DUP1 PUSH1 0x40 DUP4 DUP6 SUB SLT ISZERO PUSH2 0x2286 JUMPI PUSH2 0x2285 PUSH2 0x197F JUMP JUMPDEST JUMPDEST PUSH1 0x0 DUP4 ADD CALLDATALOAD PUSH8 0xFFFFFFFFFFFFFFFF DUP2 GT ISZERO PUSH2 0x22A4 JUMPI PUSH2 0x22A3 PUSH2 0x1984 JUMP JUMPDEST JUMPDEST PUSH2 0x22B0 DUP6 DUP3 DUP7 ADD PUSH2 0x1C66 JUMP JUMPDEST SWAP3 POP POP PUSH1 0x20 DUP4 ADD CALLDATALOAD PUSH8 0xFFFFFFFFFFFFFFFF DUP2 GT ISZERO PUSH2 0x22D1 JUMPI PUSH2 0x22D0 PUSH2 0x1984 JUMP JUMPDEST JUMPDEST PUSH2 0x22DD DUP6 DUP3 DUP7 ADD PUSH2 0x1C66 JUMP JUMPDEST SWAP2 POP POP SWAP3 POP SWAP3 SWAP1 POP JUMP JUMPDEST PUSH1 0x0 DUP2 ISZERO ISZERO SWAP1 POP SWAP2 SWAP1 POP JUMP JUMPDEST PUSH2 0x22FC DUP2 PUSH2 0x22E7 JUMP JUMPDEST DUP3 MSTORE POP POP JUMP JUMPDEST PUSH1 0x0 PUSH1 0x20 DUP3 ADD SWAP1 POP PUSH2 0x2317 PUSH1 0x0 DUP4 ADD DUP5 PUSH2 0x22F3 JUMP JUMPDEST SWAP3 SWAP2 POP POP JUMP JUMPDEST PUSH1 0x0 DUP1 PUSH1 0x40 DUP4 DUP6 SUB SLT ISZERO PUSH2 0x2334 JUMPI PUSH2 0x2333 PUSH2 0x197F JUMP JUMPDEST JUMPDEST PUSH1 0x0 PUSH2 0x2342 DUP6 DUP3 DUP7 ADD PUSH2 0x1B4A JUMP JUMPDEST SWAP3 POP POP PUSH1 0x20 DUP4 ADD CALLDATALOAD PUSH8 0xFFFFFFFFFFFFFFFF DUP2 GT ISZERO PUSH2 0x2363 JUMPI PUSH2 0x2362 PUSH2 0x1984 JUMP JUMPDEST JUMPDEST PUSH2 0x236F DUP6 DUP3 DUP7 ADD PUSH2 0x1C66 JUMP JUMPDEST SWAP2 POP POP SWAP3 POP SWAP3 SWAP1 POP JUMP JUMPDEST PUSH32 0x4E487B7100000000000000000000000000000000000000000000000000000000 PUSH1 0x0 MSTORE PUSH1 0x22 PUSH1 0x4 MSTORE PUSH1 0x24 PUSH1 0x0 REVERT JUMPDEST PUSH1 0x0 PUSH1 0x2 DUP3 DIV SWAP1 POP PUSH1 0x1 DUP3 AND DUP1 PUSH2 0x23C0 JUMPI PUSH1 0x7F DUP3 AND SWAP2 POP JUMPDEST PUSH1 0x20 DUP3 LT DUP2 SUB PUSH2 0x23D3 JUMPI PUSH2 0x23D2 PUSH2 0x2379 JUMP JUMPDEST JUMPDEST POP SWAP2 SWAP1 POP JUMP JUMPDEST PUSH1 0x0 DUP2 SWAP1 POP SWAP3 SWAP2 POP POP JUMP JUMPDEST PUSH1 0x0 PUSH2 0x23EF DUP3 PUSH2 0x19EC JUMP JUMPDEST PUSH2 0x23F9 DUP2 DUP6 PUSH2 0x23D9 JUMP JUMPDEST SWAP4 POP PUSH2 0x2409 DUP2 DUP6 PUSH1 0x20 DUP7 ADD PUSH2 0x1A08 JUMP JUMPDEST DUP1 DUP5 ADD SWAP2 POP POP SWAP3 SWAP2 POP POP JUMP JUMPDEST PUSH1 0x0 PUSH2 0x2421 DUP3 DUP5 PUSH2 0x23E4 JUMP JUMPDEST SWAP2 POP DUP2 SWAP1 POP SWAP3 SWAP2 POP POP JUMP JUMPDEST PUSH1 0x0 DUP2 SWAP1 POP DUP2 PUSH1 0x0 MSTORE PUSH1 0x20 PUSH1 0x0 KECCAK256 SWAP1 POP SWAP2 SWAP1 POP JUMP JUMPDEST PUSH1 0x0 PUSH1 0x20 PUSH1 0x1F DUP4 ADD DIV SWAP1 POP SWAP2 SWAP1 POP JUMP JUMPDEST PUSH1 0x0 DUP3 DUP3 SHL SWAP1 POP SWAP3 SWAP2 POP POP JUMP JUMPDEST PUSH1 0x0 PUSH1 0x8 DUP4 MUL PUSH2 0x248E PUSH32 0xFFFFFFFFFFFFFFFFFFFFFFFFFFFFFFFFFFFFFFFFFFFFFFFFFFFFFFFFFFFFFFFF DUP3 PUSH2 0x2451 JUMP JUMPDEST PUSH2 0x2498 DUP7 DUP4 PUSH2 0x2451 JUMP JUMPDEST SWAP6 POP DUP1 NOT DUP5 AND SWAP4 POP DUP1 DUP7 AND DUP5 OR SWAP3 POP POP POP SWAP4 SWAP3 POP POP POP JUMP JUMPDEST PUSH1 0x0 DUP2 SWAP1 POP SWAP2 SWAP1 POP JUMP JUMPDEST PUSH1 0x0 PUSH2 0x24D5 PUSH2 0x24D0 PUSH2 0x24CB DUP5 PUSH2 0x1989 JUMP JUMPDEST PUSH2 0x24B0 JUMP JUMPDEST PUSH2 0x1989 JUMP JUMPDEST SWAP1 POP SWAP2 SWAP1 POP JUMP JUMPDEST PUSH1 0x0 DUP2 SWAP1 POP SWAP2 SWAP1 POP JUMP JUMPDEST PUSH2 0x24EF DUP4 PUSH2 0x24BA JUMP JUMPDEST PUSH2 0x2503 PUSH2 0x24FB DUP3 PUSH2 0x24DC JUMP JUMPDEST DUP5 DUP5 SLOAD PUSH2 0x245E JUMP JUMPDEST DUP3 SSTORE POP POP POP POP JUMP JUMPDEST PUSH1 0x0 SWAP1 JUMP JUMPDEST PUSH2 0x2518 PUSH2 0x250B JUMP JUMPDEST PUSH2 0x2523 DUP2 DUP5 DUP5 PUSH2 0x24E6 JUMP JUMPDEST POP POP POP JUMP JUMPDEST JUMPDEST DUP2 DUP2 LT ISZERO PUSH2 0x2547 JUMPI PUSH2 0x253C PUSH1 0x0 DUP3 PUSH2 0x2510 JUMP JUMPDEST PUSH1 0x1 DUP2 ADD SWAP1 POP PUSH2 0x2529 JUMP JUMPDEST POP POP JUMP JUMPDEST PUSH1 0x1F DUP3 GT ISZERO PUSH2 0x258C JUMPI PUSH2 0x255D DUP2 PUSH2 0x242C JUMP JUMPDEST PUSH2 0x2566 DUP5 PUSH2 0x2441 JUMP JUMPDEST DUP2 ADD PUSH1 0x20 DUP6 LT ISZERO PUSH2 0x2575 JUMPI DUP2 SWAP1 POP JUMPDEST PUSH2 0x2589 PUSH2 0x2581 DUP6 PUSH2 0x2441 JUMP JUMPDEST DUP4 ADD DUP3 PUSH2 0x2528 JUMP JUMPDEST POP POP JUMPDEST POP POP POP JUMP JUMPDEST PUSH1 0x0 DUP3 DUP3 SHR SWAP1 POP SWAP3 SWAP2 POP POP JUMP JUMPDEST PUSH1 0x0 PUSH2 0x25AF PUSH1 0x0 NOT DUP5 PUSH1 0x8 MUL PUSH2 0x2591 JUMP JUMPDEST NOT DUP1 DUP4 AND SWAP2 POP POP SWAP3 SWAP2 POP POP JUMP JUMPDEST PUSH1 0x0 PUSH2 0x25C8 DUP4 DUP4 PUSH2 0x259E JUMP JUMPDEST SWAP2 POP DUP3 PUSH1 0x2 MUL DUP3 OR SWAP1 POP SWAP3 SWAP2 POP POP JUMP JUMPDEST PUSH2 0x25E1 DUP3 PUSH2 0x19EC JUMP JUMPDEST PUSH8 0xFFFFFFFFFFFFFFFF DUP2 GT ISZERO PUSH2 0x25FA JUMPI PUSH2 0x25F9 PUSH2 0x1B69 JUMP JUMPDEST JUMPDEST PUSH2 0x2604 DUP3 SLOAD PUSH2 0x23A8 JUMP JUMPDEST PUSH2 0x260F DUP3 DUP3 DUP6 PUSH2 0x254B JUMP JUMPDEST PUSH1 0x0 PUSH1 0x20 SWAP1 POP PUSH1 0x1F DUP4 GT PUSH1 0x1 DUP2 EQ PUSH2 0x2642 JUMPI PUSH1 0x0 DUP5 ISZERO PUSH2 0x2630 JUMPI DUP3 DUP8 ADD MLOAD SWAP1 POP JUMPDEST PUSH2 0x263A DUP6 DUP3 PUSH2 0x25BC JUMP JUMPDEST DUP7 SSTORE POP PUSH2 0x26A2 JUMP JUMPDEST PUSH1 0x1F NOT DUP5 AND PUSH2 0x2650 DUP7 PUSH2 0x242C JUMP JUMPDEST PUSH1 0x0 JUMPDEST DUP3 DUP2 LT ISZERO PUSH2 0x2678 JUMPI DUP5 DUP10 ADD MLOAD DUP3 SSTORE PUSH1 0x1 DUP3 ADD SWAP2 POP PUSH1 0x20 DUP6 ADD SWAP5 POP PUSH1 0x20 DUP2 ADD SWAP1 POP PUSH2 0x2653 JUMP JUMPDEST DUP7 DUP4 LT ISZERO PUSH2 0x2695 JUMPI DUP5 DUP10 ADD MLOAD PUSH2 0x2691 PUSH1 0x1F DUP10 AND DUP3 PUSH2 0x259E JUMP JUMPDEST DUP4 SSTORE POP JUMPDEST PUSH1 0x1 PUSH1 0x2 DUP9 MUL ADD DUP9 SSTORE POP POP POP JUMPDEST POP POP POP POP POP POP JUMP JUMPDEST PUSH32 0x4E487B7100000000000000000000000000000000000000000000000000000000 PUSH1 0x0 MSTORE PUSH1 0x11 PUSH1 0x4 MSTORE PUSH1 0x24 PUSH1 0x0 REVERT JUMPDEST PUSH1 0x0 PUSH2 0x26E4 DUP3 PUSH2 0x1989 JUMP JUMPDEST SWAP2 POP PUSH32 0xFFFFFFFFFFFFFFFFFFFFFFFFFFFFFFFFFFFFFFFFFFFFFFFFFFFFFFFFFFFFFFFF DUP3 SUB PUSH2 0x2716 JUMPI PUSH2 0x2715 PUSH2 0x26AA JUMP JUMPDEST JUMPDEST PUSH1 0x1 DUP3 ADD SWAP1 POP SWAP2 SWAP1 POP JUMP JUMPDEST PUSH1 0x0 PUSH2 0x272C DUP3 PUSH2 0x1989 JUMP JUMPDEST SWAP2 POP PUSH2 0x2737 DUP4 PUSH2 0x1989 JUMP JUMPDEST SWAP3 POP DUP3 DUP3 SUB SWAP1 POP DUP2 DUP2 GT ISZERO PUSH2 0x274F JUMPI PUSH2 0x274E PUSH2 0x26AA JUMP JUMPDEST JUMPDEST SWAP3 SWAP2 POP POP JUMP JUMPDEST PUSH1 0x0 PUSH2 0x2760 DUP3 PUSH2 0x1989 JUMP JUMPDEST SWAP2 POP PUSH2 0x276B DUP4 PUSH2 0x1989 JUMP JUMPDEST SWAP3 POP DUP3 DUP3 ADD SWAP1 POP DUP1 DUP3 GT ISZERO PUSH2 0x2783 JUMPI PUSH2 0x2782 PUSH2 0x26AA JUMP JUMPDEST JUMPDEST SWAP3 SWAP2 POP POP JUMP JUMPDEST PUSH32 0x4E487B7100000000000000000000000000000000000000000000000000000000 PUSH1 0x0 MSTORE PUSH1 0x32 PUSH1 0x4 MSTORE PUSH1 0x24 PUSH1 0x0 REVERT JUMPDEST PUSH1 0x0 DUP2 SWAP1 POP SWAP3 SWAP2 POP POP JUMP JUMPDEST POP JUMP JUMPDEST PUSH1 0x0 PUSH2 0x27D3 PUSH1 0x0 DUP4 PUSH2 0x27B8 JUMP JUMPDEST SWAP2 POP PUSH2 0x27DE DUP3 PUSH2 0x27C3 JUMP JUMPDEST PUSH1 0x0 DUP3 ADD SWAP1 POP SWAP2 SWAP1 POP JUMP JUMPDEST PUSH1 0x0 PUSH2 0x27F4 DUP3 PUSH2 0x27C6 JUMP JUMPDEST SWAP2 POP DUP2 SWAP1 POP SWAP2 SWAP1 POP JUMP JUMPDEST PUSH32 0x4661696C656420746F2073656E64204574686572000000000000000000000000 PUSH1 0x0 DUP3 ADD MSTORE POP JUMP JUMPDEST PUSH1 0x0 PUSH2 0x2834 PUSH1 0x14 DUP4 PUSH2 0x19F7 JUMP JUMPDEST SWAP2 POP PUSH2 0x283F DUP3 PUSH2 0x27FE JUMP JUMPDEST PUSH1 0x20 DUP3 ADD SWAP1 POP SWAP2 SWAP1 POP JUMP JUMPDEST PUSH1 0x0 PUSH1 0x20 DUP3 ADD SWAP1 POP DUP2 DUP2 SUB PUSH1 0x0 DUP4 ADD MSTORE PUSH2 0x2863 DUP2 PUSH2 0x2827 JUMP JUMPDEST SWAP1 POP SWAP2 SWAP1 POP JUMP INVALID LOG2 PUSH5 0x6970667358 0x22 SLT KECCAK256 0xE5 MSTORE8 0xE CALLDATALOAD PUSH1 0x5B SWAP3 EXTCODESIZE SELFBALANCE 0xE1 0xD4 EXTCODESIZE 0xC7 PUSH32 0x1F72F71C0B5B367DA77D051E57BA8E39B88964736F6C63430008110033000000 "},"gasEstimates":{"creation":{"codeDepositCost":"2080000","executionCost":"2207","totalCost":"2082207"},"external":{"balance()":"428","bank(address)":"2904","billingHistory(uint256)":"infinite","dataSummaryExists(string,string)":"infinite","dataSummaryTable(address,string,address)":"infinite","deposit()":"infinite","fetchUserDataSummary(string)":"infinite","operatorAddresses(uint256)":"5023","operatorsAddrToName(address)":"infinite","operatorsNameToAddr(string)":"infinite","registerRoamingOperator(address,string)":"infinite","serviceProviders(uint256)":"infinite","totalDeposit()":"2495","transfer(address,uint256)":"infinite","uploadUserDataSummary(string,string,string,uint256,uint256,uint256)":"infinite","userTable(address,uint256)":"infinite"}},"methodIdentifiers":{"balance()":"b69ef8a8","bank(address)":"529a1baf","billingHistory(uint256)":"0cb31a80","dataSummaryExists(string,string)":"ab6a9f17","dataSummaryTable(address,string,address)":"32f97763","deposit()":"d0e30db0","fetchUserDataSummary(string)":"a8367070","operatorAddresses(uint256)":"7792a035","operatorsAddrToName(address)":"64aa65a8","operatorsNameToAddr(string)":"fd70c7dd","registerRoamingOperator(address,string)":"c7fa1063","serviceProviders(uint256)":"0a02dcc7","totalDeposit()":"f6153ccd","transfer(address,uint256)":"a9059cbb","uploadUserDataSummary(string,string,string,uint256,uint256,uint256)":"8f1d613d","userTable(address,uint256)":"6e6061d1"}},"storageLayout":{"storage":[{"astId":4,"contract":"RoamingDataManagement.sol:RoamingDataManagement","label":"serviceProviders","offset":0,"slot":"0","type":"t_array(t_string_storage)dyn_storage"},{"astId":7,"contract":"RoamingDataManagement.sol:RoamingDataManagement","label":"operatorAddresses","offset":0,"slot":"1","type":"t_array(t_address)dyn_storage"},{"astId":11,"contract":"RoamingDataManagement.sol:RoamingDataManagement","label":"operatorsAddrToName","offset":0,"slot":"2","type":"t_mapping(t_address,t_string_storage)"},{"astId":15,"contract":"RoamingDataManagement.sol:RoamingDataManagement","label":"operatorsNameToAddr","offset":0,"slot":"3","type":"t_mapping(t_string_memory_ptr,t_address)"},{"astId":17,"contract":"RoamingDataManagement.sol:RoamingDataManagement","label":"totalDeposit","offset":0,"slot":"4","type":"t_uint256"},{"astId":43,"contract":"RoamingDataManagement.sol:RoamingDataManagement","label":"billingHistory","offset":0,"slot":"5","type":"t_array(t_struct(BillingRecord)39_storage)dyn_storage"},{"astId":48,"contract":"RoamingDataManagement.sol:RoamingDataManagement","label":"userTable","offset":0,"slot":"6","type":"t_mapping(t_address,t_array(t_string_storage)dyn_storage)"},{"astId":57,"contract":"RoamingDataManagement.sol:RoamingDataManagement","label":"dataSummaryTable","offset":0,"slot":"7","type":"t_mapping(t_address,t_mapping(t_string_memory_ptr,t_mapping(t_address,t_struct(UserDataSummary)30_storage)))"},{"astId":63,"contract":"RoamingDataManagement.sol:RoamingDataManagement","label":"numOfUserDataEntries","offset":0,"slot":"8","type":"t_mapping(t_address,t_mapping(t_string_memory_ptr,t_uint256))"},{"astId":67,"contract":"RoamingDataManagement.sol:RoamingDataManagement","label":"bank","offset":0,"slot":"9","type":"t_mapping(t_address,t_uint256)"}],"types":{"t_address":{"encoding":"inplace","label":"address","numberOfBytes":"20"},"t_array(t_address)dyn_storage":{"base":"t_address","encoding":"dynamic_array","label":"address[]","numberOfBytes":"32"},"t_array(t_string_storage)dyn_storage":{"base":"t_string_storage","encoding":"dynamic_array","label":"string[]","numberOfBytes":"32"},"t_array(t_struct(BillingRecord)39_storage)dyn_storage":{"base":"t_struct(BillingRecord)39_storage","encoding":"dynamic_array","label":"struct RoamingDataManagement.BillingRecord[]","numberOfBytes":"32"},"t_mapping(t_address,t_array(t_string_storage)dyn_storage)":{"encoding":"mapping","key":"t_address","label":"mapping(address => string[])","numberOfBytes":"32","value":"t_array(t_string_storage)dyn_storage"},"t_mapping(t_address,t_mapping(t_string_memory_ptr,t_mapping(t_address,t_struct(UserDataSummary)30_storage)))":{"encoding":"mapping","key":"t_address","label":"mapping(address => mapping(string => mapping(address => struct RoamingDataManagement.UserDataSummary)))","numberOfBytes":"32","value":"t_mapping(t_string_memory_ptr,t_mapping(t_address,t_struct(UserDataSummary)30_storage))"},"t_mapping(t_address,t_mapping(t_string_memory_ptr,t_uint256))":{"encoding":"mapping","key":"t_address","label":"mapping(address => mapping(string => uint256))","numberOfBytes":"32","value":"t_mapping(t_string_memory_ptr,t_uint256)"},"t_mapping(t_address,t_string_storage)":{"encoding":"mapping","key":"t_address","label":"mapping(address => string)","numberOfBytes":"32","value":"t_string_storage"},"t_mapping(t_address,t_struct(UserDataSummary)30_storage)":{"encoding":"mapping","key":"t_address","label":"mapping(address => struct RoamingDataManagement.UserDataSummary)","numberOfBytes":"32","value":"t_struct(UserDataSummary)30_storage"},"t_mapping(t_address,t_uint256)":{"encoding":"mapping","key":"t_address","label":"mapping(address => uint256)","numberOfBytes":"32","value":"t_uint256"},"t_mapping(t_string_memory_ptr,t_address)":{"encoding":"mapping","key":"t_string_memory_ptr","label":"mapping(string => address)","numberOfBytes":"32","value":"t_address"},"t_mapping(t_string_memory_ptr,t_mapping(t_address,t_struct(UserDataSummary)30_storage))":{"encoding":"mapping","key":"t_string_memory_ptr","label":"mapping(string => mapping(address => struct RoamingDataManagement.UserDataSummary))","numberOfBytes":"32","value":"t_mapping(t_address,t_struct(UserDataSummary)30_storage)"},"t_mapping(t_string_memory_ptr,t_uint256)":{"encoding":"mapping","key":"t_string_memory_ptr","label":"mapping(string => uint256)","numberOfBytes":"32","value":"t_uint256"},"t_string_memory_ptr":{"encoding":"bytes","label":"string","numberOfBytes":"32"},"t_string_storage":{"encoding":"bytes","label":"string","numberOfBytes":"32"},"t_struct(BillingRecord)39_storage":{"encoding":"inplace","label":"struct RoamingDataManagement.BillingRecord","members":[{"astId":32,"contract":"RoamingDataManagement.sol:RoamingDataManagement","label":"payer","offset":0,"slot":"0","type":"t_address"},{"astId":34,"contract":"RoamingDataManagement.sol:RoamingDataManagement","label":"payee","offset":0,"slot":"1","type":"t_address"},{"astId":36,"contract":"RoamingDataManagement.sol:RoamingDataManagement","label":"amount","offset":0,"slot":"2","type":"t_uint256"},{"astId":38,"contract":"RoamingDataManagement.sol:RoamingDataManagement","label":"timestamp","offset":0,"slot":"3","type":"t_uint256"}],"numberOfBytes":"128"},"t_struct(UserDataSummary)30_storage":{"encoding":"inplace","label":"struct RoamingDataManagement.UserDataSummary","members":[{"astId":19,"contract":"RoamingDataManagement.sol:RoamingDataManagement","label":"imsi","offset":0,"slot":"0","type":"t_string_storage"},{"astId":21,"contract":"RoamingDataManagement.sol:RoamingDataManagement","label":"number","offset":0,"slot":"1","type":"t_string_storage"},{"astId":23,"contract":"RoamingDataManagement.sol:RoamingDataManagement","label":"serviceProvider","offset":0,"slot":"2","type":"t_string_storage"},{"astId":25,"contract":"RoamingDataManagement.sol:RoamingDataManagement","label":"voiceCallUsage","offset":0,"slot":"3","type":"t_uint256"},{"astId":27,"contract":"RoamingDataManagement.sol:RoamingDataManagement","label":"internetUsage","offset":0,"slot":"4","type":"t_uint256"},{"astId":29,"contract":"RoamingDataManagement.sol:RoamingDataManagement","label":"smsUsage","offset":0,"slot":"5","type":"t_uint256"}],"numberOfBytes":"192"},"t_uint256":{"encoding":"inplace","label":"uint256","numberOfBytes":"32"}}},"userdoc":{"kind":"user","methods":{},"version":1}}