{"abi":[{"inputs":[],"stateMutability":"nonpayable","type":"constructor"},{"inputs":[{"internalType":"string","name":"imsi","type":"string"},{"internalType":"string","name":"homeOperator","type":"string"}],"name":"dataSummaryExists","outputs":[{"internalType":"bool","name":"","type":"bool"}],"stateMutability":"view","type":"function"},{"inputs":[{"internalType":"address","name":"","type":"address"},{"internalType":"string","name":"","type":"string"},{"internalType":"address","name":"","type":"address"}],"name":"dataSummaryTable","outputs":[{"internalType":"string","name":"imsi","type":"string"},{"internalType":"string","name":"number","type":"string"},{"internalType":"string","name":"serviceProvider","type":"string"},{"internalType":"uint256","name":"voiceCallUsage","type":"uint256"},{"internalType":"uint256","name":"internetUsage","type":"uint256"},{"internalType":"uint256","name":"smsUsage","type":"uint256"}],"stateMutability":"view","type":"function"},{"inputs":[{"internalType":"string","name":"visitingOperatorName","type":"string"}],"name":"fetchUserDataSummary","outputs":[{"internalType":"string[]","name":"","type":"string[]"},{"components":[{"internalType":"string","name":"imsi","type":"string"},{"internalType":"string","name":"number","type":"string"},{"internalType":"string","name":"serviceProvider","type":"string"},{"internalType":"uint256","name":"voiceCallUsage","type":"uint256"},{"internalType":"uint256","name":"internetUsage","type":"uint256"},{"internalType":"uint256","name":"smsUsage","type":"uint256"}],"internalType":"struct RoamingDataManagement.UserDataSummary[]","name":"","type":"tuple[]"}],"stateMutability":"view","type":"function"},{"inputs":[{"internalType":"uint256","name":"","type":"uint256"}],"name":"operatorAddresses","outputs":[{"internalType":"address","name":"","type":"address"}],"stateMutability":"view","type":"function"},{"inputs":[{"internalType":"address","name":"","type":"address"}],"name":"operatorsAddrToName","outputs":[{"internalType":"string","name":"","type":"string"}],"stateMutability":"view","type":"function"},{"inputs":[{"internalType":"string","name":"","type":"string"}],"name":"operatorsNameToAddr","outputs":[{"internalType":"address","name":"","type":"address"}],"stateMutability":"view","type":"function"},{"inputs":[{"internalType":"address","name":"operatorAddr","type":"address"},{"internalType":"string","name":"operatorName","type":"string"}],"name":"registerRoamingOperator","outputs":[],"stateMutability":"nonpayable","type":"function"},{"inputs":[{"internalType":"uint256","name":"","type":"uint256"}],"name":"serviceProviders","outputs":[{"internalType":"string","name":"","type":"string"}],"stateMutability":"view","type":"function"},{"inputs":[{"internalType":"string","name":"imsi","type":"string"},{"internalType":"string","name":"number","type":"string"},{"internalType":"string","name":"serviceProvider","type":"string"},{"internalType":"uint256","name":"voiceCallUsage","type":"uint256"},{"internalType":"uint256","name":"internetUsage","type":"uint256"},{"internalType":"uint256","name":"smsUsage","type":"uint256"}],"name":"uploadUserDataSummary","outputs":[],"stateMutability":"nonpayable","type":"function"},{"inputs":[{"internalType":"address","name":"","type":"address"},{"internalType":"uint256","name":"","type":"uint256"}],"name":"userTable","outputs":[{"internalType":"string","name":"","type":"string"}],"stateMutability":"view","type":"function"}],"devdoc":{"kind":"dev","methods":{},"version":1},"evm":{"assembly":"    /* \"RoamingDataManagement.sol\":57:4480  contract RoamingDataManagement {... */\n  mstore(0x40, 0x80)\n    /* \"RoamingDataManagement.sol\":1460:1490  constructor() {... */\n  callvalue\n  dup1\n  iszero\n  tag_1\n  jumpi\n  0x00\n  dup1\n  revert\ntag_1:\n  pop\n    /* \"RoamingDataManagement.sol\":57:4480  contract RoamingDataManagement {... */\n  dataSize(sub_0)\n  dup1\n  dataOffset(sub_0)\n  0x00\n  codecopy\n  0x00\n  return\nstop\n\nsub_0: assembly {\n        /* \"RoamingDataManagement.sol\":57:4480  contract RoamingDataManagement {... */\n      mstore(0x40, 0x80)\n      callvalue\n      dup1\n      iszero\n      tag_1\n      jumpi\n      0x00\n      dup1\n      revert\n    tag_1:\n      pop\n      jumpi(tag_2, lt(calldatasize, 0x04))\n      shr(0xe0, calldataload(0x00))\n      dup1\n      0x8f1d613d\n      gt\n      tag_13\n      jumpi\n      dup1\n      0x8f1d613d\n      eq\n      tag_8\n      jumpi\n      dup1\n      0xa8367070\n      eq\n      tag_9\n      jumpi\n      dup1\n      0xab6a9f17\n      eq\n      tag_10\n      jumpi\n      dup1\n      0xc7fa1063\n      eq\n      tag_11\n      jumpi\n      dup1\n      0xfd70c7dd\n      eq\n      tag_12\n      jumpi\n      jump(tag_2)\n    tag_13:\n      dup1\n      0x0a02dcc7\n      eq\n      tag_3\n      jumpi\n      dup1\n      0x32f97763\n      eq\n      tag_4\n      jumpi\n      dup1\n      0x64aa65a8\n      eq\n      tag_5\n      jumpi\n      dup1\n      0x6e6061d1\n      eq\n      tag_6\n      jumpi\n      dup1\n      0x7792a035\n      eq\n      tag_7\n      jumpi\n    tag_2:\n      0x00\n      dup1\n      revert\n        /* \"RoamingDataManagement.sol\":522:554  string[] public serviceProviders */\n    tag_3:\n      tag_14\n      0x04\n      dup1\n      calldatasize\n      sub\n      dup2\n      add\n      swap1\n      tag_15\n      swap2\n      swap1\n      tag_16\n      jump\t// in\n    tag_15:\n      tag_17\n      jump\t// in\n    tag_14:\n      mload(0x40)\n      tag_18\n      swap2\n      swap1\n      tag_19\n      jump\t// in\n    tag_18:\n      mload(0x40)\n      dup1\n      swap2\n      sub\n      swap1\n      return\n        /* \"RoamingDataManagement.sol\":1285:1383  mapping(address => mapping(string => mapping(address => UserDataSummary))) public dataSummaryTable */\n    tag_4:\n      tag_20\n      0x04\n      dup1\n      calldatasize\n      sub\n      dup2\n      add\n      swap1\n      tag_21\n      swap2\n      swap1\n      tag_22\n      jump\t// in\n    tag_21:\n      tag_23\n      jump\t// in\n    tag_20:\n      mload(0x40)\n      tag_24\n      swap7\n      swap6\n      swap5\n      swap4\n      swap3\n      swap2\n      swap1\n      tag_25\n      jump\t// in\n    tag_24:\n      mload(0x40)\n      dup1\n      swap2\n      sub\n      swap1\n      return\n        /* \"RoamingDataManagement.sol\":601:654  mapping(address => string) public operatorsAddrToName */\n    tag_5:\n      tag_26\n      0x04\n      dup1\n      calldatasize\n      sub\n      dup2\n      add\n      swap1\n      tag_27\n      swap2\n      swap1\n      tag_28\n      jump\t// in\n    tag_27:\n      tag_29\n      jump\t// in\n    tag_26:\n      mload(0x40)\n      tag_30\n      swap2\n      swap1\n      tag_19\n      jump\t// in\n    tag_30:\n      mload(0x40)\n      dup1\n      swap2\n      sub\n      swap1\n      return\n        /* \"RoamingDataManagement.sol\":1007:1052  mapping(address => string[]) public userTable */\n    tag_6:\n      tag_31\n      0x04\n      dup1\n      calldatasize\n      sub\n      dup2\n      add\n      swap1\n      tag_32\n      swap2\n      swap1\n      tag_33\n      jump\t// in\n    tag_32:\n      tag_34\n      jump\t// in\n    tag_31:\n      mload(0x40)\n      tag_35\n      swap2\n      swap1\n      tag_19\n      jump\t// in\n    tag_35:\n      mload(0x40)\n      dup1\n      swap2\n      sub\n      swap1\n      return\n        /* \"RoamingDataManagement.sol\":560:594  address[] public operatorAddresses */\n    tag_7:\n      tag_36\n      0x04\n      dup1\n      calldatasize\n      sub\n      dup2\n      add\n      swap1\n      tag_37\n      swap2\n      swap1\n      tag_16\n      jump\t// in\n    tag_37:\n      tag_38\n      jump\t// in\n    tag_36:\n      mload(0x40)\n      tag_39\n      swap2\n      swap1\n      tag_40\n      jump\t// in\n    tag_39:\n      mload(0x40)\n      dup1\n      swap2\n      sub\n      swap1\n      return\n        /* \"RoamingDataManagement.sol\":2103:3507  function uploadUserDataSummary(string memory imsi, string memory number, string memory serviceProvider, ... */\n    tag_8:\n      tag_41\n      0x04\n      dup1\n      calldatasize\n      sub\n      dup2\n      add\n      swap1\n      tag_42\n      swap2\n      swap1\n      tag_43\n      jump\t// in\n    tag_42:\n      tag_44\n      jump\t// in\n    tag_41:\n      stop\n        /* \"RoamingDataManagement.sol\":3840:4478  function fetchUserDataSummary(string memory visitingOperatorName) public view returns(string[] memory, UserDataSummary[] memory) {... */\n    tag_9:\n      tag_45\n      0x04\n      dup1\n      calldatasize\n      sub\n      dup2\n      add\n      swap1\n      tag_46\n      swap2\n      swap1\n      tag_47\n      jump\t// in\n    tag_46:\n      tag_48\n      jump\t// in\n    tag_45:\n      mload(0x40)\n      tag_49\n      swap3\n      swap2\n      swap1\n      tag_50\n      jump\t// in\n    tag_49:\n      mload(0x40)\n      dup1\n      swap2\n      sub\n      swap1\n      return\n        /* \"RoamingDataManagement.sol\":3513:3707  function dataSummaryExists(string memory imsi, string memory homeOperator) public view returns(bool) {... */\n    tag_10:\n      tag_51\n      0x04\n      dup1\n      calldatasize\n      sub\n      dup2\n      add\n      swap1\n      tag_52\n      swap2\n      swap1\n      tag_53\n      jump\t// in\n    tag_52:\n      tag_54\n      jump\t// in\n    tag_51:\n      mload(0x40)\n      tag_55\n      swap2\n      swap1\n      tag_56\n      jump\t// in\n    tag_55:\n      mload(0x40)\n      dup1\n      swap2\n      sub\n      swap1\n      return\n        /* \"RoamingDataManagement.sol\":1496:2097  function registerRoamingOperator(address operatorAddr, string memory operatorName) public {... */\n    tag_11:\n      tag_57\n      0x04\n      dup1\n      calldatasize\n      sub\n      dup2\n      add\n      swap1\n      tag_58\n      swap2\n      swap1\n      tag_59\n      jump\t// in\n    tag_58:\n      tag_60\n      jump\t// in\n    tag_57:\n      stop\n        /* \"RoamingDataManagement.sol\":660:713  mapping(string => address) public operatorsNameToAddr */\n    tag_12:\n      tag_61\n      0x04\n      dup1\n      calldatasize\n      sub\n      dup2\n      add\n      swap1\n      tag_62\n      swap2\n      swap1\n      tag_47\n      jump\t// in\n    tag_62:\n      tag_63\n      jump\t// in\n    tag_61:\n      mload(0x40)\n      tag_64\n      swap2\n      swap1\n      tag_40\n      jump\t// in\n    tag_64:\n      mload(0x40)\n      dup1\n      swap2\n      sub\n      swap1\n      return\n        /* \"RoamingDataManagement.sol\":522:554  string[] public serviceProviders */\n    tag_17:\n      0x00\n      dup2\n      dup2\n      sload\n      dup2\n      lt\n      tag_65\n      jumpi\n      0x00\n      dup1\n      revert\n    tag_65:\n      swap1\n      0x00\n      mstore\n      keccak256(0x00, 0x20)\n      add\n      0x00\n      swap2\n      pop\n      swap1\n      pop\n      dup1\n      sload\n      tag_67\n      swap1\n      tag_68\n      jump\t// in\n    tag_67:\n      dup1\n      0x1f\n      add\n      0x20\n      dup1\n      swap2\n      div\n      mul\n      0x20\n      add\n      mload(0x40)\n      swap1\n      dup2\n      add\n      0x40\n      mstore\n      dup1\n      swap3\n      swap2\n      swap1\n      dup2\n      dup2\n      mstore\n      0x20\n      add\n      dup3\n      dup1\n      sload\n      tag_69\n      swap1\n      tag_68\n      jump\t// in\n    tag_69:\n      dup1\n      iszero\n      tag_70\n      jumpi\n      dup1\n      0x1f\n      lt\n      tag_71\n      jumpi\n      0x0100\n      dup1\n      dup4\n      sload\n      div\n      mul\n      dup4\n      mstore\n      swap2\n      0x20\n      add\n      swap2\n      jump(tag_70)\n    tag_71:\n      dup3\n      add\n      swap2\n      swap1\n      0x00\n      mstore\n      keccak256(0x00, 0x20)\n      swap1\n    tag_72:\n      dup2\n      sload\n      dup2\n      mstore\n      swap1\n      0x01\n      add\n      swap1\n      0x20\n      add\n      dup1\n      dup4\n      gt\n      tag_72\n      jumpi\n      dup3\n      swap1\n      sub\n      0x1f\n      and\n      dup3\n      add\n      swap2\n    tag_70:\n      pop\n      pop\n      pop\n      pop\n      pop\n      dup2\n      jump\t// out\n        /* \"RoamingDataManagement.sol\":1285:1383  mapping(address => mapping(string => mapping(address => UserDataSummary))) public dataSummaryTable */\n    tag_23:\n      mstore(0x20, 0x05)\n      dup3\n      0x00\n      mstore\n      keccak256(0x00, 0x40)\n      dup3\n      dup1\n      mload\n      0x20\n      dup2\n      add\n      dup3\n      add\n      dup1\n      mload\n      dup5\n      dup3\n      mstore\n      0x20\n      dup4\n      add\n      0x20\n      dup6\n      add\n      keccak256\n      dup2\n      dup4\n      mstore\n      dup1\n      swap6\n      pop\n      pop\n      pop\n      pop\n      pop\n      pop\n      0x20\n      mstore\n      dup1\n      0x00\n      mstore\n      keccak256(0x00, 0x40)\n      0x00\n      swap3\n      pop\n      swap3\n      pop\n      pop\n      pop\n      dup1\n      0x00\n      add\n      dup1\n      sload\n      tag_73\n      swap1\n      tag_68\n      jump\t// in\n    tag_73:\n      dup1\n      0x1f\n      add\n      0x20\n      dup1\n      swap2\n      div\n      mul\n      0x20\n      add\n      mload(0x40)\n      swap1\n      dup2\n      add\n      0x40\n      mstore\n      dup1\n      swap3\n      swap2\n      swap1\n      dup2\n      dup2\n      mstore\n      0x20\n      add\n      dup3\n      dup1\n      sload\n      tag_74\n      swap1\n      tag_68\n      jump\t// in\n    tag_74:\n      dup1\n      iszero\n      tag_75\n      jumpi\n      dup1\n      0x1f\n      lt\n      tag_76\n      jumpi\n      0x0100\n      dup1\n      dup4\n      sload\n      div\n      mul\n      dup4\n      mstore\n      swap2\n      0x20\n      add\n      swap2\n      jump(tag_75)\n    tag_76:\n      dup3\n      add\n      swap2\n      swap1\n      0x00\n      mstore\n      keccak256(0x00, 0x20)\n      swap1\n    tag_77:\n      dup2\n      sload\n      dup2\n      mstore\n      swap1\n      0x01\n      add\n      swap1\n      0x20\n      add\n      dup1\n      dup4\n      gt\n      tag_77\n      jumpi\n      dup3\n      swap1\n      sub\n      0x1f\n      and\n      dup3\n      add\n      swap2\n    tag_75:\n      pop\n      pop\n      pop\n      pop\n      pop\n      swap1\n      dup1\n      0x01\n      add\n      dup1\n      sload\n      tag_78\n      swap1\n      tag_68\n      jump\t// in\n    tag_78:\n      dup1\n      0x1f\n      add\n      0x20\n      dup1\n      swap2\n      div\n      mul\n      0x20\n      add\n      mload(0x40)\n      swap1\n      dup2\n      add\n      0x40\n      mstore\n      dup1\n      swap3\n      swap2\n      swap1\n      dup2\n      dup2\n      mstore\n      0x20\n      add\n      dup3\n      dup1\n      sload\n      tag_79\n      swap1\n      tag_68\n      jump\t// in\n    tag_79:\n      dup1\n      iszero\n      tag_80\n      jumpi\n      dup1\n      0x1f\n      lt\n      tag_81\n      jumpi\n      0x0100\n      dup1\n      dup4\n      sload\n      div\n      mul\n      dup4\n      mstore\n      swap2\n      0x20\n      add\n      swap2\n      jump(tag_80)\n    tag_81:\n      dup3\n      add\n      swap2\n      swap1\n      0x00\n      mstore\n      keccak256(0x00, 0x20)\n      swap1\n    tag_82:\n      dup2\n      sload\n      dup2\n      mstore\n      swap1\n      0x01\n      add\n      swap1\n      0x20\n      add\n      dup1\n      dup4\n      gt\n      tag_82\n      jumpi\n      dup3\n      swap1\n      sub\n      0x1f\n      and\n      dup3\n      add\n      swap2\n    tag_80:\n      pop\n      pop\n      pop\n      pop\n      pop\n      swap1\n      dup1\n      0x02\n      add\n      dup1\n      sload\n      tag_83\n      swap1\n      tag_68\n      jump\t// in\n    tag_83:\n      dup1\n      0x1f\n      add\n      0x20\n      dup1\n      swap2\n      div\n      mul\n      0x20\n      add\n      mload(0x40)\n      swap1\n      dup2\n      add\n      0x40\n      mstore\n      dup1\n      swap3\n      swap2\n      swap1\n      dup2\n      dup2\n      mstore\n      0x20\n      add\n      dup3\n      dup1\n      sload\n      tag_84\n      swap1\n      tag_68\n      jump\t// in\n    tag_84:\n      dup1\n      iszero\n      tag_85\n      jumpi\n      dup1\n      0x1f\n      lt\n      tag_86\n      jumpi\n      0x0100\n      dup1\n      dup4\n      sload\n      div\n      mul\n      dup4\n      mstore\n      swap2\n      0x20\n      add\n      swap2\n      jump(tag_85)\n    tag_86:\n      dup3\n      add\n      swap2\n      swap1\n      0x00\n      mstore\n      keccak256(0x00, 0x20)\n      swap1\n    tag_87:\n      dup2\n      sload\n      dup2\n      mstore\n      swap1\n      0x01\n      add\n      swap1\n      0x20\n      add\n      dup1\n      dup4\n      gt\n      tag_87\n      jumpi\n      dup3\n      swap1\n      sub\n      0x1f\n      and\n      dup3\n      add\n      swap2\n    tag_85:\n      pop\n      pop\n      pop\n      pop\n      pop\n      swap1\n      dup1\n      0x03\n      add\n      sload\n      swap1\n      dup1\n      0x04\n      add\n      sload\n      swap1\n      dup1\n      0x05\n      add\n      sload\n      swap1\n      pop\n      dup7\n      jump\t// out\n        /* \"RoamingDataManagement.sol\":601:654  mapping(address => string) public operatorsAddrToName */\n    tag_29:\n      mstore(0x20, 0x02)\n      dup1\n      0x00\n      mstore\n      keccak256(0x00, 0x40)\n      0x00\n      swap2\n      pop\n      swap1\n      pop\n      dup1\n      sload\n      tag_88\n      swap1\n      tag_68\n      jump\t// in\n    tag_88:\n      dup1\n      0x1f\n      add\n      0x20\n      dup1\n      swap2\n      div\n      mul\n      0x20\n      add\n      mload(0x40)\n      swap1\n      dup2\n      add\n      0x40\n      mstore\n      dup1\n      swap3\n      swap2\n      swap1\n      dup2\n      dup2\n      mstore\n      0x20\n      add\n      dup3\n      dup1\n      sload\n      tag_89\n      swap1\n      tag_68\n      jump\t// in\n    tag_89:\n      dup1\n      iszero\n      tag_90\n      jumpi\n      dup1\n      0x1f\n      lt\n      tag_91\n      jumpi\n      0x0100\n      dup1\n      dup4\n      sload\n      div\n      mul\n      dup4\n      mstore\n      swap2\n      0x20\n      add\n      swap2\n      jump(tag_90)\n    tag_91:\n      dup3\n      add\n      swap2\n      swap1\n      0x00\n      mstore\n      keccak256(0x00, 0x20)\n      swap1\n    tag_92:\n      dup2\n      sload\n      dup2\n      mstore\n      swap1\n      0x01\n      add\n      swap1\n      0x20\n      add\n      dup1\n      dup4\n      gt\n      tag_92\n      jumpi\n      dup3\n      swap1\n      sub\n      0x1f\n      and\n      dup3\n      add\n      swap2\n    tag_90:\n      pop\n      pop\n      pop\n      pop\n      pop\n      dup2\n      jump\t// out\n        /* \"RoamingDataManagement.sol\":1007:1052  mapping(address => string[]) public userTable */\n    tag_34:\n      mstore(0x20, 0x04)\n      dup2\n      0x00\n      mstore\n      keccak256(0x00, 0x40)\n      dup2\n      dup2\n      sload\n      dup2\n      lt\n      tag_93\n      jumpi\n      0x00\n      dup1\n      revert\n    tag_93:\n      swap1\n      0x00\n      mstore\n      keccak256(0x00, 0x20)\n      add\n      0x00\n      swap2\n      pop\n      swap2\n      pop\n      pop\n      dup1\n      sload\n      tag_95\n      swap1\n      tag_68\n      jump\t// in\n    tag_95:\n      dup1\n      0x1f\n      add\n      0x20\n      dup1\n      swap2\n      div\n      mul\n      0x20\n      add\n      mload(0x40)\n      swap1\n      dup2\n      add\n      0x40\n      mstore\n      dup1\n      swap3\n      swap2\n      swap1\n      dup2\n      dup2\n      mstore\n      0x20\n      add\n      dup3\n      dup1\n      sload\n      tag_96\n      swap1\n      tag_68\n      jump\t// in\n    tag_96:\n      dup1\n      iszero\n      tag_97\n      jumpi\n      dup1\n      0x1f\n      lt\n      tag_98\n      jumpi\n      0x0100\n      dup1\n      dup4\n      sload\n      div\n      mul\n      dup4\n      mstore\n      swap2\n      0x20\n      add\n      swap2\n      jump(tag_97)\n    tag_98:\n      dup3\n      add\n      swap2\n      swap1\n      0x00\n      mstore\n      keccak256(0x00, 0x20)\n      swap1\n    tag_99:\n      dup2\n      sload\n      dup2\n      mstore\n      swap1\n      0x01\n      add\n      swap1\n      0x20\n      add\n      dup1\n      dup4\n      gt\n      tag_99\n      jumpi\n      dup3\n      swap1\n      sub\n      0x1f\n      and\n      dup3\n      add\n      swap2\n    tag_97:\n      pop\n      pop\n      pop\n      pop\n      pop\n      dup2\n      jump\t// out\n        /* \"RoamingDataManagement.sol\":560:594  address[] public operatorAddresses */\n    tag_38:\n      0x01\n      dup2\n      dup2\n      sload\n      dup2\n      lt\n      tag_100\n      jumpi\n      0x00\n      dup1\n      revert\n    tag_100:\n      swap1\n      0x00\n      mstore\n      keccak256(0x00, 0x20)\n      add\n      0x00\n      swap2\n      pop\n      sload\n      swap1\n      0x0100\n      exp\n      swap1\n      div\n      0xffffffffffffffffffffffffffffffffffffffff\n      and\n      dup2\n      jump\t// out\n        /* \"RoamingDataManagement.sol\":2103:3507  function uploadUserDataSummary(string memory imsi, string memory number, string memory serviceProvider, ... */\n    tag_44:\n        /* \"RoamingDataManagement.sol\":2295:2319  address visitingOperator */\n      0x00\n        /* \"RoamingDataManagement.sol\":2322:2332  msg.sender */\n      caller\n        /* \"RoamingDataManagement.sol\":2295:2332  address visitingOperator = msg.sender */\n      swap1\n      pop\n        /* \"RoamingDataManagement.sol\":2405:2406  0 */\n      0x00\n        /* \"RoamingDataManagement.sol\":2356:2375  operatorsAddrToName */\n      0x02\n        /* \"RoamingDataManagement.sol\":2356:2393  operatorsAddrToName[visitingOperator] */\n      0x00\n        /* \"RoamingDataManagement.sol\":2376:2392  visitingOperator */\n      dup4\n        /* \"RoamingDataManagement.sol\":2356:2393  operatorsAddrToName[visitingOperator] */\n      0xffffffffffffffffffffffffffffffffffffffff\n      and\n      0xffffffffffffffffffffffffffffffffffffffff\n      and\n      dup2\n      mstore\n      0x20\n      add\n      swap1\n      dup2\n      mstore\n      0x20\n      add\n      0x00\n      keccak256\n        /* \"RoamingDataManagement.sol\":2350:2401  bytes(operatorsAddrToName[visitingOperator]).length */\n      dup1\n      sload\n      tag_103\n      swap1\n      tag_68\n      jump\t// in\n    tag_103:\n      swap1\n      pop\n        /* \"RoamingDataManagement.sol\":2350:2406  bytes(operatorsAddrToName[visitingOperator]).length != 0 */\n      sub\n        /* \"RoamingDataManagement.sol\":2342:2407  require(bytes(operatorsAddrToName[visitingOperator]).length != 0) */\n      tag_104\n      jumpi\n      0x00\n      dup1\n      revert\n    tag_104:\n        /* \"RoamingDataManagement.sol\":2473:2476  0x0 */\n      0x00\n        /* \"RoamingDataManagement.sol\":2425:2477  operatorsNameToAddr[serviceProvider] != address(0x0) */\n      0xffffffffffffffffffffffffffffffffffffffff\n      and\n        /* \"RoamingDataManagement.sol\":2425:2444  operatorsNameToAddr */\n      0x03\n        /* \"RoamingDataManagement.sol\":2445:2460  serviceProvider */\n      dup7\n        /* \"RoamingDataManagement.sol\":2425:2461  operatorsNameToAddr[serviceProvider] */\n      mload(0x40)\n      tag_105\n      swap2\n      swap1\n      tag_106\n      jump\t// in\n    tag_105:\n      swap1\n      dup2\n      mstore\n      0x20\n      add\n      mload(0x40)\n      dup1\n      swap2\n      sub\n      swap1\n      keccak256\n      0x00\n      swap1\n      sload\n      swap1\n      0x0100\n      exp\n      swap1\n      div\n      0xffffffffffffffffffffffffffffffffffffffff\n      and\n        /* \"RoamingDataManagement.sol\":2425:2477  operatorsNameToAddr[serviceProvider] != address(0x0) */\n      0xffffffffffffffffffffffffffffffffffffffff\n      and\n      sub\n        /* \"RoamingDataManagement.sol\":2417:2478  require(operatorsNameToAddr[serviceProvider] != address(0x0)) */\n      tag_107\n      jumpi\n      0x00\n      dup1\n      revert\n    tag_107:\n        /* \"RoamingDataManagement.sol\":2489:2570  mapping(string => mapping(address => UserDataSummary)) storage userToSummaryTable */\n      0x00\n        /* \"RoamingDataManagement.sol\":2573:2589  dataSummaryTable */\n      0x05\n        /* \"RoamingDataManagement.sol\":2573:2627  dataSummaryTable[operatorsNameToAddr[serviceProvider]] */\n      0x00\n        /* \"RoamingDataManagement.sol\":2590:2609  operatorsNameToAddr */\n      0x03\n        /* \"RoamingDataManagement.sol\":2610:2625  serviceProvider */\n      dup9\n        /* \"RoamingDataManagement.sol\":2590:2626  operatorsNameToAddr[serviceProvider] */\n      mload(0x40)\n      tag_108\n      swap2\n      swap1\n      tag_106\n      jump\t// in\n    tag_108:\n      swap1\n      dup2\n      mstore\n      0x20\n      add\n      mload(0x40)\n      dup1\n      swap2\n      sub\n      swap1\n      keccak256\n      0x00\n      swap1\n      sload\n      swap1\n      0x0100\n      exp\n      swap1\n      div\n      0xffffffffffffffffffffffffffffffffffffffff\n      and\n        /* \"RoamingDataManagement.sol\":2573:2627  dataSummaryTable[operatorsNameToAddr[serviceProvider]] */\n      0xffffffffffffffffffffffffffffffffffffffff\n      and\n      0xffffffffffffffffffffffffffffffffffffffff\n      and\n      dup2\n      mstore\n      0x20\n      add\n      swap1\n      dup2\n      mstore\n      0x20\n      add\n      0x00\n      keccak256\n        /* \"RoamingDataManagement.sol\":2489:2627  mapping(string => mapping(address => UserDataSummary)) storage userToSummaryTable = dataSummaryTable[operatorsNameToAddr[serviceProvider]] */\n      swap1\n      pop\n        /* \"RoamingDataManagement.sol\":2642:2682  dataSummaryExists(imsi, serviceProvider) */\n      tag_109\n        /* \"RoamingDataManagement.sol\":2660:2664  imsi */\n      dup9\n        /* \"RoamingDataManagement.sol\":2666:2681  serviceProvider */\n      dup8\n        /* \"RoamingDataManagement.sol\":2642:2659  dataSummaryExists */\n      tag_54\n        /* \"RoamingDataManagement.sol\":2642:2682  dataSummaryExists(imsi, serviceProvider) */\n      jump\t// in\n    tag_109:\n        /* \"RoamingDataManagement.sol\":2637:2847  if (!dataSummaryExists(imsi, serviceProvider)) {... */\n      tag_110\n      jumpi\n        /* \"RoamingDataManagement.sol\":2698:2707  userTable */\n      0x04\n        /* \"RoamingDataManagement.sol\":2698:2745  userTable[operatorsNameToAddr[serviceProvider]] */\n      0x00\n        /* \"RoamingDataManagement.sol\":2708:2727  operatorsNameToAddr */\n      0x03\n        /* \"RoamingDataManagement.sol\":2728:2743  serviceProvider */\n      dup9\n        /* \"RoamingDataManagement.sol\":2708:2744  operatorsNameToAddr[serviceProvider] */\n      mload(0x40)\n      tag_111\n      swap2\n      swap1\n      tag_106\n      jump\t// in\n    tag_111:\n      swap1\n      dup2\n      mstore\n      0x20\n      add\n      mload(0x40)\n      dup1\n      swap2\n      sub\n      swap1\n      keccak256\n      0x00\n      swap1\n      sload\n      swap1\n      0x0100\n      exp\n      swap1\n      div\n      0xffffffffffffffffffffffffffffffffffffffff\n      and\n        /* \"RoamingDataManagement.sol\":2698:2745  userTable[operatorsNameToAddr[serviceProvider]] */\n      0xffffffffffffffffffffffffffffffffffffffff\n      and\n      0xffffffffffffffffffffffffffffffffffffffff\n      and\n      dup2\n      mstore\n      0x20\n      add\n      swap1\n      dup2\n      mstore\n      0x20\n      add\n      0x00\n      keccak256\n        /* \"RoamingDataManagement.sol\":2751:2755  imsi */\n      dup9\n        /* \"RoamingDataManagement.sol\":2698:2756  userTable[operatorsNameToAddr[serviceProvider]].push(imsi) */\n      swap1\n      dup1\n      0x01\n      dup2\n      sload\n      add\n      dup1\n      dup3\n      sstore\n      dup1\n      swap2\n      pop\n      pop\n      0x01\n      swap1\n      sub\n      swap1\n      0x00\n      mstore\n      keccak256(0x00, 0x20)\n      add\n      0x00\n      swap1\n      swap2\n      swap1\n      swap2\n      swap1\n      swap2\n      pop\n      swap1\n      dup2\n      tag_113\n      swap2\n      swap1\n      tag_114\n      jump\t// in\n    tag_113:\n      pop\n        /* \"RoamingDataManagement.sol\":2770:2790  numOfUserDataEntries */\n      0x06\n        /* \"RoamingDataManagement.sol\":2770:2828  numOfUserDataEntries[operatorsNameToAddr[serviceProvider]] */\n      0x00\n        /* \"RoamingDataManagement.sol\":2791:2810  operatorsNameToAddr */\n      0x03\n        /* \"RoamingDataManagement.sol\":2811:2826  serviceProvider */\n      dup9\n        /* \"RoamingDataManagement.sol\":2791:2827  operatorsNameToAddr[serviceProvider] */\n      mload(0x40)\n      tag_115\n      swap2\n      swap1\n      tag_106\n      jump\t// in\n    tag_115:\n      swap1\n      dup2\n      mstore\n      0x20\n      add\n      mload(0x40)\n      dup1\n      swap2\n      sub\n      swap1\n      keccak256\n      0x00\n      swap1\n      sload\n      swap1\n      0x0100\n      exp\n      swap1\n      div\n      0xffffffffffffffffffffffffffffffffffffffff\n      and\n        /* \"RoamingDataManagement.sol\":2770:2828  numOfUserDataEntries[operatorsNameToAddr[serviceProvider]] */\n      0xffffffffffffffffffffffffffffffffffffffff\n      and\n      0xffffffffffffffffffffffffffffffffffffffff\n      and\n      dup2\n      mstore\n      0x20\n      add\n      swap1\n      dup2\n      mstore\n      0x20\n      add\n      0x00\n      keccak256\n        /* \"RoamingDataManagement.sol\":2829:2833  imsi */\n      dup9\n        /* \"RoamingDataManagement.sol\":2770:2834  numOfUserDataEntries[operatorsNameToAddr[serviceProvider]][imsi] */\n      mload(0x40)\n      tag_116\n      swap2\n      swap1\n      tag_106\n      jump\t// in\n    tag_116:\n      swap1\n      dup2\n      mstore\n      0x20\n      add\n      mload(0x40)\n      dup1\n      swap2\n      sub\n      swap1\n      keccak256\n      0x00\n        /* \"RoamingDataManagement.sol\":2770:2836  numOfUserDataEntries[operatorsNameToAddr[serviceProvider]][imsi]++ */\n      dup2\n      sload\n      dup1\n      swap3\n      swap2\n      swap1\n      tag_117\n      swap1\n      tag_118\n      jump\t// in\n    tag_117:\n      swap2\n      swap1\n      pop\n      sstore\n      pop\n        /* \"RoamingDataManagement.sol\":2637:2847  if (!dataSummaryExists(imsi, serviceProvider)) {... */\n    tag_110:\n        /* \"RoamingDataManagement.sol\":2865:2945  mapping(address => UserDataSummary) storage usageSummaryTablePerVisitingOperator */\n      0x00\n        /* \"RoamingDataManagement.sol\":2948:2966  userToSummaryTable */\n      dup2\n        /* \"RoamingDataManagement.sol\":2967:2971  imsi */\n      dup10\n        /* \"RoamingDataManagement.sol\":2948:2972  userToSummaryTable[imsi] */\n      mload(0x40)\n      tag_119\n      swap2\n      swap1\n      tag_106\n      jump\t// in\n    tag_119:\n      swap1\n      dup2\n      mstore\n      0x20\n      add\n      mload(0x40)\n      dup1\n      swap2\n      sub\n      swap1\n      keccak256\n        /* \"RoamingDataManagement.sol\":2865:2972  mapping(address => UserDataSummary) storage usageSummaryTablePerVisitingOperator = userToSummaryTable[imsi] */\n      swap1\n      pop\n        /* \"RoamingDataManagement.sol\":3044:3048  imsi */\n      dup9\n        /* \"RoamingDataManagement.sol\":2982:3018  usageSummaryTablePerVisitingOperator */\n      dup2\n        /* \"RoamingDataManagement.sol\":2982:3036  usageSummaryTablePerVisitingOperator[visitingOperator] */\n      0x00\n        /* \"RoamingDataManagement.sol\":3019:3035  visitingOperator */\n      dup6\n        /* \"RoamingDataManagement.sol\":2982:3036  usageSummaryTablePerVisitingOperator[visitingOperator] */\n      0xffffffffffffffffffffffffffffffffffffffff\n      and\n      0xffffffffffffffffffffffffffffffffffffffff\n      and\n      dup2\n      mstore\n      0x20\n      add\n      swap1\n      dup2\n      mstore\n      0x20\n      add\n      0x00\n      keccak256\n        /* \"RoamingDataManagement.sol\":2982:3041  usageSummaryTablePerVisitingOperator[visitingOperator].imsi */\n      0x00\n      add\n        /* \"RoamingDataManagement.sol\":2982:3048  usageSummaryTablePerVisitingOperator[visitingOperator].imsi = imsi */\n      swap1\n      dup2\n      tag_120\n      swap2\n      swap1\n      tag_114\n      jump\t// in\n    tag_120:\n      pop\n        /* \"RoamingDataManagement.sol\":3122:3128  number */\n      dup8\n        /* \"RoamingDataManagement.sol\":3058:3094  usageSummaryTablePerVisitingOperator */\n      dup2\n        /* \"RoamingDataManagement.sol\":3058:3112  usageSummaryTablePerVisitingOperator[visitingOperator] */\n      0x00\n        /* \"RoamingDataManagement.sol\":3095:3111  visitingOperator */\n      dup6\n        /* \"RoamingDataManagement.sol\":3058:3112  usageSummaryTablePerVisitingOperator[visitingOperator] */\n      0xffffffffffffffffffffffffffffffffffffffff\n      and\n      0xffffffffffffffffffffffffffffffffffffffff\n      and\n      dup2\n      mstore\n      0x20\n      add\n      swap1\n      dup2\n      mstore\n      0x20\n      add\n      0x00\n      keccak256\n        /* \"RoamingDataManagement.sol\":3058:3119  usageSummaryTablePerVisitingOperator[visitingOperator].number */\n      0x01\n      add\n        /* \"RoamingDataManagement.sol\":3058:3128  usageSummaryTablePerVisitingOperator[visitingOperator].number = number */\n      swap1\n      dup2\n      tag_121\n      swap2\n      swap1\n      tag_114\n      jump\t// in\n    tag_121:\n      pop\n        /* \"RoamingDataManagement.sol\":3211:3226  serviceProvider */\n      dup7\n        /* \"RoamingDataManagement.sol\":3138:3174  usageSummaryTablePerVisitingOperator */\n      dup2\n        /* \"RoamingDataManagement.sol\":3138:3192  usageSummaryTablePerVisitingOperator[visitingOperator] */\n      0x00\n        /* \"RoamingDataManagement.sol\":3175:3191  visitingOperator */\n      dup6\n        /* \"RoamingDataManagement.sol\":3138:3192  usageSummaryTablePerVisitingOperator[visitingOperator] */\n      0xffffffffffffffffffffffffffffffffffffffff\n      and\n      0xffffffffffffffffffffffffffffffffffffffff\n      and\n      dup2\n      mstore\n      0x20\n      add\n      swap1\n      dup2\n      mstore\n      0x20\n      add\n      0x00\n      keccak256\n        /* \"RoamingDataManagement.sol\":3138:3208  usageSummaryTablePerVisitingOperator[visitingOperator].serviceProvider */\n      0x02\n      add\n        /* \"RoamingDataManagement.sol\":3138:3226  usageSummaryTablePerVisitingOperator[visitingOperator].serviceProvider = serviceProvider */\n      swap1\n      dup2\n      tag_122\n      swap2\n      swap1\n      tag_114\n      jump\t// in\n    tag_122:\n      pop\n        /* \"RoamingDataManagement.sol\":3308:3322  voiceCallUsage */\n      dup6\n        /* \"RoamingDataManagement.sol\":3236:3272  usageSummaryTablePerVisitingOperator */\n      dup2\n        /* \"RoamingDataManagement.sol\":3236:3290  usageSummaryTablePerVisitingOperator[visitingOperator] */\n      0x00\n        /* \"RoamingDataManagement.sol\":3273:3289  visitingOperator */\n      dup6\n        /* \"RoamingDataManagement.sol\":3236:3290  usageSummaryTablePerVisitingOperator[visitingOperator] */\n      0xffffffffffffffffffffffffffffffffffffffff\n      and\n      0xffffffffffffffffffffffffffffffffffffffff\n      and\n      dup2\n      mstore\n      0x20\n      add\n      swap1\n      dup2\n      mstore\n      0x20\n      add\n      0x00\n      keccak256\n        /* \"RoamingDataManagement.sol\":3236:3305  usageSummaryTablePerVisitingOperator[visitingOperator].voiceCallUsage */\n      0x03\n      add\n        /* \"RoamingDataManagement.sol\":3236:3322  usageSummaryTablePerVisitingOperator[visitingOperator].voiceCallUsage = voiceCallUsage */\n      dup2\n      swap1\n      sstore\n      pop\n        /* \"RoamingDataManagement.sol\":3403:3416  internetUsage */\n      dup5\n        /* \"RoamingDataManagement.sol\":3332:3368  usageSummaryTablePerVisitingOperator */\n      dup2\n        /* \"RoamingDataManagement.sol\":3332:3386  usageSummaryTablePerVisitingOperator[visitingOperator] */\n      0x00\n        /* \"RoamingDataManagement.sol\":3369:3385  visitingOperator */\n      dup6\n        /* \"RoamingDataManagement.sol\":3332:3386  usageSummaryTablePerVisitingOperator[visitingOperator] */\n      0xffffffffffffffffffffffffffffffffffffffff\n      and\n      0xffffffffffffffffffffffffffffffffffffffff\n      and\n      dup2\n      mstore\n      0x20\n      add\n      swap1\n      dup2\n      mstore\n      0x20\n      add\n      0x00\n      keccak256\n        /* \"RoamingDataManagement.sol\":3332:3400  usageSummaryTablePerVisitingOperator[visitingOperator].internetUsage */\n      0x04\n      add\n        /* \"RoamingDataManagement.sol\":3332:3416  usageSummaryTablePerVisitingOperator[visitingOperator].internetUsage = internetUsage */\n      dup2\n      swap1\n      sstore\n      pop\n        /* \"RoamingDataManagement.sol\":3492:3500  smsUsage */\n      dup4\n        /* \"RoamingDataManagement.sol\":3426:3462  usageSummaryTablePerVisitingOperator */\n      dup2\n        /* \"RoamingDataManagement.sol\":3426:3480  usageSummaryTablePerVisitingOperator[visitingOperator] */\n      0x00\n        /* \"RoamingDataManagement.sol\":3463:3479  visitingOperator */\n      dup6\n        /* \"RoamingDataManagement.sol\":3426:3480  usageSummaryTablePerVisitingOperator[visitingOperator] */\n      0xffffffffffffffffffffffffffffffffffffffff\n      and\n      0xffffffffffffffffffffffffffffffffffffffff\n      and\n      dup2\n      mstore\n      0x20\n      add\n      swap1\n      dup2\n      mstore\n      0x20\n      add\n      0x00\n      keccak256\n        /* \"RoamingDataManagement.sol\":3426:3489  usageSummaryTablePerVisitingOperator[visitingOperator].smsUsage */\n      0x05\n      add\n        /* \"RoamingDataManagement.sol\":3426:3500  usageSummaryTablePerVisitingOperator[visitingOperator].smsUsage = smsUsage */\n      dup2\n      swap1\n      sstore\n      pop\n        /* \"RoamingDataManagement.sol\":2284:3507  {... */\n      pop\n      pop\n      pop\n        /* \"RoamingDataManagement.sol\":2103:3507  function uploadUserDataSummary(string memory imsi, string memory number, string memory serviceProvider, ... */\n      pop\n      pop\n      pop\n      pop\n      pop\n      pop\n      jump\t// out\n        /* \"RoamingDataManagement.sol\":3840:4478  function fetchUserDataSummary(string memory visitingOperatorName) public view returns(string[] memory, UserDataSummary[] memory) {... */\n    tag_48:\n        /* \"RoamingDataManagement.sol\":3926:3941  string[] memory */\n      0x60\n        /* \"RoamingDataManagement.sol\":3943:3967  UserDataSummary[] memory */\n      dup1\n        /* \"RoamingDataManagement.sol\":3979:4003  address homeOperatorAddr */\n      0x00\n        /* \"RoamingDataManagement.sol\":4006:4016  msg.sender */\n      caller\n        /* \"RoamingDataManagement.sol\":3979:4016  address homeOperatorAddr = msg.sender */\n      swap1\n      pop\n        /* \"RoamingDataManagement.sol\":4026:4048  string[] storage users */\n      0x00\n        /* \"RoamingDataManagement.sol\":4051:4060  userTable */\n      0x04\n        /* \"RoamingDataManagement.sol\":4051:4078  userTable[homeOperatorAddr] */\n      0x00\n        /* \"RoamingDataManagement.sol\":4061:4077  homeOperatorAddr */\n      dup4\n        /* \"RoamingDataManagement.sol\":4051:4078  userTable[homeOperatorAddr] */\n      0xffffffffffffffffffffffffffffffffffffffff\n      and\n      0xffffffffffffffffffffffffffffffffffffffff\n      and\n      dup2\n      mstore\n      0x20\n      add\n      swap1\n      dup2\n      mstore\n      0x20\n      add\n      0x00\n      keccak256\n        /* \"RoamingDataManagement.sol\":4026:4078  string[] storage users = userTable[homeOperatorAddr] */\n      swap1\n      pop\n        /* \"RoamingDataManagement.sol\":4089:4128  UserDataSummary[] memory dataSummarries */\n      0x00\n        /* \"RoamingDataManagement.sol\":4153:4162  userTable */\n      0x04\n        /* \"RoamingDataManagement.sol\":4153:4180  userTable[homeOperatorAddr] */\n      0x00\n        /* \"RoamingDataManagement.sol\":4163:4179  homeOperatorAddr */\n      dup5\n        /* \"RoamingDataManagement.sol\":4153:4180  userTable[homeOperatorAddr] */\n      0xffffffffffffffffffffffffffffffffffffffff\n      and\n      0xffffffffffffffffffffffffffffffffffffffff\n      and\n      dup2\n      mstore\n      0x20\n      add\n      swap1\n      dup2\n      mstore\n      0x20\n      add\n      0x00\n      keccak256\n        /* \"RoamingDataManagement.sol\":4153:4187  userTable[homeOperatorAddr].length */\n      dup1\n      sload\n      swap1\n      pop\n        /* \"RoamingDataManagement.sol\":4131:4188  new UserDataSummary[](userTable[homeOperatorAddr].length) */\n      0xffffffffffffffff\n      dup2\n      gt\n      iszero\n      tag_124\n      jumpi\n      tag_125\n      tag_126\n      jump\t// in\n    tag_125:\n    tag_124:\n      mload(0x40)\n      swap1\n      dup1\n      dup3\n      mstore\n      dup1\n      0x20\n      mul\n      0x20\n      add\n      dup3\n      add\n      0x40\n      mstore\n      dup1\n      iszero\n      tag_127\n      jumpi\n      dup2\n      0x20\n      add\n    tag_128:\n      tag_129\n      tag_130\n      jump\t// in\n    tag_129:\n      dup2\n      mstore\n      0x20\n      add\n      swap1\n      0x01\n      swap1\n      sub\n      swap1\n      dup2\n      tag_128\n      jumpi\n      swap1\n      pop\n    tag_127:\n      pop\n        /* \"RoamingDataManagement.sol\":4089:4188  UserDataSummary[] memory dataSummarries = new UserDataSummary[](userTable[homeOperatorAddr].length) */\n      swap1\n      pop\n        /* \"RoamingDataManagement.sol\":4203:4209  uint i */\n      0x00\n        /* \"RoamingDataManagement.sol\":4198:4409  for (uint i = 0; i < users.length; ++i) {... */\n    tag_131:\n        /* \"RoamingDataManagement.sol\":4219:4224  users */\n      dup3\n        /* \"RoamingDataManagement.sol\":4219:4231  users.length */\n      dup1\n      sload\n      swap1\n      pop\n        /* \"RoamingDataManagement.sol\":4215:4216  i */\n      dup2\n        /* \"RoamingDataManagement.sol\":4215:4231  i < users.length */\n      lt\n        /* \"RoamingDataManagement.sol\":4198:4409  for (uint i = 0; i < users.length; ++i) {... */\n      iszero\n      tag_132\n      jumpi\n        /* \"RoamingDataManagement.sol\":4252:4270  string memory imsi */\n      0x00\n        /* \"RoamingDataManagement.sol\":4273:4278  users */\n      dup4\n        /* \"RoamingDataManagement.sol\":4279:4280  i */\n      dup3\n        /* \"RoamingDataManagement.sol\":4273:4281  users[i] */\n      dup2\n      sload\n      dup2\n      lt\n      tag_134\n      jumpi\n      tag_135\n      tag_136\n      jump\t// in\n    tag_135:\n    tag_134:\n      swap1\n      0x00\n      mstore\n      keccak256(0x00, 0x20)\n      add\n        /* \"RoamingDataManagement.sol\":4252:4281  string memory imsi = users[i] */\n      dup1\n      sload\n      tag_138\n      swap1\n      tag_68\n      jump\t// in\n    tag_138:\n      dup1\n      0x1f\n      add\n      0x20\n      dup1\n      swap2\n      div\n      mul\n      0x20\n      add\n      mload(0x40)\n      swap1\n      dup2\n      add\n      0x40\n      mstore\n      dup1\n      swap3\n      swap2\n      swap1\n      dup2\n      dup2\n      mstore\n      0x20\n      add\n      dup3\n      dup1\n      sload\n      tag_139\n      swap1\n      tag_68\n      jump\t// in\n    tag_139:\n      dup1\n      iszero\n      tag_140\n      jumpi\n      dup1\n      0x1f\n      lt\n      tag_141\n      jumpi\n      0x0100\n      dup1\n      dup4\n      sload\n      div\n      mul\n      dup4\n      mstore\n      swap2\n      0x20\n      add\n      swap2\n      jump(tag_140)\n    tag_141:\n      dup3\n      add\n      swap2\n      swap1\n      0x00\n      mstore\n      keccak256(0x00, 0x20)\n      swap1\n    tag_142:\n      dup2\n      sload\n      dup2\n      mstore\n      swap1\n      0x01\n      add\n      swap1\n      0x20\n      add\n      dup1\n      dup4\n      gt\n      tag_142\n      jumpi\n      dup3\n      swap1\n      sub\n      0x1f\n      and\n      dup3\n      add\n      swap2\n    tag_140:\n      pop\n      pop\n      pop\n      pop\n      pop\n      swap1\n      pop\n        /* \"RoamingDataManagement.sol\":4315:4331  dataSummaryTable */\n      0x05\n        /* \"RoamingDataManagement.sol\":4315:4349  dataSummaryTable[homeOperatorAddr] */\n      0x00\n        /* \"RoamingDataManagement.sol\":4332:4348  homeOperatorAddr */\n      dup7\n        /* \"RoamingDataManagement.sol\":4315:4349  dataSummaryTable[homeOperatorAddr] */\n      0xffffffffffffffffffffffffffffffffffffffff\n      and\n      0xffffffffffffffffffffffffffffffffffffffff\n      and\n      dup2\n      mstore\n      0x20\n      add\n      swap1\n      dup2\n      mstore\n      0x20\n      add\n      0x00\n      keccak256\n        /* \"RoamingDataManagement.sol\":4350:4354  imsi */\n      dup2\n        /* \"RoamingDataManagement.sol\":4315:4355  dataSummaryTable[homeOperatorAddr][imsi] */\n      mload(0x40)\n      tag_143\n      swap2\n      swap1\n      tag_106\n      jump\t// in\n    tag_143:\n      swap1\n      dup2\n      mstore\n      0x20\n      add\n      mload(0x40)\n      dup1\n      swap2\n      sub\n      swap1\n      keccak256\n        /* \"RoamingDataManagement.sol\":4315:4398  dataSummaryTable[homeOperatorAddr][imsi][operatorsNameToAddr[visitingOperatorName]] */\n      0x00\n        /* \"RoamingDataManagement.sol\":4356:4375  operatorsNameToAddr */\n      0x03\n        /* \"RoamingDataManagement.sol\":4376:4396  visitingOperatorName */\n      dup11\n        /* \"RoamingDataManagement.sol\":4356:4397  operatorsNameToAddr[visitingOperatorName] */\n      mload(0x40)\n      tag_144\n      swap2\n      swap1\n      tag_106\n      jump\t// in\n    tag_144:\n      swap1\n      dup2\n      mstore\n      0x20\n      add\n      mload(0x40)\n      dup1\n      swap2\n      sub\n      swap1\n      keccak256\n      0x00\n      swap1\n      sload\n      swap1\n      0x0100\n      exp\n      swap1\n      div\n      0xffffffffffffffffffffffffffffffffffffffff\n      and\n        /* \"RoamingDataManagement.sol\":4315:4398  dataSummaryTable[homeOperatorAddr][imsi][operatorsNameToAddr[visitingOperatorName]] */\n      0xffffffffffffffffffffffffffffffffffffffff\n      and\n      0xffffffffffffffffffffffffffffffffffffffff\n      and\n      dup2\n      mstore\n      0x20\n      add\n      swap1\n      dup2\n      mstore\n      0x20\n      add\n      0x00\n      keccak256\n        /* \"RoamingDataManagement.sol\":4295:4398  dataSummarries[i] = dataSummaryTable[homeOperatorAddr][imsi][operatorsNameToAddr[visitingOperatorName]] */\n      mload(0x40)\n      dup1\n      0xc0\n      add\n      0x40\n      mstore\n      swap1\n      dup2\n      0x00\n      dup3\n      add\n      dup1\n      sload\n      tag_145\n      swap1\n      tag_68\n      jump\t// in\n    tag_145:\n      dup1\n      0x1f\n      add\n      0x20\n      dup1\n      swap2\n      div\n      mul\n      0x20\n      add\n      mload(0x40)\n      swap1\n      dup2\n      add\n      0x40\n      mstore\n      dup1\n      swap3\n      swap2\n      swap1\n      dup2\n      dup2\n      mstore\n      0x20\n      add\n      dup3\n      dup1\n      sload\n      tag_146\n      swap1\n      tag_68\n      jump\t// in\n    tag_146:\n      dup1\n      iszero\n      tag_147\n      jumpi\n      dup1\n      0x1f\n      lt\n      tag_148\n      jumpi\n      0x0100\n      dup1\n      dup4\n      sload\n      div\n      mul\n      dup4\n      mstore\n      swap2\n      0x20\n      add\n      swap2\n      jump(tag_147)\n    tag_148:\n      dup3\n      add\n      swap2\n      swap1\n      0x00\n      mstore\n      keccak256(0x00, 0x20)\n      swap1\n    tag_149:\n      dup2\n      sload\n      dup2\n      mstore\n      swap1\n      0x01\n      add\n      swap1\n      0x20\n      add\n      dup1\n      dup4\n      gt\n      tag_149\n      jumpi\n      dup3\n      swap1\n      sub\n      0x1f\n      and\n      dup3\n      add\n      swap2\n    tag_147:\n      pop\n      pop\n      pop\n      pop\n      pop\n      dup2\n      mstore\n      0x20\n      add\n      0x01\n      dup3\n      add\n      dup1\n      sload\n      tag_150\n      swap1\n      tag_68\n      jump\t// in\n    tag_150:\n      dup1\n      0x1f\n      add\n      0x20\n      dup1\n      swap2\n      div\n      mul\n      0x20\n      add\n      mload(0x40)\n      swap1\n      dup2\n      add\n      0x40\n      mstore\n      dup1\n      swap3\n      swap2\n      swap1\n      dup2\n      dup2\n      mstore\n      0x20\n      add\n      dup3\n      dup1\n      sload\n      tag_151\n      swap1\n      tag_68\n      jump\t// in\n    tag_151:\n      dup1\n      iszero\n      tag_152\n      jumpi\n      dup1\n      0x1f\n      lt\n      tag_153\n      jumpi\n      0x0100\n      dup1\n      dup4\n      sload\n      div\n      mul\n      dup4\n      mstore\n      swap2\n      0x20\n      add\n      swap2\n      jump(tag_152)\n    tag_153:\n      dup3\n      add\n      swap2\n      swap1\n      0x00\n      mstore\n      keccak256(0x00, 0x20)\n      swap1\n    tag_154:\n      dup2\n      sload\n      dup2\n      mstore\n      swap1\n      0x01\n      add\n      swap1\n      0x20\n      add\n      dup1\n      dup4\n      gt\n      tag_154\n      jumpi\n      dup3\n      swap1\n      sub\n      0x1f\n      and\n      dup3\n      add\n      swap2\n    tag_152:\n      pop\n      pop\n      pop\n      pop\n      pop\n      dup2\n      mstore\n      0x20\n      add\n      0x02\n      dup3\n      add\n      dup1\n      sload\n      tag_155\n      swap1\n      tag_68\n      jump\t// in\n    tag_155:\n      dup1\n      0x1f\n      add\n      0x20\n      dup1\n      swap2\n      div\n      mul\n      0x20\n      add\n      mload(0x40)\n      swap1\n      dup2\n      add\n      0x40\n      mstore\n      dup1\n      swap3\n      swap2\n      swap1\n      dup2\n      dup2\n      mstore\n      0x20\n      add\n      dup3\n      dup1\n      sload\n      tag_156\n      swap1\n      tag_68\n      jump\t// in\n    tag_156:\n      dup1\n      iszero\n      tag_157\n      jumpi\n      dup1\n      0x1f\n      lt\n      tag_158\n      jumpi\n      0x0100\n      dup1\n      dup4\n      sload\n      div\n      mul\n      dup4\n      mstore\n      swap2\n      0x20\n      add\n      swap2\n      jump(tag_157)\n    tag_158:\n      dup3\n      add\n      swap2\n      swap1\n      0x00\n      mstore\n      keccak256(0x00, 0x20)\n      swap1\n    tag_159:\n      dup2\n      sload\n      dup2\n      mstore\n      swap1\n      0x01\n      add\n      swap1\n      0x20\n      add\n      dup1\n      dup4\n      gt\n      tag_159\n      jumpi\n      dup3\n      swap1\n      sub\n      0x1f\n      and\n      dup3\n      add\n      swap2\n    tag_157:\n      pop\n      pop\n      pop\n      pop\n      pop\n      dup2\n      mstore\n      0x20\n      add\n      0x03\n      dup3\n      add\n      sload\n      dup2\n      mstore\n      0x20\n      add\n      0x04\n      dup3\n      add\n      sload\n      dup2\n      mstore\n      0x20\n      add\n      0x05\n      dup3\n      add\n      sload\n      dup2\n      mstore\n      pop\n      pop\n        /* \"RoamingDataManagement.sol\":4295:4309  dataSummarries */\n      dup4\n        /* \"RoamingDataManagement.sol\":4310:4311  i */\n      dup4\n        /* \"RoamingDataManagement.sol\":4295:4312  dataSummarries[i] */\n      dup2\n      mload\n      dup2\n      lt\n      tag_160\n      jumpi\n      tag_161\n      tag_136\n      jump\t// in\n    tag_161:\n    tag_160:\n      0x20\n      mul\n      0x20\n      add\n      add\n        /* \"RoamingDataManagement.sol\":4295:4398  dataSummarries[i] = dataSummaryTable[homeOperatorAddr][imsi][operatorsNameToAddr[visitingOperatorName]] */\n      dup2\n      swap1\n      mstore\n      pop\n        /* \"RoamingDataManagement.sol\":4238:4409  {... */\n      pop\n        /* \"RoamingDataManagement.sol\":4233:4236  ++i */\n      dup1\n      tag_162\n      swap1\n      tag_118\n      jump\t// in\n    tag_162:\n      swap1\n      pop\n        /* \"RoamingDataManagement.sol\":4198:4409  for (uint i = 0; i < users.length; ++i) {... */\n      jump(tag_131)\n    tag_132:\n      pop\n        /* \"RoamingDataManagement.sol\":4427:4436  userTable */\n      0x04\n        /* \"RoamingDataManagement.sol\":4427:4454  userTable[homeOperatorAddr] */\n      0x00\n        /* \"RoamingDataManagement.sol\":4437:4453  homeOperatorAddr */\n      dup5\n        /* \"RoamingDataManagement.sol\":4427:4454  userTable[homeOperatorAddr] */\n      0xffffffffffffffffffffffffffffffffffffffff\n      and\n      0xffffffffffffffffffffffffffffffffffffffff\n      and\n      dup2\n      mstore\n      0x20\n      add\n      swap1\n      dup2\n      mstore\n      0x20\n      add\n      0x00\n      keccak256\n        /* \"RoamingDataManagement.sol\":4456:4470  dataSummarries */\n      dup2\n        /* \"RoamingDataManagement.sol\":4419:4471  return (userTable[homeOperatorAddr], dataSummarries) */\n      dup2\n      dup1\n      sload\n      dup1\n      0x20\n      mul\n      0x20\n      add\n      mload(0x40)\n      swap1\n      dup2\n      add\n      0x40\n      mstore\n      dup1\n      swap3\n      swap2\n      swap1\n      dup2\n      dup2\n      mstore\n      0x20\n      add\n      0x00\n      swap1\n    tag_163:\n      dup3\n      dup3\n      lt\n      iszero\n      tag_164\n      jumpi\n      dup4\n      dup3\n      swap1\n      0x00\n      mstore\n      keccak256(0x00, 0x20)\n      add\n      dup1\n      sload\n      tag_166\n      swap1\n      tag_68\n      jump\t// in\n    tag_166:\n      dup1\n      0x1f\n      add\n      0x20\n      dup1\n      swap2\n      div\n      mul\n      0x20\n      add\n      mload(0x40)\n      swap1\n      dup2\n      add\n      0x40\n      mstore\n      dup1\n      swap3\n      swap2\n      swap1\n      dup2\n      dup2\n      mstore\n      0x20\n      add\n      dup3\n      dup1\n      sload\n      tag_167\n      swap1\n      tag_68\n      jump\t// in\n    tag_167:\n      dup1\n      iszero\n      tag_168\n      jumpi\n      dup1\n      0x1f\n      lt\n      tag_169\n      jumpi\n      0x0100\n      dup1\n      dup4\n      sload\n      div\n      mul\n      dup4\n      mstore\n      swap2\n      0x20\n      add\n      swap2\n      jump(tag_168)\n    tag_169:\n      dup3\n      add\n      swap2\n      swap1\n      0x00\n      mstore\n      keccak256(0x00, 0x20)\n      swap1\n    tag_170:\n      dup2\n      sload\n      dup2\n      mstore\n      swap1\n      0x01\n      add\n      swap1\n      0x20\n      add\n      dup1\n      dup4\n      gt\n      tag_170\n      jumpi\n      dup3\n      swap1\n      sub\n      0x1f\n      and\n      dup3\n      add\n      swap2\n    tag_168:\n      pop\n      pop\n      pop\n      pop\n      pop\n      dup2\n      mstore\n      0x20\n      add\n      swap1\n      0x01\n      add\n      swap1\n      jump(tag_163)\n    tag_164:\n      pop\n      pop\n      pop\n      pop\n      swap2\n      pop\n      swap5\n      pop\n      swap5\n      pop\n      pop\n      pop\n      pop\n        /* \"RoamingDataManagement.sol\":3840:4478  function fetchUserDataSummary(string memory visitingOperatorName) public view returns(string[] memory, UserDataSummary[] memory) {... */\n      swap2\n      pop\n      swap2\n      jump\t// out\n        /* \"RoamingDataManagement.sol\":3513:3707  function dataSummaryExists(string memory imsi, string memory homeOperator) public view returns(bool) {... */\n    tag_54:\n        /* \"RoamingDataManagement.sol\":3608:3612  bool */\n      0x00\n        /* \"RoamingDataManagement.sol\":3698:3699  0 */\n      dup1\n        /* \"RoamingDataManagement.sol\":3633:3653  numOfUserDataEntries */\n      0x06\n        /* \"RoamingDataManagement.sol\":3633:3688  numOfUserDataEntries[operatorsNameToAddr[homeOperator]] */\n      0x00\n        /* \"RoamingDataManagement.sol\":3654:3673  operatorsNameToAddr */\n      0x03\n        /* \"RoamingDataManagement.sol\":3674:3686  homeOperator */\n      dup6\n        /* \"RoamingDataManagement.sol\":3654:3687  operatorsNameToAddr[homeOperator] */\n      mload(0x40)\n      tag_172\n      swap2\n      swap1\n      tag_106\n      jump\t// in\n    tag_172:\n      swap1\n      dup2\n      mstore\n      0x20\n      add\n      mload(0x40)\n      dup1\n      swap2\n      sub\n      swap1\n      keccak256\n      0x00\n      swap1\n      sload\n      swap1\n      0x0100\n      exp\n      swap1\n      div\n      0xffffffffffffffffffffffffffffffffffffffff\n      and\n        /* \"RoamingDataManagement.sol\":3633:3688  numOfUserDataEntries[operatorsNameToAddr[homeOperator]] */\n      0xffffffffffffffffffffffffffffffffffffffff\n      and\n      0xffffffffffffffffffffffffffffffffffffffff\n      and\n      dup2\n      mstore\n      0x20\n      add\n      swap1\n      dup2\n      mstore\n      0x20\n      add\n      0x00\n      keccak256\n        /* \"RoamingDataManagement.sol\":3689:3693  imsi */\n      dup5\n        /* \"RoamingDataManagement.sol\":3633:3694  numOfUserDataEntries[operatorsNameToAddr[homeOperator]][imsi] */\n      mload(0x40)\n      tag_173\n      swap2\n      swap1\n      tag_106\n      jump\t// in\n    tag_173:\n      swap1\n      dup2\n      mstore\n      0x20\n      add\n      mload(0x40)\n      dup1\n      swap2\n      sub\n      swap1\n      keccak256\n      sload\n        /* \"RoamingDataManagement.sol\":3633:3699  numOfUserDataEntries[operatorsNameToAddr[homeOperator]][imsi] == 0 */\n      eq\n        /* \"RoamingDataManagement.sol\":3631:3700  !(numOfUserDataEntries[operatorsNameToAddr[homeOperator]][imsi] == 0) */\n      iszero\n        /* \"RoamingDataManagement.sol\":3624:3700  return !(numOfUserDataEntries[operatorsNameToAddr[homeOperator]][imsi] == 0) */\n      swap1\n      pop\n        /* \"RoamingDataManagement.sol\":3513:3707  function dataSummaryExists(string memory imsi, string memory homeOperator) public view returns(bool) {... */\n      swap3\n      swap2\n      pop\n      pop\n      jump\t// out\n        /* \"RoamingDataManagement.sol\":1496:2097  function registerRoamingOperator(address operatorAddr, string memory operatorName) public {... */\n    tag_60:\n        /* \"RoamingDataManagement.sol\":1797:1798  0 */\n      0x00\n        /* \"RoamingDataManagement.sol\":1752:1771  operatorsAddrToName */\n      0x02\n        /* \"RoamingDataManagement.sol\":1752:1785  operatorsAddrToName[operatorAddr] */\n      0x00\n        /* \"RoamingDataManagement.sol\":1772:1784  operatorAddr */\n      dup5\n        /* \"RoamingDataManagement.sol\":1752:1785  operatorsAddrToName[operatorAddr] */\n      0xffffffffffffffffffffffffffffffffffffffff\n      and\n      0xffffffffffffffffffffffffffffffffffffffff\n      and\n      dup2\n      mstore\n      0x20\n      add\n      swap1\n      dup2\n      mstore\n      0x20\n      add\n      0x00\n      keccak256\n        /* \"RoamingDataManagement.sol\":1746:1793  bytes(operatorsAddrToName[operatorAddr]).length */\n      dup1\n      sload\n      tag_175\n      swap1\n      tag_68\n      jump\t// in\n    tag_175:\n      swap1\n      pop\n        /* \"RoamingDataManagement.sol\":1746:1798  bytes(operatorsAddrToName[operatorAddr]).length == 0 */\n      eq\n        /* \"RoamingDataManagement.sol\":1746:1852  bytes(operatorsAddrToName[operatorAddr]).length == 0 && operatorsNameToAddr[operatorName] == address(0x00) */\n      dup1\n      iszero\n      tag_176\n      jumpi\n      pop\n        /* \"RoamingDataManagement.sol\":1847:1851  0x00 */\n      0x00\n        /* \"RoamingDataManagement.sol\":1802:1852  operatorsNameToAddr[operatorName] == address(0x00) */\n      0xffffffffffffffffffffffffffffffffffffffff\n      and\n        /* \"RoamingDataManagement.sol\":1802:1821  operatorsNameToAddr */\n      0x03\n        /* \"RoamingDataManagement.sol\":1822:1834  operatorName */\n      dup3\n        /* \"RoamingDataManagement.sol\":1802:1835  operatorsNameToAddr[operatorName] */\n      mload(0x40)\n      tag_177\n      swap2\n      swap1\n      tag_106\n      jump\t// in\n    tag_177:\n      swap1\n      dup2\n      mstore\n      0x20\n      add\n      mload(0x40)\n      dup1\n      swap2\n      sub\n      swap1\n      keccak256\n      0x00\n      swap1\n      sload\n      swap1\n      0x0100\n      exp\n      swap1\n      div\n      0xffffffffffffffffffffffffffffffffffffffff\n      and\n        /* \"RoamingDataManagement.sol\":1802:1852  operatorsNameToAddr[operatorName] == address(0x00) */\n      0xffffffffffffffffffffffffffffffffffffffff\n      and\n      eq\n        /* \"RoamingDataManagement.sol\":1746:1852  bytes(operatorsAddrToName[operatorAddr]).length == 0 && operatorsNameToAddr[operatorName] == address(0x00) */\n    tag_176:\n        /* \"RoamingDataManagement.sol\":1742:2091  if (bytes(operatorsAddrToName[operatorAddr]).length == 0 && operatorsNameToAddr[operatorName] == address(0x00)) {... */\n      iszero\n      tag_178\n      jumpi\n        /* \"RoamingDataManagement.sol\":1868:1884  serviceProviders */\n      0x00\n        /* \"RoamingDataManagement.sol\":1890:1902  operatorName */\n      dup2\n        /* \"RoamingDataManagement.sol\":1868:1903  serviceProviders.push(operatorName) */\n      swap1\n      dup1\n      0x01\n      dup2\n      sload\n      add\n      dup1\n      dup3\n      sstore\n      dup1\n      swap2\n      pop\n      pop\n      0x01\n      swap1\n      sub\n      swap1\n      0x00\n      mstore\n      keccak256(0x00, 0x20)\n      add\n      0x00\n      swap1\n      swap2\n      swap1\n      swap2\n      swap1\n      swap2\n      pop\n      swap1\n      dup2\n      tag_180\n      swap2\n      swap1\n      tag_114\n      jump\t// in\n    tag_180:\n      pop\n        /* \"RoamingDataManagement.sol\":1917:1934  operatorAddresses */\n      0x01\n        /* \"RoamingDataManagement.sol\":1940:1952  operatorAddr */\n      dup3\n        /* \"RoamingDataManagement.sol\":1917:1953  operatorAddresses.push(operatorAddr) */\n      swap1\n      dup1\n      0x01\n      dup2\n      sload\n      add\n      dup1\n      dup3\n      sstore\n      dup1\n      swap2\n      pop\n      pop\n      0x01\n      swap1\n      sub\n      swap1\n      0x00\n      mstore\n      keccak256(0x00, 0x20)\n      add\n      0x00\n      swap1\n      swap2\n      swap1\n      swap2\n      swap1\n      swap2\n      0x0100\n      exp\n      dup2\n      sload\n      dup2\n      0xffffffffffffffffffffffffffffffffffffffff\n      mul\n      not\n      and\n      swap1\n      dup4\n      0xffffffffffffffffffffffffffffffffffffffff\n      and\n      mul\n      or\n      swap1\n      sstore\n      pop\n        /* \"RoamingDataManagement.sol\":2006:2018  operatorAddr */\n      dup2\n        /* \"RoamingDataManagement.sol\":1970:1989  operatorsNameToAddr */\n      0x03\n        /* \"RoamingDataManagement.sol\":1990:2002  operatorName */\n      dup3\n        /* \"RoamingDataManagement.sol\":1970:2003  operatorsNameToAddr[operatorName] */\n      mload(0x40)\n      tag_182\n      swap2\n      swap1\n      tag_106\n      jump\t// in\n    tag_182:\n      swap1\n      dup2\n      mstore\n      0x20\n      add\n      mload(0x40)\n      dup1\n      swap2\n      sub\n      swap1\n      keccak256\n      0x00\n        /* \"RoamingDataManagement.sol\":1970:2018  operatorsNameToAddr[operatorName] = operatorAddr */\n      0x0100\n      exp\n      dup2\n      sload\n      dup2\n      0xffffffffffffffffffffffffffffffffffffffff\n      mul\n      not\n      and\n      swap1\n      dup4\n      0xffffffffffffffffffffffffffffffffffffffff\n      and\n      mul\n      or\n      swap1\n      sstore\n      pop\n        /* \"RoamingDataManagement.sol\":2068:2080  operatorName */\n      dup1\n        /* \"RoamingDataManagement.sol\":2032:2051  operatorsAddrToName */\n      0x02\n        /* \"RoamingDataManagement.sol\":2032:2065  operatorsAddrToName[operatorAddr] */\n      0x00\n        /* \"RoamingDataManagement.sol\":2052:2064  operatorAddr */\n      dup5\n        /* \"RoamingDataManagement.sol\":2032:2065  operatorsAddrToName[operatorAddr] */\n      0xffffffffffffffffffffffffffffffffffffffff\n      and\n      0xffffffffffffffffffffffffffffffffffffffff\n      and\n      dup2\n      mstore\n      0x20\n      add\n      swap1\n      dup2\n      mstore\n      0x20\n      add\n      0x00\n      keccak256\n        /* \"RoamingDataManagement.sol\":2032:2080  operatorsAddrToName[operatorAddr] = operatorName */\n      swap1\n      dup2\n      tag_183\n      swap2\n      swap1\n      tag_114\n      jump\t// in\n    tag_183:\n      pop\n        /* \"RoamingDataManagement.sol\":1742:2091  if (bytes(operatorsAddrToName[operatorAddr]).length == 0 && operatorsNameToAddr[operatorName] == address(0x00)) {... */\n    tag_178:\n        /* \"RoamingDataManagement.sol\":1496:2097  function registerRoamingOperator(address operatorAddr, string memory operatorName) public {... */\n      pop\n      pop\n      jump\t// out\n        /* \"RoamingDataManagement.sol\":660:713  mapping(string => address) public operatorsNameToAddr */\n    tag_63:\n      0x03\n      dup2\n      dup1\n      mload\n      0x20\n      dup2\n      add\n      dup3\n      add\n      dup1\n      mload\n      dup5\n      dup3\n      mstore\n      0x20\n      dup4\n      add\n      0x20\n      dup6\n      add\n      keccak256\n      dup2\n      dup4\n      mstore\n      dup1\n      swap6\n      pop\n      pop\n      pop\n      pop\n      pop\n      pop\n      0x00\n      swap2\n      pop\n      sload\n      swap1\n      0x0100\n      exp\n      swap1\n      div\n      0xffffffffffffffffffffffffffffffffffffffff\n      and\n      dup2\n      jump\t// out\n    tag_130:\n      mload(0x40)\n      dup1\n      0xc0\n      add\n      0x40\n      mstore\n      dup1\n      0x60\n      dup2\n      mstore\n      0x20\n      add\n      0x60\n      dup2\n      mstore\n      0x20\n      add\n      0x60\n      dup2\n      mstore\n      0x20\n      add\n      0x00\n      dup2\n      mstore\n      0x20\n      add\n      0x00\n      dup2\n      mstore\n      0x20\n      add\n      0x00\n      dup2\n      mstore\n      pop\n      swap1\n      jump\t// out\n        /* \"#utility.yul\":7:82   */\n    tag_184:\n        /* \"#utility.yul\":40:46   */\n      0x00\n        /* \"#utility.yul\":73:75   */\n      0x40\n        /* \"#utility.yul\":67:76   */\n      mload\n        /* \"#utility.yul\":57:76   */\n      swap1\n      pop\n        /* \"#utility.yul\":7:82   */\n      swap1\n      jump\t// out\n        /* \"#utility.yul\":88:205   */\n    tag_185:\n        /* \"#utility.yul\":197:198   */\n      0x00\n        /* \"#utility.yul\":194:195   */\n      dup1\n        /* \"#utility.yul\":187:199   */\n      revert\n        /* \"#utility.yul\":211:328   */\n    tag_186:\n        /* \"#utility.yul\":320:321   */\n      0x00\n        /* \"#utility.yul\":317:318   */\n      dup1\n        /* \"#utility.yul\":310:322   */\n      revert\n        /* \"#utility.yul\":334:411   */\n    tag_187:\n        /* \"#utility.yul\":371:378   */\n      0x00\n        /* \"#utility.yul\":400:405   */\n      dup2\n        /* \"#utility.yul\":389:405   */\n      swap1\n      pop\n        /* \"#utility.yul\":334:411   */\n      swap2\n      swap1\n      pop\n      jump\t// out\n        /* \"#utility.yul\":417:539   */\n    tag_188:\n        /* \"#utility.yul\":490:514   */\n      tag_252\n        /* \"#utility.yul\":508:513   */\n      dup2\n        /* \"#utility.yul\":490:514   */\n      tag_187\n      jump\t// in\n    tag_252:\n        /* \"#utility.yul\":483:488   */\n      dup2\n        /* \"#utility.yul\":480:515   */\n      eq\n        /* \"#utility.yul\":470:533   */\n      tag_253\n      jumpi\n        /* \"#utility.yul\":529:530   */\n      0x00\n        /* \"#utility.yul\":526:527   */\n      dup1\n        /* \"#utility.yul\":519:531   */\n      revert\n        /* \"#utility.yul\":470:533   */\n    tag_253:\n        /* \"#utility.yul\":417:539   */\n      pop\n      jump\t// out\n        /* \"#utility.yul\":545:684   */\n    tag_189:\n        /* \"#utility.yul\":591:596   */\n      0x00\n        /* \"#utility.yul\":629:635   */\n      dup2\n        /* \"#utility.yul\":616:636   */\n      calldataload\n        /* \"#utility.yul\":607:636   */\n      swap1\n      pop\n        /* \"#utility.yul\":645:678   */\n      tag_255\n        /* \"#utility.yul\":672:677   */\n      dup2\n        /* \"#utility.yul\":645:678   */\n      tag_188\n      jump\t// in\n    tag_255:\n        /* \"#utility.yul\":545:684   */\n      swap3\n      swap2\n      pop\n      pop\n      jump\t// out\n        /* \"#utility.yul\":690:1019   */\n    tag_16:\n        /* \"#utility.yul\":749:755   */\n      0x00\n        /* \"#utility.yul\":798:800   */\n      0x20\n        /* \"#utility.yul\":786:795   */\n      dup3\n        /* \"#utility.yul\":777:784   */\n      dup5\n        /* \"#utility.yul\":773:796   */\n      sub\n        /* \"#utility.yul\":769:801   */\n      slt\n        /* \"#utility.yul\":766:885   */\n      iszero\n      tag_257\n      jumpi\n        /* \"#utility.yul\":804:883   */\n      tag_258\n      tag_185\n      jump\t// in\n    tag_258:\n        /* \"#utility.yul\":766:885   */\n    tag_257:\n        /* \"#utility.yul\":924:925   */\n      0x00\n        /* \"#utility.yul\":949:1002   */\n      tag_259\n        /* \"#utility.yul\":994:1001   */\n      dup5\n        /* \"#utility.yul\":985:991   */\n      dup3\n        /* \"#utility.yul\":974:983   */\n      dup6\n        /* \"#utility.yul\":970:992   */\n      add\n        /* \"#utility.yul\":949:1002   */\n      tag_189\n      jump\t// in\n    tag_259:\n        /* \"#utility.yul\":939:1002   */\n      swap2\n      pop\n        /* \"#utility.yul\":895:1012   */\n      pop\n        /* \"#utility.yul\":690:1019   */\n      swap3\n      swap2\n      pop\n      pop\n      jump\t// out\n        /* \"#utility.yul\":1025:1124   */\n    tag_190:\n        /* \"#utility.yul\":1077:1083   */\n      0x00\n        /* \"#utility.yul\":1111:1116   */\n      dup2\n        /* \"#utility.yul\":1105:1117   */\n      mload\n        /* \"#utility.yul\":1095:1117   */\n      swap1\n      pop\n        /* \"#utility.yul\":1025:1124   */\n      swap2\n      swap1\n      pop\n      jump\t// out\n        /* \"#utility.yul\":1130:1299   */\n    tag_191:\n        /* \"#utility.yul\":1214:1225   */\n      0x00\n        /* \"#utility.yul\":1248:1254   */\n      dup3\n        /* \"#utility.yul\":1243:1246   */\n      dup3\n        /* \"#utility.yul\":1236:1255   */\n      mstore\n        /* \"#utility.yul\":1288:1292   */\n      0x20\n        /* \"#utility.yul\":1283:1286   */\n      dup3\n        /* \"#utility.yul\":1279:1293   */\n      add\n        /* \"#utility.yul\":1264:1293   */\n      swap1\n      pop\n        /* \"#utility.yul\":1130:1299   */\n      swap3\n      swap2\n      pop\n      pop\n      jump\t// out\n        /* \"#utility.yul\":1305:1612   */\n    tag_192:\n        /* \"#utility.yul\":1373:1374   */\n      0x00\n        /* \"#utility.yul\":1383:1496   */\n    tag_263:\n        /* \"#utility.yul\":1397:1403   */\n      dup4\n        /* \"#utility.yul\":1394:1395   */\n      dup2\n        /* \"#utility.yul\":1391:1404   */\n      lt\n        /* \"#utility.yul\":1383:1496   */\n      iszero\n      tag_265\n      jumpi\n        /* \"#utility.yul\":1482:1483   */\n      dup1\n        /* \"#utility.yul\":1477:1480   */\n      dup3\n        /* \"#utility.yul\":1473:1484   */\n      add\n        /* \"#utility.yul\":1467:1485   */\n      mload\n        /* \"#utility.yul\":1463:1464   */\n      dup2\n        /* \"#utility.yul\":1458:1461   */\n      dup5\n        /* \"#utility.yul\":1454:1465   */\n      add\n        /* \"#utility.yul\":1447:1486   */\n      mstore\n        /* \"#utility.yul\":1419:1421   */\n      0x20\n        /* \"#utility.yul\":1416:1417   */\n      dup2\n        /* \"#utility.yul\":1412:1422   */\n      add\n        /* \"#utility.yul\":1407:1422   */\n      swap1\n      pop\n        /* \"#utility.yul\":1383:1496   */\n      jump(tag_263)\n    tag_265:\n        /* \"#utility.yul\":1514:1520   */\n      dup4\n        /* \"#utility.yul\":1511:1512   */\n      dup2\n        /* \"#utility.yul\":1508:1521   */\n      gt\n        /* \"#utility.yul\":1505:1606   */\n      iszero\n      tag_266\n      jumpi\n        /* \"#utility.yul\":1594:1595   */\n      0x00\n        /* \"#utility.yul\":1585:1591   */\n      dup5\n        /* \"#utility.yul\":1580:1583   */\n      dup5\n        /* \"#utility.yul\":1576:1592   */\n      add\n        /* \"#utility.yul\":1569:1596   */\n      mstore\n        /* \"#utility.yul\":1505:1606   */\n    tag_266:\n        /* \"#utility.yul\":1354:1612   */\n      pop\n        /* \"#utility.yul\":1305:1612   */\n      pop\n      pop\n      pop\n      jump\t// out\n        /* \"#utility.yul\":1618:1720   */\n    tag_193:\n        /* \"#utility.yul\":1659:1665   */\n      0x00\n        /* \"#utility.yul\":1710:1712   */\n      0x1f\n        /* \"#utility.yul\":1706:1713   */\n      not\n        /* \"#utility.yul\":1701:1703   */\n      0x1f\n        /* \"#utility.yul\":1694:1699   */\n      dup4\n        /* \"#utility.yul\":1690:1704   */\n      add\n        /* \"#utility.yul\":1686:1714   */\n      and\n        /* \"#utility.yul\":1676:1714   */\n      swap1\n      pop\n        /* \"#utility.yul\":1618:1720   */\n      swap2\n      swap1\n      pop\n      jump\t// out\n        /* \"#utility.yul\":1726:2090   */\n    tag_194:\n        /* \"#utility.yul\":1814:1817   */\n      0x00\n        /* \"#utility.yul\":1842:1881   */\n      tag_269\n        /* \"#utility.yul\":1875:1880   */\n      dup3\n        /* \"#utility.yul\":1842:1881   */\n      tag_190\n      jump\t// in\n    tag_269:\n        /* \"#utility.yul\":1897:1968   */\n      tag_270\n        /* \"#utility.yul\":1961:1967   */\n      dup2\n        /* \"#utility.yul\":1956:1959   */\n      dup6\n        /* \"#utility.yul\":1897:1968   */\n      tag_191\n      jump\t// in\n    tag_270:\n        /* \"#utility.yul\":1890:1968   */\n      swap4\n      pop\n        /* \"#utility.yul\":1977:2029   */\n      tag_271\n        /* \"#utility.yul\":2022:2028   */\n      dup2\n        /* \"#utility.yul\":2017:2020   */\n      dup6\n        /* \"#utility.yul\":2010:2014   */\n      0x20\n        /* \"#utility.yul\":2003:2008   */\n      dup7\n        /* \"#utility.yul\":1999:2015   */\n      add\n        /* \"#utility.yul\":1977:2029   */\n      tag_192\n      jump\t// in\n    tag_271:\n        /* \"#utility.yul\":2054:2083   */\n      tag_272\n        /* \"#utility.yul\":2076:2082   */\n      dup2\n        /* \"#utility.yul\":2054:2083   */\n      tag_193\n      jump\t// in\n    tag_272:\n        /* \"#utility.yul\":2049:2052   */\n      dup5\n        /* \"#utility.yul\":2045:2084   */\n      add\n        /* \"#utility.yul\":2038:2084   */\n      swap2\n      pop\n        /* \"#utility.yul\":1818:2090   */\n      pop\n        /* \"#utility.yul\":1726:2090   */\n      swap3\n      swap2\n      pop\n      pop\n      jump\t// out\n        /* \"#utility.yul\":2096:2409   */\n    tag_19:\n        /* \"#utility.yul\":2209:2213   */\n      0x00\n        /* \"#utility.yul\":2247:2249   */\n      0x20\n        /* \"#utility.yul\":2236:2245   */\n      dup3\n        /* \"#utility.yul\":2232:2250   */\n      add\n        /* \"#utility.yul\":2224:2250   */\n      swap1\n      pop\n        /* \"#utility.yul\":2296:2305   */\n      dup2\n        /* \"#utility.yul\":2290:2294   */\n      dup2\n        /* \"#utility.yul\":2286:2306   */\n      sub\n        /* \"#utility.yul\":2282:2283   */\n      0x00\n        /* \"#utility.yul\":2271:2280   */\n      dup4\n        /* \"#utility.yul\":2267:2284   */\n      add\n        /* \"#utility.yul\":2260:2307   */\n      mstore\n        /* \"#utility.yul\":2324:2402   */\n      tag_274\n        /* \"#utility.yul\":2397:2401   */\n      dup2\n        /* \"#utility.yul\":2388:2394   */\n      dup5\n        /* \"#utility.yul\":2324:2402   */\n      tag_194\n      jump\t// in\n    tag_274:\n        /* \"#utility.yul\":2316:2402   */\n      swap1\n      pop\n        /* \"#utility.yul\":2096:2409   */\n      swap3\n      swap2\n      pop\n      pop\n      jump\t// out\n        /* \"#utility.yul\":2415:2541   */\n    tag_195:\n        /* \"#utility.yul\":2452:2459   */\n      0x00\n        /* \"#utility.yul\":2492:2534   */\n      0xffffffffffffffffffffffffffffffffffffffff\n        /* \"#utility.yul\":2485:2490   */\n      dup3\n        /* \"#utility.yul\":2481:2535   */\n      and\n        /* \"#utility.yul\":2470:2535   */\n      swap1\n      pop\n        /* \"#utility.yul\":2415:2541   */\n      swap2\n      swap1\n      pop\n      jump\t// out\n        /* \"#utility.yul\":2547:2643   */\n    tag_196:\n        /* \"#utility.yul\":2584:2591   */\n      0x00\n        /* \"#utility.yul\":2613:2637   */\n      tag_277\n        /* \"#utility.yul\":2631:2636   */\n      dup3\n        /* \"#utility.yul\":2613:2637   */\n      tag_195\n      jump\t// in\n    tag_277:\n        /* \"#utility.yul\":2602:2637   */\n      swap1\n      pop\n        /* \"#utility.yul\":2547:2643   */\n      swap2\n      swap1\n      pop\n      jump\t// out\n        /* \"#utility.yul\":2649:2771   */\n    tag_197:\n        /* \"#utility.yul\":2722:2746   */\n      tag_279\n        /* \"#utility.yul\":2740:2745   */\n      dup2\n        /* \"#utility.yul\":2722:2746   */\n      tag_196\n      jump\t// in\n    tag_279:\n        /* \"#utility.yul\":2715:2720   */\n      dup2\n        /* \"#utility.yul\":2712:2747   */\n      eq\n        /* \"#utility.yul\":2702:2765   */\n      tag_280\n      jumpi\n        /* \"#utility.yul\":2761:2762   */\n      0x00\n        /* \"#utility.yul\":2758:2759   */\n      dup1\n        /* \"#utility.yul\":2751:2763   */\n      revert\n        /* \"#utility.yul\":2702:2765   */\n    tag_280:\n        /* \"#utility.yul\":2649:2771   */\n      pop\n      jump\t// out\n        /* \"#utility.yul\":2777:2916   */\n    tag_198:\n        /* \"#utility.yul\":2823:2828   */\n      0x00\n        /* \"#utility.yul\":2861:2867   */\n      dup2\n        /* \"#utility.yul\":2848:2868   */\n      calldataload\n        /* \"#utility.yul\":2839:2868   */\n      swap1\n      pop\n        /* \"#utility.yul\":2877:2910   */\n      tag_282\n        /* \"#utility.yul\":2904:2909   */\n      dup2\n        /* \"#utility.yul\":2877:2910   */\n      tag_197\n      jump\t// in\n    tag_282:\n        /* \"#utility.yul\":2777:2916   */\n      swap3\n      swap2\n      pop\n      pop\n      jump\t// out\n        /* \"#utility.yul\":2922:3039   */\n    tag_199:\n        /* \"#utility.yul\":3031:3032   */\n      0x00\n        /* \"#utility.yul\":3028:3029   */\n      dup1\n        /* \"#utility.yul\":3021:3033   */\n      revert\n        /* \"#utility.yul\":3045:3162   */\n    tag_200:\n        /* \"#utility.yul\":3154:3155   */\n      0x00\n        /* \"#utility.yul\":3151:3152   */\n      dup1\n        /* \"#utility.yul\":3144:3156   */\n      revert\n        /* \"#utility.yul\":3168:3348   */\n    tag_126:\n        /* \"#utility.yul\":3216:3293   */\n      0x4e487b7100000000000000000000000000000000000000000000000000000000\n        /* \"#utility.yul\":3213:3214   */\n      0x00\n        /* \"#utility.yul\":3206:3294   */\n      mstore\n        /* \"#utility.yul\":3313:3317   */\n      0x41\n        /* \"#utility.yul\":3310:3311   */\n      0x04\n        /* \"#utility.yul\":3303:3318   */\n      mstore\n        /* \"#utility.yul\":3337:3341   */\n      0x24\n        /* \"#utility.yul\":3334:3335   */\n      0x00\n        /* \"#utility.yul\":3327:3342   */\n      revert\n        /* \"#utility.yul\":3354:3635   */\n    tag_201:\n        /* \"#utility.yul\":3437:3464   */\n      tag_287\n        /* \"#utility.yul\":3459:3463   */\n      dup3\n        /* \"#utility.yul\":3437:3464   */\n      tag_193\n      jump\t// in\n    tag_287:\n        /* \"#utility.yul\":3429:3435   */\n      dup2\n        /* \"#utility.yul\":3425:3465   */\n      add\n        /* \"#utility.yul\":3567:3573   */\n      dup2\n        /* \"#utility.yul\":3555:3565   */\n      dup2\n        /* \"#utility.yul\":3552:3574   */\n      lt\n        /* \"#utility.yul\":3531:3549   */\n      0xffffffffffffffff\n        /* \"#utility.yul\":3519:3529   */\n      dup3\n        /* \"#utility.yul\":3516:3550   */\n      gt\n        /* \"#utility.yul\":3513:3575   */\n      or\n        /* \"#utility.yul\":3510:3598   */\n      iszero\n      tag_288\n      jumpi\n        /* \"#utility.yul\":3578:3596   */\n      tag_289\n      tag_126\n      jump\t// in\n    tag_289:\n        /* \"#utility.yul\":3510:3598   */\n    tag_288:\n        /* \"#utility.yul\":3618:3628   */\n      dup1\n        /* \"#utility.yul\":3614:3616   */\n      0x40\n        /* \"#utility.yul\":3607:3629   */\n      mstore\n        /* \"#utility.yul\":3397:3635   */\n      pop\n        /* \"#utility.yul\":3354:3635   */\n      pop\n      pop\n      jump\t// out\n        /* \"#utility.yul\":3641:3770   */\n    tag_202:\n        /* \"#utility.yul\":3675:3681   */\n      0x00\n        /* \"#utility.yul\":3702:3722   */\n      tag_291\n      tag_184\n      jump\t// in\n    tag_291:\n        /* \"#utility.yul\":3692:3722   */\n      swap1\n      pop\n        /* \"#utility.yul\":3731:3764   */\n      tag_292\n        /* \"#utility.yul\":3759:3763   */\n      dup3\n        /* \"#utility.yul\":3751:3757   */\n      dup3\n        /* \"#utility.yul\":3731:3764   */\n      tag_201\n      jump\t// in\n    tag_292:\n        /* \"#utility.yul\":3641:3770   */\n      swap2\n      swap1\n      pop\n      jump\t// out\n        /* \"#utility.yul\":3776:4084   */\n    tag_203:\n        /* \"#utility.yul\":3838:3842   */\n      0x00\n        /* \"#utility.yul\":3928:3946   */\n      0xffffffffffffffff\n        /* \"#utility.yul\":3920:3926   */\n      dup3\n        /* \"#utility.yul\":3917:3947   */\n      gt\n        /* \"#utility.yul\":3914:3970   */\n      iszero\n      tag_294\n      jumpi\n        /* \"#utility.yul\":3950:3968   */\n      tag_295\n      tag_126\n      jump\t// in\n    tag_295:\n        /* \"#utility.yul\":3914:3970   */\n    tag_294:\n        /* \"#utility.yul\":3988:4017   */\n      tag_296\n        /* \"#utility.yul\":4010:4016   */\n      dup3\n        /* \"#utility.yul\":3988:4017   */\n      tag_193\n      jump\t// in\n    tag_296:\n        /* \"#utility.yul\":3980:4017   */\n      swap1\n      pop\n        /* \"#utility.yul\":4072:4076   */\n      0x20\n        /* \"#utility.yul\":4066:4070   */\n      dup2\n        /* \"#utility.yul\":4062:4077   */\n      add\n        /* \"#utility.yul\":4054:4077   */\n      swap1\n      pop\n        /* \"#utility.yul\":3776:4084   */\n      swap2\n      swap1\n      pop\n      jump\t// out\n        /* \"#utility.yul\":4090:4244   */\n    tag_204:\n        /* \"#utility.yul\":4174:4180   */\n      dup3\n        /* \"#utility.yul\":4169:4172   */\n      dup2\n        /* \"#utility.yul\":4164:4167   */\n      dup4\n        /* \"#utility.yul\":4151:4181   */\n      calldatacopy\n        /* \"#utility.yul\":4236:4237   */\n      0x00\n        /* \"#utility.yul\":4227:4233   */\n      dup4\n        /* \"#utility.yul\":4222:4225   */\n      dup4\n        /* \"#utility.yul\":4218:4234   */\n      add\n        /* \"#utility.yul\":4211:4238   */\n      mstore\n        /* \"#utility.yul\":4090:4244   */\n      pop\n      pop\n      pop\n      jump\t// out\n        /* \"#utility.yul\":4250:4662   */\n    tag_205:\n        /* \"#utility.yul\":4328:4333   */\n      0x00\n        /* \"#utility.yul\":4353:4419   */\n      tag_299\n        /* \"#utility.yul\":4369:4418   */\n      tag_300\n        /* \"#utility.yul\":4411:4417   */\n      dup5\n        /* \"#utility.yul\":4369:4418   */\n      tag_203\n      jump\t// in\n    tag_300:\n        /* \"#utility.yul\":4353:4419   */\n      tag_202\n      jump\t// in\n    tag_299:\n        /* \"#utility.yul\":4344:4419   */\n      swap1\n      pop\n        /* \"#utility.yul\":4442:4448   */\n      dup3\n        /* \"#utility.yul\":4435:4440   */\n      dup2\n        /* \"#utility.yul\":4428:4449   */\n      mstore\n        /* \"#utility.yul\":4480:4484   */\n      0x20\n        /* \"#utility.yul\":4473:4478   */\n      dup2\n        /* \"#utility.yul\":4469:4485   */\n      add\n        /* \"#utility.yul\":4518:4521   */\n      dup5\n        /* \"#utility.yul\":4509:4515   */\n      dup5\n        /* \"#utility.yul\":4504:4507   */\n      dup5\n        /* \"#utility.yul\":4500:4516   */\n      add\n        /* \"#utility.yul\":4497:4522   */\n      gt\n        /* \"#utility.yul\":4494:4606   */\n      iszero\n      tag_301\n      jumpi\n        /* \"#utility.yul\":4525:4604   */\n      tag_302\n      tag_200\n      jump\t// in\n    tag_302:\n        /* \"#utility.yul\":4494:4606   */\n    tag_301:\n        /* \"#utility.yul\":4615:4656   */\n      tag_303\n        /* \"#utility.yul\":4649:4655   */\n      dup5\n        /* \"#utility.yul\":4644:4647   */\n      dup3\n        /* \"#utility.yul\":4639:4642   */\n      dup6\n        /* \"#utility.yul\":4615:4656   */\n      tag_204\n      jump\t// in\n    tag_303:\n        /* \"#utility.yul\":4334:4662   */\n      pop\n        /* \"#utility.yul\":4250:4662   */\n      swap4\n      swap3\n      pop\n      pop\n      pop\n      jump\t// out\n        /* \"#utility.yul\":4682:5022   */\n    tag_206:\n        /* \"#utility.yul\":4738:4743   */\n      0x00\n        /* \"#utility.yul\":4787:4790   */\n      dup3\n        /* \"#utility.yul\":4780:4784   */\n      0x1f\n        /* \"#utility.yul\":4772:4778   */\n      dup4\n        /* \"#utility.yul\":4768:4785   */\n      add\n        /* \"#utility.yul\":4764:4791   */\n      slt\n        /* \"#utility.yul\":4754:4876   */\n      tag_305\n      jumpi\n        /* \"#utility.yul\":4795:4874   */\n      tag_306\n      tag_199\n      jump\t// in\n    tag_306:\n        /* \"#utility.yul\":4754:4876   */\n    tag_305:\n        /* \"#utility.yul\":4912:4918   */\n      dup2\n        /* \"#utility.yul\":4899:4919   */\n      calldataload\n        /* \"#utility.yul\":4937:5016   */\n      tag_307\n        /* \"#utility.yul\":5012:5015   */\n      dup5\n        /* \"#utility.yul\":5004:5010   */\n      dup3\n        /* \"#utility.yul\":4997:5001   */\n      0x20\n        /* \"#utility.yul\":4989:4995   */\n      dup7\n        /* \"#utility.yul\":4985:5002   */\n      add\n        /* \"#utility.yul\":4937:5016   */\n      tag_205\n      jump\t// in\n    tag_307:\n        /* \"#utility.yul\":4928:5016   */\n      swap2\n      pop\n        /* \"#utility.yul\":4744:5022   */\n      pop\n        /* \"#utility.yul\":4682:5022   */\n      swap3\n      swap2\n      pop\n      pop\n      jump\t// out\n        /* \"#utility.yul\":5028:5827   */\n    tag_22:\n        /* \"#utility.yul\":5115:5121   */\n      0x00\n        /* \"#utility.yul\":5123:5129   */\n      dup1\n        /* \"#utility.yul\":5131:5137   */\n      0x00\n        /* \"#utility.yul\":5180:5182   */\n      0x60\n        /* \"#utility.yul\":5168:5177   */\n      dup5\n        /* \"#utility.yul\":5159:5166   */\n      dup7\n        /* \"#utility.yul\":5155:5178   */\n      sub\n        /* \"#utility.yul\":5151:5183   */\n      slt\n        /* \"#utility.yul\":5148:5267   */\n      iszero\n      tag_309\n      jumpi\n        /* \"#utility.yul\":5186:5265   */\n      tag_310\n      tag_185\n      jump\t// in\n    tag_310:\n        /* \"#utility.yul\":5148:5267   */\n    tag_309:\n        /* \"#utility.yul\":5306:5307   */\n      0x00\n        /* \"#utility.yul\":5331:5384   */\n      tag_311\n        /* \"#utility.yul\":5376:5383   */\n      dup7\n        /* \"#utility.yul\":5367:5373   */\n      dup3\n        /* \"#utility.yul\":5356:5365   */\n      dup8\n        /* \"#utility.yul\":5352:5374   */\n      add\n        /* \"#utility.yul\":5331:5384   */\n      tag_198\n      jump\t// in\n    tag_311:\n        /* \"#utility.yul\":5321:5384   */\n      swap4\n      pop\n        /* \"#utility.yul\":5277:5394   */\n      pop\n        /* \"#utility.yul\":5461:5463   */\n      0x20\n        /* \"#utility.yul\":5450:5459   */\n      dup5\n        /* \"#utility.yul\":5446:5464   */\n      add\n        /* \"#utility.yul\":5433:5465   */\n      calldataload\n        /* \"#utility.yul\":5492:5510   */\n      0xffffffffffffffff\n        /* \"#utility.yul\":5484:5490   */\n      dup2\n        /* \"#utility.yul\":5481:5511   */\n      gt\n        /* \"#utility.yul\":5478:5595   */\n      iszero\n      tag_312\n      jumpi\n        /* \"#utility.yul\":5514:5593   */\n      tag_313\n      tag_186\n      jump\t// in\n    tag_313:\n        /* \"#utility.yul\":5478:5595   */\n    tag_312:\n        /* \"#utility.yul\":5619:5682   */\n      tag_314\n        /* \"#utility.yul\":5674:5681   */\n      dup7\n        /* \"#utility.yul\":5665:5671   */\n      dup3\n        /* \"#utility.yul\":5654:5663   */\n      dup8\n        /* \"#utility.yul\":5650:5672   */\n      add\n        /* \"#utility.yul\":5619:5682   */\n      tag_206\n      jump\t// in\n    tag_314:\n        /* \"#utility.yul\":5609:5682   */\n      swap3\n      pop\n        /* \"#utility.yul\":5404:5692   */\n      pop\n        /* \"#utility.yul\":5731:5733   */\n      0x40\n        /* \"#utility.yul\":5757:5810   */\n      tag_315\n        /* \"#utility.yul\":5802:5809   */\n      dup7\n        /* \"#utility.yul\":5793:5799   */\n      dup3\n        /* \"#utility.yul\":5782:5791   */\n      dup8\n        /* \"#utility.yul\":5778:5800   */\n      add\n        /* \"#utility.yul\":5757:5810   */\n      tag_198\n      jump\t// in\n    tag_315:\n        /* \"#utility.yul\":5747:5810   */\n      swap2\n      pop\n        /* \"#utility.yul\":5702:5820   */\n      pop\n        /* \"#utility.yul\":5028:5827   */\n      swap3\n      pop\n      swap3\n      pop\n      swap3\n      jump\t// out\n        /* \"#utility.yul\":5833:5951   */\n    tag_207:\n        /* \"#utility.yul\":5920:5944   */\n      tag_317\n        /* \"#utility.yul\":5938:5943   */\n      dup2\n        /* \"#utility.yul\":5920:5944   */\n      tag_187\n      jump\t// in\n    tag_317:\n        /* \"#utility.yul\":5915:5918   */\n      dup3\n        /* \"#utility.yul\":5908:5945   */\n      mstore\n        /* \"#utility.yul\":5833:5951   */\n      pop\n      pop\n      jump\t// out\n        /* \"#utility.yul\":5957:7005   */\n    tag_25:\n        /* \"#utility.yul\":6250:6254   */\n      0x00\n        /* \"#utility.yul\":6288:6291   */\n      0xc0\n        /* \"#utility.yul\":6277:6286   */\n      dup3\n        /* \"#utility.yul\":6273:6292   */\n      add\n        /* \"#utility.yul\":6265:6292   */\n      swap1\n      pop\n        /* \"#utility.yul\":6338:6347   */\n      dup2\n        /* \"#utility.yul\":6332:6336   */\n      dup2\n        /* \"#utility.yul\":6328:6348   */\n      sub\n        /* \"#utility.yul\":6324:6325   */\n      0x00\n        /* \"#utility.yul\":6313:6322   */\n      dup4\n        /* \"#utility.yul\":6309:6326   */\n      add\n        /* \"#utility.yul\":6302:6349   */\n      mstore\n        /* \"#utility.yul\":6366:6444   */\n      tag_319\n        /* \"#utility.yul\":6439:6443   */\n      dup2\n        /* \"#utility.yul\":6430:6436   */\n      dup10\n        /* \"#utility.yul\":6366:6444   */\n      tag_194\n      jump\t// in\n    tag_319:\n        /* \"#utility.yul\":6358:6444   */\n      swap1\n      pop\n        /* \"#utility.yul\":6491:6500   */\n      dup2\n        /* \"#utility.yul\":6485:6489   */\n      dup2\n        /* \"#utility.yul\":6481:6501   */\n      sub\n        /* \"#utility.yul\":6476:6478   */\n      0x20\n        /* \"#utility.yul\":6465:6474   */\n      dup4\n        /* \"#utility.yul\":6461:6479   */\n      add\n        /* \"#utility.yul\":6454:6502   */\n      mstore\n        /* \"#utility.yul\":6519:6597   */\n      tag_320\n        /* \"#utility.yul\":6592:6596   */\n      dup2\n        /* \"#utility.yul\":6583:6589   */\n      dup9\n        /* \"#utility.yul\":6519:6597   */\n      tag_194\n      jump\t// in\n    tag_320:\n        /* \"#utility.yul\":6511:6597   */\n      swap1\n      pop\n        /* \"#utility.yul\":6644:6653   */\n      dup2\n        /* \"#utility.yul\":6638:6642   */\n      dup2\n        /* \"#utility.yul\":6634:6654   */\n      sub\n        /* \"#utility.yul\":6629:6631   */\n      0x40\n        /* \"#utility.yul\":6618:6627   */\n      dup4\n        /* \"#utility.yul\":6614:6632   */\n      add\n        /* \"#utility.yul\":6607:6655   */\n      mstore\n        /* \"#utility.yul\":6672:6750   */\n      tag_321\n        /* \"#utility.yul\":6745:6749   */\n      dup2\n        /* \"#utility.yul\":6736:6742   */\n      dup8\n        /* \"#utility.yul\":6672:6750   */\n      tag_194\n      jump\t// in\n    tag_321:\n        /* \"#utility.yul\":6664:6750   */\n      swap1\n      pop\n        /* \"#utility.yul\":6760:6832   */\n      tag_322\n        /* \"#utility.yul\":6828:6830   */\n      0x60\n        /* \"#utility.yul\":6817:6826   */\n      dup4\n        /* \"#utility.yul\":6813:6831   */\n      add\n        /* \"#utility.yul\":6804:6810   */\n      dup7\n        /* \"#utility.yul\":6760:6832   */\n      tag_207\n      jump\t// in\n    tag_322:\n        /* \"#utility.yul\":6842:6915   */\n      tag_323\n        /* \"#utility.yul\":6910:6913   */\n      0x80\n        /* \"#utility.yul\":6899:6908   */\n      dup4\n        /* \"#utility.yul\":6895:6914   */\n      add\n        /* \"#utility.yul\":6886:6892   */\n      dup6\n        /* \"#utility.yul\":6842:6915   */\n      tag_207\n      jump\t// in\n    tag_323:\n        /* \"#utility.yul\":6925:6998   */\n      tag_324\n        /* \"#utility.yul\":6993:6996   */\n      0xa0\n        /* \"#utility.yul\":6982:6991   */\n      dup4\n        /* \"#utility.yul\":6978:6997   */\n      add\n        /* \"#utility.yul\":6969:6975   */\n      dup5\n        /* \"#utility.yul\":6925:6998   */\n      tag_207\n      jump\t// in\n    tag_324:\n        /* \"#utility.yul\":5957:7005   */\n      swap8\n      swap7\n      pop\n      pop\n      pop\n      pop\n      pop\n      pop\n      pop\n      jump\t// out\n        /* \"#utility.yul\":7011:7340   */\n    tag_28:\n        /* \"#utility.yul\":7070:7076   */\n      0x00\n        /* \"#utility.yul\":7119:7121   */\n      0x20\n        /* \"#utility.yul\":7107:7116   */\n      dup3\n        /* \"#utility.yul\":7098:7105   */\n      dup5\n        /* \"#utility.yul\":7094:7117   */\n      sub\n        /* \"#utility.yul\":7090:7122   */\n      slt\n        /* \"#utility.yul\":7087:7206   */\n      iszero\n      tag_326\n      jumpi\n        /* \"#utility.yul\":7125:7204   */\n      tag_327\n      tag_185\n      jump\t// in\n    tag_327:\n        /* \"#utility.yul\":7087:7206   */\n    tag_326:\n        /* \"#utility.yul\":7245:7246   */\n      0x00\n        /* \"#utility.yul\":7270:7323   */\n      tag_328\n        /* \"#utility.yul\":7315:7322   */\n      dup5\n        /* \"#utility.yul\":7306:7312   */\n      dup3\n        /* \"#utility.yul\":7295:7304   */\n      dup6\n        /* \"#utility.yul\":7291:7313   */\n      add\n        /* \"#utility.yul\":7270:7323   */\n      tag_198\n      jump\t// in\n    tag_328:\n        /* \"#utility.yul\":7260:7323   */\n      swap2\n      pop\n        /* \"#utility.yul\":7216:7333   */\n      pop\n        /* \"#utility.yul\":7011:7340   */\n      swap3\n      swap2\n      pop\n      pop\n      jump\t// out\n        /* \"#utility.yul\":7346:7820   */\n    tag_33:\n        /* \"#utility.yul\":7414:7420   */\n      0x00\n        /* \"#utility.yul\":7422:7428   */\n      dup1\n        /* \"#utility.yul\":7471:7473   */\n      0x40\n        /* \"#utility.yul\":7459:7468   */\n      dup4\n        /* \"#utility.yul\":7450:7457   */\n      dup6\n        /* \"#utility.yul\":7446:7469   */\n      sub\n        /* \"#utility.yul\":7442:7474   */\n      slt\n        /* \"#utility.yul\":7439:7558   */\n      iszero\n      tag_330\n      jumpi\n        /* \"#utility.yul\":7477:7556   */\n      tag_331\n      tag_185\n      jump\t// in\n    tag_331:\n        /* \"#utility.yul\":7439:7558   */\n    tag_330:\n        /* \"#utility.yul\":7597:7598   */\n      0x00\n        /* \"#utility.yul\":7622:7675   */\n      tag_332\n        /* \"#utility.yul\":7667:7674   */\n      dup6\n        /* \"#utility.yul\":7658:7664   */\n      dup3\n        /* \"#utility.yul\":7647:7656   */\n      dup7\n        /* \"#utility.yul\":7643:7665   */\n      add\n        /* \"#utility.yul\":7622:7675   */\n      tag_198\n      jump\t// in\n    tag_332:\n        /* \"#utility.yul\":7612:7675   */\n      swap3\n      pop\n        /* \"#utility.yul\":7568:7685   */\n      pop\n        /* \"#utility.yul\":7724:7726   */\n      0x20\n        /* \"#utility.yul\":7750:7803   */\n      tag_333\n        /* \"#utility.yul\":7795:7802   */\n      dup6\n        /* \"#utility.yul\":7786:7792   */\n      dup3\n        /* \"#utility.yul\":7775:7784   */\n      dup7\n        /* \"#utility.yul\":7771:7793   */\n      add\n        /* \"#utility.yul\":7750:7803   */\n      tag_189\n      jump\t// in\n    tag_333:\n        /* \"#utility.yul\":7740:7803   */\n      swap2\n      pop\n        /* \"#utility.yul\":7695:7813   */\n      pop\n        /* \"#utility.yul\":7346:7820   */\n      swap3\n      pop\n      swap3\n      swap1\n      pop\n      jump\t// out\n        /* \"#utility.yul\":7826:7944   */\n    tag_208:\n        /* \"#utility.yul\":7913:7937   */\n      tag_335\n        /* \"#utility.yul\":7931:7936   */\n      dup2\n        /* \"#utility.yul\":7913:7937   */\n      tag_196\n      jump\t// in\n    tag_335:\n        /* \"#utility.yul\":7908:7911   */\n      dup3\n        /* \"#utility.yul\":7901:7938   */\n      mstore\n        /* \"#utility.yul\":7826:7944   */\n      pop\n      pop\n      jump\t// out\n        /* \"#utility.yul\":7950:8172   */\n    tag_40:\n        /* \"#utility.yul\":8043:8047   */\n      0x00\n        /* \"#utility.yul\":8081:8083   */\n      0x20\n        /* \"#utility.yul\":8070:8079   */\n      dup3\n        /* \"#utility.yul\":8066:8084   */\n      add\n        /* \"#utility.yul\":8058:8084   */\n      swap1\n      pop\n        /* \"#utility.yul\":8094:8165   */\n      tag_337\n        /* \"#utility.yul\":8162:8163   */\n      0x00\n        /* \"#utility.yul\":8151:8160   */\n      dup4\n        /* \"#utility.yul\":8147:8164   */\n      add\n        /* \"#utility.yul\":8138:8144   */\n      dup5\n        /* \"#utility.yul\":8094:8165   */\n      tag_208\n      jump\t// in\n    tag_337:\n        /* \"#utility.yul\":7950:8172   */\n      swap3\n      swap2\n      pop\n      pop\n      jump\t// out\n        /* \"#utility.yul\":8178:9775   */\n    tag_43:\n        /* \"#utility.yul\":8312:8318   */\n      0x00\n        /* \"#utility.yul\":8320:8326   */\n      dup1\n        /* \"#utility.yul\":8328:8334   */\n      0x00\n        /* \"#utility.yul\":8336:8342   */\n      dup1\n        /* \"#utility.yul\":8344:8350   */\n      0x00\n        /* \"#utility.yul\":8352:8358   */\n      dup1\n        /* \"#utility.yul\":8401:8404   */\n      0xc0\n        /* \"#utility.yul\":8389:8398   */\n      dup8\n        /* \"#utility.yul\":8380:8387   */\n      dup10\n        /* \"#utility.yul\":8376:8399   */\n      sub\n        /* \"#utility.yul\":8372:8405   */\n      slt\n        /* \"#utility.yul\":8369:8489   */\n      iszero\n      tag_339\n      jumpi\n        /* \"#utility.yul\":8408:8487   */\n      tag_340\n      tag_185\n      jump\t// in\n    tag_340:\n        /* \"#utility.yul\":8369:8489   */\n    tag_339:\n        /* \"#utility.yul\":8556:8557   */\n      0x00\n        /* \"#utility.yul\":8545:8554   */\n      dup8\n        /* \"#utility.yul\":8541:8558   */\n      add\n        /* \"#utility.yul\":8528:8559   */\n      calldataload\n        /* \"#utility.yul\":8586:8604   */\n      0xffffffffffffffff\n        /* \"#utility.yul\":8578:8584   */\n      dup2\n        /* \"#utility.yul\":8575:8605   */\n      gt\n        /* \"#utility.yul\":8572:8689   */\n      iszero\n      tag_341\n      jumpi\n        /* \"#utility.yul\":8608:8687   */\n      tag_342\n      tag_186\n      jump\t// in\n    tag_342:\n        /* \"#utility.yul\":8572:8689   */\n    tag_341:\n        /* \"#utility.yul\":8713:8776   */\n      tag_343\n        /* \"#utility.yul\":8768:8775   */\n      dup10\n        /* \"#utility.yul\":8759:8765   */\n      dup3\n        /* \"#utility.yul\":8748:8757   */\n      dup11\n        /* \"#utility.yul\":8744:8766   */\n      add\n        /* \"#utility.yul\":8713:8776   */\n      tag_206\n      jump\t// in\n    tag_343:\n        /* \"#utility.yul\":8703:8776   */\n      swap7\n      pop\n        /* \"#utility.yul\":8499:8786   */\n      pop\n        /* \"#utility.yul\":8853:8855   */\n      0x20\n        /* \"#utility.yul\":8842:8851   */\n      dup8\n        /* \"#utility.yul\":8838:8856   */\n      add\n        /* \"#utility.yul\":8825:8857   */\n      calldataload\n        /* \"#utility.yul\":8884:8902   */\n      0xffffffffffffffff\n        /* \"#utility.yul\":8876:8882   */\n      dup2\n        /* \"#utility.yul\":8873:8903   */\n      gt\n        /* \"#utility.yul\":8870:8987   */\n      iszero\n      tag_344\n      jumpi\n        /* \"#utility.yul\":8906:8985   */\n      tag_345\n      tag_186\n      jump\t// in\n    tag_345:\n        /* \"#utility.yul\":8870:8987   */\n    tag_344:\n        /* \"#utility.yul\":9011:9074   */\n      tag_346\n        /* \"#utility.yul\":9066:9073   */\n      dup10\n        /* \"#utility.yul\":9057:9063   */\n      dup3\n        /* \"#utility.yul\":9046:9055   */\n      dup11\n        /* \"#utility.yul\":9042:9064   */\n      add\n        /* \"#utility.yul\":9011:9074   */\n      tag_206\n      jump\t// in\n    tag_346:\n        /* \"#utility.yul\":9001:9074   */\n      swap6\n      pop\n        /* \"#utility.yul\":8796:9084   */\n      pop\n        /* \"#utility.yul\":9151:9153   */\n      0x40\n        /* \"#utility.yul\":9140:9149   */\n      dup8\n        /* \"#utility.yul\":9136:9154   */\n      add\n        /* \"#utility.yul\":9123:9155   */\n      calldataload\n        /* \"#utility.yul\":9182:9200   */\n      0xffffffffffffffff\n        /* \"#utility.yul\":9174:9180   */\n      dup2\n        /* \"#utility.yul\":9171:9201   */\n      gt\n        /* \"#utility.yul\":9168:9285   */\n      iszero\n      tag_347\n      jumpi\n        /* \"#utility.yul\":9204:9283   */\n      tag_348\n      tag_186\n      jump\t// in\n    tag_348:\n        /* \"#utility.yul\":9168:9285   */\n    tag_347:\n        /* \"#utility.yul\":9309:9372   */\n      tag_349\n        /* \"#utility.yul\":9364:9371   */\n      dup10\n        /* \"#utility.yul\":9355:9361   */\n      dup3\n        /* \"#utility.yul\":9344:9353   */\n      dup11\n        /* \"#utility.yul\":9340:9362   */\n      add\n        /* \"#utility.yul\":9309:9372   */\n      tag_206\n      jump\t// in\n    tag_349:\n        /* \"#utility.yul\":9299:9372   */\n      swap5\n      pop\n        /* \"#utility.yul\":9094:9382   */\n      pop\n        /* \"#utility.yul\":9421:9423   */\n      0x60\n        /* \"#utility.yul\":9447:9500   */\n      tag_350\n        /* \"#utility.yul\":9492:9499   */\n      dup10\n        /* \"#utility.yul\":9483:9489   */\n      dup3\n        /* \"#utility.yul\":9472:9481   */\n      dup11\n        /* \"#utility.yul\":9468:9490   */\n      add\n        /* \"#utility.yul\":9447:9500   */\n      tag_189\n      jump\t// in\n    tag_350:\n        /* \"#utility.yul\":9437:9500   */\n      swap4\n      pop\n        /* \"#utility.yul\":9392:9510   */\n      pop\n        /* \"#utility.yul\":9549:9552   */\n      0x80\n        /* \"#utility.yul\":9576:9629   */\n      tag_351\n        /* \"#utility.yul\":9621:9628   */\n      dup10\n        /* \"#utility.yul\":9612:9618   */\n      dup3\n        /* \"#utility.yul\":9601:9610   */\n      dup11\n        /* \"#utility.yul\":9597:9619   */\n      add\n        /* \"#utility.yul\":9576:9629   */\n      tag_189\n      jump\t// in\n    tag_351:\n        /* \"#utility.yul\":9566:9629   */\n      swap3\n      pop\n        /* \"#utility.yul\":9520:9639   */\n      pop\n        /* \"#utility.yul\":9678:9681   */\n      0xa0\n        /* \"#utility.yul\":9705:9758   */\n      tag_352\n        /* \"#utility.yul\":9750:9757   */\n      dup10\n        /* \"#utility.yul\":9741:9747   */\n      dup3\n        /* \"#utility.yul\":9730:9739   */\n      dup11\n        /* \"#utility.yul\":9726:9748   */\n      add\n        /* \"#utility.yul\":9705:9758   */\n      tag_189\n      jump\t// in\n    tag_352:\n        /* \"#utility.yul\":9695:9758   */\n      swap2\n      pop\n        /* \"#utility.yul\":9649:9768   */\n      pop\n        /* \"#utility.yul\":8178:9775   */\n      swap3\n      swap6\n      pop\n      swap3\n      swap6\n      pop\n      swap3\n      swap6\n      jump\t// out\n        /* \"#utility.yul\":9781:10290   */\n    tag_47:\n        /* \"#utility.yul\":9850:9856   */\n      0x00\n        /* \"#utility.yul\":9899:9901   */\n      0x20\n        /* \"#utility.yul\":9887:9896   */\n      dup3\n        /* \"#utility.yul\":9878:9885   */\n      dup5\n        /* \"#utility.yul\":9874:9897   */\n      sub\n        /* \"#utility.yul\":9870:9902   */\n      slt\n        /* \"#utility.yul\":9867:9986   */\n      iszero\n      tag_354\n      jumpi\n        /* \"#utility.yul\":9905:9984   */\n      tag_355\n      tag_185\n      jump\t// in\n    tag_355:\n        /* \"#utility.yul\":9867:9986   */\n    tag_354:\n        /* \"#utility.yul\":10053:10054   */\n      0x00\n        /* \"#utility.yul\":10042:10051   */\n      dup3\n        /* \"#utility.yul\":10038:10055   */\n      add\n        /* \"#utility.yul\":10025:10056   */\n      calldataload\n        /* \"#utility.yul\":10083:10101   */\n      0xffffffffffffffff\n        /* \"#utility.yul\":10075:10081   */\n      dup2\n        /* \"#utility.yul\":10072:10102   */\n      gt\n        /* \"#utility.yul\":10069:10186   */\n      iszero\n      tag_356\n      jumpi\n        /* \"#utility.yul\":10105:10184   */\n      tag_357\n      tag_186\n      jump\t// in\n    tag_357:\n        /* \"#utility.yul\":10069:10186   */\n    tag_356:\n        /* \"#utility.yul\":10210:10273   */\n      tag_358\n        /* \"#utility.yul\":10265:10272   */\n      dup5\n        /* \"#utility.yul\":10256:10262   */\n      dup3\n        /* \"#utility.yul\":10245:10254   */\n      dup6\n        /* \"#utility.yul\":10241:10263   */\n      add\n        /* \"#utility.yul\":10210:10273   */\n      tag_206\n      jump\t// in\n    tag_358:\n        /* \"#utility.yul\":10200:10273   */\n      swap2\n      pop\n        /* \"#utility.yul\":9996:10283   */\n      pop\n        /* \"#utility.yul\":9781:10290   */\n      swap3\n      swap2\n      pop\n      pop\n      jump\t// out\n        /* \"#utility.yul\":10296:10420   */\n    tag_209:\n        /* \"#utility.yul\":10373:10379   */\n      0x00\n        /* \"#utility.yul\":10407:10412   */\n      dup2\n        /* \"#utility.yul\":10401:10413   */\n      mload\n        /* \"#utility.yul\":10391:10413   */\n      swap1\n      pop\n        /* \"#utility.yul\":10296:10420   */\n      swap2\n      swap1\n      pop\n      jump\t// out\n        /* \"#utility.yul\":10426:10620   */\n    tag_210:\n        /* \"#utility.yul\":10535:10546   */\n      0x00\n        /* \"#utility.yul\":10569:10575   */\n      dup3\n        /* \"#utility.yul\":10564:10567   */\n      dup3\n        /* \"#utility.yul\":10557:10576   */\n      mstore\n        /* \"#utility.yul\":10609:10613   */\n      0x20\n        /* \"#utility.yul\":10604:10607   */\n      dup3\n        /* \"#utility.yul\":10600:10614   */\n      add\n        /* \"#utility.yul\":10585:10614   */\n      swap1\n      pop\n        /* \"#utility.yul\":10426:10620   */\n      swap3\n      swap2\n      pop\n      pop\n      jump\t// out\n        /* \"#utility.yul\":10626:10768   */\n    tag_211:\n        /* \"#utility.yul\":10703:10707   */\n      0x00\n        /* \"#utility.yul\":10726:10729   */\n      dup2\n        /* \"#utility.yul\":10718:10729   */\n      swap1\n      pop\n        /* \"#utility.yul\":10756:10760   */\n      0x20\n        /* \"#utility.yul\":10751:10754   */\n      dup3\n        /* \"#utility.yul\":10747:10761   */\n      add\n        /* \"#utility.yul\":10739:10761   */\n      swap1\n      pop\n        /* \"#utility.yul\":10626:10768   */\n      swap2\n      swap1\n      pop\n      jump\t// out\n        /* \"#utility.yul\":10774:10933   */\n    tag_212:\n        /* \"#utility.yul\":10848:10859   */\n      0x00\n        /* \"#utility.yul\":10882:10888   */\n      dup3\n        /* \"#utility.yul\":10877:10880   */\n      dup3\n        /* \"#utility.yul\":10870:10889   */\n      mstore\n        /* \"#utility.yul\":10922:10926   */\n      0x20\n        /* \"#utility.yul\":10917:10920   */\n      dup3\n        /* \"#utility.yul\":10913:10927   */\n      add\n        /* \"#utility.yul\":10898:10927   */\n      swap1\n      pop\n        /* \"#utility.yul\":10774:10933   */\n      swap3\n      swap2\n      pop\n      pop\n      jump\t// out\n        /* \"#utility.yul\":10939:11283   */\n    tag_213:\n        /* \"#utility.yul\":11017:11020   */\n      0x00\n        /* \"#utility.yul\":11045:11084   */\n      tag_364\n        /* \"#utility.yul\":11078:11083   */\n      dup3\n        /* \"#utility.yul\":11045:11084   */\n      tag_190\n      jump\t// in\n    tag_364:\n        /* \"#utility.yul\":11100:11161   */\n      tag_365\n        /* \"#utility.yul\":11154:11160   */\n      dup2\n        /* \"#utility.yul\":11149:11152   */\n      dup6\n        /* \"#utility.yul\":11100:11161   */\n      tag_212\n      jump\t// in\n    tag_365:\n        /* \"#utility.yul\":11093:11161   */\n      swap4\n      pop\n        /* \"#utility.yul\":11170:11222   */\n      tag_366\n        /* \"#utility.yul\":11215:11221   */\n      dup2\n        /* \"#utility.yul\":11210:11213   */\n      dup6\n        /* \"#utility.yul\":11203:11207   */\n      0x20\n        /* \"#utility.yul\":11196:11201   */\n      dup7\n        /* \"#utility.yul\":11192:11208   */\n      add\n        /* \"#utility.yul\":11170:11222   */\n      tag_192\n      jump\t// in\n    tag_366:\n        /* \"#utility.yul\":11247:11276   */\n      tag_367\n        /* \"#utility.yul\":11269:11275   */\n      dup2\n        /* \"#utility.yul\":11247:11276   */\n      tag_193\n      jump\t// in\n    tag_367:\n        /* \"#utility.yul\":11242:11245   */\n      dup5\n        /* \"#utility.yul\":11238:11277   */\n      add\n        /* \"#utility.yul\":11231:11277   */\n      swap2\n      pop\n        /* \"#utility.yul\":11021:11283   */\n      pop\n        /* \"#utility.yul\":10939:11283   */\n      swap3\n      swap2\n      pop\n      pop\n      jump\t// out\n        /* \"#utility.yul\":11289:11485   */\n    tag_214:\n        /* \"#utility.yul\":11378:11388   */\n      0x00\n        /* \"#utility.yul\":11413:11479   */\n      tag_369\n        /* \"#utility.yul\":11475:11478   */\n      dup4\n        /* \"#utility.yul\":11467:11473   */\n      dup4\n        /* \"#utility.yul\":11413:11479   */\n      tag_213\n      jump\t// in\n    tag_369:\n        /* \"#utility.yul\":11399:11479   */\n      swap1\n      pop\n        /* \"#utility.yul\":11289:11485   */\n      swap3\n      swap2\n      pop\n      pop\n      jump\t// out\n        /* \"#utility.yul\":11491:11614   */\n    tag_215:\n        /* \"#utility.yul\":11571:11575   */\n      0x00\n        /* \"#utility.yul\":11603:11607   */\n      0x20\n        /* \"#utility.yul\":11598:11601   */\n      dup3\n        /* \"#utility.yul\":11594:11608   */\n      add\n        /* \"#utility.yul\":11586:11608   */\n      swap1\n      pop\n        /* \"#utility.yul\":11491:11614   */\n      swap2\n      swap1\n      pop\n      jump\t// out\n        /* \"#utility.yul\":11648:12639   */\n    tag_216:\n        /* \"#utility.yul\":11787:11790   */\n      0x00\n        /* \"#utility.yul\":11816:11880   */\n      tag_372\n        /* \"#utility.yul\":11874:11879   */\n      dup3\n        /* \"#utility.yul\":11816:11880   */\n      tag_209\n      jump\t// in\n    tag_372:\n        /* \"#utility.yul\":11896:11992   */\n      tag_373\n        /* \"#utility.yul\":11985:11991   */\n      dup2\n        /* \"#utility.yul\":11980:11983   */\n      dup6\n        /* \"#utility.yul\":11896:11992   */\n      tag_210\n      jump\t// in\n    tag_373:\n        /* \"#utility.yul\":11889:11992   */\n      swap4\n      pop\n        /* \"#utility.yul\":12018:12021   */\n      dup4\n        /* \"#utility.yul\":12063:12067   */\n      0x20\n        /* \"#utility.yul\":12055:12061   */\n      dup3\n        /* \"#utility.yul\":12051:12068   */\n      mul\n        /* \"#utility.yul\":12046:12049   */\n      dup6\n        /* \"#utility.yul\":12042:12069   */\n      add\n        /* \"#utility.yul\":12093:12159   */\n      tag_374\n        /* \"#utility.yul\":12153:12158   */\n      dup6\n        /* \"#utility.yul\":12093:12159   */\n      tag_211\n      jump\t// in\n    tag_374:\n        /* \"#utility.yul\":12182:12189   */\n      dup1\n        /* \"#utility.yul\":12213:12214   */\n      0x00\n        /* \"#utility.yul\":12198:12594   */\n    tag_375:\n        /* \"#utility.yul\":12223:12229   */\n      dup6\n        /* \"#utility.yul\":12220:12221   */\n      dup2\n        /* \"#utility.yul\":12217:12230   */\n      lt\n        /* \"#utility.yul\":12198:12594   */\n      iszero\n      tag_377\n      jumpi\n        /* \"#utility.yul\":12294:12303   */\n      dup5\n        /* \"#utility.yul\":12288:12292   */\n      dup5\n        /* \"#utility.yul\":12284:12304   */\n      sub\n        /* \"#utility.yul\":12279:12282   */\n      dup10\n        /* \"#utility.yul\":12272:12305   */\n      mstore\n        /* \"#utility.yul\":12345:12351   */\n      dup2\n        /* \"#utility.yul\":12339:12352   */\n      mload\n        /* \"#utility.yul\":12373:12457   */\n      tag_378\n        /* \"#utility.yul\":12452:12456   */\n      dup6\n        /* \"#utility.yul\":12437:12450   */\n      dup3\n        /* \"#utility.yul\":12373:12457   */\n      tag_214\n      jump\t// in\n    tag_378:\n        /* \"#utility.yul\":12365:12457   */\n      swap5\n      pop\n        /* \"#utility.yul\":12480:12550   */\n      tag_379\n        /* \"#utility.yul\":12543:12549   */\n      dup4\n        /* \"#utility.yul\":12480:12550   */\n      tag_215\n      jump\t// in\n    tag_379:\n        /* \"#utility.yul\":12470:12550   */\n      swap3\n      pop\n        /* \"#utility.yul\":12579:12583   */\n      0x20\n        /* \"#utility.yul\":12574:12577   */\n      dup11\n        /* \"#utility.yul\":12570:12584   */\n      add\n        /* \"#utility.yul\":12563:12584   */\n      swap10\n      pop\n        /* \"#utility.yul\":12258:12594   */\n      pop\n        /* \"#utility.yul\":12245:12246   */\n      0x01\n        /* \"#utility.yul\":12242:12243   */\n      dup2\n        /* \"#utility.yul\":12238:12247   */\n      add\n        /* \"#utility.yul\":12233:12247   */\n      swap1\n      pop\n        /* \"#utility.yul\":12198:12594   */\n      jump(tag_375)\n    tag_377:\n        /* \"#utility.yul\":12202:12216   */\n      pop\n        /* \"#utility.yul\":12610:12614   */\n      dup3\n        /* \"#utility.yul\":12603:12614   */\n      swap8\n      pop\n        /* \"#utility.yul\":12630:12633   */\n      dup8\n        /* \"#utility.yul\":12623:12633   */\n      swap6\n      pop\n        /* \"#utility.yul\":11792:12639   */\n      pop\n      pop\n      pop\n      pop\n      pop\n        /* \"#utility.yul\":11648:12639   */\n      swap3\n      swap2\n      pop\n      pop\n      jump\t// out\n        /* \"#utility.yul\":12645:12790   */\n    tag_217:\n        /* \"#utility.yul\":12743:12749   */\n      0x00\n        /* \"#utility.yul\":12777:12782   */\n      dup2\n        /* \"#utility.yul\":12771:12783   */\n      mload\n        /* \"#utility.yul\":12761:12783   */\n      swap1\n      pop\n        /* \"#utility.yul\":12645:12790   */\n      swap2\n      swap1\n      pop\n      jump\t// out\n        /* \"#utility.yul\":12796:13011   */\n    tag_218:\n        /* \"#utility.yul\":12926:12937   */\n      0x00\n        /* \"#utility.yul\":12960:12966   */\n      dup3\n        /* \"#utility.yul\":12955:12958   */\n      dup3\n        /* \"#utility.yul\":12948:12967   */\n      mstore\n        /* \"#utility.yul\":13000:13004   */\n      0x20\n        /* \"#utility.yul\":12995:12998   */\n      dup3\n        /* \"#utility.yul\":12991:13005   */\n      add\n        /* \"#utility.yul\":12976:13005   */\n      swap1\n      pop\n        /* \"#utility.yul\":12796:13011   */\n      swap3\n      swap2\n      pop\n      pop\n      jump\t// out\n        /* \"#utility.yul\":13017:13180   */\n    tag_219:\n        /* \"#utility.yul\":13115:13119   */\n      0x00\n        /* \"#utility.yul\":13138:13141   */\n      dup2\n        /* \"#utility.yul\":13130:13141   */\n      swap1\n      pop\n        /* \"#utility.yul\":13168:13172   */\n      0x20\n        /* \"#utility.yul\":13163:13166   */\n      dup3\n        /* \"#utility.yul\":13159:13173   */\n      add\n        /* \"#utility.yul\":13151:13173   */\n      swap1\n      pop\n        /* \"#utility.yul\":13017:13180   */\n      swap2\n      swap1\n      pop\n      jump\t// out\n        /* \"#utility.yul\":13186:13294   */\n    tag_220:\n        /* \"#utility.yul\":13263:13287   */\n      tag_384\n        /* \"#utility.yul\":13281:13286   */\n      dup2\n        /* \"#utility.yul\":13263:13287   */\n      tag_187\n      jump\t// in\n    tag_384:\n        /* \"#utility.yul\":13258:13261   */\n      dup3\n        /* \"#utility.yul\":13251:13288   */\n      mstore\n        /* \"#utility.yul\":13186:13294   */\n      pop\n      pop\n      jump\t// out\n        /* \"#utility.yul\":13400:14882   */\n    tag_221:\n        /* \"#utility.yul\":13521:13524   */\n      0x00\n        /* \"#utility.yul\":13557:13561   */\n      0xc0\n        /* \"#utility.yul\":13552:13555   */\n      dup4\n        /* \"#utility.yul\":13548:13562   */\n      add\n        /* \"#utility.yul\":13644:13648   */\n      0x00\n        /* \"#utility.yul\":13637:13642   */\n      dup4\n        /* \"#utility.yul\":13633:13649   */\n      add\n        /* \"#utility.yul\":13627:13650   */\n      mload\n        /* \"#utility.yul\":13697:13700   */\n      dup5\n        /* \"#utility.yul\":13691:13695   */\n      dup3\n        /* \"#utility.yul\":13687:13701   */\n      sub\n        /* \"#utility.yul\":13680:13684   */\n      0x00\n        /* \"#utility.yul\":13675:13678   */\n      dup7\n        /* \"#utility.yul\":13671:13685   */\n      add\n        /* \"#utility.yul\":13664:13702   */\n      mstore\n        /* \"#utility.yul\":13723:13796   */\n      tag_386\n        /* \"#utility.yul\":13791:13795   */\n      dup3\n        /* \"#utility.yul\":13777:13789   */\n      dup3\n        /* \"#utility.yul\":13723:13796   */\n      tag_213\n      jump\t// in\n    tag_386:\n        /* \"#utility.yul\":13715:13796   */\n      swap2\n      pop\n        /* \"#utility.yul\":13572:13807   */\n      pop\n        /* \"#utility.yul\":13891:13895   */\n      0x20\n        /* \"#utility.yul\":13884:13889   */\n      dup4\n        /* \"#utility.yul\":13880:13896   */\n      add\n        /* \"#utility.yul\":13874:13897   */\n      mload\n        /* \"#utility.yul\":13944:13947   */\n      dup5\n        /* \"#utility.yul\":13938:13942   */\n      dup3\n        /* \"#utility.yul\":13934:13948   */\n      sub\n        /* \"#utility.yul\":13927:13931   */\n      0x20\n        /* \"#utility.yul\":13922:13925   */\n      dup7\n        /* \"#utility.yul\":13918:13932   */\n      add\n        /* \"#utility.yul\":13911:13949   */\n      mstore\n        /* \"#utility.yul\":13970:14043   */\n      tag_387\n        /* \"#utility.yul\":14038:14042   */\n      dup3\n        /* \"#utility.yul\":14024:14036   */\n      dup3\n        /* \"#utility.yul\":13970:14043   */\n      tag_213\n      jump\t// in\n    tag_387:\n        /* \"#utility.yul\":13962:14043   */\n      swap2\n      pop\n        /* \"#utility.yul\":13817:14054   */\n      pop\n        /* \"#utility.yul\":14147:14151   */\n      0x40\n        /* \"#utility.yul\":14140:14145   */\n      dup4\n        /* \"#utility.yul\":14136:14152   */\n      add\n        /* \"#utility.yul\":14130:14153   */\n      mload\n        /* \"#utility.yul\":14200:14203   */\n      dup5\n        /* \"#utility.yul\":14194:14198   */\n      dup3\n        /* \"#utility.yul\":14190:14204   */\n      sub\n        /* \"#utility.yul\":14183:14187   */\n      0x40\n        /* \"#utility.yul\":14178:14181   */\n      dup7\n        /* \"#utility.yul\":14174:14188   */\n      add\n        /* \"#utility.yul\":14167:14205   */\n      mstore\n        /* \"#utility.yul\":14226:14299   */\n      tag_388\n        /* \"#utility.yul\":14294:14298   */\n      dup3\n        /* \"#utility.yul\":14280:14292   */\n      dup3\n        /* \"#utility.yul\":14226:14299   */\n      tag_213\n      jump\t// in\n    tag_388:\n        /* \"#utility.yul\":14218:14299   */\n      swap2\n      pop\n        /* \"#utility.yul\":14064:14310   */\n      pop\n        /* \"#utility.yul\":14402:14406   */\n      0x60\n        /* \"#utility.yul\":14395:14400   */\n      dup4\n        /* \"#utility.yul\":14391:14407   */\n      add\n        /* \"#utility.yul\":14385:14408   */\n      mload\n        /* \"#utility.yul\":14421:14484   */\n      tag_389\n        /* \"#utility.yul\":14478:14482   */\n      0x60\n        /* \"#utility.yul\":14473:14476   */\n      dup7\n        /* \"#utility.yul\":14469:14483   */\n      add\n        /* \"#utility.yul\":14455:14467   */\n      dup3\n        /* \"#utility.yul\":14421:14484   */\n      tag_220\n      jump\t// in\n    tag_389:\n        /* \"#utility.yul\":14320:14494   */\n      pop\n        /* \"#utility.yul\":14585:14589   */\n      0x80\n        /* \"#utility.yul\":14578:14583   */\n      dup4\n        /* \"#utility.yul\":14574:14590   */\n      add\n        /* \"#utility.yul\":14568:14591   */\n      mload\n        /* \"#utility.yul\":14604:14667   */\n      tag_390\n        /* \"#utility.yul\":14661:14665   */\n      0x80\n        /* \"#utility.yul\":14656:14659   */\n      dup7\n        /* \"#utility.yul\":14652:14666   */\n      add\n        /* \"#utility.yul\":14638:14650   */\n      dup3\n        /* \"#utility.yul\":14604:14667   */\n      tag_220\n      jump\t// in\n    tag_390:\n        /* \"#utility.yul\":14504:14677   */\n      pop\n        /* \"#utility.yul\":14763:14767   */\n      0xa0\n        /* \"#utility.yul\":14756:14761   */\n      dup4\n        /* \"#utility.yul\":14752:14768   */\n      add\n        /* \"#utility.yul\":14746:14769   */\n      mload\n        /* \"#utility.yul\":14782:14845   */\n      tag_391\n        /* \"#utility.yul\":14839:14843   */\n      0xa0\n        /* \"#utility.yul\":14834:14837   */\n      dup7\n        /* \"#utility.yul\":14830:14844   */\n      add\n        /* \"#utility.yul\":14816:14828   */\n      dup3\n        /* \"#utility.yul\":14782:14845   */\n      tag_220\n      jump\t// in\n    tag_391:\n        /* \"#utility.yul\":14687:14855   */\n      pop\n        /* \"#utility.yul\":14872:14876   */\n      dup1\n        /* \"#utility.yul\":14865:14876   */\n      swap2\n      pop\n        /* \"#utility.yul\":13526:14882   */\n      pop\n        /* \"#utility.yul\":13400:14882   */\n      swap3\n      swap2\n      pop\n      pop\n      jump\t// out\n        /* \"#utility.yul\":14888:15168   */\n    tag_222:\n        /* \"#utility.yul\":15019:15029   */\n      0x00\n        /* \"#utility.yul\":15054:15162   */\n      tag_393\n        /* \"#utility.yul\":15158:15161   */\n      dup4\n        /* \"#utility.yul\":15150:15156   */\n      dup4\n        /* \"#utility.yul\":15054:15162   */\n      tag_221\n      jump\t// in\n    tag_393:\n        /* \"#utility.yul\":15040:15162   */\n      swap1\n      pop\n        /* \"#utility.yul\":14888:15168   */\n      swap3\n      swap2\n      pop\n      pop\n      jump\t// out\n        /* \"#utility.yul\":15174:15318   */\n    tag_223:\n        /* \"#utility.yul\":15275:15279   */\n      0x00\n        /* \"#utility.yul\":15307:15311   */\n      0x20\n        /* \"#utility.yul\":15302:15305   */\n      dup3\n        /* \"#utility.yul\":15298:15312   */\n      add\n        /* \"#utility.yul\":15290:15312   */\n      swap1\n      pop\n        /* \"#utility.yul\":15174:15318   */\n      swap2\n      swap1\n      pop\n      jump\t// out\n        /* \"#utility.yul\":15428:16587   */\n    tag_224:\n        /* \"#utility.yul\":15609:15612   */\n      0x00\n        /* \"#utility.yul\":15638:15723   */\n      tag_396\n        /* \"#utility.yul\":15717:15722   */\n      dup3\n        /* \"#utility.yul\":15638:15723   */\n      tag_217\n      jump\t// in\n    tag_396:\n        /* \"#utility.yul\":15739:15856   */\n      tag_397\n        /* \"#utility.yul\":15849:15855   */\n      dup2\n        /* \"#utility.yul\":15844:15847   */\n      dup6\n        /* \"#utility.yul\":15739:15856   */\n      tag_218\n      jump\t// in\n    tag_397:\n        /* \"#utility.yul\":15732:15856   */\n      swap4\n      pop\n        /* \"#utility.yul\":15882:15885   */\n      dup4\n        /* \"#utility.yul\":15927:15931   */\n      0x20\n        /* \"#utility.yul\":15919:15925   */\n      dup3\n        /* \"#utility.yul\":15915:15932   */\n      mul\n        /* \"#utility.yul\":15910:15913   */\n      dup6\n        /* \"#utility.yul\":15906:15933   */\n      add\n        /* \"#utility.yul\":15957:16044   */\n      tag_398\n        /* \"#utility.yul\":16038:16043   */\n      dup6\n        /* \"#utility.yul\":15957:16044   */\n      tag_219\n      jump\t// in\n    tag_398:\n        /* \"#utility.yul\":16067:16074   */\n      dup1\n        /* \"#utility.yul\":16098:16099   */\n      0x00\n        /* \"#utility.yul\":16083:16542   */\n    tag_399:\n        /* \"#utility.yul\":16108:16114   */\n      dup6\n        /* \"#utility.yul\":16105:16106   */\n      dup2\n        /* \"#utility.yul\":16102:16115   */\n      lt\n        /* \"#utility.yul\":16083:16542   */\n      iszero\n      tag_401\n      jumpi\n        /* \"#utility.yul\":16179:16188   */\n      dup5\n        /* \"#utility.yul\":16173:16177   */\n      dup5\n        /* \"#utility.yul\":16169:16189   */\n      sub\n        /* \"#utility.yul\":16164:16167   */\n      dup10\n        /* \"#utility.yul\":16157:16190   */\n      mstore\n        /* \"#utility.yul\":16230:16236   */\n      dup2\n        /* \"#utility.yul\":16224:16237   */\n      mload\n        /* \"#utility.yul\":16258:16384   */\n      tag_402\n        /* \"#utility.yul\":16379:16383   */\n      dup6\n        /* \"#utility.yul\":16364:16377   */\n      dup3\n        /* \"#utility.yul\":16258:16384   */\n      tag_222\n      jump\t// in\n    tag_402:\n        /* \"#utility.yul\":16250:16384   */\n      swap5\n      pop\n        /* \"#utility.yul\":16407:16498   */\n      tag_403\n        /* \"#utility.yul\":16491:16497   */\n      dup4\n        /* \"#utility.yul\":16407:16498   */\n      tag_223\n      jump\t// in\n    tag_403:\n        /* \"#utility.yul\":16397:16498   */\n      swap3\n      pop\n        /* \"#utility.yul\":16527:16531   */\n      0x20\n        /* \"#utility.yul\":16522:16525   */\n      dup11\n        /* \"#utility.yul\":16518:16532   */\n      add\n        /* \"#utility.yul\":16511:16532   */\n      swap10\n      pop\n        /* \"#utility.yul\":16143:16542   */\n      pop\n        /* \"#utility.yul\":16130:16131   */\n      0x01\n        /* \"#utility.yul\":16127:16128   */\n      dup2\n        /* \"#utility.yul\":16123:16132   */\n      add\n        /* \"#utility.yul\":16118:16132   */\n      swap1\n      pop\n        /* \"#utility.yul\":16083:16542   */\n      jump(tag_399)\n    tag_401:\n        /* \"#utility.yul\":16087:16101   */\n      pop\n        /* \"#utility.yul\":16558:16562   */\n      dup3\n        /* \"#utility.yul\":16551:16562   */\n      swap8\n      pop\n        /* \"#utility.yul\":16578:16581   */\n      dup8\n        /* \"#utility.yul\":16571:16581   */\n      swap6\n      pop\n        /* \"#utility.yul\":15614:16587   */\n      pop\n      pop\n      pop\n      pop\n      pop\n        /* \"#utility.yul\":15428:16587   */\n      swap3\n      swap2\n      pop\n      pop\n      jump\t// out\n        /* \"#utility.yul\":16593:17391   */\n    tag_50:\n        /* \"#utility.yul\":16896:16900   */\n      0x00\n        /* \"#utility.yul\":16934:16936   */\n      0x40\n        /* \"#utility.yul\":16923:16932   */\n      dup3\n        /* \"#utility.yul\":16919:16937   */\n      add\n        /* \"#utility.yul\":16911:16937   */\n      swap1\n      pop\n        /* \"#utility.yul\":16983:16992   */\n      dup2\n        /* \"#utility.yul\":16977:16981   */\n      dup2\n        /* \"#utility.yul\":16973:16993   */\n      sub\n        /* \"#utility.yul\":16969:16970   */\n      0x00\n        /* \"#utility.yul\":16958:16967   */\n      dup4\n        /* \"#utility.yul\":16954:16971   */\n      add\n        /* \"#utility.yul\":16947:16994   */\n      mstore\n        /* \"#utility.yul\":17011:17139   */\n      tag_405\n        /* \"#utility.yul\":17134:17138   */\n      dup2\n        /* \"#utility.yul\":17125:17131   */\n      dup6\n        /* \"#utility.yul\":17011:17139   */\n      tag_216\n      jump\t// in\n    tag_405:\n        /* \"#utility.yul\":17003:17139   */\n      swap1\n      pop\n        /* \"#utility.yul\":17186:17195   */\n      dup2\n        /* \"#utility.yul\":17180:17184   */\n      dup2\n        /* \"#utility.yul\":17176:17196   */\n      sub\n        /* \"#utility.yul\":17171:17173   */\n      0x20\n        /* \"#utility.yul\":17160:17169   */\n      dup4\n        /* \"#utility.yul\":17156:17174   */\n      add\n        /* \"#utility.yul\":17149:17197   */\n      mstore\n        /* \"#utility.yul\":17214:17384   */\n      tag_406\n        /* \"#utility.yul\":17379:17383   */\n      dup2\n        /* \"#utility.yul\":17370:17376   */\n      dup5\n        /* \"#utility.yul\":17214:17384   */\n      tag_224\n      jump\t// in\n    tag_406:\n        /* \"#utility.yul\":17206:17384   */\n      swap1\n      pop\n        /* \"#utility.yul\":16593:17391   */\n      swap4\n      swap3\n      pop\n      pop\n      pop\n      jump\t// out\n        /* \"#utility.yul\":17397:18231   */\n    tag_53:\n        /* \"#utility.yul\":17485:17491   */\n      0x00\n        /* \"#utility.yul\":17493:17499   */\n      dup1\n        /* \"#utility.yul\":17542:17544   */\n      0x40\n        /* \"#utility.yul\":17530:17539   */\n      dup4\n        /* \"#utility.yul\":17521:17528   */\n      dup6\n        /* \"#utility.yul\":17517:17540   */\n      sub\n        /* \"#utility.yul\":17513:17545   */\n      slt\n        /* \"#utility.yul\":17510:17629   */\n      iszero\n      tag_408\n      jumpi\n        /* \"#utility.yul\":17548:17627   */\n      tag_409\n      tag_185\n      jump\t// in\n    tag_409:\n        /* \"#utility.yul\":17510:17629   */\n    tag_408:\n        /* \"#utility.yul\":17696:17697   */\n      0x00\n        /* \"#utility.yul\":17685:17694   */\n      dup4\n        /* \"#utility.yul\":17681:17698   */\n      add\n        /* \"#utility.yul\":17668:17699   */\n      calldataload\n        /* \"#utility.yul\":17726:17744   */\n      0xffffffffffffffff\n        /* \"#utility.yul\":17718:17724   */\n      dup2\n        /* \"#utility.yul\":17715:17745   */\n      gt\n        /* \"#utility.yul\":17712:17829   */\n      iszero\n      tag_410\n      jumpi\n        /* \"#utility.yul\":17748:17827   */\n      tag_411\n      tag_186\n      jump\t// in\n    tag_411:\n        /* \"#utility.yul\":17712:17829   */\n    tag_410:\n        /* \"#utility.yul\":17853:17916   */\n      tag_412\n        /* \"#utility.yul\":17908:17915   */\n      dup6\n        /* \"#utility.yul\":17899:17905   */\n      dup3\n        /* \"#utility.yul\":17888:17897   */\n      dup7\n        /* \"#utility.yul\":17884:17906   */\n      add\n        /* \"#utility.yul\":17853:17916   */\n      tag_206\n      jump\t// in\n    tag_412:\n        /* \"#utility.yul\":17843:17916   */\n      swap3\n      pop\n        /* \"#utility.yul\":17639:17926   */\n      pop\n        /* \"#utility.yul\":17993:17995   */\n      0x20\n        /* \"#utility.yul\":17982:17991   */\n      dup4\n        /* \"#utility.yul\":17978:17996   */\n      add\n        /* \"#utility.yul\":17965:17997   */\n      calldataload\n        /* \"#utility.yul\":18024:18042   */\n      0xffffffffffffffff\n        /* \"#utility.yul\":18016:18022   */\n      dup2\n        /* \"#utility.yul\":18013:18043   */\n      gt\n        /* \"#utility.yul\":18010:18127   */\n      iszero\n      tag_413\n      jumpi\n        /* \"#utility.yul\":18046:18125   */\n      tag_414\n      tag_186\n      jump\t// in\n    tag_414:\n        /* \"#utility.yul\":18010:18127   */\n    tag_413:\n        /* \"#utility.yul\":18151:18214   */\n      tag_415\n        /* \"#utility.yul\":18206:18213   */\n      dup6\n        /* \"#utility.yul\":18197:18203   */\n      dup3\n        /* \"#utility.yul\":18186:18195   */\n      dup7\n        /* \"#utility.yul\":18182:18204   */\n      add\n        /* \"#utility.yul\":18151:18214   */\n      tag_206\n      jump\t// in\n    tag_415:\n        /* \"#utility.yul\":18141:18214   */\n      swap2\n      pop\n        /* \"#utility.yul\":17936:18224   */\n      pop\n        /* \"#utility.yul\":17397:18231   */\n      swap3\n      pop\n      swap3\n      swap1\n      pop\n      jump\t// out\n        /* \"#utility.yul\":18237:18327   */\n    tag_225:\n        /* \"#utility.yul\":18271:18278   */\n      0x00\n        /* \"#utility.yul\":18314:18319   */\n      dup2\n        /* \"#utility.yul\":18307:18320   */\n      iszero\n        /* \"#utility.yul\":18300:18321   */\n      iszero\n        /* \"#utility.yul\":18289:18321   */\n      swap1\n      pop\n        /* \"#utility.yul\":18237:18327   */\n      swap2\n      swap1\n      pop\n      jump\t// out\n        /* \"#utility.yul\":18333:18442   */\n    tag_226:\n        /* \"#utility.yul\":18414:18435   */\n      tag_418\n        /* \"#utility.yul\":18429:18434   */\n      dup2\n        /* \"#utility.yul\":18414:18435   */\n      tag_225\n      jump\t// in\n    tag_418:\n        /* \"#utility.yul\":18409:18412   */\n      dup3\n        /* \"#utility.yul\":18402:18436   */\n      mstore\n        /* \"#utility.yul\":18333:18442   */\n      pop\n      pop\n      jump\t// out\n        /* \"#utility.yul\":18448:18658   */\n    tag_56:\n        /* \"#utility.yul\":18535:18539   */\n      0x00\n        /* \"#utility.yul\":18573:18575   */\n      0x20\n        /* \"#utility.yul\":18562:18571   */\n      dup3\n        /* \"#utility.yul\":18558:18576   */\n      add\n        /* \"#utility.yul\":18550:18576   */\n      swap1\n      pop\n        /* \"#utility.yul\":18586:18651   */\n      tag_420\n        /* \"#utility.yul\":18648:18649   */\n      0x00\n        /* \"#utility.yul\":18637:18646   */\n      dup4\n        /* \"#utility.yul\":18633:18650   */\n      add\n        /* \"#utility.yul\":18624:18630   */\n      dup5\n        /* \"#utility.yul\":18586:18651   */\n      tag_226\n      jump\t// in\n    tag_420:\n        /* \"#utility.yul\":18448:18658   */\n      swap3\n      swap2\n      pop\n      pop\n      jump\t// out\n        /* \"#utility.yul\":18664:19318   */\n    tag_59:\n        /* \"#utility.yul\":18742:18748   */\n      0x00\n        /* \"#utility.yul\":18750:18756   */\n      dup1\n        /* \"#utility.yul\":18799:18801   */\n      0x40\n        /* \"#utility.yul\":18787:18796   */\n      dup4\n        /* \"#utility.yul\":18778:18785   */\n      dup6\n        /* \"#utility.yul\":18774:18797   */\n      sub\n        /* \"#utility.yul\":18770:18802   */\n      slt\n        /* \"#utility.yul\":18767:18886   */\n      iszero\n      tag_422\n      jumpi\n        /* \"#utility.yul\":18805:18884   */\n      tag_423\n      tag_185\n      jump\t// in\n    tag_423:\n        /* \"#utility.yul\":18767:18886   */\n    tag_422:\n        /* \"#utility.yul\":18925:18926   */\n      0x00\n        /* \"#utility.yul\":18950:19003   */\n      tag_424\n        /* \"#utility.yul\":18995:19002   */\n      dup6\n        /* \"#utility.yul\":18986:18992   */\n      dup3\n        /* \"#utility.yul\":18975:18984   */\n      dup7\n        /* \"#utility.yul\":18971:18993   */\n      add\n        /* \"#utility.yul\":18950:19003   */\n      tag_198\n      jump\t// in\n    tag_424:\n        /* \"#utility.yul\":18940:19003   */\n      swap3\n      pop\n        /* \"#utility.yul\":18896:19013   */\n      pop\n        /* \"#utility.yul\":19080:19082   */\n      0x20\n        /* \"#utility.yul\":19069:19078   */\n      dup4\n        /* \"#utility.yul\":19065:19083   */\n      add\n        /* \"#utility.yul\":19052:19084   */\n      calldataload\n        /* \"#utility.yul\":19111:19129   */\n      0xffffffffffffffff\n        /* \"#utility.yul\":19103:19109   */\n      dup2\n        /* \"#utility.yul\":19100:19130   */\n      gt\n        /* \"#utility.yul\":19097:19214   */\n      iszero\n      tag_425\n      jumpi\n        /* \"#utility.yul\":19133:19212   */\n      tag_426\n      tag_186\n      jump\t// in\n    tag_426:\n        /* \"#utility.yul\":19097:19214   */\n    tag_425:\n        /* \"#utility.yul\":19238:19301   */\n      tag_427\n        /* \"#utility.yul\":19293:19300   */\n      dup6\n        /* \"#utility.yul\":19284:19290   */\n      dup3\n        /* \"#utility.yul\":19273:19282   */\n      dup7\n        /* \"#utility.yul\":19269:19291   */\n      add\n        /* \"#utility.yul\":19238:19301   */\n      tag_206\n      jump\t// in\n    tag_427:\n        /* \"#utility.yul\":19228:19301   */\n      swap2\n      pop\n        /* \"#utility.yul\":19023:19311   */\n      pop\n        /* \"#utility.yul\":18664:19318   */\n      swap3\n      pop\n      swap3\n      swap1\n      pop\n      jump\t// out\n        /* \"#utility.yul\":19324:19504   */\n    tag_227:\n        /* \"#utility.yul\":19372:19449   */\n      0x4e487b7100000000000000000000000000000000000000000000000000000000\n        /* \"#utility.yul\":19369:19370   */\n      0x00\n        /* \"#utility.yul\":19362:19450   */\n      mstore\n        /* \"#utility.yul\":19469:19473   */\n      0x22\n        /* \"#utility.yul\":19466:19467   */\n      0x04\n        /* \"#utility.yul\":19459:19474   */\n      mstore\n        /* \"#utility.yul\":19493:19497   */\n      0x24\n        /* \"#utility.yul\":19490:19491   */\n      0x00\n        /* \"#utility.yul\":19483:19498   */\n      revert\n        /* \"#utility.yul\":19510:19830   */\n    tag_68:\n        /* \"#utility.yul\":19554:19560   */\n      0x00\n        /* \"#utility.yul\":19591:19592   */\n      0x02\n        /* \"#utility.yul\":19585:19589   */\n      dup3\n        /* \"#utility.yul\":19581:19593   */\n      div\n        /* \"#utility.yul\":19571:19593   */\n      swap1\n      pop\n        /* \"#utility.yul\":19638:19639   */\n      0x01\n        /* \"#utility.yul\":19632:19636   */\n      dup3\n        /* \"#utility.yul\":19628:19640   */\n      and\n        /* \"#utility.yul\":19659:19677   */\n      dup1\n        /* \"#utility.yul\":19649:19730   */\n      tag_430\n      jumpi\n        /* \"#utility.yul\":19715:19719   */\n      0x7f\n        /* \"#utility.yul\":19707:19713   */\n      dup3\n        /* \"#utility.yul\":19703:19720   */\n      and\n        /* \"#utility.yul\":19693:19720   */\n      swap2\n      pop\n        /* \"#utility.yul\":19649:19730   */\n    tag_430:\n        /* \"#utility.yul\":19777:19779   */\n      0x20\n        /* \"#utility.yul\":19769:19775   */\n      dup3\n        /* \"#utility.yul\":19766:19780   */\n      lt\n        /* \"#utility.yul\":19746:19764   */\n      dup2\n        /* \"#utility.yul\":19743:19781   */\n      sub\n        /* \"#utility.yul\":19740:19824   */\n      tag_431\n      jumpi\n        /* \"#utility.yul\":19796:19814   */\n      tag_432\n      tag_227\n      jump\t// in\n    tag_432:\n        /* \"#utility.yul\":19740:19824   */\n    tag_431:\n        /* \"#utility.yul\":19561:19830   */\n      pop\n        /* \"#utility.yul\":19510:19830   */\n      swap2\n      swap1\n      pop\n      jump\t// out\n        /* \"#utility.yul\":19836:19984   */\n    tag_228:\n        /* \"#utility.yul\":19938:19949   */\n      0x00\n        /* \"#utility.yul\":19975:19978   */\n      dup2\n        /* \"#utility.yul\":19960:19978   */\n      swap1\n      pop\n        /* \"#utility.yul\":19836:19984   */\n      swap3\n      swap2\n      pop\n      pop\n      jump\t// out\n        /* \"#utility.yul\":19990:20367   */\n    tag_229:\n        /* \"#utility.yul\":20096:20099   */\n      0x00\n        /* \"#utility.yul\":20124:20163   */\n      tag_435\n        /* \"#utility.yul\":20157:20162   */\n      dup3\n        /* \"#utility.yul\":20124:20163   */\n      tag_190\n      jump\t// in\n    tag_435:\n        /* \"#utility.yul\":20179:20268   */\n      tag_436\n        /* \"#utility.yul\":20261:20267   */\n      dup2\n        /* \"#utility.yul\":20256:20259   */\n      dup6\n        /* \"#utility.yul\":20179:20268   */\n      tag_228\n      jump\t// in\n    tag_436:\n        /* \"#utility.yul\":20172:20268   */\n      swap4\n      pop\n        /* \"#utility.yul\":20277:20329   */\n      tag_437\n        /* \"#utility.yul\":20322:20328   */\n      dup2\n        /* \"#utility.yul\":20317:20320   */\n      dup6\n        /* \"#utility.yul\":20310:20314   */\n      0x20\n        /* \"#utility.yul\":20303:20308   */\n      dup7\n        /* \"#utility.yul\":20299:20315   */\n      add\n        /* \"#utility.yul\":20277:20329   */\n      tag_192\n      jump\t// in\n    tag_437:\n        /* \"#utility.yul\":20354:20360   */\n      dup1\n        /* \"#utility.yul\":20349:20352   */\n      dup5\n        /* \"#utility.yul\":20345:20361   */\n      add\n        /* \"#utility.yul\":20338:20361   */\n      swap2\n      pop\n        /* \"#utility.yul\":20100:20367   */\n      pop\n        /* \"#utility.yul\":19990:20367   */\n      swap3\n      swap2\n      pop\n      pop\n      jump\t// out\n        /* \"#utility.yul\":20373:20648   */\n    tag_106:\n        /* \"#utility.yul\":20505:20508   */\n      0x00\n        /* \"#utility.yul\":20527:20622   */\n      tag_439\n        /* \"#utility.yul\":20618:20621   */\n      dup3\n        /* \"#utility.yul\":20609:20615   */\n      dup5\n        /* \"#utility.yul\":20527:20622   */\n      tag_229\n      jump\t// in\n    tag_439:\n        /* \"#utility.yul\":20520:20622   */\n      swap2\n      pop\n        /* \"#utility.yul\":20639:20642   */\n      dup2\n        /* \"#utility.yul\":20632:20642   */\n      swap1\n      pop\n        /* \"#utility.yul\":20373:20648   */\n      swap3\n      swap2\n      pop\n      pop\n      jump\t// out\n        /* \"#utility.yul\":20654:20795   */\n    tag_230:\n        /* \"#utility.yul\":20703:20707   */\n      0x00\n        /* \"#utility.yul\":20726:20729   */\n      dup2\n        /* \"#utility.yul\":20718:20729   */\n      swap1\n      pop\n        /* \"#utility.yul\":20749:20752   */\n      dup2\n        /* \"#utility.yul\":20746:20747   */\n      0x00\n        /* \"#utility.yul\":20739:20753   */\n      mstore\n        /* \"#utility.yul\":20783:20787   */\n      0x20\n        /* \"#utility.yul\":20780:20781   */\n      0x00\n        /* \"#utility.yul\":20770:20788   */\n      keccak256\n        /* \"#utility.yul\":20762:20788   */\n      swap1\n      pop\n        /* \"#utility.yul\":20654:20795   */\n      swap2\n      swap1\n      pop\n      jump\t// out\n        /* \"#utility.yul\":20801:20894   */\n    tag_231:\n        /* \"#utility.yul\":20838:20844   */\n      0x00\n        /* \"#utility.yul\":20885:20887   */\n      0x20\n        /* \"#utility.yul\":20880:20882   */\n      0x1f\n        /* \"#utility.yul\":20873:20878   */\n      dup4\n        /* \"#utility.yul\":20869:20883   */\n      add\n        /* \"#utility.yul\":20865:20888   */\n      div\n        /* \"#utility.yul\":20855:20888   */\n      swap1\n      pop\n        /* \"#utility.yul\":20801:20894   */\n      swap2\n      swap1\n      pop\n      jump\t// out\n        /* \"#utility.yul\":20900:21007   */\n    tag_232:\n        /* \"#utility.yul\":20944:20952   */\n      0x00\n        /* \"#utility.yul\":20994:20999   */\n      dup3\n        /* \"#utility.yul\":20988:20992   */\n      dup3\n        /* \"#utility.yul\":20984:21000   */\n      shl\n        /* \"#utility.yul\":20963:21000   */\n      swap1\n      pop\n        /* \"#utility.yul\":20900:21007   */\n      swap3\n      swap2\n      pop\n      pop\n      jump\t// out\n        /* \"#utility.yul\":21013:21406   */\n    tag_233:\n        /* \"#utility.yul\":21082:21088   */\n      0x00\n        /* \"#utility.yul\":21132:21133   */\n      0x08\n        /* \"#utility.yul\":21120:21130   */\n      dup4\n        /* \"#utility.yul\":21116:21134   */\n      mul\n        /* \"#utility.yul\":21155:21252   */\n      tag_444\n        /* \"#utility.yul\":21185:21251   */\n      0xffffffffffffffffffffffffffffffffffffffffffffffffffffffffffffffff\n        /* \"#utility.yul\":21174:21183   */\n      dup3\n        /* \"#utility.yul\":21155:21252   */\n      tag_232\n      jump\t// in\n    tag_444:\n        /* \"#utility.yul\":21273:21312   */\n      tag_445\n        /* \"#utility.yul\":21303:21311   */\n      dup7\n        /* \"#utility.yul\":21292:21301   */\n      dup4\n        /* \"#utility.yul\":21273:21312   */\n      tag_232\n      jump\t// in\n    tag_445:\n        /* \"#utility.yul\":21261:21312   */\n      swap6\n      pop\n        /* \"#utility.yul\":21345:21349   */\n      dup1\n        /* \"#utility.yul\":21341:21350   */\n      not\n        /* \"#utility.yul\":21334:21339   */\n      dup5\n        /* \"#utility.yul\":21330:21351   */\n      and\n        /* \"#utility.yul\":21321:21351   */\n      swap4\n      pop\n        /* \"#utility.yul\":21394:21398   */\n      dup1\n        /* \"#utility.yul\":21384:21392   */\n      dup7\n        /* \"#utility.yul\":21380:21399   */\n      and\n        /* \"#utility.yul\":21373:21378   */\n      dup5\n        /* \"#utility.yul\":21370:21400   */\n      or\n        /* \"#utility.yul\":21360:21400   */\n      swap3\n      pop\n        /* \"#utility.yul\":21089:21406   */\n      pop\n      pop\n        /* \"#utility.yul\":21013:21406   */\n      swap4\n      swap3\n      pop\n      pop\n      pop\n      jump\t// out\n        /* \"#utility.yul\":21412:21472   */\n    tag_234:\n        /* \"#utility.yul\":21440:21443   */\n      0x00\n        /* \"#utility.yul\":21461:21466   */\n      dup2\n        /* \"#utility.yul\":21454:21466   */\n      swap1\n      pop\n        /* \"#utility.yul\":21412:21472   */\n      swap2\n      swap1\n      pop\n      jump\t// out\n        /* \"#utility.yul\":21478:21620   */\n    tag_235:\n        /* \"#utility.yul\":21528:21537   */\n      0x00\n        /* \"#utility.yul\":21561:21614   */\n      tag_448\n        /* \"#utility.yul\":21579:21613   */\n      tag_449\n        /* \"#utility.yul\":21588:21612   */\n      tag_450\n        /* \"#utility.yul\":21606:21611   */\n      dup5\n        /* \"#utility.yul\":21588:21612   */\n      tag_187\n      jump\t// in\n    tag_450:\n        /* \"#utility.yul\":21579:21613   */\n      tag_234\n      jump\t// in\n    tag_449:\n        /* \"#utility.yul\":21561:21614   */\n      tag_187\n      jump\t// in\n    tag_448:\n        /* \"#utility.yul\":21548:21614   */\n      swap1\n      pop\n        /* \"#utility.yul\":21478:21620   */\n      swap2\n      swap1\n      pop\n      jump\t// out\n        /* \"#utility.yul\":21626:21701   */\n    tag_236:\n        /* \"#utility.yul\":21669:21672   */\n      0x00\n        /* \"#utility.yul\":21690:21695   */\n      dup2\n        /* \"#utility.yul\":21683:21695   */\n      swap1\n      pop\n        /* \"#utility.yul\":21626:21701   */\n      swap2\n      swap1\n      pop\n      jump\t// out\n        /* \"#utility.yul\":21707:21976   */\n    tag_237:\n        /* \"#utility.yul\":21817:21856   */\n      tag_453\n        /* \"#utility.yul\":21848:21855   */\n      dup4\n        /* \"#utility.yul\":21817:21856   */\n      tag_235\n      jump\t// in\n    tag_453:\n        /* \"#utility.yul\":21878:21969   */\n      tag_454\n        /* \"#utility.yul\":21927:21968   */\n      tag_455\n        /* \"#utility.yul\":21951:21967   */\n      dup3\n        /* \"#utility.yul\":21927:21968   */\n      tag_236\n      jump\t// in\n    tag_455:\n        /* \"#utility.yul\":21919:21925   */\n      dup5\n        /* \"#utility.yul\":21912:21916   */\n      dup5\n        /* \"#utility.yul\":21906:21917   */\n      sload\n        /* \"#utility.yul\":21878:21969   */\n      tag_233\n      jump\t// in\n    tag_454:\n        /* \"#utility.yul\":21872:21876   */\n      dup3\n        /* \"#utility.yul\":21865:21970   */\n      sstore\n        /* \"#utility.yul\":21783:21976   */\n      pop\n        /* \"#utility.yul\":21707:21976   */\n      pop\n      pop\n      pop\n      jump\t// out\n        /* \"#utility.yul\":21982:22055   */\n    tag_238:\n        /* \"#utility.yul\":22027:22030   */\n      0x00\n        /* \"#utility.yul\":21982:22055   */\n      swap1\n      jump\t// out\n        /* \"#utility.yul\":22061:22250   */\n    tag_239:\n        /* \"#utility.yul\":22138:22170   */\n      tag_458\n      tag_238\n      jump\t// in\n    tag_458:\n        /* \"#utility.yul\":22179:22244   */\n      tag_459\n        /* \"#utility.yul\":22237:22243   */\n      dup2\n        /* \"#utility.yul\":22229:22235   */\n      dup5\n        /* \"#utility.yul\":22223:22227   */\n      dup5\n        /* \"#utility.yul\":22179:22244   */\n      tag_237\n      jump\t// in\n    tag_459:\n        /* \"#utility.yul\":22114:22250   */\n      pop\n        /* \"#utility.yul\":22061:22250   */\n      pop\n      pop\n      jump\t// out\n        /* \"#utility.yul\":22256:22442   */\n    tag_240:\n        /* \"#utility.yul\":22316:22436   */\n    tag_461:\n        /* \"#utility.yul\":22333:22336   */\n      dup2\n        /* \"#utility.yul\":22326:22331   */\n      dup2\n        /* \"#utility.yul\":22323:22337   */\n      lt\n        /* \"#utility.yul\":22316:22436   */\n      iszero\n      tag_463\n      jumpi\n        /* \"#utility.yul\":22387:22426   */\n      tag_464\n        /* \"#utility.yul\":22424:22425   */\n      0x00\n        /* \"#utility.yul\":22417:22422   */\n      dup3\n        /* \"#utility.yul\":22387:22426   */\n      tag_239\n      jump\t// in\n    tag_464:\n        /* \"#utility.yul\":22360:22361   */\n      0x01\n        /* \"#utility.yul\":22353:22358   */\n      dup2\n        /* \"#utility.yul\":22349:22362   */\n      add\n        /* \"#utility.yul\":22340:22362   */\n      swap1\n      pop\n        /* \"#utility.yul\":22316:22436   */\n      jump(tag_461)\n    tag_463:\n        /* \"#utility.yul\":22256:22442   */\n      pop\n      pop\n      jump\t// out\n        /* \"#utility.yul\":22448:22991   */\n    tag_241:\n        /* \"#utility.yul\":22549:22551   */\n      0x1f\n        /* \"#utility.yul\":22544:22547   */\n      dup3\n        /* \"#utility.yul\":22541:22552   */\n      gt\n        /* \"#utility.yul\":22538:22984   */\n      iszero\n      tag_466\n      jumpi\n        /* \"#utility.yul\":22583:22621   */\n      tag_467\n        /* \"#utility.yul\":22615:22620   */\n      dup2\n        /* \"#utility.yul\":22583:22621   */\n      tag_230\n      jump\t// in\n    tag_467:\n        /* \"#utility.yul\":22667:22696   */\n      tag_468\n        /* \"#utility.yul\":22685:22695   */\n      dup5\n        /* \"#utility.yul\":22667:22696   */\n      tag_231\n      jump\t// in\n    tag_468:\n        /* \"#utility.yul\":22657:22665   */\n      dup2\n        /* \"#utility.yul\":22653:22697   */\n      add\n        /* \"#utility.yul\":22850:22852   */\n      0x20\n        /* \"#utility.yul\":22838:22848   */\n      dup6\n        /* \"#utility.yul\":22835:22853   */\n      lt\n        /* \"#utility.yul\":22832:22881   */\n      iszero\n      tag_469\n      jumpi\n        /* \"#utility.yul\":22871:22879   */\n      dup2\n        /* \"#utility.yul\":22856:22879   */\n      swap1\n      pop\n        /* \"#utility.yul\":22832:22881   */\n    tag_469:\n        /* \"#utility.yul\":22894:22974   */\n      tag_470\n        /* \"#utility.yul\":22950:22972   */\n      tag_471\n        /* \"#utility.yul\":22968:22971   */\n      dup6\n        /* \"#utility.yul\":22950:22972   */\n      tag_231\n      jump\t// in\n    tag_471:\n        /* \"#utility.yul\":22940:22948   */\n      dup4\n        /* \"#utility.yul\":22936:22973   */\n      add\n        /* \"#utility.yul\":22923:22934   */\n      dup3\n        /* \"#utility.yul\":22894:22974   */\n      tag_240\n      jump\t// in\n    tag_470:\n        /* \"#utility.yul\":22553:22984   */\n      pop\n      pop\n        /* \"#utility.yul\":22538:22984   */\n    tag_466:\n        /* \"#utility.yul\":22448:22991   */\n      pop\n      pop\n      pop\n      jump\t// out\n        /* \"#utility.yul\":22997:23114   */\n    tag_242:\n        /* \"#utility.yul\":23051:23059   */\n      0x00\n        /* \"#utility.yul\":23101:23106   */\n      dup3\n        /* \"#utility.yul\":23095:23099   */\n      dup3\n        /* \"#utility.yul\":23091:23107   */\n      shr\n        /* \"#utility.yul\":23070:23107   */\n      swap1\n      pop\n        /* \"#utility.yul\":22997:23114   */\n      swap3\n      swap2\n      pop\n      pop\n      jump\t// out\n        /* \"#utility.yul\":23120:23289   */\n    tag_243:\n        /* \"#utility.yul\":23164:23170   */\n      0x00\n        /* \"#utility.yul\":23197:23248   */\n      tag_474\n        /* \"#utility.yul\":23245:23246   */\n      0x00\n        /* \"#utility.yul\":23241:23247   */\n      not\n        /* \"#utility.yul\":23233:23238   */\n      dup5\n        /* \"#utility.yul\":23230:23231   */\n      0x08\n        /* \"#utility.yul\":23226:23239   */\n      mul\n        /* \"#utility.yul\":23197:23248   */\n      tag_242\n      jump\t// in\n    tag_474:\n        /* \"#utility.yul\":23193:23249   */\n      not\n        /* \"#utility.yul\":23278:23282   */\n      dup1\n        /* \"#utility.yul\":23272:23276   */\n      dup4\n        /* \"#utility.yul\":23268:23283   */\n      and\n        /* \"#utility.yul\":23258:23283   */\n      swap2\n      pop\n        /* \"#utility.yul\":23171:23289   */\n      pop\n        /* \"#utility.yul\":23120:23289   */\n      swap3\n      swap2\n      pop\n      pop\n      jump\t// out\n        /* \"#utility.yul\":23294:23589   */\n    tag_244:\n        /* \"#utility.yul\":23370:23374   */\n      0x00\n        /* \"#utility.yul\":23516:23545   */\n      tag_476\n        /* \"#utility.yul\":23541:23544   */\n      dup4\n        /* \"#utility.yul\":23535:23539   */\n      dup4\n        /* \"#utility.yul\":23516:23545   */\n      tag_243\n      jump\t// in\n    tag_476:\n        /* \"#utility.yul\":23508:23545   */\n      swap2\n      pop\n        /* \"#utility.yul\":23578:23581   */\n      dup3\n        /* \"#utility.yul\":23575:23576   */\n      0x02\n        /* \"#utility.yul\":23571:23582   */\n      mul\n        /* \"#utility.yul\":23565:23569   */\n      dup3\n        /* \"#utility.yul\":23562:23583   */\n      or\n        /* \"#utility.yul\":23554:23583   */\n      swap1\n      pop\n        /* \"#utility.yul\":23294:23589   */\n      swap3\n      swap2\n      pop\n      pop\n      jump\t// out\n        /* \"#utility.yul\":23594:24989   */\n    tag_114:\n        /* \"#utility.yul\":23711:23748   */\n      tag_478\n        /* \"#utility.yul\":23744:23747   */\n      dup3\n        /* \"#utility.yul\":23711:23748   */\n      tag_190\n      jump\t// in\n    tag_478:\n        /* \"#utility.yul\":23813:23831   */\n      0xffffffffffffffff\n        /* \"#utility.yul\":23805:23811   */\n      dup2\n        /* \"#utility.yul\":23802:23832   */\n      gt\n        /* \"#utility.yul\":23799:23855   */\n      iszero\n      tag_479\n      jumpi\n        /* \"#utility.yul\":23835:23853   */\n      tag_480\n      tag_126\n      jump\t// in\n    tag_480:\n        /* \"#utility.yul\":23799:23855   */\n    tag_479:\n        /* \"#utility.yul\":23879:23917   */\n      tag_481\n        /* \"#utility.yul\":23911:23915   */\n      dup3\n        /* \"#utility.yul\":23905:23916   */\n      sload\n        /* \"#utility.yul\":23879:23917   */\n      tag_68\n      jump\t// in\n    tag_481:\n        /* \"#utility.yul\":23964:24031   */\n      tag_482\n        /* \"#utility.yul\":24024:24030   */\n      dup3\n        /* \"#utility.yul\":24016:24022   */\n      dup3\n        /* \"#utility.yul\":24010:24014   */\n      dup6\n        /* \"#utility.yul\":23964:24031   */\n      tag_241\n      jump\t// in\n    tag_482:\n        /* \"#utility.yul\":24058:24059   */\n      0x00\n        /* \"#utility.yul\":24082:24086   */\n      0x20\n        /* \"#utility.yul\":24069:24086   */\n      swap1\n      pop\n        /* \"#utility.yul\":24114:24116   */\n      0x1f\n        /* \"#utility.yul\":24106:24112   */\n      dup4\n        /* \"#utility.yul\":24103:24117   */\n      gt\n        /* \"#utility.yul\":24131:24132   */\n      0x01\n        /* \"#utility.yul\":24126:24744   */\n      dup2\n      eq\n      tag_484\n      jumpi\n        /* \"#utility.yul\":24788:24789   */\n      0x00\n        /* \"#utility.yul\":24805:24811   */\n      dup5\n        /* \"#utility.yul\":24802:24879   */\n      iszero\n      tag_485\n      jumpi\n        /* \"#utility.yul\":24854:24863   */\n      dup3\n        /* \"#utility.yul\":24849:24852   */\n      dup8\n        /* \"#utility.yul\":24845:24864   */\n      add\n        /* \"#utility.yul\":24839:24865   */\n      mload\n        /* \"#utility.yul\":24830:24865   */\n      swap1\n      pop\n        /* \"#utility.yul\":24802:24879   */\n    tag_485:\n        /* \"#utility.yul\":24905:24972   */\n      tag_486\n        /* \"#utility.yul\":24965:24971   */\n      dup6\n        /* \"#utility.yul\":24958:24963   */\n      dup3\n        /* \"#utility.yul\":24905:24972   */\n      tag_244\n      jump\t// in\n    tag_486:\n        /* \"#utility.yul\":24899:24903   */\n      dup7\n        /* \"#utility.yul\":24892:24973   */\n      sstore\n        /* \"#utility.yul\":24761:24983   */\n      pop\n        /* \"#utility.yul\":24096:24983   */\n      jump(tag_483)\n        /* \"#utility.yul\":24126:24744   */\n    tag_484:\n        /* \"#utility.yul\":24178:24182   */\n      0x1f\n        /* \"#utility.yul\":24174:24183   */\n      not\n        /* \"#utility.yul\":24166:24172   */\n      dup5\n        /* \"#utility.yul\":24162:24184   */\n      and\n        /* \"#utility.yul\":24212:24249   */\n      tag_487\n        /* \"#utility.yul\":24244:24248   */\n      dup7\n        /* \"#utility.yul\":24212:24249   */\n      tag_230\n      jump\t// in\n    tag_487:\n        /* \"#utility.yul\":24271:24272   */\n      0x00\n        /* \"#utility.yul\":24285:24493   */\n    tag_488:\n        /* \"#utility.yul\":24299:24306   */\n      dup3\n        /* \"#utility.yul\":24296:24297   */\n      dup2\n        /* \"#utility.yul\":24293:24307   */\n      lt\n        /* \"#utility.yul\":24285:24493   */\n      iszero\n      tag_490\n      jumpi\n        /* \"#utility.yul\":24378:24387   */\n      dup5\n        /* \"#utility.yul\":24373:24376   */\n      dup10\n        /* \"#utility.yul\":24369:24388   */\n      add\n        /* \"#utility.yul\":24363:24389   */\n      mload\n        /* \"#utility.yul\":24355:24361   */\n      dup3\n        /* \"#utility.yul\":24348:24390   */\n      sstore\n        /* \"#utility.yul\":24429:24430   */\n      0x01\n        /* \"#utility.yul\":24421:24427   */\n      dup3\n        /* \"#utility.yul\":24417:24431   */\n      add\n        /* \"#utility.yul\":24407:24431   */\n      swap2\n      pop\n        /* \"#utility.yul\":24476:24478   */\n      0x20\n        /* \"#utility.yul\":24465:24474   */\n      dup6\n        /* \"#utility.yul\":24461:24479   */\n      add\n        /* \"#utility.yul\":24448:24479   */\n      swap5\n      pop\n        /* \"#utility.yul\":24322:24326   */\n      0x20\n        /* \"#utility.yul\":24319:24320   */\n      dup2\n        /* \"#utility.yul\":24315:24327   */\n      add\n        /* \"#utility.yul\":24310:24327   */\n      swap1\n      pop\n        /* \"#utility.yul\":24285:24493   */\n      jump(tag_488)\n    tag_490:\n        /* \"#utility.yul\":24521:24527   */\n      dup7\n        /* \"#utility.yul\":24512:24519   */\n      dup4\n        /* \"#utility.yul\":24509:24528   */\n      lt\n        /* \"#utility.yul\":24506:24685   */\n      iszero\n      tag_491\n      jumpi\n        /* \"#utility.yul\":24579:24588   */\n      dup5\n        /* \"#utility.yul\":24574:24577   */\n      dup10\n        /* \"#utility.yul\":24570:24589   */\n      add\n        /* \"#utility.yul\":24564:24590   */\n      mload\n        /* \"#utility.yul\":24622:24670   */\n      tag_492\n        /* \"#utility.yul\":24664:24668   */\n      0x1f\n        /* \"#utility.yul\":24656:24662   */\n      dup10\n        /* \"#utility.yul\":24652:24669   */\n      and\n        /* \"#utility.yul\":24641:24650   */\n      dup3\n        /* \"#utility.yul\":24622:24670   */\n      tag_243\n      jump\t// in\n    tag_492:\n        /* \"#utility.yul\":24614:24620   */\n      dup4\n        /* \"#utility.yul\":24607:24671   */\n      sstore\n        /* \"#utility.yul\":24529:24685   */\n      pop\n        /* \"#utility.yul\":24506:24685   */\n    tag_491:\n        /* \"#utility.yul\":24731:24732   */\n      0x01\n        /* \"#utility.yul\":24727:24728   */\n      0x02\n        /* \"#utility.yul\":24719:24725   */\n      dup9\n        /* \"#utility.yul\":24715:24729   */\n      mul\n        /* \"#utility.yul\":24711:24733   */\n      add\n        /* \"#utility.yul\":24705:24709   */\n      dup9\n        /* \"#utility.yul\":24698:24734   */\n      sstore\n        /* \"#utility.yul\":24133:24744   */\n      pop\n      pop\n      pop\n        /* \"#utility.yul\":24096:24983   */\n    tag_483:\n      pop\n        /* \"#utility.yul\":23686:24989   */\n      pop\n      pop\n      pop\n        /* \"#utility.yul\":23594:24989   */\n      pop\n      pop\n      jump\t// out\n        /* \"#utility.yul\":24995:25175   */\n    tag_245:\n        /* \"#utility.yul\":25043:25120   */\n      0x4e487b7100000000000000000000000000000000000000000000000000000000\n        /* \"#utility.yul\":25040:25041   */\n      0x00\n        /* \"#utility.yul\":25033:25121   */\n      mstore\n        /* \"#utility.yul\":25140:25144   */\n      0x11\n        /* \"#utility.yul\":25137:25138   */\n      0x04\n        /* \"#utility.yul\":25130:25145   */\n      mstore\n        /* \"#utility.yul\":25164:25168   */\n      0x24\n        /* \"#utility.yul\":25161:25162   */\n      0x00\n        /* \"#utility.yul\":25154:25169   */\n      revert\n        /* \"#utility.yul\":25181:25414   */\n    tag_118:\n        /* \"#utility.yul\":25220:25223   */\n      0x00\n        /* \"#utility.yul\":25243:25267   */\n      tag_495\n        /* \"#utility.yul\":25261:25266   */\n      dup3\n        /* \"#utility.yul\":25243:25267   */\n      tag_187\n      jump\t// in\n    tag_495:\n        /* \"#utility.yul\":25234:25267   */\n      swap2\n      pop\n        /* \"#utility.yul\":25289:25355   */\n      0xffffffffffffffffffffffffffffffffffffffffffffffffffffffffffffffff\n        /* \"#utility.yul\":25282:25287   */\n      dup3\n        /* \"#utility.yul\":25279:25356   */\n      sub\n        /* \"#utility.yul\":25276:25379   */\n      tag_496\n      jumpi\n        /* \"#utility.yul\":25359:25377   */\n      tag_497\n      tag_245\n      jump\t// in\n    tag_497:\n        /* \"#utility.yul\":25276:25379   */\n    tag_496:\n        /* \"#utility.yul\":25406:25407   */\n      0x01\n        /* \"#utility.yul\":25399:25404   */\n      dup3\n        /* \"#utility.yul\":25395:25408   */\n      add\n        /* \"#utility.yul\":25388:25408   */\n      swap1\n      pop\n        /* \"#utility.yul\":25181:25414   */\n      swap2\n      swap1\n      pop\n      jump\t// out\n        /* \"#utility.yul\":25420:25600   */\n    tag_136:\n        /* \"#utility.yul\":25468:25545   */\n      0x4e487b7100000000000000000000000000000000000000000000000000000000\n        /* \"#utility.yul\":25465:25466   */\n      0x00\n        /* \"#utility.yul\":25458:25546   */\n      mstore\n        /* \"#utility.yul\":25565:25569   */\n      0x32\n        /* \"#utility.yul\":25562:25563   */\n      0x04\n        /* \"#utility.yul\":25555:25570   */\n      mstore\n        /* \"#utility.yul\":25589:25593   */\n      0x24\n        /* \"#utility.yul\":25586:25587   */\n      0x00\n        /* \"#utility.yul\":25579:25594   */\n      revert\n\n    auxdata: 0xa26469706673582212203c2e7d51302e902ad0f84296e940921cfea26d16d6727b69d9f300d61d55aeeb64736f6c634300080f0033\n}\n","bytecode":{"linkReferences":{},"object":"608060405234801561001057600080fd5b5061216d806100206000396000f3fe608060405234801561001057600080fd5b506004361061009e5760003560e01c80638f1d613d116100665780638f1d613d14610198578063a8367070146101b4578063ab6a9f17146101e5578063c7fa106314610215578063fd70c7dd146102315761009e565b80630a02dcc7146100a357806332f97763146100d357806364aa65a8146101085780636e6061d1146101385780637792a03514610168575b600080fd5b6100bd60048036038101906100b8919061147b565b610261565b6040516100ca9190611541565b60405180910390f35b6100ed60048036038101906100e891906116f6565b61030d565b6040516100ff96959493929190611774565b60405180910390f35b610122600480360381019061011d91906117ea565b610511565b60405161012f9190611541565b60405180910390f35b610152600480360381019061014d9190611817565b6105b1565b60405161015f9190611541565b60405180910390f35b610182600480360381019061017d919061147b565b61066a565b60405161018f9190611866565b60405180910390f35b6101b260048036038101906101ad9190611881565b6106a9565b005b6101ce60048036038101906101c99190611962565b610b57565b6040516101dc929190611c1f565b60405180910390f35b6101ff60048036038101906101fa9190611c56565b6110fa565b60405161020c9190611ce9565b60405180910390f35b61022f600480360381019061022a9190611d04565b6111a1565b005b61024b60048036038101906102469190611962565b6113b2565b6040516102589190611866565b60405180910390f35b6000818154811061027157600080fd5b90600052602060002001600091509050805461028c90611d8f565b80601f01602080910402602001604051908101604052809291908181526020018280546102b890611d8f565b80156103055780601f106102da57610100808354040283529160200191610305565b820191906000526020600020905b8154815290600101906020018083116102e857829003601f168201915b505050505081565b600560205282600052604060002082805160208101820180518482526020830160208501208183528095505050505050602052806000526040600020600092509250505080600001805461036090611d8f565b80601f016020809104026020016040519081016040528092919081815260200182805461038c90611d8f565b80156103d95780601f106103ae576101008083540402835291602001916103d9565b820191906000526020600020905b8154815290600101906020018083116103bc57829003601f168201915b5050505050908060010180546103ee90611d8f565b80601f016020809104026020016040519081016040528092919081815260200182805461041a90611d8f565b80156104675780601f1061043c57610100808354040283529160200191610467565b820191906000526020600020905b81548152906001019060200180831161044a57829003601f168201915b50505050509080600201805461047c90611d8f565b80601f01602080910402602001604051908101604052809291908181526020018280546104a890611d8f565b80156104f55780601f106104ca576101008083540402835291602001916104f5565b820191906000526020600020905b8154815290600101906020018083116104d857829003601f168201915b5050505050908060030154908060040154908060050154905086565b6002602052806000526040600020600091509050805461053090611d8f565b80601f016020809104026020016040519081016040528092919081815260200182805461055c90611d8f565b80156105a95780601f1061057e576101008083540402835291602001916105a9565b820191906000526020600020905b81548152906001019060200180831161058c57829003601f168201915b505050505081565b600460205281600052604060002081815481106105cd57600080fd5b906000526020600020016000915091505080546105e990611d8f565b80601f016020809104026020016040519081016040528092919081815260200182805461061590611d8f565b80156106625780601f1061063757610100808354040283529160200191610662565b820191906000526020600020905b81548152906001019060200180831161064557829003601f168201915b505050505081565b6001818154811061067a57600080fd5b906000526020600020016000915054906101000a900473ffffffffffffffffffffffffffffffffffffffff1681565b60003390506000600260008373ffffffffffffffffffffffffffffffffffffffff1673ffffffffffffffffffffffffffffffffffffffff16815260200190815260200160002080546106fa90611d8f565b90500361070657600080fd5b600073ffffffffffffffffffffffffffffffffffffffff1660038660405161072e9190611dfc565b908152602001604051809103902060009054906101000a900473ffffffffffffffffffffffffffffffffffffffff1673ffffffffffffffffffffffffffffffffffffffff160361077d57600080fd5b6000600560006003886040516107939190611dfc565b908152602001604051809103902060009054906101000a900473ffffffffffffffffffffffffffffffffffffffff1673ffffffffffffffffffffffffffffffffffffffff1673ffffffffffffffffffffffffffffffffffffffff168152602001908152602001600020905061080888876110fa565b61096c57600460006003886040516108209190611dfc565b908152602001604051809103902060009054906101000a900473ffffffffffffffffffffffffffffffffffffffff1673ffffffffffffffffffffffffffffffffffffffff1673ffffffffffffffffffffffffffffffffffffffff168152602001908152602001600020889080600181540180825580915050600190039060005260206000200160009091909190915090816108bb9190611fbf565b50600660006003886040516108d09190611dfc565b908152602001604051809103902060009054906101000a900473ffffffffffffffffffffffffffffffffffffffff1673ffffffffffffffffffffffffffffffffffffffff1673ffffffffffffffffffffffffffffffffffffffff168152602001908152602001600020886040516109479190611dfc565b90815260200160405180910390206000815480929190610966906120c0565b91905055505b6000818960405161097d9190611dfc565b90815260200160405180910390209050888160008573ffffffffffffffffffffffffffffffffffffffff1673ffffffffffffffffffffffffffffffffffffffff16815260200190815260200160002060000190816109db9190611fbf565b50878160008573ffffffffffffffffffffffffffffffffffffffff1673ffffffffffffffffffffffffffffffffffffffff1681526020019081526020016000206001019081610a2a9190611fbf565b50868160008573ffffffffffffffffffffffffffffffffffffffff1673ffffffffffffffffffffffffffffffffffffffff1681526020019081526020016000206002019081610a799190611fbf565b50858160008573ffffffffffffffffffffffffffffffffffffffff1673ffffffffffffffffffffffffffffffffffffffff16815260200190815260200160002060030181905550848160008573ffffffffffffffffffffffffffffffffffffffff1673ffffffffffffffffffffffffffffffffffffffff16815260200190815260200160002060040181905550838160008573ffffffffffffffffffffffffffffffffffffffff1673ffffffffffffffffffffffffffffffffffffffff16815260200190815260200160002060050181905550505050505050505050565b60608060003390506000600460008373ffffffffffffffffffffffffffffffffffffffff1673ffffffffffffffffffffffffffffffffffffffff16815260200190815260200160002090506000600460008473ffffffffffffffffffffffffffffffffffffffff1673ffffffffffffffffffffffffffffffffffffffff1681526020019081526020016000208054905067ffffffffffffffff811115610c0057610bff6115cb565b5b604051908082528060200260200182016040528015610c3957816020015b610c266113fb565b815260200190600190039081610c1e5790505b50905060005b8280549050811015610fda576000838281548110610c6057610c5f612108565b5b906000526020600020018054610c7590611d8f565b80601f0160208091040260200160405190810160405280929190818152602001828054610ca190611d8f565b8015610cee5780601f10610cc357610100808354040283529160200191610cee565b820191906000526020600020905b815481529060010190602001808311610cd157829003601f168201915b50505050509050600560008673ffffffffffffffffffffffffffffffffffffffff1673ffffffffffffffffffffffffffffffffffffffff16815260200190815260200160002081604051610d429190611dfc565b9081526020016040518091039020600060038a604051610d629190611dfc565b908152602001604051809103902060009054906101000a900473ffffffffffffffffffffffffffffffffffffffff1673ffffffffffffffffffffffffffffffffffffffff1673ffffffffffffffffffffffffffffffffffffffff1681526020019081526020016000206040518060c0016040529081600082018054610de690611d8f565b80601f0160208091040260200160405190810160405280929190818152602001828054610e1290611d8f565b8015610e5f5780601f10610e3457610100808354040283529160200191610e5f565b820191906000526020600020905b815481529060010190602001808311610e4257829003601f168201915b50505050508152602001600182018054610e7890611d8f565b80601f0160208091040260200160405190810160405280929190818152602001828054610ea490611d8f565b8015610ef15780601f10610ec657610100808354040283529160200191610ef1565b820191906000526020600020905b815481529060010190602001808311610ed457829003601f168201915b50505050508152602001600282018054610f0a90611d8f565b80601f0160208091040260200160405190810160405280929190818152602001828054610f3690611d8f565b8015610f835780601f10610f5857610100808354040283529160200191610f83565b820191906000526020600020905b815481529060010190602001808311610f6657829003601f168201915b505050505081526020016003820154815260200160048201548152602001600582015481525050838381518110610fbd57610fbc612108565b5b60200260200101819052505080610fd3906120c0565b9050610c3f565b50600460008473ffffffffffffffffffffffffffffffffffffffff1673ffffffffffffffffffffffffffffffffffffffff1681526020019081526020016000208181805480602002602001604051908101604052809291908181526020016000905b828210156110e857838290600052602060002001805461105b90611d8f565b80601f016020809104026020016040519081016040528092919081815260200182805461108790611d8f565b80156110d45780601f106110a9576101008083540402835291602001916110d4565b820191906000526020600020905b8154815290600101906020018083116110b757829003601f168201915b50505050508152602001906001019061103c565b50505050915094509450505050915091565b600080600660006003856040516111119190611dfc565b908152602001604051809103902060009054906101000a900473ffffffffffffffffffffffffffffffffffffffff1673ffffffffffffffffffffffffffffffffffffffff1673ffffffffffffffffffffffffffffffffffffffff168152602001908152602001600020846040516111889190611dfc565b9081526020016040518091039020541415905092915050565b6000600260008473ffffffffffffffffffffffffffffffffffffffff1673ffffffffffffffffffffffffffffffffffffffff16815260200190815260200160002080546111ed90611d8f565b90501480156112665750600073ffffffffffffffffffffffffffffffffffffffff1660038260405161121f9190611dfc565b908152602001604051809103902060009054906101000a900473ffffffffffffffffffffffffffffffffffffffff1673ffffffffffffffffffffffffffffffffffffffff16145b156113ae5760008190806001815401808255809150506001900390600052602060002001600090919091909150908161129f9190611fbf565b506001829080600181540180825580915050600190039060005260206000200160009091909190916101000a81548173ffffffffffffffffffffffffffffffffffffffff021916908373ffffffffffffffffffffffffffffffffffffffff160217905550816003826040516113149190611dfc565b908152602001604051809103902060006101000a81548173ffffffffffffffffffffffffffffffffffffffff021916908373ffffffffffffffffffffffffffffffffffffffff16021790555080600260008473ffffffffffffffffffffffffffffffffffffffff1673ffffffffffffffffffffffffffffffffffffffff16815260200190815260200160002090816113ac9190611fbf565b505b5050565b6003818051602081018201805184825260208301602085012081835280955050505050506000915054906101000a900473ffffffffffffffffffffffffffffffffffffffff1681565b6040518060c001604052806060815260200160608152602001606081526020016000815260200160008152602001600081525090565b6000604051905090565b600080fd5b600080fd5b6000819050919050565b61145881611445565b811461146357600080fd5b50565b6000813590506114758161144f565b92915050565b6000602082840312156114915761149061143b565b5b600061149f84828501611466565b91505092915050565b600081519050919050565b600082825260208201905092915050565b60005b838110156114e25780820151818401526020810190506114c7565b838111156114f1576000848401525b50505050565b6000601f19601f8301169050919050565b6000611513826114a8565b61151d81856114b3565b935061152d8185602086016114c4565b611536816114f7565b840191505092915050565b6000602082019050818103600083015261155b8184611508565b905092915050565b600073ffffffffffffffffffffffffffffffffffffffff82169050919050565b600061158e82611563565b9050919050565b61159e81611583565b81146115a957600080fd5b50565b6000813590506115bb81611595565b92915050565b600080fd5b600080fd5b7f4e487b7100000000000000000000000000000000000000000000000000000000600052604160045260246000fd5b611603826114f7565b810181811067ffffffffffffffff82111715611622576116216115cb565b5b80604052505050565b6000611635611431565b905061164182826115fa565b919050565b600067ffffffffffffffff821115611661576116606115cb565b5b61166a826114f7565b9050602081019050919050565b82818337600083830152505050565b600061169961169484611646565b61162b565b9050828152602081018484840111156116b5576116b46115c6565b5b6116c0848285611677565b509392505050565b600082601f8301126116dd576116dc6115c1565b5b81356116ed848260208601611686565b91505092915050565b60008060006060848603121561170f5761170e61143b565b5b600061171d868287016115ac565b935050602084013567ffffffffffffffff81111561173e5761173d611440565b5b61174a868287016116c8565b925050604061175b868287016115ac565b9150509250925092565b61176e81611445565b82525050565b600060c082019050818103600083015261178e8189611508565b905081810360208301526117a28188611508565b905081810360408301526117b68187611508565b90506117c56060830186611765565b6117d26080830185611765565b6117df60a0830184611765565b979650505050505050565b600060208284031215611800576117ff61143b565b5b600061180e848285016115ac565b91505092915050565b6000806040838503121561182e5761182d61143b565b5b600061183c858286016115ac565b925050602061184d85828601611466565b9150509250929050565b61186081611583565b82525050565b600060208201905061187b6000830184611857565b92915050565b60008060008060008060c0878903121561189e5761189d61143b565b5b600087013567ffffffffffffffff8111156118bc576118bb611440565b5b6118c889828a016116c8565b965050602087013567ffffffffffffffff8111156118e9576118e8611440565b5b6118f589828a016116c8565b955050604087013567ffffffffffffffff81111561191657611915611440565b5b61192289828a016116c8565b945050606061193389828a01611466565b935050608061194489828a01611466565b92505060a061195589828a01611466565b9150509295509295509295565b6000602082840312156119785761197761143b565b5b600082013567ffffffffffffffff81111561199657611995611440565b5b6119a2848285016116c8565b91505092915050565b600081519050919050565b600082825260208201905092915050565b6000819050602082019050919050565b600082825260208201905092915050565b60006119f3826114a8565b6119fd81856119d7565b9350611a0d8185602086016114c4565b611a16816114f7565b840191505092915050565b6000611a2d83836119e8565b905092915050565b6000602082019050919050565b6000611a4d826119ab565b611a5781856119b6565b935083602082028501611a69856119c7565b8060005b85811015611aa55784840389528151611a868582611a21565b9450611a9183611a35565b925060208a01995050600181019050611a6d565b50829750879550505050505092915050565b600081519050919050565b600082825260208201905092915050565b6000819050602082019050919050565b611aec81611445565b82525050565b600060c0830160008301518482036000860152611b0f82826119e8565b91505060208301518482036020860152611b2982826119e8565b91505060408301518482036040860152611b4382826119e8565b9150506060830151611b586060860182611ae3565b506080830151611b6b6080860182611ae3565b5060a0830151611b7e60a0860182611ae3565b508091505092915050565b6000611b958383611af2565b905092915050565b6000602082019050919050565b6000611bb582611ab7565b611bbf8185611ac2565b935083602082028501611bd185611ad3565b8060005b85811015611c0d5784840389528151611bee8582611b89565b9450611bf983611b9d565b925060208a01995050600181019050611bd5565b50829750879550505050505092915050565b60006040820190508181036000830152611c398185611a42565b90508181036020830152611c4d8184611baa565b90509392505050565b60008060408385031215611c6d57611c6c61143b565b5b600083013567ffffffffffffffff811115611c8b57611c8a611440565b5b611c97858286016116c8565b925050602083013567ffffffffffffffff811115611cb857611cb7611440565b5b611cc4858286016116c8565b9150509250929050565b60008115159050919050565b611ce381611cce565b82525050565b6000602082019050611cfe6000830184611cda565b92915050565b60008060408385031215611d1b57611d1a61143b565b5b6000611d29858286016115ac565b925050602083013567ffffffffffffffff811115611d4a57611d49611440565b5b611d56858286016116c8565b9150509250929050565b7f4e487b7100000000000000000000000000000000000000000000000000000000600052602260045260246000fd5b60006002820490506001821680611da757607f821691505b602082108103611dba57611db9611d60565b5b50919050565b600081905092915050565b6000611dd6826114a8565b611de08185611dc0565b9350611df08185602086016114c4565b80840191505092915050565b6000611e088284611dcb565b915081905092915050565b60008190508160005260206000209050919050565b60006020601f8301049050919050565b600082821b905092915050565b600060088302611e757fffffffffffffffffffffffffffffffffffffffffffffffffffffffffffffffff82611e38565b611e7f8683611e38565b95508019841693508086168417925050509392505050565b6000819050919050565b6000611ebc611eb7611eb284611445565b611e97565b611445565b9050919050565b6000819050919050565b611ed683611ea1565b611eea611ee282611ec3565b848454611e45565b825550505050565b600090565b611eff611ef2565b611f0a818484611ecd565b505050565b5b81811015611f2e57611f23600082611ef7565b600181019050611f10565b5050565b601f821115611f7357611f4481611e13565b611f4d84611e28565b81016020851015611f5c578190505b611f70611f6885611e28565b830182611f0f565b50505b505050565b600082821c905092915050565b6000611f9660001984600802611f78565b1980831691505092915050565b6000611faf8383611f85565b9150826002028217905092915050565b611fc8826114a8565b67ffffffffffffffff811115611fe157611fe06115cb565b5b611feb8254611d8f565b611ff6828285611f32565b600060209050601f8311600181146120295760008415612017578287015190505b6120218582611fa3565b865550612089565b601f19841661203786611e13565b60005b8281101561205f5784890151825560018201915060208501945060208101905061203a565b8683101561207c5784890151612078601f891682611f85565b8355505b6001600288020188555050505b505050505050565b7f4e487b7100000000000000000000000000000000000000000000000000000000600052601160045260246000fd5b60006120cb82611445565b91507fffffffffffffffffffffffffffffffffffffffffffffffffffffffffffffffff82036120fd576120fc612091565b5b600182019050919050565b7f4e487b7100000000000000000000000000000000000000000000000000000000600052603260045260246000fdfea26469706673582212203c2e7d51302e902ad0f84296e940921cfea26d16d6727b69d9f300d61d55aeeb64736f6c634300080f0033","opcodes":"PUSH1 0x80 PUSH1 0x40 MSTORE CALLVALUE DUP1 ISZERO PUSH2 0x10 JUMPI PUSH1 0x0 DUP1 REVERT JUMPDEST POP PUSH2 0x216D DUP1 PUSH2 0x20 PUSH1 0x0 CODECOPY PUSH1 0x0 RETURN INVALID PUSH1 0x80 PUSH1 0x40 MSTORE CALLVALUE DUP1 ISZERO PUSH2 0x10 JUMPI PUSH1 0x0 DUP1 REVERT JUMPDEST POP PUSH1 0x4 CALLDATASIZE LT PUSH2 0x9E JUMPI PUSH1 0x0 CALLDATALOAD PUSH1 0xE0 SHR DUP1 PUSH4 0x8F1D613D GT PUSH2 0x66 JUMPI DUP1 PUSH4 0x8F1D613D EQ PUSH2 0x198 JUMPI DUP1 PUSH4 0xA8367070 EQ PUSH2 0x1B4 JUMPI DUP1 PUSH4 0xAB6A9F17 EQ PUSH2 0x1E5 JUMPI DUP1 PUSH4 0xC7FA1063 EQ PUSH2 0x215 JUMPI DUP1 PUSH4 0xFD70C7DD EQ PUSH2 0x231 JUMPI PUSH2 0x9E JUMP JUMPDEST DUP1 PUSH4 0xA02DCC7 EQ PUSH2 0xA3 JUMPI DUP1 PUSH4 0x32F97763 EQ PUSH2 0xD3 JUMPI DUP1 PUSH4 0x64AA65A8 EQ PUSH2 0x108 JUMPI DUP1 PUSH4 0x6E6061D1 EQ PUSH2 0x138 JUMPI DUP1 PUSH4 0x7792A035 EQ PUSH2 0x168 JUMPI JUMPDEST PUSH1 0x0 DUP1 REVERT JUMPDEST PUSH2 0xBD PUSH1 0x4 DUP1 CALLDATASIZE SUB DUP2 ADD SWAP1 PUSH2 0xB8 SWAP2 SWAP1 PUSH2 0x147B JUMP JUMPDEST PUSH2 0x261 JUMP JUMPDEST PUSH1 0x40 MLOAD PUSH2 0xCA SWAP2 SWAP1 PUSH2 0x1541 JUMP JUMPDEST PUSH1 0x40 MLOAD DUP1 SWAP2 SUB SWAP1 RETURN JUMPDEST PUSH2 0xED PUSH1 0x4 DUP1 CALLDATASIZE SUB DUP2 ADD SWAP1 PUSH2 0xE8 SWAP2 SWAP1 PUSH2 0x16F6 JUMP JUMPDEST PUSH2 0x30D JUMP JUMPDEST PUSH1 0x40 MLOAD PUSH2 0xFF SWAP7 SWAP6 SWAP5 SWAP4 SWAP3 SWAP2 SWAP1 PUSH2 0x1774 JUMP JUMPDEST PUSH1 0x40 MLOAD DUP1 SWAP2 SUB SWAP1 RETURN JUMPDEST PUSH2 0x122 PUSH1 0x4 DUP1 CALLDATASIZE SUB DUP2 ADD SWAP1 PUSH2 0x11D SWAP2 SWAP1 PUSH2 0x17EA JUMP JUMPDEST PUSH2 0x511 JUMP JUMPDEST PUSH1 0x40 MLOAD PUSH2 0x12F SWAP2 SWAP1 PUSH2 0x1541 JUMP JUMPDEST PUSH1 0x40 MLOAD DUP1 SWAP2 SUB SWAP1 RETURN JUMPDEST PUSH2 0x152 PUSH1 0x4 DUP1 CALLDATASIZE SUB DUP2 ADD SWAP1 PUSH2 0x14D SWAP2 SWAP1 PUSH2 0x1817 JUMP JUMPDEST PUSH2 0x5B1 JUMP JUMPDEST PUSH1 0x40 MLOAD PUSH2 0x15F SWAP2 SWAP1 PUSH2 0x1541 JUMP JUMPDEST PUSH1 0x40 MLOAD DUP1 SWAP2 SUB SWAP1 RETURN JUMPDEST PUSH2 0x182 PUSH1 0x4 DUP1 CALLDATASIZE SUB DUP2 ADD SWAP1 PUSH2 0x17D SWAP2 SWAP1 PUSH2 0x147B JUMP JUMPDEST PUSH2 0x66A JUMP JUMPDEST PUSH1 0x40 MLOAD PUSH2 0x18F SWAP2 SWAP1 PUSH2 0x1866 JUMP JUMPDEST PUSH1 0x40 MLOAD DUP1 SWAP2 SUB SWAP1 RETURN JUMPDEST PUSH2 0x1B2 PUSH1 0x4 DUP1 CALLDATASIZE SUB DUP2 ADD SWAP1 PUSH2 0x1AD SWAP2 SWAP1 PUSH2 0x1881 JUMP JUMPDEST PUSH2 0x6A9 JUMP JUMPDEST STOP JUMPDEST PUSH2 0x1CE PUSH1 0x4 DUP1 CALLDATASIZE SUB DUP2 ADD SWAP1 PUSH2 0x1C9 SWAP2 SWAP1 PUSH2 0x1962 JUMP JUMPDEST PUSH2 0xB57 JUMP JUMPDEST PUSH1 0x40 MLOAD PUSH2 0x1DC SWAP3 SWAP2 SWAP1 PUSH2 0x1C1F JUMP JUMPDEST PUSH1 0x40 MLOAD DUP1 SWAP2 SUB SWAP1 RETURN JUMPDEST PUSH2 0x1FF PUSH1 0x4 DUP1 CALLDATASIZE SUB DUP2 ADD SWAP1 PUSH2 0x1FA SWAP2 SWAP1 PUSH2 0x1C56 JUMP JUMPDEST PUSH2 0x10FA JUMP JUMPDEST PUSH1 0x40 MLOAD PUSH2 0x20C SWAP2 SWAP1 PUSH2 0x1CE9 JUMP JUMPDEST PUSH1 0x40 MLOAD DUP1 SWAP2 SUB SWAP1 RETURN JUMPDEST PUSH2 0x22F PUSH1 0x4 DUP1 CALLDATASIZE SUB DUP2 ADD SWAP1 PUSH2 0x22A SWAP2 SWAP1 PUSH2 0x1D04 JUMP JUMPDEST PUSH2 0x11A1 JUMP JUMPDEST STOP JUMPDEST PUSH2 0x24B PUSH1 0x4 DUP1 CALLDATASIZE SUB DUP2 ADD SWAP1 PUSH2 0x246 SWAP2 SWAP1 PUSH2 0x1962 JUMP JUMPDEST PUSH2 0x13B2 JUMP JUMPDEST PUSH1 0x40 MLOAD PUSH2 0x258 SWAP2 SWAP1 PUSH2 0x1866 JUMP JUMPDEST PUSH1 0x40 MLOAD DUP1 SWAP2 SUB SWAP1 RETURN JUMPDEST PUSH1 0x0 DUP2 DUP2 SLOAD DUP2 LT PUSH2 0x271 JUMPI PUSH1 0x0 DUP1 REVERT JUMPDEST SWAP1 PUSH1 0x0 MSTORE PUSH1 0x20 PUSH1 0x0 KECCAK256 ADD PUSH1 0x0 SWAP2 POP SWAP1 POP DUP1 SLOAD PUSH2 0x28C SWAP1 PUSH2 0x1D8F JUMP JUMPDEST DUP1 PUSH1 0x1F ADD PUSH1 0x20 DUP1 SWAP2 DIV MUL PUSH1 0x20 ADD PUSH1 0x40 MLOAD SWAP1 DUP2 ADD PUSH1 0x40 MSTORE DUP1 SWAP3 SWAP2 SWAP1 DUP2 DUP2 MSTORE PUSH1 0x20 ADD DUP3 DUP1 SLOAD PUSH2 0x2B8 SWAP1 PUSH2 0x1D8F JUMP JUMPDEST DUP1 ISZERO PUSH2 0x305 JUMPI DUP1 PUSH1 0x1F LT PUSH2 0x2DA JUMPI PUSH2 0x100 DUP1 DUP4 SLOAD DIV MUL DUP4 MSTORE SWAP2 PUSH1 0x20 ADD SWAP2 PUSH2 0x305 JUMP JUMPDEST DUP3 ADD SWAP2 SWAP1 PUSH1 0x0 MSTORE PUSH1 0x20 PUSH1 0x0 KECCAK256 SWAP1 JUMPDEST DUP2 SLOAD DUP2 MSTORE SWAP1 PUSH1 0x1 ADD SWAP1 PUSH1 0x20 ADD DUP1 DUP4 GT PUSH2 0x2E8 JUMPI DUP3 SWAP1 SUB PUSH1 0x1F AND DUP3 ADD SWAP2 JUMPDEST POP POP POP POP POP DUP2 JUMP JUMPDEST PUSH1 0x5 PUSH1 0x20 MSTORE DUP3 PUSH1 0x0 MSTORE PUSH1 0x40 PUSH1 0x0 KECCAK256 DUP3 DUP1 MLOAD PUSH1 0x20 DUP2 ADD DUP3 ADD DUP1 MLOAD DUP5 DUP3 MSTORE PUSH1 0x20 DUP4 ADD PUSH1 0x20 DUP6 ADD KECCAK256 DUP2 DUP4 MSTORE DUP1 SWAP6 POP POP POP POP POP POP PUSH1 0x20 MSTORE DUP1 PUSH1 0x0 MSTORE PUSH1 0x40 PUSH1 0x0 KECCAK256 PUSH1 0x0 SWAP3 POP SWAP3 POP POP POP DUP1 PUSH1 0x0 ADD DUP1 SLOAD PUSH2 0x360 SWAP1 PUSH2 0x1D8F JUMP JUMPDEST DUP1 PUSH1 0x1F ADD PUSH1 0x20 DUP1 SWAP2 DIV MUL PUSH1 0x20 ADD PUSH1 0x40 MLOAD SWAP1 DUP2 ADD PUSH1 0x40 MSTORE DUP1 SWAP3 SWAP2 SWAP1 DUP2 DUP2 MSTORE PUSH1 0x20 ADD DUP3 DUP1 SLOAD PUSH2 0x38C SWAP1 PUSH2 0x1D8F JUMP JUMPDEST DUP1 ISZERO PUSH2 0x3D9 JUMPI DUP1 PUSH1 0x1F LT PUSH2 0x3AE JUMPI PUSH2 0x100 DUP1 DUP4 SLOAD DIV MUL DUP4 MSTORE SWAP2 PUSH1 0x20 ADD SWAP2 PUSH2 0x3D9 JUMP JUMPDEST DUP3 ADD SWAP2 SWAP1 PUSH1 0x0 MSTORE PUSH1 0x20 PUSH1 0x0 KECCAK256 SWAP1 JUMPDEST DUP2 SLOAD DUP2 MSTORE SWAP1 PUSH1 0x1 ADD SWAP1 PUSH1 0x20 ADD DUP1 DUP4 GT PUSH2 0x3BC JUMPI DUP3 SWAP1 SUB PUSH1 0x1F AND DUP3 ADD SWAP2 JUMPDEST POP POP POP POP POP SWAP1 DUP1 PUSH1 0x1 ADD DUP1 SLOAD PUSH2 0x3EE SWAP1 PUSH2 0x1D8F JUMP JUMPDEST DUP1 PUSH1 0x1F ADD PUSH1 0x20 DUP1 SWAP2 DIV MUL PUSH1 0x20 ADD PUSH1 0x40 MLOAD SWAP1 DUP2 ADD PUSH1 0x40 MSTORE DUP1 SWAP3 SWAP2 SWAP1 DUP2 DUP2 MSTORE PUSH1 0x20 ADD DUP3 DUP1 SLOAD PUSH2 0x41A SWAP1 PUSH2 0x1D8F JUMP JUMPDEST DUP1 ISZERO PUSH2 0x467 JUMPI DUP1 PUSH1 0x1F LT PUSH2 0x43C JUMPI PUSH2 0x100 DUP1 DUP4 SLOAD DIV MUL DUP4 MSTORE SWAP2 PUSH1 0x20 ADD SWAP2 PUSH2 0x467 JUMP JUMPDEST DUP3 ADD SWAP2 SWAP1 PUSH1 0x0 MSTORE PUSH1 0x20 PUSH1 0x0 KECCAK256 SWAP1 JUMPDEST DUP2 SLOAD DUP2 MSTORE SWAP1 PUSH1 0x1 ADD SWAP1 PUSH1 0x20 ADD DUP1 DUP4 GT PUSH2 0x44A JUMPI DUP3 SWAP1 SUB PUSH1 0x1F AND DUP3 ADD SWAP2 JUMPDEST POP POP POP POP POP SWAP1 DUP1 PUSH1 0x2 ADD DUP1 SLOAD PUSH2 0x47C SWAP1 PUSH2 0x1D8F JUMP JUMPDEST DUP1 PUSH1 0x1F ADD PUSH1 0x20 DUP1 SWAP2 DIV MUL PUSH1 0x20 ADD PUSH1 0x40 MLOAD SWAP1 DUP2 ADD PUSH1 0x40 MSTORE DUP1 SWAP3 SWAP2 SWAP1 DUP2 DUP2 MSTORE PUSH1 0x20 ADD DUP3 DUP1 SLOAD PUSH2 0x4A8 SWAP1 PUSH2 0x1D8F JUMP JUMPDEST DUP1 ISZERO PUSH2 0x4F5 JUMPI DUP1 PUSH1 0x1F LT PUSH2 0x4CA JUMPI PUSH2 0x100 DUP1 DUP4 SLOAD DIV MUL DUP4 MSTORE SWAP2 PUSH1 0x20 ADD SWAP2 PUSH2 0x4F5 JUMP JUMPDEST DUP3 ADD SWAP2 SWAP1 PUSH1 0x0 MSTORE PUSH1 0x20 PUSH1 0x0 KECCAK256 SWAP1 JUMPDEST DUP2 SLOAD DUP2 MSTORE SWAP1 PUSH1 0x1 ADD SWAP1 PUSH1 0x20 ADD DUP1 DUP4 GT PUSH2 0x4D8 JUMPI DUP3 SWAP1 SUB PUSH1 0x1F AND DUP3 ADD SWAP2 JUMPDEST POP POP POP POP POP SWAP1 DUP1 PUSH1 0x3 ADD SLOAD SWAP1 DUP1 PUSH1 0x4 ADD SLOAD SWAP1 DUP1 PUSH1 0x5 ADD SLOAD SWAP1 POP DUP7 JUMP JUMPDEST PUSH1 0x2 PUSH1 0x20 MSTORE DUP1 PUSH1 0x0 MSTORE PUSH1 0x40 PUSH1 0x0 KECCAK256 PUSH1 0x0 SWAP2 POP SWAP1 POP DUP1 SLOAD PUSH2 0x530 SWAP1 PUSH2 0x1D8F JUMP JUMPDEST DUP1 PUSH1 0x1F ADD PUSH1 0x20 DUP1 SWAP2 DIV MUL PUSH1 0x20 ADD PUSH1 0x40 MLOAD SWAP1 DUP2 ADD PUSH1 0x40 MSTORE DUP1 SWAP3 SWAP2 SWAP1 DUP2 DUP2 MSTORE PUSH1 0x20 ADD DUP3 DUP1 SLOAD PUSH2 0x55C SWAP1 PUSH2 0x1D8F JUMP JUMPDEST DUP1 ISZERO PUSH2 0x5A9 JUMPI DUP1 PUSH1 0x1F LT PUSH2 0x57E JUMPI PUSH2 0x100 DUP1 DUP4 SLOAD DIV MUL DUP4 MSTORE SWAP2 PUSH1 0x20 ADD SWAP2 PUSH2 0x5A9 JUMP JUMPDEST DUP3 ADD SWAP2 SWAP1 PUSH1 0x0 MSTORE PUSH1 0x20 PUSH1 0x0 KECCAK256 SWAP1 JUMPDEST DUP2 SLOAD DUP2 MSTORE SWAP1 PUSH1 0x1 ADD SWAP1 PUSH1 0x20 ADD DUP1 DUP4 GT PUSH2 0x58C JUMPI DUP3 SWAP1 SUB PUSH1 0x1F AND DUP3 ADD SWAP2 JUMPDEST POP POP POP POP POP DUP2 JUMP JUMPDEST PUSH1 0x4 PUSH1 0x20 MSTORE DUP2 PUSH1 0x0 MSTORE PUSH1 0x40 PUSH1 0x0 KECCAK256 DUP2 DUP2 SLOAD DUP2 LT PUSH2 0x5CD JUMPI PUSH1 0x0 DUP1 REVERT JUMPDEST SWAP1 PUSH1 0x0 MSTORE PUSH1 0x20 PUSH1 0x0 KECCAK256 ADD PUSH1 0x0 SWAP2 POP SWAP2 POP POP DUP1 SLOAD PUSH2 0x5E9 SWAP1 PUSH2 0x1D8F JUMP JUMPDEST DUP1 PUSH1 0x1F ADD PUSH1 0x20 DUP1 SWAP2 DIV MUL PUSH1 0x20 ADD PUSH1 0x40 MLOAD SWAP1 DUP2 ADD PUSH1 0x40 MSTORE DUP1 SWAP3 SWAP2 SWAP1 DUP2 DUP2 MSTORE PUSH1 0x20 ADD DUP3 DUP1 SLOAD PUSH2 0x615 SWAP1 PUSH2 0x1D8F JUMP JUMPDEST DUP1 ISZERO PUSH2 0x662 JUMPI DUP1 PUSH1 0x1F LT PUSH2 0x637 JUMPI PUSH2 0x100 DUP1 DUP4 SLOAD DIV MUL DUP4 MSTORE SWAP2 PUSH1 0x20 ADD SWAP2 PUSH2 0x662 JUMP JUMPDEST DUP3 ADD SWAP2 SWAP1 PUSH1 0x0 MSTORE PUSH1 0x20 PUSH1 0x0 KECCAK256 SWAP1 JUMPDEST DUP2 SLOAD DUP2 MSTORE SWAP1 PUSH1 0x1 ADD SWAP1 PUSH1 0x20 ADD DUP1 DUP4 GT PUSH2 0x645 JUMPI DUP3 SWAP1 SUB PUSH1 0x1F AND DUP3 ADD SWAP2 JUMPDEST POP POP POP POP POP DUP2 JUMP JUMPDEST PUSH1 0x1 DUP2 DUP2 SLOAD DUP2 LT PUSH2 0x67A JUMPI PUSH1 0x0 DUP1 REVERT JUMPDEST SWAP1 PUSH1 0x0 MSTORE PUSH1 0x20 PUSH1 0x0 KECCAK256 ADD PUSH1 0x0 SWAP2 POP SLOAD SWAP1 PUSH2 0x100 EXP SWAP1 DIV PUSH20 0xFFFFFFFFFFFFFFFFFFFFFFFFFFFFFFFFFFFFFFFF AND DUP2 JUMP JUMPDEST PUSH1 0x0 CALLER SWAP1 POP PUSH1 0x0 PUSH1 0x2 PUSH1 0x0 DUP4 PUSH20 0xFFFFFFFFFFFFFFFFFFFFFFFFFFFFFFFFFFFFFFFF AND PUSH20 0xFFFFFFFFFFFFFFFFFFFFFFFFFFFFFFFFFFFFFFFF AND DUP2 MSTORE PUSH1 0x20 ADD SWAP1 DUP2 MSTORE PUSH1 0x20 ADD PUSH1 0x0 KECCAK256 DUP1 SLOAD PUSH2 0x6FA SWAP1 PUSH2 0x1D8F JUMP JUMPDEST SWAP1 POP SUB PUSH2 0x706 JUMPI PUSH1 0x0 DUP1 REVERT JUMPDEST PUSH1 0x0 PUSH20 0xFFFFFFFFFFFFFFFFFFFFFFFFFFFFFFFFFFFFFFFF AND PUSH1 0x3 DUP7 PUSH1 0x40 MLOAD PUSH2 0x72E SWAP2 SWAP1 PUSH2 0x1DFC JUMP JUMPDEST SWAP1 DUP2 MSTORE PUSH1 0x20 ADD PUSH1 0x40 MLOAD DUP1 SWAP2 SUB SWAP1 KECCAK256 PUSH1 0x0 SWAP1 SLOAD SWAP1 PUSH2 0x100 EXP SWAP1 DIV PUSH20 0xFFFFFFFFFFFFFFFFFFFFFFFFFFFFFFFFFFFFFFFF AND PUSH20 0xFFFFFFFFFFFFFFFFFFFFFFFFFFFFFFFFFFFFFFFF AND SUB PUSH2 0x77D JUMPI PUSH1 0x0 DUP1 REVERT JUMPDEST PUSH1 0x0 PUSH1 0x5 PUSH1 0x0 PUSH1 0x3 DUP9 PUSH1 0x40 MLOAD PUSH2 0x793 SWAP2 SWAP1 PUSH2 0x1DFC JUMP JUMPDEST SWAP1 DUP2 MSTORE PUSH1 0x20 ADD PUSH1 0x40 MLOAD DUP1 SWAP2 SUB SWAP1 KECCAK256 PUSH1 0x0 SWAP1 SLOAD SWAP1 PUSH2 0x100 EXP SWAP1 DIV PUSH20 0xFFFFFFFFFFFFFFFFFFFFFFFFFFFFFFFFFFFFFFFF AND PUSH20 0xFFFFFFFFFFFFFFFFFFFFFFFFFFFFFFFFFFFFFFFF AND PUSH20 0xFFFFFFFFFFFFFFFFFFFFFFFFFFFFFFFFFFFFFFFF AND DUP2 MSTORE PUSH1 0x20 ADD SWAP1 DUP2 MSTORE PUSH1 0x20 ADD PUSH1 0x0 KECCAK256 SWAP1 POP PUSH2 0x808 DUP9 DUP8 PUSH2 0x10FA JUMP JUMPDEST PUSH2 0x96C JUMPI PUSH1 0x4 PUSH1 0x0 PUSH1 0x3 DUP9 PUSH1 0x40 MLOAD PUSH2 0x820 SWAP2 SWAP1 PUSH2 0x1DFC JUMP JUMPDEST SWAP1 DUP2 MSTORE PUSH1 0x20 ADD PUSH1 0x40 MLOAD DUP1 SWAP2 SUB SWAP1 KECCAK256 PUSH1 0x0 SWAP1 SLOAD SWAP1 PUSH2 0x100 EXP SWAP1 DIV PUSH20 0xFFFFFFFFFFFFFFFFFFFFFFFFFFFFFFFFFFFFFFFF AND PUSH20 0xFFFFFFFFFFFFFFFFFFFFFFFFFFFFFFFFFFFFFFFF AND PUSH20 0xFFFFFFFFFFFFFFFFFFFFFFFFFFFFFFFFFFFFFFFF AND DUP2 MSTORE PUSH1 0x20 ADD SWAP1 DUP2 MSTORE PUSH1 0x20 ADD PUSH1 0x0 KECCAK256 DUP9 SWAP1 DUP1 PUSH1 0x1 DUP2 SLOAD ADD DUP1 DUP3 SSTORE DUP1 SWAP2 POP POP PUSH1 0x1 SWAP1 SUB SWAP1 PUSH1 0x0 MSTORE PUSH1 0x20 PUSH1 0x0 KECCAK256 ADD PUSH1 0x0 SWAP1 SWAP2 SWAP1 SWAP2 SWAP1 SWAP2 POP SWAP1 DUP2 PUSH2 0x8BB SWAP2 SWAP1 PUSH2 0x1FBF JUMP JUMPDEST POP PUSH1 0x6 PUSH1 0x0 PUSH1 0x3 DUP9 PUSH1 0x40 MLOAD PUSH2 0x8D0 SWAP2 SWAP1 PUSH2 0x1DFC JUMP JUMPDEST SWAP1 DUP2 MSTORE PUSH1 0x20 ADD PUSH1 0x40 MLOAD DUP1 SWAP2 SUB SWAP1 KECCAK256 PUSH1 0x0 SWAP1 SLOAD SWAP1 PUSH2 0x100 EXP SWAP1 DIV PUSH20 0xFFFFFFFFFFFFFFFFFFFFFFFFFFFFFFFFFFFFFFFF AND PUSH20 0xFFFFFFFFFFFFFFFFFFFFFFFFFFFFFFFFFFFFFFFF AND PUSH20 0xFFFFFFFFFFFFFFFFFFFFFFFFFFFFFFFFFFFFFFFF AND DUP2 MSTORE PUSH1 0x20 ADD SWAP1 DUP2 MSTORE PUSH1 0x20 ADD PUSH1 0x0 KECCAK256 DUP9 PUSH1 0x40 MLOAD PUSH2 0x947 SWAP2 SWAP1 PUSH2 0x1DFC JUMP JUMPDEST SWAP1 DUP2 MSTORE PUSH1 0x20 ADD PUSH1 0x40 MLOAD DUP1 SWAP2 SUB SWAP1 KECCAK256 PUSH1 0x0 DUP2 SLOAD DUP1 SWAP3 SWAP2 SWAP1 PUSH2 0x966 SWAP1 PUSH2 0x20C0 JUMP JUMPDEST SWAP2 SWAP1 POP SSTORE POP JUMPDEST PUSH1 0x0 DUP2 DUP10 PUSH1 0x40 MLOAD PUSH2 0x97D SWAP2 SWAP1 PUSH2 0x1DFC JUMP JUMPDEST SWAP1 DUP2 MSTORE PUSH1 0x20 ADD PUSH1 0x40 MLOAD DUP1 SWAP2 SUB SWAP1 KECCAK256 SWAP1 POP DUP9 DUP2 PUSH1 0x0 DUP6 PUSH20 0xFFFFFFFFFFFFFFFFFFFFFFFFFFFFFFFFFFFFFFFF AND PUSH20 0xFFFFFFFFFFFFFFFFFFFFFFFFFFFFFFFFFFFFFFFF AND DUP2 MSTORE PUSH1 0x20 ADD SWAP1 DUP2 MSTORE PUSH1 0x20 ADD PUSH1 0x0 KECCAK256 PUSH1 0x0 ADD SWAP1 DUP2 PUSH2 0x9DB SWAP2 SWAP1 PUSH2 0x1FBF JUMP JUMPDEST POP DUP8 DUP2 PUSH1 0x0 DUP6 PUSH20 0xFFFFFFFFFFFFFFFFFFFFFFFFFFFFFFFFFFFFFFFF AND PUSH20 0xFFFFFFFFFFFFFFFFFFFFFFFFFFFFFFFFFFFFFFFF AND DUP2 MSTORE PUSH1 0x20 ADD SWAP1 DUP2 MSTORE PUSH1 0x20 ADD PUSH1 0x0 KECCAK256 PUSH1 0x1 ADD SWAP1 DUP2 PUSH2 0xA2A SWAP2 SWAP1 PUSH2 0x1FBF JUMP JUMPDEST POP DUP7 DUP2 PUSH1 0x0 DUP6 PUSH20 0xFFFFFFFFFFFFFFFFFFFFFFFFFFFFFFFFFFFFFFFF AND PUSH20 0xFFFFFFFFFFFFFFFFFFFFFFFFFFFFFFFFFFFFFFFF AND DUP2 MSTORE PUSH1 0x20 ADD SWAP1 DUP2 MSTORE PUSH1 0x20 ADD PUSH1 0x0 KECCAK256 PUSH1 0x2 ADD SWAP1 DUP2 PUSH2 0xA79 SWAP2 SWAP1 PUSH2 0x1FBF JUMP JUMPDEST POP DUP6 DUP2 PUSH1 0x0 DUP6 PUSH20 0xFFFFFFFFFFFFFFFFFFFFFFFFFFFFFFFFFFFFFFFF AND PUSH20 0xFFFFFFFFFFFFFFFFFFFFFFFFFFFFFFFFFFFFFFFF AND DUP2 MSTORE PUSH1 0x20 ADD SWAP1 DUP2 MSTORE PUSH1 0x20 ADD PUSH1 0x0 KECCAK256 PUSH1 0x3 ADD DUP2 SWAP1 SSTORE POP DUP5 DUP2 PUSH1 0x0 DUP6 PUSH20 0xFFFFFFFFFFFFFFFFFFFFFFFFFFFFFFFFFFFFFFFF AND PUSH20 0xFFFFFFFFFFFFFFFFFFFFFFFFFFFFFFFFFFFFFFFF AND DUP2 MSTORE PUSH1 0x20 ADD SWAP1 DUP2 MSTORE PUSH1 0x20 ADD PUSH1 0x0 KECCAK256 PUSH1 0x4 ADD DUP2 SWAP1 SSTORE POP DUP4 DUP2 PUSH1 0x0 DUP6 PUSH20 0xFFFFFFFFFFFFFFFFFFFFFFFFFFFFFFFFFFFFFFFF AND PUSH20 0xFFFFFFFFFFFFFFFFFFFFFFFFFFFFFFFFFFFFFFFF AND DUP2 MSTORE PUSH1 0x20 ADD SWAP1 DUP2 MSTORE PUSH1 0x20 ADD PUSH1 0x0 KECCAK256 PUSH1 0x5 ADD DUP2 SWAP1 SSTORE POP POP POP POP POP POP POP POP POP POP JUMP JUMPDEST PUSH1 0x60 DUP1 PUSH1 0x0 CALLER SWAP1 POP PUSH1 0x0 PUSH1 0x4 PUSH1 0x0 DUP4 PUSH20 0xFFFFFFFFFFFFFFFFFFFFFFFFFFFFFFFFFFFFFFFF AND PUSH20 0xFFFFFFFFFFFFFFFFFFFFFFFFFFFFFFFFFFFFFFFF AND DUP2 MSTORE PUSH1 0x20 ADD SWAP1 DUP2 MSTORE PUSH1 0x20 ADD PUSH1 0x0 KECCAK256 SWAP1 POP PUSH1 0x0 PUSH1 0x4 PUSH1 0x0 DUP5 PUSH20 0xFFFFFFFFFFFFFFFFFFFFFFFFFFFFFFFFFFFFFFFF AND PUSH20 0xFFFFFFFFFFFFFFFFFFFFFFFFFFFFFFFFFFFFFFFF AND DUP2 MSTORE PUSH1 0x20 ADD SWAP1 DUP2 MSTORE PUSH1 0x20 ADD PUSH1 0x0 KECCAK256 DUP1 SLOAD SWAP1 POP PUSH8 0xFFFFFFFFFFFFFFFF DUP2 GT ISZERO PUSH2 0xC00 JUMPI PUSH2 0xBFF PUSH2 0x15CB JUMP JUMPDEST JUMPDEST PUSH1 0x40 MLOAD SWAP1 DUP1 DUP3 MSTORE DUP1 PUSH1 0x20 MUL PUSH1 0x20 ADD DUP3 ADD PUSH1 0x40 MSTORE DUP1 ISZERO PUSH2 0xC39 JUMPI DUP2 PUSH1 0x20 ADD JUMPDEST PUSH2 0xC26 PUSH2 0x13FB JUMP JUMPDEST DUP2 MSTORE PUSH1 0x20 ADD SWAP1 PUSH1 0x1 SWAP1 SUB SWAP1 DUP2 PUSH2 0xC1E JUMPI SWAP1 POP JUMPDEST POP SWAP1 POP PUSH1 0x0 JUMPDEST DUP3 DUP1 SLOAD SWAP1 POP DUP2 LT ISZERO PUSH2 0xFDA JUMPI PUSH1 0x0 DUP4 DUP3 DUP2 SLOAD DUP2 LT PUSH2 0xC60 JUMPI PUSH2 0xC5F PUSH2 0x2108 JUMP JUMPDEST JUMPDEST SWAP1 PUSH1 0x0 MSTORE PUSH1 0x20 PUSH1 0x0 KECCAK256 ADD DUP1 SLOAD PUSH2 0xC75 SWAP1 PUSH2 0x1D8F JUMP JUMPDEST DUP1 PUSH1 0x1F ADD PUSH1 0x20 DUP1 SWAP2 DIV MUL PUSH1 0x20 ADD PUSH1 0x40 MLOAD SWAP1 DUP2 ADD PUSH1 0x40 MSTORE DUP1 SWAP3 SWAP2 SWAP1 DUP2 DUP2 MSTORE PUSH1 0x20 ADD DUP3 DUP1 SLOAD PUSH2 0xCA1 SWAP1 PUSH2 0x1D8F JUMP JUMPDEST DUP1 ISZERO PUSH2 0xCEE JUMPI DUP1 PUSH1 0x1F LT PUSH2 0xCC3 JUMPI PUSH2 0x100 DUP1 DUP4 SLOAD DIV MUL DUP4 MSTORE SWAP2 PUSH1 0x20 ADD SWAP2 PUSH2 0xCEE JUMP JUMPDEST DUP3 ADD SWAP2 SWAP1 PUSH1 0x0 MSTORE PUSH1 0x20 PUSH1 0x0 KECCAK256 SWAP1 JUMPDEST DUP2 SLOAD DUP2 MSTORE SWAP1 PUSH1 0x1 ADD SWAP1 PUSH1 0x20 ADD DUP1 DUP4 GT PUSH2 0xCD1 JUMPI DUP3 SWAP1 SUB PUSH1 0x1F AND DUP3 ADD SWAP2 JUMPDEST POP POP POP POP POP SWAP1 POP PUSH1 0x5 PUSH1 0x0 DUP7 PUSH20 0xFFFFFFFFFFFFFFFFFFFFFFFFFFFFFFFFFFFFFFFF AND PUSH20 0xFFFFFFFFFFFFFFFFFFFFFFFFFFFFFFFFFFFFFFFF AND DUP2 MSTORE PUSH1 0x20 ADD SWAP1 DUP2 MSTORE PUSH1 0x20 ADD PUSH1 0x0 KECCAK256 DUP2 PUSH1 0x40 MLOAD PUSH2 0xD42 SWAP2 SWAP1 PUSH2 0x1DFC JUMP JUMPDEST SWAP1 DUP2 MSTORE PUSH1 0x20 ADD PUSH1 0x40 MLOAD DUP1 SWAP2 SUB SWAP1 KECCAK256 PUSH1 0x0 PUSH1 0x3 DUP11 PUSH1 0x40 MLOAD PUSH2 0xD62 SWAP2 SWAP1 PUSH2 0x1DFC JUMP JUMPDEST SWAP1 DUP2 MSTORE PUSH1 0x20 ADD PUSH1 0x40 MLOAD DUP1 SWAP2 SUB SWAP1 KECCAK256 PUSH1 0x0 SWAP1 SLOAD SWAP1 PUSH2 0x100 EXP SWAP1 DIV PUSH20 0xFFFFFFFFFFFFFFFFFFFFFFFFFFFFFFFFFFFFFFFF AND PUSH20 0xFFFFFFFFFFFFFFFFFFFFFFFFFFFFFFFFFFFFFFFF AND PUSH20 0xFFFFFFFFFFFFFFFFFFFFFFFFFFFFFFFFFFFFFFFF AND DUP2 MSTORE PUSH1 0x20 ADD SWAP1 DUP2 MSTORE PUSH1 0x20 ADD PUSH1 0x0 KECCAK256 PUSH1 0x40 MLOAD DUP1 PUSH1 0xC0 ADD PUSH1 0x40 MSTORE SWAP1 DUP2 PUSH1 0x0 DUP3 ADD DUP1 SLOAD PUSH2 0xDE6 SWAP1 PUSH2 0x1D8F JUMP JUMPDEST DUP1 PUSH1 0x1F ADD PUSH1 0x20 DUP1 SWAP2 DIV MUL PUSH1 0x20 ADD PUSH1 0x40 MLOAD SWAP1 DUP2 ADD PUSH1 0x40 MSTORE DUP1 SWAP3 SWAP2 SWAP1 DUP2 DUP2 MSTORE PUSH1 0x20 ADD DUP3 DUP1 SLOAD PUSH2 0xE12 SWAP1 PUSH2 0x1D8F JUMP JUMPDEST DUP1 ISZERO PUSH2 0xE5F JUMPI DUP1 PUSH1 0x1F LT PUSH2 0xE34 JUMPI PUSH2 0x100 DUP1 DUP4 SLOAD DIV MUL DUP4 MSTORE SWAP2 PUSH1 0x20 ADD SWAP2 PUSH2 0xE5F JUMP JUMPDEST DUP3 ADD SWAP2 SWAP1 PUSH1 0x0 MSTORE PUSH1 0x20 PUSH1 0x0 KECCAK256 SWAP1 JUMPDEST DUP2 SLOAD DUP2 MSTORE SWAP1 PUSH1 0x1 ADD SWAP1 PUSH1 0x20 ADD DUP1 DUP4 GT PUSH2 0xE42 JUMPI DUP3 SWAP1 SUB PUSH1 0x1F AND DUP3 ADD SWAP2 JUMPDEST POP POP POP POP POP DUP2 MSTORE PUSH1 0x20 ADD PUSH1 0x1 DUP3 ADD DUP1 SLOAD PUSH2 0xE78 SWAP1 PUSH2 0x1D8F JUMP JUMPDEST DUP1 PUSH1 0x1F ADD PUSH1 0x20 DUP1 SWAP2 DIV MUL PUSH1 0x20 ADD PUSH1 0x40 MLOAD SWAP1 DUP2 ADD PUSH1 0x40 MSTORE DUP1 SWAP3 SWAP2 SWAP1 DUP2 DUP2 MSTORE PUSH1 0x20 ADD DUP3 DUP1 SLOAD PUSH2 0xEA4 SWAP1 PUSH2 0x1D8F JUMP JUMPDEST DUP1 ISZERO PUSH2 0xEF1 JUMPI DUP1 PUSH1 0x1F LT PUSH2 0xEC6 JUMPI PUSH2 0x100 DUP1 DUP4 SLOAD DIV MUL DUP4 MSTORE SWAP2 PUSH1 0x20 ADD SWAP2 PUSH2 0xEF1 JUMP JUMPDEST DUP3 ADD SWAP2 SWAP1 PUSH1 0x0 MSTORE PUSH1 0x20 PUSH1 0x0 KECCAK256 SWAP1 JUMPDEST DUP2 SLOAD DUP2 MSTORE SWAP1 PUSH1 0x1 ADD SWAP1 PUSH1 0x20 ADD DUP1 DUP4 GT PUSH2 0xED4 JUMPI DUP3 SWAP1 SUB PUSH1 0x1F AND DUP3 ADD SWAP2 JUMPDEST POP POP POP POP POP DUP2 MSTORE PUSH1 0x20 ADD PUSH1 0x2 DUP3 ADD DUP1 SLOAD PUSH2 0xF0A SWAP1 PUSH2 0x1D8F JUMP JUMPDEST DUP1 PUSH1 0x1F ADD PUSH1 0x20 DUP1 SWAP2 DIV MUL PUSH1 0x20 ADD PUSH1 0x40 MLOAD SWAP1 DUP2 ADD PUSH1 0x40 MSTORE DUP1 SWAP3 SWAP2 SWAP1 DUP2 DUP2 MSTORE PUSH1 0x20 ADD DUP3 DUP1 SLOAD PUSH2 0xF36 SWAP1 PUSH2 0x1D8F JUMP JUMPDEST DUP1 ISZERO PUSH2 0xF83 JUMPI DUP1 PUSH1 0x1F LT PUSH2 0xF58 JUMPI PUSH2 0x100 DUP1 DUP4 SLOAD DIV MUL DUP4 MSTORE SWAP2 PUSH1 0x20 ADD SWAP2 PUSH2 0xF83 JUMP JUMPDEST DUP3 ADD SWAP2 SWAP1 PUSH1 0x0 MSTORE PUSH1 0x20 PUSH1 0x0 KECCAK256 SWAP1 JUMPDEST DUP2 SLOAD DUP2 MSTORE SWAP1 PUSH1 0x1 ADD SWAP1 PUSH1 0x20 ADD DUP1 DUP4 GT PUSH2 0xF66 JUMPI DUP3 SWAP1 SUB PUSH1 0x1F AND DUP3 ADD SWAP2 JUMPDEST POP POP POP POP POP DUP2 MSTORE PUSH1 0x20 ADD PUSH1 0x3 DUP3 ADD SLOAD DUP2 MSTORE PUSH1 0x20 ADD PUSH1 0x4 DUP3 ADD SLOAD DUP2 MSTORE PUSH1 0x20 ADD PUSH1 0x5 DUP3 ADD SLOAD DUP2 MSTORE POP POP DUP4 DUP4 DUP2 MLOAD DUP2 LT PUSH2 0xFBD JUMPI PUSH2 0xFBC PUSH2 0x2108 JUMP JUMPDEST JUMPDEST PUSH1 0x20 MUL PUSH1 0x20 ADD ADD DUP2 SWAP1 MSTORE POP POP DUP1 PUSH2 0xFD3 SWAP1 PUSH2 0x20C0 JUMP JUMPDEST SWAP1 POP PUSH2 0xC3F JUMP JUMPDEST POP PUSH1 0x4 PUSH1 0x0 DUP5 PUSH20 0xFFFFFFFFFFFFFFFFFFFFFFFFFFFFFFFFFFFFFFFF AND PUSH20 0xFFFFFFFFFFFFFFFFFFFFFFFFFFFFFFFFFFFFFFFF AND DUP2 MSTORE PUSH1 0x20 ADD SWAP1 DUP2 MSTORE PUSH1 0x20 ADD PUSH1 0x0 KECCAK256 DUP2 DUP2 DUP1 SLOAD DUP1 PUSH1 0x20 MUL PUSH1 0x20 ADD PUSH1 0x40 MLOAD SWAP1 DUP2 ADD PUSH1 0x40 MSTORE DUP1 SWAP3 SWAP2 SWAP1 DUP2 DUP2 MSTORE PUSH1 0x20 ADD PUSH1 0x0 SWAP1 JUMPDEST DUP3 DUP3 LT ISZERO PUSH2 0x10E8 JUMPI DUP4 DUP3 SWAP1 PUSH1 0x0 MSTORE PUSH1 0x20 PUSH1 0x0 KECCAK256 ADD DUP1 SLOAD PUSH2 0x105B SWAP1 PUSH2 0x1D8F JUMP JUMPDEST DUP1 PUSH1 0x1F ADD PUSH1 0x20 DUP1 SWAP2 DIV MUL PUSH1 0x20 ADD PUSH1 0x40 MLOAD SWAP1 DUP2 ADD PUSH1 0x40 MSTORE DUP1 SWAP3 SWAP2 SWAP1 DUP2 DUP2 MSTORE PUSH1 0x20 ADD DUP3 DUP1 SLOAD PUSH2 0x1087 SWAP1 PUSH2 0x1D8F JUMP JUMPDEST DUP1 ISZERO PUSH2 0x10D4 JUMPI DUP1 PUSH1 0x1F LT PUSH2 0x10A9 JUMPI PUSH2 0x100 DUP1 DUP4 SLOAD DIV MUL DUP4 MSTORE SWAP2 PUSH1 0x20 ADD SWAP2 PUSH2 0x10D4 JUMP JUMPDEST DUP3 ADD SWAP2 SWAP1 PUSH1 0x0 MSTORE PUSH1 0x20 PUSH1 0x0 KECCAK256 SWAP1 JUMPDEST DUP2 SLOAD DUP2 MSTORE SWAP1 PUSH1 0x1 ADD SWAP1 PUSH1 0x20 ADD DUP1 DUP4 GT PUSH2 0x10B7 JUMPI DUP3 SWAP1 SUB PUSH1 0x1F AND DUP3 ADD SWAP2 JUMPDEST POP POP POP POP POP DUP2 MSTORE PUSH1 0x20 ADD SWAP1 PUSH1 0x1 ADD SWAP1 PUSH2 0x103C JUMP JUMPDEST POP POP POP POP SWAP2 POP SWAP5 POP SWAP5 POP POP POP POP SWAP2 POP SWAP2 JUMP JUMPDEST PUSH1 0x0 DUP1 PUSH1 0x6 PUSH1 0x0 PUSH1 0x3 DUP6 PUSH1 0x40 MLOAD PUSH2 0x1111 SWAP2 SWAP1 PUSH2 0x1DFC JUMP JUMPDEST SWAP1 DUP2 MSTORE PUSH1 0x20 ADD PUSH1 0x40 MLOAD DUP1 SWAP2 SUB SWAP1 KECCAK256 PUSH1 0x0 SWAP1 SLOAD SWAP1 PUSH2 0x100 EXP SWAP1 DIV PUSH20 0xFFFFFFFFFFFFFFFFFFFFFFFFFFFFFFFFFFFFFFFF AND PUSH20 0xFFFFFFFFFFFFFFFFFFFFFFFFFFFFFFFFFFFFFFFF AND PUSH20 0xFFFFFFFFFFFFFFFFFFFFFFFFFFFFFFFFFFFFFFFF AND DUP2 MSTORE PUSH1 0x20 ADD SWAP1 DUP2 MSTORE PUSH1 0x20 ADD PUSH1 0x0 KECCAK256 DUP5 PUSH1 0x40 MLOAD PUSH2 0x1188 SWAP2 SWAP1 PUSH2 0x1DFC JUMP JUMPDEST SWAP1 DUP2 MSTORE PUSH1 0x20 ADD PUSH1 0x40 MLOAD DUP1 SWAP2 SUB SWAP1 KECCAK256 SLOAD EQ ISZERO SWAP1 POP SWAP3 SWAP2 POP POP JUMP JUMPDEST PUSH1 0x0 PUSH1 0x2 PUSH1 0x0 DUP5 PUSH20 0xFFFFFFFFFFFFFFFFFFFFFFFFFFFFFFFFFFFFFFFF AND PUSH20 0xFFFFFFFFFFFFFFFFFFFFFFFFFFFFFFFFFFFFFFFF AND DUP2 MSTORE PUSH1 0x20 ADD SWAP1 DUP2 MSTORE PUSH1 0x20 ADD PUSH1 0x0 KECCAK256 DUP1 SLOAD PUSH2 0x11ED SWAP1 PUSH2 0x1D8F JUMP JUMPDEST SWAP1 POP EQ DUP1 ISZERO PUSH2 0x1266 JUMPI POP PUSH1 0x0 PUSH20 0xFFFFFFFFFFFFFFFFFFFFFFFFFFFFFFFFFFFFFFFF AND PUSH1 0x3 DUP3 PUSH1 0x40 MLOAD PUSH2 0x121F SWAP2 SWAP1 PUSH2 0x1DFC JUMP JUMPDEST SWAP1 DUP2 MSTORE PUSH1 0x20 ADD PUSH1 0x40 MLOAD DUP1 SWAP2 SUB SWAP1 KECCAK256 PUSH1 0x0 SWAP1 SLOAD SWAP1 PUSH2 0x100 EXP SWAP1 DIV PUSH20 0xFFFFFFFFFFFFFFFFFFFFFFFFFFFFFFFFFFFFFFFF AND PUSH20 0xFFFFFFFFFFFFFFFFFFFFFFFFFFFFFFFFFFFFFFFF AND EQ JUMPDEST ISZERO PUSH2 0x13AE JUMPI PUSH1 0x0 DUP2 SWAP1 DUP1 PUSH1 0x1 DUP2 SLOAD ADD DUP1 DUP3 SSTORE DUP1 SWAP2 POP POP PUSH1 0x1 SWAP1 SUB SWAP1 PUSH1 0x0 MSTORE PUSH1 0x20 PUSH1 0x0 KECCAK256 ADD PUSH1 0x0 SWAP1 SWAP2 SWAP1 SWAP2 SWAP1 SWAP2 POP SWAP1 DUP2 PUSH2 0x129F SWAP2 SWAP1 PUSH2 0x1FBF JUMP JUMPDEST POP PUSH1 0x1 DUP3 SWAP1 DUP1 PUSH1 0x1 DUP2 SLOAD ADD DUP1 DUP3 SSTORE DUP1 SWAP2 POP POP PUSH1 0x1 SWAP1 SUB SWAP1 PUSH1 0x0 MSTORE PUSH1 0x20 PUSH1 0x0 KECCAK256 ADD PUSH1 0x0 SWAP1 SWAP2 SWAP1 SWAP2 SWAP1 SWAP2 PUSH2 0x100 EXP DUP2 SLOAD DUP2 PUSH20 0xFFFFFFFFFFFFFFFFFFFFFFFFFFFFFFFFFFFFFFFF MUL NOT AND SWAP1 DUP4 PUSH20 0xFFFFFFFFFFFFFFFFFFFFFFFFFFFFFFFFFFFFFFFF AND MUL OR SWAP1 SSTORE POP DUP2 PUSH1 0x3 DUP3 PUSH1 0x40 MLOAD PUSH2 0x1314 SWAP2 SWAP1 PUSH2 0x1DFC JUMP JUMPDEST SWAP1 DUP2 MSTORE PUSH1 0x20 ADD PUSH1 0x40 MLOAD DUP1 SWAP2 SUB SWAP1 KECCAK256 PUSH1 0x0 PUSH2 0x100 EXP DUP2 SLOAD DUP2 PUSH20 0xFFFFFFFFFFFFFFFFFFFFFFFFFFFFFFFFFFFFFFFF MUL NOT AND SWAP1 DUP4 PUSH20 0xFFFFFFFFFFFFFFFFFFFFFFFFFFFFFFFFFFFFFFFF AND MUL OR SWAP1 SSTORE POP DUP1 PUSH1 0x2 PUSH1 0x0 DUP5 PUSH20 0xFFFFFFFFFFFFFFFFFFFFFFFFFFFFFFFFFFFFFFFF AND PUSH20 0xFFFFFFFFFFFFFFFFFFFFFFFFFFFFFFFFFFFFFFFF AND DUP2 MSTORE PUSH1 0x20 ADD SWAP1 DUP2 MSTORE PUSH1 0x20 ADD PUSH1 0x0 KECCAK256 SWAP1 DUP2 PUSH2 0x13AC SWAP2 SWAP1 PUSH2 0x1FBF JUMP JUMPDEST POP JUMPDEST POP POP JUMP JUMPDEST PUSH1 0x3 DUP2 DUP1 MLOAD PUSH1 0x20 DUP2 ADD DUP3 ADD DUP1 MLOAD DUP5 DUP3 MSTORE PUSH1 0x20 DUP4 ADD PUSH1 0x20 DUP6 ADD KECCAK256 DUP2 DUP4 MSTORE DUP1 SWAP6 POP POP POP POP POP POP PUSH1 0x0 SWAP2 POP SLOAD SWAP1 PUSH2 0x100 EXP SWAP1 DIV PUSH20 0xFFFFFFFFFFFFFFFFFFFFFFFFFFFFFFFFFFFFFFFF AND DUP2 JUMP JUMPDEST PUSH1 0x40 MLOAD DUP1 PUSH1 0xC0 ADD PUSH1 0x40 MSTORE DUP1 PUSH1 0x60 DUP2 MSTORE PUSH1 0x20 ADD PUSH1 0x60 DUP2 MSTORE PUSH1 0x20 ADD PUSH1 0x60 DUP2 MSTORE PUSH1 0x20 ADD PUSH1 0x0 DUP2 MSTORE PUSH1 0x20 ADD PUSH1 0x0 DUP2 MSTORE PUSH1 0x20 ADD PUSH1 0x0 DUP2 MSTORE POP SWAP1 JUMP JUMPDEST PUSH1 0x0 PUSH1 0x40 MLOAD SWAP1 POP SWAP1 JUMP JUMPDEST PUSH1 0x0 DUP1 REVERT JUMPDEST PUSH1 0x0 DUP1 REVERT JUMPDEST PUSH1 0x0 DUP2 SWAP1 POP SWAP2 SWAP1 POP JUMP JUMPDEST PUSH2 0x1458 DUP2 PUSH2 0x1445 JUMP JUMPDEST DUP2 EQ PUSH2 0x1463 JUMPI PUSH1 0x0 DUP1 REVERT JUMPDEST POP JUMP JUMPDEST PUSH1 0x0 DUP2 CALLDATALOAD SWAP1 POP PUSH2 0x1475 DUP2 PUSH2 0x144F JUMP JUMPDEST SWAP3 SWAP2 POP POP JUMP JUMPDEST PUSH1 0x0 PUSH1 0x20 DUP3 DUP5 SUB SLT ISZERO PUSH2 0x1491 JUMPI PUSH2 0x1490 PUSH2 0x143B JUMP JUMPDEST JUMPDEST PUSH1 0x0 PUSH2 0x149F DUP5 DUP3 DUP6 ADD PUSH2 0x1466 JUMP JUMPDEST SWAP2 POP POP SWAP3 SWAP2 POP POP JUMP JUMPDEST PUSH1 0x0 DUP2 MLOAD SWAP1 POP SWAP2 SWAP1 POP JUMP JUMPDEST PUSH1 0x0 DUP3 DUP3 MSTORE PUSH1 0x20 DUP3 ADD SWAP1 POP SWAP3 SWAP2 POP POP JUMP JUMPDEST PUSH1 0x0 JUMPDEST DUP4 DUP2 LT ISZERO PUSH2 0x14E2 JUMPI DUP1 DUP3 ADD MLOAD DUP2 DUP5 ADD MSTORE PUSH1 0x20 DUP2 ADD SWAP1 POP PUSH2 0x14C7 JUMP JUMPDEST DUP4 DUP2 GT ISZERO PUSH2 0x14F1 JUMPI PUSH1 0x0 DUP5 DUP5 ADD MSTORE JUMPDEST POP POP POP POP JUMP JUMPDEST PUSH1 0x0 PUSH1 0x1F NOT PUSH1 0x1F DUP4 ADD AND SWAP1 POP SWAP2 SWAP1 POP JUMP JUMPDEST PUSH1 0x0 PUSH2 0x1513 DUP3 PUSH2 0x14A8 JUMP JUMPDEST PUSH2 0x151D DUP2 DUP6 PUSH2 0x14B3 JUMP JUMPDEST SWAP4 POP PUSH2 0x152D DUP2 DUP6 PUSH1 0x20 DUP7 ADD PUSH2 0x14C4 JUMP JUMPDEST PUSH2 0x1536 DUP2 PUSH2 0x14F7 JUMP JUMPDEST DUP5 ADD SWAP2 POP POP SWAP3 SWAP2 POP POP JUMP JUMPDEST PUSH1 0x0 PUSH1 0x20 DUP3 ADD SWAP1 POP DUP2 DUP2 SUB PUSH1 0x0 DUP4 ADD MSTORE PUSH2 0x155B DUP2 DUP5 PUSH2 0x1508 JUMP JUMPDEST SWAP1 POP SWAP3 SWAP2 POP POP JUMP JUMPDEST PUSH1 0x0 PUSH20 0xFFFFFFFFFFFFFFFFFFFFFFFFFFFFFFFFFFFFFFFF DUP3 AND SWAP1 POP SWAP2 SWAP1 POP JUMP JUMPDEST PUSH1 0x0 PUSH2 0x158E DUP3 PUSH2 0x1563 JUMP JUMPDEST SWAP1 POP SWAP2 SWAP1 POP JUMP JUMPDEST PUSH2 0x159E DUP2 PUSH2 0x1583 JUMP JUMPDEST DUP2 EQ PUSH2 0x15A9 JUMPI PUSH1 0x0 DUP1 REVERT JUMPDEST POP JUMP JUMPDEST PUSH1 0x0 DUP2 CALLDATALOAD SWAP1 POP PUSH2 0x15BB DUP2 PUSH2 0x1595 JUMP JUMPDEST SWAP3 SWAP2 POP POP JUMP JUMPDEST PUSH1 0x0 DUP1 REVERT JUMPDEST PUSH1 0x0 DUP1 REVERT JUMPDEST PUSH32 0x4E487B7100000000000000000000000000000000000000000000000000000000 PUSH1 0x0 MSTORE PUSH1 0x41 PUSH1 0x4 MSTORE PUSH1 0x24 PUSH1 0x0 REVERT JUMPDEST PUSH2 0x1603 DUP3 PUSH2 0x14F7 JUMP JUMPDEST DUP2 ADD DUP2 DUP2 LT PUSH8 0xFFFFFFFFFFFFFFFF DUP3 GT OR ISZERO PUSH2 0x1622 JUMPI PUSH2 0x1621 PUSH2 0x15CB JUMP JUMPDEST JUMPDEST DUP1 PUSH1 0x40 MSTORE POP POP POP JUMP JUMPDEST PUSH1 0x0 PUSH2 0x1635 PUSH2 0x1431 JUMP JUMPDEST SWAP1 POP PUSH2 0x1641 DUP3 DUP3 PUSH2 0x15FA JUMP JUMPDEST SWAP2 SWAP1 POP JUMP JUMPDEST PUSH1 0x0 PUSH8 0xFFFFFFFFFFFFFFFF DUP3 GT ISZERO PUSH2 0x1661 JUMPI PUSH2 0x1660 PUSH2 0x15CB JUMP JUMPDEST JUMPDEST PUSH2 0x166A DUP3 PUSH2 0x14F7 JUMP JUMPDEST SWAP1 POP PUSH1 0x20 DUP2 ADD SWAP1 POP SWAP2 SWAP1 POP JUMP JUMPDEST DUP3 DUP2 DUP4 CALLDATACOPY PUSH1 0x0 DUP4 DUP4 ADD MSTORE POP POP POP JUMP JUMPDEST PUSH1 0x0 PUSH2 0x1699 PUSH2 0x1694 DUP5 PUSH2 0x1646 JUMP JUMPDEST PUSH2 0x162B JUMP JUMPDEST SWAP1 POP DUP3 DUP2 MSTORE PUSH1 0x20 DUP2 ADD DUP5 DUP5 DUP5 ADD GT ISZERO PUSH2 0x16B5 JUMPI PUSH2 0x16B4 PUSH2 0x15C6 JUMP JUMPDEST JUMPDEST PUSH2 0x16C0 DUP5 DUP3 DUP6 PUSH2 0x1677 JUMP JUMPDEST POP SWAP4 SWAP3 POP POP POP JUMP JUMPDEST PUSH1 0x0 DUP3 PUSH1 0x1F DUP4 ADD SLT PUSH2 0x16DD JUMPI PUSH2 0x16DC PUSH2 0x15C1 JUMP JUMPDEST JUMPDEST DUP2 CALLDATALOAD PUSH2 0x16ED DUP5 DUP3 PUSH1 0x20 DUP7 ADD PUSH2 0x1686 JUMP JUMPDEST SWAP2 POP POP SWAP3 SWAP2 POP POP JUMP JUMPDEST PUSH1 0x0 DUP1 PUSH1 0x0 PUSH1 0x60 DUP5 DUP7 SUB SLT ISZERO PUSH2 0x170F JUMPI PUSH2 0x170E PUSH2 0x143B JUMP JUMPDEST JUMPDEST PUSH1 0x0 PUSH2 0x171D DUP7 DUP3 DUP8 ADD PUSH2 0x15AC JUMP JUMPDEST SWAP4 POP POP PUSH1 0x20 DUP5 ADD CALLDATALOAD PUSH8 0xFFFFFFFFFFFFFFFF DUP2 GT ISZERO PUSH2 0x173E JUMPI PUSH2 0x173D PUSH2 0x1440 JUMP JUMPDEST JUMPDEST PUSH2 0x174A DUP7 DUP3 DUP8 ADD PUSH2 0x16C8 JUMP JUMPDEST SWAP3 POP POP PUSH1 0x40 PUSH2 0x175B DUP7 DUP3 DUP8 ADD PUSH2 0x15AC JUMP JUMPDEST SWAP2 POP POP SWAP3 POP SWAP3 POP SWAP3 JUMP JUMPDEST PUSH2 0x176E DUP2 PUSH2 0x1445 JUMP JUMPDEST DUP3 MSTORE POP POP JUMP JUMPDEST PUSH1 0x0 PUSH1 0xC0 DUP3 ADD SWAP1 POP DUP2 DUP2 SUB PUSH1 0x0 DUP4 ADD MSTORE PUSH2 0x178E DUP2 DUP10 PUSH2 0x1508 JUMP JUMPDEST SWAP1 POP DUP2 DUP2 SUB PUSH1 0x20 DUP4 ADD MSTORE PUSH2 0x17A2 DUP2 DUP9 PUSH2 0x1508 JUMP JUMPDEST SWAP1 POP DUP2 DUP2 SUB PUSH1 0x40 DUP4 ADD MSTORE PUSH2 0x17B6 DUP2 DUP8 PUSH2 0x1508 JUMP JUMPDEST SWAP1 POP PUSH2 0x17C5 PUSH1 0x60 DUP4 ADD DUP7 PUSH2 0x1765 JUMP JUMPDEST PUSH2 0x17D2 PUSH1 0x80 DUP4 ADD DUP6 PUSH2 0x1765 JUMP JUMPDEST PUSH2 0x17DF PUSH1 0xA0 DUP4 ADD DUP5 PUSH2 0x1765 JUMP JUMPDEST SWAP8 SWAP7 POP POP POP POP POP POP POP JUMP JUMPDEST PUSH1 0x0 PUSH1 0x20 DUP3 DUP5 SUB SLT ISZERO PUSH2 0x1800 JUMPI PUSH2 0x17FF PUSH2 0x143B JUMP JUMPDEST JUMPDEST PUSH1 0x0 PUSH2 0x180E DUP5 DUP3 DUP6 ADD PUSH2 0x15AC JUMP JUMPDEST SWAP2 POP POP SWAP3 SWAP2 POP POP JUMP JUMPDEST PUSH1 0x0 DUP1 PUSH1 0x40 DUP4 DUP6 SUB SLT ISZERO PUSH2 0x182E JUMPI PUSH2 0x182D PUSH2 0x143B JUMP JUMPDEST JUMPDEST PUSH1 0x0 PUSH2 0x183C DUP6 DUP3 DUP7 ADD PUSH2 0x15AC JUMP JUMPDEST SWAP3 POP POP PUSH1 0x20 PUSH2 0x184D DUP6 DUP3 DUP7 ADD PUSH2 0x1466 JUMP JUMPDEST SWAP2 POP POP SWAP3 POP SWAP3 SWAP1 POP JUMP JUMPDEST PUSH2 0x1860 DUP2 PUSH2 0x1583 JUMP JUMPDEST DUP3 MSTORE POP POP JUMP JUMPDEST PUSH1 0x0 PUSH1 0x20 DUP3 ADD SWAP1 POP PUSH2 0x187B PUSH1 0x0 DUP4 ADD DUP5 PUSH2 0x1857 JUMP JUMPDEST SWAP3 SWAP2 POP POP JUMP JUMPDEST PUSH1 0x0 DUP1 PUSH1 0x0 DUP1 PUSH1 0x0 DUP1 PUSH1 0xC0 DUP8 DUP10 SUB SLT ISZERO PUSH2 0x189E JUMPI PUSH2 0x189D PUSH2 0x143B JUMP JUMPDEST JUMPDEST PUSH1 0x0 DUP8 ADD CALLDATALOAD PUSH8 0xFFFFFFFFFFFFFFFF DUP2 GT ISZERO PUSH2 0x18BC JUMPI PUSH2 0x18BB PUSH2 0x1440 JUMP JUMPDEST JUMPDEST PUSH2 0x18C8 DUP10 DUP3 DUP11 ADD PUSH2 0x16C8 JUMP JUMPDEST SWAP7 POP POP PUSH1 0x20 DUP8 ADD CALLDATALOAD PUSH8 0xFFFFFFFFFFFFFFFF DUP2 GT ISZERO PUSH2 0x18E9 JUMPI PUSH2 0x18E8 PUSH2 0x1440 JUMP JUMPDEST JUMPDEST PUSH2 0x18F5 DUP10 DUP3 DUP11 ADD PUSH2 0x16C8 JUMP JUMPDEST SWAP6 POP POP PUSH1 0x40 DUP8 ADD CALLDATALOAD PUSH8 0xFFFFFFFFFFFFFFFF DUP2 GT ISZERO PUSH2 0x1916 JUMPI PUSH2 0x1915 PUSH2 0x1440 JUMP JUMPDEST JUMPDEST PUSH2 0x1922 DUP10 DUP3 DUP11 ADD PUSH2 0x16C8 JUMP JUMPDEST SWAP5 POP POP PUSH1 0x60 PUSH2 0x1933 DUP10 DUP3 DUP11 ADD PUSH2 0x1466 JUMP JUMPDEST SWAP4 POP POP PUSH1 0x80 PUSH2 0x1944 DUP10 DUP3 DUP11 ADD PUSH2 0x1466 JUMP JUMPDEST SWAP3 POP POP PUSH1 0xA0 PUSH2 0x1955 DUP10 DUP3 DUP11 ADD PUSH2 0x1466 JUMP JUMPDEST SWAP2 POP POP SWAP3 SWAP6 POP SWAP3 SWAP6 POP SWAP3 SWAP6 JUMP JUMPDEST PUSH1 0x0 PUSH1 0x20 DUP3 DUP5 SUB SLT ISZERO PUSH2 0x1978 JUMPI PUSH2 0x1977 PUSH2 0x143B JUMP JUMPDEST JUMPDEST PUSH1 0x0 DUP3 ADD CALLDATALOAD PUSH8 0xFFFFFFFFFFFFFFFF DUP2 GT ISZERO PUSH2 0x1996 JUMPI PUSH2 0x1995 PUSH2 0x1440 JUMP JUMPDEST JUMPDEST PUSH2 0x19A2 DUP5 DUP3 DUP6 ADD PUSH2 0x16C8 JUMP JUMPDEST SWAP2 POP POP SWAP3 SWAP2 POP POP JUMP JUMPDEST PUSH1 0x0 DUP2 MLOAD SWAP1 POP SWAP2 SWAP1 POP JUMP JUMPDEST PUSH1 0x0 DUP3 DUP3 MSTORE PUSH1 0x20 DUP3 ADD SWAP1 POP SWAP3 SWAP2 POP POP JUMP JUMPDEST PUSH1 0x0 DUP2 SWAP1 POP PUSH1 0x20 DUP3 ADD SWAP1 POP SWAP2 SWAP1 POP JUMP JUMPDEST PUSH1 0x0 DUP3 DUP3 MSTORE PUSH1 0x20 DUP3 ADD SWAP1 POP SWAP3 SWAP2 POP POP JUMP JUMPDEST PUSH1 0x0 PUSH2 0x19F3 DUP3 PUSH2 0x14A8 JUMP JUMPDEST PUSH2 0x19FD DUP2 DUP6 PUSH2 0x19D7 JUMP JUMPDEST SWAP4 POP PUSH2 0x1A0D DUP2 DUP6 PUSH1 0x20 DUP7 ADD PUSH2 0x14C4 JUMP JUMPDEST PUSH2 0x1A16 DUP2 PUSH2 0x14F7 JUMP JUMPDEST DUP5 ADD SWAP2 POP POP SWAP3 SWAP2 POP POP JUMP JUMPDEST PUSH1 0x0 PUSH2 0x1A2D DUP4 DUP4 PUSH2 0x19E8 JUMP JUMPDEST SWAP1 POP SWAP3 SWAP2 POP POP JUMP JUMPDEST PUSH1 0x0 PUSH1 0x20 DUP3 ADD SWAP1 POP SWAP2 SWAP1 POP JUMP JUMPDEST PUSH1 0x0 PUSH2 0x1A4D DUP3 PUSH2 0x19AB JUMP JUMPDEST PUSH2 0x1A57 DUP2 DUP6 PUSH2 0x19B6 JUMP JUMPDEST SWAP4 POP DUP4 PUSH1 0x20 DUP3 MUL DUP6 ADD PUSH2 0x1A69 DUP6 PUSH2 0x19C7 JUMP JUMPDEST DUP1 PUSH1 0x0 JUMPDEST DUP6 DUP2 LT ISZERO PUSH2 0x1AA5 JUMPI DUP5 DUP5 SUB DUP10 MSTORE DUP2 MLOAD PUSH2 0x1A86 DUP6 DUP3 PUSH2 0x1A21 JUMP JUMPDEST SWAP5 POP PUSH2 0x1A91 DUP4 PUSH2 0x1A35 JUMP JUMPDEST SWAP3 POP PUSH1 0x20 DUP11 ADD SWAP10 POP POP PUSH1 0x1 DUP2 ADD SWAP1 POP PUSH2 0x1A6D JUMP JUMPDEST POP DUP3 SWAP8 POP DUP8 SWAP6 POP POP POP POP POP POP SWAP3 SWAP2 POP POP JUMP JUMPDEST PUSH1 0x0 DUP2 MLOAD SWAP1 POP SWAP2 SWAP1 POP JUMP JUMPDEST PUSH1 0x0 DUP3 DUP3 MSTORE PUSH1 0x20 DUP3 ADD SWAP1 POP SWAP3 SWAP2 POP POP JUMP JUMPDEST PUSH1 0x0 DUP2 SWAP1 POP PUSH1 0x20 DUP3 ADD SWAP1 POP SWAP2 SWAP1 POP JUMP JUMPDEST PUSH2 0x1AEC DUP2 PUSH2 0x1445 JUMP JUMPDEST DUP3 MSTORE POP POP JUMP JUMPDEST PUSH1 0x0 PUSH1 0xC0 DUP4 ADD PUSH1 0x0 DUP4 ADD MLOAD DUP5 DUP3 SUB PUSH1 0x0 DUP7 ADD MSTORE PUSH2 0x1B0F DUP3 DUP3 PUSH2 0x19E8 JUMP JUMPDEST SWAP2 POP POP PUSH1 0x20 DUP4 ADD MLOAD DUP5 DUP3 SUB PUSH1 0x20 DUP7 ADD MSTORE PUSH2 0x1B29 DUP3 DUP3 PUSH2 0x19E8 JUMP JUMPDEST SWAP2 POP POP PUSH1 0x40 DUP4 ADD MLOAD DUP5 DUP3 SUB PUSH1 0x40 DUP7 ADD MSTORE PUSH2 0x1B43 DUP3 DUP3 PUSH2 0x19E8 JUMP JUMPDEST SWAP2 POP POP PUSH1 0x60 DUP4 ADD MLOAD PUSH2 0x1B58 PUSH1 0x60 DUP7 ADD DUP3 PUSH2 0x1AE3 JUMP JUMPDEST POP PUSH1 0x80 DUP4 ADD MLOAD PUSH2 0x1B6B PUSH1 0x80 DUP7 ADD DUP3 PUSH2 0x1AE3 JUMP JUMPDEST POP PUSH1 0xA0 DUP4 ADD MLOAD PUSH2 0x1B7E PUSH1 0xA0 DUP7 ADD DUP3 PUSH2 0x1AE3 JUMP JUMPDEST POP DUP1 SWAP2 POP POP SWAP3 SWAP2 POP POP JUMP JUMPDEST PUSH1 0x0 PUSH2 0x1B95 DUP4 DUP4 PUSH2 0x1AF2 JUMP JUMPDEST SWAP1 POP SWAP3 SWAP2 POP POP JUMP JUMPDEST PUSH1 0x0 PUSH1 0x20 DUP3 ADD SWAP1 POP SWAP2 SWAP1 POP JUMP JUMPDEST PUSH1 0x0 PUSH2 0x1BB5 DUP3 PUSH2 0x1AB7 JUMP JUMPDEST PUSH2 0x1BBF DUP2 DUP6 PUSH2 0x1AC2 JUMP JUMPDEST SWAP4 POP DUP4 PUSH1 0x20 DUP3 MUL DUP6 ADD PUSH2 0x1BD1 DUP6 PUSH2 0x1AD3 JUMP JUMPDEST DUP1 PUSH1 0x0 JUMPDEST DUP6 DUP2 LT ISZERO PUSH2 0x1C0D JUMPI DUP5 DUP5 SUB DUP10 MSTORE DUP2 MLOAD PUSH2 0x1BEE DUP6 DUP3 PUSH2 0x1B89 JUMP JUMPDEST SWAP5 POP PUSH2 0x1BF9 DUP4 PUSH2 0x1B9D JUMP JUMPDEST SWAP3 POP PUSH1 0x20 DUP11 ADD SWAP10 POP POP PUSH1 0x1 DUP2 ADD SWAP1 POP PUSH2 0x1BD5 JUMP JUMPDEST POP DUP3 SWAP8 POP DUP8 SWAP6 POP POP POP POP POP POP SWAP3 SWAP2 POP POP JUMP JUMPDEST PUSH1 0x0 PUSH1 0x40 DUP3 ADD SWAP1 POP DUP2 DUP2 SUB PUSH1 0x0 DUP4 ADD MSTORE PUSH2 0x1C39 DUP2 DUP6 PUSH2 0x1A42 JUMP JUMPDEST SWAP1 POP DUP2 DUP2 SUB PUSH1 0x20 DUP4 ADD MSTORE PUSH2 0x1C4D DUP2 DUP5 PUSH2 0x1BAA JUMP JUMPDEST SWAP1 POP SWAP4 SWAP3 POP POP POP JUMP JUMPDEST PUSH1 0x0 DUP1 PUSH1 0x40 DUP4 DUP6 SUB SLT ISZERO PUSH2 0x1C6D JUMPI PUSH2 0x1C6C PUSH2 0x143B JUMP JUMPDEST JUMPDEST PUSH1 0x0 DUP4 ADD CALLDATALOAD PUSH8 0xFFFFFFFFFFFFFFFF DUP2 GT ISZERO PUSH2 0x1C8B JUMPI PUSH2 0x1C8A PUSH2 0x1440 JUMP JUMPDEST JUMPDEST PUSH2 0x1C97 DUP6 DUP3 DUP7 ADD PUSH2 0x16C8 JUMP JUMPDEST SWAP3 POP POP PUSH1 0x20 DUP4 ADD CALLDATALOAD PUSH8 0xFFFFFFFFFFFFFFFF DUP2 GT ISZERO PUSH2 0x1CB8 JUMPI PUSH2 0x1CB7 PUSH2 0x1440 JUMP JUMPDEST JUMPDEST PUSH2 0x1CC4 DUP6 DUP3 DUP7 ADD PUSH2 0x16C8 JUMP JUMPDEST SWAP2 POP POP SWAP3 POP SWAP3 SWAP1 POP JUMP JUMPDEST PUSH1 0x0 DUP2 ISZERO ISZERO SWAP1 POP SWAP2 SWAP1 POP JUMP JUMPDEST PUSH2 0x1CE3 DUP2 PUSH2 0x1CCE JUMP JUMPDEST DUP3 MSTORE POP POP JUMP JUMPDEST PUSH1 0x0 PUSH1 0x20 DUP3 ADD SWAP1 POP PUSH2 0x1CFE PUSH1 0x0 DUP4 ADD DUP5 PUSH2 0x1CDA JUMP JUMPDEST SWAP3 SWAP2 POP POP JUMP JUMPDEST PUSH1 0x0 DUP1 PUSH1 0x40 DUP4 DUP6 SUB SLT ISZERO PUSH2 0x1D1B JUMPI PUSH2 0x1D1A PUSH2 0x143B JUMP JUMPDEST JUMPDEST PUSH1 0x0 PUSH2 0x1D29 DUP6 DUP3 DUP7 ADD PUSH2 0x15AC JUMP JUMPDEST SWAP3 POP POP PUSH1 0x20 DUP4 ADD CALLDATALOAD PUSH8 0xFFFFFFFFFFFFFFFF DUP2 GT ISZERO PUSH2 0x1D4A JUMPI PUSH2 0x1D49 PUSH2 0x1440 JUMP JUMPDEST JUMPDEST PUSH2 0x1D56 DUP6 DUP3 DUP7 ADD PUSH2 0x16C8 JUMP JUMPDEST SWAP2 POP POP SWAP3 POP SWAP3 SWAP1 POP JUMP JUMPDEST PUSH32 0x4E487B7100000000000000000000000000000000000000000000000000000000 PUSH1 0x0 MSTORE PUSH1 0x22 PUSH1 0x4 MSTORE PUSH1 0x24 PUSH1 0x0 REVERT JUMPDEST PUSH1 0x0 PUSH1 0x2 DUP3 DIV SWAP1 POP PUSH1 0x1 DUP3 AND DUP1 PUSH2 0x1DA7 JUMPI PUSH1 0x7F DUP3 AND SWAP2 POP JUMPDEST PUSH1 0x20 DUP3 LT DUP2 SUB PUSH2 0x1DBA JUMPI PUSH2 0x1DB9 PUSH2 0x1D60 JUMP JUMPDEST JUMPDEST POP SWAP2 SWAP1 POP JUMP JUMPDEST PUSH1 0x0 DUP2 SWAP1 POP SWAP3 SWAP2 POP POP JUMP JUMPDEST PUSH1 0x0 PUSH2 0x1DD6 DUP3 PUSH2 0x14A8 JUMP JUMPDEST PUSH2 0x1DE0 DUP2 DUP6 PUSH2 0x1DC0 JUMP JUMPDEST SWAP4 POP PUSH2 0x1DF0 DUP2 DUP6 PUSH1 0x20 DUP7 ADD PUSH2 0x14C4 JUMP JUMPDEST DUP1 DUP5 ADD SWAP2 POP POP SWAP3 SWAP2 POP POP JUMP JUMPDEST PUSH1 0x0 PUSH2 0x1E08 DUP3 DUP5 PUSH2 0x1DCB JUMP JUMPDEST SWAP2 POP DUP2 SWAP1 POP SWAP3 SWAP2 POP POP JUMP JUMPDEST PUSH1 0x0 DUP2 SWAP1 POP DUP2 PUSH1 0x0 MSTORE PUSH1 0x20 PUSH1 0x0 KECCAK256 SWAP1 POP SWAP2 SWAP1 POP JUMP JUMPDEST PUSH1 0x0 PUSH1 0x20 PUSH1 0x1F DUP4 ADD DIV SWAP1 POP SWAP2 SWAP1 POP JUMP JUMPDEST PUSH1 0x0 DUP3 DUP3 SHL SWAP1 POP SWAP3 SWAP2 POP POP JUMP JUMPDEST PUSH1 0x0 PUSH1 0x8 DUP4 MUL PUSH2 0x1E75 PUSH32 0xFFFFFFFFFFFFFFFFFFFFFFFFFFFFFFFFFFFFFFFFFFFFFFFFFFFFFFFFFFFFFFFF DUP3 PUSH2 0x1E38 JUMP JUMPDEST PUSH2 0x1E7F DUP7 DUP4 PUSH2 0x1E38 JUMP JUMPDEST SWAP6 POP DUP1 NOT DUP5 AND SWAP4 POP DUP1 DUP7 AND DUP5 OR SWAP3 POP POP POP SWAP4 SWAP3 POP POP POP JUMP JUMPDEST PUSH1 0x0 DUP2 SWAP1 POP SWAP2 SWAP1 POP JUMP JUMPDEST PUSH1 0x0 PUSH2 0x1EBC PUSH2 0x1EB7 PUSH2 0x1EB2 DUP5 PUSH2 0x1445 JUMP JUMPDEST PUSH2 0x1E97 JUMP JUMPDEST PUSH2 0x1445 JUMP JUMPDEST SWAP1 POP SWAP2 SWAP1 POP JUMP JUMPDEST PUSH1 0x0 DUP2 SWAP1 POP SWAP2 SWAP1 POP JUMP JUMPDEST PUSH2 0x1ED6 DUP4 PUSH2 0x1EA1 JUMP JUMPDEST PUSH2 0x1EEA PUSH2 0x1EE2 DUP3 PUSH2 0x1EC3 JUMP JUMPDEST DUP5 DUP5 SLOAD PUSH2 0x1E45 JUMP JUMPDEST DUP3 SSTORE POP POP POP POP JUMP JUMPDEST PUSH1 0x0 SWAP1 JUMP JUMPDEST PUSH2 0x1EFF PUSH2 0x1EF2 JUMP JUMPDEST PUSH2 0x1F0A DUP2 DUP5 DUP5 PUSH2 0x1ECD JUMP JUMPDEST POP POP POP JUMP JUMPDEST JUMPDEST DUP2 DUP2 LT ISZERO PUSH2 0x1F2E JUMPI PUSH2 0x1F23 PUSH1 0x0 DUP3 PUSH2 0x1EF7 JUMP JUMPDEST PUSH1 0x1 DUP2 ADD SWAP1 POP PUSH2 0x1F10 JUMP JUMPDEST POP POP JUMP JUMPDEST PUSH1 0x1F DUP3 GT ISZERO PUSH2 0x1F73 JUMPI PUSH2 0x1F44 DUP2 PUSH2 0x1E13 JUMP JUMPDEST PUSH2 0x1F4D DUP5 PUSH2 0x1E28 JUMP JUMPDEST DUP2 ADD PUSH1 0x20 DUP6 LT ISZERO PUSH2 0x1F5C JUMPI DUP2 SWAP1 POP JUMPDEST PUSH2 0x1F70 PUSH2 0x1F68 DUP6 PUSH2 0x1E28 JUMP JUMPDEST DUP4 ADD DUP3 PUSH2 0x1F0F JUMP JUMPDEST POP POP JUMPDEST POP POP POP JUMP JUMPDEST PUSH1 0x0 DUP3 DUP3 SHR SWAP1 POP SWAP3 SWAP2 POP POP JUMP JUMPDEST PUSH1 0x0 PUSH2 0x1F96 PUSH1 0x0 NOT DUP5 PUSH1 0x8 MUL PUSH2 0x1F78 JUMP JUMPDEST NOT DUP1 DUP4 AND SWAP2 POP POP SWAP3 SWAP2 POP POP JUMP JUMPDEST PUSH1 0x0 PUSH2 0x1FAF DUP4 DUP4 PUSH2 0x1F85 JUMP JUMPDEST SWAP2 POP DUP3 PUSH1 0x2 MUL DUP3 OR SWAP1 POP SWAP3 SWAP2 POP POP JUMP JUMPDEST PUSH2 0x1FC8 DUP3 PUSH2 0x14A8 JUMP JUMPDEST PUSH8 0xFFFFFFFFFFFFFFFF DUP2 GT ISZERO PUSH2 0x1FE1 JUMPI PUSH2 0x1FE0 PUSH2 0x15CB JUMP JUMPDEST JUMPDEST PUSH2 0x1FEB DUP3 SLOAD PUSH2 0x1D8F JUMP JUMPDEST PUSH2 0x1FF6 DUP3 DUP3 DUP6 PUSH2 0x1F32 JUMP JUMPDEST PUSH1 0x0 PUSH1 0x20 SWAP1 POP PUSH1 0x1F DUP4 GT PUSH1 0x1 DUP2 EQ PUSH2 0x2029 JUMPI PUSH1 0x0 DUP5 ISZERO PUSH2 0x2017 JUMPI DUP3 DUP8 ADD MLOAD SWAP1 POP JUMPDEST PUSH2 0x2021 DUP6 DUP3 PUSH2 0x1FA3 JUMP JUMPDEST DUP7 SSTORE POP PUSH2 0x2089 JUMP JUMPDEST PUSH1 0x1F NOT DUP5 AND PUSH2 0x2037 DUP7 PUSH2 0x1E13 JUMP JUMPDEST PUSH1 0x0 JUMPDEST DUP3 DUP2 LT ISZERO PUSH2 0x205F JUMPI DUP5 DUP10 ADD MLOAD DUP3 SSTORE PUSH1 0x1 DUP3 ADD SWAP2 POP PUSH1 0x20 DUP6 ADD SWAP5 POP PUSH1 0x20 DUP2 ADD SWAP1 POP PUSH2 0x203A JUMP JUMPDEST DUP7 DUP4 LT ISZERO PUSH2 0x207C JUMPI DUP5 DUP10 ADD MLOAD PUSH2 0x2078 PUSH1 0x1F DUP10 AND DUP3 PUSH2 0x1F85 JUMP JUMPDEST DUP4 SSTORE POP JUMPDEST PUSH1 0x1 PUSH1 0x2 DUP9 MUL ADD DUP9 SSTORE POP POP POP JUMPDEST POP POP POP POP POP POP JUMP JUMPDEST PUSH32 0x4E487B7100000000000000000000000000000000000000000000000000000000 PUSH1 0x0 MSTORE PUSH1 0x11 PUSH1 0x4 MSTORE PUSH1 0x24 PUSH1 0x0 REVERT JUMPDEST PUSH1 0x0 PUSH2 0x20CB DUP3 PUSH2 0x1445 JUMP JUMPDEST SWAP2 POP PUSH32 0xFFFFFFFFFFFFFFFFFFFFFFFFFFFFFFFFFFFFFFFFFFFFFFFFFFFFFFFFFFFFFFFF DUP3 SUB PUSH2 0x20FD JUMPI PUSH2 0x20FC PUSH2 0x2091 JUMP JUMPDEST JUMPDEST PUSH1 0x1 DUP3 ADD SWAP1 POP SWAP2 SWAP1 POP JUMP JUMPDEST PUSH32 0x4E487B7100000000000000000000000000000000000000000000000000000000 PUSH1 0x0 MSTORE PUSH1 0x32 PUSH1 0x4 MSTORE PUSH1 0x24 PUSH1 0x0 REVERT INVALID LOG2 PUSH5 0x6970667358 0x22 SLT KECCAK256 EXTCODECOPY 0x2E PUSH30 0x51302E902AD0F84296E940921CFEA26D16D6727B69D9F300D61D55AEEB64 PUSH20 0x6F6C634300080F00330000000000000000000000 "},"gasEstimates":{"creation":{"codeDepositCost":"1711400","executionCost":"1799","totalCost":"1713199"},"external":{"dataSummaryExists(string,string)":"infinite","dataSummaryTable(address,string,address)":"infinite","fetchUserDataSummary(string)":"infinite","operatorAddresses(uint256)":"5045","operatorsAddrToName(address)":"infinite","operatorsNameToAddr(string)":"infinite","registerRoamingOperator(address,string)":"infinite","serviceProviders(uint256)":"infinite","uploadUserDataSummary(string,string,string,uint256,uint256,uint256)":"infinite","userTable(address,uint256)":"infinite"}},"methodIdentifiers":{"dataSummaryExists(string,string)":"ab6a9f17","dataSummaryTable(address,string,address)":"32f97763","fetchUserDataSummary(string)":"a8367070","operatorAddresses(uint256)":"7792a035","operatorsAddrToName(address)":"64aa65a8","operatorsNameToAddr(string)":"fd70c7dd","registerRoamingOperator(address,string)":"c7fa1063","serviceProviders(uint256)":"0a02dcc7","uploadUserDataSummary(string,string,string,uint256,uint256,uint256)":"8f1d613d","userTable(address,uint256)":"6e6061d1"}},"storageLayout":{"storage":[{"astId":4,"contract":"RoamingDataManagement.sol:RoamingDataManagement","label":"serviceProviders","offset":0,"slot":"0","type":"t_array(t_string_storage)dyn_storage"},{"astId":7,"contract":"RoamingDataManagement.sol:RoamingDataManagement","label":"operatorAddresses","offset":0,"slot":"1","type":"t_array(t_address)dyn_storage"},{"astId":11,"contract":"RoamingDataManagement.sol:RoamingDataManagement","label":"operatorsAddrToName","offset":0,"slot":"2","type":"t_mapping(t_address,t_string_storage)"},{"astId":15,"contract":"RoamingDataManagement.sol:RoamingDataManagement","label":"operatorsNameToAddr","offset":0,"slot":"3","type":"t_mapping(t_string_memory_ptr,t_address)"},{"astId":33,"contract":"RoamingDataManagement.sol:RoamingDataManagement","label":"userTable","offset":0,"slot":"4","type":"t_mapping(t_address,t_array(t_string_storage)dyn_storage)"},{"astId":42,"contract":"RoamingDataManagement.sol:RoamingDataManagement","label":"dataSummaryTable","offset":0,"slot":"5","type":"t_mapping(t_address,t_mapping(t_string_memory_ptr,t_mapping(t_address,t_struct(UserDataSummary)28_storage)))"},{"astId":48,"contract":"RoamingDataManagement.sol:RoamingDataManagement","label":"numOfUserDataEntries","offset":0,"slot":"6","type":"t_mapping(t_address,t_mapping(t_string_memory_ptr,t_uint256))"}],"types":{"t_address":{"encoding":"inplace","label":"address","numberOfBytes":"20"},"t_array(t_address)dyn_storage":{"base":"t_address","encoding":"dynamic_array","label":"address[]","numberOfBytes":"32"},"t_array(t_string_storage)dyn_storage":{"base":"t_string_storage","encoding":"dynamic_array","label":"string[]","numberOfBytes":"32"},"t_mapping(t_address,t_array(t_string_storage)dyn_storage)":{"encoding":"mapping","key":"t_address","label":"mapping(address => string[])","numberOfBytes":"32","value":"t_array(t_string_storage)dyn_storage"},"t_mapping(t_address,t_mapping(t_string_memory_ptr,t_mapping(t_address,t_struct(UserDataSummary)28_storage)))":{"encoding":"mapping","key":"t_address","label":"mapping(address => mapping(string => mapping(address => struct RoamingDataManagement.UserDataSummary)))","numberOfBytes":"32","value":"t_mapping(t_string_memory_ptr,t_mapping(t_address,t_struct(UserDataSummary)28_storage))"},"t_mapping(t_address,t_mapping(t_string_memory_ptr,t_uint256))":{"encoding":"mapping","key":"t_address","label":"mapping(address => mapping(string => uint256))","numberOfBytes":"32","value":"t_mapping(t_string_memory_ptr,t_uint256)"},"t_mapping(t_address,t_string_storage)":{"encoding":"mapping","key":"t_address","label":"mapping(address => string)","numberOfBytes":"32","value":"t_string_storage"},"t_mapping(t_address,t_struct(UserDataSummary)28_storage)":{"encoding":"mapping","key":"t_address","label":"mapping(address => struct RoamingDataManagement.UserDataSummary)","numberOfBytes":"32","value":"t_struct(UserDataSummary)28_storage"},"t_mapping(t_string_memory_ptr,t_address)":{"encoding":"mapping","key":"t_string_memory_ptr","label":"mapping(string => address)","numberOfBytes":"32","value":"t_address"},"t_mapping(t_string_memory_ptr,t_mapping(t_address,t_struct(UserDataSummary)28_storage))":{"encoding":"mapping","key":"t_string_memory_ptr","label":"mapping(string => mapping(address => struct RoamingDataManagement.UserDataSummary))","numberOfBytes":"32","value":"t_mapping(t_address,t_struct(UserDataSummary)28_storage)"},"t_mapping(t_string_memory_ptr,t_uint256)":{"encoding":"mapping","key":"t_string_memory_ptr","label":"mapping(string => uint256)","numberOfBytes":"32","value":"t_uint256"},"t_string_memory_ptr":{"encoding":"bytes","label":"string","numberOfBytes":"32"},"t_string_storage":{"encoding":"bytes","label":"string","numberOfBytes":"32"},"t_struct(UserDataSummary)28_storage":{"encoding":"inplace","label":"struct RoamingDataManagement.UserDataSummary","members":[{"astId":17,"contract":"RoamingDataManagement.sol:RoamingDataManagement","label":"imsi","offset":0,"slot":"0","type":"t_string_storage"},{"astId":19,"contract":"RoamingDataManagement.sol:RoamingDataManagement","label":"number","offset":0,"slot":"1","type":"t_string_storage"},{"astId":21,"contract":"RoamingDataManagement.sol:RoamingDataManagement","label":"serviceProvider","offset":0,"slot":"2","type":"t_string_storage"},{"astId":23,"contract":"RoamingDataManagement.sol:RoamingDataManagement","label":"voiceCallUsage","offset":0,"slot":"3","type":"t_uint256"},{"astId":25,"contract":"RoamingDataManagement.sol:RoamingDataManagement","label":"internetUsage","offset":0,"slot":"4","type":"t_uint256"},{"astId":27,"contract":"RoamingDataManagement.sol:RoamingDataManagement","label":"smsUsage","offset":0,"slot":"5","type":"t_uint256"}],"numberOfBytes":"192"},"t_uint256":{"encoding":"inplace","label":"uint256","numberOfBytes":"32"}}},"userdoc":{"kind":"user","methods":{},"version":1}}