{"abi":[{"inputs":[],"stateMutability":"nonpayable","type":"constructor"},{"inputs":[],"name":"balance","outputs":[{"internalType":"uint256","name":"","type":"uint256"}],"stateMutability":"view","type":"function"},{"inputs":[{"internalType":"address","name":"","type":"address"}],"name":"bank","outputs":[{"internalType":"uint256","name":"","type":"uint256"}],"stateMutability":"view","type":"function"},{"inputs":[{"internalType":"uint256","name":"","type":"uint256"}],"name":"billingHistory","outputs":[{"internalType":"address","name":"payer","type":"address"},{"internalType":"address","name":"payee","type":"address"},{"internalType":"string","name":"payerName","type":"string"},{"internalType":"string","name":"payeeName","type":"string"},{"internalType":"uint256","name":"amount","type":"uint256"},{"internalType":"uint256","name":"timestamp","type":"uint256"}],"stateMutability":"view","type":"function"},{"inputs":[{"internalType":"string","name":"imsi","type":"string"},{"internalType":"string","name":"homeOperator","type":"string"}],"name":"dataSummaryExists","outputs":[{"internalType":"bool","name":"","type":"bool"}],"stateMutability":"view","type":"function"},{"inputs":[{"internalType":"address","name":"","type":"address"},{"internalType":"string","name":"","type":"string"},{"internalType":"address","name":"","type":"address"}],"name":"dataSummaryTable","outputs":[{"internalType":"string","name":"imsi","type":"string"},{"internalType":"string","name":"number","type":"string"},{"internalType":"string","name":"serviceProvider","type":"string"},{"internalType":"uint256","name":"serviceStartTime","type":"uint256"},{"internalType":"uint256","name":"voiceCallStartTime","type":"uint256"},{"internalType":"uint256","name":"smsStartTime","type":"uint256"},{"internalType":"uint256","name":"internetStartTime","type":"uint256"},{"internalType":"uint256","name":"voiceCallUsage","type":"uint256"},{"internalType":"uint256","name":"internetUsage","type":"uint256"},{"internalType":"uint256","name":"smsUsage","type":"uint256"}],"stateMutability":"view","type":"function"},{"inputs":[],"name":"deposit","outputs":[],"stateMutability":"payable","type":"function"},{"inputs":[],"name":"fetchBillingHistory","outputs":[{"components":[{"internalType":"address","name":"payer","type":"address"},{"internalType":"address","name":"payee","type":"address"},{"internalType":"string","name":"payerName","type":"string"},{"internalType":"string","name":"payeeName","type":"string"},{"internalType":"uint256","name":"amount","type":"uint256"},{"internalType":"uint256","name":"timestamp","type":"uint256"}],"internalType":"struct RoamingDataManagement.BillingRecord[]","name":"","type":"tuple[]"}],"stateMutability":"view","type":"function"},{"inputs":[{"internalType":"string","name":"visitingOperatorName","type":"string"}],"name":"fetchUserDataSummary","outputs":[{"internalType":"string[]","name":"","type":"string[]"},{"components":[{"internalType":"string","name":"imsi","type":"string"},{"internalType":"string","name":"number","type":"string"},{"internalType":"string","name":"serviceProvider","type":"string"},{"internalType":"uint256","name":"serviceStartTime","type":"uint256"},{"internalType":"uint256","name":"voiceCallStartTime","type":"uint256"},{"internalType":"uint256","name":"smsStartTime","type":"uint256"},{"internalType":"uint256","name":"internetStartTime","type":"uint256"},{"internalType":"uint256","name":"voiceCallUsage","type":"uint256"},{"internalType":"uint256","name":"internetUsage","type":"uint256"},{"internalType":"uint256","name":"smsUsage","type":"uint256"}],"internalType":"struct RoamingDataManagement.UserDataSummary[]","name":"","type":"tuple[]"}],"stateMutability":"view","type":"function"},{"inputs":[{"internalType":"uint256","name":"","type":"uint256"}],"name":"operatorAddresses","outputs":[{"internalType":"address","name":"","type":"address"}],"stateMutability":"view","type":"function"},{"inputs":[{"internalType":"address","name":"","type":"address"}],"name":"operatorsAddrToName","outputs":[{"internalType":"string","name":"","type":"string"}],"stateMutability":"view","type":"function"},{"inputs":[{"internalType":"string","name":"","type":"string"}],"name":"operatorsNameToAddr","outputs":[{"internalType":"address","name":"","type":"address"}],"stateMutability":"view","type":"function"},{"inputs":[{"internalType":"address","name":"operatorAddr","type":"address"},{"internalType":"string","name":"operatorName","type":"string"},{"internalType":"uint256","name":"currentTimestamp","type":"uint256"}],"name":"registerRoamingOperator","outputs":[],"stateMutability":"payable","type":"function"},{"inputs":[{"internalType":"uint256","name":"","type":"uint256"}],"name":"serviceProviders","outputs":[{"internalType":"string","name":"","type":"string"}],"stateMutability":"view","type":"function"},{"inputs":[],"name":"totalDeposit","outputs":[{"internalType":"uint256","name":"","type":"uint256"}],"stateMutability":"view","type":"function"},{"inputs":[{"internalType":"address payable","name":"_to","type":"address"},{"internalType":"uint256","name":"_amount","type":"uint256"}],"name":"transfer","outputs":[],"stateMutability":"nonpayable","type":"function"},{"inputs":[{"internalType":"string","name":"imsi","type":"string"},{"internalType":"string","name":"number","type":"string"},{"internalType":"string","name":"serviceProvider","type":"string"},{"internalType":"uint256","name":"voiceCallUsage","type":"uint256"},{"internalType":"uint256","name":"internetUsage","type":"uint256"},{"internalType":"uint256","name":"smsUsage","type":"uint256"},{"internalType":"uint256","name":"serviceStartTime","type":"uint256"},{"internalType":"uint256","name":"internetStartTime","type":"uint256"},{"internalType":"uint256","name":"voiceCallStartTime","type":"uint256"},{"internalType":"uint256","name":"smsStartTime","type":"uint256"},{"internalType":"uint256","name":"currentTimestamp","type":"uint256"}],"name":"uploadUserDataSummary","outputs":[],"stateMutability":"nonpayable","type":"function"},{"inputs":[{"internalType":"address","name":"","type":"address"},{"internalType":"uint256","name":"","type":"uint256"}],"name":"userTable","outputs":[{"internalType":"string","name":"","type":"string"}],"stateMutability":"view","type":"function"},{"stateMutability":"payable","type":"receive"}],"devdoc":{"kind":"dev","methods":{},"version":1},"evm":{"assembly":"    /* \"RoamingDataManagement.sol\":57:7406  contract RoamingDataManagement {... */\n  mstore(0x40, 0x80)\n    /* \"RoamingDataManagement.sol\":1913:1943  constructor() {... */\n  callvalue\n  dup1\n  iszero\n  tag_1\n  jumpi\n  0x00\n  dup1\n  revert\ntag_1:\n  pop\n    /* \"RoamingDataManagement.sol\":57:7406  contract RoamingDataManagement {... */\n  dataSize(sub_0)\n  dup1\n  dataOffset(sub_0)\n  0x00\n  codecopy\n  0x00\n  return\nstop\n\nsub_0: assembly {\n        /* \"RoamingDataManagement.sol\":57:7406  contract RoamingDataManagement {... */\n      mstore(0x40, 0x80)\n      jumpi(tag_1, lt(calldatasize, 0x04))\n      shr(0xe0, calldataload(0x00))\n      dup1\n      0xa8367070\n      gt\n      tag_20\n      jumpi\n      dup1\n      0xb69ef8a8\n      gt\n      tag_21\n      jumpi\n      dup1\n      0xb69ef8a8\n      eq\n      tag_15\n      jumpi\n      dup1\n      0xbdc6ab03\n      eq\n      tag_16\n      jumpi\n      dup1\n      0xd0e30db0\n      eq\n      tag_17\n      jumpi\n      dup1\n      0xf6153ccd\n      eq\n      tag_18\n      jumpi\n      dup1\n      0xfd70c7dd\n      eq\n      tag_19\n      jumpi\n      jump(tag_2)\n    tag_21:\n      dup1\n      0xa8367070\n      eq\n      tag_11\n      jumpi\n      dup1\n      0xa9059cbb\n      eq\n      tag_12\n      jumpi\n      dup1\n      0xab6a9f17\n      eq\n      tag_13\n      jumpi\n      dup1\n      0xb205b4f6\n      eq\n      tag_14\n      jumpi\n      jump(tag_2)\n    tag_20:\n      dup1\n      0x529a1baf\n      gt\n      tag_22\n      jumpi\n      dup1\n      0x529a1baf\n      eq\n      tag_7\n      jumpi\n      dup1\n      0x64aa65a8\n      eq\n      tag_8\n      jumpi\n      dup1\n      0x6e6061d1\n      eq\n      tag_9\n      jumpi\n      dup1\n      0x7792a035\n      eq\n      tag_10\n      jumpi\n      jump(tag_2)\n    tag_22:\n      dup1\n      0x0a02dcc7\n      eq\n      tag_3\n      jumpi\n      dup1\n      0x0cb31a80\n      eq\n      tag_4\n      jumpi\n      dup1\n      0x32f97763\n      eq\n      tag_5\n      jumpi\n      dup1\n      0x44c5c6a5\n      eq\n      tag_6\n      jumpi\n      jump(tag_2)\n    tag_1:\n      jumpi(tag_2, calldatasize)\n        /* \"RoamingDataManagement.sol\":2093:2099  1 gwei */\n      0x3b9aca00\n        /* \"RoamingDataManagement.sol\":2080:2089  msg.value */\n      callvalue\n        /* \"RoamingDataManagement.sol\":2080:2099  msg.value >= 1 gwei */\n      lt\n      iszero\n        /* \"RoamingDataManagement.sol\":2072:2100  require(msg.value >= 1 gwei) */\n      tag_25\n      jumpi\n      0x00\n      dup1\n      revert\n    tag_25:\n        /* \"RoamingDataManagement.sol\":57:7406  contract RoamingDataManagement {... */\n      stop\n    tag_2:\n      0x00\n      dup1\n      revert\n        /* \"RoamingDataManagement.sol\":522:554  string[] public serviceProviders */\n    tag_3:\n      callvalue\n      dup1\n      iszero\n      tag_26\n      jumpi\n      0x00\n      dup1\n      revert\n    tag_26:\n      pop\n      tag_27\n      0x04\n      dup1\n      calldatasize\n      sub\n      dup2\n      add\n      swap1\n      tag_28\n      swap2\n      swap1\n      tag_29\n      jump\t// in\n    tag_28:\n      tag_30\n      jump\t// in\n    tag_27:\n      mload(0x40)\n      tag_31\n      swap2\n      swap1\n      tag_32\n      jump\t// in\n    tag_31:\n      mload(0x40)\n      dup1\n      swap2\n      sub\n      swap1\n      return\n        /* \"RoamingDataManagement.sol\":1285:1322  BillingRecord[] public billingHistory */\n    tag_4:\n      callvalue\n      dup1\n      iszero\n      tag_33\n      jumpi\n      0x00\n      dup1\n      revert\n    tag_33:\n      pop\n      tag_34\n      0x04\n      dup1\n      calldatasize\n      sub\n      dup2\n      add\n      swap1\n      tag_35\n      swap2\n      swap1\n      tag_29\n      jump\t// in\n    tag_35:\n      tag_36\n      jump\t// in\n    tag_34:\n      mload(0x40)\n      tag_37\n      swap7\n      swap6\n      swap5\n      swap4\n      swap3\n      swap2\n      swap1\n      tag_38\n      jump\t// in\n    tag_37:\n      mload(0x40)\n      dup1\n      swap2\n      sub\n      swap1\n      return\n        /* \"RoamingDataManagement.sol\":1693:1791  mapping(address => mapping(string => mapping(address => UserDataSummary))) public dataSummaryTable */\n    tag_5:\n      callvalue\n      dup1\n      iszero\n      tag_39\n      jumpi\n      0x00\n      dup1\n      revert\n    tag_39:\n      pop\n      tag_40\n      0x04\n      dup1\n      calldatasize\n      sub\n      dup2\n      add\n      swap1\n      tag_41\n      swap2\n      swap1\n      tag_42\n      jump\t// in\n    tag_41:\n      tag_43\n      jump\t// in\n    tag_40:\n      mload(0x40)\n      tag_44\n      swap11\n      swap10\n      swap9\n      swap8\n      swap7\n      swap6\n      swap5\n      swap4\n      swap3\n      swap2\n      swap1\n      tag_45\n      jump\t// in\n    tag_44:\n      mload(0x40)\n      dup1\n      swap2\n      sub\n      swap1\n      return\n        /* \"RoamingDataManagement.sol\":7034:7147  function fetchBillingHistory() public view returns(BillingRecord[] memory) {... */\n    tag_6:\n      callvalue\n      dup1\n      iszero\n      tag_46\n      jumpi\n      0x00\n      dup1\n      revert\n    tag_46:\n      pop\n      tag_47\n      tag_48\n      jump\t// in\n    tag_47:\n      mload(0x40)\n      tag_49\n      swap2\n      swap1\n      tag_50\n      jump\t// in\n    tag_49:\n      mload(0x40)\n      dup1\n      swap2\n      sub\n      swap1\n      return\n        /* \"RoamingDataManagement.sol\":1867:1906  mapping(address => uint256) public bank */\n    tag_7:\n      callvalue\n      dup1\n      iszero\n      tag_51\n      jumpi\n      0x00\n      dup1\n      revert\n    tag_51:\n      pop\n      tag_52\n      0x04\n      dup1\n      calldatasize\n      sub\n      dup2\n      add\n      swap1\n      tag_53\n      swap2\n      swap1\n      tag_54\n      jump\t// in\n    tag_53:\n      tag_55\n      jump\t// in\n    tag_52:\n      mload(0x40)\n      tag_56\n      swap2\n      swap1\n      tag_57\n      jump\t// in\n    tag_56:\n      mload(0x40)\n      dup1\n      swap2\n      sub\n      swap1\n      return\n        /* \"RoamingDataManagement.sol\":601:654  mapping(address => string) public operatorsAddrToName */\n    tag_8:\n      callvalue\n      dup1\n      iszero\n      tag_58\n      jumpi\n      0x00\n      dup1\n      revert\n    tag_58:\n      pop\n      tag_59\n      0x04\n      dup1\n      calldatasize\n      sub\n      dup2\n      add\n      swap1\n      tag_60\n      swap2\n      swap1\n      tag_54\n      jump\t// in\n    tag_60:\n      tag_61\n      jump\t// in\n    tag_59:\n      mload(0x40)\n      tag_62\n      swap2\n      swap1\n      tag_32\n      jump\t// in\n    tag_62:\n      mload(0x40)\n      dup1\n      swap2\n      sub\n      swap1\n      return\n        /* \"RoamingDataManagement.sol\":1415:1460  mapping(address => string[]) public userTable */\n    tag_9:\n      callvalue\n      dup1\n      iszero\n      tag_63\n      jumpi\n      0x00\n      dup1\n      revert\n    tag_63:\n      pop\n      tag_64\n      0x04\n      dup1\n      calldatasize\n      sub\n      dup2\n      add\n      swap1\n      tag_65\n      swap2\n      swap1\n      tag_66\n      jump\t// in\n    tag_65:\n      tag_67\n      jump\t// in\n    tag_64:\n      mload(0x40)\n      tag_68\n      swap2\n      swap1\n      tag_32\n      jump\t// in\n    tag_68:\n      mload(0x40)\n      dup1\n      swap2\n      sub\n      swap1\n      return\n        /* \"RoamingDataManagement.sol\":560:594  address[] public operatorAddresses */\n    tag_10:\n      callvalue\n      dup1\n      iszero\n      tag_69\n      jumpi\n      0x00\n      dup1\n      revert\n    tag_69:\n      pop\n      tag_70\n      0x04\n      dup1\n      calldatasize\n      sub\n      dup2\n      add\n      swap1\n      tag_71\n      swap2\n      swap1\n      tag_29\n      jump\t// in\n    tag_71:\n      tag_72\n      jump\t// in\n    tag_70:\n      mload(0x40)\n      tag_73\n      swap2\n      swap1\n      tag_74\n      jump\t// in\n    tag_73:\n      mload(0x40)\n      dup1\n      swap2\n      sub\n      swap1\n      return\n        /* \"RoamingDataManagement.sol\":6390:7028  function fetchUserDataSummary(string memory visitingOperatorName) public view returns(string[] memory, UserDataSummary[] memory) {... */\n    tag_11:\n      callvalue\n      dup1\n      iszero\n      tag_75\n      jumpi\n      0x00\n      dup1\n      revert\n    tag_75:\n      pop\n      tag_76\n      0x04\n      dup1\n      calldatasize\n      sub\n      dup2\n      add\n      swap1\n      tag_77\n      swap2\n      swap1\n      tag_78\n      jump\t// in\n    tag_77:\n      tag_79\n      jump\t// in\n    tag_76:\n      mload(0x40)\n      tag_80\n      swap3\n      swap2\n      swap1\n      tag_81\n      jump\t// in\n    tag_80:\n      mload(0x40)\n      dup1\n      swap2\n      sub\n      swap1\n      return\n        /* \"RoamingDataManagement.sol\":7229:7403  function transfer(address payable _to, uint _amount) public {... */\n    tag_12:\n      callvalue\n      dup1\n      iszero\n      tag_82\n      jumpi\n      0x00\n      dup1\n      revert\n    tag_82:\n      pop\n      tag_83\n      0x04\n      dup1\n      calldatasize\n      sub\n      dup2\n      add\n      swap1\n      tag_84\n      swap2\n      swap1\n      tag_85\n      jump\t// in\n    tag_84:\n      tag_86\n      jump\t// in\n    tag_83:\n      stop\n        /* \"RoamingDataManagement.sol\":6063:6257  function dataSummaryExists(string memory imsi, string memory homeOperator) public view returns(bool) {... */\n    tag_13:\n      callvalue\n      dup1\n      iszero\n      tag_87\n      jumpi\n      0x00\n      dup1\n      revert\n    tag_87:\n      pop\n      tag_88\n      0x04\n      dup1\n      calldatasize\n      sub\n      dup2\n      add\n      swap1\n      tag_89\n      swap2\n      swap1\n      tag_90\n      jump\t// in\n    tag_89:\n      tag_91\n      jump\t// in\n    tag_88:\n      mload(0x40)\n      tag_92\n      swap2\n      swap1\n      tag_93\n      jump\t// in\n    tag_92:\n      mload(0x40)\n      dup1\n      swap2\n      sub\n      swap1\n      return\n        /* \"RoamingDataManagement.sol\":3389:6057  function uploadUserDataSummary(string memory imsi, string memory number, string memory serviceProvider, ... */\n    tag_14:\n      callvalue\n      dup1\n      iszero\n      tag_94\n      jumpi\n      0x00\n      dup1\n      revert\n    tag_94:\n      pop\n      tag_95\n      0x04\n      dup1\n      calldatasize\n      sub\n      dup2\n      add\n      swap1\n      tag_96\n      swap2\n      swap1\n      tag_97\n      jump\t// in\n    tag_96:\n      tag_98\n      jump\t// in\n    tag_95:\n      stop\n        /* \"RoamingDataManagement.sol\":2113:2212  function balance() external view returns(uint256)... */\n    tag_15:\n      callvalue\n      dup1\n      iszero\n      tag_99\n      jumpi\n      0x00\n      dup1\n      revert\n    tag_99:\n      pop\n      tag_100\n      tag_101\n      jump\t// in\n    tag_100:\n      mload(0x40)\n      tag_102\n      swap2\n      swap1\n      tag_57\n      jump\t// in\n    tag_102:\n      mload(0x40)\n      dup1\n      swap2\n      sub\n      swap1\n      return\n        /* \"RoamingDataManagement.sol\":2218:3383  function registerRoamingOperator(address operatorAddr, string memory operatorName, uint256 currentTimestamp) public payable {... */\n    tag_16:\n      tag_103\n      0x04\n      dup1\n      calldatasize\n      sub\n      dup2\n      add\n      swap1\n      tag_104\n      swap2\n      swap1\n      tag_105\n      jump\t// in\n    tag_104:\n      tag_106\n      jump\t// in\n    tag_103:\n      stop\n        /* \"RoamingDataManagement.sol\":1949:2029  function deposit() public payable... */\n    tag_17:\n      tag_107\n      tag_108\n      jump\t// in\n    tag_107:\n      stop\n        /* \"RoamingDataManagement.sol\":725:749  uint public totalDeposit */\n    tag_18:\n      callvalue\n      dup1\n      iszero\n      tag_109\n      jumpi\n      0x00\n      dup1\n      revert\n    tag_109:\n      pop\n      tag_110\n      tag_111\n      jump\t// in\n    tag_110:\n      mload(0x40)\n      tag_112\n      swap2\n      swap1\n      tag_57\n      jump\t// in\n    tag_112:\n      mload(0x40)\n      dup1\n      swap2\n      sub\n      swap1\n      return\n        /* \"RoamingDataManagement.sol\":660:713  mapping(string => address) public operatorsNameToAddr */\n    tag_19:\n      callvalue\n      dup1\n      iszero\n      tag_113\n      jumpi\n      0x00\n      dup1\n      revert\n    tag_113:\n      pop\n      tag_114\n      0x04\n      dup1\n      calldatasize\n      sub\n      dup2\n      add\n      swap1\n      tag_115\n      swap2\n      swap1\n      tag_78\n      jump\t// in\n    tag_115:\n      tag_116\n      jump\t// in\n    tag_114:\n      mload(0x40)\n      tag_117\n      swap2\n      swap1\n      tag_74\n      jump\t// in\n    tag_117:\n      mload(0x40)\n      dup1\n      swap2\n      sub\n      swap1\n      return\n        /* \"RoamingDataManagement.sol\":522:554  string[] public serviceProviders */\n    tag_30:\n      0x00\n      dup2\n      dup2\n      sload\n      dup2\n      lt\n      tag_118\n      jumpi\n      0x00\n      dup1\n      revert\n    tag_118:\n      swap1\n      0x00\n      mstore\n      keccak256(0x00, 0x20)\n      add\n      0x00\n      swap2\n      pop\n      swap1\n      pop\n      dup1\n      sload\n      tag_120\n      swap1\n      tag_121\n      jump\t// in\n    tag_120:\n      dup1\n      0x1f\n      add\n      0x20\n      dup1\n      swap2\n      div\n      mul\n      0x20\n      add\n      mload(0x40)\n      swap1\n      dup2\n      add\n      0x40\n      mstore\n      dup1\n      swap3\n      swap2\n      swap1\n      dup2\n      dup2\n      mstore\n      0x20\n      add\n      dup3\n      dup1\n      sload\n      tag_122\n      swap1\n      tag_121\n      jump\t// in\n    tag_122:\n      dup1\n      iszero\n      tag_123\n      jumpi\n      dup1\n      0x1f\n      lt\n      tag_124\n      jumpi\n      0x0100\n      dup1\n      dup4\n      sload\n      div\n      mul\n      dup4\n      mstore\n      swap2\n      0x20\n      add\n      swap2\n      jump(tag_123)\n    tag_124:\n      dup3\n      add\n      swap2\n      swap1\n      0x00\n      mstore\n      keccak256(0x00, 0x20)\n      swap1\n    tag_125:\n      dup2\n      sload\n      dup2\n      mstore\n      swap1\n      0x01\n      add\n      swap1\n      0x20\n      add\n      dup1\n      dup4\n      gt\n      tag_125\n      jumpi\n      dup3\n      swap1\n      sub\n      0x1f\n      and\n      dup3\n      add\n      swap2\n    tag_123:\n      pop\n      pop\n      pop\n      pop\n      pop\n      dup2\n      jump\t// out\n        /* \"RoamingDataManagement.sol\":1285:1322  BillingRecord[] public billingHistory */\n    tag_36:\n      0x05\n      dup2\n      dup2\n      sload\n      dup2\n      lt\n      tag_126\n      jumpi\n      0x00\n      dup1\n      revert\n    tag_126:\n      swap1\n      0x00\n      mstore\n      keccak256(0x00, 0x20)\n      swap1\n      0x06\n      mul\n      add\n      0x00\n      swap2\n      pop\n      swap1\n      pop\n      dup1\n      0x00\n      add\n      0x00\n      swap1\n      sload\n      swap1\n      0x0100\n      exp\n      swap1\n      div\n      0xffffffffffffffffffffffffffffffffffffffff\n      and\n      swap1\n      dup1\n      0x01\n      add\n      0x00\n      swap1\n      sload\n      swap1\n      0x0100\n      exp\n      swap1\n      div\n      0xffffffffffffffffffffffffffffffffffffffff\n      and\n      swap1\n      dup1\n      0x02\n      add\n      dup1\n      sload\n      tag_128\n      swap1\n      tag_121\n      jump\t// in\n    tag_128:\n      dup1\n      0x1f\n      add\n      0x20\n      dup1\n      swap2\n      div\n      mul\n      0x20\n      add\n      mload(0x40)\n      swap1\n      dup2\n      add\n      0x40\n      mstore\n      dup1\n      swap3\n      swap2\n      swap1\n      dup2\n      dup2\n      mstore\n      0x20\n      add\n      dup3\n      dup1\n      sload\n      tag_129\n      swap1\n      tag_121\n      jump\t// in\n    tag_129:\n      dup1\n      iszero\n      tag_130\n      jumpi\n      dup1\n      0x1f\n      lt\n      tag_131\n      jumpi\n      0x0100\n      dup1\n      dup4\n      sload\n      div\n      mul\n      dup4\n      mstore\n      swap2\n      0x20\n      add\n      swap2\n      jump(tag_130)\n    tag_131:\n      dup3\n      add\n      swap2\n      swap1\n      0x00\n      mstore\n      keccak256(0x00, 0x20)\n      swap1\n    tag_132:\n      dup2\n      sload\n      dup2\n      mstore\n      swap1\n      0x01\n      add\n      swap1\n      0x20\n      add\n      dup1\n      dup4\n      gt\n      tag_132\n      jumpi\n      dup3\n      swap1\n      sub\n      0x1f\n      and\n      dup3\n      add\n      swap2\n    tag_130:\n      pop\n      pop\n      pop\n      pop\n      pop\n      swap1\n      dup1\n      0x03\n      add\n      dup1\n      sload\n      tag_133\n      swap1\n      tag_121\n      jump\t// in\n    tag_133:\n      dup1\n      0x1f\n      add\n      0x20\n      dup1\n      swap2\n      div\n      mul\n      0x20\n      add\n      mload(0x40)\n      swap1\n      dup2\n      add\n      0x40\n      mstore\n      dup1\n      swap3\n      swap2\n      swap1\n      dup2\n      dup2\n      mstore\n      0x20\n      add\n      dup3\n      dup1\n      sload\n      tag_134\n      swap1\n      tag_121\n      jump\t// in\n    tag_134:\n      dup1\n      iszero\n      tag_135\n      jumpi\n      dup1\n      0x1f\n      lt\n      tag_136\n      jumpi\n      0x0100\n      dup1\n      dup4\n      sload\n      div\n      mul\n      dup4\n      mstore\n      swap2\n      0x20\n      add\n      swap2\n      jump(tag_135)\n    tag_136:\n      dup3\n      add\n      swap2\n      swap1\n      0x00\n      mstore\n      keccak256(0x00, 0x20)\n      swap1\n    tag_137:\n      dup2\n      sload\n      dup2\n      mstore\n      swap1\n      0x01\n      add\n      swap1\n      0x20\n      add\n      dup1\n      dup4\n      gt\n      tag_137\n      jumpi\n      dup3\n      swap1\n      sub\n      0x1f\n      and\n      dup3\n      add\n      swap2\n    tag_135:\n      pop\n      pop\n      pop\n      pop\n      pop\n      swap1\n      dup1\n      0x04\n      add\n      sload\n      swap1\n      dup1\n      0x05\n      add\n      sload\n      swap1\n      pop\n      dup7\n      jump\t// out\n        /* \"RoamingDataManagement.sol\":1693:1791  mapping(address => mapping(string => mapping(address => UserDataSummary))) public dataSummaryTable */\n    tag_43:\n      mstore(0x20, 0x07)\n      dup3\n      0x00\n      mstore\n      keccak256(0x00, 0x40)\n      dup3\n      dup1\n      mload\n      0x20\n      dup2\n      add\n      dup3\n      add\n      dup1\n      mload\n      dup5\n      dup3\n      mstore\n      0x20\n      dup4\n      add\n      0x20\n      dup6\n      add\n      keccak256\n      dup2\n      dup4\n      mstore\n      dup1\n      swap6\n      pop\n      pop\n      pop\n      pop\n      pop\n      pop\n      0x20\n      mstore\n      dup1\n      0x00\n      mstore\n      keccak256(0x00, 0x40)\n      0x00\n      swap3\n      pop\n      swap3\n      pop\n      pop\n      pop\n      dup1\n      0x00\n      add\n      dup1\n      sload\n      tag_138\n      swap1\n      tag_121\n      jump\t// in\n    tag_138:\n      dup1\n      0x1f\n      add\n      0x20\n      dup1\n      swap2\n      div\n      mul\n      0x20\n      add\n      mload(0x40)\n      swap1\n      dup2\n      add\n      0x40\n      mstore\n      dup1\n      swap3\n      swap2\n      swap1\n      dup2\n      dup2\n      mstore\n      0x20\n      add\n      dup3\n      dup1\n      sload\n      tag_139\n      swap1\n      tag_121\n      jump\t// in\n    tag_139:\n      dup1\n      iszero\n      tag_140\n      jumpi\n      dup1\n      0x1f\n      lt\n      tag_141\n      jumpi\n      0x0100\n      dup1\n      dup4\n      sload\n      div\n      mul\n      dup4\n      mstore\n      swap2\n      0x20\n      add\n      swap2\n      jump(tag_140)\n    tag_141:\n      dup3\n      add\n      swap2\n      swap1\n      0x00\n      mstore\n      keccak256(0x00, 0x20)\n      swap1\n    tag_142:\n      dup2\n      sload\n      dup2\n      mstore\n      swap1\n      0x01\n      add\n      swap1\n      0x20\n      add\n      dup1\n      dup4\n      gt\n      tag_142\n      jumpi\n      dup3\n      swap1\n      sub\n      0x1f\n      and\n      dup3\n      add\n      swap2\n    tag_140:\n      pop\n      pop\n      pop\n      pop\n      pop\n      swap1\n      dup1\n      0x01\n      add\n      dup1\n      sload\n      tag_143\n      swap1\n      tag_121\n      jump\t// in\n    tag_143:\n      dup1\n      0x1f\n      add\n      0x20\n      dup1\n      swap2\n      div\n      mul\n      0x20\n      add\n      mload(0x40)\n      swap1\n      dup2\n      add\n      0x40\n      mstore\n      dup1\n      swap3\n      swap2\n      swap1\n      dup2\n      dup2\n      mstore\n      0x20\n      add\n      dup3\n      dup1\n      sload\n      tag_144\n      swap1\n      tag_121\n      jump\t// in\n    tag_144:\n      dup1\n      iszero\n      tag_145\n      jumpi\n      dup1\n      0x1f\n      lt\n      tag_146\n      jumpi\n      0x0100\n      dup1\n      dup4\n      sload\n      div\n      mul\n      dup4\n      mstore\n      swap2\n      0x20\n      add\n      swap2\n      jump(tag_145)\n    tag_146:\n      dup3\n      add\n      swap2\n      swap1\n      0x00\n      mstore\n      keccak256(0x00, 0x20)\n      swap1\n    tag_147:\n      dup2\n      sload\n      dup2\n      mstore\n      swap1\n      0x01\n      add\n      swap1\n      0x20\n      add\n      dup1\n      dup4\n      gt\n      tag_147\n      jumpi\n      dup3\n      swap1\n      sub\n      0x1f\n      and\n      dup3\n      add\n      swap2\n    tag_145:\n      pop\n      pop\n      pop\n      pop\n      pop\n      swap1\n      dup1\n      0x02\n      add\n      dup1\n      sload\n      tag_148\n      swap1\n      tag_121\n      jump\t// in\n    tag_148:\n      dup1\n      0x1f\n      add\n      0x20\n      dup1\n      swap2\n      div\n      mul\n      0x20\n      add\n      mload(0x40)\n      swap1\n      dup2\n      add\n      0x40\n      mstore\n      dup1\n      swap3\n      swap2\n      swap1\n      dup2\n      dup2\n      mstore\n      0x20\n      add\n      dup3\n      dup1\n      sload\n      tag_149\n      swap1\n      tag_121\n      jump\t// in\n    tag_149:\n      dup1\n      iszero\n      tag_150\n      jumpi\n      dup1\n      0x1f\n      lt\n      tag_151\n      jumpi\n      0x0100\n      dup1\n      dup4\n      sload\n      div\n      mul\n      dup4\n      mstore\n      swap2\n      0x20\n      add\n      swap2\n      jump(tag_150)\n    tag_151:\n      dup3\n      add\n      swap2\n      swap1\n      0x00\n      mstore\n      keccak256(0x00, 0x20)\n      swap1\n    tag_152:\n      dup2\n      sload\n      dup2\n      mstore\n      swap1\n      0x01\n      add\n      swap1\n      0x20\n      add\n      dup1\n      dup4\n      gt\n      tag_152\n      jumpi\n      dup3\n      swap1\n      sub\n      0x1f\n      and\n      dup3\n      add\n      swap2\n    tag_150:\n      pop\n      pop\n      pop\n      pop\n      pop\n      swap1\n      dup1\n      0x03\n      add\n      sload\n      swap1\n      dup1\n      0x04\n      add\n      sload\n      swap1\n      dup1\n      0x05\n      add\n      sload\n      swap1\n      dup1\n      0x06\n      add\n      sload\n      swap1\n      dup1\n      0x07\n      add\n      sload\n      swap1\n      dup1\n      0x08\n      add\n      sload\n      swap1\n      dup1\n      0x09\n      add\n      sload\n      swap1\n      pop\n      dup11\n      jump\t// out\n        /* \"RoamingDataManagement.sol\":7034:7147  function fetchBillingHistory() public view returns(BillingRecord[] memory) {... */\n    tag_48:\n        /* \"RoamingDataManagement.sol\":7085:7107  BillingRecord[] memory */\n      0x60\n        /* \"RoamingDataManagement.sol\":7126:7140  billingHistory */\n      0x05\n        /* \"RoamingDataManagement.sol\":7119:7140  return billingHistory */\n      dup1\n      sload\n      dup1\n      0x20\n      mul\n      0x20\n      add\n      mload(0x40)\n      swap1\n      dup2\n      add\n      0x40\n      mstore\n      dup1\n      swap3\n      swap2\n      swap1\n      dup2\n      dup2\n      mstore\n      0x20\n      add\n      0x00\n      swap1\n    tag_154:\n      dup3\n      dup3\n      lt\n      iszero\n      tag_155\n      jumpi\n      dup4\n      dup3\n      swap1\n      0x00\n      mstore\n      keccak256(0x00, 0x20)\n      swap1\n      0x06\n      mul\n      add\n      mload(0x40)\n      dup1\n      0xc0\n      add\n      0x40\n      mstore\n      swap1\n      dup2\n      0x00\n      dup3\n      add\n      0x00\n      swap1\n      sload\n      swap1\n      0x0100\n      exp\n      swap1\n      div\n      0xffffffffffffffffffffffffffffffffffffffff\n      and\n      0xffffffffffffffffffffffffffffffffffffffff\n      and\n      0xffffffffffffffffffffffffffffffffffffffff\n      and\n      dup2\n      mstore\n      0x20\n      add\n      0x01\n      dup3\n      add\n      0x00\n      swap1\n      sload\n      swap1\n      0x0100\n      exp\n      swap1\n      div\n      0xffffffffffffffffffffffffffffffffffffffff\n      and\n      0xffffffffffffffffffffffffffffffffffffffff\n      and\n      0xffffffffffffffffffffffffffffffffffffffff\n      and\n      dup2\n      mstore\n      0x20\n      add\n      0x02\n      dup3\n      add\n      dup1\n      sload\n      tag_157\n      swap1\n      tag_121\n      jump\t// in\n    tag_157:\n      dup1\n      0x1f\n      add\n      0x20\n      dup1\n      swap2\n      div\n      mul\n      0x20\n      add\n      mload(0x40)\n      swap1\n      dup2\n      add\n      0x40\n      mstore\n      dup1\n      swap3\n      swap2\n      swap1\n      dup2\n      dup2\n      mstore\n      0x20\n      add\n      dup3\n      dup1\n      sload\n      tag_158\n      swap1\n      tag_121\n      jump\t// in\n    tag_158:\n      dup1\n      iszero\n      tag_159\n      jumpi\n      dup1\n      0x1f\n      lt\n      tag_160\n      jumpi\n      0x0100\n      dup1\n      dup4\n      sload\n      div\n      mul\n      dup4\n      mstore\n      swap2\n      0x20\n      add\n      swap2\n      jump(tag_159)\n    tag_160:\n      dup3\n      add\n      swap2\n      swap1\n      0x00\n      mstore\n      keccak256(0x00, 0x20)\n      swap1\n    tag_161:\n      dup2\n      sload\n      dup2\n      mstore\n      swap1\n      0x01\n      add\n      swap1\n      0x20\n      add\n      dup1\n      dup4\n      gt\n      tag_161\n      jumpi\n      dup3\n      swap1\n      sub\n      0x1f\n      and\n      dup3\n      add\n      swap2\n    tag_159:\n      pop\n      pop\n      pop\n      pop\n      pop\n      dup2\n      mstore\n      0x20\n      add\n      0x03\n      dup3\n      add\n      dup1\n      sload\n      tag_162\n      swap1\n      tag_121\n      jump\t// in\n    tag_162:\n      dup1\n      0x1f\n      add\n      0x20\n      dup1\n      swap2\n      div\n      mul\n      0x20\n      add\n      mload(0x40)\n      swap1\n      dup2\n      add\n      0x40\n      mstore\n      dup1\n      swap3\n      swap2\n      swap1\n      dup2\n      dup2\n      mstore\n      0x20\n      add\n      dup3\n      dup1\n      sload\n      tag_163\n      swap1\n      tag_121\n      jump\t// in\n    tag_163:\n      dup1\n      iszero\n      tag_164\n      jumpi\n      dup1\n      0x1f\n      lt\n      tag_165\n      jumpi\n      0x0100\n      dup1\n      dup4\n      sload\n      div\n      mul\n      dup4\n      mstore\n      swap2\n      0x20\n      add\n      swap2\n      jump(tag_164)\n    tag_165:\n      dup3\n      add\n      swap2\n      swap1\n      0x00\n      mstore\n      keccak256(0x00, 0x20)\n      swap1\n    tag_166:\n      dup2\n      sload\n      dup2\n      mstore\n      swap1\n      0x01\n      add\n      swap1\n      0x20\n      add\n      dup1\n      dup4\n      gt\n      tag_166\n      jumpi\n      dup3\n      swap1\n      sub\n      0x1f\n      and\n      dup3\n      add\n      swap2\n    tag_164:\n      pop\n      pop\n      pop\n      pop\n      pop\n      dup2\n      mstore\n      0x20\n      add\n      0x04\n      dup3\n      add\n      sload\n      dup2\n      mstore\n      0x20\n      add\n      0x05\n      dup3\n      add\n      sload\n      dup2\n      mstore\n      pop\n      pop\n      dup2\n      mstore\n      0x20\n      add\n      swap1\n      0x01\n      add\n      swap1\n      jump(tag_154)\n    tag_155:\n      pop\n      pop\n      pop\n      pop\n      swap1\n      pop\n        /* \"RoamingDataManagement.sol\":7034:7147  function fetchBillingHistory() public view returns(BillingRecord[] memory) {... */\n      swap1\n      jump\t// out\n        /* \"RoamingDataManagement.sol\":1867:1906  mapping(address => uint256) public bank */\n    tag_55:\n      mstore(0x20, 0x09)\n      dup1\n      0x00\n      mstore\n      keccak256(0x00, 0x40)\n      0x00\n      swap2\n      pop\n      swap1\n      pop\n      sload\n      dup2\n      jump\t// out\n        /* \"RoamingDataManagement.sol\":601:654  mapping(address => string) public operatorsAddrToName */\n    tag_61:\n      mstore(0x20, 0x02)\n      dup1\n      0x00\n      mstore\n      keccak256(0x00, 0x40)\n      0x00\n      swap2\n      pop\n      swap1\n      pop\n      dup1\n      sload\n      tag_167\n      swap1\n      tag_121\n      jump\t// in\n    tag_167:\n      dup1\n      0x1f\n      add\n      0x20\n      dup1\n      swap2\n      div\n      mul\n      0x20\n      add\n      mload(0x40)\n      swap1\n      dup2\n      add\n      0x40\n      mstore\n      dup1\n      swap3\n      swap2\n      swap1\n      dup2\n      dup2\n      mstore\n      0x20\n      add\n      dup3\n      dup1\n      sload\n      tag_168\n      swap1\n      tag_121\n      jump\t// in\n    tag_168:\n      dup1\n      iszero\n      tag_169\n      jumpi\n      dup1\n      0x1f\n      lt\n      tag_170\n      jumpi\n      0x0100\n      dup1\n      dup4\n      sload\n      div\n      mul\n      dup4\n      mstore\n      swap2\n      0x20\n      add\n      swap2\n      jump(tag_169)\n    tag_170:\n      dup3\n      add\n      swap2\n      swap1\n      0x00\n      mstore\n      keccak256(0x00, 0x20)\n      swap1\n    tag_171:\n      dup2\n      sload\n      dup2\n      mstore\n      swap1\n      0x01\n      add\n      swap1\n      0x20\n      add\n      dup1\n      dup4\n      gt\n      tag_171\n      jumpi\n      dup3\n      swap1\n      sub\n      0x1f\n      and\n      dup3\n      add\n      swap2\n    tag_169:\n      pop\n      pop\n      pop\n      pop\n      pop\n      dup2\n      jump\t// out\n        /* \"RoamingDataManagement.sol\":1415:1460  mapping(address => string[]) public userTable */\n    tag_67:\n      mstore(0x20, 0x06)\n      dup2\n      0x00\n      mstore\n      keccak256(0x00, 0x40)\n      dup2\n      dup2\n      sload\n      dup2\n      lt\n      tag_172\n      jumpi\n      0x00\n      dup1\n      revert\n    tag_172:\n      swap1\n      0x00\n      mstore\n      keccak256(0x00, 0x20)\n      add\n      0x00\n      swap2\n      pop\n      swap2\n      pop\n      pop\n      dup1\n      sload\n      tag_174\n      swap1\n      tag_121\n      jump\t// in\n    tag_174:\n      dup1\n      0x1f\n      add\n      0x20\n      dup1\n      swap2\n      div\n      mul\n      0x20\n      add\n      mload(0x40)\n      swap1\n      dup2\n      add\n      0x40\n      mstore\n      dup1\n      swap3\n      swap2\n      swap1\n      dup2\n      dup2\n      mstore\n      0x20\n      add\n      dup3\n      dup1\n      sload\n      tag_175\n      swap1\n      tag_121\n      jump\t// in\n    tag_175:\n      dup1\n      iszero\n      tag_176\n      jumpi\n      dup1\n      0x1f\n      lt\n      tag_177\n      jumpi\n      0x0100\n      dup1\n      dup4\n      sload\n      div\n      mul\n      dup4\n      mstore\n      swap2\n      0x20\n      add\n      swap2\n      jump(tag_176)\n    tag_177:\n      dup3\n      add\n      swap2\n      swap1\n      0x00\n      mstore\n      keccak256(0x00, 0x20)\n      swap1\n    tag_178:\n      dup2\n      sload\n      dup2\n      mstore\n      swap1\n      0x01\n      add\n      swap1\n      0x20\n      add\n      dup1\n      dup4\n      gt\n      tag_178\n      jumpi\n      dup3\n      swap1\n      sub\n      0x1f\n      and\n      dup3\n      add\n      swap2\n    tag_176:\n      pop\n      pop\n      pop\n      pop\n      pop\n      dup2\n      jump\t// out\n        /* \"RoamingDataManagement.sol\":560:594  address[] public operatorAddresses */\n    tag_72:\n      0x01\n      dup2\n      dup2\n      sload\n      dup2\n      lt\n      tag_179\n      jumpi\n      0x00\n      dup1\n      revert\n    tag_179:\n      swap1\n      0x00\n      mstore\n      keccak256(0x00, 0x20)\n      add\n      0x00\n      swap2\n      pop\n      sload\n      swap1\n      0x0100\n      exp\n      swap1\n      div\n      0xffffffffffffffffffffffffffffffffffffffff\n      and\n      dup2\n      jump\t// out\n        /* \"RoamingDataManagement.sol\":6390:7028  function fetchUserDataSummary(string memory visitingOperatorName) public view returns(string[] memory, UserDataSummary[] memory) {... */\n    tag_79:\n        /* \"RoamingDataManagement.sol\":6476:6491  string[] memory */\n      0x60\n        /* \"RoamingDataManagement.sol\":6493:6517  UserDataSummary[] memory */\n      dup1\n        /* \"RoamingDataManagement.sol\":6529:6553  address homeOperatorAddr */\n      0x00\n        /* \"RoamingDataManagement.sol\":6556:6566  msg.sender */\n      caller\n        /* \"RoamingDataManagement.sol\":6529:6566  address homeOperatorAddr = msg.sender */\n      swap1\n      pop\n        /* \"RoamingDataManagement.sol\":6576:6598  string[] storage users */\n      0x00\n        /* \"RoamingDataManagement.sol\":6601:6610  userTable */\n      0x06\n        /* \"RoamingDataManagement.sol\":6601:6628  userTable[homeOperatorAddr] */\n      0x00\n        /* \"RoamingDataManagement.sol\":6611:6627  homeOperatorAddr */\n      dup4\n        /* \"RoamingDataManagement.sol\":6601:6628  userTable[homeOperatorAddr] */\n      0xffffffffffffffffffffffffffffffffffffffff\n      and\n      0xffffffffffffffffffffffffffffffffffffffff\n      and\n      dup2\n      mstore\n      0x20\n      add\n      swap1\n      dup2\n      mstore\n      0x20\n      add\n      0x00\n      keccak256\n        /* \"RoamingDataManagement.sol\":6576:6628  string[] storage users = userTable[homeOperatorAddr] */\n      swap1\n      pop\n        /* \"RoamingDataManagement.sol\":6639:6678  UserDataSummary[] memory dataSummarries */\n      0x00\n        /* \"RoamingDataManagement.sol\":6703:6712  userTable */\n      0x06\n        /* \"RoamingDataManagement.sol\":6703:6730  userTable[homeOperatorAddr] */\n      0x00\n        /* \"RoamingDataManagement.sol\":6713:6729  homeOperatorAddr */\n      dup5\n        /* \"RoamingDataManagement.sol\":6703:6730  userTable[homeOperatorAddr] */\n      0xffffffffffffffffffffffffffffffffffffffff\n      and\n      0xffffffffffffffffffffffffffffffffffffffff\n      and\n      dup2\n      mstore\n      0x20\n      add\n      swap1\n      dup2\n      mstore\n      0x20\n      add\n      0x00\n      keccak256\n        /* \"RoamingDataManagement.sol\":6703:6737  userTable[homeOperatorAddr].length */\n      dup1\n      sload\n      swap1\n      pop\n        /* \"RoamingDataManagement.sol\":6681:6738  new UserDataSummary[](userTable[homeOperatorAddr].length) */\n      0xffffffffffffffff\n      dup2\n      gt\n      iszero\n      tag_182\n      jumpi\n      tag_183\n      tag_184\n      jump\t// in\n    tag_183:\n    tag_182:\n      mload(0x40)\n      swap1\n      dup1\n      dup3\n      mstore\n      dup1\n      0x20\n      mul\n      0x20\n      add\n      dup3\n      add\n      0x40\n      mstore\n      dup1\n      iszero\n      tag_185\n      jumpi\n      dup2\n      0x20\n      add\n    tag_186:\n      tag_187\n      tag_188\n      jump\t// in\n    tag_187:\n      dup2\n      mstore\n      0x20\n      add\n      swap1\n      0x01\n      swap1\n      sub\n      swap1\n      dup2\n      tag_186\n      jumpi\n      swap1\n      pop\n    tag_185:\n      pop\n        /* \"RoamingDataManagement.sol\":6639:6738  UserDataSummary[] memory dataSummarries = new UserDataSummary[](userTable[homeOperatorAddr].length) */\n      swap1\n      pop\n        /* \"RoamingDataManagement.sol\":6753:6759  uint i */\n      0x00\n        /* \"RoamingDataManagement.sol\":6748:6959  for (uint i = 0; i < users.length; ++i) {... */\n    tag_189:\n        /* \"RoamingDataManagement.sol\":6769:6774  users */\n      dup3\n        /* \"RoamingDataManagement.sol\":6769:6781  users.length */\n      dup1\n      sload\n      swap1\n      pop\n        /* \"RoamingDataManagement.sol\":6765:6766  i */\n      dup2\n        /* \"RoamingDataManagement.sol\":6765:6781  i < users.length */\n      lt\n        /* \"RoamingDataManagement.sol\":6748:6959  for (uint i = 0; i < users.length; ++i) {... */\n      iszero\n      tag_190\n      jumpi\n        /* \"RoamingDataManagement.sol\":6802:6820  string memory imsi */\n      0x00\n        /* \"RoamingDataManagement.sol\":6823:6828  users */\n      dup4\n        /* \"RoamingDataManagement.sol\":6829:6830  i */\n      dup3\n        /* \"RoamingDataManagement.sol\":6823:6831  users[i] */\n      dup2\n      sload\n      dup2\n      lt\n      tag_192\n      jumpi\n      tag_193\n      tag_194\n      jump\t// in\n    tag_193:\n    tag_192:\n      swap1\n      0x00\n      mstore\n      keccak256(0x00, 0x20)\n      add\n        /* \"RoamingDataManagement.sol\":6802:6831  string memory imsi = users[i] */\n      dup1\n      sload\n      tag_196\n      swap1\n      tag_121\n      jump\t// in\n    tag_196:\n      dup1\n      0x1f\n      add\n      0x20\n      dup1\n      swap2\n      div\n      mul\n      0x20\n      add\n      mload(0x40)\n      swap1\n      dup2\n      add\n      0x40\n      mstore\n      dup1\n      swap3\n      swap2\n      swap1\n      dup2\n      dup2\n      mstore\n      0x20\n      add\n      dup3\n      dup1\n      sload\n      tag_197\n      swap1\n      tag_121\n      jump\t// in\n    tag_197:\n      dup1\n      iszero\n      tag_198\n      jumpi\n      dup1\n      0x1f\n      lt\n      tag_199\n      jumpi\n      0x0100\n      dup1\n      dup4\n      sload\n      div\n      mul\n      dup4\n      mstore\n      swap2\n      0x20\n      add\n      swap2\n      jump(tag_198)\n    tag_199:\n      dup3\n      add\n      swap2\n      swap1\n      0x00\n      mstore\n      keccak256(0x00, 0x20)\n      swap1\n    tag_200:\n      dup2\n      sload\n      dup2\n      mstore\n      swap1\n      0x01\n      add\n      swap1\n      0x20\n      add\n      dup1\n      dup4\n      gt\n      tag_200\n      jumpi\n      dup3\n      swap1\n      sub\n      0x1f\n      and\n      dup3\n      add\n      swap2\n    tag_198:\n      pop\n      pop\n      pop\n      pop\n      pop\n      swap1\n      pop\n        /* \"RoamingDataManagement.sol\":6865:6881  dataSummaryTable */\n      0x07\n        /* \"RoamingDataManagement.sol\":6865:6899  dataSummaryTable[homeOperatorAddr] */\n      0x00\n        /* \"RoamingDataManagement.sol\":6882:6898  homeOperatorAddr */\n      dup7\n        /* \"RoamingDataManagement.sol\":6865:6899  dataSummaryTable[homeOperatorAddr] */\n      0xffffffffffffffffffffffffffffffffffffffff\n      and\n      0xffffffffffffffffffffffffffffffffffffffff\n      and\n      dup2\n      mstore\n      0x20\n      add\n      swap1\n      dup2\n      mstore\n      0x20\n      add\n      0x00\n      keccak256\n        /* \"RoamingDataManagement.sol\":6900:6904  imsi */\n      dup2\n        /* \"RoamingDataManagement.sol\":6865:6905  dataSummaryTable[homeOperatorAddr][imsi] */\n      mload(0x40)\n      tag_201\n      swap2\n      swap1\n      tag_202\n      jump\t// in\n    tag_201:\n      swap1\n      dup2\n      mstore\n      0x20\n      add\n      mload(0x40)\n      dup1\n      swap2\n      sub\n      swap1\n      keccak256\n        /* \"RoamingDataManagement.sol\":6865:6948  dataSummaryTable[homeOperatorAddr][imsi][operatorsNameToAddr[visitingOperatorName]] */\n      0x00\n        /* \"RoamingDataManagement.sol\":6906:6925  operatorsNameToAddr */\n      0x03\n        /* \"RoamingDataManagement.sol\":6926:6946  visitingOperatorName */\n      dup11\n        /* \"RoamingDataManagement.sol\":6906:6947  operatorsNameToAddr[visitingOperatorName] */\n      mload(0x40)\n      tag_203\n      swap2\n      swap1\n      tag_202\n      jump\t// in\n    tag_203:\n      swap1\n      dup2\n      mstore\n      0x20\n      add\n      mload(0x40)\n      dup1\n      swap2\n      sub\n      swap1\n      keccak256\n      0x00\n      swap1\n      sload\n      swap1\n      0x0100\n      exp\n      swap1\n      div\n      0xffffffffffffffffffffffffffffffffffffffff\n      and\n        /* \"RoamingDataManagement.sol\":6865:6948  dataSummaryTable[homeOperatorAddr][imsi][operatorsNameToAddr[visitingOperatorName]] */\n      0xffffffffffffffffffffffffffffffffffffffff\n      and\n      0xffffffffffffffffffffffffffffffffffffffff\n      and\n      dup2\n      mstore\n      0x20\n      add\n      swap1\n      dup2\n      mstore\n      0x20\n      add\n      0x00\n      keccak256\n        /* \"RoamingDataManagement.sol\":6845:6948  dataSummarries[i] = dataSummaryTable[homeOperatorAddr][imsi][operatorsNameToAddr[visitingOperatorName]] */\n      mload(0x40)\n      dup1\n      0x0140\n      add\n      0x40\n      mstore\n      swap1\n      dup2\n      0x00\n      dup3\n      add\n      dup1\n      sload\n      tag_204\n      swap1\n      tag_121\n      jump\t// in\n    tag_204:\n      dup1\n      0x1f\n      add\n      0x20\n      dup1\n      swap2\n      div\n      mul\n      0x20\n      add\n      mload(0x40)\n      swap1\n      dup2\n      add\n      0x40\n      mstore\n      dup1\n      swap3\n      swap2\n      swap1\n      dup2\n      dup2\n      mstore\n      0x20\n      add\n      dup3\n      dup1\n      sload\n      tag_205\n      swap1\n      tag_121\n      jump\t// in\n    tag_205:\n      dup1\n      iszero\n      tag_206\n      jumpi\n      dup1\n      0x1f\n      lt\n      tag_207\n      jumpi\n      0x0100\n      dup1\n      dup4\n      sload\n      div\n      mul\n      dup4\n      mstore\n      swap2\n      0x20\n      add\n      swap2\n      jump(tag_206)\n    tag_207:\n      dup3\n      add\n      swap2\n      swap1\n      0x00\n      mstore\n      keccak256(0x00, 0x20)\n      swap1\n    tag_208:\n      dup2\n      sload\n      dup2\n      mstore\n      swap1\n      0x01\n      add\n      swap1\n      0x20\n      add\n      dup1\n      dup4\n      gt\n      tag_208\n      jumpi\n      dup3\n      swap1\n      sub\n      0x1f\n      and\n      dup3\n      add\n      swap2\n    tag_206:\n      pop\n      pop\n      pop\n      pop\n      pop\n      dup2\n      mstore\n      0x20\n      add\n      0x01\n      dup3\n      add\n      dup1\n      sload\n      tag_209\n      swap1\n      tag_121\n      jump\t// in\n    tag_209:\n      dup1\n      0x1f\n      add\n      0x20\n      dup1\n      swap2\n      div\n      mul\n      0x20\n      add\n      mload(0x40)\n      swap1\n      dup2\n      add\n      0x40\n      mstore\n      dup1\n      swap3\n      swap2\n      swap1\n      dup2\n      dup2\n      mstore\n      0x20\n      add\n      dup3\n      dup1\n      sload\n      tag_210\n      swap1\n      tag_121\n      jump\t// in\n    tag_210:\n      dup1\n      iszero\n      tag_211\n      jumpi\n      dup1\n      0x1f\n      lt\n      tag_212\n      jumpi\n      0x0100\n      dup1\n      dup4\n      sload\n      div\n      mul\n      dup4\n      mstore\n      swap2\n      0x20\n      add\n      swap2\n      jump(tag_211)\n    tag_212:\n      dup3\n      add\n      swap2\n      swap1\n      0x00\n      mstore\n      keccak256(0x00, 0x20)\n      swap1\n    tag_213:\n      dup2\n      sload\n      dup2\n      mstore\n      swap1\n      0x01\n      add\n      swap1\n      0x20\n      add\n      dup1\n      dup4\n      gt\n      tag_213\n      jumpi\n      dup3\n      swap1\n      sub\n      0x1f\n      and\n      dup3\n      add\n      swap2\n    tag_211:\n      pop\n      pop\n      pop\n      pop\n      pop\n      dup2\n      mstore\n      0x20\n      add\n      0x02\n      dup3\n      add\n      dup1\n      sload\n      tag_214\n      swap1\n      tag_121\n      jump\t// in\n    tag_214:\n      dup1\n      0x1f\n      add\n      0x20\n      dup1\n      swap2\n      div\n      mul\n      0x20\n      add\n      mload(0x40)\n      swap1\n      dup2\n      add\n      0x40\n      mstore\n      dup1\n      swap3\n      swap2\n      swap1\n      dup2\n      dup2\n      mstore\n      0x20\n      add\n      dup3\n      dup1\n      sload\n      tag_215\n      swap1\n      tag_121\n      jump\t// in\n    tag_215:\n      dup1\n      iszero\n      tag_216\n      jumpi\n      dup1\n      0x1f\n      lt\n      tag_217\n      jumpi\n      0x0100\n      dup1\n      dup4\n      sload\n      div\n      mul\n      dup4\n      mstore\n      swap2\n      0x20\n      add\n      swap2\n      jump(tag_216)\n    tag_217:\n      dup3\n      add\n      swap2\n      swap1\n      0x00\n      mstore\n      keccak256(0x00, 0x20)\n      swap1\n    tag_218:\n      dup2\n      sload\n      dup2\n      mstore\n      swap1\n      0x01\n      add\n      swap1\n      0x20\n      add\n      dup1\n      dup4\n      gt\n      tag_218\n      jumpi\n      dup3\n      swap1\n      sub\n      0x1f\n      and\n      dup3\n      add\n      swap2\n    tag_216:\n      pop\n      pop\n      pop\n      pop\n      pop\n      dup2\n      mstore\n      0x20\n      add\n      0x03\n      dup3\n      add\n      sload\n      dup2\n      mstore\n      0x20\n      add\n      0x04\n      dup3\n      add\n      sload\n      dup2\n      mstore\n      0x20\n      add\n      0x05\n      dup3\n      add\n      sload\n      dup2\n      mstore\n      0x20\n      add\n      0x06\n      dup3\n      add\n      sload\n      dup2\n      mstore\n      0x20\n      add\n      0x07\n      dup3\n      add\n      sload\n      dup2\n      mstore\n      0x20\n      add\n      0x08\n      dup3\n      add\n      sload\n      dup2\n      mstore\n      0x20\n      add\n      0x09\n      dup3\n      add\n      sload\n      dup2\n      mstore\n      pop\n      pop\n        /* \"RoamingDataManagement.sol\":6845:6859  dataSummarries */\n      dup4\n        /* \"RoamingDataManagement.sol\":6860:6861  i */\n      dup4\n        /* \"RoamingDataManagement.sol\":6845:6862  dataSummarries[i] */\n      dup2\n      mload\n      dup2\n      lt\n      tag_219\n      jumpi\n      tag_220\n      tag_194\n      jump\t// in\n    tag_220:\n    tag_219:\n      0x20\n      mul\n      0x20\n      add\n      add\n        /* \"RoamingDataManagement.sol\":6845:6948  dataSummarries[i] = dataSummaryTable[homeOperatorAddr][imsi][operatorsNameToAddr[visitingOperatorName]] */\n      dup2\n      swap1\n      mstore\n      pop\n        /* \"RoamingDataManagement.sol\":6788:6959  {... */\n      pop\n        /* \"RoamingDataManagement.sol\":6783:6786  ++i */\n      dup1\n      tag_221\n      swap1\n      tag_222\n      jump\t// in\n    tag_221:\n      swap1\n      pop\n        /* \"RoamingDataManagement.sol\":6748:6959  for (uint i = 0; i < users.length; ++i) {... */\n      jump(tag_189)\n    tag_190:\n      pop\n        /* \"RoamingDataManagement.sol\":6977:6986  userTable */\n      0x06\n        /* \"RoamingDataManagement.sol\":6977:7004  userTable[homeOperatorAddr] */\n      0x00\n        /* \"RoamingDataManagement.sol\":6987:7003  homeOperatorAddr */\n      dup5\n        /* \"RoamingDataManagement.sol\":6977:7004  userTable[homeOperatorAddr] */\n      0xffffffffffffffffffffffffffffffffffffffff\n      and\n      0xffffffffffffffffffffffffffffffffffffffff\n      and\n      dup2\n      mstore\n      0x20\n      add\n      swap1\n      dup2\n      mstore\n      0x20\n      add\n      0x00\n      keccak256\n        /* \"RoamingDataManagement.sol\":7006:7020  dataSummarries */\n      dup2\n        /* \"RoamingDataManagement.sol\":6969:7021  return (userTable[homeOperatorAddr], dataSummarries) */\n      dup2\n      dup1\n      sload\n      dup1\n      0x20\n      mul\n      0x20\n      add\n      mload(0x40)\n      swap1\n      dup2\n      add\n      0x40\n      mstore\n      dup1\n      swap3\n      swap2\n      swap1\n      dup2\n      dup2\n      mstore\n      0x20\n      add\n      0x00\n      swap1\n    tag_223:\n      dup3\n      dup3\n      lt\n      iszero\n      tag_224\n      jumpi\n      dup4\n      dup3\n      swap1\n      0x00\n      mstore\n      keccak256(0x00, 0x20)\n      add\n      dup1\n      sload\n      tag_226\n      swap1\n      tag_121\n      jump\t// in\n    tag_226:\n      dup1\n      0x1f\n      add\n      0x20\n      dup1\n      swap2\n      div\n      mul\n      0x20\n      add\n      mload(0x40)\n      swap1\n      dup2\n      add\n      0x40\n      mstore\n      dup1\n      swap3\n      swap2\n      swap1\n      dup2\n      dup2\n      mstore\n      0x20\n      add\n      dup3\n      dup1\n      sload\n      tag_227\n      swap1\n      tag_121\n      jump\t// in\n    tag_227:\n      dup1\n      iszero\n      tag_228\n      jumpi\n      dup1\n      0x1f\n      lt\n      tag_229\n      jumpi\n      0x0100\n      dup1\n      dup4\n      sload\n      div\n      mul\n      dup4\n      mstore\n      swap2\n      0x20\n      add\n      swap2\n      jump(tag_228)\n    tag_229:\n      dup3\n      add\n      swap2\n      swap1\n      0x00\n      mstore\n      keccak256(0x00, 0x20)\n      swap1\n    tag_230:\n      dup2\n      sload\n      dup2\n      mstore\n      swap1\n      0x01\n      add\n      swap1\n      0x20\n      add\n      dup1\n      dup4\n      gt\n      tag_230\n      jumpi\n      dup3\n      swap1\n      sub\n      0x1f\n      and\n      dup3\n      add\n      swap2\n    tag_228:\n      pop\n      pop\n      pop\n      pop\n      pop\n      dup2\n      mstore\n      0x20\n      add\n      swap1\n      0x01\n      add\n      swap1\n      jump(tag_223)\n    tag_224:\n      pop\n      pop\n      pop\n      pop\n      swap2\n      pop\n      swap5\n      pop\n      swap5\n      pop\n      pop\n      pop\n      pop\n        /* \"RoamingDataManagement.sol\":6390:7028  function fetchUserDataSummary(string memory visitingOperatorName) public view returns(string[] memory, UserDataSummary[] memory) {... */\n      swap2\n      pop\n      swap2\n      jump\t// out\n        /* \"RoamingDataManagement.sol\":7229:7403  function transfer(address payable _to, uint _amount) public {... */\n    tag_86:\n        /* \"RoamingDataManagement.sol\":7300:7312  bool success */\n      0x00\n        /* \"RoamingDataManagement.sol\":7318:7321  _to */\n      dup3\n        /* \"RoamingDataManagement.sol\":7318:7326  _to.call */\n      0xffffffffffffffffffffffffffffffffffffffff\n      and\n        /* \"RoamingDataManagement.sol\":7334:7341  _amount */\n      dup3\n        /* \"RoamingDataManagement.sol\":7318:7346  _to.call{value: _amount}(\"\") */\n      mload(0x40)\n      tag_232\n      swap1\n      tag_233\n      jump\t// in\n    tag_232:\n      0x00\n      mload(0x40)\n      dup1\n      dup4\n      sub\n      dup2\n      dup6\n      dup8\n      gas\n      call\n      swap3\n      pop\n      pop\n      pop\n      returndatasize\n      dup1\n      0x00\n      dup2\n      eq\n      tag_236\n      jumpi\n      mload(0x40)\n      swap2\n      pop\n      and(add(returndatasize, 0x3f), not(0x1f))\n      dup3\n      add\n      0x40\n      mstore\n      returndatasize\n      dup3\n      mstore\n      returndatasize\n      0x00\n      0x20\n      dup5\n      add\n      returndatacopy\n      jump(tag_235)\n    tag_236:\n      0x60\n      swap2\n      pop\n    tag_235:\n      pop\n        /* \"RoamingDataManagement.sol\":7299:7346  (bool success, ) = _to.call{value: _amount}(\"\") */\n      pop\n      swap1\n      pop\n        /* \"RoamingDataManagement.sol\":7364:7371  success */\n      dup1\n        /* \"RoamingDataManagement.sol\":7356:7396  require(success, \"Failed to send Ether\") */\n      tag_237\n      jumpi\n      mload(0x40)\n      0x08c379a000000000000000000000000000000000000000000000000000000000\n      dup2\n      mstore\n      0x04\n      add\n      tag_238\n      swap1\n      tag_239\n      jump\t// in\n    tag_238:\n      mload(0x40)\n      dup1\n      swap2\n      sub\n      swap1\n      revert\n    tag_237:\n        /* \"RoamingDataManagement.sol\":7289:7403  {... */\n      pop\n        /* \"RoamingDataManagement.sol\":7229:7403  function transfer(address payable _to, uint _amount) public {... */\n      pop\n      pop\n      jump\t// out\n        /* \"RoamingDataManagement.sol\":6063:6257  function dataSummaryExists(string memory imsi, string memory homeOperator) public view returns(bool) {... */\n    tag_91:\n        /* \"RoamingDataManagement.sol\":6158:6162  bool */\n      0x00\n        /* \"RoamingDataManagement.sol\":6248:6249  0 */\n      dup1\n        /* \"RoamingDataManagement.sol\":6183:6203  numOfUserDataEntries */\n      0x08\n        /* \"RoamingDataManagement.sol\":6183:6238  numOfUserDataEntries[operatorsNameToAddr[homeOperator]] */\n      0x00\n        /* \"RoamingDataManagement.sol\":6204:6223  operatorsNameToAddr */\n      0x03\n        /* \"RoamingDataManagement.sol\":6224:6236  homeOperator */\n      dup6\n        /* \"RoamingDataManagement.sol\":6204:6237  operatorsNameToAddr[homeOperator] */\n      mload(0x40)\n      tag_241\n      swap2\n      swap1\n      tag_202\n      jump\t// in\n    tag_241:\n      swap1\n      dup2\n      mstore\n      0x20\n      add\n      mload(0x40)\n      dup1\n      swap2\n      sub\n      swap1\n      keccak256\n      0x00\n      swap1\n      sload\n      swap1\n      0x0100\n      exp\n      swap1\n      div\n      0xffffffffffffffffffffffffffffffffffffffff\n      and\n        /* \"RoamingDataManagement.sol\":6183:6238  numOfUserDataEntries[operatorsNameToAddr[homeOperator]] */\n      0xffffffffffffffffffffffffffffffffffffffff\n      and\n      0xffffffffffffffffffffffffffffffffffffffff\n      and\n      dup2\n      mstore\n      0x20\n      add\n      swap1\n      dup2\n      mstore\n      0x20\n      add\n      0x00\n      keccak256\n        /* \"RoamingDataManagement.sol\":6239:6243  imsi */\n      dup5\n        /* \"RoamingDataManagement.sol\":6183:6244  numOfUserDataEntries[operatorsNameToAddr[homeOperator]][imsi] */\n      mload(0x40)\n      tag_242\n      swap2\n      swap1\n      tag_202\n      jump\t// in\n    tag_242:\n      swap1\n      dup2\n      mstore\n      0x20\n      add\n      mload(0x40)\n      dup1\n      swap2\n      sub\n      swap1\n      keccak256\n      sload\n        /* \"RoamingDataManagement.sol\":6183:6249  numOfUserDataEntries[operatorsNameToAddr[homeOperator]][imsi] == 0 */\n      eq\n        /* \"RoamingDataManagement.sol\":6181:6250  !(numOfUserDataEntries[operatorsNameToAddr[homeOperator]][imsi] == 0) */\n      iszero\n        /* \"RoamingDataManagement.sol\":6174:6250  return !(numOfUserDataEntries[operatorsNameToAddr[homeOperator]][imsi] == 0) */\n      swap1\n      pop\n        /* \"RoamingDataManagement.sol\":6063:6257  function dataSummaryExists(string memory imsi, string memory homeOperator) public view returns(bool) {... */\n      swap3\n      swap2\n      pop\n      pop\n      jump\t// out\n        /* \"RoamingDataManagement.sol\":3389:6057  function uploadUserDataSummary(string memory imsi, string memory number, string memory serviceProvider, ... */\n    tag_98:\n        /* \"RoamingDataManagement.sol\":3714:3738  address visitingOperator */\n      0x00\n        /* \"RoamingDataManagement.sol\":3741:3751  msg.sender */\n      caller\n        /* \"RoamingDataManagement.sol\":3714:3751  address visitingOperator = msg.sender */\n      swap1\n      pop\n        /* \"RoamingDataManagement.sol\":3824:3825  0 */\n      0x00\n        /* \"RoamingDataManagement.sol\":3775:3794  operatorsAddrToName */\n      0x02\n        /* \"RoamingDataManagement.sol\":3775:3812  operatorsAddrToName[visitingOperator] */\n      0x00\n        /* \"RoamingDataManagement.sol\":3795:3811  visitingOperator */\n      dup4\n        /* \"RoamingDataManagement.sol\":3775:3812  operatorsAddrToName[visitingOperator] */\n      0xffffffffffffffffffffffffffffffffffffffff\n      and\n      0xffffffffffffffffffffffffffffffffffffffff\n      and\n      dup2\n      mstore\n      0x20\n      add\n      swap1\n      dup2\n      mstore\n      0x20\n      add\n      0x00\n      keccak256\n        /* \"RoamingDataManagement.sol\":3769:3820  bytes(operatorsAddrToName[visitingOperator]).length */\n      dup1\n      sload\n      tag_244\n      swap1\n      tag_121\n      jump\t// in\n    tag_244:\n      swap1\n      pop\n        /* \"RoamingDataManagement.sol\":3769:3825  bytes(operatorsAddrToName[visitingOperator]).length != 0 */\n      sub\n        /* \"RoamingDataManagement.sol\":3761:3826  require(bytes(operatorsAddrToName[visitingOperator]).length != 0) */\n      tag_245\n      jumpi\n      0x00\n      dup1\n      revert\n    tag_245:\n        /* \"RoamingDataManagement.sol\":3892:3895  0x0 */\n      0x00\n        /* \"RoamingDataManagement.sol\":3844:3896  operatorsNameToAddr[serviceProvider] != address(0x0) */\n      0xffffffffffffffffffffffffffffffffffffffff\n      and\n        /* \"RoamingDataManagement.sol\":3844:3863  operatorsNameToAddr */\n      0x03\n        /* \"RoamingDataManagement.sol\":3864:3879  serviceProvider */\n      dup12\n        /* \"RoamingDataManagement.sol\":3844:3880  operatorsNameToAddr[serviceProvider] */\n      mload(0x40)\n      tag_246\n      swap2\n      swap1\n      tag_202\n      jump\t// in\n    tag_246:\n      swap1\n      dup2\n      mstore\n      0x20\n      add\n      mload(0x40)\n      dup1\n      swap2\n      sub\n      swap1\n      keccak256\n      0x00\n      swap1\n      sload\n      swap1\n      0x0100\n      exp\n      swap1\n      div\n      0xffffffffffffffffffffffffffffffffffffffff\n      and\n        /* \"RoamingDataManagement.sol\":3844:3896  operatorsNameToAddr[serviceProvider] != address(0x0) */\n      0xffffffffffffffffffffffffffffffffffffffff\n      and\n      sub\n        /* \"RoamingDataManagement.sol\":3836:3897  require(operatorsNameToAddr[serviceProvider] != address(0x0)) */\n      tag_247\n      jumpi\n      0x00\n      dup1\n      revert\n    tag_247:\n        /* \"RoamingDataManagement.sol\":3961:3966  1 wei */\n      0x01\n        /* \"RoamingDataManagement.sol\":3915:3919  bank */\n      0x09\n        /* \"RoamingDataManagement.sol\":3915:3957  bank[operatorsNameToAddr[serviceProvider]] */\n      0x00\n        /* \"RoamingDataManagement.sol\":3920:3939  operatorsNameToAddr */\n      0x03\n        /* \"RoamingDataManagement.sol\":3940:3955  serviceProvider */\n      dup14\n        /* \"RoamingDataManagement.sol\":3920:3956  operatorsNameToAddr[serviceProvider] */\n      mload(0x40)\n      tag_248\n      swap2\n      swap1\n      tag_202\n      jump\t// in\n    tag_248:\n      swap1\n      dup2\n      mstore\n      0x20\n      add\n      mload(0x40)\n      dup1\n      swap2\n      sub\n      swap1\n      keccak256\n      0x00\n      swap1\n      sload\n      swap1\n      0x0100\n      exp\n      swap1\n      div\n      0xffffffffffffffffffffffffffffffffffffffff\n      and\n        /* \"RoamingDataManagement.sol\":3915:3957  bank[operatorsNameToAddr[serviceProvider]] */\n      0xffffffffffffffffffffffffffffffffffffffff\n      and\n      0xffffffffffffffffffffffffffffffffffffffff\n      and\n      dup2\n      mstore\n      0x20\n      add\n      swap1\n      dup2\n      mstore\n      0x20\n      add\n      0x00\n      keccak256\n      sload\n        /* \"RoamingDataManagement.sol\":3915:3966  bank[operatorsNameToAddr[serviceProvider]] >= 1 wei */\n      lt\n      iszero\n        /* \"RoamingDataManagement.sol\":3907:3967  require(bank[operatorsNameToAddr[serviceProvider]] >= 1 wei) */\n      tag_249\n      jumpi\n      0x00\n      dup1\n      revert\n    tag_249:\n        /* \"RoamingDataManagement.sol\":3978:4059  mapping(string => mapping(address => UserDataSummary)) storage userToSummaryTable */\n      0x00\n        /* \"RoamingDataManagement.sol\":4062:4078  dataSummaryTable */\n      0x07\n        /* \"RoamingDataManagement.sol\":4062:4116  dataSummaryTable[operatorsNameToAddr[serviceProvider]] */\n      0x00\n        /* \"RoamingDataManagement.sol\":4079:4098  operatorsNameToAddr */\n      0x03\n        /* \"RoamingDataManagement.sol\":4099:4114  serviceProvider */\n      dup14\n        /* \"RoamingDataManagement.sol\":4079:4115  operatorsNameToAddr[serviceProvider] */\n      mload(0x40)\n      tag_250\n      swap2\n      swap1\n      tag_202\n      jump\t// in\n    tag_250:\n      swap1\n      dup2\n      mstore\n      0x20\n      add\n      mload(0x40)\n      dup1\n      swap2\n      sub\n      swap1\n      keccak256\n      0x00\n      swap1\n      sload\n      swap1\n      0x0100\n      exp\n      swap1\n      div\n      0xffffffffffffffffffffffffffffffffffffffff\n      and\n        /* \"RoamingDataManagement.sol\":4062:4116  dataSummaryTable[operatorsNameToAddr[serviceProvider]] */\n      0xffffffffffffffffffffffffffffffffffffffff\n      and\n      0xffffffffffffffffffffffffffffffffffffffff\n      and\n      dup2\n      mstore\n      0x20\n      add\n      swap1\n      dup2\n      mstore\n      0x20\n      add\n      0x00\n      keccak256\n        /* \"RoamingDataManagement.sol\":3978:4116  mapping(string => mapping(address => UserDataSummary)) storage userToSummaryTable = dataSummaryTable[operatorsNameToAddr[serviceProvider]] */\n      swap1\n      pop\n        /* \"RoamingDataManagement.sol\":4131:4171  dataSummaryExists(imsi, serviceProvider) */\n      tag_251\n        /* \"RoamingDataManagement.sol\":4149:4153  imsi */\n      dup14\n        /* \"RoamingDataManagement.sol\":4155:4170  serviceProvider */\n      dup13\n        /* \"RoamingDataManagement.sol\":4131:4148  dataSummaryExists */\n      tag_91\n        /* \"RoamingDataManagement.sol\":4131:4171  dataSummaryExists(imsi, serviceProvider) */\n      jump\t// in\n    tag_251:\n        /* \"RoamingDataManagement.sol\":4126:4336  if (!dataSummaryExists(imsi, serviceProvider)) {... */\n      tag_252\n      jumpi\n        /* \"RoamingDataManagement.sol\":4187:4196  userTable */\n      0x06\n        /* \"RoamingDataManagement.sol\":4187:4234  userTable[operatorsNameToAddr[serviceProvider]] */\n      0x00\n        /* \"RoamingDataManagement.sol\":4197:4216  operatorsNameToAddr */\n      0x03\n        /* \"RoamingDataManagement.sol\":4217:4232  serviceProvider */\n      dup14\n        /* \"RoamingDataManagement.sol\":4197:4233  operatorsNameToAddr[serviceProvider] */\n      mload(0x40)\n      tag_253\n      swap2\n      swap1\n      tag_202\n      jump\t// in\n    tag_253:\n      swap1\n      dup2\n      mstore\n      0x20\n      add\n      mload(0x40)\n      dup1\n      swap2\n      sub\n      swap1\n      keccak256\n      0x00\n      swap1\n      sload\n      swap1\n      0x0100\n      exp\n      swap1\n      div\n      0xffffffffffffffffffffffffffffffffffffffff\n      and\n        /* \"RoamingDataManagement.sol\":4187:4234  userTable[operatorsNameToAddr[serviceProvider]] */\n      0xffffffffffffffffffffffffffffffffffffffff\n      and\n      0xffffffffffffffffffffffffffffffffffffffff\n      and\n      dup2\n      mstore\n      0x20\n      add\n      swap1\n      dup2\n      mstore\n      0x20\n      add\n      0x00\n      keccak256\n        /* \"RoamingDataManagement.sol\":4240:4244  imsi */\n      dup14\n        /* \"RoamingDataManagement.sol\":4187:4245  userTable[operatorsNameToAddr[serviceProvider]].push(imsi) */\n      swap1\n      dup1\n      0x01\n      dup2\n      sload\n      add\n      dup1\n      dup3\n      sstore\n      dup1\n      swap2\n      pop\n      pop\n      0x01\n      swap1\n      sub\n      swap1\n      0x00\n      mstore\n      keccak256(0x00, 0x20)\n      add\n      0x00\n      swap1\n      swap2\n      swap1\n      swap2\n      swap1\n      swap2\n      pop\n      swap1\n      dup2\n      tag_255\n      swap2\n      swap1\n      tag_256\n      jump\t// in\n    tag_255:\n      pop\n        /* \"RoamingDataManagement.sol\":4259:4279  numOfUserDataEntries */\n      0x08\n        /* \"RoamingDataManagement.sol\":4259:4317  numOfUserDataEntries[operatorsNameToAddr[serviceProvider]] */\n      0x00\n        /* \"RoamingDataManagement.sol\":4280:4299  operatorsNameToAddr */\n      0x03\n        /* \"RoamingDataManagement.sol\":4300:4315  serviceProvider */\n      dup14\n        /* \"RoamingDataManagement.sol\":4280:4316  operatorsNameToAddr[serviceProvider] */\n      mload(0x40)\n      tag_257\n      swap2\n      swap1\n      tag_202\n      jump\t// in\n    tag_257:\n      swap1\n      dup2\n      mstore\n      0x20\n      add\n      mload(0x40)\n      dup1\n      swap2\n      sub\n      swap1\n      keccak256\n      0x00\n      swap1\n      sload\n      swap1\n      0x0100\n      exp\n      swap1\n      div\n      0xffffffffffffffffffffffffffffffffffffffff\n      and\n        /* \"RoamingDataManagement.sol\":4259:4317  numOfUserDataEntries[operatorsNameToAddr[serviceProvider]] */\n      0xffffffffffffffffffffffffffffffffffffffff\n      and\n      0xffffffffffffffffffffffffffffffffffffffff\n      and\n      dup2\n      mstore\n      0x20\n      add\n      swap1\n      dup2\n      mstore\n      0x20\n      add\n      0x00\n      keccak256\n        /* \"RoamingDataManagement.sol\":4318:4322  imsi */\n      dup14\n        /* \"RoamingDataManagement.sol\":4259:4323  numOfUserDataEntries[operatorsNameToAddr[serviceProvider]][imsi] */\n      mload(0x40)\n      tag_258\n      swap2\n      swap1\n      tag_202\n      jump\t// in\n    tag_258:\n      swap1\n      dup2\n      mstore\n      0x20\n      add\n      mload(0x40)\n      dup1\n      swap2\n      sub\n      swap1\n      keccak256\n      0x00\n        /* \"RoamingDataManagement.sol\":4259:4325  numOfUserDataEntries[operatorsNameToAddr[serviceProvider]][imsi]++ */\n      dup2\n      sload\n      dup1\n      swap3\n      swap2\n      swap1\n      tag_259\n      swap1\n      tag_222\n      jump\t// in\n    tag_259:\n      swap2\n      swap1\n      pop\n      sstore\n      pop\n        /* \"RoamingDataManagement.sol\":4126:4336  if (!dataSummaryExists(imsi, serviceProvider)) {... */\n    tag_252:\n        /* \"RoamingDataManagement.sol\":4354:4434  mapping(address => UserDataSummary) storage usageSummaryTablePerVisitingOperator */\n      0x00\n        /* \"RoamingDataManagement.sol\":4437:4455  userToSummaryTable */\n      dup2\n        /* \"RoamingDataManagement.sol\":4456:4460  imsi */\n      dup15\n        /* \"RoamingDataManagement.sol\":4437:4461  userToSummaryTable[imsi] */\n      mload(0x40)\n      tag_260\n      swap2\n      swap1\n      tag_202\n      jump\t// in\n    tag_260:\n      swap1\n      dup2\n      mstore\n      0x20\n      add\n      mload(0x40)\n      dup1\n      swap2\n      sub\n      swap1\n      keccak256\n        /* \"RoamingDataManagement.sol\":4354:4461  mapping(address => UserDataSummary) storage usageSummaryTablePerVisitingOperator = userToSummaryTable[imsi] */\n      swap1\n      pop\n        /* \"RoamingDataManagement.sol\":4533:4537  imsi */\n      dup14\n        /* \"RoamingDataManagement.sol\":4471:4507  usageSummaryTablePerVisitingOperator */\n      dup2\n        /* \"RoamingDataManagement.sol\":4471:4525  usageSummaryTablePerVisitingOperator[visitingOperator] */\n      0x00\n        /* \"RoamingDataManagement.sol\":4508:4524  visitingOperator */\n      dup6\n        /* \"RoamingDataManagement.sol\":4471:4525  usageSummaryTablePerVisitingOperator[visitingOperator] */\n      0xffffffffffffffffffffffffffffffffffffffff\n      and\n      0xffffffffffffffffffffffffffffffffffffffff\n      and\n      dup2\n      mstore\n      0x20\n      add\n      swap1\n      dup2\n      mstore\n      0x20\n      add\n      0x00\n      keccak256\n        /* \"RoamingDataManagement.sol\":4471:4530  usageSummaryTablePerVisitingOperator[visitingOperator].imsi */\n      0x00\n      add\n        /* \"RoamingDataManagement.sol\":4471:4537  usageSummaryTablePerVisitingOperator[visitingOperator].imsi = imsi */\n      swap1\n      dup2\n      tag_261\n      swap2\n      swap1\n      tag_256\n      jump\t// in\n    tag_261:\n      pop\n        /* \"RoamingDataManagement.sol\":4611:4617  number */\n      dup13\n        /* \"RoamingDataManagement.sol\":4547:4583  usageSummaryTablePerVisitingOperator */\n      dup2\n        /* \"RoamingDataManagement.sol\":4547:4601  usageSummaryTablePerVisitingOperator[visitingOperator] */\n      0x00\n        /* \"RoamingDataManagement.sol\":4584:4600  visitingOperator */\n      dup6\n        /* \"RoamingDataManagement.sol\":4547:4601  usageSummaryTablePerVisitingOperator[visitingOperator] */\n      0xffffffffffffffffffffffffffffffffffffffff\n      and\n      0xffffffffffffffffffffffffffffffffffffffff\n      and\n      dup2\n      mstore\n      0x20\n      add\n      swap1\n      dup2\n      mstore\n      0x20\n      add\n      0x00\n      keccak256\n        /* \"RoamingDataManagement.sol\":4547:4608  usageSummaryTablePerVisitingOperator[visitingOperator].number */\n      0x01\n      add\n        /* \"RoamingDataManagement.sol\":4547:4617  usageSummaryTablePerVisitingOperator[visitingOperator].number = number */\n      swap1\n      dup2\n      tag_262\n      swap2\n      swap1\n      tag_256\n      jump\t// in\n    tag_262:\n      pop\n        /* \"RoamingDataManagement.sol\":4700:4715  serviceProvider */\n      dup12\n        /* \"RoamingDataManagement.sol\":4627:4663  usageSummaryTablePerVisitingOperator */\n      dup2\n        /* \"RoamingDataManagement.sol\":4627:4681  usageSummaryTablePerVisitingOperator[visitingOperator] */\n      0x00\n        /* \"RoamingDataManagement.sol\":4664:4680  visitingOperator */\n      dup6\n        /* \"RoamingDataManagement.sol\":4627:4681  usageSummaryTablePerVisitingOperator[visitingOperator] */\n      0xffffffffffffffffffffffffffffffffffffffff\n      and\n      0xffffffffffffffffffffffffffffffffffffffff\n      and\n      dup2\n      mstore\n      0x20\n      add\n      swap1\n      dup2\n      mstore\n      0x20\n      add\n      0x00\n      keccak256\n        /* \"RoamingDataManagement.sol\":4627:4697  usageSummaryTablePerVisitingOperator[visitingOperator].serviceProvider */\n      0x02\n      add\n        /* \"RoamingDataManagement.sol\":4627:4715  usageSummaryTablePerVisitingOperator[visitingOperator].serviceProvider = serviceProvider */\n      swap1\n      dup2\n      tag_263\n      swap2\n      swap1\n      tag_256\n      jump\t// in\n    tag_263:\n      pop\n        /* \"RoamingDataManagement.sol\":4797:4811  voiceCallUsage */\n      dup11\n        /* \"RoamingDataManagement.sol\":4725:4761  usageSummaryTablePerVisitingOperator */\n      dup2\n        /* \"RoamingDataManagement.sol\":4725:4779  usageSummaryTablePerVisitingOperator[visitingOperator] */\n      0x00\n        /* \"RoamingDataManagement.sol\":4762:4778  visitingOperator */\n      dup6\n        /* \"RoamingDataManagement.sol\":4725:4779  usageSummaryTablePerVisitingOperator[visitingOperator] */\n      0xffffffffffffffffffffffffffffffffffffffff\n      and\n      0xffffffffffffffffffffffffffffffffffffffff\n      and\n      dup2\n      mstore\n      0x20\n      add\n      swap1\n      dup2\n      mstore\n      0x20\n      add\n      0x00\n      keccak256\n        /* \"RoamingDataManagement.sol\":4725:4794  usageSummaryTablePerVisitingOperator[visitingOperator].voiceCallUsage */\n      0x07\n      add\n        /* \"RoamingDataManagement.sol\":4725:4811  usageSummaryTablePerVisitingOperator[visitingOperator].voiceCallUsage = voiceCallUsage */\n      dup2\n      swap1\n      sstore\n      pop\n        /* \"RoamingDataManagement.sol\":4892:4905  internetUsage */\n      dup10\n        /* \"RoamingDataManagement.sol\":4821:4857  usageSummaryTablePerVisitingOperator */\n      dup2\n        /* \"RoamingDataManagement.sol\":4821:4875  usageSummaryTablePerVisitingOperator[visitingOperator] */\n      0x00\n        /* \"RoamingDataManagement.sol\":4858:4874  visitingOperator */\n      dup6\n        /* \"RoamingDataManagement.sol\":4821:4875  usageSummaryTablePerVisitingOperator[visitingOperator] */\n      0xffffffffffffffffffffffffffffffffffffffff\n      and\n      0xffffffffffffffffffffffffffffffffffffffff\n      and\n      dup2\n      mstore\n      0x20\n      add\n      swap1\n      dup2\n      mstore\n      0x20\n      add\n      0x00\n      keccak256\n        /* \"RoamingDataManagement.sol\":4821:4889  usageSummaryTablePerVisitingOperator[visitingOperator].internetUsage */\n      0x08\n      add\n        /* \"RoamingDataManagement.sol\":4821:4905  usageSummaryTablePerVisitingOperator[visitingOperator].internetUsage = internetUsage */\n      dup2\n      swap1\n      sstore\n      pop\n        /* \"RoamingDataManagement.sol\":4981:4989  smsUsage */\n      dup9\n        /* \"RoamingDataManagement.sol\":4915:4951  usageSummaryTablePerVisitingOperator */\n      dup2\n        /* \"RoamingDataManagement.sol\":4915:4969  usageSummaryTablePerVisitingOperator[visitingOperator] */\n      0x00\n        /* \"RoamingDataManagement.sol\":4952:4968  visitingOperator */\n      dup6\n        /* \"RoamingDataManagement.sol\":4915:4969  usageSummaryTablePerVisitingOperator[visitingOperator] */\n      0xffffffffffffffffffffffffffffffffffffffff\n      and\n      0xffffffffffffffffffffffffffffffffffffffff\n      and\n      dup2\n      mstore\n      0x20\n      add\n      swap1\n      dup2\n      mstore\n      0x20\n      add\n      0x00\n      keccak256\n        /* \"RoamingDataManagement.sol\":4915:4978  usageSummaryTablePerVisitingOperator[visitingOperator].smsUsage */\n      0x09\n      add\n        /* \"RoamingDataManagement.sol\":4915:4989  usageSummaryTablePerVisitingOperator[visitingOperator].smsUsage = smsUsage */\n      dup2\n      swap1\n      sstore\n      pop\n        /* \"RoamingDataManagement.sol\":5074:5090  serviceStartTime */\n      dup8\n        /* \"RoamingDataManagement.sol\":5000:5036  usageSummaryTablePerVisitingOperator */\n      dup2\n        /* \"RoamingDataManagement.sol\":5000:5054  usageSummaryTablePerVisitingOperator[visitingOperator] */\n      0x00\n        /* \"RoamingDataManagement.sol\":5037:5053  visitingOperator */\n      dup6\n        /* \"RoamingDataManagement.sol\":5000:5054  usageSummaryTablePerVisitingOperator[visitingOperator] */\n      0xffffffffffffffffffffffffffffffffffffffff\n      and\n      0xffffffffffffffffffffffffffffffffffffffff\n      and\n      dup2\n      mstore\n      0x20\n      add\n      swap1\n      dup2\n      mstore\n      0x20\n      add\n      0x00\n      keccak256\n        /* \"RoamingDataManagement.sol\":5000:5071  usageSummaryTablePerVisitingOperator[visitingOperator].serviceStartTime */\n      0x03\n      add\n        /* \"RoamingDataManagement.sol\":5000:5090  usageSummaryTablePerVisitingOperator[visitingOperator].serviceStartTime = serviceStartTime */\n      dup2\n      swap1\n      sstore\n      pop\n        /* \"RoamingDataManagement.sol\":5175:5192  internetStartTime */\n      dup7\n        /* \"RoamingDataManagement.sol\":5100:5136  usageSummaryTablePerVisitingOperator */\n      dup2\n        /* \"RoamingDataManagement.sol\":5100:5154  usageSummaryTablePerVisitingOperator[visitingOperator] */\n      0x00\n        /* \"RoamingDataManagement.sol\":5137:5153  visitingOperator */\n      dup6\n        /* \"RoamingDataManagement.sol\":5100:5154  usageSummaryTablePerVisitingOperator[visitingOperator] */\n      0xffffffffffffffffffffffffffffffffffffffff\n      and\n      0xffffffffffffffffffffffffffffffffffffffff\n      and\n      dup2\n      mstore\n      0x20\n      add\n      swap1\n      dup2\n      mstore\n      0x20\n      add\n      0x00\n      keccak256\n        /* \"RoamingDataManagement.sol\":5100:5172  usageSummaryTablePerVisitingOperator[visitingOperator].internetStartTime */\n      0x06\n      add\n        /* \"RoamingDataManagement.sol\":5100:5192  usageSummaryTablePerVisitingOperator[visitingOperator].internetStartTime = internetStartTime */\n      dup2\n      swap1\n      sstore\n      pop\n        /* \"RoamingDataManagement.sol\":5278:5296  voiceCallStartTime */\n      dup6\n        /* \"RoamingDataManagement.sol\":5202:5238  usageSummaryTablePerVisitingOperator */\n      dup2\n        /* \"RoamingDataManagement.sol\":5202:5256  usageSummaryTablePerVisitingOperator[visitingOperator] */\n      0x00\n        /* \"RoamingDataManagement.sol\":5239:5255  visitingOperator */\n      dup6\n        /* \"RoamingDataManagement.sol\":5202:5256  usageSummaryTablePerVisitingOperator[visitingOperator] */\n      0xffffffffffffffffffffffffffffffffffffffff\n      and\n      0xffffffffffffffffffffffffffffffffffffffff\n      and\n      dup2\n      mstore\n      0x20\n      add\n      swap1\n      dup2\n      mstore\n      0x20\n      add\n      0x00\n      keccak256\n        /* \"RoamingDataManagement.sol\":5202:5275  usageSummaryTablePerVisitingOperator[visitingOperator].voiceCallStartTime */\n      0x04\n      add\n        /* \"RoamingDataManagement.sol\":5202:5296  usageSummaryTablePerVisitingOperator[visitingOperator].voiceCallStartTime = voiceCallStartTime */\n      dup2\n      swap1\n      sstore\n      pop\n        /* \"RoamingDataManagement.sol\":5376:5388  smsStartTime */\n      dup5\n        /* \"RoamingDataManagement.sol\":5306:5342  usageSummaryTablePerVisitingOperator */\n      dup2\n        /* \"RoamingDataManagement.sol\":5306:5360  usageSummaryTablePerVisitingOperator[visitingOperator] */\n      0x00\n        /* \"RoamingDataManagement.sol\":5343:5359  visitingOperator */\n      dup6\n        /* \"RoamingDataManagement.sol\":5306:5360  usageSummaryTablePerVisitingOperator[visitingOperator] */\n      0xffffffffffffffffffffffffffffffffffffffff\n      and\n      0xffffffffffffffffffffffffffffffffffffffff\n      and\n      dup2\n      mstore\n      0x20\n      add\n      swap1\n      dup2\n      mstore\n      0x20\n      add\n      0x00\n      keccak256\n        /* \"RoamingDataManagement.sol\":5306:5373  usageSummaryTablePerVisitingOperator[visitingOperator].smsStartTime */\n      0x05\n      add\n        /* \"RoamingDataManagement.sol\":5306:5388  usageSummaryTablePerVisitingOperator[visitingOperator].smsStartTime = smsStartTime */\n      dup2\n      swap1\n      sstore\n      pop\n        /* \"RoamingDataManagement.sol\":5512:5517  1 wei */\n      0x01\n        /* \"RoamingDataManagement.sol\":5466:5470  bank */\n      0x09\n        /* \"RoamingDataManagement.sol\":5466:5508  bank[operatorsNameToAddr[serviceProvider]] */\n      0x00\n        /* \"RoamingDataManagement.sol\":5471:5490  operatorsNameToAddr */\n      0x03\n        /* \"RoamingDataManagement.sol\":5491:5506  serviceProvider */\n      dup16\n        /* \"RoamingDataManagement.sol\":5471:5507  operatorsNameToAddr[serviceProvider] */\n      mload(0x40)\n      tag_264\n      swap2\n      swap1\n      tag_202\n      jump\t// in\n    tag_264:\n      swap1\n      dup2\n      mstore\n      0x20\n      add\n      mload(0x40)\n      dup1\n      swap2\n      sub\n      swap1\n      keccak256\n      0x00\n      swap1\n      sload\n      swap1\n      0x0100\n      exp\n      swap1\n      div\n      0xffffffffffffffffffffffffffffffffffffffff\n      and\n        /* \"RoamingDataManagement.sol\":5466:5508  bank[operatorsNameToAddr[serviceProvider]] */\n      0xffffffffffffffffffffffffffffffffffffffff\n      and\n      0xffffffffffffffffffffffffffffffffffffffff\n      and\n      dup2\n      mstore\n      0x20\n      add\n      swap1\n      dup2\n      mstore\n      0x20\n      add\n      0x00\n      keccak256\n      0x00\n        /* \"RoamingDataManagement.sol\":5466:5517  bank[operatorsNameToAddr[serviceProvider]] -= 1 wei */\n      dup3\n      dup3\n      sload\n      tag_265\n      swap2\n      swap1\n      tag_266\n      jump\t// in\n    tag_265:\n      swap3\n      pop\n      pop\n      dup2\n      swap1\n      sstore\n      pop\n        /* \"RoamingDataManagement.sol\":5553:5558  1 wei */\n      0x01\n        /* \"RoamingDataManagement.sol\":5527:5531  bank */\n      0x09\n        /* \"RoamingDataManagement.sol\":5527:5549  bank[visitingOperator] */\n      0x00\n        /* \"RoamingDataManagement.sol\":5532:5548  visitingOperator */\n      dup6\n        /* \"RoamingDataManagement.sol\":5527:5549  bank[visitingOperator] */\n      0xffffffffffffffffffffffffffffffffffffffff\n      and\n      0xffffffffffffffffffffffffffffffffffffffff\n      and\n      dup2\n      mstore\n      0x20\n      add\n      swap1\n      dup2\n      mstore\n      0x20\n      add\n      0x00\n      keccak256\n      0x00\n        /* \"RoamingDataManagement.sol\":5527:5558  bank[visitingOperator] += 1 wei */\n      dup3\n      dup3\n      sload\n      tag_267\n      swap2\n      swap1\n      tag_268\n      jump\t// in\n    tag_267:\n      swap3\n      pop\n      pop\n      dup2\n      swap1\n      sstore\n      pop\n        /* \"RoamingDataManagement.sol\":5568:5610  transfer(payable(visitingOperator), 1 wei) */\n      tag_269\n        /* \"RoamingDataManagement.sol\":5585:5601  visitingOperator */\n      dup4\n        /* \"RoamingDataManagement.sol\":5604:5609  1 wei */\n      0x01\n        /* \"RoamingDataManagement.sol\":5568:5576  transfer */\n      tag_86\n        /* \"RoamingDataManagement.sol\":5568:5610  transfer(payable(visitingOperator), 1 wei) */\n      jump\t// in\n    tag_269:\n        /* \"RoamingDataManagement.sol\":5621:5644  BillingRecord memory br */\n      0x00\n        /* \"RoamingDataManagement.sol\":5647:5960  BillingRecord({... */\n      mload(0x40)\n      dup1\n      0xc0\n      add\n      0x40\n      mstore\n      dup1\n        /* \"RoamingDataManagement.sol\":5686:5705  operatorsNameToAddr */\n      0x03\n        /* \"RoamingDataManagement.sol\":5706:5721  serviceProvider */\n      dup16\n        /* \"RoamingDataManagement.sol\":5686:5722  operatorsNameToAddr[serviceProvider] */\n      mload(0x40)\n      tag_270\n      swap2\n      swap1\n      tag_202\n      jump\t// in\n    tag_270:\n      swap1\n      dup2\n      mstore\n      0x20\n      add\n      mload(0x40)\n      dup1\n      swap2\n      sub\n      swap1\n      keccak256\n      0x00\n      swap1\n      sload\n      swap1\n      0x0100\n      exp\n      swap1\n      div\n      0xffffffffffffffffffffffffffffffffffffffff\n      and\n        /* \"RoamingDataManagement.sol\":5647:5960  BillingRecord({... */\n      0xffffffffffffffffffffffffffffffffffffffff\n      and\n      dup2\n      mstore\n      0x20\n      add\n        /* \"RoamingDataManagement.sol\":5747:5763  visitingOperator */\n      dup6\n        /* \"RoamingDataManagement.sol\":5647:5960  BillingRecord({... */\n      0xffffffffffffffffffffffffffffffffffffffff\n      and\n      dup2\n      mstore\n      0x20\n      add\n        /* \"RoamingDataManagement.sol\":5792:5807  serviceProvider */\n      dup15\n        /* \"RoamingDataManagement.sol\":5647:5960  BillingRecord({... */\n      dup2\n      mstore\n      0x20\n      add\n        /* \"RoamingDataManagement.sol\":5836:5855  operatorsAddrToName */\n      0x02\n        /* \"RoamingDataManagement.sol\":5836:5873  operatorsAddrToName[visitingOperator] */\n      0x00\n        /* \"RoamingDataManagement.sol\":5856:5872  visitingOperator */\n      dup8\n        /* \"RoamingDataManagement.sol\":5836:5873  operatorsAddrToName[visitingOperator] */\n      0xffffffffffffffffffffffffffffffffffffffff\n      and\n      0xffffffffffffffffffffffffffffffffffffffff\n      and\n      dup2\n      mstore\n      0x20\n      add\n      swap1\n      dup2\n      mstore\n      0x20\n      add\n      0x00\n      keccak256\n        /* \"RoamingDataManagement.sol\":5647:5960  BillingRecord({... */\n      dup1\n      sload\n      tag_271\n      swap1\n      tag_121\n      jump\t// in\n    tag_271:\n      dup1\n      0x1f\n      add\n      0x20\n      dup1\n      swap2\n      div\n      mul\n      0x20\n      add\n      mload(0x40)\n      swap1\n      dup2\n      add\n      0x40\n      mstore\n      dup1\n      swap3\n      swap2\n      swap1\n      dup2\n      dup2\n      mstore\n      0x20\n      add\n      dup3\n      dup1\n      sload\n      tag_272\n      swap1\n      tag_121\n      jump\t// in\n    tag_272:\n      dup1\n      iszero\n      tag_273\n      jumpi\n      dup1\n      0x1f\n      lt\n      tag_274\n      jumpi\n      0x0100\n      dup1\n      dup4\n      sload\n      div\n      mul\n      dup4\n      mstore\n      swap2\n      0x20\n      add\n      swap2\n      jump(tag_273)\n    tag_274:\n      dup3\n      add\n      swap2\n      swap1\n      0x00\n      mstore\n      keccak256(0x00, 0x20)\n      swap1\n    tag_275:\n      dup2\n      sload\n      dup2\n      mstore\n      swap1\n      0x01\n      add\n      swap1\n      0x20\n      add\n      dup1\n      dup4\n      gt\n      tag_275\n      jumpi\n      dup3\n      swap1\n      sub\n      0x1f\n      and\n      dup3\n      add\n      swap2\n    tag_273:\n      pop\n      pop\n      pop\n      pop\n      pop\n      dup2\n      mstore\n      0x20\n      add\n        /* \"RoamingDataManagement.sol\":5899:5904  1 wei */\n      0x01\n        /* \"RoamingDataManagement.sol\":5647:5960  BillingRecord({... */\n      dup2\n      mstore\n      0x20\n      add\n        /* \"RoamingDataManagement.sol\":5933:5949  currentTimestamp */\n      dup7\n        /* \"RoamingDataManagement.sol\":5647:5960  BillingRecord({... */\n      dup2\n      mstore\n      pop\n        /* \"RoamingDataManagement.sol\":5621:5960  BillingRecord memory br = BillingRecord({... */\n      swap1\n      pop\n        /* \"RoamingDataManagement.sol\":5971:5985  billingHistory */\n      0x05\n        /* \"RoamingDataManagement.sol\":5991:5993  br */\n      dup2\n        /* \"RoamingDataManagement.sol\":5971:5994  billingHistory.push(br) */\n      swap1\n      dup1\n      0x01\n      dup2\n      sload\n      add\n      dup1\n      dup3\n      sstore\n      dup1\n      swap2\n      pop\n      pop\n      0x01\n      swap1\n      sub\n      swap1\n      0x00\n      mstore\n      keccak256(0x00, 0x20)\n      swap1\n      0x06\n      mul\n      add\n      0x00\n      swap1\n      swap2\n      swap1\n      swap2\n      swap1\n      swap2\n      pop\n      0x00\n      dup3\n      add\n      mload\n      dup2\n      0x00\n      add\n      exp(0x0100, 0x00)\n      dup2\n      sload\n      dup2\n      0xffffffffffffffffffffffffffffffffffffffff\n      mul\n      not\n      and\n      swap1\n      dup4\n      0xffffffffffffffffffffffffffffffffffffffff\n      and\n      mul\n      or\n      swap1\n      sstore\n      pop\n      0x20\n      dup3\n      add\n      mload\n      dup2\n      0x01\n      add\n      exp(0x0100, 0x00)\n      dup2\n      sload\n      dup2\n      0xffffffffffffffffffffffffffffffffffffffff\n      mul\n      not\n      and\n      swap1\n      dup4\n      0xffffffffffffffffffffffffffffffffffffffff\n      and\n      mul\n      or\n      swap1\n      sstore\n      pop\n      0x40\n      dup3\n      add\n      mload\n      dup2\n      0x02\n      add\n      swap1\n      dup2\n      tag_277\n      swap2\n      swap1\n      tag_256\n      jump\t// in\n    tag_277:\n      pop\n      0x60\n      dup3\n      add\n      mload\n      dup2\n      0x03\n      add\n      swap1\n      dup2\n      tag_278\n      swap2\n      swap1\n      tag_256\n      jump\t// in\n    tag_278:\n      pop\n      0x80\n      dup3\n      add\n      mload\n      dup2\n      0x04\n      add\n      sstore\n      0xa0\n      dup3\n      add\n      mload\n      dup2\n      0x05\n      add\n      sstore\n      pop\n      pop\n        /* \"RoamingDataManagement.sol\":3703:6057  {... */\n      pop\n      pop\n      pop\n      pop\n        /* \"RoamingDataManagement.sol\":3389:6057  function uploadUserDataSummary(string memory imsi, string memory number, string memory serviceProvider, ... */\n      pop\n      pop\n      pop\n      pop\n      pop\n      pop\n      pop\n      pop\n      pop\n      pop\n      pop\n      jump\t// out\n        /* \"RoamingDataManagement.sol\":2113:2212  function balance() external view returns(uint256)... */\n    tag_101:\n        /* \"RoamingDataManagement.sol\":2154:2161  uint256 */\n      0x00\n        /* \"RoamingDataManagement.sol\":2184:2205  address(this).balance */\n      selfbalance\n        /* \"RoamingDataManagement.sol\":2177:2205  return address(this).balance */\n      swap1\n      pop\n        /* \"RoamingDataManagement.sol\":2113:2212  function balance() external view returns(uint256)... */\n      swap1\n      jump\t// out\n        /* \"RoamingDataManagement.sol\":2218:3383  function registerRoamingOperator(address operatorAddr, string memory operatorName, uint256 currentTimestamp) public payable {... */\n    tag_106:\n        /* \"RoamingDataManagement.sol\":2639:2640  0 */\n      0x00\n        /* \"RoamingDataManagement.sol\":2594:2613  operatorsAddrToName */\n      0x02\n        /* \"RoamingDataManagement.sol\":2594:2627  operatorsAddrToName[operatorAddr] */\n      0x00\n        /* \"RoamingDataManagement.sol\":2614:2626  operatorAddr */\n      dup6\n        /* \"RoamingDataManagement.sol\":2594:2627  operatorsAddrToName[operatorAddr] */\n      0xffffffffffffffffffffffffffffffffffffffff\n      and\n      0xffffffffffffffffffffffffffffffffffffffff\n      and\n      dup2\n      mstore\n      0x20\n      add\n      swap1\n      dup2\n      mstore\n      0x20\n      add\n      0x00\n      keccak256\n        /* \"RoamingDataManagement.sol\":2588:2635  bytes(operatorsAddrToName[operatorAddr]).length */\n      dup1\n      sload\n      tag_281\n      swap1\n      tag_121\n      jump\t// in\n    tag_281:\n      swap1\n      pop\n        /* \"RoamingDataManagement.sol\":2588:2640  bytes(operatorsAddrToName[operatorAddr]).length == 0 */\n      eq\n        /* \"RoamingDataManagement.sol\":2588:2694  bytes(operatorsAddrToName[operatorAddr]).length == 0 && operatorsNameToAddr[operatorName] == address(0x00) */\n      dup1\n      iszero\n      tag_282\n      jumpi\n      pop\n        /* \"RoamingDataManagement.sol\":2689:2693  0x00 */\n      0x00\n        /* \"RoamingDataManagement.sol\":2644:2694  operatorsNameToAddr[operatorName] == address(0x00) */\n      0xffffffffffffffffffffffffffffffffffffffff\n      and\n        /* \"RoamingDataManagement.sol\":2644:2663  operatorsNameToAddr */\n      0x03\n        /* \"RoamingDataManagement.sol\":2664:2676  operatorName */\n      dup4\n        /* \"RoamingDataManagement.sol\":2644:2677  operatorsNameToAddr[operatorName] */\n      mload(0x40)\n      tag_283\n      swap2\n      swap1\n      tag_202\n      jump\t// in\n    tag_283:\n      swap1\n      dup2\n      mstore\n      0x20\n      add\n      mload(0x40)\n      dup1\n      swap2\n      sub\n      swap1\n      keccak256\n      0x00\n      swap1\n      sload\n      swap1\n      0x0100\n      exp\n      swap1\n      div\n      0xffffffffffffffffffffffffffffffffffffffff\n      and\n        /* \"RoamingDataManagement.sol\":2644:2694  operatorsNameToAddr[operatorName] == address(0x00) */\n      0xffffffffffffffffffffffffffffffffffffffff\n      and\n      eq\n        /* \"RoamingDataManagement.sol\":2588:2694  bytes(operatorsAddrToName[operatorAddr]).length == 0 && operatorsNameToAddr[operatorName] == address(0x00) */\n    tag_282:\n        /* \"RoamingDataManagement.sol\":2584:3377  if (bytes(operatorsAddrToName[operatorAddr]).length == 0 && operatorsNameToAddr[operatorName] == address(0x00)) {... */\n      iszero\n      tag_284\n      jumpi\n        /* \"RoamingDataManagement.sol\":2731:2738  100 wei */\n      0x64\n        /* \"RoamingDataManagement.sol\":2718:2727  msg.value */\n      callvalue\n        /* \"RoamingDataManagement.sol\":2718:2738  msg.value >= 100 wei */\n      lt\n      iszero\n        /* \"RoamingDataManagement.sol\":2710:2739  require(msg.value >= 100 wei) */\n      tag_285\n      jumpi\n      0x00\n      dup1\n      revert\n    tag_285:\n        /* \"RoamingDataManagement.sol\":2754:2770  serviceProviders */\n      0x00\n        /* \"RoamingDataManagement.sol\":2776:2788  operatorName */\n      dup3\n        /* \"RoamingDataManagement.sol\":2754:2789  serviceProviders.push(operatorName) */\n      swap1\n      dup1\n      0x01\n      dup2\n      sload\n      add\n      dup1\n      dup3\n      sstore\n      dup1\n      swap2\n      pop\n      pop\n      0x01\n      swap1\n      sub\n      swap1\n      0x00\n      mstore\n      keccak256(0x00, 0x20)\n      add\n      0x00\n      swap1\n      swap2\n      swap1\n      swap2\n      swap1\n      swap2\n      pop\n      swap1\n      dup2\n      tag_287\n      swap2\n      swap1\n      tag_256\n      jump\t// in\n    tag_287:\n      pop\n        /* \"RoamingDataManagement.sol\":2803:2820  operatorAddresses */\n      0x01\n        /* \"RoamingDataManagement.sol\":2826:2838  operatorAddr */\n      dup4\n        /* \"RoamingDataManagement.sol\":2803:2839  operatorAddresses.push(operatorAddr) */\n      swap1\n      dup1\n      0x01\n      dup2\n      sload\n      add\n      dup1\n      dup3\n      sstore\n      dup1\n      swap2\n      pop\n      pop\n      0x01\n      swap1\n      sub\n      swap1\n      0x00\n      mstore\n      keccak256(0x00, 0x20)\n      add\n      0x00\n      swap1\n      swap2\n      swap1\n      swap2\n      swap1\n      swap2\n      0x0100\n      exp\n      dup2\n      sload\n      dup2\n      0xffffffffffffffffffffffffffffffffffffffff\n      mul\n      not\n      and\n      swap1\n      dup4\n      0xffffffffffffffffffffffffffffffffffffffff\n      and\n      mul\n      or\n      swap1\n      sstore\n      pop\n        /* \"RoamingDataManagement.sol\":2892:2904  operatorAddr */\n      dup3\n        /* \"RoamingDataManagement.sol\":2856:2875  operatorsNameToAddr */\n      0x03\n        /* \"RoamingDataManagement.sol\":2876:2888  operatorName */\n      dup4\n        /* \"RoamingDataManagement.sol\":2856:2889  operatorsNameToAddr[operatorName] */\n      mload(0x40)\n      tag_289\n      swap2\n      swap1\n      tag_202\n      jump\t// in\n    tag_289:\n      swap1\n      dup2\n      mstore\n      0x20\n      add\n      mload(0x40)\n      dup1\n      swap2\n      sub\n      swap1\n      keccak256\n      0x00\n        /* \"RoamingDataManagement.sol\":2856:2904  operatorsNameToAddr[operatorName] = operatorAddr */\n      0x0100\n      exp\n      dup2\n      sload\n      dup2\n      0xffffffffffffffffffffffffffffffffffffffff\n      mul\n      not\n      and\n      swap1\n      dup4\n      0xffffffffffffffffffffffffffffffffffffffff\n      and\n      mul\n      or\n      swap1\n      sstore\n      pop\n        /* \"RoamingDataManagement.sol\":2954:2966  operatorName */\n      dup2\n        /* \"RoamingDataManagement.sol\":2918:2937  operatorsAddrToName */\n      0x02\n        /* \"RoamingDataManagement.sol\":2918:2951  operatorsAddrToName[operatorAddr] */\n      0x00\n        /* \"RoamingDataManagement.sol\":2938:2950  operatorAddr */\n      dup6\n        /* \"RoamingDataManagement.sol\":2918:2951  operatorsAddrToName[operatorAddr] */\n      0xffffffffffffffffffffffffffffffffffffffff\n      and\n      0xffffffffffffffffffffffffffffffffffffffff\n      and\n      dup2\n      mstore\n      0x20\n      add\n      swap1\n      dup2\n      mstore\n      0x20\n      add\n      0x00\n      keccak256\n        /* \"RoamingDataManagement.sol\":2918:2966  operatorsAddrToName[operatorAddr] = operatorName */\n      swap1\n      dup2\n      tag_290\n      swap2\n      swap1\n      tag_256\n      jump\t// in\n    tag_290:\n      pop\n        /* \"RoamingDataManagement.sol\":3002:3011  msg.value */\n      callvalue\n        /* \"RoamingDataManagement.sol\":2980:2984  bank */\n      0x09\n        /* \"RoamingDataManagement.sol\":2980:2998  bank[operatorAddr] */\n      0x00\n        /* \"RoamingDataManagement.sol\":2985:2997  operatorAddr */\n      dup6\n        /* \"RoamingDataManagement.sol\":2980:2998  bank[operatorAddr] */\n      0xffffffffffffffffffffffffffffffffffffffff\n      and\n      0xffffffffffffffffffffffffffffffffffffffff\n      and\n      dup2\n      mstore\n      0x20\n      add\n      swap1\n      dup2\n      mstore\n      0x20\n      add\n      0x00\n      keccak256\n      0x00\n        /* \"RoamingDataManagement.sol\":2980:3011  bank[operatorAddr] += msg.value */\n      dup3\n      dup3\n      sload\n      tag_291\n      swap2\n      swap1\n      tag_268\n      jump\t// in\n    tag_291:\n      swap3\n      pop\n      pop\n      dup2\n      swap1\n      sstore\n      pop\n        /* \"RoamingDataManagement.sol\":3025:3048  BillingRecord memory br */\n      0x00\n        /* \"RoamingDataManagement.sol\":3051:3328  BillingRecord({... */\n      mload(0x40)\n      dup1\n      0xc0\n      add\n      0x40\n      mstore\n      dup1\n        /* \"RoamingDataManagement.sol\":3090:3100  msg.sender */\n      caller\n        /* \"RoamingDataManagement.sol\":3051:3328  BillingRecord({... */\n      0xffffffffffffffffffffffffffffffffffffffff\n      and\n      dup2\n      mstore\n      0x20\n      add\n        /* \"RoamingDataManagement.sol\":3133:3137  this */\n      address\n        /* \"RoamingDataManagement.sol\":3051:3328  BillingRecord({... */\n      0xffffffffffffffffffffffffffffffffffffffff\n      and\n      dup2\n      mstore\n      0x20\n      add\n        /* \"RoamingDataManagement.sol\":3167:3186  operatorsAddrToName */\n      0x02\n        /* \"RoamingDataManagement.sol\":3167:3198  operatorsAddrToName[msg.sender] */\n      0x00\n        /* \"RoamingDataManagement.sol\":3187:3197  msg.sender */\n      caller\n        /* \"RoamingDataManagement.sol\":3167:3198  operatorsAddrToName[msg.sender] */\n      0xffffffffffffffffffffffffffffffffffffffff\n      and\n      0xffffffffffffffffffffffffffffffffffffffff\n      and\n      dup2\n      mstore\n      0x20\n      add\n      swap1\n      dup2\n      mstore\n      0x20\n      add\n      0x00\n      keccak256\n        /* \"RoamingDataManagement.sol\":3051:3328  BillingRecord({... */\n      dup1\n      sload\n      tag_292\n      swap1\n      tag_121\n      jump\t// in\n    tag_292:\n      dup1\n      0x1f\n      add\n      0x20\n      dup1\n      swap2\n      div\n      mul\n      0x20\n      add\n      mload(0x40)\n      swap1\n      dup2\n      add\n      0x40\n      mstore\n      dup1\n      swap3\n      swap2\n      swap1\n      dup2\n      dup2\n      mstore\n      0x20\n      add\n      dup3\n      dup1\n      sload\n      tag_293\n      swap1\n      tag_121\n      jump\t// in\n    tag_293:\n      dup1\n      iszero\n      tag_294\n      jumpi\n      dup1\n      0x1f\n      lt\n      tag_295\n      jumpi\n      0x0100\n      dup1\n      dup4\n      sload\n      div\n      mul\n      dup4\n      mstore\n      swap2\n      0x20\n      add\n      swap2\n      jump(tag_294)\n    tag_295:\n      dup3\n      add\n      swap2\n      swap1\n      0x00\n      mstore\n      keccak256(0x00, 0x20)\n      swap1\n    tag_296:\n      dup2\n      sload\n      dup2\n      mstore\n      swap1\n      0x01\n      add\n      swap1\n      0x20\n      add\n      dup1\n      dup4\n      gt\n      tag_296\n      jumpi\n      dup3\n      swap1\n      sub\n      0x1f\n      and\n      dup3\n      add\n      swap2\n    tag_294:\n      pop\n      pop\n      pop\n      pop\n      pop\n      dup2\n      mstore\n      0x20\n      add\n      mload(0x40)\n      dup1\n      0x40\n      add\n      0x40\n      mstore\n      dup1\n      0x04\n      dup2\n      mstore\n      0x20\n      add\n      0x42616e6b00000000000000000000000000000000000000000000000000000000\n      dup2\n      mstore\n      pop\n      dup2\n      mstore\n      0x20\n      add\n        /* \"RoamingDataManagement.sol\":3259:3268  msg.value */\n      callvalue\n        /* \"RoamingDataManagement.sol\":3051:3328  BillingRecord({... */\n      dup2\n      mstore\n      0x20\n      add\n        /* \"RoamingDataManagement.sol\":3297:3313  currentTimestamp */\n      dup4\n        /* \"RoamingDataManagement.sol\":3051:3328  BillingRecord({... */\n      dup2\n      mstore\n      pop\n        /* \"RoamingDataManagement.sol\":3025:3328  BillingRecord memory br = BillingRecord({... */\n      swap1\n      pop\n        /* \"RoamingDataManagement.sol\":3343:3357  billingHistory */\n      0x05\n        /* \"RoamingDataManagement.sol\":3363:3365  br */\n      dup2\n        /* \"RoamingDataManagement.sol\":3343:3366  billingHistory.push(br) */\n      swap1\n      dup1\n      0x01\n      dup2\n      sload\n      add\n      dup1\n      dup3\n      sstore\n      dup1\n      swap2\n      pop\n      pop\n      0x01\n      swap1\n      sub\n      swap1\n      0x00\n      mstore\n      keccak256(0x00, 0x20)\n      swap1\n      0x06\n      mul\n      add\n      0x00\n      swap1\n      swap2\n      swap1\n      swap2\n      swap1\n      swap2\n      pop\n      0x00\n      dup3\n      add\n      mload\n      dup2\n      0x00\n      add\n      exp(0x0100, 0x00)\n      dup2\n      sload\n      dup2\n      0xffffffffffffffffffffffffffffffffffffffff\n      mul\n      not\n      and\n      swap1\n      dup4\n      0xffffffffffffffffffffffffffffffffffffffff\n      and\n      mul\n      or\n      swap1\n      sstore\n      pop\n      0x20\n      dup3\n      add\n      mload\n      dup2\n      0x01\n      add\n      exp(0x0100, 0x00)\n      dup2\n      sload\n      dup2\n      0xffffffffffffffffffffffffffffffffffffffff\n      mul\n      not\n      and\n      swap1\n      dup4\n      0xffffffffffffffffffffffffffffffffffffffff\n      and\n      mul\n      or\n      swap1\n      sstore\n      pop\n      0x40\n      dup3\n      add\n      mload\n      dup2\n      0x02\n      add\n      swap1\n      dup2\n      tag_298\n      swap2\n      swap1\n      tag_256\n      jump\t// in\n    tag_298:\n      pop\n      0x60\n      dup3\n      add\n      mload\n      dup2\n      0x03\n      add\n      swap1\n      dup2\n      tag_299\n      swap2\n      swap1\n      tag_256\n      jump\t// in\n    tag_299:\n      pop\n      0x80\n      dup3\n      add\n      mload\n      dup2\n      0x04\n      add\n      sstore\n      0xa0\n      dup3\n      add\n      mload\n      dup2\n      0x05\n      add\n      sstore\n      pop\n      pop\n        /* \"RoamingDataManagement.sol\":2696:3377  {... */\n      pop\n        /* \"RoamingDataManagement.sol\":2584:3377  if (bytes(operatorsAddrToName[operatorAddr]).length == 0 && operatorsNameToAddr[operatorName] == address(0x00)) {... */\n    tag_284:\n        /* \"RoamingDataManagement.sol\":2218:3383  function registerRoamingOperator(address operatorAddr, string memory operatorName, uint256 currentTimestamp) public payable {... */\n      pop\n      pop\n      pop\n      jump\t// out\n        /* \"RoamingDataManagement.sol\":1949:2029  function deposit() public payable... */\n    tag_108:\n        /* \"RoamingDataManagement.sol\":2013:2022  msg.value */\n      callvalue\n        /* \"RoamingDataManagement.sol\":1997:2009  totalDeposit */\n      0x04\n      0x00\n        /* \"RoamingDataManagement.sol\":1997:2022  totalDeposit += msg.value */\n      dup3\n      dup3\n      sload\n      tag_301\n      swap2\n      swap1\n      tag_268\n      jump\t// in\n    tag_301:\n      swap3\n      pop\n      pop\n      dup2\n      swap1\n      sstore\n      pop\n        /* \"RoamingDataManagement.sol\":1949:2029  function deposit() public payable... */\n      jump\t// out\n        /* \"RoamingDataManagement.sol\":725:749  uint public totalDeposit */\n    tag_111:\n      sload(0x04)\n      dup2\n      jump\t// out\n        /* \"RoamingDataManagement.sol\":660:713  mapping(string => address) public operatorsNameToAddr */\n    tag_116:\n      0x03\n      dup2\n      dup1\n      mload\n      0x20\n      dup2\n      add\n      dup3\n      add\n      dup1\n      mload\n      dup5\n      dup3\n      mstore\n      0x20\n      dup4\n      add\n      0x20\n      dup6\n      add\n      keccak256\n      dup2\n      dup4\n      mstore\n      dup1\n      swap6\n      pop\n      pop\n      pop\n      pop\n      pop\n      pop\n      0x00\n      swap2\n      pop\n      sload\n      swap1\n      0x0100\n      exp\n      swap1\n      div\n      0xffffffffffffffffffffffffffffffffffffffff\n      and\n      dup2\n      jump\t// out\n    tag_188:\n      mload(0x40)\n      dup1\n      0x0140\n      add\n      0x40\n      mstore\n      dup1\n      0x60\n      dup2\n      mstore\n      0x20\n      add\n      0x60\n      dup2\n      mstore\n      0x20\n      add\n      0x60\n      dup2\n      mstore\n      0x20\n      add\n      0x00\n      dup2\n      mstore\n      0x20\n      add\n      0x00\n      dup2\n      mstore\n      0x20\n      add\n      0x00\n      dup2\n      mstore\n      0x20\n      add\n      0x00\n      dup2\n      mstore\n      0x20\n      add\n      0x00\n      dup2\n      mstore\n      0x20\n      add\n      0x00\n      dup2\n      mstore\n      0x20\n      add\n      0x00\n      dup2\n      mstore\n      pop\n      swap1\n      jump\t// out\n        /* \"#utility.yul\":7:82   */\n    tag_302:\n        /* \"#utility.yul\":40:46   */\n      0x00\n        /* \"#utility.yul\":73:75   */\n      0x40\n        /* \"#utility.yul\":67:76   */\n      mload\n        /* \"#utility.yul\":57:76   */\n      swap1\n      pop\n        /* \"#utility.yul\":7:82   */\n      swap1\n      jump\t// out\n        /* \"#utility.yul\":88:205   */\n    tag_303:\n        /* \"#utility.yul\":197:198   */\n      0x00\n        /* \"#utility.yul\":194:195   */\n      dup1\n        /* \"#utility.yul\":187:199   */\n      revert\n        /* \"#utility.yul\":211:328   */\n    tag_304:\n        /* \"#utility.yul\":320:321   */\n      0x00\n        /* \"#utility.yul\":317:318   */\n      dup1\n        /* \"#utility.yul\":310:322   */\n      revert\n        /* \"#utility.yul\":334:411   */\n    tag_305:\n        /* \"#utility.yul\":371:378   */\n      0x00\n        /* \"#utility.yul\":400:405   */\n      dup2\n        /* \"#utility.yul\":389:405   */\n      swap1\n      pop\n        /* \"#utility.yul\":334:411   */\n      swap2\n      swap1\n      pop\n      jump\t// out\n        /* \"#utility.yul\":417:539   */\n    tag_306:\n        /* \"#utility.yul\":490:514   */\n      tag_386\n        /* \"#utility.yul\":508:513   */\n      dup2\n        /* \"#utility.yul\":490:514   */\n      tag_305\n      jump\t// in\n    tag_386:\n        /* \"#utility.yul\":483:488   */\n      dup2\n        /* \"#utility.yul\":480:515   */\n      eq\n        /* \"#utility.yul\":470:533   */\n      tag_387\n      jumpi\n        /* \"#utility.yul\":529:530   */\n      0x00\n        /* \"#utility.yul\":526:527   */\n      dup1\n        /* \"#utility.yul\":519:531   */\n      revert\n        /* \"#utility.yul\":470:533   */\n    tag_387:\n        /* \"#utility.yul\":417:539   */\n      pop\n      jump\t// out\n        /* \"#utility.yul\":545:684   */\n    tag_307:\n        /* \"#utility.yul\":591:596   */\n      0x00\n        /* \"#utility.yul\":629:635   */\n      dup2\n        /* \"#utility.yul\":616:636   */\n      calldataload\n        /* \"#utility.yul\":607:636   */\n      swap1\n      pop\n        /* \"#utility.yul\":645:678   */\n      tag_389\n        /* \"#utility.yul\":672:677   */\n      dup2\n        /* \"#utility.yul\":645:678   */\n      tag_306\n      jump\t// in\n    tag_389:\n        /* \"#utility.yul\":545:684   */\n      swap3\n      swap2\n      pop\n      pop\n      jump\t// out\n        /* \"#utility.yul\":690:1019   */\n    tag_29:\n        /* \"#utility.yul\":749:755   */\n      0x00\n        /* \"#utility.yul\":798:800   */\n      0x20\n        /* \"#utility.yul\":786:795   */\n      dup3\n        /* \"#utility.yul\":777:784   */\n      dup5\n        /* \"#utility.yul\":773:796   */\n      sub\n        /* \"#utility.yul\":769:801   */\n      slt\n        /* \"#utility.yul\":766:885   */\n      iszero\n      tag_391\n      jumpi\n        /* \"#utility.yul\":804:883   */\n      tag_392\n      tag_303\n      jump\t// in\n    tag_392:\n        /* \"#utility.yul\":766:885   */\n    tag_391:\n        /* \"#utility.yul\":924:925   */\n      0x00\n        /* \"#utility.yul\":949:1002   */\n      tag_393\n        /* \"#utility.yul\":994:1001   */\n      dup5\n        /* \"#utility.yul\":985:991   */\n      dup3\n        /* \"#utility.yul\":974:983   */\n      dup6\n        /* \"#utility.yul\":970:992   */\n      add\n        /* \"#utility.yul\":949:1002   */\n      tag_307\n      jump\t// in\n    tag_393:\n        /* \"#utility.yul\":939:1002   */\n      swap2\n      pop\n        /* \"#utility.yul\":895:1012   */\n      pop\n        /* \"#utility.yul\":690:1019   */\n      swap3\n      swap2\n      pop\n      pop\n      jump\t// out\n        /* \"#utility.yul\":1025:1124   */\n    tag_308:\n        /* \"#utility.yul\":1077:1083   */\n      0x00\n        /* \"#utility.yul\":1111:1116   */\n      dup2\n        /* \"#utility.yul\":1105:1117   */\n      mload\n        /* \"#utility.yul\":1095:1117   */\n      swap1\n      pop\n        /* \"#utility.yul\":1025:1124   */\n      swap2\n      swap1\n      pop\n      jump\t// out\n        /* \"#utility.yul\":1130:1299   */\n    tag_309:\n        /* \"#utility.yul\":1214:1225   */\n      0x00\n        /* \"#utility.yul\":1248:1254   */\n      dup3\n        /* \"#utility.yul\":1243:1246   */\n      dup3\n        /* \"#utility.yul\":1236:1255   */\n      mstore\n        /* \"#utility.yul\":1288:1292   */\n      0x20\n        /* \"#utility.yul\":1283:1286   */\n      dup3\n        /* \"#utility.yul\":1279:1293   */\n      add\n        /* \"#utility.yul\":1264:1293   */\n      swap1\n      pop\n        /* \"#utility.yul\":1130:1299   */\n      swap3\n      swap2\n      pop\n      pop\n      jump\t// out\n        /* \"#utility.yul\":1305:1551   */\n    tag_310:\n        /* \"#utility.yul\":1386:1387   */\n      0x00\n        /* \"#utility.yul\":1396:1509   */\n    tag_397:\n        /* \"#utility.yul\":1410:1416   */\n      dup4\n        /* \"#utility.yul\":1407:1408   */\n      dup2\n        /* \"#utility.yul\":1404:1417   */\n      lt\n        /* \"#utility.yul\":1396:1509   */\n      iszero\n      tag_399\n      jumpi\n        /* \"#utility.yul\":1495:1496   */\n      dup1\n        /* \"#utility.yul\":1490:1493   */\n      dup3\n        /* \"#utility.yul\":1486:1497   */\n      add\n        /* \"#utility.yul\":1480:1498   */\n      mload\n        /* \"#utility.yul\":1476:1477   */\n      dup2\n        /* \"#utility.yul\":1471:1474   */\n      dup5\n        /* \"#utility.yul\":1467:1478   */\n      add\n        /* \"#utility.yul\":1460:1499   */\n      mstore\n        /* \"#utility.yul\":1432:1434   */\n      0x20\n        /* \"#utility.yul\":1429:1430   */\n      dup2\n        /* \"#utility.yul\":1425:1435   */\n      add\n        /* \"#utility.yul\":1420:1435   */\n      swap1\n      pop\n        /* \"#utility.yul\":1396:1509   */\n      jump(tag_397)\n    tag_399:\n        /* \"#utility.yul\":1543:1544   */\n      0x00\n        /* \"#utility.yul\":1534:1540   */\n      dup5\n        /* \"#utility.yul\":1529:1532   */\n      dup5\n        /* \"#utility.yul\":1525:1541   */\n      add\n        /* \"#utility.yul\":1518:1545   */\n      mstore\n        /* \"#utility.yul\":1367:1551   */\n      pop\n        /* \"#utility.yul\":1305:1551   */\n      pop\n      pop\n      pop\n      jump\t// out\n        /* \"#utility.yul\":1557:1659   */\n    tag_311:\n        /* \"#utility.yul\":1598:1604   */\n      0x00\n        /* \"#utility.yul\":1649:1651   */\n      0x1f\n        /* \"#utility.yul\":1645:1652   */\n      not\n        /* \"#utility.yul\":1640:1642   */\n      0x1f\n        /* \"#utility.yul\":1633:1638   */\n      dup4\n        /* \"#utility.yul\":1629:1643   */\n      add\n        /* \"#utility.yul\":1625:1653   */\n      and\n        /* \"#utility.yul\":1615:1653   */\n      swap1\n      pop\n        /* \"#utility.yul\":1557:1659   */\n      swap2\n      swap1\n      pop\n      jump\t// out\n        /* \"#utility.yul\":1665:2042   */\n    tag_312:\n        /* \"#utility.yul\":1753:1756   */\n      0x00\n        /* \"#utility.yul\":1781:1820   */\n      tag_402\n        /* \"#utility.yul\":1814:1819   */\n      dup3\n        /* \"#utility.yul\":1781:1820   */\n      tag_308\n      jump\t// in\n    tag_402:\n        /* \"#utility.yul\":1836:1907   */\n      tag_403\n        /* \"#utility.yul\":1900:1906   */\n      dup2\n        /* \"#utility.yul\":1895:1898   */\n      dup6\n        /* \"#utility.yul\":1836:1907   */\n      tag_309\n      jump\t// in\n    tag_403:\n        /* \"#utility.yul\":1829:1907   */\n      swap4\n      pop\n        /* \"#utility.yul\":1916:1981   */\n      tag_404\n        /* \"#utility.yul\":1974:1980   */\n      dup2\n        /* \"#utility.yul\":1969:1972   */\n      dup6\n        /* \"#utility.yul\":1962:1966   */\n      0x20\n        /* \"#utility.yul\":1955:1960   */\n      dup7\n        /* \"#utility.yul\":1951:1967   */\n      add\n        /* \"#utility.yul\":1916:1981   */\n      tag_310\n      jump\t// in\n    tag_404:\n        /* \"#utility.yul\":2006:2035   */\n      tag_405\n        /* \"#utility.yul\":2028:2034   */\n      dup2\n        /* \"#utility.yul\":2006:2035   */\n      tag_311\n      jump\t// in\n    tag_405:\n        /* \"#utility.yul\":2001:2004   */\n      dup5\n        /* \"#utility.yul\":1997:2036   */\n      add\n        /* \"#utility.yul\":1990:2036   */\n      swap2\n      pop\n        /* \"#utility.yul\":1757:2042   */\n      pop\n        /* \"#utility.yul\":1665:2042   */\n      swap3\n      swap2\n      pop\n      pop\n      jump\t// out\n        /* \"#utility.yul\":2048:2361   */\n    tag_32:\n        /* \"#utility.yul\":2161:2165   */\n      0x00\n        /* \"#utility.yul\":2199:2201   */\n      0x20\n        /* \"#utility.yul\":2188:2197   */\n      dup3\n        /* \"#utility.yul\":2184:2202   */\n      add\n        /* \"#utility.yul\":2176:2202   */\n      swap1\n      pop\n        /* \"#utility.yul\":2248:2257   */\n      dup2\n        /* \"#utility.yul\":2242:2246   */\n      dup2\n        /* \"#utility.yul\":2238:2258   */\n      sub\n        /* \"#utility.yul\":2234:2235   */\n      0x00\n        /* \"#utility.yul\":2223:2232   */\n      dup4\n        /* \"#utility.yul\":2219:2236   */\n      add\n        /* \"#utility.yul\":2212:2259   */\n      mstore\n        /* \"#utility.yul\":2276:2354   */\n      tag_407\n        /* \"#utility.yul\":2349:2353   */\n      dup2\n        /* \"#utility.yul\":2340:2346   */\n      dup5\n        /* \"#utility.yul\":2276:2354   */\n      tag_312\n      jump\t// in\n    tag_407:\n        /* \"#utility.yul\":2268:2354   */\n      swap1\n      pop\n        /* \"#utility.yul\":2048:2361   */\n      swap3\n      swap2\n      pop\n      pop\n      jump\t// out\n        /* \"#utility.yul\":2367:2493   */\n    tag_313:\n        /* \"#utility.yul\":2404:2411   */\n      0x00\n        /* \"#utility.yul\":2444:2486   */\n      0xffffffffffffffffffffffffffffffffffffffff\n        /* \"#utility.yul\":2437:2442   */\n      dup3\n        /* \"#utility.yul\":2433:2487   */\n      and\n        /* \"#utility.yul\":2422:2487   */\n      swap1\n      pop\n        /* \"#utility.yul\":2367:2493   */\n      swap2\n      swap1\n      pop\n      jump\t// out\n        /* \"#utility.yul\":2499:2595   */\n    tag_314:\n        /* \"#utility.yul\":2536:2543   */\n      0x00\n        /* \"#utility.yul\":2565:2589   */\n      tag_410\n        /* \"#utility.yul\":2583:2588   */\n      dup3\n        /* \"#utility.yul\":2565:2589   */\n      tag_313\n      jump\t// in\n    tag_410:\n        /* \"#utility.yul\":2554:2589   */\n      swap1\n      pop\n        /* \"#utility.yul\":2499:2595   */\n      swap2\n      swap1\n      pop\n      jump\t// out\n        /* \"#utility.yul\":2601:2719   */\n    tag_315:\n        /* \"#utility.yul\":2688:2712   */\n      tag_412\n        /* \"#utility.yul\":2706:2711   */\n      dup2\n        /* \"#utility.yul\":2688:2712   */\n      tag_314\n      jump\t// in\n    tag_412:\n        /* \"#utility.yul\":2683:2686   */\n      dup3\n        /* \"#utility.yul\":2676:2713   */\n      mstore\n        /* \"#utility.yul\":2601:2719   */\n      pop\n      pop\n      jump\t// out\n        /* \"#utility.yul\":2725:2843   */\n    tag_316:\n        /* \"#utility.yul\":2812:2836   */\n      tag_414\n        /* \"#utility.yul\":2830:2835   */\n      dup2\n        /* \"#utility.yul\":2812:2836   */\n      tag_305\n      jump\t// in\n    tag_414:\n        /* \"#utility.yul\":2807:2810   */\n      dup3\n        /* \"#utility.yul\":2800:2837   */\n      mstore\n        /* \"#utility.yul\":2725:2843   */\n      pop\n      pop\n      jump\t// out\n        /* \"#utility.yul\":2849:3806   */\n    tag_38:\n        /* \"#utility.yul\":3122:3126   */\n      0x00\n        /* \"#utility.yul\":3160:3163   */\n      0xc0\n        /* \"#utility.yul\":3149:3158   */\n      dup3\n        /* \"#utility.yul\":3145:3164   */\n      add\n        /* \"#utility.yul\":3137:3164   */\n      swap1\n      pop\n        /* \"#utility.yul\":3174:3245   */\n      tag_416\n        /* \"#utility.yul\":3242:3243   */\n      0x00\n        /* \"#utility.yul\":3231:3240   */\n      dup4\n        /* \"#utility.yul\":3227:3244   */\n      add\n        /* \"#utility.yul\":3218:3224   */\n      dup10\n        /* \"#utility.yul\":3174:3245   */\n      tag_315\n      jump\t// in\n    tag_416:\n        /* \"#utility.yul\":3255:3327   */\n      tag_417\n        /* \"#utility.yul\":3323:3325   */\n      0x20\n        /* \"#utility.yul\":3312:3321   */\n      dup4\n        /* \"#utility.yul\":3308:3326   */\n      add\n        /* \"#utility.yul\":3299:3305   */\n      dup9\n        /* \"#utility.yul\":3255:3327   */\n      tag_315\n      jump\t// in\n    tag_417:\n        /* \"#utility.yul\":3374:3383   */\n      dup2\n        /* \"#utility.yul\":3368:3372   */\n      dup2\n        /* \"#utility.yul\":3364:3384   */\n      sub\n        /* \"#utility.yul\":3359:3361   */\n      0x40\n        /* \"#utility.yul\":3348:3357   */\n      dup4\n        /* \"#utility.yul\":3344:3362   */\n      add\n        /* \"#utility.yul\":3337:3385   */\n      mstore\n        /* \"#utility.yul\":3402:3480   */\n      tag_418\n        /* \"#utility.yul\":3475:3479   */\n      dup2\n        /* \"#utility.yul\":3466:3472   */\n      dup8\n        /* \"#utility.yul\":3402:3480   */\n      tag_312\n      jump\t// in\n    tag_418:\n        /* \"#utility.yul\":3394:3480   */\n      swap1\n      pop\n        /* \"#utility.yul\":3527:3536   */\n      dup2\n        /* \"#utility.yul\":3521:3525   */\n      dup2\n        /* \"#utility.yul\":3517:3537   */\n      sub\n        /* \"#utility.yul\":3512:3514   */\n      0x60\n        /* \"#utility.yul\":3501:3510   */\n      dup4\n        /* \"#utility.yul\":3497:3515   */\n      add\n        /* \"#utility.yul\":3490:3538   */\n      mstore\n        /* \"#utility.yul\":3555:3633   */\n      tag_419\n        /* \"#utility.yul\":3628:3632   */\n      dup2\n        /* \"#utility.yul\":3619:3625   */\n      dup7\n        /* \"#utility.yul\":3555:3633   */\n      tag_312\n      jump\t// in\n    tag_419:\n        /* \"#utility.yul\":3547:3633   */\n      swap1\n      pop\n        /* \"#utility.yul\":3643:3716   */\n      tag_420\n        /* \"#utility.yul\":3711:3714   */\n      0x80\n        /* \"#utility.yul\":3700:3709   */\n      dup4\n        /* \"#utility.yul\":3696:3715   */\n      add\n        /* \"#utility.yul\":3687:3693   */\n      dup6\n        /* \"#utility.yul\":3643:3716   */\n      tag_316\n      jump\t// in\n    tag_420:\n        /* \"#utility.yul\":3726:3799   */\n      tag_421\n        /* \"#utility.yul\":3794:3797   */\n      0xa0\n        /* \"#utility.yul\":3783:3792   */\n      dup4\n        /* \"#utility.yul\":3779:3798   */\n      add\n        /* \"#utility.yul\":3770:3776   */\n      dup5\n        /* \"#utility.yul\":3726:3799   */\n      tag_316\n      jump\t// in\n    tag_421:\n        /* \"#utility.yul\":2849:3806   */\n      swap8\n      swap7\n      pop\n      pop\n      pop\n      pop\n      pop\n      pop\n      pop\n      jump\t// out\n        /* \"#utility.yul\":3812:3934   */\n    tag_317:\n        /* \"#utility.yul\":3885:3909   */\n      tag_423\n        /* \"#utility.yul\":3903:3908   */\n      dup2\n        /* \"#utility.yul\":3885:3909   */\n      tag_314\n      jump\t// in\n    tag_423:\n        /* \"#utility.yul\":3878:3883   */\n      dup2\n        /* \"#utility.yul\":3875:3910   */\n      eq\n        /* \"#utility.yul\":3865:3928   */\n      tag_424\n      jumpi\n        /* \"#utility.yul\":3924:3925   */\n      0x00\n        /* \"#utility.yul\":3921:3922   */\n      dup1\n        /* \"#utility.yul\":3914:3926   */\n      revert\n        /* \"#utility.yul\":3865:3928   */\n    tag_424:\n        /* \"#utility.yul\":3812:3934   */\n      pop\n      jump\t// out\n        /* \"#utility.yul\":3940:4079   */\n    tag_318:\n        /* \"#utility.yul\":3986:3991   */\n      0x00\n        /* \"#utility.yul\":4024:4030   */\n      dup2\n        /* \"#utility.yul\":4011:4031   */\n      calldataload\n        /* \"#utility.yul\":4002:4031   */\n      swap1\n      pop\n        /* \"#utility.yul\":4040:4073   */\n      tag_426\n        /* \"#utility.yul\":4067:4072   */\n      dup2\n        /* \"#utility.yul\":4040:4073   */\n      tag_317\n      jump\t// in\n    tag_426:\n        /* \"#utility.yul\":3940:4079   */\n      swap3\n      swap2\n      pop\n      pop\n      jump\t// out\n        /* \"#utility.yul\":4085:4202   */\n    tag_319:\n        /* \"#utility.yul\":4194:4195   */\n      0x00\n        /* \"#utility.yul\":4191:4192   */\n      dup1\n        /* \"#utility.yul\":4184:4196   */\n      revert\n        /* \"#utility.yul\":4208:4325   */\n    tag_320:\n        /* \"#utility.yul\":4317:4318   */\n      0x00\n        /* \"#utility.yul\":4314:4315   */\n      dup1\n        /* \"#utility.yul\":4307:4319   */\n      revert\n        /* \"#utility.yul\":4331:4511   */\n    tag_184:\n        /* \"#utility.yul\":4379:4456   */\n      0x4e487b7100000000000000000000000000000000000000000000000000000000\n        /* \"#utility.yul\":4376:4377   */\n      0x00\n        /* \"#utility.yul\":4369:4457   */\n      mstore\n        /* \"#utility.yul\":4476:4480   */\n      0x41\n        /* \"#utility.yul\":4473:4474   */\n      0x04\n        /* \"#utility.yul\":4466:4481   */\n      mstore\n        /* \"#utility.yul\":4500:4504   */\n      0x24\n        /* \"#utility.yul\":4497:4498   */\n      0x00\n        /* \"#utility.yul\":4490:4505   */\n      revert\n        /* \"#utility.yul\":4517:4798   */\n    tag_321:\n        /* \"#utility.yul\":4600:4627   */\n      tag_431\n        /* \"#utility.yul\":4622:4626   */\n      dup3\n        /* \"#utility.yul\":4600:4627   */\n      tag_311\n      jump\t// in\n    tag_431:\n        /* \"#utility.yul\":4592:4598   */\n      dup2\n        /* \"#utility.yul\":4588:4628   */\n      add\n        /* \"#utility.yul\":4730:4736   */\n      dup2\n        /* \"#utility.yul\":4718:4728   */\n      dup2\n        /* \"#utility.yul\":4715:4737   */\n      lt\n        /* \"#utility.yul\":4694:4712   */\n      0xffffffffffffffff\n        /* \"#utility.yul\":4682:4692   */\n      dup3\n        /* \"#utility.yul\":4679:4713   */\n      gt\n        /* \"#utility.yul\":4676:4738   */\n      or\n        /* \"#utility.yul\":4673:4761   */\n      iszero\n      tag_432\n      jumpi\n        /* \"#utility.yul\":4741:4759   */\n      tag_433\n      tag_184\n      jump\t// in\n    tag_433:\n        /* \"#utility.yul\":4673:4761   */\n    tag_432:\n        /* \"#utility.yul\":4781:4791   */\n      dup1\n        /* \"#utility.yul\":4777:4779   */\n      0x40\n        /* \"#utility.yul\":4770:4792   */\n      mstore\n        /* \"#utility.yul\":4560:4798   */\n      pop\n        /* \"#utility.yul\":4517:4798   */\n      pop\n      pop\n      jump\t// out\n        /* \"#utility.yul\":4804:4933   */\n    tag_322:\n        /* \"#utility.yul\":4838:4844   */\n      0x00\n        /* \"#utility.yul\":4865:4885   */\n      tag_435\n      tag_302\n      jump\t// in\n    tag_435:\n        /* \"#utility.yul\":4855:4885   */\n      swap1\n      pop\n        /* \"#utility.yul\":4894:4927   */\n      tag_436\n        /* \"#utility.yul\":4922:4926   */\n      dup3\n        /* \"#utility.yul\":4914:4920   */\n      dup3\n        /* \"#utility.yul\":4894:4927   */\n      tag_321\n      jump\t// in\n    tag_436:\n        /* \"#utility.yul\":4804:4933   */\n      swap2\n      swap1\n      pop\n      jump\t// out\n        /* \"#utility.yul\":4939:5247   */\n    tag_323:\n        /* \"#utility.yul\":5001:5005   */\n      0x00\n        /* \"#utility.yul\":5091:5109   */\n      0xffffffffffffffff\n        /* \"#utility.yul\":5083:5089   */\n      dup3\n        /* \"#utility.yul\":5080:5110   */\n      gt\n        /* \"#utility.yul\":5077:5133   */\n      iszero\n      tag_438\n      jumpi\n        /* \"#utility.yul\":5113:5131   */\n      tag_439\n      tag_184\n      jump\t// in\n    tag_439:\n        /* \"#utility.yul\":5077:5133   */\n    tag_438:\n        /* \"#utility.yul\":5151:5180   */\n      tag_440\n        /* \"#utility.yul\":5173:5179   */\n      dup3\n        /* \"#utility.yul\":5151:5180   */\n      tag_311\n      jump\t// in\n    tag_440:\n        /* \"#utility.yul\":5143:5180   */\n      swap1\n      pop\n        /* \"#utility.yul\":5235:5239   */\n      0x20\n        /* \"#utility.yul\":5229:5233   */\n      dup2\n        /* \"#utility.yul\":5225:5240   */\n      add\n        /* \"#utility.yul\":5217:5240   */\n      swap1\n      pop\n        /* \"#utility.yul\":4939:5247   */\n      swap2\n      swap1\n      pop\n      jump\t// out\n        /* \"#utility.yul\":5253:5399   */\n    tag_324:\n        /* \"#utility.yul\":5350:5356   */\n      dup3\n        /* \"#utility.yul\":5345:5348   */\n      dup2\n        /* \"#utility.yul\":5340:5343   */\n      dup4\n        /* \"#utility.yul\":5327:5357   */\n      calldatacopy\n        /* \"#utility.yul\":5391:5392   */\n      0x00\n        /* \"#utility.yul\":5382:5388   */\n      dup4\n        /* \"#utility.yul\":5377:5380   */\n      dup4\n        /* \"#utility.yul\":5373:5389   */\n      add\n        /* \"#utility.yul\":5366:5393   */\n      mstore\n        /* \"#utility.yul\":5253:5399   */\n      pop\n      pop\n      pop\n      jump\t// out\n        /* \"#utility.yul\":5405:5830   */\n    tag_325:\n        /* \"#utility.yul\":5483:5488   */\n      0x00\n        /* \"#utility.yul\":5508:5574   */\n      tag_443\n        /* \"#utility.yul\":5524:5573   */\n      tag_444\n        /* \"#utility.yul\":5566:5572   */\n      dup5\n        /* \"#utility.yul\":5524:5573   */\n      tag_323\n      jump\t// in\n    tag_444:\n        /* \"#utility.yul\":5508:5574   */\n      tag_322\n      jump\t// in\n    tag_443:\n        /* \"#utility.yul\":5499:5574   */\n      swap1\n      pop\n        /* \"#utility.yul\":5597:5603   */\n      dup3\n        /* \"#utility.yul\":5590:5595   */\n      dup2\n        /* \"#utility.yul\":5583:5604   */\n      mstore\n        /* \"#utility.yul\":5635:5639   */\n      0x20\n        /* \"#utility.yul\":5628:5633   */\n      dup2\n        /* \"#utility.yul\":5624:5640   */\n      add\n        /* \"#utility.yul\":5673:5676   */\n      dup5\n        /* \"#utility.yul\":5664:5670   */\n      dup5\n        /* \"#utility.yul\":5659:5662   */\n      dup5\n        /* \"#utility.yul\":5655:5671   */\n      add\n        /* \"#utility.yul\":5652:5677   */\n      gt\n        /* \"#utility.yul\":5649:5761   */\n      iszero\n      tag_445\n      jumpi\n        /* \"#utility.yul\":5680:5759   */\n      tag_446\n      tag_320\n      jump\t// in\n    tag_446:\n        /* \"#utility.yul\":5649:5761   */\n    tag_445:\n        /* \"#utility.yul\":5770:5824   */\n      tag_447\n        /* \"#utility.yul\":5817:5823   */\n      dup5\n        /* \"#utility.yul\":5812:5815   */\n      dup3\n        /* \"#utility.yul\":5807:5810   */\n      dup6\n        /* \"#utility.yul\":5770:5824   */\n      tag_324\n      jump\t// in\n    tag_447:\n        /* \"#utility.yul\":5489:5830   */\n      pop\n        /* \"#utility.yul\":5405:5830   */\n      swap4\n      swap3\n      pop\n      pop\n      pop\n      jump\t// out\n        /* \"#utility.yul\":5850:6190   */\n    tag_326:\n        /* \"#utility.yul\":5906:5911   */\n      0x00\n        /* \"#utility.yul\":5955:5958   */\n      dup3\n        /* \"#utility.yul\":5948:5952   */\n      0x1f\n        /* \"#utility.yul\":5940:5946   */\n      dup4\n        /* \"#utility.yul\":5936:5953   */\n      add\n        /* \"#utility.yul\":5932:5959   */\n      slt\n        /* \"#utility.yul\":5922:6044   */\n      tag_449\n      jumpi\n        /* \"#utility.yul\":5963:6042   */\n      tag_450\n      tag_319\n      jump\t// in\n    tag_450:\n        /* \"#utility.yul\":5922:6044   */\n    tag_449:\n        /* \"#utility.yul\":6080:6086   */\n      dup2\n        /* \"#utility.yul\":6067:6087   */\n      calldataload\n        /* \"#utility.yul\":6105:6184   */\n      tag_451\n        /* \"#utility.yul\":6180:6183   */\n      dup5\n        /* \"#utility.yul\":6172:6178   */\n      dup3\n        /* \"#utility.yul\":6165:6169   */\n      0x20\n        /* \"#utility.yul\":6157:6163   */\n      dup7\n        /* \"#utility.yul\":6153:6170   */\n      add\n        /* \"#utility.yul\":6105:6184   */\n      tag_325\n      jump\t// in\n    tag_451:\n        /* \"#utility.yul\":6096:6184   */\n      swap2\n      pop\n        /* \"#utility.yul\":5912:6190   */\n      pop\n        /* \"#utility.yul\":5850:6190   */\n      swap3\n      swap2\n      pop\n      pop\n      jump\t// out\n        /* \"#utility.yul\":6196:6995   */\n    tag_42:\n        /* \"#utility.yul\":6283:6289   */\n      0x00\n        /* \"#utility.yul\":6291:6297   */\n      dup1\n        /* \"#utility.yul\":6299:6305   */\n      0x00\n        /* \"#utility.yul\":6348:6350   */\n      0x60\n        /* \"#utility.yul\":6336:6345   */\n      dup5\n        /* \"#utility.yul\":6327:6334   */\n      dup7\n        /* \"#utility.yul\":6323:6346   */\n      sub\n        /* \"#utility.yul\":6319:6351   */\n      slt\n        /* \"#utility.yul\":6316:6435   */\n      iszero\n      tag_453\n      jumpi\n        /* \"#utility.yul\":6354:6433   */\n      tag_454\n      tag_303\n      jump\t// in\n    tag_454:\n        /* \"#utility.yul\":6316:6435   */\n    tag_453:\n        /* \"#utility.yul\":6474:6475   */\n      0x00\n        /* \"#utility.yul\":6499:6552   */\n      tag_455\n        /* \"#utility.yul\":6544:6551   */\n      dup7\n        /* \"#utility.yul\":6535:6541   */\n      dup3\n        /* \"#utility.yul\":6524:6533   */\n      dup8\n        /* \"#utility.yul\":6520:6542   */\n      add\n        /* \"#utility.yul\":6499:6552   */\n      tag_318\n      jump\t// in\n    tag_455:\n        /* \"#utility.yul\":6489:6552   */\n      swap4\n      pop\n        /* \"#utility.yul\":6445:6562   */\n      pop\n        /* \"#utility.yul\":6629:6631   */\n      0x20\n        /* \"#utility.yul\":6618:6627   */\n      dup5\n        /* \"#utility.yul\":6614:6632   */\n      add\n        /* \"#utility.yul\":6601:6633   */\n      calldataload\n        /* \"#utility.yul\":6660:6678   */\n      0xffffffffffffffff\n        /* \"#utility.yul\":6652:6658   */\n      dup2\n        /* \"#utility.yul\":6649:6679   */\n      gt\n        /* \"#utility.yul\":6646:6763   */\n      iszero\n      tag_456\n      jumpi\n        /* \"#utility.yul\":6682:6761   */\n      tag_457\n      tag_304\n      jump\t// in\n    tag_457:\n        /* \"#utility.yul\":6646:6763   */\n    tag_456:\n        /* \"#utility.yul\":6787:6850   */\n      tag_458\n        /* \"#utility.yul\":6842:6849   */\n      dup7\n        /* \"#utility.yul\":6833:6839   */\n      dup3\n        /* \"#utility.yul\":6822:6831   */\n      dup8\n        /* \"#utility.yul\":6818:6840   */\n      add\n        /* \"#utility.yul\":6787:6850   */\n      tag_326\n      jump\t// in\n    tag_458:\n        /* \"#utility.yul\":6777:6850   */\n      swap3\n      pop\n        /* \"#utility.yul\":6572:6860   */\n      pop\n        /* \"#utility.yul\":6899:6901   */\n      0x40\n        /* \"#utility.yul\":6925:6978   */\n      tag_459\n        /* \"#utility.yul\":6970:6977   */\n      dup7\n        /* \"#utility.yul\":6961:6967   */\n      dup3\n        /* \"#utility.yul\":6950:6959   */\n      dup8\n        /* \"#utility.yul\":6946:6968   */\n      add\n        /* \"#utility.yul\":6925:6978   */\n      tag_318\n      jump\t// in\n    tag_459:\n        /* \"#utility.yul\":6915:6978   */\n      swap2\n      pop\n        /* \"#utility.yul\":6870:6988   */\n      pop\n        /* \"#utility.yul\":6196:6995   */\n      swap3\n      pop\n      swap3\n      pop\n      swap3\n      jump\t// out\n        /* \"#utility.yul\":7001:8493   */\n    tag_45:\n        /* \"#utility.yul\":7406:7410   */\n      0x00\n        /* \"#utility.yul\":7444:7447   */\n      0x0140\n        /* \"#utility.yul\":7433:7442   */\n      dup3\n        /* \"#utility.yul\":7429:7448   */\n      add\n        /* \"#utility.yul\":7421:7448   */\n      swap1\n      pop\n        /* \"#utility.yul\":7494:7503   */\n      dup2\n        /* \"#utility.yul\":7488:7492   */\n      dup2\n        /* \"#utility.yul\":7484:7504   */\n      sub\n        /* \"#utility.yul\":7480:7481   */\n      0x00\n        /* \"#utility.yul\":7469:7478   */\n      dup4\n        /* \"#utility.yul\":7465:7482   */\n      add\n        /* \"#utility.yul\":7458:7505   */\n      mstore\n        /* \"#utility.yul\":7522:7600   */\n      tag_461\n        /* \"#utility.yul\":7595:7599   */\n      dup2\n        /* \"#utility.yul\":7586:7592   */\n      dup14\n        /* \"#utility.yul\":7522:7600   */\n      tag_312\n      jump\t// in\n    tag_461:\n        /* \"#utility.yul\":7514:7600   */\n      swap1\n      pop\n        /* \"#utility.yul\":7647:7656   */\n      dup2\n        /* \"#utility.yul\":7641:7645   */\n      dup2\n        /* \"#utility.yul\":7637:7657   */\n      sub\n        /* \"#utility.yul\":7632:7634   */\n      0x20\n        /* \"#utility.yul\":7621:7630   */\n      dup4\n        /* \"#utility.yul\":7617:7635   */\n      add\n        /* \"#utility.yul\":7610:7658   */\n      mstore\n        /* \"#utility.yul\":7675:7753   */\n      tag_462\n        /* \"#utility.yul\":7748:7752   */\n      dup2\n        /* \"#utility.yul\":7739:7745   */\n      dup13\n        /* \"#utility.yul\":7675:7753   */\n      tag_312\n      jump\t// in\n    tag_462:\n        /* \"#utility.yul\":7667:7753   */\n      swap1\n      pop\n        /* \"#utility.yul\":7800:7809   */\n      dup2\n        /* \"#utility.yul\":7794:7798   */\n      dup2\n        /* \"#utility.yul\":7790:7810   */\n      sub\n        /* \"#utility.yul\":7785:7787   */\n      0x40\n        /* \"#utility.yul\":7774:7783   */\n      dup4\n        /* \"#utility.yul\":7770:7788   */\n      add\n        /* \"#utility.yul\":7763:7811   */\n      mstore\n        /* \"#utility.yul\":7828:7906   */\n      tag_463\n        /* \"#utility.yul\":7901:7905   */\n      dup2\n        /* \"#utility.yul\":7892:7898   */\n      dup12\n        /* \"#utility.yul\":7828:7906   */\n      tag_312\n      jump\t// in\n    tag_463:\n        /* \"#utility.yul\":7820:7906   */\n      swap1\n      pop\n        /* \"#utility.yul\":7916:7988   */\n      tag_464\n        /* \"#utility.yul\":7984:7986   */\n      0x60\n        /* \"#utility.yul\":7973:7982   */\n      dup4\n        /* \"#utility.yul\":7969:7987   */\n      add\n        /* \"#utility.yul\":7960:7966   */\n      dup11\n        /* \"#utility.yul\":7916:7988   */\n      tag_316\n      jump\t// in\n    tag_464:\n        /* \"#utility.yul\":7998:8071   */\n      tag_465\n        /* \"#utility.yul\":8066:8069   */\n      0x80\n        /* \"#utility.yul\":8055:8064   */\n      dup4\n        /* \"#utility.yul\":8051:8070   */\n      add\n        /* \"#utility.yul\":8042:8048   */\n      dup10\n        /* \"#utility.yul\":7998:8071   */\n      tag_316\n      jump\t// in\n    tag_465:\n        /* \"#utility.yul\":8081:8154   */\n      tag_466\n        /* \"#utility.yul\":8149:8152   */\n      0xa0\n        /* \"#utility.yul\":8138:8147   */\n      dup4\n        /* \"#utility.yul\":8134:8153   */\n      add\n        /* \"#utility.yul\":8125:8131   */\n      dup9\n        /* \"#utility.yul\":8081:8154   */\n      tag_316\n      jump\t// in\n    tag_466:\n        /* \"#utility.yul\":8164:8237   */\n      tag_467\n        /* \"#utility.yul\":8232:8235   */\n      0xc0\n        /* \"#utility.yul\":8221:8230   */\n      dup4\n        /* \"#utility.yul\":8217:8236   */\n      add\n        /* \"#utility.yul\":8208:8214   */\n      dup8\n        /* \"#utility.yul\":8164:8237   */\n      tag_316\n      jump\t// in\n    tag_467:\n        /* \"#utility.yul\":8247:8320   */\n      tag_468\n        /* \"#utility.yul\":8315:8318   */\n      0xe0\n        /* \"#utility.yul\":8304:8313   */\n      dup4\n        /* \"#utility.yul\":8300:8319   */\n      add\n        /* \"#utility.yul\":8291:8297   */\n      dup7\n        /* \"#utility.yul\":8247:8320   */\n      tag_316\n      jump\t// in\n    tag_468:\n        /* \"#utility.yul\":8330:8403   */\n      tag_469\n        /* \"#utility.yul\":8398:8401   */\n      0x0100\n        /* \"#utility.yul\":8387:8396   */\n      dup4\n        /* \"#utility.yul\":8383:8402   */\n      add\n        /* \"#utility.yul\":8374:8380   */\n      dup6\n        /* \"#utility.yul\":8330:8403   */\n      tag_316\n      jump\t// in\n    tag_469:\n        /* \"#utility.yul\":8413:8486   */\n      tag_470\n        /* \"#utility.yul\":8481:8484   */\n      0x0120\n        /* \"#utility.yul\":8470:8479   */\n      dup4\n        /* \"#utility.yul\":8466:8485   */\n      add\n        /* \"#utility.yul\":8457:8463   */\n      dup5\n        /* \"#utility.yul\":8413:8486   */\n      tag_316\n      jump\t// in\n    tag_470:\n        /* \"#utility.yul\":7001:8493   */\n      swap12\n      swap11\n      pop\n      pop\n      pop\n      pop\n      pop\n      pop\n      pop\n      pop\n      pop\n      pop\n      pop\n      jump\t// out\n        /* \"#utility.yul\":8499:8642   */\n    tag_327:\n        /* \"#utility.yul\":8595:8601   */\n      0x00\n        /* \"#utility.yul\":8629:8634   */\n      dup2\n        /* \"#utility.yul\":8623:8635   */\n      mload\n        /* \"#utility.yul\":8613:8635   */\n      swap1\n      pop\n        /* \"#utility.yul\":8499:8642   */\n      swap2\n      swap1\n      pop\n      jump\t// out\n        /* \"#utility.yul\":8648:8861   */\n    tag_328:\n        /* \"#utility.yul\":8776:8787   */\n      0x00\n        /* \"#utility.yul\":8810:8816   */\n      dup3\n        /* \"#utility.yul\":8805:8808   */\n      dup3\n        /* \"#utility.yul\":8798:8817   */\n      mstore\n        /* \"#utility.yul\":8850:8854   */\n      0x20\n        /* \"#utility.yul\":8845:8848   */\n      dup3\n        /* \"#utility.yul\":8841:8855   */\n      add\n        /* \"#utility.yul\":8826:8855   */\n      swap1\n      pop\n        /* \"#utility.yul\":8648:8861   */\n      swap3\n      swap2\n      pop\n      pop\n      jump\t// out\n        /* \"#utility.yul\":8867:9028   */\n    tag_329:\n        /* \"#utility.yul\":8963:8967   */\n      0x00\n        /* \"#utility.yul\":8986:8989   */\n      dup2\n        /* \"#utility.yul\":8978:8989   */\n      swap1\n      pop\n        /* \"#utility.yul\":9016:9020   */\n      0x20\n        /* \"#utility.yul\":9011:9014   */\n      dup3\n        /* \"#utility.yul\":9007:9021   */\n      add\n        /* \"#utility.yul\":8999:9021   */\n      swap1\n      pop\n        /* \"#utility.yul\":8867:9028   */\n      swap2\n      swap1\n      pop\n      jump\t// out\n        /* \"#utility.yul\":9034:9142   */\n    tag_330:\n        /* \"#utility.yul\":9111:9135   */\n      tag_475\n        /* \"#utility.yul\":9129:9134   */\n      dup2\n        /* \"#utility.yul\":9111:9135   */\n      tag_314\n      jump\t// in\n    tag_475:\n        /* \"#utility.yul\":9106:9109   */\n      dup3\n        /* \"#utility.yul\":9099:9136   */\n      mstore\n        /* \"#utility.yul\":9034:9142   */\n      pop\n      pop\n      jump\t// out\n        /* \"#utility.yul\":9148:9307   */\n    tag_331:\n        /* \"#utility.yul\":9222:9233   */\n      0x00\n        /* \"#utility.yul\":9256:9262   */\n      dup3\n        /* \"#utility.yul\":9251:9254   */\n      dup3\n        /* \"#utility.yul\":9244:9263   */\n      mstore\n        /* \"#utility.yul\":9296:9300   */\n      0x20\n        /* \"#utility.yul\":9291:9294   */\n      dup3\n        /* \"#utility.yul\":9287:9301   */\n      add\n        /* \"#utility.yul\":9272:9301   */\n      swap1\n      pop\n        /* \"#utility.yul\":9148:9307   */\n      swap3\n      swap2\n      pop\n      pop\n      jump\t// out\n        /* \"#utility.yul\":9313:9670   */\n    tag_332:\n        /* \"#utility.yul\":9391:9394   */\n      0x00\n        /* \"#utility.yul\":9419:9458   */\n      tag_478\n        /* \"#utility.yul\":9452:9457   */\n      dup3\n        /* \"#utility.yul\":9419:9458   */\n      tag_308\n      jump\t// in\n    tag_478:\n        /* \"#utility.yul\":9474:9535   */\n      tag_479\n        /* \"#utility.yul\":9528:9534   */\n      dup2\n        /* \"#utility.yul\":9523:9526   */\n      dup6\n        /* \"#utility.yul\":9474:9535   */\n      tag_331\n      jump\t// in\n    tag_479:\n        /* \"#utility.yul\":9467:9535   */\n      swap4\n      pop\n        /* \"#utility.yul\":9544:9609   */\n      tag_480\n        /* \"#utility.yul\":9602:9608   */\n      dup2\n        /* \"#utility.yul\":9597:9600   */\n      dup6\n        /* \"#utility.yul\":9590:9594   */\n      0x20\n        /* \"#utility.yul\":9583:9588   */\n      dup7\n        /* \"#utility.yul\":9579:9595   */\n      add\n        /* \"#utility.yul\":9544:9609   */\n      tag_310\n      jump\t// in\n    tag_480:\n        /* \"#utility.yul\":9634:9663   */\n      tag_481\n        /* \"#utility.yul\":9656:9662   */\n      dup2\n        /* \"#utility.yul\":9634:9663   */\n      tag_311\n      jump\t// in\n    tag_481:\n        /* \"#utility.yul\":9629:9632   */\n      dup5\n        /* \"#utility.yul\":9625:9664   */\n      add\n        /* \"#utility.yul\":9618:9664   */\n      swap2\n      pop\n        /* \"#utility.yul\":9395:9670   */\n      pop\n        /* \"#utility.yul\":9313:9670   */\n      swap3\n      swap2\n      pop\n      pop\n      jump\t// out\n        /* \"#utility.yul\":9676:9784   */\n    tag_333:\n        /* \"#utility.yul\":9753:9777   */\n      tag_483\n        /* \"#utility.yul\":9771:9776   */\n      dup2\n        /* \"#utility.yul\":9753:9777   */\n      tag_305\n      jump\t// in\n    tag_483:\n        /* \"#utility.yul\":9748:9751   */\n      dup3\n        /* \"#utility.yul\":9741:9778   */\n      mstore\n        /* \"#utility.yul\":9676:9784   */\n      pop\n      pop\n      jump\t// out\n        /* \"#utility.yul\":9886:11276   */\n    tag_334:\n        /* \"#utility.yul\":10003:10006   */\n      0x00\n        /* \"#utility.yul\":10039:10043   */\n      0xc0\n        /* \"#utility.yul\":10034:10037   */\n      dup4\n        /* \"#utility.yul\":10030:10044   */\n      add\n        /* \"#utility.yul\":10127:10131   */\n      0x00\n        /* \"#utility.yul\":10120:10125   */\n      dup4\n        /* \"#utility.yul\":10116:10132   */\n      add\n        /* \"#utility.yul\":10110:10133   */\n      mload\n        /* \"#utility.yul\":10146:10209   */\n      tag_485\n        /* \"#utility.yul\":10203:10207   */\n      0x00\n        /* \"#utility.yul\":10198:10201   */\n      dup7\n        /* \"#utility.yul\":10194:10208   */\n      add\n        /* \"#utility.yul\":10180:10192   */\n      dup3\n        /* \"#utility.yul\":10146:10209   */\n      tag_330\n      jump\t// in\n    tag_485:\n        /* \"#utility.yul\":10054:10219   */\n      pop\n        /* \"#utility.yul\":10302:10306   */\n      0x20\n        /* \"#utility.yul\":10295:10300   */\n      dup4\n        /* \"#utility.yul\":10291:10307   */\n      add\n        /* \"#utility.yul\":10285:10308   */\n      mload\n        /* \"#utility.yul\":10321:10384   */\n      tag_486\n        /* \"#utility.yul\":10378:10382   */\n      0x20\n        /* \"#utility.yul\":10373:10376   */\n      dup7\n        /* \"#utility.yul\":10369:10383   */\n      add\n        /* \"#utility.yul\":10355:10367   */\n      dup3\n        /* \"#utility.yul\":10321:10384   */\n      tag_330\n      jump\t// in\n    tag_486:\n        /* \"#utility.yul\":10229:10394   */\n      pop\n        /* \"#utility.yul\":10481:10485   */\n      0x40\n        /* \"#utility.yul\":10474:10479   */\n      dup4\n        /* \"#utility.yul\":10470:10486   */\n      add\n        /* \"#utility.yul\":10464:10487   */\n      mload\n        /* \"#utility.yul\":10534:10537   */\n      dup5\n        /* \"#utility.yul\":10528:10532   */\n      dup3\n        /* \"#utility.yul\":10524:10538   */\n      sub\n        /* \"#utility.yul\":10517:10521   */\n      0x40\n        /* \"#utility.yul\":10512:10515   */\n      dup7\n        /* \"#utility.yul\":10508:10522   */\n      add\n        /* \"#utility.yul\":10501:10539   */\n      mstore\n        /* \"#utility.yul\":10560:10633   */\n      tag_487\n        /* \"#utility.yul\":10628:10632   */\n      dup3\n        /* \"#utility.yul\":10614:10626   */\n      dup3\n        /* \"#utility.yul\":10560:10633   */\n      tag_332\n      jump\t// in\n    tag_487:\n        /* \"#utility.yul\":10552:10633   */\n      swap2\n      pop\n        /* \"#utility.yul\":10404:10644   */\n      pop\n        /* \"#utility.yul\":10731:10735   */\n      0x60\n        /* \"#utility.yul\":10724:10729   */\n      dup4\n        /* \"#utility.yul\":10720:10736   */\n      add\n        /* \"#utility.yul\":10714:10737   */\n      mload\n        /* \"#utility.yul\":10784:10787   */\n      dup5\n        /* \"#utility.yul\":10778:10782   */\n      dup3\n        /* \"#utility.yul\":10774:10788   */\n      sub\n        /* \"#utility.yul\":10767:10771   */\n      0x60\n        /* \"#utility.yul\":10762:10765   */\n      dup7\n        /* \"#utility.yul\":10758:10772   */\n      add\n        /* \"#utility.yul\":10751:10789   */\n      mstore\n        /* \"#utility.yul\":10810:10883   */\n      tag_488\n        /* \"#utility.yul\":10878:10882   */\n      dup3\n        /* \"#utility.yul\":10864:10876   */\n      dup3\n        /* \"#utility.yul\":10810:10883   */\n      tag_332\n      jump\t// in\n    tag_488:\n        /* \"#utility.yul\":10802:10883   */\n      swap2\n      pop\n        /* \"#utility.yul\":10654:10894   */\n      pop\n        /* \"#utility.yul\":10978:10982   */\n      0x80\n        /* \"#utility.yul\":10971:10976   */\n      dup4\n        /* \"#utility.yul\":10967:10983   */\n      add\n        /* \"#utility.yul\":10961:10984   */\n      mload\n        /* \"#utility.yul\":10997:11060   */\n      tag_489\n        /* \"#utility.yul\":11054:11058   */\n      0x80\n        /* \"#utility.yul\":11049:11052   */\n      dup7\n        /* \"#utility.yul\":11045:11059   */\n      add\n        /* \"#utility.yul\":11031:11043   */\n      dup3\n        /* \"#utility.yul\":10997:11060   */\n      tag_333\n      jump\t// in\n    tag_489:\n        /* \"#utility.yul\":10904:11070   */\n      pop\n        /* \"#utility.yul\":11157:11161   */\n      0xa0\n        /* \"#utility.yul\":11150:11155   */\n      dup4\n        /* \"#utility.yul\":11146:11162   */\n      add\n        /* \"#utility.yul\":11140:11163   */\n      mload\n        /* \"#utility.yul\":11176:11239   */\n      tag_490\n        /* \"#utility.yul\":11233:11237   */\n      0xa0\n        /* \"#utility.yul\":11228:11231   */\n      dup7\n        /* \"#utility.yul\":11224:11238   */\n      add\n        /* \"#utility.yul\":11210:11222   */\n      dup3\n        /* \"#utility.yul\":11176:11239   */\n      tag_333\n      jump\t// in\n    tag_490:\n        /* \"#utility.yul\":11080:11249   */\n      pop\n        /* \"#utility.yul\":11266:11270   */\n      dup1\n        /* \"#utility.yul\":11259:11270   */\n      swap2\n      pop\n        /* \"#utility.yul\":10008:11276   */\n      pop\n        /* \"#utility.yul\":9886:11276   */\n      swap3\n      swap2\n      pop\n      pop\n      jump\t// out\n        /* \"#utility.yul\":11282:11554   */\n    tag_335:\n        /* \"#utility.yul\":11409:11419   */\n      0x00\n        /* \"#utility.yul\":11444:11548   */\n      tag_492\n        /* \"#utility.yul\":11544:11547   */\n      dup4\n        /* \"#utility.yul\":11536:11542   */\n      dup4\n        /* \"#utility.yul\":11444:11548   */\n      tag_334\n      jump\t// in\n    tag_492:\n        /* \"#utility.yul\":11430:11548   */\n      swap1\n      pop\n        /* \"#utility.yul\":11282:11554   */\n      swap3\n      swap2\n      pop\n      pop\n      jump\t// out\n        /* \"#utility.yul\":11560:11702   */\n    tag_336:\n        /* \"#utility.yul\":11659:11663   */\n      0x00\n        /* \"#utility.yul\":11691:11695   */\n      0x20\n        /* \"#utility.yul\":11686:11689   */\n      dup3\n        /* \"#utility.yul\":11682:11696   */\n      add\n        /* \"#utility.yul\":11674:11696   */\n      swap1\n      pop\n        /* \"#utility.yul\":11560:11702   */\n      swap2\n      swap1\n      pop\n      jump\t// out\n        /* \"#utility.yul\":11808:12951   */\n    tag_337:\n        /* \"#utility.yul\":11985:11988   */\n      0x00\n        /* \"#utility.yul\":12014:12097   */\n      tag_495\n        /* \"#utility.yul\":12091:12096   */\n      dup3\n        /* \"#utility.yul\":12014:12097   */\n      tag_327\n      jump\t// in\n    tag_495:\n        /* \"#utility.yul\":12113:12228   */\n      tag_496\n        /* \"#utility.yul\":12221:12227   */\n      dup2\n        /* \"#utility.yul\":12216:12219   */\n      dup6\n        /* \"#utility.yul\":12113:12228   */\n      tag_328\n      jump\t// in\n    tag_496:\n        /* \"#utility.yul\":12106:12228   */\n      swap4\n      pop\n        /* \"#utility.yul\":12254:12257   */\n      dup4\n        /* \"#utility.yul\":12299:12303   */\n      0x20\n        /* \"#utility.yul\":12291:12297   */\n      dup3\n        /* \"#utility.yul\":12287:12304   */\n      mul\n        /* \"#utility.yul\":12282:12285   */\n      dup6\n        /* \"#utility.yul\":12278:12305   */\n      add\n        /* \"#utility.yul\":12329:12414   */\n      tag_497\n        /* \"#utility.yul\":12408:12413   */\n      dup6\n        /* \"#utility.yul\":12329:12414   */\n      tag_329\n      jump\t// in\n    tag_497:\n        /* \"#utility.yul\":12437:12444   */\n      dup1\n        /* \"#utility.yul\":12468:12469   */\n      0x00\n        /* \"#utility.yul\":12453:12906   */\n    tag_498:\n        /* \"#utility.yul\":12478:12484   */\n      dup6\n        /* \"#utility.yul\":12475:12476   */\n      dup2\n        /* \"#utility.yul\":12472:12485   */\n      lt\n        /* \"#utility.yul\":12453:12906   */\n      iszero\n      tag_500\n      jumpi\n        /* \"#utility.yul\":12549:12558   */\n      dup5\n        /* \"#utility.yul\":12543:12547   */\n      dup5\n        /* \"#utility.yul\":12539:12559   */\n      sub\n        /* \"#utility.yul\":12534:12537   */\n      dup10\n        /* \"#utility.yul\":12527:12560   */\n      mstore\n        /* \"#utility.yul\":12600:12606   */\n      dup2\n        /* \"#utility.yul\":12594:12607   */\n      mload\n        /* \"#utility.yul\":12628:12750   */\n      tag_501\n        /* \"#utility.yul\":12745:12749   */\n      dup6\n        /* \"#utility.yul\":12730:12743   */\n      dup3\n        /* \"#utility.yul\":12628:12750   */\n      tag_335\n      jump\t// in\n    tag_501:\n        /* \"#utility.yul\":12620:12750   */\n      swap5\n      pop\n        /* \"#utility.yul\":12773:12862   */\n      tag_502\n        /* \"#utility.yul\":12855:12861   */\n      dup4\n        /* \"#utility.yul\":12773:12862   */\n      tag_336\n      jump\t// in\n    tag_502:\n        /* \"#utility.yul\":12763:12862   */\n      swap3\n      pop\n        /* \"#utility.yul\":12891:12895   */\n      0x20\n        /* \"#utility.yul\":12886:12889   */\n      dup11\n        /* \"#utility.yul\":12882:12896   */\n      add\n        /* \"#utility.yul\":12875:12896   */\n      swap10\n      pop\n        /* \"#utility.yul\":12513:12906   */\n      pop\n        /* \"#utility.yul\":12500:12501   */\n      0x01\n        /* \"#utility.yul\":12497:12498   */\n      dup2\n        /* \"#utility.yul\":12493:12502   */\n      add\n        /* \"#utility.yul\":12488:12502   */\n      swap1\n      pop\n        /* \"#utility.yul\":12453:12906   */\n      jump(tag_498)\n    tag_500:\n        /* \"#utility.yul\":12457:12471   */\n      pop\n        /* \"#utility.yul\":12922:12926   */\n      dup3\n        /* \"#utility.yul\":12915:12926   */\n      swap8\n      pop\n        /* \"#utility.yul\":12942:12945   */\n      dup8\n        /* \"#utility.yul\":12935:12945   */\n      swap6\n      pop\n        /* \"#utility.yul\":11990:12951   */\n      pop\n      pop\n      pop\n      pop\n      pop\n        /* \"#utility.yul\":11808:12951   */\n      swap3\n      swap2\n      pop\n      pop\n      jump\t// out\n        /* \"#utility.yul\":12957:13446   */\n    tag_50:\n        /* \"#utility.yul\":13158:13162   */\n      0x00\n        /* \"#utility.yul\":13196:13198   */\n      0x20\n        /* \"#utility.yul\":13185:13194   */\n      dup3\n        /* \"#utility.yul\":13181:13199   */\n      add\n        /* \"#utility.yul\":13173:13199   */\n      swap1\n      pop\n        /* \"#utility.yul\":13245:13254   */\n      dup2\n        /* \"#utility.yul\":13239:13243   */\n      dup2\n        /* \"#utility.yul\":13235:13255   */\n      sub\n        /* \"#utility.yul\":13231:13232   */\n      0x00\n        /* \"#utility.yul\":13220:13229   */\n      dup4\n        /* \"#utility.yul\":13216:13233   */\n      add\n        /* \"#utility.yul\":13209:13256   */\n      mstore\n        /* \"#utility.yul\":13273:13439   */\n      tag_504\n        /* \"#utility.yul\":13434:13438   */\n      dup2\n        /* \"#utility.yul\":13425:13431   */\n      dup5\n        /* \"#utility.yul\":13273:13439   */\n      tag_337\n      jump\t// in\n    tag_504:\n        /* \"#utility.yul\":13265:13439   */\n      swap1\n      pop\n        /* \"#utility.yul\":12957:13446   */\n      swap3\n      swap2\n      pop\n      pop\n      jump\t// out\n        /* \"#utility.yul\":13452:13781   */\n    tag_54:\n        /* \"#utility.yul\":13511:13517   */\n      0x00\n        /* \"#utility.yul\":13560:13562   */\n      0x20\n        /* \"#utility.yul\":13548:13557   */\n      dup3\n        /* \"#utility.yul\":13539:13546   */\n      dup5\n        /* \"#utility.yul\":13535:13558   */\n      sub\n        /* \"#utility.yul\":13531:13563   */\n      slt\n        /* \"#utility.yul\":13528:13647   */\n      iszero\n      tag_506\n      jumpi\n        /* \"#utility.yul\":13566:13645   */\n      tag_507\n      tag_303\n      jump\t// in\n    tag_507:\n        /* \"#utility.yul\":13528:13647   */\n    tag_506:\n        /* \"#utility.yul\":13686:13687   */\n      0x00\n        /* \"#utility.yul\":13711:13764   */\n      tag_508\n        /* \"#utility.yul\":13756:13763   */\n      dup5\n        /* \"#utility.yul\":13747:13753   */\n      dup3\n        /* \"#utility.yul\":13736:13745   */\n      dup6\n        /* \"#utility.yul\":13732:13754   */\n      add\n        /* \"#utility.yul\":13711:13764   */\n      tag_318\n      jump\t// in\n    tag_508:\n        /* \"#utility.yul\":13701:13764   */\n      swap2\n      pop\n        /* \"#utility.yul\":13657:13774   */\n      pop\n        /* \"#utility.yul\":13452:13781   */\n      swap3\n      swap2\n      pop\n      pop\n      jump\t// out\n        /* \"#utility.yul\":13787:14009   */\n    tag_57:\n        /* \"#utility.yul\":13880:13884   */\n      0x00\n        /* \"#utility.yul\":13918:13920   */\n      0x20\n        /* \"#utility.yul\":13907:13916   */\n      dup3\n        /* \"#utility.yul\":13903:13921   */\n      add\n        /* \"#utility.yul\":13895:13921   */\n      swap1\n      pop\n        /* \"#utility.yul\":13931:14002   */\n      tag_510\n        /* \"#utility.yul\":13999:14000   */\n      0x00\n        /* \"#utility.yul\":13988:13997   */\n      dup4\n        /* \"#utility.yul\":13984:14001   */\n      add\n        /* \"#utility.yul\":13975:13981   */\n      dup5\n        /* \"#utility.yul\":13931:14002   */\n      tag_316\n      jump\t// in\n    tag_510:\n        /* \"#utility.yul\":13787:14009   */\n      swap3\n      swap2\n      pop\n      pop\n      jump\t// out\n        /* \"#utility.yul\":14015:14489   */\n    tag_66:\n        /* \"#utility.yul\":14083:14089   */\n      0x00\n        /* \"#utility.yul\":14091:14097   */\n      dup1\n        /* \"#utility.yul\":14140:14142   */\n      0x40\n        /* \"#utility.yul\":14128:14137   */\n      dup4\n        /* \"#utility.yul\":14119:14126   */\n      dup6\n        /* \"#utility.yul\":14115:14138   */\n      sub\n        /* \"#utility.yul\":14111:14143   */\n      slt\n        /* \"#utility.yul\":14108:14227   */\n      iszero\n      tag_512\n      jumpi\n        /* \"#utility.yul\":14146:14225   */\n      tag_513\n      tag_303\n      jump\t// in\n    tag_513:\n        /* \"#utility.yul\":14108:14227   */\n    tag_512:\n        /* \"#utility.yul\":14266:14267   */\n      0x00\n        /* \"#utility.yul\":14291:14344   */\n      tag_514\n        /* \"#utility.yul\":14336:14343   */\n      dup6\n        /* \"#utility.yul\":14327:14333   */\n      dup3\n        /* \"#utility.yul\":14316:14325   */\n      dup7\n        /* \"#utility.yul\":14312:14334   */\n      add\n        /* \"#utility.yul\":14291:14344   */\n      tag_318\n      jump\t// in\n    tag_514:\n        /* \"#utility.yul\":14281:14344   */\n      swap3\n      pop\n        /* \"#utility.yul\":14237:14354   */\n      pop\n        /* \"#utility.yul\":14393:14395   */\n      0x20\n        /* \"#utility.yul\":14419:14472   */\n      tag_515\n        /* \"#utility.yul\":14464:14471   */\n      dup6\n        /* \"#utility.yul\":14455:14461   */\n      dup3\n        /* \"#utility.yul\":14444:14453   */\n      dup7\n        /* \"#utility.yul\":14440:14462   */\n      add\n        /* \"#utility.yul\":14419:14472   */\n      tag_307\n      jump\t// in\n    tag_515:\n        /* \"#utility.yul\":14409:14472   */\n      swap2\n      pop\n        /* \"#utility.yul\":14364:14482   */\n      pop\n        /* \"#utility.yul\":14015:14489   */\n      swap3\n      pop\n      swap3\n      swap1\n      pop\n      jump\t// out\n        /* \"#utility.yul\":14495:14717   */\n    tag_74:\n        /* \"#utility.yul\":14588:14592   */\n      0x00\n        /* \"#utility.yul\":14626:14628   */\n      0x20\n        /* \"#utility.yul\":14615:14624   */\n      dup3\n        /* \"#utility.yul\":14611:14629   */\n      add\n        /* \"#utility.yul\":14603:14629   */\n      swap1\n      pop\n        /* \"#utility.yul\":14639:14710   */\n      tag_517\n        /* \"#utility.yul\":14707:14708   */\n      0x00\n        /* \"#utility.yul\":14696:14705   */\n      dup4\n        /* \"#utility.yul\":14692:14709   */\n      add\n        /* \"#utility.yul\":14683:14689   */\n      dup5\n        /* \"#utility.yul\":14639:14710   */\n      tag_315\n      jump\t// in\n    tag_517:\n        /* \"#utility.yul\":14495:14717   */\n      swap3\n      swap2\n      pop\n      pop\n      jump\t// out\n        /* \"#utility.yul\":14723:15232   */\n    tag_78:\n        /* \"#utility.yul\":14792:14798   */\n      0x00\n        /* \"#utility.yul\":14841:14843   */\n      0x20\n        /* \"#utility.yul\":14829:14838   */\n      dup3\n        /* \"#utility.yul\":14820:14827   */\n      dup5\n        /* \"#utility.yul\":14816:14839   */\n      sub\n        /* \"#utility.yul\":14812:14844   */\n      slt\n        /* \"#utility.yul\":14809:14928   */\n      iszero\n      tag_519\n      jumpi\n        /* \"#utility.yul\":14847:14926   */\n      tag_520\n      tag_303\n      jump\t// in\n    tag_520:\n        /* \"#utility.yul\":14809:14928   */\n    tag_519:\n        /* \"#utility.yul\":14995:14996   */\n      0x00\n        /* \"#utility.yul\":14984:14993   */\n      dup3\n        /* \"#utility.yul\":14980:14997   */\n      add\n        /* \"#utility.yul\":14967:14998   */\n      calldataload\n        /* \"#utility.yul\":15025:15043   */\n      0xffffffffffffffff\n        /* \"#utility.yul\":15017:15023   */\n      dup2\n        /* \"#utility.yul\":15014:15044   */\n      gt\n        /* \"#utility.yul\":15011:15128   */\n      iszero\n      tag_521\n      jumpi\n        /* \"#utility.yul\":15047:15126   */\n      tag_522\n      tag_304\n      jump\t// in\n    tag_522:\n        /* \"#utility.yul\":15011:15128   */\n    tag_521:\n        /* \"#utility.yul\":15152:15215   */\n      tag_523\n        /* \"#utility.yul\":15207:15214   */\n      dup5\n        /* \"#utility.yul\":15198:15204   */\n      dup3\n        /* \"#utility.yul\":15187:15196   */\n      dup6\n        /* \"#utility.yul\":15183:15205   */\n      add\n        /* \"#utility.yul\":15152:15215   */\n      tag_326\n      jump\t// in\n    tag_523:\n        /* \"#utility.yul\":15142:15215   */\n      swap2\n      pop\n        /* \"#utility.yul\":14938:15225   */\n      pop\n        /* \"#utility.yul\":14723:15232   */\n      swap3\n      swap2\n      pop\n      pop\n      jump\t// out\n        /* \"#utility.yul\":15238:15362   */\n    tag_338:\n        /* \"#utility.yul\":15315:15321   */\n      0x00\n        /* \"#utility.yul\":15349:15354   */\n      dup2\n        /* \"#utility.yul\":15343:15355   */\n      mload\n        /* \"#utility.yul\":15333:15355   */\n      swap1\n      pop\n        /* \"#utility.yul\":15238:15362   */\n      swap2\n      swap1\n      pop\n      jump\t// out\n        /* \"#utility.yul\":15368:15562   */\n    tag_339:\n        /* \"#utility.yul\":15477:15488   */\n      0x00\n        /* \"#utility.yul\":15511:15517   */\n      dup3\n        /* \"#utility.yul\":15506:15509   */\n      dup3\n        /* \"#utility.yul\":15499:15518   */\n      mstore\n        /* \"#utility.yul\":15551:15555   */\n      0x20\n        /* \"#utility.yul\":15546:15549   */\n      dup3\n        /* \"#utility.yul\":15542:15556   */\n      add\n        /* \"#utility.yul\":15527:15556   */\n      swap1\n      pop\n        /* \"#utility.yul\":15368:15562   */\n      swap3\n      swap2\n      pop\n      pop\n      jump\t// out\n        /* \"#utility.yul\":15568:15710   */\n    tag_340:\n        /* \"#utility.yul\":15645:15649   */\n      0x00\n        /* \"#utility.yul\":15668:15671   */\n      dup2\n        /* \"#utility.yul\":15660:15671   */\n      swap1\n      pop\n        /* \"#utility.yul\":15698:15702   */\n      0x20\n        /* \"#utility.yul\":15693:15696   */\n      dup3\n        /* \"#utility.yul\":15689:15703   */\n      add\n        /* \"#utility.yul\":15681:15703   */\n      swap1\n      pop\n        /* \"#utility.yul\":15568:15710   */\n      swap2\n      swap1\n      pop\n      jump\t// out\n        /* \"#utility.yul\":15716:15912   */\n    tag_341:\n        /* \"#utility.yul\":15805:15815   */\n      0x00\n        /* \"#utility.yul\":15840:15906   */\n      tag_528\n        /* \"#utility.yul\":15902:15905   */\n      dup4\n        /* \"#utility.yul\":15894:15900   */\n      dup4\n        /* \"#utility.yul\":15840:15906   */\n      tag_332\n      jump\t// in\n    tag_528:\n        /* \"#utility.yul\":15826:15906   */\n      swap1\n      pop\n        /* \"#utility.yul\":15716:15912   */\n      swap3\n      swap2\n      pop\n      pop\n      jump\t// out\n        /* \"#utility.yul\":15918:16041   */\n    tag_342:\n        /* \"#utility.yul\":15998:16002   */\n      0x00\n        /* \"#utility.yul\":16030:16034   */\n      0x20\n        /* \"#utility.yul\":16025:16028   */\n      dup3\n        /* \"#utility.yul\":16021:16035   */\n      add\n        /* \"#utility.yul\":16013:16035   */\n      swap1\n      pop\n        /* \"#utility.yul\":15918:16041   */\n      swap2\n      swap1\n      pop\n      jump\t// out\n        /* \"#utility.yul\":16075:17066   */\n    tag_343:\n        /* \"#utility.yul\":16214:16217   */\n      0x00\n        /* \"#utility.yul\":16243:16307   */\n      tag_531\n        /* \"#utility.yul\":16301:16306   */\n      dup3\n        /* \"#utility.yul\":16243:16307   */\n      tag_338\n      jump\t// in\n    tag_531:\n        /* \"#utility.yul\":16323:16419   */\n      tag_532\n        /* \"#utility.yul\":16412:16418   */\n      dup2\n        /* \"#utility.yul\":16407:16410   */\n      dup6\n        /* \"#utility.yul\":16323:16419   */\n      tag_339\n      jump\t// in\n    tag_532:\n        /* \"#utility.yul\":16316:16419   */\n      swap4\n      pop\n        /* \"#utility.yul\":16445:16448   */\n      dup4\n        /* \"#utility.yul\":16490:16494   */\n      0x20\n        /* \"#utility.yul\":16482:16488   */\n      dup3\n        /* \"#utility.yul\":16478:16495   */\n      mul\n        /* \"#utility.yul\":16473:16476   */\n      dup6\n        /* \"#utility.yul\":16469:16496   */\n      add\n        /* \"#utility.yul\":16520:16586   */\n      tag_533\n        /* \"#utility.yul\":16580:16585   */\n      dup6\n        /* \"#utility.yul\":16520:16586   */\n      tag_340\n      jump\t// in\n    tag_533:\n        /* \"#utility.yul\":16609:16616   */\n      dup1\n        /* \"#utility.yul\":16640:16641   */\n      0x00\n        /* \"#utility.yul\":16625:17021   */\n    tag_534:\n        /* \"#utility.yul\":16650:16656   */\n      dup6\n        /* \"#utility.yul\":16647:16648   */\n      dup2\n        /* \"#utility.yul\":16644:16657   */\n      lt\n        /* \"#utility.yul\":16625:17021   */\n      iszero\n      tag_536\n      jumpi\n        /* \"#utility.yul\":16721:16730   */\n      dup5\n        /* \"#utility.yul\":16715:16719   */\n      dup5\n        /* \"#utility.yul\":16711:16731   */\n      sub\n        /* \"#utility.yul\":16706:16709   */\n      dup10\n        /* \"#utility.yul\":16699:16732   */\n      mstore\n        /* \"#utility.yul\":16772:16778   */\n      dup2\n        /* \"#utility.yul\":16766:16779   */\n      mload\n        /* \"#utility.yul\":16800:16884   */\n      tag_537\n        /* \"#utility.yul\":16879:16883   */\n      dup6\n        /* \"#utility.yul\":16864:16877   */\n      dup3\n        /* \"#utility.yul\":16800:16884   */\n      tag_341\n      jump\t// in\n    tag_537:\n        /* \"#utility.yul\":16792:16884   */\n      swap5\n      pop\n        /* \"#utility.yul\":16907:16977   */\n      tag_538\n        /* \"#utility.yul\":16970:16976   */\n      dup4\n        /* \"#utility.yul\":16907:16977   */\n      tag_342\n      jump\t// in\n    tag_538:\n        /* \"#utility.yul\":16897:16977   */\n      swap3\n      pop\n        /* \"#utility.yul\":17006:17010   */\n      0x20\n        /* \"#utility.yul\":17001:17004   */\n      dup11\n        /* \"#utility.yul\":16997:17011   */\n      add\n        /* \"#utility.yul\":16990:17011   */\n      swap10\n      pop\n        /* \"#utility.yul\":16685:17021   */\n      pop\n        /* \"#utility.yul\":16672:16673   */\n      0x01\n        /* \"#utility.yul\":16669:16670   */\n      dup2\n        /* \"#utility.yul\":16665:16674   */\n      add\n        /* \"#utility.yul\":16660:16674   */\n      swap1\n      pop\n        /* \"#utility.yul\":16625:17021   */\n      jump(tag_534)\n    tag_536:\n        /* \"#utility.yul\":16629:16643   */\n      pop\n        /* \"#utility.yul\":17037:17041   */\n      dup3\n        /* \"#utility.yul\":17030:17041   */\n      swap8\n      pop\n        /* \"#utility.yul\":17057:17060   */\n      dup8\n        /* \"#utility.yul\":17050:17060   */\n      swap6\n      pop\n        /* \"#utility.yul\":16219:17066   */\n      pop\n      pop\n      pop\n      pop\n      pop\n        /* \"#utility.yul\":16075:17066   */\n      swap3\n      swap2\n      pop\n      pop\n      jump\t// out\n        /* \"#utility.yul\":17072:17217   */\n    tag_344:\n        /* \"#utility.yul\":17170:17176   */\n      0x00\n        /* \"#utility.yul\":17204:17209   */\n      dup2\n        /* \"#utility.yul\":17198:17210   */\n      mload\n        /* \"#utility.yul\":17188:17210   */\n      swap1\n      pop\n        /* \"#utility.yul\":17072:17217   */\n      swap2\n      swap1\n      pop\n      jump\t// out\n        /* \"#utility.yul\":17223:17438   */\n    tag_345:\n        /* \"#utility.yul\":17353:17364   */\n      0x00\n        /* \"#utility.yul\":17387:17393   */\n      dup3\n        /* \"#utility.yul\":17382:17385   */\n      dup3\n        /* \"#utility.yul\":17375:17394   */\n      mstore\n        /* \"#utility.yul\":17427:17431   */\n      0x20\n        /* \"#utility.yul\":17422:17425   */\n      dup3\n        /* \"#utility.yul\":17418:17432   */\n      add\n        /* \"#utility.yul\":17403:17432   */\n      swap1\n      pop\n        /* \"#utility.yul\":17223:17438   */\n      swap3\n      swap2\n      pop\n      pop\n      jump\t// out\n        /* \"#utility.yul\":17444:17607   */\n    tag_346:\n        /* \"#utility.yul\":17542:17546   */\n      0x00\n        /* \"#utility.yul\":17565:17568   */\n      dup2\n        /* \"#utility.yul\":17557:17568   */\n      swap1\n      pop\n        /* \"#utility.yul\":17595:17599   */\n      0x20\n        /* \"#utility.yul\":17590:17593   */\n      dup3\n        /* \"#utility.yul\":17586:17600   */\n      add\n        /* \"#utility.yul\":17578:17600   */\n      swap1\n      pop\n        /* \"#utility.yul\":17444:17607   */\n      swap2\n      swap1\n      pop\n      jump\t// out\n        /* \"#utility.yul\":17713:19948   */\n    tag_347:\n        /* \"#utility.yul\":17834:17837   */\n      0x00\n        /* \"#utility.yul\":17870:17876   */\n      0x0140\n        /* \"#utility.yul\":17865:17868   */\n      dup4\n        /* \"#utility.yul\":17861:17877   */\n      add\n        /* \"#utility.yul\":17959:17963   */\n      0x00\n        /* \"#utility.yul\":17952:17957   */\n      dup4\n        /* \"#utility.yul\":17948:17964   */\n      add\n        /* \"#utility.yul\":17942:17965   */\n      mload\n        /* \"#utility.yul\":18012:18015   */\n      dup5\n        /* \"#utility.yul\":18006:18010   */\n      dup3\n        /* \"#utility.yul\":18002:18016   */\n      sub\n        /* \"#utility.yul\":17995:17999   */\n      0x00\n        /* \"#utility.yul\":17990:17993   */\n      dup7\n        /* \"#utility.yul\":17986:18000   */\n      add\n        /* \"#utility.yul\":17979:18017   */\n      mstore\n        /* \"#utility.yul\":18038:18111   */\n      tag_543\n        /* \"#utility.yul\":18106:18110   */\n      dup3\n        /* \"#utility.yul\":18092:18104   */\n      dup3\n        /* \"#utility.yul\":18038:18111   */\n      tag_332\n      jump\t// in\n    tag_543:\n        /* \"#utility.yul\":18030:18111   */\n      swap2\n      pop\n        /* \"#utility.yul\":17887:18122   */\n      pop\n        /* \"#utility.yul\":18206:18210   */\n      0x20\n        /* \"#utility.yul\":18199:18204   */\n      dup4\n        /* \"#utility.yul\":18195:18211   */\n      add\n        /* \"#utility.yul\":18189:18212   */\n      mload\n        /* \"#utility.yul\":18259:18262   */\n      dup5\n        /* \"#utility.yul\":18253:18257   */\n      dup3\n        /* \"#utility.yul\":18249:18263   */\n      sub\n        /* \"#utility.yul\":18242:18246   */\n      0x20\n        /* \"#utility.yul\":18237:18240   */\n      dup7\n        /* \"#utility.yul\":18233:18247   */\n      add\n        /* \"#utility.yul\":18226:18264   */\n      mstore\n        /* \"#utility.yul\":18285:18358   */\n      tag_544\n        /* \"#utility.yul\":18353:18357   */\n      dup3\n        /* \"#utility.yul\":18339:18351   */\n      dup3\n        /* \"#utility.yul\":18285:18358   */\n      tag_332\n      jump\t// in\n    tag_544:\n        /* \"#utility.yul\":18277:18358   */\n      swap2\n      pop\n        /* \"#utility.yul\":18132:18369   */\n      pop\n        /* \"#utility.yul\":18462:18466   */\n      0x40\n        /* \"#utility.yul\":18455:18460   */\n      dup4\n        /* \"#utility.yul\":18451:18467   */\n      add\n        /* \"#utility.yul\":18445:18468   */\n      mload\n        /* \"#utility.yul\":18515:18518   */\n      dup5\n        /* \"#utility.yul\":18509:18513   */\n      dup3\n        /* \"#utility.yul\":18505:18519   */\n      sub\n        /* \"#utility.yul\":18498:18502   */\n      0x40\n        /* \"#utility.yul\":18493:18496   */\n      dup7\n        /* \"#utility.yul\":18489:18503   */\n      add\n        /* \"#utility.yul\":18482:18520   */\n      mstore\n        /* \"#utility.yul\":18541:18614   */\n      tag_545\n        /* \"#utility.yul\":18609:18613   */\n      dup3\n        /* \"#utility.yul\":18595:18607   */\n      dup3\n        /* \"#utility.yul\":18541:18614   */\n      tag_332\n      jump\t// in\n    tag_545:\n        /* \"#utility.yul\":18533:18614   */\n      swap2\n      pop\n        /* \"#utility.yul\":18379:18625   */\n      pop\n        /* \"#utility.yul\":18719:18723   */\n      0x60\n        /* \"#utility.yul\":18712:18717   */\n      dup4\n        /* \"#utility.yul\":18708:18724   */\n      add\n        /* \"#utility.yul\":18702:18725   */\n      mload\n        /* \"#utility.yul\":18738:18801   */\n      tag_546\n        /* \"#utility.yul\":18795:18799   */\n      0x60\n        /* \"#utility.yul\":18790:18793   */\n      dup7\n        /* \"#utility.yul\":18786:18800   */\n      add\n        /* \"#utility.yul\":18772:18784   */\n      dup3\n        /* \"#utility.yul\":18738:18801   */\n      tag_333\n      jump\t// in\n    tag_546:\n        /* \"#utility.yul\":18635:18811   */\n      pop\n        /* \"#utility.yul\":18907:18911   */\n      0x80\n        /* \"#utility.yul\":18900:18905   */\n      dup4\n        /* \"#utility.yul\":18896:18912   */\n      add\n        /* \"#utility.yul\":18890:18913   */\n      mload\n        /* \"#utility.yul\":18926:18989   */\n      tag_547\n        /* \"#utility.yul\":18983:18987   */\n      0x80\n        /* \"#utility.yul\":18978:18981   */\n      dup7\n        /* \"#utility.yul\":18974:18988   */\n      add\n        /* \"#utility.yul\":18960:18972   */\n      dup3\n        /* \"#utility.yul\":18926:18989   */\n      tag_333\n      jump\t// in\n    tag_547:\n        /* \"#utility.yul\":18821:18999   */\n      pop\n        /* \"#utility.yul\":19089:19093   */\n      0xa0\n        /* \"#utility.yul\":19082:19087   */\n      dup4\n        /* \"#utility.yul\":19078:19094   */\n      add\n        /* \"#utility.yul\":19072:19095   */\n      mload\n        /* \"#utility.yul\":19108:19171   */\n      tag_548\n        /* \"#utility.yul\":19165:19169   */\n      0xa0\n        /* \"#utility.yul\":19160:19163   */\n      dup7\n        /* \"#utility.yul\":19156:19170   */\n      add\n        /* \"#utility.yul\":19142:19154   */\n      dup3\n        /* \"#utility.yul\":19108:19171   */\n      tag_333\n      jump\t// in\n    tag_548:\n        /* \"#utility.yul\":19009:19181   */\n      pop\n        /* \"#utility.yul\":19276:19280   */\n      0xc0\n        /* \"#utility.yul\":19269:19274   */\n      dup4\n        /* \"#utility.yul\":19265:19281   */\n      add\n        /* \"#utility.yul\":19259:19282   */\n      mload\n        /* \"#utility.yul\":19295:19358   */\n      tag_549\n        /* \"#utility.yul\":19352:19356   */\n      0xc0\n        /* \"#utility.yul\":19347:19350   */\n      dup7\n        /* \"#utility.yul\":19343:19357   */\n      add\n        /* \"#utility.yul\":19329:19341   */\n      dup3\n        /* \"#utility.yul\":19295:19358   */\n      tag_333\n      jump\t// in\n    tag_549:\n        /* \"#utility.yul\":19191:19368   */\n      pop\n        /* \"#utility.yul\":19460:19464   */\n      0xe0\n        /* \"#utility.yul\":19453:19458   */\n      dup4\n        /* \"#utility.yul\":19449:19465   */\n      add\n        /* \"#utility.yul\":19443:19466   */\n      mload\n        /* \"#utility.yul\":19479:19542   */\n      tag_550\n        /* \"#utility.yul\":19536:19540   */\n      0xe0\n        /* \"#utility.yul\":19531:19534   */\n      dup7\n        /* \"#utility.yul\":19527:19541   */\n      add\n        /* \"#utility.yul\":19513:19525   */\n      dup3\n        /* \"#utility.yul\":19479:19542   */\n      tag_333\n      jump\t// in\n    tag_550:\n        /* \"#utility.yul\":19378:19552   */\n      pop\n        /* \"#utility.yul\":19643:19649   */\n      0x0100\n        /* \"#utility.yul\":19636:19641   */\n      dup4\n        /* \"#utility.yul\":19632:19650   */\n      add\n        /* \"#utility.yul\":19626:19651   */\n      mload\n        /* \"#utility.yul\":19664:19729   */\n      tag_551\n        /* \"#utility.yul\":19721:19727   */\n      0x0100\n        /* \"#utility.yul\":19716:19719   */\n      dup7\n        /* \"#utility.yul\":19712:19728   */\n      add\n        /* \"#utility.yul\":19698:19710   */\n      dup3\n        /* \"#utility.yul\":19664:19729   */\n      tag_333\n      jump\t// in\n    tag_551:\n        /* \"#utility.yul\":19562:19739   */\n      pop\n        /* \"#utility.yul\":19825:19831   */\n      0x0120\n        /* \"#utility.yul\":19818:19823   */\n      dup4\n        /* \"#utility.yul\":19814:19832   */\n      add\n        /* \"#utility.yul\":19808:19833   */\n      mload\n        /* \"#utility.yul\":19846:19911   */\n      tag_552\n        /* \"#utility.yul\":19903:19909   */\n      0x0120\n        /* \"#utility.yul\":19898:19901   */\n      dup7\n        /* \"#utility.yul\":19894:19910   */\n      add\n        /* \"#utility.yul\":19880:19892   */\n      dup3\n        /* \"#utility.yul\":19846:19911   */\n      tag_333\n      jump\t// in\n    tag_552:\n        /* \"#utility.yul\":19749:19921   */\n      pop\n        /* \"#utility.yul\":19938:19942   */\n      dup1\n        /* \"#utility.yul\":19931:19942   */\n      swap2\n      pop\n        /* \"#utility.yul\":17839:19948   */\n      pop\n        /* \"#utility.yul\":17713:19948   */\n      swap3\n      swap2\n      pop\n      pop\n      jump\t// out\n        /* \"#utility.yul\":19954:20234   */\n    tag_348:\n        /* \"#utility.yul\":20085:20095   */\n      0x00\n        /* \"#utility.yul\":20120:20228   */\n      tag_554\n        /* \"#utility.yul\":20224:20227   */\n      dup4\n        /* \"#utility.yul\":20216:20222   */\n      dup4\n        /* \"#utility.yul\":20120:20228   */\n      tag_347\n      jump\t// in\n    tag_554:\n        /* \"#utility.yul\":20106:20228   */\n      swap1\n      pop\n        /* \"#utility.yul\":19954:20234   */\n      swap3\n      swap2\n      pop\n      pop\n      jump\t// out\n        /* \"#utility.yul\":20240:20384   */\n    tag_349:\n        /* \"#utility.yul\":20341:20345   */\n      0x00\n        /* \"#utility.yul\":20373:20377   */\n      0x20\n        /* \"#utility.yul\":20368:20371   */\n      dup3\n        /* \"#utility.yul\":20364:20378   */\n      add\n        /* \"#utility.yul\":20356:20378   */\n      swap1\n      pop\n        /* \"#utility.yul\":20240:20384   */\n      swap2\n      swap1\n      pop\n      jump\t// out\n        /* \"#utility.yul\":20494:21653   */\n    tag_350:\n        /* \"#utility.yul\":20675:20678   */\n      0x00\n        /* \"#utility.yul\":20704:20789   */\n      tag_557\n        /* \"#utility.yul\":20783:20788   */\n      dup3\n        /* \"#utility.yul\":20704:20789   */\n      tag_344\n      jump\t// in\n    tag_557:\n        /* \"#utility.yul\":20805:20922   */\n      tag_558\n        /* \"#utility.yul\":20915:20921   */\n      dup2\n        /* \"#utility.yul\":20910:20913   */\n      dup6\n        /* \"#utility.yul\":20805:20922   */\n      tag_345\n      jump\t// in\n    tag_558:\n        /* \"#utility.yul\":20798:20922   */\n      swap4\n      pop\n        /* \"#utility.yul\":20948:20951   */\n      dup4\n        /* \"#utility.yul\":20993:20997   */\n      0x20\n        /* \"#utility.yul\":20985:20991   */\n      dup3\n        /* \"#utility.yul\":20981:20998   */\n      mul\n        /* \"#utility.yul\":20976:20979   */\n      dup6\n        /* \"#utility.yul\":20972:20999   */\n      add\n        /* \"#utility.yul\":21023:21110   */\n      tag_559\n        /* \"#utility.yul\":21104:21109   */\n      dup6\n        /* \"#utility.yul\":21023:21110   */\n      tag_346\n      jump\t// in\n    tag_559:\n        /* \"#utility.yul\":21133:21140   */\n      dup1\n        /* \"#utility.yul\":21164:21165   */\n      0x00\n        /* \"#utility.yul\":21149:21608   */\n    tag_560:\n        /* \"#utility.yul\":21174:21180   */\n      dup6\n        /* \"#utility.yul\":21171:21172   */\n      dup2\n        /* \"#utility.yul\":21168:21181   */\n      lt\n        /* \"#utility.yul\":21149:21608   */\n      iszero\n      tag_562\n      jumpi\n        /* \"#utility.yul\":21245:21254   */\n      dup5\n        /* \"#utility.yul\":21239:21243   */\n      dup5\n        /* \"#utility.yul\":21235:21255   */\n      sub\n        /* \"#utility.yul\":21230:21233   */\n      dup10\n        /* \"#utility.yul\":21223:21256   */\n      mstore\n        /* \"#utility.yul\":21296:21302   */\n      dup2\n        /* \"#utility.yul\":21290:21303   */\n      mload\n        /* \"#utility.yul\":21324:21450   */\n      tag_563\n        /* \"#utility.yul\":21445:21449   */\n      dup6\n        /* \"#utility.yul\":21430:21443   */\n      dup3\n        /* \"#utility.yul\":21324:21450   */\n      tag_348\n      jump\t// in\n    tag_563:\n        /* \"#utility.yul\":21316:21450   */\n      swap5\n      pop\n        /* \"#utility.yul\":21473:21564   */\n      tag_564\n        /* \"#utility.yul\":21557:21563   */\n      dup4\n        /* \"#utility.yul\":21473:21564   */\n      tag_349\n      jump\t// in\n    tag_564:\n        /* \"#utility.yul\":21463:21564   */\n      swap3\n      pop\n        /* \"#utility.yul\":21593:21597   */\n      0x20\n        /* \"#utility.yul\":21588:21591   */\n      dup11\n        /* \"#utility.yul\":21584:21598   */\n      add\n        /* \"#utility.yul\":21577:21598   */\n      swap10\n      pop\n        /* \"#utility.yul\":21209:21608   */\n      pop\n        /* \"#utility.yul\":21196:21197   */\n      0x01\n        /* \"#utility.yul\":21193:21194   */\n      dup2\n        /* \"#utility.yul\":21189:21198   */\n      add\n        /* \"#utility.yul\":21184:21198   */\n      swap1\n      pop\n        /* \"#utility.yul\":21149:21608   */\n      jump(tag_560)\n    tag_562:\n        /* \"#utility.yul\":21153:21167   */\n      pop\n        /* \"#utility.yul\":21624:21628   */\n      dup3\n        /* \"#utility.yul\":21617:21628   */\n      swap8\n      pop\n        /* \"#utility.yul\":21644:21647   */\n      dup8\n        /* \"#utility.yul\":21637:21647   */\n      swap6\n      pop\n        /* \"#utility.yul\":20680:21653   */\n      pop\n      pop\n      pop\n      pop\n      pop\n        /* \"#utility.yul\":20494:21653   */\n      swap3\n      swap2\n      pop\n      pop\n      jump\t// out\n        /* \"#utility.yul\":21659:22457   */\n    tag_81:\n        /* \"#utility.yul\":21962:21966   */\n      0x00\n        /* \"#utility.yul\":22000:22002   */\n      0x40\n        /* \"#utility.yul\":21989:21998   */\n      dup3\n        /* \"#utility.yul\":21985:22003   */\n      add\n        /* \"#utility.yul\":21977:22003   */\n      swap1\n      pop\n        /* \"#utility.yul\":22049:22058   */\n      dup2\n        /* \"#utility.yul\":22043:22047   */\n      dup2\n        /* \"#utility.yul\":22039:22059   */\n      sub\n        /* \"#utility.yul\":22035:22036   */\n      0x00\n        /* \"#utility.yul\":22024:22033   */\n      dup4\n        /* \"#utility.yul\":22020:22037   */\n      add\n        /* \"#utility.yul\":22013:22060   */\n      mstore\n        /* \"#utility.yul\":22077:22205   */\n      tag_566\n        /* \"#utility.yul\":22200:22204   */\n      dup2\n        /* \"#utility.yul\":22191:22197   */\n      dup6\n        /* \"#utility.yul\":22077:22205   */\n      tag_343\n      jump\t// in\n    tag_566:\n        /* \"#utility.yul\":22069:22205   */\n      swap1\n      pop\n        /* \"#utility.yul\":22252:22261   */\n      dup2\n        /* \"#utility.yul\":22246:22250   */\n      dup2\n        /* \"#utility.yul\":22242:22262   */\n      sub\n        /* \"#utility.yul\":22237:22239   */\n      0x20\n        /* \"#utility.yul\":22226:22235   */\n      dup4\n        /* \"#utility.yul\":22222:22240   */\n      add\n        /* \"#utility.yul\":22215:22263   */\n      mstore\n        /* \"#utility.yul\":22280:22450   */\n      tag_567\n        /* \"#utility.yul\":22445:22449   */\n      dup2\n        /* \"#utility.yul\":22436:22442   */\n      dup5\n        /* \"#utility.yul\":22280:22450   */\n      tag_350\n      jump\t// in\n    tag_567:\n        /* \"#utility.yul\":22272:22450   */\n      swap1\n      pop\n        /* \"#utility.yul\":21659:22457   */\n      swap4\n      swap3\n      pop\n      pop\n      pop\n      jump\t// out\n        /* \"#utility.yul\":22463:22567   */\n    tag_351:\n        /* \"#utility.yul\":22508:22515   */\n      0x00\n        /* \"#utility.yul\":22537:22561   */\n      tag_569\n        /* \"#utility.yul\":22555:22560   */\n      dup3\n        /* \"#utility.yul\":22537:22561   */\n      tag_313\n      jump\t// in\n    tag_569:\n        /* \"#utility.yul\":22526:22561   */\n      swap1\n      pop\n        /* \"#utility.yul\":22463:22567   */\n      swap2\n      swap1\n      pop\n      jump\t// out\n        /* \"#utility.yul\":22573:22711   */\n    tag_352:\n        /* \"#utility.yul\":22654:22686   */\n      tag_571\n        /* \"#utility.yul\":22680:22685   */\n      dup2\n        /* \"#utility.yul\":22654:22686   */\n      tag_351\n      jump\t// in\n    tag_571:\n        /* \"#utility.yul\":22647:22652   */\n      dup2\n        /* \"#utility.yul\":22644:22687   */\n      eq\n        /* \"#utility.yul\":22634:22705   */\n      tag_572\n      jumpi\n        /* \"#utility.yul\":22701:22702   */\n      0x00\n        /* \"#utility.yul\":22698:22699   */\n      dup1\n        /* \"#utility.yul\":22691:22703   */\n      revert\n        /* \"#utility.yul\":22634:22705   */\n    tag_572:\n        /* \"#utility.yul\":22573:22711   */\n      pop\n      jump\t// out\n        /* \"#utility.yul\":22717:22872   */\n    tag_353:\n        /* \"#utility.yul\":22771:22776   */\n      0x00\n        /* \"#utility.yul\":22809:22815   */\n      dup2\n        /* \"#utility.yul\":22796:22816   */\n      calldataload\n        /* \"#utility.yul\":22787:22816   */\n      swap1\n      pop\n        /* \"#utility.yul\":22825:22866   */\n      tag_574\n        /* \"#utility.yul\":22860:22865   */\n      dup2\n        /* \"#utility.yul\":22825:22866   */\n      tag_352\n      jump\t// in\n    tag_574:\n        /* \"#utility.yul\":22717:22872   */\n      swap3\n      swap2\n      pop\n      pop\n      jump\t// out\n        /* \"#utility.yul\":22878:23368   */\n    tag_85:\n        /* \"#utility.yul\":22954:22960   */\n      0x00\n        /* \"#utility.yul\":22962:22968   */\n      dup1\n        /* \"#utility.yul\":23011:23013   */\n      0x40\n        /* \"#utility.yul\":22999:23008   */\n      dup4\n        /* \"#utility.yul\":22990:22997   */\n      dup6\n        /* \"#utility.yul\":22986:23009   */\n      sub\n        /* \"#utility.yul\":22982:23014   */\n      slt\n        /* \"#utility.yul\":22979:23098   */\n      iszero\n      tag_576\n      jumpi\n        /* \"#utility.yul\":23017:23096   */\n      tag_577\n      tag_303\n      jump\t// in\n    tag_577:\n        /* \"#utility.yul\":22979:23098   */\n    tag_576:\n        /* \"#utility.yul\":23137:23138   */\n      0x00\n        /* \"#utility.yul\":23162:23223   */\n      tag_578\n        /* \"#utility.yul\":23215:23222   */\n      dup6\n        /* \"#utility.yul\":23206:23212   */\n      dup3\n        /* \"#utility.yul\":23195:23204   */\n      dup7\n        /* \"#utility.yul\":23191:23213   */\n      add\n        /* \"#utility.yul\":23162:23223   */\n      tag_353\n      jump\t// in\n    tag_578:\n        /* \"#utility.yul\":23152:23223   */\n      swap3\n      pop\n        /* \"#utility.yul\":23108:23233   */\n      pop\n        /* \"#utility.yul\":23272:23274   */\n      0x20\n        /* \"#utility.yul\":23298:23351   */\n      tag_579\n        /* \"#utility.yul\":23343:23350   */\n      dup6\n        /* \"#utility.yul\":23334:23340   */\n      dup3\n        /* \"#utility.yul\":23323:23332   */\n      dup7\n        /* \"#utility.yul\":23319:23341   */\n      add\n        /* \"#utility.yul\":23298:23351   */\n      tag_307\n      jump\t// in\n    tag_579:\n        /* \"#utility.yul\":23288:23351   */\n      swap2\n      pop\n        /* \"#utility.yul\":23243:23361   */\n      pop\n        /* \"#utility.yul\":22878:23368   */\n      swap3\n      pop\n      swap3\n      swap1\n      pop\n      jump\t// out\n        /* \"#utility.yul\":23374:24208   */\n    tag_90:\n        /* \"#utility.yul\":23462:23468   */\n      0x00\n        /* \"#utility.yul\":23470:23476   */\n      dup1\n        /* \"#utility.yul\":23519:23521   */\n      0x40\n        /* \"#utility.yul\":23507:23516   */\n      dup4\n        /* \"#utility.yul\":23498:23505   */\n      dup6\n        /* \"#utility.yul\":23494:23517   */\n      sub\n        /* \"#utility.yul\":23490:23522   */\n      slt\n        /* \"#utility.yul\":23487:23606   */\n      iszero\n      tag_581\n      jumpi\n        /* \"#utility.yul\":23525:23604   */\n      tag_582\n      tag_303\n      jump\t// in\n    tag_582:\n        /* \"#utility.yul\":23487:23606   */\n    tag_581:\n        /* \"#utility.yul\":23673:23674   */\n      0x00\n        /* \"#utility.yul\":23662:23671   */\n      dup4\n        /* \"#utility.yul\":23658:23675   */\n      add\n        /* \"#utility.yul\":23645:23676   */\n      calldataload\n        /* \"#utility.yul\":23703:23721   */\n      0xffffffffffffffff\n        /* \"#utility.yul\":23695:23701   */\n      dup2\n        /* \"#utility.yul\":23692:23722   */\n      gt\n        /* \"#utility.yul\":23689:23806   */\n      iszero\n      tag_583\n      jumpi\n        /* \"#utility.yul\":23725:23804   */\n      tag_584\n      tag_304\n      jump\t// in\n    tag_584:\n        /* \"#utility.yul\":23689:23806   */\n    tag_583:\n        /* \"#utility.yul\":23830:23893   */\n      tag_585\n        /* \"#utility.yul\":23885:23892   */\n      dup6\n        /* \"#utility.yul\":23876:23882   */\n      dup3\n        /* \"#utility.yul\":23865:23874   */\n      dup7\n        /* \"#utility.yul\":23861:23883   */\n      add\n        /* \"#utility.yul\":23830:23893   */\n      tag_326\n      jump\t// in\n    tag_585:\n        /* \"#utility.yul\":23820:23893   */\n      swap3\n      pop\n        /* \"#utility.yul\":23616:23903   */\n      pop\n        /* \"#utility.yul\":23970:23972   */\n      0x20\n        /* \"#utility.yul\":23959:23968   */\n      dup4\n        /* \"#utility.yul\":23955:23973   */\n      add\n        /* \"#utility.yul\":23942:23974   */\n      calldataload\n        /* \"#utility.yul\":24001:24019   */\n      0xffffffffffffffff\n        /* \"#utility.yul\":23993:23999   */\n      dup2\n        /* \"#utility.yul\":23990:24020   */\n      gt\n        /* \"#utility.yul\":23987:24104   */\n      iszero\n      tag_586\n      jumpi\n        /* \"#utility.yul\":24023:24102   */\n      tag_587\n      tag_304\n      jump\t// in\n    tag_587:\n        /* \"#utility.yul\":23987:24104   */\n    tag_586:\n        /* \"#utility.yul\":24128:24191   */\n      tag_588\n        /* \"#utility.yul\":24183:24190   */\n      dup6\n        /* \"#utility.yul\":24174:24180   */\n      dup3\n        /* \"#utility.yul\":24163:24172   */\n      dup7\n        /* \"#utility.yul\":24159:24181   */\n      add\n        /* \"#utility.yul\":24128:24191   */\n      tag_326\n      jump\t// in\n    tag_588:\n        /* \"#utility.yul\":24118:24191   */\n      swap2\n      pop\n        /* \"#utility.yul\":23913:24201   */\n      pop\n        /* \"#utility.yul\":23374:24208   */\n      swap3\n      pop\n      swap3\n      swap1\n      pop\n      jump\t// out\n        /* \"#utility.yul\":24214:24304   */\n    tag_354:\n        /* \"#utility.yul\":24248:24255   */\n      0x00\n        /* \"#utility.yul\":24291:24296   */\n      dup2\n        /* \"#utility.yul\":24284:24297   */\n      iszero\n        /* \"#utility.yul\":24277:24298   */\n      iszero\n        /* \"#utility.yul\":24266:24298   */\n      swap1\n      pop\n        /* \"#utility.yul\":24214:24304   */\n      swap2\n      swap1\n      pop\n      jump\t// out\n        /* \"#utility.yul\":24310:24419   */\n    tag_355:\n        /* \"#utility.yul\":24391:24412   */\n      tag_591\n        /* \"#utility.yul\":24406:24411   */\n      dup2\n        /* \"#utility.yul\":24391:24412   */\n      tag_354\n      jump\t// in\n    tag_591:\n        /* \"#utility.yul\":24386:24389   */\n      dup3\n        /* \"#utility.yul\":24379:24413   */\n      mstore\n        /* \"#utility.yul\":24310:24419   */\n      pop\n      pop\n      jump\t// out\n        /* \"#utility.yul\":24425:24635   */\n    tag_93:\n        /* \"#utility.yul\":24512:24516   */\n      0x00\n        /* \"#utility.yul\":24550:24552   */\n      0x20\n        /* \"#utility.yul\":24539:24548   */\n      dup3\n        /* \"#utility.yul\":24535:24553   */\n      add\n        /* \"#utility.yul\":24527:24553   */\n      swap1\n      pop\n        /* \"#utility.yul\":24563:24628   */\n      tag_593\n        /* \"#utility.yul\":24625:24626   */\n      0x00\n        /* \"#utility.yul\":24614:24623   */\n      dup4\n        /* \"#utility.yul\":24610:24627   */\n      add\n        /* \"#utility.yul\":24601:24607   */\n      dup5\n        /* \"#utility.yul\":24563:24628   */\n      tag_355\n      jump\t// in\n    tag_593:\n        /* \"#utility.yul\":24425:24635   */\n      swap3\n      swap2\n      pop\n      pop\n      jump\t// out\n        /* \"#utility.yul\":24641:26970   */\n    tag_97:\n        /* \"#utility.yul\":24820:24826   */\n      0x00\n        /* \"#utility.yul\":24828:24834   */\n      dup1\n        /* \"#utility.yul\":24836:24842   */\n      0x00\n        /* \"#utility.yul\":24844:24850   */\n      dup1\n        /* \"#utility.yul\":24852:24858   */\n      0x00\n        /* \"#utility.yul\":24860:24866   */\n      dup1\n        /* \"#utility.yul\":24868:24874   */\n      0x00\n        /* \"#utility.yul\":24876:24882   */\n      dup1\n        /* \"#utility.yul\":24884:24890   */\n      0x00\n        /* \"#utility.yul\":24892:24898   */\n      dup1\n        /* \"#utility.yul\":24900:24907   */\n      0x00\n        /* \"#utility.yul\":24950:24953   */\n      0x0160\n        /* \"#utility.yul\":24938:24947   */\n      dup13\n        /* \"#utility.yul\":24929:24936   */\n      dup15\n        /* \"#utility.yul\":24925:24948   */\n      sub\n        /* \"#utility.yul\":24921:24954   */\n      slt\n        /* \"#utility.yul\":24918:25038   */\n      iszero\n      tag_595\n      jumpi\n        /* \"#utility.yul\":24957:25036   */\n      tag_596\n      tag_303\n      jump\t// in\n    tag_596:\n        /* \"#utility.yul\":24918:25038   */\n    tag_595:\n        /* \"#utility.yul\":25105:25106   */\n      0x00\n        /* \"#utility.yul\":25094:25103   */\n      dup13\n        /* \"#utility.yul\":25090:25107   */\n      add\n        /* \"#utility.yul\":25077:25108   */\n      calldataload\n        /* \"#utility.yul\":25135:25153   */\n      0xffffffffffffffff\n        /* \"#utility.yul\":25127:25133   */\n      dup2\n        /* \"#utility.yul\":25124:25154   */\n      gt\n        /* \"#utility.yul\":25121:25238   */\n      iszero\n      tag_597\n      jumpi\n        /* \"#utility.yul\":25157:25236   */\n      tag_598\n      tag_304\n      jump\t// in\n    tag_598:\n        /* \"#utility.yul\":25121:25238   */\n    tag_597:\n        /* \"#utility.yul\":25262:25325   */\n      tag_599\n        /* \"#utility.yul\":25317:25324   */\n      dup15\n        /* \"#utility.yul\":25308:25314   */\n      dup3\n        /* \"#utility.yul\":25297:25306   */\n      dup16\n        /* \"#utility.yul\":25293:25315   */\n      add\n        /* \"#utility.yul\":25262:25325   */\n      tag_326\n      jump\t// in\n    tag_599:\n        /* \"#utility.yul\":25252:25325   */\n      swap12\n      pop\n        /* \"#utility.yul\":25048:25335   */\n      pop\n        /* \"#utility.yul\":25402:25404   */\n      0x20\n        /* \"#utility.yul\":25391:25400   */\n      dup13\n        /* \"#utility.yul\":25387:25405   */\n      add\n        /* \"#utility.yul\":25374:25406   */\n      calldataload\n        /* \"#utility.yul\":25433:25451   */\n      0xffffffffffffffff\n        /* \"#utility.yul\":25425:25431   */\n      dup2\n        /* \"#utility.yul\":25422:25452   */\n      gt\n        /* \"#utility.yul\":25419:25536   */\n      iszero\n      tag_600\n      jumpi\n        /* \"#utility.yul\":25455:25534   */\n      tag_601\n      tag_304\n      jump\t// in\n    tag_601:\n        /* \"#utility.yul\":25419:25536   */\n    tag_600:\n        /* \"#utility.yul\":25560:25623   */\n      tag_602\n        /* \"#utility.yul\":25615:25622   */\n      dup15\n        /* \"#utility.yul\":25606:25612   */\n      dup3\n        /* \"#utility.yul\":25595:25604   */\n      dup16\n        /* \"#utility.yul\":25591:25613   */\n      add\n        /* \"#utility.yul\":25560:25623   */\n      tag_326\n      jump\t// in\n    tag_602:\n        /* \"#utility.yul\":25550:25623   */\n      swap11\n      pop\n        /* \"#utility.yul\":25345:25633   */\n      pop\n        /* \"#utility.yul\":25700:25702   */\n      0x40\n        /* \"#utility.yul\":25689:25698   */\n      dup13\n        /* \"#utility.yul\":25685:25703   */\n      add\n        /* \"#utility.yul\":25672:25704   */\n      calldataload\n        /* \"#utility.yul\":25731:25749   */\n      0xffffffffffffffff\n        /* \"#utility.yul\":25723:25729   */\n      dup2\n        /* \"#utility.yul\":25720:25750   */\n      gt\n        /* \"#utility.yul\":25717:25834   */\n      iszero\n      tag_603\n      jumpi\n        /* \"#utility.yul\":25753:25832   */\n      tag_604\n      tag_304\n      jump\t// in\n    tag_604:\n        /* \"#utility.yul\":25717:25834   */\n    tag_603:\n        /* \"#utility.yul\":25858:25921   */\n      tag_605\n        /* \"#utility.yul\":25913:25920   */\n      dup15\n        /* \"#utility.yul\":25904:25910   */\n      dup3\n        /* \"#utility.yul\":25893:25902   */\n      dup16\n        /* \"#utility.yul\":25889:25911   */\n      add\n        /* \"#utility.yul\":25858:25921   */\n      tag_326\n      jump\t// in\n    tag_605:\n        /* \"#utility.yul\":25848:25921   */\n      swap10\n      pop\n        /* \"#utility.yul\":25643:25931   */\n      pop\n        /* \"#utility.yul\":25970:25972   */\n      0x60\n        /* \"#utility.yul\":25996:26049   */\n      tag_606\n        /* \"#utility.yul\":26041:26048   */\n      dup15\n        /* \"#utility.yul\":26032:26038   */\n      dup3\n        /* \"#utility.yul\":26021:26030   */\n      dup16\n        /* \"#utility.yul\":26017:26039   */\n      add\n        /* \"#utility.yul\":25996:26049   */\n      tag_307\n      jump\t// in\n    tag_606:\n        /* \"#utility.yul\":25986:26049   */\n      swap9\n      pop\n        /* \"#utility.yul\":25941:26059   */\n      pop\n        /* \"#utility.yul\":26098:26101   */\n      0x80\n        /* \"#utility.yul\":26125:26178   */\n      tag_607\n        /* \"#utility.yul\":26170:26177   */\n      dup15\n        /* \"#utility.yul\":26161:26167   */\n      dup3\n        /* \"#utility.yul\":26150:26159   */\n      dup16\n        /* \"#utility.yul\":26146:26168   */\n      add\n        /* \"#utility.yul\":26125:26178   */\n      tag_307\n      jump\t// in\n    tag_607:\n        /* \"#utility.yul\":26115:26178   */\n      swap8\n      pop\n        /* \"#utility.yul\":26069:26188   */\n      pop\n        /* \"#utility.yul\":26227:26230   */\n      0xa0\n        /* \"#utility.yul\":26254:26307   */\n      tag_608\n        /* \"#utility.yul\":26299:26306   */\n      dup15\n        /* \"#utility.yul\":26290:26296   */\n      dup3\n        /* \"#utility.yul\":26279:26288   */\n      dup16\n        /* \"#utility.yul\":26275:26297   */\n      add\n        /* \"#utility.yul\":26254:26307   */\n      tag_307\n      jump\t// in\n    tag_608:\n        /* \"#utility.yul\":26244:26307   */\n      swap7\n      pop\n        /* \"#utility.yul\":26198:26317   */\n      pop\n        /* \"#utility.yul\":26356:26359   */\n      0xc0\n        /* \"#utility.yul\":26383:26436   */\n      tag_609\n        /* \"#utility.yul\":26428:26435   */\n      dup15\n        /* \"#utility.yul\":26419:26425   */\n      dup3\n        /* \"#utility.yul\":26408:26417   */\n      dup16\n        /* \"#utility.yul\":26404:26426   */\n      add\n        /* \"#utility.yul\":26383:26436   */\n      tag_307\n      jump\t// in\n    tag_609:\n        /* \"#utility.yul\":26373:26436   */\n      swap6\n      pop\n        /* \"#utility.yul\":26327:26446   */\n      pop\n        /* \"#utility.yul\":26485:26488   */\n      0xe0\n        /* \"#utility.yul\":26512:26565   */\n      tag_610\n        /* \"#utility.yul\":26557:26564   */\n      dup15\n        /* \"#utility.yul\":26548:26554   */\n      dup3\n        /* \"#utility.yul\":26537:26546   */\n      dup16\n        /* \"#utility.yul\":26533:26555   */\n      add\n        /* \"#utility.yul\":26512:26565   */\n      tag_307\n      jump\t// in\n    tag_610:\n        /* \"#utility.yul\":26502:26565   */\n      swap5\n      pop\n        /* \"#utility.yul\":26456:26575   */\n      pop\n        /* \"#utility.yul\":26614:26617   */\n      0x0100\n        /* \"#utility.yul\":26641:26694   */\n      tag_611\n        /* \"#utility.yul\":26686:26693   */\n      dup15\n        /* \"#utility.yul\":26677:26683   */\n      dup3\n        /* \"#utility.yul\":26666:26675   */\n      dup16\n        /* \"#utility.yul\":26662:26684   */\n      add\n        /* \"#utility.yul\":26641:26694   */\n      tag_307\n      jump\t// in\n    tag_611:\n        /* \"#utility.yul\":26631:26694   */\n      swap4\n      pop\n        /* \"#utility.yul\":26585:26704   */\n      pop\n        /* \"#utility.yul\":26743:26746   */\n      0x0120\n        /* \"#utility.yul\":26770:26823   */\n      tag_612\n        /* \"#utility.yul\":26815:26822   */\n      dup15\n        /* \"#utility.yul\":26806:26812   */\n      dup3\n        /* \"#utility.yul\":26795:26804   */\n      dup16\n        /* \"#utility.yul\":26791:26813   */\n      add\n        /* \"#utility.yul\":26770:26823   */\n      tag_307\n      jump\t// in\n    tag_612:\n        /* \"#utility.yul\":26760:26823   */\n      swap3\n      pop\n        /* \"#utility.yul\":26714:26833   */\n      pop\n        /* \"#utility.yul\":26872:26875   */\n      0x0140\n        /* \"#utility.yul\":26900:26953   */\n      tag_613\n        /* \"#utility.yul\":26945:26952   */\n      dup15\n        /* \"#utility.yul\":26936:26942   */\n      dup3\n        /* \"#utility.yul\":26925:26934   */\n      dup16\n        /* \"#utility.yul\":26921:26943   */\n      add\n        /* \"#utility.yul\":26900:26953   */\n      tag_307\n      jump\t// in\n    tag_613:\n        /* \"#utility.yul\":26889:26953   */\n      swap2\n      pop\n        /* \"#utility.yul\":26843:26963   */\n      pop\n        /* \"#utility.yul\":24641:26970   */\n      swap3\n      swap6\n      swap9\n      swap12\n      pop\n      swap3\n      swap6\n      swap9\n      swap12\n      swap1\n      swap4\n      swap7\n      swap10\n      pop\n      jump\t// out\n        /* \"#utility.yul\":26976:27775   */\n    tag_105:\n        /* \"#utility.yul\":27063:27069   */\n      0x00\n        /* \"#utility.yul\":27071:27077   */\n      dup1\n        /* \"#utility.yul\":27079:27085   */\n      0x00\n        /* \"#utility.yul\":27128:27130   */\n      0x60\n        /* \"#utility.yul\":27116:27125   */\n      dup5\n        /* \"#utility.yul\":27107:27114   */\n      dup7\n        /* \"#utility.yul\":27103:27126   */\n      sub\n        /* \"#utility.yul\":27099:27131   */\n      slt\n        /* \"#utility.yul\":27096:27215   */\n      iszero\n      tag_615\n      jumpi\n        /* \"#utility.yul\":27134:27213   */\n      tag_616\n      tag_303\n      jump\t// in\n    tag_616:\n        /* \"#utility.yul\":27096:27215   */\n    tag_615:\n        /* \"#utility.yul\":27254:27255   */\n      0x00\n        /* \"#utility.yul\":27279:27332   */\n      tag_617\n        /* \"#utility.yul\":27324:27331   */\n      dup7\n        /* \"#utility.yul\":27315:27321   */\n      dup3\n        /* \"#utility.yul\":27304:27313   */\n      dup8\n        /* \"#utility.yul\":27300:27322   */\n      add\n        /* \"#utility.yul\":27279:27332   */\n      tag_318\n      jump\t// in\n    tag_617:\n        /* \"#utility.yul\":27269:27332   */\n      swap4\n      pop\n        /* \"#utility.yul\":27225:27342   */\n      pop\n        /* \"#utility.yul\":27409:27411   */\n      0x20\n        /* \"#utility.yul\":27398:27407   */\n      dup5\n        /* \"#utility.yul\":27394:27412   */\n      add\n        /* \"#utility.yul\":27381:27413   */\n      calldataload\n        /* \"#utility.yul\":27440:27458   */\n      0xffffffffffffffff\n        /* \"#utility.yul\":27432:27438   */\n      dup2\n        /* \"#utility.yul\":27429:27459   */\n      gt\n        /* \"#utility.yul\":27426:27543   */\n      iszero\n      tag_618\n      jumpi\n        /* \"#utility.yul\":27462:27541   */\n      tag_619\n      tag_304\n      jump\t// in\n    tag_619:\n        /* \"#utility.yul\":27426:27543   */\n    tag_618:\n        /* \"#utility.yul\":27567:27630   */\n      tag_620\n        /* \"#utility.yul\":27622:27629   */\n      dup7\n        /* \"#utility.yul\":27613:27619   */\n      dup3\n        /* \"#utility.yul\":27602:27611   */\n      dup8\n        /* \"#utility.yul\":27598:27620   */\n      add\n        /* \"#utility.yul\":27567:27630   */\n      tag_326\n      jump\t// in\n    tag_620:\n        /* \"#utility.yul\":27557:27630   */\n      swap3\n      pop\n        /* \"#utility.yul\":27352:27640   */\n      pop\n        /* \"#utility.yul\":27679:27681   */\n      0x40\n        /* \"#utility.yul\":27705:27758   */\n      tag_621\n        /* \"#utility.yul\":27750:27757   */\n      dup7\n        /* \"#utility.yul\":27741:27747   */\n      dup3\n        /* \"#utility.yul\":27730:27739   */\n      dup8\n        /* \"#utility.yul\":27726:27748   */\n      add\n        /* \"#utility.yul\":27705:27758   */\n      tag_307\n      jump\t// in\n    tag_621:\n        /* \"#utility.yul\":27695:27758   */\n      swap2\n      pop\n        /* \"#utility.yul\":27650:27768   */\n      pop\n        /* \"#utility.yul\":26976:27775   */\n      swap3\n      pop\n      swap3\n      pop\n      swap3\n      jump\t// out\n        /* \"#utility.yul\":27781:27961   */\n    tag_356:\n        /* \"#utility.yul\":27829:27906   */\n      0x4e487b7100000000000000000000000000000000000000000000000000000000\n        /* \"#utility.yul\":27826:27827   */\n      0x00\n        /* \"#utility.yul\":27819:27907   */\n      mstore\n        /* \"#utility.yul\":27926:27930   */\n      0x22\n        /* \"#utility.yul\":27923:27924   */\n      0x04\n        /* \"#utility.yul\":27916:27931   */\n      mstore\n        /* \"#utility.yul\":27950:27954   */\n      0x24\n        /* \"#utility.yul\":27947:27948   */\n      0x00\n        /* \"#utility.yul\":27940:27955   */\n      revert\n        /* \"#utility.yul\":27967:28287   */\n    tag_121:\n        /* \"#utility.yul\":28011:28017   */\n      0x00\n        /* \"#utility.yul\":28048:28049   */\n      0x02\n        /* \"#utility.yul\":28042:28046   */\n      dup3\n        /* \"#utility.yul\":28038:28050   */\n      div\n        /* \"#utility.yul\":28028:28050   */\n      swap1\n      pop\n        /* \"#utility.yul\":28095:28096   */\n      0x01\n        /* \"#utility.yul\":28089:28093   */\n      dup3\n        /* \"#utility.yul\":28085:28097   */\n      and\n        /* \"#utility.yul\":28116:28134   */\n      dup1\n        /* \"#utility.yul\":28106:28187   */\n      tag_624\n      jumpi\n        /* \"#utility.yul\":28172:28176   */\n      0x7f\n        /* \"#utility.yul\":28164:28170   */\n      dup3\n        /* \"#utility.yul\":28160:28177   */\n      and\n        /* \"#utility.yul\":28150:28177   */\n      swap2\n      pop\n        /* \"#utility.yul\":28106:28187   */\n    tag_624:\n        /* \"#utility.yul\":28234:28236   */\n      0x20\n        /* \"#utility.yul\":28226:28232   */\n      dup3\n        /* \"#utility.yul\":28223:28237   */\n      lt\n        /* \"#utility.yul\":28203:28221   */\n      dup2\n        /* \"#utility.yul\":28200:28238   */\n      sub\n        /* \"#utility.yul\":28197:28281   */\n      tag_625\n      jumpi\n        /* \"#utility.yul\":28253:28271   */\n      tag_626\n      tag_356\n      jump\t// in\n    tag_626:\n        /* \"#utility.yul\":28197:28281   */\n    tag_625:\n        /* \"#utility.yul\":28018:28287   */\n      pop\n        /* \"#utility.yul\":27967:28287   */\n      swap2\n      swap1\n      pop\n      jump\t// out\n        /* \"#utility.yul\":28293:28473   */\n    tag_194:\n        /* \"#utility.yul\":28341:28418   */\n      0x4e487b7100000000000000000000000000000000000000000000000000000000\n        /* \"#utility.yul\":28338:28339   */\n      0x00\n        /* \"#utility.yul\":28331:28419   */\n      mstore\n        /* \"#utility.yul\":28438:28442   */\n      0x32\n        /* \"#utility.yul\":28435:28436   */\n      0x04\n        /* \"#utility.yul\":28428:28443   */\n      mstore\n        /* \"#utility.yul\":28462:28466   */\n      0x24\n        /* \"#utility.yul\":28459:28460   */\n      0x00\n        /* \"#utility.yul\":28452:28467   */\n      revert\n        /* \"#utility.yul\":28479:28627   */\n    tag_357:\n        /* \"#utility.yul\":28581:28592   */\n      0x00\n        /* \"#utility.yul\":28618:28621   */\n      dup2\n        /* \"#utility.yul\":28603:28621   */\n      swap1\n      pop\n        /* \"#utility.yul\":28479:28627   */\n      swap3\n      swap2\n      pop\n      pop\n      jump\t// out\n        /* \"#utility.yul\":28633:29023   */\n    tag_358:\n        /* \"#utility.yul\":28739:28742   */\n      0x00\n        /* \"#utility.yul\":28767:28806   */\n      tag_630\n        /* \"#utility.yul\":28800:28805   */\n      dup3\n        /* \"#utility.yul\":28767:28806   */\n      tag_308\n      jump\t// in\n    tag_630:\n        /* \"#utility.yul\":28822:28911   */\n      tag_631\n        /* \"#utility.yul\":28904:28910   */\n      dup2\n        /* \"#utility.yul\":28899:28902   */\n      dup6\n        /* \"#utility.yul\":28822:28911   */\n      tag_357\n      jump\t// in\n    tag_631:\n        /* \"#utility.yul\":28815:28911   */\n      swap4\n      pop\n        /* \"#utility.yul\":28920:28985   */\n      tag_632\n        /* \"#utility.yul\":28978:28984   */\n      dup2\n        /* \"#utility.yul\":28973:28976   */\n      dup6\n        /* \"#utility.yul\":28966:28970   */\n      0x20\n        /* \"#utility.yul\":28959:28964   */\n      dup7\n        /* \"#utility.yul\":28955:28971   */\n      add\n        /* \"#utility.yul\":28920:28985   */\n      tag_310\n      jump\t// in\n    tag_632:\n        /* \"#utility.yul\":29010:29016   */\n      dup1\n        /* \"#utility.yul\":29005:29008   */\n      dup5\n        /* \"#utility.yul\":29001:29017   */\n      add\n        /* \"#utility.yul\":28994:29017   */\n      swap2\n      pop\n        /* \"#utility.yul\":28743:29023   */\n      pop\n        /* \"#utility.yul\":28633:29023   */\n      swap3\n      swap2\n      pop\n      pop\n      jump\t// out\n        /* \"#utility.yul\":29029:29304   */\n    tag_202:\n        /* \"#utility.yul\":29161:29164   */\n      0x00\n        /* \"#utility.yul\":29183:29278   */\n      tag_634\n        /* \"#utility.yul\":29274:29277   */\n      dup3\n        /* \"#utility.yul\":29265:29271   */\n      dup5\n        /* \"#utility.yul\":29183:29278   */\n      tag_358\n      jump\t// in\n    tag_634:\n        /* \"#utility.yul\":29176:29278   */\n      swap2\n      pop\n        /* \"#utility.yul\":29295:29298   */\n      dup2\n        /* \"#utility.yul\":29288:29298   */\n      swap1\n      pop\n        /* \"#utility.yul\":29029:29304   */\n      swap3\n      swap2\n      pop\n      pop\n      jump\t// out\n        /* \"#utility.yul\":29310:29490   */\n    tag_359:\n        /* \"#utility.yul\":29358:29435   */\n      0x4e487b7100000000000000000000000000000000000000000000000000000000\n        /* \"#utility.yul\":29355:29356   */\n      0x00\n        /* \"#utility.yul\":29348:29436   */\n      mstore\n        /* \"#utility.yul\":29455:29459   */\n      0x11\n        /* \"#utility.yul\":29452:29453   */\n      0x04\n        /* \"#utility.yul\":29445:29460   */\n      mstore\n        /* \"#utility.yul\":29479:29483   */\n      0x24\n        /* \"#utility.yul\":29476:29477   */\n      0x00\n        /* \"#utility.yul\":29469:29484   */\n      revert\n        /* \"#utility.yul\":29496:29729   */\n    tag_222:\n        /* \"#utility.yul\":29535:29538   */\n      0x00\n        /* \"#utility.yul\":29558:29582   */\n      tag_637\n        /* \"#utility.yul\":29576:29581   */\n      dup3\n        /* \"#utility.yul\":29558:29582   */\n      tag_305\n      jump\t// in\n    tag_637:\n        /* \"#utility.yul\":29549:29582   */\n      swap2\n      pop\n        /* \"#utility.yul\":29604:29670   */\n      0xffffffffffffffffffffffffffffffffffffffffffffffffffffffffffffffff\n        /* \"#utility.yul\":29597:29602   */\n      dup3\n        /* \"#utility.yul\":29594:29671   */\n      sub\n        /* \"#utility.yul\":29591:29694   */\n      tag_638\n      jumpi\n        /* \"#utility.yul\":29674:29692   */\n      tag_639\n      tag_359\n      jump\t// in\n    tag_639:\n        /* \"#utility.yul\":29591:29694   */\n    tag_638:\n        /* \"#utility.yul\":29721:29722   */\n      0x01\n        /* \"#utility.yul\":29714:29719   */\n      dup3\n        /* \"#utility.yul\":29710:29723   */\n      add\n        /* \"#utility.yul\":29703:29723   */\n      swap1\n      pop\n        /* \"#utility.yul\":29496:29729   */\n      swap2\n      swap1\n      pop\n      jump\t// out\n        /* \"#utility.yul\":29735:29882   */\n    tag_360:\n        /* \"#utility.yul\":29836:29847   */\n      0x00\n        /* \"#utility.yul\":29873:29876   */\n      dup2\n        /* \"#utility.yul\":29858:29876   */\n      swap1\n      pop\n        /* \"#utility.yul\":29735:29882   */\n      swap3\n      swap2\n      pop\n      pop\n      jump\t// out\n        /* \"#utility.yul\":29888:30002   */\n    tag_361:\n      pop\n      jump\t// out\n        /* \"#utility.yul\":30008:30406   */\n    tag_362:\n        /* \"#utility.yul\":30167:30170   */\n      0x00\n        /* \"#utility.yul\":30188:30271   */\n      tag_643\n        /* \"#utility.yul\":30269:30270   */\n      0x00\n        /* \"#utility.yul\":30264:30267   */\n      dup4\n        /* \"#utility.yul\":30188:30271   */\n      tag_360\n      jump\t// in\n    tag_643:\n        /* \"#utility.yul\":30181:30271   */\n      swap2\n      pop\n        /* \"#utility.yul\":30280:30373   */\n      tag_644\n        /* \"#utility.yul\":30369:30372   */\n      dup3\n        /* \"#utility.yul\":30280:30373   */\n      tag_361\n      jump\t// in\n    tag_644:\n        /* \"#utility.yul\":30398:30399   */\n      0x00\n        /* \"#utility.yul\":30393:30396   */\n      dup3\n        /* \"#utility.yul\":30389:30400   */\n      add\n        /* \"#utility.yul\":30382:30400   */\n      swap1\n      pop\n        /* \"#utility.yul\":30008:30406   */\n      swap2\n      swap1\n      pop\n      jump\t// out\n        /* \"#utility.yul\":30412:30791   */\n    tag_233:\n        /* \"#utility.yul\":30596:30599   */\n      0x00\n        /* \"#utility.yul\":30618:30765   */\n      tag_646\n        /* \"#utility.yul\":30761:30764   */\n      dup3\n        /* \"#utility.yul\":30618:30765   */\n      tag_362\n      jump\t// in\n    tag_646:\n        /* \"#utility.yul\":30611:30765   */\n      swap2\n      pop\n        /* \"#utility.yul\":30782:30785   */\n      dup2\n        /* \"#utility.yul\":30775:30785   */\n      swap1\n      pop\n        /* \"#utility.yul\":30412:30791   */\n      swap2\n      swap1\n      pop\n      jump\t// out\n        /* \"#utility.yul\":30797:30967   */\n    tag_363:\n        /* \"#utility.yul\":30937:30959   */\n      0x4661696c656420746f2073656e64204574686572000000000000000000000000\n        /* \"#utility.yul\":30933:30934   */\n      0x00\n        /* \"#utility.yul\":30925:30931   */\n      dup3\n        /* \"#utility.yul\":30921:30935   */\n      add\n        /* \"#utility.yul\":30914:30960   */\n      mstore\n        /* \"#utility.yul\":30797:30967   */\n      pop\n      jump\t// out\n        /* \"#utility.yul\":30973:31339   */\n    tag_364:\n        /* \"#utility.yul\":31115:31118   */\n      0x00\n        /* \"#utility.yul\":31136:31203   */\n      tag_649\n        /* \"#utility.yul\":31200:31202   */\n      0x14\n        /* \"#utility.yul\":31195:31198   */\n      dup4\n        /* \"#utility.yul\":31136:31203   */\n      tag_309\n      jump\t// in\n    tag_649:\n        /* \"#utility.yul\":31129:31203   */\n      swap2\n      pop\n        /* \"#utility.yul\":31212:31305   */\n      tag_650\n        /* \"#utility.yul\":31301:31304   */\n      dup3\n        /* \"#utility.yul\":31212:31305   */\n      tag_363\n      jump\t// in\n    tag_650:\n        /* \"#utility.yul\":31330:31332   */\n      0x20\n        /* \"#utility.yul\":31325:31328   */\n      dup3\n        /* \"#utility.yul\":31321:31333   */\n      add\n        /* \"#utility.yul\":31314:31333   */\n      swap1\n      pop\n        /* \"#utility.yul\":30973:31339   */\n      swap2\n      swap1\n      pop\n      jump\t// out\n        /* \"#utility.yul\":31345:31764   */\n    tag_239:\n        /* \"#utility.yul\":31511:31515   */\n      0x00\n        /* \"#utility.yul\":31549:31551   */\n      0x20\n        /* \"#utility.yul\":31538:31547   */\n      dup3\n        /* \"#utility.yul\":31534:31552   */\n      add\n        /* \"#utility.yul\":31526:31552   */\n      swap1\n      pop\n        /* \"#utility.yul\":31598:31607   */\n      dup2\n        /* \"#utility.yul\":31592:31596   */\n      dup2\n        /* \"#utility.yul\":31588:31608   */\n      sub\n        /* \"#utility.yul\":31584:31585   */\n      0x00\n        /* \"#utility.yul\":31573:31582   */\n      dup4\n        /* \"#utility.yul\":31569:31586   */\n      add\n        /* \"#utility.yul\":31562:31609   */\n      mstore\n        /* \"#utility.yul\":31626:31757   */\n      tag_652\n        /* \"#utility.yul\":31752:31756   */\n      dup2\n        /* \"#utility.yul\":31626:31757   */\n      tag_364\n      jump\t// in\n    tag_652:\n        /* \"#utility.yul\":31618:31757   */\n      swap1\n      pop\n        /* \"#utility.yul\":31345:31764   */\n      swap2\n      swap1\n      pop\n      jump\t// out\n        /* \"#utility.yul\":31770:31911   */\n    tag_365:\n        /* \"#utility.yul\":31819:31823   */\n      0x00\n        /* \"#utility.yul\":31842:31845   */\n      dup2\n        /* \"#utility.yul\":31834:31845   */\n      swap1\n      pop\n        /* \"#utility.yul\":31865:31868   */\n      dup2\n        /* \"#utility.yul\":31862:31863   */\n      0x00\n        /* \"#utility.yul\":31855:31869   */\n      mstore\n        /* \"#utility.yul\":31899:31903   */\n      0x20\n        /* \"#utility.yul\":31896:31897   */\n      0x00\n        /* \"#utility.yul\":31886:31904   */\n      keccak256\n        /* \"#utility.yul\":31878:31904   */\n      swap1\n      pop\n        /* \"#utility.yul\":31770:31911   */\n      swap2\n      swap1\n      pop\n      jump\t// out\n        /* \"#utility.yul\":31917:32010   */\n    tag_366:\n        /* \"#utility.yul\":31954:31960   */\n      0x00\n        /* \"#utility.yul\":32001:32003   */\n      0x20\n        /* \"#utility.yul\":31996:31998   */\n      0x1f\n        /* \"#utility.yul\":31989:31994   */\n      dup4\n        /* \"#utility.yul\":31985:31999   */\n      add\n        /* \"#utility.yul\":31981:32004   */\n      div\n        /* \"#utility.yul\":31971:32004   */\n      swap1\n      pop\n        /* \"#utility.yul\":31917:32010   */\n      swap2\n      swap1\n      pop\n      jump\t// out\n        /* \"#utility.yul\":32016:32123   */\n    tag_367:\n        /* \"#utility.yul\":32060:32068   */\n      0x00\n        /* \"#utility.yul\":32110:32115   */\n      dup3\n        /* \"#utility.yul\":32104:32108   */\n      dup3\n        /* \"#utility.yul\":32100:32116   */\n      shl\n        /* \"#utility.yul\":32079:32116   */\n      swap1\n      pop\n        /* \"#utility.yul\":32016:32123   */\n      swap3\n      swap2\n      pop\n      pop\n      jump\t// out\n        /* \"#utility.yul\":32129:32522   */\n    tag_368:\n        /* \"#utility.yul\":32198:32204   */\n      0x00\n        /* \"#utility.yul\":32248:32249   */\n      0x08\n        /* \"#utility.yul\":32236:32246   */\n      dup4\n        /* \"#utility.yul\":32232:32250   */\n      mul\n        /* \"#utility.yul\":32271:32368   */\n      tag_657\n        /* \"#utility.yul\":32301:32367   */\n      0xffffffffffffffffffffffffffffffffffffffffffffffffffffffffffffffff\n        /* \"#utility.yul\":32290:32299   */\n      dup3\n        /* \"#utility.yul\":32271:32368   */\n      tag_367\n      jump\t// in\n    tag_657:\n        /* \"#utility.yul\":32389:32428   */\n      tag_658\n        /* \"#utility.yul\":32419:32427   */\n      dup7\n        /* \"#utility.yul\":32408:32417   */\n      dup4\n        /* \"#utility.yul\":32389:32428   */\n      tag_367\n      jump\t// in\n    tag_658:\n        /* \"#utility.yul\":32377:32428   */\n      swap6\n      pop\n        /* \"#utility.yul\":32461:32465   */\n      dup1\n        /* \"#utility.yul\":32457:32466   */\n      not\n        /* \"#utility.yul\":32450:32455   */\n      dup5\n        /* \"#utility.yul\":32446:32467   */\n      and\n        /* \"#utility.yul\":32437:32467   */\n      swap4\n      pop\n        /* \"#utility.yul\":32510:32514   */\n      dup1\n        /* \"#utility.yul\":32500:32508   */\n      dup7\n        /* \"#utility.yul\":32496:32515   */\n      and\n        /* \"#utility.yul\":32489:32494   */\n      dup5\n        /* \"#utility.yul\":32486:32516   */\n      or\n        /* \"#utility.yul\":32476:32516   */\n      swap3\n      pop\n        /* \"#utility.yul\":32205:32522   */\n      pop\n      pop\n        /* \"#utility.yul\":32129:32522   */\n      swap4\n      swap3\n      pop\n      pop\n      pop\n      jump\t// out\n        /* \"#utility.yul\":32528:32588   */\n    tag_369:\n        /* \"#utility.yul\":32556:32559   */\n      0x00\n        /* \"#utility.yul\":32577:32582   */\n      dup2\n        /* \"#utility.yul\":32570:32582   */\n      swap1\n      pop\n        /* \"#utility.yul\":32528:32588   */\n      swap2\n      swap1\n      pop\n      jump\t// out\n        /* \"#utility.yul\":32594:32736   */\n    tag_370:\n        /* \"#utility.yul\":32644:32653   */\n      0x00\n        /* \"#utility.yul\":32677:32730   */\n      tag_661\n        /* \"#utility.yul\":32695:32729   */\n      tag_662\n        /* \"#utility.yul\":32704:32728   */\n      tag_663\n        /* \"#utility.yul\":32722:32727   */\n      dup5\n        /* \"#utility.yul\":32704:32728   */\n      tag_305\n      jump\t// in\n    tag_663:\n        /* \"#utility.yul\":32695:32729   */\n      tag_369\n      jump\t// in\n    tag_662:\n        /* \"#utility.yul\":32677:32730   */\n      tag_305\n      jump\t// in\n    tag_661:\n        /* \"#utility.yul\":32664:32730   */\n      swap1\n      pop\n        /* \"#utility.yul\":32594:32736   */\n      swap2\n      swap1\n      pop\n      jump\t// out\n        /* \"#utility.yul\":32742:32817   */\n    tag_371:\n        /* \"#utility.yul\":32785:32788   */\n      0x00\n        /* \"#utility.yul\":32806:32811   */\n      dup2\n        /* \"#utility.yul\":32799:32811   */\n      swap1\n      pop\n        /* \"#utility.yul\":32742:32817   */\n      swap2\n      swap1\n      pop\n      jump\t// out\n        /* \"#utility.yul\":32823:33092   */\n    tag_372:\n        /* \"#utility.yul\":32933:32972   */\n      tag_666\n        /* \"#utility.yul\":32964:32971   */\n      dup4\n        /* \"#utility.yul\":32933:32972   */\n      tag_370\n      jump\t// in\n    tag_666:\n        /* \"#utility.yul\":32994:33085   */\n      tag_667\n        /* \"#utility.yul\":33043:33084   */\n      tag_668\n        /* \"#utility.yul\":33067:33083   */\n      dup3\n        /* \"#utility.yul\":33043:33084   */\n      tag_371\n      jump\t// in\n    tag_668:\n        /* \"#utility.yul\":33035:33041   */\n      dup5\n        /* \"#utility.yul\":33028:33032   */\n      dup5\n        /* \"#utility.yul\":33022:33033   */\n      sload\n        /* \"#utility.yul\":32994:33085   */\n      tag_368\n      jump\t// in\n    tag_667:\n        /* \"#utility.yul\":32988:32992   */\n      dup3\n        /* \"#utility.yul\":32981:33086   */\n      sstore\n        /* \"#utility.yul\":32899:33092   */\n      pop\n        /* \"#utility.yul\":32823:33092   */\n      pop\n      pop\n      pop\n      jump\t// out\n        /* \"#utility.yul\":33098:33171   */\n    tag_373:\n        /* \"#utility.yul\":33143:33146   */\n      0x00\n        /* \"#utility.yul\":33098:33171   */\n      swap1\n      jump\t// out\n        /* \"#utility.yul\":33177:33366   */\n    tag_374:\n        /* \"#utility.yul\":33254:33286   */\n      tag_671\n      tag_373\n      jump\t// in\n    tag_671:\n        /* \"#utility.yul\":33295:33360   */\n      tag_672\n        /* \"#utility.yul\":33353:33359   */\n      dup2\n        /* \"#utility.yul\":33345:33351   */\n      dup5\n        /* \"#utility.yul\":33339:33343   */\n      dup5\n        /* \"#utility.yul\":33295:33360   */\n      tag_372\n      jump\t// in\n    tag_672:\n        /* \"#utility.yul\":33230:33366   */\n      pop\n        /* \"#utility.yul\":33177:33366   */\n      pop\n      pop\n      jump\t// out\n        /* \"#utility.yul\":33372:33558   */\n    tag_375:\n        /* \"#utility.yul\":33432:33552   */\n    tag_674:\n        /* \"#utility.yul\":33449:33452   */\n      dup2\n        /* \"#utility.yul\":33442:33447   */\n      dup2\n        /* \"#utility.yul\":33439:33453   */\n      lt\n        /* \"#utility.yul\":33432:33552   */\n      iszero\n      tag_676\n      jumpi\n        /* \"#utility.yul\":33503:33542   */\n      tag_677\n        /* \"#utility.yul\":33540:33541   */\n      0x00\n        /* \"#utility.yul\":33533:33538   */\n      dup3\n        /* \"#utility.yul\":33503:33542   */\n      tag_374\n      jump\t// in\n    tag_677:\n        /* \"#utility.yul\":33476:33477   */\n      0x01\n        /* \"#utility.yul\":33469:33474   */\n      dup2\n        /* \"#utility.yul\":33465:33478   */\n      add\n        /* \"#utility.yul\":33456:33478   */\n      swap1\n      pop\n        /* \"#utility.yul\":33432:33552   */\n      jump(tag_674)\n    tag_676:\n        /* \"#utility.yul\":33372:33558   */\n      pop\n      pop\n      jump\t// out\n        /* \"#utility.yul\":33564:34107   */\n    tag_376:\n        /* \"#utility.yul\":33665:33667   */\n      0x1f\n        /* \"#utility.yul\":33660:33663   */\n      dup3\n        /* \"#utility.yul\":33657:33668   */\n      gt\n        /* \"#utility.yul\":33654:34100   */\n      iszero\n      tag_679\n      jumpi\n        /* \"#utility.yul\":33699:33737   */\n      tag_680\n        /* \"#utility.yul\":33731:33736   */\n      dup2\n        /* \"#utility.yul\":33699:33737   */\n      tag_365\n      jump\t// in\n    tag_680:\n        /* \"#utility.yul\":33783:33812   */\n      tag_681\n        /* \"#utility.yul\":33801:33811   */\n      dup5\n        /* \"#utility.yul\":33783:33812   */\n      tag_366\n      jump\t// in\n    tag_681:\n        /* \"#utility.yul\":33773:33781   */\n      dup2\n        /* \"#utility.yul\":33769:33813   */\n      add\n        /* \"#utility.yul\":33966:33968   */\n      0x20\n        /* \"#utility.yul\":33954:33964   */\n      dup6\n        /* \"#utility.yul\":33951:33969   */\n      lt\n        /* \"#utility.yul\":33948:33997   */\n      iszero\n      tag_682\n      jumpi\n        /* \"#utility.yul\":33987:33995   */\n      dup2\n        /* \"#utility.yul\":33972:33995   */\n      swap1\n      pop\n        /* \"#utility.yul\":33948:33997   */\n    tag_682:\n        /* \"#utility.yul\":34010:34090   */\n      tag_683\n        /* \"#utility.yul\":34066:34088   */\n      tag_684\n        /* \"#utility.yul\":34084:34087   */\n      dup6\n        /* \"#utility.yul\":34066:34088   */\n      tag_366\n      jump\t// in\n    tag_684:\n        /* \"#utility.yul\":34056:34064   */\n      dup4\n        /* \"#utility.yul\":34052:34089   */\n      add\n        /* \"#utility.yul\":34039:34050   */\n      dup3\n        /* \"#utility.yul\":34010:34090   */\n      tag_375\n      jump\t// in\n    tag_683:\n        /* \"#utility.yul\":33669:34100   */\n      pop\n      pop\n        /* \"#utility.yul\":33654:34100   */\n    tag_679:\n        /* \"#utility.yul\":33564:34107   */\n      pop\n      pop\n      pop\n      jump\t// out\n        /* \"#utility.yul\":34113:34230   */\n    tag_377:\n        /* \"#utility.yul\":34167:34175   */\n      0x00\n        /* \"#utility.yul\":34217:34222   */\n      dup3\n        /* \"#utility.yul\":34211:34215   */\n      dup3\n        /* \"#utility.yul\":34207:34223   */\n      shr\n        /* \"#utility.yul\":34186:34223   */\n      swap1\n      pop\n        /* \"#utility.yul\":34113:34230   */\n      swap3\n      swap2\n      pop\n      pop\n      jump\t// out\n        /* \"#utility.yul\":34236:34405   */\n    tag_378:\n        /* \"#utility.yul\":34280:34286   */\n      0x00\n        /* \"#utility.yul\":34313:34364   */\n      tag_687\n        /* \"#utility.yul\":34361:34362   */\n      0x00\n        /* \"#utility.yul\":34357:34363   */\n      not\n        /* \"#utility.yul\":34349:34354   */\n      dup5\n        /* \"#utility.yul\":34346:34347   */\n      0x08\n        /* \"#utility.yul\":34342:34355   */\n      mul\n        /* \"#utility.yul\":34313:34364   */\n      tag_377\n      jump\t// in\n    tag_687:\n        /* \"#utility.yul\":34309:34365   */\n      not\n        /* \"#utility.yul\":34394:34398   */\n      dup1\n        /* \"#utility.yul\":34388:34392   */\n      dup4\n        /* \"#utility.yul\":34384:34399   */\n      and\n        /* \"#utility.yul\":34374:34399   */\n      swap2\n      pop\n        /* \"#utility.yul\":34287:34405   */\n      pop\n        /* \"#utility.yul\":34236:34405   */\n      swap3\n      swap2\n      pop\n      pop\n      jump\t// out\n        /* \"#utility.yul\":34410:34705   */\n    tag_379:\n        /* \"#utility.yul\":34486:34490   */\n      0x00\n        /* \"#utility.yul\":34632:34661   */\n      tag_689\n        /* \"#utility.yul\":34657:34660   */\n      dup4\n        /* \"#utility.yul\":34651:34655   */\n      dup4\n        /* \"#utility.yul\":34632:34661   */\n      tag_378\n      jump\t// in\n    tag_689:\n        /* \"#utility.yul\":34624:34661   */\n      swap2\n      pop\n        /* \"#utility.yul\":34694:34697   */\n      dup3\n        /* \"#utility.yul\":34691:34692   */\n      0x02\n        /* \"#utility.yul\":34687:34698   */\n      mul\n        /* \"#utility.yul\":34681:34685   */\n      dup3\n        /* \"#utility.yul\":34678:34699   */\n      or\n        /* \"#utility.yul\":34670:34699   */\n      swap1\n      pop\n        /* \"#utility.yul\":34410:34705   */\n      swap3\n      swap2\n      pop\n      pop\n      jump\t// out\n        /* \"#utility.yul\":34710:36105   */\n    tag_256:\n        /* \"#utility.yul\":34827:34864   */\n      tag_691\n        /* \"#utility.yul\":34860:34863   */\n      dup3\n        /* \"#utility.yul\":34827:34864   */\n      tag_308\n      jump\t// in\n    tag_691:\n        /* \"#utility.yul\":34929:34947   */\n      0xffffffffffffffff\n        /* \"#utility.yul\":34921:34927   */\n      dup2\n        /* \"#utility.yul\":34918:34948   */\n      gt\n        /* \"#utility.yul\":34915:34971   */\n      iszero\n      tag_692\n      jumpi\n        /* \"#utility.yul\":34951:34969   */\n      tag_693\n      tag_184\n      jump\t// in\n    tag_693:\n        /* \"#utility.yul\":34915:34971   */\n    tag_692:\n        /* \"#utility.yul\":34995:35033   */\n      tag_694\n        /* \"#utility.yul\":35027:35031   */\n      dup3\n        /* \"#utility.yul\":35021:35032   */\n      sload\n        /* \"#utility.yul\":34995:35033   */\n      tag_121\n      jump\t// in\n    tag_694:\n        /* \"#utility.yul\":35080:35147   */\n      tag_695\n        /* \"#utility.yul\":35140:35146   */\n      dup3\n        /* \"#utility.yul\":35132:35138   */\n      dup3\n        /* \"#utility.yul\":35126:35130   */\n      dup6\n        /* \"#utility.yul\":35080:35147   */\n      tag_376\n      jump\t// in\n    tag_695:\n        /* \"#utility.yul\":35174:35175   */\n      0x00\n        /* \"#utility.yul\":35198:35202   */\n      0x20\n        /* \"#utility.yul\":35185:35202   */\n      swap1\n      pop\n        /* \"#utility.yul\":35230:35232   */\n      0x1f\n        /* \"#utility.yul\":35222:35228   */\n      dup4\n        /* \"#utility.yul\":35219:35233   */\n      gt\n        /* \"#utility.yul\":35247:35248   */\n      0x01\n        /* \"#utility.yul\":35242:35860   */\n      dup2\n      eq\n      tag_697\n      jumpi\n        /* \"#utility.yul\":35904:35905   */\n      0x00\n        /* \"#utility.yul\":35921:35927   */\n      dup5\n        /* \"#utility.yul\":35918:35995   */\n      iszero\n      tag_698\n      jumpi\n        /* \"#utility.yul\":35970:35979   */\n      dup3\n        /* \"#utility.yul\":35965:35968   */\n      dup8\n        /* \"#utility.yul\":35961:35980   */\n      add\n        /* \"#utility.yul\":35955:35981   */\n      mload\n        /* \"#utility.yul\":35946:35981   */\n      swap1\n      pop\n        /* \"#utility.yul\":35918:35995   */\n    tag_698:\n        /* \"#utility.yul\":36021:36088   */\n      tag_699\n        /* \"#utility.yul\":36081:36087   */\n      dup6\n        /* \"#utility.yul\":36074:36079   */\n      dup3\n        /* \"#utility.yul\":36021:36088   */\n      tag_379\n      jump\t// in\n    tag_699:\n        /* \"#utility.yul\":36015:36019   */\n      dup7\n        /* \"#utility.yul\":36008:36089   */\n      sstore\n        /* \"#utility.yul\":35877:36099   */\n      pop\n        /* \"#utility.yul\":35212:36099   */\n      jump(tag_696)\n        /* \"#utility.yul\":35242:35860   */\n    tag_697:\n        /* \"#utility.yul\":35294:35298   */\n      0x1f\n        /* \"#utility.yul\":35290:35299   */\n      not\n        /* \"#utility.yul\":35282:35288   */\n      dup5\n        /* \"#utility.yul\":35278:35300   */\n      and\n        /* \"#utility.yul\":35328:35365   */\n      tag_700\n        /* \"#utility.yul\":35360:35364   */\n      dup7\n        /* \"#utility.yul\":35328:35365   */\n      tag_365\n      jump\t// in\n    tag_700:\n        /* \"#utility.yul\":35387:35388   */\n      0x00\n        /* \"#utility.yul\":35401:35609   */\n    tag_701:\n        /* \"#utility.yul\":35415:35422   */\n      dup3\n        /* \"#utility.yul\":35412:35413   */\n      dup2\n        /* \"#utility.yul\":35409:35423   */\n      lt\n        /* \"#utility.yul\":35401:35609   */\n      iszero\n      tag_703\n      jumpi\n        /* \"#utility.yul\":35494:35503   */\n      dup5\n        /* \"#utility.yul\":35489:35492   */\n      dup10\n        /* \"#utility.yul\":35485:35504   */\n      add\n        /* \"#utility.yul\":35479:35505   */\n      mload\n        /* \"#utility.yul\":35471:35477   */\n      dup3\n        /* \"#utility.yul\":35464:35506   */\n      sstore\n        /* \"#utility.yul\":35545:35546   */\n      0x01\n        /* \"#utility.yul\":35537:35543   */\n      dup3\n        /* \"#utility.yul\":35533:35547   */\n      add\n        /* \"#utility.yul\":35523:35547   */\n      swap2\n      pop\n        /* \"#utility.yul\":35592:35594   */\n      0x20\n        /* \"#utility.yul\":35581:35590   */\n      dup6\n        /* \"#utility.yul\":35577:35595   */\n      add\n        /* \"#utility.yul\":35564:35595   */\n      swap5\n      pop\n        /* \"#utility.yul\":35438:35442   */\n      0x20\n        /* \"#utility.yul\":35435:35436   */\n      dup2\n        /* \"#utility.yul\":35431:35443   */\n      add\n        /* \"#utility.yul\":35426:35443   */\n      swap1\n      pop\n        /* \"#utility.yul\":35401:35609   */\n      jump(tag_701)\n    tag_703:\n        /* \"#utility.yul\":35637:35643   */\n      dup7\n        /* \"#utility.yul\":35628:35635   */\n      dup4\n        /* \"#utility.yul\":35625:35644   */\n      lt\n        /* \"#utility.yul\":35622:35801   */\n      iszero\n      tag_704\n      jumpi\n        /* \"#utility.yul\":35695:35704   */\n      dup5\n        /* \"#utility.yul\":35690:35693   */\n      dup10\n        /* \"#utility.yul\":35686:35705   */\n      add\n        /* \"#utility.yul\":35680:35706   */\n      mload\n        /* \"#utility.yul\":35738:35786   */\n      tag_705\n        /* \"#utility.yul\":35780:35784   */\n      0x1f\n        /* \"#utility.yul\":35772:35778   */\n      dup10\n        /* \"#utility.yul\":35768:35785   */\n      and\n        /* \"#utility.yul\":35757:35766   */\n      dup3\n        /* \"#utility.yul\":35738:35786   */\n      tag_378\n      jump\t// in\n    tag_705:\n        /* \"#utility.yul\":35730:35736   */\n      dup4\n        /* \"#utility.yul\":35723:35787   */\n      sstore\n        /* \"#utility.yul\":35645:35801   */\n      pop\n        /* \"#utility.yul\":35622:35801   */\n    tag_704:\n        /* \"#utility.yul\":35847:35848   */\n      0x01\n        /* \"#utility.yul\":35843:35844   */\n      0x02\n        /* \"#utility.yul\":35835:35841   */\n      dup9\n        /* \"#utility.yul\":35831:35845   */\n      mul\n        /* \"#utility.yul\":35827:35849   */\n      add\n        /* \"#utility.yul\":35821:35825   */\n      dup9\n        /* \"#utility.yul\":35814:35850   */\n      sstore\n        /* \"#utility.yul\":35249:35860   */\n      pop\n      pop\n      pop\n        /* \"#utility.yul\":35212:36099   */\n    tag_696:\n      pop\n        /* \"#utility.yul\":34802:36105   */\n      pop\n      pop\n      pop\n        /* \"#utility.yul\":34710:36105   */\n      pop\n      pop\n      jump\t// out\n        /* \"#utility.yul\":36111:36305   */\n    tag_266:\n        /* \"#utility.yul\":36151:36155   */\n      0x00\n        /* \"#utility.yul\":36171:36191   */\n      tag_707\n        /* \"#utility.yul\":36189:36190   */\n      dup3\n        /* \"#utility.yul\":36171:36191   */\n      tag_305\n      jump\t// in\n    tag_707:\n        /* \"#utility.yul\":36166:36191   */\n      swap2\n      pop\n        /* \"#utility.yul\":36205:36225   */\n      tag_708\n        /* \"#utility.yul\":36223:36224   */\n      dup4\n        /* \"#utility.yul\":36205:36225   */\n      tag_305\n      jump\t// in\n    tag_708:\n        /* \"#utility.yul\":36200:36225   */\n      swap3\n      pop\n        /* \"#utility.yul\":36249:36250   */\n      dup3\n        /* \"#utility.yul\":36246:36247   */\n      dup3\n        /* \"#utility.yul\":36242:36251   */\n      sub\n        /* \"#utility.yul\":36234:36251   */\n      swap1\n      pop\n        /* \"#utility.yul\":36273:36274   */\n      dup2\n        /* \"#utility.yul\":36267:36271   */\n      dup2\n        /* \"#utility.yul\":36264:36275   */\n      gt\n        /* \"#utility.yul\":36261:36298   */\n      iszero\n      tag_709\n      jumpi\n        /* \"#utility.yul\":36278:36296   */\n      tag_710\n      tag_359\n      jump\t// in\n    tag_710:\n        /* \"#utility.yul\":36261:36298   */\n    tag_709:\n        /* \"#utility.yul\":36111:36305   */\n      swap3\n      swap2\n      pop\n      pop\n      jump\t// out\n        /* \"#utility.yul\":36311:36502   */\n    tag_268:\n        /* \"#utility.yul\":36351:36354   */\n      0x00\n        /* \"#utility.yul\":36370:36390   */\n      tag_712\n        /* \"#utility.yul\":36388:36389   */\n      dup3\n        /* \"#utility.yul\":36370:36390   */\n      tag_305\n      jump\t// in\n    tag_712:\n        /* \"#utility.yul\":36365:36390   */\n      swap2\n      pop\n        /* \"#utility.yul\":36404:36424   */\n      tag_713\n        /* \"#utility.yul\":36422:36423   */\n      dup4\n        /* \"#utility.yul\":36404:36424   */\n      tag_305\n      jump\t// in\n    tag_713:\n        /* \"#utility.yul\":36399:36424   */\n      swap3\n      pop\n        /* \"#utility.yul\":36447:36448   */\n      dup3\n        /* \"#utility.yul\":36444:36445   */\n      dup3\n        /* \"#utility.yul\":36440:36449   */\n      add\n        /* \"#utility.yul\":36433:36449   */\n      swap1\n      pop\n        /* \"#utility.yul\":36468:36471   */\n      dup1\n        /* \"#utility.yul\":36465:36466   */\n      dup3\n        /* \"#utility.yul\":36462:36472   */\n      gt\n        /* \"#utility.yul\":36459:36495   */\n      iszero\n      tag_714\n      jumpi\n        /* \"#utility.yul\":36475:36493   */\n      tag_715\n      tag_359\n      jump\t// in\n    tag_715:\n        /* \"#utility.yul\":36459:36495   */\n    tag_714:\n        /* \"#utility.yul\":36311:36502   */\n      swap3\n      swap2\n      pop\n      pop\n      jump\t// out\n\n    auxdata: 0xa2646970667358221220d76b540ce6903560e566d57485686b213d83b79c35471022adab5c904c397b8164736f6c63430008110033\n}\n","bytecode":{"linkReferences":{},"object":"608060405234801561001057600080fd5b50613520806100206000396000f3fe6080604052600436106101025760003560e01c8063a836707011610095578063b69ef8a811610064578063b69ef8a8146103d0578063bdc6ab03146103fb578063d0e30db014610417578063f6153ccd14610421578063fd70c7dd1461044c5761011a565b8063a836707014610303578063a9059cbb14610341578063ab6a9f171461036a578063b205b4f6146103a75761011a565b8063529a1baf116100d1578063529a1baf1461020f57806364aa65a81461024c5780636e6061d1146102895780637792a035146102c65761011a565b80630a02dcc71461011f5780630cb31a801461015c57806332f977631461019e57806344c5c6a5146101e45761011a565b3661011a57633b9aca0034101561011857600080fd5b005b600080fd5b34801561012b57600080fd5b506101466004803603810190610141919061238c565b610489565b6040516101539190612449565b60405180910390f35b34801561016857600080fd5b50610183600480360381019061017e919061238c565b610535565b604051610195969594939291906124bb565b60405180910390f35b3480156101aa57600080fd5b506101c560048036038101906101c0919061268b565b6106d1565b6040516101db9a999897969594939291906126fa565b60405180910390f35b3480156101f057600080fd5b506101f96108ed565b6040516102069190612965565b60405180910390f35b34801561021b57600080fd5b5061023660048036038101906102319190612987565b610b30565b60405161024391906129b4565b60405180910390f35b34801561025857600080fd5b50610273600480360381019061026e9190612987565b610b48565b6040516102809190612449565b60405180910390f35b34801561029557600080fd5b506102b060048036038101906102ab91906129cf565b610be8565b6040516102bd9190612449565b60405180910390f35b3480156102d257600080fd5b506102ed60048036038101906102e8919061238c565b610ca1565b6040516102fa9190612a0f565b60405180910390f35b34801561030f57600080fd5b5061032a60048036038101906103259190612a2a565b610ce0565b604051610338929190612cdf565b60405180910390f35b34801561034d57600080fd5b5061036860048036038101906103639190612d54565b6112ac565b005b34801561037657600080fd5b50610391600480360381019061038c9190612d94565b61135d565b60405161039e9190612e27565b60405180910390f35b3480156103b357600080fd5b506103ce60048036038101906103c99190612e42565b611404565b005b3480156103dc57600080fd5b506103e5611db1565b6040516103f291906129b4565b60405180910390f35b61041560048036038101906104109190612f8a565b611db9565b005b61041f612285565b005b34801561042d57600080fd5b506104366122a0565b60405161044391906129b4565b60405180910390f35b34801561045857600080fd5b50610473600480360381019061046e9190612a2a565b6122a6565b6040516104809190612a0f565b60405180910390f35b6000818154811061049957600080fd5b9060005260206000200160009150905080546104b490613028565b80601f01602080910402602001604051908101604052809291908181526020018280546104e090613028565b801561052d5780601f106105025761010080835404028352916020019161052d565b820191906000526020600020905b81548152906001019060200180831161051057829003601f168201915b505050505081565b6005818154811061054557600080fd5b90600052602060002090600602016000915090508060000160009054906101000a900473ffffffffffffffffffffffffffffffffffffffff16908060010160009054906101000a900473ffffffffffffffffffffffffffffffffffffffff16908060020180546105b490613028565b80601f01602080910402602001604051908101604052809291908181526020018280546105e090613028565b801561062d5780601f106106025761010080835404028352916020019161062d565b820191906000526020600020905b81548152906001019060200180831161061057829003601f168201915b50505050509080600301805461064290613028565b80601f016020809104026020016040519081016040528092919081815260200182805461066e90613028565b80156106bb5780601f10610690576101008083540402835291602001916106bb565b820191906000526020600020905b81548152906001019060200180831161069e57829003601f168201915b5050505050908060040154908060050154905086565b600760205282600052604060002082805160208101820180518482526020830160208501208183528095505050505050602052806000526040600020600092509250505080600001805461072490613028565b80601f016020809104026020016040519081016040528092919081815260200182805461075090613028565b801561079d5780601f106107725761010080835404028352916020019161079d565b820191906000526020600020905b81548152906001019060200180831161078057829003601f168201915b5050505050908060010180546107b290613028565b80601f01602080910402602001604051908101604052809291908181526020018280546107de90613028565b801561082b5780601f106108005761010080835404028352916020019161082b565b820191906000526020600020905b81548152906001019060200180831161080e57829003601f168201915b50505050509080600201805461084090613028565b80601f016020809104026020016040519081016040528092919081815260200182805461086c90613028565b80156108b95780601f1061088e576101008083540402835291602001916108b9565b820191906000526020600020905b81548152906001019060200180831161089c57829003601f168201915b505050505090806003015490806004015490806005015490806006015490806007015490806008015490806009015490508a565b60606005805480602002602001604051908101604052809291908181526020016000905b82821015610b2757838290600052602060002090600602016040518060c00160405290816000820160009054906101000a900473ffffffffffffffffffffffffffffffffffffffff1673ffffffffffffffffffffffffffffffffffffffff1673ffffffffffffffffffffffffffffffffffffffff1681526020016001820160009054906101000a900473ffffffffffffffffffffffffffffffffffffffff1673ffffffffffffffffffffffffffffffffffffffff1673ffffffffffffffffffffffffffffffffffffffff1681526020016002820180546109f090613028565b80601f0160208091040260200160405190810160405280929190818152602001828054610a1c90613028565b8015610a695780601f10610a3e57610100808354040283529160200191610a69565b820191906000526020600020905b815481529060010190602001808311610a4c57829003601f168201915b50505050508152602001600382018054610a8290613028565b80601f0160208091040260200160405190810160405280929190818152602001828054610aae90613028565b8015610afb5780601f10610ad057610100808354040283529160200191610afb565b820191906000526020600020905b815481529060010190602001808311610ade57829003601f168201915b505050505081526020016004820154815260200160058201548152505081526020019060010190610911565b50505050905090565b60096020528060005260406000206000915090505481565b60026020528060005260406000206000915090508054610b6790613028565b80601f0160208091040260200160405190810160405280929190818152602001828054610b9390613028565b8015610be05780601f10610bb557610100808354040283529160200191610be0565b820191906000526020600020905b815481529060010190602001808311610bc357829003601f168201915b505050505081565b60066020528160005260406000208181548110610c0457600080fd5b90600052602060002001600091509150508054610c2090613028565b80601f0160208091040260200160405190810160405280929190818152602001828054610c4c90613028565b8015610c995780601f10610c6e57610100808354040283529160200191610c99565b820191906000526020600020905b815481529060010190602001808311610c7c57829003601f168201915b505050505081565b60018181548110610cb157600080fd5b906000526020600020016000915054906101000a900473ffffffffffffffffffffffffffffffffffffffff1681565b60608060003390506000600660008373ffffffffffffffffffffffffffffffffffffffff1673ffffffffffffffffffffffffffffffffffffffff16815260200190815260200160002090506000600660008473ffffffffffffffffffffffffffffffffffffffff1673ffffffffffffffffffffffffffffffffffffffff1681526020019081526020016000208054905067ffffffffffffffff811115610d8957610d88612560565b5b604051908082528060200260200182016040528015610dc257816020015b610daf6122ef565b815260200190600190039081610da75790505b50905060005b828054905081101561118c576000838281548110610de957610de8613059565b5b906000526020600020018054610dfe90613028565b80601f0160208091040260200160405190810160405280929190818152602001828054610e2a90613028565b8015610e775780601f10610e4c57610100808354040283529160200191610e77565b820191906000526020600020905b815481529060010190602001808311610e5a57829003601f168201915b50505050509050600760008673ffffffffffffffffffffffffffffffffffffffff1673ffffffffffffffffffffffffffffffffffffffff16815260200190815260200160002081604051610ecb91906130c4565b9081526020016040518091039020600060038a604051610eeb91906130c4565b908152602001604051809103902060009054906101000a900473ffffffffffffffffffffffffffffffffffffffff1673ffffffffffffffffffffffffffffffffffffffff1673ffffffffffffffffffffffffffffffffffffffff16815260200190815260200160002060405180610140016040529081600082018054610f7090613028565b80601f0160208091040260200160405190810160405280929190818152602001828054610f9c90613028565b8015610fe95780601f10610fbe57610100808354040283529160200191610fe9565b820191906000526020600020905b815481529060010190602001808311610fcc57829003601f168201915b5050505050815260200160018201805461100290613028565b80601f016020809104026020016040519081016040528092919081815260200182805461102e90613028565b801561107b5780601f106110505761010080835404028352916020019161107b565b820191906000526020600020905b81548152906001019060200180831161105e57829003601f168201915b5050505050815260200160028201805461109490613028565b80601f01602080910402602001604051908101604052809291908181526020018280546110c090613028565b801561110d5780601f106110e25761010080835404028352916020019161110d565b820191906000526020600020905b8154815290600101906020018083116110f057829003601f168201915b5050505050815260200160038201548152602001600482015481526020016005820154815260200160068201548152602001600782015481526020016008820154815260200160098201548152505083838151811061116f5761116e613059565b5b602002602001018190525050806111859061310a565b9050610dc8565b50600660008473ffffffffffffffffffffffffffffffffffffffff1673ffffffffffffffffffffffffffffffffffffffff1681526020019081526020016000208181805480602002602001604051908101604052809291908181526020016000905b8282101561129a57838290600052602060002001805461120d90613028565b80601f016020809104026020016040519081016040528092919081815260200182805461123990613028565b80156112865780601f1061125b57610100808354040283529160200191611286565b820191906000526020600020905b81548152906001019060200180831161126957829003601f168201915b5050505050815260200190600101906111ee565b50505050915094509450505050915091565b60008273ffffffffffffffffffffffffffffffffffffffff16826040516112d290613183565b60006040518083038185875af1925050503d806000811461130f576040519150601f19603f3d011682016040523d82523d6000602084013e611314565b606091505b5050905080611358576040517f08c379a000000000000000000000000000000000000000000000000000000000815260040161134f906131e4565b60405180910390fd5b505050565b6000806008600060038560405161137491906130c4565b908152602001604051809103902060009054906101000a900473ffffffffffffffffffffffffffffffffffffffff1673ffffffffffffffffffffffffffffffffffffffff1673ffffffffffffffffffffffffffffffffffffffff168152602001908152602001600020846040516113eb91906130c4565b9081526020016040518091039020541415905092915050565b60003390506000600260008373ffffffffffffffffffffffffffffffffffffffff1673ffffffffffffffffffffffffffffffffffffffff168152602001908152602001600020805461145590613028565b90500361146157600080fd5b600073ffffffffffffffffffffffffffffffffffffffff1660038b60405161148991906130c4565b908152602001604051809103902060009054906101000a900473ffffffffffffffffffffffffffffffffffffffff1673ffffffffffffffffffffffffffffffffffffffff16036114d857600080fd5b60016009600060038d6040516114ee91906130c4565b908152602001604051809103902060009054906101000a900473ffffffffffffffffffffffffffffffffffffffff1673ffffffffffffffffffffffffffffffffffffffff1673ffffffffffffffffffffffffffffffffffffffff16815260200190815260200160002054101561156357600080fd5b60006007600060038d60405161157991906130c4565b908152602001604051809103902060009054906101000a900473ffffffffffffffffffffffffffffffffffffffff1673ffffffffffffffffffffffffffffffffffffffff1673ffffffffffffffffffffffffffffffffffffffff16815260200190815260200160002090506115ee8d8c61135d565b611752576006600060038d60405161160691906130c4565b908152602001604051809103902060009054906101000a900473ffffffffffffffffffffffffffffffffffffffff1673ffffffffffffffffffffffffffffffffffffffff1673ffffffffffffffffffffffffffffffffffffffff1681526020019081526020016000208d9080600181540180825580915050600190039060005260206000200160009091909190915090816116a191906133b0565b506008600060038d6040516116b691906130c4565b908152602001604051809103902060009054906101000a900473ffffffffffffffffffffffffffffffffffffffff1673ffffffffffffffffffffffffffffffffffffffff1673ffffffffffffffffffffffffffffffffffffffff1681526020019081526020016000208d60405161172d91906130c4565b9081526020016040518091039020600081548092919061174c9061310a565b91905055505b6000818e60405161176391906130c4565b908152602001604051809103902090508d8160008573ffffffffffffffffffffffffffffffffffffffff1673ffffffffffffffffffffffffffffffffffffffff16815260200190815260200160002060000190816117c191906133b0565b508c8160008573ffffffffffffffffffffffffffffffffffffffff1673ffffffffffffffffffffffffffffffffffffffff168152602001908152602001600020600101908161181091906133b0565b508b8160008573ffffffffffffffffffffffffffffffffffffffff1673ffffffffffffffffffffffffffffffffffffffff168152602001908152602001600020600201908161185f91906133b0565b508a8160008573ffffffffffffffffffffffffffffffffffffffff1673ffffffffffffffffffffffffffffffffffffffff16815260200190815260200160002060070181905550898160008573ffffffffffffffffffffffffffffffffffffffff1673ffffffffffffffffffffffffffffffffffffffff16815260200190815260200160002060080181905550888160008573ffffffffffffffffffffffffffffffffffffffff1673ffffffffffffffffffffffffffffffffffffffff16815260200190815260200160002060090181905550878160008573ffffffffffffffffffffffffffffffffffffffff1673ffffffffffffffffffffffffffffffffffffffff16815260200190815260200160002060030181905550868160008573ffffffffffffffffffffffffffffffffffffffff1673ffffffffffffffffffffffffffffffffffffffff16815260200190815260200160002060060181905550858160008573ffffffffffffffffffffffffffffffffffffffff1673ffffffffffffffffffffffffffffffffffffffff16815260200190815260200160002060040181905550848160008573ffffffffffffffffffffffffffffffffffffffff1673ffffffffffffffffffffffffffffffffffffffff1681526020019081526020016000206005018190555060016009600060038f604051611a6091906130c4565b908152602001604051809103902060009054906101000a900473ffffffffffffffffffffffffffffffffffffffff1673ffffffffffffffffffffffffffffffffffffffff1673ffffffffffffffffffffffffffffffffffffffff1681526020019081526020016000206000828254611ad89190613482565b925050819055506001600960008573ffffffffffffffffffffffffffffffffffffffff1673ffffffffffffffffffffffffffffffffffffffff1681526020019081526020016000206000828254611b2f91906134b6565b92505081905550611b418360016112ac565b60006040518060c0016040528060038f604051611b5e91906130c4565b908152602001604051809103902060009054906101000a900473ffffffffffffffffffffffffffffffffffffffff1673ffffffffffffffffffffffffffffffffffffffff1681526020018573ffffffffffffffffffffffffffffffffffffffff1681526020018e8152602001600260008773ffffffffffffffffffffffffffffffffffffffff1673ffffffffffffffffffffffffffffffffffffffff1681526020019081526020016000208054611c1490613028565b80601f0160208091040260200160405190810160405280929190818152602001828054611c4090613028565b8015611c8d5780601f10611c6257610100808354040283529160200191611c8d565b820191906000526020600020905b815481529060010190602001808311611c7057829003601f168201915b5050505050815260200160018152602001868152509050600581908060018154018082558091505060019003906000526020600020906006020160009091909190915060008201518160000160006101000a81548173ffffffffffffffffffffffffffffffffffffffff021916908373ffffffffffffffffffffffffffffffffffffffff16021790555060208201518160010160006101000a81548173ffffffffffffffffffffffffffffffffffffffff021916908373ffffffffffffffffffffffffffffffffffffffff1602179055506040820151816002019081611d7391906133b0565b506060820151816003019081611d8991906133b0565b506080820151816004015560a082015181600501555050505050505050505050505050505050565b600047905090565b6000600260008573ffffffffffffffffffffffffffffffffffffffff1673ffffffffffffffffffffffffffffffffffffffff1681526020019081526020016000208054611e0590613028565b9050148015611e7e5750600073ffffffffffffffffffffffffffffffffffffffff16600383604051611e3791906130c4565b908152602001604051809103902060009054906101000a900473ffffffffffffffffffffffffffffffffffffffff1673ffffffffffffffffffffffffffffffffffffffff16145b15612280576064341015611e9157600080fd5b600082908060018154018082558091505060019003906000526020600020016000909190919091509081611ec591906133b0565b506001839080600181540180825580915050600190039060005260206000200160009091909190916101000a81548173ffffffffffffffffffffffffffffffffffffffff021916908373ffffffffffffffffffffffffffffffffffffffff16021790555082600383604051611f3a91906130c4565b908152602001604051809103902060006101000a81548173ffffffffffffffffffffffffffffffffffffffff021916908373ffffffffffffffffffffffffffffffffffffffff16021790555081600260008573ffffffffffffffffffffffffffffffffffffffff1673ffffffffffffffffffffffffffffffffffffffff1681526020019081526020016000209081611fd291906133b0565b5034600960008573ffffffffffffffffffffffffffffffffffffffff1673ffffffffffffffffffffffffffffffffffffffff168152602001908152602001600020600082825461202291906134b6565b9250508190555060006040518060c001604052803373ffffffffffffffffffffffffffffffffffffffff1681526020013073ffffffffffffffffffffffffffffffffffffffff168152602001600260003373ffffffffffffffffffffffffffffffffffffffff1673ffffffffffffffffffffffffffffffffffffffff16815260200190815260200160002080546120b890613028565b80601f01602080910402602001604051908101604052809291908181526020018280546120e490613028565b80156121315780601f1061210657610100808354040283529160200191612131565b820191906000526020600020905b81548152906001019060200180831161211457829003601f168201915b505050505081526020016040518060400160405280600481526020017f42616e6b000000000000000000000000000000000000000000000000000000008152508152602001348152602001838152509050600581908060018154018082558091505060019003906000526020600020906006020160009091909190915060008201518160000160006101000a81548173ffffffffffffffffffffffffffffffffffffffff021916908373ffffffffffffffffffffffffffffffffffffffff16021790555060208201518160010160006101000a81548173ffffffffffffffffffffffffffffffffffffffff021916908373ffffffffffffffffffffffffffffffffffffffff160217905550604082015181600201908161225191906133b0565b50606082015181600301908161226791906133b0565b506080820151816004015560a082015181600501555050505b505050565b346004600082825461229791906134b6565b92505081905550565b60045481565b6003818051602081018201805184825260208301602085012081835280955050505050506000915054906101000a900473ffffffffffffffffffffffffffffffffffffffff1681565b604051806101400160405280606081526020016060815260200160608152602001600081526020016000815260200160008152602001600081526020016000815260200160008152602001600081525090565b6000604051905090565b600080fd5b600080fd5b6000819050919050565b61236981612356565b811461237457600080fd5b50565b60008135905061238681612360565b92915050565b6000602082840312156123a2576123a161234c565b5b60006123b084828501612377565b91505092915050565b600081519050919050565b600082825260208201905092915050565b60005b838110156123f35780820151818401526020810190506123d8565b60008484015250505050565b6000601f19601f8301169050919050565b600061241b826123b9565b61242581856123c4565b93506124358185602086016123d5565b61243e816123ff565b840191505092915050565b600060208201905081810360008301526124638184612410565b905092915050565b600073ffffffffffffffffffffffffffffffffffffffff82169050919050565b60006124968261246b565b9050919050565b6124a68161248b565b82525050565b6124b581612356565b82525050565b600060c0820190506124d0600083018961249d565b6124dd602083018861249d565b81810360408301526124ef8187612410565b905081810360608301526125038186612410565b905061251260808301856124ac565b61251f60a08301846124ac565b979650505050505050565b6125338161248b565b811461253e57600080fd5b50565b6000813590506125508161252a565b92915050565b600080fd5b600080fd5b7f4e487b7100000000000000000000000000000000000000000000000000000000600052604160045260246000fd5b612598826123ff565b810181811067ffffffffffffffff821117156125b7576125b6612560565b5b80604052505050565b60006125ca612342565b90506125d6828261258f565b919050565b600067ffffffffffffffff8211156125f6576125f5612560565b5b6125ff826123ff565b9050602081019050919050565b82818337600083830152505050565b600061262e612629846125db565b6125c0565b90508281526020810184848401111561264a5761264961255b565b5b61265584828561260c565b509392505050565b600082601f83011261267257612671612556565b5b813561268284826020860161261b565b91505092915050565b6000806000606084860312156126a4576126a361234c565b5b60006126b286828701612541565b935050602084013567ffffffffffffffff8111156126d3576126d2612351565b5b6126df8682870161265d565b92505060406126f086828701612541565b9150509250925092565b6000610140820190508181036000830152612715818d612410565b90508181036020830152612729818c612410565b9050818103604083015261273d818b612410565b905061274c606083018a6124ac565b61275960808301896124ac565b61276660a08301886124ac565b61277360c08301876124ac565b61278060e08301866124ac565b61278e6101008301856124ac565b61279c6101208301846124ac565b9b9a5050505050505050505050565b600081519050919050565b600082825260208201905092915050565b6000819050602082019050919050565b6127e08161248b565b82525050565b600082825260208201905092915050565b6000612802826123b9565b61280c81856127e6565b935061281c8185602086016123d5565b612825816123ff565b840191505092915050565b61283981612356565b82525050565b600060c08301600083015161285760008601826127d7565b50602083015161286a60208601826127d7565b506040830151848203604086015261288282826127f7565b9150506060830151848203606086015261289c82826127f7565b91505060808301516128b16080860182612830565b5060a08301516128c460a0860182612830565b508091505092915050565b60006128db838361283f565b905092915050565b6000602082019050919050565b60006128fb826127ab565b61290581856127b6565b935083602082028501612917856127c7565b8060005b85811015612953578484038952815161293485826128cf565b945061293f836128e3565b925060208a0199505060018101905061291b565b50829750879550505050505092915050565b6000602082019050818103600083015261297f81846128f0565b905092915050565b60006020828403121561299d5761299c61234c565b5b60006129ab84828501612541565b91505092915050565b60006020820190506129c960008301846124ac565b92915050565b600080604083850312156129e6576129e561234c565b5b60006129f485828601612541565b9250506020612a0585828601612377565b9150509250929050565b6000602082019050612a24600083018461249d565b92915050565b600060208284031215612a4057612a3f61234c565b5b600082013567ffffffffffffffff811115612a5e57612a5d612351565b5b612a6a8482850161265d565b91505092915050565b600081519050919050565b600082825260208201905092915050565b6000819050602082019050919050565b6000612aab83836127f7565b905092915050565b6000602082019050919050565b6000612acb82612a73565b612ad58185612a7e565b935083602082028501612ae785612a8f565b8060005b85811015612b235784840389528151612b048582612a9f565b9450612b0f83612ab3565b925060208a01995050600181019050612aeb565b50829750879550505050505092915050565b600081519050919050565b600082825260208201905092915050565b6000819050602082019050919050565b6000610140830160008301518482036000860152612b7f82826127f7565b91505060208301518482036020860152612b9982826127f7565b91505060408301518482036040860152612bb382826127f7565b9150506060830151612bc86060860182612830565b506080830151612bdb6080860182612830565b5060a0830151612bee60a0860182612830565b5060c0830151612c0160c0860182612830565b5060e0830151612c1460e0860182612830565b50610100830151612c29610100860182612830565b50610120830151612c3e610120860182612830565b508091505092915050565b6000612c558383612b61565b905092915050565b6000602082019050919050565b6000612c7582612b35565b612c7f8185612b40565b935083602082028501612c9185612b51565b8060005b85811015612ccd5784840389528151612cae8582612c49565b9450612cb983612c5d565b925060208a01995050600181019050612c95565b50829750879550505050505092915050565b60006040820190508181036000830152612cf98185612ac0565b90508181036020830152612d0d8184612c6a565b90509392505050565b6000612d218261246b565b9050919050565b612d3181612d16565b8114612d3c57600080fd5b50565b600081359050612d4e81612d28565b92915050565b60008060408385031215612d6b57612d6a61234c565b5b6000612d7985828601612d3f565b9250506020612d8a85828601612377565b9150509250929050565b60008060408385031215612dab57612daa61234c565b5b600083013567ffffffffffffffff811115612dc957612dc8612351565b5b612dd58582860161265d565b925050602083013567ffffffffffffffff811115612df657612df5612351565b5b612e028582860161265d565b9150509250929050565b60008115159050919050565b612e2181612e0c565b82525050565b6000602082019050612e3c6000830184612e18565b92915050565b60008060008060008060008060008060006101608c8e031215612e6857612e6761234c565b5b60008c013567ffffffffffffffff811115612e8657612e85612351565b5b612e928e828f0161265d565b9b505060208c013567ffffffffffffffff811115612eb357612eb2612351565b5b612ebf8e828f0161265d565b9a505060408c013567ffffffffffffffff811115612ee057612edf612351565b5b612eec8e828f0161265d565b9950506060612efd8e828f01612377565b9850506080612f0e8e828f01612377565b97505060a0612f1f8e828f01612377565b96505060c0612f308e828f01612377565b95505060e0612f418e828f01612377565b945050610100612f538e828f01612377565b935050610120612f658e828f01612377565b925050610140612f778e828f01612377565b9150509295989b509295989b9093969950565b600080600060608486031215612fa357612fa261234c565b5b6000612fb186828701612541565b935050602084013567ffffffffffffffff811115612fd257612fd1612351565b5b612fde8682870161265d565b9250506040612fef86828701612377565b9150509250925092565b7f4e487b7100000000000000000000000000000000000000000000000000000000600052602260045260246000fd5b6000600282049050600182168061304057607f821691505b60208210810361305357613052612ff9565b5b50919050565b7f4e487b7100000000000000000000000000000000000000000000000000000000600052603260045260246000fd5b600081905092915050565b600061309e826123b9565b6130a88185613088565b93506130b88185602086016123d5565b80840191505092915050565b60006130d08284613093565b915081905092915050565b7f4e487b7100000000000000000000000000000000000000000000000000000000600052601160045260246000fd5b600061311582612356565b91507fffffffffffffffffffffffffffffffffffffffffffffffffffffffffffffffff8203613147576131466130db565b5b600182019050919050565b600081905092915050565b50565b600061316d600083613152565b91506131788261315d565b600082019050919050565b600061318e82613160565b9150819050919050565b7f4661696c656420746f2073656e64204574686572000000000000000000000000600082015250565b60006131ce6014836123c4565b91506131d982613198565b602082019050919050565b600060208201905081810360008301526131fd816131c1565b9050919050565b60008190508160005260206000209050919050565b60006020601f8301049050919050565b600082821b905092915050565b6000600883026132667fffffffffffffffffffffffffffffffffffffffffffffffffffffffffffffffff82613229565b6132708683613229565b95508019841693508086168417925050509392505050565b6000819050919050565b60006132ad6132a86132a384612356565b613288565b612356565b9050919050565b6000819050919050565b6132c783613292565b6132db6132d3826132b4565b848454613236565b825550505050565b600090565b6132f06132e3565b6132fb8184846132be565b505050565b5b8181101561331f576133146000826132e8565b600181019050613301565b5050565b601f8211156133645761333581613204565b61333e84613219565b8101602085101561334d578190505b61336161335985613219565b830182613300565b50505b505050565b600082821c905092915050565b600061338760001984600802613369565b1980831691505092915050565b60006133a08383613376565b9150826002028217905092915050565b6133b9826123b9565b67ffffffffffffffff8111156133d2576133d1612560565b5b6133dc8254613028565b6133e7828285613323565b600060209050601f83116001811461341a5760008415613408578287015190505b6134128582613394565b86555061347a565b601f19841661342886613204565b60005b828110156134505784890151825560018201915060208501945060208101905061342b565b8683101561346d5784890151613469601f891682613376565b8355505b6001600288020188555050505b505050505050565b600061348d82612356565b915061349883612356565b92508282039050818111156134b0576134af6130db565b5b92915050565b60006134c182612356565b91506134cc83612356565b92508282019050808211156134e4576134e36130db565b5b9291505056fea2646970667358221220d76b540ce6903560e566d57485686b213d83b79c35471022adab5c904c397b8164736f6c63430008110033","opcodes":"PUSH1 0x80 PUSH1 0x40 MSTORE CALLVALUE DUP1 ISZERO PUSH2 0x10 JUMPI PUSH1 0x0 DUP1 REVERT JUMPDEST POP PUSH2 0x3520 DUP1 PUSH2 0x20 PUSH1 0x0 CODECOPY PUSH1 0x0 RETURN INVALID PUSH1 0x80 PUSH1 0x40 MSTORE PUSH1 0x4 CALLDATASIZE LT PUSH2 0x102 JUMPI PUSH1 0x0 CALLDATALOAD PUSH1 0xE0 SHR DUP1 PUSH4 0xA8367070 GT PUSH2 0x95 JUMPI DUP1 PUSH4 0xB69EF8A8 GT PUSH2 0x64 JUMPI DUP1 PUSH4 0xB69EF8A8 EQ PUSH2 0x3D0 JUMPI DUP1 PUSH4 0xBDC6AB03 EQ PUSH2 0x3FB JUMPI DUP1 PUSH4 0xD0E30DB0 EQ PUSH2 0x417 JUMPI DUP1 PUSH4 0xF6153CCD EQ PUSH2 0x421 JUMPI DUP1 PUSH4 0xFD70C7DD EQ PUSH2 0x44C JUMPI PUSH2 0x11A JUMP JUMPDEST DUP1 PUSH4 0xA8367070 EQ PUSH2 0x303 JUMPI DUP1 PUSH4 0xA9059CBB EQ PUSH2 0x341 JUMPI DUP1 PUSH4 0xAB6A9F17 EQ PUSH2 0x36A JUMPI DUP1 PUSH4 0xB205B4F6 EQ PUSH2 0x3A7 JUMPI PUSH2 0x11A JUMP JUMPDEST DUP1 PUSH4 0x529A1BAF GT PUSH2 0xD1 JUMPI DUP1 PUSH4 0x529A1BAF EQ PUSH2 0x20F JUMPI DUP1 PUSH4 0x64AA65A8 EQ PUSH2 0x24C JUMPI DUP1 PUSH4 0x6E6061D1 EQ PUSH2 0x289 JUMPI DUP1 PUSH4 0x7792A035 EQ PUSH2 0x2C6 JUMPI PUSH2 0x11A JUMP JUMPDEST DUP1 PUSH4 0xA02DCC7 EQ PUSH2 0x11F JUMPI DUP1 PUSH4 0xCB31A80 EQ PUSH2 0x15C JUMPI DUP1 PUSH4 0x32F97763 EQ PUSH2 0x19E JUMPI DUP1 PUSH4 0x44C5C6A5 EQ PUSH2 0x1E4 JUMPI PUSH2 0x11A JUMP JUMPDEST CALLDATASIZE PUSH2 0x11A JUMPI PUSH4 0x3B9ACA00 CALLVALUE LT ISZERO PUSH2 0x118 JUMPI PUSH1 0x0 DUP1 REVERT JUMPDEST STOP JUMPDEST PUSH1 0x0 DUP1 REVERT JUMPDEST CALLVALUE DUP1 ISZERO PUSH2 0x12B JUMPI PUSH1 0x0 DUP1 REVERT JUMPDEST POP PUSH2 0x146 PUSH1 0x4 DUP1 CALLDATASIZE SUB DUP2 ADD SWAP1 PUSH2 0x141 SWAP2 SWAP1 PUSH2 0x238C JUMP JUMPDEST PUSH2 0x489 JUMP JUMPDEST PUSH1 0x40 MLOAD PUSH2 0x153 SWAP2 SWAP1 PUSH2 0x2449 JUMP JUMPDEST PUSH1 0x40 MLOAD DUP1 SWAP2 SUB SWAP1 RETURN JUMPDEST CALLVALUE DUP1 ISZERO PUSH2 0x168 JUMPI PUSH1 0x0 DUP1 REVERT JUMPDEST POP PUSH2 0x183 PUSH1 0x4 DUP1 CALLDATASIZE SUB DUP2 ADD SWAP1 PUSH2 0x17E SWAP2 SWAP1 PUSH2 0x238C JUMP JUMPDEST PUSH2 0x535 JUMP JUMPDEST PUSH1 0x40 MLOAD PUSH2 0x195 SWAP7 SWAP6 SWAP5 SWAP4 SWAP3 SWAP2 SWAP1 PUSH2 0x24BB JUMP JUMPDEST PUSH1 0x40 MLOAD DUP1 SWAP2 SUB SWAP1 RETURN JUMPDEST CALLVALUE DUP1 ISZERO PUSH2 0x1AA JUMPI PUSH1 0x0 DUP1 REVERT JUMPDEST POP PUSH2 0x1C5 PUSH1 0x4 DUP1 CALLDATASIZE SUB DUP2 ADD SWAP1 PUSH2 0x1C0 SWAP2 SWAP1 PUSH2 0x268B JUMP JUMPDEST PUSH2 0x6D1 JUMP JUMPDEST PUSH1 0x40 MLOAD PUSH2 0x1DB SWAP11 SWAP10 SWAP9 SWAP8 SWAP7 SWAP6 SWAP5 SWAP4 SWAP3 SWAP2 SWAP1 PUSH2 0x26FA JUMP JUMPDEST PUSH1 0x40 MLOAD DUP1 SWAP2 SUB SWAP1 RETURN JUMPDEST CALLVALUE DUP1 ISZERO PUSH2 0x1F0 JUMPI PUSH1 0x0 DUP1 REVERT JUMPDEST POP PUSH2 0x1F9 PUSH2 0x8ED JUMP JUMPDEST PUSH1 0x40 MLOAD PUSH2 0x206 SWAP2 SWAP1 PUSH2 0x2965 JUMP JUMPDEST PUSH1 0x40 MLOAD DUP1 SWAP2 SUB SWAP1 RETURN JUMPDEST CALLVALUE DUP1 ISZERO PUSH2 0x21B JUMPI PUSH1 0x0 DUP1 REVERT JUMPDEST POP PUSH2 0x236 PUSH1 0x4 DUP1 CALLDATASIZE SUB DUP2 ADD SWAP1 PUSH2 0x231 SWAP2 SWAP1 PUSH2 0x2987 JUMP JUMPDEST PUSH2 0xB30 JUMP JUMPDEST PUSH1 0x40 MLOAD PUSH2 0x243 SWAP2 SWAP1 PUSH2 0x29B4 JUMP JUMPDEST PUSH1 0x40 MLOAD DUP1 SWAP2 SUB SWAP1 RETURN JUMPDEST CALLVALUE DUP1 ISZERO PUSH2 0x258 JUMPI PUSH1 0x0 DUP1 REVERT JUMPDEST POP PUSH2 0x273 PUSH1 0x4 DUP1 CALLDATASIZE SUB DUP2 ADD SWAP1 PUSH2 0x26E SWAP2 SWAP1 PUSH2 0x2987 JUMP JUMPDEST PUSH2 0xB48 JUMP JUMPDEST PUSH1 0x40 MLOAD PUSH2 0x280 SWAP2 SWAP1 PUSH2 0x2449 JUMP JUMPDEST PUSH1 0x40 MLOAD DUP1 SWAP2 SUB SWAP1 RETURN JUMPDEST CALLVALUE DUP1 ISZERO PUSH2 0x295 JUMPI PUSH1 0x0 DUP1 REVERT JUMPDEST POP PUSH2 0x2B0 PUSH1 0x4 DUP1 CALLDATASIZE SUB DUP2 ADD SWAP1 PUSH2 0x2AB SWAP2 SWAP1 PUSH2 0x29CF JUMP JUMPDEST PUSH2 0xBE8 JUMP JUMPDEST PUSH1 0x40 MLOAD PUSH2 0x2BD SWAP2 SWAP1 PUSH2 0x2449 JUMP JUMPDEST PUSH1 0x40 MLOAD DUP1 SWAP2 SUB SWAP1 RETURN JUMPDEST CALLVALUE DUP1 ISZERO PUSH2 0x2D2 JUMPI PUSH1 0x0 DUP1 REVERT JUMPDEST POP PUSH2 0x2ED PUSH1 0x4 DUP1 CALLDATASIZE SUB DUP2 ADD SWAP1 PUSH2 0x2E8 SWAP2 SWAP1 PUSH2 0x238C JUMP JUMPDEST PUSH2 0xCA1 JUMP JUMPDEST PUSH1 0x40 MLOAD PUSH2 0x2FA SWAP2 SWAP1 PUSH2 0x2A0F JUMP JUMPDEST PUSH1 0x40 MLOAD DUP1 SWAP2 SUB SWAP1 RETURN JUMPDEST CALLVALUE DUP1 ISZERO PUSH2 0x30F JUMPI PUSH1 0x0 DUP1 REVERT JUMPDEST POP PUSH2 0x32A PUSH1 0x4 DUP1 CALLDATASIZE SUB DUP2 ADD SWAP1 PUSH2 0x325 SWAP2 SWAP1 PUSH2 0x2A2A JUMP JUMPDEST PUSH2 0xCE0 JUMP JUMPDEST PUSH1 0x40 MLOAD PUSH2 0x338 SWAP3 SWAP2 SWAP1 PUSH2 0x2CDF JUMP JUMPDEST PUSH1 0x40 MLOAD DUP1 SWAP2 SUB SWAP1 RETURN JUMPDEST CALLVALUE DUP1 ISZERO PUSH2 0x34D JUMPI PUSH1 0x0 DUP1 REVERT JUMPDEST POP PUSH2 0x368 PUSH1 0x4 DUP1 CALLDATASIZE SUB DUP2 ADD SWAP1 PUSH2 0x363 SWAP2 SWAP1 PUSH2 0x2D54 JUMP JUMPDEST PUSH2 0x12AC JUMP JUMPDEST STOP JUMPDEST CALLVALUE DUP1 ISZERO PUSH2 0x376 JUMPI PUSH1 0x0 DUP1 REVERT JUMPDEST POP PUSH2 0x391 PUSH1 0x4 DUP1 CALLDATASIZE SUB DUP2 ADD SWAP1 PUSH2 0x38C SWAP2 SWAP1 PUSH2 0x2D94 JUMP JUMPDEST PUSH2 0x135D JUMP JUMPDEST PUSH1 0x40 MLOAD PUSH2 0x39E SWAP2 SWAP1 PUSH2 0x2E27 JUMP JUMPDEST PUSH1 0x40 MLOAD DUP1 SWAP2 SUB SWAP1 RETURN JUMPDEST CALLVALUE DUP1 ISZERO PUSH2 0x3B3 JUMPI PUSH1 0x0 DUP1 REVERT JUMPDEST POP PUSH2 0x3CE PUSH1 0x4 DUP1 CALLDATASIZE SUB DUP2 ADD SWAP1 PUSH2 0x3C9 SWAP2 SWAP1 PUSH2 0x2E42 JUMP JUMPDEST PUSH2 0x1404 JUMP JUMPDEST STOP JUMPDEST CALLVALUE DUP1 ISZERO PUSH2 0x3DC JUMPI PUSH1 0x0 DUP1 REVERT JUMPDEST POP PUSH2 0x3E5 PUSH2 0x1DB1 JUMP JUMPDEST PUSH1 0x40 MLOAD PUSH2 0x3F2 SWAP2 SWAP1 PUSH2 0x29B4 JUMP JUMPDEST PUSH1 0x40 MLOAD DUP1 SWAP2 SUB SWAP1 RETURN JUMPDEST PUSH2 0x415 PUSH1 0x4 DUP1 CALLDATASIZE SUB DUP2 ADD SWAP1 PUSH2 0x410 SWAP2 SWAP1 PUSH2 0x2F8A JUMP JUMPDEST PUSH2 0x1DB9 JUMP JUMPDEST STOP JUMPDEST PUSH2 0x41F PUSH2 0x2285 JUMP JUMPDEST STOP JUMPDEST CALLVALUE DUP1 ISZERO PUSH2 0x42D JUMPI PUSH1 0x0 DUP1 REVERT JUMPDEST POP PUSH2 0x436 PUSH2 0x22A0 JUMP JUMPDEST PUSH1 0x40 MLOAD PUSH2 0x443 SWAP2 SWAP1 PUSH2 0x29B4 JUMP JUMPDEST PUSH1 0x40 MLOAD DUP1 SWAP2 SUB SWAP1 RETURN JUMPDEST CALLVALUE DUP1 ISZERO PUSH2 0x458 JUMPI PUSH1 0x0 DUP1 REVERT JUMPDEST POP PUSH2 0x473 PUSH1 0x4 DUP1 CALLDATASIZE SUB DUP2 ADD SWAP1 PUSH2 0x46E SWAP2 SWAP1 PUSH2 0x2A2A JUMP JUMPDEST PUSH2 0x22A6 JUMP JUMPDEST PUSH1 0x40 MLOAD PUSH2 0x480 SWAP2 SWAP1 PUSH2 0x2A0F JUMP JUMPDEST PUSH1 0x40 MLOAD DUP1 SWAP2 SUB SWAP1 RETURN JUMPDEST PUSH1 0x0 DUP2 DUP2 SLOAD DUP2 LT PUSH2 0x499 JUMPI PUSH1 0x0 DUP1 REVERT JUMPDEST SWAP1 PUSH1 0x0 MSTORE PUSH1 0x20 PUSH1 0x0 KECCAK256 ADD PUSH1 0x0 SWAP2 POP SWAP1 POP DUP1 SLOAD PUSH2 0x4B4 SWAP1 PUSH2 0x3028 JUMP JUMPDEST DUP1 PUSH1 0x1F ADD PUSH1 0x20 DUP1 SWAP2 DIV MUL PUSH1 0x20 ADD PUSH1 0x40 MLOAD SWAP1 DUP2 ADD PUSH1 0x40 MSTORE DUP1 SWAP3 SWAP2 SWAP1 DUP2 DUP2 MSTORE PUSH1 0x20 ADD DUP3 DUP1 SLOAD PUSH2 0x4E0 SWAP1 PUSH2 0x3028 JUMP JUMPDEST DUP1 ISZERO PUSH2 0x52D JUMPI DUP1 PUSH1 0x1F LT PUSH2 0x502 JUMPI PUSH2 0x100 DUP1 DUP4 SLOAD DIV MUL DUP4 MSTORE SWAP2 PUSH1 0x20 ADD SWAP2 PUSH2 0x52D JUMP JUMPDEST DUP3 ADD SWAP2 SWAP1 PUSH1 0x0 MSTORE PUSH1 0x20 PUSH1 0x0 KECCAK256 SWAP1 JUMPDEST DUP2 SLOAD DUP2 MSTORE SWAP1 PUSH1 0x1 ADD SWAP1 PUSH1 0x20 ADD DUP1 DUP4 GT PUSH2 0x510 JUMPI DUP3 SWAP1 SUB PUSH1 0x1F AND DUP3 ADD SWAP2 JUMPDEST POP POP POP POP POP DUP2 JUMP JUMPDEST PUSH1 0x5 DUP2 DUP2 SLOAD DUP2 LT PUSH2 0x545 JUMPI PUSH1 0x0 DUP1 REVERT JUMPDEST SWAP1 PUSH1 0x0 MSTORE PUSH1 0x20 PUSH1 0x0 KECCAK256 SWAP1 PUSH1 0x6 MUL ADD PUSH1 0x0 SWAP2 POP SWAP1 POP DUP1 PUSH1 0x0 ADD PUSH1 0x0 SWAP1 SLOAD SWAP1 PUSH2 0x100 EXP SWAP1 DIV PUSH20 0xFFFFFFFFFFFFFFFFFFFFFFFFFFFFFFFFFFFFFFFF AND SWAP1 DUP1 PUSH1 0x1 ADD PUSH1 0x0 SWAP1 SLOAD SWAP1 PUSH2 0x100 EXP SWAP1 DIV PUSH20 0xFFFFFFFFFFFFFFFFFFFFFFFFFFFFFFFFFFFFFFFF AND SWAP1 DUP1 PUSH1 0x2 ADD DUP1 SLOAD PUSH2 0x5B4 SWAP1 PUSH2 0x3028 JUMP JUMPDEST DUP1 PUSH1 0x1F ADD PUSH1 0x20 DUP1 SWAP2 DIV MUL PUSH1 0x20 ADD PUSH1 0x40 MLOAD SWAP1 DUP2 ADD PUSH1 0x40 MSTORE DUP1 SWAP3 SWAP2 SWAP1 DUP2 DUP2 MSTORE PUSH1 0x20 ADD DUP3 DUP1 SLOAD PUSH2 0x5E0 SWAP1 PUSH2 0x3028 JUMP JUMPDEST DUP1 ISZERO PUSH2 0x62D JUMPI DUP1 PUSH1 0x1F LT PUSH2 0x602 JUMPI PUSH2 0x100 DUP1 DUP4 SLOAD DIV MUL DUP4 MSTORE SWAP2 PUSH1 0x20 ADD SWAP2 PUSH2 0x62D JUMP JUMPDEST DUP3 ADD SWAP2 SWAP1 PUSH1 0x0 MSTORE PUSH1 0x20 PUSH1 0x0 KECCAK256 SWAP1 JUMPDEST DUP2 SLOAD DUP2 MSTORE SWAP1 PUSH1 0x1 ADD SWAP1 PUSH1 0x20 ADD DUP1 DUP4 GT PUSH2 0x610 JUMPI DUP3 SWAP1 SUB PUSH1 0x1F AND DUP3 ADD SWAP2 JUMPDEST POP POP POP POP POP SWAP1 DUP1 PUSH1 0x3 ADD DUP1 SLOAD PUSH2 0x642 SWAP1 PUSH2 0x3028 JUMP JUMPDEST DUP1 PUSH1 0x1F ADD PUSH1 0x20 DUP1 SWAP2 DIV MUL PUSH1 0x20 ADD PUSH1 0x40 MLOAD SWAP1 DUP2 ADD PUSH1 0x40 MSTORE DUP1 SWAP3 SWAP2 SWAP1 DUP2 DUP2 MSTORE PUSH1 0x20 ADD DUP3 DUP1 SLOAD PUSH2 0x66E SWAP1 PUSH2 0x3028 JUMP JUMPDEST DUP1 ISZERO PUSH2 0x6BB JUMPI DUP1 PUSH1 0x1F LT PUSH2 0x690 JUMPI PUSH2 0x100 DUP1 DUP4 SLOAD DIV MUL DUP4 MSTORE SWAP2 PUSH1 0x20 ADD SWAP2 PUSH2 0x6BB JUMP JUMPDEST DUP3 ADD SWAP2 SWAP1 PUSH1 0x0 MSTORE PUSH1 0x20 PUSH1 0x0 KECCAK256 SWAP1 JUMPDEST DUP2 SLOAD DUP2 MSTORE SWAP1 PUSH1 0x1 ADD SWAP1 PUSH1 0x20 ADD DUP1 DUP4 GT PUSH2 0x69E JUMPI DUP3 SWAP1 SUB PUSH1 0x1F AND DUP3 ADD SWAP2 JUMPDEST POP POP POP POP POP SWAP1 DUP1 PUSH1 0x4 ADD SLOAD SWAP1 DUP1 PUSH1 0x5 ADD SLOAD SWAP1 POP DUP7 JUMP JUMPDEST PUSH1 0x7 PUSH1 0x20 MSTORE DUP3 PUSH1 0x0 MSTORE PUSH1 0x40 PUSH1 0x0 KECCAK256 DUP3 DUP1 MLOAD PUSH1 0x20 DUP2 ADD DUP3 ADD DUP1 MLOAD DUP5 DUP3 MSTORE PUSH1 0x20 DUP4 ADD PUSH1 0x20 DUP6 ADD KECCAK256 DUP2 DUP4 MSTORE DUP1 SWAP6 POP POP POP POP POP POP PUSH1 0x20 MSTORE DUP1 PUSH1 0x0 MSTORE PUSH1 0x40 PUSH1 0x0 KECCAK256 PUSH1 0x0 SWAP3 POP SWAP3 POP POP POP DUP1 PUSH1 0x0 ADD DUP1 SLOAD PUSH2 0x724 SWAP1 PUSH2 0x3028 JUMP JUMPDEST DUP1 PUSH1 0x1F ADD PUSH1 0x20 DUP1 SWAP2 DIV MUL PUSH1 0x20 ADD PUSH1 0x40 MLOAD SWAP1 DUP2 ADD PUSH1 0x40 MSTORE DUP1 SWAP3 SWAP2 SWAP1 DUP2 DUP2 MSTORE PUSH1 0x20 ADD DUP3 DUP1 SLOAD PUSH2 0x750 SWAP1 PUSH2 0x3028 JUMP JUMPDEST DUP1 ISZERO PUSH2 0x79D JUMPI DUP1 PUSH1 0x1F LT PUSH2 0x772 JUMPI PUSH2 0x100 DUP1 DUP4 SLOAD DIV MUL DUP4 MSTORE SWAP2 PUSH1 0x20 ADD SWAP2 PUSH2 0x79D JUMP JUMPDEST DUP3 ADD SWAP2 SWAP1 PUSH1 0x0 MSTORE PUSH1 0x20 PUSH1 0x0 KECCAK256 SWAP1 JUMPDEST DUP2 SLOAD DUP2 MSTORE SWAP1 PUSH1 0x1 ADD SWAP1 PUSH1 0x20 ADD DUP1 DUP4 GT PUSH2 0x780 JUMPI DUP3 SWAP1 SUB PUSH1 0x1F AND DUP3 ADD SWAP2 JUMPDEST POP POP POP POP POP SWAP1 DUP1 PUSH1 0x1 ADD DUP1 SLOAD PUSH2 0x7B2 SWAP1 PUSH2 0x3028 JUMP JUMPDEST DUP1 PUSH1 0x1F ADD PUSH1 0x20 DUP1 SWAP2 DIV MUL PUSH1 0x20 ADD PUSH1 0x40 MLOAD SWAP1 DUP2 ADD PUSH1 0x40 MSTORE DUP1 SWAP3 SWAP2 SWAP1 DUP2 DUP2 MSTORE PUSH1 0x20 ADD DUP3 DUP1 SLOAD PUSH2 0x7DE SWAP1 PUSH2 0x3028 JUMP JUMPDEST DUP1 ISZERO PUSH2 0x82B JUMPI DUP1 PUSH1 0x1F LT PUSH2 0x800 JUMPI PUSH2 0x100 DUP1 DUP4 SLOAD DIV MUL DUP4 MSTORE SWAP2 PUSH1 0x20 ADD SWAP2 PUSH2 0x82B JUMP JUMPDEST DUP3 ADD SWAP2 SWAP1 PUSH1 0x0 MSTORE PUSH1 0x20 PUSH1 0x0 KECCAK256 SWAP1 JUMPDEST DUP2 SLOAD DUP2 MSTORE SWAP1 PUSH1 0x1 ADD SWAP1 PUSH1 0x20 ADD DUP1 DUP4 GT PUSH2 0x80E JUMPI DUP3 SWAP1 SUB PUSH1 0x1F AND DUP3 ADD SWAP2 JUMPDEST POP POP POP POP POP SWAP1 DUP1 PUSH1 0x2 ADD DUP1 SLOAD PUSH2 0x840 SWAP1 PUSH2 0x3028 JUMP JUMPDEST DUP1 PUSH1 0x1F ADD PUSH1 0x20 DUP1 SWAP2 DIV MUL PUSH1 0x20 ADD PUSH1 0x40 MLOAD SWAP1 DUP2 ADD PUSH1 0x40 MSTORE DUP1 SWAP3 SWAP2 SWAP1 DUP2 DUP2 MSTORE PUSH1 0x20 ADD DUP3 DUP1 SLOAD PUSH2 0x86C SWAP1 PUSH2 0x3028 JUMP JUMPDEST DUP1 ISZERO PUSH2 0x8B9 JUMPI DUP1 PUSH1 0x1F LT PUSH2 0x88E JUMPI PUSH2 0x100 DUP1 DUP4 SLOAD DIV MUL DUP4 MSTORE SWAP2 PUSH1 0x20 ADD SWAP2 PUSH2 0x8B9 JUMP JUMPDEST DUP3 ADD SWAP2 SWAP1 PUSH1 0x0 MSTORE PUSH1 0x20 PUSH1 0x0 KECCAK256 SWAP1 JUMPDEST DUP2 SLOAD DUP2 MSTORE SWAP1 PUSH1 0x1 ADD SWAP1 PUSH1 0x20 ADD DUP1 DUP4 GT PUSH2 0x89C JUMPI DUP3 SWAP1 SUB PUSH1 0x1F AND DUP3 ADD SWAP2 JUMPDEST POP POP POP POP POP SWAP1 DUP1 PUSH1 0x3 ADD SLOAD SWAP1 DUP1 PUSH1 0x4 ADD SLOAD SWAP1 DUP1 PUSH1 0x5 ADD SLOAD SWAP1 DUP1 PUSH1 0x6 ADD SLOAD SWAP1 DUP1 PUSH1 0x7 ADD SLOAD SWAP1 DUP1 PUSH1 0x8 ADD SLOAD SWAP1 DUP1 PUSH1 0x9 ADD SLOAD SWAP1 POP DUP11 JUMP JUMPDEST PUSH1 0x60 PUSH1 0x5 DUP1 SLOAD DUP1 PUSH1 0x20 MUL PUSH1 0x20 ADD PUSH1 0x40 MLOAD SWAP1 DUP2 ADD PUSH1 0x40 MSTORE DUP1 SWAP3 SWAP2 SWAP1 DUP2 DUP2 MSTORE PUSH1 0x20 ADD PUSH1 0x0 SWAP1 JUMPDEST DUP3 DUP3 LT ISZERO PUSH2 0xB27 JUMPI DUP4 DUP3 SWAP1 PUSH1 0x0 MSTORE PUSH1 0x20 PUSH1 0x0 KECCAK256 SWAP1 PUSH1 0x6 MUL ADD PUSH1 0x40 MLOAD DUP1 PUSH1 0xC0 ADD PUSH1 0x40 MSTORE SWAP1 DUP2 PUSH1 0x0 DUP3 ADD PUSH1 0x0 SWAP1 SLOAD SWAP1 PUSH2 0x100 EXP SWAP1 DIV PUSH20 0xFFFFFFFFFFFFFFFFFFFFFFFFFFFFFFFFFFFFFFFF AND PUSH20 0xFFFFFFFFFFFFFFFFFFFFFFFFFFFFFFFFFFFFFFFF AND PUSH20 0xFFFFFFFFFFFFFFFFFFFFFFFFFFFFFFFFFFFFFFFF AND DUP2 MSTORE PUSH1 0x20 ADD PUSH1 0x1 DUP3 ADD PUSH1 0x0 SWAP1 SLOAD SWAP1 PUSH2 0x100 EXP SWAP1 DIV PUSH20 0xFFFFFFFFFFFFFFFFFFFFFFFFFFFFFFFFFFFFFFFF AND PUSH20 0xFFFFFFFFFFFFFFFFFFFFFFFFFFFFFFFFFFFFFFFF AND PUSH20 0xFFFFFFFFFFFFFFFFFFFFFFFFFFFFFFFFFFFFFFFF AND DUP2 MSTORE PUSH1 0x20 ADD PUSH1 0x2 DUP3 ADD DUP1 SLOAD PUSH2 0x9F0 SWAP1 PUSH2 0x3028 JUMP JUMPDEST DUP1 PUSH1 0x1F ADD PUSH1 0x20 DUP1 SWAP2 DIV MUL PUSH1 0x20 ADD PUSH1 0x40 MLOAD SWAP1 DUP2 ADD PUSH1 0x40 MSTORE DUP1 SWAP3 SWAP2 SWAP1 DUP2 DUP2 MSTORE PUSH1 0x20 ADD DUP3 DUP1 SLOAD PUSH2 0xA1C SWAP1 PUSH2 0x3028 JUMP JUMPDEST DUP1 ISZERO PUSH2 0xA69 JUMPI DUP1 PUSH1 0x1F LT PUSH2 0xA3E JUMPI PUSH2 0x100 DUP1 DUP4 SLOAD DIV MUL DUP4 MSTORE SWAP2 PUSH1 0x20 ADD SWAP2 PUSH2 0xA69 JUMP JUMPDEST DUP3 ADD SWAP2 SWAP1 PUSH1 0x0 MSTORE PUSH1 0x20 PUSH1 0x0 KECCAK256 SWAP1 JUMPDEST DUP2 SLOAD DUP2 MSTORE SWAP1 PUSH1 0x1 ADD SWAP1 PUSH1 0x20 ADD DUP1 DUP4 GT PUSH2 0xA4C JUMPI DUP3 SWAP1 SUB PUSH1 0x1F AND DUP3 ADD SWAP2 JUMPDEST POP POP POP POP POP DUP2 MSTORE PUSH1 0x20 ADD PUSH1 0x3 DUP3 ADD DUP1 SLOAD PUSH2 0xA82 SWAP1 PUSH2 0x3028 JUMP JUMPDEST DUP1 PUSH1 0x1F ADD PUSH1 0x20 DUP1 SWAP2 DIV MUL PUSH1 0x20 ADD PUSH1 0x40 MLOAD SWAP1 DUP2 ADD PUSH1 0x40 MSTORE DUP1 SWAP3 SWAP2 SWAP1 DUP2 DUP2 MSTORE PUSH1 0x20 ADD DUP3 DUP1 SLOAD PUSH2 0xAAE SWAP1 PUSH2 0x3028 JUMP JUMPDEST DUP1 ISZERO PUSH2 0xAFB JUMPI DUP1 PUSH1 0x1F LT PUSH2 0xAD0 JUMPI PUSH2 0x100 DUP1 DUP4 SLOAD DIV MUL DUP4 MSTORE SWAP2 PUSH1 0x20 ADD SWAP2 PUSH2 0xAFB JUMP JUMPDEST DUP3 ADD SWAP2 SWAP1 PUSH1 0x0 MSTORE PUSH1 0x20 PUSH1 0x0 KECCAK256 SWAP1 JUMPDEST DUP2 SLOAD DUP2 MSTORE SWAP1 PUSH1 0x1 ADD SWAP1 PUSH1 0x20 ADD DUP1 DUP4 GT PUSH2 0xADE JUMPI DUP3 SWAP1 SUB PUSH1 0x1F AND DUP3 ADD SWAP2 JUMPDEST POP POP POP POP POP DUP2 MSTORE PUSH1 0x20 ADD PUSH1 0x4 DUP3 ADD SLOAD DUP2 MSTORE PUSH1 0x20 ADD PUSH1 0x5 DUP3 ADD SLOAD DUP2 MSTORE POP POP DUP2 MSTORE PUSH1 0x20 ADD SWAP1 PUSH1 0x1 ADD SWAP1 PUSH2 0x911 JUMP JUMPDEST POP POP POP POP SWAP1 POP SWAP1 JUMP JUMPDEST PUSH1 0x9 PUSH1 0x20 MSTORE DUP1 PUSH1 0x0 MSTORE PUSH1 0x40 PUSH1 0x0 KECCAK256 PUSH1 0x0 SWAP2 POP SWAP1 POP SLOAD DUP2 JUMP JUMPDEST PUSH1 0x2 PUSH1 0x20 MSTORE DUP1 PUSH1 0x0 MSTORE PUSH1 0x40 PUSH1 0x0 KECCAK256 PUSH1 0x0 SWAP2 POP SWAP1 POP DUP1 SLOAD PUSH2 0xB67 SWAP1 PUSH2 0x3028 JUMP JUMPDEST DUP1 PUSH1 0x1F ADD PUSH1 0x20 DUP1 SWAP2 DIV MUL PUSH1 0x20 ADD PUSH1 0x40 MLOAD SWAP1 DUP2 ADD PUSH1 0x40 MSTORE DUP1 SWAP3 SWAP2 SWAP1 DUP2 DUP2 MSTORE PUSH1 0x20 ADD DUP3 DUP1 SLOAD PUSH2 0xB93 SWAP1 PUSH2 0x3028 JUMP JUMPDEST DUP1 ISZERO PUSH2 0xBE0 JUMPI DUP1 PUSH1 0x1F LT PUSH2 0xBB5 JUMPI PUSH2 0x100 DUP1 DUP4 SLOAD DIV MUL DUP4 MSTORE SWAP2 PUSH1 0x20 ADD SWAP2 PUSH2 0xBE0 JUMP JUMPDEST DUP3 ADD SWAP2 SWAP1 PUSH1 0x0 MSTORE PUSH1 0x20 PUSH1 0x0 KECCAK256 SWAP1 JUMPDEST DUP2 SLOAD DUP2 MSTORE SWAP1 PUSH1 0x1 ADD SWAP1 PUSH1 0x20 ADD DUP1 DUP4 GT PUSH2 0xBC3 JUMPI DUP3 SWAP1 SUB PUSH1 0x1F AND DUP3 ADD SWAP2 JUMPDEST POP POP POP POP POP DUP2 JUMP JUMPDEST PUSH1 0x6 PUSH1 0x20 MSTORE DUP2 PUSH1 0x0 MSTORE PUSH1 0x40 PUSH1 0x0 KECCAK256 DUP2 DUP2 SLOAD DUP2 LT PUSH2 0xC04 JUMPI PUSH1 0x0 DUP1 REVERT JUMPDEST SWAP1 PUSH1 0x0 MSTORE PUSH1 0x20 PUSH1 0x0 KECCAK256 ADD PUSH1 0x0 SWAP2 POP SWAP2 POP POP DUP1 SLOAD PUSH2 0xC20 SWAP1 PUSH2 0x3028 JUMP JUMPDEST DUP1 PUSH1 0x1F ADD PUSH1 0x20 DUP1 SWAP2 DIV MUL PUSH1 0x20 ADD PUSH1 0x40 MLOAD SWAP1 DUP2 ADD PUSH1 0x40 MSTORE DUP1 SWAP3 SWAP2 SWAP1 DUP2 DUP2 MSTORE PUSH1 0x20 ADD DUP3 DUP1 SLOAD PUSH2 0xC4C SWAP1 PUSH2 0x3028 JUMP JUMPDEST DUP1 ISZERO PUSH2 0xC99 JUMPI DUP1 PUSH1 0x1F LT PUSH2 0xC6E JUMPI PUSH2 0x100 DUP1 DUP4 SLOAD DIV MUL DUP4 MSTORE SWAP2 PUSH1 0x20 ADD SWAP2 PUSH2 0xC99 JUMP JUMPDEST DUP3 ADD SWAP2 SWAP1 PUSH1 0x0 MSTORE PUSH1 0x20 PUSH1 0x0 KECCAK256 SWAP1 JUMPDEST DUP2 SLOAD DUP2 MSTORE SWAP1 PUSH1 0x1 ADD SWAP1 PUSH1 0x20 ADD DUP1 DUP4 GT PUSH2 0xC7C JUMPI DUP3 SWAP1 SUB PUSH1 0x1F AND DUP3 ADD SWAP2 JUMPDEST POP POP POP POP POP DUP2 JUMP JUMPDEST PUSH1 0x1 DUP2 DUP2 SLOAD DUP2 LT PUSH2 0xCB1 JUMPI PUSH1 0x0 DUP1 REVERT JUMPDEST SWAP1 PUSH1 0x0 MSTORE PUSH1 0x20 PUSH1 0x0 KECCAK256 ADD PUSH1 0x0 SWAP2 POP SLOAD SWAP1 PUSH2 0x100 EXP SWAP1 DIV PUSH20 0xFFFFFFFFFFFFFFFFFFFFFFFFFFFFFFFFFFFFFFFF AND DUP2 JUMP JUMPDEST PUSH1 0x60 DUP1 PUSH1 0x0 CALLER SWAP1 POP PUSH1 0x0 PUSH1 0x6 PUSH1 0x0 DUP4 PUSH20 0xFFFFFFFFFFFFFFFFFFFFFFFFFFFFFFFFFFFFFFFF AND PUSH20 0xFFFFFFFFFFFFFFFFFFFFFFFFFFFFFFFFFFFFFFFF AND DUP2 MSTORE PUSH1 0x20 ADD SWAP1 DUP2 MSTORE PUSH1 0x20 ADD PUSH1 0x0 KECCAK256 SWAP1 POP PUSH1 0x0 PUSH1 0x6 PUSH1 0x0 DUP5 PUSH20 0xFFFFFFFFFFFFFFFFFFFFFFFFFFFFFFFFFFFFFFFF AND PUSH20 0xFFFFFFFFFFFFFFFFFFFFFFFFFFFFFFFFFFFFFFFF AND DUP2 MSTORE PUSH1 0x20 ADD SWAP1 DUP2 MSTORE PUSH1 0x20 ADD PUSH1 0x0 KECCAK256 DUP1 SLOAD SWAP1 POP PUSH8 0xFFFFFFFFFFFFFFFF DUP2 GT ISZERO PUSH2 0xD89 JUMPI PUSH2 0xD88 PUSH2 0x2560 JUMP JUMPDEST JUMPDEST PUSH1 0x40 MLOAD SWAP1 DUP1 DUP3 MSTORE DUP1 PUSH1 0x20 MUL PUSH1 0x20 ADD DUP3 ADD PUSH1 0x40 MSTORE DUP1 ISZERO PUSH2 0xDC2 JUMPI DUP2 PUSH1 0x20 ADD JUMPDEST PUSH2 0xDAF PUSH2 0x22EF JUMP JUMPDEST DUP2 MSTORE PUSH1 0x20 ADD SWAP1 PUSH1 0x1 SWAP1 SUB SWAP1 DUP2 PUSH2 0xDA7 JUMPI SWAP1 POP JUMPDEST POP SWAP1 POP PUSH1 0x0 JUMPDEST DUP3 DUP1 SLOAD SWAP1 POP DUP2 LT ISZERO PUSH2 0x118C JUMPI PUSH1 0x0 DUP4 DUP3 DUP2 SLOAD DUP2 LT PUSH2 0xDE9 JUMPI PUSH2 0xDE8 PUSH2 0x3059 JUMP JUMPDEST JUMPDEST SWAP1 PUSH1 0x0 MSTORE PUSH1 0x20 PUSH1 0x0 KECCAK256 ADD DUP1 SLOAD PUSH2 0xDFE SWAP1 PUSH2 0x3028 JUMP JUMPDEST DUP1 PUSH1 0x1F ADD PUSH1 0x20 DUP1 SWAP2 DIV MUL PUSH1 0x20 ADD PUSH1 0x40 MLOAD SWAP1 DUP2 ADD PUSH1 0x40 MSTORE DUP1 SWAP3 SWAP2 SWAP1 DUP2 DUP2 MSTORE PUSH1 0x20 ADD DUP3 DUP1 SLOAD PUSH2 0xE2A SWAP1 PUSH2 0x3028 JUMP JUMPDEST DUP1 ISZERO PUSH2 0xE77 JUMPI DUP1 PUSH1 0x1F LT PUSH2 0xE4C JUMPI PUSH2 0x100 DUP1 DUP4 SLOAD DIV MUL DUP4 MSTORE SWAP2 PUSH1 0x20 ADD SWAP2 PUSH2 0xE77 JUMP JUMPDEST DUP3 ADD SWAP2 SWAP1 PUSH1 0x0 MSTORE PUSH1 0x20 PUSH1 0x0 KECCAK256 SWAP1 JUMPDEST DUP2 SLOAD DUP2 MSTORE SWAP1 PUSH1 0x1 ADD SWAP1 PUSH1 0x20 ADD DUP1 DUP4 GT PUSH2 0xE5A JUMPI DUP3 SWAP1 SUB PUSH1 0x1F AND DUP3 ADD SWAP2 JUMPDEST POP POP POP POP POP SWAP1 POP PUSH1 0x7 PUSH1 0x0 DUP7 PUSH20 0xFFFFFFFFFFFFFFFFFFFFFFFFFFFFFFFFFFFFFFFF AND PUSH20 0xFFFFFFFFFFFFFFFFFFFFFFFFFFFFFFFFFFFFFFFF AND DUP2 MSTORE PUSH1 0x20 ADD SWAP1 DUP2 MSTORE PUSH1 0x20 ADD PUSH1 0x0 KECCAK256 DUP2 PUSH1 0x40 MLOAD PUSH2 0xECB SWAP2 SWAP1 PUSH2 0x30C4 JUMP JUMPDEST SWAP1 DUP2 MSTORE PUSH1 0x20 ADD PUSH1 0x40 MLOAD DUP1 SWAP2 SUB SWAP1 KECCAK256 PUSH1 0x0 PUSH1 0x3 DUP11 PUSH1 0x40 MLOAD PUSH2 0xEEB SWAP2 SWAP1 PUSH2 0x30C4 JUMP JUMPDEST SWAP1 DUP2 MSTORE PUSH1 0x20 ADD PUSH1 0x40 MLOAD DUP1 SWAP2 SUB SWAP1 KECCAK256 PUSH1 0x0 SWAP1 SLOAD SWAP1 PUSH2 0x100 EXP SWAP1 DIV PUSH20 0xFFFFFFFFFFFFFFFFFFFFFFFFFFFFFFFFFFFFFFFF AND PUSH20 0xFFFFFFFFFFFFFFFFFFFFFFFFFFFFFFFFFFFFFFFF AND PUSH20 0xFFFFFFFFFFFFFFFFFFFFFFFFFFFFFFFFFFFFFFFF AND DUP2 MSTORE PUSH1 0x20 ADD SWAP1 DUP2 MSTORE PUSH1 0x20 ADD PUSH1 0x0 KECCAK256 PUSH1 0x40 MLOAD DUP1 PUSH2 0x140 ADD PUSH1 0x40 MSTORE SWAP1 DUP2 PUSH1 0x0 DUP3 ADD DUP1 SLOAD PUSH2 0xF70 SWAP1 PUSH2 0x3028 JUMP JUMPDEST DUP1 PUSH1 0x1F ADD PUSH1 0x20 DUP1 SWAP2 DIV MUL PUSH1 0x20 ADD PUSH1 0x40 MLOAD SWAP1 DUP2 ADD PUSH1 0x40 MSTORE DUP1 SWAP3 SWAP2 SWAP1 DUP2 DUP2 MSTORE PUSH1 0x20 ADD DUP3 DUP1 SLOAD PUSH2 0xF9C SWAP1 PUSH2 0x3028 JUMP JUMPDEST DUP1 ISZERO PUSH2 0xFE9 JUMPI DUP1 PUSH1 0x1F LT PUSH2 0xFBE JUMPI PUSH2 0x100 DUP1 DUP4 SLOAD DIV MUL DUP4 MSTORE SWAP2 PUSH1 0x20 ADD SWAP2 PUSH2 0xFE9 JUMP JUMPDEST DUP3 ADD SWAP2 SWAP1 PUSH1 0x0 MSTORE PUSH1 0x20 PUSH1 0x0 KECCAK256 SWAP1 JUMPDEST DUP2 SLOAD DUP2 MSTORE SWAP1 PUSH1 0x1 ADD SWAP1 PUSH1 0x20 ADD DUP1 DUP4 GT PUSH2 0xFCC JUMPI DUP3 SWAP1 SUB PUSH1 0x1F AND DUP3 ADD SWAP2 JUMPDEST POP POP POP POP POP DUP2 MSTORE PUSH1 0x20 ADD PUSH1 0x1 DUP3 ADD DUP1 SLOAD PUSH2 0x1002 SWAP1 PUSH2 0x3028 JUMP JUMPDEST DUP1 PUSH1 0x1F ADD PUSH1 0x20 DUP1 SWAP2 DIV MUL PUSH1 0x20 ADD PUSH1 0x40 MLOAD SWAP1 DUP2 ADD PUSH1 0x40 MSTORE DUP1 SWAP3 SWAP2 SWAP1 DUP2 DUP2 MSTORE PUSH1 0x20 ADD DUP3 DUP1 SLOAD PUSH2 0x102E SWAP1 PUSH2 0x3028 JUMP JUMPDEST DUP1 ISZERO PUSH2 0x107B JUMPI DUP1 PUSH1 0x1F LT PUSH2 0x1050 JUMPI PUSH2 0x100 DUP1 DUP4 SLOAD DIV MUL DUP4 MSTORE SWAP2 PUSH1 0x20 ADD SWAP2 PUSH2 0x107B JUMP JUMPDEST DUP3 ADD SWAP2 SWAP1 PUSH1 0x0 MSTORE PUSH1 0x20 PUSH1 0x0 KECCAK256 SWAP1 JUMPDEST DUP2 SLOAD DUP2 MSTORE SWAP1 PUSH1 0x1 ADD SWAP1 PUSH1 0x20 ADD DUP1 DUP4 GT PUSH2 0x105E JUMPI DUP3 SWAP1 SUB PUSH1 0x1F AND DUP3 ADD SWAP2 JUMPDEST POP POP POP POP POP DUP2 MSTORE PUSH1 0x20 ADD PUSH1 0x2 DUP3 ADD DUP1 SLOAD PUSH2 0x1094 SWAP1 PUSH2 0x3028 JUMP JUMPDEST DUP1 PUSH1 0x1F ADD PUSH1 0x20 DUP1 SWAP2 DIV MUL PUSH1 0x20 ADD PUSH1 0x40 MLOAD SWAP1 DUP2 ADD PUSH1 0x40 MSTORE DUP1 SWAP3 SWAP2 SWAP1 DUP2 DUP2 MSTORE PUSH1 0x20 ADD DUP3 DUP1 SLOAD PUSH2 0x10C0 SWAP1 PUSH2 0x3028 JUMP JUMPDEST DUP1 ISZERO PUSH2 0x110D JUMPI DUP1 PUSH1 0x1F LT PUSH2 0x10E2 JUMPI PUSH2 0x100 DUP1 DUP4 SLOAD DIV MUL DUP4 MSTORE SWAP2 PUSH1 0x20 ADD SWAP2 PUSH2 0x110D JUMP JUMPDEST DUP3 ADD SWAP2 SWAP1 PUSH1 0x0 MSTORE PUSH1 0x20 PUSH1 0x0 KECCAK256 SWAP1 JUMPDEST DUP2 SLOAD DUP2 MSTORE SWAP1 PUSH1 0x1 ADD SWAP1 PUSH1 0x20 ADD DUP1 DUP4 GT PUSH2 0x10F0 JUMPI DUP3 SWAP1 SUB PUSH1 0x1F AND DUP3 ADD SWAP2 JUMPDEST POP POP POP POP POP DUP2 MSTORE PUSH1 0x20 ADD PUSH1 0x3 DUP3 ADD SLOAD DUP2 MSTORE PUSH1 0x20 ADD PUSH1 0x4 DUP3 ADD SLOAD DUP2 MSTORE PUSH1 0x20 ADD PUSH1 0x5 DUP3 ADD SLOAD DUP2 MSTORE PUSH1 0x20 ADD PUSH1 0x6 DUP3 ADD SLOAD DUP2 MSTORE PUSH1 0x20 ADD PUSH1 0x7 DUP3 ADD SLOAD DUP2 MSTORE PUSH1 0x20 ADD PUSH1 0x8 DUP3 ADD SLOAD DUP2 MSTORE PUSH1 0x20 ADD PUSH1 0x9 DUP3 ADD SLOAD DUP2 MSTORE POP POP DUP4 DUP4 DUP2 MLOAD DUP2 LT PUSH2 0x116F JUMPI PUSH2 0x116E PUSH2 0x3059 JUMP JUMPDEST JUMPDEST PUSH1 0x20 MUL PUSH1 0x20 ADD ADD DUP2 SWAP1 MSTORE POP POP DUP1 PUSH2 0x1185 SWAP1 PUSH2 0x310A JUMP JUMPDEST SWAP1 POP PUSH2 0xDC8 JUMP JUMPDEST POP PUSH1 0x6 PUSH1 0x0 DUP5 PUSH20 0xFFFFFFFFFFFFFFFFFFFFFFFFFFFFFFFFFFFFFFFF AND PUSH20 0xFFFFFFFFFFFFFFFFFFFFFFFFFFFFFFFFFFFFFFFF AND DUP2 MSTORE PUSH1 0x20 ADD SWAP1 DUP2 MSTORE PUSH1 0x20 ADD PUSH1 0x0 KECCAK256 DUP2 DUP2 DUP1 SLOAD DUP1 PUSH1 0x20 MUL PUSH1 0x20 ADD PUSH1 0x40 MLOAD SWAP1 DUP2 ADD PUSH1 0x40 MSTORE DUP1 SWAP3 SWAP2 SWAP1 DUP2 DUP2 MSTORE PUSH1 0x20 ADD PUSH1 0x0 SWAP1 JUMPDEST DUP3 DUP3 LT ISZERO PUSH2 0x129A JUMPI DUP4 DUP3 SWAP1 PUSH1 0x0 MSTORE PUSH1 0x20 PUSH1 0x0 KECCAK256 ADD DUP1 SLOAD PUSH2 0x120D SWAP1 PUSH2 0x3028 JUMP JUMPDEST DUP1 PUSH1 0x1F ADD PUSH1 0x20 DUP1 SWAP2 DIV MUL PUSH1 0x20 ADD PUSH1 0x40 MLOAD SWAP1 DUP2 ADD PUSH1 0x40 MSTORE DUP1 SWAP3 SWAP2 SWAP1 DUP2 DUP2 MSTORE PUSH1 0x20 ADD DUP3 DUP1 SLOAD PUSH2 0x1239 SWAP1 PUSH2 0x3028 JUMP JUMPDEST DUP1 ISZERO PUSH2 0x1286 JUMPI DUP1 PUSH1 0x1F LT PUSH2 0x125B JUMPI PUSH2 0x100 DUP1 DUP4 SLOAD DIV MUL DUP4 MSTORE SWAP2 PUSH1 0x20 ADD SWAP2 PUSH2 0x1286 JUMP JUMPDEST DUP3 ADD SWAP2 SWAP1 PUSH1 0x0 MSTORE PUSH1 0x20 PUSH1 0x0 KECCAK256 SWAP1 JUMPDEST DUP2 SLOAD DUP2 MSTORE SWAP1 PUSH1 0x1 ADD SWAP1 PUSH1 0x20 ADD DUP1 DUP4 GT PUSH2 0x1269 JUMPI DUP3 SWAP1 SUB PUSH1 0x1F AND DUP3 ADD SWAP2 JUMPDEST POP POP POP POP POP DUP2 MSTORE PUSH1 0x20 ADD SWAP1 PUSH1 0x1 ADD SWAP1 PUSH2 0x11EE JUMP JUMPDEST POP POP POP POP SWAP2 POP SWAP5 POP SWAP5 POP POP POP POP SWAP2 POP SWAP2 JUMP JUMPDEST PUSH1 0x0 DUP3 PUSH20 0xFFFFFFFFFFFFFFFFFFFFFFFFFFFFFFFFFFFFFFFF AND DUP3 PUSH1 0x40 MLOAD PUSH2 0x12D2 SWAP1 PUSH2 0x3183 JUMP JUMPDEST PUSH1 0x0 PUSH1 0x40 MLOAD DUP1 DUP4 SUB DUP2 DUP6 DUP8 GAS CALL SWAP3 POP POP POP RETURNDATASIZE DUP1 PUSH1 0x0 DUP2 EQ PUSH2 0x130F JUMPI PUSH1 0x40 MLOAD SWAP2 POP PUSH1 0x1F NOT PUSH1 0x3F RETURNDATASIZE ADD AND DUP3 ADD PUSH1 0x40 MSTORE RETURNDATASIZE DUP3 MSTORE RETURNDATASIZE PUSH1 0x0 PUSH1 0x20 DUP5 ADD RETURNDATACOPY PUSH2 0x1314 JUMP JUMPDEST PUSH1 0x60 SWAP2 POP JUMPDEST POP POP SWAP1 POP DUP1 PUSH2 0x1358 JUMPI PUSH1 0x40 MLOAD PUSH32 0x8C379A000000000000000000000000000000000000000000000000000000000 DUP2 MSTORE PUSH1 0x4 ADD PUSH2 0x134F SWAP1 PUSH2 0x31E4 JUMP JUMPDEST PUSH1 0x40 MLOAD DUP1 SWAP2 SUB SWAP1 REVERT JUMPDEST POP POP POP JUMP JUMPDEST PUSH1 0x0 DUP1 PUSH1 0x8 PUSH1 0x0 PUSH1 0x3 DUP6 PUSH1 0x40 MLOAD PUSH2 0x1374 SWAP2 SWAP1 PUSH2 0x30C4 JUMP JUMPDEST SWAP1 DUP2 MSTORE PUSH1 0x20 ADD PUSH1 0x40 MLOAD DUP1 SWAP2 SUB SWAP1 KECCAK256 PUSH1 0x0 SWAP1 SLOAD SWAP1 PUSH2 0x100 EXP SWAP1 DIV PUSH20 0xFFFFFFFFFFFFFFFFFFFFFFFFFFFFFFFFFFFFFFFF AND PUSH20 0xFFFFFFFFFFFFFFFFFFFFFFFFFFFFFFFFFFFFFFFF AND PUSH20 0xFFFFFFFFFFFFFFFFFFFFFFFFFFFFFFFFFFFFFFFF AND DUP2 MSTORE PUSH1 0x20 ADD SWAP1 DUP2 MSTORE PUSH1 0x20 ADD PUSH1 0x0 KECCAK256 DUP5 PUSH1 0x40 MLOAD PUSH2 0x13EB SWAP2 SWAP1 PUSH2 0x30C4 JUMP JUMPDEST SWAP1 DUP2 MSTORE PUSH1 0x20 ADD PUSH1 0x40 MLOAD DUP1 SWAP2 SUB SWAP1 KECCAK256 SLOAD EQ ISZERO SWAP1 POP SWAP3 SWAP2 POP POP JUMP JUMPDEST PUSH1 0x0 CALLER SWAP1 POP PUSH1 0x0 PUSH1 0x2 PUSH1 0x0 DUP4 PUSH20 0xFFFFFFFFFFFFFFFFFFFFFFFFFFFFFFFFFFFFFFFF AND PUSH20 0xFFFFFFFFFFFFFFFFFFFFFFFFFFFFFFFFFFFFFFFF AND DUP2 MSTORE PUSH1 0x20 ADD SWAP1 DUP2 MSTORE PUSH1 0x20 ADD PUSH1 0x0 KECCAK256 DUP1 SLOAD PUSH2 0x1455 SWAP1 PUSH2 0x3028 JUMP JUMPDEST SWAP1 POP SUB PUSH2 0x1461 JUMPI PUSH1 0x0 DUP1 REVERT JUMPDEST PUSH1 0x0 PUSH20 0xFFFFFFFFFFFFFFFFFFFFFFFFFFFFFFFFFFFFFFFF AND PUSH1 0x3 DUP12 PUSH1 0x40 MLOAD PUSH2 0x1489 SWAP2 SWAP1 PUSH2 0x30C4 JUMP JUMPDEST SWAP1 DUP2 MSTORE PUSH1 0x20 ADD PUSH1 0x40 MLOAD DUP1 SWAP2 SUB SWAP1 KECCAK256 PUSH1 0x0 SWAP1 SLOAD SWAP1 PUSH2 0x100 EXP SWAP1 DIV PUSH20 0xFFFFFFFFFFFFFFFFFFFFFFFFFFFFFFFFFFFFFFFF AND PUSH20 0xFFFFFFFFFFFFFFFFFFFFFFFFFFFFFFFFFFFFFFFF AND SUB PUSH2 0x14D8 JUMPI PUSH1 0x0 DUP1 REVERT JUMPDEST PUSH1 0x1 PUSH1 0x9 PUSH1 0x0 PUSH1 0x3 DUP14 PUSH1 0x40 MLOAD PUSH2 0x14EE SWAP2 SWAP1 PUSH2 0x30C4 JUMP JUMPDEST SWAP1 DUP2 MSTORE PUSH1 0x20 ADD PUSH1 0x40 MLOAD DUP1 SWAP2 SUB SWAP1 KECCAK256 PUSH1 0x0 SWAP1 SLOAD SWAP1 PUSH2 0x100 EXP SWAP1 DIV PUSH20 0xFFFFFFFFFFFFFFFFFFFFFFFFFFFFFFFFFFFFFFFF AND PUSH20 0xFFFFFFFFFFFFFFFFFFFFFFFFFFFFFFFFFFFFFFFF AND PUSH20 0xFFFFFFFFFFFFFFFFFFFFFFFFFFFFFFFFFFFFFFFF AND DUP2 MSTORE PUSH1 0x20 ADD SWAP1 DUP2 MSTORE PUSH1 0x20 ADD PUSH1 0x0 KECCAK256 SLOAD LT ISZERO PUSH2 0x1563 JUMPI PUSH1 0x0 DUP1 REVERT JUMPDEST PUSH1 0x0 PUSH1 0x7 PUSH1 0x0 PUSH1 0x3 DUP14 PUSH1 0x40 MLOAD PUSH2 0x1579 SWAP2 SWAP1 PUSH2 0x30C4 JUMP JUMPDEST SWAP1 DUP2 MSTORE PUSH1 0x20 ADD PUSH1 0x40 MLOAD DUP1 SWAP2 SUB SWAP1 KECCAK256 PUSH1 0x0 SWAP1 SLOAD SWAP1 PUSH2 0x100 EXP SWAP1 DIV PUSH20 0xFFFFFFFFFFFFFFFFFFFFFFFFFFFFFFFFFFFFFFFF AND PUSH20 0xFFFFFFFFFFFFFFFFFFFFFFFFFFFFFFFFFFFFFFFF AND PUSH20 0xFFFFFFFFFFFFFFFFFFFFFFFFFFFFFFFFFFFFFFFF AND DUP2 MSTORE PUSH1 0x20 ADD SWAP1 DUP2 MSTORE PUSH1 0x20 ADD PUSH1 0x0 KECCAK256 SWAP1 POP PUSH2 0x15EE DUP14 DUP13 PUSH2 0x135D JUMP JUMPDEST PUSH2 0x1752 JUMPI PUSH1 0x6 PUSH1 0x0 PUSH1 0x3 DUP14 PUSH1 0x40 MLOAD PUSH2 0x1606 SWAP2 SWAP1 PUSH2 0x30C4 JUMP JUMPDEST SWAP1 DUP2 MSTORE PUSH1 0x20 ADD PUSH1 0x40 MLOAD DUP1 SWAP2 SUB SWAP1 KECCAK256 PUSH1 0x0 SWAP1 SLOAD SWAP1 PUSH2 0x100 EXP SWAP1 DIV PUSH20 0xFFFFFFFFFFFFFFFFFFFFFFFFFFFFFFFFFFFFFFFF AND PUSH20 0xFFFFFFFFFFFFFFFFFFFFFFFFFFFFFFFFFFFFFFFF AND PUSH20 0xFFFFFFFFFFFFFFFFFFFFFFFFFFFFFFFFFFFFFFFF AND DUP2 MSTORE PUSH1 0x20 ADD SWAP1 DUP2 MSTORE PUSH1 0x20 ADD PUSH1 0x0 KECCAK256 DUP14 SWAP1 DUP1 PUSH1 0x1 DUP2 SLOAD ADD DUP1 DUP3 SSTORE DUP1 SWAP2 POP POP PUSH1 0x1 SWAP1 SUB SWAP1 PUSH1 0x0 MSTORE PUSH1 0x20 PUSH1 0x0 KECCAK256 ADD PUSH1 0x0 SWAP1 SWAP2 SWAP1 SWAP2 SWAP1 SWAP2 POP SWAP1 DUP2 PUSH2 0x16A1 SWAP2 SWAP1 PUSH2 0x33B0 JUMP JUMPDEST POP PUSH1 0x8 PUSH1 0x0 PUSH1 0x3 DUP14 PUSH1 0x40 MLOAD PUSH2 0x16B6 SWAP2 SWAP1 PUSH2 0x30C4 JUMP JUMPDEST SWAP1 DUP2 MSTORE PUSH1 0x20 ADD PUSH1 0x40 MLOAD DUP1 SWAP2 SUB SWAP1 KECCAK256 PUSH1 0x0 SWAP1 SLOAD SWAP1 PUSH2 0x100 EXP SWAP1 DIV PUSH20 0xFFFFFFFFFFFFFFFFFFFFFFFFFFFFFFFFFFFFFFFF AND PUSH20 0xFFFFFFFFFFFFFFFFFFFFFFFFFFFFFFFFFFFFFFFF AND PUSH20 0xFFFFFFFFFFFFFFFFFFFFFFFFFFFFFFFFFFFFFFFF AND DUP2 MSTORE PUSH1 0x20 ADD SWAP1 DUP2 MSTORE PUSH1 0x20 ADD PUSH1 0x0 KECCAK256 DUP14 PUSH1 0x40 MLOAD PUSH2 0x172D SWAP2 SWAP1 PUSH2 0x30C4 JUMP JUMPDEST SWAP1 DUP2 MSTORE PUSH1 0x20 ADD PUSH1 0x40 MLOAD DUP1 SWAP2 SUB SWAP1 KECCAK256 PUSH1 0x0 DUP2 SLOAD DUP1 SWAP3 SWAP2 SWAP1 PUSH2 0x174C SWAP1 PUSH2 0x310A JUMP JUMPDEST SWAP2 SWAP1 POP SSTORE POP JUMPDEST PUSH1 0x0 DUP2 DUP15 PUSH1 0x40 MLOAD PUSH2 0x1763 SWAP2 SWAP1 PUSH2 0x30C4 JUMP JUMPDEST SWAP1 DUP2 MSTORE PUSH1 0x20 ADD PUSH1 0x40 MLOAD DUP1 SWAP2 SUB SWAP1 KECCAK256 SWAP1 POP DUP14 DUP2 PUSH1 0x0 DUP6 PUSH20 0xFFFFFFFFFFFFFFFFFFFFFFFFFFFFFFFFFFFFFFFF AND PUSH20 0xFFFFFFFFFFFFFFFFFFFFFFFFFFFFFFFFFFFFFFFF AND DUP2 MSTORE PUSH1 0x20 ADD SWAP1 DUP2 MSTORE PUSH1 0x20 ADD PUSH1 0x0 KECCAK256 PUSH1 0x0 ADD SWAP1 DUP2 PUSH2 0x17C1 SWAP2 SWAP1 PUSH2 0x33B0 JUMP JUMPDEST POP DUP13 DUP2 PUSH1 0x0 DUP6 PUSH20 0xFFFFFFFFFFFFFFFFFFFFFFFFFFFFFFFFFFFFFFFF AND PUSH20 0xFFFFFFFFFFFFFFFFFFFFFFFFFFFFFFFFFFFFFFFF AND DUP2 MSTORE PUSH1 0x20 ADD SWAP1 DUP2 MSTORE PUSH1 0x20 ADD PUSH1 0x0 KECCAK256 PUSH1 0x1 ADD SWAP1 DUP2 PUSH2 0x1810 SWAP2 SWAP1 PUSH2 0x33B0 JUMP JUMPDEST POP DUP12 DUP2 PUSH1 0x0 DUP6 PUSH20 0xFFFFFFFFFFFFFFFFFFFFFFFFFFFFFFFFFFFFFFFF AND PUSH20 0xFFFFFFFFFFFFFFFFFFFFFFFFFFFFFFFFFFFFFFFF AND DUP2 MSTORE PUSH1 0x20 ADD SWAP1 DUP2 MSTORE PUSH1 0x20 ADD PUSH1 0x0 KECCAK256 PUSH1 0x2 ADD SWAP1 DUP2 PUSH2 0x185F SWAP2 SWAP1 PUSH2 0x33B0 JUMP JUMPDEST POP DUP11 DUP2 PUSH1 0x0 DUP6 PUSH20 0xFFFFFFFFFFFFFFFFFFFFFFFFFFFFFFFFFFFFFFFF AND PUSH20 0xFFFFFFFFFFFFFFFFFFFFFFFFFFFFFFFFFFFFFFFF AND DUP2 MSTORE PUSH1 0x20 ADD SWAP1 DUP2 MSTORE PUSH1 0x20 ADD PUSH1 0x0 KECCAK256 PUSH1 0x7 ADD DUP2 SWAP1 SSTORE POP DUP10 DUP2 PUSH1 0x0 DUP6 PUSH20 0xFFFFFFFFFFFFFFFFFFFFFFFFFFFFFFFFFFFFFFFF AND PUSH20 0xFFFFFFFFFFFFFFFFFFFFFFFFFFFFFFFFFFFFFFFF AND DUP2 MSTORE PUSH1 0x20 ADD SWAP1 DUP2 MSTORE PUSH1 0x20 ADD PUSH1 0x0 KECCAK256 PUSH1 0x8 ADD DUP2 SWAP1 SSTORE POP DUP9 DUP2 PUSH1 0x0 DUP6 PUSH20 0xFFFFFFFFFFFFFFFFFFFFFFFFFFFFFFFFFFFFFFFF AND PUSH20 0xFFFFFFFFFFFFFFFFFFFFFFFFFFFFFFFFFFFFFFFF AND DUP2 MSTORE PUSH1 0x20 ADD SWAP1 DUP2 MSTORE PUSH1 0x20 ADD PUSH1 0x0 KECCAK256 PUSH1 0x9 ADD DUP2 SWAP1 SSTORE POP DUP8 DUP2 PUSH1 0x0 DUP6 PUSH20 0xFFFFFFFFFFFFFFFFFFFFFFFFFFFFFFFFFFFFFFFF AND PUSH20 0xFFFFFFFFFFFFFFFFFFFFFFFFFFFFFFFFFFFFFFFF AND DUP2 MSTORE PUSH1 0x20 ADD SWAP1 DUP2 MSTORE PUSH1 0x20 ADD PUSH1 0x0 KECCAK256 PUSH1 0x3 ADD DUP2 SWAP1 SSTORE POP DUP7 DUP2 PUSH1 0x0 DUP6 PUSH20 0xFFFFFFFFFFFFFFFFFFFFFFFFFFFFFFFFFFFFFFFF AND PUSH20 0xFFFFFFFFFFFFFFFFFFFFFFFFFFFFFFFFFFFFFFFF AND DUP2 MSTORE PUSH1 0x20 ADD SWAP1 DUP2 MSTORE PUSH1 0x20 ADD PUSH1 0x0 KECCAK256 PUSH1 0x6 ADD DUP2 SWAP1 SSTORE POP DUP6 DUP2 PUSH1 0x0 DUP6 PUSH20 0xFFFFFFFFFFFFFFFFFFFFFFFFFFFFFFFFFFFFFFFF AND PUSH20 0xFFFFFFFFFFFFFFFFFFFFFFFFFFFFFFFFFFFFFFFF AND DUP2 MSTORE PUSH1 0x20 ADD SWAP1 DUP2 MSTORE PUSH1 0x20 ADD PUSH1 0x0 KECCAK256 PUSH1 0x4 ADD DUP2 SWAP1 SSTORE POP DUP5 DUP2 PUSH1 0x0 DUP6 PUSH20 0xFFFFFFFFFFFFFFFFFFFFFFFFFFFFFFFFFFFFFFFF AND PUSH20 0xFFFFFFFFFFFFFFFFFFFFFFFFFFFFFFFFFFFFFFFF AND DUP2 MSTORE PUSH1 0x20 ADD SWAP1 DUP2 MSTORE PUSH1 0x20 ADD PUSH1 0x0 KECCAK256 PUSH1 0x5 ADD DUP2 SWAP1 SSTORE POP PUSH1 0x1 PUSH1 0x9 PUSH1 0x0 PUSH1 0x3 DUP16 PUSH1 0x40 MLOAD PUSH2 0x1A60 SWAP2 SWAP1 PUSH2 0x30C4 JUMP JUMPDEST SWAP1 DUP2 MSTORE PUSH1 0x20 ADD PUSH1 0x40 MLOAD DUP1 SWAP2 SUB SWAP1 KECCAK256 PUSH1 0x0 SWAP1 SLOAD SWAP1 PUSH2 0x100 EXP SWAP1 DIV PUSH20 0xFFFFFFFFFFFFFFFFFFFFFFFFFFFFFFFFFFFFFFFF AND PUSH20 0xFFFFFFFFFFFFFFFFFFFFFFFFFFFFFFFFFFFFFFFF AND PUSH20 0xFFFFFFFFFFFFFFFFFFFFFFFFFFFFFFFFFFFFFFFF AND DUP2 MSTORE PUSH1 0x20 ADD SWAP1 DUP2 MSTORE PUSH1 0x20 ADD PUSH1 0x0 KECCAK256 PUSH1 0x0 DUP3 DUP3 SLOAD PUSH2 0x1AD8 SWAP2 SWAP1 PUSH2 0x3482 JUMP JUMPDEST SWAP3 POP POP DUP2 SWAP1 SSTORE POP PUSH1 0x1 PUSH1 0x9 PUSH1 0x0 DUP6 PUSH20 0xFFFFFFFFFFFFFFFFFFFFFFFFFFFFFFFFFFFFFFFF AND PUSH20 0xFFFFFFFFFFFFFFFFFFFFFFFFFFFFFFFFFFFFFFFF AND DUP2 MSTORE PUSH1 0x20 ADD SWAP1 DUP2 MSTORE PUSH1 0x20 ADD PUSH1 0x0 KECCAK256 PUSH1 0x0 DUP3 DUP3 SLOAD PUSH2 0x1B2F SWAP2 SWAP1 PUSH2 0x34B6 JUMP JUMPDEST SWAP3 POP POP DUP2 SWAP1 SSTORE POP PUSH2 0x1B41 DUP4 PUSH1 0x1 PUSH2 0x12AC JUMP JUMPDEST PUSH1 0x0 PUSH1 0x40 MLOAD DUP1 PUSH1 0xC0 ADD PUSH1 0x40 MSTORE DUP1 PUSH1 0x3 DUP16 PUSH1 0x40 MLOAD PUSH2 0x1B5E SWAP2 SWAP1 PUSH2 0x30C4 JUMP JUMPDEST SWAP1 DUP2 MSTORE PUSH1 0x20 ADD PUSH1 0x40 MLOAD DUP1 SWAP2 SUB SWAP1 KECCAK256 PUSH1 0x0 SWAP1 SLOAD SWAP1 PUSH2 0x100 EXP SWAP1 DIV PUSH20 0xFFFFFFFFFFFFFFFFFFFFFFFFFFFFFFFFFFFFFFFF AND PUSH20 0xFFFFFFFFFFFFFFFFFFFFFFFFFFFFFFFFFFFFFFFF AND DUP2 MSTORE PUSH1 0x20 ADD DUP6 PUSH20 0xFFFFFFFFFFFFFFFFFFFFFFFFFFFFFFFFFFFFFFFF AND DUP2 MSTORE PUSH1 0x20 ADD DUP15 DUP2 MSTORE PUSH1 0x20 ADD PUSH1 0x2 PUSH1 0x0 DUP8 PUSH20 0xFFFFFFFFFFFFFFFFFFFFFFFFFFFFFFFFFFFFFFFF AND PUSH20 0xFFFFFFFFFFFFFFFFFFFFFFFFFFFFFFFFFFFFFFFF AND DUP2 MSTORE PUSH1 0x20 ADD SWAP1 DUP2 MSTORE PUSH1 0x20 ADD PUSH1 0x0 KECCAK256 DUP1 SLOAD PUSH2 0x1C14 SWAP1 PUSH2 0x3028 JUMP JUMPDEST DUP1 PUSH1 0x1F ADD PUSH1 0x20 DUP1 SWAP2 DIV MUL PUSH1 0x20 ADD PUSH1 0x40 MLOAD SWAP1 DUP2 ADD PUSH1 0x40 MSTORE DUP1 SWAP3 SWAP2 SWAP1 DUP2 DUP2 MSTORE PUSH1 0x20 ADD DUP3 DUP1 SLOAD PUSH2 0x1C40 SWAP1 PUSH2 0x3028 JUMP JUMPDEST DUP1 ISZERO PUSH2 0x1C8D JUMPI DUP1 PUSH1 0x1F LT PUSH2 0x1C62 JUMPI PUSH2 0x100 DUP1 DUP4 SLOAD DIV MUL DUP4 MSTORE SWAP2 PUSH1 0x20 ADD SWAP2 PUSH2 0x1C8D JUMP JUMPDEST DUP3 ADD SWAP2 SWAP1 PUSH1 0x0 MSTORE PUSH1 0x20 PUSH1 0x0 KECCAK256 SWAP1 JUMPDEST DUP2 SLOAD DUP2 MSTORE SWAP1 PUSH1 0x1 ADD SWAP1 PUSH1 0x20 ADD DUP1 DUP4 GT PUSH2 0x1C70 JUMPI DUP3 SWAP1 SUB PUSH1 0x1F AND DUP3 ADD SWAP2 JUMPDEST POP POP POP POP POP DUP2 MSTORE PUSH1 0x20 ADD PUSH1 0x1 DUP2 MSTORE PUSH1 0x20 ADD DUP7 DUP2 MSTORE POP SWAP1 POP PUSH1 0x5 DUP2 SWAP1 DUP1 PUSH1 0x1 DUP2 SLOAD ADD DUP1 DUP3 SSTORE DUP1 SWAP2 POP POP PUSH1 0x1 SWAP1 SUB SWAP1 PUSH1 0x0 MSTORE PUSH1 0x20 PUSH1 0x0 KECCAK256 SWAP1 PUSH1 0x6 MUL ADD PUSH1 0x0 SWAP1 SWAP2 SWAP1 SWAP2 SWAP1 SWAP2 POP PUSH1 0x0 DUP3 ADD MLOAD DUP2 PUSH1 0x0 ADD PUSH1 0x0 PUSH2 0x100 EXP DUP2 SLOAD DUP2 PUSH20 0xFFFFFFFFFFFFFFFFFFFFFFFFFFFFFFFFFFFFFFFF MUL NOT AND SWAP1 DUP4 PUSH20 0xFFFFFFFFFFFFFFFFFFFFFFFFFFFFFFFFFFFFFFFF AND MUL OR SWAP1 SSTORE POP PUSH1 0x20 DUP3 ADD MLOAD DUP2 PUSH1 0x1 ADD PUSH1 0x0 PUSH2 0x100 EXP DUP2 SLOAD DUP2 PUSH20 0xFFFFFFFFFFFFFFFFFFFFFFFFFFFFFFFFFFFFFFFF MUL NOT AND SWAP1 DUP4 PUSH20 0xFFFFFFFFFFFFFFFFFFFFFFFFFFFFFFFFFFFFFFFF AND MUL OR SWAP1 SSTORE POP PUSH1 0x40 DUP3 ADD MLOAD DUP2 PUSH1 0x2 ADD SWAP1 DUP2 PUSH2 0x1D73 SWAP2 SWAP1 PUSH2 0x33B0 JUMP JUMPDEST POP PUSH1 0x60 DUP3 ADD MLOAD DUP2 PUSH1 0x3 ADD SWAP1 DUP2 PUSH2 0x1D89 SWAP2 SWAP1 PUSH2 0x33B0 JUMP JUMPDEST POP PUSH1 0x80 DUP3 ADD MLOAD DUP2 PUSH1 0x4 ADD SSTORE PUSH1 0xA0 DUP3 ADD MLOAD DUP2 PUSH1 0x5 ADD SSTORE POP POP POP POP POP POP POP POP POP POP POP POP POP POP POP POP POP JUMP JUMPDEST PUSH1 0x0 SELFBALANCE SWAP1 POP SWAP1 JUMP JUMPDEST PUSH1 0x0 PUSH1 0x2 PUSH1 0x0 DUP6 PUSH20 0xFFFFFFFFFFFFFFFFFFFFFFFFFFFFFFFFFFFFFFFF AND PUSH20 0xFFFFFFFFFFFFFFFFFFFFFFFFFFFFFFFFFFFFFFFF AND DUP2 MSTORE PUSH1 0x20 ADD SWAP1 DUP2 MSTORE PUSH1 0x20 ADD PUSH1 0x0 KECCAK256 DUP1 SLOAD PUSH2 0x1E05 SWAP1 PUSH2 0x3028 JUMP JUMPDEST SWAP1 POP EQ DUP1 ISZERO PUSH2 0x1E7E JUMPI POP PUSH1 0x0 PUSH20 0xFFFFFFFFFFFFFFFFFFFFFFFFFFFFFFFFFFFFFFFF AND PUSH1 0x3 DUP4 PUSH1 0x40 MLOAD PUSH2 0x1E37 SWAP2 SWAP1 PUSH2 0x30C4 JUMP JUMPDEST SWAP1 DUP2 MSTORE PUSH1 0x20 ADD PUSH1 0x40 MLOAD DUP1 SWAP2 SUB SWAP1 KECCAK256 PUSH1 0x0 SWAP1 SLOAD SWAP1 PUSH2 0x100 EXP SWAP1 DIV PUSH20 0xFFFFFFFFFFFFFFFFFFFFFFFFFFFFFFFFFFFFFFFF AND PUSH20 0xFFFFFFFFFFFFFFFFFFFFFFFFFFFFFFFFFFFFFFFF AND EQ JUMPDEST ISZERO PUSH2 0x2280 JUMPI PUSH1 0x64 CALLVALUE LT ISZERO PUSH2 0x1E91 JUMPI PUSH1 0x0 DUP1 REVERT JUMPDEST PUSH1 0x0 DUP3 SWAP1 DUP1 PUSH1 0x1 DUP2 SLOAD ADD DUP1 DUP3 SSTORE DUP1 SWAP2 POP POP PUSH1 0x1 SWAP1 SUB SWAP1 PUSH1 0x0 MSTORE PUSH1 0x20 PUSH1 0x0 KECCAK256 ADD PUSH1 0x0 SWAP1 SWAP2 SWAP1 SWAP2 SWAP1 SWAP2 POP SWAP1 DUP2 PUSH2 0x1EC5 SWAP2 SWAP1 PUSH2 0x33B0 JUMP JUMPDEST POP PUSH1 0x1 DUP4 SWAP1 DUP1 PUSH1 0x1 DUP2 SLOAD ADD DUP1 DUP3 SSTORE DUP1 SWAP2 POP POP PUSH1 0x1 SWAP1 SUB SWAP1 PUSH1 0x0 MSTORE PUSH1 0x20 PUSH1 0x0 KECCAK256 ADD PUSH1 0x0 SWAP1 SWAP2 SWAP1 SWAP2 SWAP1 SWAP2 PUSH2 0x100 EXP DUP2 SLOAD DUP2 PUSH20 0xFFFFFFFFFFFFFFFFFFFFFFFFFFFFFFFFFFFFFFFF MUL NOT AND SWAP1 DUP4 PUSH20 0xFFFFFFFFFFFFFFFFFFFFFFFFFFFFFFFFFFFFFFFF AND MUL OR SWAP1 SSTORE POP DUP3 PUSH1 0x3 DUP4 PUSH1 0x40 MLOAD PUSH2 0x1F3A SWAP2 SWAP1 PUSH2 0x30C4 JUMP JUMPDEST SWAP1 DUP2 MSTORE PUSH1 0x20 ADD PUSH1 0x40 MLOAD DUP1 SWAP2 SUB SWAP1 KECCAK256 PUSH1 0x0 PUSH2 0x100 EXP DUP2 SLOAD DUP2 PUSH20 0xFFFFFFFFFFFFFFFFFFFFFFFFFFFFFFFFFFFFFFFF MUL NOT AND SWAP1 DUP4 PUSH20 0xFFFFFFFFFFFFFFFFFFFFFFFFFFFFFFFFFFFFFFFF AND MUL OR SWAP1 SSTORE POP DUP2 PUSH1 0x2 PUSH1 0x0 DUP6 PUSH20 0xFFFFFFFFFFFFFFFFFFFFFFFFFFFFFFFFFFFFFFFF AND PUSH20 0xFFFFFFFFFFFFFFFFFFFFFFFFFFFFFFFFFFFFFFFF AND DUP2 MSTORE PUSH1 0x20 ADD SWAP1 DUP2 MSTORE PUSH1 0x20 ADD PUSH1 0x0 KECCAK256 SWAP1 DUP2 PUSH2 0x1FD2 SWAP2 SWAP1 PUSH2 0x33B0 JUMP JUMPDEST POP CALLVALUE PUSH1 0x9 PUSH1 0x0 DUP6 PUSH20 0xFFFFFFFFFFFFFFFFFFFFFFFFFFFFFFFFFFFFFFFF AND PUSH20 0xFFFFFFFFFFFFFFFFFFFFFFFFFFFFFFFFFFFFFFFF AND DUP2 MSTORE PUSH1 0x20 ADD SWAP1 DUP2 MSTORE PUSH1 0x20 ADD PUSH1 0x0 KECCAK256 PUSH1 0x0 DUP3 DUP3 SLOAD PUSH2 0x2022 SWAP2 SWAP1 PUSH2 0x34B6 JUMP JUMPDEST SWAP3 POP POP DUP2 SWAP1 SSTORE POP PUSH1 0x0 PUSH1 0x40 MLOAD DUP1 PUSH1 0xC0 ADD PUSH1 0x40 MSTORE DUP1 CALLER PUSH20 0xFFFFFFFFFFFFFFFFFFFFFFFFFFFFFFFFFFFFFFFF AND DUP2 MSTORE PUSH1 0x20 ADD ADDRESS PUSH20 0xFFFFFFFFFFFFFFFFFFFFFFFFFFFFFFFFFFFFFFFF AND DUP2 MSTORE PUSH1 0x20 ADD PUSH1 0x2 PUSH1 0x0 CALLER PUSH20 0xFFFFFFFFFFFFFFFFFFFFFFFFFFFFFFFFFFFFFFFF AND PUSH20 0xFFFFFFFFFFFFFFFFFFFFFFFFFFFFFFFFFFFFFFFF AND DUP2 MSTORE PUSH1 0x20 ADD SWAP1 DUP2 MSTORE PUSH1 0x20 ADD PUSH1 0x0 KECCAK256 DUP1 SLOAD PUSH2 0x20B8 SWAP1 PUSH2 0x3028 JUMP JUMPDEST DUP1 PUSH1 0x1F ADD PUSH1 0x20 DUP1 SWAP2 DIV MUL PUSH1 0x20 ADD PUSH1 0x40 MLOAD SWAP1 DUP2 ADD PUSH1 0x40 MSTORE DUP1 SWAP3 SWAP2 SWAP1 DUP2 DUP2 MSTORE PUSH1 0x20 ADD DUP3 DUP1 SLOAD PUSH2 0x20E4 SWAP1 PUSH2 0x3028 JUMP JUMPDEST DUP1 ISZERO PUSH2 0x2131 JUMPI DUP1 PUSH1 0x1F LT PUSH2 0x2106 JUMPI PUSH2 0x100 DUP1 DUP4 SLOAD DIV MUL DUP4 MSTORE SWAP2 PUSH1 0x20 ADD SWAP2 PUSH2 0x2131 JUMP JUMPDEST DUP3 ADD SWAP2 SWAP1 PUSH1 0x0 MSTORE PUSH1 0x20 PUSH1 0x0 KECCAK256 SWAP1 JUMPDEST DUP2 SLOAD DUP2 MSTORE SWAP1 PUSH1 0x1 ADD SWAP1 PUSH1 0x20 ADD DUP1 DUP4 GT PUSH2 0x2114 JUMPI DUP3 SWAP1 SUB PUSH1 0x1F AND DUP3 ADD SWAP2 JUMPDEST POP POP POP POP POP DUP2 MSTORE PUSH1 0x20 ADD PUSH1 0x40 MLOAD DUP1 PUSH1 0x40 ADD PUSH1 0x40 MSTORE DUP1 PUSH1 0x4 DUP2 MSTORE PUSH1 0x20 ADD PUSH32 0x42616E6B00000000000000000000000000000000000000000000000000000000 DUP2 MSTORE POP DUP2 MSTORE PUSH1 0x20 ADD CALLVALUE DUP2 MSTORE PUSH1 0x20 ADD DUP4 DUP2 MSTORE POP SWAP1 POP PUSH1 0x5 DUP2 SWAP1 DUP1 PUSH1 0x1 DUP2 SLOAD ADD DUP1 DUP3 SSTORE DUP1 SWAP2 POP POP PUSH1 0x1 SWAP1 SUB SWAP1 PUSH1 0x0 MSTORE PUSH1 0x20 PUSH1 0x0 KECCAK256 SWAP1 PUSH1 0x6 MUL ADD PUSH1 0x0 SWAP1 SWAP2 SWAP1 SWAP2 SWAP1 SWAP2 POP PUSH1 0x0 DUP3 ADD MLOAD DUP2 PUSH1 0x0 ADD PUSH1 0x0 PUSH2 0x100 EXP DUP2 SLOAD DUP2 PUSH20 0xFFFFFFFFFFFFFFFFFFFFFFFFFFFFFFFFFFFFFFFF MUL NOT AND SWAP1 DUP4 PUSH20 0xFFFFFFFFFFFFFFFFFFFFFFFFFFFFFFFFFFFFFFFF AND MUL OR SWAP1 SSTORE POP PUSH1 0x20 DUP3 ADD MLOAD DUP2 PUSH1 0x1 ADD PUSH1 0x0 PUSH2 0x100 EXP DUP2 SLOAD DUP2 PUSH20 0xFFFFFFFFFFFFFFFFFFFFFFFFFFFFFFFFFFFFFFFF MUL NOT AND SWAP1 DUP4 PUSH20 0xFFFFFFFFFFFFFFFFFFFFFFFFFFFFFFFFFFFFFFFF AND MUL OR SWAP1 SSTORE POP PUSH1 0x40 DUP3 ADD MLOAD DUP2 PUSH1 0x2 ADD SWAP1 DUP2 PUSH2 0x2251 SWAP2 SWAP1 PUSH2 0x33B0 JUMP JUMPDEST POP PUSH1 0x60 DUP3 ADD MLOAD DUP2 PUSH1 0x3 ADD SWAP1 DUP2 PUSH2 0x2267 SWAP2 SWAP1 PUSH2 0x33B0 JUMP JUMPDEST POP PUSH1 0x80 DUP3 ADD MLOAD DUP2 PUSH1 0x4 ADD SSTORE PUSH1 0xA0 DUP3 ADD MLOAD DUP2 PUSH1 0x5 ADD SSTORE POP POP POP JUMPDEST POP POP POP JUMP JUMPDEST CALLVALUE PUSH1 0x4 PUSH1 0x0 DUP3 DUP3 SLOAD PUSH2 0x2297 SWAP2 SWAP1 PUSH2 0x34B6 JUMP JUMPDEST SWAP3 POP POP DUP2 SWAP1 SSTORE POP JUMP JUMPDEST PUSH1 0x4 SLOAD DUP2 JUMP JUMPDEST PUSH1 0x3 DUP2 DUP1 MLOAD PUSH1 0x20 DUP2 ADD DUP3 ADD DUP1 MLOAD DUP5 DUP3 MSTORE PUSH1 0x20 DUP4 ADD PUSH1 0x20 DUP6 ADD KECCAK256 DUP2 DUP4 MSTORE DUP1 SWAP6 POP POP POP POP POP POP PUSH1 0x0 SWAP2 POP SLOAD SWAP1 PUSH2 0x100 EXP SWAP1 DIV PUSH20 0xFFFFFFFFFFFFFFFFFFFFFFFFFFFFFFFFFFFFFFFF AND DUP2 JUMP JUMPDEST PUSH1 0x40 MLOAD DUP1 PUSH2 0x140 ADD PUSH1 0x40 MSTORE DUP1 PUSH1 0x60 DUP2 MSTORE PUSH1 0x20 ADD PUSH1 0x60 DUP2 MSTORE PUSH1 0x20 ADD PUSH1 0x60 DUP2 MSTORE PUSH1 0x20 ADD PUSH1 0x0 DUP2 MSTORE PUSH1 0x20 ADD PUSH1 0x0 DUP2 MSTORE PUSH1 0x20 ADD PUSH1 0x0 DUP2 MSTORE PUSH1 0x20 ADD PUSH1 0x0 DUP2 MSTORE PUSH1 0x20 ADD PUSH1 0x0 DUP2 MSTORE PUSH1 0x20 ADD PUSH1 0x0 DUP2 MSTORE PUSH1 0x20 ADD PUSH1 0x0 DUP2 MSTORE POP SWAP1 JUMP JUMPDEST PUSH1 0x0 PUSH1 0x40 MLOAD SWAP1 POP SWAP1 JUMP JUMPDEST PUSH1 0x0 DUP1 REVERT JUMPDEST PUSH1 0x0 DUP1 REVERT JUMPDEST PUSH1 0x0 DUP2 SWAP1 POP SWAP2 SWAP1 POP JUMP JUMPDEST PUSH2 0x2369 DUP2 PUSH2 0x2356 JUMP JUMPDEST DUP2 EQ PUSH2 0x2374 JUMPI PUSH1 0x0 DUP1 REVERT JUMPDEST POP JUMP JUMPDEST PUSH1 0x0 DUP2 CALLDATALOAD SWAP1 POP PUSH2 0x2386 DUP2 PUSH2 0x2360 JUMP JUMPDEST SWAP3 SWAP2 POP POP JUMP JUMPDEST PUSH1 0x0 PUSH1 0x20 DUP3 DUP5 SUB SLT ISZERO PUSH2 0x23A2 JUMPI PUSH2 0x23A1 PUSH2 0x234C JUMP JUMPDEST JUMPDEST PUSH1 0x0 PUSH2 0x23B0 DUP5 DUP3 DUP6 ADD PUSH2 0x2377 JUMP JUMPDEST SWAP2 POP POP SWAP3 SWAP2 POP POP JUMP JUMPDEST PUSH1 0x0 DUP2 MLOAD SWAP1 POP SWAP2 SWAP1 POP JUMP JUMPDEST PUSH1 0x0 DUP3 DUP3 MSTORE PUSH1 0x20 DUP3 ADD SWAP1 POP SWAP3 SWAP2 POP POP JUMP JUMPDEST PUSH1 0x0 JUMPDEST DUP4 DUP2 LT ISZERO PUSH2 0x23F3 JUMPI DUP1 DUP3 ADD MLOAD DUP2 DUP5 ADD MSTORE PUSH1 0x20 DUP2 ADD SWAP1 POP PUSH2 0x23D8 JUMP JUMPDEST PUSH1 0x0 DUP5 DUP5 ADD MSTORE POP POP POP POP JUMP JUMPDEST PUSH1 0x0 PUSH1 0x1F NOT PUSH1 0x1F DUP4 ADD AND SWAP1 POP SWAP2 SWAP1 POP JUMP JUMPDEST PUSH1 0x0 PUSH2 0x241B DUP3 PUSH2 0x23B9 JUMP JUMPDEST PUSH2 0x2425 DUP2 DUP6 PUSH2 0x23C4 JUMP JUMPDEST SWAP4 POP PUSH2 0x2435 DUP2 DUP6 PUSH1 0x20 DUP7 ADD PUSH2 0x23D5 JUMP JUMPDEST PUSH2 0x243E DUP2 PUSH2 0x23FF JUMP JUMPDEST DUP5 ADD SWAP2 POP POP SWAP3 SWAP2 POP POP JUMP JUMPDEST PUSH1 0x0 PUSH1 0x20 DUP3 ADD SWAP1 POP DUP2 DUP2 SUB PUSH1 0x0 DUP4 ADD MSTORE PUSH2 0x2463 DUP2 DUP5 PUSH2 0x2410 JUMP JUMPDEST SWAP1 POP SWAP3 SWAP2 POP POP JUMP JUMPDEST PUSH1 0x0 PUSH20 0xFFFFFFFFFFFFFFFFFFFFFFFFFFFFFFFFFFFFFFFF DUP3 AND SWAP1 POP SWAP2 SWAP1 POP JUMP JUMPDEST PUSH1 0x0 PUSH2 0x2496 DUP3 PUSH2 0x246B JUMP JUMPDEST SWAP1 POP SWAP2 SWAP1 POP JUMP JUMPDEST PUSH2 0x24A6 DUP2 PUSH2 0x248B JUMP JUMPDEST DUP3 MSTORE POP POP JUMP JUMPDEST PUSH2 0x24B5 DUP2 PUSH2 0x2356 JUMP JUMPDEST DUP3 MSTORE POP POP JUMP JUMPDEST PUSH1 0x0 PUSH1 0xC0 DUP3 ADD SWAP1 POP PUSH2 0x24D0 PUSH1 0x0 DUP4 ADD DUP10 PUSH2 0x249D JUMP JUMPDEST PUSH2 0x24DD PUSH1 0x20 DUP4 ADD DUP9 PUSH2 0x249D JUMP JUMPDEST DUP2 DUP2 SUB PUSH1 0x40 DUP4 ADD MSTORE PUSH2 0x24EF DUP2 DUP8 PUSH2 0x2410 JUMP JUMPDEST SWAP1 POP DUP2 DUP2 SUB PUSH1 0x60 DUP4 ADD MSTORE PUSH2 0x2503 DUP2 DUP7 PUSH2 0x2410 JUMP JUMPDEST SWAP1 POP PUSH2 0x2512 PUSH1 0x80 DUP4 ADD DUP6 PUSH2 0x24AC JUMP JUMPDEST PUSH2 0x251F PUSH1 0xA0 DUP4 ADD DUP5 PUSH2 0x24AC JUMP JUMPDEST SWAP8 SWAP7 POP POP POP POP POP POP POP JUMP JUMPDEST PUSH2 0x2533 DUP2 PUSH2 0x248B JUMP JUMPDEST DUP2 EQ PUSH2 0x253E JUMPI PUSH1 0x0 DUP1 REVERT JUMPDEST POP JUMP JUMPDEST PUSH1 0x0 DUP2 CALLDATALOAD SWAP1 POP PUSH2 0x2550 DUP2 PUSH2 0x252A JUMP JUMPDEST SWAP3 SWAP2 POP POP JUMP JUMPDEST PUSH1 0x0 DUP1 REVERT JUMPDEST PUSH1 0x0 DUP1 REVERT JUMPDEST PUSH32 0x4E487B7100000000000000000000000000000000000000000000000000000000 PUSH1 0x0 MSTORE PUSH1 0x41 PUSH1 0x4 MSTORE PUSH1 0x24 PUSH1 0x0 REVERT JUMPDEST PUSH2 0x2598 DUP3 PUSH2 0x23FF JUMP JUMPDEST DUP2 ADD DUP2 DUP2 LT PUSH8 0xFFFFFFFFFFFFFFFF DUP3 GT OR ISZERO PUSH2 0x25B7 JUMPI PUSH2 0x25B6 PUSH2 0x2560 JUMP JUMPDEST JUMPDEST DUP1 PUSH1 0x40 MSTORE POP POP POP JUMP JUMPDEST PUSH1 0x0 PUSH2 0x25CA PUSH2 0x2342 JUMP JUMPDEST SWAP1 POP PUSH2 0x25D6 DUP3 DUP3 PUSH2 0x258F JUMP JUMPDEST SWAP2 SWAP1 POP JUMP JUMPDEST PUSH1 0x0 PUSH8 0xFFFFFFFFFFFFFFFF DUP3 GT ISZERO PUSH2 0x25F6 JUMPI PUSH2 0x25F5 PUSH2 0x2560 JUMP JUMPDEST JUMPDEST PUSH2 0x25FF DUP3 PUSH2 0x23FF JUMP JUMPDEST SWAP1 POP PUSH1 0x20 DUP2 ADD SWAP1 POP SWAP2 SWAP1 POP JUMP JUMPDEST DUP3 DUP2 DUP4 CALLDATACOPY PUSH1 0x0 DUP4 DUP4 ADD MSTORE POP POP POP JUMP JUMPDEST PUSH1 0x0 PUSH2 0x262E PUSH2 0x2629 DUP5 PUSH2 0x25DB JUMP JUMPDEST PUSH2 0x25C0 JUMP JUMPDEST SWAP1 POP DUP3 DUP2 MSTORE PUSH1 0x20 DUP2 ADD DUP5 DUP5 DUP5 ADD GT ISZERO PUSH2 0x264A JUMPI PUSH2 0x2649 PUSH2 0x255B JUMP JUMPDEST JUMPDEST PUSH2 0x2655 DUP5 DUP3 DUP6 PUSH2 0x260C JUMP JUMPDEST POP SWAP4 SWAP3 POP POP POP JUMP JUMPDEST PUSH1 0x0 DUP3 PUSH1 0x1F DUP4 ADD SLT PUSH2 0x2672 JUMPI PUSH2 0x2671 PUSH2 0x2556 JUMP JUMPDEST JUMPDEST DUP2 CALLDATALOAD PUSH2 0x2682 DUP5 DUP3 PUSH1 0x20 DUP7 ADD PUSH2 0x261B JUMP JUMPDEST SWAP2 POP POP SWAP3 SWAP2 POP POP JUMP JUMPDEST PUSH1 0x0 DUP1 PUSH1 0x0 PUSH1 0x60 DUP5 DUP7 SUB SLT ISZERO PUSH2 0x26A4 JUMPI PUSH2 0x26A3 PUSH2 0x234C JUMP JUMPDEST JUMPDEST PUSH1 0x0 PUSH2 0x26B2 DUP7 DUP3 DUP8 ADD PUSH2 0x2541 JUMP JUMPDEST SWAP4 POP POP PUSH1 0x20 DUP5 ADD CALLDATALOAD PUSH8 0xFFFFFFFFFFFFFFFF DUP2 GT ISZERO PUSH2 0x26D3 JUMPI PUSH2 0x26D2 PUSH2 0x2351 JUMP JUMPDEST JUMPDEST PUSH2 0x26DF DUP7 DUP3 DUP8 ADD PUSH2 0x265D JUMP JUMPDEST SWAP3 POP POP PUSH1 0x40 PUSH2 0x26F0 DUP7 DUP3 DUP8 ADD PUSH2 0x2541 JUMP JUMPDEST SWAP2 POP POP SWAP3 POP SWAP3 POP SWAP3 JUMP JUMPDEST PUSH1 0x0 PUSH2 0x140 DUP3 ADD SWAP1 POP DUP2 DUP2 SUB PUSH1 0x0 DUP4 ADD MSTORE PUSH2 0x2715 DUP2 DUP14 PUSH2 0x2410 JUMP JUMPDEST SWAP1 POP DUP2 DUP2 SUB PUSH1 0x20 DUP4 ADD MSTORE PUSH2 0x2729 DUP2 DUP13 PUSH2 0x2410 JUMP JUMPDEST SWAP1 POP DUP2 DUP2 SUB PUSH1 0x40 DUP4 ADD MSTORE PUSH2 0x273D DUP2 DUP12 PUSH2 0x2410 JUMP JUMPDEST SWAP1 POP PUSH2 0x274C PUSH1 0x60 DUP4 ADD DUP11 PUSH2 0x24AC JUMP JUMPDEST PUSH2 0x2759 PUSH1 0x80 DUP4 ADD DUP10 PUSH2 0x24AC JUMP JUMPDEST PUSH2 0x2766 PUSH1 0xA0 DUP4 ADD DUP9 PUSH2 0x24AC JUMP JUMPDEST PUSH2 0x2773 PUSH1 0xC0 DUP4 ADD DUP8 PUSH2 0x24AC JUMP JUMPDEST PUSH2 0x2780 PUSH1 0xE0 DUP4 ADD DUP7 PUSH2 0x24AC JUMP JUMPDEST PUSH2 0x278E PUSH2 0x100 DUP4 ADD DUP6 PUSH2 0x24AC JUMP JUMPDEST PUSH2 0x279C PUSH2 0x120 DUP4 ADD DUP5 PUSH2 0x24AC JUMP JUMPDEST SWAP12 SWAP11 POP POP POP POP POP POP POP POP POP POP POP JUMP JUMPDEST PUSH1 0x0 DUP2 MLOAD SWAP1 POP SWAP2 SWAP1 POP JUMP JUMPDEST PUSH1 0x0 DUP3 DUP3 MSTORE PUSH1 0x20 DUP3 ADD SWAP1 POP SWAP3 SWAP2 POP POP JUMP JUMPDEST PUSH1 0x0 DUP2 SWAP1 POP PUSH1 0x20 DUP3 ADD SWAP1 POP SWAP2 SWAP1 POP JUMP JUMPDEST PUSH2 0x27E0 DUP2 PUSH2 0x248B JUMP JUMPDEST DUP3 MSTORE POP POP JUMP JUMPDEST PUSH1 0x0 DUP3 DUP3 MSTORE PUSH1 0x20 DUP3 ADD SWAP1 POP SWAP3 SWAP2 POP POP JUMP JUMPDEST PUSH1 0x0 PUSH2 0x2802 DUP3 PUSH2 0x23B9 JUMP JUMPDEST PUSH2 0x280C DUP2 DUP6 PUSH2 0x27E6 JUMP JUMPDEST SWAP4 POP PUSH2 0x281C DUP2 DUP6 PUSH1 0x20 DUP7 ADD PUSH2 0x23D5 JUMP JUMPDEST PUSH2 0x2825 DUP2 PUSH2 0x23FF JUMP JUMPDEST DUP5 ADD SWAP2 POP POP SWAP3 SWAP2 POP POP JUMP JUMPDEST PUSH2 0x2839 DUP2 PUSH2 0x2356 JUMP JUMPDEST DUP3 MSTORE POP POP JUMP JUMPDEST PUSH1 0x0 PUSH1 0xC0 DUP4 ADD PUSH1 0x0 DUP4 ADD MLOAD PUSH2 0x2857 PUSH1 0x0 DUP7 ADD DUP3 PUSH2 0x27D7 JUMP JUMPDEST POP PUSH1 0x20 DUP4 ADD MLOAD PUSH2 0x286A PUSH1 0x20 DUP7 ADD DUP3 PUSH2 0x27D7 JUMP JUMPDEST POP PUSH1 0x40 DUP4 ADD MLOAD DUP5 DUP3 SUB PUSH1 0x40 DUP7 ADD MSTORE PUSH2 0x2882 DUP3 DUP3 PUSH2 0x27F7 JUMP JUMPDEST SWAP2 POP POP PUSH1 0x60 DUP4 ADD MLOAD DUP5 DUP3 SUB PUSH1 0x60 DUP7 ADD MSTORE PUSH2 0x289C DUP3 DUP3 PUSH2 0x27F7 JUMP JUMPDEST SWAP2 POP POP PUSH1 0x80 DUP4 ADD MLOAD PUSH2 0x28B1 PUSH1 0x80 DUP7 ADD DUP3 PUSH2 0x2830 JUMP JUMPDEST POP PUSH1 0xA0 DUP4 ADD MLOAD PUSH2 0x28C4 PUSH1 0xA0 DUP7 ADD DUP3 PUSH2 0x2830 JUMP JUMPDEST POP DUP1 SWAP2 POP POP SWAP3 SWAP2 POP POP JUMP JUMPDEST PUSH1 0x0 PUSH2 0x28DB DUP4 DUP4 PUSH2 0x283F JUMP JUMPDEST SWAP1 POP SWAP3 SWAP2 POP POP JUMP JUMPDEST PUSH1 0x0 PUSH1 0x20 DUP3 ADD SWAP1 POP SWAP2 SWAP1 POP JUMP JUMPDEST PUSH1 0x0 PUSH2 0x28FB DUP3 PUSH2 0x27AB JUMP JUMPDEST PUSH2 0x2905 DUP2 DUP6 PUSH2 0x27B6 JUMP JUMPDEST SWAP4 POP DUP4 PUSH1 0x20 DUP3 MUL DUP6 ADD PUSH2 0x2917 DUP6 PUSH2 0x27C7 JUMP JUMPDEST DUP1 PUSH1 0x0 JUMPDEST DUP6 DUP2 LT ISZERO PUSH2 0x2953 JUMPI DUP5 DUP5 SUB DUP10 MSTORE DUP2 MLOAD PUSH2 0x2934 DUP6 DUP3 PUSH2 0x28CF JUMP JUMPDEST SWAP5 POP PUSH2 0x293F DUP4 PUSH2 0x28E3 JUMP JUMPDEST SWAP3 POP PUSH1 0x20 DUP11 ADD SWAP10 POP POP PUSH1 0x1 DUP2 ADD SWAP1 POP PUSH2 0x291B JUMP JUMPDEST POP DUP3 SWAP8 POP DUP8 SWAP6 POP POP POP POP POP POP SWAP3 SWAP2 POP POP JUMP JUMPDEST PUSH1 0x0 PUSH1 0x20 DUP3 ADD SWAP1 POP DUP2 DUP2 SUB PUSH1 0x0 DUP4 ADD MSTORE PUSH2 0x297F DUP2 DUP5 PUSH2 0x28F0 JUMP JUMPDEST SWAP1 POP SWAP3 SWAP2 POP POP JUMP JUMPDEST PUSH1 0x0 PUSH1 0x20 DUP3 DUP5 SUB SLT ISZERO PUSH2 0x299D JUMPI PUSH2 0x299C PUSH2 0x234C JUMP JUMPDEST JUMPDEST PUSH1 0x0 PUSH2 0x29AB DUP5 DUP3 DUP6 ADD PUSH2 0x2541 JUMP JUMPDEST SWAP2 POP POP SWAP3 SWAP2 POP POP JUMP JUMPDEST PUSH1 0x0 PUSH1 0x20 DUP3 ADD SWAP1 POP PUSH2 0x29C9 PUSH1 0x0 DUP4 ADD DUP5 PUSH2 0x24AC JUMP JUMPDEST SWAP3 SWAP2 POP POP JUMP JUMPDEST PUSH1 0x0 DUP1 PUSH1 0x40 DUP4 DUP6 SUB SLT ISZERO PUSH2 0x29E6 JUMPI PUSH2 0x29E5 PUSH2 0x234C JUMP JUMPDEST JUMPDEST PUSH1 0x0 PUSH2 0x29F4 DUP6 DUP3 DUP7 ADD PUSH2 0x2541 JUMP JUMPDEST SWAP3 POP POP PUSH1 0x20 PUSH2 0x2A05 DUP6 DUP3 DUP7 ADD PUSH2 0x2377 JUMP JUMPDEST SWAP2 POP POP SWAP3 POP SWAP3 SWAP1 POP JUMP JUMPDEST PUSH1 0x0 PUSH1 0x20 DUP3 ADD SWAP1 POP PUSH2 0x2A24 PUSH1 0x0 DUP4 ADD DUP5 PUSH2 0x249D JUMP JUMPDEST SWAP3 SWAP2 POP POP JUMP JUMPDEST PUSH1 0x0 PUSH1 0x20 DUP3 DUP5 SUB SLT ISZERO PUSH2 0x2A40 JUMPI PUSH2 0x2A3F PUSH2 0x234C JUMP JUMPDEST JUMPDEST PUSH1 0x0 DUP3 ADD CALLDATALOAD PUSH8 0xFFFFFFFFFFFFFFFF DUP2 GT ISZERO PUSH2 0x2A5E JUMPI PUSH2 0x2A5D PUSH2 0x2351 JUMP JUMPDEST JUMPDEST PUSH2 0x2A6A DUP5 DUP3 DUP6 ADD PUSH2 0x265D JUMP JUMPDEST SWAP2 POP POP SWAP3 SWAP2 POP POP JUMP JUMPDEST PUSH1 0x0 DUP2 MLOAD SWAP1 POP SWAP2 SWAP1 POP JUMP JUMPDEST PUSH1 0x0 DUP3 DUP3 MSTORE PUSH1 0x20 DUP3 ADD SWAP1 POP SWAP3 SWAP2 POP POP JUMP JUMPDEST PUSH1 0x0 DUP2 SWAP1 POP PUSH1 0x20 DUP3 ADD SWAP1 POP SWAP2 SWAP1 POP JUMP JUMPDEST PUSH1 0x0 PUSH2 0x2AAB DUP4 DUP4 PUSH2 0x27F7 JUMP JUMPDEST SWAP1 POP SWAP3 SWAP2 POP POP JUMP JUMPDEST PUSH1 0x0 PUSH1 0x20 DUP3 ADD SWAP1 POP SWAP2 SWAP1 POP JUMP JUMPDEST PUSH1 0x0 PUSH2 0x2ACB DUP3 PUSH2 0x2A73 JUMP JUMPDEST PUSH2 0x2AD5 DUP2 DUP6 PUSH2 0x2A7E JUMP JUMPDEST SWAP4 POP DUP4 PUSH1 0x20 DUP3 MUL DUP6 ADD PUSH2 0x2AE7 DUP6 PUSH2 0x2A8F JUMP JUMPDEST DUP1 PUSH1 0x0 JUMPDEST DUP6 DUP2 LT ISZERO PUSH2 0x2B23 JUMPI DUP5 DUP5 SUB DUP10 MSTORE DUP2 MLOAD PUSH2 0x2B04 DUP6 DUP3 PUSH2 0x2A9F JUMP JUMPDEST SWAP5 POP PUSH2 0x2B0F DUP4 PUSH2 0x2AB3 JUMP JUMPDEST SWAP3 POP PUSH1 0x20 DUP11 ADD SWAP10 POP POP PUSH1 0x1 DUP2 ADD SWAP1 POP PUSH2 0x2AEB JUMP JUMPDEST POP DUP3 SWAP8 POP DUP8 SWAP6 POP POP POP POP POP POP SWAP3 SWAP2 POP POP JUMP JUMPDEST PUSH1 0x0 DUP2 MLOAD SWAP1 POP SWAP2 SWAP1 POP JUMP JUMPDEST PUSH1 0x0 DUP3 DUP3 MSTORE PUSH1 0x20 DUP3 ADD SWAP1 POP SWAP3 SWAP2 POP POP JUMP JUMPDEST PUSH1 0x0 DUP2 SWAP1 POP PUSH1 0x20 DUP3 ADD SWAP1 POP SWAP2 SWAP1 POP JUMP JUMPDEST PUSH1 0x0 PUSH2 0x140 DUP4 ADD PUSH1 0x0 DUP4 ADD MLOAD DUP5 DUP3 SUB PUSH1 0x0 DUP7 ADD MSTORE PUSH2 0x2B7F DUP3 DUP3 PUSH2 0x27F7 JUMP JUMPDEST SWAP2 POP POP PUSH1 0x20 DUP4 ADD MLOAD DUP5 DUP3 SUB PUSH1 0x20 DUP7 ADD MSTORE PUSH2 0x2B99 DUP3 DUP3 PUSH2 0x27F7 JUMP JUMPDEST SWAP2 POP POP PUSH1 0x40 DUP4 ADD MLOAD DUP5 DUP3 SUB PUSH1 0x40 DUP7 ADD MSTORE PUSH2 0x2BB3 DUP3 DUP3 PUSH2 0x27F7 JUMP JUMPDEST SWAP2 POP POP PUSH1 0x60 DUP4 ADD MLOAD PUSH2 0x2BC8 PUSH1 0x60 DUP7 ADD DUP3 PUSH2 0x2830 JUMP JUMPDEST POP PUSH1 0x80 DUP4 ADD MLOAD PUSH2 0x2BDB PUSH1 0x80 DUP7 ADD DUP3 PUSH2 0x2830 JUMP JUMPDEST POP PUSH1 0xA0 DUP4 ADD MLOAD PUSH2 0x2BEE PUSH1 0xA0 DUP7 ADD DUP3 PUSH2 0x2830 JUMP JUMPDEST POP PUSH1 0xC0 DUP4 ADD MLOAD PUSH2 0x2C01 PUSH1 0xC0 DUP7 ADD DUP3 PUSH2 0x2830 JUMP JUMPDEST POP PUSH1 0xE0 DUP4 ADD MLOAD PUSH2 0x2C14 PUSH1 0xE0 DUP7 ADD DUP3 PUSH2 0x2830 JUMP JUMPDEST POP PUSH2 0x100 DUP4 ADD MLOAD PUSH2 0x2C29 PUSH2 0x100 DUP7 ADD DUP3 PUSH2 0x2830 JUMP JUMPDEST POP PUSH2 0x120 DUP4 ADD MLOAD PUSH2 0x2C3E PUSH2 0x120 DUP7 ADD DUP3 PUSH2 0x2830 JUMP JUMPDEST POP DUP1 SWAP2 POP POP SWAP3 SWAP2 POP POP JUMP JUMPDEST PUSH1 0x0 PUSH2 0x2C55 DUP4 DUP4 PUSH2 0x2B61 JUMP JUMPDEST SWAP1 POP SWAP3 SWAP2 POP POP JUMP JUMPDEST PUSH1 0x0 PUSH1 0x20 DUP3 ADD SWAP1 POP SWAP2 SWAP1 POP JUMP JUMPDEST PUSH1 0x0 PUSH2 0x2C75 DUP3 PUSH2 0x2B35 JUMP JUMPDEST PUSH2 0x2C7F DUP2 DUP6 PUSH2 0x2B40 JUMP JUMPDEST SWAP4 POP DUP4 PUSH1 0x20 DUP3 MUL DUP6 ADD PUSH2 0x2C91 DUP6 PUSH2 0x2B51 JUMP JUMPDEST DUP1 PUSH1 0x0 JUMPDEST DUP6 DUP2 LT ISZERO PUSH2 0x2CCD JUMPI DUP5 DUP5 SUB DUP10 MSTORE DUP2 MLOAD PUSH2 0x2CAE DUP6 DUP3 PUSH2 0x2C49 JUMP JUMPDEST SWAP5 POP PUSH2 0x2CB9 DUP4 PUSH2 0x2C5D JUMP JUMPDEST SWAP3 POP PUSH1 0x20 DUP11 ADD SWAP10 POP POP PUSH1 0x1 DUP2 ADD SWAP1 POP PUSH2 0x2C95 JUMP JUMPDEST POP DUP3 SWAP8 POP DUP8 SWAP6 POP POP POP POP POP POP SWAP3 SWAP2 POP POP JUMP JUMPDEST PUSH1 0x0 PUSH1 0x40 DUP3 ADD SWAP1 POP DUP2 DUP2 SUB PUSH1 0x0 DUP4 ADD MSTORE PUSH2 0x2CF9 DUP2 DUP6 PUSH2 0x2AC0 JUMP JUMPDEST SWAP1 POP DUP2 DUP2 SUB PUSH1 0x20 DUP4 ADD MSTORE PUSH2 0x2D0D DUP2 DUP5 PUSH2 0x2C6A JUMP JUMPDEST SWAP1 POP SWAP4 SWAP3 POP POP POP JUMP JUMPDEST PUSH1 0x0 PUSH2 0x2D21 DUP3 PUSH2 0x246B JUMP JUMPDEST SWAP1 POP SWAP2 SWAP1 POP JUMP JUMPDEST PUSH2 0x2D31 DUP2 PUSH2 0x2D16 JUMP JUMPDEST DUP2 EQ PUSH2 0x2D3C JUMPI PUSH1 0x0 DUP1 REVERT JUMPDEST POP JUMP JUMPDEST PUSH1 0x0 DUP2 CALLDATALOAD SWAP1 POP PUSH2 0x2D4E DUP2 PUSH2 0x2D28 JUMP JUMPDEST SWAP3 SWAP2 POP POP JUMP JUMPDEST PUSH1 0x0 DUP1 PUSH1 0x40 DUP4 DUP6 SUB SLT ISZERO PUSH2 0x2D6B JUMPI PUSH2 0x2D6A PUSH2 0x234C JUMP JUMPDEST JUMPDEST PUSH1 0x0 PUSH2 0x2D79 DUP6 DUP3 DUP7 ADD PUSH2 0x2D3F JUMP JUMPDEST SWAP3 POP POP PUSH1 0x20 PUSH2 0x2D8A DUP6 DUP3 DUP7 ADD PUSH2 0x2377 JUMP JUMPDEST SWAP2 POP POP SWAP3 POP SWAP3 SWAP1 POP JUMP JUMPDEST PUSH1 0x0 DUP1 PUSH1 0x40 DUP4 DUP6 SUB SLT ISZERO PUSH2 0x2DAB JUMPI PUSH2 0x2DAA PUSH2 0x234C JUMP JUMPDEST JUMPDEST PUSH1 0x0 DUP4 ADD CALLDATALOAD PUSH8 0xFFFFFFFFFFFFFFFF DUP2 GT ISZERO PUSH2 0x2DC9 JUMPI PUSH2 0x2DC8 PUSH2 0x2351 JUMP JUMPDEST JUMPDEST PUSH2 0x2DD5 DUP6 DUP3 DUP7 ADD PUSH2 0x265D JUMP JUMPDEST SWAP3 POP POP PUSH1 0x20 DUP4 ADD CALLDATALOAD PUSH8 0xFFFFFFFFFFFFFFFF DUP2 GT ISZERO PUSH2 0x2DF6 JUMPI PUSH2 0x2DF5 PUSH2 0x2351 JUMP JUMPDEST JUMPDEST PUSH2 0x2E02 DUP6 DUP3 DUP7 ADD PUSH2 0x265D JUMP JUMPDEST SWAP2 POP POP SWAP3 POP SWAP3 SWAP1 POP JUMP JUMPDEST PUSH1 0x0 DUP2 ISZERO ISZERO SWAP1 POP SWAP2 SWAP1 POP JUMP JUMPDEST PUSH2 0x2E21 DUP2 PUSH2 0x2E0C JUMP JUMPDEST DUP3 MSTORE POP POP JUMP JUMPDEST PUSH1 0x0 PUSH1 0x20 DUP3 ADD SWAP1 POP PUSH2 0x2E3C PUSH1 0x0 DUP4 ADD DUP5 PUSH2 0x2E18 JUMP JUMPDEST SWAP3 SWAP2 POP POP JUMP JUMPDEST PUSH1 0x0 DUP1 PUSH1 0x0 DUP1 PUSH1 0x0 DUP1 PUSH1 0x0 DUP1 PUSH1 0x0 DUP1 PUSH1 0x0 PUSH2 0x160 DUP13 DUP15 SUB SLT ISZERO PUSH2 0x2E68 JUMPI PUSH2 0x2E67 PUSH2 0x234C JUMP JUMPDEST JUMPDEST PUSH1 0x0 DUP13 ADD CALLDATALOAD PUSH8 0xFFFFFFFFFFFFFFFF DUP2 GT ISZERO PUSH2 0x2E86 JUMPI PUSH2 0x2E85 PUSH2 0x2351 JUMP JUMPDEST JUMPDEST PUSH2 0x2E92 DUP15 DUP3 DUP16 ADD PUSH2 0x265D JUMP JUMPDEST SWAP12 POP POP PUSH1 0x20 DUP13 ADD CALLDATALOAD PUSH8 0xFFFFFFFFFFFFFFFF DUP2 GT ISZERO PUSH2 0x2EB3 JUMPI PUSH2 0x2EB2 PUSH2 0x2351 JUMP JUMPDEST JUMPDEST PUSH2 0x2EBF DUP15 DUP3 DUP16 ADD PUSH2 0x265D JUMP JUMPDEST SWAP11 POP POP PUSH1 0x40 DUP13 ADD CALLDATALOAD PUSH8 0xFFFFFFFFFFFFFFFF DUP2 GT ISZERO PUSH2 0x2EE0 JUMPI PUSH2 0x2EDF PUSH2 0x2351 JUMP JUMPDEST JUMPDEST PUSH2 0x2EEC DUP15 DUP3 DUP16 ADD PUSH2 0x265D JUMP JUMPDEST SWAP10 POP POP PUSH1 0x60 PUSH2 0x2EFD DUP15 DUP3 DUP16 ADD PUSH2 0x2377 JUMP JUMPDEST SWAP9 POP POP PUSH1 0x80 PUSH2 0x2F0E DUP15 DUP3 DUP16 ADD PUSH2 0x2377 JUMP JUMPDEST SWAP8 POP POP PUSH1 0xA0 PUSH2 0x2F1F DUP15 DUP3 DUP16 ADD PUSH2 0x2377 JUMP JUMPDEST SWAP7 POP POP PUSH1 0xC0 PUSH2 0x2F30 DUP15 DUP3 DUP16 ADD PUSH2 0x2377 JUMP JUMPDEST SWAP6 POP POP PUSH1 0xE0 PUSH2 0x2F41 DUP15 DUP3 DUP16 ADD PUSH2 0x2377 JUMP JUMPDEST SWAP5 POP POP PUSH2 0x100 PUSH2 0x2F53 DUP15 DUP3 DUP16 ADD PUSH2 0x2377 JUMP JUMPDEST SWAP4 POP POP PUSH2 0x120 PUSH2 0x2F65 DUP15 DUP3 DUP16 ADD PUSH2 0x2377 JUMP JUMPDEST SWAP3 POP POP PUSH2 0x140 PUSH2 0x2F77 DUP15 DUP3 DUP16 ADD PUSH2 0x2377 JUMP JUMPDEST SWAP2 POP POP SWAP3 SWAP6 SWAP9 SWAP12 POP SWAP3 SWAP6 SWAP9 SWAP12 SWAP1 SWAP4 SWAP7 SWAP10 POP JUMP JUMPDEST PUSH1 0x0 DUP1 PUSH1 0x0 PUSH1 0x60 DUP5 DUP7 SUB SLT ISZERO PUSH2 0x2FA3 JUMPI PUSH2 0x2FA2 PUSH2 0x234C JUMP JUMPDEST JUMPDEST PUSH1 0x0 PUSH2 0x2FB1 DUP7 DUP3 DUP8 ADD PUSH2 0x2541 JUMP JUMPDEST SWAP4 POP POP PUSH1 0x20 DUP5 ADD CALLDATALOAD PUSH8 0xFFFFFFFFFFFFFFFF DUP2 GT ISZERO PUSH2 0x2FD2 JUMPI PUSH2 0x2FD1 PUSH2 0x2351 JUMP JUMPDEST JUMPDEST PUSH2 0x2FDE DUP7 DUP3 DUP8 ADD PUSH2 0x265D JUMP JUMPDEST SWAP3 POP POP PUSH1 0x40 PUSH2 0x2FEF DUP7 DUP3 DUP8 ADD PUSH2 0x2377 JUMP JUMPDEST SWAP2 POP POP SWAP3 POP SWAP3 POP SWAP3 JUMP JUMPDEST PUSH32 0x4E487B7100000000000000000000000000000000000000000000000000000000 PUSH1 0x0 MSTORE PUSH1 0x22 PUSH1 0x4 MSTORE PUSH1 0x24 PUSH1 0x0 REVERT JUMPDEST PUSH1 0x0 PUSH1 0x2 DUP3 DIV SWAP1 POP PUSH1 0x1 DUP3 AND DUP1 PUSH2 0x3040 JUMPI PUSH1 0x7F DUP3 AND SWAP2 POP JUMPDEST PUSH1 0x20 DUP3 LT DUP2 SUB PUSH2 0x3053 JUMPI PUSH2 0x3052 PUSH2 0x2FF9 JUMP JUMPDEST JUMPDEST POP SWAP2 SWAP1 POP JUMP JUMPDEST PUSH32 0x4E487B7100000000000000000000000000000000000000000000000000000000 PUSH1 0x0 MSTORE PUSH1 0x32 PUSH1 0x4 MSTORE PUSH1 0x24 PUSH1 0x0 REVERT JUMPDEST PUSH1 0x0 DUP2 SWAP1 POP SWAP3 SWAP2 POP POP JUMP JUMPDEST PUSH1 0x0 PUSH2 0x309E DUP3 PUSH2 0x23B9 JUMP JUMPDEST PUSH2 0x30A8 DUP2 DUP6 PUSH2 0x3088 JUMP JUMPDEST SWAP4 POP PUSH2 0x30B8 DUP2 DUP6 PUSH1 0x20 DUP7 ADD PUSH2 0x23D5 JUMP JUMPDEST DUP1 DUP5 ADD SWAP2 POP POP SWAP3 SWAP2 POP POP JUMP JUMPDEST PUSH1 0x0 PUSH2 0x30D0 DUP3 DUP5 PUSH2 0x3093 JUMP JUMPDEST SWAP2 POP DUP2 SWAP1 POP SWAP3 SWAP2 POP POP JUMP JUMPDEST PUSH32 0x4E487B7100000000000000000000000000000000000000000000000000000000 PUSH1 0x0 MSTORE PUSH1 0x11 PUSH1 0x4 MSTORE PUSH1 0x24 PUSH1 0x0 REVERT JUMPDEST PUSH1 0x0 PUSH2 0x3115 DUP3 PUSH2 0x2356 JUMP JUMPDEST SWAP2 POP PUSH32 0xFFFFFFFFFFFFFFFFFFFFFFFFFFFFFFFFFFFFFFFFFFFFFFFFFFFFFFFFFFFFFFFF DUP3 SUB PUSH2 0x3147 JUMPI PUSH2 0x3146 PUSH2 0x30DB JUMP JUMPDEST JUMPDEST PUSH1 0x1 DUP3 ADD SWAP1 POP SWAP2 SWAP1 POP JUMP JUMPDEST PUSH1 0x0 DUP2 SWAP1 POP SWAP3 SWAP2 POP POP JUMP JUMPDEST POP JUMP JUMPDEST PUSH1 0x0 PUSH2 0x316D PUSH1 0x0 DUP4 PUSH2 0x3152 JUMP JUMPDEST SWAP2 POP PUSH2 0x3178 DUP3 PUSH2 0x315D JUMP JUMPDEST PUSH1 0x0 DUP3 ADD SWAP1 POP SWAP2 SWAP1 POP JUMP JUMPDEST PUSH1 0x0 PUSH2 0x318E DUP3 PUSH2 0x3160 JUMP JUMPDEST SWAP2 POP DUP2 SWAP1 POP SWAP2 SWAP1 POP JUMP JUMPDEST PUSH32 0x4661696C656420746F2073656E64204574686572000000000000000000000000 PUSH1 0x0 DUP3 ADD MSTORE POP JUMP JUMPDEST PUSH1 0x0 PUSH2 0x31CE PUSH1 0x14 DUP4 PUSH2 0x23C4 JUMP JUMPDEST SWAP2 POP PUSH2 0x31D9 DUP3 PUSH2 0x3198 JUMP JUMPDEST PUSH1 0x20 DUP3 ADD SWAP1 POP SWAP2 SWAP1 POP JUMP JUMPDEST PUSH1 0x0 PUSH1 0x20 DUP3 ADD SWAP1 POP DUP2 DUP2 SUB PUSH1 0x0 DUP4 ADD MSTORE PUSH2 0x31FD DUP2 PUSH2 0x31C1 JUMP JUMPDEST SWAP1 POP SWAP2 SWAP1 POP JUMP JUMPDEST PUSH1 0x0 DUP2 SWAP1 POP DUP2 PUSH1 0x0 MSTORE PUSH1 0x20 PUSH1 0x0 KECCAK256 SWAP1 POP SWAP2 SWAP1 POP JUMP JUMPDEST PUSH1 0x0 PUSH1 0x20 PUSH1 0x1F DUP4 ADD DIV SWAP1 POP SWAP2 SWAP1 POP JUMP JUMPDEST PUSH1 0x0 DUP3 DUP3 SHL SWAP1 POP SWAP3 SWAP2 POP POP JUMP JUMPDEST PUSH1 0x0 PUSH1 0x8 DUP4 MUL PUSH2 0x3266 PUSH32 0xFFFFFFFFFFFFFFFFFFFFFFFFFFFFFFFFFFFFFFFFFFFFFFFFFFFFFFFFFFFFFFFF DUP3 PUSH2 0x3229 JUMP JUMPDEST PUSH2 0x3270 DUP7 DUP4 PUSH2 0x3229 JUMP JUMPDEST SWAP6 POP DUP1 NOT DUP5 AND SWAP4 POP DUP1 DUP7 AND DUP5 OR SWAP3 POP POP POP SWAP4 SWAP3 POP POP POP JUMP JUMPDEST PUSH1 0x0 DUP2 SWAP1 POP SWAP2 SWAP1 POP JUMP JUMPDEST PUSH1 0x0 PUSH2 0x32AD PUSH2 0x32A8 PUSH2 0x32A3 DUP5 PUSH2 0x2356 JUMP JUMPDEST PUSH2 0x3288 JUMP JUMPDEST PUSH2 0x2356 JUMP JUMPDEST SWAP1 POP SWAP2 SWAP1 POP JUMP JUMPDEST PUSH1 0x0 DUP2 SWAP1 POP SWAP2 SWAP1 POP JUMP JUMPDEST PUSH2 0x32C7 DUP4 PUSH2 0x3292 JUMP JUMPDEST PUSH2 0x32DB PUSH2 0x32D3 DUP3 PUSH2 0x32B4 JUMP JUMPDEST DUP5 DUP5 SLOAD PUSH2 0x3236 JUMP JUMPDEST DUP3 SSTORE POP POP POP POP JUMP JUMPDEST PUSH1 0x0 SWAP1 JUMP JUMPDEST PUSH2 0x32F0 PUSH2 0x32E3 JUMP JUMPDEST PUSH2 0x32FB DUP2 DUP5 DUP5 PUSH2 0x32BE JUMP JUMPDEST POP POP POP JUMP JUMPDEST JUMPDEST DUP2 DUP2 LT ISZERO PUSH2 0x331F JUMPI PUSH2 0x3314 PUSH1 0x0 DUP3 PUSH2 0x32E8 JUMP JUMPDEST PUSH1 0x1 DUP2 ADD SWAP1 POP PUSH2 0x3301 JUMP JUMPDEST POP POP JUMP JUMPDEST PUSH1 0x1F DUP3 GT ISZERO PUSH2 0x3364 JUMPI PUSH2 0x3335 DUP2 PUSH2 0x3204 JUMP JUMPDEST PUSH2 0x333E DUP5 PUSH2 0x3219 JUMP JUMPDEST DUP2 ADD PUSH1 0x20 DUP6 LT ISZERO PUSH2 0x334D JUMPI DUP2 SWAP1 POP JUMPDEST PUSH2 0x3361 PUSH2 0x3359 DUP6 PUSH2 0x3219 JUMP JUMPDEST DUP4 ADD DUP3 PUSH2 0x3300 JUMP JUMPDEST POP POP JUMPDEST POP POP POP JUMP JUMPDEST PUSH1 0x0 DUP3 DUP3 SHR SWAP1 POP SWAP3 SWAP2 POP POP JUMP JUMPDEST PUSH1 0x0 PUSH2 0x3387 PUSH1 0x0 NOT DUP5 PUSH1 0x8 MUL PUSH2 0x3369 JUMP JUMPDEST NOT DUP1 DUP4 AND SWAP2 POP POP SWAP3 SWAP2 POP POP JUMP JUMPDEST PUSH1 0x0 PUSH2 0x33A0 DUP4 DUP4 PUSH2 0x3376 JUMP JUMPDEST SWAP2 POP DUP3 PUSH1 0x2 MUL DUP3 OR SWAP1 POP SWAP3 SWAP2 POP POP JUMP JUMPDEST PUSH2 0x33B9 DUP3 PUSH2 0x23B9 JUMP JUMPDEST PUSH8 0xFFFFFFFFFFFFFFFF DUP2 GT ISZERO PUSH2 0x33D2 JUMPI PUSH2 0x33D1 PUSH2 0x2560 JUMP JUMPDEST JUMPDEST PUSH2 0x33DC DUP3 SLOAD PUSH2 0x3028 JUMP JUMPDEST PUSH2 0x33E7 DUP3 DUP3 DUP6 PUSH2 0x3323 JUMP JUMPDEST PUSH1 0x0 PUSH1 0x20 SWAP1 POP PUSH1 0x1F DUP4 GT PUSH1 0x1 DUP2 EQ PUSH2 0x341A JUMPI PUSH1 0x0 DUP5 ISZERO PUSH2 0x3408 JUMPI DUP3 DUP8 ADD MLOAD SWAP1 POP JUMPDEST PUSH2 0x3412 DUP6 DUP3 PUSH2 0x3394 JUMP JUMPDEST DUP7 SSTORE POP PUSH2 0x347A JUMP JUMPDEST PUSH1 0x1F NOT DUP5 AND PUSH2 0x3428 DUP7 PUSH2 0x3204 JUMP JUMPDEST PUSH1 0x0 JUMPDEST DUP3 DUP2 LT ISZERO PUSH2 0x3450 JUMPI DUP5 DUP10 ADD MLOAD DUP3 SSTORE PUSH1 0x1 DUP3 ADD SWAP2 POP PUSH1 0x20 DUP6 ADD SWAP5 POP PUSH1 0x20 DUP2 ADD SWAP1 POP PUSH2 0x342B JUMP JUMPDEST DUP7 DUP4 LT ISZERO PUSH2 0x346D JUMPI DUP5 DUP10 ADD MLOAD PUSH2 0x3469 PUSH1 0x1F DUP10 AND DUP3 PUSH2 0x3376 JUMP JUMPDEST DUP4 SSTORE POP JUMPDEST PUSH1 0x1 PUSH1 0x2 DUP9 MUL ADD DUP9 SSTORE POP POP POP JUMPDEST POP POP POP POP POP POP JUMP JUMPDEST PUSH1 0x0 PUSH2 0x348D DUP3 PUSH2 0x2356 JUMP JUMPDEST SWAP2 POP PUSH2 0x3498 DUP4 PUSH2 0x2356 JUMP JUMPDEST SWAP3 POP DUP3 DUP3 SUB SWAP1 POP DUP2 DUP2 GT ISZERO PUSH2 0x34B0 JUMPI PUSH2 0x34AF PUSH2 0x30DB JUMP JUMPDEST JUMPDEST SWAP3 SWAP2 POP POP JUMP JUMPDEST PUSH1 0x0 PUSH2 0x34C1 DUP3 PUSH2 0x2356 JUMP JUMPDEST SWAP2 POP PUSH2 0x34CC DUP4 PUSH2 0x2356 JUMP JUMPDEST SWAP3 POP DUP3 DUP3 ADD SWAP1 POP DUP1 DUP3 GT ISZERO PUSH2 0x34E4 JUMPI PUSH2 0x34E3 PUSH2 0x30DB JUMP JUMPDEST JUMPDEST SWAP3 SWAP2 POP POP JUMP INVALID LOG2 PUSH5 0x6970667358 0x22 SLT KECCAK256 0xD7 PUSH12 0x540CE6903560E566D5748568 PUSH12 0x213D83B79C35471022ADAB5C SWAP1 0x4C CODECOPY PUSH28 0x8164736F6C6343000811003300000000000000000000000000000000 "},"gasEstimates":{"creation":{"codeDepositCost":"2720000","executionCost":"2953","totalCost":"2722953"},"external":{"balance()":"361","bank(address)":"2837","billingHistory(uint256)":"infinite","dataSummaryExists(string,string)":"infinite","dataSummaryTable(address,string,address)":"infinite","deposit()":"infinite","fetchBillingHistory()":"infinite","fetchUserDataSummary(string)":"infinite","operatorAddresses(uint256)":"5045","operatorsAddrToName(address)":"infinite","operatorsNameToAddr(string)":"infinite","registerRoamingOperator(address,string,uint256)":"infinite","serviceProviders(uint256)":"infinite","totalDeposit()":"2517","transfer(address,uint256)":"infinite","uploadUserDataSummary(string,string,string,uint256,uint256,uint256,uint256,uint256,uint256,uint256,uint256)":"infinite","userTable(address,uint256)":"infinite"}},"methodIdentifiers":{"balance()":"b69ef8a8","bank(address)":"529a1baf","billingHistory(uint256)":"0cb31a80","dataSummaryExists(string,string)":"ab6a9f17","dataSummaryTable(address,string,address)":"32f97763","deposit()":"d0e30db0","fetchBillingHistory()":"44c5c6a5","fetchUserDataSummary(string)":"a8367070","operatorAddresses(uint256)":"7792a035","operatorsAddrToName(address)":"64aa65a8","operatorsNameToAddr(string)":"fd70c7dd","registerRoamingOperator(address,string,uint256)":"bdc6ab03","serviceProviders(uint256)":"0a02dcc7","totalDeposit()":"f6153ccd","transfer(address,uint256)":"a9059cbb","uploadUserDataSummary(string,string,string,uint256,uint256,uint256,uint256,uint256,uint256,uint256,uint256)":"b205b4f6","userTable(address,uint256)":"6e6061d1"}},"storageLayout":{"storage":[{"astId":4,"contract":"RoamingDataManagement.sol:RoamingDataManagement","label":"serviceProviders","offset":0,"slot":"0","type":"t_array(t_string_storage)dyn_storage"},{"astId":7,"contract":"RoamingDataManagement.sol:RoamingDataManagement","label":"operatorAddresses","offset":0,"slot":"1","type":"t_array(t_address)dyn_storage"},{"astId":11,"contract":"RoamingDataManagement.sol:RoamingDataManagement","label":"operatorsAddrToName","offset":0,"slot":"2","type":"t_mapping(t_address,t_string_storage)"},{"astId":15,"contract":"RoamingDataManagement.sol:RoamingDataManagement","label":"operatorsNameToAddr","offset":0,"slot":"3","type":"t_mapping(t_string_memory_ptr,t_address)"},{"astId":17,"contract":"RoamingDataManagement.sol:RoamingDataManagement","label":"totalDeposit","offset":0,"slot":"4","type":"t_uint256"},{"astId":55,"contract":"RoamingDataManagement.sol:RoamingDataManagement","label":"billingHistory","offset":0,"slot":"5","type":"t_array(t_struct(BillingRecord)51_storage)dyn_storage"},{"astId":60,"contract":"RoamingDataManagement.sol:RoamingDataManagement","label":"userTable","offset":0,"slot":"6","type":"t_mapping(t_address,t_array(t_string_storage)dyn_storage)"},{"astId":69,"contract":"RoamingDataManagement.sol:RoamingDataManagement","label":"dataSummaryTable","offset":0,"slot":"7","type":"t_mapping(t_address,t_mapping(t_string_memory_ptr,t_mapping(t_address,t_struct(UserDataSummary)38_storage)))"},{"astId":75,"contract":"RoamingDataManagement.sol:RoamingDataManagement","label":"numOfUserDataEntries","offset":0,"slot":"8","type":"t_mapping(t_address,t_mapping(t_string_memory_ptr,t_uint256))"},{"astId":79,"contract":"RoamingDataManagement.sol:RoamingDataManagement","label":"bank","offset":0,"slot":"9","type":"t_mapping(t_address,t_uint256)"}],"types":{"t_address":{"encoding":"inplace","label":"address","numberOfBytes":"20"},"t_array(t_address)dyn_storage":{"base":"t_address","encoding":"dynamic_array","label":"address[]","numberOfBytes":"32"},"t_array(t_string_storage)dyn_storage":{"base":"t_string_storage","encoding":"dynamic_array","label":"string[]","numberOfBytes":"32"},"t_array(t_struct(BillingRecord)51_storage)dyn_storage":{"base":"t_struct(BillingRecord)51_storage","encoding":"dynamic_array","label":"struct RoamingDataManagement.BillingRecord[]","numberOfBytes":"32"},"t_mapping(t_address,t_array(t_string_storage)dyn_storage)":{"encoding":"mapping","key":"t_address","label":"mapping(address => string[])","numberOfBytes":"32","value":"t_array(t_string_storage)dyn_storage"},"t_mapping(t_address,t_mapping(t_string_memory_ptr,t_mapping(t_address,t_struct(UserDataSummary)38_storage)))":{"encoding":"mapping","key":"t_address","label":"mapping(address => mapping(string => mapping(address => struct RoamingDataManagement.UserDataSummary)))","numberOfBytes":"32","value":"t_mapping(t_string_memory_ptr,t_mapping(t_address,t_struct(UserDataSummary)38_storage))"},"t_mapping(t_address,t_mapping(t_string_memory_ptr,t_uint256))":{"encoding":"mapping","key":"t_address","label":"mapping(address => mapping(string => uint256))","numberOfBytes":"32","value":"t_mapping(t_string_memory_ptr,t_uint256)"},"t_mapping(t_address,t_string_storage)":{"encoding":"mapping","key":"t_address","label":"mapping(address => string)","numberOfBytes":"32","value":"t_string_storage"},"t_mapping(t_address,t_struct(UserDataSummary)38_storage)":{"encoding":"mapping","key":"t_address","label":"mapping(address => struct RoamingDataManagement.UserDataSummary)","numberOfBytes":"32","value":"t_struct(UserDataSummary)38_storage"},"t_mapping(t_address,t_uint256)":{"encoding":"mapping","key":"t_address","label":"mapping(address => uint256)","numberOfBytes":"32","value":"t_uint256"},"t_mapping(t_string_memory_ptr,t_address)":{"encoding":"mapping","key":"t_string_memory_ptr","label":"mapping(string => address)","numberOfBytes":"32","value":"t_address"},"t_mapping(t_string_memory_ptr,t_mapping(t_address,t_struct(UserDataSummary)38_storage))":{"encoding":"mapping","key":"t_string_memory_ptr","label":"mapping(string => mapping(address => struct RoamingDataManagement.UserDataSummary))","numberOfBytes":"32","value":"t_mapping(t_address,t_struct(UserDataSummary)38_storage)"},"t_mapping(t_string_memory_ptr,t_uint256)":{"encoding":"mapping","key":"t_string_memory_ptr","label":"mapping(string => uint256)","numberOfBytes":"32","value":"t_uint256"},"t_string_memory_ptr":{"encoding":"bytes","label":"string","numberOfBytes":"32"},"t_string_storage":{"encoding":"bytes","label":"string","numberOfBytes":"32"},"t_struct(BillingRecord)51_storage":{"encoding":"inplace","label":"struct RoamingDataManagement.BillingRecord","members":[{"astId":40,"contract":"RoamingDataManagement.sol:RoamingDataManagement","label":"payer","offset":0,"slot":"0","type":"t_address"},{"astId":42,"contract":"RoamingDataManagement.sol:RoamingDataManagement","label":"payee","offset":0,"slot":"1","type":"t_address"},{"astId":44,"contract":"RoamingDataManagement.sol:RoamingDataManagement","label":"payerName","offset":0,"slot":"2","type":"t_string_storage"},{"astId":46,"contract":"RoamingDataManagement.sol:RoamingDataManagement","label":"payeeName","offset":0,"slot":"3","type":"t_string_storage"},{"astId":48,"contract":"RoamingDataManagement.sol:RoamingDataManagement","label":"amount","offset":0,"slot":"4","type":"t_uint256"},{"astId":50,"contract":"RoamingDataManagement.sol:RoamingDataManagement","label":"timestamp","offset":0,"slot":"5","type":"t_uint256"}],"numberOfBytes":"192"},"t_struct(UserDataSummary)38_storage":{"encoding":"inplace","label":"struct RoamingDataManagement.UserDataSummary","members":[{"astId":19,"contract":"RoamingDataManagement.sol:RoamingDataManagement","label":"imsi","offset":0,"slot":"0","type":"t_string_storage"},{"astId":21,"contract":"RoamingDataManagement.sol:RoamingDataManagement","label":"number","offset":0,"slot":"1","type":"t_string_storage"},{"astId":23,"contract":"RoamingDataManagement.sol:RoamingDataManagement","label":"serviceProvider","offset":0,"slot":"2","type":"t_string_storage"},{"astId":25,"contract":"RoamingDataManagement.sol:RoamingDataManagement","label":"serviceStartTime","offset":0,"slot":"3","type":"t_uint256"},{"astId":27,"contract":"RoamingDataManagement.sol:RoamingDataManagement","label":"voiceCallStartTime","offset":0,"slot":"4","type":"t_uint256"},{"astId":29,"contract":"RoamingDataManagement.sol:RoamingDataManagement","label":"smsStartTime","offset":0,"slot":"5","type":"t_uint256"},{"astId":31,"contract":"RoamingDataManagement.sol:RoamingDataManagement","label":"internetStartTime","offset":0,"slot":"6","type":"t_uint256"},{"astId":33,"contract":"RoamingDataManagement.sol:RoamingDataManagement","label":"voiceCallUsage","offset":0,"slot":"7","type":"t_uint256"},{"astId":35,"contract":"RoamingDataManagement.sol:RoamingDataManagement","label":"internetUsage","offset":0,"slot":"8","type":"t_uint256"},{"astId":37,"contract":"RoamingDataManagement.sol:RoamingDataManagement","label":"smsUsage","offset":0,"slot":"9","type":"t_uint256"}],"numberOfBytes":"320"},"t_uint256":{"encoding":"inplace","label":"uint256","numberOfBytes":"32"}}},"userdoc":{"kind":"user","methods":{},"version":1}}