{"abi":[{"inputs":[],"stateMutability":"nonpayable","type":"constructor"},{"inputs":[],"name":"balance","outputs":[{"internalType":"uint256","name":"","type":"uint256"}],"stateMutability":"view","type":"function"},{"inputs":[{"internalType":"address","name":"","type":"address"}],"name":"bank","outputs":[{"internalType":"uint256","name":"","type":"uint256"}],"stateMutability":"view","type":"function"},{"inputs":[{"internalType":"uint256","name":"","type":"uint256"}],"name":"billingHistory","outputs":[{"internalType":"address","name":"payer","type":"address"},{"internalType":"address","name":"payee","type":"address"},{"internalType":"string","name":"payerName","type":"string"},{"internalType":"string","name":"payeeName","type":"string"},{"internalType":"uint256","name":"amount","type":"uint256"},{"internalType":"uint256","name":"timestamp","type":"uint256"}],"stateMutability":"view","type":"function"},{"inputs":[{"internalType":"string","name":"imsi","type":"string"},{"internalType":"string","name":"homeOperator","type":"string"}],"name":"dataSummaryExists","outputs":[{"internalType":"bool","name":"","type":"bool"}],"stateMutability":"view","type":"function"},{"inputs":[{"internalType":"address","name":"","type":"address"},{"internalType":"string","name":"","type":"string"},{"internalType":"address","name":"","type":"address"}],"name":"dataSummaryTable","outputs":[{"internalType":"string","name":"imsi","type":"string"},{"internalType":"string","name":"number","type":"string"},{"internalType":"string","name":"serviceProvider","type":"string"},{"internalType":"uint256","name":"serviceStartTime","type":"uint256"},{"internalType":"uint256","name":"voiceCallStartTime","type":"uint256"},{"internalType":"uint256","name":"smsStartTime","type":"uint256"},{"internalType":"uint256","name":"internetStartTime","type":"uint256"},{"internalType":"uint256","name":"voiceCallUsage","type":"uint256"},{"internalType":"uint256","name":"internetUsage","type":"uint256"},{"internalType":"uint256","name":"smsUsage","type":"uint256"}],"stateMutability":"view","type":"function"},{"inputs":[],"name":"deposit","outputs":[],"stateMutability":"payable","type":"function"},{"inputs":[],"name":"fetchBillingHistory","outputs":[{"components":[{"internalType":"address","name":"payer","type":"address"},{"internalType":"address","name":"payee","type":"address"},{"internalType":"string","name":"payerName","type":"string"},{"internalType":"string","name":"payeeName","type":"string"},{"internalType":"uint256","name":"amount","type":"uint256"},{"internalType":"uint256","name":"timestamp","type":"uint256"}],"internalType":"struct RoamingDataManagement.BillingRecord[]","name":"","type":"tuple[]"}],"stateMutability":"view","type":"function"},{"inputs":[{"internalType":"string","name":"visitingOperatorName","type":"string"},{"internalType":"string","name":"secretKey","type":"string"}],"name":"fetchUserDataSummary","outputs":[{"internalType":"string[]","name":"","type":"string[]"},{"components":[{"internalType":"string","name":"imsi","type":"string"},{"internalType":"string","name":"number","type":"string"},{"internalType":"string","name":"serviceProvider","type":"string"},{"internalType":"uint256","name":"serviceStartTime","type":"uint256"},{"internalType":"uint256","name":"voiceCallStartTime","type":"uint256"},{"internalType":"uint256","name":"smsStartTime","type":"uint256"},{"internalType":"uint256","name":"internetStartTime","type":"uint256"},{"internalType":"uint256","name":"voiceCallUsage","type":"uint256"},{"internalType":"uint256","name":"internetUsage","type":"uint256"},{"internalType":"uint256","name":"smsUsage","type":"uint256"}],"internalType":"struct RoamingDataManagement.UserDataSummary[]","name":"","type":"tuple[]"}],"stateMutability":"view","type":"function"},{"inputs":[{"internalType":"uint256","name":"","type":"uint256"}],"name":"operatorAddresses","outputs":[{"internalType":"address","name":"","type":"address"}],"stateMutability":"view","type":"function"},{"inputs":[{"internalType":"address","name":"","type":"address"}],"name":"operatorSecretKeys","outputs":[{"internalType":"string","name":"","type":"string"}],"stateMutability":"view","type":"function"},{"inputs":[{"internalType":"address","name":"","type":"address"}],"name":"operatorsAddrToName","outputs":[{"internalType":"string","name":"","type":"string"}],"stateMutability":"view","type":"function"},{"inputs":[{"internalType":"string","name":"","type":"string"}],"name":"operatorsNameToAddr","outputs":[{"internalType":"address","name":"","type":"address"}],"stateMutability":"view","type":"function"},{"inputs":[{"internalType":"address","name":"operatorAddr","type":"address"},{"internalType":"string","name":"operatorName","type":"string"},{"internalType":"uint256","name":"currentTimestamp","type":"uint256"},{"internalType":"string","name":"secretKey","type":"string"}],"name":"registerRoamingOperator","outputs":[],"stateMutability":"payable","type":"function"},{"inputs":[{"internalType":"uint256","name":"","type":"uint256"}],"name":"serviceProviders","outputs":[{"internalType":"string","name":"","type":"string"}],"stateMutability":"view","type":"function"},{"inputs":[],"name":"totalDeposit","outputs":[{"internalType":"uint256","name":"","type":"uint256"}],"stateMutability":"view","type":"function"},{"inputs":[{"internalType":"address payable","name":"_to","type":"address"},{"internalType":"uint256","name":"_amount","type":"uint256"}],"name":"transfer","outputs":[],"stateMutability":"nonpayable","type":"function"},{"inputs":[{"internalType":"address","name":"addr","type":"address"},{"internalType":"string","name":"secretKey","type":"string"}],"name":"uploadSecretKey","outputs":[],"stateMutability":"nonpayable","type":"function"},{"inputs":[{"internalType":"string","name":"imsi","type":"string"},{"internalType":"string","name":"number","type":"string"},{"internalType":"string","name":"serviceProvider","type":"string"},{"internalType":"uint256","name":"voiceCallUsage","type":"uint256"},{"internalType":"uint256","name":"internetUsage","type":"uint256"},{"internalType":"uint256","name":"smsUsage","type":"uint256"},{"internalType":"uint256","name":"serviceStartTime","type":"uint256"},{"internalType":"uint256","name":"internetStartTime","type":"uint256"},{"internalType":"uint256","name":"voiceCallStartTime","type":"uint256"},{"internalType":"uint256","name":"smsStartTime","type":"uint256"},{"internalType":"uint256","name":"currentTimestamp","type":"uint256"}],"name":"uploadUserDataSummary","outputs":[],"stateMutability":"nonpayable","type":"function"},{"inputs":[{"internalType":"address","name":"","type":"address"},{"internalType":"uint256","name":"","type":"uint256"}],"name":"userTable","outputs":[{"internalType":"string","name":"","type":"string"}],"stateMutability":"view","type":"function"},{"stateMutability":"payable","type":"receive"}],"devdoc":{"kind":"dev","methods":{},"version":1},"evm":{"assembly":"    /* \"RoamingDataManagement.sol\":57:7459  contract RoamingDataManagement {... */\n  mstore(0x40, 0x80)\n    /* \"RoamingDataManagement.sol\":1638:1660  constructor() {... */\n  callvalue\n  dup1\n  iszero\n  tag_1\n  jumpi\n  0x00\n  dup1\n  revert\ntag_1:\n  pop\n    /* \"RoamingDataManagement.sol\":57:7459  contract RoamingDataManagement {... */\n  dataSize(sub_0)\n  dup1\n  dataOffset(sub_0)\n  0x00\n  codecopy\n  0x00\n  return\nstop\n\nsub_0: assembly {\n        /* \"RoamingDataManagement.sol\":57:7459  contract RoamingDataManagement {... */\n      mstore(0x40, 0x80)\n      jumpi(tag_1, lt(calldatasize, 0x04))\n      shr(0xe0, calldataload(0x00))\n      dup1\n      0x7792a035\n      gt\n      tag_22\n      jumpi\n      dup1\n      0xca611ffa\n      gt\n      tag_23\n      jumpi\n      dup1\n      0xca611ffa\n      eq\n      tag_17\n      jumpi\n      dup1\n      0xd0e30db0\n      eq\n      tag_18\n      jumpi\n      dup1\n      0xf6153ccd\n      eq\n      tag_19\n      jumpi\n      dup1\n      0xfd70c7dd\n      eq\n      tag_20\n      jumpi\n      dup1\n      0xfea2fee9\n      eq\n      tag_21\n      jumpi\n      jump(tag_2)\n    tag_23:\n      dup1\n      0x7792a035\n      eq\n      tag_12\n      jumpi\n      dup1\n      0xa9059cbb\n      eq\n      tag_13\n      jumpi\n      dup1\n      0xab6a9f17\n      eq\n      tag_14\n      jumpi\n      dup1\n      0xb205b4f6\n      eq\n      tag_15\n      jumpi\n      dup1\n      0xb69ef8a8\n      eq\n      tag_16\n      jumpi\n      jump(tag_2)\n    tag_22:\n      dup1\n      0x44c5c6a5\n      gt\n      tag_24\n      jumpi\n      dup1\n      0x44c5c6a5\n      eq\n      tag_7\n      jumpi\n      dup1\n      0x529a1baf\n      eq\n      tag_8\n      jumpi\n      dup1\n      0x5e7d7faa\n      eq\n      tag_9\n      jumpi\n      dup1\n      0x64aa65a8\n      eq\n      tag_10\n      jumpi\n      dup1\n      0x6e6061d1\n      eq\n      tag_11\n      jumpi\n      jump(tag_2)\n    tag_24:\n      dup1\n      0x0a02dcc7\n      eq\n      tag_3\n      jumpi\n      dup1\n      0x0cb31a80\n      eq\n      tag_4\n      jumpi\n      dup1\n      0x1889da0a\n      eq\n      tag_5\n      jumpi\n      dup1\n      0x32f97763\n      eq\n      tag_6\n      jumpi\n      jump(tag_2)\n    tag_1:\n      jumpi(tag_2, calldatasize)\n        /* \"RoamingDataManagement.sol\":1810:1816  1 gwei */\n      0x3b9aca00\n        /* \"RoamingDataManagement.sol\":1797:1806  msg.value */\n      callvalue\n        /* \"RoamingDataManagement.sol\":1797:1816  msg.value >= 1 gwei */\n      lt\n      iszero\n        /* \"RoamingDataManagement.sol\":1789:1817  require(msg.value >= 1 gwei) */\n      tag_27\n      jumpi\n      0x00\n      dup1\n      revert\n    tag_27:\n        /* \"RoamingDataManagement.sol\":57:7459  contract RoamingDataManagement {... */\n      stop\n    tag_2:\n      0x00\n      dup1\n      revert\n        /* \"RoamingDataManagement.sol\":197:229  string[] public serviceProviders */\n    tag_3:\n      callvalue\n      dup1\n      iszero\n      tag_28\n      jumpi\n      0x00\n      dup1\n      revert\n    tag_28:\n      pop\n      tag_29\n      0x04\n      dup1\n      calldatasize\n      sub\n      dup2\n      add\n      swap1\n      tag_30\n      swap2\n      swap1\n      tag_31\n      jump\t// in\n    tag_30:\n      tag_32\n      jump\t// in\n    tag_29:\n      mload(0x40)\n      tag_33\n      swap2\n      swap1\n      tag_34\n      jump\t// in\n    tag_33:\n      mload(0x40)\n      dup1\n      swap2\n      sub\n      swap1\n      return\n        /* \"RoamingDataManagement.sol\":1010:1047  BillingRecord[] public billingHistory */\n    tag_4:\n      callvalue\n      dup1\n      iszero\n      tag_35\n      jumpi\n      0x00\n      dup1\n      revert\n    tag_35:\n      pop\n      tag_36\n      0x04\n      dup1\n      calldatasize\n      sub\n      dup2\n      add\n      swap1\n      tag_37\n      swap2\n      swap1\n      tag_31\n      jump\t// in\n    tag_37:\n      tag_38\n      jump\t// in\n    tag_36:\n      mload(0x40)\n      tag_39\n      swap7\n      swap6\n      swap5\n      swap4\n      swap3\n      swap2\n      swap1\n      tag_40\n      jump\t// in\n    tag_39:\n      mload(0x40)\n      dup1\n      swap2\n      sub\n      swap1\n      return\n        /* \"RoamingDataManagement.sol\":6052:6891  function fetchUserDataSummary(string memory visitingOperatorName, string memory secretKey) public view returns(string[] memory, UserDataSummary[] memory) {... */\n    tag_5:\n      callvalue\n      dup1\n      iszero\n      tag_41\n      jumpi\n      0x00\n      dup1\n      revert\n    tag_41:\n      pop\n      tag_42\n      0x04\n      dup1\n      calldatasize\n      sub\n      dup2\n      add\n      swap1\n      tag_43\n      swap2\n      swap1\n      tag_44\n      jump\t// in\n    tag_43:\n      tag_45\n      jump\t// in\n    tag_42:\n      mload(0x40)\n      tag_46\n      swap3\n      swap2\n      swap1\n      tag_47\n      jump\t// in\n    tag_46:\n      mload(0x40)\n      dup1\n      swap2\n      sub\n      swap1\n      return\n        /* \"RoamingDataManagement.sol\":1418:1516  mapping(address => mapping(string => mapping(address => UserDataSummary))) public dataSummaryTable */\n    tag_6:\n      callvalue\n      dup1\n      iszero\n      tag_48\n      jumpi\n      0x00\n      dup1\n      revert\n    tag_48:\n      pop\n      tag_49\n      0x04\n      dup1\n      calldatasize\n      sub\n      dup2\n      add\n      swap1\n      tag_50\n      swap2\n      swap1\n      tag_51\n      jump\t// in\n    tag_50:\n      tag_52\n      jump\t// in\n    tag_49:\n      mload(0x40)\n      tag_53\n      swap11\n      swap10\n      swap9\n      swap8\n      swap7\n      swap6\n      swap5\n      swap4\n      swap3\n      swap2\n      swap1\n      tag_54\n      jump\t// in\n    tag_53:\n      mload(0x40)\n      dup1\n      swap2\n      sub\n      swap1\n      return\n        /* \"RoamingDataManagement.sol\":6897:7010  function fetchBillingHistory() public view returns(BillingRecord[] memory) {... */\n    tag_7:\n      callvalue\n      dup1\n      iszero\n      tag_55\n      jumpi\n      0x00\n      dup1\n      revert\n    tag_55:\n      pop\n      tag_56\n      tag_57\n      jump\t// in\n    tag_56:\n      mload(0x40)\n      tag_58\n      swap2\n      swap1\n      tag_59\n      jump\t// in\n    tag_58:\n      mload(0x40)\n      dup1\n      swap2\n      sub\n      swap1\n      return\n        /* \"RoamingDataManagement.sol\":1592:1631  mapping(address => uint256) public bank */\n    tag_8:\n      callvalue\n      dup1\n      iszero\n      tag_60\n      jumpi\n      0x00\n      dup1\n      revert\n    tag_60:\n      pop\n      tag_61\n      0x04\n      dup1\n      calldatasize\n      sub\n      dup2\n      add\n      swap1\n      tag_62\n      swap2\n      swap1\n      tag_63\n      jump\t// in\n    tag_62:\n      tag_64\n      jump\t// in\n    tag_61:\n      mload(0x40)\n      tag_65\n      swap2\n      swap1\n      tag_66\n      jump\t// in\n    tag_65:\n      mload(0x40)\n      dup1\n      swap2\n      sub\n      swap1\n      return\n        /* \"RoamingDataManagement.sol\":7016:7202  function uploadSecretKey(address addr, string memory secretKey) public {... */\n    tag_9:\n      callvalue\n      dup1\n      iszero\n      tag_67\n      jumpi\n      0x00\n      dup1\n      revert\n    tag_67:\n      pop\n      tag_68\n      0x04\n      dup1\n      calldatasize\n      sub\n      dup2\n      add\n      swap1\n      tag_69\n      swap2\n      swap1\n      tag_70\n      jump\t// in\n    tag_69:\n      tag_71\n      jump\t// in\n    tag_68:\n      stop\n        /* \"RoamingDataManagement.sol\":276:329  mapping(address => string) public operatorsAddrToName */\n    tag_10:\n      callvalue\n      dup1\n      iszero\n      tag_72\n      jumpi\n      0x00\n      dup1\n      revert\n    tag_72:\n      pop\n      tag_73\n      0x04\n      dup1\n      calldatasize\n      sub\n      dup2\n      add\n      swap1\n      tag_74\n      swap2\n      swap1\n      tag_63\n      jump\t// in\n    tag_74:\n      tag_75\n      jump\t// in\n    tag_73:\n      mload(0x40)\n      tag_76\n      swap2\n      swap1\n      tag_34\n      jump\t// in\n    tag_76:\n      mload(0x40)\n      dup1\n      swap2\n      sub\n      swap1\n      return\n        /* \"RoamingDataManagement.sol\":1140:1185  mapping(address => string[]) public userTable */\n    tag_11:\n      callvalue\n      dup1\n      iszero\n      tag_77\n      jumpi\n      0x00\n      dup1\n      revert\n    tag_77:\n      pop\n      tag_78\n      0x04\n      dup1\n      calldatasize\n      sub\n      dup2\n      add\n      swap1\n      tag_79\n      swap2\n      swap1\n      tag_80\n      jump\t// in\n    tag_79:\n      tag_81\n      jump\t// in\n    tag_78:\n      mload(0x40)\n      tag_82\n      swap2\n      swap1\n      tag_34\n      jump\t// in\n    tag_82:\n      mload(0x40)\n      dup1\n      swap2\n      sub\n      swap1\n      return\n        /* \"RoamingDataManagement.sol\":235:269  address[] public operatorAddresses */\n    tag_12:\n      callvalue\n      dup1\n      iszero\n      tag_83\n      jumpi\n      0x00\n      dup1\n      revert\n    tag_83:\n      pop\n      tag_84\n      0x04\n      dup1\n      calldatasize\n      sub\n      dup2\n      add\n      swap1\n      tag_85\n      swap2\n      swap1\n      tag_31\n      jump\t// in\n    tag_85:\n      tag_86\n      jump\t// in\n    tag_84:\n      mload(0x40)\n      tag_87\n      swap2\n      swap1\n      tag_88\n      jump\t// in\n    tag_87:\n      mload(0x40)\n      dup1\n      swap2\n      sub\n      swap1\n      return\n        /* \"RoamingDataManagement.sol\":7283:7457  function transfer(address payable _to, uint _amount) public {... */\n    tag_13:\n      callvalue\n      dup1\n      iszero\n      tag_89\n      jumpi\n      0x00\n      dup1\n      revert\n    tag_89:\n      pop\n      tag_90\n      0x04\n      dup1\n      calldatasize\n      sub\n      dup2\n      add\n      swap1\n      tag_91\n      swap2\n      swap1\n      tag_92\n      jump\t// in\n    tag_91:\n      tag_93\n      jump\t// in\n    tag_90:\n      stop\n        /* \"RoamingDataManagement.sol\":5726:5920  function dataSummaryExists(string memory imsi, string memory homeOperator) public view returns(bool) {... */\n    tag_14:\n      callvalue\n      dup1\n      iszero\n      tag_94\n      jumpi\n      0x00\n      dup1\n      revert\n    tag_94:\n      pop\n      tag_95\n      0x04\n      dup1\n      calldatasize\n      sub\n      dup2\n      add\n      swap1\n      tag_96\n      swap2\n      swap1\n      tag_44\n      jump\t// in\n    tag_96:\n      tag_97\n      jump\t// in\n    tag_95:\n      mload(0x40)\n      tag_98\n      swap2\n      swap1\n      tag_99\n      jump\t// in\n    tag_98:\n      mload(0x40)\n      dup1\n      swap2\n      sub\n      swap1\n      return\n        /* \"RoamingDataManagement.sol\":3157:5720  function uploadUserDataSummary(string memory imsi, string memory number, string memory serviceProvider,... */\n    tag_15:\n      callvalue\n      dup1\n      iszero\n      tag_100\n      jumpi\n      0x00\n      dup1\n      revert\n    tag_100:\n      pop\n      tag_101\n      0x04\n      dup1\n      calldatasize\n      sub\n      dup2\n      add\n      swap1\n      tag_102\n      swap2\n      swap1\n      tag_103\n      jump\t// in\n    tag_102:\n      tag_104\n      jump\t// in\n    tag_101:\n      stop\n        /* \"RoamingDataManagement.sol\":1830:1929  function balance() external view returns(uint256)... */\n    tag_16:\n      callvalue\n      dup1\n      iszero\n      tag_105\n      jumpi\n      0x00\n      dup1\n      revert\n    tag_105:\n      pop\n      tag_106\n      tag_107\n      jump\t// in\n    tag_106:\n      mload(0x40)\n      tag_108\n      swap2\n      swap1\n      tag_66\n      jump\t// in\n    tag_108:\n      mload(0x40)\n      dup1\n      swap2\n      sub\n      swap1\n      return\n        /* \"RoamingDataManagement.sol\":394:446  mapping(address => string) public operatorSecretKeys */\n    tag_17:\n      callvalue\n      dup1\n      iszero\n      tag_109\n      jumpi\n      0x00\n      dup1\n      revert\n    tag_109:\n      pop\n      tag_110\n      0x04\n      dup1\n      calldatasize\n      sub\n      dup2\n      add\n      swap1\n      tag_111\n      swap2\n      swap1\n      tag_63\n      jump\t// in\n    tag_111:\n      tag_112\n      jump\t// in\n    tag_110:\n      mload(0x40)\n      tag_113\n      swap2\n      swap1\n      tag_34\n      jump\t// in\n    tag_113:\n      mload(0x40)\n      dup1\n      swap2\n      sub\n      swap1\n      return\n        /* \"RoamingDataManagement.sol\":1666:1746  function deposit() public payable... */\n    tag_18:\n      tag_114\n      tag_115\n      jump\t// in\n    tag_114:\n      stop\n        /* \"RoamingDataManagement.sol\":454:478  uint public totalDeposit */\n    tag_19:\n      callvalue\n      dup1\n      iszero\n      tag_116\n      jumpi\n      0x00\n      dup1\n      revert\n    tag_116:\n      pop\n      tag_117\n      tag_118\n      jump\t// in\n    tag_117:\n      mload(0x40)\n      tag_119\n      swap2\n      swap1\n      tag_66\n      jump\t// in\n    tag_119:\n      mload(0x40)\n      dup1\n      swap2\n      sub\n      swap1\n      return\n        /* \"RoamingDataManagement.sol\":335:388  mapping(string => address) public operatorsNameToAddr */\n    tag_20:\n      callvalue\n      dup1\n      iszero\n      tag_120\n      jumpi\n      0x00\n      dup1\n      revert\n    tag_120:\n      pop\n      tag_121\n      0x04\n      dup1\n      calldatasize\n      sub\n      dup2\n      add\n      swap1\n      tag_122\n      swap2\n      swap1\n      tag_123\n      jump\t// in\n    tag_122:\n      tag_124\n      jump\t// in\n    tag_121:\n      mload(0x40)\n      tag_125\n      swap2\n      swap1\n      tag_88\n      jump\t// in\n    tag_125:\n      mload(0x40)\n      dup1\n      swap2\n      sub\n      swap1\n      return\n        /* \"RoamingDataManagement.sol\":1935:3151  function registerRoamingOperator(address operatorAddr, string memory operatorName, uint256 currentTimestamp, string memory secretKey) public payable {... */\n    tag_21:\n      tag_126\n      0x04\n      dup1\n      calldatasize\n      sub\n      dup2\n      add\n      swap1\n      tag_127\n      swap2\n      swap1\n      tag_128\n      jump\t// in\n    tag_127:\n      tag_129\n      jump\t// in\n    tag_126:\n      stop\n        /* \"RoamingDataManagement.sol\":197:229  string[] public serviceProviders */\n    tag_32:\n      0x00\n      dup2\n      dup2\n      sload\n      dup2\n      lt\n      tag_130\n      jumpi\n      0x00\n      dup1\n      revert\n    tag_130:\n      swap1\n      0x00\n      mstore\n      keccak256(0x00, 0x20)\n      add\n      0x00\n      swap2\n      pop\n      swap1\n      pop\n      dup1\n      sload\n      tag_132\n      swap1\n      tag_133\n      jump\t// in\n    tag_132:\n      dup1\n      0x1f\n      add\n      0x20\n      dup1\n      swap2\n      div\n      mul\n      0x20\n      add\n      mload(0x40)\n      swap1\n      dup2\n      add\n      0x40\n      mstore\n      dup1\n      swap3\n      swap2\n      swap1\n      dup2\n      dup2\n      mstore\n      0x20\n      add\n      dup3\n      dup1\n      sload\n      tag_134\n      swap1\n      tag_133\n      jump\t// in\n    tag_134:\n      dup1\n      iszero\n      tag_135\n      jumpi\n      dup1\n      0x1f\n      lt\n      tag_136\n      jumpi\n      0x0100\n      dup1\n      dup4\n      sload\n      div\n      mul\n      dup4\n      mstore\n      swap2\n      0x20\n      add\n      swap2\n      jump(tag_135)\n    tag_136:\n      dup3\n      add\n      swap2\n      swap1\n      0x00\n      mstore\n      keccak256(0x00, 0x20)\n      swap1\n    tag_137:\n      dup2\n      sload\n      dup2\n      mstore\n      swap1\n      0x01\n      add\n      swap1\n      0x20\n      add\n      dup1\n      dup4\n      gt\n      tag_137\n      jumpi\n      dup3\n      swap1\n      sub\n      0x1f\n      and\n      dup3\n      add\n      swap2\n    tag_135:\n      pop\n      pop\n      pop\n      pop\n      pop\n      dup2\n      jump\t// out\n        /* \"RoamingDataManagement.sol\":1010:1047  BillingRecord[] public billingHistory */\n    tag_38:\n      0x06\n      dup2\n      dup2\n      sload\n      dup2\n      lt\n      tag_138\n      jumpi\n      0x00\n      dup1\n      revert\n    tag_138:\n      swap1\n      0x00\n      mstore\n      keccak256(0x00, 0x20)\n      swap1\n      0x06\n      mul\n      add\n      0x00\n      swap2\n      pop\n      swap1\n      pop\n      dup1\n      0x00\n      add\n      0x00\n      swap1\n      sload\n      swap1\n      0x0100\n      exp\n      swap1\n      div\n      0xffffffffffffffffffffffffffffffffffffffff\n      and\n      swap1\n      dup1\n      0x01\n      add\n      0x00\n      swap1\n      sload\n      swap1\n      0x0100\n      exp\n      swap1\n      div\n      0xffffffffffffffffffffffffffffffffffffffff\n      and\n      swap1\n      dup1\n      0x02\n      add\n      dup1\n      sload\n      tag_140\n      swap1\n      tag_133\n      jump\t// in\n    tag_140:\n      dup1\n      0x1f\n      add\n      0x20\n      dup1\n      swap2\n      div\n      mul\n      0x20\n      add\n      mload(0x40)\n      swap1\n      dup2\n      add\n      0x40\n      mstore\n      dup1\n      swap3\n      swap2\n      swap1\n      dup2\n      dup2\n      mstore\n      0x20\n      add\n      dup3\n      dup1\n      sload\n      tag_141\n      swap1\n      tag_133\n      jump\t// in\n    tag_141:\n      dup1\n      iszero\n      tag_142\n      jumpi\n      dup1\n      0x1f\n      lt\n      tag_143\n      jumpi\n      0x0100\n      dup1\n      dup4\n      sload\n      div\n      mul\n      dup4\n      mstore\n      swap2\n      0x20\n      add\n      swap2\n      jump(tag_142)\n    tag_143:\n      dup3\n      add\n      swap2\n      swap1\n      0x00\n      mstore\n      keccak256(0x00, 0x20)\n      swap1\n    tag_144:\n      dup2\n      sload\n      dup2\n      mstore\n      swap1\n      0x01\n      add\n      swap1\n      0x20\n      add\n      dup1\n      dup4\n      gt\n      tag_144\n      jumpi\n      dup3\n      swap1\n      sub\n      0x1f\n      and\n      dup3\n      add\n      swap2\n    tag_142:\n      pop\n      pop\n      pop\n      pop\n      pop\n      swap1\n      dup1\n      0x03\n      add\n      dup1\n      sload\n      tag_145\n      swap1\n      tag_133\n      jump\t// in\n    tag_145:\n      dup1\n      0x1f\n      add\n      0x20\n      dup1\n      swap2\n      div\n      mul\n      0x20\n      add\n      mload(0x40)\n      swap1\n      dup2\n      add\n      0x40\n      mstore\n      dup1\n      swap3\n      swap2\n      swap1\n      dup2\n      dup2\n      mstore\n      0x20\n      add\n      dup3\n      dup1\n      sload\n      tag_146\n      swap1\n      tag_133\n      jump\t// in\n    tag_146:\n      dup1\n      iszero\n      tag_147\n      jumpi\n      dup1\n      0x1f\n      lt\n      tag_148\n      jumpi\n      0x0100\n      dup1\n      dup4\n      sload\n      div\n      mul\n      dup4\n      mstore\n      swap2\n      0x20\n      add\n      swap2\n      jump(tag_147)\n    tag_148:\n      dup3\n      add\n      swap2\n      swap1\n      0x00\n      mstore\n      keccak256(0x00, 0x20)\n      swap1\n    tag_149:\n      dup2\n      sload\n      dup2\n      mstore\n      swap1\n      0x01\n      add\n      swap1\n      0x20\n      add\n      dup1\n      dup4\n      gt\n      tag_149\n      jumpi\n      dup3\n      swap1\n      sub\n      0x1f\n      and\n      dup3\n      add\n      swap2\n    tag_147:\n      pop\n      pop\n      pop\n      pop\n      pop\n      swap1\n      dup1\n      0x04\n      add\n      sload\n      swap1\n      dup1\n      0x05\n      add\n      sload\n      swap1\n      pop\n      dup7\n      jump\t// out\n        /* \"RoamingDataManagement.sol\":6052:6891  function fetchUserDataSummary(string memory visitingOperatorName, string memory secretKey) public view returns(string[] memory, UserDataSummary[] memory) {... */\n    tag_45:\n        /* \"RoamingDataManagement.sol\":6163:6178  string[] memory */\n      0x60\n        /* \"RoamingDataManagement.sol\":6180:6204  UserDataSummary[] memory */\n      dup1\n        /* \"RoamingDataManagement.sol\":6216:6240  address homeOperatorAddr */\n      0x00\n        /* \"RoamingDataManagement.sol\":6243:6253  msg.sender */\n      caller\n        /* \"RoamingDataManagement.sol\":6216:6253  address homeOperatorAddr = msg.sender */\n      swap1\n      pop\n        /* \"RoamingDataManagement.sol\":6263:6285  string[] storage users */\n      0x00\n        /* \"RoamingDataManagement.sol\":6288:6297  userTable */\n      0x07\n        /* \"RoamingDataManagement.sol\":6288:6315  userTable[homeOperatorAddr] */\n      0x00\n        /* \"RoamingDataManagement.sol\":6298:6314  homeOperatorAddr */\n      dup4\n        /* \"RoamingDataManagement.sol\":6288:6315  userTable[homeOperatorAddr] */\n      0xffffffffffffffffffffffffffffffffffffffff\n      and\n      0xffffffffffffffffffffffffffffffffffffffff\n      and\n      dup2\n      mstore\n      0x20\n      add\n      swap1\n      dup2\n      mstore\n      0x20\n      add\n      0x00\n      keccak256\n        /* \"RoamingDataManagement.sol\":6263:6315  string[] storage users = userTable[homeOperatorAddr] */\n      swap1\n      pop\n        /* \"RoamingDataManagement.sol\":6387:6388  0 */\n      0x00\n        /* \"RoamingDataManagement.sol\":6339:6357  operatorSecretKeys */\n      0x04\n        /* \"RoamingDataManagement.sol\":6339:6375  operatorSecretKeys[homeOperatorAddr] */\n      0x00\n        /* \"RoamingDataManagement.sol\":6358:6374  homeOperatorAddr */\n      dup5\n        /* \"RoamingDataManagement.sol\":6339:6375  operatorSecretKeys[homeOperatorAddr] */\n      0xffffffffffffffffffffffffffffffffffffffff\n      and\n      0xffffffffffffffffffffffffffffffffffffffff\n      and\n      dup2\n      mstore\n      0x20\n      add\n      swap1\n      dup2\n      mstore\n      0x20\n      add\n      0x00\n      keccak256\n        /* \"RoamingDataManagement.sol\":6333:6383  bytes(operatorSecretKeys[homeOperatorAddr]).length */\n      dup1\n      sload\n      tag_151\n      swap1\n      tag_133\n      jump\t// in\n    tag_151:\n      swap1\n      pop\n        /* \"RoamingDataManagement.sol\":6333:6388  bytes(operatorSecretKeys[homeOperatorAddr]).length != 0 */\n      sub\n        /* \"RoamingDataManagement.sol\":6325:6389  require(bytes(operatorSecretKeys[homeOperatorAddr]).length != 0) */\n      tag_152\n      jumpi\n      0x00\n      dup1\n      revert\n    tag_152:\n        /* \"RoamingDataManagement.sol\":6481:6490  secretKey */\n      dup5\n        /* \"RoamingDataManagement.sol\":6465:6492  keccak256(bytes(secretKey)) */\n      dup1\n      mload\n      swap1\n      0x20\n      add\n      keccak256\n        /* \"RoamingDataManagement.sol\":6423:6441  operatorSecretKeys */\n      0x04\n        /* \"RoamingDataManagement.sol\":6423:6459  operatorSecretKeys[homeOperatorAddr] */\n      0x00\n        /* \"RoamingDataManagement.sol\":6442:6458  homeOperatorAddr */\n      dup5\n        /* \"RoamingDataManagement.sol\":6423:6459  operatorSecretKeys[homeOperatorAddr] */\n      0xffffffffffffffffffffffffffffffffffffffff\n      and\n      0xffffffffffffffffffffffffffffffffffffffff\n      and\n      dup2\n      mstore\n      0x20\n      add\n      swap1\n      dup2\n      mstore\n      0x20\n      add\n      0x00\n      keccak256\n        /* \"RoamingDataManagement.sol\":6407:6461  keccak256(bytes(operatorSecretKeys[homeOperatorAddr])) */\n      mload(0x40)\n      tag_153\n      swap2\n      swap1\n      tag_154\n      jump\t// in\n    tag_153:\n      mload(0x40)\n      dup1\n      swap2\n      sub\n      swap1\n      keccak256\n        /* \"RoamingDataManagement.sol\":6407:6492  keccak256(bytes(operatorSecretKeys[homeOperatorAddr])) == keccak256(bytes(secretKey)) */\n      eq\n        /* \"RoamingDataManagement.sol\":6399:6493  require(keccak256(bytes(operatorSecretKeys[homeOperatorAddr])) == keccak256(bytes(secretKey))) */\n      tag_155\n      jumpi\n      0x00\n      dup1\n      revert\n    tag_155:\n        /* \"RoamingDataManagement.sol\":6505:6543  UserDataSummary[] memory dataSummaries */\n      0x00\n        /* \"RoamingDataManagement.sol\":6568:6577  userTable */\n      0x07\n        /* \"RoamingDataManagement.sol\":6568:6595  userTable[homeOperatorAddr] */\n      0x00\n        /* \"RoamingDataManagement.sol\":6578:6594  homeOperatorAddr */\n      dup5\n        /* \"RoamingDataManagement.sol\":6568:6595  userTable[homeOperatorAddr] */\n      0xffffffffffffffffffffffffffffffffffffffff\n      and\n      0xffffffffffffffffffffffffffffffffffffffff\n      and\n      dup2\n      mstore\n      0x20\n      add\n      swap1\n      dup2\n      mstore\n      0x20\n      add\n      0x00\n      keccak256\n        /* \"RoamingDataManagement.sol\":6568:6602  userTable[homeOperatorAddr].length */\n      dup1\n      sload\n      swap1\n      pop\n        /* \"RoamingDataManagement.sol\":6546:6603  new UserDataSummary[](userTable[homeOperatorAddr].length) */\n      0xffffffffffffffff\n      dup2\n      gt\n      iszero\n      tag_156\n      jumpi\n      tag_157\n      tag_158\n      jump\t// in\n    tag_157:\n    tag_156:\n      mload(0x40)\n      swap1\n      dup1\n      dup3\n      mstore\n      dup1\n      0x20\n      mul\n      0x20\n      add\n      dup3\n      add\n      0x40\n      mstore\n      dup1\n      iszero\n      tag_159\n      jumpi\n      dup2\n      0x20\n      add\n    tag_160:\n      tag_161\n      tag_162\n      jump\t// in\n    tag_161:\n      dup2\n      mstore\n      0x20\n      add\n      swap1\n      0x01\n      swap1\n      sub\n      swap1\n      dup2\n      tag_160\n      jumpi\n      swap1\n      pop\n    tag_159:\n      pop\n        /* \"RoamingDataManagement.sol\":6505:6603  UserDataSummary[] memory dataSummaries = new UserDataSummary[](userTable[homeOperatorAddr].length) */\n      swap1\n      pop\n        /* \"RoamingDataManagement.sol\":6618:6624  uint i */\n      0x00\n        /* \"RoamingDataManagement.sol\":6613:6823  for (uint i = 0; i < users.length; ++i) {... */\n    tag_163:\n        /* \"RoamingDataManagement.sol\":6634:6639  users */\n      dup3\n        /* \"RoamingDataManagement.sol\":6634:6646  users.length */\n      dup1\n      sload\n      swap1\n      pop\n        /* \"RoamingDataManagement.sol\":6630:6631  i */\n      dup2\n        /* \"RoamingDataManagement.sol\":6630:6646  i < users.length */\n      lt\n        /* \"RoamingDataManagement.sol\":6613:6823  for (uint i = 0; i < users.length; ++i) {... */\n      iszero\n      tag_164\n      jumpi\n        /* \"RoamingDataManagement.sol\":6667:6685  string memory imsi */\n      0x00\n        /* \"RoamingDataManagement.sol\":6688:6693  users */\n      dup4\n        /* \"RoamingDataManagement.sol\":6694:6695  i */\n      dup3\n        /* \"RoamingDataManagement.sol\":6688:6696  users[i] */\n      dup2\n      sload\n      dup2\n      lt\n      tag_166\n      jumpi\n      tag_167\n      tag_168\n      jump\t// in\n    tag_167:\n    tag_166:\n      swap1\n      0x00\n      mstore\n      keccak256(0x00, 0x20)\n      add\n        /* \"RoamingDataManagement.sol\":6667:6696  string memory imsi = users[i] */\n      dup1\n      sload\n      tag_170\n      swap1\n      tag_133\n      jump\t// in\n    tag_170:\n      dup1\n      0x1f\n      add\n      0x20\n      dup1\n      swap2\n      div\n      mul\n      0x20\n      add\n      mload(0x40)\n      swap1\n      dup2\n      add\n      0x40\n      mstore\n      dup1\n      swap3\n      swap2\n      swap1\n      dup2\n      dup2\n      mstore\n      0x20\n      add\n      dup3\n      dup1\n      sload\n      tag_171\n      swap1\n      tag_133\n      jump\t// in\n    tag_171:\n      dup1\n      iszero\n      tag_172\n      jumpi\n      dup1\n      0x1f\n      lt\n      tag_173\n      jumpi\n      0x0100\n      dup1\n      dup4\n      sload\n      div\n      mul\n      dup4\n      mstore\n      swap2\n      0x20\n      add\n      swap2\n      jump(tag_172)\n    tag_173:\n      dup3\n      add\n      swap2\n      swap1\n      0x00\n      mstore\n      keccak256(0x00, 0x20)\n      swap1\n    tag_174:\n      dup2\n      sload\n      dup2\n      mstore\n      swap1\n      0x01\n      add\n      swap1\n      0x20\n      add\n      dup1\n      dup4\n      gt\n      tag_174\n      jumpi\n      dup3\n      swap1\n      sub\n      0x1f\n      and\n      dup3\n      add\n      swap2\n    tag_172:\n      pop\n      pop\n      pop\n      pop\n      pop\n      swap1\n      pop\n        /* \"RoamingDataManagement.sol\":6729:6745  dataSummaryTable */\n      0x08\n        /* \"RoamingDataManagement.sol\":6729:6763  dataSummaryTable[homeOperatorAddr] */\n      0x00\n        /* \"RoamingDataManagement.sol\":6746:6762  homeOperatorAddr */\n      dup7\n        /* \"RoamingDataManagement.sol\":6729:6763  dataSummaryTable[homeOperatorAddr] */\n      0xffffffffffffffffffffffffffffffffffffffff\n      and\n      0xffffffffffffffffffffffffffffffffffffffff\n      and\n      dup2\n      mstore\n      0x20\n      add\n      swap1\n      dup2\n      mstore\n      0x20\n      add\n      0x00\n      keccak256\n        /* \"RoamingDataManagement.sol\":6764:6768  imsi */\n      dup2\n        /* \"RoamingDataManagement.sol\":6729:6769  dataSummaryTable[homeOperatorAddr][imsi] */\n      mload(0x40)\n      tag_175\n      swap2\n      swap1\n      tag_176\n      jump\t// in\n    tag_175:\n      swap1\n      dup2\n      mstore\n      0x20\n      add\n      mload(0x40)\n      dup1\n      swap2\n      sub\n      swap1\n      keccak256\n        /* \"RoamingDataManagement.sol\":6729:6812  dataSummaryTable[homeOperatorAddr][imsi][operatorsNameToAddr[visitingOperatorName]] */\n      0x00\n        /* \"RoamingDataManagement.sol\":6770:6789  operatorsNameToAddr */\n      0x03\n        /* \"RoamingDataManagement.sol\":6790:6810  visitingOperatorName */\n      dup12\n        /* \"RoamingDataManagement.sol\":6770:6811  operatorsNameToAddr[visitingOperatorName] */\n      mload(0x40)\n      tag_177\n      swap2\n      swap1\n      tag_176\n      jump\t// in\n    tag_177:\n      swap1\n      dup2\n      mstore\n      0x20\n      add\n      mload(0x40)\n      dup1\n      swap2\n      sub\n      swap1\n      keccak256\n      0x00\n      swap1\n      sload\n      swap1\n      0x0100\n      exp\n      swap1\n      div\n      0xffffffffffffffffffffffffffffffffffffffff\n      and\n        /* \"RoamingDataManagement.sol\":6729:6812  dataSummaryTable[homeOperatorAddr][imsi][operatorsNameToAddr[visitingOperatorName]] */\n      0xffffffffffffffffffffffffffffffffffffffff\n      and\n      0xffffffffffffffffffffffffffffffffffffffff\n      and\n      dup2\n      mstore\n      0x20\n      add\n      swap1\n      dup2\n      mstore\n      0x20\n      add\n      0x00\n      keccak256\n        /* \"RoamingDataManagement.sol\":6710:6812  dataSummaries[i] = dataSummaryTable[homeOperatorAddr][imsi][operatorsNameToAddr[visitingOperatorName]] */\n      mload(0x40)\n      dup1\n      0x0140\n      add\n      0x40\n      mstore\n      swap1\n      dup2\n      0x00\n      dup3\n      add\n      dup1\n      sload\n      tag_178\n      swap1\n      tag_133\n      jump\t// in\n    tag_178:\n      dup1\n      0x1f\n      add\n      0x20\n      dup1\n      swap2\n      div\n      mul\n      0x20\n      add\n      mload(0x40)\n      swap1\n      dup2\n      add\n      0x40\n      mstore\n      dup1\n      swap3\n      swap2\n      swap1\n      dup2\n      dup2\n      mstore\n      0x20\n      add\n      dup3\n      dup1\n      sload\n      tag_179\n      swap1\n      tag_133\n      jump\t// in\n    tag_179:\n      dup1\n      iszero\n      tag_180\n      jumpi\n      dup1\n      0x1f\n      lt\n      tag_181\n      jumpi\n      0x0100\n      dup1\n      dup4\n      sload\n      div\n      mul\n      dup4\n      mstore\n      swap2\n      0x20\n      add\n      swap2\n      jump(tag_180)\n    tag_181:\n      dup3\n      add\n      swap2\n      swap1\n      0x00\n      mstore\n      keccak256(0x00, 0x20)\n      swap1\n    tag_182:\n      dup2\n      sload\n      dup2\n      mstore\n      swap1\n      0x01\n      add\n      swap1\n      0x20\n      add\n      dup1\n      dup4\n      gt\n      tag_182\n      jumpi\n      dup3\n      swap1\n      sub\n      0x1f\n      and\n      dup3\n      add\n      swap2\n    tag_180:\n      pop\n      pop\n      pop\n      pop\n      pop\n      dup2\n      mstore\n      0x20\n      add\n      0x01\n      dup3\n      add\n      dup1\n      sload\n      tag_183\n      swap1\n      tag_133\n      jump\t// in\n    tag_183:\n      dup1\n      0x1f\n      add\n      0x20\n      dup1\n      swap2\n      div\n      mul\n      0x20\n      add\n      mload(0x40)\n      swap1\n      dup2\n      add\n      0x40\n      mstore\n      dup1\n      swap3\n      swap2\n      swap1\n      dup2\n      dup2\n      mstore\n      0x20\n      add\n      dup3\n      dup1\n      sload\n      tag_184\n      swap1\n      tag_133\n      jump\t// in\n    tag_184:\n      dup1\n      iszero\n      tag_185\n      jumpi\n      dup1\n      0x1f\n      lt\n      tag_186\n      jumpi\n      0x0100\n      dup1\n      dup4\n      sload\n      div\n      mul\n      dup4\n      mstore\n      swap2\n      0x20\n      add\n      swap2\n      jump(tag_185)\n    tag_186:\n      dup3\n      add\n      swap2\n      swap1\n      0x00\n      mstore\n      keccak256(0x00, 0x20)\n      swap1\n    tag_187:\n      dup2\n      sload\n      dup2\n      mstore\n      swap1\n      0x01\n      add\n      swap1\n      0x20\n      add\n      dup1\n      dup4\n      gt\n      tag_187\n      jumpi\n      dup3\n      swap1\n      sub\n      0x1f\n      and\n      dup3\n      add\n      swap2\n    tag_185:\n      pop\n      pop\n      pop\n      pop\n      pop\n      dup2\n      mstore\n      0x20\n      add\n      0x02\n      dup3\n      add\n      dup1\n      sload\n      tag_188\n      swap1\n      tag_133\n      jump\t// in\n    tag_188:\n      dup1\n      0x1f\n      add\n      0x20\n      dup1\n      swap2\n      div\n      mul\n      0x20\n      add\n      mload(0x40)\n      swap1\n      dup2\n      add\n      0x40\n      mstore\n      dup1\n      swap3\n      swap2\n      swap1\n      dup2\n      dup2\n      mstore\n      0x20\n      add\n      dup3\n      dup1\n      sload\n      tag_189\n      swap1\n      tag_133\n      jump\t// in\n    tag_189:\n      dup1\n      iszero\n      tag_190\n      jumpi\n      dup1\n      0x1f\n      lt\n      tag_191\n      jumpi\n      0x0100\n      dup1\n      dup4\n      sload\n      div\n      mul\n      dup4\n      mstore\n      swap2\n      0x20\n      add\n      swap2\n      jump(tag_190)\n    tag_191:\n      dup3\n      add\n      swap2\n      swap1\n      0x00\n      mstore\n      keccak256(0x00, 0x20)\n      swap1\n    tag_192:\n      dup2\n      sload\n      dup2\n      mstore\n      swap1\n      0x01\n      add\n      swap1\n      0x20\n      add\n      dup1\n      dup4\n      gt\n      tag_192\n      jumpi\n      dup3\n      swap1\n      sub\n      0x1f\n      and\n      dup3\n      add\n      swap2\n    tag_190:\n      pop\n      pop\n      pop\n      pop\n      pop\n      dup2\n      mstore\n      0x20\n      add\n      0x03\n      dup3\n      add\n      sload\n      dup2\n      mstore\n      0x20\n      add\n      0x04\n      dup3\n      add\n      sload\n      dup2\n      mstore\n      0x20\n      add\n      0x05\n      dup3\n      add\n      sload\n      dup2\n      mstore\n      0x20\n      add\n      0x06\n      dup3\n      add\n      sload\n      dup2\n      mstore\n      0x20\n      add\n      0x07\n      dup3\n      add\n      sload\n      dup2\n      mstore\n      0x20\n      add\n      0x08\n      dup3\n      add\n      sload\n      dup2\n      mstore\n      0x20\n      add\n      0x09\n      dup3\n      add\n      sload\n      dup2\n      mstore\n      pop\n      pop\n        /* \"RoamingDataManagement.sol\":6710:6723  dataSummaries */\n      dup4\n        /* \"RoamingDataManagement.sol\":6724:6725  i */\n      dup4\n        /* \"RoamingDataManagement.sol\":6710:6726  dataSummaries[i] */\n      dup2\n      mload\n      dup2\n      lt\n      tag_193\n      jumpi\n      tag_194\n      tag_168\n      jump\t// in\n    tag_194:\n    tag_193:\n      0x20\n      mul\n      0x20\n      add\n      add\n        /* \"RoamingDataManagement.sol\":6710:6812  dataSummaries[i] = dataSummaryTable[homeOperatorAddr][imsi][operatorsNameToAddr[visitingOperatorName]] */\n      dup2\n      swap1\n      mstore\n      pop\n        /* \"RoamingDataManagement.sol\":6653:6823  {... */\n      pop\n        /* \"RoamingDataManagement.sol\":6648:6651  ++i */\n      dup1\n      tag_195\n      swap1\n      tag_196\n      jump\t// in\n    tag_195:\n      swap1\n      pop\n        /* \"RoamingDataManagement.sol\":6613:6823  for (uint i = 0; i < users.length; ++i) {... */\n      jump(tag_163)\n    tag_164:\n      pop\n        /* \"RoamingDataManagement.sol\":6841:6850  userTable */\n      0x07\n        /* \"RoamingDataManagement.sol\":6841:6868  userTable[homeOperatorAddr] */\n      0x00\n        /* \"RoamingDataManagement.sol\":6851:6867  homeOperatorAddr */\n      dup5\n        /* \"RoamingDataManagement.sol\":6841:6868  userTable[homeOperatorAddr] */\n      0xffffffffffffffffffffffffffffffffffffffff\n      and\n      0xffffffffffffffffffffffffffffffffffffffff\n      and\n      dup2\n      mstore\n      0x20\n      add\n      swap1\n      dup2\n      mstore\n      0x20\n      add\n      0x00\n      keccak256\n        /* \"RoamingDataManagement.sol\":6870:6883  dataSummaries */\n      dup2\n        /* \"RoamingDataManagement.sol\":6833:6884  return (userTable[homeOperatorAddr], dataSummaries) */\n      dup2\n      dup1\n      sload\n      dup1\n      0x20\n      mul\n      0x20\n      add\n      mload(0x40)\n      swap1\n      dup2\n      add\n      0x40\n      mstore\n      dup1\n      swap3\n      swap2\n      swap1\n      dup2\n      dup2\n      mstore\n      0x20\n      add\n      0x00\n      swap1\n    tag_197:\n      dup3\n      dup3\n      lt\n      iszero\n      tag_198\n      jumpi\n      dup4\n      dup3\n      swap1\n      0x00\n      mstore\n      keccak256(0x00, 0x20)\n      add\n      dup1\n      sload\n      tag_200\n      swap1\n      tag_133\n      jump\t// in\n    tag_200:\n      dup1\n      0x1f\n      add\n      0x20\n      dup1\n      swap2\n      div\n      mul\n      0x20\n      add\n      mload(0x40)\n      swap1\n      dup2\n      add\n      0x40\n      mstore\n      dup1\n      swap3\n      swap2\n      swap1\n      dup2\n      dup2\n      mstore\n      0x20\n      add\n      dup3\n      dup1\n      sload\n      tag_201\n      swap1\n      tag_133\n      jump\t// in\n    tag_201:\n      dup1\n      iszero\n      tag_202\n      jumpi\n      dup1\n      0x1f\n      lt\n      tag_203\n      jumpi\n      0x0100\n      dup1\n      dup4\n      sload\n      div\n      mul\n      dup4\n      mstore\n      swap2\n      0x20\n      add\n      swap2\n      jump(tag_202)\n    tag_203:\n      dup3\n      add\n      swap2\n      swap1\n      0x00\n      mstore\n      keccak256(0x00, 0x20)\n      swap1\n    tag_204:\n      dup2\n      sload\n      dup2\n      mstore\n      swap1\n      0x01\n      add\n      swap1\n      0x20\n      add\n      dup1\n      dup4\n      gt\n      tag_204\n      jumpi\n      dup3\n      swap1\n      sub\n      0x1f\n      and\n      dup3\n      add\n      swap2\n    tag_202:\n      pop\n      pop\n      pop\n      pop\n      pop\n      dup2\n      mstore\n      0x20\n      add\n      swap1\n      0x01\n      add\n      swap1\n      jump(tag_197)\n    tag_198:\n      pop\n      pop\n      pop\n      pop\n      swap2\n      pop\n      swap5\n      pop\n      swap5\n      pop\n      pop\n      pop\n      pop\n        /* \"RoamingDataManagement.sol\":6052:6891  function fetchUserDataSummary(string memory visitingOperatorName, string memory secretKey) public view returns(string[] memory, UserDataSummary[] memory) {... */\n      swap3\n      pop\n      swap3\n      swap1\n      pop\n      jump\t// out\n        /* \"RoamingDataManagement.sol\":1418:1516  mapping(address => mapping(string => mapping(address => UserDataSummary))) public dataSummaryTable */\n    tag_52:\n      mstore(0x20, 0x08)\n      dup3\n      0x00\n      mstore\n      keccak256(0x00, 0x40)\n      dup3\n      dup1\n      mload\n      0x20\n      dup2\n      add\n      dup3\n      add\n      dup1\n      mload\n      dup5\n      dup3\n      mstore\n      0x20\n      dup4\n      add\n      0x20\n      dup6\n      add\n      keccak256\n      dup2\n      dup4\n      mstore\n      dup1\n      swap6\n      pop\n      pop\n      pop\n      pop\n      pop\n      pop\n      0x20\n      mstore\n      dup1\n      0x00\n      mstore\n      keccak256(0x00, 0x40)\n      0x00\n      swap3\n      pop\n      swap3\n      pop\n      pop\n      pop\n      dup1\n      0x00\n      add\n      dup1\n      sload\n      tag_205\n      swap1\n      tag_133\n      jump\t// in\n    tag_205:\n      dup1\n      0x1f\n      add\n      0x20\n      dup1\n      swap2\n      div\n      mul\n      0x20\n      add\n      mload(0x40)\n      swap1\n      dup2\n      add\n      0x40\n      mstore\n      dup1\n      swap3\n      swap2\n      swap1\n      dup2\n      dup2\n      mstore\n      0x20\n      add\n      dup3\n      dup1\n      sload\n      tag_206\n      swap1\n      tag_133\n      jump\t// in\n    tag_206:\n      dup1\n      iszero\n      tag_207\n      jumpi\n      dup1\n      0x1f\n      lt\n      tag_208\n      jumpi\n      0x0100\n      dup1\n      dup4\n      sload\n      div\n      mul\n      dup4\n      mstore\n      swap2\n      0x20\n      add\n      swap2\n      jump(tag_207)\n    tag_208:\n      dup3\n      add\n      swap2\n      swap1\n      0x00\n      mstore\n      keccak256(0x00, 0x20)\n      swap1\n    tag_209:\n      dup2\n      sload\n      dup2\n      mstore\n      swap1\n      0x01\n      add\n      swap1\n      0x20\n      add\n      dup1\n      dup4\n      gt\n      tag_209\n      jumpi\n      dup3\n      swap1\n      sub\n      0x1f\n      and\n      dup3\n      add\n      swap2\n    tag_207:\n      pop\n      pop\n      pop\n      pop\n      pop\n      swap1\n      dup1\n      0x01\n      add\n      dup1\n      sload\n      tag_210\n      swap1\n      tag_133\n      jump\t// in\n    tag_210:\n      dup1\n      0x1f\n      add\n      0x20\n      dup1\n      swap2\n      div\n      mul\n      0x20\n      add\n      mload(0x40)\n      swap1\n      dup2\n      add\n      0x40\n      mstore\n      dup1\n      swap3\n      swap2\n      swap1\n      dup2\n      dup2\n      mstore\n      0x20\n      add\n      dup3\n      dup1\n      sload\n      tag_211\n      swap1\n      tag_133\n      jump\t// in\n    tag_211:\n      dup1\n      iszero\n      tag_212\n      jumpi\n      dup1\n      0x1f\n      lt\n      tag_213\n      jumpi\n      0x0100\n      dup1\n      dup4\n      sload\n      div\n      mul\n      dup4\n      mstore\n      swap2\n      0x20\n      add\n      swap2\n      jump(tag_212)\n    tag_213:\n      dup3\n      add\n      swap2\n      swap1\n      0x00\n      mstore\n      keccak256(0x00, 0x20)\n      swap1\n    tag_214:\n      dup2\n      sload\n      dup2\n      mstore\n      swap1\n      0x01\n      add\n      swap1\n      0x20\n      add\n      dup1\n      dup4\n      gt\n      tag_214\n      jumpi\n      dup3\n      swap1\n      sub\n      0x1f\n      and\n      dup3\n      add\n      swap2\n    tag_212:\n      pop\n      pop\n      pop\n      pop\n      pop\n      swap1\n      dup1\n      0x02\n      add\n      dup1\n      sload\n      tag_215\n      swap1\n      tag_133\n      jump\t// in\n    tag_215:\n      dup1\n      0x1f\n      add\n      0x20\n      dup1\n      swap2\n      div\n      mul\n      0x20\n      add\n      mload(0x40)\n      swap1\n      dup2\n      add\n      0x40\n      mstore\n      dup1\n      swap3\n      swap2\n      swap1\n      dup2\n      dup2\n      mstore\n      0x20\n      add\n      dup3\n      dup1\n      sload\n      tag_216\n      swap1\n      tag_133\n      jump\t// in\n    tag_216:\n      dup1\n      iszero\n      tag_217\n      jumpi\n      dup1\n      0x1f\n      lt\n      tag_218\n      jumpi\n      0x0100\n      dup1\n      dup4\n      sload\n      div\n      mul\n      dup4\n      mstore\n      swap2\n      0x20\n      add\n      swap2\n      jump(tag_217)\n    tag_218:\n      dup3\n      add\n      swap2\n      swap1\n      0x00\n      mstore\n      keccak256(0x00, 0x20)\n      swap1\n    tag_219:\n      dup2\n      sload\n      dup2\n      mstore\n      swap1\n      0x01\n      add\n      swap1\n      0x20\n      add\n      dup1\n      dup4\n      gt\n      tag_219\n      jumpi\n      dup3\n      swap1\n      sub\n      0x1f\n      and\n      dup3\n      add\n      swap2\n    tag_217:\n      pop\n      pop\n      pop\n      pop\n      pop\n      swap1\n      dup1\n      0x03\n      add\n      sload\n      swap1\n      dup1\n      0x04\n      add\n      sload\n      swap1\n      dup1\n      0x05\n      add\n      sload\n      swap1\n      dup1\n      0x06\n      add\n      sload\n      swap1\n      dup1\n      0x07\n      add\n      sload\n      swap1\n      dup1\n      0x08\n      add\n      sload\n      swap1\n      dup1\n      0x09\n      add\n      sload\n      swap1\n      pop\n      dup11\n      jump\t// out\n        /* \"RoamingDataManagement.sol\":6897:7010  function fetchBillingHistory() public view returns(BillingRecord[] memory) {... */\n    tag_57:\n        /* \"RoamingDataManagement.sol\":6948:6970  BillingRecord[] memory */\n      0x60\n        /* \"RoamingDataManagement.sol\":6989:7003  billingHistory */\n      0x06\n        /* \"RoamingDataManagement.sol\":6982:7003  return billingHistory */\n      dup1\n      sload\n      dup1\n      0x20\n      mul\n      0x20\n      add\n      mload(0x40)\n      swap1\n      dup2\n      add\n      0x40\n      mstore\n      dup1\n      swap3\n      swap2\n      swap1\n      dup2\n      dup2\n      mstore\n      0x20\n      add\n      0x00\n      swap1\n    tag_221:\n      dup3\n      dup3\n      lt\n      iszero\n      tag_222\n      jumpi\n      dup4\n      dup3\n      swap1\n      0x00\n      mstore\n      keccak256(0x00, 0x20)\n      swap1\n      0x06\n      mul\n      add\n      mload(0x40)\n      dup1\n      0xc0\n      add\n      0x40\n      mstore\n      swap1\n      dup2\n      0x00\n      dup3\n      add\n      0x00\n      swap1\n      sload\n      swap1\n      0x0100\n      exp\n      swap1\n      div\n      0xffffffffffffffffffffffffffffffffffffffff\n      and\n      0xffffffffffffffffffffffffffffffffffffffff\n      and\n      0xffffffffffffffffffffffffffffffffffffffff\n      and\n      dup2\n      mstore\n      0x20\n      add\n      0x01\n      dup3\n      add\n      0x00\n      swap1\n      sload\n      swap1\n      0x0100\n      exp\n      swap1\n      div\n      0xffffffffffffffffffffffffffffffffffffffff\n      and\n      0xffffffffffffffffffffffffffffffffffffffff\n      and\n      0xffffffffffffffffffffffffffffffffffffffff\n      and\n      dup2\n      mstore\n      0x20\n      add\n      0x02\n      dup3\n      add\n      dup1\n      sload\n      tag_224\n      swap1\n      tag_133\n      jump\t// in\n    tag_224:\n      dup1\n      0x1f\n      add\n      0x20\n      dup1\n      swap2\n      div\n      mul\n      0x20\n      add\n      mload(0x40)\n      swap1\n      dup2\n      add\n      0x40\n      mstore\n      dup1\n      swap3\n      swap2\n      swap1\n      dup2\n      dup2\n      mstore\n      0x20\n      add\n      dup3\n      dup1\n      sload\n      tag_225\n      swap1\n      tag_133\n      jump\t// in\n    tag_225:\n      dup1\n      iszero\n      tag_226\n      jumpi\n      dup1\n      0x1f\n      lt\n      tag_227\n      jumpi\n      0x0100\n      dup1\n      dup4\n      sload\n      div\n      mul\n      dup4\n      mstore\n      swap2\n      0x20\n      add\n      swap2\n      jump(tag_226)\n    tag_227:\n      dup3\n      add\n      swap2\n      swap1\n      0x00\n      mstore\n      keccak256(0x00, 0x20)\n      swap1\n    tag_228:\n      dup2\n      sload\n      dup2\n      mstore\n      swap1\n      0x01\n      add\n      swap1\n      0x20\n      add\n      dup1\n      dup4\n      gt\n      tag_228\n      jumpi\n      dup3\n      swap1\n      sub\n      0x1f\n      and\n      dup3\n      add\n      swap2\n    tag_226:\n      pop\n      pop\n      pop\n      pop\n      pop\n      dup2\n      mstore\n      0x20\n      add\n      0x03\n      dup3\n      add\n      dup1\n      sload\n      tag_229\n      swap1\n      tag_133\n      jump\t// in\n    tag_229:\n      dup1\n      0x1f\n      add\n      0x20\n      dup1\n      swap2\n      div\n      mul\n      0x20\n      add\n      mload(0x40)\n      swap1\n      dup2\n      add\n      0x40\n      mstore\n      dup1\n      swap3\n      swap2\n      swap1\n      dup2\n      dup2\n      mstore\n      0x20\n      add\n      dup3\n      dup1\n      sload\n      tag_230\n      swap1\n      tag_133\n      jump\t// in\n    tag_230:\n      dup1\n      iszero\n      tag_231\n      jumpi\n      dup1\n      0x1f\n      lt\n      tag_232\n      jumpi\n      0x0100\n      dup1\n      dup4\n      sload\n      div\n      mul\n      dup4\n      mstore\n      swap2\n      0x20\n      add\n      swap2\n      jump(tag_231)\n    tag_232:\n      dup3\n      add\n      swap2\n      swap1\n      0x00\n      mstore\n      keccak256(0x00, 0x20)\n      swap1\n    tag_233:\n      dup2\n      sload\n      dup2\n      mstore\n      swap1\n      0x01\n      add\n      swap1\n      0x20\n      add\n      dup1\n      dup4\n      gt\n      tag_233\n      jumpi\n      dup3\n      swap1\n      sub\n      0x1f\n      and\n      dup3\n      add\n      swap2\n    tag_231:\n      pop\n      pop\n      pop\n      pop\n      pop\n      dup2\n      mstore\n      0x20\n      add\n      0x04\n      dup3\n      add\n      sload\n      dup2\n      mstore\n      0x20\n      add\n      0x05\n      dup3\n      add\n      sload\n      dup2\n      mstore\n      pop\n      pop\n      dup2\n      mstore\n      0x20\n      add\n      swap1\n      0x01\n      add\n      swap1\n      jump(tag_221)\n    tag_222:\n      pop\n      pop\n      pop\n      pop\n      swap1\n      pop\n        /* \"RoamingDataManagement.sol\":6897:7010  function fetchBillingHistory() public view returns(BillingRecord[] memory) {... */\n      swap1\n      jump\t// out\n        /* \"RoamingDataManagement.sol\":1592:1631  mapping(address => uint256) public bank */\n    tag_64:\n      mstore(0x20, 0x0a)\n      dup1\n      0x00\n      mstore\n      keccak256(0x00, 0x40)\n      0x00\n      swap2\n      pop\n      swap1\n      pop\n      sload\n      dup2\n      jump\t// out\n        /* \"RoamingDataManagement.sol\":7016:7202  function uploadSecretKey(address addr, string memory secretKey) public {... */\n    tag_71:\n        /* \"RoamingDataManagement.sol\":7147:7148  0 */\n      0x00\n        /* \"RoamingDataManagement.sol\":7111:7129  operatorSecretKeys */\n      0x04\n        /* \"RoamingDataManagement.sol\":7111:7135  operatorSecretKeys[addr] */\n      0x00\n        /* \"RoamingDataManagement.sol\":7130:7134  addr */\n      dup5\n        /* \"RoamingDataManagement.sol\":7111:7135  operatorSecretKeys[addr] */\n      0xffffffffffffffffffffffffffffffffffffffff\n      and\n      0xffffffffffffffffffffffffffffffffffffffff\n      and\n      dup2\n      mstore\n      0x20\n      add\n      swap1\n      dup2\n      mstore\n      0x20\n      add\n      0x00\n      keccak256\n        /* \"RoamingDataManagement.sol\":7105:7143  bytes(operatorSecretKeys[addr]).length */\n      dup1\n      sload\n      tag_235\n      swap1\n      tag_133\n      jump\t// in\n    tag_235:\n      swap1\n      pop\n        /* \"RoamingDataManagement.sol\":7105:7148  bytes(operatorSecretKeys[addr]).length == 0 */\n      eq\n        /* \"RoamingDataManagement.sol\":7097:7149  require(bytes(operatorSecretKeys[addr]).length == 0) */\n      tag_236\n      jumpi\n      0x00\n      dup1\n      revert\n    tag_236:\n        /* \"RoamingDataManagement.sol\":7186:7195  secretKey */\n      dup1\n        /* \"RoamingDataManagement.sol\":7159:7177  operatorSecretKeys */\n      0x04\n        /* \"RoamingDataManagement.sol\":7159:7183  operatorSecretKeys[addr] */\n      0x00\n        /* \"RoamingDataManagement.sol\":7178:7182  addr */\n      dup5\n        /* \"RoamingDataManagement.sol\":7159:7183  operatorSecretKeys[addr] */\n      0xffffffffffffffffffffffffffffffffffffffff\n      and\n      0xffffffffffffffffffffffffffffffffffffffff\n      and\n      dup2\n      mstore\n      0x20\n      add\n      swap1\n      dup2\n      mstore\n      0x20\n      add\n      0x00\n      keccak256\n        /* \"RoamingDataManagement.sol\":7159:7195  operatorSecretKeys[addr] = secretKey */\n      swap1\n      dup2\n      tag_237\n      swap2\n      swap1\n      tag_238\n      jump\t// in\n    tag_237:\n      pop\n        /* \"RoamingDataManagement.sol\":7016:7202  function uploadSecretKey(address addr, string memory secretKey) public {... */\n      pop\n      pop\n      jump\t// out\n        /* \"RoamingDataManagement.sol\":276:329  mapping(address => string) public operatorsAddrToName */\n    tag_75:\n      mstore(0x20, 0x02)\n      dup1\n      0x00\n      mstore\n      keccak256(0x00, 0x40)\n      0x00\n      swap2\n      pop\n      swap1\n      pop\n      dup1\n      sload\n      tag_239\n      swap1\n      tag_133\n      jump\t// in\n    tag_239:\n      dup1\n      0x1f\n      add\n      0x20\n      dup1\n      swap2\n      div\n      mul\n      0x20\n      add\n      mload(0x40)\n      swap1\n      dup2\n      add\n      0x40\n      mstore\n      dup1\n      swap3\n      swap2\n      swap1\n      dup2\n      dup2\n      mstore\n      0x20\n      add\n      dup3\n      dup1\n      sload\n      tag_240\n      swap1\n      tag_133\n      jump\t// in\n    tag_240:\n      dup1\n      iszero\n      tag_241\n      jumpi\n      dup1\n      0x1f\n      lt\n      tag_242\n      jumpi\n      0x0100\n      dup1\n      dup4\n      sload\n      div\n      mul\n      dup4\n      mstore\n      swap2\n      0x20\n      add\n      swap2\n      jump(tag_241)\n    tag_242:\n      dup3\n      add\n      swap2\n      swap1\n      0x00\n      mstore\n      keccak256(0x00, 0x20)\n      swap1\n    tag_243:\n      dup2\n      sload\n      dup2\n      mstore\n      swap1\n      0x01\n      add\n      swap1\n      0x20\n      add\n      dup1\n      dup4\n      gt\n      tag_243\n      jumpi\n      dup3\n      swap1\n      sub\n      0x1f\n      and\n      dup3\n      add\n      swap2\n    tag_241:\n      pop\n      pop\n      pop\n      pop\n      pop\n      dup2\n      jump\t// out\n        /* \"RoamingDataManagement.sol\":1140:1185  mapping(address => string[]) public userTable */\n    tag_81:\n      mstore(0x20, 0x07)\n      dup2\n      0x00\n      mstore\n      keccak256(0x00, 0x40)\n      dup2\n      dup2\n      sload\n      dup2\n      lt\n      tag_244\n      jumpi\n      0x00\n      dup1\n      revert\n    tag_244:\n      swap1\n      0x00\n      mstore\n      keccak256(0x00, 0x20)\n      add\n      0x00\n      swap2\n      pop\n      swap2\n      pop\n      pop\n      dup1\n      sload\n      tag_246\n      swap1\n      tag_133\n      jump\t// in\n    tag_246:\n      dup1\n      0x1f\n      add\n      0x20\n      dup1\n      swap2\n      div\n      mul\n      0x20\n      add\n      mload(0x40)\n      swap1\n      dup2\n      add\n      0x40\n      mstore\n      dup1\n      swap3\n      swap2\n      swap1\n      dup2\n      dup2\n      mstore\n      0x20\n      add\n      dup3\n      dup1\n      sload\n      tag_247\n      swap1\n      tag_133\n      jump\t// in\n    tag_247:\n      dup1\n      iszero\n      tag_248\n      jumpi\n      dup1\n      0x1f\n      lt\n      tag_249\n      jumpi\n      0x0100\n      dup1\n      dup4\n      sload\n      div\n      mul\n      dup4\n      mstore\n      swap2\n      0x20\n      add\n      swap2\n      jump(tag_248)\n    tag_249:\n      dup3\n      add\n      swap2\n      swap1\n      0x00\n      mstore\n      keccak256(0x00, 0x20)\n      swap1\n    tag_250:\n      dup2\n      sload\n      dup2\n      mstore\n      swap1\n      0x01\n      add\n      swap1\n      0x20\n      add\n      dup1\n      dup4\n      gt\n      tag_250\n      jumpi\n      dup3\n      swap1\n      sub\n      0x1f\n      and\n      dup3\n      add\n      swap2\n    tag_248:\n      pop\n      pop\n      pop\n      pop\n      pop\n      dup2\n      jump\t// out\n        /* \"RoamingDataManagement.sol\":235:269  address[] public operatorAddresses */\n    tag_86:\n      0x01\n      dup2\n      dup2\n      sload\n      dup2\n      lt\n      tag_251\n      jumpi\n      0x00\n      dup1\n      revert\n    tag_251:\n      swap1\n      0x00\n      mstore\n      keccak256(0x00, 0x20)\n      add\n      0x00\n      swap2\n      pop\n      sload\n      swap1\n      0x0100\n      exp\n      swap1\n      div\n      0xffffffffffffffffffffffffffffffffffffffff\n      and\n      dup2\n      jump\t// out\n        /* \"RoamingDataManagement.sol\":7283:7457  function transfer(address payable _to, uint _amount) public {... */\n    tag_93:\n        /* \"RoamingDataManagement.sol\":7354:7366  bool success */\n      0x00\n        /* \"RoamingDataManagement.sol\":7372:7375  _to */\n      dup3\n        /* \"RoamingDataManagement.sol\":7372:7380  _to.call */\n      0xffffffffffffffffffffffffffffffffffffffff\n      and\n        /* \"RoamingDataManagement.sol\":7388:7395  _amount */\n      dup3\n        /* \"RoamingDataManagement.sol\":7372:7400  _to.call{value: _amount}(\"\") */\n      mload(0x40)\n      tag_254\n      swap1\n      tag_255\n      jump\t// in\n    tag_254:\n      0x00\n      mload(0x40)\n      dup1\n      dup4\n      sub\n      dup2\n      dup6\n      dup8\n      gas\n      call\n      swap3\n      pop\n      pop\n      pop\n      returndatasize\n      dup1\n      0x00\n      dup2\n      eq\n      tag_258\n      jumpi\n      mload(0x40)\n      swap2\n      pop\n      and(add(returndatasize, 0x3f), not(0x1f))\n      dup3\n      add\n      0x40\n      mstore\n      returndatasize\n      dup3\n      mstore\n      returndatasize\n      0x00\n      0x20\n      dup5\n      add\n      returndatacopy\n      jump(tag_257)\n    tag_258:\n      0x60\n      swap2\n      pop\n    tag_257:\n      pop\n        /* \"RoamingDataManagement.sol\":7353:7400  (bool success, ) = _to.call{value: _amount}(\"\") */\n      pop\n      swap1\n      pop\n        /* \"RoamingDataManagement.sol\":7418:7425  success */\n      dup1\n        /* \"RoamingDataManagement.sol\":7410:7450  require(success, \"Failed to send Ether\") */\n      tag_259\n      jumpi\n      mload(0x40)\n      0x08c379a000000000000000000000000000000000000000000000000000000000\n      dup2\n      mstore\n      0x04\n      add\n      tag_260\n      swap1\n      tag_261\n      jump\t// in\n    tag_260:\n      mload(0x40)\n      dup1\n      swap2\n      sub\n      swap1\n      revert\n    tag_259:\n        /* \"RoamingDataManagement.sol\":7343:7457  {... */\n      pop\n        /* \"RoamingDataManagement.sol\":7283:7457  function transfer(address payable _to, uint _amount) public {... */\n      pop\n      pop\n      jump\t// out\n        /* \"RoamingDataManagement.sol\":5726:5920  function dataSummaryExists(string memory imsi, string memory homeOperator) public view returns(bool) {... */\n    tag_97:\n        /* \"RoamingDataManagement.sol\":5821:5825  bool */\n      0x00\n        /* \"RoamingDataManagement.sol\":5911:5912  0 */\n      dup1\n        /* \"RoamingDataManagement.sol\":5846:5866  numOfUserDataEntries */\n      0x09\n        /* \"RoamingDataManagement.sol\":5846:5901  numOfUserDataEntries[operatorsNameToAddr[homeOperator]] */\n      0x00\n        /* \"RoamingDataManagement.sol\":5867:5886  operatorsNameToAddr */\n      0x03\n        /* \"RoamingDataManagement.sol\":5887:5899  homeOperator */\n      dup6\n        /* \"RoamingDataManagement.sol\":5867:5900  operatorsNameToAddr[homeOperator] */\n      mload(0x40)\n      tag_263\n      swap2\n      swap1\n      tag_176\n      jump\t// in\n    tag_263:\n      swap1\n      dup2\n      mstore\n      0x20\n      add\n      mload(0x40)\n      dup1\n      swap2\n      sub\n      swap1\n      keccak256\n      0x00\n      swap1\n      sload\n      swap1\n      0x0100\n      exp\n      swap1\n      div\n      0xffffffffffffffffffffffffffffffffffffffff\n      and\n        /* \"RoamingDataManagement.sol\":5846:5901  numOfUserDataEntries[operatorsNameToAddr[homeOperator]] */\n      0xffffffffffffffffffffffffffffffffffffffff\n      and\n      0xffffffffffffffffffffffffffffffffffffffff\n      and\n      dup2\n      mstore\n      0x20\n      add\n      swap1\n      dup2\n      mstore\n      0x20\n      add\n      0x00\n      keccak256\n        /* \"RoamingDataManagement.sol\":5902:5906  imsi */\n      dup5\n        /* \"RoamingDataManagement.sol\":5846:5907  numOfUserDataEntries[operatorsNameToAddr[homeOperator]][imsi] */\n      mload(0x40)\n      tag_264\n      swap2\n      swap1\n      tag_176\n      jump\t// in\n    tag_264:\n      swap1\n      dup2\n      mstore\n      0x20\n      add\n      mload(0x40)\n      dup1\n      swap2\n      sub\n      swap1\n      keccak256\n      sload\n        /* \"RoamingDataManagement.sol\":5846:5912  numOfUserDataEntries[operatorsNameToAddr[homeOperator]][imsi] == 0 */\n      eq\n        /* \"RoamingDataManagement.sol\":5844:5913  !(numOfUserDataEntries[operatorsNameToAddr[homeOperator]][imsi] == 0) */\n      iszero\n        /* \"RoamingDataManagement.sol\":5837:5913  return !(numOfUserDataEntries[operatorsNameToAddr[homeOperator]][imsi] == 0) */\n      swap1\n      pop\n        /* \"RoamingDataManagement.sol\":5726:5920  function dataSummaryExists(string memory imsi, string memory homeOperator) public view returns(bool) {... */\n      swap3\n      swap2\n      pop\n      pop\n      jump\t// out\n        /* \"RoamingDataManagement.sol\":3157:5720  function uploadUserDataSummary(string memory imsi, string memory number, string memory serviceProvider,... */\n    tag_104:\n        /* \"RoamingDataManagement.sol\":3489:3513  address visitingOperator */\n      0x00\n        /* \"RoamingDataManagement.sol\":3516:3526  msg.sender */\n      caller\n        /* \"RoamingDataManagement.sol\":3489:3526  address visitingOperator = msg.sender */\n      swap1\n      pop\n        /* \"RoamingDataManagement.sol\":3599:3600  0 */\n      0x00\n        /* \"RoamingDataManagement.sol\":3550:3569  operatorsAddrToName */\n      0x02\n        /* \"RoamingDataManagement.sol\":3550:3587  operatorsAddrToName[visitingOperator] */\n      0x00\n        /* \"RoamingDataManagement.sol\":3570:3586  visitingOperator */\n      dup4\n        /* \"RoamingDataManagement.sol\":3550:3587  operatorsAddrToName[visitingOperator] */\n      0xffffffffffffffffffffffffffffffffffffffff\n      and\n      0xffffffffffffffffffffffffffffffffffffffff\n      and\n      dup2\n      mstore\n      0x20\n      add\n      swap1\n      dup2\n      mstore\n      0x20\n      add\n      0x00\n      keccak256\n        /* \"RoamingDataManagement.sol\":3544:3595  bytes(operatorsAddrToName[visitingOperator]).length */\n      dup1\n      sload\n      tag_266\n      swap1\n      tag_133\n      jump\t// in\n    tag_266:\n      swap1\n      pop\n        /* \"RoamingDataManagement.sol\":3544:3600  bytes(operatorsAddrToName[visitingOperator]).length != 0 */\n      sub\n        /* \"RoamingDataManagement.sol\":3536:3601  require(bytes(operatorsAddrToName[visitingOperator]).length != 0) */\n      tag_267\n      jumpi\n      0x00\n      dup1\n      revert\n    tag_267:\n        /* \"RoamingDataManagement.sol\":3667:3670  0x0 */\n      0x00\n        /* \"RoamingDataManagement.sol\":3619:3671  operatorsNameToAddr[serviceProvider] != address(0x0) */\n      0xffffffffffffffffffffffffffffffffffffffff\n      and\n        /* \"RoamingDataManagement.sol\":3619:3638  operatorsNameToAddr */\n      0x03\n        /* \"RoamingDataManagement.sol\":3639:3654  serviceProvider */\n      dup12\n        /* \"RoamingDataManagement.sol\":3619:3655  operatorsNameToAddr[serviceProvider] */\n      mload(0x40)\n      tag_268\n      swap2\n      swap1\n      tag_176\n      jump\t// in\n    tag_268:\n      swap1\n      dup2\n      mstore\n      0x20\n      add\n      mload(0x40)\n      dup1\n      swap2\n      sub\n      swap1\n      keccak256\n      0x00\n      swap1\n      sload\n      swap1\n      0x0100\n      exp\n      swap1\n      div\n      0xffffffffffffffffffffffffffffffffffffffff\n      and\n        /* \"RoamingDataManagement.sol\":3619:3671  operatorsNameToAddr[serviceProvider] != address(0x0) */\n      0xffffffffffffffffffffffffffffffffffffffff\n      and\n      sub\n        /* \"RoamingDataManagement.sol\":3611:3672  require(operatorsNameToAddr[serviceProvider] != address(0x0)) */\n      tag_269\n      jumpi\n      0x00\n      dup1\n      revert\n    tag_269:\n        /* \"RoamingDataManagement.sol\":3736:3741  1 wei */\n      0x01\n        /* \"RoamingDataManagement.sol\":3690:3694  bank */\n      0x0a\n        /* \"RoamingDataManagement.sol\":3690:3732  bank[operatorsNameToAddr[serviceProvider]] */\n      0x00\n        /* \"RoamingDataManagement.sol\":3695:3714  operatorsNameToAddr */\n      0x03\n        /* \"RoamingDataManagement.sol\":3715:3730  serviceProvider */\n      dup14\n        /* \"RoamingDataManagement.sol\":3695:3731  operatorsNameToAddr[serviceProvider] */\n      mload(0x40)\n      tag_270\n      swap2\n      swap1\n      tag_176\n      jump\t// in\n    tag_270:\n      swap1\n      dup2\n      mstore\n      0x20\n      add\n      mload(0x40)\n      dup1\n      swap2\n      sub\n      swap1\n      keccak256\n      0x00\n      swap1\n      sload\n      swap1\n      0x0100\n      exp\n      swap1\n      div\n      0xffffffffffffffffffffffffffffffffffffffff\n      and\n        /* \"RoamingDataManagement.sol\":3690:3732  bank[operatorsNameToAddr[serviceProvider]] */\n      0xffffffffffffffffffffffffffffffffffffffff\n      and\n      0xffffffffffffffffffffffffffffffffffffffff\n      and\n      dup2\n      mstore\n      0x20\n      add\n      swap1\n      dup2\n      mstore\n      0x20\n      add\n      0x00\n      keccak256\n      sload\n        /* \"RoamingDataManagement.sol\":3690:3741  bank[operatorsNameToAddr[serviceProvider]] >= 1 wei */\n      lt\n      iszero\n        /* \"RoamingDataManagement.sol\":3682:3742  require(bank[operatorsNameToAddr[serviceProvider]] >= 1 wei) */\n      tag_271\n      jumpi\n      0x00\n      dup1\n      revert\n    tag_271:\n        /* \"RoamingDataManagement.sol\":3753:3834  mapping(string => mapping(address => UserDataSummary)) storage userToSummaryTable */\n      0x00\n        /* \"RoamingDataManagement.sol\":3837:3853  dataSummaryTable */\n      0x08\n        /* \"RoamingDataManagement.sol\":3837:3891  dataSummaryTable[operatorsNameToAddr[serviceProvider]] */\n      0x00\n        /* \"RoamingDataManagement.sol\":3854:3873  operatorsNameToAddr */\n      0x03\n        /* \"RoamingDataManagement.sol\":3874:3889  serviceProvider */\n      dup14\n        /* \"RoamingDataManagement.sol\":3854:3890  operatorsNameToAddr[serviceProvider] */\n      mload(0x40)\n      tag_272\n      swap2\n      swap1\n      tag_176\n      jump\t// in\n    tag_272:\n      swap1\n      dup2\n      mstore\n      0x20\n      add\n      mload(0x40)\n      dup1\n      swap2\n      sub\n      swap1\n      keccak256\n      0x00\n      swap1\n      sload\n      swap1\n      0x0100\n      exp\n      swap1\n      div\n      0xffffffffffffffffffffffffffffffffffffffff\n      and\n        /* \"RoamingDataManagement.sol\":3837:3891  dataSummaryTable[operatorsNameToAddr[serviceProvider]] */\n      0xffffffffffffffffffffffffffffffffffffffff\n      and\n      0xffffffffffffffffffffffffffffffffffffffff\n      and\n      dup2\n      mstore\n      0x20\n      add\n      swap1\n      dup2\n      mstore\n      0x20\n      add\n      0x00\n      keccak256\n        /* \"RoamingDataManagement.sol\":3753:3891  mapping(string => mapping(address => UserDataSummary)) storage userToSummaryTable = dataSummaryTable[operatorsNameToAddr[serviceProvider]] */\n      swap1\n      pop\n        /* \"RoamingDataManagement.sol\":3906:3946  dataSummaryExists(imsi, serviceProvider) */\n      tag_273\n        /* \"RoamingDataManagement.sol\":3924:3928  imsi */\n      dup14\n        /* \"RoamingDataManagement.sol\":3930:3945  serviceProvider */\n      dup13\n        /* \"RoamingDataManagement.sol\":3906:3923  dataSummaryExists */\n      tag_97\n        /* \"RoamingDataManagement.sol\":3906:3946  dataSummaryExists(imsi, serviceProvider) */\n      jump\t// in\n    tag_273:\n        /* \"RoamingDataManagement.sol\":3901:4111  if (!dataSummaryExists(imsi, serviceProvider)) {... */\n      tag_274\n      jumpi\n        /* \"RoamingDataManagement.sol\":3962:3971  userTable */\n      0x07\n        /* \"RoamingDataManagement.sol\":3962:4009  userTable[operatorsNameToAddr[serviceProvider]] */\n      0x00\n        /* \"RoamingDataManagement.sol\":3972:3991  operatorsNameToAddr */\n      0x03\n        /* \"RoamingDataManagement.sol\":3992:4007  serviceProvider */\n      dup14\n        /* \"RoamingDataManagement.sol\":3972:4008  operatorsNameToAddr[serviceProvider] */\n      mload(0x40)\n      tag_275\n      swap2\n      swap1\n      tag_176\n      jump\t// in\n    tag_275:\n      swap1\n      dup2\n      mstore\n      0x20\n      add\n      mload(0x40)\n      dup1\n      swap2\n      sub\n      swap1\n      keccak256\n      0x00\n      swap1\n      sload\n      swap1\n      0x0100\n      exp\n      swap1\n      div\n      0xffffffffffffffffffffffffffffffffffffffff\n      and\n        /* \"RoamingDataManagement.sol\":3962:4009  userTable[operatorsNameToAddr[serviceProvider]] */\n      0xffffffffffffffffffffffffffffffffffffffff\n      and\n      0xffffffffffffffffffffffffffffffffffffffff\n      and\n      dup2\n      mstore\n      0x20\n      add\n      swap1\n      dup2\n      mstore\n      0x20\n      add\n      0x00\n      keccak256\n        /* \"RoamingDataManagement.sol\":4015:4019  imsi */\n      dup14\n        /* \"RoamingDataManagement.sol\":3962:4020  userTable[operatorsNameToAddr[serviceProvider]].push(imsi) */\n      swap1\n      dup1\n      0x01\n      dup2\n      sload\n      add\n      dup1\n      dup3\n      sstore\n      dup1\n      swap2\n      pop\n      pop\n      0x01\n      swap1\n      sub\n      swap1\n      0x00\n      mstore\n      keccak256(0x00, 0x20)\n      add\n      0x00\n      swap1\n      swap2\n      swap1\n      swap2\n      swap1\n      swap2\n      pop\n      swap1\n      dup2\n      tag_277\n      swap2\n      swap1\n      tag_238\n      jump\t// in\n    tag_277:\n      pop\n        /* \"RoamingDataManagement.sol\":4034:4054  numOfUserDataEntries */\n      0x09\n        /* \"RoamingDataManagement.sol\":4034:4092  numOfUserDataEntries[operatorsNameToAddr[serviceProvider]] */\n      0x00\n        /* \"RoamingDataManagement.sol\":4055:4074  operatorsNameToAddr */\n      0x03\n        /* \"RoamingDataManagement.sol\":4075:4090  serviceProvider */\n      dup14\n        /* \"RoamingDataManagement.sol\":4055:4091  operatorsNameToAddr[serviceProvider] */\n      mload(0x40)\n      tag_278\n      swap2\n      swap1\n      tag_176\n      jump\t// in\n    tag_278:\n      swap1\n      dup2\n      mstore\n      0x20\n      add\n      mload(0x40)\n      dup1\n      swap2\n      sub\n      swap1\n      keccak256\n      0x00\n      swap1\n      sload\n      swap1\n      0x0100\n      exp\n      swap1\n      div\n      0xffffffffffffffffffffffffffffffffffffffff\n      and\n        /* \"RoamingDataManagement.sol\":4034:4092  numOfUserDataEntries[operatorsNameToAddr[serviceProvider]] */\n      0xffffffffffffffffffffffffffffffffffffffff\n      and\n      0xffffffffffffffffffffffffffffffffffffffff\n      and\n      dup2\n      mstore\n      0x20\n      add\n      swap1\n      dup2\n      mstore\n      0x20\n      add\n      0x00\n      keccak256\n        /* \"RoamingDataManagement.sol\":4093:4097  imsi */\n      dup14\n        /* \"RoamingDataManagement.sol\":4034:4098  numOfUserDataEntries[operatorsNameToAddr[serviceProvider]][imsi] */\n      mload(0x40)\n      tag_279\n      swap2\n      swap1\n      tag_176\n      jump\t// in\n    tag_279:\n      swap1\n      dup2\n      mstore\n      0x20\n      add\n      mload(0x40)\n      dup1\n      swap2\n      sub\n      swap1\n      keccak256\n      0x00\n        /* \"RoamingDataManagement.sol\":4034:4100  numOfUserDataEntries[operatorsNameToAddr[serviceProvider]][imsi]++ */\n      dup2\n      sload\n      dup1\n      swap3\n      swap2\n      swap1\n      tag_280\n      swap1\n      tag_196\n      jump\t// in\n    tag_280:\n      swap2\n      swap1\n      pop\n      sstore\n      pop\n        /* \"RoamingDataManagement.sol\":3901:4111  if (!dataSummaryExists(imsi, serviceProvider)) {... */\n    tag_274:\n        /* \"RoamingDataManagement.sol\":4121:4201  mapping(address => UserDataSummary) storage usageSummaryTablePerVisitingOperator */\n      0x00\n        /* \"RoamingDataManagement.sol\":4204:4222  userToSummaryTable */\n      dup2\n        /* \"RoamingDataManagement.sol\":4223:4227  imsi */\n      dup15\n        /* \"RoamingDataManagement.sol\":4204:4228  userToSummaryTable[imsi] */\n      mload(0x40)\n      tag_281\n      swap2\n      swap1\n      tag_176\n      jump\t// in\n    tag_281:\n      swap1\n      dup2\n      mstore\n      0x20\n      add\n      mload(0x40)\n      dup1\n      swap2\n      sub\n      swap1\n      keccak256\n        /* \"RoamingDataManagement.sol\":4121:4228  mapping(address => UserDataSummary) storage usageSummaryTablePerVisitingOperator = userToSummaryTable[imsi] */\n      swap1\n      pop\n        /* \"RoamingDataManagement.sol\":4300:4304  imsi */\n      dup14\n        /* \"RoamingDataManagement.sol\":4238:4274  usageSummaryTablePerVisitingOperator */\n      dup2\n        /* \"RoamingDataManagement.sol\":4238:4292  usageSummaryTablePerVisitingOperator[visitingOperator] */\n      0x00\n        /* \"RoamingDataManagement.sol\":4275:4291  visitingOperator */\n      dup6\n        /* \"RoamingDataManagement.sol\":4238:4292  usageSummaryTablePerVisitingOperator[visitingOperator] */\n      0xffffffffffffffffffffffffffffffffffffffff\n      and\n      0xffffffffffffffffffffffffffffffffffffffff\n      and\n      dup2\n      mstore\n      0x20\n      add\n      swap1\n      dup2\n      mstore\n      0x20\n      add\n      0x00\n      keccak256\n        /* \"RoamingDataManagement.sol\":4238:4297  usageSummaryTablePerVisitingOperator[visitingOperator].imsi */\n      0x00\n      add\n        /* \"RoamingDataManagement.sol\":4238:4304  usageSummaryTablePerVisitingOperator[visitingOperator].imsi = imsi */\n      swap1\n      dup2\n      tag_282\n      swap2\n      swap1\n      tag_238\n      jump\t// in\n    tag_282:\n      pop\n        /* \"RoamingDataManagement.sol\":4378:4384  number */\n      dup13\n        /* \"RoamingDataManagement.sol\":4314:4350  usageSummaryTablePerVisitingOperator */\n      dup2\n        /* \"RoamingDataManagement.sol\":4314:4368  usageSummaryTablePerVisitingOperator[visitingOperator] */\n      0x00\n        /* \"RoamingDataManagement.sol\":4351:4367  visitingOperator */\n      dup6\n        /* \"RoamingDataManagement.sol\":4314:4368  usageSummaryTablePerVisitingOperator[visitingOperator] */\n      0xffffffffffffffffffffffffffffffffffffffff\n      and\n      0xffffffffffffffffffffffffffffffffffffffff\n      and\n      dup2\n      mstore\n      0x20\n      add\n      swap1\n      dup2\n      mstore\n      0x20\n      add\n      0x00\n      keccak256\n        /* \"RoamingDataManagement.sol\":4314:4375  usageSummaryTablePerVisitingOperator[visitingOperator].number */\n      0x01\n      add\n        /* \"RoamingDataManagement.sol\":4314:4384  usageSummaryTablePerVisitingOperator[visitingOperator].number = number */\n      swap1\n      dup2\n      tag_283\n      swap2\n      swap1\n      tag_238\n      jump\t// in\n    tag_283:\n      pop\n        /* \"RoamingDataManagement.sol\":4467:4482  serviceProvider */\n      dup12\n        /* \"RoamingDataManagement.sol\":4394:4430  usageSummaryTablePerVisitingOperator */\n      dup2\n        /* \"RoamingDataManagement.sol\":4394:4448  usageSummaryTablePerVisitingOperator[visitingOperator] */\n      0x00\n        /* \"RoamingDataManagement.sol\":4431:4447  visitingOperator */\n      dup6\n        /* \"RoamingDataManagement.sol\":4394:4448  usageSummaryTablePerVisitingOperator[visitingOperator] */\n      0xffffffffffffffffffffffffffffffffffffffff\n      and\n      0xffffffffffffffffffffffffffffffffffffffff\n      and\n      dup2\n      mstore\n      0x20\n      add\n      swap1\n      dup2\n      mstore\n      0x20\n      add\n      0x00\n      keccak256\n        /* \"RoamingDataManagement.sol\":4394:4464  usageSummaryTablePerVisitingOperator[visitingOperator].serviceProvider */\n      0x02\n      add\n        /* \"RoamingDataManagement.sol\":4394:4482  usageSummaryTablePerVisitingOperator[visitingOperator].serviceProvider = serviceProvider */\n      swap1\n      dup2\n      tag_284\n      swap2\n      swap1\n      tag_238\n      jump\t// in\n    tag_284:\n      pop\n        /* \"RoamingDataManagement.sol\":4564:4578  voiceCallUsage */\n      dup11\n        /* \"RoamingDataManagement.sol\":4492:4528  usageSummaryTablePerVisitingOperator */\n      dup2\n        /* \"RoamingDataManagement.sol\":4492:4546  usageSummaryTablePerVisitingOperator[visitingOperator] */\n      0x00\n        /* \"RoamingDataManagement.sol\":4529:4545  visitingOperator */\n      dup6\n        /* \"RoamingDataManagement.sol\":4492:4546  usageSummaryTablePerVisitingOperator[visitingOperator] */\n      0xffffffffffffffffffffffffffffffffffffffff\n      and\n      0xffffffffffffffffffffffffffffffffffffffff\n      and\n      dup2\n      mstore\n      0x20\n      add\n      swap1\n      dup2\n      mstore\n      0x20\n      add\n      0x00\n      keccak256\n        /* \"RoamingDataManagement.sol\":4492:4561  usageSummaryTablePerVisitingOperator[visitingOperator].voiceCallUsage */\n      0x07\n      add\n        /* \"RoamingDataManagement.sol\":4492:4578  usageSummaryTablePerVisitingOperator[visitingOperator].voiceCallUsage = voiceCallUsage */\n      dup2\n      swap1\n      sstore\n      pop\n        /* \"RoamingDataManagement.sol\":4659:4672  internetUsage */\n      dup10\n        /* \"RoamingDataManagement.sol\":4588:4624  usageSummaryTablePerVisitingOperator */\n      dup2\n        /* \"RoamingDataManagement.sol\":4588:4642  usageSummaryTablePerVisitingOperator[visitingOperator] */\n      0x00\n        /* \"RoamingDataManagement.sol\":4625:4641  visitingOperator */\n      dup6\n        /* \"RoamingDataManagement.sol\":4588:4642  usageSummaryTablePerVisitingOperator[visitingOperator] */\n      0xffffffffffffffffffffffffffffffffffffffff\n      and\n      0xffffffffffffffffffffffffffffffffffffffff\n      and\n      dup2\n      mstore\n      0x20\n      add\n      swap1\n      dup2\n      mstore\n      0x20\n      add\n      0x00\n      keccak256\n        /* \"RoamingDataManagement.sol\":4588:4656  usageSummaryTablePerVisitingOperator[visitingOperator].internetUsage */\n      0x08\n      add\n        /* \"RoamingDataManagement.sol\":4588:4672  usageSummaryTablePerVisitingOperator[visitingOperator].internetUsage = internetUsage */\n      dup2\n      swap1\n      sstore\n      pop\n        /* \"RoamingDataManagement.sol\":4748:4756  smsUsage */\n      dup9\n        /* \"RoamingDataManagement.sol\":4682:4718  usageSummaryTablePerVisitingOperator */\n      dup2\n        /* \"RoamingDataManagement.sol\":4682:4736  usageSummaryTablePerVisitingOperator[visitingOperator] */\n      0x00\n        /* \"RoamingDataManagement.sol\":4719:4735  visitingOperator */\n      dup6\n        /* \"RoamingDataManagement.sol\":4682:4736  usageSummaryTablePerVisitingOperator[visitingOperator] */\n      0xffffffffffffffffffffffffffffffffffffffff\n      and\n      0xffffffffffffffffffffffffffffffffffffffff\n      and\n      dup2\n      mstore\n      0x20\n      add\n      swap1\n      dup2\n      mstore\n      0x20\n      add\n      0x00\n      keccak256\n        /* \"RoamingDataManagement.sol\":4682:4745  usageSummaryTablePerVisitingOperator[visitingOperator].smsUsage */\n      0x09\n      add\n        /* \"RoamingDataManagement.sol\":4682:4756  usageSummaryTablePerVisitingOperator[visitingOperator].smsUsage = smsUsage */\n      dup2\n      swap1\n      sstore\n      pop\n        /* \"RoamingDataManagement.sol\":4841:4857  serviceStartTime */\n      dup8\n        /* \"RoamingDataManagement.sol\":4767:4803  usageSummaryTablePerVisitingOperator */\n      dup2\n        /* \"RoamingDataManagement.sol\":4767:4821  usageSummaryTablePerVisitingOperator[visitingOperator] */\n      0x00\n        /* \"RoamingDataManagement.sol\":4804:4820  visitingOperator */\n      dup6\n        /* \"RoamingDataManagement.sol\":4767:4821  usageSummaryTablePerVisitingOperator[visitingOperator] */\n      0xffffffffffffffffffffffffffffffffffffffff\n      and\n      0xffffffffffffffffffffffffffffffffffffffff\n      and\n      dup2\n      mstore\n      0x20\n      add\n      swap1\n      dup2\n      mstore\n      0x20\n      add\n      0x00\n      keccak256\n        /* \"RoamingDataManagement.sol\":4767:4838  usageSummaryTablePerVisitingOperator[visitingOperator].serviceStartTime */\n      0x03\n      add\n        /* \"RoamingDataManagement.sol\":4767:4857  usageSummaryTablePerVisitingOperator[visitingOperator].serviceStartTime = serviceStartTime */\n      dup2\n      swap1\n      sstore\n      pop\n        /* \"RoamingDataManagement.sol\":4942:4959  internetStartTime */\n      dup7\n        /* \"RoamingDataManagement.sol\":4867:4903  usageSummaryTablePerVisitingOperator */\n      dup2\n        /* \"RoamingDataManagement.sol\":4867:4921  usageSummaryTablePerVisitingOperator[visitingOperator] */\n      0x00\n        /* \"RoamingDataManagement.sol\":4904:4920  visitingOperator */\n      dup6\n        /* \"RoamingDataManagement.sol\":4867:4921  usageSummaryTablePerVisitingOperator[visitingOperator] */\n      0xffffffffffffffffffffffffffffffffffffffff\n      and\n      0xffffffffffffffffffffffffffffffffffffffff\n      and\n      dup2\n      mstore\n      0x20\n      add\n      swap1\n      dup2\n      mstore\n      0x20\n      add\n      0x00\n      keccak256\n        /* \"RoamingDataManagement.sol\":4867:4939  usageSummaryTablePerVisitingOperator[visitingOperator].internetStartTime */\n      0x06\n      add\n        /* \"RoamingDataManagement.sol\":4867:4959  usageSummaryTablePerVisitingOperator[visitingOperator].internetStartTime = internetStartTime */\n      dup2\n      swap1\n      sstore\n      pop\n        /* \"RoamingDataManagement.sol\":5045:5063  voiceCallStartTime */\n      dup6\n        /* \"RoamingDataManagement.sol\":4969:5005  usageSummaryTablePerVisitingOperator */\n      dup2\n        /* \"RoamingDataManagement.sol\":4969:5023  usageSummaryTablePerVisitingOperator[visitingOperator] */\n      0x00\n        /* \"RoamingDataManagement.sol\":5006:5022  visitingOperator */\n      dup6\n        /* \"RoamingDataManagement.sol\":4969:5023  usageSummaryTablePerVisitingOperator[visitingOperator] */\n      0xffffffffffffffffffffffffffffffffffffffff\n      and\n      0xffffffffffffffffffffffffffffffffffffffff\n      and\n      dup2\n      mstore\n      0x20\n      add\n      swap1\n      dup2\n      mstore\n      0x20\n      add\n      0x00\n      keccak256\n        /* \"RoamingDataManagement.sol\":4969:5042  usageSummaryTablePerVisitingOperator[visitingOperator].voiceCallStartTime */\n      0x04\n      add\n        /* \"RoamingDataManagement.sol\":4969:5063  usageSummaryTablePerVisitingOperator[visitingOperator].voiceCallStartTime = voiceCallStartTime */\n      dup2\n      swap1\n      sstore\n      pop\n        /* \"RoamingDataManagement.sol\":5143:5155  smsStartTime */\n      dup5\n        /* \"RoamingDataManagement.sol\":5073:5109  usageSummaryTablePerVisitingOperator */\n      dup2\n        /* \"RoamingDataManagement.sol\":5073:5127  usageSummaryTablePerVisitingOperator[visitingOperator] */\n      0x00\n        /* \"RoamingDataManagement.sol\":5110:5126  visitingOperator */\n      dup6\n        /* \"RoamingDataManagement.sol\":5073:5127  usageSummaryTablePerVisitingOperator[visitingOperator] */\n      0xffffffffffffffffffffffffffffffffffffffff\n      and\n      0xffffffffffffffffffffffffffffffffffffffff\n      and\n      dup2\n      mstore\n      0x20\n      add\n      swap1\n      dup2\n      mstore\n      0x20\n      add\n      0x00\n      keccak256\n        /* \"RoamingDataManagement.sol\":5073:5140  usageSummaryTablePerVisitingOperator[visitingOperator].smsStartTime */\n      0x05\n      add\n        /* \"RoamingDataManagement.sol\":5073:5155  usageSummaryTablePerVisitingOperator[visitingOperator].smsStartTime = smsStartTime */\n      dup2\n      swap1\n      sstore\n      pop\n        /* \"RoamingDataManagement.sol\":5279:5284  1 wei */\n      0x01\n        /* \"RoamingDataManagement.sol\":5233:5237  bank */\n      0x0a\n        /* \"RoamingDataManagement.sol\":5233:5275  bank[operatorsNameToAddr[serviceProvider]] */\n      0x00\n        /* \"RoamingDataManagement.sol\":5238:5257  operatorsNameToAddr */\n      0x03\n        /* \"RoamingDataManagement.sol\":5258:5273  serviceProvider */\n      dup16\n        /* \"RoamingDataManagement.sol\":5238:5274  operatorsNameToAddr[serviceProvider] */\n      mload(0x40)\n      tag_285\n      swap2\n      swap1\n      tag_176\n      jump\t// in\n    tag_285:\n      swap1\n      dup2\n      mstore\n      0x20\n      add\n      mload(0x40)\n      dup1\n      swap2\n      sub\n      swap1\n      keccak256\n      0x00\n      swap1\n      sload\n      swap1\n      0x0100\n      exp\n      swap1\n      div\n      0xffffffffffffffffffffffffffffffffffffffff\n      and\n        /* \"RoamingDataManagement.sol\":5233:5275  bank[operatorsNameToAddr[serviceProvider]] */\n      0xffffffffffffffffffffffffffffffffffffffff\n      and\n      0xffffffffffffffffffffffffffffffffffffffff\n      and\n      dup2\n      mstore\n      0x20\n      add\n      swap1\n      dup2\n      mstore\n      0x20\n      add\n      0x00\n      keccak256\n      0x00\n        /* \"RoamingDataManagement.sol\":5233:5284  bank[operatorsNameToAddr[serviceProvider]] -= 1 wei */\n      dup3\n      dup3\n      sload\n      tag_286\n      swap2\n      swap1\n      tag_287\n      jump\t// in\n    tag_286:\n      swap3\n      pop\n      pop\n      dup2\n      swap1\n      sstore\n      pop\n        /* \"RoamingDataManagement.sol\":5320:5325  1 wei */\n      0x01\n        /* \"RoamingDataManagement.sol\":5294:5298  bank */\n      0x0a\n        /* \"RoamingDataManagement.sol\":5294:5316  bank[visitingOperator] */\n      0x00\n        /* \"RoamingDataManagement.sol\":5299:5315  visitingOperator */\n      dup6\n        /* \"RoamingDataManagement.sol\":5294:5316  bank[visitingOperator] */\n      0xffffffffffffffffffffffffffffffffffffffff\n      and\n      0xffffffffffffffffffffffffffffffffffffffff\n      and\n      dup2\n      mstore\n      0x20\n      add\n      swap1\n      dup2\n      mstore\n      0x20\n      add\n      0x00\n      keccak256\n      0x00\n        /* \"RoamingDataManagement.sol\":5294:5325  bank[visitingOperator] += 1 wei */\n      dup3\n      dup3\n      sload\n      tag_288\n      swap2\n      swap1\n      tag_289\n      jump\t// in\n    tag_288:\n      swap3\n      pop\n      pop\n      dup2\n      swap1\n      sstore\n      pop\n        /* \"RoamingDataManagement.sol\":5335:5377  transfer(payable(visitingOperator), 1 wei) */\n      tag_290\n        /* \"RoamingDataManagement.sol\":5352:5368  visitingOperator */\n      dup4\n        /* \"RoamingDataManagement.sol\":5371:5376  1 wei */\n      0x01\n        /* \"RoamingDataManagement.sol\":5335:5343  transfer */\n      tag_93\n        /* \"RoamingDataManagement.sol\":5335:5377  transfer(payable(visitingOperator), 1 wei) */\n      jump\t// in\n    tag_290:\n        /* \"RoamingDataManagement.sol\":5388:5411  BillingRecord memory br */\n      0x00\n        /* \"RoamingDataManagement.sol\":5414:5679  BillingRecord({... */\n      mload(0x40)\n      dup1\n      0xc0\n      add\n      0x40\n      mstore\n      dup1\n        /* \"RoamingDataManagement.sol\":5445:5464  operatorsNameToAddr */\n      0x03\n        /* \"RoamingDataManagement.sol\":5465:5480  serviceProvider */\n      dup16\n        /* \"RoamingDataManagement.sol\":5445:5481  operatorsNameToAddr[serviceProvider] */\n      mload(0x40)\n      tag_291\n      swap2\n      swap1\n      tag_176\n      jump\t// in\n    tag_291:\n      swap1\n      dup2\n      mstore\n      0x20\n      add\n      mload(0x40)\n      dup1\n      swap2\n      sub\n      swap1\n      keccak256\n      0x00\n      swap1\n      sload\n      swap1\n      0x0100\n      exp\n      swap1\n      div\n      0xffffffffffffffffffffffffffffffffffffffff\n      and\n        /* \"RoamingDataManagement.sol\":5414:5679  BillingRecord({... */\n      0xffffffffffffffffffffffffffffffffffffffff\n      and\n      dup2\n      mstore\n      0x20\n      add\n        /* \"RoamingDataManagement.sol\":5498:5514  visitingOperator */\n      dup6\n        /* \"RoamingDataManagement.sol\":5414:5679  BillingRecord({... */\n      0xffffffffffffffffffffffffffffffffffffffff\n      and\n      dup2\n      mstore\n      0x20\n      add\n        /* \"RoamingDataManagement.sol\":5535:5550  serviceProvider */\n      dup15\n        /* \"RoamingDataManagement.sol\":5414:5679  BillingRecord({... */\n      dup2\n      mstore\n      0x20\n      add\n        /* \"RoamingDataManagement.sol\":5571:5590  operatorsAddrToName */\n      0x02\n        /* \"RoamingDataManagement.sol\":5571:5608  operatorsAddrToName[visitingOperator] */\n      0x00\n        /* \"RoamingDataManagement.sol\":5591:5607  visitingOperator */\n      dup8\n        /* \"RoamingDataManagement.sol\":5571:5608  operatorsAddrToName[visitingOperator] */\n      0xffffffffffffffffffffffffffffffffffffffff\n      and\n      0xffffffffffffffffffffffffffffffffffffffff\n      and\n      dup2\n      mstore\n      0x20\n      add\n      swap1\n      dup2\n      mstore\n      0x20\n      add\n      0x00\n      keccak256\n        /* \"RoamingDataManagement.sol\":5414:5679  BillingRecord({... */\n      dup1\n      sload\n      tag_292\n      swap1\n      tag_133\n      jump\t// in\n    tag_292:\n      dup1\n      0x1f\n      add\n      0x20\n      dup1\n      swap2\n      div\n      mul\n      0x20\n      add\n      mload(0x40)\n      swap1\n      dup2\n      add\n      0x40\n      mstore\n      dup1\n      swap3\n      swap2\n      swap1\n      dup2\n      dup2\n      mstore\n      0x20\n      add\n      dup3\n      dup1\n      sload\n      tag_293\n      swap1\n      tag_133\n      jump\t// in\n    tag_293:\n      dup1\n      iszero\n      tag_294\n      jumpi\n      dup1\n      0x1f\n      lt\n      tag_295\n      jumpi\n      0x0100\n      dup1\n      dup4\n      sload\n      div\n      mul\n      dup4\n      mstore\n      swap2\n      0x20\n      add\n      swap2\n      jump(tag_294)\n    tag_295:\n      dup3\n      add\n      swap2\n      swap1\n      0x00\n      mstore\n      keccak256(0x00, 0x20)\n      swap1\n    tag_296:\n      dup2\n      sload\n      dup2\n      mstore\n      swap1\n      0x01\n      add\n      swap1\n      0x20\n      add\n      dup1\n      dup4\n      gt\n      tag_296\n      jumpi\n      dup3\n      swap1\n      sub\n      0x1f\n      and\n      dup3\n      add\n      swap2\n    tag_294:\n      pop\n      pop\n      pop\n      pop\n      pop\n      dup2\n      mstore\n      0x20\n      add\n        /* \"RoamingDataManagement.sol\":5626:5631  1 wei */\n      0x01\n        /* \"RoamingDataManagement.sol\":5414:5679  BillingRecord({... */\n      dup2\n      mstore\n      0x20\n      add\n        /* \"RoamingDataManagement.sol\":5652:5668  currentTimestamp */\n      dup7\n        /* \"RoamingDataManagement.sol\":5414:5679  BillingRecord({... */\n      dup2\n      mstore\n      pop\n        /* \"RoamingDataManagement.sol\":5388:5679  BillingRecord memory br = BillingRecord({... */\n      swap1\n      pop\n        /* \"RoamingDataManagement.sol\":5690:5704  billingHistory */\n      0x06\n        /* \"RoamingDataManagement.sol\":5710:5712  br */\n      dup2\n        /* \"RoamingDataManagement.sol\":5690:5713  billingHistory.push(br) */\n      swap1\n      dup1\n      0x01\n      dup2\n      sload\n      add\n      dup1\n      dup3\n      sstore\n      dup1\n      swap2\n      pop\n      pop\n      0x01\n      swap1\n      sub\n      swap1\n      0x00\n      mstore\n      keccak256(0x00, 0x20)\n      swap1\n      0x06\n      mul\n      add\n      0x00\n      swap1\n      swap2\n      swap1\n      swap2\n      swap1\n      swap2\n      pop\n      0x00\n      dup3\n      add\n      mload\n      dup2\n      0x00\n      add\n      exp(0x0100, 0x00)\n      dup2\n      sload\n      dup2\n      0xffffffffffffffffffffffffffffffffffffffff\n      mul\n      not\n      and\n      swap1\n      dup4\n      0xffffffffffffffffffffffffffffffffffffffff\n      and\n      mul\n      or\n      swap1\n      sstore\n      pop\n      0x20\n      dup3\n      add\n      mload\n      dup2\n      0x01\n      add\n      exp(0x0100, 0x00)\n      dup2\n      sload\n      dup2\n      0xffffffffffffffffffffffffffffffffffffffff\n      mul\n      not\n      and\n      swap1\n      dup4\n      0xffffffffffffffffffffffffffffffffffffffff\n      and\n      mul\n      or\n      swap1\n      sstore\n      pop\n      0x40\n      dup3\n      add\n      mload\n      dup2\n      0x02\n      add\n      swap1\n      dup2\n      tag_298\n      swap2\n      swap1\n      tag_238\n      jump\t// in\n    tag_298:\n      pop\n      0x60\n      dup3\n      add\n      mload\n      dup2\n      0x03\n      add\n      swap1\n      dup2\n      tag_299\n      swap2\n      swap1\n      tag_238\n      jump\t// in\n    tag_299:\n      pop\n      0x80\n      dup3\n      add\n      mload\n      dup2\n      0x04\n      add\n      sstore\n      0xa0\n      dup3\n      add\n      mload\n      dup2\n      0x05\n      add\n      sstore\n      pop\n      pop\n        /* \"RoamingDataManagement.sol\":3478:5720  {... */\n      pop\n      pop\n      pop\n      pop\n        /* \"RoamingDataManagement.sol\":3157:5720  function uploadUserDataSummary(string memory imsi, string memory number, string memory serviceProvider,... */\n      pop\n      pop\n      pop\n      pop\n      pop\n      pop\n      pop\n      pop\n      pop\n      pop\n      pop\n      jump\t// out\n        /* \"RoamingDataManagement.sol\":1830:1929  function balance() external view returns(uint256)... */\n    tag_107:\n        /* \"RoamingDataManagement.sol\":1871:1878  uint256 */\n      0x00\n        /* \"RoamingDataManagement.sol\":1901:1922  address(this).balance */\n      selfbalance\n        /* \"RoamingDataManagement.sol\":1894:1922  return address(this).balance */\n      swap1\n      pop\n        /* \"RoamingDataManagement.sol\":1830:1929  function balance() external view returns(uint256)... */\n      swap1\n      jump\t// out\n        /* \"RoamingDataManagement.sol\":394:446  mapping(address => string) public operatorSecretKeys */\n    tag_112:\n      mstore(0x20, 0x04)\n      dup1\n      0x00\n      mstore\n      keccak256(0x00, 0x40)\n      0x00\n      swap2\n      pop\n      swap1\n      pop\n      dup1\n      sload\n      tag_301\n      swap1\n      tag_133\n      jump\t// in\n    tag_301:\n      dup1\n      0x1f\n      add\n      0x20\n      dup1\n      swap2\n      div\n      mul\n      0x20\n      add\n      mload(0x40)\n      swap1\n      dup2\n      add\n      0x40\n      mstore\n      dup1\n      swap3\n      swap2\n      swap1\n      dup2\n      dup2\n      mstore\n      0x20\n      add\n      dup3\n      dup1\n      sload\n      tag_302\n      swap1\n      tag_133\n      jump\t// in\n    tag_302:\n      dup1\n      iszero\n      tag_303\n      jumpi\n      dup1\n      0x1f\n      lt\n      tag_304\n      jumpi\n      0x0100\n      dup1\n      dup4\n      sload\n      div\n      mul\n      dup4\n      mstore\n      swap2\n      0x20\n      add\n      swap2\n      jump(tag_303)\n    tag_304:\n      dup3\n      add\n      swap2\n      swap1\n      0x00\n      mstore\n      keccak256(0x00, 0x20)\n      swap1\n    tag_305:\n      dup2\n      sload\n      dup2\n      mstore\n      swap1\n      0x01\n      add\n      swap1\n      0x20\n      add\n      dup1\n      dup4\n      gt\n      tag_305\n      jumpi\n      dup3\n      swap1\n      sub\n      0x1f\n      and\n      dup3\n      add\n      swap2\n    tag_303:\n      pop\n      pop\n      pop\n      pop\n      pop\n      dup2\n      jump\t// out\n        /* \"RoamingDataManagement.sol\":1666:1746  function deposit() public payable... */\n    tag_115:\n        /* \"RoamingDataManagement.sol\":1730:1739  msg.value */\n      callvalue\n        /* \"RoamingDataManagement.sol\":1714:1726  totalDeposit */\n      0x05\n      0x00\n        /* \"RoamingDataManagement.sol\":1714:1739  totalDeposit += msg.value */\n      dup3\n      dup3\n      sload\n      tag_307\n      swap2\n      swap1\n      tag_289\n      jump\t// in\n    tag_307:\n      swap3\n      pop\n      pop\n      dup2\n      swap1\n      sstore\n      pop\n        /* \"RoamingDataManagement.sol\":1666:1746  function deposit() public payable... */\n      jump\t// out\n        /* \"RoamingDataManagement.sol\":454:478  uint public totalDeposit */\n    tag_118:\n      sload(0x05)\n      dup2\n      jump\t// out\n        /* \"RoamingDataManagement.sol\":335:388  mapping(string => address) public operatorsNameToAddr */\n    tag_124:\n      0x03\n      dup2\n      dup1\n      mload\n      0x20\n      dup2\n      add\n      dup3\n      add\n      dup1\n      mload\n      dup5\n      dup3\n      mstore\n      0x20\n      dup4\n      add\n      0x20\n      dup6\n      add\n      keccak256\n      dup2\n      dup4\n      mstore\n      dup1\n      swap6\n      pop\n      pop\n      pop\n      pop\n      pop\n      pop\n      0x00\n      swap2\n      pop\n      sload\n      swap1\n      0x0100\n      exp\n      swap1\n      div\n      0xffffffffffffffffffffffffffffffffffffffff\n      and\n      dup2\n      jump\t// out\n        /* \"RoamingDataManagement.sol\":1935:3151  function registerRoamingOperator(address operatorAddr, string memory operatorName, uint256 currentTimestamp, string memory secretKey) public payable {... */\n    tag_129:\n        /* \"RoamingDataManagement.sol\":2381:2382  0 */\n      0x00\n        /* \"RoamingDataManagement.sol\":2336:2355  operatorsAddrToName */\n      0x02\n        /* \"RoamingDataManagement.sol\":2336:2369  operatorsAddrToName[operatorAddr] */\n      0x00\n        /* \"RoamingDataManagement.sol\":2356:2368  operatorAddr */\n      dup7\n        /* \"RoamingDataManagement.sol\":2336:2369  operatorsAddrToName[operatorAddr] */\n      0xffffffffffffffffffffffffffffffffffffffff\n      and\n      0xffffffffffffffffffffffffffffffffffffffff\n      and\n      dup2\n      mstore\n      0x20\n      add\n      swap1\n      dup2\n      mstore\n      0x20\n      add\n      0x00\n      keccak256\n        /* \"RoamingDataManagement.sol\":2330:2377  bytes(operatorsAddrToName[operatorAddr]).length */\n      dup1\n      sload\n      tag_309\n      swap1\n      tag_133\n      jump\t// in\n    tag_309:\n      swap1\n      pop\n        /* \"RoamingDataManagement.sol\":2330:2382  bytes(operatorsAddrToName[operatorAddr]).length == 0 */\n      eq\n        /* \"RoamingDataManagement.sol\":2330:2436  bytes(operatorsAddrToName[operatorAddr]).length == 0 && operatorsNameToAddr[operatorName] == address(0x00) */\n      dup1\n      iszero\n      tag_310\n      jumpi\n      pop\n        /* \"RoamingDataManagement.sol\":2431:2435  0x00 */\n      0x00\n        /* \"RoamingDataManagement.sol\":2386:2436  operatorsNameToAddr[operatorName] == address(0x00) */\n      0xffffffffffffffffffffffffffffffffffffffff\n      and\n        /* \"RoamingDataManagement.sol\":2386:2405  operatorsNameToAddr */\n      0x03\n        /* \"RoamingDataManagement.sol\":2406:2418  operatorName */\n      dup5\n        /* \"RoamingDataManagement.sol\":2386:2419  operatorsNameToAddr[operatorName] */\n      mload(0x40)\n      tag_311\n      swap2\n      swap1\n      tag_176\n      jump\t// in\n    tag_311:\n      swap1\n      dup2\n      mstore\n      0x20\n      add\n      mload(0x40)\n      dup1\n      swap2\n      sub\n      swap1\n      keccak256\n      0x00\n      swap1\n      sload\n      swap1\n      0x0100\n      exp\n      swap1\n      div\n      0xffffffffffffffffffffffffffffffffffffffff\n      and\n        /* \"RoamingDataManagement.sol\":2386:2436  operatorsNameToAddr[operatorName] == address(0x00) */\n      0xffffffffffffffffffffffffffffffffffffffff\n      and\n      eq\n        /* \"RoamingDataManagement.sol\":2330:2436  bytes(operatorsAddrToName[operatorAddr]).length == 0 && operatorsNameToAddr[operatorName] == address(0x00) */\n    tag_310:\n        /* \"RoamingDataManagement.sol\":2326:3145  if (bytes(operatorsAddrToName[operatorAddr]).length == 0 && operatorsNameToAddr[operatorName] == address(0x00)) {... */\n      iszero\n      tag_312\n      jumpi\n        /* \"RoamingDataManagement.sol\":2473:2480  100 wei */\n      0x64\n        /* \"RoamingDataManagement.sol\":2460:2469  msg.value */\n      callvalue\n        /* \"RoamingDataManagement.sol\":2460:2480  msg.value >= 100 wei */\n      lt\n      iszero\n        /* \"RoamingDataManagement.sol\":2452:2481  require(msg.value >= 100 wei) */\n      tag_313\n      jumpi\n      0x00\n      dup1\n      revert\n    tag_313:\n        /* \"RoamingDataManagement.sol\":2495:2511  serviceProviders */\n      0x00\n        /* \"RoamingDataManagement.sol\":2517:2529  operatorName */\n      dup4\n        /* \"RoamingDataManagement.sol\":2495:2530  serviceProviders.push(operatorName) */\n      swap1\n      dup1\n      0x01\n      dup2\n      sload\n      add\n      dup1\n      dup3\n      sstore\n      dup1\n      swap2\n      pop\n      pop\n      0x01\n      swap1\n      sub\n      swap1\n      0x00\n      mstore\n      keccak256(0x00, 0x20)\n      add\n      0x00\n      swap1\n      swap2\n      swap1\n      swap2\n      swap1\n      swap2\n      pop\n      swap1\n      dup2\n      tag_315\n      swap2\n      swap1\n      tag_238\n      jump\t// in\n    tag_315:\n      pop\n        /* \"RoamingDataManagement.sol\":2544:2561  operatorAddresses */\n      0x01\n        /* \"RoamingDataManagement.sol\":2567:2579  operatorAddr */\n      dup5\n        /* \"RoamingDataManagement.sol\":2544:2580  operatorAddresses.push(operatorAddr) */\n      swap1\n      dup1\n      0x01\n      dup2\n      sload\n      add\n      dup1\n      dup3\n      sstore\n      dup1\n      swap2\n      pop\n      pop\n      0x01\n      swap1\n      sub\n      swap1\n      0x00\n      mstore\n      keccak256(0x00, 0x20)\n      add\n      0x00\n      swap1\n      swap2\n      swap1\n      swap2\n      swap1\n      swap2\n      0x0100\n      exp\n      dup2\n      sload\n      dup2\n      0xffffffffffffffffffffffffffffffffffffffff\n      mul\n      not\n      and\n      swap1\n      dup4\n      0xffffffffffffffffffffffffffffffffffffffff\n      and\n      mul\n      or\n      swap1\n      sstore\n      pop\n        /* \"RoamingDataManagement.sol\":2630:2642  operatorAddr */\n      dup4\n        /* \"RoamingDataManagement.sol\":2594:2613  operatorsNameToAddr */\n      0x03\n        /* \"RoamingDataManagement.sol\":2614:2626  operatorName */\n      dup5\n        /* \"RoamingDataManagement.sol\":2594:2627  operatorsNameToAddr[operatorName] */\n      mload(0x40)\n      tag_317\n      swap2\n      swap1\n      tag_176\n      jump\t// in\n    tag_317:\n      swap1\n      dup2\n      mstore\n      0x20\n      add\n      mload(0x40)\n      dup1\n      swap2\n      sub\n      swap1\n      keccak256\n      0x00\n        /* \"RoamingDataManagement.sol\":2594:2642  operatorsNameToAddr[operatorName] = operatorAddr */\n      0x0100\n      exp\n      dup2\n      sload\n      dup2\n      0xffffffffffffffffffffffffffffffffffffffff\n      mul\n      not\n      and\n      swap1\n      dup4\n      0xffffffffffffffffffffffffffffffffffffffff\n      and\n      mul\n      or\n      swap1\n      sstore\n      pop\n        /* \"RoamingDataManagement.sol\":2692:2704  operatorName */\n      dup3\n        /* \"RoamingDataManagement.sol\":2656:2675  operatorsAddrToName */\n      0x02\n        /* \"RoamingDataManagement.sol\":2656:2689  operatorsAddrToName[operatorAddr] */\n      0x00\n        /* \"RoamingDataManagement.sol\":2676:2688  operatorAddr */\n      dup7\n        /* \"RoamingDataManagement.sol\":2656:2689  operatorsAddrToName[operatorAddr] */\n      0xffffffffffffffffffffffffffffffffffffffff\n      and\n      0xffffffffffffffffffffffffffffffffffffffff\n      and\n      dup2\n      mstore\n      0x20\n      add\n      swap1\n      dup2\n      mstore\n      0x20\n      add\n      0x00\n      keccak256\n        /* \"RoamingDataManagement.sol\":2656:2704  operatorsAddrToName[operatorAddr] = operatorName */\n      swap1\n      dup2\n      tag_318\n      swap2\n      swap1\n      tag_238\n      jump\t// in\n    tag_318:\n      pop\n        /* \"RoamingDataManagement.sol\":2740:2749  msg.value */\n      callvalue\n        /* \"RoamingDataManagement.sol\":2718:2722  bank */\n      0x0a\n        /* \"RoamingDataManagement.sol\":2718:2736  bank[operatorAddr] */\n      0x00\n        /* \"RoamingDataManagement.sol\":2723:2735  operatorAddr */\n      dup7\n        /* \"RoamingDataManagement.sol\":2718:2736  bank[operatorAddr] */\n      0xffffffffffffffffffffffffffffffffffffffff\n      and\n      0xffffffffffffffffffffffffffffffffffffffff\n      and\n      dup2\n      mstore\n      0x20\n      add\n      swap1\n      dup2\n      mstore\n      0x20\n      add\n      0x00\n      keccak256\n      0x00\n        /* \"RoamingDataManagement.sol\":2718:2749  bank[operatorAddr] += msg.value */\n      dup3\n      dup3\n      sload\n      tag_319\n      swap2\n      swap1\n      tag_289\n      jump\t// in\n    tag_319:\n      swap3\n      pop\n      pop\n      dup2\n      swap1\n      sstore\n      pop\n        /* \"RoamingDataManagement.sol\":2763:2786  BillingRecord memory br */\n      0x00\n        /* \"RoamingDataManagement.sol\":2789:3042  BillingRecord({... */\n      mload(0x40)\n      dup1\n      0xc0\n      add\n      0x40\n      mstore\n      dup1\n        /* \"RoamingDataManagement.sol\":2824:2834  msg.sender */\n      caller\n        /* \"RoamingDataManagement.sol\":2789:3042  BillingRecord({... */\n      0xffffffffffffffffffffffffffffffffffffffff\n      and\n      dup2\n      mstore\n      0x20\n      add\n        /* \"RoamingDataManagement.sol\":2863:2867  this */\n      address\n        /* \"RoamingDataManagement.sol\":2789:3042  BillingRecord({... */\n      0xffffffffffffffffffffffffffffffffffffffff\n      and\n      dup2\n      mstore\n      0x20\n      add\n        /* \"RoamingDataManagement.sol\":2893:2912  operatorsAddrToName */\n      0x02\n        /* \"RoamingDataManagement.sol\":2893:2924  operatorsAddrToName[msg.sender] */\n      0x00\n        /* \"RoamingDataManagement.sol\":2913:2923  msg.sender */\n      caller\n        /* \"RoamingDataManagement.sol\":2893:2924  operatorsAddrToName[msg.sender] */\n      0xffffffffffffffffffffffffffffffffffffffff\n      and\n      0xffffffffffffffffffffffffffffffffffffffff\n      and\n      dup2\n      mstore\n      0x20\n      add\n      swap1\n      dup2\n      mstore\n      0x20\n      add\n      0x00\n      keccak256\n        /* \"RoamingDataManagement.sol\":2789:3042  BillingRecord({... */\n      dup1\n      sload\n      tag_320\n      swap1\n      tag_133\n      jump\t// in\n    tag_320:\n      dup1\n      0x1f\n      add\n      0x20\n      dup1\n      swap2\n      div\n      mul\n      0x20\n      add\n      mload(0x40)\n      swap1\n      dup2\n      add\n      0x40\n      mstore\n      dup1\n      swap3\n      swap2\n      swap1\n      dup2\n      dup2\n      mstore\n      0x20\n      add\n      dup3\n      dup1\n      sload\n      tag_321\n      swap1\n      tag_133\n      jump\t// in\n    tag_321:\n      dup1\n      iszero\n      tag_322\n      jumpi\n      dup1\n      0x1f\n      lt\n      tag_323\n      jumpi\n      0x0100\n      dup1\n      dup4\n      sload\n      div\n      mul\n      dup4\n      mstore\n      swap2\n      0x20\n      add\n      swap2\n      jump(tag_322)\n    tag_323:\n      dup3\n      add\n      swap2\n      swap1\n      0x00\n      mstore\n      keccak256(0x00, 0x20)\n      swap1\n    tag_324:\n      dup2\n      sload\n      dup2\n      mstore\n      swap1\n      0x01\n      add\n      swap1\n      0x20\n      add\n      dup1\n      dup4\n      gt\n      tag_324\n      jumpi\n      dup3\n      swap1\n      sub\n      0x1f\n      and\n      dup3\n      add\n      swap2\n    tag_322:\n      pop\n      pop\n      pop\n      pop\n      pop\n      dup2\n      mstore\n      0x20\n      add\n      mload(0x40)\n      dup1\n      0x40\n      add\n      0x40\n      mstore\n      dup1\n      0x04\n      dup2\n      mstore\n      0x20\n      add\n      0x42616e6b00000000000000000000000000000000000000000000000000000000\n      dup2\n      mstore\n      pop\n      dup2\n      mstore\n      0x20\n      add\n        /* \"RoamingDataManagement.sol\":2977:2986  msg.value */\n      callvalue\n        /* \"RoamingDataManagement.sol\":2789:3042  BillingRecord({... */\n      dup2\n      mstore\n      0x20\n      add\n        /* \"RoamingDataManagement.sol\":3011:3027  currentTimestamp */\n      dup5\n        /* \"RoamingDataManagement.sol\":2789:3042  BillingRecord({... */\n      dup2\n      mstore\n      pop\n        /* \"RoamingDataManagement.sol\":2763:3042  BillingRecord memory br = BillingRecord({... */\n      swap1\n      pop\n        /* \"RoamingDataManagement.sol\":3057:3071  billingHistory */\n      0x06\n        /* \"RoamingDataManagement.sol\":3077:3079  br */\n      dup2\n        /* \"RoamingDataManagement.sol\":3057:3080  billingHistory.push(br) */\n      swap1\n      dup1\n      0x01\n      dup2\n      sload\n      add\n      dup1\n      dup3\n      sstore\n      dup1\n      swap2\n      pop\n      pop\n      0x01\n      swap1\n      sub\n      swap1\n      0x00\n      mstore\n      keccak256(0x00, 0x20)\n      swap1\n      0x06\n      mul\n      add\n      0x00\n      swap1\n      swap2\n      swap1\n      swap2\n      swap1\n      swap2\n      pop\n      0x00\n      dup3\n      add\n      mload\n      dup2\n      0x00\n      add\n      exp(0x0100, 0x00)\n      dup2\n      sload\n      dup2\n      0xffffffffffffffffffffffffffffffffffffffff\n      mul\n      not\n      and\n      swap1\n      dup4\n      0xffffffffffffffffffffffffffffffffffffffff\n      and\n      mul\n      or\n      swap1\n      sstore\n      pop\n      0x20\n      dup3\n      add\n      mload\n      dup2\n      0x01\n      add\n      exp(0x0100, 0x00)\n      dup2\n      sload\n      dup2\n      0xffffffffffffffffffffffffffffffffffffffff\n      mul\n      not\n      and\n      swap1\n      dup4\n      0xffffffffffffffffffffffffffffffffffffffff\n      and\n      mul\n      or\n      swap1\n      sstore\n      pop\n      0x40\n      dup3\n      add\n      mload\n      dup2\n      0x02\n      add\n      swap1\n      dup2\n      tag_326\n      swap2\n      swap1\n      tag_238\n      jump\t// in\n    tag_326:\n      pop\n      0x60\n      dup3\n      add\n      mload\n      dup2\n      0x03\n      add\n      swap1\n      dup2\n      tag_327\n      swap2\n      swap1\n      tag_238\n      jump\t// in\n    tag_327:\n      pop\n      0x80\n      dup3\n      add\n      mload\n      dup2\n      0x04\n      add\n      sstore\n      0xa0\n      dup3\n      add\n      mload\n      dup2\n      0x05\n      add\n      sstore\n      pop\n      pop\n        /* \"RoamingDataManagement.sol\":3094:3134  uploadSecretKey(operatorAddr, secretKey) */\n      tag_328\n        /* \"RoamingDataManagement.sol\":3110:3122  operatorAddr */\n      dup6\n        /* \"RoamingDataManagement.sol\":3124:3133  secretKey */\n      dup4\n        /* \"RoamingDataManagement.sol\":3094:3109  uploadSecretKey */\n      tag_71\n        /* \"RoamingDataManagement.sol\":3094:3134  uploadSecretKey(operatorAddr, secretKey) */\n      jump\t// in\n    tag_328:\n        /* \"RoamingDataManagement.sol\":2438:3145  {... */\n      pop\n        /* \"RoamingDataManagement.sol\":2326:3145  if (bytes(operatorsAddrToName[operatorAddr]).length == 0 && operatorsNameToAddr[operatorName] == address(0x00)) {... */\n    tag_312:\n        /* \"RoamingDataManagement.sol\":1935:3151  function registerRoamingOperator(address operatorAddr, string memory operatorName, uint256 currentTimestamp, string memory secretKey) public payable {... */\n      pop\n      pop\n      pop\n      pop\n      jump\t// out\n    tag_162:\n      mload(0x40)\n      dup1\n      0x0140\n      add\n      0x40\n      mstore\n      dup1\n      0x60\n      dup2\n      mstore\n      0x20\n      add\n      0x60\n      dup2\n      mstore\n      0x20\n      add\n      0x60\n      dup2\n      mstore\n      0x20\n      add\n      0x00\n      dup2\n      mstore\n      0x20\n      add\n      0x00\n      dup2\n      mstore\n      0x20\n      add\n      0x00\n      dup2\n      mstore\n      0x20\n      add\n      0x00\n      dup2\n      mstore\n      0x20\n      add\n      0x00\n      dup2\n      mstore\n      0x20\n      add\n      0x00\n      dup2\n      mstore\n      0x20\n      add\n      0x00\n      dup2\n      mstore\n      pop\n      swap1\n      jump\t// out\n        /* \"#utility.yul\":7:82   */\n    tag_329:\n        /* \"#utility.yul\":40:46   */\n      0x00\n        /* \"#utility.yul\":73:75   */\n      0x40\n        /* \"#utility.yul\":67:76   */\n      mload\n        /* \"#utility.yul\":57:76   */\n      swap1\n      pop\n        /* \"#utility.yul\":7:82   */\n      swap1\n      jump\t// out\n        /* \"#utility.yul\":88:205   */\n    tag_330:\n        /* \"#utility.yul\":197:198   */\n      0x00\n        /* \"#utility.yul\":194:195   */\n      dup1\n        /* \"#utility.yul\":187:199   */\n      revert\n        /* \"#utility.yul\":211:328   */\n    tag_331:\n        /* \"#utility.yul\":320:321   */\n      0x00\n        /* \"#utility.yul\":317:318   */\n      dup1\n        /* \"#utility.yul\":310:322   */\n      revert\n        /* \"#utility.yul\":334:411   */\n    tag_332:\n        /* \"#utility.yul\":371:378   */\n      0x00\n        /* \"#utility.yul\":400:405   */\n      dup2\n        /* \"#utility.yul\":389:405   */\n      swap1\n      pop\n        /* \"#utility.yul\":334:411   */\n      swap2\n      swap1\n      pop\n      jump\t// out\n        /* \"#utility.yul\":417:539   */\n    tag_333:\n        /* \"#utility.yul\":490:514   */\n      tag_415\n        /* \"#utility.yul\":508:513   */\n      dup2\n        /* \"#utility.yul\":490:514   */\n      tag_332\n      jump\t// in\n    tag_415:\n        /* \"#utility.yul\":483:488   */\n      dup2\n        /* \"#utility.yul\":480:515   */\n      eq\n        /* \"#utility.yul\":470:533   */\n      tag_416\n      jumpi\n        /* \"#utility.yul\":529:530   */\n      0x00\n        /* \"#utility.yul\":526:527   */\n      dup1\n        /* \"#utility.yul\":519:531   */\n      revert\n        /* \"#utility.yul\":470:533   */\n    tag_416:\n        /* \"#utility.yul\":417:539   */\n      pop\n      jump\t// out\n        /* \"#utility.yul\":545:684   */\n    tag_334:\n        /* \"#utility.yul\":591:596   */\n      0x00\n        /* \"#utility.yul\":629:635   */\n      dup2\n        /* \"#utility.yul\":616:636   */\n      calldataload\n        /* \"#utility.yul\":607:636   */\n      swap1\n      pop\n        /* \"#utility.yul\":645:678   */\n      tag_418\n        /* \"#utility.yul\":672:677   */\n      dup2\n        /* \"#utility.yul\":645:678   */\n      tag_333\n      jump\t// in\n    tag_418:\n        /* \"#utility.yul\":545:684   */\n      swap3\n      swap2\n      pop\n      pop\n      jump\t// out\n        /* \"#utility.yul\":690:1019   */\n    tag_31:\n        /* \"#utility.yul\":749:755   */\n      0x00\n        /* \"#utility.yul\":798:800   */\n      0x20\n        /* \"#utility.yul\":786:795   */\n      dup3\n        /* \"#utility.yul\":777:784   */\n      dup5\n        /* \"#utility.yul\":773:796   */\n      sub\n        /* \"#utility.yul\":769:801   */\n      slt\n        /* \"#utility.yul\":766:885   */\n      iszero\n      tag_420\n      jumpi\n        /* \"#utility.yul\":804:883   */\n      tag_421\n      tag_330\n      jump\t// in\n    tag_421:\n        /* \"#utility.yul\":766:885   */\n    tag_420:\n        /* \"#utility.yul\":924:925   */\n      0x00\n        /* \"#utility.yul\":949:1002   */\n      tag_422\n        /* \"#utility.yul\":994:1001   */\n      dup5\n        /* \"#utility.yul\":985:991   */\n      dup3\n        /* \"#utility.yul\":974:983   */\n      dup6\n        /* \"#utility.yul\":970:992   */\n      add\n        /* \"#utility.yul\":949:1002   */\n      tag_334\n      jump\t// in\n    tag_422:\n        /* \"#utility.yul\":939:1002   */\n      swap2\n      pop\n        /* \"#utility.yul\":895:1012   */\n      pop\n        /* \"#utility.yul\":690:1019   */\n      swap3\n      swap2\n      pop\n      pop\n      jump\t// out\n        /* \"#utility.yul\":1025:1124   */\n    tag_335:\n        /* \"#utility.yul\":1077:1083   */\n      0x00\n        /* \"#utility.yul\":1111:1116   */\n      dup2\n        /* \"#utility.yul\":1105:1117   */\n      mload\n        /* \"#utility.yul\":1095:1117   */\n      swap1\n      pop\n        /* \"#utility.yul\":1025:1124   */\n      swap2\n      swap1\n      pop\n      jump\t// out\n        /* \"#utility.yul\":1130:1299   */\n    tag_336:\n        /* \"#utility.yul\":1214:1225   */\n      0x00\n        /* \"#utility.yul\":1248:1254   */\n      dup3\n        /* \"#utility.yul\":1243:1246   */\n      dup3\n        /* \"#utility.yul\":1236:1255   */\n      mstore\n        /* \"#utility.yul\":1288:1292   */\n      0x20\n        /* \"#utility.yul\":1283:1286   */\n      dup3\n        /* \"#utility.yul\":1279:1293   */\n      add\n        /* \"#utility.yul\":1264:1293   */\n      swap1\n      pop\n        /* \"#utility.yul\":1130:1299   */\n      swap3\n      swap2\n      pop\n      pop\n      jump\t// out\n        /* \"#utility.yul\":1305:1551   */\n    tag_337:\n        /* \"#utility.yul\":1386:1387   */\n      0x00\n        /* \"#utility.yul\":1396:1509   */\n    tag_426:\n        /* \"#utility.yul\":1410:1416   */\n      dup4\n        /* \"#utility.yul\":1407:1408   */\n      dup2\n        /* \"#utility.yul\":1404:1417   */\n      lt\n        /* \"#utility.yul\":1396:1509   */\n      iszero\n      tag_428\n      jumpi\n        /* \"#utility.yul\":1495:1496   */\n      dup1\n        /* \"#utility.yul\":1490:1493   */\n      dup3\n        /* \"#utility.yul\":1486:1497   */\n      add\n        /* \"#utility.yul\":1480:1498   */\n      mload\n        /* \"#utility.yul\":1476:1477   */\n      dup2\n        /* \"#utility.yul\":1471:1474   */\n      dup5\n        /* \"#utility.yul\":1467:1478   */\n      add\n        /* \"#utility.yul\":1460:1499   */\n      mstore\n        /* \"#utility.yul\":1432:1434   */\n      0x20\n        /* \"#utility.yul\":1429:1430   */\n      dup2\n        /* \"#utility.yul\":1425:1435   */\n      add\n        /* \"#utility.yul\":1420:1435   */\n      swap1\n      pop\n        /* \"#utility.yul\":1396:1509   */\n      jump(tag_426)\n    tag_428:\n        /* \"#utility.yul\":1543:1544   */\n      0x00\n        /* \"#utility.yul\":1534:1540   */\n      dup5\n        /* \"#utility.yul\":1529:1532   */\n      dup5\n        /* \"#utility.yul\":1525:1541   */\n      add\n        /* \"#utility.yul\":1518:1545   */\n      mstore\n        /* \"#utility.yul\":1367:1551   */\n      pop\n        /* \"#utility.yul\":1305:1551   */\n      pop\n      pop\n      pop\n      jump\t// out\n        /* \"#utility.yul\":1557:1659   */\n    tag_338:\n        /* \"#utility.yul\":1598:1604   */\n      0x00\n        /* \"#utility.yul\":1649:1651   */\n      0x1f\n        /* \"#utility.yul\":1645:1652   */\n      not\n        /* \"#utility.yul\":1640:1642   */\n      0x1f\n        /* \"#utility.yul\":1633:1638   */\n      dup4\n        /* \"#utility.yul\":1629:1643   */\n      add\n        /* \"#utility.yul\":1625:1653   */\n      and\n        /* \"#utility.yul\":1615:1653   */\n      swap1\n      pop\n        /* \"#utility.yul\":1557:1659   */\n      swap2\n      swap1\n      pop\n      jump\t// out\n        /* \"#utility.yul\":1665:2042   */\n    tag_339:\n        /* \"#utility.yul\":1753:1756   */\n      0x00\n        /* \"#utility.yul\":1781:1820   */\n      tag_431\n        /* \"#utility.yul\":1814:1819   */\n      dup3\n        /* \"#utility.yul\":1781:1820   */\n      tag_335\n      jump\t// in\n    tag_431:\n        /* \"#utility.yul\":1836:1907   */\n      tag_432\n        /* \"#utility.yul\":1900:1906   */\n      dup2\n        /* \"#utility.yul\":1895:1898   */\n      dup6\n        /* \"#utility.yul\":1836:1907   */\n      tag_336\n      jump\t// in\n    tag_432:\n        /* \"#utility.yul\":1829:1907   */\n      swap4\n      pop\n        /* \"#utility.yul\":1916:1981   */\n      tag_433\n        /* \"#utility.yul\":1974:1980   */\n      dup2\n        /* \"#utility.yul\":1969:1972   */\n      dup6\n        /* \"#utility.yul\":1962:1966   */\n      0x20\n        /* \"#utility.yul\":1955:1960   */\n      dup7\n        /* \"#utility.yul\":1951:1967   */\n      add\n        /* \"#utility.yul\":1916:1981   */\n      tag_337\n      jump\t// in\n    tag_433:\n        /* \"#utility.yul\":2006:2035   */\n      tag_434\n        /* \"#utility.yul\":2028:2034   */\n      dup2\n        /* \"#utility.yul\":2006:2035   */\n      tag_338\n      jump\t// in\n    tag_434:\n        /* \"#utility.yul\":2001:2004   */\n      dup5\n        /* \"#utility.yul\":1997:2036   */\n      add\n        /* \"#utility.yul\":1990:2036   */\n      swap2\n      pop\n        /* \"#utility.yul\":1757:2042   */\n      pop\n        /* \"#utility.yul\":1665:2042   */\n      swap3\n      swap2\n      pop\n      pop\n      jump\t// out\n        /* \"#utility.yul\":2048:2361   */\n    tag_34:\n        /* \"#utility.yul\":2161:2165   */\n      0x00\n        /* \"#utility.yul\":2199:2201   */\n      0x20\n        /* \"#utility.yul\":2188:2197   */\n      dup3\n        /* \"#utility.yul\":2184:2202   */\n      add\n        /* \"#utility.yul\":2176:2202   */\n      swap1\n      pop\n        /* \"#utility.yul\":2248:2257   */\n      dup2\n        /* \"#utility.yul\":2242:2246   */\n      dup2\n        /* \"#utility.yul\":2238:2258   */\n      sub\n        /* \"#utility.yul\":2234:2235   */\n      0x00\n        /* \"#utility.yul\":2223:2232   */\n      dup4\n        /* \"#utility.yul\":2219:2236   */\n      add\n        /* \"#utility.yul\":2212:2259   */\n      mstore\n        /* \"#utility.yul\":2276:2354   */\n      tag_436\n        /* \"#utility.yul\":2349:2353   */\n      dup2\n        /* \"#utility.yul\":2340:2346   */\n      dup5\n        /* \"#utility.yul\":2276:2354   */\n      tag_339\n      jump\t// in\n    tag_436:\n        /* \"#utility.yul\":2268:2354   */\n      swap1\n      pop\n        /* \"#utility.yul\":2048:2361   */\n      swap3\n      swap2\n      pop\n      pop\n      jump\t// out\n        /* \"#utility.yul\":2367:2493   */\n    tag_340:\n        /* \"#utility.yul\":2404:2411   */\n      0x00\n        /* \"#utility.yul\":2444:2486   */\n      0xffffffffffffffffffffffffffffffffffffffff\n        /* \"#utility.yul\":2437:2442   */\n      dup3\n        /* \"#utility.yul\":2433:2487   */\n      and\n        /* \"#utility.yul\":2422:2487   */\n      swap1\n      pop\n        /* \"#utility.yul\":2367:2493   */\n      swap2\n      swap1\n      pop\n      jump\t// out\n        /* \"#utility.yul\":2499:2595   */\n    tag_341:\n        /* \"#utility.yul\":2536:2543   */\n      0x00\n        /* \"#utility.yul\":2565:2589   */\n      tag_439\n        /* \"#utility.yul\":2583:2588   */\n      dup3\n        /* \"#utility.yul\":2565:2589   */\n      tag_340\n      jump\t// in\n    tag_439:\n        /* \"#utility.yul\":2554:2589   */\n      swap1\n      pop\n        /* \"#utility.yul\":2499:2595   */\n      swap2\n      swap1\n      pop\n      jump\t// out\n        /* \"#utility.yul\":2601:2719   */\n    tag_342:\n        /* \"#utility.yul\":2688:2712   */\n      tag_441\n        /* \"#utility.yul\":2706:2711   */\n      dup2\n        /* \"#utility.yul\":2688:2712   */\n      tag_341\n      jump\t// in\n    tag_441:\n        /* \"#utility.yul\":2683:2686   */\n      dup3\n        /* \"#utility.yul\":2676:2713   */\n      mstore\n        /* \"#utility.yul\":2601:2719   */\n      pop\n      pop\n      jump\t// out\n        /* \"#utility.yul\":2725:2843   */\n    tag_343:\n        /* \"#utility.yul\":2812:2836   */\n      tag_443\n        /* \"#utility.yul\":2830:2835   */\n      dup2\n        /* \"#utility.yul\":2812:2836   */\n      tag_332\n      jump\t// in\n    tag_443:\n        /* \"#utility.yul\":2807:2810   */\n      dup3\n        /* \"#utility.yul\":2800:2837   */\n      mstore\n        /* \"#utility.yul\":2725:2843   */\n      pop\n      pop\n      jump\t// out\n        /* \"#utility.yul\":2849:3806   */\n    tag_40:\n        /* \"#utility.yul\":3122:3126   */\n      0x00\n        /* \"#utility.yul\":3160:3163   */\n      0xc0\n        /* \"#utility.yul\":3149:3158   */\n      dup3\n        /* \"#utility.yul\":3145:3164   */\n      add\n        /* \"#utility.yul\":3137:3164   */\n      swap1\n      pop\n        /* \"#utility.yul\":3174:3245   */\n      tag_445\n        /* \"#utility.yul\":3242:3243   */\n      0x00\n        /* \"#utility.yul\":3231:3240   */\n      dup4\n        /* \"#utility.yul\":3227:3244   */\n      add\n        /* \"#utility.yul\":3218:3224   */\n      dup10\n        /* \"#utility.yul\":3174:3245   */\n      tag_342\n      jump\t// in\n    tag_445:\n        /* \"#utility.yul\":3255:3327   */\n      tag_446\n        /* \"#utility.yul\":3323:3325   */\n      0x20\n        /* \"#utility.yul\":3312:3321   */\n      dup4\n        /* \"#utility.yul\":3308:3326   */\n      add\n        /* \"#utility.yul\":3299:3305   */\n      dup9\n        /* \"#utility.yul\":3255:3327   */\n      tag_342\n      jump\t// in\n    tag_446:\n        /* \"#utility.yul\":3374:3383   */\n      dup2\n        /* \"#utility.yul\":3368:3372   */\n      dup2\n        /* \"#utility.yul\":3364:3384   */\n      sub\n        /* \"#utility.yul\":3359:3361   */\n      0x40\n        /* \"#utility.yul\":3348:3357   */\n      dup4\n        /* \"#utility.yul\":3344:3362   */\n      add\n        /* \"#utility.yul\":3337:3385   */\n      mstore\n        /* \"#utility.yul\":3402:3480   */\n      tag_447\n        /* \"#utility.yul\":3475:3479   */\n      dup2\n        /* \"#utility.yul\":3466:3472   */\n      dup8\n        /* \"#utility.yul\":3402:3480   */\n      tag_339\n      jump\t// in\n    tag_447:\n        /* \"#utility.yul\":3394:3480   */\n      swap1\n      pop\n        /* \"#utility.yul\":3527:3536   */\n      dup2\n        /* \"#utility.yul\":3521:3525   */\n      dup2\n        /* \"#utility.yul\":3517:3537   */\n      sub\n        /* \"#utility.yul\":3512:3514   */\n      0x60\n        /* \"#utility.yul\":3501:3510   */\n      dup4\n        /* \"#utility.yul\":3497:3515   */\n      add\n        /* \"#utility.yul\":3490:3538   */\n      mstore\n        /* \"#utility.yul\":3555:3633   */\n      tag_448\n        /* \"#utility.yul\":3628:3632   */\n      dup2\n        /* \"#utility.yul\":3619:3625   */\n      dup7\n        /* \"#utility.yul\":3555:3633   */\n      tag_339\n      jump\t// in\n    tag_448:\n        /* \"#utility.yul\":3547:3633   */\n      swap1\n      pop\n        /* \"#utility.yul\":3643:3716   */\n      tag_449\n        /* \"#utility.yul\":3711:3714   */\n      0x80\n        /* \"#utility.yul\":3700:3709   */\n      dup4\n        /* \"#utility.yul\":3696:3715   */\n      add\n        /* \"#utility.yul\":3687:3693   */\n      dup6\n        /* \"#utility.yul\":3643:3716   */\n      tag_343\n      jump\t// in\n    tag_449:\n        /* \"#utility.yul\":3726:3799   */\n      tag_450\n        /* \"#utility.yul\":3794:3797   */\n      0xa0\n        /* \"#utility.yul\":3783:3792   */\n      dup4\n        /* \"#utility.yul\":3779:3798   */\n      add\n        /* \"#utility.yul\":3770:3776   */\n      dup5\n        /* \"#utility.yul\":3726:3799   */\n      tag_343\n      jump\t// in\n    tag_450:\n        /* \"#utility.yul\":2849:3806   */\n      swap8\n      swap7\n      pop\n      pop\n      pop\n      pop\n      pop\n      pop\n      pop\n      jump\t// out\n        /* \"#utility.yul\":3812:3929   */\n    tag_344:\n        /* \"#utility.yul\":3921:3922   */\n      0x00\n        /* \"#utility.yul\":3918:3919   */\n      dup1\n        /* \"#utility.yul\":3911:3923   */\n      revert\n        /* \"#utility.yul\":3935:4052   */\n    tag_345:\n        /* \"#utility.yul\":4044:4045   */\n      0x00\n        /* \"#utility.yul\":4041:4042   */\n      dup1\n        /* \"#utility.yul\":4034:4046   */\n      revert\n        /* \"#utility.yul\":4058:4238   */\n    tag_158:\n        /* \"#utility.yul\":4106:4183   */\n      0x4e487b7100000000000000000000000000000000000000000000000000000000\n        /* \"#utility.yul\":4103:4104   */\n      0x00\n        /* \"#utility.yul\":4096:4184   */\n      mstore\n        /* \"#utility.yul\":4203:4207   */\n      0x41\n        /* \"#utility.yul\":4200:4201   */\n      0x04\n        /* \"#utility.yul\":4193:4208   */\n      mstore\n        /* \"#utility.yul\":4227:4231   */\n      0x24\n        /* \"#utility.yul\":4224:4225   */\n      0x00\n        /* \"#utility.yul\":4217:4232   */\n      revert\n        /* \"#utility.yul\":4244:4525   */\n    tag_346:\n        /* \"#utility.yul\":4327:4354   */\n      tag_455\n        /* \"#utility.yul\":4349:4353   */\n      dup3\n        /* \"#utility.yul\":4327:4354   */\n      tag_338\n      jump\t// in\n    tag_455:\n        /* \"#utility.yul\":4319:4325   */\n      dup2\n        /* \"#utility.yul\":4315:4355   */\n      add\n        /* \"#utility.yul\":4457:4463   */\n      dup2\n        /* \"#utility.yul\":4445:4455   */\n      dup2\n        /* \"#utility.yul\":4442:4464   */\n      lt\n        /* \"#utility.yul\":4421:4439   */\n      0xffffffffffffffff\n        /* \"#utility.yul\":4409:4419   */\n      dup3\n        /* \"#utility.yul\":4406:4440   */\n      gt\n        /* \"#utility.yul\":4403:4465   */\n      or\n        /* \"#utility.yul\":4400:4488   */\n      iszero\n      tag_456\n      jumpi\n        /* \"#utility.yul\":4468:4486   */\n      tag_457\n      tag_158\n      jump\t// in\n    tag_457:\n        /* \"#utility.yul\":4400:4488   */\n    tag_456:\n        /* \"#utility.yul\":4508:4518   */\n      dup1\n        /* \"#utility.yul\":4504:4506   */\n      0x40\n        /* \"#utility.yul\":4497:4519   */\n      mstore\n        /* \"#utility.yul\":4287:4525   */\n      pop\n        /* \"#utility.yul\":4244:4525   */\n      pop\n      pop\n      jump\t// out\n        /* \"#utility.yul\":4531:4660   */\n    tag_347:\n        /* \"#utility.yul\":4565:4571   */\n      0x00\n        /* \"#utility.yul\":4592:4612   */\n      tag_459\n      tag_329\n      jump\t// in\n    tag_459:\n        /* \"#utility.yul\":4582:4612   */\n      swap1\n      pop\n        /* \"#utility.yul\":4621:4654   */\n      tag_460\n        /* \"#utility.yul\":4649:4653   */\n      dup3\n        /* \"#utility.yul\":4641:4647   */\n      dup3\n        /* \"#utility.yul\":4621:4654   */\n      tag_346\n      jump\t// in\n    tag_460:\n        /* \"#utility.yul\":4531:4660   */\n      swap2\n      swap1\n      pop\n      jump\t// out\n        /* \"#utility.yul\":4666:4974   */\n    tag_348:\n        /* \"#utility.yul\":4728:4732   */\n      0x00\n        /* \"#utility.yul\":4818:4836   */\n      0xffffffffffffffff\n        /* \"#utility.yul\":4810:4816   */\n      dup3\n        /* \"#utility.yul\":4807:4837   */\n      gt\n        /* \"#utility.yul\":4804:4860   */\n      iszero\n      tag_462\n      jumpi\n        /* \"#utility.yul\":4840:4858   */\n      tag_463\n      tag_158\n      jump\t// in\n    tag_463:\n        /* \"#utility.yul\":4804:4860   */\n    tag_462:\n        /* \"#utility.yul\":4878:4907   */\n      tag_464\n        /* \"#utility.yul\":4900:4906   */\n      dup3\n        /* \"#utility.yul\":4878:4907   */\n      tag_338\n      jump\t// in\n    tag_464:\n        /* \"#utility.yul\":4870:4907   */\n      swap1\n      pop\n        /* \"#utility.yul\":4962:4966   */\n      0x20\n        /* \"#utility.yul\":4956:4960   */\n      dup2\n        /* \"#utility.yul\":4952:4967   */\n      add\n        /* \"#utility.yul\":4944:4967   */\n      swap1\n      pop\n        /* \"#utility.yul\":4666:4974   */\n      swap2\n      swap1\n      pop\n      jump\t// out\n        /* \"#utility.yul\":4980:5126   */\n    tag_349:\n        /* \"#utility.yul\":5077:5083   */\n      dup3\n        /* \"#utility.yul\":5072:5075   */\n      dup2\n        /* \"#utility.yul\":5067:5070   */\n      dup4\n        /* \"#utility.yul\":5054:5084   */\n      calldatacopy\n        /* \"#utility.yul\":5118:5119   */\n      0x00\n        /* \"#utility.yul\":5109:5115   */\n      dup4\n        /* \"#utility.yul\":5104:5107   */\n      dup4\n        /* \"#utility.yul\":5100:5116   */\n      add\n        /* \"#utility.yul\":5093:5120   */\n      mstore\n        /* \"#utility.yul\":4980:5126   */\n      pop\n      pop\n      pop\n      jump\t// out\n        /* \"#utility.yul\":5132:5557   */\n    tag_350:\n        /* \"#utility.yul\":5210:5215   */\n      0x00\n        /* \"#utility.yul\":5235:5301   */\n      tag_467\n        /* \"#utility.yul\":5251:5300   */\n      tag_468\n        /* \"#utility.yul\":5293:5299   */\n      dup5\n        /* \"#utility.yul\":5251:5300   */\n      tag_348\n      jump\t// in\n    tag_468:\n        /* \"#utility.yul\":5235:5301   */\n      tag_347\n      jump\t// in\n    tag_467:\n        /* \"#utility.yul\":5226:5301   */\n      swap1\n      pop\n        /* \"#utility.yul\":5324:5330   */\n      dup3\n        /* \"#utility.yul\":5317:5322   */\n      dup2\n        /* \"#utility.yul\":5310:5331   */\n      mstore\n        /* \"#utility.yul\":5362:5366   */\n      0x20\n        /* \"#utility.yul\":5355:5360   */\n      dup2\n        /* \"#utility.yul\":5351:5367   */\n      add\n        /* \"#utility.yul\":5400:5403   */\n      dup5\n        /* \"#utility.yul\":5391:5397   */\n      dup5\n        /* \"#utility.yul\":5386:5389   */\n      dup5\n        /* \"#utility.yul\":5382:5398   */\n      add\n        /* \"#utility.yul\":5379:5404   */\n      gt\n        /* \"#utility.yul\":5376:5488   */\n      iszero\n      tag_469\n      jumpi\n        /* \"#utility.yul\":5407:5486   */\n      tag_470\n      tag_345\n      jump\t// in\n    tag_470:\n        /* \"#utility.yul\":5376:5488   */\n    tag_469:\n        /* \"#utility.yul\":5497:5551   */\n      tag_471\n        /* \"#utility.yul\":5544:5550   */\n      dup5\n        /* \"#utility.yul\":5539:5542   */\n      dup3\n        /* \"#utility.yul\":5534:5537   */\n      dup6\n        /* \"#utility.yul\":5497:5551   */\n      tag_349\n      jump\t// in\n    tag_471:\n        /* \"#utility.yul\":5216:5557   */\n      pop\n        /* \"#utility.yul\":5132:5557   */\n      swap4\n      swap3\n      pop\n      pop\n      pop\n      jump\t// out\n        /* \"#utility.yul\":5577:5917   */\n    tag_351:\n        /* \"#utility.yul\":5633:5638   */\n      0x00\n        /* \"#utility.yul\":5682:5685   */\n      dup3\n        /* \"#utility.yul\":5675:5679   */\n      0x1f\n        /* \"#utility.yul\":5667:5673   */\n      dup4\n        /* \"#utility.yul\":5663:5680   */\n      add\n        /* \"#utility.yul\":5659:5686   */\n      slt\n        /* \"#utility.yul\":5649:5771   */\n      tag_473\n      jumpi\n        /* \"#utility.yul\":5690:5769   */\n      tag_474\n      tag_344\n      jump\t// in\n    tag_474:\n        /* \"#utility.yul\":5649:5771   */\n    tag_473:\n        /* \"#utility.yul\":5807:5813   */\n      dup2\n        /* \"#utility.yul\":5794:5814   */\n      calldataload\n        /* \"#utility.yul\":5832:5911   */\n      tag_475\n        /* \"#utility.yul\":5907:5910   */\n      dup5\n        /* \"#utility.yul\":5899:5905   */\n      dup3\n        /* \"#utility.yul\":5892:5896   */\n      0x20\n        /* \"#utility.yul\":5884:5890   */\n      dup7\n        /* \"#utility.yul\":5880:5897   */\n      add\n        /* \"#utility.yul\":5832:5911   */\n      tag_350\n      jump\t// in\n    tag_475:\n        /* \"#utility.yul\":5823:5911   */\n      swap2\n      pop\n        /* \"#utility.yul\":5639:5917   */\n      pop\n        /* \"#utility.yul\":5577:5917   */\n      swap3\n      swap2\n      pop\n      pop\n      jump\t// out\n        /* \"#utility.yul\":5923:6757   */\n    tag_44:\n        /* \"#utility.yul\":6011:6017   */\n      0x00\n        /* \"#utility.yul\":6019:6025   */\n      dup1\n        /* \"#utility.yul\":6068:6070   */\n      0x40\n        /* \"#utility.yul\":6056:6065   */\n      dup4\n        /* \"#utility.yul\":6047:6054   */\n      dup6\n        /* \"#utility.yul\":6043:6066   */\n      sub\n        /* \"#utility.yul\":6039:6071   */\n      slt\n        /* \"#utility.yul\":6036:6155   */\n      iszero\n      tag_477\n      jumpi\n        /* \"#utility.yul\":6074:6153   */\n      tag_478\n      tag_330\n      jump\t// in\n    tag_478:\n        /* \"#utility.yul\":6036:6155   */\n    tag_477:\n        /* \"#utility.yul\":6222:6223   */\n      0x00\n        /* \"#utility.yul\":6211:6220   */\n      dup4\n        /* \"#utility.yul\":6207:6224   */\n      add\n        /* \"#utility.yul\":6194:6225   */\n      calldataload\n        /* \"#utility.yul\":6252:6270   */\n      0xffffffffffffffff\n        /* \"#utility.yul\":6244:6250   */\n      dup2\n        /* \"#utility.yul\":6241:6271   */\n      gt\n        /* \"#utility.yul\":6238:6355   */\n      iszero\n      tag_479\n      jumpi\n        /* \"#utility.yul\":6274:6353   */\n      tag_480\n      tag_331\n      jump\t// in\n    tag_480:\n        /* \"#utility.yul\":6238:6355   */\n    tag_479:\n        /* \"#utility.yul\":6379:6442   */\n      tag_481\n        /* \"#utility.yul\":6434:6441   */\n      dup6\n        /* \"#utility.yul\":6425:6431   */\n      dup3\n        /* \"#utility.yul\":6414:6423   */\n      dup7\n        /* \"#utility.yul\":6410:6432   */\n      add\n        /* \"#utility.yul\":6379:6442   */\n      tag_351\n      jump\t// in\n    tag_481:\n        /* \"#utility.yul\":6369:6442   */\n      swap3\n      pop\n        /* \"#utility.yul\":6165:6452   */\n      pop\n        /* \"#utility.yul\":6519:6521   */\n      0x20\n        /* \"#utility.yul\":6508:6517   */\n      dup4\n        /* \"#utility.yul\":6504:6522   */\n      add\n        /* \"#utility.yul\":6491:6523   */\n      calldataload\n        /* \"#utility.yul\":6550:6568   */\n      0xffffffffffffffff\n        /* \"#utility.yul\":6542:6548   */\n      dup2\n        /* \"#utility.yul\":6539:6569   */\n      gt\n        /* \"#utility.yul\":6536:6653   */\n      iszero\n      tag_482\n      jumpi\n        /* \"#utility.yul\":6572:6651   */\n      tag_483\n      tag_331\n      jump\t// in\n    tag_483:\n        /* \"#utility.yul\":6536:6653   */\n    tag_482:\n        /* \"#utility.yul\":6677:6740   */\n      tag_484\n        /* \"#utility.yul\":6732:6739   */\n      dup6\n        /* \"#utility.yul\":6723:6729   */\n      dup3\n        /* \"#utility.yul\":6712:6721   */\n      dup7\n        /* \"#utility.yul\":6708:6730   */\n      add\n        /* \"#utility.yul\":6677:6740   */\n      tag_351\n      jump\t// in\n    tag_484:\n        /* \"#utility.yul\":6667:6740   */\n      swap2\n      pop\n        /* \"#utility.yul\":6462:6750   */\n      pop\n        /* \"#utility.yul\":5923:6757   */\n      swap3\n      pop\n      swap3\n      swap1\n      pop\n      jump\t// out\n        /* \"#utility.yul\":6763:6887   */\n    tag_352:\n        /* \"#utility.yul\":6840:6846   */\n      0x00\n        /* \"#utility.yul\":6874:6879   */\n      dup2\n        /* \"#utility.yul\":6868:6880   */\n      mload\n        /* \"#utility.yul\":6858:6880   */\n      swap1\n      pop\n        /* \"#utility.yul\":6763:6887   */\n      swap2\n      swap1\n      pop\n      jump\t// out\n        /* \"#utility.yul\":6893:7087   */\n    tag_353:\n        /* \"#utility.yul\":7002:7013   */\n      0x00\n        /* \"#utility.yul\":7036:7042   */\n      dup3\n        /* \"#utility.yul\":7031:7034   */\n      dup3\n        /* \"#utility.yul\":7024:7043   */\n      mstore\n        /* \"#utility.yul\":7076:7080   */\n      0x20\n        /* \"#utility.yul\":7071:7074   */\n      dup3\n        /* \"#utility.yul\":7067:7081   */\n      add\n        /* \"#utility.yul\":7052:7081   */\n      swap1\n      pop\n        /* \"#utility.yul\":6893:7087   */\n      swap3\n      swap2\n      pop\n      pop\n      jump\t// out\n        /* \"#utility.yul\":7093:7235   */\n    tag_354:\n        /* \"#utility.yul\":7170:7174   */\n      0x00\n        /* \"#utility.yul\":7193:7196   */\n      dup2\n        /* \"#utility.yul\":7185:7196   */\n      swap1\n      pop\n        /* \"#utility.yul\":7223:7227   */\n      0x20\n        /* \"#utility.yul\":7218:7221   */\n      dup3\n        /* \"#utility.yul\":7214:7228   */\n      add\n        /* \"#utility.yul\":7206:7228   */\n      swap1\n      pop\n        /* \"#utility.yul\":7093:7235   */\n      swap2\n      swap1\n      pop\n      jump\t// out\n        /* \"#utility.yul\":7241:7400   */\n    tag_355:\n        /* \"#utility.yul\":7315:7326   */\n      0x00\n        /* \"#utility.yul\":7349:7355   */\n      dup3\n        /* \"#utility.yul\":7344:7347   */\n      dup3\n        /* \"#utility.yul\":7337:7356   */\n      mstore\n        /* \"#utility.yul\":7389:7393   */\n      0x20\n        /* \"#utility.yul\":7384:7387   */\n      dup3\n        /* \"#utility.yul\":7380:7394   */\n      add\n        /* \"#utility.yul\":7365:7394   */\n      swap1\n      pop\n        /* \"#utility.yul\":7241:7400   */\n      swap3\n      swap2\n      pop\n      pop\n      jump\t// out\n        /* \"#utility.yul\":7406:7763   */\n    tag_356:\n        /* \"#utility.yul\":7484:7487   */\n      0x00\n        /* \"#utility.yul\":7512:7551   */\n      tag_490\n        /* \"#utility.yul\":7545:7550   */\n      dup3\n        /* \"#utility.yul\":7512:7551   */\n      tag_335\n      jump\t// in\n    tag_490:\n        /* \"#utility.yul\":7567:7628   */\n      tag_491\n        /* \"#utility.yul\":7621:7627   */\n      dup2\n        /* \"#utility.yul\":7616:7619   */\n      dup6\n        /* \"#utility.yul\":7567:7628   */\n      tag_355\n      jump\t// in\n    tag_491:\n        /* \"#utility.yul\":7560:7628   */\n      swap4\n      pop\n        /* \"#utility.yul\":7637:7702   */\n      tag_492\n        /* \"#utility.yul\":7695:7701   */\n      dup2\n        /* \"#utility.yul\":7690:7693   */\n      dup6\n        /* \"#utility.yul\":7683:7687   */\n      0x20\n        /* \"#utility.yul\":7676:7681   */\n      dup7\n        /* \"#utility.yul\":7672:7688   */\n      add\n        /* \"#utility.yul\":7637:7702   */\n      tag_337\n      jump\t// in\n    tag_492:\n        /* \"#utility.yul\":7727:7756   */\n      tag_493\n        /* \"#utility.yul\":7749:7755   */\n      dup2\n        /* \"#utility.yul\":7727:7756   */\n      tag_338\n      jump\t// in\n    tag_493:\n        /* \"#utility.yul\":7722:7725   */\n      dup5\n        /* \"#utility.yul\":7718:7757   */\n      add\n        /* \"#utility.yul\":7711:7757   */\n      swap2\n      pop\n        /* \"#utility.yul\":7488:7763   */\n      pop\n        /* \"#utility.yul\":7406:7763   */\n      swap3\n      swap2\n      pop\n      pop\n      jump\t// out\n        /* \"#utility.yul\":7769:7965   */\n    tag_357:\n        /* \"#utility.yul\":7858:7868   */\n      0x00\n        /* \"#utility.yul\":7893:7959   */\n      tag_495\n        /* \"#utility.yul\":7955:7958   */\n      dup4\n        /* \"#utility.yul\":7947:7953   */\n      dup4\n        /* \"#utility.yul\":7893:7959   */\n      tag_356\n      jump\t// in\n    tag_495:\n        /* \"#utility.yul\":7879:7959   */\n      swap1\n      pop\n        /* \"#utility.yul\":7769:7965   */\n      swap3\n      swap2\n      pop\n      pop\n      jump\t// out\n        /* \"#utility.yul\":7971:8094   */\n    tag_358:\n        /* \"#utility.yul\":8051:8055   */\n      0x00\n        /* \"#utility.yul\":8083:8087   */\n      0x20\n        /* \"#utility.yul\":8078:8081   */\n      dup3\n        /* \"#utility.yul\":8074:8088   */\n      add\n        /* \"#utility.yul\":8066:8088   */\n      swap1\n      pop\n        /* \"#utility.yul\":7971:8094   */\n      swap2\n      swap1\n      pop\n      jump\t// out\n        /* \"#utility.yul\":8128:9119   */\n    tag_359:\n        /* \"#utility.yul\":8267:8270   */\n      0x00\n        /* \"#utility.yul\":8296:8360   */\n      tag_498\n        /* \"#utility.yul\":8354:8359   */\n      dup3\n        /* \"#utility.yul\":8296:8360   */\n      tag_352\n      jump\t// in\n    tag_498:\n        /* \"#utility.yul\":8376:8472   */\n      tag_499\n        /* \"#utility.yul\":8465:8471   */\n      dup2\n        /* \"#utility.yul\":8460:8463   */\n      dup6\n        /* \"#utility.yul\":8376:8472   */\n      tag_353\n      jump\t// in\n    tag_499:\n        /* \"#utility.yul\":8369:8472   */\n      swap4\n      pop\n        /* \"#utility.yul\":8498:8501   */\n      dup4\n        /* \"#utility.yul\":8543:8547   */\n      0x20\n        /* \"#utility.yul\":8535:8541   */\n      dup3\n        /* \"#utility.yul\":8531:8548   */\n      mul\n        /* \"#utility.yul\":8526:8529   */\n      dup6\n        /* \"#utility.yul\":8522:8549   */\n      add\n        /* \"#utility.yul\":8573:8639   */\n      tag_500\n        /* \"#utility.yul\":8633:8638   */\n      dup6\n        /* \"#utility.yul\":8573:8639   */\n      tag_354\n      jump\t// in\n    tag_500:\n        /* \"#utility.yul\":8662:8669   */\n      dup1\n        /* \"#utility.yul\":8693:8694   */\n      0x00\n        /* \"#utility.yul\":8678:9074   */\n    tag_501:\n        /* \"#utility.yul\":8703:8709   */\n      dup6\n        /* \"#utility.yul\":8700:8701   */\n      dup2\n        /* \"#utility.yul\":8697:8710   */\n      lt\n        /* \"#utility.yul\":8678:9074   */\n      iszero\n      tag_503\n      jumpi\n        /* \"#utility.yul\":8774:8783   */\n      dup5\n        /* \"#utility.yul\":8768:8772   */\n      dup5\n        /* \"#utility.yul\":8764:8784   */\n      sub\n        /* \"#utility.yul\":8759:8762   */\n      dup10\n        /* \"#utility.yul\":8752:8785   */\n      mstore\n        /* \"#utility.yul\":8825:8831   */\n      dup2\n        /* \"#utility.yul\":8819:8832   */\n      mload\n        /* \"#utility.yul\":8853:8937   */\n      tag_504\n        /* \"#utility.yul\":8932:8936   */\n      dup6\n        /* \"#utility.yul\":8917:8930   */\n      dup3\n        /* \"#utility.yul\":8853:8937   */\n      tag_357\n      jump\t// in\n    tag_504:\n        /* \"#utility.yul\":8845:8937   */\n      swap5\n      pop\n        /* \"#utility.yul\":8960:9030   */\n      tag_505\n        /* \"#utility.yul\":9023:9029   */\n      dup4\n        /* \"#utility.yul\":8960:9030   */\n      tag_358\n      jump\t// in\n    tag_505:\n        /* \"#utility.yul\":8950:9030   */\n      swap3\n      pop\n        /* \"#utility.yul\":9059:9063   */\n      0x20\n        /* \"#utility.yul\":9054:9057   */\n      dup11\n        /* \"#utility.yul\":9050:9064   */\n      add\n        /* \"#utility.yul\":9043:9064   */\n      swap10\n      pop\n        /* \"#utility.yul\":8738:9074   */\n      pop\n        /* \"#utility.yul\":8725:8726   */\n      0x01\n        /* \"#utility.yul\":8722:8723   */\n      dup2\n        /* \"#utility.yul\":8718:8727   */\n      add\n        /* \"#utility.yul\":8713:8727   */\n      swap1\n      pop\n        /* \"#utility.yul\":8678:9074   */\n      jump(tag_501)\n    tag_503:\n        /* \"#utility.yul\":8682:8696   */\n      pop\n        /* \"#utility.yul\":9090:9094   */\n      dup3\n        /* \"#utility.yul\":9083:9094   */\n      swap8\n      pop\n        /* \"#utility.yul\":9110:9113   */\n      dup8\n        /* \"#utility.yul\":9103:9113   */\n      swap6\n      pop\n        /* \"#utility.yul\":8272:9119   */\n      pop\n      pop\n      pop\n      pop\n      pop\n        /* \"#utility.yul\":8128:9119   */\n      swap3\n      swap2\n      pop\n      pop\n      jump\t// out\n        /* \"#utility.yul\":9125:9270   */\n    tag_360:\n        /* \"#utility.yul\":9223:9229   */\n      0x00\n        /* \"#utility.yul\":9257:9262   */\n      dup2\n        /* \"#utility.yul\":9251:9263   */\n      mload\n        /* \"#utility.yul\":9241:9263   */\n      swap1\n      pop\n        /* \"#utility.yul\":9125:9270   */\n      swap2\n      swap1\n      pop\n      jump\t// out\n        /* \"#utility.yul\":9276:9491   */\n    tag_361:\n        /* \"#utility.yul\":9406:9417   */\n      0x00\n        /* \"#utility.yul\":9440:9446   */\n      dup3\n        /* \"#utility.yul\":9435:9438   */\n      dup3\n        /* \"#utility.yul\":9428:9447   */\n      mstore\n        /* \"#utility.yul\":9480:9484   */\n      0x20\n        /* \"#utility.yul\":9475:9478   */\n      dup3\n        /* \"#utility.yul\":9471:9485   */\n      add\n        /* \"#utility.yul\":9456:9485   */\n      swap1\n      pop\n        /* \"#utility.yul\":9276:9491   */\n      swap3\n      swap2\n      pop\n      pop\n      jump\t// out\n        /* \"#utility.yul\":9497:9660   */\n    tag_362:\n        /* \"#utility.yul\":9595:9599   */\n      0x00\n        /* \"#utility.yul\":9618:9621   */\n      dup2\n        /* \"#utility.yul\":9610:9621   */\n      swap1\n      pop\n        /* \"#utility.yul\":9648:9652   */\n      0x20\n        /* \"#utility.yul\":9643:9646   */\n      dup3\n        /* \"#utility.yul\":9639:9653   */\n      add\n        /* \"#utility.yul\":9631:9653   */\n      swap1\n      pop\n        /* \"#utility.yul\":9497:9660   */\n      swap2\n      swap1\n      pop\n      jump\t// out\n        /* \"#utility.yul\":9666:9774   */\n    tag_363:\n        /* \"#utility.yul\":9743:9767   */\n      tag_510\n        /* \"#utility.yul\":9761:9766   */\n      dup2\n        /* \"#utility.yul\":9743:9767   */\n      tag_332\n      jump\t// in\n    tag_510:\n        /* \"#utility.yul\":9738:9741   */\n      dup3\n        /* \"#utility.yul\":9731:9768   */\n      mstore\n        /* \"#utility.yul\":9666:9774   */\n      pop\n      pop\n      jump\t// out\n        /* \"#utility.yul\":9880:12115   */\n    tag_364:\n        /* \"#utility.yul\":10001:10004   */\n      0x00\n        /* \"#utility.yul\":10037:10043   */\n      0x0140\n        /* \"#utility.yul\":10032:10035   */\n      dup4\n        /* \"#utility.yul\":10028:10044   */\n      add\n        /* \"#utility.yul\":10126:10130   */\n      0x00\n        /* \"#utility.yul\":10119:10124   */\n      dup4\n        /* \"#utility.yul\":10115:10131   */\n      add\n        /* \"#utility.yul\":10109:10132   */\n      mload\n        /* \"#utility.yul\":10179:10182   */\n      dup5\n        /* \"#utility.yul\":10173:10177   */\n      dup3\n        /* \"#utility.yul\":10169:10183   */\n      sub\n        /* \"#utility.yul\":10162:10166   */\n      0x00\n        /* \"#utility.yul\":10157:10160   */\n      dup7\n        /* \"#utility.yul\":10153:10167   */\n      add\n        /* \"#utility.yul\":10146:10184   */\n      mstore\n        /* \"#utility.yul\":10205:10278   */\n      tag_512\n        /* \"#utility.yul\":10273:10277   */\n      dup3\n        /* \"#utility.yul\":10259:10271   */\n      dup3\n        /* \"#utility.yul\":10205:10278   */\n      tag_356\n      jump\t// in\n    tag_512:\n        /* \"#utility.yul\":10197:10278   */\n      swap2\n      pop\n        /* \"#utility.yul\":10054:10289   */\n      pop\n        /* \"#utility.yul\":10373:10377   */\n      0x20\n        /* \"#utility.yul\":10366:10371   */\n      dup4\n        /* \"#utility.yul\":10362:10378   */\n      add\n        /* \"#utility.yul\":10356:10379   */\n      mload\n        /* \"#utility.yul\":10426:10429   */\n      dup5\n        /* \"#utility.yul\":10420:10424   */\n      dup3\n        /* \"#utility.yul\":10416:10430   */\n      sub\n        /* \"#utility.yul\":10409:10413   */\n      0x20\n        /* \"#utility.yul\":10404:10407   */\n      dup7\n        /* \"#utility.yul\":10400:10414   */\n      add\n        /* \"#utility.yul\":10393:10431   */\n      mstore\n        /* \"#utility.yul\":10452:10525   */\n      tag_513\n        /* \"#utility.yul\":10520:10524   */\n      dup3\n        /* \"#utility.yul\":10506:10518   */\n      dup3\n        /* \"#utility.yul\":10452:10525   */\n      tag_356\n      jump\t// in\n    tag_513:\n        /* \"#utility.yul\":10444:10525   */\n      swap2\n      pop\n        /* \"#utility.yul\":10299:10536   */\n      pop\n        /* \"#utility.yul\":10629:10633   */\n      0x40\n        /* \"#utility.yul\":10622:10627   */\n      dup4\n        /* \"#utility.yul\":10618:10634   */\n      add\n        /* \"#utility.yul\":10612:10635   */\n      mload\n        /* \"#utility.yul\":10682:10685   */\n      dup5\n        /* \"#utility.yul\":10676:10680   */\n      dup3\n        /* \"#utility.yul\":10672:10686   */\n      sub\n        /* \"#utility.yul\":10665:10669   */\n      0x40\n        /* \"#utility.yul\":10660:10663   */\n      dup7\n        /* \"#utility.yul\":10656:10670   */\n      add\n        /* \"#utility.yul\":10649:10687   */\n      mstore\n        /* \"#utility.yul\":10708:10781   */\n      tag_514\n        /* \"#utility.yul\":10776:10780   */\n      dup3\n        /* \"#utility.yul\":10762:10774   */\n      dup3\n        /* \"#utility.yul\":10708:10781   */\n      tag_356\n      jump\t// in\n    tag_514:\n        /* \"#utility.yul\":10700:10781   */\n      swap2\n      pop\n        /* \"#utility.yul\":10546:10792   */\n      pop\n        /* \"#utility.yul\":10886:10890   */\n      0x60\n        /* \"#utility.yul\":10879:10884   */\n      dup4\n        /* \"#utility.yul\":10875:10891   */\n      add\n        /* \"#utility.yul\":10869:10892   */\n      mload\n        /* \"#utility.yul\":10905:10968   */\n      tag_515\n        /* \"#utility.yul\":10962:10966   */\n      0x60\n        /* \"#utility.yul\":10957:10960   */\n      dup7\n        /* \"#utility.yul\":10953:10967   */\n      add\n        /* \"#utility.yul\":10939:10951   */\n      dup3\n        /* \"#utility.yul\":10905:10968   */\n      tag_363\n      jump\t// in\n    tag_515:\n        /* \"#utility.yul\":10802:10978   */\n      pop\n        /* \"#utility.yul\":11074:11078   */\n      0x80\n        /* \"#utility.yul\":11067:11072   */\n      dup4\n        /* \"#utility.yul\":11063:11079   */\n      add\n        /* \"#utility.yul\":11057:11080   */\n      mload\n        /* \"#utility.yul\":11093:11156   */\n      tag_516\n        /* \"#utility.yul\":11150:11154   */\n      0x80\n        /* \"#utility.yul\":11145:11148   */\n      dup7\n        /* \"#utility.yul\":11141:11155   */\n      add\n        /* \"#utility.yul\":11127:11139   */\n      dup3\n        /* \"#utility.yul\":11093:11156   */\n      tag_363\n      jump\t// in\n    tag_516:\n        /* \"#utility.yul\":10988:11166   */\n      pop\n        /* \"#utility.yul\":11256:11260   */\n      0xa0\n        /* \"#utility.yul\":11249:11254   */\n      dup4\n        /* \"#utility.yul\":11245:11261   */\n      add\n        /* \"#utility.yul\":11239:11262   */\n      mload\n        /* \"#utility.yul\":11275:11338   */\n      tag_517\n        /* \"#utility.yul\":11332:11336   */\n      0xa0\n        /* \"#utility.yul\":11327:11330   */\n      dup7\n        /* \"#utility.yul\":11323:11337   */\n      add\n        /* \"#utility.yul\":11309:11321   */\n      dup3\n        /* \"#utility.yul\":11275:11338   */\n      tag_363\n      jump\t// in\n    tag_517:\n        /* \"#utility.yul\":11176:11348   */\n      pop\n        /* \"#utility.yul\":11443:11447   */\n      0xc0\n        /* \"#utility.yul\":11436:11441   */\n      dup4\n        /* \"#utility.yul\":11432:11448   */\n      add\n        /* \"#utility.yul\":11426:11449   */\n      mload\n        /* \"#utility.yul\":11462:11525   */\n      tag_518\n        /* \"#utility.yul\":11519:11523   */\n      0xc0\n        /* \"#utility.yul\":11514:11517   */\n      dup7\n        /* \"#utility.yul\":11510:11524   */\n      add\n        /* \"#utility.yul\":11496:11508   */\n      dup3\n        /* \"#utility.yul\":11462:11525   */\n      tag_363\n      jump\t// in\n    tag_518:\n        /* \"#utility.yul\":11358:11535   */\n      pop\n        /* \"#utility.yul\":11627:11631   */\n      0xe0\n        /* \"#utility.yul\":11620:11625   */\n      dup4\n        /* \"#utility.yul\":11616:11632   */\n      add\n        /* \"#utility.yul\":11610:11633   */\n      mload\n        /* \"#utility.yul\":11646:11709   */\n      tag_519\n        /* \"#utility.yul\":11703:11707   */\n      0xe0\n        /* \"#utility.yul\":11698:11701   */\n      dup7\n        /* \"#utility.yul\":11694:11708   */\n      add\n        /* \"#utility.yul\":11680:11692   */\n      dup3\n        /* \"#utility.yul\":11646:11709   */\n      tag_363\n      jump\t// in\n    tag_519:\n        /* \"#utility.yul\":11545:11719   */\n      pop\n        /* \"#utility.yul\":11810:11816   */\n      0x0100\n        /* \"#utility.yul\":11803:11808   */\n      dup4\n        /* \"#utility.yul\":11799:11817   */\n      add\n        /* \"#utility.yul\":11793:11818   */\n      mload\n        /* \"#utility.yul\":11831:11896   */\n      tag_520\n        /* \"#utility.yul\":11888:11894   */\n      0x0100\n        /* \"#utility.yul\":11883:11886   */\n      dup7\n        /* \"#utility.yul\":11879:11895   */\n      add\n        /* \"#utility.yul\":11865:11877   */\n      dup3\n        /* \"#utility.yul\":11831:11896   */\n      tag_363\n      jump\t// in\n    tag_520:\n        /* \"#utility.yul\":11729:11906   */\n      pop\n        /* \"#utility.yul\":11992:11998   */\n      0x0120\n        /* \"#utility.yul\":11985:11990   */\n      dup4\n        /* \"#utility.yul\":11981:11999   */\n      add\n        /* \"#utility.yul\":11975:12000   */\n      mload\n        /* \"#utility.yul\":12013:12078   */\n      tag_521\n        /* \"#utility.yul\":12070:12076   */\n      0x0120\n        /* \"#utility.yul\":12065:12068   */\n      dup7\n        /* \"#utility.yul\":12061:12077   */\n      add\n        /* \"#utility.yul\":12047:12059   */\n      dup3\n        /* \"#utility.yul\":12013:12078   */\n      tag_363\n      jump\t// in\n    tag_521:\n        /* \"#utility.yul\":11916:12088   */\n      pop\n        /* \"#utility.yul\":12105:12109   */\n      dup1\n        /* \"#utility.yul\":12098:12109   */\n      swap2\n      pop\n        /* \"#utility.yul\":10006:12115   */\n      pop\n        /* \"#utility.yul\":9880:12115   */\n      swap3\n      swap2\n      pop\n      pop\n      jump\t// out\n        /* \"#utility.yul\":12121:12401   */\n    tag_365:\n        /* \"#utility.yul\":12252:12262   */\n      0x00\n        /* \"#utility.yul\":12287:12395   */\n      tag_523\n        /* \"#utility.yul\":12391:12394   */\n      dup4\n        /* \"#utility.yul\":12383:12389   */\n      dup4\n        /* \"#utility.yul\":12287:12395   */\n      tag_364\n      jump\t// in\n    tag_523:\n        /* \"#utility.yul\":12273:12395   */\n      swap1\n      pop\n        /* \"#utility.yul\":12121:12401   */\n      swap3\n      swap2\n      pop\n      pop\n      jump\t// out\n        /* \"#utility.yul\":12407:12551   */\n    tag_366:\n        /* \"#utility.yul\":12508:12512   */\n      0x00\n        /* \"#utility.yul\":12540:12544   */\n      0x20\n        /* \"#utility.yul\":12535:12538   */\n      dup3\n        /* \"#utility.yul\":12531:12545   */\n      add\n        /* \"#utility.yul\":12523:12545   */\n      swap1\n      pop\n        /* \"#utility.yul\":12407:12551   */\n      swap2\n      swap1\n      pop\n      jump\t// out\n        /* \"#utility.yul\":12661:13820   */\n    tag_367:\n        /* \"#utility.yul\":12842:12845   */\n      0x00\n        /* \"#utility.yul\":12871:12956   */\n      tag_526\n        /* \"#utility.yul\":12950:12955   */\n      dup3\n        /* \"#utility.yul\":12871:12956   */\n      tag_360\n      jump\t// in\n    tag_526:\n        /* \"#utility.yul\":12972:13089   */\n      tag_527\n        /* \"#utility.yul\":13082:13088   */\n      dup2\n        /* \"#utility.yul\":13077:13080   */\n      dup6\n        /* \"#utility.yul\":12972:13089   */\n      tag_361\n      jump\t// in\n    tag_527:\n        /* \"#utility.yul\":12965:13089   */\n      swap4\n      pop\n        /* \"#utility.yul\":13115:13118   */\n      dup4\n        /* \"#utility.yul\":13160:13164   */\n      0x20\n        /* \"#utility.yul\":13152:13158   */\n      dup3\n        /* \"#utility.yul\":13148:13165   */\n      mul\n        /* \"#utility.yul\":13143:13146   */\n      dup6\n        /* \"#utility.yul\":13139:13166   */\n      add\n        /* \"#utility.yul\":13190:13277   */\n      tag_528\n        /* \"#utility.yul\":13271:13276   */\n      dup6\n        /* \"#utility.yul\":13190:13277   */\n      tag_362\n      jump\t// in\n    tag_528:\n        /* \"#utility.yul\":13300:13307   */\n      dup1\n        /* \"#utility.yul\":13331:13332   */\n      0x00\n        /* \"#utility.yul\":13316:13775   */\n    tag_529:\n        /* \"#utility.yul\":13341:13347   */\n      dup6\n        /* \"#utility.yul\":13338:13339   */\n      dup2\n        /* \"#utility.yul\":13335:13348   */\n      lt\n        /* \"#utility.yul\":13316:13775   */\n      iszero\n      tag_531\n      jumpi\n        /* \"#utility.yul\":13412:13421   */\n      dup5\n        /* \"#utility.yul\":13406:13410   */\n      dup5\n        /* \"#utility.yul\":13402:13422   */\n      sub\n        /* \"#utility.yul\":13397:13400   */\n      dup10\n        /* \"#utility.yul\":13390:13423   */\n      mstore\n        /* \"#utility.yul\":13463:13469   */\n      dup2\n        /* \"#utility.yul\":13457:13470   */\n      mload\n        /* \"#utility.yul\":13491:13617   */\n      tag_532\n        /* \"#utility.yul\":13612:13616   */\n      dup6\n        /* \"#utility.yul\":13597:13610   */\n      dup3\n        /* \"#utility.yul\":13491:13617   */\n      tag_365\n      jump\t// in\n    tag_532:\n        /* \"#utility.yul\":13483:13617   */\n      swap5\n      pop\n        /* \"#utility.yul\":13640:13731   */\n      tag_533\n        /* \"#utility.yul\":13724:13730   */\n      dup4\n        /* \"#utility.yul\":13640:13731   */\n      tag_366\n      jump\t// in\n    tag_533:\n        /* \"#utility.yul\":13630:13731   */\n      swap3\n      pop\n        /* \"#utility.yul\":13760:13764   */\n      0x20\n        /* \"#utility.yul\":13755:13758   */\n      dup11\n        /* \"#utility.yul\":13751:13765   */\n      add\n        /* \"#utility.yul\":13744:13765   */\n      swap10\n      pop\n        /* \"#utility.yul\":13376:13775   */\n      pop\n        /* \"#utility.yul\":13363:13364   */\n      0x01\n        /* \"#utility.yul\":13360:13361   */\n      dup2\n        /* \"#utility.yul\":13356:13365   */\n      add\n        /* \"#utility.yul\":13351:13365   */\n      swap1\n      pop\n        /* \"#utility.yul\":13316:13775   */\n      jump(tag_529)\n    tag_531:\n        /* \"#utility.yul\":13320:13334   */\n      pop\n        /* \"#utility.yul\":13791:13795   */\n      dup3\n        /* \"#utility.yul\":13784:13795   */\n      swap8\n      pop\n        /* \"#utility.yul\":13811:13814   */\n      dup8\n        /* \"#utility.yul\":13804:13814   */\n      swap6\n      pop\n        /* \"#utility.yul\":12847:13820   */\n      pop\n      pop\n      pop\n      pop\n      pop\n        /* \"#utility.yul\":12661:13820   */\n      swap3\n      swap2\n      pop\n      pop\n      jump\t// out\n        /* \"#utility.yul\":13826:14624   */\n    tag_47:\n        /* \"#utility.yul\":14129:14133   */\n      0x00\n        /* \"#utility.yul\":14167:14169   */\n      0x40\n        /* \"#utility.yul\":14156:14165   */\n      dup3\n        /* \"#utility.yul\":14152:14170   */\n      add\n        /* \"#utility.yul\":14144:14170   */\n      swap1\n      pop\n        /* \"#utility.yul\":14216:14225   */\n      dup2\n        /* \"#utility.yul\":14210:14214   */\n      dup2\n        /* \"#utility.yul\":14206:14226   */\n      sub\n        /* \"#utility.yul\":14202:14203   */\n      0x00\n        /* \"#utility.yul\":14191:14200   */\n      dup4\n        /* \"#utility.yul\":14187:14204   */\n      add\n        /* \"#utility.yul\":14180:14227   */\n      mstore\n        /* \"#utility.yul\":14244:14372   */\n      tag_535\n        /* \"#utility.yul\":14367:14371   */\n      dup2\n        /* \"#utility.yul\":14358:14364   */\n      dup6\n        /* \"#utility.yul\":14244:14372   */\n      tag_359\n      jump\t// in\n    tag_535:\n        /* \"#utility.yul\":14236:14372   */\n      swap1\n      pop\n        /* \"#utility.yul\":14419:14428   */\n      dup2\n        /* \"#utility.yul\":14413:14417   */\n      dup2\n        /* \"#utility.yul\":14409:14429   */\n      sub\n        /* \"#utility.yul\":14404:14406   */\n      0x20\n        /* \"#utility.yul\":14393:14402   */\n      dup4\n        /* \"#utility.yul\":14389:14407   */\n      add\n        /* \"#utility.yul\":14382:14430   */\n      mstore\n        /* \"#utility.yul\":14447:14617   */\n      tag_536\n        /* \"#utility.yul\":14612:14616   */\n      dup2\n        /* \"#utility.yul\":14603:14609   */\n      dup5\n        /* \"#utility.yul\":14447:14617   */\n      tag_367\n      jump\t// in\n    tag_536:\n        /* \"#utility.yul\":14439:14617   */\n      swap1\n      pop\n        /* \"#utility.yul\":13826:14624   */\n      swap4\n      swap3\n      pop\n      pop\n      pop\n      jump\t// out\n        /* \"#utility.yul\":14630:14752   */\n    tag_368:\n        /* \"#utility.yul\":14703:14727   */\n      tag_538\n        /* \"#utility.yul\":14721:14726   */\n      dup2\n        /* \"#utility.yul\":14703:14727   */\n      tag_341\n      jump\t// in\n    tag_538:\n        /* \"#utility.yul\":14696:14701   */\n      dup2\n        /* \"#utility.yul\":14693:14728   */\n      eq\n        /* \"#utility.yul\":14683:14746   */\n      tag_539\n      jumpi\n        /* \"#utility.yul\":14742:14743   */\n      0x00\n        /* \"#utility.yul\":14739:14740   */\n      dup1\n        /* \"#utility.yul\":14732:14744   */\n      revert\n        /* \"#utility.yul\":14683:14746   */\n    tag_539:\n        /* \"#utility.yul\":14630:14752   */\n      pop\n      jump\t// out\n        /* \"#utility.yul\":14758:14897   */\n    tag_369:\n        /* \"#utility.yul\":14804:14809   */\n      0x00\n        /* \"#utility.yul\":14842:14848   */\n      dup2\n        /* \"#utility.yul\":14829:14849   */\n      calldataload\n        /* \"#utility.yul\":14820:14849   */\n      swap1\n      pop\n        /* \"#utility.yul\":14858:14891   */\n      tag_541\n        /* \"#utility.yul\":14885:14890   */\n      dup2\n        /* \"#utility.yul\":14858:14891   */\n      tag_368\n      jump\t// in\n    tag_541:\n        /* \"#utility.yul\":14758:14897   */\n      swap3\n      swap2\n      pop\n      pop\n      jump\t// out\n        /* \"#utility.yul\":14903:15702   */\n    tag_51:\n        /* \"#utility.yul\":14990:14996   */\n      0x00\n        /* \"#utility.yul\":14998:15004   */\n      dup1\n        /* \"#utility.yul\":15006:15012   */\n      0x00\n        /* \"#utility.yul\":15055:15057   */\n      0x60\n        /* \"#utility.yul\":15043:15052   */\n      dup5\n        /* \"#utility.yul\":15034:15041   */\n      dup7\n        /* \"#utility.yul\":15030:15053   */\n      sub\n        /* \"#utility.yul\":15026:15058   */\n      slt\n        /* \"#utility.yul\":15023:15142   */\n      iszero\n      tag_543\n      jumpi\n        /* \"#utility.yul\":15061:15140   */\n      tag_544\n      tag_330\n      jump\t// in\n    tag_544:\n        /* \"#utility.yul\":15023:15142   */\n    tag_543:\n        /* \"#utility.yul\":15181:15182   */\n      0x00\n        /* \"#utility.yul\":15206:15259   */\n      tag_545\n        /* \"#utility.yul\":15251:15258   */\n      dup7\n        /* \"#utility.yul\":15242:15248   */\n      dup3\n        /* \"#utility.yul\":15231:15240   */\n      dup8\n        /* \"#utility.yul\":15227:15249   */\n      add\n        /* \"#utility.yul\":15206:15259   */\n      tag_369\n      jump\t// in\n    tag_545:\n        /* \"#utility.yul\":15196:15259   */\n      swap4\n      pop\n        /* \"#utility.yul\":15152:15269   */\n      pop\n        /* \"#utility.yul\":15336:15338   */\n      0x20\n        /* \"#utility.yul\":15325:15334   */\n      dup5\n        /* \"#utility.yul\":15321:15339   */\n      add\n        /* \"#utility.yul\":15308:15340   */\n      calldataload\n        /* \"#utility.yul\":15367:15385   */\n      0xffffffffffffffff\n        /* \"#utility.yul\":15359:15365   */\n      dup2\n        /* \"#utility.yul\":15356:15386   */\n      gt\n        /* \"#utility.yul\":15353:15470   */\n      iszero\n      tag_546\n      jumpi\n        /* \"#utility.yul\":15389:15468   */\n      tag_547\n      tag_331\n      jump\t// in\n    tag_547:\n        /* \"#utility.yul\":15353:15470   */\n    tag_546:\n        /* \"#utility.yul\":15494:15557   */\n      tag_548\n        /* \"#utility.yul\":15549:15556   */\n      dup7\n        /* \"#utility.yul\":15540:15546   */\n      dup3\n        /* \"#utility.yul\":15529:15538   */\n      dup8\n        /* \"#utility.yul\":15525:15547   */\n      add\n        /* \"#utility.yul\":15494:15557   */\n      tag_351\n      jump\t// in\n    tag_548:\n        /* \"#utility.yul\":15484:15557   */\n      swap3\n      pop\n        /* \"#utility.yul\":15279:15567   */\n      pop\n        /* \"#utility.yul\":15606:15608   */\n      0x40\n        /* \"#utility.yul\":15632:15685   */\n      tag_549\n        /* \"#utility.yul\":15677:15684   */\n      dup7\n        /* \"#utility.yul\":15668:15674   */\n      dup3\n        /* \"#utility.yul\":15657:15666   */\n      dup8\n        /* \"#utility.yul\":15653:15675   */\n      add\n        /* \"#utility.yul\":15632:15685   */\n      tag_369\n      jump\t// in\n    tag_549:\n        /* \"#utility.yul\":15622:15685   */\n      swap2\n      pop\n        /* \"#utility.yul\":15577:15695   */\n      pop\n        /* \"#utility.yul\":14903:15702   */\n      swap3\n      pop\n      swap3\n      pop\n      swap3\n      jump\t// out\n        /* \"#utility.yul\":15708:17200   */\n    tag_54:\n        /* \"#utility.yul\":16113:16117   */\n      0x00\n        /* \"#utility.yul\":16151:16154   */\n      0x0140\n        /* \"#utility.yul\":16140:16149   */\n      dup3\n        /* \"#utility.yul\":16136:16155   */\n      add\n        /* \"#utility.yul\":16128:16155   */\n      swap1\n      pop\n        /* \"#utility.yul\":16201:16210   */\n      dup2\n        /* \"#utility.yul\":16195:16199   */\n      dup2\n        /* \"#utility.yul\":16191:16211   */\n      sub\n        /* \"#utility.yul\":16187:16188   */\n      0x00\n        /* \"#utility.yul\":16176:16185   */\n      dup4\n        /* \"#utility.yul\":16172:16189   */\n      add\n        /* \"#utility.yul\":16165:16212   */\n      mstore\n        /* \"#utility.yul\":16229:16307   */\n      tag_551\n        /* \"#utility.yul\":16302:16306   */\n      dup2\n        /* \"#utility.yul\":16293:16299   */\n      dup14\n        /* \"#utility.yul\":16229:16307   */\n      tag_339\n      jump\t// in\n    tag_551:\n        /* \"#utility.yul\":16221:16307   */\n      swap1\n      pop\n        /* \"#utility.yul\":16354:16363   */\n      dup2\n        /* \"#utility.yul\":16348:16352   */\n      dup2\n        /* \"#utility.yul\":16344:16364   */\n      sub\n        /* \"#utility.yul\":16339:16341   */\n      0x20\n        /* \"#utility.yul\":16328:16337   */\n      dup4\n        /* \"#utility.yul\":16324:16342   */\n      add\n        /* \"#utility.yul\":16317:16365   */\n      mstore\n        /* \"#utility.yul\":16382:16460   */\n      tag_552\n        /* \"#utility.yul\":16455:16459   */\n      dup2\n        /* \"#utility.yul\":16446:16452   */\n      dup13\n        /* \"#utility.yul\":16382:16460   */\n      tag_339\n      jump\t// in\n    tag_552:\n        /* \"#utility.yul\":16374:16460   */\n      swap1\n      pop\n        /* \"#utility.yul\":16507:16516   */\n      dup2\n        /* \"#utility.yul\":16501:16505   */\n      dup2\n        /* \"#utility.yul\":16497:16517   */\n      sub\n        /* \"#utility.yul\":16492:16494   */\n      0x40\n        /* \"#utility.yul\":16481:16490   */\n      dup4\n        /* \"#utility.yul\":16477:16495   */\n      add\n        /* \"#utility.yul\":16470:16518   */\n      mstore\n        /* \"#utility.yul\":16535:16613   */\n      tag_553\n        /* \"#utility.yul\":16608:16612   */\n      dup2\n        /* \"#utility.yul\":16599:16605   */\n      dup12\n        /* \"#utility.yul\":16535:16613   */\n      tag_339\n      jump\t// in\n    tag_553:\n        /* \"#utility.yul\":16527:16613   */\n      swap1\n      pop\n        /* \"#utility.yul\":16623:16695   */\n      tag_554\n        /* \"#utility.yul\":16691:16693   */\n      0x60\n        /* \"#utility.yul\":16680:16689   */\n      dup4\n        /* \"#utility.yul\":16676:16694   */\n      add\n        /* \"#utility.yul\":16667:16673   */\n      dup11\n        /* \"#utility.yul\":16623:16695   */\n      tag_343\n      jump\t// in\n    tag_554:\n        /* \"#utility.yul\":16705:16778   */\n      tag_555\n        /* \"#utility.yul\":16773:16776   */\n      0x80\n        /* \"#utility.yul\":16762:16771   */\n      dup4\n        /* \"#utility.yul\":16758:16777   */\n      add\n        /* \"#utility.yul\":16749:16755   */\n      dup10\n        /* \"#utility.yul\":16705:16778   */\n      tag_343\n      jump\t// in\n    tag_555:\n        /* \"#utility.yul\":16788:16861   */\n      tag_556\n        /* \"#utility.yul\":16856:16859   */\n      0xa0\n        /* \"#utility.yul\":16845:16854   */\n      dup4\n        /* \"#utility.yul\":16841:16860   */\n      add\n        /* \"#utility.yul\":16832:16838   */\n      dup9\n        /* \"#utility.yul\":16788:16861   */\n      tag_343\n      jump\t// in\n    tag_556:\n        /* \"#utility.yul\":16871:16944   */\n      tag_557\n        /* \"#utility.yul\":16939:16942   */\n      0xc0\n        /* \"#utility.yul\":16928:16937   */\n      dup4\n        /* \"#utility.yul\":16924:16943   */\n      add\n        /* \"#utility.yul\":16915:16921   */\n      dup8\n        /* \"#utility.yul\":16871:16944   */\n      tag_343\n      jump\t// in\n    tag_557:\n        /* \"#utility.yul\":16954:17027   */\n      tag_558\n        /* \"#utility.yul\":17022:17025   */\n      0xe0\n        /* \"#utility.yul\":17011:17020   */\n      dup4\n        /* \"#utility.yul\":17007:17026   */\n      add\n        /* \"#utility.yul\":16998:17004   */\n      dup7\n        /* \"#utility.yul\":16954:17027   */\n      tag_343\n      jump\t// in\n    tag_558:\n        /* \"#utility.yul\":17037:17110   */\n      tag_559\n        /* \"#utility.yul\":17105:17108   */\n      0x0100\n        /* \"#utility.yul\":17094:17103   */\n      dup4\n        /* \"#utility.yul\":17090:17109   */\n      add\n        /* \"#utility.yul\":17081:17087   */\n      dup6\n        /* \"#utility.yul\":17037:17110   */\n      tag_343\n      jump\t// in\n    tag_559:\n        /* \"#utility.yul\":17120:17193   */\n      tag_560\n        /* \"#utility.yul\":17188:17191   */\n      0x0120\n        /* \"#utility.yul\":17177:17186   */\n      dup4\n        /* \"#utility.yul\":17173:17192   */\n      add\n        /* \"#utility.yul\":17164:17170   */\n      dup5\n        /* \"#utility.yul\":17120:17193   */\n      tag_343\n      jump\t// in\n    tag_560:\n        /* \"#utility.yul\":15708:17200   */\n      swap12\n      swap11\n      pop\n      pop\n      pop\n      pop\n      pop\n      pop\n      pop\n      pop\n      pop\n      pop\n      pop\n      jump\t// out\n        /* \"#utility.yul\":17206:17349   */\n    tag_370:\n        /* \"#utility.yul\":17302:17308   */\n      0x00\n        /* \"#utility.yul\":17336:17341   */\n      dup2\n        /* \"#utility.yul\":17330:17342   */\n      mload\n        /* \"#utility.yul\":17320:17342   */\n      swap1\n      pop\n        /* \"#utility.yul\":17206:17349   */\n      swap2\n      swap1\n      pop\n      jump\t// out\n        /* \"#utility.yul\":17355:17568   */\n    tag_371:\n        /* \"#utility.yul\":17483:17494   */\n      0x00\n        /* \"#utility.yul\":17517:17523   */\n      dup3\n        /* \"#utility.yul\":17512:17515   */\n      dup3\n        /* \"#utility.yul\":17505:17524   */\n      mstore\n        /* \"#utility.yul\":17557:17561   */\n      0x20\n        /* \"#utility.yul\":17552:17555   */\n      dup3\n        /* \"#utility.yul\":17548:17562   */\n      add\n        /* \"#utility.yul\":17533:17562   */\n      swap1\n      pop\n        /* \"#utility.yul\":17355:17568   */\n      swap3\n      swap2\n      pop\n      pop\n      jump\t// out\n        /* \"#utility.yul\":17574:17735   */\n    tag_372:\n        /* \"#utility.yul\":17670:17674   */\n      0x00\n        /* \"#utility.yul\":17693:17696   */\n      dup2\n        /* \"#utility.yul\":17685:17696   */\n      swap1\n      pop\n        /* \"#utility.yul\":17723:17727   */\n      0x20\n        /* \"#utility.yul\":17718:17721   */\n      dup3\n        /* \"#utility.yul\":17714:17728   */\n      add\n        /* \"#utility.yul\":17706:17728   */\n      swap1\n      pop\n        /* \"#utility.yul\":17574:17735   */\n      swap2\n      swap1\n      pop\n      jump\t// out\n        /* \"#utility.yul\":17741:17849   */\n    tag_373:\n        /* \"#utility.yul\":17818:17842   */\n      tag_565\n        /* \"#utility.yul\":17836:17841   */\n      dup2\n        /* \"#utility.yul\":17818:17842   */\n      tag_341\n      jump\t// in\n    tag_565:\n        /* \"#utility.yul\":17813:17816   */\n      dup3\n        /* \"#utility.yul\":17806:17843   */\n      mstore\n        /* \"#utility.yul\":17741:17849   */\n      pop\n      pop\n      jump\t// out\n        /* \"#utility.yul\":17951:19341   */\n    tag_374:\n        /* \"#utility.yul\":18068:18071   */\n      0x00\n        /* \"#utility.yul\":18104:18108   */\n      0xc0\n        /* \"#utility.yul\":18099:18102   */\n      dup4\n        /* \"#utility.yul\":18095:18109   */\n      add\n        /* \"#utility.yul\":18192:18196   */\n      0x00\n        /* \"#utility.yul\":18185:18190   */\n      dup4\n        /* \"#utility.yul\":18181:18197   */\n      add\n        /* \"#utility.yul\":18175:18198   */\n      mload\n        /* \"#utility.yul\":18211:18274   */\n      tag_567\n        /* \"#utility.yul\":18268:18272   */\n      0x00\n        /* \"#utility.yul\":18263:18266   */\n      dup7\n        /* \"#utility.yul\":18259:18273   */\n      add\n        /* \"#utility.yul\":18245:18257   */\n      dup3\n        /* \"#utility.yul\":18211:18274   */\n      tag_373\n      jump\t// in\n    tag_567:\n        /* \"#utility.yul\":18119:18284   */\n      pop\n        /* \"#utility.yul\":18367:18371   */\n      0x20\n        /* \"#utility.yul\":18360:18365   */\n      dup4\n        /* \"#utility.yul\":18356:18372   */\n      add\n        /* \"#utility.yul\":18350:18373   */\n      mload\n        /* \"#utility.yul\":18386:18449   */\n      tag_568\n        /* \"#utility.yul\":18443:18447   */\n      0x20\n        /* \"#utility.yul\":18438:18441   */\n      dup7\n        /* \"#utility.yul\":18434:18448   */\n      add\n        /* \"#utility.yul\":18420:18432   */\n      dup3\n        /* \"#utility.yul\":18386:18449   */\n      tag_373\n      jump\t// in\n    tag_568:\n        /* \"#utility.yul\":18294:18459   */\n      pop\n        /* \"#utility.yul\":18546:18550   */\n      0x40\n        /* \"#utility.yul\":18539:18544   */\n      dup4\n        /* \"#utility.yul\":18535:18551   */\n      add\n        /* \"#utility.yul\":18529:18552   */\n      mload\n        /* \"#utility.yul\":18599:18602   */\n      dup5\n        /* \"#utility.yul\":18593:18597   */\n      dup3\n        /* \"#utility.yul\":18589:18603   */\n      sub\n        /* \"#utility.yul\":18582:18586   */\n      0x40\n        /* \"#utility.yul\":18577:18580   */\n      dup7\n        /* \"#utility.yul\":18573:18587   */\n      add\n        /* \"#utility.yul\":18566:18604   */\n      mstore\n        /* \"#utility.yul\":18625:18698   */\n      tag_569\n        /* \"#utility.yul\":18693:18697   */\n      dup3\n        /* \"#utility.yul\":18679:18691   */\n      dup3\n        /* \"#utility.yul\":18625:18698   */\n      tag_356\n      jump\t// in\n    tag_569:\n        /* \"#utility.yul\":18617:18698   */\n      swap2\n      pop\n        /* \"#utility.yul\":18469:18709   */\n      pop\n        /* \"#utility.yul\":18796:18800   */\n      0x60\n        /* \"#utility.yul\":18789:18794   */\n      dup4\n        /* \"#utility.yul\":18785:18801   */\n      add\n        /* \"#utility.yul\":18779:18802   */\n      mload\n        /* \"#utility.yul\":18849:18852   */\n      dup5\n        /* \"#utility.yul\":18843:18847   */\n      dup3\n        /* \"#utility.yul\":18839:18853   */\n      sub\n        /* \"#utility.yul\":18832:18836   */\n      0x60\n        /* \"#utility.yul\":18827:18830   */\n      dup7\n        /* \"#utility.yul\":18823:18837   */\n      add\n        /* \"#utility.yul\":18816:18854   */\n      mstore\n        /* \"#utility.yul\":18875:18948   */\n      tag_570\n        /* \"#utility.yul\":18943:18947   */\n      dup3\n        /* \"#utility.yul\":18929:18941   */\n      dup3\n        /* \"#utility.yul\":18875:18948   */\n      tag_356\n      jump\t// in\n    tag_570:\n        /* \"#utility.yul\":18867:18948   */\n      swap2\n      pop\n        /* \"#utility.yul\":18719:18959   */\n      pop\n        /* \"#utility.yul\":19043:19047   */\n      0x80\n        /* \"#utility.yul\":19036:19041   */\n      dup4\n        /* \"#utility.yul\":19032:19048   */\n      add\n        /* \"#utility.yul\":19026:19049   */\n      mload\n        /* \"#utility.yul\":19062:19125   */\n      tag_571\n        /* \"#utility.yul\":19119:19123   */\n      0x80\n        /* \"#utility.yul\":19114:19117   */\n      dup7\n        /* \"#utility.yul\":19110:19124   */\n      add\n        /* \"#utility.yul\":19096:19108   */\n      dup3\n        /* \"#utility.yul\":19062:19125   */\n      tag_363\n      jump\t// in\n    tag_571:\n        /* \"#utility.yul\":18969:19135   */\n      pop\n        /* \"#utility.yul\":19222:19226   */\n      0xa0\n        /* \"#utility.yul\":19215:19220   */\n      dup4\n        /* \"#utility.yul\":19211:19227   */\n      add\n        /* \"#utility.yul\":19205:19228   */\n      mload\n        /* \"#utility.yul\":19241:19304   */\n      tag_572\n        /* \"#utility.yul\":19298:19302   */\n      0xa0\n        /* \"#utility.yul\":19293:19296   */\n      dup7\n        /* \"#utility.yul\":19289:19303   */\n      add\n        /* \"#utility.yul\":19275:19287   */\n      dup3\n        /* \"#utility.yul\":19241:19304   */\n      tag_363\n      jump\t// in\n    tag_572:\n        /* \"#utility.yul\":19145:19314   */\n      pop\n        /* \"#utility.yul\":19331:19335   */\n      dup1\n        /* \"#utility.yul\":19324:19335   */\n      swap2\n      pop\n        /* \"#utility.yul\":18073:19341   */\n      pop\n        /* \"#utility.yul\":17951:19341   */\n      swap3\n      swap2\n      pop\n      pop\n      jump\t// out\n        /* \"#utility.yul\":19347:19619   */\n    tag_375:\n        /* \"#utility.yul\":19474:19484   */\n      0x00\n        /* \"#utility.yul\":19509:19613   */\n      tag_574\n        /* \"#utility.yul\":19609:19612   */\n      dup4\n        /* \"#utility.yul\":19601:19607   */\n      dup4\n        /* \"#utility.yul\":19509:19613   */\n      tag_374\n      jump\t// in\n    tag_574:\n        /* \"#utility.yul\":19495:19613   */\n      swap1\n      pop\n        /* \"#utility.yul\":19347:19619   */\n      swap3\n      swap2\n      pop\n      pop\n      jump\t// out\n        /* \"#utility.yul\":19625:19767   */\n    tag_376:\n        /* \"#utility.yul\":19724:19728   */\n      0x00\n        /* \"#utility.yul\":19756:19760   */\n      0x20\n        /* \"#utility.yul\":19751:19754   */\n      dup3\n        /* \"#utility.yul\":19747:19761   */\n      add\n        /* \"#utility.yul\":19739:19761   */\n      swap1\n      pop\n        /* \"#utility.yul\":19625:19767   */\n      swap2\n      swap1\n      pop\n      jump\t// out\n        /* \"#utility.yul\":19873:21016   */\n    tag_377:\n        /* \"#utility.yul\":20050:20053   */\n      0x00\n        /* \"#utility.yul\":20079:20162   */\n      tag_577\n        /* \"#utility.yul\":20156:20161   */\n      dup3\n        /* \"#utility.yul\":20079:20162   */\n      tag_370\n      jump\t// in\n    tag_577:\n        /* \"#utility.yul\":20178:20293   */\n      tag_578\n        /* \"#utility.yul\":20286:20292   */\n      dup2\n        /* \"#utility.yul\":20281:20284   */\n      dup6\n        /* \"#utility.yul\":20178:20293   */\n      tag_371\n      jump\t// in\n    tag_578:\n        /* \"#utility.yul\":20171:20293   */\n      swap4\n      pop\n        /* \"#utility.yul\":20319:20322   */\n      dup4\n        /* \"#utility.yul\":20364:20368   */\n      0x20\n        /* \"#utility.yul\":20356:20362   */\n      dup3\n        /* \"#utility.yul\":20352:20369   */\n      mul\n        /* \"#utility.yul\":20347:20350   */\n      dup6\n        /* \"#utility.yul\":20343:20370   */\n      add\n        /* \"#utility.yul\":20394:20479   */\n      tag_579\n        /* \"#utility.yul\":20473:20478   */\n      dup6\n        /* \"#utility.yul\":20394:20479   */\n      tag_372\n      jump\t// in\n    tag_579:\n        /* \"#utility.yul\":20502:20509   */\n      dup1\n        /* \"#utility.yul\":20533:20534   */\n      0x00\n        /* \"#utility.yul\":20518:20971   */\n    tag_580:\n        /* \"#utility.yul\":20543:20549   */\n      dup6\n        /* \"#utility.yul\":20540:20541   */\n      dup2\n        /* \"#utility.yul\":20537:20550   */\n      lt\n        /* \"#utility.yul\":20518:20971   */\n      iszero\n      tag_582\n      jumpi\n        /* \"#utility.yul\":20614:20623   */\n      dup5\n        /* \"#utility.yul\":20608:20612   */\n      dup5\n        /* \"#utility.yul\":20604:20624   */\n      sub\n        /* \"#utility.yul\":20599:20602   */\n      dup10\n        /* \"#utility.yul\":20592:20625   */\n      mstore\n        /* \"#utility.yul\":20665:20671   */\n      dup2\n        /* \"#utility.yul\":20659:20672   */\n      mload\n        /* \"#utility.yul\":20693:20815   */\n      tag_583\n        /* \"#utility.yul\":20810:20814   */\n      dup6\n        /* \"#utility.yul\":20795:20808   */\n      dup3\n        /* \"#utility.yul\":20693:20815   */\n      tag_375\n      jump\t// in\n    tag_583:\n        /* \"#utility.yul\":20685:20815   */\n      swap5\n      pop\n        /* \"#utility.yul\":20838:20927   */\n      tag_584\n        /* \"#utility.yul\":20920:20926   */\n      dup4\n        /* \"#utility.yul\":20838:20927   */\n      tag_376\n      jump\t// in\n    tag_584:\n        /* \"#utility.yul\":20828:20927   */\n      swap3\n      pop\n        /* \"#utility.yul\":20956:20960   */\n      0x20\n        /* \"#utility.yul\":20951:20954   */\n      dup11\n        /* \"#utility.yul\":20947:20961   */\n      add\n        /* \"#utility.yul\":20940:20961   */\n      swap10\n      pop\n        /* \"#utility.yul\":20578:20971   */\n      pop\n        /* \"#utility.yul\":20565:20566   */\n      0x01\n        /* \"#utility.yul\":20562:20563   */\n      dup2\n        /* \"#utility.yul\":20558:20567   */\n      add\n        /* \"#utility.yul\":20553:20567   */\n      swap1\n      pop\n        /* \"#utility.yul\":20518:20971   */\n      jump(tag_580)\n    tag_582:\n        /* \"#utility.yul\":20522:20536   */\n      pop\n        /* \"#utility.yul\":20987:20991   */\n      dup3\n        /* \"#utility.yul\":20980:20991   */\n      swap8\n      pop\n        /* \"#utility.yul\":21007:21010   */\n      dup8\n        /* \"#utility.yul\":21000:21010   */\n      swap6\n      pop\n        /* \"#utility.yul\":20055:21016   */\n      pop\n      pop\n      pop\n      pop\n      pop\n        /* \"#utility.yul\":19873:21016   */\n      swap3\n      swap2\n      pop\n      pop\n      jump\t// out\n        /* \"#utility.yul\":21022:21511   */\n    tag_59:\n        /* \"#utility.yul\":21223:21227   */\n      0x00\n        /* \"#utility.yul\":21261:21263   */\n      0x20\n        /* \"#utility.yul\":21250:21259   */\n      dup3\n        /* \"#utility.yul\":21246:21264   */\n      add\n        /* \"#utility.yul\":21238:21264   */\n      swap1\n      pop\n        /* \"#utility.yul\":21310:21319   */\n      dup2\n        /* \"#utility.yul\":21304:21308   */\n      dup2\n        /* \"#utility.yul\":21300:21320   */\n      sub\n        /* \"#utility.yul\":21296:21297   */\n      0x00\n        /* \"#utility.yul\":21285:21294   */\n      dup4\n        /* \"#utility.yul\":21281:21298   */\n      add\n        /* \"#utility.yul\":21274:21321   */\n      mstore\n        /* \"#utility.yul\":21338:21504   */\n      tag_586\n        /* \"#utility.yul\":21499:21503   */\n      dup2\n        /* \"#utility.yul\":21490:21496   */\n      dup5\n        /* \"#utility.yul\":21338:21504   */\n      tag_377\n      jump\t// in\n    tag_586:\n        /* \"#utility.yul\":21330:21504   */\n      swap1\n      pop\n        /* \"#utility.yul\":21022:21511   */\n      swap3\n      swap2\n      pop\n      pop\n      jump\t// out\n        /* \"#utility.yul\":21517:21846   */\n    tag_63:\n        /* \"#utility.yul\":21576:21582   */\n      0x00\n        /* \"#utility.yul\":21625:21627   */\n      0x20\n        /* \"#utility.yul\":21613:21622   */\n      dup3\n        /* \"#utility.yul\":21604:21611   */\n      dup5\n        /* \"#utility.yul\":21600:21623   */\n      sub\n        /* \"#utility.yul\":21596:21628   */\n      slt\n        /* \"#utility.yul\":21593:21712   */\n      iszero\n      tag_588\n      jumpi\n        /* \"#utility.yul\":21631:21710   */\n      tag_589\n      tag_330\n      jump\t// in\n    tag_589:\n        /* \"#utility.yul\":21593:21712   */\n    tag_588:\n        /* \"#utility.yul\":21751:21752   */\n      0x00\n        /* \"#utility.yul\":21776:21829   */\n      tag_590\n        /* \"#utility.yul\":21821:21828   */\n      dup5\n        /* \"#utility.yul\":21812:21818   */\n      dup3\n        /* \"#utility.yul\":21801:21810   */\n      dup6\n        /* \"#utility.yul\":21797:21819   */\n      add\n        /* \"#utility.yul\":21776:21829   */\n      tag_369\n      jump\t// in\n    tag_590:\n        /* \"#utility.yul\":21766:21829   */\n      swap2\n      pop\n        /* \"#utility.yul\":21722:21839   */\n      pop\n        /* \"#utility.yul\":21517:21846   */\n      swap3\n      swap2\n      pop\n      pop\n      jump\t// out\n        /* \"#utility.yul\":21852:22074   */\n    tag_66:\n        /* \"#utility.yul\":21945:21949   */\n      0x00\n        /* \"#utility.yul\":21983:21985   */\n      0x20\n        /* \"#utility.yul\":21972:21981   */\n      dup3\n        /* \"#utility.yul\":21968:21986   */\n      add\n        /* \"#utility.yul\":21960:21986   */\n      swap1\n      pop\n        /* \"#utility.yul\":21996:22067   */\n      tag_592\n        /* \"#utility.yul\":22064:22065   */\n      0x00\n        /* \"#utility.yul\":22053:22062   */\n      dup4\n        /* \"#utility.yul\":22049:22066   */\n      add\n        /* \"#utility.yul\":22040:22046   */\n      dup5\n        /* \"#utility.yul\":21996:22067   */\n      tag_343\n      jump\t// in\n    tag_592:\n        /* \"#utility.yul\":21852:22074   */\n      swap3\n      swap2\n      pop\n      pop\n      jump\t// out\n        /* \"#utility.yul\":22080:22734   */\n    tag_70:\n        /* \"#utility.yul\":22158:22164   */\n      0x00\n        /* \"#utility.yul\":22166:22172   */\n      dup1\n        /* \"#utility.yul\":22215:22217   */\n      0x40\n        /* \"#utility.yul\":22203:22212   */\n      dup4\n        /* \"#utility.yul\":22194:22201   */\n      dup6\n        /* \"#utility.yul\":22190:22213   */\n      sub\n        /* \"#utility.yul\":22186:22218   */\n      slt\n        /* \"#utility.yul\":22183:22302   */\n      iszero\n      tag_594\n      jumpi\n        /* \"#utility.yul\":22221:22300   */\n      tag_595\n      tag_330\n      jump\t// in\n    tag_595:\n        /* \"#utility.yul\":22183:22302   */\n    tag_594:\n        /* \"#utility.yul\":22341:22342   */\n      0x00\n        /* \"#utility.yul\":22366:22419   */\n      tag_596\n        /* \"#utility.yul\":22411:22418   */\n      dup6\n        /* \"#utility.yul\":22402:22408   */\n      dup3\n        /* \"#utility.yul\":22391:22400   */\n      dup7\n        /* \"#utility.yul\":22387:22409   */\n      add\n        /* \"#utility.yul\":22366:22419   */\n      tag_369\n      jump\t// in\n    tag_596:\n        /* \"#utility.yul\":22356:22419   */\n      swap3\n      pop\n        /* \"#utility.yul\":22312:22429   */\n      pop\n        /* \"#utility.yul\":22496:22498   */\n      0x20\n        /* \"#utility.yul\":22485:22494   */\n      dup4\n        /* \"#utility.yul\":22481:22499   */\n      add\n        /* \"#utility.yul\":22468:22500   */\n      calldataload\n        /* \"#utility.yul\":22527:22545   */\n      0xffffffffffffffff\n        /* \"#utility.yul\":22519:22525   */\n      dup2\n        /* \"#utility.yul\":22516:22546   */\n      gt\n        /* \"#utility.yul\":22513:22630   */\n      iszero\n      tag_597\n      jumpi\n        /* \"#utility.yul\":22549:22628   */\n      tag_598\n      tag_331\n      jump\t// in\n    tag_598:\n        /* \"#utility.yul\":22513:22630   */\n    tag_597:\n        /* \"#utility.yul\":22654:22717   */\n      tag_599\n        /* \"#utility.yul\":22709:22716   */\n      dup6\n        /* \"#utility.yul\":22700:22706   */\n      dup3\n        /* \"#utility.yul\":22689:22698   */\n      dup7\n        /* \"#utility.yul\":22685:22707   */\n      add\n        /* \"#utility.yul\":22654:22717   */\n      tag_351\n      jump\t// in\n    tag_599:\n        /* \"#utility.yul\":22644:22717   */\n      swap2\n      pop\n        /* \"#utility.yul\":22439:22727   */\n      pop\n        /* \"#utility.yul\":22080:22734   */\n      swap3\n      pop\n      swap3\n      swap1\n      pop\n      jump\t// out\n        /* \"#utility.yul\":22740:23214   */\n    tag_80:\n        /* \"#utility.yul\":22808:22814   */\n      0x00\n        /* \"#utility.yul\":22816:22822   */\n      dup1\n        /* \"#utility.yul\":22865:22867   */\n      0x40\n        /* \"#utility.yul\":22853:22862   */\n      dup4\n        /* \"#utility.yul\":22844:22851   */\n      dup6\n        /* \"#utility.yul\":22840:22863   */\n      sub\n        /* \"#utility.yul\":22836:22868   */\n      slt\n        /* \"#utility.yul\":22833:22952   */\n      iszero\n      tag_601\n      jumpi\n        /* \"#utility.yul\":22871:22950   */\n      tag_602\n      tag_330\n      jump\t// in\n    tag_602:\n        /* \"#utility.yul\":22833:22952   */\n    tag_601:\n        /* \"#utility.yul\":22991:22992   */\n      0x00\n        /* \"#utility.yul\":23016:23069   */\n      tag_603\n        /* \"#utility.yul\":23061:23068   */\n      dup6\n        /* \"#utility.yul\":23052:23058   */\n      dup3\n        /* \"#utility.yul\":23041:23050   */\n      dup7\n        /* \"#utility.yul\":23037:23059   */\n      add\n        /* \"#utility.yul\":23016:23069   */\n      tag_369\n      jump\t// in\n    tag_603:\n        /* \"#utility.yul\":23006:23069   */\n      swap3\n      pop\n        /* \"#utility.yul\":22962:23079   */\n      pop\n        /* \"#utility.yul\":23118:23120   */\n      0x20\n        /* \"#utility.yul\":23144:23197   */\n      tag_604\n        /* \"#utility.yul\":23189:23196   */\n      dup6\n        /* \"#utility.yul\":23180:23186   */\n      dup3\n        /* \"#utility.yul\":23169:23178   */\n      dup7\n        /* \"#utility.yul\":23165:23187   */\n      add\n        /* \"#utility.yul\":23144:23197   */\n      tag_334\n      jump\t// in\n    tag_604:\n        /* \"#utility.yul\":23134:23197   */\n      swap2\n      pop\n        /* \"#utility.yul\":23089:23207   */\n      pop\n        /* \"#utility.yul\":22740:23214   */\n      swap3\n      pop\n      swap3\n      swap1\n      pop\n      jump\t// out\n        /* \"#utility.yul\":23220:23442   */\n    tag_88:\n        /* \"#utility.yul\":23313:23317   */\n      0x00\n        /* \"#utility.yul\":23351:23353   */\n      0x20\n        /* \"#utility.yul\":23340:23349   */\n      dup3\n        /* \"#utility.yul\":23336:23354   */\n      add\n        /* \"#utility.yul\":23328:23354   */\n      swap1\n      pop\n        /* \"#utility.yul\":23364:23435   */\n      tag_606\n        /* \"#utility.yul\":23432:23433   */\n      0x00\n        /* \"#utility.yul\":23421:23430   */\n      dup4\n        /* \"#utility.yul\":23417:23434   */\n      add\n        /* \"#utility.yul\":23408:23414   */\n      dup5\n        /* \"#utility.yul\":23364:23435   */\n      tag_342\n      jump\t// in\n    tag_606:\n        /* \"#utility.yul\":23220:23442   */\n      swap3\n      swap2\n      pop\n      pop\n      jump\t// out\n        /* \"#utility.yul\":23448:23552   */\n    tag_378:\n        /* \"#utility.yul\":23493:23500   */\n      0x00\n        /* \"#utility.yul\":23522:23546   */\n      tag_608\n        /* \"#utility.yul\":23540:23545   */\n      dup3\n        /* \"#utility.yul\":23522:23546   */\n      tag_340\n      jump\t// in\n    tag_608:\n        /* \"#utility.yul\":23511:23546   */\n      swap1\n      pop\n        /* \"#utility.yul\":23448:23552   */\n      swap2\n      swap1\n      pop\n      jump\t// out\n        /* \"#utility.yul\":23558:23696   */\n    tag_379:\n        /* \"#utility.yul\":23639:23671   */\n      tag_610\n        /* \"#utility.yul\":23665:23670   */\n      dup2\n        /* \"#utility.yul\":23639:23671   */\n      tag_378\n      jump\t// in\n    tag_610:\n        /* \"#utility.yul\":23632:23637   */\n      dup2\n        /* \"#utility.yul\":23629:23672   */\n      eq\n        /* \"#utility.yul\":23619:23690   */\n      tag_611\n      jumpi\n        /* \"#utility.yul\":23686:23687   */\n      0x00\n        /* \"#utility.yul\":23683:23684   */\n      dup1\n        /* \"#utility.yul\":23676:23688   */\n      revert\n        /* \"#utility.yul\":23619:23690   */\n    tag_611:\n        /* \"#utility.yul\":23558:23696   */\n      pop\n      jump\t// out\n        /* \"#utility.yul\":23702:23857   */\n    tag_380:\n        /* \"#utility.yul\":23756:23761   */\n      0x00\n        /* \"#utility.yul\":23794:23800   */\n      dup2\n        /* \"#utility.yul\":23781:23801   */\n      calldataload\n        /* \"#utility.yul\":23772:23801   */\n      swap1\n      pop\n        /* \"#utility.yul\":23810:23851   */\n      tag_613\n        /* \"#utility.yul\":23845:23850   */\n      dup2\n        /* \"#utility.yul\":23810:23851   */\n      tag_379\n      jump\t// in\n    tag_613:\n        /* \"#utility.yul\":23702:23857   */\n      swap3\n      swap2\n      pop\n      pop\n      jump\t// out\n        /* \"#utility.yul\":23863:24353   */\n    tag_92:\n        /* \"#utility.yul\":23939:23945   */\n      0x00\n        /* \"#utility.yul\":23947:23953   */\n      dup1\n        /* \"#utility.yul\":23996:23998   */\n      0x40\n        /* \"#utility.yul\":23984:23993   */\n      dup4\n        /* \"#utility.yul\":23975:23982   */\n      dup6\n        /* \"#utility.yul\":23971:23994   */\n      sub\n        /* \"#utility.yul\":23967:23999   */\n      slt\n        /* \"#utility.yul\":23964:24083   */\n      iszero\n      tag_615\n      jumpi\n        /* \"#utility.yul\":24002:24081   */\n      tag_616\n      tag_330\n      jump\t// in\n    tag_616:\n        /* \"#utility.yul\":23964:24083   */\n    tag_615:\n        /* \"#utility.yul\":24122:24123   */\n      0x00\n        /* \"#utility.yul\":24147:24208   */\n      tag_617\n        /* \"#utility.yul\":24200:24207   */\n      dup6\n        /* \"#utility.yul\":24191:24197   */\n      dup3\n        /* \"#utility.yul\":24180:24189   */\n      dup7\n        /* \"#utility.yul\":24176:24198   */\n      add\n        /* \"#utility.yul\":24147:24208   */\n      tag_380\n      jump\t// in\n    tag_617:\n        /* \"#utility.yul\":24137:24208   */\n      swap3\n      pop\n        /* \"#utility.yul\":24093:24218   */\n      pop\n        /* \"#utility.yul\":24257:24259   */\n      0x20\n        /* \"#utility.yul\":24283:24336   */\n      tag_618\n        /* \"#utility.yul\":24328:24335   */\n      dup6\n        /* \"#utility.yul\":24319:24325   */\n      dup3\n        /* \"#utility.yul\":24308:24317   */\n      dup7\n        /* \"#utility.yul\":24304:24326   */\n      add\n        /* \"#utility.yul\":24283:24336   */\n      tag_334\n      jump\t// in\n    tag_618:\n        /* \"#utility.yul\":24273:24336   */\n      swap2\n      pop\n        /* \"#utility.yul\":24228:24346   */\n      pop\n        /* \"#utility.yul\":23863:24353   */\n      swap3\n      pop\n      swap3\n      swap1\n      pop\n      jump\t// out\n        /* \"#utility.yul\":24359:24449   */\n    tag_381:\n        /* \"#utility.yul\":24393:24400   */\n      0x00\n        /* \"#utility.yul\":24436:24441   */\n      dup2\n        /* \"#utility.yul\":24429:24442   */\n      iszero\n        /* \"#utility.yul\":24422:24443   */\n      iszero\n        /* \"#utility.yul\":24411:24443   */\n      swap1\n      pop\n        /* \"#utility.yul\":24359:24449   */\n      swap2\n      swap1\n      pop\n      jump\t// out\n        /* \"#utility.yul\":24455:24564   */\n    tag_382:\n        /* \"#utility.yul\":24536:24557   */\n      tag_621\n        /* \"#utility.yul\":24551:24556   */\n      dup2\n        /* \"#utility.yul\":24536:24557   */\n      tag_381\n      jump\t// in\n    tag_621:\n        /* \"#utility.yul\":24531:24534   */\n      dup3\n        /* \"#utility.yul\":24524:24558   */\n      mstore\n        /* \"#utility.yul\":24455:24564   */\n      pop\n      pop\n      jump\t// out\n        /* \"#utility.yul\":24570:24780   */\n    tag_99:\n        /* \"#utility.yul\":24657:24661   */\n      0x00\n        /* \"#utility.yul\":24695:24697   */\n      0x20\n        /* \"#utility.yul\":24684:24693   */\n      dup3\n        /* \"#utility.yul\":24680:24698   */\n      add\n        /* \"#utility.yul\":24672:24698   */\n      swap1\n      pop\n        /* \"#utility.yul\":24708:24773   */\n      tag_623\n        /* \"#utility.yul\":24770:24771   */\n      0x00\n        /* \"#utility.yul\":24759:24768   */\n      dup4\n        /* \"#utility.yul\":24755:24772   */\n      add\n        /* \"#utility.yul\":24746:24752   */\n      dup5\n        /* \"#utility.yul\":24708:24773   */\n      tag_382\n      jump\t// in\n    tag_623:\n        /* \"#utility.yul\":24570:24780   */\n      swap3\n      swap2\n      pop\n      pop\n      jump\t// out\n        /* \"#utility.yul\":24786:27115   */\n    tag_103:\n        /* \"#utility.yul\":24965:24971   */\n      0x00\n        /* \"#utility.yul\":24973:24979   */\n      dup1\n        /* \"#utility.yul\":24981:24987   */\n      0x00\n        /* \"#utility.yul\":24989:24995   */\n      dup1\n        /* \"#utility.yul\":24997:25003   */\n      0x00\n        /* \"#utility.yul\":25005:25011   */\n      dup1\n        /* \"#utility.yul\":25013:25019   */\n      0x00\n        /* \"#utility.yul\":25021:25027   */\n      dup1\n        /* \"#utility.yul\":25029:25035   */\n      0x00\n        /* \"#utility.yul\":25037:25043   */\n      dup1\n        /* \"#utility.yul\":25045:25052   */\n      0x00\n        /* \"#utility.yul\":25095:25098   */\n      0x0160\n        /* \"#utility.yul\":25083:25092   */\n      dup13\n        /* \"#utility.yul\":25074:25081   */\n      dup15\n        /* \"#utility.yul\":25070:25093   */\n      sub\n        /* \"#utility.yul\":25066:25099   */\n      slt\n        /* \"#utility.yul\":25063:25183   */\n      iszero\n      tag_625\n      jumpi\n        /* \"#utility.yul\":25102:25181   */\n      tag_626\n      tag_330\n      jump\t// in\n    tag_626:\n        /* \"#utility.yul\":25063:25183   */\n    tag_625:\n        /* \"#utility.yul\":25250:25251   */\n      0x00\n        /* \"#utility.yul\":25239:25248   */\n      dup13\n        /* \"#utility.yul\":25235:25252   */\n      add\n        /* \"#utility.yul\":25222:25253   */\n      calldataload\n        /* \"#utility.yul\":25280:25298   */\n      0xffffffffffffffff\n        /* \"#utility.yul\":25272:25278   */\n      dup2\n        /* \"#utility.yul\":25269:25299   */\n      gt\n        /* \"#utility.yul\":25266:25383   */\n      iszero\n      tag_627\n      jumpi\n        /* \"#utility.yul\":25302:25381   */\n      tag_628\n      tag_331\n      jump\t// in\n    tag_628:\n        /* \"#utility.yul\":25266:25383   */\n    tag_627:\n        /* \"#utility.yul\":25407:25470   */\n      tag_629\n        /* \"#utility.yul\":25462:25469   */\n      dup15\n        /* \"#utility.yul\":25453:25459   */\n      dup3\n        /* \"#utility.yul\":25442:25451   */\n      dup16\n        /* \"#utility.yul\":25438:25460   */\n      add\n        /* \"#utility.yul\":25407:25470   */\n      tag_351\n      jump\t// in\n    tag_629:\n        /* \"#utility.yul\":25397:25470   */\n      swap12\n      pop\n        /* \"#utility.yul\":25193:25480   */\n      pop\n        /* \"#utility.yul\":25547:25549   */\n      0x20\n        /* \"#utility.yul\":25536:25545   */\n      dup13\n        /* \"#utility.yul\":25532:25550   */\n      add\n        /* \"#utility.yul\":25519:25551   */\n      calldataload\n        /* \"#utility.yul\":25578:25596   */\n      0xffffffffffffffff\n        /* \"#utility.yul\":25570:25576   */\n      dup2\n        /* \"#utility.yul\":25567:25597   */\n      gt\n        /* \"#utility.yul\":25564:25681   */\n      iszero\n      tag_630\n      jumpi\n        /* \"#utility.yul\":25600:25679   */\n      tag_631\n      tag_331\n      jump\t// in\n    tag_631:\n        /* \"#utility.yul\":25564:25681   */\n    tag_630:\n        /* \"#utility.yul\":25705:25768   */\n      tag_632\n        /* \"#utility.yul\":25760:25767   */\n      dup15\n        /* \"#utility.yul\":25751:25757   */\n      dup3\n        /* \"#utility.yul\":25740:25749   */\n      dup16\n        /* \"#utility.yul\":25736:25758   */\n      add\n        /* \"#utility.yul\":25705:25768   */\n      tag_351\n      jump\t// in\n    tag_632:\n        /* \"#utility.yul\":25695:25768   */\n      swap11\n      pop\n        /* \"#utility.yul\":25490:25778   */\n      pop\n        /* \"#utility.yul\":25845:25847   */\n      0x40\n        /* \"#utility.yul\":25834:25843   */\n      dup13\n        /* \"#utility.yul\":25830:25848   */\n      add\n        /* \"#utility.yul\":25817:25849   */\n      calldataload\n        /* \"#utility.yul\":25876:25894   */\n      0xffffffffffffffff\n        /* \"#utility.yul\":25868:25874   */\n      dup2\n        /* \"#utility.yul\":25865:25895   */\n      gt\n        /* \"#utility.yul\":25862:25979   */\n      iszero\n      tag_633\n      jumpi\n        /* \"#utility.yul\":25898:25977   */\n      tag_634\n      tag_331\n      jump\t// in\n    tag_634:\n        /* \"#utility.yul\":25862:25979   */\n    tag_633:\n        /* \"#utility.yul\":26003:26066   */\n      tag_635\n        /* \"#utility.yul\":26058:26065   */\n      dup15\n        /* \"#utility.yul\":26049:26055   */\n      dup3\n        /* \"#utility.yul\":26038:26047   */\n      dup16\n        /* \"#utility.yul\":26034:26056   */\n      add\n        /* \"#utility.yul\":26003:26066   */\n      tag_351\n      jump\t// in\n    tag_635:\n        /* \"#utility.yul\":25993:26066   */\n      swap10\n      pop\n        /* \"#utility.yul\":25788:26076   */\n      pop\n        /* \"#utility.yul\":26115:26117   */\n      0x60\n        /* \"#utility.yul\":26141:26194   */\n      tag_636\n        /* \"#utility.yul\":26186:26193   */\n      dup15\n        /* \"#utility.yul\":26177:26183   */\n      dup3\n        /* \"#utility.yul\":26166:26175   */\n      dup16\n        /* \"#utility.yul\":26162:26184   */\n      add\n        /* \"#utility.yul\":26141:26194   */\n      tag_334\n      jump\t// in\n    tag_636:\n        /* \"#utility.yul\":26131:26194   */\n      swap9\n      pop\n        /* \"#utility.yul\":26086:26204   */\n      pop\n        /* \"#utility.yul\":26243:26246   */\n      0x80\n        /* \"#utility.yul\":26270:26323   */\n      tag_637\n        /* \"#utility.yul\":26315:26322   */\n      dup15\n        /* \"#utility.yul\":26306:26312   */\n      dup3\n        /* \"#utility.yul\":26295:26304   */\n      dup16\n        /* \"#utility.yul\":26291:26313   */\n      add\n        /* \"#utility.yul\":26270:26323   */\n      tag_334\n      jump\t// in\n    tag_637:\n        /* \"#utility.yul\":26260:26323   */\n      swap8\n      pop\n        /* \"#utility.yul\":26214:26333   */\n      pop\n        /* \"#utility.yul\":26372:26375   */\n      0xa0\n        /* \"#utility.yul\":26399:26452   */\n      tag_638\n        /* \"#utility.yul\":26444:26451   */\n      dup15\n        /* \"#utility.yul\":26435:26441   */\n      dup3\n        /* \"#utility.yul\":26424:26433   */\n      dup16\n        /* \"#utility.yul\":26420:26442   */\n      add\n        /* \"#utility.yul\":26399:26452   */\n      tag_334\n      jump\t// in\n    tag_638:\n        /* \"#utility.yul\":26389:26452   */\n      swap7\n      pop\n        /* \"#utility.yul\":26343:26462   */\n      pop\n        /* \"#utility.yul\":26501:26504   */\n      0xc0\n        /* \"#utility.yul\":26528:26581   */\n      tag_639\n        /* \"#utility.yul\":26573:26580   */\n      dup15\n        /* \"#utility.yul\":26564:26570   */\n      dup3\n        /* \"#utility.yul\":26553:26562   */\n      dup16\n        /* \"#utility.yul\":26549:26571   */\n      add\n        /* \"#utility.yul\":26528:26581   */\n      tag_334\n      jump\t// in\n    tag_639:\n        /* \"#utility.yul\":26518:26581   */\n      swap6\n      pop\n        /* \"#utility.yul\":26472:26591   */\n      pop\n        /* \"#utility.yul\":26630:26633   */\n      0xe0\n        /* \"#utility.yul\":26657:26710   */\n      tag_640\n        /* \"#utility.yul\":26702:26709   */\n      dup15\n        /* \"#utility.yul\":26693:26699   */\n      dup3\n        /* \"#utility.yul\":26682:26691   */\n      dup16\n        /* \"#utility.yul\":26678:26700   */\n      add\n        /* \"#utility.yul\":26657:26710   */\n      tag_334\n      jump\t// in\n    tag_640:\n        /* \"#utility.yul\":26647:26710   */\n      swap5\n      pop\n        /* \"#utility.yul\":26601:26720   */\n      pop\n        /* \"#utility.yul\":26759:26762   */\n      0x0100\n        /* \"#utility.yul\":26786:26839   */\n      tag_641\n        /* \"#utility.yul\":26831:26838   */\n      dup15\n        /* \"#utility.yul\":26822:26828   */\n      dup3\n        /* \"#utility.yul\":26811:26820   */\n      dup16\n        /* \"#utility.yul\":26807:26829   */\n      add\n        /* \"#utility.yul\":26786:26839   */\n      tag_334\n      jump\t// in\n    tag_641:\n        /* \"#utility.yul\":26776:26839   */\n      swap4\n      pop\n        /* \"#utility.yul\":26730:26849   */\n      pop\n        /* \"#utility.yul\":26888:26891   */\n      0x0120\n        /* \"#utility.yul\":26915:26968   */\n      tag_642\n        /* \"#utility.yul\":26960:26967   */\n      dup15\n        /* \"#utility.yul\":26951:26957   */\n      dup3\n        /* \"#utility.yul\":26940:26949   */\n      dup16\n        /* \"#utility.yul\":26936:26958   */\n      add\n        /* \"#utility.yul\":26915:26968   */\n      tag_334\n      jump\t// in\n    tag_642:\n        /* \"#utility.yul\":26905:26968   */\n      swap3\n      pop\n        /* \"#utility.yul\":26859:26978   */\n      pop\n        /* \"#utility.yul\":27017:27020   */\n      0x0140\n        /* \"#utility.yul\":27045:27098   */\n      tag_643\n        /* \"#utility.yul\":27090:27097   */\n      dup15\n        /* \"#utility.yul\":27081:27087   */\n      dup3\n        /* \"#utility.yul\":27070:27079   */\n      dup16\n        /* \"#utility.yul\":27066:27088   */\n      add\n        /* \"#utility.yul\":27045:27098   */\n      tag_334\n      jump\t// in\n    tag_643:\n        /* \"#utility.yul\":27034:27098   */\n      swap2\n      pop\n        /* \"#utility.yul\":26988:27108   */\n      pop\n        /* \"#utility.yul\":24786:27115   */\n      swap3\n      swap6\n      swap9\n      swap12\n      pop\n      swap3\n      swap6\n      swap9\n      swap12\n      swap1\n      swap4\n      swap7\n      swap10\n      pop\n      jump\t// out\n        /* \"#utility.yul\":27121:27630   */\n    tag_123:\n        /* \"#utility.yul\":27190:27196   */\n      0x00\n        /* \"#utility.yul\":27239:27241   */\n      0x20\n        /* \"#utility.yul\":27227:27236   */\n      dup3\n        /* \"#utility.yul\":27218:27225   */\n      dup5\n        /* \"#utility.yul\":27214:27237   */\n      sub\n        /* \"#utility.yul\":27210:27242   */\n      slt\n        /* \"#utility.yul\":27207:27326   */\n      iszero\n      tag_645\n      jumpi\n        /* \"#utility.yul\":27245:27324   */\n      tag_646\n      tag_330\n      jump\t// in\n    tag_646:\n        /* \"#utility.yul\":27207:27326   */\n    tag_645:\n        /* \"#utility.yul\":27393:27394   */\n      0x00\n        /* \"#utility.yul\":27382:27391   */\n      dup3\n        /* \"#utility.yul\":27378:27395   */\n      add\n        /* \"#utility.yul\":27365:27396   */\n      calldataload\n        /* \"#utility.yul\":27423:27441   */\n      0xffffffffffffffff\n        /* \"#utility.yul\":27415:27421   */\n      dup2\n        /* \"#utility.yul\":27412:27442   */\n      gt\n        /* \"#utility.yul\":27409:27526   */\n      iszero\n      tag_647\n      jumpi\n        /* \"#utility.yul\":27445:27524   */\n      tag_648\n      tag_331\n      jump\t// in\n    tag_648:\n        /* \"#utility.yul\":27409:27526   */\n    tag_647:\n        /* \"#utility.yul\":27550:27613   */\n      tag_649\n        /* \"#utility.yul\":27605:27612   */\n      dup5\n        /* \"#utility.yul\":27596:27602   */\n      dup3\n        /* \"#utility.yul\":27585:27594   */\n      dup6\n        /* \"#utility.yul\":27581:27603   */\n      add\n        /* \"#utility.yul\":27550:27613   */\n      tag_351\n      jump\t// in\n    tag_649:\n        /* \"#utility.yul\":27540:27613   */\n      swap2\n      pop\n        /* \"#utility.yul\":27336:27623   */\n      pop\n        /* \"#utility.yul\":27121:27630   */\n      swap3\n      swap2\n      pop\n      pop\n      jump\t// out\n        /* \"#utility.yul\":27636:28761   */\n    tag_128:\n        /* \"#utility.yul\":27742:27748   */\n      0x00\n        /* \"#utility.yul\":27750:27756   */\n      dup1\n        /* \"#utility.yul\":27758:27764   */\n      0x00\n        /* \"#utility.yul\":27766:27772   */\n      dup1\n        /* \"#utility.yul\":27815:27818   */\n      0x80\n        /* \"#utility.yul\":27803:27812   */\n      dup6\n        /* \"#utility.yul\":27794:27801   */\n      dup8\n        /* \"#utility.yul\":27790:27813   */\n      sub\n        /* \"#utility.yul\":27786:27819   */\n      slt\n        /* \"#utility.yul\":27783:27903   */\n      iszero\n      tag_651\n      jumpi\n        /* \"#utility.yul\":27822:27901   */\n      tag_652\n      tag_330\n      jump\t// in\n    tag_652:\n        /* \"#utility.yul\":27783:27903   */\n    tag_651:\n        /* \"#utility.yul\":27942:27943   */\n      0x00\n        /* \"#utility.yul\":27967:28020   */\n      tag_653\n        /* \"#utility.yul\":28012:28019   */\n      dup8\n        /* \"#utility.yul\":28003:28009   */\n      dup3\n        /* \"#utility.yul\":27992:28001   */\n      dup9\n        /* \"#utility.yul\":27988:28010   */\n      add\n        /* \"#utility.yul\":27967:28020   */\n      tag_369\n      jump\t// in\n    tag_653:\n        /* \"#utility.yul\":27957:28020   */\n      swap5\n      pop\n        /* \"#utility.yul\":27913:28030   */\n      pop\n        /* \"#utility.yul\":28097:28099   */\n      0x20\n        /* \"#utility.yul\":28086:28095   */\n      dup6\n        /* \"#utility.yul\":28082:28100   */\n      add\n        /* \"#utility.yul\":28069:28101   */\n      calldataload\n        /* \"#utility.yul\":28128:28146   */\n      0xffffffffffffffff\n        /* \"#utility.yul\":28120:28126   */\n      dup2\n        /* \"#utility.yul\":28117:28147   */\n      gt\n        /* \"#utility.yul\":28114:28231   */\n      iszero\n      tag_654\n      jumpi\n        /* \"#utility.yul\":28150:28229   */\n      tag_655\n      tag_331\n      jump\t// in\n    tag_655:\n        /* \"#utility.yul\":28114:28231   */\n    tag_654:\n        /* \"#utility.yul\":28255:28318   */\n      tag_656\n        /* \"#utility.yul\":28310:28317   */\n      dup8\n        /* \"#utility.yul\":28301:28307   */\n      dup3\n        /* \"#utility.yul\":28290:28299   */\n      dup9\n        /* \"#utility.yul\":28286:28308   */\n      add\n        /* \"#utility.yul\":28255:28318   */\n      tag_351\n      jump\t// in\n    tag_656:\n        /* \"#utility.yul\":28245:28318   */\n      swap4\n      pop\n        /* \"#utility.yul\":28040:28328   */\n      pop\n        /* \"#utility.yul\":28367:28369   */\n      0x40\n        /* \"#utility.yul\":28393:28446   */\n      tag_657\n        /* \"#utility.yul\":28438:28445   */\n      dup8\n        /* \"#utility.yul\":28429:28435   */\n      dup3\n        /* \"#utility.yul\":28418:28427   */\n      dup9\n        /* \"#utility.yul\":28414:28436   */\n      add\n        /* \"#utility.yul\":28393:28446   */\n      tag_334\n      jump\t// in\n    tag_657:\n        /* \"#utility.yul\":28383:28446   */\n      swap3\n      pop\n        /* \"#utility.yul\":28338:28456   */\n      pop\n        /* \"#utility.yul\":28523:28525   */\n      0x60\n        /* \"#utility.yul\":28512:28521   */\n      dup6\n        /* \"#utility.yul\":28508:28526   */\n      add\n        /* \"#utility.yul\":28495:28527   */\n      calldataload\n        /* \"#utility.yul\":28554:28572   */\n      0xffffffffffffffff\n        /* \"#utility.yul\":28546:28552   */\n      dup2\n        /* \"#utility.yul\":28543:28573   */\n      gt\n        /* \"#utility.yul\":28540:28657   */\n      iszero\n      tag_658\n      jumpi\n        /* \"#utility.yul\":28576:28655   */\n      tag_659\n      tag_331\n      jump\t// in\n    tag_659:\n        /* \"#utility.yul\":28540:28657   */\n    tag_658:\n        /* \"#utility.yul\":28681:28744   */\n      tag_660\n        /* \"#utility.yul\":28736:28743   */\n      dup8\n        /* \"#utility.yul\":28727:28733   */\n      dup3\n        /* \"#utility.yul\":28716:28725   */\n      dup9\n        /* \"#utility.yul\":28712:28734   */\n      add\n        /* \"#utility.yul\":28681:28744   */\n      tag_351\n      jump\t// in\n    tag_660:\n        /* \"#utility.yul\":28671:28744   */\n      swap2\n      pop\n        /* \"#utility.yul\":28466:28754   */\n      pop\n        /* \"#utility.yul\":27636:28761   */\n      swap3\n      swap6\n      swap2\n      swap5\n      pop\n      swap3\n      pop\n      jump\t// out\n        /* \"#utility.yul\":28767:28947   */\n    tag_383:\n        /* \"#utility.yul\":28815:28892   */\n      0x4e487b7100000000000000000000000000000000000000000000000000000000\n        /* \"#utility.yul\":28812:28813   */\n      0x00\n        /* \"#utility.yul\":28805:28893   */\n      mstore\n        /* \"#utility.yul\":28912:28916   */\n      0x22\n        /* \"#utility.yul\":28909:28910   */\n      0x04\n        /* \"#utility.yul\":28902:28917   */\n      mstore\n        /* \"#utility.yul\":28936:28940   */\n      0x24\n        /* \"#utility.yul\":28933:28934   */\n      0x00\n        /* \"#utility.yul\":28926:28941   */\n      revert\n        /* \"#utility.yul\":28953:29273   */\n    tag_133:\n        /* \"#utility.yul\":28997:29003   */\n      0x00\n        /* \"#utility.yul\":29034:29035   */\n      0x02\n        /* \"#utility.yul\":29028:29032   */\n      dup3\n        /* \"#utility.yul\":29024:29036   */\n      div\n        /* \"#utility.yul\":29014:29036   */\n      swap1\n      pop\n        /* \"#utility.yul\":29081:29082   */\n      0x01\n        /* \"#utility.yul\":29075:29079   */\n      dup3\n        /* \"#utility.yul\":29071:29083   */\n      and\n        /* \"#utility.yul\":29102:29120   */\n      dup1\n        /* \"#utility.yul\":29092:29173   */\n      tag_663\n      jumpi\n        /* \"#utility.yul\":29158:29162   */\n      0x7f\n        /* \"#utility.yul\":29150:29156   */\n      dup3\n        /* \"#utility.yul\":29146:29163   */\n      and\n        /* \"#utility.yul\":29136:29163   */\n      swap2\n      pop\n        /* \"#utility.yul\":29092:29173   */\n    tag_663:\n        /* \"#utility.yul\":29220:29222   */\n      0x20\n        /* \"#utility.yul\":29212:29218   */\n      dup3\n        /* \"#utility.yul\":29209:29223   */\n      lt\n        /* \"#utility.yul\":29189:29207   */\n      dup2\n        /* \"#utility.yul\":29186:29224   */\n      sub\n        /* \"#utility.yul\":29183:29267   */\n      tag_664\n      jumpi\n        /* \"#utility.yul\":29239:29257   */\n      tag_665\n      tag_383\n      jump\t// in\n    tag_665:\n        /* \"#utility.yul\":29183:29267   */\n    tag_664:\n        /* \"#utility.yul\":29004:29273   */\n      pop\n        /* \"#utility.yul\":28953:29273   */\n      swap2\n      swap1\n      pop\n      jump\t// out\n        /* \"#utility.yul\":29279:29426   */\n    tag_384:\n        /* \"#utility.yul\":29380:29391   */\n      0x00\n        /* \"#utility.yul\":29417:29420   */\n      dup2\n        /* \"#utility.yul\":29402:29420   */\n      swap1\n      pop\n        /* \"#utility.yul\":29279:29426   */\n      swap3\n      swap2\n      pop\n      pop\n      jump\t// out\n        /* \"#utility.yul\":29432:29576   */\n    tag_385:\n        /* \"#utility.yul\":29484:29488   */\n      0x00\n        /* \"#utility.yul\":29507:29510   */\n      dup2\n        /* \"#utility.yul\":29499:29510   */\n      swap1\n      pop\n        /* \"#utility.yul\":29530:29533   */\n      dup2\n        /* \"#utility.yul\":29527:29528   */\n      0x00\n        /* \"#utility.yul\":29520:29534   */\n      mstore\n        /* \"#utility.yul\":29564:29568   */\n      0x20\n        /* \"#utility.yul\":29561:29562   */\n      0x00\n        /* \"#utility.yul\":29551:29569   */\n      keccak256\n        /* \"#utility.yul\":29543:29569   */\n      swap1\n      pop\n        /* \"#utility.yul\":29432:29576   */\n      swap2\n      swap1\n      pop\n      jump\t// out\n        /* \"#utility.yul\":29604:30482   */\n    tag_386:\n        /* \"#utility.yul\":29709:29712   */\n      0x00\n        /* \"#utility.yul\":29746:29751   */\n      dup2\n        /* \"#utility.yul\":29740:29752   */\n      sload\n        /* \"#utility.yul\":29775:29811   */\n      tag_669\n        /* \"#utility.yul\":29801:29810   */\n      dup2\n        /* \"#utility.yul\":29775:29811   */\n      tag_133\n      jump\t// in\n    tag_669:\n        /* \"#utility.yul\":29827:29915   */\n      tag_670\n        /* \"#utility.yul\":29908:29914   */\n      dup2\n        /* \"#utility.yul\":29903:29906   */\n      dup7\n        /* \"#utility.yul\":29827:29915   */\n      tag_384\n      jump\t// in\n    tag_670:\n        /* \"#utility.yul\":29820:29915   */\n      swap5\n      pop\n        /* \"#utility.yul\":29946:29947   */\n      0x01\n        /* \"#utility.yul\":29935:29944   */\n      dup3\n        /* \"#utility.yul\":29931:29948   */\n      and\n        /* \"#utility.yul\":29962:29963   */\n      0x00\n        /* \"#utility.yul\":29957:30123   */\n      dup2\n      eq\n      tag_672\n      jumpi\n        /* \"#utility.yul\":30137:30138   */\n      0x01\n        /* \"#utility.yul\":30132:30476   */\n      dup2\n      eq\n      tag_673\n      jumpi\n        /* \"#utility.yul\":29924:30476   */\n      jump(tag_671)\n        /* \"#utility.yul\":29957:30123   */\n    tag_672:\n        /* \"#utility.yul\":30041:30045   */\n      0xff\n        /* \"#utility.yul\":30037:30046   */\n      not\n        /* \"#utility.yul\":30026:30035   */\n      dup4\n        /* \"#utility.yul\":30022:30047   */\n      and\n        /* \"#utility.yul\":30017:30020   */\n      dup7\n        /* \"#utility.yul\":30010:30048   */\n      mstore\n        /* \"#utility.yul\":30103:30109   */\n      dup2\n        /* \"#utility.yul\":30096:30110   */\n      iszero\n        /* \"#utility.yul\":30089:30111   */\n      iszero\n        /* \"#utility.yul\":30081:30087   */\n      dup3\n        /* \"#utility.yul\":30077:30112   */\n      mul\n        /* \"#utility.yul\":30072:30075   */\n      dup7\n        /* \"#utility.yul\":30068:30113   */\n      add\n        /* \"#utility.yul\":30061:30113   */\n      swap4\n      pop\n        /* \"#utility.yul\":29957:30123   */\n      jump(tag_671)\n        /* \"#utility.yul\":30132:30476   */\n    tag_673:\n        /* \"#utility.yul\":30199:30240   */\n      tag_674\n        /* \"#utility.yul\":30234:30239   */\n      dup6\n        /* \"#utility.yul\":30199:30240   */\n      tag_385\n      jump\t// in\n    tag_674:\n        /* \"#utility.yul\":30262:30263   */\n      0x00\n        /* \"#utility.yul\":30276:30430   */\n    tag_675:\n        /* \"#utility.yul\":30290:30296   */\n      dup4\n        /* \"#utility.yul\":30287:30288   */\n      dup2\n        /* \"#utility.yul\":30284:30297   */\n      lt\n        /* \"#utility.yul\":30276:30430   */\n      iszero\n      tag_677\n      jumpi\n        /* \"#utility.yul\":30364:30371   */\n      dup2\n        /* \"#utility.yul\":30358:30372   */\n      sload\n        /* \"#utility.yul\":30354:30355   */\n      dup2\n        /* \"#utility.yul\":30349:30352   */\n      dup10\n        /* \"#utility.yul\":30345:30356   */\n      add\n        /* \"#utility.yul\":30338:30373   */\n      mstore\n        /* \"#utility.yul\":30414:30415   */\n      0x01\n        /* \"#utility.yul\":30405:30412   */\n      dup3\n        /* \"#utility.yul\":30401:30416   */\n      add\n        /* \"#utility.yul\":30390:30416   */\n      swap2\n      pop\n        /* \"#utility.yul\":30312:30316   */\n      0x20\n        /* \"#utility.yul\":30309:30310   */\n      dup2\n        /* \"#utility.yul\":30305:30317   */\n      add\n        /* \"#utility.yul\":30300:30317   */\n      swap1\n      pop\n        /* \"#utility.yul\":30276:30430   */\n      jump(tag_675)\n    tag_677:\n        /* \"#utility.yul\":30459:30465   */\n      dup4\n        /* \"#utility.yul\":30454:30457   */\n      dup9\n        /* \"#utility.yul\":30450:30466   */\n      add\n        /* \"#utility.yul\":30443:30466   */\n      swap6\n      pop\n        /* \"#utility.yul\":30139:30476   */\n      pop\n      pop\n        /* \"#utility.yul\":29924:30476   */\n    tag_671:\n      pop\n        /* \"#utility.yul\":29713:30482   */\n      pop\n      pop\n        /* \"#utility.yul\":29604:30482   */\n      swap3\n      swap2\n      pop\n      pop\n      jump\t// out\n        /* \"#utility.yul\":30488:30761   */\n    tag_154:\n        /* \"#utility.yul\":30619:30622   */\n      0x00\n        /* \"#utility.yul\":30641:30735   */\n      tag_679\n        /* \"#utility.yul\":30731:30734   */\n      dup3\n        /* \"#utility.yul\":30722:30728   */\n      dup5\n        /* \"#utility.yul\":30641:30735   */\n      tag_386\n      jump\t// in\n    tag_679:\n        /* \"#utility.yul\":30634:30735   */\n      swap2\n      pop\n        /* \"#utility.yul\":30752:30755   */\n      dup2\n        /* \"#utility.yul\":30745:30755   */\n      swap1\n      pop\n        /* \"#utility.yul\":30488:30761   */\n      swap3\n      swap2\n      pop\n      pop\n      jump\t// out\n        /* \"#utility.yul\":30767:30947   */\n    tag_168:\n        /* \"#utility.yul\":30815:30892   */\n      0x4e487b7100000000000000000000000000000000000000000000000000000000\n        /* \"#utility.yul\":30812:30813   */\n      0x00\n        /* \"#utility.yul\":30805:30893   */\n      mstore\n        /* \"#utility.yul\":30912:30916   */\n      0x32\n        /* \"#utility.yul\":30909:30910   */\n      0x04\n        /* \"#utility.yul\":30902:30917   */\n      mstore\n        /* \"#utility.yul\":30936:30940   */\n      0x24\n        /* \"#utility.yul\":30933:30934   */\n      0x00\n        /* \"#utility.yul\":30926:30941   */\n      revert\n        /* \"#utility.yul\":30953:31101   */\n    tag_387:\n        /* \"#utility.yul\":31055:31066   */\n      0x00\n        /* \"#utility.yul\":31092:31095   */\n      dup2\n        /* \"#utility.yul\":31077:31095   */\n      swap1\n      pop\n        /* \"#utility.yul\":30953:31101   */\n      swap3\n      swap2\n      pop\n      pop\n      jump\t// out\n        /* \"#utility.yul\":31107:31497   */\n    tag_388:\n        /* \"#utility.yul\":31213:31216   */\n      0x00\n        /* \"#utility.yul\":31241:31280   */\n      tag_683\n        /* \"#utility.yul\":31274:31279   */\n      dup3\n        /* \"#utility.yul\":31241:31280   */\n      tag_335\n      jump\t// in\n    tag_683:\n        /* \"#utility.yul\":31296:31385   */\n      tag_684\n        /* \"#utility.yul\":31378:31384   */\n      dup2\n        /* \"#utility.yul\":31373:31376   */\n      dup6\n        /* \"#utility.yul\":31296:31385   */\n      tag_387\n      jump\t// in\n    tag_684:\n        /* \"#utility.yul\":31289:31385   */\n      swap4\n      pop\n        /* \"#utility.yul\":31394:31459   */\n      tag_685\n        /* \"#utility.yul\":31452:31458   */\n      dup2\n        /* \"#utility.yul\":31447:31450   */\n      dup6\n        /* \"#utility.yul\":31440:31444   */\n      0x20\n        /* \"#utility.yul\":31433:31438   */\n      dup7\n        /* \"#utility.yul\":31429:31445   */\n      add\n        /* \"#utility.yul\":31394:31459   */\n      tag_337\n      jump\t// in\n    tag_685:\n        /* \"#utility.yul\":31484:31490   */\n      dup1\n        /* \"#utility.yul\":31479:31482   */\n      dup5\n        /* \"#utility.yul\":31475:31491   */\n      add\n        /* \"#utility.yul\":31468:31491   */\n      swap2\n      pop\n        /* \"#utility.yul\":31217:31497   */\n      pop\n        /* \"#utility.yul\":31107:31497   */\n      swap3\n      swap2\n      pop\n      pop\n      jump\t// out\n        /* \"#utility.yul\":31503:31778   */\n    tag_176:\n        /* \"#utility.yul\":31635:31638   */\n      0x00\n        /* \"#utility.yul\":31657:31752   */\n      tag_687\n        /* \"#utility.yul\":31748:31751   */\n      dup3\n        /* \"#utility.yul\":31739:31745   */\n      dup5\n        /* \"#utility.yul\":31657:31752   */\n      tag_388\n      jump\t// in\n    tag_687:\n        /* \"#utility.yul\":31650:31752   */\n      swap2\n      pop\n        /* \"#utility.yul\":31769:31772   */\n      dup2\n        /* \"#utility.yul\":31762:31772   */\n      swap1\n      pop\n        /* \"#utility.yul\":31503:31778   */\n      swap3\n      swap2\n      pop\n      pop\n      jump\t// out\n        /* \"#utility.yul\":31784:31964   */\n    tag_389:\n        /* \"#utility.yul\":31832:31909   */\n      0x4e487b7100000000000000000000000000000000000000000000000000000000\n        /* \"#utility.yul\":31829:31830   */\n      0x00\n        /* \"#utility.yul\":31822:31910   */\n      mstore\n        /* \"#utility.yul\":31929:31933   */\n      0x11\n        /* \"#utility.yul\":31926:31927   */\n      0x04\n        /* \"#utility.yul\":31919:31934   */\n      mstore\n        /* \"#utility.yul\":31953:31957   */\n      0x24\n        /* \"#utility.yul\":31950:31951   */\n      0x00\n        /* \"#utility.yul\":31943:31958   */\n      revert\n        /* \"#utility.yul\":31970:32203   */\n    tag_196:\n        /* \"#utility.yul\":32009:32012   */\n      0x00\n        /* \"#utility.yul\":32032:32056   */\n      tag_690\n        /* \"#utility.yul\":32050:32055   */\n      dup3\n        /* \"#utility.yul\":32032:32056   */\n      tag_332\n      jump\t// in\n    tag_690:\n        /* \"#utility.yul\":32023:32056   */\n      swap2\n      pop\n        /* \"#utility.yul\":32078:32144   */\n      0xffffffffffffffffffffffffffffffffffffffffffffffffffffffffffffffff\n        /* \"#utility.yul\":32071:32076   */\n      dup3\n        /* \"#utility.yul\":32068:32145   */\n      sub\n        /* \"#utility.yul\":32065:32168   */\n      tag_691\n      jumpi\n        /* \"#utility.yul\":32148:32166   */\n      tag_692\n      tag_389\n      jump\t// in\n    tag_692:\n        /* \"#utility.yul\":32065:32168   */\n    tag_691:\n        /* \"#utility.yul\":32195:32196   */\n      0x01\n        /* \"#utility.yul\":32188:32193   */\n      dup3\n        /* \"#utility.yul\":32184:32197   */\n      add\n        /* \"#utility.yul\":32177:32197   */\n      swap1\n      pop\n        /* \"#utility.yul\":31970:32203   */\n      swap2\n      swap1\n      pop\n      jump\t// out\n        /* \"#utility.yul\":32209:32350   */\n    tag_390:\n        /* \"#utility.yul\":32258:32262   */\n      0x00\n        /* \"#utility.yul\":32281:32284   */\n      dup2\n        /* \"#utility.yul\":32273:32284   */\n      swap1\n      pop\n        /* \"#utility.yul\":32304:32307   */\n      dup2\n        /* \"#utility.yul\":32301:32302   */\n      0x00\n        /* \"#utility.yul\":32294:32308   */\n      mstore\n        /* \"#utility.yul\":32338:32342   */\n      0x20\n        /* \"#utility.yul\":32335:32336   */\n      0x00\n        /* \"#utility.yul\":32325:32343   */\n      keccak256\n        /* \"#utility.yul\":32317:32343   */\n      swap1\n      pop\n        /* \"#utility.yul\":32209:32350   */\n      swap2\n      swap1\n      pop\n      jump\t// out\n        /* \"#utility.yul\":32356:32449   */\n    tag_391:\n        /* \"#utility.yul\":32393:32399   */\n      0x00\n        /* \"#utility.yul\":32440:32442   */\n      0x20\n        /* \"#utility.yul\":32435:32437   */\n      0x1f\n        /* \"#utility.yul\":32428:32433   */\n      dup4\n        /* \"#utility.yul\":32424:32438   */\n      add\n        /* \"#utility.yul\":32420:32443   */\n      div\n        /* \"#utility.yul\":32410:32443   */\n      swap1\n      pop\n        /* \"#utility.yul\":32356:32449   */\n      swap2\n      swap1\n      pop\n      jump\t// out\n        /* \"#utility.yul\":32455:32562   */\n    tag_392:\n        /* \"#utility.yul\":32499:32507   */\n      0x00\n        /* \"#utility.yul\":32549:32554   */\n      dup3\n        /* \"#utility.yul\":32543:32547   */\n      dup3\n        /* \"#utility.yul\":32539:32555   */\n      shl\n        /* \"#utility.yul\":32518:32555   */\n      swap1\n      pop\n        /* \"#utility.yul\":32455:32562   */\n      swap3\n      swap2\n      pop\n      pop\n      jump\t// out\n        /* \"#utility.yul\":32568:32961   */\n    tag_393:\n        /* \"#utility.yul\":32637:32643   */\n      0x00\n        /* \"#utility.yul\":32687:32688   */\n      0x08\n        /* \"#utility.yul\":32675:32685   */\n      dup4\n        /* \"#utility.yul\":32671:32689   */\n      mul\n        /* \"#utility.yul\":32710:32807   */\n      tag_697\n        /* \"#utility.yul\":32740:32806   */\n      0xffffffffffffffffffffffffffffffffffffffffffffffffffffffffffffffff\n        /* \"#utility.yul\":32729:32738   */\n      dup3\n        /* \"#utility.yul\":32710:32807   */\n      tag_392\n      jump\t// in\n    tag_697:\n        /* \"#utility.yul\":32828:32867   */\n      tag_698\n        /* \"#utility.yul\":32858:32866   */\n      dup7\n        /* \"#utility.yul\":32847:32856   */\n      dup4\n        /* \"#utility.yul\":32828:32867   */\n      tag_392\n      jump\t// in\n    tag_698:\n        /* \"#utility.yul\":32816:32867   */\n      swap6\n      pop\n        /* \"#utility.yul\":32900:32904   */\n      dup1\n        /* \"#utility.yul\":32896:32905   */\n      not\n        /* \"#utility.yul\":32889:32894   */\n      dup5\n        /* \"#utility.yul\":32885:32906   */\n      and\n        /* \"#utility.yul\":32876:32906   */\n      swap4\n      pop\n        /* \"#utility.yul\":32949:32953   */\n      dup1\n        /* \"#utility.yul\":32939:32947   */\n      dup7\n        /* \"#utility.yul\":32935:32954   */\n      and\n        /* \"#utility.yul\":32928:32933   */\n      dup5\n        /* \"#utility.yul\":32925:32955   */\n      or\n        /* \"#utility.yul\":32915:32955   */\n      swap3\n      pop\n        /* \"#utility.yul\":32644:32961   */\n      pop\n      pop\n        /* \"#utility.yul\":32568:32961   */\n      swap4\n      swap3\n      pop\n      pop\n      pop\n      jump\t// out\n        /* \"#utility.yul\":32967:33027   */\n    tag_394:\n        /* \"#utility.yul\":32995:32998   */\n      0x00\n        /* \"#utility.yul\":33016:33021   */\n      dup2\n        /* \"#utility.yul\":33009:33021   */\n      swap1\n      pop\n        /* \"#utility.yul\":32967:33027   */\n      swap2\n      swap1\n      pop\n      jump\t// out\n        /* \"#utility.yul\":33033:33175   */\n    tag_395:\n        /* \"#utility.yul\":33083:33092   */\n      0x00\n        /* \"#utility.yul\":33116:33169   */\n      tag_701\n        /* \"#utility.yul\":33134:33168   */\n      tag_702\n        /* \"#utility.yul\":33143:33167   */\n      tag_703\n        /* \"#utility.yul\":33161:33166   */\n      dup5\n        /* \"#utility.yul\":33143:33167   */\n      tag_332\n      jump\t// in\n    tag_703:\n        /* \"#utility.yul\":33134:33168   */\n      tag_394\n      jump\t// in\n    tag_702:\n        /* \"#utility.yul\":33116:33169   */\n      tag_332\n      jump\t// in\n    tag_701:\n        /* \"#utility.yul\":33103:33169   */\n      swap1\n      pop\n        /* \"#utility.yul\":33033:33175   */\n      swap2\n      swap1\n      pop\n      jump\t// out\n        /* \"#utility.yul\":33181:33256   */\n    tag_396:\n        /* \"#utility.yul\":33224:33227   */\n      0x00\n        /* \"#utility.yul\":33245:33250   */\n      dup2\n        /* \"#utility.yul\":33238:33250   */\n      swap1\n      pop\n        /* \"#utility.yul\":33181:33256   */\n      swap2\n      swap1\n      pop\n      jump\t// out\n        /* \"#utility.yul\":33262:33531   */\n    tag_397:\n        /* \"#utility.yul\":33372:33411   */\n      tag_706\n        /* \"#utility.yul\":33403:33410   */\n      dup4\n        /* \"#utility.yul\":33372:33411   */\n      tag_395\n      jump\t// in\n    tag_706:\n        /* \"#utility.yul\":33433:33524   */\n      tag_707\n        /* \"#utility.yul\":33482:33523   */\n      tag_708\n        /* \"#utility.yul\":33506:33522   */\n      dup3\n        /* \"#utility.yul\":33482:33523   */\n      tag_396\n      jump\t// in\n    tag_708:\n        /* \"#utility.yul\":33474:33480   */\n      dup5\n        /* \"#utility.yul\":33467:33471   */\n      dup5\n        /* \"#utility.yul\":33461:33472   */\n      sload\n        /* \"#utility.yul\":33433:33524   */\n      tag_393\n      jump\t// in\n    tag_707:\n        /* \"#utility.yul\":33427:33431   */\n      dup3\n        /* \"#utility.yul\":33420:33525   */\n      sstore\n        /* \"#utility.yul\":33338:33531   */\n      pop\n        /* \"#utility.yul\":33262:33531   */\n      pop\n      pop\n      pop\n      jump\t// out\n        /* \"#utility.yul\":33537:33610   */\n    tag_398:\n        /* \"#utility.yul\":33582:33585   */\n      0x00\n        /* \"#utility.yul\":33537:33610   */\n      swap1\n      jump\t// out\n        /* \"#utility.yul\":33616:33805   */\n    tag_399:\n        /* \"#utility.yul\":33693:33725   */\n      tag_711\n      tag_398\n      jump\t// in\n    tag_711:\n        /* \"#utility.yul\":33734:33799   */\n      tag_712\n        /* \"#utility.yul\":33792:33798   */\n      dup2\n        /* \"#utility.yul\":33784:33790   */\n      dup5\n        /* \"#utility.yul\":33778:33782   */\n      dup5\n        /* \"#utility.yul\":33734:33799   */\n      tag_397\n      jump\t// in\n    tag_712:\n        /* \"#utility.yul\":33669:33805   */\n      pop\n        /* \"#utility.yul\":33616:33805   */\n      pop\n      pop\n      jump\t// out\n        /* \"#utility.yul\":33811:33997   */\n    tag_400:\n        /* \"#utility.yul\":33871:33991   */\n    tag_714:\n        /* \"#utility.yul\":33888:33891   */\n      dup2\n        /* \"#utility.yul\":33881:33886   */\n      dup2\n        /* \"#utility.yul\":33878:33892   */\n      lt\n        /* \"#utility.yul\":33871:33991   */\n      iszero\n      tag_716\n      jumpi\n        /* \"#utility.yul\":33942:33981   */\n      tag_717\n        /* \"#utility.yul\":33979:33980   */\n      0x00\n        /* \"#utility.yul\":33972:33977   */\n      dup3\n        /* \"#utility.yul\":33942:33981   */\n      tag_399\n      jump\t// in\n    tag_717:\n        /* \"#utility.yul\":33915:33916   */\n      0x01\n        /* \"#utility.yul\":33908:33913   */\n      dup2\n        /* \"#utility.yul\":33904:33917   */\n      add\n        /* \"#utility.yul\":33895:33917   */\n      swap1\n      pop\n        /* \"#utility.yul\":33871:33991   */\n      jump(tag_714)\n    tag_716:\n        /* \"#utility.yul\":33811:33997   */\n      pop\n      pop\n      jump\t// out\n        /* \"#utility.yul\":34003:34546   */\n    tag_401:\n        /* \"#utility.yul\":34104:34106   */\n      0x1f\n        /* \"#utility.yul\":34099:34102   */\n      dup3\n        /* \"#utility.yul\":34096:34107   */\n      gt\n        /* \"#utility.yul\":34093:34539   */\n      iszero\n      tag_719\n      jumpi\n        /* \"#utility.yul\":34138:34176   */\n      tag_720\n        /* \"#utility.yul\":34170:34175   */\n      dup2\n        /* \"#utility.yul\":34138:34176   */\n      tag_390\n      jump\t// in\n    tag_720:\n        /* \"#utility.yul\":34222:34251   */\n      tag_721\n        /* \"#utility.yul\":34240:34250   */\n      dup5\n        /* \"#utility.yul\":34222:34251   */\n      tag_391\n      jump\t// in\n    tag_721:\n        /* \"#utility.yul\":34212:34220   */\n      dup2\n        /* \"#utility.yul\":34208:34252   */\n      add\n        /* \"#utility.yul\":34405:34407   */\n      0x20\n        /* \"#utility.yul\":34393:34403   */\n      dup6\n        /* \"#utility.yul\":34390:34408   */\n      lt\n        /* \"#utility.yul\":34387:34436   */\n      iszero\n      tag_722\n      jumpi\n        /* \"#utility.yul\":34426:34434   */\n      dup2\n        /* \"#utility.yul\":34411:34434   */\n      swap1\n      pop\n        /* \"#utility.yul\":34387:34436   */\n    tag_722:\n        /* \"#utility.yul\":34449:34529   */\n      tag_723\n        /* \"#utility.yul\":34505:34527   */\n      tag_724\n        /* \"#utility.yul\":34523:34526   */\n      dup6\n        /* \"#utility.yul\":34505:34527   */\n      tag_391\n      jump\t// in\n    tag_724:\n        /* \"#utility.yul\":34495:34503   */\n      dup4\n        /* \"#utility.yul\":34491:34528   */\n      add\n        /* \"#utility.yul\":34478:34489   */\n      dup3\n        /* \"#utility.yul\":34449:34529   */\n      tag_400\n      jump\t// in\n    tag_723:\n        /* \"#utility.yul\":34108:34539   */\n      pop\n      pop\n        /* \"#utility.yul\":34093:34539   */\n    tag_719:\n        /* \"#utility.yul\":34003:34546   */\n      pop\n      pop\n      pop\n      jump\t// out\n        /* \"#utility.yul\":34552:34669   */\n    tag_402:\n        /* \"#utility.yul\":34606:34614   */\n      0x00\n        /* \"#utility.yul\":34656:34661   */\n      dup3\n        /* \"#utility.yul\":34650:34654   */\n      dup3\n        /* \"#utility.yul\":34646:34662   */\n      shr\n        /* \"#utility.yul\":34625:34662   */\n      swap1\n      pop\n        /* \"#utility.yul\":34552:34669   */\n      swap3\n      swap2\n      pop\n      pop\n      jump\t// out\n        /* \"#utility.yul\":34675:34844   */\n    tag_403:\n        /* \"#utility.yul\":34719:34725   */\n      0x00\n        /* \"#utility.yul\":34752:34803   */\n      tag_727\n        /* \"#utility.yul\":34800:34801   */\n      0x00\n        /* \"#utility.yul\":34796:34802   */\n      not\n        /* \"#utility.yul\":34788:34793   */\n      dup5\n        /* \"#utility.yul\":34785:34786   */\n      0x08\n        /* \"#utility.yul\":34781:34794   */\n      mul\n        /* \"#utility.yul\":34752:34803   */\n      tag_402\n      jump\t// in\n    tag_727:\n        /* \"#utility.yul\":34748:34804   */\n      not\n        /* \"#utility.yul\":34833:34837   */\n      dup1\n        /* \"#utility.yul\":34827:34831   */\n      dup4\n        /* \"#utility.yul\":34823:34838   */\n      and\n        /* \"#utility.yul\":34813:34838   */\n      swap2\n      pop\n        /* \"#utility.yul\":34726:34844   */\n      pop\n        /* \"#utility.yul\":34675:34844   */\n      swap3\n      swap2\n      pop\n      pop\n      jump\t// out\n        /* \"#utility.yul\":34849:35144   */\n    tag_404:\n        /* \"#utility.yul\":34925:34929   */\n      0x00\n        /* \"#utility.yul\":35071:35100   */\n      tag_729\n        /* \"#utility.yul\":35096:35099   */\n      dup4\n        /* \"#utility.yul\":35090:35094   */\n      dup4\n        /* \"#utility.yul\":35071:35100   */\n      tag_403\n      jump\t// in\n    tag_729:\n        /* \"#utility.yul\":35063:35100   */\n      swap2\n      pop\n        /* \"#utility.yul\":35133:35136   */\n      dup3\n        /* \"#utility.yul\":35130:35131   */\n      0x02\n        /* \"#utility.yul\":35126:35137   */\n      mul\n        /* \"#utility.yul\":35120:35124   */\n      dup3\n        /* \"#utility.yul\":35117:35138   */\n      or\n        /* \"#utility.yul\":35109:35138   */\n      swap1\n      pop\n        /* \"#utility.yul\":34849:35144   */\n      swap3\n      swap2\n      pop\n      pop\n      jump\t// out\n        /* \"#utility.yul\":35149:36544   */\n    tag_238:\n        /* \"#utility.yul\":35266:35303   */\n      tag_731\n        /* \"#utility.yul\":35299:35302   */\n      dup3\n        /* \"#utility.yul\":35266:35303   */\n      tag_335\n      jump\t// in\n    tag_731:\n        /* \"#utility.yul\":35368:35386   */\n      0xffffffffffffffff\n        /* \"#utility.yul\":35360:35366   */\n      dup2\n        /* \"#utility.yul\":35357:35387   */\n      gt\n        /* \"#utility.yul\":35354:35410   */\n      iszero\n      tag_732\n      jumpi\n        /* \"#utility.yul\":35390:35408   */\n      tag_733\n      tag_158\n      jump\t// in\n    tag_733:\n        /* \"#utility.yul\":35354:35410   */\n    tag_732:\n        /* \"#utility.yul\":35434:35472   */\n      tag_734\n        /* \"#utility.yul\":35466:35470   */\n      dup3\n        /* \"#utility.yul\":35460:35471   */\n      sload\n        /* \"#utility.yul\":35434:35472   */\n      tag_133\n      jump\t// in\n    tag_734:\n        /* \"#utility.yul\":35519:35586   */\n      tag_735\n        /* \"#utility.yul\":35579:35585   */\n      dup3\n        /* \"#utility.yul\":35571:35577   */\n      dup3\n        /* \"#utility.yul\":35565:35569   */\n      dup6\n        /* \"#utility.yul\":35519:35586   */\n      tag_401\n      jump\t// in\n    tag_735:\n        /* \"#utility.yul\":35613:35614   */\n      0x00\n        /* \"#utility.yul\":35637:35641   */\n      0x20\n        /* \"#utility.yul\":35624:35641   */\n      swap1\n      pop\n        /* \"#utility.yul\":35669:35671   */\n      0x1f\n        /* \"#utility.yul\":35661:35667   */\n      dup4\n        /* \"#utility.yul\":35658:35672   */\n      gt\n        /* \"#utility.yul\":35686:35687   */\n      0x01\n        /* \"#utility.yul\":35681:36299   */\n      dup2\n      eq\n      tag_737\n      jumpi\n        /* \"#utility.yul\":36343:36344   */\n      0x00\n        /* \"#utility.yul\":36360:36366   */\n      dup5\n        /* \"#utility.yul\":36357:36434   */\n      iszero\n      tag_738\n      jumpi\n        /* \"#utility.yul\":36409:36418   */\n      dup3\n        /* \"#utility.yul\":36404:36407   */\n      dup8\n        /* \"#utility.yul\":36400:36419   */\n      add\n        /* \"#utility.yul\":36394:36420   */\n      mload\n        /* \"#utility.yul\":36385:36420   */\n      swap1\n      pop\n        /* \"#utility.yul\":36357:36434   */\n    tag_738:\n        /* \"#utility.yul\":36460:36527   */\n      tag_739\n        /* \"#utility.yul\":36520:36526   */\n      dup6\n        /* \"#utility.yul\":36513:36518   */\n      dup3\n        /* \"#utility.yul\":36460:36527   */\n      tag_404\n      jump\t// in\n    tag_739:\n        /* \"#utility.yul\":36454:36458   */\n      dup7\n        /* \"#utility.yul\":36447:36528   */\n      sstore\n        /* \"#utility.yul\":36316:36538   */\n      pop\n        /* \"#utility.yul\":35651:36538   */\n      jump(tag_736)\n        /* \"#utility.yul\":35681:36299   */\n    tag_737:\n        /* \"#utility.yul\":35733:35737   */\n      0x1f\n        /* \"#utility.yul\":35729:35738   */\n      not\n        /* \"#utility.yul\":35721:35727   */\n      dup5\n        /* \"#utility.yul\":35717:35739   */\n      and\n        /* \"#utility.yul\":35767:35804   */\n      tag_740\n        /* \"#utility.yul\":35799:35803   */\n      dup7\n        /* \"#utility.yul\":35767:35804   */\n      tag_390\n      jump\t// in\n    tag_740:\n        /* \"#utility.yul\":35826:35827   */\n      0x00\n        /* \"#utility.yul\":35840:36048   */\n    tag_741:\n        /* \"#utility.yul\":35854:35861   */\n      dup3\n        /* \"#utility.yul\":35851:35852   */\n      dup2\n        /* \"#utility.yul\":35848:35862   */\n      lt\n        /* \"#utility.yul\":35840:36048   */\n      iszero\n      tag_743\n      jumpi\n        /* \"#utility.yul\":35933:35942   */\n      dup5\n        /* \"#utility.yul\":35928:35931   */\n      dup10\n        /* \"#utility.yul\":35924:35943   */\n      add\n        /* \"#utility.yul\":35918:35944   */\n      mload\n        /* \"#utility.yul\":35910:35916   */\n      dup3\n        /* \"#utility.yul\":35903:35945   */\n      sstore\n        /* \"#utility.yul\":35984:35985   */\n      0x01\n        /* \"#utility.yul\":35976:35982   */\n      dup3\n        /* \"#utility.yul\":35972:35986   */\n      add\n        /* \"#utility.yul\":35962:35986   */\n      swap2\n      pop\n        /* \"#utility.yul\":36031:36033   */\n      0x20\n        /* \"#utility.yul\":36020:36029   */\n      dup6\n        /* \"#utility.yul\":36016:36034   */\n      add\n        /* \"#utility.yul\":36003:36034   */\n      swap5\n      pop\n        /* \"#utility.yul\":35877:35881   */\n      0x20\n        /* \"#utility.yul\":35874:35875   */\n      dup2\n        /* \"#utility.yul\":35870:35882   */\n      add\n        /* \"#utility.yul\":35865:35882   */\n      swap1\n      pop\n        /* \"#utility.yul\":35840:36048   */\n      jump(tag_741)\n    tag_743:\n        /* \"#utility.yul\":36076:36082   */\n      dup7\n        /* \"#utility.yul\":36067:36074   */\n      dup4\n        /* \"#utility.yul\":36064:36083   */\n      lt\n        /* \"#utility.yul\":36061:36240   */\n      iszero\n      tag_744\n      jumpi\n        /* \"#utility.yul\":36134:36143   */\n      dup5\n        /* \"#utility.yul\":36129:36132   */\n      dup10\n        /* \"#utility.yul\":36125:36144   */\n      add\n        /* \"#utility.yul\":36119:36145   */\n      mload\n        /* \"#utility.yul\":36177:36225   */\n      tag_745\n        /* \"#utility.yul\":36219:36223   */\n      0x1f\n        /* \"#utility.yul\":36211:36217   */\n      dup10\n        /* \"#utility.yul\":36207:36224   */\n      and\n        /* \"#utility.yul\":36196:36205   */\n      dup3\n        /* \"#utility.yul\":36177:36225   */\n      tag_403\n      jump\t// in\n    tag_745:\n        /* \"#utility.yul\":36169:36175   */\n      dup4\n        /* \"#utility.yul\":36162:36226   */\n      sstore\n        /* \"#utility.yul\":36084:36240   */\n      pop\n        /* \"#utility.yul\":36061:36240   */\n    tag_744:\n        /* \"#utility.yul\":36286:36287   */\n      0x01\n        /* \"#utility.yul\":36282:36283   */\n      0x02\n        /* \"#utility.yul\":36274:36280   */\n      dup9\n        /* \"#utility.yul\":36270:36284   */\n      mul\n        /* \"#utility.yul\":36266:36288   */\n      add\n        /* \"#utility.yul\":36260:36264   */\n      dup9\n        /* \"#utility.yul\":36253:36289   */\n      sstore\n        /* \"#utility.yul\":35688:36299   */\n      pop\n      pop\n      pop\n        /* \"#utility.yul\":35651:36538   */\n    tag_736:\n      pop\n        /* \"#utility.yul\":35241:36544   */\n      pop\n      pop\n      pop\n        /* \"#utility.yul\":35149:36544   */\n      pop\n      pop\n      jump\t// out\n        /* \"#utility.yul\":36550:36664   */\n    tag_405:\n      pop\n      jump\t// out\n        /* \"#utility.yul\":36670:37068   */\n    tag_406:\n        /* \"#utility.yul\":36829:36832   */\n      0x00\n        /* \"#utility.yul\":36850:36933   */\n      tag_748\n        /* \"#utility.yul\":36931:36932   */\n      0x00\n        /* \"#utility.yul\":36926:36929   */\n      dup4\n        /* \"#utility.yul\":36850:36933   */\n      tag_384\n      jump\t// in\n    tag_748:\n        /* \"#utility.yul\":36843:36933   */\n      swap2\n      pop\n        /* \"#utility.yul\":36942:37035   */\n      tag_749\n        /* \"#utility.yul\":37031:37034   */\n      dup3\n        /* \"#utility.yul\":36942:37035   */\n      tag_405\n      jump\t// in\n    tag_749:\n        /* \"#utility.yul\":37060:37061   */\n      0x00\n        /* \"#utility.yul\":37055:37058   */\n      dup3\n        /* \"#utility.yul\":37051:37062   */\n      add\n        /* \"#utility.yul\":37044:37062   */\n      swap1\n      pop\n        /* \"#utility.yul\":36670:37068   */\n      swap2\n      swap1\n      pop\n      jump\t// out\n        /* \"#utility.yul\":37074:37453   */\n    tag_255:\n        /* \"#utility.yul\":37258:37261   */\n      0x00\n        /* \"#utility.yul\":37280:37427   */\n      tag_751\n        /* \"#utility.yul\":37423:37426   */\n      dup3\n        /* \"#utility.yul\":37280:37427   */\n      tag_406\n      jump\t// in\n    tag_751:\n        /* \"#utility.yul\":37273:37427   */\n      swap2\n      pop\n        /* \"#utility.yul\":37444:37447   */\n      dup2\n        /* \"#utility.yul\":37437:37447   */\n      swap1\n      pop\n        /* \"#utility.yul\":37074:37453   */\n      swap2\n      swap1\n      pop\n      jump\t// out\n        /* \"#utility.yul\":37459:37629   */\n    tag_407:\n        /* \"#utility.yul\":37599:37621   */\n      0x4661696c656420746f2073656e64204574686572000000000000000000000000\n        /* \"#utility.yul\":37595:37596   */\n      0x00\n        /* \"#utility.yul\":37587:37593   */\n      dup3\n        /* \"#utility.yul\":37583:37597   */\n      add\n        /* \"#utility.yul\":37576:37622   */\n      mstore\n        /* \"#utility.yul\":37459:37629   */\n      pop\n      jump\t// out\n        /* \"#utility.yul\":37635:38001   */\n    tag_408:\n        /* \"#utility.yul\":37777:37780   */\n      0x00\n        /* \"#utility.yul\":37798:37865   */\n      tag_754\n        /* \"#utility.yul\":37862:37864   */\n      0x14\n        /* \"#utility.yul\":37857:37860   */\n      dup4\n        /* \"#utility.yul\":37798:37865   */\n      tag_336\n      jump\t// in\n    tag_754:\n        /* \"#utility.yul\":37791:37865   */\n      swap2\n      pop\n        /* \"#utility.yul\":37874:37967   */\n      tag_755\n        /* \"#utility.yul\":37963:37966   */\n      dup3\n        /* \"#utility.yul\":37874:37967   */\n      tag_407\n      jump\t// in\n    tag_755:\n        /* \"#utility.yul\":37992:37994   */\n      0x20\n        /* \"#utility.yul\":37987:37990   */\n      dup3\n        /* \"#utility.yul\":37983:37995   */\n      add\n        /* \"#utility.yul\":37976:37995   */\n      swap1\n      pop\n        /* \"#utility.yul\":37635:38001   */\n      swap2\n      swap1\n      pop\n      jump\t// out\n        /* \"#utility.yul\":38007:38426   */\n    tag_261:\n        /* \"#utility.yul\":38173:38177   */\n      0x00\n        /* \"#utility.yul\":38211:38213   */\n      0x20\n        /* \"#utility.yul\":38200:38209   */\n      dup3\n        /* \"#utility.yul\":38196:38214   */\n      add\n        /* \"#utility.yul\":38188:38214   */\n      swap1\n      pop\n        /* \"#utility.yul\":38260:38269   */\n      dup2\n        /* \"#utility.yul\":38254:38258   */\n      dup2\n        /* \"#utility.yul\":38250:38270   */\n      sub\n        /* \"#utility.yul\":38246:38247   */\n      0x00\n        /* \"#utility.yul\":38235:38244   */\n      dup4\n        /* \"#utility.yul\":38231:38248   */\n      add\n        /* \"#utility.yul\":38224:38271   */\n      mstore\n        /* \"#utility.yul\":38288:38419   */\n      tag_757\n        /* \"#utility.yul\":38414:38418   */\n      dup2\n        /* \"#utility.yul\":38288:38419   */\n      tag_408\n      jump\t// in\n    tag_757:\n        /* \"#utility.yul\":38280:38419   */\n      swap1\n      pop\n        /* \"#utility.yul\":38007:38426   */\n      swap2\n      swap1\n      pop\n      jump\t// out\n        /* \"#utility.yul\":38432:38626   */\n    tag_287:\n        /* \"#utility.yul\":38472:38476   */\n      0x00\n        /* \"#utility.yul\":38492:38512   */\n      tag_759\n        /* \"#utility.yul\":38510:38511   */\n      dup3\n        /* \"#utility.yul\":38492:38512   */\n      tag_332\n      jump\t// in\n    tag_759:\n        /* \"#utility.yul\":38487:38512   */\n      swap2\n      pop\n        /* \"#utility.yul\":38526:38546   */\n      tag_760\n        /* \"#utility.yul\":38544:38545   */\n      dup4\n        /* \"#utility.yul\":38526:38546   */\n      tag_332\n      jump\t// in\n    tag_760:\n        /* \"#utility.yul\":38521:38546   */\n      swap3\n      pop\n        /* \"#utility.yul\":38570:38571   */\n      dup3\n        /* \"#utility.yul\":38567:38568   */\n      dup3\n        /* \"#utility.yul\":38563:38572   */\n      sub\n        /* \"#utility.yul\":38555:38572   */\n      swap1\n      pop\n        /* \"#utility.yul\":38594:38595   */\n      dup2\n        /* \"#utility.yul\":38588:38592   */\n      dup2\n        /* \"#utility.yul\":38585:38596   */\n      gt\n        /* \"#utility.yul\":38582:38619   */\n      iszero\n      tag_761\n      jumpi\n        /* \"#utility.yul\":38599:38617   */\n      tag_762\n      tag_389\n      jump\t// in\n    tag_762:\n        /* \"#utility.yul\":38582:38619   */\n    tag_761:\n        /* \"#utility.yul\":38432:38626   */\n      swap3\n      swap2\n      pop\n      pop\n      jump\t// out\n        /* \"#utility.yul\":38632:38823   */\n    tag_289:\n        /* \"#utility.yul\":38672:38675   */\n      0x00\n        /* \"#utility.yul\":38691:38711   */\n      tag_764\n        /* \"#utility.yul\":38709:38710   */\n      dup3\n        /* \"#utility.yul\":38691:38711   */\n      tag_332\n      jump\t// in\n    tag_764:\n        /* \"#utility.yul\":38686:38711   */\n      swap2\n      pop\n        /* \"#utility.yul\":38725:38745   */\n      tag_765\n        /* \"#utility.yul\":38743:38744   */\n      dup4\n        /* \"#utility.yul\":38725:38745   */\n      tag_332\n      jump\t// in\n    tag_765:\n        /* \"#utility.yul\":38720:38745   */\n      swap3\n      pop\n        /* \"#utility.yul\":38768:38769   */\n      dup3\n        /* \"#utility.yul\":38765:38766   */\n      dup3\n        /* \"#utility.yul\":38761:38770   */\n      add\n        /* \"#utility.yul\":38754:38770   */\n      swap1\n      pop\n        /* \"#utility.yul\":38789:38792   */\n      dup1\n        /* \"#utility.yul\":38786:38787   */\n      dup3\n        /* \"#utility.yul\":38783:38793   */\n      gt\n        /* \"#utility.yul\":38780:38816   */\n      iszero\n      tag_766\n      jumpi\n        /* \"#utility.yul\":38796:38814   */\n      tag_767\n      tag_389\n      jump\t// in\n    tag_767:\n        /* \"#utility.yul\":38780:38816   */\n    tag_766:\n        /* \"#utility.yul\":38632:38823   */\n      swap3\n      swap2\n      pop\n      pop\n      jump\t// out\n\n    auxdata: 0xa26469706673582212208a824e6e649f602ee69e035a5817f5613912e04084dbd6402aefe28c06e7631a64736f6c63430008110033\n}\n","bytecode":{"linkReferences":{},"object":"608060405234801561001057600080fd5b506138eb806100206000396000f3fe6080604052600436106101185760003560e01c80637792a035116100a0578063ca611ffa11610064578063ca611ffa1461043a578063d0e30db014610477578063f6153ccd14610481578063fd70c7dd146104ac578063fea2fee9146104e957610130565b80637792a03514610343578063a9059cbb14610380578063ab6a9f17146103a9578063b205b4f6146103e6578063b69ef8a81461040f57610130565b806344c5c6a5116100e757806344c5c6a514610238578063529a1baf146102635780635e7d7faa146102a057806364aa65a8146102c95780636e6061d11461030657610130565b80630a02dcc7146101355780630cb31a80146101725780631889da0a146101b457806332f97763146101f257610130565b3661013057633b9aca0034101561012e57600080fd5b005b600080fd5b34801561014157600080fd5b5061015c6004803603810190610157919061261c565b610505565b60405161016991906126d9565b60405180910390f35b34801561017e57600080fd5b506101996004803603810190610194919061261c565b6105b1565b6040516101ab9695949392919061274b565b60405180910390f35b3480156101c057600080fd5b506101db60048036038101906101d691906128ef565b61074d565b6040516101e9929190612c2c565b60405180910390f35b3480156101fe57600080fd5b5061021960048036038101906102149190612c8f565b610dd9565b60405161022f9a99989796959493929190612cfe565b60405180910390f35b34801561024457600080fd5b5061024d610ff5565b60405161025a9190612f10565b60405180910390f35b34801561026f57600080fd5b5061028a60048036038101906102859190612f32565b611238565b6040516102979190612f5f565b60405180910390f35b3480156102ac57600080fd5b506102c760048036038101906102c29190612f7a565b611250565b005b3480156102d557600080fd5b506102f060048036038101906102eb9190612f32565b6112f9565b6040516102fd91906126d9565b60405180910390f35b34801561031257600080fd5b5061032d60048036038101906103289190612fd6565b611399565b60405161033a91906126d9565b60405180910390f35b34801561034f57600080fd5b5061036a6004803603810190610365919061261c565b611452565b6040516103779190613016565b60405180910390f35b34801561038c57600080fd5b506103a760048036038101906103a2919061306f565b611491565b005b3480156103b557600080fd5b506103d060048036038101906103cb91906128ef565b611542565b6040516103dd91906130ca565b60405180910390f35b3480156103f257600080fd5b5061040d600480360381019061040891906130e5565b6115e9565b005b34801561041b57600080fd5b50610424611f96565b6040516104319190612f5f565b60405180910390f35b34801561044657600080fd5b50610461600480360381019061045c9190612f32565b611f9e565b60405161046e91906126d9565b60405180910390f35b61047f61203e565b005b34801561048d57600080fd5b50610496612059565b6040516104a39190612f5f565b60405180910390f35b3480156104b857600080fd5b506104d360048036038101906104ce919061322d565b61205f565b6040516104e09190613016565b60405180910390f35b61050360048036038101906104fe9190613276565b6120a8565b005b6000818154811061051557600080fd5b90600052602060002001600091509050805461053090613344565b80601f016020809104026020016040519081016040528092919081815260200182805461055c90613344565b80156105a95780601f1061057e576101008083540402835291602001916105a9565b820191906000526020600020905b81548152906001019060200180831161058c57829003601f168201915b505050505081565b600681815481106105c157600080fd5b90600052602060002090600602016000915090508060000160009054906101000a900473ffffffffffffffffffffffffffffffffffffffff16908060010160009054906101000a900473ffffffffffffffffffffffffffffffffffffffff169080600201805461063090613344565b80601f016020809104026020016040519081016040528092919081815260200182805461065c90613344565b80156106a95780601f1061067e576101008083540402835291602001916106a9565b820191906000526020600020905b81548152906001019060200180831161068c57829003601f168201915b5050505050908060030180546106be90613344565b80601f01602080910402602001604051908101604052809291908181526020018280546106ea90613344565b80156107375780601f1061070c57610100808354040283529160200191610737565b820191906000526020600020905b81548152906001019060200180831161071a57829003601f168201915b5050505050908060040154908060050154905086565b60608060003390506000600760008373ffffffffffffffffffffffffffffffffffffffff1673ffffffffffffffffffffffffffffffffffffffff16815260200190815260200160002090506000600460008473ffffffffffffffffffffffffffffffffffffffff1673ffffffffffffffffffffffffffffffffffffffff16815260200190815260200160002080546107e490613344565b9050036107f057600080fd5b8480519060200120600460008473ffffffffffffffffffffffffffffffffffffffff1673ffffffffffffffffffffffffffffffffffffffff1681526020019081526020016000206040516108449190613418565b60405180910390201461085657600080fd5b6000600760008473ffffffffffffffffffffffffffffffffffffffff1673ffffffffffffffffffffffffffffffffffffffff1681526020019081526020016000208054905067ffffffffffffffff8111156108b4576108b36127c4565b5b6040519080825280602002602001820160405280156108ed57816020015b6108da61257f565b8152602001906001900390816108d25790505b50905060005b8280549050811015610cb75760008382815481106109145761091361342f565b5b90600052602060002001805461092990613344565b80601f016020809104026020016040519081016040528092919081815260200182805461095590613344565b80156109a25780601f10610977576101008083540402835291602001916109a2565b820191906000526020600020905b81548152906001019060200180831161098557829003601f168201915b50505050509050600860008673ffffffffffffffffffffffffffffffffffffffff1673ffffffffffffffffffffffffffffffffffffffff168152602001908152602001600020816040516109f6919061349a565b9081526020016040518091039020600060038b604051610a16919061349a565b908152602001604051809103902060009054906101000a900473ffffffffffffffffffffffffffffffffffffffff1673ffffffffffffffffffffffffffffffffffffffff1673ffffffffffffffffffffffffffffffffffffffff16815260200190815260200160002060405180610140016040529081600082018054610a9b90613344565b80601f0160208091040260200160405190810160405280929190818152602001828054610ac790613344565b8015610b145780601f10610ae957610100808354040283529160200191610b14565b820191906000526020600020905b815481529060010190602001808311610af757829003601f168201915b50505050508152602001600182018054610b2d90613344565b80601f0160208091040260200160405190810160405280929190818152602001828054610b5990613344565b8015610ba65780601f10610b7b57610100808354040283529160200191610ba6565b820191906000526020600020905b815481529060010190602001808311610b8957829003601f168201915b50505050508152602001600282018054610bbf90613344565b80601f0160208091040260200160405190810160405280929190818152602001828054610beb90613344565b8015610c385780601f10610c0d57610100808354040283529160200191610c38565b820191906000526020600020905b815481529060010190602001808311610c1b57829003601f168201915b50505050508152602001600382015481526020016004820154815260200160058201548152602001600682015481526020016007820154815260200160088201548152602001600982015481525050838381518110610c9a57610c9961342f565b5b60200260200101819052505080610cb0906134e0565b90506108f3565b50600760008473ffffffffffffffffffffffffffffffffffffffff1673ffffffffffffffffffffffffffffffffffffffff1681526020019081526020016000208181805480602002602001604051908101604052809291908181526020016000905b82821015610dc5578382906000526020600020018054610d3890613344565b80601f0160208091040260200160405190810160405280929190818152602001828054610d6490613344565b8015610db15780601f10610d8657610100808354040283529160200191610db1565b820191906000526020600020905b815481529060010190602001808311610d9457829003601f168201915b505050505081526020019060010190610d19565b505050509150945094505050509250929050565b6008602052826000526040600020828051602081018201805184825260208301602085012081835280955050505050506020528060005260406000206000925092505050806000018054610e2c90613344565b80601f0160208091040260200160405190810160405280929190818152602001828054610e5890613344565b8015610ea55780601f10610e7a57610100808354040283529160200191610ea5565b820191906000526020600020905b815481529060010190602001808311610e8857829003601f168201915b505050505090806001018054610eba90613344565b80601f0160208091040260200160405190810160405280929190818152602001828054610ee690613344565b8015610f335780601f10610f0857610100808354040283529160200191610f33565b820191906000526020600020905b815481529060010190602001808311610f1657829003601f168201915b505050505090806002018054610f4890613344565b80601f0160208091040260200160405190810160405280929190818152602001828054610f7490613344565b8015610fc15780601f10610f9657610100808354040283529160200191610fc1565b820191906000526020600020905b815481529060010190602001808311610fa457829003601f168201915b505050505090806003015490806004015490806005015490806006015490806007015490806008015490806009015490508a565b60606006805480602002602001604051908101604052809291908181526020016000905b8282101561122f57838290600052602060002090600602016040518060c00160405290816000820160009054906101000a900473ffffffffffffffffffffffffffffffffffffffff1673ffffffffffffffffffffffffffffffffffffffff1673ffffffffffffffffffffffffffffffffffffffff1681526020016001820160009054906101000a900473ffffffffffffffffffffffffffffffffffffffff1673ffffffffffffffffffffffffffffffffffffffff1673ffffffffffffffffffffffffffffffffffffffff1681526020016002820180546110f890613344565b80601f016020809104026020016040519081016040528092919081815260200182805461112490613344565b80156111715780601f1061114657610100808354040283529160200191611171565b820191906000526020600020905b81548152906001019060200180831161115457829003601f168201915b5050505050815260200160038201805461118a90613344565b80601f01602080910402602001604051908101604052809291908181526020018280546111b690613344565b80156112035780601f106111d857610100808354040283529160200191611203565b820191906000526020600020905b8154815290600101906020018083116111e657829003601f168201915b505050505081526020016004820154815260200160058201548152505081526020019060010190611019565b50505050905090565b600a6020528060005260406000206000915090505481565b6000600460008473ffffffffffffffffffffffffffffffffffffffff1673ffffffffffffffffffffffffffffffffffffffff168152602001908152602001600020805461129c90613344565b9050146112a857600080fd5b80600460008473ffffffffffffffffffffffffffffffffffffffff1673ffffffffffffffffffffffffffffffffffffffff16815260200190815260200160002090816112f491906136d4565b505050565b6002602052806000526040600020600091509050805461131890613344565b80601f016020809104026020016040519081016040528092919081815260200182805461134490613344565b80156113915780601f1061136657610100808354040283529160200191611391565b820191906000526020600020905b81548152906001019060200180831161137457829003601f168201915b505050505081565b600760205281600052604060002081815481106113b557600080fd5b906000526020600020016000915091505080546113d190613344565b80601f01602080910402602001604051908101604052809291908181526020018280546113fd90613344565b801561144a5780601f1061141f5761010080835404028352916020019161144a565b820191906000526020600020905b81548152906001019060200180831161142d57829003601f168201915b505050505081565b6001818154811061146257600080fd5b906000526020600020016000915054906101000a900473ffffffffffffffffffffffffffffffffffffffff1681565b60008273ffffffffffffffffffffffffffffffffffffffff16826040516114b7906137cc565b60006040518083038185875af1925050503d80600081146114f4576040519150601f19603f3d011682016040523d82523d6000602084013e6114f9565b606091505b505090508061153d576040517f08c379a00000000000000000000000000000000000000000000000000000000081526004016115349061382d565b60405180910390fd5b505050565b60008060096000600385604051611559919061349a565b908152602001604051809103902060009054906101000a900473ffffffffffffffffffffffffffffffffffffffff1673ffffffffffffffffffffffffffffffffffffffff1673ffffffffffffffffffffffffffffffffffffffff168152602001908152602001600020846040516115d0919061349a565b9081526020016040518091039020541415905092915050565b60003390506000600260008373ffffffffffffffffffffffffffffffffffffffff1673ffffffffffffffffffffffffffffffffffffffff168152602001908152602001600020805461163a90613344565b90500361164657600080fd5b600073ffffffffffffffffffffffffffffffffffffffff1660038b60405161166e919061349a565b908152602001604051809103902060009054906101000a900473ffffffffffffffffffffffffffffffffffffffff1673ffffffffffffffffffffffffffffffffffffffff16036116bd57600080fd5b6001600a600060038d6040516116d3919061349a565b908152602001604051809103902060009054906101000a900473ffffffffffffffffffffffffffffffffffffffff1673ffffffffffffffffffffffffffffffffffffffff1673ffffffffffffffffffffffffffffffffffffffff16815260200190815260200160002054101561174857600080fd5b60006008600060038d60405161175e919061349a565b908152602001604051809103902060009054906101000a900473ffffffffffffffffffffffffffffffffffffffff1673ffffffffffffffffffffffffffffffffffffffff1673ffffffffffffffffffffffffffffffffffffffff16815260200190815260200160002090506117d38d8c611542565b611937576007600060038d6040516117eb919061349a565b908152602001604051809103902060009054906101000a900473ffffffffffffffffffffffffffffffffffffffff1673ffffffffffffffffffffffffffffffffffffffff1673ffffffffffffffffffffffffffffffffffffffff1681526020019081526020016000208d90806001815401808255809150506001900390600052602060002001600090919091909150908161188691906136d4565b506009600060038d60405161189b919061349a565b908152602001604051809103902060009054906101000a900473ffffffffffffffffffffffffffffffffffffffff1673ffffffffffffffffffffffffffffffffffffffff1673ffffffffffffffffffffffffffffffffffffffff1681526020019081526020016000208d604051611912919061349a565b90815260200160405180910390206000815480929190611931906134e0565b91905055505b6000818e604051611948919061349a565b908152602001604051809103902090508d8160008573ffffffffffffffffffffffffffffffffffffffff1673ffffffffffffffffffffffffffffffffffffffff16815260200190815260200160002060000190816119a691906136d4565b508c8160008573ffffffffffffffffffffffffffffffffffffffff1673ffffffffffffffffffffffffffffffffffffffff16815260200190815260200160002060010190816119f591906136d4565b508b8160008573ffffffffffffffffffffffffffffffffffffffff1673ffffffffffffffffffffffffffffffffffffffff1681526020019081526020016000206002019081611a4491906136d4565b508a8160008573ffffffffffffffffffffffffffffffffffffffff1673ffffffffffffffffffffffffffffffffffffffff16815260200190815260200160002060070181905550898160008573ffffffffffffffffffffffffffffffffffffffff1673ffffffffffffffffffffffffffffffffffffffff16815260200190815260200160002060080181905550888160008573ffffffffffffffffffffffffffffffffffffffff1673ffffffffffffffffffffffffffffffffffffffff16815260200190815260200160002060090181905550878160008573ffffffffffffffffffffffffffffffffffffffff1673ffffffffffffffffffffffffffffffffffffffff16815260200190815260200160002060030181905550868160008573ffffffffffffffffffffffffffffffffffffffff1673ffffffffffffffffffffffffffffffffffffffff16815260200190815260200160002060060181905550858160008573ffffffffffffffffffffffffffffffffffffffff1673ffffffffffffffffffffffffffffffffffffffff16815260200190815260200160002060040181905550848160008573ffffffffffffffffffffffffffffffffffffffff1673ffffffffffffffffffffffffffffffffffffffff168152602001908152602001600020600501819055506001600a600060038f604051611c45919061349a565b908152602001604051809103902060009054906101000a900473ffffffffffffffffffffffffffffffffffffffff1673ffffffffffffffffffffffffffffffffffffffff1673ffffffffffffffffffffffffffffffffffffffff1681526020019081526020016000206000828254611cbd919061384d565b925050819055506001600a60008573ffffffffffffffffffffffffffffffffffffffff1673ffffffffffffffffffffffffffffffffffffffff1681526020019081526020016000206000828254611d149190613881565b92505081905550611d26836001611491565b60006040518060c0016040528060038f604051611d43919061349a565b908152602001604051809103902060009054906101000a900473ffffffffffffffffffffffffffffffffffffffff1673ffffffffffffffffffffffffffffffffffffffff1681526020018573ffffffffffffffffffffffffffffffffffffffff1681526020018e8152602001600260008773ffffffffffffffffffffffffffffffffffffffff1673ffffffffffffffffffffffffffffffffffffffff1681526020019081526020016000208054611df990613344565b80601f0160208091040260200160405190810160405280929190818152602001828054611e2590613344565b8015611e725780601f10611e4757610100808354040283529160200191611e72565b820191906000526020600020905b815481529060010190602001808311611e5557829003601f168201915b5050505050815260200160018152602001868152509050600681908060018154018082558091505060019003906000526020600020906006020160009091909190915060008201518160000160006101000a81548173ffffffffffffffffffffffffffffffffffffffff021916908373ffffffffffffffffffffffffffffffffffffffff16021790555060208201518160010160006101000a81548173ffffffffffffffffffffffffffffffffffffffff021916908373ffffffffffffffffffffffffffffffffffffffff1602179055506040820151816002019081611f5891906136d4565b506060820151816003019081611f6e91906136d4565b506080820151816004015560a082015181600501555050505050505050505050505050505050565b600047905090565b60046020528060005260406000206000915090508054611fbd90613344565b80601f0160208091040260200160405190810160405280929190818152602001828054611fe990613344565b80156120365780601f1061200b57610100808354040283529160200191612036565b820191906000526020600020905b81548152906001019060200180831161201957829003601f168201915b505050505081565b34600560008282546120509190613881565b92505081905550565b60055481565b6003818051602081018201805184825260208301602085012081835280955050505050506000915054906101000a900473ffffffffffffffffffffffffffffffffffffffff1681565b6000600260008673ffffffffffffffffffffffffffffffffffffffff1673ffffffffffffffffffffffffffffffffffffffff16815260200190815260200160002080546120f490613344565b905014801561216d5750600073ffffffffffffffffffffffffffffffffffffffff16600384604051612126919061349a565b908152602001604051809103902060009054906101000a900473ffffffffffffffffffffffffffffffffffffffff1673ffffffffffffffffffffffffffffffffffffffff16145b1561257957606434101561218057600080fd5b6000839080600181540180825580915050600190039060005260206000200160009091909190915090816121b491906136d4565b506001849080600181540180825580915050600190039060005260206000200160009091909190916101000a81548173ffffffffffffffffffffffffffffffffffffffff021916908373ffffffffffffffffffffffffffffffffffffffff16021790555083600384604051612229919061349a565b908152602001604051809103902060006101000a81548173ffffffffffffffffffffffffffffffffffffffff021916908373ffffffffffffffffffffffffffffffffffffffff16021790555082600260008673ffffffffffffffffffffffffffffffffffffffff1673ffffffffffffffffffffffffffffffffffffffff16815260200190815260200160002090816122c191906136d4565b5034600a60008673ffffffffffffffffffffffffffffffffffffffff1673ffffffffffffffffffffffffffffffffffffffff16815260200190815260200160002060008282546123119190613881565b9250508190555060006040518060c001604052803373ffffffffffffffffffffffffffffffffffffffff1681526020013073ffffffffffffffffffffffffffffffffffffffff168152602001600260003373ffffffffffffffffffffffffffffffffffffffff1673ffffffffffffffffffffffffffffffffffffffff16815260200190815260200160002080546123a790613344565b80601f01602080910402602001604051908101604052809291908181526020018280546123d390613344565b80156124205780601f106123f557610100808354040283529160200191612420565b820191906000526020600020905b81548152906001019060200180831161240357829003601f168201915b505050505081526020016040518060400160405280600481526020017f42616e6b000000000000000000000000000000000000000000000000000000008152508152602001348152602001848152509050600681908060018154018082558091505060019003906000526020600020906006020160009091909190915060008201518160000160006101000a81548173ffffffffffffffffffffffffffffffffffffffff021916908373ffffffffffffffffffffffffffffffffffffffff16021790555060208201518160010160006101000a81548173ffffffffffffffffffffffffffffffffffffffff021916908373ffffffffffffffffffffffffffffffffffffffff160217905550604082015181600201908161254091906136d4565b50606082015181600301908161255691906136d4565b506080820151816004015560a0820151816005015550506125778583611250565b505b50505050565b604051806101400160405280606081526020016060815260200160608152602001600081526020016000815260200160008152602001600081526020016000815260200160008152602001600081525090565b6000604051905090565b600080fd5b600080fd5b6000819050919050565b6125f9816125e6565b811461260457600080fd5b50565b600081359050612616816125f0565b92915050565b600060208284031215612632576126316125dc565b5b600061264084828501612607565b91505092915050565b600081519050919050565b600082825260208201905092915050565b60005b83811015612683578082015181840152602081019050612668565b60008484015250505050565b6000601f19601f8301169050919050565b60006126ab82612649565b6126b58185612654565b93506126c5818560208601612665565b6126ce8161268f565b840191505092915050565b600060208201905081810360008301526126f381846126a0565b905092915050565b600073ffffffffffffffffffffffffffffffffffffffff82169050919050565b6000612726826126fb565b9050919050565b6127368161271b565b82525050565b612745816125e6565b82525050565b600060c082019050612760600083018961272d565b61276d602083018861272d565b818103604083015261277f81876126a0565b9050818103606083015261279381866126a0565b90506127a2608083018561273c565b6127af60a083018461273c565b979650505050505050565b600080fd5b600080fd5b7f4e487b7100000000000000000000000000000000000000000000000000000000600052604160045260246000fd5b6127fc8261268f565b810181811067ffffffffffffffff8211171561281b5761281a6127c4565b5b80604052505050565b600061282e6125d2565b905061283a82826127f3565b919050565b600067ffffffffffffffff82111561285a576128596127c4565b5b6128638261268f565b9050602081019050919050565b82818337600083830152505050565b600061289261288d8461283f565b612824565b9050828152602081018484840111156128ae576128ad6127bf565b5b6128b9848285612870565b509392505050565b600082601f8301126128d6576128d56127ba565b5b81356128e684826020860161287f565b91505092915050565b60008060408385031215612906576129056125dc565b5b600083013567ffffffffffffffff811115612924576129236125e1565b5b612930858286016128c1565b925050602083013567ffffffffffffffff811115612951576129506125e1565b5b61295d858286016128c1565b9150509250929050565b600081519050919050565b600082825260208201905092915050565b6000819050602082019050919050565b600082825260208201905092915050565b60006129af82612649565b6129b98185612993565b93506129c9818560208601612665565b6129d28161268f565b840191505092915050565b60006129e983836129a4565b905092915050565b6000602082019050919050565b6000612a0982612967565b612a138185612972565b935083602082028501612a2585612983565b8060005b85811015612a615784840389528151612a4285826129dd565b9450612a4d836129f1565b925060208a01995050600181019050612a29565b50829750879550505050505092915050565b600081519050919050565b600082825260208201905092915050565b6000819050602082019050919050565b612aa8816125e6565b82525050565b6000610140830160008301518482036000860152612acc82826129a4565b91505060208301518482036020860152612ae682826129a4565b91505060408301518482036040860152612b0082826129a4565b9150506060830151612b156060860182612a9f565b506080830151612b286080860182612a9f565b5060a0830151612b3b60a0860182612a9f565b5060c0830151612b4e60c0860182612a9f565b5060e0830151612b6160e0860182612a9f565b50610100830151612b76610100860182612a9f565b50610120830151612b8b610120860182612a9f565b508091505092915050565b6000612ba28383612aae565b905092915050565b6000602082019050919050565b6000612bc282612a73565b612bcc8185612a7e565b935083602082028501612bde85612a8f565b8060005b85811015612c1a5784840389528151612bfb8582612b96565b9450612c0683612baa565b925060208a01995050600181019050612be2565b50829750879550505050505092915050565b60006040820190508181036000830152612c4681856129fe565b90508181036020830152612c5a8184612bb7565b90509392505050565b612c6c8161271b565b8114612c7757600080fd5b50565b600081359050612c8981612c63565b92915050565b600080600060608486031215612ca857612ca76125dc565b5b6000612cb686828701612c7a565b935050602084013567ffffffffffffffff811115612cd757612cd66125e1565b5b612ce3868287016128c1565b9250506040612cf486828701612c7a565b9150509250925092565b6000610140820190508181036000830152612d19818d6126a0565b90508181036020830152612d2d818c6126a0565b90508181036040830152612d41818b6126a0565b9050612d50606083018a61273c565b612d5d608083018961273c565b612d6a60a083018861273c565b612d7760c083018761273c565b612d8460e083018661273c565b612d9261010083018561273c565b612da061012083018461273c565b9b9a5050505050505050505050565b600081519050919050565b600082825260208201905092915050565b6000819050602082019050919050565b612de48161271b565b82525050565b600060c083016000830151612e026000860182612ddb565b506020830151612e156020860182612ddb565b5060408301518482036040860152612e2d82826129a4565b91505060608301518482036060860152612e4782826129a4565b9150506080830151612e5c6080860182612a9f565b5060a0830151612e6f60a0860182612a9f565b508091505092915050565b6000612e868383612dea565b905092915050565b6000602082019050919050565b6000612ea682612daf565b612eb08185612dba565b935083602082028501612ec285612dcb565b8060005b85811015612efe5784840389528151612edf8582612e7a565b9450612eea83612e8e565b925060208a01995050600181019050612ec6565b50829750879550505050505092915050565b60006020820190508181036000830152612f2a8184612e9b565b905092915050565b600060208284031215612f4857612f476125dc565b5b6000612f5684828501612c7a565b91505092915050565b6000602082019050612f74600083018461273c565b92915050565b60008060408385031215612f9157612f906125dc565b5b6000612f9f85828601612c7a565b925050602083013567ffffffffffffffff811115612fc057612fbf6125e1565b5b612fcc858286016128c1565b9150509250929050565b60008060408385031215612fed57612fec6125dc565b5b6000612ffb85828601612c7a565b925050602061300c85828601612607565b9150509250929050565b600060208201905061302b600083018461272d565b92915050565b600061303c826126fb565b9050919050565b61304c81613031565b811461305757600080fd5b50565b60008135905061306981613043565b92915050565b60008060408385031215613086576130856125dc565b5b60006130948582860161305a565b92505060206130a585828601612607565b9150509250929050565b60008115159050919050565b6130c4816130af565b82525050565b60006020820190506130df60008301846130bb565b92915050565b60008060008060008060008060008060006101608c8e03121561310b5761310a6125dc565b5b60008c013567ffffffffffffffff811115613129576131286125e1565b5b6131358e828f016128c1565b9b505060208c013567ffffffffffffffff811115613156576131556125e1565b5b6131628e828f016128c1565b9a505060408c013567ffffffffffffffff811115613183576131826125e1565b5b61318f8e828f016128c1565b99505060606131a08e828f01612607565b98505060806131b18e828f01612607565b97505060a06131c28e828f01612607565b96505060c06131d38e828f01612607565b95505060e06131e48e828f01612607565b9450506101006131f68e828f01612607565b9350506101206132088e828f01612607565b92505061014061321a8e828f01612607565b9150509295989b509295989b9093969950565b600060208284031215613243576132426125dc565b5b600082013567ffffffffffffffff811115613261576132606125e1565b5b61326d848285016128c1565b91505092915050565b600080600080608085870312156132905761328f6125dc565b5b600061329e87828801612c7a565b945050602085013567ffffffffffffffff8111156132bf576132be6125e1565b5b6132cb878288016128c1565b93505060406132dc87828801612607565b925050606085013567ffffffffffffffff8111156132fd576132fc6125e1565b5b613309878288016128c1565b91505092959194509250565b7f4e487b7100000000000000000000000000000000000000000000000000000000600052602260045260246000fd5b6000600282049050600182168061335c57607f821691505b60208210810361336f5761336e613315565b5b50919050565b600081905092915050565b60008190508160005260206000209050919050565b600081546133a281613344565b6133ac8186613375565b945060018216600081146133c757600181146133dc5761340f565b60ff198316865281151582028601935061340f565b6133e585613380565b60005b83811015613407578154818901526001820191506020810190506133e8565b838801955050505b50505092915050565b60006134248284613395565b915081905092915050565b7f4e487b7100000000000000000000000000000000000000000000000000000000600052603260045260246000fd5b600081905092915050565b600061347482612649565b61347e818561345e565b935061348e818560208601612665565b80840191505092915050565b60006134a68284613469565b915081905092915050565b7f4e487b7100000000000000000000000000000000000000000000000000000000600052601160045260246000fd5b60006134eb826125e6565b91507fffffffffffffffffffffffffffffffffffffffffffffffffffffffffffffffff820361351d5761351c6134b1565b5b600182019050919050565b60008190508160005260206000209050919050565b60006020601f8301049050919050565b600082821b905092915050565b60006008830261358a7fffffffffffffffffffffffffffffffffffffffffffffffffffffffffffffffff8261354d565b613594868361354d565b95508019841693508086168417925050509392505050565b6000819050919050565b60006135d16135cc6135c7846125e6565b6135ac565b6125e6565b9050919050565b6000819050919050565b6135eb836135b6565b6135ff6135f7826135d8565b84845461355a565b825550505050565b600090565b613614613607565b61361f8184846135e2565b505050565b5b818110156136435761363860008261360c565b600181019050613625565b5050565b601f8211156136885761365981613528565b6136628461353d565b81016020851015613671578190505b61368561367d8561353d565b830182613624565b50505b505050565b600082821c905092915050565b60006136ab6000198460080261368d565b1980831691505092915050565b60006136c4838361369a565b9150826002028217905092915050565b6136dd82612649565b67ffffffffffffffff8111156136f6576136f56127c4565b5b6137008254613344565b61370b828285613647565b600060209050601f83116001811461373e576000841561372c578287015190505b61373685826136b8565b86555061379e565b601f19841661374c86613528565b60005b828110156137745784890151825560018201915060208501945060208101905061374f565b86831015613791578489015161378d601f89168261369a565b8355505b6001600288020188555050505b505050505050565b50565b60006137b6600083613375565b91506137c1826137a6565b600082019050919050565b60006137d7826137a9565b9150819050919050565b7f4661696c656420746f2073656e64204574686572000000000000000000000000600082015250565b6000613817601483612654565b9150613822826137e1565b602082019050919050565b600060208201905081810360008301526138468161380a565b9050919050565b6000613858826125e6565b9150613863836125e6565b925082820390508181111561387b5761387a6134b1565b5b92915050565b600061388c826125e6565b9150613897836125e6565b92508282019050808211156138af576138ae6134b1565b5b9291505056fea26469706673582212208a824e6e649f602ee69e035a5817f5613912e04084dbd6402aefe28c06e7631a64736f6c63430008110033","opcodes":"PUSH1 0x80 PUSH1 0x40 MSTORE CALLVALUE DUP1 ISZERO PUSH2 0x10 JUMPI PUSH1 0x0 DUP1 REVERT JUMPDEST POP PUSH2 0x38EB DUP1 PUSH2 0x20 PUSH1 0x0 CODECOPY PUSH1 0x0 RETURN INVALID PUSH1 0x80 PUSH1 0x40 MSTORE PUSH1 0x4 CALLDATASIZE LT PUSH2 0x118 JUMPI PUSH1 0x0 CALLDATALOAD PUSH1 0xE0 SHR DUP1 PUSH4 0x7792A035 GT PUSH2 0xA0 JUMPI DUP1 PUSH4 0xCA611FFA GT PUSH2 0x64 JUMPI DUP1 PUSH4 0xCA611FFA EQ PUSH2 0x43A JUMPI DUP1 PUSH4 0xD0E30DB0 EQ PUSH2 0x477 JUMPI DUP1 PUSH4 0xF6153CCD EQ PUSH2 0x481 JUMPI DUP1 PUSH4 0xFD70C7DD EQ PUSH2 0x4AC JUMPI DUP1 PUSH4 0xFEA2FEE9 EQ PUSH2 0x4E9 JUMPI PUSH2 0x130 JUMP JUMPDEST DUP1 PUSH4 0x7792A035 EQ PUSH2 0x343 JUMPI DUP1 PUSH4 0xA9059CBB EQ PUSH2 0x380 JUMPI DUP1 PUSH4 0xAB6A9F17 EQ PUSH2 0x3A9 JUMPI DUP1 PUSH4 0xB205B4F6 EQ PUSH2 0x3E6 JUMPI DUP1 PUSH4 0xB69EF8A8 EQ PUSH2 0x40F JUMPI PUSH2 0x130 JUMP JUMPDEST DUP1 PUSH4 0x44C5C6A5 GT PUSH2 0xE7 JUMPI DUP1 PUSH4 0x44C5C6A5 EQ PUSH2 0x238 JUMPI DUP1 PUSH4 0x529A1BAF EQ PUSH2 0x263 JUMPI DUP1 PUSH4 0x5E7D7FAA EQ PUSH2 0x2A0 JUMPI DUP1 PUSH4 0x64AA65A8 EQ PUSH2 0x2C9 JUMPI DUP1 PUSH4 0x6E6061D1 EQ PUSH2 0x306 JUMPI PUSH2 0x130 JUMP JUMPDEST DUP1 PUSH4 0xA02DCC7 EQ PUSH2 0x135 JUMPI DUP1 PUSH4 0xCB31A80 EQ PUSH2 0x172 JUMPI DUP1 PUSH4 0x1889DA0A EQ PUSH2 0x1B4 JUMPI DUP1 PUSH4 0x32F97763 EQ PUSH2 0x1F2 JUMPI PUSH2 0x130 JUMP JUMPDEST CALLDATASIZE PUSH2 0x130 JUMPI PUSH4 0x3B9ACA00 CALLVALUE LT ISZERO PUSH2 0x12E JUMPI PUSH1 0x0 DUP1 REVERT JUMPDEST STOP JUMPDEST PUSH1 0x0 DUP1 REVERT JUMPDEST CALLVALUE DUP1 ISZERO PUSH2 0x141 JUMPI PUSH1 0x0 DUP1 REVERT JUMPDEST POP PUSH2 0x15C PUSH1 0x4 DUP1 CALLDATASIZE SUB DUP2 ADD SWAP1 PUSH2 0x157 SWAP2 SWAP1 PUSH2 0x261C JUMP JUMPDEST PUSH2 0x505 JUMP JUMPDEST PUSH1 0x40 MLOAD PUSH2 0x169 SWAP2 SWAP1 PUSH2 0x26D9 JUMP JUMPDEST PUSH1 0x40 MLOAD DUP1 SWAP2 SUB SWAP1 RETURN JUMPDEST CALLVALUE DUP1 ISZERO PUSH2 0x17E JUMPI PUSH1 0x0 DUP1 REVERT JUMPDEST POP PUSH2 0x199 PUSH1 0x4 DUP1 CALLDATASIZE SUB DUP2 ADD SWAP1 PUSH2 0x194 SWAP2 SWAP1 PUSH2 0x261C JUMP JUMPDEST PUSH2 0x5B1 JUMP JUMPDEST PUSH1 0x40 MLOAD PUSH2 0x1AB SWAP7 SWAP6 SWAP5 SWAP4 SWAP3 SWAP2 SWAP1 PUSH2 0x274B JUMP JUMPDEST PUSH1 0x40 MLOAD DUP1 SWAP2 SUB SWAP1 RETURN JUMPDEST CALLVALUE DUP1 ISZERO PUSH2 0x1C0 JUMPI PUSH1 0x0 DUP1 REVERT JUMPDEST POP PUSH2 0x1DB PUSH1 0x4 DUP1 CALLDATASIZE SUB DUP2 ADD SWAP1 PUSH2 0x1D6 SWAP2 SWAP1 PUSH2 0x28EF JUMP JUMPDEST PUSH2 0x74D JUMP JUMPDEST PUSH1 0x40 MLOAD PUSH2 0x1E9 SWAP3 SWAP2 SWAP1 PUSH2 0x2C2C JUMP JUMPDEST PUSH1 0x40 MLOAD DUP1 SWAP2 SUB SWAP1 RETURN JUMPDEST CALLVALUE DUP1 ISZERO PUSH2 0x1FE JUMPI PUSH1 0x0 DUP1 REVERT JUMPDEST POP PUSH2 0x219 PUSH1 0x4 DUP1 CALLDATASIZE SUB DUP2 ADD SWAP1 PUSH2 0x214 SWAP2 SWAP1 PUSH2 0x2C8F JUMP JUMPDEST PUSH2 0xDD9 JUMP JUMPDEST PUSH1 0x40 MLOAD PUSH2 0x22F SWAP11 SWAP10 SWAP9 SWAP8 SWAP7 SWAP6 SWAP5 SWAP4 SWAP3 SWAP2 SWAP1 PUSH2 0x2CFE JUMP JUMPDEST PUSH1 0x40 MLOAD DUP1 SWAP2 SUB SWAP1 RETURN JUMPDEST CALLVALUE DUP1 ISZERO PUSH2 0x244 JUMPI PUSH1 0x0 DUP1 REVERT JUMPDEST POP PUSH2 0x24D PUSH2 0xFF5 JUMP JUMPDEST PUSH1 0x40 MLOAD PUSH2 0x25A SWAP2 SWAP1 PUSH2 0x2F10 JUMP JUMPDEST PUSH1 0x40 MLOAD DUP1 SWAP2 SUB SWAP1 RETURN JUMPDEST CALLVALUE DUP1 ISZERO PUSH2 0x26F JUMPI PUSH1 0x0 DUP1 REVERT JUMPDEST POP PUSH2 0x28A PUSH1 0x4 DUP1 CALLDATASIZE SUB DUP2 ADD SWAP1 PUSH2 0x285 SWAP2 SWAP1 PUSH2 0x2F32 JUMP JUMPDEST PUSH2 0x1238 JUMP JUMPDEST PUSH1 0x40 MLOAD PUSH2 0x297 SWAP2 SWAP1 PUSH2 0x2F5F JUMP JUMPDEST PUSH1 0x40 MLOAD DUP1 SWAP2 SUB SWAP1 RETURN JUMPDEST CALLVALUE DUP1 ISZERO PUSH2 0x2AC JUMPI PUSH1 0x0 DUP1 REVERT JUMPDEST POP PUSH2 0x2C7 PUSH1 0x4 DUP1 CALLDATASIZE SUB DUP2 ADD SWAP1 PUSH2 0x2C2 SWAP2 SWAP1 PUSH2 0x2F7A JUMP JUMPDEST PUSH2 0x1250 JUMP JUMPDEST STOP JUMPDEST CALLVALUE DUP1 ISZERO PUSH2 0x2D5 JUMPI PUSH1 0x0 DUP1 REVERT JUMPDEST POP PUSH2 0x2F0 PUSH1 0x4 DUP1 CALLDATASIZE SUB DUP2 ADD SWAP1 PUSH2 0x2EB SWAP2 SWAP1 PUSH2 0x2F32 JUMP JUMPDEST PUSH2 0x12F9 JUMP JUMPDEST PUSH1 0x40 MLOAD PUSH2 0x2FD SWAP2 SWAP1 PUSH2 0x26D9 JUMP JUMPDEST PUSH1 0x40 MLOAD DUP1 SWAP2 SUB SWAP1 RETURN JUMPDEST CALLVALUE DUP1 ISZERO PUSH2 0x312 JUMPI PUSH1 0x0 DUP1 REVERT JUMPDEST POP PUSH2 0x32D PUSH1 0x4 DUP1 CALLDATASIZE SUB DUP2 ADD SWAP1 PUSH2 0x328 SWAP2 SWAP1 PUSH2 0x2FD6 JUMP JUMPDEST PUSH2 0x1399 JUMP JUMPDEST PUSH1 0x40 MLOAD PUSH2 0x33A SWAP2 SWAP1 PUSH2 0x26D9 JUMP JUMPDEST PUSH1 0x40 MLOAD DUP1 SWAP2 SUB SWAP1 RETURN JUMPDEST CALLVALUE DUP1 ISZERO PUSH2 0x34F JUMPI PUSH1 0x0 DUP1 REVERT JUMPDEST POP PUSH2 0x36A PUSH1 0x4 DUP1 CALLDATASIZE SUB DUP2 ADD SWAP1 PUSH2 0x365 SWAP2 SWAP1 PUSH2 0x261C JUMP JUMPDEST PUSH2 0x1452 JUMP JUMPDEST PUSH1 0x40 MLOAD PUSH2 0x377 SWAP2 SWAP1 PUSH2 0x3016 JUMP JUMPDEST PUSH1 0x40 MLOAD DUP1 SWAP2 SUB SWAP1 RETURN JUMPDEST CALLVALUE DUP1 ISZERO PUSH2 0x38C JUMPI PUSH1 0x0 DUP1 REVERT JUMPDEST POP PUSH2 0x3A7 PUSH1 0x4 DUP1 CALLDATASIZE SUB DUP2 ADD SWAP1 PUSH2 0x3A2 SWAP2 SWAP1 PUSH2 0x306F JUMP JUMPDEST PUSH2 0x1491 JUMP JUMPDEST STOP JUMPDEST CALLVALUE DUP1 ISZERO PUSH2 0x3B5 JUMPI PUSH1 0x0 DUP1 REVERT JUMPDEST POP PUSH2 0x3D0 PUSH1 0x4 DUP1 CALLDATASIZE SUB DUP2 ADD SWAP1 PUSH2 0x3CB SWAP2 SWAP1 PUSH2 0x28EF JUMP JUMPDEST PUSH2 0x1542 JUMP JUMPDEST PUSH1 0x40 MLOAD PUSH2 0x3DD SWAP2 SWAP1 PUSH2 0x30CA JUMP JUMPDEST PUSH1 0x40 MLOAD DUP1 SWAP2 SUB SWAP1 RETURN JUMPDEST CALLVALUE DUP1 ISZERO PUSH2 0x3F2 JUMPI PUSH1 0x0 DUP1 REVERT JUMPDEST POP PUSH2 0x40D PUSH1 0x4 DUP1 CALLDATASIZE SUB DUP2 ADD SWAP1 PUSH2 0x408 SWAP2 SWAP1 PUSH2 0x30E5 JUMP JUMPDEST PUSH2 0x15E9 JUMP JUMPDEST STOP JUMPDEST CALLVALUE DUP1 ISZERO PUSH2 0x41B JUMPI PUSH1 0x0 DUP1 REVERT JUMPDEST POP PUSH2 0x424 PUSH2 0x1F96 JUMP JUMPDEST PUSH1 0x40 MLOAD PUSH2 0x431 SWAP2 SWAP1 PUSH2 0x2F5F JUMP JUMPDEST PUSH1 0x40 MLOAD DUP1 SWAP2 SUB SWAP1 RETURN JUMPDEST CALLVALUE DUP1 ISZERO PUSH2 0x446 JUMPI PUSH1 0x0 DUP1 REVERT JUMPDEST POP PUSH2 0x461 PUSH1 0x4 DUP1 CALLDATASIZE SUB DUP2 ADD SWAP1 PUSH2 0x45C SWAP2 SWAP1 PUSH2 0x2F32 JUMP JUMPDEST PUSH2 0x1F9E JUMP JUMPDEST PUSH1 0x40 MLOAD PUSH2 0x46E SWAP2 SWAP1 PUSH2 0x26D9 JUMP JUMPDEST PUSH1 0x40 MLOAD DUP1 SWAP2 SUB SWAP1 RETURN JUMPDEST PUSH2 0x47F PUSH2 0x203E JUMP JUMPDEST STOP JUMPDEST CALLVALUE DUP1 ISZERO PUSH2 0x48D JUMPI PUSH1 0x0 DUP1 REVERT JUMPDEST POP PUSH2 0x496 PUSH2 0x2059 JUMP JUMPDEST PUSH1 0x40 MLOAD PUSH2 0x4A3 SWAP2 SWAP1 PUSH2 0x2F5F JUMP JUMPDEST PUSH1 0x40 MLOAD DUP1 SWAP2 SUB SWAP1 RETURN JUMPDEST CALLVALUE DUP1 ISZERO PUSH2 0x4B8 JUMPI PUSH1 0x0 DUP1 REVERT JUMPDEST POP PUSH2 0x4D3 PUSH1 0x4 DUP1 CALLDATASIZE SUB DUP2 ADD SWAP1 PUSH2 0x4CE SWAP2 SWAP1 PUSH2 0x322D JUMP JUMPDEST PUSH2 0x205F JUMP JUMPDEST PUSH1 0x40 MLOAD PUSH2 0x4E0 SWAP2 SWAP1 PUSH2 0x3016 JUMP JUMPDEST PUSH1 0x40 MLOAD DUP1 SWAP2 SUB SWAP1 RETURN JUMPDEST PUSH2 0x503 PUSH1 0x4 DUP1 CALLDATASIZE SUB DUP2 ADD SWAP1 PUSH2 0x4FE SWAP2 SWAP1 PUSH2 0x3276 JUMP JUMPDEST PUSH2 0x20A8 JUMP JUMPDEST STOP JUMPDEST PUSH1 0x0 DUP2 DUP2 SLOAD DUP2 LT PUSH2 0x515 JUMPI PUSH1 0x0 DUP1 REVERT JUMPDEST SWAP1 PUSH1 0x0 MSTORE PUSH1 0x20 PUSH1 0x0 KECCAK256 ADD PUSH1 0x0 SWAP2 POP SWAP1 POP DUP1 SLOAD PUSH2 0x530 SWAP1 PUSH2 0x3344 JUMP JUMPDEST DUP1 PUSH1 0x1F ADD PUSH1 0x20 DUP1 SWAP2 DIV MUL PUSH1 0x20 ADD PUSH1 0x40 MLOAD SWAP1 DUP2 ADD PUSH1 0x40 MSTORE DUP1 SWAP3 SWAP2 SWAP1 DUP2 DUP2 MSTORE PUSH1 0x20 ADD DUP3 DUP1 SLOAD PUSH2 0x55C SWAP1 PUSH2 0x3344 JUMP JUMPDEST DUP1 ISZERO PUSH2 0x5A9 JUMPI DUP1 PUSH1 0x1F LT PUSH2 0x57E JUMPI PUSH2 0x100 DUP1 DUP4 SLOAD DIV MUL DUP4 MSTORE SWAP2 PUSH1 0x20 ADD SWAP2 PUSH2 0x5A9 JUMP JUMPDEST DUP3 ADD SWAP2 SWAP1 PUSH1 0x0 MSTORE PUSH1 0x20 PUSH1 0x0 KECCAK256 SWAP1 JUMPDEST DUP2 SLOAD DUP2 MSTORE SWAP1 PUSH1 0x1 ADD SWAP1 PUSH1 0x20 ADD DUP1 DUP4 GT PUSH2 0x58C JUMPI DUP3 SWAP1 SUB PUSH1 0x1F AND DUP3 ADD SWAP2 JUMPDEST POP POP POP POP POP DUP2 JUMP JUMPDEST PUSH1 0x6 DUP2 DUP2 SLOAD DUP2 LT PUSH2 0x5C1 JUMPI PUSH1 0x0 DUP1 REVERT JUMPDEST SWAP1 PUSH1 0x0 MSTORE PUSH1 0x20 PUSH1 0x0 KECCAK256 SWAP1 PUSH1 0x6 MUL ADD PUSH1 0x0 SWAP2 POP SWAP1 POP DUP1 PUSH1 0x0 ADD PUSH1 0x0 SWAP1 SLOAD SWAP1 PUSH2 0x100 EXP SWAP1 DIV PUSH20 0xFFFFFFFFFFFFFFFFFFFFFFFFFFFFFFFFFFFFFFFF AND SWAP1 DUP1 PUSH1 0x1 ADD PUSH1 0x0 SWAP1 SLOAD SWAP1 PUSH2 0x100 EXP SWAP1 DIV PUSH20 0xFFFFFFFFFFFFFFFFFFFFFFFFFFFFFFFFFFFFFFFF AND SWAP1 DUP1 PUSH1 0x2 ADD DUP1 SLOAD PUSH2 0x630 SWAP1 PUSH2 0x3344 JUMP JUMPDEST DUP1 PUSH1 0x1F ADD PUSH1 0x20 DUP1 SWAP2 DIV MUL PUSH1 0x20 ADD PUSH1 0x40 MLOAD SWAP1 DUP2 ADD PUSH1 0x40 MSTORE DUP1 SWAP3 SWAP2 SWAP1 DUP2 DUP2 MSTORE PUSH1 0x20 ADD DUP3 DUP1 SLOAD PUSH2 0x65C SWAP1 PUSH2 0x3344 JUMP JUMPDEST DUP1 ISZERO PUSH2 0x6A9 JUMPI DUP1 PUSH1 0x1F LT PUSH2 0x67E JUMPI PUSH2 0x100 DUP1 DUP4 SLOAD DIV MUL DUP4 MSTORE SWAP2 PUSH1 0x20 ADD SWAP2 PUSH2 0x6A9 JUMP JUMPDEST DUP3 ADD SWAP2 SWAP1 PUSH1 0x0 MSTORE PUSH1 0x20 PUSH1 0x0 KECCAK256 SWAP1 JUMPDEST DUP2 SLOAD DUP2 MSTORE SWAP1 PUSH1 0x1 ADD SWAP1 PUSH1 0x20 ADD DUP1 DUP4 GT PUSH2 0x68C JUMPI DUP3 SWAP1 SUB PUSH1 0x1F AND DUP3 ADD SWAP2 JUMPDEST POP POP POP POP POP SWAP1 DUP1 PUSH1 0x3 ADD DUP1 SLOAD PUSH2 0x6BE SWAP1 PUSH2 0x3344 JUMP JUMPDEST DUP1 PUSH1 0x1F ADD PUSH1 0x20 DUP1 SWAP2 DIV MUL PUSH1 0x20 ADD PUSH1 0x40 MLOAD SWAP1 DUP2 ADD PUSH1 0x40 MSTORE DUP1 SWAP3 SWAP2 SWAP1 DUP2 DUP2 MSTORE PUSH1 0x20 ADD DUP3 DUP1 SLOAD PUSH2 0x6EA SWAP1 PUSH2 0x3344 JUMP JUMPDEST DUP1 ISZERO PUSH2 0x737 JUMPI DUP1 PUSH1 0x1F LT PUSH2 0x70C JUMPI PUSH2 0x100 DUP1 DUP4 SLOAD DIV MUL DUP4 MSTORE SWAP2 PUSH1 0x20 ADD SWAP2 PUSH2 0x737 JUMP JUMPDEST DUP3 ADD SWAP2 SWAP1 PUSH1 0x0 MSTORE PUSH1 0x20 PUSH1 0x0 KECCAK256 SWAP1 JUMPDEST DUP2 SLOAD DUP2 MSTORE SWAP1 PUSH1 0x1 ADD SWAP1 PUSH1 0x20 ADD DUP1 DUP4 GT PUSH2 0x71A JUMPI DUP3 SWAP1 SUB PUSH1 0x1F AND DUP3 ADD SWAP2 JUMPDEST POP POP POP POP POP SWAP1 DUP1 PUSH1 0x4 ADD SLOAD SWAP1 DUP1 PUSH1 0x5 ADD SLOAD SWAP1 POP DUP7 JUMP JUMPDEST PUSH1 0x60 DUP1 PUSH1 0x0 CALLER SWAP1 POP PUSH1 0x0 PUSH1 0x7 PUSH1 0x0 DUP4 PUSH20 0xFFFFFFFFFFFFFFFFFFFFFFFFFFFFFFFFFFFFFFFF AND PUSH20 0xFFFFFFFFFFFFFFFFFFFFFFFFFFFFFFFFFFFFFFFF AND DUP2 MSTORE PUSH1 0x20 ADD SWAP1 DUP2 MSTORE PUSH1 0x20 ADD PUSH1 0x0 KECCAK256 SWAP1 POP PUSH1 0x0 PUSH1 0x4 PUSH1 0x0 DUP5 PUSH20 0xFFFFFFFFFFFFFFFFFFFFFFFFFFFFFFFFFFFFFFFF AND PUSH20 0xFFFFFFFFFFFFFFFFFFFFFFFFFFFFFFFFFFFFFFFF AND DUP2 MSTORE PUSH1 0x20 ADD SWAP1 DUP2 MSTORE PUSH1 0x20 ADD PUSH1 0x0 KECCAK256 DUP1 SLOAD PUSH2 0x7E4 SWAP1 PUSH2 0x3344 JUMP JUMPDEST SWAP1 POP SUB PUSH2 0x7F0 JUMPI PUSH1 0x0 DUP1 REVERT JUMPDEST DUP5 DUP1 MLOAD SWAP1 PUSH1 0x20 ADD KECCAK256 PUSH1 0x4 PUSH1 0x0 DUP5 PUSH20 0xFFFFFFFFFFFFFFFFFFFFFFFFFFFFFFFFFFFFFFFF AND PUSH20 0xFFFFFFFFFFFFFFFFFFFFFFFFFFFFFFFFFFFFFFFF AND DUP2 MSTORE PUSH1 0x20 ADD SWAP1 DUP2 MSTORE PUSH1 0x20 ADD PUSH1 0x0 KECCAK256 PUSH1 0x40 MLOAD PUSH2 0x844 SWAP2 SWAP1 PUSH2 0x3418 JUMP JUMPDEST PUSH1 0x40 MLOAD DUP1 SWAP2 SUB SWAP1 KECCAK256 EQ PUSH2 0x856 JUMPI PUSH1 0x0 DUP1 REVERT JUMPDEST PUSH1 0x0 PUSH1 0x7 PUSH1 0x0 DUP5 PUSH20 0xFFFFFFFFFFFFFFFFFFFFFFFFFFFFFFFFFFFFFFFF AND PUSH20 0xFFFFFFFFFFFFFFFFFFFFFFFFFFFFFFFFFFFFFFFF AND DUP2 MSTORE PUSH1 0x20 ADD SWAP1 DUP2 MSTORE PUSH1 0x20 ADD PUSH1 0x0 KECCAK256 DUP1 SLOAD SWAP1 POP PUSH8 0xFFFFFFFFFFFFFFFF DUP2 GT ISZERO PUSH2 0x8B4 JUMPI PUSH2 0x8B3 PUSH2 0x27C4 JUMP JUMPDEST JUMPDEST PUSH1 0x40 MLOAD SWAP1 DUP1 DUP3 MSTORE DUP1 PUSH1 0x20 MUL PUSH1 0x20 ADD DUP3 ADD PUSH1 0x40 MSTORE DUP1 ISZERO PUSH2 0x8ED JUMPI DUP2 PUSH1 0x20 ADD JUMPDEST PUSH2 0x8DA PUSH2 0x257F JUMP JUMPDEST DUP2 MSTORE PUSH1 0x20 ADD SWAP1 PUSH1 0x1 SWAP1 SUB SWAP1 DUP2 PUSH2 0x8D2 JUMPI SWAP1 POP JUMPDEST POP SWAP1 POP PUSH1 0x0 JUMPDEST DUP3 DUP1 SLOAD SWAP1 POP DUP2 LT ISZERO PUSH2 0xCB7 JUMPI PUSH1 0x0 DUP4 DUP3 DUP2 SLOAD DUP2 LT PUSH2 0x914 JUMPI PUSH2 0x913 PUSH2 0x342F JUMP JUMPDEST JUMPDEST SWAP1 PUSH1 0x0 MSTORE PUSH1 0x20 PUSH1 0x0 KECCAK256 ADD DUP1 SLOAD PUSH2 0x929 SWAP1 PUSH2 0x3344 JUMP JUMPDEST DUP1 PUSH1 0x1F ADD PUSH1 0x20 DUP1 SWAP2 DIV MUL PUSH1 0x20 ADD PUSH1 0x40 MLOAD SWAP1 DUP2 ADD PUSH1 0x40 MSTORE DUP1 SWAP3 SWAP2 SWAP1 DUP2 DUP2 MSTORE PUSH1 0x20 ADD DUP3 DUP1 SLOAD PUSH2 0x955 SWAP1 PUSH2 0x3344 JUMP JUMPDEST DUP1 ISZERO PUSH2 0x9A2 JUMPI DUP1 PUSH1 0x1F LT PUSH2 0x977 JUMPI PUSH2 0x100 DUP1 DUP4 SLOAD DIV MUL DUP4 MSTORE SWAP2 PUSH1 0x20 ADD SWAP2 PUSH2 0x9A2 JUMP JUMPDEST DUP3 ADD SWAP2 SWAP1 PUSH1 0x0 MSTORE PUSH1 0x20 PUSH1 0x0 KECCAK256 SWAP1 JUMPDEST DUP2 SLOAD DUP2 MSTORE SWAP1 PUSH1 0x1 ADD SWAP1 PUSH1 0x20 ADD DUP1 DUP4 GT PUSH2 0x985 JUMPI DUP3 SWAP1 SUB PUSH1 0x1F AND DUP3 ADD SWAP2 JUMPDEST POP POP POP POP POP SWAP1 POP PUSH1 0x8 PUSH1 0x0 DUP7 PUSH20 0xFFFFFFFFFFFFFFFFFFFFFFFFFFFFFFFFFFFFFFFF AND PUSH20 0xFFFFFFFFFFFFFFFFFFFFFFFFFFFFFFFFFFFFFFFF AND DUP2 MSTORE PUSH1 0x20 ADD SWAP1 DUP2 MSTORE PUSH1 0x20 ADD PUSH1 0x0 KECCAK256 DUP2 PUSH1 0x40 MLOAD PUSH2 0x9F6 SWAP2 SWAP1 PUSH2 0x349A JUMP JUMPDEST SWAP1 DUP2 MSTORE PUSH1 0x20 ADD PUSH1 0x40 MLOAD DUP1 SWAP2 SUB SWAP1 KECCAK256 PUSH1 0x0 PUSH1 0x3 DUP12 PUSH1 0x40 MLOAD PUSH2 0xA16 SWAP2 SWAP1 PUSH2 0x349A JUMP JUMPDEST SWAP1 DUP2 MSTORE PUSH1 0x20 ADD PUSH1 0x40 MLOAD DUP1 SWAP2 SUB SWAP1 KECCAK256 PUSH1 0x0 SWAP1 SLOAD SWAP1 PUSH2 0x100 EXP SWAP1 DIV PUSH20 0xFFFFFFFFFFFFFFFFFFFFFFFFFFFFFFFFFFFFFFFF AND PUSH20 0xFFFFFFFFFFFFFFFFFFFFFFFFFFFFFFFFFFFFFFFF AND PUSH20 0xFFFFFFFFFFFFFFFFFFFFFFFFFFFFFFFFFFFFFFFF AND DUP2 MSTORE PUSH1 0x20 ADD SWAP1 DUP2 MSTORE PUSH1 0x20 ADD PUSH1 0x0 KECCAK256 PUSH1 0x40 MLOAD DUP1 PUSH2 0x140 ADD PUSH1 0x40 MSTORE SWAP1 DUP2 PUSH1 0x0 DUP3 ADD DUP1 SLOAD PUSH2 0xA9B SWAP1 PUSH2 0x3344 JUMP JUMPDEST DUP1 PUSH1 0x1F ADD PUSH1 0x20 DUP1 SWAP2 DIV MUL PUSH1 0x20 ADD PUSH1 0x40 MLOAD SWAP1 DUP2 ADD PUSH1 0x40 MSTORE DUP1 SWAP3 SWAP2 SWAP1 DUP2 DUP2 MSTORE PUSH1 0x20 ADD DUP3 DUP1 SLOAD PUSH2 0xAC7 SWAP1 PUSH2 0x3344 JUMP JUMPDEST DUP1 ISZERO PUSH2 0xB14 JUMPI DUP1 PUSH1 0x1F LT PUSH2 0xAE9 JUMPI PUSH2 0x100 DUP1 DUP4 SLOAD DIV MUL DUP4 MSTORE SWAP2 PUSH1 0x20 ADD SWAP2 PUSH2 0xB14 JUMP JUMPDEST DUP3 ADD SWAP2 SWAP1 PUSH1 0x0 MSTORE PUSH1 0x20 PUSH1 0x0 KECCAK256 SWAP1 JUMPDEST DUP2 SLOAD DUP2 MSTORE SWAP1 PUSH1 0x1 ADD SWAP1 PUSH1 0x20 ADD DUP1 DUP4 GT PUSH2 0xAF7 JUMPI DUP3 SWAP1 SUB PUSH1 0x1F AND DUP3 ADD SWAP2 JUMPDEST POP POP POP POP POP DUP2 MSTORE PUSH1 0x20 ADD PUSH1 0x1 DUP3 ADD DUP1 SLOAD PUSH2 0xB2D SWAP1 PUSH2 0x3344 JUMP JUMPDEST DUP1 PUSH1 0x1F ADD PUSH1 0x20 DUP1 SWAP2 DIV MUL PUSH1 0x20 ADD PUSH1 0x40 MLOAD SWAP1 DUP2 ADD PUSH1 0x40 MSTORE DUP1 SWAP3 SWAP2 SWAP1 DUP2 DUP2 MSTORE PUSH1 0x20 ADD DUP3 DUP1 SLOAD PUSH2 0xB59 SWAP1 PUSH2 0x3344 JUMP JUMPDEST DUP1 ISZERO PUSH2 0xBA6 JUMPI DUP1 PUSH1 0x1F LT PUSH2 0xB7B JUMPI PUSH2 0x100 DUP1 DUP4 SLOAD DIV MUL DUP4 MSTORE SWAP2 PUSH1 0x20 ADD SWAP2 PUSH2 0xBA6 JUMP JUMPDEST DUP3 ADD SWAP2 SWAP1 PUSH1 0x0 MSTORE PUSH1 0x20 PUSH1 0x0 KECCAK256 SWAP1 JUMPDEST DUP2 SLOAD DUP2 MSTORE SWAP1 PUSH1 0x1 ADD SWAP1 PUSH1 0x20 ADD DUP1 DUP4 GT PUSH2 0xB89 JUMPI DUP3 SWAP1 SUB PUSH1 0x1F AND DUP3 ADD SWAP2 JUMPDEST POP POP POP POP POP DUP2 MSTORE PUSH1 0x20 ADD PUSH1 0x2 DUP3 ADD DUP1 SLOAD PUSH2 0xBBF SWAP1 PUSH2 0x3344 JUMP JUMPDEST DUP1 PUSH1 0x1F ADD PUSH1 0x20 DUP1 SWAP2 DIV MUL PUSH1 0x20 ADD PUSH1 0x40 MLOAD SWAP1 DUP2 ADD PUSH1 0x40 MSTORE DUP1 SWAP3 SWAP2 SWAP1 DUP2 DUP2 MSTORE PUSH1 0x20 ADD DUP3 DUP1 SLOAD PUSH2 0xBEB SWAP1 PUSH2 0x3344 JUMP JUMPDEST DUP1 ISZERO PUSH2 0xC38 JUMPI DUP1 PUSH1 0x1F LT PUSH2 0xC0D JUMPI PUSH2 0x100 DUP1 DUP4 SLOAD DIV MUL DUP4 MSTORE SWAP2 PUSH1 0x20 ADD SWAP2 PUSH2 0xC38 JUMP JUMPDEST DUP3 ADD SWAP2 SWAP1 PUSH1 0x0 MSTORE PUSH1 0x20 PUSH1 0x0 KECCAK256 SWAP1 JUMPDEST DUP2 SLOAD DUP2 MSTORE SWAP1 PUSH1 0x1 ADD SWAP1 PUSH1 0x20 ADD DUP1 DUP4 GT PUSH2 0xC1B JUMPI DUP3 SWAP1 SUB PUSH1 0x1F AND DUP3 ADD SWAP2 JUMPDEST POP POP POP POP POP DUP2 MSTORE PUSH1 0x20 ADD PUSH1 0x3 DUP3 ADD SLOAD DUP2 MSTORE PUSH1 0x20 ADD PUSH1 0x4 DUP3 ADD SLOAD DUP2 MSTORE PUSH1 0x20 ADD PUSH1 0x5 DUP3 ADD SLOAD DUP2 MSTORE PUSH1 0x20 ADD PUSH1 0x6 DUP3 ADD SLOAD DUP2 MSTORE PUSH1 0x20 ADD PUSH1 0x7 DUP3 ADD SLOAD DUP2 MSTORE PUSH1 0x20 ADD PUSH1 0x8 DUP3 ADD SLOAD DUP2 MSTORE PUSH1 0x20 ADD PUSH1 0x9 DUP3 ADD SLOAD DUP2 MSTORE POP POP DUP4 DUP4 DUP2 MLOAD DUP2 LT PUSH2 0xC9A JUMPI PUSH2 0xC99 PUSH2 0x342F JUMP JUMPDEST JUMPDEST PUSH1 0x20 MUL PUSH1 0x20 ADD ADD DUP2 SWAP1 MSTORE POP POP DUP1 PUSH2 0xCB0 SWAP1 PUSH2 0x34E0 JUMP JUMPDEST SWAP1 POP PUSH2 0x8F3 JUMP JUMPDEST POP PUSH1 0x7 PUSH1 0x0 DUP5 PUSH20 0xFFFFFFFFFFFFFFFFFFFFFFFFFFFFFFFFFFFFFFFF AND PUSH20 0xFFFFFFFFFFFFFFFFFFFFFFFFFFFFFFFFFFFFFFFF AND DUP2 MSTORE PUSH1 0x20 ADD SWAP1 DUP2 MSTORE PUSH1 0x20 ADD PUSH1 0x0 KECCAK256 DUP2 DUP2 DUP1 SLOAD DUP1 PUSH1 0x20 MUL PUSH1 0x20 ADD PUSH1 0x40 MLOAD SWAP1 DUP2 ADD PUSH1 0x40 MSTORE DUP1 SWAP3 SWAP2 SWAP1 DUP2 DUP2 MSTORE PUSH1 0x20 ADD PUSH1 0x0 SWAP1 JUMPDEST DUP3 DUP3 LT ISZERO PUSH2 0xDC5 JUMPI DUP4 DUP3 SWAP1 PUSH1 0x0 MSTORE PUSH1 0x20 PUSH1 0x0 KECCAK256 ADD DUP1 SLOAD PUSH2 0xD38 SWAP1 PUSH2 0x3344 JUMP JUMPDEST DUP1 PUSH1 0x1F ADD PUSH1 0x20 DUP1 SWAP2 DIV MUL PUSH1 0x20 ADD PUSH1 0x40 MLOAD SWAP1 DUP2 ADD PUSH1 0x40 MSTORE DUP1 SWAP3 SWAP2 SWAP1 DUP2 DUP2 MSTORE PUSH1 0x20 ADD DUP3 DUP1 SLOAD PUSH2 0xD64 SWAP1 PUSH2 0x3344 JUMP JUMPDEST DUP1 ISZERO PUSH2 0xDB1 JUMPI DUP1 PUSH1 0x1F LT PUSH2 0xD86 JUMPI PUSH2 0x100 DUP1 DUP4 SLOAD DIV MUL DUP4 MSTORE SWAP2 PUSH1 0x20 ADD SWAP2 PUSH2 0xDB1 JUMP JUMPDEST DUP3 ADD SWAP2 SWAP1 PUSH1 0x0 MSTORE PUSH1 0x20 PUSH1 0x0 KECCAK256 SWAP1 JUMPDEST DUP2 SLOAD DUP2 MSTORE SWAP1 PUSH1 0x1 ADD SWAP1 PUSH1 0x20 ADD DUP1 DUP4 GT PUSH2 0xD94 JUMPI DUP3 SWAP1 SUB PUSH1 0x1F AND DUP3 ADD SWAP2 JUMPDEST POP POP POP POP POP DUP2 MSTORE PUSH1 0x20 ADD SWAP1 PUSH1 0x1 ADD SWAP1 PUSH2 0xD19 JUMP JUMPDEST POP POP POP POP SWAP2 POP SWAP5 POP SWAP5 POP POP POP POP SWAP3 POP SWAP3 SWAP1 POP JUMP JUMPDEST PUSH1 0x8 PUSH1 0x20 MSTORE DUP3 PUSH1 0x0 MSTORE PUSH1 0x40 PUSH1 0x0 KECCAK256 DUP3 DUP1 MLOAD PUSH1 0x20 DUP2 ADD DUP3 ADD DUP1 MLOAD DUP5 DUP3 MSTORE PUSH1 0x20 DUP4 ADD PUSH1 0x20 DUP6 ADD KECCAK256 DUP2 DUP4 MSTORE DUP1 SWAP6 POP POP POP POP POP POP PUSH1 0x20 MSTORE DUP1 PUSH1 0x0 MSTORE PUSH1 0x40 PUSH1 0x0 KECCAK256 PUSH1 0x0 SWAP3 POP SWAP3 POP POP POP DUP1 PUSH1 0x0 ADD DUP1 SLOAD PUSH2 0xE2C SWAP1 PUSH2 0x3344 JUMP JUMPDEST DUP1 PUSH1 0x1F ADD PUSH1 0x20 DUP1 SWAP2 DIV MUL PUSH1 0x20 ADD PUSH1 0x40 MLOAD SWAP1 DUP2 ADD PUSH1 0x40 MSTORE DUP1 SWAP3 SWAP2 SWAP1 DUP2 DUP2 MSTORE PUSH1 0x20 ADD DUP3 DUP1 SLOAD PUSH2 0xE58 SWAP1 PUSH2 0x3344 JUMP JUMPDEST DUP1 ISZERO PUSH2 0xEA5 JUMPI DUP1 PUSH1 0x1F LT PUSH2 0xE7A JUMPI PUSH2 0x100 DUP1 DUP4 SLOAD DIV MUL DUP4 MSTORE SWAP2 PUSH1 0x20 ADD SWAP2 PUSH2 0xEA5 JUMP JUMPDEST DUP3 ADD SWAP2 SWAP1 PUSH1 0x0 MSTORE PUSH1 0x20 PUSH1 0x0 KECCAK256 SWAP1 JUMPDEST DUP2 SLOAD DUP2 MSTORE SWAP1 PUSH1 0x1 ADD SWAP1 PUSH1 0x20 ADD DUP1 DUP4 GT PUSH2 0xE88 JUMPI DUP3 SWAP1 SUB PUSH1 0x1F AND DUP3 ADD SWAP2 JUMPDEST POP POP POP POP POP SWAP1 DUP1 PUSH1 0x1 ADD DUP1 SLOAD PUSH2 0xEBA SWAP1 PUSH2 0x3344 JUMP JUMPDEST DUP1 PUSH1 0x1F ADD PUSH1 0x20 DUP1 SWAP2 DIV MUL PUSH1 0x20 ADD PUSH1 0x40 MLOAD SWAP1 DUP2 ADD PUSH1 0x40 MSTORE DUP1 SWAP3 SWAP2 SWAP1 DUP2 DUP2 MSTORE PUSH1 0x20 ADD DUP3 DUP1 SLOAD PUSH2 0xEE6 SWAP1 PUSH2 0x3344 JUMP JUMPDEST DUP1 ISZERO PUSH2 0xF33 JUMPI DUP1 PUSH1 0x1F LT PUSH2 0xF08 JUMPI PUSH2 0x100 DUP1 DUP4 SLOAD DIV MUL DUP4 MSTORE SWAP2 PUSH1 0x20 ADD SWAP2 PUSH2 0xF33 JUMP JUMPDEST DUP3 ADD SWAP2 SWAP1 PUSH1 0x0 MSTORE PUSH1 0x20 PUSH1 0x0 KECCAK256 SWAP1 JUMPDEST DUP2 SLOAD DUP2 MSTORE SWAP1 PUSH1 0x1 ADD SWAP1 PUSH1 0x20 ADD DUP1 DUP4 GT PUSH2 0xF16 JUMPI DUP3 SWAP1 SUB PUSH1 0x1F AND DUP3 ADD SWAP2 JUMPDEST POP POP POP POP POP SWAP1 DUP1 PUSH1 0x2 ADD DUP1 SLOAD PUSH2 0xF48 SWAP1 PUSH2 0x3344 JUMP JUMPDEST DUP1 PUSH1 0x1F ADD PUSH1 0x20 DUP1 SWAP2 DIV MUL PUSH1 0x20 ADD PUSH1 0x40 MLOAD SWAP1 DUP2 ADD PUSH1 0x40 MSTORE DUP1 SWAP3 SWAP2 SWAP1 DUP2 DUP2 MSTORE PUSH1 0x20 ADD DUP3 DUP1 SLOAD PUSH2 0xF74 SWAP1 PUSH2 0x3344 JUMP JUMPDEST DUP1 ISZERO PUSH2 0xFC1 JUMPI DUP1 PUSH1 0x1F LT PUSH2 0xF96 JUMPI PUSH2 0x100 DUP1 DUP4 SLOAD DIV MUL DUP4 MSTORE SWAP2 PUSH1 0x20 ADD SWAP2 PUSH2 0xFC1 JUMP JUMPDEST DUP3 ADD SWAP2 SWAP1 PUSH1 0x0 MSTORE PUSH1 0x20 PUSH1 0x0 KECCAK256 SWAP1 JUMPDEST DUP2 SLOAD DUP2 MSTORE SWAP1 PUSH1 0x1 ADD SWAP1 PUSH1 0x20 ADD DUP1 DUP4 GT PUSH2 0xFA4 JUMPI DUP3 SWAP1 SUB PUSH1 0x1F AND DUP3 ADD SWAP2 JUMPDEST POP POP POP POP POP SWAP1 DUP1 PUSH1 0x3 ADD SLOAD SWAP1 DUP1 PUSH1 0x4 ADD SLOAD SWAP1 DUP1 PUSH1 0x5 ADD SLOAD SWAP1 DUP1 PUSH1 0x6 ADD SLOAD SWAP1 DUP1 PUSH1 0x7 ADD SLOAD SWAP1 DUP1 PUSH1 0x8 ADD SLOAD SWAP1 DUP1 PUSH1 0x9 ADD SLOAD SWAP1 POP DUP11 JUMP JUMPDEST PUSH1 0x60 PUSH1 0x6 DUP1 SLOAD DUP1 PUSH1 0x20 MUL PUSH1 0x20 ADD PUSH1 0x40 MLOAD SWAP1 DUP2 ADD PUSH1 0x40 MSTORE DUP1 SWAP3 SWAP2 SWAP1 DUP2 DUP2 MSTORE PUSH1 0x20 ADD PUSH1 0x0 SWAP1 JUMPDEST DUP3 DUP3 LT ISZERO PUSH2 0x122F JUMPI DUP4 DUP3 SWAP1 PUSH1 0x0 MSTORE PUSH1 0x20 PUSH1 0x0 KECCAK256 SWAP1 PUSH1 0x6 MUL ADD PUSH1 0x40 MLOAD DUP1 PUSH1 0xC0 ADD PUSH1 0x40 MSTORE SWAP1 DUP2 PUSH1 0x0 DUP3 ADD PUSH1 0x0 SWAP1 SLOAD SWAP1 PUSH2 0x100 EXP SWAP1 DIV PUSH20 0xFFFFFFFFFFFFFFFFFFFFFFFFFFFFFFFFFFFFFFFF AND PUSH20 0xFFFFFFFFFFFFFFFFFFFFFFFFFFFFFFFFFFFFFFFF AND PUSH20 0xFFFFFFFFFFFFFFFFFFFFFFFFFFFFFFFFFFFFFFFF AND DUP2 MSTORE PUSH1 0x20 ADD PUSH1 0x1 DUP3 ADD PUSH1 0x0 SWAP1 SLOAD SWAP1 PUSH2 0x100 EXP SWAP1 DIV PUSH20 0xFFFFFFFFFFFFFFFFFFFFFFFFFFFFFFFFFFFFFFFF AND PUSH20 0xFFFFFFFFFFFFFFFFFFFFFFFFFFFFFFFFFFFFFFFF AND PUSH20 0xFFFFFFFFFFFFFFFFFFFFFFFFFFFFFFFFFFFFFFFF AND DUP2 MSTORE PUSH1 0x20 ADD PUSH1 0x2 DUP3 ADD DUP1 SLOAD PUSH2 0x10F8 SWAP1 PUSH2 0x3344 JUMP JUMPDEST DUP1 PUSH1 0x1F ADD PUSH1 0x20 DUP1 SWAP2 DIV MUL PUSH1 0x20 ADD PUSH1 0x40 MLOAD SWAP1 DUP2 ADD PUSH1 0x40 MSTORE DUP1 SWAP3 SWAP2 SWAP1 DUP2 DUP2 MSTORE PUSH1 0x20 ADD DUP3 DUP1 SLOAD PUSH2 0x1124 SWAP1 PUSH2 0x3344 JUMP JUMPDEST DUP1 ISZERO PUSH2 0x1171 JUMPI DUP1 PUSH1 0x1F LT PUSH2 0x1146 JUMPI PUSH2 0x100 DUP1 DUP4 SLOAD DIV MUL DUP4 MSTORE SWAP2 PUSH1 0x20 ADD SWAP2 PUSH2 0x1171 JUMP JUMPDEST DUP3 ADD SWAP2 SWAP1 PUSH1 0x0 MSTORE PUSH1 0x20 PUSH1 0x0 KECCAK256 SWAP1 JUMPDEST DUP2 SLOAD DUP2 MSTORE SWAP1 PUSH1 0x1 ADD SWAP1 PUSH1 0x20 ADD DUP1 DUP4 GT PUSH2 0x1154 JUMPI DUP3 SWAP1 SUB PUSH1 0x1F AND DUP3 ADD SWAP2 JUMPDEST POP POP POP POP POP DUP2 MSTORE PUSH1 0x20 ADD PUSH1 0x3 DUP3 ADD DUP1 SLOAD PUSH2 0x118A SWAP1 PUSH2 0x3344 JUMP JUMPDEST DUP1 PUSH1 0x1F ADD PUSH1 0x20 DUP1 SWAP2 DIV MUL PUSH1 0x20 ADD PUSH1 0x40 MLOAD SWAP1 DUP2 ADD PUSH1 0x40 MSTORE DUP1 SWAP3 SWAP2 SWAP1 DUP2 DUP2 MSTORE PUSH1 0x20 ADD DUP3 DUP1 SLOAD PUSH2 0x11B6 SWAP1 PUSH2 0x3344 JUMP JUMPDEST DUP1 ISZERO PUSH2 0x1203 JUMPI DUP1 PUSH1 0x1F LT PUSH2 0x11D8 JUMPI PUSH2 0x100 DUP1 DUP4 SLOAD DIV MUL DUP4 MSTORE SWAP2 PUSH1 0x20 ADD SWAP2 PUSH2 0x1203 JUMP JUMPDEST DUP3 ADD SWAP2 SWAP1 PUSH1 0x0 MSTORE PUSH1 0x20 PUSH1 0x0 KECCAK256 SWAP1 JUMPDEST DUP2 SLOAD DUP2 MSTORE SWAP1 PUSH1 0x1 ADD SWAP1 PUSH1 0x20 ADD DUP1 DUP4 GT PUSH2 0x11E6 JUMPI DUP3 SWAP1 SUB PUSH1 0x1F AND DUP3 ADD SWAP2 JUMPDEST POP POP POP POP POP DUP2 MSTORE PUSH1 0x20 ADD PUSH1 0x4 DUP3 ADD SLOAD DUP2 MSTORE PUSH1 0x20 ADD PUSH1 0x5 DUP3 ADD SLOAD DUP2 MSTORE POP POP DUP2 MSTORE PUSH1 0x20 ADD SWAP1 PUSH1 0x1 ADD SWAP1 PUSH2 0x1019 JUMP JUMPDEST POP POP POP POP SWAP1 POP SWAP1 JUMP JUMPDEST PUSH1 0xA PUSH1 0x20 MSTORE DUP1 PUSH1 0x0 MSTORE PUSH1 0x40 PUSH1 0x0 KECCAK256 PUSH1 0x0 SWAP2 POP SWAP1 POP SLOAD DUP2 JUMP JUMPDEST PUSH1 0x0 PUSH1 0x4 PUSH1 0x0 DUP5 PUSH20 0xFFFFFFFFFFFFFFFFFFFFFFFFFFFFFFFFFFFFFFFF AND PUSH20 0xFFFFFFFFFFFFFFFFFFFFFFFFFFFFFFFFFFFFFFFF AND DUP2 MSTORE PUSH1 0x20 ADD SWAP1 DUP2 MSTORE PUSH1 0x20 ADD PUSH1 0x0 KECCAK256 DUP1 SLOAD PUSH2 0x129C SWAP1 PUSH2 0x3344 JUMP JUMPDEST SWAP1 POP EQ PUSH2 0x12A8 JUMPI PUSH1 0x0 DUP1 REVERT JUMPDEST DUP1 PUSH1 0x4 PUSH1 0x0 DUP5 PUSH20 0xFFFFFFFFFFFFFFFFFFFFFFFFFFFFFFFFFFFFFFFF AND PUSH20 0xFFFFFFFFFFFFFFFFFFFFFFFFFFFFFFFFFFFFFFFF AND DUP2 MSTORE PUSH1 0x20 ADD SWAP1 DUP2 MSTORE PUSH1 0x20 ADD PUSH1 0x0 KECCAK256 SWAP1 DUP2 PUSH2 0x12F4 SWAP2 SWAP1 PUSH2 0x36D4 JUMP JUMPDEST POP POP POP JUMP JUMPDEST PUSH1 0x2 PUSH1 0x20 MSTORE DUP1 PUSH1 0x0 MSTORE PUSH1 0x40 PUSH1 0x0 KECCAK256 PUSH1 0x0 SWAP2 POP SWAP1 POP DUP1 SLOAD PUSH2 0x1318 SWAP1 PUSH2 0x3344 JUMP JUMPDEST DUP1 PUSH1 0x1F ADD PUSH1 0x20 DUP1 SWAP2 DIV MUL PUSH1 0x20 ADD PUSH1 0x40 MLOAD SWAP1 DUP2 ADD PUSH1 0x40 MSTORE DUP1 SWAP3 SWAP2 SWAP1 DUP2 DUP2 MSTORE PUSH1 0x20 ADD DUP3 DUP1 SLOAD PUSH2 0x1344 SWAP1 PUSH2 0x3344 JUMP JUMPDEST DUP1 ISZERO PUSH2 0x1391 JUMPI DUP1 PUSH1 0x1F LT PUSH2 0x1366 JUMPI PUSH2 0x100 DUP1 DUP4 SLOAD DIV MUL DUP4 MSTORE SWAP2 PUSH1 0x20 ADD SWAP2 PUSH2 0x1391 JUMP JUMPDEST DUP3 ADD SWAP2 SWAP1 PUSH1 0x0 MSTORE PUSH1 0x20 PUSH1 0x0 KECCAK256 SWAP1 JUMPDEST DUP2 SLOAD DUP2 MSTORE SWAP1 PUSH1 0x1 ADD SWAP1 PUSH1 0x20 ADD DUP1 DUP4 GT PUSH2 0x1374 JUMPI DUP3 SWAP1 SUB PUSH1 0x1F AND DUP3 ADD SWAP2 JUMPDEST POP POP POP POP POP DUP2 JUMP JUMPDEST PUSH1 0x7 PUSH1 0x20 MSTORE DUP2 PUSH1 0x0 MSTORE PUSH1 0x40 PUSH1 0x0 KECCAK256 DUP2 DUP2 SLOAD DUP2 LT PUSH2 0x13B5 JUMPI PUSH1 0x0 DUP1 REVERT JUMPDEST SWAP1 PUSH1 0x0 MSTORE PUSH1 0x20 PUSH1 0x0 KECCAK256 ADD PUSH1 0x0 SWAP2 POP SWAP2 POP POP DUP1 SLOAD PUSH2 0x13D1 SWAP1 PUSH2 0x3344 JUMP JUMPDEST DUP1 PUSH1 0x1F ADD PUSH1 0x20 DUP1 SWAP2 DIV MUL PUSH1 0x20 ADD PUSH1 0x40 MLOAD SWAP1 DUP2 ADD PUSH1 0x40 MSTORE DUP1 SWAP3 SWAP2 SWAP1 DUP2 DUP2 MSTORE PUSH1 0x20 ADD DUP3 DUP1 SLOAD PUSH2 0x13FD SWAP1 PUSH2 0x3344 JUMP JUMPDEST DUP1 ISZERO PUSH2 0x144A JUMPI DUP1 PUSH1 0x1F LT PUSH2 0x141F JUMPI PUSH2 0x100 DUP1 DUP4 SLOAD DIV MUL DUP4 MSTORE SWAP2 PUSH1 0x20 ADD SWAP2 PUSH2 0x144A JUMP JUMPDEST DUP3 ADD SWAP2 SWAP1 PUSH1 0x0 MSTORE PUSH1 0x20 PUSH1 0x0 KECCAK256 SWAP1 JUMPDEST DUP2 SLOAD DUP2 MSTORE SWAP1 PUSH1 0x1 ADD SWAP1 PUSH1 0x20 ADD DUP1 DUP4 GT PUSH2 0x142D JUMPI DUP3 SWAP1 SUB PUSH1 0x1F AND DUP3 ADD SWAP2 JUMPDEST POP POP POP POP POP DUP2 JUMP JUMPDEST PUSH1 0x1 DUP2 DUP2 SLOAD DUP2 LT PUSH2 0x1462 JUMPI PUSH1 0x0 DUP1 REVERT JUMPDEST SWAP1 PUSH1 0x0 MSTORE PUSH1 0x20 PUSH1 0x0 KECCAK256 ADD PUSH1 0x0 SWAP2 POP SLOAD SWAP1 PUSH2 0x100 EXP SWAP1 DIV PUSH20 0xFFFFFFFFFFFFFFFFFFFFFFFFFFFFFFFFFFFFFFFF AND DUP2 JUMP JUMPDEST PUSH1 0x0 DUP3 PUSH20 0xFFFFFFFFFFFFFFFFFFFFFFFFFFFFFFFFFFFFFFFF AND DUP3 PUSH1 0x40 MLOAD PUSH2 0x14B7 SWAP1 PUSH2 0x37CC JUMP JUMPDEST PUSH1 0x0 PUSH1 0x40 MLOAD DUP1 DUP4 SUB DUP2 DUP6 DUP8 GAS CALL SWAP3 POP POP POP RETURNDATASIZE DUP1 PUSH1 0x0 DUP2 EQ PUSH2 0x14F4 JUMPI PUSH1 0x40 MLOAD SWAP2 POP PUSH1 0x1F NOT PUSH1 0x3F RETURNDATASIZE ADD AND DUP3 ADD PUSH1 0x40 MSTORE RETURNDATASIZE DUP3 MSTORE RETURNDATASIZE PUSH1 0x0 PUSH1 0x20 DUP5 ADD RETURNDATACOPY PUSH2 0x14F9 JUMP JUMPDEST PUSH1 0x60 SWAP2 POP JUMPDEST POP POP SWAP1 POP DUP1 PUSH2 0x153D JUMPI PUSH1 0x40 MLOAD PUSH32 0x8C379A000000000000000000000000000000000000000000000000000000000 DUP2 MSTORE PUSH1 0x4 ADD PUSH2 0x1534 SWAP1 PUSH2 0x382D JUMP JUMPDEST PUSH1 0x40 MLOAD DUP1 SWAP2 SUB SWAP1 REVERT JUMPDEST POP POP POP JUMP JUMPDEST PUSH1 0x0 DUP1 PUSH1 0x9 PUSH1 0x0 PUSH1 0x3 DUP6 PUSH1 0x40 MLOAD PUSH2 0x1559 SWAP2 SWAP1 PUSH2 0x349A JUMP JUMPDEST SWAP1 DUP2 MSTORE PUSH1 0x20 ADD PUSH1 0x40 MLOAD DUP1 SWAP2 SUB SWAP1 KECCAK256 PUSH1 0x0 SWAP1 SLOAD SWAP1 PUSH2 0x100 EXP SWAP1 DIV PUSH20 0xFFFFFFFFFFFFFFFFFFFFFFFFFFFFFFFFFFFFFFFF AND PUSH20 0xFFFFFFFFFFFFFFFFFFFFFFFFFFFFFFFFFFFFFFFF AND PUSH20 0xFFFFFFFFFFFFFFFFFFFFFFFFFFFFFFFFFFFFFFFF AND DUP2 MSTORE PUSH1 0x20 ADD SWAP1 DUP2 MSTORE PUSH1 0x20 ADD PUSH1 0x0 KECCAK256 DUP5 PUSH1 0x40 MLOAD PUSH2 0x15D0 SWAP2 SWAP1 PUSH2 0x349A JUMP JUMPDEST SWAP1 DUP2 MSTORE PUSH1 0x20 ADD PUSH1 0x40 MLOAD DUP1 SWAP2 SUB SWAP1 KECCAK256 SLOAD EQ ISZERO SWAP1 POP SWAP3 SWAP2 POP POP JUMP JUMPDEST PUSH1 0x0 CALLER SWAP1 POP PUSH1 0x0 PUSH1 0x2 PUSH1 0x0 DUP4 PUSH20 0xFFFFFFFFFFFFFFFFFFFFFFFFFFFFFFFFFFFFFFFF AND PUSH20 0xFFFFFFFFFFFFFFFFFFFFFFFFFFFFFFFFFFFFFFFF AND DUP2 MSTORE PUSH1 0x20 ADD SWAP1 DUP2 MSTORE PUSH1 0x20 ADD PUSH1 0x0 KECCAK256 DUP1 SLOAD PUSH2 0x163A SWAP1 PUSH2 0x3344 JUMP JUMPDEST SWAP1 POP SUB PUSH2 0x1646 JUMPI PUSH1 0x0 DUP1 REVERT JUMPDEST PUSH1 0x0 PUSH20 0xFFFFFFFFFFFFFFFFFFFFFFFFFFFFFFFFFFFFFFFF AND PUSH1 0x3 DUP12 PUSH1 0x40 MLOAD PUSH2 0x166E SWAP2 SWAP1 PUSH2 0x349A JUMP JUMPDEST SWAP1 DUP2 MSTORE PUSH1 0x20 ADD PUSH1 0x40 MLOAD DUP1 SWAP2 SUB SWAP1 KECCAK256 PUSH1 0x0 SWAP1 SLOAD SWAP1 PUSH2 0x100 EXP SWAP1 DIV PUSH20 0xFFFFFFFFFFFFFFFFFFFFFFFFFFFFFFFFFFFFFFFF AND PUSH20 0xFFFFFFFFFFFFFFFFFFFFFFFFFFFFFFFFFFFFFFFF AND SUB PUSH2 0x16BD JUMPI PUSH1 0x0 DUP1 REVERT JUMPDEST PUSH1 0x1 PUSH1 0xA PUSH1 0x0 PUSH1 0x3 DUP14 PUSH1 0x40 MLOAD PUSH2 0x16D3 SWAP2 SWAP1 PUSH2 0x349A JUMP JUMPDEST SWAP1 DUP2 MSTORE PUSH1 0x20 ADD PUSH1 0x40 MLOAD DUP1 SWAP2 SUB SWAP1 KECCAK256 PUSH1 0x0 SWAP1 SLOAD SWAP1 PUSH2 0x100 EXP SWAP1 DIV PUSH20 0xFFFFFFFFFFFFFFFFFFFFFFFFFFFFFFFFFFFFFFFF AND PUSH20 0xFFFFFFFFFFFFFFFFFFFFFFFFFFFFFFFFFFFFFFFF AND PUSH20 0xFFFFFFFFFFFFFFFFFFFFFFFFFFFFFFFFFFFFFFFF AND DUP2 MSTORE PUSH1 0x20 ADD SWAP1 DUP2 MSTORE PUSH1 0x20 ADD PUSH1 0x0 KECCAK256 SLOAD LT ISZERO PUSH2 0x1748 JUMPI PUSH1 0x0 DUP1 REVERT JUMPDEST PUSH1 0x0 PUSH1 0x8 PUSH1 0x0 PUSH1 0x3 DUP14 PUSH1 0x40 MLOAD PUSH2 0x175E SWAP2 SWAP1 PUSH2 0x349A JUMP JUMPDEST SWAP1 DUP2 MSTORE PUSH1 0x20 ADD PUSH1 0x40 MLOAD DUP1 SWAP2 SUB SWAP1 KECCAK256 PUSH1 0x0 SWAP1 SLOAD SWAP1 PUSH2 0x100 EXP SWAP1 DIV PUSH20 0xFFFFFFFFFFFFFFFFFFFFFFFFFFFFFFFFFFFFFFFF AND PUSH20 0xFFFFFFFFFFFFFFFFFFFFFFFFFFFFFFFFFFFFFFFF AND PUSH20 0xFFFFFFFFFFFFFFFFFFFFFFFFFFFFFFFFFFFFFFFF AND DUP2 MSTORE PUSH1 0x20 ADD SWAP1 DUP2 MSTORE PUSH1 0x20 ADD PUSH1 0x0 KECCAK256 SWAP1 POP PUSH2 0x17D3 DUP14 DUP13 PUSH2 0x1542 JUMP JUMPDEST PUSH2 0x1937 JUMPI PUSH1 0x7 PUSH1 0x0 PUSH1 0x3 DUP14 PUSH1 0x40 MLOAD PUSH2 0x17EB SWAP2 SWAP1 PUSH2 0x349A JUMP JUMPDEST SWAP1 DUP2 MSTORE PUSH1 0x20 ADD PUSH1 0x40 MLOAD DUP1 SWAP2 SUB SWAP1 KECCAK256 PUSH1 0x0 SWAP1 SLOAD SWAP1 PUSH2 0x100 EXP SWAP1 DIV PUSH20 0xFFFFFFFFFFFFFFFFFFFFFFFFFFFFFFFFFFFFFFFF AND PUSH20 0xFFFFFFFFFFFFFFFFFFFFFFFFFFFFFFFFFFFFFFFF AND PUSH20 0xFFFFFFFFFFFFFFFFFFFFFFFFFFFFFFFFFFFFFFFF AND DUP2 MSTORE PUSH1 0x20 ADD SWAP1 DUP2 MSTORE PUSH1 0x20 ADD PUSH1 0x0 KECCAK256 DUP14 SWAP1 DUP1 PUSH1 0x1 DUP2 SLOAD ADD DUP1 DUP3 SSTORE DUP1 SWAP2 POP POP PUSH1 0x1 SWAP1 SUB SWAP1 PUSH1 0x0 MSTORE PUSH1 0x20 PUSH1 0x0 KECCAK256 ADD PUSH1 0x0 SWAP1 SWAP2 SWAP1 SWAP2 SWAP1 SWAP2 POP SWAP1 DUP2 PUSH2 0x1886 SWAP2 SWAP1 PUSH2 0x36D4 JUMP JUMPDEST POP PUSH1 0x9 PUSH1 0x0 PUSH1 0x3 DUP14 PUSH1 0x40 MLOAD PUSH2 0x189B SWAP2 SWAP1 PUSH2 0x349A JUMP JUMPDEST SWAP1 DUP2 MSTORE PUSH1 0x20 ADD PUSH1 0x40 MLOAD DUP1 SWAP2 SUB SWAP1 KECCAK256 PUSH1 0x0 SWAP1 SLOAD SWAP1 PUSH2 0x100 EXP SWAP1 DIV PUSH20 0xFFFFFFFFFFFFFFFFFFFFFFFFFFFFFFFFFFFFFFFF AND PUSH20 0xFFFFFFFFFFFFFFFFFFFFFFFFFFFFFFFFFFFFFFFF AND PUSH20 0xFFFFFFFFFFFFFFFFFFFFFFFFFFFFFFFFFFFFFFFF AND DUP2 MSTORE PUSH1 0x20 ADD SWAP1 DUP2 MSTORE PUSH1 0x20 ADD PUSH1 0x0 KECCAK256 DUP14 PUSH1 0x40 MLOAD PUSH2 0x1912 SWAP2 SWAP1 PUSH2 0x349A JUMP JUMPDEST SWAP1 DUP2 MSTORE PUSH1 0x20 ADD PUSH1 0x40 MLOAD DUP1 SWAP2 SUB SWAP1 KECCAK256 PUSH1 0x0 DUP2 SLOAD DUP1 SWAP3 SWAP2 SWAP1 PUSH2 0x1931 SWAP1 PUSH2 0x34E0 JUMP JUMPDEST SWAP2 SWAP1 POP SSTORE POP JUMPDEST PUSH1 0x0 DUP2 DUP15 PUSH1 0x40 MLOAD PUSH2 0x1948 SWAP2 SWAP1 PUSH2 0x349A JUMP JUMPDEST SWAP1 DUP2 MSTORE PUSH1 0x20 ADD PUSH1 0x40 MLOAD DUP1 SWAP2 SUB SWAP1 KECCAK256 SWAP1 POP DUP14 DUP2 PUSH1 0x0 DUP6 PUSH20 0xFFFFFFFFFFFFFFFFFFFFFFFFFFFFFFFFFFFFFFFF AND PUSH20 0xFFFFFFFFFFFFFFFFFFFFFFFFFFFFFFFFFFFFFFFF AND DUP2 MSTORE PUSH1 0x20 ADD SWAP1 DUP2 MSTORE PUSH1 0x20 ADD PUSH1 0x0 KECCAK256 PUSH1 0x0 ADD SWAP1 DUP2 PUSH2 0x19A6 SWAP2 SWAP1 PUSH2 0x36D4 JUMP JUMPDEST POP DUP13 DUP2 PUSH1 0x0 DUP6 PUSH20 0xFFFFFFFFFFFFFFFFFFFFFFFFFFFFFFFFFFFFFFFF AND PUSH20 0xFFFFFFFFFFFFFFFFFFFFFFFFFFFFFFFFFFFFFFFF AND DUP2 MSTORE PUSH1 0x20 ADD SWAP1 DUP2 MSTORE PUSH1 0x20 ADD PUSH1 0x0 KECCAK256 PUSH1 0x1 ADD SWAP1 DUP2 PUSH2 0x19F5 SWAP2 SWAP1 PUSH2 0x36D4 JUMP JUMPDEST POP DUP12 DUP2 PUSH1 0x0 DUP6 PUSH20 0xFFFFFFFFFFFFFFFFFFFFFFFFFFFFFFFFFFFFFFFF AND PUSH20 0xFFFFFFFFFFFFFFFFFFFFFFFFFFFFFFFFFFFFFFFF AND DUP2 MSTORE PUSH1 0x20 ADD SWAP1 DUP2 MSTORE PUSH1 0x20 ADD PUSH1 0x0 KECCAK256 PUSH1 0x2 ADD SWAP1 DUP2 PUSH2 0x1A44 SWAP2 SWAP1 PUSH2 0x36D4 JUMP JUMPDEST POP DUP11 DUP2 PUSH1 0x0 DUP6 PUSH20 0xFFFFFFFFFFFFFFFFFFFFFFFFFFFFFFFFFFFFFFFF AND PUSH20 0xFFFFFFFFFFFFFFFFFFFFFFFFFFFFFFFFFFFFFFFF AND DUP2 MSTORE PUSH1 0x20 ADD SWAP1 DUP2 MSTORE PUSH1 0x20 ADD PUSH1 0x0 KECCAK256 PUSH1 0x7 ADD DUP2 SWAP1 SSTORE POP DUP10 DUP2 PUSH1 0x0 DUP6 PUSH20 0xFFFFFFFFFFFFFFFFFFFFFFFFFFFFFFFFFFFFFFFF AND PUSH20 0xFFFFFFFFFFFFFFFFFFFFFFFFFFFFFFFFFFFFFFFF AND DUP2 MSTORE PUSH1 0x20 ADD SWAP1 DUP2 MSTORE PUSH1 0x20 ADD PUSH1 0x0 KECCAK256 PUSH1 0x8 ADD DUP2 SWAP1 SSTORE POP DUP9 DUP2 PUSH1 0x0 DUP6 PUSH20 0xFFFFFFFFFFFFFFFFFFFFFFFFFFFFFFFFFFFFFFFF AND PUSH20 0xFFFFFFFFFFFFFFFFFFFFFFFFFFFFFFFFFFFFFFFF AND DUP2 MSTORE PUSH1 0x20 ADD SWAP1 DUP2 MSTORE PUSH1 0x20 ADD PUSH1 0x0 KECCAK256 PUSH1 0x9 ADD DUP2 SWAP1 SSTORE POP DUP8 DUP2 PUSH1 0x0 DUP6 PUSH20 0xFFFFFFFFFFFFFFFFFFFFFFFFFFFFFFFFFFFFFFFF AND PUSH20 0xFFFFFFFFFFFFFFFFFFFFFFFFFFFFFFFFFFFFFFFF AND DUP2 MSTORE PUSH1 0x20 ADD SWAP1 DUP2 MSTORE PUSH1 0x20 ADD PUSH1 0x0 KECCAK256 PUSH1 0x3 ADD DUP2 SWAP1 SSTORE POP DUP7 DUP2 PUSH1 0x0 DUP6 PUSH20 0xFFFFFFFFFFFFFFFFFFFFFFFFFFFFFFFFFFFFFFFF AND PUSH20 0xFFFFFFFFFFFFFFFFFFFFFFFFFFFFFFFFFFFFFFFF AND DUP2 MSTORE PUSH1 0x20 ADD SWAP1 DUP2 MSTORE PUSH1 0x20 ADD PUSH1 0x0 KECCAK256 PUSH1 0x6 ADD DUP2 SWAP1 SSTORE POP DUP6 DUP2 PUSH1 0x0 DUP6 PUSH20 0xFFFFFFFFFFFFFFFFFFFFFFFFFFFFFFFFFFFFFFFF AND PUSH20 0xFFFFFFFFFFFFFFFFFFFFFFFFFFFFFFFFFFFFFFFF AND DUP2 MSTORE PUSH1 0x20 ADD SWAP1 DUP2 MSTORE PUSH1 0x20 ADD PUSH1 0x0 KECCAK256 PUSH1 0x4 ADD DUP2 SWAP1 SSTORE POP DUP5 DUP2 PUSH1 0x0 DUP6 PUSH20 0xFFFFFFFFFFFFFFFFFFFFFFFFFFFFFFFFFFFFFFFF AND PUSH20 0xFFFFFFFFFFFFFFFFFFFFFFFFFFFFFFFFFFFFFFFF AND DUP2 MSTORE PUSH1 0x20 ADD SWAP1 DUP2 MSTORE PUSH1 0x20 ADD PUSH1 0x0 KECCAK256 PUSH1 0x5 ADD DUP2 SWAP1 SSTORE POP PUSH1 0x1 PUSH1 0xA PUSH1 0x0 PUSH1 0x3 DUP16 PUSH1 0x40 MLOAD PUSH2 0x1C45 SWAP2 SWAP1 PUSH2 0x349A JUMP JUMPDEST SWAP1 DUP2 MSTORE PUSH1 0x20 ADD PUSH1 0x40 MLOAD DUP1 SWAP2 SUB SWAP1 KECCAK256 PUSH1 0x0 SWAP1 SLOAD SWAP1 PUSH2 0x100 EXP SWAP1 DIV PUSH20 0xFFFFFFFFFFFFFFFFFFFFFFFFFFFFFFFFFFFFFFFF AND PUSH20 0xFFFFFFFFFFFFFFFFFFFFFFFFFFFFFFFFFFFFFFFF AND PUSH20 0xFFFFFFFFFFFFFFFFFFFFFFFFFFFFFFFFFFFFFFFF AND DUP2 MSTORE PUSH1 0x20 ADD SWAP1 DUP2 MSTORE PUSH1 0x20 ADD PUSH1 0x0 KECCAK256 PUSH1 0x0 DUP3 DUP3 SLOAD PUSH2 0x1CBD SWAP2 SWAP1 PUSH2 0x384D JUMP JUMPDEST SWAP3 POP POP DUP2 SWAP1 SSTORE POP PUSH1 0x1 PUSH1 0xA PUSH1 0x0 DUP6 PUSH20 0xFFFFFFFFFFFFFFFFFFFFFFFFFFFFFFFFFFFFFFFF AND PUSH20 0xFFFFFFFFFFFFFFFFFFFFFFFFFFFFFFFFFFFFFFFF AND DUP2 MSTORE PUSH1 0x20 ADD SWAP1 DUP2 MSTORE PUSH1 0x20 ADD PUSH1 0x0 KECCAK256 PUSH1 0x0 DUP3 DUP3 SLOAD PUSH2 0x1D14 SWAP2 SWAP1 PUSH2 0x3881 JUMP JUMPDEST SWAP3 POP POP DUP2 SWAP1 SSTORE POP PUSH2 0x1D26 DUP4 PUSH1 0x1 PUSH2 0x1491 JUMP JUMPDEST PUSH1 0x0 PUSH1 0x40 MLOAD DUP1 PUSH1 0xC0 ADD PUSH1 0x40 MSTORE DUP1 PUSH1 0x3 DUP16 PUSH1 0x40 MLOAD PUSH2 0x1D43 SWAP2 SWAP1 PUSH2 0x349A JUMP JUMPDEST SWAP1 DUP2 MSTORE PUSH1 0x20 ADD PUSH1 0x40 MLOAD DUP1 SWAP2 SUB SWAP1 KECCAK256 PUSH1 0x0 SWAP1 SLOAD SWAP1 PUSH2 0x100 EXP SWAP1 DIV PUSH20 0xFFFFFFFFFFFFFFFFFFFFFFFFFFFFFFFFFFFFFFFF AND PUSH20 0xFFFFFFFFFFFFFFFFFFFFFFFFFFFFFFFFFFFFFFFF AND DUP2 MSTORE PUSH1 0x20 ADD DUP6 PUSH20 0xFFFFFFFFFFFFFFFFFFFFFFFFFFFFFFFFFFFFFFFF AND DUP2 MSTORE PUSH1 0x20 ADD DUP15 DUP2 MSTORE PUSH1 0x20 ADD PUSH1 0x2 PUSH1 0x0 DUP8 PUSH20 0xFFFFFFFFFFFFFFFFFFFFFFFFFFFFFFFFFFFFFFFF AND PUSH20 0xFFFFFFFFFFFFFFFFFFFFFFFFFFFFFFFFFFFFFFFF AND DUP2 MSTORE PUSH1 0x20 ADD SWAP1 DUP2 MSTORE PUSH1 0x20 ADD PUSH1 0x0 KECCAK256 DUP1 SLOAD PUSH2 0x1DF9 SWAP1 PUSH2 0x3344 JUMP JUMPDEST DUP1 PUSH1 0x1F ADD PUSH1 0x20 DUP1 SWAP2 DIV MUL PUSH1 0x20 ADD PUSH1 0x40 MLOAD SWAP1 DUP2 ADD PUSH1 0x40 MSTORE DUP1 SWAP3 SWAP2 SWAP1 DUP2 DUP2 MSTORE PUSH1 0x20 ADD DUP3 DUP1 SLOAD PUSH2 0x1E25 SWAP1 PUSH2 0x3344 JUMP JUMPDEST DUP1 ISZERO PUSH2 0x1E72 JUMPI DUP1 PUSH1 0x1F LT PUSH2 0x1E47 JUMPI PUSH2 0x100 DUP1 DUP4 SLOAD DIV MUL DUP4 MSTORE SWAP2 PUSH1 0x20 ADD SWAP2 PUSH2 0x1E72 JUMP JUMPDEST DUP3 ADD SWAP2 SWAP1 PUSH1 0x0 MSTORE PUSH1 0x20 PUSH1 0x0 KECCAK256 SWAP1 JUMPDEST DUP2 SLOAD DUP2 MSTORE SWAP1 PUSH1 0x1 ADD SWAP1 PUSH1 0x20 ADD DUP1 DUP4 GT PUSH2 0x1E55 JUMPI DUP3 SWAP1 SUB PUSH1 0x1F AND DUP3 ADD SWAP2 JUMPDEST POP POP POP POP POP DUP2 MSTORE PUSH1 0x20 ADD PUSH1 0x1 DUP2 MSTORE PUSH1 0x20 ADD DUP7 DUP2 MSTORE POP SWAP1 POP PUSH1 0x6 DUP2 SWAP1 DUP1 PUSH1 0x1 DUP2 SLOAD ADD DUP1 DUP3 SSTORE DUP1 SWAP2 POP POP PUSH1 0x1 SWAP1 SUB SWAP1 PUSH1 0x0 MSTORE PUSH1 0x20 PUSH1 0x0 KECCAK256 SWAP1 PUSH1 0x6 MUL ADD PUSH1 0x0 SWAP1 SWAP2 SWAP1 SWAP2 SWAP1 SWAP2 POP PUSH1 0x0 DUP3 ADD MLOAD DUP2 PUSH1 0x0 ADD PUSH1 0x0 PUSH2 0x100 EXP DUP2 SLOAD DUP2 PUSH20 0xFFFFFFFFFFFFFFFFFFFFFFFFFFFFFFFFFFFFFFFF MUL NOT AND SWAP1 DUP4 PUSH20 0xFFFFFFFFFFFFFFFFFFFFFFFFFFFFFFFFFFFFFFFF AND MUL OR SWAP1 SSTORE POP PUSH1 0x20 DUP3 ADD MLOAD DUP2 PUSH1 0x1 ADD PUSH1 0x0 PUSH2 0x100 EXP DUP2 SLOAD DUP2 PUSH20 0xFFFFFFFFFFFFFFFFFFFFFFFFFFFFFFFFFFFFFFFF MUL NOT AND SWAP1 DUP4 PUSH20 0xFFFFFFFFFFFFFFFFFFFFFFFFFFFFFFFFFFFFFFFF AND MUL OR SWAP1 SSTORE POP PUSH1 0x40 DUP3 ADD MLOAD DUP2 PUSH1 0x2 ADD SWAP1 DUP2 PUSH2 0x1F58 SWAP2 SWAP1 PUSH2 0x36D4 JUMP JUMPDEST POP PUSH1 0x60 DUP3 ADD MLOAD DUP2 PUSH1 0x3 ADD SWAP1 DUP2 PUSH2 0x1F6E SWAP2 SWAP1 PUSH2 0x36D4 JUMP JUMPDEST POP PUSH1 0x80 DUP3 ADD MLOAD DUP2 PUSH1 0x4 ADD SSTORE PUSH1 0xA0 DUP3 ADD MLOAD DUP2 PUSH1 0x5 ADD SSTORE POP POP POP POP POP POP POP POP POP POP POP POP POP POP POP POP POP JUMP JUMPDEST PUSH1 0x0 SELFBALANCE SWAP1 POP SWAP1 JUMP JUMPDEST PUSH1 0x4 PUSH1 0x20 MSTORE DUP1 PUSH1 0x0 MSTORE PUSH1 0x40 PUSH1 0x0 KECCAK256 PUSH1 0x0 SWAP2 POP SWAP1 POP DUP1 SLOAD PUSH2 0x1FBD SWAP1 PUSH2 0x3344 JUMP JUMPDEST DUP1 PUSH1 0x1F ADD PUSH1 0x20 DUP1 SWAP2 DIV MUL PUSH1 0x20 ADD PUSH1 0x40 MLOAD SWAP1 DUP2 ADD PUSH1 0x40 MSTORE DUP1 SWAP3 SWAP2 SWAP1 DUP2 DUP2 MSTORE PUSH1 0x20 ADD DUP3 DUP1 SLOAD PUSH2 0x1FE9 SWAP1 PUSH2 0x3344 JUMP JUMPDEST DUP1 ISZERO PUSH2 0x2036 JUMPI DUP1 PUSH1 0x1F LT PUSH2 0x200B JUMPI PUSH2 0x100 DUP1 DUP4 SLOAD DIV MUL DUP4 MSTORE SWAP2 PUSH1 0x20 ADD SWAP2 PUSH2 0x2036 JUMP JUMPDEST DUP3 ADD SWAP2 SWAP1 PUSH1 0x0 MSTORE PUSH1 0x20 PUSH1 0x0 KECCAK256 SWAP1 JUMPDEST DUP2 SLOAD DUP2 MSTORE SWAP1 PUSH1 0x1 ADD SWAP1 PUSH1 0x20 ADD DUP1 DUP4 GT PUSH2 0x2019 JUMPI DUP3 SWAP1 SUB PUSH1 0x1F AND DUP3 ADD SWAP2 JUMPDEST POP POP POP POP POP DUP2 JUMP JUMPDEST CALLVALUE PUSH1 0x5 PUSH1 0x0 DUP3 DUP3 SLOAD PUSH2 0x2050 SWAP2 SWAP1 PUSH2 0x3881 JUMP JUMPDEST SWAP3 POP POP DUP2 SWAP1 SSTORE POP JUMP JUMPDEST PUSH1 0x5 SLOAD DUP2 JUMP JUMPDEST PUSH1 0x3 DUP2 DUP1 MLOAD PUSH1 0x20 DUP2 ADD DUP3 ADD DUP1 MLOAD DUP5 DUP3 MSTORE PUSH1 0x20 DUP4 ADD PUSH1 0x20 DUP6 ADD KECCAK256 DUP2 DUP4 MSTORE DUP1 SWAP6 POP POP POP POP POP POP PUSH1 0x0 SWAP2 POP SLOAD SWAP1 PUSH2 0x100 EXP SWAP1 DIV PUSH20 0xFFFFFFFFFFFFFFFFFFFFFFFFFFFFFFFFFFFFFFFF AND DUP2 JUMP JUMPDEST PUSH1 0x0 PUSH1 0x2 PUSH1 0x0 DUP7 PUSH20 0xFFFFFFFFFFFFFFFFFFFFFFFFFFFFFFFFFFFFFFFF AND PUSH20 0xFFFFFFFFFFFFFFFFFFFFFFFFFFFFFFFFFFFFFFFF AND DUP2 MSTORE PUSH1 0x20 ADD SWAP1 DUP2 MSTORE PUSH1 0x20 ADD PUSH1 0x0 KECCAK256 DUP1 SLOAD PUSH2 0x20F4 SWAP1 PUSH2 0x3344 JUMP JUMPDEST SWAP1 POP EQ DUP1 ISZERO PUSH2 0x216D JUMPI POP PUSH1 0x0 PUSH20 0xFFFFFFFFFFFFFFFFFFFFFFFFFFFFFFFFFFFFFFFF AND PUSH1 0x3 DUP5 PUSH1 0x40 MLOAD PUSH2 0x2126 SWAP2 SWAP1 PUSH2 0x349A JUMP JUMPDEST SWAP1 DUP2 MSTORE PUSH1 0x20 ADD PUSH1 0x40 MLOAD DUP1 SWAP2 SUB SWAP1 KECCAK256 PUSH1 0x0 SWAP1 SLOAD SWAP1 PUSH2 0x100 EXP SWAP1 DIV PUSH20 0xFFFFFFFFFFFFFFFFFFFFFFFFFFFFFFFFFFFFFFFF AND PUSH20 0xFFFFFFFFFFFFFFFFFFFFFFFFFFFFFFFFFFFFFFFF AND EQ JUMPDEST ISZERO PUSH2 0x2579 JUMPI PUSH1 0x64 CALLVALUE LT ISZERO PUSH2 0x2180 JUMPI PUSH1 0x0 DUP1 REVERT JUMPDEST PUSH1 0x0 DUP4 SWAP1 DUP1 PUSH1 0x1 DUP2 SLOAD ADD DUP1 DUP3 SSTORE DUP1 SWAP2 POP POP PUSH1 0x1 SWAP1 SUB SWAP1 PUSH1 0x0 MSTORE PUSH1 0x20 PUSH1 0x0 KECCAK256 ADD PUSH1 0x0 SWAP1 SWAP2 SWAP1 SWAP2 SWAP1 SWAP2 POP SWAP1 DUP2 PUSH2 0x21B4 SWAP2 SWAP1 PUSH2 0x36D4 JUMP JUMPDEST POP PUSH1 0x1 DUP5 SWAP1 DUP1 PUSH1 0x1 DUP2 SLOAD ADD DUP1 DUP3 SSTORE DUP1 SWAP2 POP POP PUSH1 0x1 SWAP1 SUB SWAP1 PUSH1 0x0 MSTORE PUSH1 0x20 PUSH1 0x0 KECCAK256 ADD PUSH1 0x0 SWAP1 SWAP2 SWAP1 SWAP2 SWAP1 SWAP2 PUSH2 0x100 EXP DUP2 SLOAD DUP2 PUSH20 0xFFFFFFFFFFFFFFFFFFFFFFFFFFFFFFFFFFFFFFFF MUL NOT AND SWAP1 DUP4 PUSH20 0xFFFFFFFFFFFFFFFFFFFFFFFFFFFFFFFFFFFFFFFF AND MUL OR SWAP1 SSTORE POP DUP4 PUSH1 0x3 DUP5 PUSH1 0x40 MLOAD PUSH2 0x2229 SWAP2 SWAP1 PUSH2 0x349A JUMP JUMPDEST SWAP1 DUP2 MSTORE PUSH1 0x20 ADD PUSH1 0x40 MLOAD DUP1 SWAP2 SUB SWAP1 KECCAK256 PUSH1 0x0 PUSH2 0x100 EXP DUP2 SLOAD DUP2 PUSH20 0xFFFFFFFFFFFFFFFFFFFFFFFFFFFFFFFFFFFFFFFF MUL NOT AND SWAP1 DUP4 PUSH20 0xFFFFFFFFFFFFFFFFFFFFFFFFFFFFFFFFFFFFFFFF AND MUL OR SWAP1 SSTORE POP DUP3 PUSH1 0x2 PUSH1 0x0 DUP7 PUSH20 0xFFFFFFFFFFFFFFFFFFFFFFFFFFFFFFFFFFFFFFFF AND PUSH20 0xFFFFFFFFFFFFFFFFFFFFFFFFFFFFFFFFFFFFFFFF AND DUP2 MSTORE PUSH1 0x20 ADD SWAP1 DUP2 MSTORE PUSH1 0x20 ADD PUSH1 0x0 KECCAK256 SWAP1 DUP2 PUSH2 0x22C1 SWAP2 SWAP1 PUSH2 0x36D4 JUMP JUMPDEST POP CALLVALUE PUSH1 0xA PUSH1 0x0 DUP7 PUSH20 0xFFFFFFFFFFFFFFFFFFFFFFFFFFFFFFFFFFFFFFFF AND PUSH20 0xFFFFFFFFFFFFFFFFFFFFFFFFFFFFFFFFFFFFFFFF AND DUP2 MSTORE PUSH1 0x20 ADD SWAP1 DUP2 MSTORE PUSH1 0x20 ADD PUSH1 0x0 KECCAK256 PUSH1 0x0 DUP3 DUP3 SLOAD PUSH2 0x2311 SWAP2 SWAP1 PUSH2 0x3881 JUMP JUMPDEST SWAP3 POP POP DUP2 SWAP1 SSTORE POP PUSH1 0x0 PUSH1 0x40 MLOAD DUP1 PUSH1 0xC0 ADD PUSH1 0x40 MSTORE DUP1 CALLER PUSH20 0xFFFFFFFFFFFFFFFFFFFFFFFFFFFFFFFFFFFFFFFF AND DUP2 MSTORE PUSH1 0x20 ADD ADDRESS PUSH20 0xFFFFFFFFFFFFFFFFFFFFFFFFFFFFFFFFFFFFFFFF AND DUP2 MSTORE PUSH1 0x20 ADD PUSH1 0x2 PUSH1 0x0 CALLER PUSH20 0xFFFFFFFFFFFFFFFFFFFFFFFFFFFFFFFFFFFFFFFF AND PUSH20 0xFFFFFFFFFFFFFFFFFFFFFFFFFFFFFFFFFFFFFFFF AND DUP2 MSTORE PUSH1 0x20 ADD SWAP1 DUP2 MSTORE PUSH1 0x20 ADD PUSH1 0x0 KECCAK256 DUP1 SLOAD PUSH2 0x23A7 SWAP1 PUSH2 0x3344 JUMP JUMPDEST DUP1 PUSH1 0x1F ADD PUSH1 0x20 DUP1 SWAP2 DIV MUL PUSH1 0x20 ADD PUSH1 0x40 MLOAD SWAP1 DUP2 ADD PUSH1 0x40 MSTORE DUP1 SWAP3 SWAP2 SWAP1 DUP2 DUP2 MSTORE PUSH1 0x20 ADD DUP3 DUP1 SLOAD PUSH2 0x23D3 SWAP1 PUSH2 0x3344 JUMP JUMPDEST DUP1 ISZERO PUSH2 0x2420 JUMPI DUP1 PUSH1 0x1F LT PUSH2 0x23F5 JUMPI PUSH2 0x100 DUP1 DUP4 SLOAD DIV MUL DUP4 MSTORE SWAP2 PUSH1 0x20 ADD SWAP2 PUSH2 0x2420 JUMP JUMPDEST DUP3 ADD SWAP2 SWAP1 PUSH1 0x0 MSTORE PUSH1 0x20 PUSH1 0x0 KECCAK256 SWAP1 JUMPDEST DUP2 SLOAD DUP2 MSTORE SWAP1 PUSH1 0x1 ADD SWAP1 PUSH1 0x20 ADD DUP1 DUP4 GT PUSH2 0x2403 JUMPI DUP3 SWAP1 SUB PUSH1 0x1F AND DUP3 ADD SWAP2 JUMPDEST POP POP POP POP POP DUP2 MSTORE PUSH1 0x20 ADD PUSH1 0x40 MLOAD DUP1 PUSH1 0x40 ADD PUSH1 0x40 MSTORE DUP1 PUSH1 0x4 DUP2 MSTORE PUSH1 0x20 ADD PUSH32 0x42616E6B00000000000000000000000000000000000000000000000000000000 DUP2 MSTORE POP DUP2 MSTORE PUSH1 0x20 ADD CALLVALUE DUP2 MSTORE PUSH1 0x20 ADD DUP5 DUP2 MSTORE POP SWAP1 POP PUSH1 0x6 DUP2 SWAP1 DUP1 PUSH1 0x1 DUP2 SLOAD ADD DUP1 DUP3 SSTORE DUP1 SWAP2 POP POP PUSH1 0x1 SWAP1 SUB SWAP1 PUSH1 0x0 MSTORE PUSH1 0x20 PUSH1 0x0 KECCAK256 SWAP1 PUSH1 0x6 MUL ADD PUSH1 0x0 SWAP1 SWAP2 SWAP1 SWAP2 SWAP1 SWAP2 POP PUSH1 0x0 DUP3 ADD MLOAD DUP2 PUSH1 0x0 ADD PUSH1 0x0 PUSH2 0x100 EXP DUP2 SLOAD DUP2 PUSH20 0xFFFFFFFFFFFFFFFFFFFFFFFFFFFFFFFFFFFFFFFF MUL NOT AND SWAP1 DUP4 PUSH20 0xFFFFFFFFFFFFFFFFFFFFFFFFFFFFFFFFFFFFFFFF AND MUL OR SWAP1 SSTORE POP PUSH1 0x20 DUP3 ADD MLOAD DUP2 PUSH1 0x1 ADD PUSH1 0x0 PUSH2 0x100 EXP DUP2 SLOAD DUP2 PUSH20 0xFFFFFFFFFFFFFFFFFFFFFFFFFFFFFFFFFFFFFFFF MUL NOT AND SWAP1 DUP4 PUSH20 0xFFFFFFFFFFFFFFFFFFFFFFFFFFFFFFFFFFFFFFFF AND MUL OR SWAP1 SSTORE POP PUSH1 0x40 DUP3 ADD MLOAD DUP2 PUSH1 0x2 ADD SWAP1 DUP2 PUSH2 0x2540 SWAP2 SWAP1 PUSH2 0x36D4 JUMP JUMPDEST POP PUSH1 0x60 DUP3 ADD MLOAD DUP2 PUSH1 0x3 ADD SWAP1 DUP2 PUSH2 0x2556 SWAP2 SWAP1 PUSH2 0x36D4 JUMP JUMPDEST POP PUSH1 0x80 DUP3 ADD MLOAD DUP2 PUSH1 0x4 ADD SSTORE PUSH1 0xA0 DUP3 ADD MLOAD DUP2 PUSH1 0x5 ADD SSTORE POP POP PUSH2 0x2577 DUP6 DUP4 PUSH2 0x1250 JUMP JUMPDEST POP JUMPDEST POP POP POP POP JUMP JUMPDEST PUSH1 0x40 MLOAD DUP1 PUSH2 0x140 ADD PUSH1 0x40 MSTORE DUP1 PUSH1 0x60 DUP2 MSTORE PUSH1 0x20 ADD PUSH1 0x60 DUP2 MSTORE PUSH1 0x20 ADD PUSH1 0x60 DUP2 MSTORE PUSH1 0x20 ADD PUSH1 0x0 DUP2 MSTORE PUSH1 0x20 ADD PUSH1 0x0 DUP2 MSTORE PUSH1 0x20 ADD PUSH1 0x0 DUP2 MSTORE PUSH1 0x20 ADD PUSH1 0x0 DUP2 MSTORE PUSH1 0x20 ADD PUSH1 0x0 DUP2 MSTORE PUSH1 0x20 ADD PUSH1 0x0 DUP2 MSTORE PUSH1 0x20 ADD PUSH1 0x0 DUP2 MSTORE POP SWAP1 JUMP JUMPDEST PUSH1 0x0 PUSH1 0x40 MLOAD SWAP1 POP SWAP1 JUMP JUMPDEST PUSH1 0x0 DUP1 REVERT JUMPDEST PUSH1 0x0 DUP1 REVERT JUMPDEST PUSH1 0x0 DUP2 SWAP1 POP SWAP2 SWAP1 POP JUMP JUMPDEST PUSH2 0x25F9 DUP2 PUSH2 0x25E6 JUMP JUMPDEST DUP2 EQ PUSH2 0x2604 JUMPI PUSH1 0x0 DUP1 REVERT JUMPDEST POP JUMP JUMPDEST PUSH1 0x0 DUP2 CALLDATALOAD SWAP1 POP PUSH2 0x2616 DUP2 PUSH2 0x25F0 JUMP JUMPDEST SWAP3 SWAP2 POP POP JUMP JUMPDEST PUSH1 0x0 PUSH1 0x20 DUP3 DUP5 SUB SLT ISZERO PUSH2 0x2632 JUMPI PUSH2 0x2631 PUSH2 0x25DC JUMP JUMPDEST JUMPDEST PUSH1 0x0 PUSH2 0x2640 DUP5 DUP3 DUP6 ADD PUSH2 0x2607 JUMP JUMPDEST SWAP2 POP POP SWAP3 SWAP2 POP POP JUMP JUMPDEST PUSH1 0x0 DUP2 MLOAD SWAP1 POP SWAP2 SWAP1 POP JUMP JUMPDEST PUSH1 0x0 DUP3 DUP3 MSTORE PUSH1 0x20 DUP3 ADD SWAP1 POP SWAP3 SWAP2 POP POP JUMP JUMPDEST PUSH1 0x0 JUMPDEST DUP4 DUP2 LT ISZERO PUSH2 0x2683 JUMPI DUP1 DUP3 ADD MLOAD DUP2 DUP5 ADD MSTORE PUSH1 0x20 DUP2 ADD SWAP1 POP PUSH2 0x2668 JUMP JUMPDEST PUSH1 0x0 DUP5 DUP5 ADD MSTORE POP POP POP POP JUMP JUMPDEST PUSH1 0x0 PUSH1 0x1F NOT PUSH1 0x1F DUP4 ADD AND SWAP1 POP SWAP2 SWAP1 POP JUMP JUMPDEST PUSH1 0x0 PUSH2 0x26AB DUP3 PUSH2 0x2649 JUMP JUMPDEST PUSH2 0x26B5 DUP2 DUP6 PUSH2 0x2654 JUMP JUMPDEST SWAP4 POP PUSH2 0x26C5 DUP2 DUP6 PUSH1 0x20 DUP7 ADD PUSH2 0x2665 JUMP JUMPDEST PUSH2 0x26CE DUP2 PUSH2 0x268F JUMP JUMPDEST DUP5 ADD SWAP2 POP POP SWAP3 SWAP2 POP POP JUMP JUMPDEST PUSH1 0x0 PUSH1 0x20 DUP3 ADD SWAP1 POP DUP2 DUP2 SUB PUSH1 0x0 DUP4 ADD MSTORE PUSH2 0x26F3 DUP2 DUP5 PUSH2 0x26A0 JUMP JUMPDEST SWAP1 POP SWAP3 SWAP2 POP POP JUMP JUMPDEST PUSH1 0x0 PUSH20 0xFFFFFFFFFFFFFFFFFFFFFFFFFFFFFFFFFFFFFFFF DUP3 AND SWAP1 POP SWAP2 SWAP1 POP JUMP JUMPDEST PUSH1 0x0 PUSH2 0x2726 DUP3 PUSH2 0x26FB JUMP JUMPDEST SWAP1 POP SWAP2 SWAP1 POP JUMP JUMPDEST PUSH2 0x2736 DUP2 PUSH2 0x271B JUMP JUMPDEST DUP3 MSTORE POP POP JUMP JUMPDEST PUSH2 0x2745 DUP2 PUSH2 0x25E6 JUMP JUMPDEST DUP3 MSTORE POP POP JUMP JUMPDEST PUSH1 0x0 PUSH1 0xC0 DUP3 ADD SWAP1 POP PUSH2 0x2760 PUSH1 0x0 DUP4 ADD DUP10 PUSH2 0x272D JUMP JUMPDEST PUSH2 0x276D PUSH1 0x20 DUP4 ADD DUP9 PUSH2 0x272D JUMP JUMPDEST DUP2 DUP2 SUB PUSH1 0x40 DUP4 ADD MSTORE PUSH2 0x277F DUP2 DUP8 PUSH2 0x26A0 JUMP JUMPDEST SWAP1 POP DUP2 DUP2 SUB PUSH1 0x60 DUP4 ADD MSTORE PUSH2 0x2793 DUP2 DUP7 PUSH2 0x26A0 JUMP JUMPDEST SWAP1 POP PUSH2 0x27A2 PUSH1 0x80 DUP4 ADD DUP6 PUSH2 0x273C JUMP JUMPDEST PUSH2 0x27AF PUSH1 0xA0 DUP4 ADD DUP5 PUSH2 0x273C JUMP JUMPDEST SWAP8 SWAP7 POP POP POP POP POP POP POP JUMP JUMPDEST PUSH1 0x0 DUP1 REVERT JUMPDEST PUSH1 0x0 DUP1 REVERT JUMPDEST PUSH32 0x4E487B7100000000000000000000000000000000000000000000000000000000 PUSH1 0x0 MSTORE PUSH1 0x41 PUSH1 0x4 MSTORE PUSH1 0x24 PUSH1 0x0 REVERT JUMPDEST PUSH2 0x27FC DUP3 PUSH2 0x268F JUMP JUMPDEST DUP2 ADD DUP2 DUP2 LT PUSH8 0xFFFFFFFFFFFFFFFF DUP3 GT OR ISZERO PUSH2 0x281B JUMPI PUSH2 0x281A PUSH2 0x27C4 JUMP JUMPDEST JUMPDEST DUP1 PUSH1 0x40 MSTORE POP POP POP JUMP JUMPDEST PUSH1 0x0 PUSH2 0x282E PUSH2 0x25D2 JUMP JUMPDEST SWAP1 POP PUSH2 0x283A DUP3 DUP3 PUSH2 0x27F3 JUMP JUMPDEST SWAP2 SWAP1 POP JUMP JUMPDEST PUSH1 0x0 PUSH8 0xFFFFFFFFFFFFFFFF DUP3 GT ISZERO PUSH2 0x285A JUMPI PUSH2 0x2859 PUSH2 0x27C4 JUMP JUMPDEST JUMPDEST PUSH2 0x2863 DUP3 PUSH2 0x268F JUMP JUMPDEST SWAP1 POP PUSH1 0x20 DUP2 ADD SWAP1 POP SWAP2 SWAP1 POP JUMP JUMPDEST DUP3 DUP2 DUP4 CALLDATACOPY PUSH1 0x0 DUP4 DUP4 ADD MSTORE POP POP POP JUMP JUMPDEST PUSH1 0x0 PUSH2 0x2892 PUSH2 0x288D DUP5 PUSH2 0x283F JUMP JUMPDEST PUSH2 0x2824 JUMP JUMPDEST SWAP1 POP DUP3 DUP2 MSTORE PUSH1 0x20 DUP2 ADD DUP5 DUP5 DUP5 ADD GT ISZERO PUSH2 0x28AE JUMPI PUSH2 0x28AD PUSH2 0x27BF JUMP JUMPDEST JUMPDEST PUSH2 0x28B9 DUP5 DUP3 DUP6 PUSH2 0x2870 JUMP JUMPDEST POP SWAP4 SWAP3 POP POP POP JUMP JUMPDEST PUSH1 0x0 DUP3 PUSH1 0x1F DUP4 ADD SLT PUSH2 0x28D6 JUMPI PUSH2 0x28D5 PUSH2 0x27BA JUMP JUMPDEST JUMPDEST DUP2 CALLDATALOAD PUSH2 0x28E6 DUP5 DUP3 PUSH1 0x20 DUP7 ADD PUSH2 0x287F JUMP JUMPDEST SWAP2 POP POP SWAP3 SWAP2 POP POP JUMP JUMPDEST PUSH1 0x0 DUP1 PUSH1 0x40 DUP4 DUP6 SUB SLT ISZERO PUSH2 0x2906 JUMPI PUSH2 0x2905 PUSH2 0x25DC JUMP JUMPDEST JUMPDEST PUSH1 0x0 DUP4 ADD CALLDATALOAD PUSH8 0xFFFFFFFFFFFFFFFF DUP2 GT ISZERO PUSH2 0x2924 JUMPI PUSH2 0x2923 PUSH2 0x25E1 JUMP JUMPDEST JUMPDEST PUSH2 0x2930 DUP6 DUP3 DUP7 ADD PUSH2 0x28C1 JUMP JUMPDEST SWAP3 POP POP PUSH1 0x20 DUP4 ADD CALLDATALOAD PUSH8 0xFFFFFFFFFFFFFFFF DUP2 GT ISZERO PUSH2 0x2951 JUMPI PUSH2 0x2950 PUSH2 0x25E1 JUMP JUMPDEST JUMPDEST PUSH2 0x295D DUP6 DUP3 DUP7 ADD PUSH2 0x28C1 JUMP JUMPDEST SWAP2 POP POP SWAP3 POP SWAP3 SWAP1 POP JUMP JUMPDEST PUSH1 0x0 DUP2 MLOAD SWAP1 POP SWAP2 SWAP1 POP JUMP JUMPDEST PUSH1 0x0 DUP3 DUP3 MSTORE PUSH1 0x20 DUP3 ADD SWAP1 POP SWAP3 SWAP2 POP POP JUMP JUMPDEST PUSH1 0x0 DUP2 SWAP1 POP PUSH1 0x20 DUP3 ADD SWAP1 POP SWAP2 SWAP1 POP JUMP JUMPDEST PUSH1 0x0 DUP3 DUP3 MSTORE PUSH1 0x20 DUP3 ADD SWAP1 POP SWAP3 SWAP2 POP POP JUMP JUMPDEST PUSH1 0x0 PUSH2 0x29AF DUP3 PUSH2 0x2649 JUMP JUMPDEST PUSH2 0x29B9 DUP2 DUP6 PUSH2 0x2993 JUMP JUMPDEST SWAP4 POP PUSH2 0x29C9 DUP2 DUP6 PUSH1 0x20 DUP7 ADD PUSH2 0x2665 JUMP JUMPDEST PUSH2 0x29D2 DUP2 PUSH2 0x268F JUMP JUMPDEST DUP5 ADD SWAP2 POP POP SWAP3 SWAP2 POP POP JUMP JUMPDEST PUSH1 0x0 PUSH2 0x29E9 DUP4 DUP4 PUSH2 0x29A4 JUMP JUMPDEST SWAP1 POP SWAP3 SWAP2 POP POP JUMP JUMPDEST PUSH1 0x0 PUSH1 0x20 DUP3 ADD SWAP1 POP SWAP2 SWAP1 POP JUMP JUMPDEST PUSH1 0x0 PUSH2 0x2A09 DUP3 PUSH2 0x2967 JUMP JUMPDEST PUSH2 0x2A13 DUP2 DUP6 PUSH2 0x2972 JUMP JUMPDEST SWAP4 POP DUP4 PUSH1 0x20 DUP3 MUL DUP6 ADD PUSH2 0x2A25 DUP6 PUSH2 0x2983 JUMP JUMPDEST DUP1 PUSH1 0x0 JUMPDEST DUP6 DUP2 LT ISZERO PUSH2 0x2A61 JUMPI DUP5 DUP5 SUB DUP10 MSTORE DUP2 MLOAD PUSH2 0x2A42 DUP6 DUP3 PUSH2 0x29DD JUMP JUMPDEST SWAP5 POP PUSH2 0x2A4D DUP4 PUSH2 0x29F1 JUMP JUMPDEST SWAP3 POP PUSH1 0x20 DUP11 ADD SWAP10 POP POP PUSH1 0x1 DUP2 ADD SWAP1 POP PUSH2 0x2A29 JUMP JUMPDEST POP DUP3 SWAP8 POP DUP8 SWAP6 POP POP POP POP POP POP SWAP3 SWAP2 POP POP JUMP JUMPDEST PUSH1 0x0 DUP2 MLOAD SWAP1 POP SWAP2 SWAP1 POP JUMP JUMPDEST PUSH1 0x0 DUP3 DUP3 MSTORE PUSH1 0x20 DUP3 ADD SWAP1 POP SWAP3 SWAP2 POP POP JUMP JUMPDEST PUSH1 0x0 DUP2 SWAP1 POP PUSH1 0x20 DUP3 ADD SWAP1 POP SWAP2 SWAP1 POP JUMP JUMPDEST PUSH2 0x2AA8 DUP2 PUSH2 0x25E6 JUMP JUMPDEST DUP3 MSTORE POP POP JUMP JUMPDEST PUSH1 0x0 PUSH2 0x140 DUP4 ADD PUSH1 0x0 DUP4 ADD MLOAD DUP5 DUP3 SUB PUSH1 0x0 DUP7 ADD MSTORE PUSH2 0x2ACC DUP3 DUP3 PUSH2 0x29A4 JUMP JUMPDEST SWAP2 POP POP PUSH1 0x20 DUP4 ADD MLOAD DUP5 DUP3 SUB PUSH1 0x20 DUP7 ADD MSTORE PUSH2 0x2AE6 DUP3 DUP3 PUSH2 0x29A4 JUMP JUMPDEST SWAP2 POP POP PUSH1 0x40 DUP4 ADD MLOAD DUP5 DUP3 SUB PUSH1 0x40 DUP7 ADD MSTORE PUSH2 0x2B00 DUP3 DUP3 PUSH2 0x29A4 JUMP JUMPDEST SWAP2 POP POP PUSH1 0x60 DUP4 ADD MLOAD PUSH2 0x2B15 PUSH1 0x60 DUP7 ADD DUP3 PUSH2 0x2A9F JUMP JUMPDEST POP PUSH1 0x80 DUP4 ADD MLOAD PUSH2 0x2B28 PUSH1 0x80 DUP7 ADD DUP3 PUSH2 0x2A9F JUMP JUMPDEST POP PUSH1 0xA0 DUP4 ADD MLOAD PUSH2 0x2B3B PUSH1 0xA0 DUP7 ADD DUP3 PUSH2 0x2A9F JUMP JUMPDEST POP PUSH1 0xC0 DUP4 ADD MLOAD PUSH2 0x2B4E PUSH1 0xC0 DUP7 ADD DUP3 PUSH2 0x2A9F JUMP JUMPDEST POP PUSH1 0xE0 DUP4 ADD MLOAD PUSH2 0x2B61 PUSH1 0xE0 DUP7 ADD DUP3 PUSH2 0x2A9F JUMP JUMPDEST POP PUSH2 0x100 DUP4 ADD MLOAD PUSH2 0x2B76 PUSH2 0x100 DUP7 ADD DUP3 PUSH2 0x2A9F JUMP JUMPDEST POP PUSH2 0x120 DUP4 ADD MLOAD PUSH2 0x2B8B PUSH2 0x120 DUP7 ADD DUP3 PUSH2 0x2A9F JUMP JUMPDEST POP DUP1 SWAP2 POP POP SWAP3 SWAP2 POP POP JUMP JUMPDEST PUSH1 0x0 PUSH2 0x2BA2 DUP4 DUP4 PUSH2 0x2AAE JUMP JUMPDEST SWAP1 POP SWAP3 SWAP2 POP POP JUMP JUMPDEST PUSH1 0x0 PUSH1 0x20 DUP3 ADD SWAP1 POP SWAP2 SWAP1 POP JUMP JUMPDEST PUSH1 0x0 PUSH2 0x2BC2 DUP3 PUSH2 0x2A73 JUMP JUMPDEST PUSH2 0x2BCC DUP2 DUP6 PUSH2 0x2A7E JUMP JUMPDEST SWAP4 POP DUP4 PUSH1 0x20 DUP3 MUL DUP6 ADD PUSH2 0x2BDE DUP6 PUSH2 0x2A8F JUMP JUMPDEST DUP1 PUSH1 0x0 JUMPDEST DUP6 DUP2 LT ISZERO PUSH2 0x2C1A JUMPI DUP5 DUP5 SUB DUP10 MSTORE DUP2 MLOAD PUSH2 0x2BFB DUP6 DUP3 PUSH2 0x2B96 JUMP JUMPDEST SWAP5 POP PUSH2 0x2C06 DUP4 PUSH2 0x2BAA JUMP JUMPDEST SWAP3 POP PUSH1 0x20 DUP11 ADD SWAP10 POP POP PUSH1 0x1 DUP2 ADD SWAP1 POP PUSH2 0x2BE2 JUMP JUMPDEST POP DUP3 SWAP8 POP DUP8 SWAP6 POP POP POP POP POP POP SWAP3 SWAP2 POP POP JUMP JUMPDEST PUSH1 0x0 PUSH1 0x40 DUP3 ADD SWAP1 POP DUP2 DUP2 SUB PUSH1 0x0 DUP4 ADD MSTORE PUSH2 0x2C46 DUP2 DUP6 PUSH2 0x29FE JUMP JUMPDEST SWAP1 POP DUP2 DUP2 SUB PUSH1 0x20 DUP4 ADD MSTORE PUSH2 0x2C5A DUP2 DUP5 PUSH2 0x2BB7 JUMP JUMPDEST SWAP1 POP SWAP4 SWAP3 POP POP POP JUMP JUMPDEST PUSH2 0x2C6C DUP2 PUSH2 0x271B JUMP JUMPDEST DUP2 EQ PUSH2 0x2C77 JUMPI PUSH1 0x0 DUP1 REVERT JUMPDEST POP JUMP JUMPDEST PUSH1 0x0 DUP2 CALLDATALOAD SWAP1 POP PUSH2 0x2C89 DUP2 PUSH2 0x2C63 JUMP JUMPDEST SWAP3 SWAP2 POP POP JUMP JUMPDEST PUSH1 0x0 DUP1 PUSH1 0x0 PUSH1 0x60 DUP5 DUP7 SUB SLT ISZERO PUSH2 0x2CA8 JUMPI PUSH2 0x2CA7 PUSH2 0x25DC JUMP JUMPDEST JUMPDEST PUSH1 0x0 PUSH2 0x2CB6 DUP7 DUP3 DUP8 ADD PUSH2 0x2C7A JUMP JUMPDEST SWAP4 POP POP PUSH1 0x20 DUP5 ADD CALLDATALOAD PUSH8 0xFFFFFFFFFFFFFFFF DUP2 GT ISZERO PUSH2 0x2CD7 JUMPI PUSH2 0x2CD6 PUSH2 0x25E1 JUMP JUMPDEST JUMPDEST PUSH2 0x2CE3 DUP7 DUP3 DUP8 ADD PUSH2 0x28C1 JUMP JUMPDEST SWAP3 POP POP PUSH1 0x40 PUSH2 0x2CF4 DUP7 DUP3 DUP8 ADD PUSH2 0x2C7A JUMP JUMPDEST SWAP2 POP POP SWAP3 POP SWAP3 POP SWAP3 JUMP JUMPDEST PUSH1 0x0 PUSH2 0x140 DUP3 ADD SWAP1 POP DUP2 DUP2 SUB PUSH1 0x0 DUP4 ADD MSTORE PUSH2 0x2D19 DUP2 DUP14 PUSH2 0x26A0 JUMP JUMPDEST SWAP1 POP DUP2 DUP2 SUB PUSH1 0x20 DUP4 ADD MSTORE PUSH2 0x2D2D DUP2 DUP13 PUSH2 0x26A0 JUMP JUMPDEST SWAP1 POP DUP2 DUP2 SUB PUSH1 0x40 DUP4 ADD MSTORE PUSH2 0x2D41 DUP2 DUP12 PUSH2 0x26A0 JUMP JUMPDEST SWAP1 POP PUSH2 0x2D50 PUSH1 0x60 DUP4 ADD DUP11 PUSH2 0x273C JUMP JUMPDEST PUSH2 0x2D5D PUSH1 0x80 DUP4 ADD DUP10 PUSH2 0x273C JUMP JUMPDEST PUSH2 0x2D6A PUSH1 0xA0 DUP4 ADD DUP9 PUSH2 0x273C JUMP JUMPDEST PUSH2 0x2D77 PUSH1 0xC0 DUP4 ADD DUP8 PUSH2 0x273C JUMP JUMPDEST PUSH2 0x2D84 PUSH1 0xE0 DUP4 ADD DUP7 PUSH2 0x273C JUMP JUMPDEST PUSH2 0x2D92 PUSH2 0x100 DUP4 ADD DUP6 PUSH2 0x273C JUMP JUMPDEST PUSH2 0x2DA0 PUSH2 0x120 DUP4 ADD DUP5 PUSH2 0x273C JUMP JUMPDEST SWAP12 SWAP11 POP POP POP POP POP POP POP POP POP POP POP JUMP JUMPDEST PUSH1 0x0 DUP2 MLOAD SWAP1 POP SWAP2 SWAP1 POP JUMP JUMPDEST PUSH1 0x0 DUP3 DUP3 MSTORE PUSH1 0x20 DUP3 ADD SWAP1 POP SWAP3 SWAP2 POP POP JUMP JUMPDEST PUSH1 0x0 DUP2 SWAP1 POP PUSH1 0x20 DUP3 ADD SWAP1 POP SWAP2 SWAP1 POP JUMP JUMPDEST PUSH2 0x2DE4 DUP2 PUSH2 0x271B JUMP JUMPDEST DUP3 MSTORE POP POP JUMP JUMPDEST PUSH1 0x0 PUSH1 0xC0 DUP4 ADD PUSH1 0x0 DUP4 ADD MLOAD PUSH2 0x2E02 PUSH1 0x0 DUP7 ADD DUP3 PUSH2 0x2DDB JUMP JUMPDEST POP PUSH1 0x20 DUP4 ADD MLOAD PUSH2 0x2E15 PUSH1 0x20 DUP7 ADD DUP3 PUSH2 0x2DDB JUMP JUMPDEST POP PUSH1 0x40 DUP4 ADD MLOAD DUP5 DUP3 SUB PUSH1 0x40 DUP7 ADD MSTORE PUSH2 0x2E2D DUP3 DUP3 PUSH2 0x29A4 JUMP JUMPDEST SWAP2 POP POP PUSH1 0x60 DUP4 ADD MLOAD DUP5 DUP3 SUB PUSH1 0x60 DUP7 ADD MSTORE PUSH2 0x2E47 DUP3 DUP3 PUSH2 0x29A4 JUMP JUMPDEST SWAP2 POP POP PUSH1 0x80 DUP4 ADD MLOAD PUSH2 0x2E5C PUSH1 0x80 DUP7 ADD DUP3 PUSH2 0x2A9F JUMP JUMPDEST POP PUSH1 0xA0 DUP4 ADD MLOAD PUSH2 0x2E6F PUSH1 0xA0 DUP7 ADD DUP3 PUSH2 0x2A9F JUMP JUMPDEST POP DUP1 SWAP2 POP POP SWAP3 SWAP2 POP POP JUMP JUMPDEST PUSH1 0x0 PUSH2 0x2E86 DUP4 DUP4 PUSH2 0x2DEA JUMP JUMPDEST SWAP1 POP SWAP3 SWAP2 POP POP JUMP JUMPDEST PUSH1 0x0 PUSH1 0x20 DUP3 ADD SWAP1 POP SWAP2 SWAP1 POP JUMP JUMPDEST PUSH1 0x0 PUSH2 0x2EA6 DUP3 PUSH2 0x2DAF JUMP JUMPDEST PUSH2 0x2EB0 DUP2 DUP6 PUSH2 0x2DBA JUMP JUMPDEST SWAP4 POP DUP4 PUSH1 0x20 DUP3 MUL DUP6 ADD PUSH2 0x2EC2 DUP6 PUSH2 0x2DCB JUMP JUMPDEST DUP1 PUSH1 0x0 JUMPDEST DUP6 DUP2 LT ISZERO PUSH2 0x2EFE JUMPI DUP5 DUP5 SUB DUP10 MSTORE DUP2 MLOAD PUSH2 0x2EDF DUP6 DUP3 PUSH2 0x2E7A JUMP JUMPDEST SWAP5 POP PUSH2 0x2EEA DUP4 PUSH2 0x2E8E JUMP JUMPDEST SWAP3 POP PUSH1 0x20 DUP11 ADD SWAP10 POP POP PUSH1 0x1 DUP2 ADD SWAP1 POP PUSH2 0x2EC6 JUMP JUMPDEST POP DUP3 SWAP8 POP DUP8 SWAP6 POP POP POP POP POP POP SWAP3 SWAP2 POP POP JUMP JUMPDEST PUSH1 0x0 PUSH1 0x20 DUP3 ADD SWAP1 POP DUP2 DUP2 SUB PUSH1 0x0 DUP4 ADD MSTORE PUSH2 0x2F2A DUP2 DUP5 PUSH2 0x2E9B JUMP JUMPDEST SWAP1 POP SWAP3 SWAP2 POP POP JUMP JUMPDEST PUSH1 0x0 PUSH1 0x20 DUP3 DUP5 SUB SLT ISZERO PUSH2 0x2F48 JUMPI PUSH2 0x2F47 PUSH2 0x25DC JUMP JUMPDEST JUMPDEST PUSH1 0x0 PUSH2 0x2F56 DUP5 DUP3 DUP6 ADD PUSH2 0x2C7A JUMP JUMPDEST SWAP2 POP POP SWAP3 SWAP2 POP POP JUMP JUMPDEST PUSH1 0x0 PUSH1 0x20 DUP3 ADD SWAP1 POP PUSH2 0x2F74 PUSH1 0x0 DUP4 ADD DUP5 PUSH2 0x273C JUMP JUMPDEST SWAP3 SWAP2 POP POP JUMP JUMPDEST PUSH1 0x0 DUP1 PUSH1 0x40 DUP4 DUP6 SUB SLT ISZERO PUSH2 0x2F91 JUMPI PUSH2 0x2F90 PUSH2 0x25DC JUMP JUMPDEST JUMPDEST PUSH1 0x0 PUSH2 0x2F9F DUP6 DUP3 DUP7 ADD PUSH2 0x2C7A JUMP JUMPDEST SWAP3 POP POP PUSH1 0x20 DUP4 ADD CALLDATALOAD PUSH8 0xFFFFFFFFFFFFFFFF DUP2 GT ISZERO PUSH2 0x2FC0 JUMPI PUSH2 0x2FBF PUSH2 0x25E1 JUMP JUMPDEST JUMPDEST PUSH2 0x2FCC DUP6 DUP3 DUP7 ADD PUSH2 0x28C1 JUMP JUMPDEST SWAP2 POP POP SWAP3 POP SWAP3 SWAP1 POP JUMP JUMPDEST PUSH1 0x0 DUP1 PUSH1 0x40 DUP4 DUP6 SUB SLT ISZERO PUSH2 0x2FED JUMPI PUSH2 0x2FEC PUSH2 0x25DC JUMP JUMPDEST JUMPDEST PUSH1 0x0 PUSH2 0x2FFB DUP6 DUP3 DUP7 ADD PUSH2 0x2C7A JUMP JUMPDEST SWAP3 POP POP PUSH1 0x20 PUSH2 0x300C DUP6 DUP3 DUP7 ADD PUSH2 0x2607 JUMP JUMPDEST SWAP2 POP POP SWAP3 POP SWAP3 SWAP1 POP JUMP JUMPDEST PUSH1 0x0 PUSH1 0x20 DUP3 ADD SWAP1 POP PUSH2 0x302B PUSH1 0x0 DUP4 ADD DUP5 PUSH2 0x272D JUMP JUMPDEST SWAP3 SWAP2 POP POP JUMP JUMPDEST PUSH1 0x0 PUSH2 0x303C DUP3 PUSH2 0x26FB JUMP JUMPDEST SWAP1 POP SWAP2 SWAP1 POP JUMP JUMPDEST PUSH2 0x304C DUP2 PUSH2 0x3031 JUMP JUMPDEST DUP2 EQ PUSH2 0x3057 JUMPI PUSH1 0x0 DUP1 REVERT JUMPDEST POP JUMP JUMPDEST PUSH1 0x0 DUP2 CALLDATALOAD SWAP1 POP PUSH2 0x3069 DUP2 PUSH2 0x3043 JUMP JUMPDEST SWAP3 SWAP2 POP POP JUMP JUMPDEST PUSH1 0x0 DUP1 PUSH1 0x40 DUP4 DUP6 SUB SLT ISZERO PUSH2 0x3086 JUMPI PUSH2 0x3085 PUSH2 0x25DC JUMP JUMPDEST JUMPDEST PUSH1 0x0 PUSH2 0x3094 DUP6 DUP3 DUP7 ADD PUSH2 0x305A JUMP JUMPDEST SWAP3 POP POP PUSH1 0x20 PUSH2 0x30A5 DUP6 DUP3 DUP7 ADD PUSH2 0x2607 JUMP JUMPDEST SWAP2 POP POP SWAP3 POP SWAP3 SWAP1 POP JUMP JUMPDEST PUSH1 0x0 DUP2 ISZERO ISZERO SWAP1 POP SWAP2 SWAP1 POP JUMP JUMPDEST PUSH2 0x30C4 DUP2 PUSH2 0x30AF JUMP JUMPDEST DUP3 MSTORE POP POP JUMP JUMPDEST PUSH1 0x0 PUSH1 0x20 DUP3 ADD SWAP1 POP PUSH2 0x30DF PUSH1 0x0 DUP4 ADD DUP5 PUSH2 0x30BB JUMP JUMPDEST SWAP3 SWAP2 POP POP JUMP JUMPDEST PUSH1 0x0 DUP1 PUSH1 0x0 DUP1 PUSH1 0x0 DUP1 PUSH1 0x0 DUP1 PUSH1 0x0 DUP1 PUSH1 0x0 PUSH2 0x160 DUP13 DUP15 SUB SLT ISZERO PUSH2 0x310B JUMPI PUSH2 0x310A PUSH2 0x25DC JUMP JUMPDEST JUMPDEST PUSH1 0x0 DUP13 ADD CALLDATALOAD PUSH8 0xFFFFFFFFFFFFFFFF DUP2 GT ISZERO PUSH2 0x3129 JUMPI PUSH2 0x3128 PUSH2 0x25E1 JUMP JUMPDEST JUMPDEST PUSH2 0x3135 DUP15 DUP3 DUP16 ADD PUSH2 0x28C1 JUMP JUMPDEST SWAP12 POP POP PUSH1 0x20 DUP13 ADD CALLDATALOAD PUSH8 0xFFFFFFFFFFFFFFFF DUP2 GT ISZERO PUSH2 0x3156 JUMPI PUSH2 0x3155 PUSH2 0x25E1 JUMP JUMPDEST JUMPDEST PUSH2 0x3162 DUP15 DUP3 DUP16 ADD PUSH2 0x28C1 JUMP JUMPDEST SWAP11 POP POP PUSH1 0x40 DUP13 ADD CALLDATALOAD PUSH8 0xFFFFFFFFFFFFFFFF DUP2 GT ISZERO PUSH2 0x3183 JUMPI PUSH2 0x3182 PUSH2 0x25E1 JUMP JUMPDEST JUMPDEST PUSH2 0x318F DUP15 DUP3 DUP16 ADD PUSH2 0x28C1 JUMP JUMPDEST SWAP10 POP POP PUSH1 0x60 PUSH2 0x31A0 DUP15 DUP3 DUP16 ADD PUSH2 0x2607 JUMP JUMPDEST SWAP9 POP POP PUSH1 0x80 PUSH2 0x31B1 DUP15 DUP3 DUP16 ADD PUSH2 0x2607 JUMP JUMPDEST SWAP8 POP POP PUSH1 0xA0 PUSH2 0x31C2 DUP15 DUP3 DUP16 ADD PUSH2 0x2607 JUMP JUMPDEST SWAP7 POP POP PUSH1 0xC0 PUSH2 0x31D3 DUP15 DUP3 DUP16 ADD PUSH2 0x2607 JUMP JUMPDEST SWAP6 POP POP PUSH1 0xE0 PUSH2 0x31E4 DUP15 DUP3 DUP16 ADD PUSH2 0x2607 JUMP JUMPDEST SWAP5 POP POP PUSH2 0x100 PUSH2 0x31F6 DUP15 DUP3 DUP16 ADD PUSH2 0x2607 JUMP JUMPDEST SWAP4 POP POP PUSH2 0x120 PUSH2 0x3208 DUP15 DUP3 DUP16 ADD PUSH2 0x2607 JUMP JUMPDEST SWAP3 POP POP PUSH2 0x140 PUSH2 0x321A DUP15 DUP3 DUP16 ADD PUSH2 0x2607 JUMP JUMPDEST SWAP2 POP POP SWAP3 SWAP6 SWAP9 SWAP12 POP SWAP3 SWAP6 SWAP9 SWAP12 SWAP1 SWAP4 SWAP7 SWAP10 POP JUMP JUMPDEST PUSH1 0x0 PUSH1 0x20 DUP3 DUP5 SUB SLT ISZERO PUSH2 0x3243 JUMPI PUSH2 0x3242 PUSH2 0x25DC JUMP JUMPDEST JUMPDEST PUSH1 0x0 DUP3 ADD CALLDATALOAD PUSH8 0xFFFFFFFFFFFFFFFF DUP2 GT ISZERO PUSH2 0x3261 JUMPI PUSH2 0x3260 PUSH2 0x25E1 JUMP JUMPDEST JUMPDEST PUSH2 0x326D DUP5 DUP3 DUP6 ADD PUSH2 0x28C1 JUMP JUMPDEST SWAP2 POP POP SWAP3 SWAP2 POP POP JUMP JUMPDEST PUSH1 0x0 DUP1 PUSH1 0x0 DUP1 PUSH1 0x80 DUP6 DUP8 SUB SLT ISZERO PUSH2 0x3290 JUMPI PUSH2 0x328F PUSH2 0x25DC JUMP JUMPDEST JUMPDEST PUSH1 0x0 PUSH2 0x329E DUP8 DUP3 DUP9 ADD PUSH2 0x2C7A JUMP JUMPDEST SWAP5 POP POP PUSH1 0x20 DUP6 ADD CALLDATALOAD PUSH8 0xFFFFFFFFFFFFFFFF DUP2 GT ISZERO PUSH2 0x32BF JUMPI PUSH2 0x32BE PUSH2 0x25E1 JUMP JUMPDEST JUMPDEST PUSH2 0x32CB DUP8 DUP3 DUP9 ADD PUSH2 0x28C1 JUMP JUMPDEST SWAP4 POP POP PUSH1 0x40 PUSH2 0x32DC DUP8 DUP3 DUP9 ADD PUSH2 0x2607 JUMP JUMPDEST SWAP3 POP POP PUSH1 0x60 DUP6 ADD CALLDATALOAD PUSH8 0xFFFFFFFFFFFFFFFF DUP2 GT ISZERO PUSH2 0x32FD JUMPI PUSH2 0x32FC PUSH2 0x25E1 JUMP JUMPDEST JUMPDEST PUSH2 0x3309 DUP8 DUP3 DUP9 ADD PUSH2 0x28C1 JUMP JUMPDEST SWAP2 POP POP SWAP3 SWAP6 SWAP2 SWAP5 POP SWAP3 POP JUMP JUMPDEST PUSH32 0x4E487B7100000000000000000000000000000000000000000000000000000000 PUSH1 0x0 MSTORE PUSH1 0x22 PUSH1 0x4 MSTORE PUSH1 0x24 PUSH1 0x0 REVERT JUMPDEST PUSH1 0x0 PUSH1 0x2 DUP3 DIV SWAP1 POP PUSH1 0x1 DUP3 AND DUP1 PUSH2 0x335C JUMPI PUSH1 0x7F DUP3 AND SWAP2 POP JUMPDEST PUSH1 0x20 DUP3 LT DUP2 SUB PUSH2 0x336F JUMPI PUSH2 0x336E PUSH2 0x3315 JUMP JUMPDEST JUMPDEST POP SWAP2 SWAP1 POP JUMP JUMPDEST PUSH1 0x0 DUP2 SWAP1 POP SWAP3 SWAP2 POP POP JUMP JUMPDEST PUSH1 0x0 DUP2 SWAP1 POP DUP2 PUSH1 0x0 MSTORE PUSH1 0x20 PUSH1 0x0 KECCAK256 SWAP1 POP SWAP2 SWAP1 POP JUMP JUMPDEST PUSH1 0x0 DUP2 SLOAD PUSH2 0x33A2 DUP2 PUSH2 0x3344 JUMP JUMPDEST PUSH2 0x33AC DUP2 DUP7 PUSH2 0x3375 JUMP JUMPDEST SWAP5 POP PUSH1 0x1 DUP3 AND PUSH1 0x0 DUP2 EQ PUSH2 0x33C7 JUMPI PUSH1 0x1 DUP2 EQ PUSH2 0x33DC JUMPI PUSH2 0x340F JUMP JUMPDEST PUSH1 0xFF NOT DUP4 AND DUP7 MSTORE DUP2 ISZERO ISZERO DUP3 MUL DUP7 ADD SWAP4 POP PUSH2 0x340F JUMP JUMPDEST PUSH2 0x33E5 DUP6 PUSH2 0x3380 JUMP JUMPDEST PUSH1 0x0 JUMPDEST DUP4 DUP2 LT ISZERO PUSH2 0x3407 JUMPI DUP2 SLOAD DUP2 DUP10 ADD MSTORE PUSH1 0x1 DUP3 ADD SWAP2 POP PUSH1 0x20 DUP2 ADD SWAP1 POP PUSH2 0x33E8 JUMP JUMPDEST DUP4 DUP9 ADD SWAP6 POP POP POP JUMPDEST POP POP POP SWAP3 SWAP2 POP POP JUMP JUMPDEST PUSH1 0x0 PUSH2 0x3424 DUP3 DUP5 PUSH2 0x3395 JUMP JUMPDEST SWAP2 POP DUP2 SWAP1 POP SWAP3 SWAP2 POP POP JUMP JUMPDEST PUSH32 0x4E487B7100000000000000000000000000000000000000000000000000000000 PUSH1 0x0 MSTORE PUSH1 0x32 PUSH1 0x4 MSTORE PUSH1 0x24 PUSH1 0x0 REVERT JUMPDEST PUSH1 0x0 DUP2 SWAP1 POP SWAP3 SWAP2 POP POP JUMP JUMPDEST PUSH1 0x0 PUSH2 0x3474 DUP3 PUSH2 0x2649 JUMP JUMPDEST PUSH2 0x347E DUP2 DUP6 PUSH2 0x345E JUMP JUMPDEST SWAP4 POP PUSH2 0x348E DUP2 DUP6 PUSH1 0x20 DUP7 ADD PUSH2 0x2665 JUMP JUMPDEST DUP1 DUP5 ADD SWAP2 POP POP SWAP3 SWAP2 POP POP JUMP JUMPDEST PUSH1 0x0 PUSH2 0x34A6 DUP3 DUP5 PUSH2 0x3469 JUMP JUMPDEST SWAP2 POP DUP2 SWAP1 POP SWAP3 SWAP2 POP POP JUMP JUMPDEST PUSH32 0x4E487B7100000000000000000000000000000000000000000000000000000000 PUSH1 0x0 MSTORE PUSH1 0x11 PUSH1 0x4 MSTORE PUSH1 0x24 PUSH1 0x0 REVERT JUMPDEST PUSH1 0x0 PUSH2 0x34EB DUP3 PUSH2 0x25E6 JUMP JUMPDEST SWAP2 POP PUSH32 0xFFFFFFFFFFFFFFFFFFFFFFFFFFFFFFFFFFFFFFFFFFFFFFFFFFFFFFFFFFFFFFFF DUP3 SUB PUSH2 0x351D JUMPI PUSH2 0x351C PUSH2 0x34B1 JUMP JUMPDEST JUMPDEST PUSH1 0x1 DUP3 ADD SWAP1 POP SWAP2 SWAP1 POP JUMP JUMPDEST PUSH1 0x0 DUP2 SWAP1 POP DUP2 PUSH1 0x0 MSTORE PUSH1 0x20 PUSH1 0x0 KECCAK256 SWAP1 POP SWAP2 SWAP1 POP JUMP JUMPDEST PUSH1 0x0 PUSH1 0x20 PUSH1 0x1F DUP4 ADD DIV SWAP1 POP SWAP2 SWAP1 POP JUMP JUMPDEST PUSH1 0x0 DUP3 DUP3 SHL SWAP1 POP SWAP3 SWAP2 POP POP JUMP JUMPDEST PUSH1 0x0 PUSH1 0x8 DUP4 MUL PUSH2 0x358A PUSH32 0xFFFFFFFFFFFFFFFFFFFFFFFFFFFFFFFFFFFFFFFFFFFFFFFFFFFFFFFFFFFFFFFF DUP3 PUSH2 0x354D JUMP JUMPDEST PUSH2 0x3594 DUP7 DUP4 PUSH2 0x354D JUMP JUMPDEST SWAP6 POP DUP1 NOT DUP5 AND SWAP4 POP DUP1 DUP7 AND DUP5 OR SWAP3 POP POP POP SWAP4 SWAP3 POP POP POP JUMP JUMPDEST PUSH1 0x0 DUP2 SWAP1 POP SWAP2 SWAP1 POP JUMP JUMPDEST PUSH1 0x0 PUSH2 0x35D1 PUSH2 0x35CC PUSH2 0x35C7 DUP5 PUSH2 0x25E6 JUMP JUMPDEST PUSH2 0x35AC JUMP JUMPDEST PUSH2 0x25E6 JUMP JUMPDEST SWAP1 POP SWAP2 SWAP1 POP JUMP JUMPDEST PUSH1 0x0 DUP2 SWAP1 POP SWAP2 SWAP1 POP JUMP JUMPDEST PUSH2 0x35EB DUP4 PUSH2 0x35B6 JUMP JUMPDEST PUSH2 0x35FF PUSH2 0x35F7 DUP3 PUSH2 0x35D8 JUMP JUMPDEST DUP5 DUP5 SLOAD PUSH2 0x355A JUMP JUMPDEST DUP3 SSTORE POP POP POP POP JUMP JUMPDEST PUSH1 0x0 SWAP1 JUMP JUMPDEST PUSH2 0x3614 PUSH2 0x3607 JUMP JUMPDEST PUSH2 0x361F DUP2 DUP5 DUP5 PUSH2 0x35E2 JUMP JUMPDEST POP POP POP JUMP JUMPDEST JUMPDEST DUP2 DUP2 LT ISZERO PUSH2 0x3643 JUMPI PUSH2 0x3638 PUSH1 0x0 DUP3 PUSH2 0x360C JUMP JUMPDEST PUSH1 0x1 DUP2 ADD SWAP1 POP PUSH2 0x3625 JUMP JUMPDEST POP POP JUMP JUMPDEST PUSH1 0x1F DUP3 GT ISZERO PUSH2 0x3688 JUMPI PUSH2 0x3659 DUP2 PUSH2 0x3528 JUMP JUMPDEST PUSH2 0x3662 DUP5 PUSH2 0x353D JUMP JUMPDEST DUP2 ADD PUSH1 0x20 DUP6 LT ISZERO PUSH2 0x3671 JUMPI DUP2 SWAP1 POP JUMPDEST PUSH2 0x3685 PUSH2 0x367D DUP6 PUSH2 0x353D JUMP JUMPDEST DUP4 ADD DUP3 PUSH2 0x3624 JUMP JUMPDEST POP POP JUMPDEST POP POP POP JUMP JUMPDEST PUSH1 0x0 DUP3 DUP3 SHR SWAP1 POP SWAP3 SWAP2 POP POP JUMP JUMPDEST PUSH1 0x0 PUSH2 0x36AB PUSH1 0x0 NOT DUP5 PUSH1 0x8 MUL PUSH2 0x368D JUMP JUMPDEST NOT DUP1 DUP4 AND SWAP2 POP POP SWAP3 SWAP2 POP POP JUMP JUMPDEST PUSH1 0x0 PUSH2 0x36C4 DUP4 DUP4 PUSH2 0x369A JUMP JUMPDEST SWAP2 POP DUP3 PUSH1 0x2 MUL DUP3 OR SWAP1 POP SWAP3 SWAP2 POP POP JUMP JUMPDEST PUSH2 0x36DD DUP3 PUSH2 0x2649 JUMP JUMPDEST PUSH8 0xFFFFFFFFFFFFFFFF DUP2 GT ISZERO PUSH2 0x36F6 JUMPI PUSH2 0x36F5 PUSH2 0x27C4 JUMP JUMPDEST JUMPDEST PUSH2 0x3700 DUP3 SLOAD PUSH2 0x3344 JUMP JUMPDEST PUSH2 0x370B DUP3 DUP3 DUP6 PUSH2 0x3647 JUMP JUMPDEST PUSH1 0x0 PUSH1 0x20 SWAP1 POP PUSH1 0x1F DUP4 GT PUSH1 0x1 DUP2 EQ PUSH2 0x373E JUMPI PUSH1 0x0 DUP5 ISZERO PUSH2 0x372C JUMPI DUP3 DUP8 ADD MLOAD SWAP1 POP JUMPDEST PUSH2 0x3736 DUP6 DUP3 PUSH2 0x36B8 JUMP JUMPDEST DUP7 SSTORE POP PUSH2 0x379E JUMP JUMPDEST PUSH1 0x1F NOT DUP5 AND PUSH2 0x374C DUP7 PUSH2 0x3528 JUMP JUMPDEST PUSH1 0x0 JUMPDEST DUP3 DUP2 LT ISZERO PUSH2 0x3774 JUMPI DUP5 DUP10 ADD MLOAD DUP3 SSTORE PUSH1 0x1 DUP3 ADD SWAP2 POP PUSH1 0x20 DUP6 ADD SWAP5 POP PUSH1 0x20 DUP2 ADD SWAP1 POP PUSH2 0x374F JUMP JUMPDEST DUP7 DUP4 LT ISZERO PUSH2 0x3791 JUMPI DUP5 DUP10 ADD MLOAD PUSH2 0x378D PUSH1 0x1F DUP10 AND DUP3 PUSH2 0x369A JUMP JUMPDEST DUP4 SSTORE POP JUMPDEST PUSH1 0x1 PUSH1 0x2 DUP9 MUL ADD DUP9 SSTORE POP POP POP JUMPDEST POP POP POP POP POP POP JUMP JUMPDEST POP JUMP JUMPDEST PUSH1 0x0 PUSH2 0x37B6 PUSH1 0x0 DUP4 PUSH2 0x3375 JUMP JUMPDEST SWAP2 POP PUSH2 0x37C1 DUP3 PUSH2 0x37A6 JUMP JUMPDEST PUSH1 0x0 DUP3 ADD SWAP1 POP SWAP2 SWAP1 POP JUMP JUMPDEST PUSH1 0x0 PUSH2 0x37D7 DUP3 PUSH2 0x37A9 JUMP JUMPDEST SWAP2 POP DUP2 SWAP1 POP SWAP2 SWAP1 POP JUMP JUMPDEST PUSH32 0x4661696C656420746F2073656E64204574686572000000000000000000000000 PUSH1 0x0 DUP3 ADD MSTORE POP JUMP JUMPDEST PUSH1 0x0 PUSH2 0x3817 PUSH1 0x14 DUP4 PUSH2 0x2654 JUMP JUMPDEST SWAP2 POP PUSH2 0x3822 DUP3 PUSH2 0x37E1 JUMP JUMPDEST PUSH1 0x20 DUP3 ADD SWAP1 POP SWAP2 SWAP1 POP JUMP JUMPDEST PUSH1 0x0 PUSH1 0x20 DUP3 ADD SWAP1 POP DUP2 DUP2 SUB PUSH1 0x0 DUP4 ADD MSTORE PUSH2 0x3846 DUP2 PUSH2 0x380A JUMP JUMPDEST SWAP1 POP SWAP2 SWAP1 POP JUMP JUMPDEST PUSH1 0x0 PUSH2 0x3858 DUP3 PUSH2 0x25E6 JUMP JUMPDEST SWAP2 POP PUSH2 0x3863 DUP4 PUSH2 0x25E6 JUMP JUMPDEST SWAP3 POP DUP3 DUP3 SUB SWAP1 POP DUP2 DUP2 GT ISZERO PUSH2 0x387B JUMPI PUSH2 0x387A PUSH2 0x34B1 JUMP JUMPDEST JUMPDEST SWAP3 SWAP2 POP POP JUMP JUMPDEST PUSH1 0x0 PUSH2 0x388C DUP3 PUSH2 0x25E6 JUMP JUMPDEST SWAP2 POP PUSH2 0x3897 DUP4 PUSH2 0x25E6 JUMP JUMPDEST SWAP3 POP DUP3 DUP3 ADD SWAP1 POP DUP1 DUP3 GT ISZERO PUSH2 0x38AF JUMPI PUSH2 0x38AE PUSH2 0x34B1 JUMP JUMPDEST JUMPDEST SWAP3 SWAP2 POP POP JUMP INVALID LOG2 PUSH5 0x6970667358 0x22 SLT KECCAK256 DUP11 DUP3 0x4E PUSH15 0x649F602EE69E035A5817F5613912E0 BLOCKHASH DUP5 0xDB 0xD6 BLOCKHASH 0x2A 0xEF 0xE2 DUP13 MOD 0xE7 PUSH4 0x1A64736F PUSH13 0x63430008110033000000000000 "},"gasEstimates":{"creation":{"codeDepositCost":"2914200","executionCost":"3193","totalCost":"2917393"},"external":{"balance()":"450","bank(address)":"2859","billingHistory(uint256)":"infinite","dataSummaryExists(string,string)":"infinite","dataSummaryTable(address,string,address)":"infinite","deposit()":"infinite","fetchBillingHistory()":"infinite","fetchUserDataSummary(string,string)":"infinite","operatorAddresses(uint256)":"4979","operatorSecretKeys(address)":"infinite","operatorsAddrToName(address)":"infinite","operatorsNameToAddr(string)":"infinite","registerRoamingOperator(address,string,uint256,string)":"infinite","serviceProviders(uint256)":"infinite","totalDeposit()":"2495","transfer(address,uint256)":"infinite","uploadSecretKey(address,string)":"infinite","uploadUserDataSummary(string,string,string,uint256,uint256,uint256,uint256,uint256,uint256,uint256,uint256)":"infinite","userTable(address,uint256)":"infinite"}},"methodIdentifiers":{"balance()":"b69ef8a8","bank(address)":"529a1baf","billingHistory(uint256)":"0cb31a80","dataSummaryExists(string,string)":"ab6a9f17","dataSummaryTable(address,string,address)":"32f97763","deposit()":"d0e30db0","fetchBillingHistory()":"44c5c6a5","fetchUserDataSummary(string,string)":"1889da0a","operatorAddresses(uint256)":"7792a035","operatorSecretKeys(address)":"ca611ffa","operatorsAddrToName(address)":"64aa65a8","operatorsNameToAddr(string)":"fd70c7dd","registerRoamingOperator(address,string,uint256,string)":"fea2fee9","serviceProviders(uint256)":"0a02dcc7","totalDeposit()":"f6153ccd","transfer(address,uint256)":"a9059cbb","uploadSecretKey(address,string)":"5e7d7faa","uploadUserDataSummary(string,string,string,uint256,uint256,uint256,uint256,uint256,uint256,uint256,uint256)":"b205b4f6","userTable(address,uint256)":"6e6061d1"}},"storageLayout":{"storage":[{"astId":4,"contract":"RoamingDataManagement.sol:RoamingDataManagement","label":"serviceProviders","offset":0,"slot":"0","type":"t_array(t_string_storage)dyn_storage"},{"astId":7,"contract":"RoamingDataManagement.sol:RoamingDataManagement","label":"operatorAddresses","offset":0,"slot":"1","type":"t_array(t_address)dyn_storage"},{"astId":11,"contract":"RoamingDataManagement.sol:RoamingDataManagement","label":"operatorsAddrToName","offset":0,"slot":"2","type":"t_mapping(t_address,t_string_storage)"},{"astId":15,"contract":"RoamingDataManagement.sol:RoamingDataManagement","label":"operatorsNameToAddr","offset":0,"slot":"3","type":"t_mapping(t_string_memory_ptr,t_address)"},{"astId":19,"contract":"RoamingDataManagement.sol:RoamingDataManagement","label":"operatorSecretKeys","offset":0,"slot":"4","type":"t_mapping(t_address,t_string_storage)"},{"astId":21,"contract":"RoamingDataManagement.sol:RoamingDataManagement","label":"totalDeposit","offset":0,"slot":"5","type":"t_uint256"},{"astId":59,"contract":"RoamingDataManagement.sol:RoamingDataManagement","label":"billingHistory","offset":0,"slot":"6","type":"t_array(t_struct(BillingRecord)55_storage)dyn_storage"},{"astId":64,"contract":"RoamingDataManagement.sol:RoamingDataManagement","label":"userTable","offset":0,"slot":"7","type":"t_mapping(t_address,t_array(t_string_storage)dyn_storage)"},{"astId":73,"contract":"RoamingDataManagement.sol:RoamingDataManagement","label":"dataSummaryTable","offset":0,"slot":"8","type":"t_mapping(t_address,t_mapping(t_string_memory_ptr,t_mapping(t_address,t_struct(UserDataSummary)42_storage)))"},{"astId":79,"contract":"RoamingDataManagement.sol:RoamingDataManagement","label":"numOfUserDataEntries","offset":0,"slot":"9","type":"t_mapping(t_address,t_mapping(t_string_memory_ptr,t_uint256))"},{"astId":83,"contract":"RoamingDataManagement.sol:RoamingDataManagement","label":"bank","offset":0,"slot":"10","type":"t_mapping(t_address,t_uint256)"}],"types":{"t_address":{"encoding":"inplace","label":"address","numberOfBytes":"20"},"t_array(t_address)dyn_storage":{"base":"t_address","encoding":"dynamic_array","label":"address[]","numberOfBytes":"32"},"t_array(t_string_storage)dyn_storage":{"base":"t_string_storage","encoding":"dynamic_array","label":"string[]","numberOfBytes":"32"},"t_array(t_struct(BillingRecord)55_storage)dyn_storage":{"base":"t_struct(BillingRecord)55_storage","encoding":"dynamic_array","label":"struct RoamingDataManagement.BillingRecord[]","numberOfBytes":"32"},"t_mapping(t_address,t_array(t_string_storage)dyn_storage)":{"encoding":"mapping","key":"t_address","label":"mapping(address => string[])","numberOfBytes":"32","value":"t_array(t_string_storage)dyn_storage"},"t_mapping(t_address,t_mapping(t_string_memory_ptr,t_mapping(t_address,t_struct(UserDataSummary)42_storage)))":{"encoding":"mapping","key":"t_address","label":"mapping(address => mapping(string => mapping(address => struct RoamingDataManagement.UserDataSummary)))","numberOfBytes":"32","value":"t_mapping(t_string_memory_ptr,t_mapping(t_address,t_struct(UserDataSummary)42_storage))"},"t_mapping(t_address,t_mapping(t_string_memory_ptr,t_uint256))":{"encoding":"mapping","key":"t_address","label":"mapping(address => mapping(string => uint256))","numberOfBytes":"32","value":"t_mapping(t_string_memory_ptr,t_uint256)"},"t_mapping(t_address,t_string_storage)":{"encoding":"mapping","key":"t_address","label":"mapping(address => string)","numberOfBytes":"32","value":"t_string_storage"},"t_mapping(t_address,t_struct(UserDataSummary)42_storage)":{"encoding":"mapping","key":"t_address","label":"mapping(address => struct RoamingDataManagement.UserDataSummary)","numberOfBytes":"32","value":"t_struct(UserDataSummary)42_storage"},"t_mapping(t_address,t_uint256)":{"encoding":"mapping","key":"t_address","label":"mapping(address => uint256)","numberOfBytes":"32","value":"t_uint256"},"t_mapping(t_string_memory_ptr,t_address)":{"encoding":"mapping","key":"t_string_memory_ptr","label":"mapping(string => address)","numberOfBytes":"32","value":"t_address"},"t_mapping(t_string_memory_ptr,t_mapping(t_address,t_struct(UserDataSummary)42_storage))":{"encoding":"mapping","key":"t_string_memory_ptr","label":"mapping(string => mapping(address => struct RoamingDataManagement.UserDataSummary))","numberOfBytes":"32","value":"t_mapping(t_address,t_struct(UserDataSummary)42_storage)"},"t_mapping(t_string_memory_ptr,t_uint256)":{"encoding":"mapping","key":"t_string_memory_ptr","label":"mapping(string => uint256)","numberOfBytes":"32","value":"t_uint256"},"t_string_memory_ptr":{"encoding":"bytes","label":"string","numberOfBytes":"32"},"t_string_storage":{"encoding":"bytes","label":"string","numberOfBytes":"32"},"t_struct(BillingRecord)55_storage":{"encoding":"inplace","label":"struct RoamingDataManagement.BillingRecord","members":[{"astId":44,"contract":"RoamingDataManagement.sol:RoamingDataManagement","label":"payer","offset":0,"slot":"0","type":"t_address"},{"astId":46,"contract":"RoamingDataManagement.sol:RoamingDataManagement","label":"payee","offset":0,"slot":"1","type":"t_address"},{"astId":48,"contract":"RoamingDataManagement.sol:RoamingDataManagement","label":"payerName","offset":0,"slot":"2","type":"t_string_storage"},{"astId":50,"contract":"RoamingDataManagement.sol:RoamingDataManagement","label":"payeeName","offset":0,"slot":"3","type":"t_string_storage"},{"astId":52,"contract":"RoamingDataManagement.sol:RoamingDataManagement","label":"amount","offset":0,"slot":"4","type":"t_uint256"},{"astId":54,"contract":"RoamingDataManagement.sol:RoamingDataManagement","label":"timestamp","offset":0,"slot":"5","type":"t_uint256"}],"numberOfBytes":"192"},"t_struct(UserDataSummary)42_storage":{"encoding":"inplace","label":"struct RoamingDataManagement.UserDataSummary","members":[{"astId":23,"contract":"RoamingDataManagement.sol:RoamingDataManagement","label":"imsi","offset":0,"slot":"0","type":"t_string_storage"},{"astId":25,"contract":"RoamingDataManagement.sol:RoamingDataManagement","label":"number","offset":0,"slot":"1","type":"t_string_storage"},{"astId":27,"contract":"RoamingDataManagement.sol:RoamingDataManagement","label":"serviceProvider","offset":0,"slot":"2","type":"t_string_storage"},{"astId":29,"contract":"RoamingDataManagement.sol:RoamingDataManagement","label":"serviceStartTime","offset":0,"slot":"3","type":"t_uint256"},{"astId":31,"contract":"RoamingDataManagement.sol:RoamingDataManagement","label":"voiceCallStartTime","offset":0,"slot":"4","type":"t_uint256"},{"astId":33,"contract":"RoamingDataManagement.sol:RoamingDataManagement","label":"smsStartTime","offset":0,"slot":"5","type":"t_uint256"},{"astId":35,"contract":"RoamingDataManagement.sol:RoamingDataManagement","label":"internetStartTime","offset":0,"slot":"6","type":"t_uint256"},{"astId":37,"contract":"RoamingDataManagement.sol:RoamingDataManagement","label":"voiceCallUsage","offset":0,"slot":"7","type":"t_uint256"},{"astId":39,"contract":"RoamingDataManagement.sol:RoamingDataManagement","label":"internetUsage","offset":0,"slot":"8","type":"t_uint256"},{"astId":41,"contract":"RoamingDataManagement.sol:RoamingDataManagement","label":"smsUsage","offset":0,"slot":"9","type":"t_uint256"}],"numberOfBytes":"320"},"t_uint256":{"encoding":"inplace","label":"uint256","numberOfBytes":"32"}}},"userdoc":{"kind":"user","methods":{},"version":1}}