{"abi":[{"inputs":[],"stateMutability":"nonpayable","type":"constructor"},{"inputs":[],"name":"balance","outputs":[{"internalType":"uint256","name":"","type":"uint256"}],"stateMutability":"view","type":"function"},{"inputs":[{"internalType":"address","name":"","type":"address"}],"name":"bank","outputs":[{"internalType":"uint256","name":"","type":"uint256"}],"stateMutability":"view","type":"function"},{"inputs":[{"internalType":"uint256","name":"","type":"uint256"}],"name":"billingHistory","outputs":[{"internalType":"address","name":"payer","type":"address"},{"internalType":"address","name":"payee","type":"address"},{"internalType":"uint256","name":"amount","type":"uint256"},{"internalType":"uint256","name":"timestamp","type":"uint256"}],"stateMutability":"view","type":"function"},{"inputs":[{"internalType":"string","name":"imsi","type":"string"},{"internalType":"string","name":"homeOperator","type":"string"}],"name":"dataSummaryExists","outputs":[{"internalType":"bool","name":"","type":"bool"}],"stateMutability":"view","type":"function"},{"inputs":[{"internalType":"address","name":"","type":"address"},{"internalType":"string","name":"","type":"string"},{"internalType":"address","name":"","type":"address"}],"name":"dataSummaryTable","outputs":[{"internalType":"string","name":"imsi","type":"string"},{"internalType":"string","name":"number","type":"string"},{"internalType":"string","name":"serviceProvider","type":"string"},{"internalType":"uint256","name":"serviceStartTime","type":"uint256"},{"internalType":"uint256","name":"voiceCallStartTime","type":"uint256"},{"internalType":"uint256","name":"smsStartTime","type":"uint256"},{"internalType":"uint256","name":"internetStartTime","type":"uint256"},{"internalType":"uint256","name":"voiceCallUsage","type":"uint256"},{"internalType":"uint256","name":"internetUsage","type":"uint256"},{"internalType":"uint256","name":"smsUsage","type":"uint256"}],"stateMutability":"view","type":"function"},{"inputs":[],"name":"deposit","outputs":[],"stateMutability":"payable","type":"function"},{"inputs":[{"internalType":"string","name":"visitingOperatorName","type":"string"}],"name":"fetchUserDataSummary","outputs":[{"internalType":"string[]","name":"","type":"string[]"},{"components":[{"internalType":"string","name":"imsi","type":"string"},{"internalType":"string","name":"number","type":"string"},{"internalType":"string","name":"serviceProvider","type":"string"},{"internalType":"uint256","name":"serviceStartTime","type":"uint256"},{"internalType":"uint256","name":"voiceCallStartTime","type":"uint256"},{"internalType":"uint256","name":"smsStartTime","type":"uint256"},{"internalType":"uint256","name":"internetStartTime","type":"uint256"},{"internalType":"uint256","name":"voiceCallUsage","type":"uint256"},{"internalType":"uint256","name":"internetUsage","type":"uint256"},{"internalType":"uint256","name":"smsUsage","type":"uint256"}],"internalType":"struct RoamingDataManagement.UserDataSummary[]","name":"","type":"tuple[]"}],"stateMutability":"view","type":"function"},{"inputs":[{"internalType":"uint256","name":"","type":"uint256"}],"name":"operatorAddresses","outputs":[{"internalType":"address","name":"","type":"address"}],"stateMutability":"view","type":"function"},{"inputs":[{"internalType":"address","name":"","type":"address"}],"name":"operatorsAddrToName","outputs":[{"internalType":"string","name":"","type":"string"}],"stateMutability":"view","type":"function"},{"inputs":[{"internalType":"string","name":"","type":"string"}],"name":"operatorsNameToAddr","outputs":[{"internalType":"address","name":"","type":"address"}],"stateMutability":"view","type":"function"},{"inputs":[{"internalType":"address","name":"operatorAddr","type":"address"},{"internalType":"string","name":"operatorName","type":"string"}],"name":"registerRoamingOperator","outputs":[],"stateMutability":"payable","type":"function"},{"inputs":[{"internalType":"uint256","name":"","type":"uint256"}],"name":"serviceProviders","outputs":[{"internalType":"string","name":"","type":"string"}],"stateMutability":"view","type":"function"},{"inputs":[],"name":"totalDeposit","outputs":[{"internalType":"uint256","name":"","type":"uint256"}],"stateMutability":"view","type":"function"},{"inputs":[{"internalType":"address payable","name":"_to","type":"address"},{"internalType":"uint256","name":"_amount","type":"uint256"}],"name":"transfer","outputs":[],"stateMutability":"nonpayable","type":"function"},{"inputs":[{"internalType":"string","name":"imsi","type":"string"},{"internalType":"string","name":"number","type":"string"},{"internalType":"string","name":"serviceProvider","type":"string"},{"internalType":"uint256","name":"voiceCallUsage","type":"uint256"},{"internalType":"uint256","name":"internetUsage","type":"uint256"},{"internalType":"uint256","name":"smsUsage","type":"uint256"},{"internalType":"uint256","name":"serviceStartTime","type":"uint256"},{"internalType":"uint256","name":"internetStartTime","type":"uint256"},{"internalType":"uint256","name":"voiceCallStartTime","type":"uint256"},{"internalType":"uint256","name":"smsStartTime","type":"uint256"}],"name":"uploadUserDataSummary","outputs":[],"stateMutability":"nonpayable","type":"function"},{"inputs":[{"internalType":"address","name":"","type":"address"},{"internalType":"uint256","name":"","type":"uint256"}],"name":"userTable","outputs":[{"internalType":"string","name":"","type":"string"}],"stateMutability":"view","type":"function"},{"stateMutability":"payable","type":"receive"}],"devdoc":{"kind":"dev","methods":{},"version":1},"evm":{"assembly":"    /* \"RoamingDataManagement.sol\":57:6619  contract RoamingDataManagement {... */\n  mstore(0x40, 0x80)\n    /* \"RoamingDataManagement.sol\":1861:1891  constructor() {... */\n  callvalue\n  dup1\n  iszero\n  tag_1\n  jumpi\n  0x00\n  dup1\n  revert\ntag_1:\n  pop\n    /* \"RoamingDataManagement.sol\":57:6619  contract RoamingDataManagement {... */\n  dataSize(sub_0)\n  dup1\n  dataOffset(sub_0)\n  0x00\n  codecopy\n  0x00\n  return\nstop\n\nsub_0: assembly {\n        /* \"RoamingDataManagement.sol\":57:6619  contract RoamingDataManagement {... */\n      mstore(0x40, 0x80)\n      jumpi(tag_1, lt(calldatasize, 0x04))\n      shr(0xe0, calldataload(0x00))\n      dup1\n      0xa9059cbb\n      gt\n      tag_19\n      jumpi\n      dup1\n      0xd0e30db0\n      gt\n      tag_20\n      jumpi\n      dup1\n      0xd0e30db0\n      eq\n      tag_15\n      jumpi\n      dup1\n      0xf595c3ab\n      eq\n      tag_16\n      jumpi\n      dup1\n      0xf6153ccd\n      eq\n      tag_17\n      jumpi\n      dup1\n      0xfd70c7dd\n      eq\n      tag_18\n      jumpi\n      jump(tag_2)\n    tag_20:\n      dup1\n      0xa9059cbb\n      eq\n      tag_11\n      jumpi\n      dup1\n      0xab6a9f17\n      eq\n      tag_12\n      jumpi\n      dup1\n      0xb69ef8a8\n      eq\n      tag_13\n      jumpi\n      dup1\n      0xc7fa1063\n      eq\n      tag_14\n      jumpi\n      jump(tag_2)\n    tag_19:\n      dup1\n      0x64aa65a8\n      gt\n      tag_21\n      jumpi\n      dup1\n      0x64aa65a8\n      eq\n      tag_7\n      jumpi\n      dup1\n      0x6e6061d1\n      eq\n      tag_8\n      jumpi\n      dup1\n      0x7792a035\n      eq\n      tag_9\n      jumpi\n      dup1\n      0xa8367070\n      eq\n      tag_10\n      jumpi\n      jump(tag_2)\n    tag_21:\n      dup1\n      0x0a02dcc7\n      eq\n      tag_3\n      jumpi\n      dup1\n      0x0cb31a80\n      eq\n      tag_4\n      jumpi\n      dup1\n      0x32f97763\n      eq\n      tag_5\n      jumpi\n      dup1\n      0x529a1baf\n      eq\n      tag_6\n      jumpi\n      jump(tag_2)\n    tag_1:\n      jumpi(tag_2, calldatasize)\n        /* \"RoamingDataManagement.sol\":2041:2047  1 gwei */\n      0x3b9aca00\n        /* \"RoamingDataManagement.sol\":2028:2037  msg.value */\n      callvalue\n        /* \"RoamingDataManagement.sol\":2028:2047  msg.value >= 1 gwei */\n      lt\n      iszero\n        /* \"RoamingDataManagement.sol\":2020:2048  require(msg.value >= 1 gwei) */\n      tag_24\n      jumpi\n      0x00\n      dup1\n      revert\n    tag_24:\n        /* \"RoamingDataManagement.sol\":57:6619  contract RoamingDataManagement {... */\n      stop\n    tag_2:\n      0x00\n      dup1\n      revert\n        /* \"RoamingDataManagement.sol\":522:554  string[] public serviceProviders */\n    tag_3:\n      callvalue\n      dup1\n      iszero\n      tag_25\n      jumpi\n      0x00\n      dup1\n      revert\n    tag_25:\n      pop\n      tag_26\n      0x04\n      dup1\n      calldatasize\n      sub\n      dup2\n      add\n      swap1\n      tag_27\n      swap2\n      swap1\n      tag_28\n      jump\t// in\n    tag_27:\n      tag_29\n      jump\t// in\n    tag_26:\n      mload(0x40)\n      tag_30\n      swap2\n      swap1\n      tag_31\n      jump\t// in\n    tag_30:\n      mload(0x40)\n      dup1\n      swap2\n      sub\n      swap1\n      return\n        /* \"RoamingDataManagement.sol\":1233:1270  BillingRecord[] public billingHistory */\n    tag_4:\n      callvalue\n      dup1\n      iszero\n      tag_32\n      jumpi\n      0x00\n      dup1\n      revert\n    tag_32:\n      pop\n      tag_33\n      0x04\n      dup1\n      calldatasize\n      sub\n      dup2\n      add\n      swap1\n      tag_34\n      swap2\n      swap1\n      tag_28\n      jump\t// in\n    tag_34:\n      tag_35\n      jump\t// in\n    tag_33:\n      mload(0x40)\n      tag_36\n      swap5\n      swap4\n      swap3\n      swap2\n      swap1\n      tag_37\n      jump\t// in\n    tag_36:\n      mload(0x40)\n      dup1\n      swap2\n      sub\n      swap1\n      return\n        /* \"RoamingDataManagement.sol\":1641:1739  mapping(address => mapping(string => mapping(address => UserDataSummary))) public dataSummaryTable */\n    tag_5:\n      callvalue\n      dup1\n      iszero\n      tag_38\n      jumpi\n      0x00\n      dup1\n      revert\n    tag_38:\n      pop\n      tag_39\n      0x04\n      dup1\n      calldatasize\n      sub\n      dup2\n      add\n      swap1\n      tag_40\n      swap2\n      swap1\n      tag_41\n      jump\t// in\n    tag_40:\n      tag_42\n      jump\t// in\n    tag_39:\n      mload(0x40)\n      tag_43\n      swap11\n      swap10\n      swap9\n      swap8\n      swap7\n      swap6\n      swap5\n      swap4\n      swap3\n      swap2\n      swap1\n      tag_44\n      jump\t// in\n    tag_43:\n      mload(0x40)\n      dup1\n      swap2\n      sub\n      swap1\n      return\n        /* \"RoamingDataManagement.sol\":1815:1854  mapping(address => uint256) public bank */\n    tag_6:\n      callvalue\n      dup1\n      iszero\n      tag_45\n      jumpi\n      0x00\n      dup1\n      revert\n    tag_45:\n      pop\n      tag_46\n      0x04\n      dup1\n      calldatasize\n      sub\n      dup2\n      add\n      swap1\n      tag_47\n      swap2\n      swap1\n      tag_48\n      jump\t// in\n    tag_47:\n      tag_49\n      jump\t// in\n    tag_46:\n      mload(0x40)\n      tag_50\n      swap2\n      swap1\n      tag_51\n      jump\t// in\n    tag_50:\n      mload(0x40)\n      dup1\n      swap2\n      sub\n      swap1\n      return\n        /* \"RoamingDataManagement.sol\":601:654  mapping(address => string) public operatorsAddrToName */\n    tag_7:\n      callvalue\n      dup1\n      iszero\n      tag_52\n      jumpi\n      0x00\n      dup1\n      revert\n    tag_52:\n      pop\n      tag_53\n      0x04\n      dup1\n      calldatasize\n      sub\n      dup2\n      add\n      swap1\n      tag_54\n      swap2\n      swap1\n      tag_48\n      jump\t// in\n    tag_54:\n      tag_55\n      jump\t// in\n    tag_53:\n      mload(0x40)\n      tag_56\n      swap2\n      swap1\n      tag_31\n      jump\t// in\n    tag_56:\n      mload(0x40)\n      dup1\n      swap2\n      sub\n      swap1\n      return\n        /* \"RoamingDataManagement.sol\":1363:1408  mapping(address => string[]) public userTable */\n    tag_8:\n      callvalue\n      dup1\n      iszero\n      tag_57\n      jumpi\n      0x00\n      dup1\n      revert\n    tag_57:\n      pop\n      tag_58\n      0x04\n      dup1\n      calldatasize\n      sub\n      dup2\n      add\n      swap1\n      tag_59\n      swap2\n      swap1\n      tag_60\n      jump\t// in\n    tag_59:\n      tag_61\n      jump\t// in\n    tag_58:\n      mload(0x40)\n      tag_62\n      swap2\n      swap1\n      tag_31\n      jump\t// in\n    tag_62:\n      mload(0x40)\n      dup1\n      swap2\n      sub\n      swap1\n      return\n        /* \"RoamingDataManagement.sol\":560:594  address[] public operatorAddresses */\n    tag_9:\n      callvalue\n      dup1\n      iszero\n      tag_63\n      jumpi\n      0x00\n      dup1\n      revert\n    tag_63:\n      pop\n      tag_64\n      0x04\n      dup1\n      calldatasize\n      sub\n      dup2\n      add\n      swap1\n      tag_65\n      swap2\n      swap1\n      tag_28\n      jump\t// in\n    tag_65:\n      tag_66\n      jump\t// in\n    tag_64:\n      mload(0x40)\n      tag_67\n      swap2\n      swap1\n      tag_68\n      jump\t// in\n    tag_67:\n      mload(0x40)\n      dup1\n      swap2\n      sub\n      swap1\n      return\n        /* \"RoamingDataManagement.sol\":5723:6361  function fetchUserDataSummary(string memory visitingOperatorName) public view returns(string[] memory, UserDataSummary[] memory) {... */\n    tag_10:\n      callvalue\n      dup1\n      iszero\n      tag_69\n      jumpi\n      0x00\n      dup1\n      revert\n    tag_69:\n      pop\n      tag_70\n      0x04\n      dup1\n      calldatasize\n      sub\n      dup2\n      add\n      swap1\n      tag_71\n      swap2\n      swap1\n      tag_72\n      jump\t// in\n    tag_71:\n      tag_73\n      jump\t// in\n    tag_70:\n      mload(0x40)\n      tag_74\n      swap3\n      swap2\n      swap1\n      tag_75\n      jump\t// in\n    tag_74:\n      mload(0x40)\n      dup1\n      swap2\n      sub\n      swap1\n      return\n        /* \"RoamingDataManagement.sol\":6442:6616  function transfer(address payable _to, uint _amount) public {... */\n    tag_11:\n      callvalue\n      dup1\n      iszero\n      tag_76\n      jumpi\n      0x00\n      dup1\n      revert\n    tag_76:\n      pop\n      tag_77\n      0x04\n      dup1\n      calldatasize\n      sub\n      dup2\n      add\n      swap1\n      tag_78\n      swap2\n      swap1\n      tag_79\n      jump\t// in\n    tag_78:\n      tag_80\n      jump\t// in\n    tag_77:\n      stop\n        /* \"RoamingDataManagement.sol\":5396:5590  function dataSummaryExists(string memory imsi, string memory homeOperator) public view returns(bool) {... */\n    tag_12:\n      callvalue\n      dup1\n      iszero\n      tag_81\n      jumpi\n      0x00\n      dup1\n      revert\n    tag_81:\n      pop\n      tag_82\n      0x04\n      dup1\n      calldatasize\n      sub\n      dup2\n      add\n      swap1\n      tag_83\n      swap2\n      swap1\n      tag_84\n      jump\t// in\n    tag_83:\n      tag_85\n      jump\t// in\n    tag_82:\n      mload(0x40)\n      tag_86\n      swap2\n      swap1\n      tag_87\n      jump\t// in\n    tag_86:\n      mload(0x40)\n      dup1\n      swap2\n      sub\n      swap1\n      return\n        /* \"RoamingDataManagement.sol\":2061:2160  function balance() external view returns(uint256)... */\n    tag_13:\n      callvalue\n      dup1\n      iszero\n      tag_88\n      jumpi\n      0x00\n      dup1\n      revert\n    tag_88:\n      pop\n      tag_89\n      tag_90\n      jump\t// in\n    tag_89:\n      mload(0x40)\n      tag_91\n      swap2\n      swap1\n      tag_51\n      jump\t// in\n    tag_91:\n      mload(0x40)\n      dup1\n      swap2\n      sub\n      swap1\n      return\n        /* \"RoamingDataManagement.sol\":2166:3126  function registerRoamingOperator(address operatorAddr, string memory operatorName) public payable {... */\n    tag_14:\n      tag_92\n      0x04\n      dup1\n      calldatasize\n      sub\n      dup2\n      add\n      swap1\n      tag_93\n      swap2\n      swap1\n      tag_94\n      jump\t// in\n    tag_93:\n      tag_95\n      jump\t// in\n    tag_92:\n      stop\n        /* \"RoamingDataManagement.sol\":1897:1977  function deposit() public payable... */\n    tag_15:\n      tag_96\n      tag_97\n      jump\t// in\n    tag_96:\n      stop\n        /* \"RoamingDataManagement.sol\":3132:5390  function uploadUserDataSummary(string memory imsi, string memory number, string memory serviceProvider, ... */\n    tag_16:\n      callvalue\n      dup1\n      iszero\n      tag_98\n      jumpi\n      0x00\n      dup1\n      revert\n    tag_98:\n      pop\n      tag_99\n      0x04\n      dup1\n      calldatasize\n      sub\n      dup2\n      add\n      swap1\n      tag_100\n      swap2\n      swap1\n      tag_101\n      jump\t// in\n    tag_100:\n      tag_102\n      jump\t// in\n    tag_99:\n      stop\n        /* \"RoamingDataManagement.sol\":725:749  uint public totalDeposit */\n    tag_17:\n      callvalue\n      dup1\n      iszero\n      tag_103\n      jumpi\n      0x00\n      dup1\n      revert\n    tag_103:\n      pop\n      tag_104\n      tag_105\n      jump\t// in\n    tag_104:\n      mload(0x40)\n      tag_106\n      swap2\n      swap1\n      tag_51\n      jump\t// in\n    tag_106:\n      mload(0x40)\n      dup1\n      swap2\n      sub\n      swap1\n      return\n        /* \"RoamingDataManagement.sol\":660:713  mapping(string => address) public operatorsNameToAddr */\n    tag_18:\n      callvalue\n      dup1\n      iszero\n      tag_107\n      jumpi\n      0x00\n      dup1\n      revert\n    tag_107:\n      pop\n      tag_108\n      0x04\n      dup1\n      calldatasize\n      sub\n      dup2\n      add\n      swap1\n      tag_109\n      swap2\n      swap1\n      tag_72\n      jump\t// in\n    tag_109:\n      tag_110\n      jump\t// in\n    tag_108:\n      mload(0x40)\n      tag_111\n      swap2\n      swap1\n      tag_68\n      jump\t// in\n    tag_111:\n      mload(0x40)\n      dup1\n      swap2\n      sub\n      swap1\n      return\n        /* \"RoamingDataManagement.sol\":522:554  string[] public serviceProviders */\n    tag_29:\n      0x00\n      dup2\n      dup2\n      sload\n      dup2\n      lt\n      tag_112\n      jumpi\n      0x00\n      dup1\n      revert\n    tag_112:\n      swap1\n      0x00\n      mstore\n      keccak256(0x00, 0x20)\n      add\n      0x00\n      swap2\n      pop\n      swap1\n      pop\n      dup1\n      sload\n      tag_114\n      swap1\n      tag_115\n      jump\t// in\n    tag_114:\n      dup1\n      0x1f\n      add\n      0x20\n      dup1\n      swap2\n      div\n      mul\n      0x20\n      add\n      mload(0x40)\n      swap1\n      dup2\n      add\n      0x40\n      mstore\n      dup1\n      swap3\n      swap2\n      swap1\n      dup2\n      dup2\n      mstore\n      0x20\n      add\n      dup3\n      dup1\n      sload\n      tag_116\n      swap1\n      tag_115\n      jump\t// in\n    tag_116:\n      dup1\n      iszero\n      tag_117\n      jumpi\n      dup1\n      0x1f\n      lt\n      tag_118\n      jumpi\n      0x0100\n      dup1\n      dup4\n      sload\n      div\n      mul\n      dup4\n      mstore\n      swap2\n      0x20\n      add\n      swap2\n      jump(tag_117)\n    tag_118:\n      dup3\n      add\n      swap2\n      swap1\n      0x00\n      mstore\n      keccak256(0x00, 0x20)\n      swap1\n    tag_119:\n      dup2\n      sload\n      dup2\n      mstore\n      swap1\n      0x01\n      add\n      swap1\n      0x20\n      add\n      dup1\n      dup4\n      gt\n      tag_119\n      jumpi\n      dup3\n      swap1\n      sub\n      0x1f\n      and\n      dup3\n      add\n      swap2\n    tag_117:\n      pop\n      pop\n      pop\n      pop\n      pop\n      dup2\n      jump\t// out\n        /* \"RoamingDataManagement.sol\":1233:1270  BillingRecord[] public billingHistory */\n    tag_35:\n      0x05\n      dup2\n      dup2\n      sload\n      dup2\n      lt\n      tag_120\n      jumpi\n      0x00\n      dup1\n      revert\n    tag_120:\n      swap1\n      0x00\n      mstore\n      keccak256(0x00, 0x20)\n      swap1\n      0x04\n      mul\n      add\n      0x00\n      swap2\n      pop\n      swap1\n      pop\n      dup1\n      0x00\n      add\n      0x00\n      swap1\n      sload\n      swap1\n      0x0100\n      exp\n      swap1\n      div\n      0xffffffffffffffffffffffffffffffffffffffff\n      and\n      swap1\n      dup1\n      0x01\n      add\n      0x00\n      swap1\n      sload\n      swap1\n      0x0100\n      exp\n      swap1\n      div\n      0xffffffffffffffffffffffffffffffffffffffff\n      and\n      swap1\n      dup1\n      0x02\n      add\n      sload\n      swap1\n      dup1\n      0x03\n      add\n      sload\n      swap1\n      pop\n      dup5\n      jump\t// out\n        /* \"RoamingDataManagement.sol\":1641:1739  mapping(address => mapping(string => mapping(address => UserDataSummary))) public dataSummaryTable */\n    tag_42:\n      mstore(0x20, 0x07)\n      dup3\n      0x00\n      mstore\n      keccak256(0x00, 0x40)\n      dup3\n      dup1\n      mload\n      0x20\n      dup2\n      add\n      dup3\n      add\n      dup1\n      mload\n      dup5\n      dup3\n      mstore\n      0x20\n      dup4\n      add\n      0x20\n      dup6\n      add\n      keccak256\n      dup2\n      dup4\n      mstore\n      dup1\n      swap6\n      pop\n      pop\n      pop\n      pop\n      pop\n      pop\n      0x20\n      mstore\n      dup1\n      0x00\n      mstore\n      keccak256(0x00, 0x40)\n      0x00\n      swap3\n      pop\n      swap3\n      pop\n      pop\n      pop\n      dup1\n      0x00\n      add\n      dup1\n      sload\n      tag_122\n      swap1\n      tag_115\n      jump\t// in\n    tag_122:\n      dup1\n      0x1f\n      add\n      0x20\n      dup1\n      swap2\n      div\n      mul\n      0x20\n      add\n      mload(0x40)\n      swap1\n      dup2\n      add\n      0x40\n      mstore\n      dup1\n      swap3\n      swap2\n      swap1\n      dup2\n      dup2\n      mstore\n      0x20\n      add\n      dup3\n      dup1\n      sload\n      tag_123\n      swap1\n      tag_115\n      jump\t// in\n    tag_123:\n      dup1\n      iszero\n      tag_124\n      jumpi\n      dup1\n      0x1f\n      lt\n      tag_125\n      jumpi\n      0x0100\n      dup1\n      dup4\n      sload\n      div\n      mul\n      dup4\n      mstore\n      swap2\n      0x20\n      add\n      swap2\n      jump(tag_124)\n    tag_125:\n      dup3\n      add\n      swap2\n      swap1\n      0x00\n      mstore\n      keccak256(0x00, 0x20)\n      swap1\n    tag_126:\n      dup2\n      sload\n      dup2\n      mstore\n      swap1\n      0x01\n      add\n      swap1\n      0x20\n      add\n      dup1\n      dup4\n      gt\n      tag_126\n      jumpi\n      dup3\n      swap1\n      sub\n      0x1f\n      and\n      dup3\n      add\n      swap2\n    tag_124:\n      pop\n      pop\n      pop\n      pop\n      pop\n      swap1\n      dup1\n      0x01\n      add\n      dup1\n      sload\n      tag_127\n      swap1\n      tag_115\n      jump\t// in\n    tag_127:\n      dup1\n      0x1f\n      add\n      0x20\n      dup1\n      swap2\n      div\n      mul\n      0x20\n      add\n      mload(0x40)\n      swap1\n      dup2\n      add\n      0x40\n      mstore\n      dup1\n      swap3\n      swap2\n      swap1\n      dup2\n      dup2\n      mstore\n      0x20\n      add\n      dup3\n      dup1\n      sload\n      tag_128\n      swap1\n      tag_115\n      jump\t// in\n    tag_128:\n      dup1\n      iszero\n      tag_129\n      jumpi\n      dup1\n      0x1f\n      lt\n      tag_130\n      jumpi\n      0x0100\n      dup1\n      dup4\n      sload\n      div\n      mul\n      dup4\n      mstore\n      swap2\n      0x20\n      add\n      swap2\n      jump(tag_129)\n    tag_130:\n      dup3\n      add\n      swap2\n      swap1\n      0x00\n      mstore\n      keccak256(0x00, 0x20)\n      swap1\n    tag_131:\n      dup2\n      sload\n      dup2\n      mstore\n      swap1\n      0x01\n      add\n      swap1\n      0x20\n      add\n      dup1\n      dup4\n      gt\n      tag_131\n      jumpi\n      dup3\n      swap1\n      sub\n      0x1f\n      and\n      dup3\n      add\n      swap2\n    tag_129:\n      pop\n      pop\n      pop\n      pop\n      pop\n      swap1\n      dup1\n      0x02\n      add\n      dup1\n      sload\n      tag_132\n      swap1\n      tag_115\n      jump\t// in\n    tag_132:\n      dup1\n      0x1f\n      add\n      0x20\n      dup1\n      swap2\n      div\n      mul\n      0x20\n      add\n      mload(0x40)\n      swap1\n      dup2\n      add\n      0x40\n      mstore\n      dup1\n      swap3\n      swap2\n      swap1\n      dup2\n      dup2\n      mstore\n      0x20\n      add\n      dup3\n      dup1\n      sload\n      tag_133\n      swap1\n      tag_115\n      jump\t// in\n    tag_133:\n      dup1\n      iszero\n      tag_134\n      jumpi\n      dup1\n      0x1f\n      lt\n      tag_135\n      jumpi\n      0x0100\n      dup1\n      dup4\n      sload\n      div\n      mul\n      dup4\n      mstore\n      swap2\n      0x20\n      add\n      swap2\n      jump(tag_134)\n    tag_135:\n      dup3\n      add\n      swap2\n      swap1\n      0x00\n      mstore\n      keccak256(0x00, 0x20)\n      swap1\n    tag_136:\n      dup2\n      sload\n      dup2\n      mstore\n      swap1\n      0x01\n      add\n      swap1\n      0x20\n      add\n      dup1\n      dup4\n      gt\n      tag_136\n      jumpi\n      dup3\n      swap1\n      sub\n      0x1f\n      and\n      dup3\n      add\n      swap2\n    tag_134:\n      pop\n      pop\n      pop\n      pop\n      pop\n      swap1\n      dup1\n      0x03\n      add\n      sload\n      swap1\n      dup1\n      0x04\n      add\n      sload\n      swap1\n      dup1\n      0x05\n      add\n      sload\n      swap1\n      dup1\n      0x06\n      add\n      sload\n      swap1\n      dup1\n      0x07\n      add\n      sload\n      swap1\n      dup1\n      0x08\n      add\n      sload\n      swap1\n      dup1\n      0x09\n      add\n      sload\n      swap1\n      pop\n      dup11\n      jump\t// out\n        /* \"RoamingDataManagement.sol\":1815:1854  mapping(address => uint256) public bank */\n    tag_49:\n      mstore(0x20, 0x09)\n      dup1\n      0x00\n      mstore\n      keccak256(0x00, 0x40)\n      0x00\n      swap2\n      pop\n      swap1\n      pop\n      sload\n      dup2\n      jump\t// out\n        /* \"RoamingDataManagement.sol\":601:654  mapping(address => string) public operatorsAddrToName */\n    tag_55:\n      mstore(0x20, 0x02)\n      dup1\n      0x00\n      mstore\n      keccak256(0x00, 0x40)\n      0x00\n      swap2\n      pop\n      swap1\n      pop\n      dup1\n      sload\n      tag_137\n      swap1\n      tag_115\n      jump\t// in\n    tag_137:\n      dup1\n      0x1f\n      add\n      0x20\n      dup1\n      swap2\n      div\n      mul\n      0x20\n      add\n      mload(0x40)\n      swap1\n      dup2\n      add\n      0x40\n      mstore\n      dup1\n      swap3\n      swap2\n      swap1\n      dup2\n      dup2\n      mstore\n      0x20\n      add\n      dup3\n      dup1\n      sload\n      tag_138\n      swap1\n      tag_115\n      jump\t// in\n    tag_138:\n      dup1\n      iszero\n      tag_139\n      jumpi\n      dup1\n      0x1f\n      lt\n      tag_140\n      jumpi\n      0x0100\n      dup1\n      dup4\n      sload\n      div\n      mul\n      dup4\n      mstore\n      swap2\n      0x20\n      add\n      swap2\n      jump(tag_139)\n    tag_140:\n      dup3\n      add\n      swap2\n      swap1\n      0x00\n      mstore\n      keccak256(0x00, 0x20)\n      swap1\n    tag_141:\n      dup2\n      sload\n      dup2\n      mstore\n      swap1\n      0x01\n      add\n      swap1\n      0x20\n      add\n      dup1\n      dup4\n      gt\n      tag_141\n      jumpi\n      dup3\n      swap1\n      sub\n      0x1f\n      and\n      dup3\n      add\n      swap2\n    tag_139:\n      pop\n      pop\n      pop\n      pop\n      pop\n      dup2\n      jump\t// out\n        /* \"RoamingDataManagement.sol\":1363:1408  mapping(address => string[]) public userTable */\n    tag_61:\n      mstore(0x20, 0x06)\n      dup2\n      0x00\n      mstore\n      keccak256(0x00, 0x40)\n      dup2\n      dup2\n      sload\n      dup2\n      lt\n      tag_142\n      jumpi\n      0x00\n      dup1\n      revert\n    tag_142:\n      swap1\n      0x00\n      mstore\n      keccak256(0x00, 0x20)\n      add\n      0x00\n      swap2\n      pop\n      swap2\n      pop\n      pop\n      dup1\n      sload\n      tag_144\n      swap1\n      tag_115\n      jump\t// in\n    tag_144:\n      dup1\n      0x1f\n      add\n      0x20\n      dup1\n      swap2\n      div\n      mul\n      0x20\n      add\n      mload(0x40)\n      swap1\n      dup2\n      add\n      0x40\n      mstore\n      dup1\n      swap3\n      swap2\n      swap1\n      dup2\n      dup2\n      mstore\n      0x20\n      add\n      dup3\n      dup1\n      sload\n      tag_145\n      swap1\n      tag_115\n      jump\t// in\n    tag_145:\n      dup1\n      iszero\n      tag_146\n      jumpi\n      dup1\n      0x1f\n      lt\n      tag_147\n      jumpi\n      0x0100\n      dup1\n      dup4\n      sload\n      div\n      mul\n      dup4\n      mstore\n      swap2\n      0x20\n      add\n      swap2\n      jump(tag_146)\n    tag_147:\n      dup3\n      add\n      swap2\n      swap1\n      0x00\n      mstore\n      keccak256(0x00, 0x20)\n      swap1\n    tag_148:\n      dup2\n      sload\n      dup2\n      mstore\n      swap1\n      0x01\n      add\n      swap1\n      0x20\n      add\n      dup1\n      dup4\n      gt\n      tag_148\n      jumpi\n      dup3\n      swap1\n      sub\n      0x1f\n      and\n      dup3\n      add\n      swap2\n    tag_146:\n      pop\n      pop\n      pop\n      pop\n      pop\n      dup2\n      jump\t// out\n        /* \"RoamingDataManagement.sol\":560:594  address[] public operatorAddresses */\n    tag_66:\n      0x01\n      dup2\n      dup2\n      sload\n      dup2\n      lt\n      tag_149\n      jumpi\n      0x00\n      dup1\n      revert\n    tag_149:\n      swap1\n      0x00\n      mstore\n      keccak256(0x00, 0x20)\n      add\n      0x00\n      swap2\n      pop\n      sload\n      swap1\n      0x0100\n      exp\n      swap1\n      div\n      0xffffffffffffffffffffffffffffffffffffffff\n      and\n      dup2\n      jump\t// out\n        /* \"RoamingDataManagement.sol\":5723:6361  function fetchUserDataSummary(string memory visitingOperatorName) public view returns(string[] memory, UserDataSummary[] memory) {... */\n    tag_73:\n        /* \"RoamingDataManagement.sol\":5809:5824  string[] memory */\n      0x60\n        /* \"RoamingDataManagement.sol\":5826:5850  UserDataSummary[] memory */\n      dup1\n        /* \"RoamingDataManagement.sol\":5862:5886  address homeOperatorAddr */\n      0x00\n        /* \"RoamingDataManagement.sol\":5889:5899  msg.sender */\n      caller\n        /* \"RoamingDataManagement.sol\":5862:5899  address homeOperatorAddr = msg.sender */\n      swap1\n      pop\n        /* \"RoamingDataManagement.sol\":5909:5931  string[] storage users */\n      0x00\n        /* \"RoamingDataManagement.sol\":5934:5943  userTable */\n      0x06\n        /* \"RoamingDataManagement.sol\":5934:5961  userTable[homeOperatorAddr] */\n      0x00\n        /* \"RoamingDataManagement.sol\":5944:5960  homeOperatorAddr */\n      dup4\n        /* \"RoamingDataManagement.sol\":5934:5961  userTable[homeOperatorAddr] */\n      0xffffffffffffffffffffffffffffffffffffffff\n      and\n      0xffffffffffffffffffffffffffffffffffffffff\n      and\n      dup2\n      mstore\n      0x20\n      add\n      swap1\n      dup2\n      mstore\n      0x20\n      add\n      0x00\n      keccak256\n        /* \"RoamingDataManagement.sol\":5909:5961  string[] storage users = userTable[homeOperatorAddr] */\n      swap1\n      pop\n        /* \"RoamingDataManagement.sol\":5972:6011  UserDataSummary[] memory dataSummarries */\n      0x00\n        /* \"RoamingDataManagement.sol\":6036:6045  userTable */\n      0x06\n        /* \"RoamingDataManagement.sol\":6036:6063  userTable[homeOperatorAddr] */\n      0x00\n        /* \"RoamingDataManagement.sol\":6046:6062  homeOperatorAddr */\n      dup5\n        /* \"RoamingDataManagement.sol\":6036:6063  userTable[homeOperatorAddr] */\n      0xffffffffffffffffffffffffffffffffffffffff\n      and\n      0xffffffffffffffffffffffffffffffffffffffff\n      and\n      dup2\n      mstore\n      0x20\n      add\n      swap1\n      dup2\n      mstore\n      0x20\n      add\n      0x00\n      keccak256\n        /* \"RoamingDataManagement.sol\":6036:6070  userTable[homeOperatorAddr].length */\n      dup1\n      sload\n      swap1\n      pop\n        /* \"RoamingDataManagement.sol\":6014:6071  new UserDataSummary[](userTable[homeOperatorAddr].length) */\n      0xffffffffffffffff\n      dup2\n      gt\n      iszero\n      tag_152\n      jumpi\n      tag_153\n      tag_154\n      jump\t// in\n    tag_153:\n    tag_152:\n      mload(0x40)\n      swap1\n      dup1\n      dup3\n      mstore\n      dup1\n      0x20\n      mul\n      0x20\n      add\n      dup3\n      add\n      0x40\n      mstore\n      dup1\n      iszero\n      tag_155\n      jumpi\n      dup2\n      0x20\n      add\n    tag_156:\n      tag_157\n      tag_158\n      jump\t// in\n    tag_157:\n      dup2\n      mstore\n      0x20\n      add\n      swap1\n      0x01\n      swap1\n      sub\n      swap1\n      dup2\n      tag_156\n      jumpi\n      swap1\n      pop\n    tag_155:\n      pop\n        /* \"RoamingDataManagement.sol\":5972:6071  UserDataSummary[] memory dataSummarries = new UserDataSummary[](userTable[homeOperatorAddr].length) */\n      swap1\n      pop\n        /* \"RoamingDataManagement.sol\":6086:6092  uint i */\n      0x00\n        /* \"RoamingDataManagement.sol\":6081:6292  for (uint i = 0; i < users.length; ++i) {... */\n    tag_159:\n        /* \"RoamingDataManagement.sol\":6102:6107  users */\n      dup3\n        /* \"RoamingDataManagement.sol\":6102:6114  users.length */\n      dup1\n      sload\n      swap1\n      pop\n        /* \"RoamingDataManagement.sol\":6098:6099  i */\n      dup2\n        /* \"RoamingDataManagement.sol\":6098:6114  i < users.length */\n      lt\n        /* \"RoamingDataManagement.sol\":6081:6292  for (uint i = 0; i < users.length; ++i) {... */\n      iszero\n      tag_160\n      jumpi\n        /* \"RoamingDataManagement.sol\":6135:6153  string memory imsi */\n      0x00\n        /* \"RoamingDataManagement.sol\":6156:6161  users */\n      dup4\n        /* \"RoamingDataManagement.sol\":6162:6163  i */\n      dup3\n        /* \"RoamingDataManagement.sol\":6156:6164  users[i] */\n      dup2\n      sload\n      dup2\n      lt\n      tag_162\n      jumpi\n      tag_163\n      tag_164\n      jump\t// in\n    tag_163:\n    tag_162:\n      swap1\n      0x00\n      mstore\n      keccak256(0x00, 0x20)\n      add\n        /* \"RoamingDataManagement.sol\":6135:6164  string memory imsi = users[i] */\n      dup1\n      sload\n      tag_166\n      swap1\n      tag_115\n      jump\t// in\n    tag_166:\n      dup1\n      0x1f\n      add\n      0x20\n      dup1\n      swap2\n      div\n      mul\n      0x20\n      add\n      mload(0x40)\n      swap1\n      dup2\n      add\n      0x40\n      mstore\n      dup1\n      swap3\n      swap2\n      swap1\n      dup2\n      dup2\n      mstore\n      0x20\n      add\n      dup3\n      dup1\n      sload\n      tag_167\n      swap1\n      tag_115\n      jump\t// in\n    tag_167:\n      dup1\n      iszero\n      tag_168\n      jumpi\n      dup1\n      0x1f\n      lt\n      tag_169\n      jumpi\n      0x0100\n      dup1\n      dup4\n      sload\n      div\n      mul\n      dup4\n      mstore\n      swap2\n      0x20\n      add\n      swap2\n      jump(tag_168)\n    tag_169:\n      dup3\n      add\n      swap2\n      swap1\n      0x00\n      mstore\n      keccak256(0x00, 0x20)\n      swap1\n    tag_170:\n      dup2\n      sload\n      dup2\n      mstore\n      swap1\n      0x01\n      add\n      swap1\n      0x20\n      add\n      dup1\n      dup4\n      gt\n      tag_170\n      jumpi\n      dup3\n      swap1\n      sub\n      0x1f\n      and\n      dup3\n      add\n      swap2\n    tag_168:\n      pop\n      pop\n      pop\n      pop\n      pop\n      swap1\n      pop\n        /* \"RoamingDataManagement.sol\":6198:6214  dataSummaryTable */\n      0x07\n        /* \"RoamingDataManagement.sol\":6198:6232  dataSummaryTable[homeOperatorAddr] */\n      0x00\n        /* \"RoamingDataManagement.sol\":6215:6231  homeOperatorAddr */\n      dup7\n        /* \"RoamingDataManagement.sol\":6198:6232  dataSummaryTable[homeOperatorAddr] */\n      0xffffffffffffffffffffffffffffffffffffffff\n      and\n      0xffffffffffffffffffffffffffffffffffffffff\n      and\n      dup2\n      mstore\n      0x20\n      add\n      swap1\n      dup2\n      mstore\n      0x20\n      add\n      0x00\n      keccak256\n        /* \"RoamingDataManagement.sol\":6233:6237  imsi */\n      dup2\n        /* \"RoamingDataManagement.sol\":6198:6238  dataSummaryTable[homeOperatorAddr][imsi] */\n      mload(0x40)\n      tag_171\n      swap2\n      swap1\n      tag_172\n      jump\t// in\n    tag_171:\n      swap1\n      dup2\n      mstore\n      0x20\n      add\n      mload(0x40)\n      dup1\n      swap2\n      sub\n      swap1\n      keccak256\n        /* \"RoamingDataManagement.sol\":6198:6281  dataSummaryTable[homeOperatorAddr][imsi][operatorsNameToAddr[visitingOperatorName]] */\n      0x00\n        /* \"RoamingDataManagement.sol\":6239:6258  operatorsNameToAddr */\n      0x03\n        /* \"RoamingDataManagement.sol\":6259:6279  visitingOperatorName */\n      dup11\n        /* \"RoamingDataManagement.sol\":6239:6280  operatorsNameToAddr[visitingOperatorName] */\n      mload(0x40)\n      tag_173\n      swap2\n      swap1\n      tag_172\n      jump\t// in\n    tag_173:\n      swap1\n      dup2\n      mstore\n      0x20\n      add\n      mload(0x40)\n      dup1\n      swap2\n      sub\n      swap1\n      keccak256\n      0x00\n      swap1\n      sload\n      swap1\n      0x0100\n      exp\n      swap1\n      div\n      0xffffffffffffffffffffffffffffffffffffffff\n      and\n        /* \"RoamingDataManagement.sol\":6198:6281  dataSummaryTable[homeOperatorAddr][imsi][operatorsNameToAddr[visitingOperatorName]] */\n      0xffffffffffffffffffffffffffffffffffffffff\n      and\n      0xffffffffffffffffffffffffffffffffffffffff\n      and\n      dup2\n      mstore\n      0x20\n      add\n      swap1\n      dup2\n      mstore\n      0x20\n      add\n      0x00\n      keccak256\n        /* \"RoamingDataManagement.sol\":6178:6281  dataSummarries[i] = dataSummaryTable[homeOperatorAddr][imsi][operatorsNameToAddr[visitingOperatorName]] */\n      mload(0x40)\n      dup1\n      0x0140\n      add\n      0x40\n      mstore\n      swap1\n      dup2\n      0x00\n      dup3\n      add\n      dup1\n      sload\n      tag_174\n      swap1\n      tag_115\n      jump\t// in\n    tag_174:\n      dup1\n      0x1f\n      add\n      0x20\n      dup1\n      swap2\n      div\n      mul\n      0x20\n      add\n      mload(0x40)\n      swap1\n      dup2\n      add\n      0x40\n      mstore\n      dup1\n      swap3\n      swap2\n      swap1\n      dup2\n      dup2\n      mstore\n      0x20\n      add\n      dup3\n      dup1\n      sload\n      tag_175\n      swap1\n      tag_115\n      jump\t// in\n    tag_175:\n      dup1\n      iszero\n      tag_176\n      jumpi\n      dup1\n      0x1f\n      lt\n      tag_177\n      jumpi\n      0x0100\n      dup1\n      dup4\n      sload\n      div\n      mul\n      dup4\n      mstore\n      swap2\n      0x20\n      add\n      swap2\n      jump(tag_176)\n    tag_177:\n      dup3\n      add\n      swap2\n      swap1\n      0x00\n      mstore\n      keccak256(0x00, 0x20)\n      swap1\n    tag_178:\n      dup2\n      sload\n      dup2\n      mstore\n      swap1\n      0x01\n      add\n      swap1\n      0x20\n      add\n      dup1\n      dup4\n      gt\n      tag_178\n      jumpi\n      dup3\n      swap1\n      sub\n      0x1f\n      and\n      dup3\n      add\n      swap2\n    tag_176:\n      pop\n      pop\n      pop\n      pop\n      pop\n      dup2\n      mstore\n      0x20\n      add\n      0x01\n      dup3\n      add\n      dup1\n      sload\n      tag_179\n      swap1\n      tag_115\n      jump\t// in\n    tag_179:\n      dup1\n      0x1f\n      add\n      0x20\n      dup1\n      swap2\n      div\n      mul\n      0x20\n      add\n      mload(0x40)\n      swap1\n      dup2\n      add\n      0x40\n      mstore\n      dup1\n      swap3\n      swap2\n      swap1\n      dup2\n      dup2\n      mstore\n      0x20\n      add\n      dup3\n      dup1\n      sload\n      tag_180\n      swap1\n      tag_115\n      jump\t// in\n    tag_180:\n      dup1\n      iszero\n      tag_181\n      jumpi\n      dup1\n      0x1f\n      lt\n      tag_182\n      jumpi\n      0x0100\n      dup1\n      dup4\n      sload\n      div\n      mul\n      dup4\n      mstore\n      swap2\n      0x20\n      add\n      swap2\n      jump(tag_181)\n    tag_182:\n      dup3\n      add\n      swap2\n      swap1\n      0x00\n      mstore\n      keccak256(0x00, 0x20)\n      swap1\n    tag_183:\n      dup2\n      sload\n      dup2\n      mstore\n      swap1\n      0x01\n      add\n      swap1\n      0x20\n      add\n      dup1\n      dup4\n      gt\n      tag_183\n      jumpi\n      dup3\n      swap1\n      sub\n      0x1f\n      and\n      dup3\n      add\n      swap2\n    tag_181:\n      pop\n      pop\n      pop\n      pop\n      pop\n      dup2\n      mstore\n      0x20\n      add\n      0x02\n      dup3\n      add\n      dup1\n      sload\n      tag_184\n      swap1\n      tag_115\n      jump\t// in\n    tag_184:\n      dup1\n      0x1f\n      add\n      0x20\n      dup1\n      swap2\n      div\n      mul\n      0x20\n      add\n      mload(0x40)\n      swap1\n      dup2\n      add\n      0x40\n      mstore\n      dup1\n      swap3\n      swap2\n      swap1\n      dup2\n      dup2\n      mstore\n      0x20\n      add\n      dup3\n      dup1\n      sload\n      tag_185\n      swap1\n      tag_115\n      jump\t// in\n    tag_185:\n      dup1\n      iszero\n      tag_186\n      jumpi\n      dup1\n      0x1f\n      lt\n      tag_187\n      jumpi\n      0x0100\n      dup1\n      dup4\n      sload\n      div\n      mul\n      dup4\n      mstore\n      swap2\n      0x20\n      add\n      swap2\n      jump(tag_186)\n    tag_187:\n      dup3\n      add\n      swap2\n      swap1\n      0x00\n      mstore\n      keccak256(0x00, 0x20)\n      swap1\n    tag_188:\n      dup2\n      sload\n      dup2\n      mstore\n      swap1\n      0x01\n      add\n      swap1\n      0x20\n      add\n      dup1\n      dup4\n      gt\n      tag_188\n      jumpi\n      dup3\n      swap1\n      sub\n      0x1f\n      and\n      dup3\n      add\n      swap2\n    tag_186:\n      pop\n      pop\n      pop\n      pop\n      pop\n      dup2\n      mstore\n      0x20\n      add\n      0x03\n      dup3\n      add\n      sload\n      dup2\n      mstore\n      0x20\n      add\n      0x04\n      dup3\n      add\n      sload\n      dup2\n      mstore\n      0x20\n      add\n      0x05\n      dup3\n      add\n      sload\n      dup2\n      mstore\n      0x20\n      add\n      0x06\n      dup3\n      add\n      sload\n      dup2\n      mstore\n      0x20\n      add\n      0x07\n      dup3\n      add\n      sload\n      dup2\n      mstore\n      0x20\n      add\n      0x08\n      dup3\n      add\n      sload\n      dup2\n      mstore\n      0x20\n      add\n      0x09\n      dup3\n      add\n      sload\n      dup2\n      mstore\n      pop\n      pop\n        /* \"RoamingDataManagement.sol\":6178:6192  dataSummarries */\n      dup4\n        /* \"RoamingDataManagement.sol\":6193:6194  i */\n      dup4\n        /* \"RoamingDataManagement.sol\":6178:6195  dataSummarries[i] */\n      dup2\n      mload\n      dup2\n      lt\n      tag_189\n      jumpi\n      tag_190\n      tag_164\n      jump\t// in\n    tag_190:\n    tag_189:\n      0x20\n      mul\n      0x20\n      add\n      add\n        /* \"RoamingDataManagement.sol\":6178:6281  dataSummarries[i] = dataSummaryTable[homeOperatorAddr][imsi][operatorsNameToAddr[visitingOperatorName]] */\n      dup2\n      swap1\n      mstore\n      pop\n        /* \"RoamingDataManagement.sol\":6121:6292  {... */\n      pop\n        /* \"RoamingDataManagement.sol\":6116:6119  ++i */\n      dup1\n      tag_191\n      swap1\n      tag_192\n      jump\t// in\n    tag_191:\n      swap1\n      pop\n        /* \"RoamingDataManagement.sol\":6081:6292  for (uint i = 0; i < users.length; ++i) {... */\n      jump(tag_159)\n    tag_160:\n      pop\n        /* \"RoamingDataManagement.sol\":6310:6319  userTable */\n      0x06\n        /* \"RoamingDataManagement.sol\":6310:6337  userTable[homeOperatorAddr] */\n      0x00\n        /* \"RoamingDataManagement.sol\":6320:6336  homeOperatorAddr */\n      dup5\n        /* \"RoamingDataManagement.sol\":6310:6337  userTable[homeOperatorAddr] */\n      0xffffffffffffffffffffffffffffffffffffffff\n      and\n      0xffffffffffffffffffffffffffffffffffffffff\n      and\n      dup2\n      mstore\n      0x20\n      add\n      swap1\n      dup2\n      mstore\n      0x20\n      add\n      0x00\n      keccak256\n        /* \"RoamingDataManagement.sol\":6339:6353  dataSummarries */\n      dup2\n        /* \"RoamingDataManagement.sol\":6302:6354  return (userTable[homeOperatorAddr], dataSummarries) */\n      dup2\n      dup1\n      sload\n      dup1\n      0x20\n      mul\n      0x20\n      add\n      mload(0x40)\n      swap1\n      dup2\n      add\n      0x40\n      mstore\n      dup1\n      swap3\n      swap2\n      swap1\n      dup2\n      dup2\n      mstore\n      0x20\n      add\n      0x00\n      swap1\n    tag_193:\n      dup3\n      dup3\n      lt\n      iszero\n      tag_194\n      jumpi\n      dup4\n      dup3\n      swap1\n      0x00\n      mstore\n      keccak256(0x00, 0x20)\n      add\n      dup1\n      sload\n      tag_196\n      swap1\n      tag_115\n      jump\t// in\n    tag_196:\n      dup1\n      0x1f\n      add\n      0x20\n      dup1\n      swap2\n      div\n      mul\n      0x20\n      add\n      mload(0x40)\n      swap1\n      dup2\n      add\n      0x40\n      mstore\n      dup1\n      swap3\n      swap2\n      swap1\n      dup2\n      dup2\n      mstore\n      0x20\n      add\n      dup3\n      dup1\n      sload\n      tag_197\n      swap1\n      tag_115\n      jump\t// in\n    tag_197:\n      dup1\n      iszero\n      tag_198\n      jumpi\n      dup1\n      0x1f\n      lt\n      tag_199\n      jumpi\n      0x0100\n      dup1\n      dup4\n      sload\n      div\n      mul\n      dup4\n      mstore\n      swap2\n      0x20\n      add\n      swap2\n      jump(tag_198)\n    tag_199:\n      dup3\n      add\n      swap2\n      swap1\n      0x00\n      mstore\n      keccak256(0x00, 0x20)\n      swap1\n    tag_200:\n      dup2\n      sload\n      dup2\n      mstore\n      swap1\n      0x01\n      add\n      swap1\n      0x20\n      add\n      dup1\n      dup4\n      gt\n      tag_200\n      jumpi\n      dup3\n      swap1\n      sub\n      0x1f\n      and\n      dup3\n      add\n      swap2\n    tag_198:\n      pop\n      pop\n      pop\n      pop\n      pop\n      dup2\n      mstore\n      0x20\n      add\n      swap1\n      0x01\n      add\n      swap1\n      jump(tag_193)\n    tag_194:\n      pop\n      pop\n      pop\n      pop\n      swap2\n      pop\n      swap5\n      pop\n      swap5\n      pop\n      pop\n      pop\n      pop\n        /* \"RoamingDataManagement.sol\":5723:6361  function fetchUserDataSummary(string memory visitingOperatorName) public view returns(string[] memory, UserDataSummary[] memory) {... */\n      swap2\n      pop\n      swap2\n      jump\t// out\n        /* \"RoamingDataManagement.sol\":6442:6616  function transfer(address payable _to, uint _amount) public {... */\n    tag_80:\n        /* \"RoamingDataManagement.sol\":6513:6525  bool success */\n      0x00\n        /* \"RoamingDataManagement.sol\":6531:6534  _to */\n      dup3\n        /* \"RoamingDataManagement.sol\":6531:6539  _to.call */\n      0xffffffffffffffffffffffffffffffffffffffff\n      and\n        /* \"RoamingDataManagement.sol\":6547:6554  _amount */\n      dup3\n        /* \"RoamingDataManagement.sol\":6531:6559  _to.call{value: _amount}(\"\") */\n      mload(0x40)\n      tag_202\n      swap1\n      tag_203\n      jump\t// in\n    tag_202:\n      0x00\n      mload(0x40)\n      dup1\n      dup4\n      sub\n      dup2\n      dup6\n      dup8\n      gas\n      call\n      swap3\n      pop\n      pop\n      pop\n      returndatasize\n      dup1\n      0x00\n      dup2\n      eq\n      tag_206\n      jumpi\n      mload(0x40)\n      swap2\n      pop\n      and(add(returndatasize, 0x3f), not(0x1f))\n      dup3\n      add\n      0x40\n      mstore\n      returndatasize\n      dup3\n      mstore\n      returndatasize\n      0x00\n      0x20\n      dup5\n      add\n      returndatacopy\n      jump(tag_205)\n    tag_206:\n      0x60\n      swap2\n      pop\n    tag_205:\n      pop\n        /* \"RoamingDataManagement.sol\":6512:6559  (bool success, ) = _to.call{value: _amount}(\"\") */\n      pop\n      swap1\n      pop\n        /* \"RoamingDataManagement.sol\":6577:6584  success */\n      dup1\n        /* \"RoamingDataManagement.sol\":6569:6609  require(success, \"Failed to send Ether\") */\n      tag_207\n      jumpi\n      mload(0x40)\n      0x08c379a000000000000000000000000000000000000000000000000000000000\n      dup2\n      mstore\n      0x04\n      add\n      tag_208\n      swap1\n      tag_209\n      jump\t// in\n    tag_208:\n      mload(0x40)\n      dup1\n      swap2\n      sub\n      swap1\n      revert\n    tag_207:\n        /* \"RoamingDataManagement.sol\":6502:6616  {... */\n      pop\n        /* \"RoamingDataManagement.sol\":6442:6616  function transfer(address payable _to, uint _amount) public {... */\n      pop\n      pop\n      jump\t// out\n        /* \"RoamingDataManagement.sol\":5396:5590  function dataSummaryExists(string memory imsi, string memory homeOperator) public view returns(bool) {... */\n    tag_85:\n        /* \"RoamingDataManagement.sol\":5491:5495  bool */\n      0x00\n        /* \"RoamingDataManagement.sol\":5581:5582  0 */\n      dup1\n        /* \"RoamingDataManagement.sol\":5516:5536  numOfUserDataEntries */\n      0x08\n        /* \"RoamingDataManagement.sol\":5516:5571  numOfUserDataEntries[operatorsNameToAddr[homeOperator]] */\n      0x00\n        /* \"RoamingDataManagement.sol\":5537:5556  operatorsNameToAddr */\n      0x03\n        /* \"RoamingDataManagement.sol\":5557:5569  homeOperator */\n      dup6\n        /* \"RoamingDataManagement.sol\":5537:5570  operatorsNameToAddr[homeOperator] */\n      mload(0x40)\n      tag_211\n      swap2\n      swap1\n      tag_172\n      jump\t// in\n    tag_211:\n      swap1\n      dup2\n      mstore\n      0x20\n      add\n      mload(0x40)\n      dup1\n      swap2\n      sub\n      swap1\n      keccak256\n      0x00\n      swap1\n      sload\n      swap1\n      0x0100\n      exp\n      swap1\n      div\n      0xffffffffffffffffffffffffffffffffffffffff\n      and\n        /* \"RoamingDataManagement.sol\":5516:5571  numOfUserDataEntries[operatorsNameToAddr[homeOperator]] */\n      0xffffffffffffffffffffffffffffffffffffffff\n      and\n      0xffffffffffffffffffffffffffffffffffffffff\n      and\n      dup2\n      mstore\n      0x20\n      add\n      swap1\n      dup2\n      mstore\n      0x20\n      add\n      0x00\n      keccak256\n        /* \"RoamingDataManagement.sol\":5572:5576  imsi */\n      dup5\n        /* \"RoamingDataManagement.sol\":5516:5577  numOfUserDataEntries[operatorsNameToAddr[homeOperator]][imsi] */\n      mload(0x40)\n      tag_212\n      swap2\n      swap1\n      tag_172\n      jump\t// in\n    tag_212:\n      swap1\n      dup2\n      mstore\n      0x20\n      add\n      mload(0x40)\n      dup1\n      swap2\n      sub\n      swap1\n      keccak256\n      sload\n        /* \"RoamingDataManagement.sol\":5516:5582  numOfUserDataEntries[operatorsNameToAddr[homeOperator]][imsi] == 0 */\n      eq\n        /* \"RoamingDataManagement.sol\":5514:5583  !(numOfUserDataEntries[operatorsNameToAddr[homeOperator]][imsi] == 0) */\n      iszero\n        /* \"RoamingDataManagement.sol\":5507:5583  return !(numOfUserDataEntries[operatorsNameToAddr[homeOperator]][imsi] == 0) */\n      swap1\n      pop\n        /* \"RoamingDataManagement.sol\":5396:5590  function dataSummaryExists(string memory imsi, string memory homeOperator) public view returns(bool) {... */\n      swap3\n      swap2\n      pop\n      pop\n      jump\t// out\n        /* \"RoamingDataManagement.sol\":2061:2160  function balance() external view returns(uint256)... */\n    tag_90:\n        /* \"RoamingDataManagement.sol\":2102:2109  uint256 */\n      0x00\n        /* \"RoamingDataManagement.sol\":2132:2153  address(this).balance */\n      selfbalance\n        /* \"RoamingDataManagement.sol\":2125:2153  return address(this).balance */\n      swap1\n      pop\n        /* \"RoamingDataManagement.sol\":2061:2160  function balance() external view returns(uint256)... */\n      swap1\n      jump\t// out\n        /* \"RoamingDataManagement.sol\":2166:3126  function registerRoamingOperator(address operatorAddr, string memory operatorName) public payable {... */\n    tag_95:\n        /* \"RoamingDataManagement.sol\":2561:2562  0 */\n      0x00\n        /* \"RoamingDataManagement.sol\":2516:2535  operatorsAddrToName */\n      0x02\n        /* \"RoamingDataManagement.sol\":2516:2549  operatorsAddrToName[operatorAddr] */\n      0x00\n        /* \"RoamingDataManagement.sol\":2536:2548  operatorAddr */\n      dup5\n        /* \"RoamingDataManagement.sol\":2516:2549  operatorsAddrToName[operatorAddr] */\n      0xffffffffffffffffffffffffffffffffffffffff\n      and\n      0xffffffffffffffffffffffffffffffffffffffff\n      and\n      dup2\n      mstore\n      0x20\n      add\n      swap1\n      dup2\n      mstore\n      0x20\n      add\n      0x00\n      keccak256\n        /* \"RoamingDataManagement.sol\":2510:2557  bytes(operatorsAddrToName[operatorAddr]).length */\n      dup1\n      sload\n      tag_215\n      swap1\n      tag_115\n      jump\t// in\n    tag_215:\n      swap1\n      pop\n        /* \"RoamingDataManagement.sol\":2510:2562  bytes(operatorsAddrToName[operatorAddr]).length == 0 */\n      eq\n        /* \"RoamingDataManagement.sol\":2510:2616  bytes(operatorsAddrToName[operatorAddr]).length == 0 && operatorsNameToAddr[operatorName] == address(0x00) */\n      dup1\n      iszero\n      tag_216\n      jumpi\n      pop\n        /* \"RoamingDataManagement.sol\":2611:2615  0x00 */\n      0x00\n        /* \"RoamingDataManagement.sol\":2566:2616  operatorsNameToAddr[operatorName] == address(0x00) */\n      0xffffffffffffffffffffffffffffffffffffffff\n      and\n        /* \"RoamingDataManagement.sol\":2566:2585  operatorsNameToAddr */\n      0x03\n        /* \"RoamingDataManagement.sol\":2586:2598  operatorName */\n      dup3\n        /* \"RoamingDataManagement.sol\":2566:2599  operatorsNameToAddr[operatorName] */\n      mload(0x40)\n      tag_217\n      swap2\n      swap1\n      tag_172\n      jump\t// in\n    tag_217:\n      swap1\n      dup2\n      mstore\n      0x20\n      add\n      mload(0x40)\n      dup1\n      swap2\n      sub\n      swap1\n      keccak256\n      0x00\n      swap1\n      sload\n      swap1\n      0x0100\n      exp\n      swap1\n      div\n      0xffffffffffffffffffffffffffffffffffffffff\n      and\n        /* \"RoamingDataManagement.sol\":2566:2616  operatorsNameToAddr[operatorName] == address(0x00) */\n      0xffffffffffffffffffffffffffffffffffffffff\n      and\n      eq\n        /* \"RoamingDataManagement.sol\":2510:2616  bytes(operatorsAddrToName[operatorAddr]).length == 0 && operatorsNameToAddr[operatorName] == address(0x00) */\n    tag_216:\n        /* \"RoamingDataManagement.sol\":2506:3120  if (bytes(operatorsAddrToName[operatorAddr]).length == 0 && operatorsNameToAddr[operatorName] == address(0x00)) {... */\n      iszero\n      tag_218\n      jumpi\n        /* \"RoamingDataManagement.sol\":2653:2660  100 wei */\n      0x64\n        /* \"RoamingDataManagement.sol\":2640:2649  msg.value */\n      callvalue\n        /* \"RoamingDataManagement.sol\":2640:2660  msg.value >= 100 wei */\n      lt\n      iszero\n        /* \"RoamingDataManagement.sol\":2632:2661  require(msg.value >= 100 wei) */\n      tag_219\n      jumpi\n      0x00\n      dup1\n      revert\n    tag_219:\n        /* \"RoamingDataManagement.sol\":2676:2692  serviceProviders */\n      0x00\n        /* \"RoamingDataManagement.sol\":2698:2710  operatorName */\n      dup2\n        /* \"RoamingDataManagement.sol\":2676:2711  serviceProviders.push(operatorName) */\n      swap1\n      dup1\n      0x01\n      dup2\n      sload\n      add\n      dup1\n      dup3\n      sstore\n      dup1\n      swap2\n      pop\n      pop\n      0x01\n      swap1\n      sub\n      swap1\n      0x00\n      mstore\n      keccak256(0x00, 0x20)\n      add\n      0x00\n      swap1\n      swap2\n      swap1\n      swap2\n      swap1\n      swap2\n      pop\n      swap1\n      dup2\n      tag_221\n      swap2\n      swap1\n      tag_222\n      jump\t// in\n    tag_221:\n      pop\n        /* \"RoamingDataManagement.sol\":2725:2742  operatorAddresses */\n      0x01\n        /* \"RoamingDataManagement.sol\":2748:2760  operatorAddr */\n      dup3\n        /* \"RoamingDataManagement.sol\":2725:2761  operatorAddresses.push(operatorAddr) */\n      swap1\n      dup1\n      0x01\n      dup2\n      sload\n      add\n      dup1\n      dup3\n      sstore\n      dup1\n      swap2\n      pop\n      pop\n      0x01\n      swap1\n      sub\n      swap1\n      0x00\n      mstore\n      keccak256(0x00, 0x20)\n      add\n      0x00\n      swap1\n      swap2\n      swap1\n      swap2\n      swap1\n      swap2\n      0x0100\n      exp\n      dup2\n      sload\n      dup2\n      0xffffffffffffffffffffffffffffffffffffffff\n      mul\n      not\n      and\n      swap1\n      dup4\n      0xffffffffffffffffffffffffffffffffffffffff\n      and\n      mul\n      or\n      swap1\n      sstore\n      pop\n        /* \"RoamingDataManagement.sol\":2814:2826  operatorAddr */\n      dup2\n        /* \"RoamingDataManagement.sol\":2778:2797  operatorsNameToAddr */\n      0x03\n        /* \"RoamingDataManagement.sol\":2798:2810  operatorName */\n      dup3\n        /* \"RoamingDataManagement.sol\":2778:2811  operatorsNameToAddr[operatorName] */\n      mload(0x40)\n      tag_224\n      swap2\n      swap1\n      tag_172\n      jump\t// in\n    tag_224:\n      swap1\n      dup2\n      mstore\n      0x20\n      add\n      mload(0x40)\n      dup1\n      swap2\n      sub\n      swap1\n      keccak256\n      0x00\n        /* \"RoamingDataManagement.sol\":2778:2826  operatorsNameToAddr[operatorName] = operatorAddr */\n      0x0100\n      exp\n      dup2\n      sload\n      dup2\n      0xffffffffffffffffffffffffffffffffffffffff\n      mul\n      not\n      and\n      swap1\n      dup4\n      0xffffffffffffffffffffffffffffffffffffffff\n      and\n      mul\n      or\n      swap1\n      sstore\n      pop\n        /* \"RoamingDataManagement.sol\":2876:2888  operatorName */\n      dup1\n        /* \"RoamingDataManagement.sol\":2840:2859  operatorsAddrToName */\n      0x02\n        /* \"RoamingDataManagement.sol\":2840:2873  operatorsAddrToName[operatorAddr] */\n      0x00\n        /* \"RoamingDataManagement.sol\":2860:2872  operatorAddr */\n      dup5\n        /* \"RoamingDataManagement.sol\":2840:2873  operatorsAddrToName[operatorAddr] */\n      0xffffffffffffffffffffffffffffffffffffffff\n      and\n      0xffffffffffffffffffffffffffffffffffffffff\n      and\n      dup2\n      mstore\n      0x20\n      add\n      swap1\n      dup2\n      mstore\n      0x20\n      add\n      0x00\n      keccak256\n        /* \"RoamingDataManagement.sol\":2840:2888  operatorsAddrToName[operatorAddr] = operatorName */\n      swap1\n      dup2\n      tag_225\n      swap2\n      swap1\n      tag_222\n      jump\t// in\n    tag_225:\n      pop\n        /* \"RoamingDataManagement.sol\":2924:2933  msg.value */\n      callvalue\n        /* \"RoamingDataManagement.sol\":2902:2906  bank */\n      0x09\n        /* \"RoamingDataManagement.sol\":2902:2920  bank[operatorAddr] */\n      0x00\n        /* \"RoamingDataManagement.sol\":2907:2919  operatorAddr */\n      dup5\n        /* \"RoamingDataManagement.sol\":2902:2920  bank[operatorAddr] */\n      0xffffffffffffffffffffffffffffffffffffffff\n      and\n      0xffffffffffffffffffffffffffffffffffffffff\n      and\n      dup2\n      mstore\n      0x20\n      add\n      swap1\n      dup2\n      mstore\n      0x20\n      add\n      0x00\n      keccak256\n      0x00\n        /* \"RoamingDataManagement.sol\":2902:2933  bank[operatorAddr] += msg.value */\n      dup3\n      dup3\n      sload\n      tag_226\n      swap2\n      swap1\n      tag_227\n      jump\t// in\n    tag_226:\n      swap3\n      pop\n      pop\n      dup2\n      swap1\n      sstore\n      pop\n        /* \"RoamingDataManagement.sol\":2506:3120  if (bytes(operatorsAddrToName[operatorAddr]).length == 0 && operatorsNameToAddr[operatorName] == address(0x00)) {... */\n    tag_218:\n        /* \"RoamingDataManagement.sol\":2166:3126  function registerRoamingOperator(address operatorAddr, string memory operatorName) public payable {... */\n      pop\n      pop\n      jump\t// out\n        /* \"RoamingDataManagement.sol\":1897:1977  function deposit() public payable... */\n    tag_97:\n        /* \"RoamingDataManagement.sol\":1961:1970  msg.value */\n      callvalue\n        /* \"RoamingDataManagement.sol\":1945:1957  totalDeposit */\n      0x04\n      0x00\n        /* \"RoamingDataManagement.sol\":1945:1970  totalDeposit += msg.value */\n      dup3\n      dup3\n      sload\n      tag_229\n      swap2\n      swap1\n      tag_227\n      jump\t// in\n    tag_229:\n      swap3\n      pop\n      pop\n      dup2\n      swap1\n      sstore\n      pop\n        /* \"RoamingDataManagement.sol\":1897:1977  function deposit() public payable... */\n      jump\t// out\n        /* \"RoamingDataManagement.sol\":3132:5390  function uploadUserDataSummary(string memory imsi, string memory number, string memory serviceProvider, ... */\n    tag_102:\n        /* \"RoamingDataManagement.sol\":3431:3455  address visitingOperator */\n      0x00\n        /* \"RoamingDataManagement.sol\":3458:3468  msg.sender */\n      caller\n        /* \"RoamingDataManagement.sol\":3431:3468  address visitingOperator = msg.sender */\n      swap1\n      pop\n        /* \"RoamingDataManagement.sol\":3541:3542  0 */\n      0x00\n        /* \"RoamingDataManagement.sol\":3492:3511  operatorsAddrToName */\n      0x02\n        /* \"RoamingDataManagement.sol\":3492:3529  operatorsAddrToName[visitingOperator] */\n      0x00\n        /* \"RoamingDataManagement.sol\":3512:3528  visitingOperator */\n      dup4\n        /* \"RoamingDataManagement.sol\":3492:3529  operatorsAddrToName[visitingOperator] */\n      0xffffffffffffffffffffffffffffffffffffffff\n      and\n      0xffffffffffffffffffffffffffffffffffffffff\n      and\n      dup2\n      mstore\n      0x20\n      add\n      swap1\n      dup2\n      mstore\n      0x20\n      add\n      0x00\n      keccak256\n        /* \"RoamingDataManagement.sol\":3486:3537  bytes(operatorsAddrToName[visitingOperator]).length */\n      dup1\n      sload\n      tag_231\n      swap1\n      tag_115\n      jump\t// in\n    tag_231:\n      swap1\n      pop\n        /* \"RoamingDataManagement.sol\":3486:3542  bytes(operatorsAddrToName[visitingOperator]).length != 0 */\n      sub\n        /* \"RoamingDataManagement.sol\":3478:3543  require(bytes(operatorsAddrToName[visitingOperator]).length != 0) */\n      tag_232\n      jumpi\n      0x00\n      dup1\n      revert\n    tag_232:\n        /* \"RoamingDataManagement.sol\":3609:3612  0x0 */\n      0x00\n        /* \"RoamingDataManagement.sol\":3561:3613  operatorsNameToAddr[serviceProvider] != address(0x0) */\n      0xffffffffffffffffffffffffffffffffffffffff\n      and\n        /* \"RoamingDataManagement.sol\":3561:3580  operatorsNameToAddr */\n      0x03\n        /* \"RoamingDataManagement.sol\":3581:3596  serviceProvider */\n      dup11\n        /* \"RoamingDataManagement.sol\":3561:3597  operatorsNameToAddr[serviceProvider] */\n      mload(0x40)\n      tag_233\n      swap2\n      swap1\n      tag_172\n      jump\t// in\n    tag_233:\n      swap1\n      dup2\n      mstore\n      0x20\n      add\n      mload(0x40)\n      dup1\n      swap2\n      sub\n      swap1\n      keccak256\n      0x00\n      swap1\n      sload\n      swap1\n      0x0100\n      exp\n      swap1\n      div\n      0xffffffffffffffffffffffffffffffffffffffff\n      and\n        /* \"RoamingDataManagement.sol\":3561:3613  operatorsNameToAddr[serviceProvider] != address(0x0) */\n      0xffffffffffffffffffffffffffffffffffffffff\n      and\n      sub\n        /* \"RoamingDataManagement.sol\":3553:3614  require(operatorsNameToAddr[serviceProvider] != address(0x0)) */\n      tag_234\n      jumpi\n      0x00\n      dup1\n      revert\n    tag_234:\n        /* \"RoamingDataManagement.sol\":3678:3683  1 wei */\n      0x01\n        /* \"RoamingDataManagement.sol\":3632:3636  bank */\n      0x09\n        /* \"RoamingDataManagement.sol\":3632:3674  bank[operatorsNameToAddr[serviceProvider]] */\n      0x00\n        /* \"RoamingDataManagement.sol\":3637:3656  operatorsNameToAddr */\n      0x03\n        /* \"RoamingDataManagement.sol\":3657:3672  serviceProvider */\n      dup13\n        /* \"RoamingDataManagement.sol\":3637:3673  operatorsNameToAddr[serviceProvider] */\n      mload(0x40)\n      tag_235\n      swap2\n      swap1\n      tag_172\n      jump\t// in\n    tag_235:\n      swap1\n      dup2\n      mstore\n      0x20\n      add\n      mload(0x40)\n      dup1\n      swap2\n      sub\n      swap1\n      keccak256\n      0x00\n      swap1\n      sload\n      swap1\n      0x0100\n      exp\n      swap1\n      div\n      0xffffffffffffffffffffffffffffffffffffffff\n      and\n        /* \"RoamingDataManagement.sol\":3632:3674  bank[operatorsNameToAddr[serviceProvider]] */\n      0xffffffffffffffffffffffffffffffffffffffff\n      and\n      0xffffffffffffffffffffffffffffffffffffffff\n      and\n      dup2\n      mstore\n      0x20\n      add\n      swap1\n      dup2\n      mstore\n      0x20\n      add\n      0x00\n      keccak256\n      sload\n        /* \"RoamingDataManagement.sol\":3632:3683  bank[operatorsNameToAddr[serviceProvider]] >= 1 wei */\n      lt\n      iszero\n        /* \"RoamingDataManagement.sol\":3624:3684  require(bank[operatorsNameToAddr[serviceProvider]] >= 1 wei) */\n      tag_236\n      jumpi\n      0x00\n      dup1\n      revert\n    tag_236:\n        /* \"RoamingDataManagement.sol\":3695:3776  mapping(string => mapping(address => UserDataSummary)) storage userToSummaryTable */\n      0x00\n        /* \"RoamingDataManagement.sol\":3779:3795  dataSummaryTable */\n      0x07\n        /* \"RoamingDataManagement.sol\":3779:3833  dataSummaryTable[operatorsNameToAddr[serviceProvider]] */\n      0x00\n        /* \"RoamingDataManagement.sol\":3796:3815  operatorsNameToAddr */\n      0x03\n        /* \"RoamingDataManagement.sol\":3816:3831  serviceProvider */\n      dup13\n        /* \"RoamingDataManagement.sol\":3796:3832  operatorsNameToAddr[serviceProvider] */\n      mload(0x40)\n      tag_237\n      swap2\n      swap1\n      tag_172\n      jump\t// in\n    tag_237:\n      swap1\n      dup2\n      mstore\n      0x20\n      add\n      mload(0x40)\n      dup1\n      swap2\n      sub\n      swap1\n      keccak256\n      0x00\n      swap1\n      sload\n      swap1\n      0x0100\n      exp\n      swap1\n      div\n      0xffffffffffffffffffffffffffffffffffffffff\n      and\n        /* \"RoamingDataManagement.sol\":3779:3833  dataSummaryTable[operatorsNameToAddr[serviceProvider]] */\n      0xffffffffffffffffffffffffffffffffffffffff\n      and\n      0xffffffffffffffffffffffffffffffffffffffff\n      and\n      dup2\n      mstore\n      0x20\n      add\n      swap1\n      dup2\n      mstore\n      0x20\n      add\n      0x00\n      keccak256\n        /* \"RoamingDataManagement.sol\":3695:3833  mapping(string => mapping(address => UserDataSummary)) storage userToSummaryTable = dataSummaryTable[operatorsNameToAddr[serviceProvider]] */\n      swap1\n      pop\n        /* \"RoamingDataManagement.sol\":3848:3888  dataSummaryExists(imsi, serviceProvider) */\n      tag_238\n        /* \"RoamingDataManagement.sol\":3866:3870  imsi */\n      dup13\n        /* \"RoamingDataManagement.sol\":3872:3887  serviceProvider */\n      dup12\n        /* \"RoamingDataManagement.sol\":3848:3865  dataSummaryExists */\n      tag_85\n        /* \"RoamingDataManagement.sol\":3848:3888  dataSummaryExists(imsi, serviceProvider) */\n      jump\t// in\n    tag_238:\n        /* \"RoamingDataManagement.sol\":3843:4053  if (!dataSummaryExists(imsi, serviceProvider)) {... */\n      tag_239\n      jumpi\n        /* \"RoamingDataManagement.sol\":3904:3913  userTable */\n      0x06\n        /* \"RoamingDataManagement.sol\":3904:3951  userTable[operatorsNameToAddr[serviceProvider]] */\n      0x00\n        /* \"RoamingDataManagement.sol\":3914:3933  operatorsNameToAddr */\n      0x03\n        /* \"RoamingDataManagement.sol\":3934:3949  serviceProvider */\n      dup13\n        /* \"RoamingDataManagement.sol\":3914:3950  operatorsNameToAddr[serviceProvider] */\n      mload(0x40)\n      tag_240\n      swap2\n      swap1\n      tag_172\n      jump\t// in\n    tag_240:\n      swap1\n      dup2\n      mstore\n      0x20\n      add\n      mload(0x40)\n      dup1\n      swap2\n      sub\n      swap1\n      keccak256\n      0x00\n      swap1\n      sload\n      swap1\n      0x0100\n      exp\n      swap1\n      div\n      0xffffffffffffffffffffffffffffffffffffffff\n      and\n        /* \"RoamingDataManagement.sol\":3904:3951  userTable[operatorsNameToAddr[serviceProvider]] */\n      0xffffffffffffffffffffffffffffffffffffffff\n      and\n      0xffffffffffffffffffffffffffffffffffffffff\n      and\n      dup2\n      mstore\n      0x20\n      add\n      swap1\n      dup2\n      mstore\n      0x20\n      add\n      0x00\n      keccak256\n        /* \"RoamingDataManagement.sol\":3957:3961  imsi */\n      dup13\n        /* \"RoamingDataManagement.sol\":3904:3962  userTable[operatorsNameToAddr[serviceProvider]].push(imsi) */\n      swap1\n      dup1\n      0x01\n      dup2\n      sload\n      add\n      dup1\n      dup3\n      sstore\n      dup1\n      swap2\n      pop\n      pop\n      0x01\n      swap1\n      sub\n      swap1\n      0x00\n      mstore\n      keccak256(0x00, 0x20)\n      add\n      0x00\n      swap1\n      swap2\n      swap1\n      swap2\n      swap1\n      swap2\n      pop\n      swap1\n      dup2\n      tag_242\n      swap2\n      swap1\n      tag_222\n      jump\t// in\n    tag_242:\n      pop\n        /* \"RoamingDataManagement.sol\":3976:3996  numOfUserDataEntries */\n      0x08\n        /* \"RoamingDataManagement.sol\":3976:4034  numOfUserDataEntries[operatorsNameToAddr[serviceProvider]] */\n      0x00\n        /* \"RoamingDataManagement.sol\":3997:4016  operatorsNameToAddr */\n      0x03\n        /* \"RoamingDataManagement.sol\":4017:4032  serviceProvider */\n      dup13\n        /* \"RoamingDataManagement.sol\":3997:4033  operatorsNameToAddr[serviceProvider] */\n      mload(0x40)\n      tag_243\n      swap2\n      swap1\n      tag_172\n      jump\t// in\n    tag_243:\n      swap1\n      dup2\n      mstore\n      0x20\n      add\n      mload(0x40)\n      dup1\n      swap2\n      sub\n      swap1\n      keccak256\n      0x00\n      swap1\n      sload\n      swap1\n      0x0100\n      exp\n      swap1\n      div\n      0xffffffffffffffffffffffffffffffffffffffff\n      and\n        /* \"RoamingDataManagement.sol\":3976:4034  numOfUserDataEntries[operatorsNameToAddr[serviceProvider]] */\n      0xffffffffffffffffffffffffffffffffffffffff\n      and\n      0xffffffffffffffffffffffffffffffffffffffff\n      and\n      dup2\n      mstore\n      0x20\n      add\n      swap1\n      dup2\n      mstore\n      0x20\n      add\n      0x00\n      keccak256\n        /* \"RoamingDataManagement.sol\":4035:4039  imsi */\n      dup13\n        /* \"RoamingDataManagement.sol\":3976:4040  numOfUserDataEntries[operatorsNameToAddr[serviceProvider]][imsi] */\n      mload(0x40)\n      tag_244\n      swap2\n      swap1\n      tag_172\n      jump\t// in\n    tag_244:\n      swap1\n      dup2\n      mstore\n      0x20\n      add\n      mload(0x40)\n      dup1\n      swap2\n      sub\n      swap1\n      keccak256\n      0x00\n        /* \"RoamingDataManagement.sol\":3976:4042  numOfUserDataEntries[operatorsNameToAddr[serviceProvider]][imsi]++ */\n      dup2\n      sload\n      dup1\n      swap3\n      swap2\n      swap1\n      tag_245\n      swap1\n      tag_192\n      jump\t// in\n    tag_245:\n      swap2\n      swap1\n      pop\n      sstore\n      pop\n        /* \"RoamingDataManagement.sol\":3843:4053  if (!dataSummaryExists(imsi, serviceProvider)) {... */\n    tag_239:\n        /* \"RoamingDataManagement.sol\":4071:4151  mapping(address => UserDataSummary) storage usageSummaryTablePerVisitingOperator */\n      0x00\n        /* \"RoamingDataManagement.sol\":4154:4172  userToSummaryTable */\n      dup2\n        /* \"RoamingDataManagement.sol\":4173:4177  imsi */\n      dup14\n        /* \"RoamingDataManagement.sol\":4154:4178  userToSummaryTable[imsi] */\n      mload(0x40)\n      tag_246\n      swap2\n      swap1\n      tag_172\n      jump\t// in\n    tag_246:\n      swap1\n      dup2\n      mstore\n      0x20\n      add\n      mload(0x40)\n      dup1\n      swap2\n      sub\n      swap1\n      keccak256\n        /* \"RoamingDataManagement.sol\":4071:4178  mapping(address => UserDataSummary) storage usageSummaryTablePerVisitingOperator = userToSummaryTable[imsi] */\n      swap1\n      pop\n        /* \"RoamingDataManagement.sol\":4250:4254  imsi */\n      dup13\n        /* \"RoamingDataManagement.sol\":4188:4224  usageSummaryTablePerVisitingOperator */\n      dup2\n        /* \"RoamingDataManagement.sol\":4188:4242  usageSummaryTablePerVisitingOperator[visitingOperator] */\n      0x00\n        /* \"RoamingDataManagement.sol\":4225:4241  visitingOperator */\n      dup6\n        /* \"RoamingDataManagement.sol\":4188:4242  usageSummaryTablePerVisitingOperator[visitingOperator] */\n      0xffffffffffffffffffffffffffffffffffffffff\n      and\n      0xffffffffffffffffffffffffffffffffffffffff\n      and\n      dup2\n      mstore\n      0x20\n      add\n      swap1\n      dup2\n      mstore\n      0x20\n      add\n      0x00\n      keccak256\n        /* \"RoamingDataManagement.sol\":4188:4247  usageSummaryTablePerVisitingOperator[visitingOperator].imsi */\n      0x00\n      add\n        /* \"RoamingDataManagement.sol\":4188:4254  usageSummaryTablePerVisitingOperator[visitingOperator].imsi = imsi */\n      swap1\n      dup2\n      tag_247\n      swap2\n      swap1\n      tag_222\n      jump\t// in\n    tag_247:\n      pop\n        /* \"RoamingDataManagement.sol\":4328:4334  number */\n      dup12\n        /* \"RoamingDataManagement.sol\":4264:4300  usageSummaryTablePerVisitingOperator */\n      dup2\n        /* \"RoamingDataManagement.sol\":4264:4318  usageSummaryTablePerVisitingOperator[visitingOperator] */\n      0x00\n        /* \"RoamingDataManagement.sol\":4301:4317  visitingOperator */\n      dup6\n        /* \"RoamingDataManagement.sol\":4264:4318  usageSummaryTablePerVisitingOperator[visitingOperator] */\n      0xffffffffffffffffffffffffffffffffffffffff\n      and\n      0xffffffffffffffffffffffffffffffffffffffff\n      and\n      dup2\n      mstore\n      0x20\n      add\n      swap1\n      dup2\n      mstore\n      0x20\n      add\n      0x00\n      keccak256\n        /* \"RoamingDataManagement.sol\":4264:4325  usageSummaryTablePerVisitingOperator[visitingOperator].number */\n      0x01\n      add\n        /* \"RoamingDataManagement.sol\":4264:4334  usageSummaryTablePerVisitingOperator[visitingOperator].number = number */\n      swap1\n      dup2\n      tag_248\n      swap2\n      swap1\n      tag_222\n      jump\t// in\n    tag_248:\n      pop\n        /* \"RoamingDataManagement.sol\":4417:4432  serviceProvider */\n      dup11\n        /* \"RoamingDataManagement.sol\":4344:4380  usageSummaryTablePerVisitingOperator */\n      dup2\n        /* \"RoamingDataManagement.sol\":4344:4398  usageSummaryTablePerVisitingOperator[visitingOperator] */\n      0x00\n        /* \"RoamingDataManagement.sol\":4381:4397  visitingOperator */\n      dup6\n        /* \"RoamingDataManagement.sol\":4344:4398  usageSummaryTablePerVisitingOperator[visitingOperator] */\n      0xffffffffffffffffffffffffffffffffffffffff\n      and\n      0xffffffffffffffffffffffffffffffffffffffff\n      and\n      dup2\n      mstore\n      0x20\n      add\n      swap1\n      dup2\n      mstore\n      0x20\n      add\n      0x00\n      keccak256\n        /* \"RoamingDataManagement.sol\":4344:4414  usageSummaryTablePerVisitingOperator[visitingOperator].serviceProvider */\n      0x02\n      add\n        /* \"RoamingDataManagement.sol\":4344:4432  usageSummaryTablePerVisitingOperator[visitingOperator].serviceProvider = serviceProvider */\n      swap1\n      dup2\n      tag_249\n      swap2\n      swap1\n      tag_222\n      jump\t// in\n    tag_249:\n      pop\n        /* \"RoamingDataManagement.sol\":4514:4528  voiceCallUsage */\n      dup10\n        /* \"RoamingDataManagement.sol\":4442:4478  usageSummaryTablePerVisitingOperator */\n      dup2\n        /* \"RoamingDataManagement.sol\":4442:4496  usageSummaryTablePerVisitingOperator[visitingOperator] */\n      0x00\n        /* \"RoamingDataManagement.sol\":4479:4495  visitingOperator */\n      dup6\n        /* \"RoamingDataManagement.sol\":4442:4496  usageSummaryTablePerVisitingOperator[visitingOperator] */\n      0xffffffffffffffffffffffffffffffffffffffff\n      and\n      0xffffffffffffffffffffffffffffffffffffffff\n      and\n      dup2\n      mstore\n      0x20\n      add\n      swap1\n      dup2\n      mstore\n      0x20\n      add\n      0x00\n      keccak256\n        /* \"RoamingDataManagement.sol\":4442:4511  usageSummaryTablePerVisitingOperator[visitingOperator].voiceCallUsage */\n      0x07\n      add\n        /* \"RoamingDataManagement.sol\":4442:4528  usageSummaryTablePerVisitingOperator[visitingOperator].voiceCallUsage = voiceCallUsage */\n      dup2\n      swap1\n      sstore\n      pop\n        /* \"RoamingDataManagement.sol\":4609:4622  internetUsage */\n      dup9\n        /* \"RoamingDataManagement.sol\":4538:4574  usageSummaryTablePerVisitingOperator */\n      dup2\n        /* \"RoamingDataManagement.sol\":4538:4592  usageSummaryTablePerVisitingOperator[visitingOperator] */\n      0x00\n        /* \"RoamingDataManagement.sol\":4575:4591  visitingOperator */\n      dup6\n        /* \"RoamingDataManagement.sol\":4538:4592  usageSummaryTablePerVisitingOperator[visitingOperator] */\n      0xffffffffffffffffffffffffffffffffffffffff\n      and\n      0xffffffffffffffffffffffffffffffffffffffff\n      and\n      dup2\n      mstore\n      0x20\n      add\n      swap1\n      dup2\n      mstore\n      0x20\n      add\n      0x00\n      keccak256\n        /* \"RoamingDataManagement.sol\":4538:4606  usageSummaryTablePerVisitingOperator[visitingOperator].internetUsage */\n      0x08\n      add\n        /* \"RoamingDataManagement.sol\":4538:4622  usageSummaryTablePerVisitingOperator[visitingOperator].internetUsage = internetUsage */\n      dup2\n      swap1\n      sstore\n      pop\n        /* \"RoamingDataManagement.sol\":4698:4706  smsUsage */\n      dup8\n        /* \"RoamingDataManagement.sol\":4632:4668  usageSummaryTablePerVisitingOperator */\n      dup2\n        /* \"RoamingDataManagement.sol\":4632:4686  usageSummaryTablePerVisitingOperator[visitingOperator] */\n      0x00\n        /* \"RoamingDataManagement.sol\":4669:4685  visitingOperator */\n      dup6\n        /* \"RoamingDataManagement.sol\":4632:4686  usageSummaryTablePerVisitingOperator[visitingOperator] */\n      0xffffffffffffffffffffffffffffffffffffffff\n      and\n      0xffffffffffffffffffffffffffffffffffffffff\n      and\n      dup2\n      mstore\n      0x20\n      add\n      swap1\n      dup2\n      mstore\n      0x20\n      add\n      0x00\n      keccak256\n        /* \"RoamingDataManagement.sol\":4632:4695  usageSummaryTablePerVisitingOperator[visitingOperator].smsUsage */\n      0x09\n      add\n        /* \"RoamingDataManagement.sol\":4632:4706  usageSummaryTablePerVisitingOperator[visitingOperator].smsUsage = smsUsage */\n      dup2\n      swap1\n      sstore\n      pop\n        /* \"RoamingDataManagement.sol\":4791:4807  serviceStartTime */\n      dup7\n        /* \"RoamingDataManagement.sol\":4717:4753  usageSummaryTablePerVisitingOperator */\n      dup2\n        /* \"RoamingDataManagement.sol\":4717:4771  usageSummaryTablePerVisitingOperator[visitingOperator] */\n      0x00\n        /* \"RoamingDataManagement.sol\":4754:4770  visitingOperator */\n      dup6\n        /* \"RoamingDataManagement.sol\":4717:4771  usageSummaryTablePerVisitingOperator[visitingOperator] */\n      0xffffffffffffffffffffffffffffffffffffffff\n      and\n      0xffffffffffffffffffffffffffffffffffffffff\n      and\n      dup2\n      mstore\n      0x20\n      add\n      swap1\n      dup2\n      mstore\n      0x20\n      add\n      0x00\n      keccak256\n        /* \"RoamingDataManagement.sol\":4717:4788  usageSummaryTablePerVisitingOperator[visitingOperator].serviceStartTime */\n      0x03\n      add\n        /* \"RoamingDataManagement.sol\":4717:4807  usageSummaryTablePerVisitingOperator[visitingOperator].serviceStartTime = serviceStartTime */\n      dup2\n      swap1\n      sstore\n      pop\n        /* \"RoamingDataManagement.sol\":4892:4909  internetStartTime */\n      dup6\n        /* \"RoamingDataManagement.sol\":4817:4853  usageSummaryTablePerVisitingOperator */\n      dup2\n        /* \"RoamingDataManagement.sol\":4817:4871  usageSummaryTablePerVisitingOperator[visitingOperator] */\n      0x00\n        /* \"RoamingDataManagement.sol\":4854:4870  visitingOperator */\n      dup6\n        /* \"RoamingDataManagement.sol\":4817:4871  usageSummaryTablePerVisitingOperator[visitingOperator] */\n      0xffffffffffffffffffffffffffffffffffffffff\n      and\n      0xffffffffffffffffffffffffffffffffffffffff\n      and\n      dup2\n      mstore\n      0x20\n      add\n      swap1\n      dup2\n      mstore\n      0x20\n      add\n      0x00\n      keccak256\n        /* \"RoamingDataManagement.sol\":4817:4889  usageSummaryTablePerVisitingOperator[visitingOperator].internetStartTime */\n      0x06\n      add\n        /* \"RoamingDataManagement.sol\":4817:4909  usageSummaryTablePerVisitingOperator[visitingOperator].internetStartTime = internetStartTime */\n      dup2\n      swap1\n      sstore\n      pop\n        /* \"RoamingDataManagement.sol\":4995:5013  voiceCallStartTime */\n      dup5\n        /* \"RoamingDataManagement.sol\":4919:4955  usageSummaryTablePerVisitingOperator */\n      dup2\n        /* \"RoamingDataManagement.sol\":4919:4973  usageSummaryTablePerVisitingOperator[visitingOperator] */\n      0x00\n        /* \"RoamingDataManagement.sol\":4956:4972  visitingOperator */\n      dup6\n        /* \"RoamingDataManagement.sol\":4919:4973  usageSummaryTablePerVisitingOperator[visitingOperator] */\n      0xffffffffffffffffffffffffffffffffffffffff\n      and\n      0xffffffffffffffffffffffffffffffffffffffff\n      and\n      dup2\n      mstore\n      0x20\n      add\n      swap1\n      dup2\n      mstore\n      0x20\n      add\n      0x00\n      keccak256\n        /* \"RoamingDataManagement.sol\":4919:4992  usageSummaryTablePerVisitingOperator[visitingOperator].voiceCallStartTime */\n      0x04\n      add\n        /* \"RoamingDataManagement.sol\":4919:5013  usageSummaryTablePerVisitingOperator[visitingOperator].voiceCallStartTime = voiceCallStartTime */\n      dup2\n      swap1\n      sstore\n      pop\n        /* \"RoamingDataManagement.sol\":5093:5105  smsStartTime */\n      dup4\n        /* \"RoamingDataManagement.sol\":5023:5059  usageSummaryTablePerVisitingOperator */\n      dup2\n        /* \"RoamingDataManagement.sol\":5023:5077  usageSummaryTablePerVisitingOperator[visitingOperator] */\n      0x00\n        /* \"RoamingDataManagement.sol\":5060:5076  visitingOperator */\n      dup6\n        /* \"RoamingDataManagement.sol\":5023:5077  usageSummaryTablePerVisitingOperator[visitingOperator] */\n      0xffffffffffffffffffffffffffffffffffffffff\n      and\n      0xffffffffffffffffffffffffffffffffffffffff\n      and\n      dup2\n      mstore\n      0x20\n      add\n      swap1\n      dup2\n      mstore\n      0x20\n      add\n      0x00\n      keccak256\n        /* \"RoamingDataManagement.sol\":5023:5090  usageSummaryTablePerVisitingOperator[visitingOperator].smsStartTime */\n      0x05\n      add\n        /* \"RoamingDataManagement.sol\":5023:5105  usageSummaryTablePerVisitingOperator[visitingOperator].smsStartTime = smsStartTime */\n      dup2\n      swap1\n      sstore\n      pop\n        /* \"RoamingDataManagement.sol\":5229:5234  1 wei */\n      0x01\n        /* \"RoamingDataManagement.sol\":5183:5187  bank */\n      0x09\n        /* \"RoamingDataManagement.sol\":5183:5225  bank[operatorsNameToAddr[serviceProvider]] */\n      0x00\n        /* \"RoamingDataManagement.sol\":5188:5207  operatorsNameToAddr */\n      0x03\n        /* \"RoamingDataManagement.sol\":5208:5223  serviceProvider */\n      dup15\n        /* \"RoamingDataManagement.sol\":5188:5224  operatorsNameToAddr[serviceProvider] */\n      mload(0x40)\n      tag_250\n      swap2\n      swap1\n      tag_172\n      jump\t// in\n    tag_250:\n      swap1\n      dup2\n      mstore\n      0x20\n      add\n      mload(0x40)\n      dup1\n      swap2\n      sub\n      swap1\n      keccak256\n      0x00\n      swap1\n      sload\n      swap1\n      0x0100\n      exp\n      swap1\n      div\n      0xffffffffffffffffffffffffffffffffffffffff\n      and\n        /* \"RoamingDataManagement.sol\":5183:5225  bank[operatorsNameToAddr[serviceProvider]] */\n      0xffffffffffffffffffffffffffffffffffffffff\n      and\n      0xffffffffffffffffffffffffffffffffffffffff\n      and\n      dup2\n      mstore\n      0x20\n      add\n      swap1\n      dup2\n      mstore\n      0x20\n      add\n      0x00\n      keccak256\n      0x00\n        /* \"RoamingDataManagement.sol\":5183:5234  bank[operatorsNameToAddr[serviceProvider]] -= 1 wei */\n      dup3\n      dup3\n      sload\n      tag_251\n      swap2\n      swap1\n      tag_252\n      jump\t// in\n    tag_251:\n      swap3\n      pop\n      pop\n      dup2\n      swap1\n      sstore\n      pop\n        /* \"RoamingDataManagement.sol\":5270:5275  1 wei */\n      0x01\n        /* \"RoamingDataManagement.sol\":5244:5248  bank */\n      0x09\n        /* \"RoamingDataManagement.sol\":5244:5266  bank[visitingOperator] */\n      0x00\n        /* \"RoamingDataManagement.sol\":5249:5265  visitingOperator */\n      dup6\n        /* \"RoamingDataManagement.sol\":5244:5266  bank[visitingOperator] */\n      0xffffffffffffffffffffffffffffffffffffffff\n      and\n      0xffffffffffffffffffffffffffffffffffffffff\n      and\n      dup2\n      mstore\n      0x20\n      add\n      swap1\n      dup2\n      mstore\n      0x20\n      add\n      0x00\n      keccak256\n      0x00\n        /* \"RoamingDataManagement.sol\":5244:5275  bank[visitingOperator] += 1 wei */\n      dup3\n      dup3\n      sload\n      tag_253\n      swap2\n      swap1\n      tag_227\n      jump\t// in\n    tag_253:\n      swap3\n      pop\n      pop\n      dup2\n      swap1\n      sstore\n      pop\n        /* \"RoamingDataManagement.sol\":5285:5327  transfer(payable(visitingOperator), 1 wei) */\n      tag_254\n        /* \"RoamingDataManagement.sol\":5302:5318  visitingOperator */\n      dup4\n        /* \"RoamingDataManagement.sol\":5321:5326  1 wei */\n      0x01\n        /* \"RoamingDataManagement.sol\":5285:5293  transfer */\n      tag_80\n        /* \"RoamingDataManagement.sol\":5285:5327  transfer(payable(visitingOperator), 1 wei) */\n      jump\t// in\n    tag_254:\n        /* \"RoamingDataManagement.sol\":3420:5390  {... */\n      pop\n      pop\n      pop\n        /* \"RoamingDataManagement.sol\":3132:5390  function uploadUserDataSummary(string memory imsi, string memory number, string memory serviceProvider, ... */\n      pop\n      pop\n      pop\n      pop\n      pop\n      pop\n      pop\n      pop\n      pop\n      pop\n      jump\t// out\n        /* \"RoamingDataManagement.sol\":725:749  uint public totalDeposit */\n    tag_105:\n      sload(0x04)\n      dup2\n      jump\t// out\n        /* \"RoamingDataManagement.sol\":660:713  mapping(string => address) public operatorsNameToAddr */\n    tag_110:\n      0x03\n      dup2\n      dup1\n      mload\n      0x20\n      dup2\n      add\n      dup3\n      add\n      dup1\n      mload\n      dup5\n      dup3\n      mstore\n      0x20\n      dup4\n      add\n      0x20\n      dup6\n      add\n      keccak256\n      dup2\n      dup4\n      mstore\n      dup1\n      swap6\n      pop\n      pop\n      pop\n      pop\n      pop\n      pop\n      0x00\n      swap2\n      pop\n      sload\n      swap1\n      0x0100\n      exp\n      swap1\n      div\n      0xffffffffffffffffffffffffffffffffffffffff\n      and\n      dup2\n      jump\t// out\n    tag_158:\n      mload(0x40)\n      dup1\n      0x0140\n      add\n      0x40\n      mstore\n      dup1\n      0x60\n      dup2\n      mstore\n      0x20\n      add\n      0x60\n      dup2\n      mstore\n      0x20\n      add\n      0x60\n      dup2\n      mstore\n      0x20\n      add\n      0x00\n      dup2\n      mstore\n      0x20\n      add\n      0x00\n      dup2\n      mstore\n      0x20\n      add\n      0x00\n      dup2\n      mstore\n      0x20\n      add\n      0x00\n      dup2\n      mstore\n      0x20\n      add\n      0x00\n      dup2\n      mstore\n      0x20\n      add\n      0x00\n      dup2\n      mstore\n      0x20\n      add\n      0x00\n      dup2\n      mstore\n      pop\n      swap1\n      jump\t// out\n        /* \"#utility.yul\":7:82   */\n    tag_255:\n        /* \"#utility.yul\":40:46   */\n      0x00\n        /* \"#utility.yul\":73:75   */\n      0x40\n        /* \"#utility.yul\":67:76   */\n      mload\n        /* \"#utility.yul\":57:76   */\n      swap1\n      pop\n        /* \"#utility.yul\":7:82   */\n      swap1\n      jump\t// out\n        /* \"#utility.yul\":88:205   */\n    tag_256:\n        /* \"#utility.yul\":197:198   */\n      0x00\n        /* \"#utility.yul\":194:195   */\n      dup1\n        /* \"#utility.yul\":187:199   */\n      revert\n        /* \"#utility.yul\":211:328   */\n    tag_257:\n        /* \"#utility.yul\":320:321   */\n      0x00\n        /* \"#utility.yul\":317:318   */\n      dup1\n        /* \"#utility.yul\":310:322   */\n      revert\n        /* \"#utility.yul\":334:411   */\n    tag_258:\n        /* \"#utility.yul\":371:378   */\n      0x00\n        /* \"#utility.yul\":400:405   */\n      dup2\n        /* \"#utility.yul\":389:405   */\n      swap1\n      pop\n        /* \"#utility.yul\":334:411   */\n      swap2\n      swap1\n      pop\n      jump\t// out\n        /* \"#utility.yul\":417:539   */\n    tag_259:\n        /* \"#utility.yul\":490:514   */\n      tag_331\n        /* \"#utility.yul\":508:513   */\n      dup2\n        /* \"#utility.yul\":490:514   */\n      tag_258\n      jump\t// in\n    tag_331:\n        /* \"#utility.yul\":483:488   */\n      dup2\n        /* \"#utility.yul\":480:515   */\n      eq\n        /* \"#utility.yul\":470:533   */\n      tag_332\n      jumpi\n        /* \"#utility.yul\":529:530   */\n      0x00\n        /* \"#utility.yul\":526:527   */\n      dup1\n        /* \"#utility.yul\":519:531   */\n      revert\n        /* \"#utility.yul\":470:533   */\n    tag_332:\n        /* \"#utility.yul\":417:539   */\n      pop\n      jump\t// out\n        /* \"#utility.yul\":545:684   */\n    tag_260:\n        /* \"#utility.yul\":591:596   */\n      0x00\n        /* \"#utility.yul\":629:635   */\n      dup2\n        /* \"#utility.yul\":616:636   */\n      calldataload\n        /* \"#utility.yul\":607:636   */\n      swap1\n      pop\n        /* \"#utility.yul\":645:678   */\n      tag_334\n        /* \"#utility.yul\":672:677   */\n      dup2\n        /* \"#utility.yul\":645:678   */\n      tag_259\n      jump\t// in\n    tag_334:\n        /* \"#utility.yul\":545:684   */\n      swap3\n      swap2\n      pop\n      pop\n      jump\t// out\n        /* \"#utility.yul\":690:1019   */\n    tag_28:\n        /* \"#utility.yul\":749:755   */\n      0x00\n        /* \"#utility.yul\":798:800   */\n      0x20\n        /* \"#utility.yul\":786:795   */\n      dup3\n        /* \"#utility.yul\":777:784   */\n      dup5\n        /* \"#utility.yul\":773:796   */\n      sub\n        /* \"#utility.yul\":769:801   */\n      slt\n        /* \"#utility.yul\":766:885   */\n      iszero\n      tag_336\n      jumpi\n        /* \"#utility.yul\":804:883   */\n      tag_337\n      tag_256\n      jump\t// in\n    tag_337:\n        /* \"#utility.yul\":766:885   */\n    tag_336:\n        /* \"#utility.yul\":924:925   */\n      0x00\n        /* \"#utility.yul\":949:1002   */\n      tag_338\n        /* \"#utility.yul\":994:1001   */\n      dup5\n        /* \"#utility.yul\":985:991   */\n      dup3\n        /* \"#utility.yul\":974:983   */\n      dup6\n        /* \"#utility.yul\":970:992   */\n      add\n        /* \"#utility.yul\":949:1002   */\n      tag_260\n      jump\t// in\n    tag_338:\n        /* \"#utility.yul\":939:1002   */\n      swap2\n      pop\n        /* \"#utility.yul\":895:1012   */\n      pop\n        /* \"#utility.yul\":690:1019   */\n      swap3\n      swap2\n      pop\n      pop\n      jump\t// out\n        /* \"#utility.yul\":1025:1124   */\n    tag_261:\n        /* \"#utility.yul\":1077:1083   */\n      0x00\n        /* \"#utility.yul\":1111:1116   */\n      dup2\n        /* \"#utility.yul\":1105:1117   */\n      mload\n        /* \"#utility.yul\":1095:1117   */\n      swap1\n      pop\n        /* \"#utility.yul\":1025:1124   */\n      swap2\n      swap1\n      pop\n      jump\t// out\n        /* \"#utility.yul\":1130:1299   */\n    tag_262:\n        /* \"#utility.yul\":1214:1225   */\n      0x00\n        /* \"#utility.yul\":1248:1254   */\n      dup3\n        /* \"#utility.yul\":1243:1246   */\n      dup3\n        /* \"#utility.yul\":1236:1255   */\n      mstore\n        /* \"#utility.yul\":1288:1292   */\n      0x20\n        /* \"#utility.yul\":1283:1286   */\n      dup3\n        /* \"#utility.yul\":1279:1293   */\n      add\n        /* \"#utility.yul\":1264:1293   */\n      swap1\n      pop\n        /* \"#utility.yul\":1130:1299   */\n      swap3\n      swap2\n      pop\n      pop\n      jump\t// out\n        /* \"#utility.yul\":1305:1551   */\n    tag_263:\n        /* \"#utility.yul\":1386:1387   */\n      0x00\n        /* \"#utility.yul\":1396:1509   */\n    tag_342:\n        /* \"#utility.yul\":1410:1416   */\n      dup4\n        /* \"#utility.yul\":1407:1408   */\n      dup2\n        /* \"#utility.yul\":1404:1417   */\n      lt\n        /* \"#utility.yul\":1396:1509   */\n      iszero\n      tag_344\n      jumpi\n        /* \"#utility.yul\":1495:1496   */\n      dup1\n        /* \"#utility.yul\":1490:1493   */\n      dup3\n        /* \"#utility.yul\":1486:1497   */\n      add\n        /* \"#utility.yul\":1480:1498   */\n      mload\n        /* \"#utility.yul\":1476:1477   */\n      dup2\n        /* \"#utility.yul\":1471:1474   */\n      dup5\n        /* \"#utility.yul\":1467:1478   */\n      add\n        /* \"#utility.yul\":1460:1499   */\n      mstore\n        /* \"#utility.yul\":1432:1434   */\n      0x20\n        /* \"#utility.yul\":1429:1430   */\n      dup2\n        /* \"#utility.yul\":1425:1435   */\n      add\n        /* \"#utility.yul\":1420:1435   */\n      swap1\n      pop\n        /* \"#utility.yul\":1396:1509   */\n      jump(tag_342)\n    tag_344:\n        /* \"#utility.yul\":1543:1544   */\n      0x00\n        /* \"#utility.yul\":1534:1540   */\n      dup5\n        /* \"#utility.yul\":1529:1532   */\n      dup5\n        /* \"#utility.yul\":1525:1541   */\n      add\n        /* \"#utility.yul\":1518:1545   */\n      mstore\n        /* \"#utility.yul\":1367:1551   */\n      pop\n        /* \"#utility.yul\":1305:1551   */\n      pop\n      pop\n      pop\n      jump\t// out\n        /* \"#utility.yul\":1557:1659   */\n    tag_264:\n        /* \"#utility.yul\":1598:1604   */\n      0x00\n        /* \"#utility.yul\":1649:1651   */\n      0x1f\n        /* \"#utility.yul\":1645:1652   */\n      not\n        /* \"#utility.yul\":1640:1642   */\n      0x1f\n        /* \"#utility.yul\":1633:1638   */\n      dup4\n        /* \"#utility.yul\":1629:1643   */\n      add\n        /* \"#utility.yul\":1625:1653   */\n      and\n        /* \"#utility.yul\":1615:1653   */\n      swap1\n      pop\n        /* \"#utility.yul\":1557:1659   */\n      swap2\n      swap1\n      pop\n      jump\t// out\n        /* \"#utility.yul\":1665:2042   */\n    tag_265:\n        /* \"#utility.yul\":1753:1756   */\n      0x00\n        /* \"#utility.yul\":1781:1820   */\n      tag_347\n        /* \"#utility.yul\":1814:1819   */\n      dup3\n        /* \"#utility.yul\":1781:1820   */\n      tag_261\n      jump\t// in\n    tag_347:\n        /* \"#utility.yul\":1836:1907   */\n      tag_348\n        /* \"#utility.yul\":1900:1906   */\n      dup2\n        /* \"#utility.yul\":1895:1898   */\n      dup6\n        /* \"#utility.yul\":1836:1907   */\n      tag_262\n      jump\t// in\n    tag_348:\n        /* \"#utility.yul\":1829:1907   */\n      swap4\n      pop\n        /* \"#utility.yul\":1916:1981   */\n      tag_349\n        /* \"#utility.yul\":1974:1980   */\n      dup2\n        /* \"#utility.yul\":1969:1972   */\n      dup6\n        /* \"#utility.yul\":1962:1966   */\n      0x20\n        /* \"#utility.yul\":1955:1960   */\n      dup7\n        /* \"#utility.yul\":1951:1967   */\n      add\n        /* \"#utility.yul\":1916:1981   */\n      tag_263\n      jump\t// in\n    tag_349:\n        /* \"#utility.yul\":2006:2035   */\n      tag_350\n        /* \"#utility.yul\":2028:2034   */\n      dup2\n        /* \"#utility.yul\":2006:2035   */\n      tag_264\n      jump\t// in\n    tag_350:\n        /* \"#utility.yul\":2001:2004   */\n      dup5\n        /* \"#utility.yul\":1997:2036   */\n      add\n        /* \"#utility.yul\":1990:2036   */\n      swap2\n      pop\n        /* \"#utility.yul\":1757:2042   */\n      pop\n        /* \"#utility.yul\":1665:2042   */\n      swap3\n      swap2\n      pop\n      pop\n      jump\t// out\n        /* \"#utility.yul\":2048:2361   */\n    tag_31:\n        /* \"#utility.yul\":2161:2165   */\n      0x00\n        /* \"#utility.yul\":2199:2201   */\n      0x20\n        /* \"#utility.yul\":2188:2197   */\n      dup3\n        /* \"#utility.yul\":2184:2202   */\n      add\n        /* \"#utility.yul\":2176:2202   */\n      swap1\n      pop\n        /* \"#utility.yul\":2248:2257   */\n      dup2\n        /* \"#utility.yul\":2242:2246   */\n      dup2\n        /* \"#utility.yul\":2238:2258   */\n      sub\n        /* \"#utility.yul\":2234:2235   */\n      0x00\n        /* \"#utility.yul\":2223:2232   */\n      dup4\n        /* \"#utility.yul\":2219:2236   */\n      add\n        /* \"#utility.yul\":2212:2259   */\n      mstore\n        /* \"#utility.yul\":2276:2354   */\n      tag_352\n        /* \"#utility.yul\":2349:2353   */\n      dup2\n        /* \"#utility.yul\":2340:2346   */\n      dup5\n        /* \"#utility.yul\":2276:2354   */\n      tag_265\n      jump\t// in\n    tag_352:\n        /* \"#utility.yul\":2268:2354   */\n      swap1\n      pop\n        /* \"#utility.yul\":2048:2361   */\n      swap3\n      swap2\n      pop\n      pop\n      jump\t// out\n        /* \"#utility.yul\":2367:2493   */\n    tag_266:\n        /* \"#utility.yul\":2404:2411   */\n      0x00\n        /* \"#utility.yul\":2444:2486   */\n      0xffffffffffffffffffffffffffffffffffffffff\n        /* \"#utility.yul\":2437:2442   */\n      dup3\n        /* \"#utility.yul\":2433:2487   */\n      and\n        /* \"#utility.yul\":2422:2487   */\n      swap1\n      pop\n        /* \"#utility.yul\":2367:2493   */\n      swap2\n      swap1\n      pop\n      jump\t// out\n        /* \"#utility.yul\":2499:2595   */\n    tag_267:\n        /* \"#utility.yul\":2536:2543   */\n      0x00\n        /* \"#utility.yul\":2565:2589   */\n      tag_355\n        /* \"#utility.yul\":2583:2588   */\n      dup3\n        /* \"#utility.yul\":2565:2589   */\n      tag_266\n      jump\t// in\n    tag_355:\n        /* \"#utility.yul\":2554:2589   */\n      swap1\n      pop\n        /* \"#utility.yul\":2499:2595   */\n      swap2\n      swap1\n      pop\n      jump\t// out\n        /* \"#utility.yul\":2601:2719   */\n    tag_268:\n        /* \"#utility.yul\":2688:2712   */\n      tag_357\n        /* \"#utility.yul\":2706:2711   */\n      dup2\n        /* \"#utility.yul\":2688:2712   */\n      tag_267\n      jump\t// in\n    tag_357:\n        /* \"#utility.yul\":2683:2686   */\n      dup3\n        /* \"#utility.yul\":2676:2713   */\n      mstore\n        /* \"#utility.yul\":2601:2719   */\n      pop\n      pop\n      jump\t// out\n        /* \"#utility.yul\":2725:2843   */\n    tag_269:\n        /* \"#utility.yul\":2812:2836   */\n      tag_359\n        /* \"#utility.yul\":2830:2835   */\n      dup2\n        /* \"#utility.yul\":2812:2836   */\n      tag_258\n      jump\t// in\n    tag_359:\n        /* \"#utility.yul\":2807:2810   */\n      dup3\n        /* \"#utility.yul\":2800:2837   */\n      mstore\n        /* \"#utility.yul\":2725:2843   */\n      pop\n      pop\n      jump\t// out\n        /* \"#utility.yul\":2849:3402   */\n    tag_37:\n        /* \"#utility.yul\":3026:3030   */\n      0x00\n        /* \"#utility.yul\":3064:3067   */\n      0x80\n        /* \"#utility.yul\":3053:3062   */\n      dup3\n        /* \"#utility.yul\":3049:3068   */\n      add\n        /* \"#utility.yul\":3041:3068   */\n      swap1\n      pop\n        /* \"#utility.yul\":3078:3149   */\n      tag_361\n        /* \"#utility.yul\":3146:3147   */\n      0x00\n        /* \"#utility.yul\":3135:3144   */\n      dup4\n        /* \"#utility.yul\":3131:3148   */\n      add\n        /* \"#utility.yul\":3122:3128   */\n      dup8\n        /* \"#utility.yul\":3078:3149   */\n      tag_268\n      jump\t// in\n    tag_361:\n        /* \"#utility.yul\":3159:3231   */\n      tag_362\n        /* \"#utility.yul\":3227:3229   */\n      0x20\n        /* \"#utility.yul\":3216:3225   */\n      dup4\n        /* \"#utility.yul\":3212:3230   */\n      add\n        /* \"#utility.yul\":3203:3209   */\n      dup7\n        /* \"#utility.yul\":3159:3231   */\n      tag_268\n      jump\t// in\n    tag_362:\n        /* \"#utility.yul\":3241:3313   */\n      tag_363\n        /* \"#utility.yul\":3309:3311   */\n      0x40\n        /* \"#utility.yul\":3298:3307   */\n      dup4\n        /* \"#utility.yul\":3294:3312   */\n      add\n        /* \"#utility.yul\":3285:3291   */\n      dup6\n        /* \"#utility.yul\":3241:3313   */\n      tag_269\n      jump\t// in\n    tag_363:\n        /* \"#utility.yul\":3323:3395   */\n      tag_364\n        /* \"#utility.yul\":3391:3393   */\n      0x60\n        /* \"#utility.yul\":3380:3389   */\n      dup4\n        /* \"#utility.yul\":3376:3394   */\n      add\n        /* \"#utility.yul\":3367:3373   */\n      dup5\n        /* \"#utility.yul\":3323:3395   */\n      tag_269\n      jump\t// in\n    tag_364:\n        /* \"#utility.yul\":2849:3402   */\n      swap6\n      swap5\n      pop\n      pop\n      pop\n      pop\n      pop\n      jump\t// out\n        /* \"#utility.yul\":3408:3530   */\n    tag_270:\n        /* \"#utility.yul\":3481:3505   */\n      tag_366\n        /* \"#utility.yul\":3499:3504   */\n      dup2\n        /* \"#utility.yul\":3481:3505   */\n      tag_267\n      jump\t// in\n    tag_366:\n        /* \"#utility.yul\":3474:3479   */\n      dup2\n        /* \"#utility.yul\":3471:3506   */\n      eq\n        /* \"#utility.yul\":3461:3524   */\n      tag_367\n      jumpi\n        /* \"#utility.yul\":3520:3521   */\n      0x00\n        /* \"#utility.yul\":3517:3518   */\n      dup1\n        /* \"#utility.yul\":3510:3522   */\n      revert\n        /* \"#utility.yul\":3461:3524   */\n    tag_367:\n        /* \"#utility.yul\":3408:3530   */\n      pop\n      jump\t// out\n        /* \"#utility.yul\":3536:3675   */\n    tag_271:\n        /* \"#utility.yul\":3582:3587   */\n      0x00\n        /* \"#utility.yul\":3620:3626   */\n      dup2\n        /* \"#utility.yul\":3607:3627   */\n      calldataload\n        /* \"#utility.yul\":3598:3627   */\n      swap1\n      pop\n        /* \"#utility.yul\":3636:3669   */\n      tag_369\n        /* \"#utility.yul\":3663:3668   */\n      dup2\n        /* \"#utility.yul\":3636:3669   */\n      tag_270\n      jump\t// in\n    tag_369:\n        /* \"#utility.yul\":3536:3675   */\n      swap3\n      swap2\n      pop\n      pop\n      jump\t// out\n        /* \"#utility.yul\":3681:3798   */\n    tag_272:\n        /* \"#utility.yul\":3790:3791   */\n      0x00\n        /* \"#utility.yul\":3787:3788   */\n      dup1\n        /* \"#utility.yul\":3780:3792   */\n      revert\n        /* \"#utility.yul\":3804:3921   */\n    tag_273:\n        /* \"#utility.yul\":3913:3914   */\n      0x00\n        /* \"#utility.yul\":3910:3911   */\n      dup1\n        /* \"#utility.yul\":3903:3915   */\n      revert\n        /* \"#utility.yul\":3927:4107   */\n    tag_154:\n        /* \"#utility.yul\":3975:4052   */\n      0x4e487b7100000000000000000000000000000000000000000000000000000000\n        /* \"#utility.yul\":3972:3973   */\n      0x00\n        /* \"#utility.yul\":3965:4053   */\n      mstore\n        /* \"#utility.yul\":4072:4076   */\n      0x41\n        /* \"#utility.yul\":4069:4070   */\n      0x04\n        /* \"#utility.yul\":4062:4077   */\n      mstore\n        /* \"#utility.yul\":4096:4100   */\n      0x24\n        /* \"#utility.yul\":4093:4094   */\n      0x00\n        /* \"#utility.yul\":4086:4101   */\n      revert\n        /* \"#utility.yul\":4113:4394   */\n    tag_274:\n        /* \"#utility.yul\":4196:4223   */\n      tag_374\n        /* \"#utility.yul\":4218:4222   */\n      dup3\n        /* \"#utility.yul\":4196:4223   */\n      tag_264\n      jump\t// in\n    tag_374:\n        /* \"#utility.yul\":4188:4194   */\n      dup2\n        /* \"#utility.yul\":4184:4224   */\n      add\n        /* \"#utility.yul\":4326:4332   */\n      dup2\n        /* \"#utility.yul\":4314:4324   */\n      dup2\n        /* \"#utility.yul\":4311:4333   */\n      lt\n        /* \"#utility.yul\":4290:4308   */\n      0xffffffffffffffff\n        /* \"#utility.yul\":4278:4288   */\n      dup3\n        /* \"#utility.yul\":4275:4309   */\n      gt\n        /* \"#utility.yul\":4272:4334   */\n      or\n        /* \"#utility.yul\":4269:4357   */\n      iszero\n      tag_375\n      jumpi\n        /* \"#utility.yul\":4337:4355   */\n      tag_376\n      tag_154\n      jump\t// in\n    tag_376:\n        /* \"#utility.yul\":4269:4357   */\n    tag_375:\n        /* \"#utility.yul\":4377:4387   */\n      dup1\n        /* \"#utility.yul\":4373:4375   */\n      0x40\n        /* \"#utility.yul\":4366:4388   */\n      mstore\n        /* \"#utility.yul\":4156:4394   */\n      pop\n        /* \"#utility.yul\":4113:4394   */\n      pop\n      pop\n      jump\t// out\n        /* \"#utility.yul\":4400:4529   */\n    tag_275:\n        /* \"#utility.yul\":4434:4440   */\n      0x00\n        /* \"#utility.yul\":4461:4481   */\n      tag_378\n      tag_255\n      jump\t// in\n    tag_378:\n        /* \"#utility.yul\":4451:4481   */\n      swap1\n      pop\n        /* \"#utility.yul\":4490:4523   */\n      tag_379\n        /* \"#utility.yul\":4518:4522   */\n      dup3\n        /* \"#utility.yul\":4510:4516   */\n      dup3\n        /* \"#utility.yul\":4490:4523   */\n      tag_274\n      jump\t// in\n    tag_379:\n        /* \"#utility.yul\":4400:4529   */\n      swap2\n      swap1\n      pop\n      jump\t// out\n        /* \"#utility.yul\":4535:4843   */\n    tag_276:\n        /* \"#utility.yul\":4597:4601   */\n      0x00\n        /* \"#utility.yul\":4687:4705   */\n      0xffffffffffffffff\n        /* \"#utility.yul\":4679:4685   */\n      dup3\n        /* \"#utility.yul\":4676:4706   */\n      gt\n        /* \"#utility.yul\":4673:4729   */\n      iszero\n      tag_381\n      jumpi\n        /* \"#utility.yul\":4709:4727   */\n      tag_382\n      tag_154\n      jump\t// in\n    tag_382:\n        /* \"#utility.yul\":4673:4729   */\n    tag_381:\n        /* \"#utility.yul\":4747:4776   */\n      tag_383\n        /* \"#utility.yul\":4769:4775   */\n      dup3\n        /* \"#utility.yul\":4747:4776   */\n      tag_264\n      jump\t// in\n    tag_383:\n        /* \"#utility.yul\":4739:4776   */\n      swap1\n      pop\n        /* \"#utility.yul\":4831:4835   */\n      0x20\n        /* \"#utility.yul\":4825:4829   */\n      dup2\n        /* \"#utility.yul\":4821:4836   */\n      add\n        /* \"#utility.yul\":4813:4836   */\n      swap1\n      pop\n        /* \"#utility.yul\":4535:4843   */\n      swap2\n      swap1\n      pop\n      jump\t// out\n        /* \"#utility.yul\":4849:4995   */\n    tag_277:\n        /* \"#utility.yul\":4946:4952   */\n      dup3\n        /* \"#utility.yul\":4941:4944   */\n      dup2\n        /* \"#utility.yul\":4936:4939   */\n      dup4\n        /* \"#utility.yul\":4923:4953   */\n      calldatacopy\n        /* \"#utility.yul\":4987:4988   */\n      0x00\n        /* \"#utility.yul\":4978:4984   */\n      dup4\n        /* \"#utility.yul\":4973:4976   */\n      dup4\n        /* \"#utility.yul\":4969:4985   */\n      add\n        /* \"#utility.yul\":4962:4989   */\n      mstore\n        /* \"#utility.yul\":4849:4995   */\n      pop\n      pop\n      pop\n      jump\t// out\n        /* \"#utility.yul\":5001:5426   */\n    tag_278:\n        /* \"#utility.yul\":5079:5084   */\n      0x00\n        /* \"#utility.yul\":5104:5170   */\n      tag_386\n        /* \"#utility.yul\":5120:5169   */\n      tag_387\n        /* \"#utility.yul\":5162:5168   */\n      dup5\n        /* \"#utility.yul\":5120:5169   */\n      tag_276\n      jump\t// in\n    tag_387:\n        /* \"#utility.yul\":5104:5170   */\n      tag_275\n      jump\t// in\n    tag_386:\n        /* \"#utility.yul\":5095:5170   */\n      swap1\n      pop\n        /* \"#utility.yul\":5193:5199   */\n      dup3\n        /* \"#utility.yul\":5186:5191   */\n      dup2\n        /* \"#utility.yul\":5179:5200   */\n      mstore\n        /* \"#utility.yul\":5231:5235   */\n      0x20\n        /* \"#utility.yul\":5224:5229   */\n      dup2\n        /* \"#utility.yul\":5220:5236   */\n      add\n        /* \"#utility.yul\":5269:5272   */\n      dup5\n        /* \"#utility.yul\":5260:5266   */\n      dup5\n        /* \"#utility.yul\":5255:5258   */\n      dup5\n        /* \"#utility.yul\":5251:5267   */\n      add\n        /* \"#utility.yul\":5248:5273   */\n      gt\n        /* \"#utility.yul\":5245:5357   */\n      iszero\n      tag_388\n      jumpi\n        /* \"#utility.yul\":5276:5355   */\n      tag_389\n      tag_273\n      jump\t// in\n    tag_389:\n        /* \"#utility.yul\":5245:5357   */\n    tag_388:\n        /* \"#utility.yul\":5366:5420   */\n      tag_390\n        /* \"#utility.yul\":5413:5419   */\n      dup5\n        /* \"#utility.yul\":5408:5411   */\n      dup3\n        /* \"#utility.yul\":5403:5406   */\n      dup6\n        /* \"#utility.yul\":5366:5420   */\n      tag_277\n      jump\t// in\n    tag_390:\n        /* \"#utility.yul\":5085:5426   */\n      pop\n        /* \"#utility.yul\":5001:5426   */\n      swap4\n      swap3\n      pop\n      pop\n      pop\n      jump\t// out\n        /* \"#utility.yul\":5446:5786   */\n    tag_279:\n        /* \"#utility.yul\":5502:5507   */\n      0x00\n        /* \"#utility.yul\":5551:5554   */\n      dup3\n        /* \"#utility.yul\":5544:5548   */\n      0x1f\n        /* \"#utility.yul\":5536:5542   */\n      dup4\n        /* \"#utility.yul\":5532:5549   */\n      add\n        /* \"#utility.yul\":5528:5555   */\n      slt\n        /* \"#utility.yul\":5518:5640   */\n      tag_392\n      jumpi\n        /* \"#utility.yul\":5559:5638   */\n      tag_393\n      tag_272\n      jump\t// in\n    tag_393:\n        /* \"#utility.yul\":5518:5640   */\n    tag_392:\n        /* \"#utility.yul\":5676:5682   */\n      dup2\n        /* \"#utility.yul\":5663:5683   */\n      calldataload\n        /* \"#utility.yul\":5701:5780   */\n      tag_394\n        /* \"#utility.yul\":5776:5779   */\n      dup5\n        /* \"#utility.yul\":5768:5774   */\n      dup3\n        /* \"#utility.yul\":5761:5765   */\n      0x20\n        /* \"#utility.yul\":5753:5759   */\n      dup7\n        /* \"#utility.yul\":5749:5766   */\n      add\n        /* \"#utility.yul\":5701:5780   */\n      tag_278\n      jump\t// in\n    tag_394:\n        /* \"#utility.yul\":5692:5780   */\n      swap2\n      pop\n        /* \"#utility.yul\":5508:5786   */\n      pop\n        /* \"#utility.yul\":5446:5786   */\n      swap3\n      swap2\n      pop\n      pop\n      jump\t// out\n        /* \"#utility.yul\":5792:6591   */\n    tag_41:\n        /* \"#utility.yul\":5879:5885   */\n      0x00\n        /* \"#utility.yul\":5887:5893   */\n      dup1\n        /* \"#utility.yul\":5895:5901   */\n      0x00\n        /* \"#utility.yul\":5944:5946   */\n      0x60\n        /* \"#utility.yul\":5932:5941   */\n      dup5\n        /* \"#utility.yul\":5923:5930   */\n      dup7\n        /* \"#utility.yul\":5919:5942   */\n      sub\n        /* \"#utility.yul\":5915:5947   */\n      slt\n        /* \"#utility.yul\":5912:6031   */\n      iszero\n      tag_396\n      jumpi\n        /* \"#utility.yul\":5950:6029   */\n      tag_397\n      tag_256\n      jump\t// in\n    tag_397:\n        /* \"#utility.yul\":5912:6031   */\n    tag_396:\n        /* \"#utility.yul\":6070:6071   */\n      0x00\n        /* \"#utility.yul\":6095:6148   */\n      tag_398\n        /* \"#utility.yul\":6140:6147   */\n      dup7\n        /* \"#utility.yul\":6131:6137   */\n      dup3\n        /* \"#utility.yul\":6120:6129   */\n      dup8\n        /* \"#utility.yul\":6116:6138   */\n      add\n        /* \"#utility.yul\":6095:6148   */\n      tag_271\n      jump\t// in\n    tag_398:\n        /* \"#utility.yul\":6085:6148   */\n      swap4\n      pop\n        /* \"#utility.yul\":6041:6158   */\n      pop\n        /* \"#utility.yul\":6225:6227   */\n      0x20\n        /* \"#utility.yul\":6214:6223   */\n      dup5\n        /* \"#utility.yul\":6210:6228   */\n      add\n        /* \"#utility.yul\":6197:6229   */\n      calldataload\n        /* \"#utility.yul\":6256:6274   */\n      0xffffffffffffffff\n        /* \"#utility.yul\":6248:6254   */\n      dup2\n        /* \"#utility.yul\":6245:6275   */\n      gt\n        /* \"#utility.yul\":6242:6359   */\n      iszero\n      tag_399\n      jumpi\n        /* \"#utility.yul\":6278:6357   */\n      tag_400\n      tag_257\n      jump\t// in\n    tag_400:\n        /* \"#utility.yul\":6242:6359   */\n    tag_399:\n        /* \"#utility.yul\":6383:6446   */\n      tag_401\n        /* \"#utility.yul\":6438:6445   */\n      dup7\n        /* \"#utility.yul\":6429:6435   */\n      dup3\n        /* \"#utility.yul\":6418:6427   */\n      dup8\n        /* \"#utility.yul\":6414:6436   */\n      add\n        /* \"#utility.yul\":6383:6446   */\n      tag_279\n      jump\t// in\n    tag_401:\n        /* \"#utility.yul\":6373:6446   */\n      swap3\n      pop\n        /* \"#utility.yul\":6168:6456   */\n      pop\n        /* \"#utility.yul\":6495:6497   */\n      0x40\n        /* \"#utility.yul\":6521:6574   */\n      tag_402\n        /* \"#utility.yul\":6566:6573   */\n      dup7\n        /* \"#utility.yul\":6557:6563   */\n      dup3\n        /* \"#utility.yul\":6546:6555   */\n      dup8\n        /* \"#utility.yul\":6542:6564   */\n      add\n        /* \"#utility.yul\":6521:6574   */\n      tag_271\n      jump\t// in\n    tag_402:\n        /* \"#utility.yul\":6511:6574   */\n      swap2\n      pop\n        /* \"#utility.yul\":6466:6584   */\n      pop\n        /* \"#utility.yul\":5792:6591   */\n      swap3\n      pop\n      swap3\n      pop\n      swap3\n      jump\t// out\n        /* \"#utility.yul\":6597:8089   */\n    tag_44:\n        /* \"#utility.yul\":7002:7006   */\n      0x00\n        /* \"#utility.yul\":7040:7043   */\n      0x0140\n        /* \"#utility.yul\":7029:7038   */\n      dup3\n        /* \"#utility.yul\":7025:7044   */\n      add\n        /* \"#utility.yul\":7017:7044   */\n      swap1\n      pop\n        /* \"#utility.yul\":7090:7099   */\n      dup2\n        /* \"#utility.yul\":7084:7088   */\n      dup2\n        /* \"#utility.yul\":7080:7100   */\n      sub\n        /* \"#utility.yul\":7076:7077   */\n      0x00\n        /* \"#utility.yul\":7065:7074   */\n      dup4\n        /* \"#utility.yul\":7061:7078   */\n      add\n        /* \"#utility.yul\":7054:7101   */\n      mstore\n        /* \"#utility.yul\":7118:7196   */\n      tag_404\n        /* \"#utility.yul\":7191:7195   */\n      dup2\n        /* \"#utility.yul\":7182:7188   */\n      dup14\n        /* \"#utility.yul\":7118:7196   */\n      tag_265\n      jump\t// in\n    tag_404:\n        /* \"#utility.yul\":7110:7196   */\n      swap1\n      pop\n        /* \"#utility.yul\":7243:7252   */\n      dup2\n        /* \"#utility.yul\":7237:7241   */\n      dup2\n        /* \"#utility.yul\":7233:7253   */\n      sub\n        /* \"#utility.yul\":7228:7230   */\n      0x20\n        /* \"#utility.yul\":7217:7226   */\n      dup4\n        /* \"#utility.yul\":7213:7231   */\n      add\n        /* \"#utility.yul\":7206:7254   */\n      mstore\n        /* \"#utility.yul\":7271:7349   */\n      tag_405\n        /* \"#utility.yul\":7344:7348   */\n      dup2\n        /* \"#utility.yul\":7335:7341   */\n      dup13\n        /* \"#utility.yul\":7271:7349   */\n      tag_265\n      jump\t// in\n    tag_405:\n        /* \"#utility.yul\":7263:7349   */\n      swap1\n      pop\n        /* \"#utility.yul\":7396:7405   */\n      dup2\n        /* \"#utility.yul\":7390:7394   */\n      dup2\n        /* \"#utility.yul\":7386:7406   */\n      sub\n        /* \"#utility.yul\":7381:7383   */\n      0x40\n        /* \"#utility.yul\":7370:7379   */\n      dup4\n        /* \"#utility.yul\":7366:7384   */\n      add\n        /* \"#utility.yul\":7359:7407   */\n      mstore\n        /* \"#utility.yul\":7424:7502   */\n      tag_406\n        /* \"#utility.yul\":7497:7501   */\n      dup2\n        /* \"#utility.yul\":7488:7494   */\n      dup12\n        /* \"#utility.yul\":7424:7502   */\n      tag_265\n      jump\t// in\n    tag_406:\n        /* \"#utility.yul\":7416:7502   */\n      swap1\n      pop\n        /* \"#utility.yul\":7512:7584   */\n      tag_407\n        /* \"#utility.yul\":7580:7582   */\n      0x60\n        /* \"#utility.yul\":7569:7578   */\n      dup4\n        /* \"#utility.yul\":7565:7583   */\n      add\n        /* \"#utility.yul\":7556:7562   */\n      dup11\n        /* \"#utility.yul\":7512:7584   */\n      tag_269\n      jump\t// in\n    tag_407:\n        /* \"#utility.yul\":7594:7667   */\n      tag_408\n        /* \"#utility.yul\":7662:7665   */\n      0x80\n        /* \"#utility.yul\":7651:7660   */\n      dup4\n        /* \"#utility.yul\":7647:7666   */\n      add\n        /* \"#utility.yul\":7638:7644   */\n      dup10\n        /* \"#utility.yul\":7594:7667   */\n      tag_269\n      jump\t// in\n    tag_408:\n        /* \"#utility.yul\":7677:7750   */\n      tag_409\n        /* \"#utility.yul\":7745:7748   */\n      0xa0\n        /* \"#utility.yul\":7734:7743   */\n      dup4\n        /* \"#utility.yul\":7730:7749   */\n      add\n        /* \"#utility.yul\":7721:7727   */\n      dup9\n        /* \"#utility.yul\":7677:7750   */\n      tag_269\n      jump\t// in\n    tag_409:\n        /* \"#utility.yul\":7760:7833   */\n      tag_410\n        /* \"#utility.yul\":7828:7831   */\n      0xc0\n        /* \"#utility.yul\":7817:7826   */\n      dup4\n        /* \"#utility.yul\":7813:7832   */\n      add\n        /* \"#utility.yul\":7804:7810   */\n      dup8\n        /* \"#utility.yul\":7760:7833   */\n      tag_269\n      jump\t// in\n    tag_410:\n        /* \"#utility.yul\":7843:7916   */\n      tag_411\n        /* \"#utility.yul\":7911:7914   */\n      0xe0\n        /* \"#utility.yul\":7900:7909   */\n      dup4\n        /* \"#utility.yul\":7896:7915   */\n      add\n        /* \"#utility.yul\":7887:7893   */\n      dup7\n        /* \"#utility.yul\":7843:7916   */\n      tag_269\n      jump\t// in\n    tag_411:\n        /* \"#utility.yul\":7926:7999   */\n      tag_412\n        /* \"#utility.yul\":7994:7997   */\n      0x0100\n        /* \"#utility.yul\":7983:7992   */\n      dup4\n        /* \"#utility.yul\":7979:7998   */\n      add\n        /* \"#utility.yul\":7970:7976   */\n      dup6\n        /* \"#utility.yul\":7926:7999   */\n      tag_269\n      jump\t// in\n    tag_412:\n        /* \"#utility.yul\":8009:8082   */\n      tag_413\n        /* \"#utility.yul\":8077:8080   */\n      0x0120\n        /* \"#utility.yul\":8066:8075   */\n      dup4\n        /* \"#utility.yul\":8062:8081   */\n      add\n        /* \"#utility.yul\":8053:8059   */\n      dup5\n        /* \"#utility.yul\":8009:8082   */\n      tag_269\n      jump\t// in\n    tag_413:\n        /* \"#utility.yul\":6597:8089   */\n      swap12\n      swap11\n      pop\n      pop\n      pop\n      pop\n      pop\n      pop\n      pop\n      pop\n      pop\n      pop\n      pop\n      jump\t// out\n        /* \"#utility.yul\":8095:8424   */\n    tag_48:\n        /* \"#utility.yul\":8154:8160   */\n      0x00\n        /* \"#utility.yul\":8203:8205   */\n      0x20\n        /* \"#utility.yul\":8191:8200   */\n      dup3\n        /* \"#utility.yul\":8182:8189   */\n      dup5\n        /* \"#utility.yul\":8178:8201   */\n      sub\n        /* \"#utility.yul\":8174:8206   */\n      slt\n        /* \"#utility.yul\":8171:8290   */\n      iszero\n      tag_415\n      jumpi\n        /* \"#utility.yul\":8209:8288   */\n      tag_416\n      tag_256\n      jump\t// in\n    tag_416:\n        /* \"#utility.yul\":8171:8290   */\n    tag_415:\n        /* \"#utility.yul\":8329:8330   */\n      0x00\n        /* \"#utility.yul\":8354:8407   */\n      tag_417\n        /* \"#utility.yul\":8399:8406   */\n      dup5\n        /* \"#utility.yul\":8390:8396   */\n      dup3\n        /* \"#utility.yul\":8379:8388   */\n      dup6\n        /* \"#utility.yul\":8375:8397   */\n      add\n        /* \"#utility.yul\":8354:8407   */\n      tag_271\n      jump\t// in\n    tag_417:\n        /* \"#utility.yul\":8344:8407   */\n      swap2\n      pop\n        /* \"#utility.yul\":8300:8417   */\n      pop\n        /* \"#utility.yul\":8095:8424   */\n      swap3\n      swap2\n      pop\n      pop\n      jump\t// out\n        /* \"#utility.yul\":8430:8652   */\n    tag_51:\n        /* \"#utility.yul\":8523:8527   */\n      0x00\n        /* \"#utility.yul\":8561:8563   */\n      0x20\n        /* \"#utility.yul\":8550:8559   */\n      dup3\n        /* \"#utility.yul\":8546:8564   */\n      add\n        /* \"#utility.yul\":8538:8564   */\n      swap1\n      pop\n        /* \"#utility.yul\":8574:8645   */\n      tag_419\n        /* \"#utility.yul\":8642:8643   */\n      0x00\n        /* \"#utility.yul\":8631:8640   */\n      dup4\n        /* \"#utility.yul\":8627:8644   */\n      add\n        /* \"#utility.yul\":8618:8624   */\n      dup5\n        /* \"#utility.yul\":8574:8645   */\n      tag_269\n      jump\t// in\n    tag_419:\n        /* \"#utility.yul\":8430:8652   */\n      swap3\n      swap2\n      pop\n      pop\n      jump\t// out\n        /* \"#utility.yul\":8658:9132   */\n    tag_60:\n        /* \"#utility.yul\":8726:8732   */\n      0x00\n        /* \"#utility.yul\":8734:8740   */\n      dup1\n        /* \"#utility.yul\":8783:8785   */\n      0x40\n        /* \"#utility.yul\":8771:8780   */\n      dup4\n        /* \"#utility.yul\":8762:8769   */\n      dup6\n        /* \"#utility.yul\":8758:8781   */\n      sub\n        /* \"#utility.yul\":8754:8786   */\n      slt\n        /* \"#utility.yul\":8751:8870   */\n      iszero\n      tag_421\n      jumpi\n        /* \"#utility.yul\":8789:8868   */\n      tag_422\n      tag_256\n      jump\t// in\n    tag_422:\n        /* \"#utility.yul\":8751:8870   */\n    tag_421:\n        /* \"#utility.yul\":8909:8910   */\n      0x00\n        /* \"#utility.yul\":8934:8987   */\n      tag_423\n        /* \"#utility.yul\":8979:8986   */\n      dup6\n        /* \"#utility.yul\":8970:8976   */\n      dup3\n        /* \"#utility.yul\":8959:8968   */\n      dup7\n        /* \"#utility.yul\":8955:8977   */\n      add\n        /* \"#utility.yul\":8934:8987   */\n      tag_271\n      jump\t// in\n    tag_423:\n        /* \"#utility.yul\":8924:8987   */\n      swap3\n      pop\n        /* \"#utility.yul\":8880:8997   */\n      pop\n        /* \"#utility.yul\":9036:9038   */\n      0x20\n        /* \"#utility.yul\":9062:9115   */\n      tag_424\n        /* \"#utility.yul\":9107:9114   */\n      dup6\n        /* \"#utility.yul\":9098:9104   */\n      dup3\n        /* \"#utility.yul\":9087:9096   */\n      dup7\n        /* \"#utility.yul\":9083:9105   */\n      add\n        /* \"#utility.yul\":9062:9115   */\n      tag_260\n      jump\t// in\n    tag_424:\n        /* \"#utility.yul\":9052:9115   */\n      swap2\n      pop\n        /* \"#utility.yul\":9007:9125   */\n      pop\n        /* \"#utility.yul\":8658:9132   */\n      swap3\n      pop\n      swap3\n      swap1\n      pop\n      jump\t// out\n        /* \"#utility.yul\":9138:9360   */\n    tag_68:\n        /* \"#utility.yul\":9231:9235   */\n      0x00\n        /* \"#utility.yul\":9269:9271   */\n      0x20\n        /* \"#utility.yul\":9258:9267   */\n      dup3\n        /* \"#utility.yul\":9254:9272   */\n      add\n        /* \"#utility.yul\":9246:9272   */\n      swap1\n      pop\n        /* \"#utility.yul\":9282:9353   */\n      tag_426\n        /* \"#utility.yul\":9350:9351   */\n      0x00\n        /* \"#utility.yul\":9339:9348   */\n      dup4\n        /* \"#utility.yul\":9335:9352   */\n      add\n        /* \"#utility.yul\":9326:9332   */\n      dup5\n        /* \"#utility.yul\":9282:9353   */\n      tag_268\n      jump\t// in\n    tag_426:\n        /* \"#utility.yul\":9138:9360   */\n      swap3\n      swap2\n      pop\n      pop\n      jump\t// out\n        /* \"#utility.yul\":9366:9875   */\n    tag_72:\n        /* \"#utility.yul\":9435:9441   */\n      0x00\n        /* \"#utility.yul\":9484:9486   */\n      0x20\n        /* \"#utility.yul\":9472:9481   */\n      dup3\n        /* \"#utility.yul\":9463:9470   */\n      dup5\n        /* \"#utility.yul\":9459:9482   */\n      sub\n        /* \"#utility.yul\":9455:9487   */\n      slt\n        /* \"#utility.yul\":9452:9571   */\n      iszero\n      tag_428\n      jumpi\n        /* \"#utility.yul\":9490:9569   */\n      tag_429\n      tag_256\n      jump\t// in\n    tag_429:\n        /* \"#utility.yul\":9452:9571   */\n    tag_428:\n        /* \"#utility.yul\":9638:9639   */\n      0x00\n        /* \"#utility.yul\":9627:9636   */\n      dup3\n        /* \"#utility.yul\":9623:9640   */\n      add\n        /* \"#utility.yul\":9610:9641   */\n      calldataload\n        /* \"#utility.yul\":9668:9686   */\n      0xffffffffffffffff\n        /* \"#utility.yul\":9660:9666   */\n      dup2\n        /* \"#utility.yul\":9657:9687   */\n      gt\n        /* \"#utility.yul\":9654:9771   */\n      iszero\n      tag_430\n      jumpi\n        /* \"#utility.yul\":9690:9769   */\n      tag_431\n      tag_257\n      jump\t// in\n    tag_431:\n        /* \"#utility.yul\":9654:9771   */\n    tag_430:\n        /* \"#utility.yul\":9795:9858   */\n      tag_432\n        /* \"#utility.yul\":9850:9857   */\n      dup5\n        /* \"#utility.yul\":9841:9847   */\n      dup3\n        /* \"#utility.yul\":9830:9839   */\n      dup6\n        /* \"#utility.yul\":9826:9848   */\n      add\n        /* \"#utility.yul\":9795:9858   */\n      tag_279\n      jump\t// in\n    tag_432:\n        /* \"#utility.yul\":9785:9858   */\n      swap2\n      pop\n        /* \"#utility.yul\":9581:9868   */\n      pop\n        /* \"#utility.yul\":9366:9875   */\n      swap3\n      swap2\n      pop\n      pop\n      jump\t// out\n        /* \"#utility.yul\":9881:10005   */\n    tag_280:\n        /* \"#utility.yul\":9958:9964   */\n      0x00\n        /* \"#utility.yul\":9992:9997   */\n      dup2\n        /* \"#utility.yul\":9986:9998   */\n      mload\n        /* \"#utility.yul\":9976:9998   */\n      swap1\n      pop\n        /* \"#utility.yul\":9881:10005   */\n      swap2\n      swap1\n      pop\n      jump\t// out\n        /* \"#utility.yul\":10011:10205   */\n    tag_281:\n        /* \"#utility.yul\":10120:10131   */\n      0x00\n        /* \"#utility.yul\":10154:10160   */\n      dup3\n        /* \"#utility.yul\":10149:10152   */\n      dup3\n        /* \"#utility.yul\":10142:10161   */\n      mstore\n        /* \"#utility.yul\":10194:10198   */\n      0x20\n        /* \"#utility.yul\":10189:10192   */\n      dup3\n        /* \"#utility.yul\":10185:10199   */\n      add\n        /* \"#utility.yul\":10170:10199   */\n      swap1\n      pop\n        /* \"#utility.yul\":10011:10205   */\n      swap3\n      swap2\n      pop\n      pop\n      jump\t// out\n        /* \"#utility.yul\":10211:10353   */\n    tag_282:\n        /* \"#utility.yul\":10288:10292   */\n      0x00\n        /* \"#utility.yul\":10311:10314   */\n      dup2\n        /* \"#utility.yul\":10303:10314   */\n      swap1\n      pop\n        /* \"#utility.yul\":10341:10345   */\n      0x20\n        /* \"#utility.yul\":10336:10339   */\n      dup3\n        /* \"#utility.yul\":10332:10346   */\n      add\n        /* \"#utility.yul\":10324:10346   */\n      swap1\n      pop\n        /* \"#utility.yul\":10211:10353   */\n      swap2\n      swap1\n      pop\n      jump\t// out\n        /* \"#utility.yul\":10359:10518   */\n    tag_283:\n        /* \"#utility.yul\":10433:10444   */\n      0x00\n        /* \"#utility.yul\":10467:10473   */\n      dup3\n        /* \"#utility.yul\":10462:10465   */\n      dup3\n        /* \"#utility.yul\":10455:10474   */\n      mstore\n        /* \"#utility.yul\":10507:10511   */\n      0x20\n        /* \"#utility.yul\":10502:10505   */\n      dup3\n        /* \"#utility.yul\":10498:10512   */\n      add\n        /* \"#utility.yul\":10483:10512   */\n      swap1\n      pop\n        /* \"#utility.yul\":10359:10518   */\n      swap3\n      swap2\n      pop\n      pop\n      jump\t// out\n        /* \"#utility.yul\":10524:10881   */\n    tag_284:\n        /* \"#utility.yul\":10602:10605   */\n      0x00\n        /* \"#utility.yul\":10630:10669   */\n      tag_438\n        /* \"#utility.yul\":10663:10668   */\n      dup3\n        /* \"#utility.yul\":10630:10669   */\n      tag_261\n      jump\t// in\n    tag_438:\n        /* \"#utility.yul\":10685:10746   */\n      tag_439\n        /* \"#utility.yul\":10739:10745   */\n      dup2\n        /* \"#utility.yul\":10734:10737   */\n      dup6\n        /* \"#utility.yul\":10685:10746   */\n      tag_283\n      jump\t// in\n    tag_439:\n        /* \"#utility.yul\":10678:10746   */\n      swap4\n      pop\n        /* \"#utility.yul\":10755:10820   */\n      tag_440\n        /* \"#utility.yul\":10813:10819   */\n      dup2\n        /* \"#utility.yul\":10808:10811   */\n      dup6\n        /* \"#utility.yul\":10801:10805   */\n      0x20\n        /* \"#utility.yul\":10794:10799   */\n      dup7\n        /* \"#utility.yul\":10790:10806   */\n      add\n        /* \"#utility.yul\":10755:10820   */\n      tag_263\n      jump\t// in\n    tag_440:\n        /* \"#utility.yul\":10845:10874   */\n      tag_441\n        /* \"#utility.yul\":10867:10873   */\n      dup2\n        /* \"#utility.yul\":10845:10874   */\n      tag_264\n      jump\t// in\n    tag_441:\n        /* \"#utility.yul\":10840:10843   */\n      dup5\n        /* \"#utility.yul\":10836:10875   */\n      add\n        /* \"#utility.yul\":10829:10875   */\n      swap2\n      pop\n        /* \"#utility.yul\":10606:10881   */\n      pop\n        /* \"#utility.yul\":10524:10881   */\n      swap3\n      swap2\n      pop\n      pop\n      jump\t// out\n        /* \"#utility.yul\":10887:11083   */\n    tag_285:\n        /* \"#utility.yul\":10976:10986   */\n      0x00\n        /* \"#utility.yul\":11011:11077   */\n      tag_443\n        /* \"#utility.yul\":11073:11076   */\n      dup4\n        /* \"#utility.yul\":11065:11071   */\n      dup4\n        /* \"#utility.yul\":11011:11077   */\n      tag_284\n      jump\t// in\n    tag_443:\n        /* \"#utility.yul\":10997:11077   */\n      swap1\n      pop\n        /* \"#utility.yul\":10887:11083   */\n      swap3\n      swap2\n      pop\n      pop\n      jump\t// out\n        /* \"#utility.yul\":11089:11212   */\n    tag_286:\n        /* \"#utility.yul\":11169:11173   */\n      0x00\n        /* \"#utility.yul\":11201:11205   */\n      0x20\n        /* \"#utility.yul\":11196:11199   */\n      dup3\n        /* \"#utility.yul\":11192:11206   */\n      add\n        /* \"#utility.yul\":11184:11206   */\n      swap1\n      pop\n        /* \"#utility.yul\":11089:11212   */\n      swap2\n      swap1\n      pop\n      jump\t// out\n        /* \"#utility.yul\":11246:12237   */\n    tag_287:\n        /* \"#utility.yul\":11385:11388   */\n      0x00\n        /* \"#utility.yul\":11414:11478   */\n      tag_446\n        /* \"#utility.yul\":11472:11477   */\n      dup3\n        /* \"#utility.yul\":11414:11478   */\n      tag_280\n      jump\t// in\n    tag_446:\n        /* \"#utility.yul\":11494:11590   */\n      tag_447\n        /* \"#utility.yul\":11583:11589   */\n      dup2\n        /* \"#utility.yul\":11578:11581   */\n      dup6\n        /* \"#utility.yul\":11494:11590   */\n      tag_281\n      jump\t// in\n    tag_447:\n        /* \"#utility.yul\":11487:11590   */\n      swap4\n      pop\n        /* \"#utility.yul\":11616:11619   */\n      dup4\n        /* \"#utility.yul\":11661:11665   */\n      0x20\n        /* \"#utility.yul\":11653:11659   */\n      dup3\n        /* \"#utility.yul\":11649:11666   */\n      mul\n        /* \"#utility.yul\":11644:11647   */\n      dup6\n        /* \"#utility.yul\":11640:11667   */\n      add\n        /* \"#utility.yul\":11691:11757   */\n      tag_448\n        /* \"#utility.yul\":11751:11756   */\n      dup6\n        /* \"#utility.yul\":11691:11757   */\n      tag_282\n      jump\t// in\n    tag_448:\n        /* \"#utility.yul\":11780:11787   */\n      dup1\n        /* \"#utility.yul\":11811:11812   */\n      0x00\n        /* \"#utility.yul\":11796:12192   */\n    tag_449:\n        /* \"#utility.yul\":11821:11827   */\n      dup6\n        /* \"#utility.yul\":11818:11819   */\n      dup2\n        /* \"#utility.yul\":11815:11828   */\n      lt\n        /* \"#utility.yul\":11796:12192   */\n      iszero\n      tag_451\n      jumpi\n        /* \"#utility.yul\":11892:11901   */\n      dup5\n        /* \"#utility.yul\":11886:11890   */\n      dup5\n        /* \"#utility.yul\":11882:11902   */\n      sub\n        /* \"#utility.yul\":11877:11880   */\n      dup10\n        /* \"#utility.yul\":11870:11903   */\n      mstore\n        /* \"#utility.yul\":11943:11949   */\n      dup2\n        /* \"#utility.yul\":11937:11950   */\n      mload\n        /* \"#utility.yul\":11971:12055   */\n      tag_452\n        /* \"#utility.yul\":12050:12054   */\n      dup6\n        /* \"#utility.yul\":12035:12048   */\n      dup3\n        /* \"#utility.yul\":11971:12055   */\n      tag_285\n      jump\t// in\n    tag_452:\n        /* \"#utility.yul\":11963:12055   */\n      swap5\n      pop\n        /* \"#utility.yul\":12078:12148   */\n      tag_453\n        /* \"#utility.yul\":12141:12147   */\n      dup4\n        /* \"#utility.yul\":12078:12148   */\n      tag_286\n      jump\t// in\n    tag_453:\n        /* \"#utility.yul\":12068:12148   */\n      swap3\n      pop\n        /* \"#utility.yul\":12177:12181   */\n      0x20\n        /* \"#utility.yul\":12172:12175   */\n      dup11\n        /* \"#utility.yul\":12168:12182   */\n      add\n        /* \"#utility.yul\":12161:12182   */\n      swap10\n      pop\n        /* \"#utility.yul\":11856:12192   */\n      pop\n        /* \"#utility.yul\":11843:11844   */\n      0x01\n        /* \"#utility.yul\":11840:11841   */\n      dup2\n        /* \"#utility.yul\":11836:11845   */\n      add\n        /* \"#utility.yul\":11831:11845   */\n      swap1\n      pop\n        /* \"#utility.yul\":11796:12192   */\n      jump(tag_449)\n    tag_451:\n        /* \"#utility.yul\":11800:11814   */\n      pop\n        /* \"#utility.yul\":12208:12212   */\n      dup3\n        /* \"#utility.yul\":12201:12212   */\n      swap8\n      pop\n        /* \"#utility.yul\":12228:12231   */\n      dup8\n        /* \"#utility.yul\":12221:12231   */\n      swap6\n      pop\n        /* \"#utility.yul\":11390:12237   */\n      pop\n      pop\n      pop\n      pop\n      pop\n        /* \"#utility.yul\":11246:12237   */\n      swap3\n      swap2\n      pop\n      pop\n      jump\t// out\n        /* \"#utility.yul\":12243:12388   */\n    tag_288:\n        /* \"#utility.yul\":12341:12347   */\n      0x00\n        /* \"#utility.yul\":12375:12380   */\n      dup2\n        /* \"#utility.yul\":12369:12381   */\n      mload\n        /* \"#utility.yul\":12359:12381   */\n      swap1\n      pop\n        /* \"#utility.yul\":12243:12388   */\n      swap2\n      swap1\n      pop\n      jump\t// out\n        /* \"#utility.yul\":12394:12609   */\n    tag_289:\n        /* \"#utility.yul\":12524:12535   */\n      0x00\n        /* \"#utility.yul\":12558:12564   */\n      dup3\n        /* \"#utility.yul\":12553:12556   */\n      dup3\n        /* \"#utility.yul\":12546:12565   */\n      mstore\n        /* \"#utility.yul\":12598:12602   */\n      0x20\n        /* \"#utility.yul\":12593:12596   */\n      dup3\n        /* \"#utility.yul\":12589:12603   */\n      add\n        /* \"#utility.yul\":12574:12603   */\n      swap1\n      pop\n        /* \"#utility.yul\":12394:12609   */\n      swap3\n      swap2\n      pop\n      pop\n      jump\t// out\n        /* \"#utility.yul\":12615:12778   */\n    tag_290:\n        /* \"#utility.yul\":12713:12717   */\n      0x00\n        /* \"#utility.yul\":12736:12739   */\n      dup2\n        /* \"#utility.yul\":12728:12739   */\n      swap1\n      pop\n        /* \"#utility.yul\":12766:12770   */\n      0x20\n        /* \"#utility.yul\":12761:12764   */\n      dup3\n        /* \"#utility.yul\":12757:12771   */\n      add\n        /* \"#utility.yul\":12749:12771   */\n      swap1\n      pop\n        /* \"#utility.yul\":12615:12778   */\n      swap2\n      swap1\n      pop\n      jump\t// out\n        /* \"#utility.yul\":12784:12892   */\n    tag_291:\n        /* \"#utility.yul\":12861:12885   */\n      tag_458\n        /* \"#utility.yul\":12879:12884   */\n      dup2\n        /* \"#utility.yul\":12861:12885   */\n      tag_258\n      jump\t// in\n    tag_458:\n        /* \"#utility.yul\":12856:12859   */\n      dup3\n        /* \"#utility.yul\":12849:12886   */\n      mstore\n        /* \"#utility.yul\":12784:12892   */\n      pop\n      pop\n      jump\t// out\n        /* \"#utility.yul\":12998:15233   */\n    tag_292:\n        /* \"#utility.yul\":13119:13122   */\n      0x00\n        /* \"#utility.yul\":13155:13161   */\n      0x0140\n        /* \"#utility.yul\":13150:13153   */\n      dup4\n        /* \"#utility.yul\":13146:13162   */\n      add\n        /* \"#utility.yul\":13244:13248   */\n      0x00\n        /* \"#utility.yul\":13237:13242   */\n      dup4\n        /* \"#utility.yul\":13233:13249   */\n      add\n        /* \"#utility.yul\":13227:13250   */\n      mload\n        /* \"#utility.yul\":13297:13300   */\n      dup5\n        /* \"#utility.yul\":13291:13295   */\n      dup3\n        /* \"#utility.yul\":13287:13301   */\n      sub\n        /* \"#utility.yul\":13280:13284   */\n      0x00\n        /* \"#utility.yul\":13275:13278   */\n      dup7\n        /* \"#utility.yul\":13271:13285   */\n      add\n        /* \"#utility.yul\":13264:13302   */\n      mstore\n        /* \"#utility.yul\":13323:13396   */\n      tag_460\n        /* \"#utility.yul\":13391:13395   */\n      dup3\n        /* \"#utility.yul\":13377:13389   */\n      dup3\n        /* \"#utility.yul\":13323:13396   */\n      tag_284\n      jump\t// in\n    tag_460:\n        /* \"#utility.yul\":13315:13396   */\n      swap2\n      pop\n        /* \"#utility.yul\":13172:13407   */\n      pop\n        /* \"#utility.yul\":13491:13495   */\n      0x20\n        /* \"#utility.yul\":13484:13489   */\n      dup4\n        /* \"#utility.yul\":13480:13496   */\n      add\n        /* \"#utility.yul\":13474:13497   */\n      mload\n        /* \"#utility.yul\":13544:13547   */\n      dup5\n        /* \"#utility.yul\":13538:13542   */\n      dup3\n        /* \"#utility.yul\":13534:13548   */\n      sub\n        /* \"#utility.yul\":13527:13531   */\n      0x20\n        /* \"#utility.yul\":13522:13525   */\n      dup7\n        /* \"#utility.yul\":13518:13532   */\n      add\n        /* \"#utility.yul\":13511:13549   */\n      mstore\n        /* \"#utility.yul\":13570:13643   */\n      tag_461\n        /* \"#utility.yul\":13638:13642   */\n      dup3\n        /* \"#utility.yul\":13624:13636   */\n      dup3\n        /* \"#utility.yul\":13570:13643   */\n      tag_284\n      jump\t// in\n    tag_461:\n        /* \"#utility.yul\":13562:13643   */\n      swap2\n      pop\n        /* \"#utility.yul\":13417:13654   */\n      pop\n        /* \"#utility.yul\":13747:13751   */\n      0x40\n        /* \"#utility.yul\":13740:13745   */\n      dup4\n        /* \"#utility.yul\":13736:13752   */\n      add\n        /* \"#utility.yul\":13730:13753   */\n      mload\n        /* \"#utility.yul\":13800:13803   */\n      dup5\n        /* \"#utility.yul\":13794:13798   */\n      dup3\n        /* \"#utility.yul\":13790:13804   */\n      sub\n        /* \"#utility.yul\":13783:13787   */\n      0x40\n        /* \"#utility.yul\":13778:13781   */\n      dup7\n        /* \"#utility.yul\":13774:13788   */\n      add\n        /* \"#utility.yul\":13767:13805   */\n      mstore\n        /* \"#utility.yul\":13826:13899   */\n      tag_462\n        /* \"#utility.yul\":13894:13898   */\n      dup3\n        /* \"#utility.yul\":13880:13892   */\n      dup3\n        /* \"#utility.yul\":13826:13899   */\n      tag_284\n      jump\t// in\n    tag_462:\n        /* \"#utility.yul\":13818:13899   */\n      swap2\n      pop\n        /* \"#utility.yul\":13664:13910   */\n      pop\n        /* \"#utility.yul\":14004:14008   */\n      0x60\n        /* \"#utility.yul\":13997:14002   */\n      dup4\n        /* \"#utility.yul\":13993:14009   */\n      add\n        /* \"#utility.yul\":13987:14010   */\n      mload\n        /* \"#utility.yul\":14023:14086   */\n      tag_463\n        /* \"#utility.yul\":14080:14084   */\n      0x60\n        /* \"#utility.yul\":14075:14078   */\n      dup7\n        /* \"#utility.yul\":14071:14085   */\n      add\n        /* \"#utility.yul\":14057:14069   */\n      dup3\n        /* \"#utility.yul\":14023:14086   */\n      tag_291\n      jump\t// in\n    tag_463:\n        /* \"#utility.yul\":13920:14096   */\n      pop\n        /* \"#utility.yul\":14192:14196   */\n      0x80\n        /* \"#utility.yul\":14185:14190   */\n      dup4\n        /* \"#utility.yul\":14181:14197   */\n      add\n        /* \"#utility.yul\":14175:14198   */\n      mload\n        /* \"#utility.yul\":14211:14274   */\n      tag_464\n        /* \"#utility.yul\":14268:14272   */\n      0x80\n        /* \"#utility.yul\":14263:14266   */\n      dup7\n        /* \"#utility.yul\":14259:14273   */\n      add\n        /* \"#utility.yul\":14245:14257   */\n      dup3\n        /* \"#utility.yul\":14211:14274   */\n      tag_291\n      jump\t// in\n    tag_464:\n        /* \"#utility.yul\":14106:14284   */\n      pop\n        /* \"#utility.yul\":14374:14378   */\n      0xa0\n        /* \"#utility.yul\":14367:14372   */\n      dup4\n        /* \"#utility.yul\":14363:14379   */\n      add\n        /* \"#utility.yul\":14357:14380   */\n      mload\n        /* \"#utility.yul\":14393:14456   */\n      tag_465\n        /* \"#utility.yul\":14450:14454   */\n      0xa0\n        /* \"#utility.yul\":14445:14448   */\n      dup7\n        /* \"#utility.yul\":14441:14455   */\n      add\n        /* \"#utility.yul\":14427:14439   */\n      dup3\n        /* \"#utility.yul\":14393:14456   */\n      tag_291\n      jump\t// in\n    tag_465:\n        /* \"#utility.yul\":14294:14466   */\n      pop\n        /* \"#utility.yul\":14561:14565   */\n      0xc0\n        /* \"#utility.yul\":14554:14559   */\n      dup4\n        /* \"#utility.yul\":14550:14566   */\n      add\n        /* \"#utility.yul\":14544:14567   */\n      mload\n        /* \"#utility.yul\":14580:14643   */\n      tag_466\n        /* \"#utility.yul\":14637:14641   */\n      0xc0\n        /* \"#utility.yul\":14632:14635   */\n      dup7\n        /* \"#utility.yul\":14628:14642   */\n      add\n        /* \"#utility.yul\":14614:14626   */\n      dup3\n        /* \"#utility.yul\":14580:14643   */\n      tag_291\n      jump\t// in\n    tag_466:\n        /* \"#utility.yul\":14476:14653   */\n      pop\n        /* \"#utility.yul\":14745:14749   */\n      0xe0\n        /* \"#utility.yul\":14738:14743   */\n      dup4\n        /* \"#utility.yul\":14734:14750   */\n      add\n        /* \"#utility.yul\":14728:14751   */\n      mload\n        /* \"#utility.yul\":14764:14827   */\n      tag_467\n        /* \"#utility.yul\":14821:14825   */\n      0xe0\n        /* \"#utility.yul\":14816:14819   */\n      dup7\n        /* \"#utility.yul\":14812:14826   */\n      add\n        /* \"#utility.yul\":14798:14810   */\n      dup3\n        /* \"#utility.yul\":14764:14827   */\n      tag_291\n      jump\t// in\n    tag_467:\n        /* \"#utility.yul\":14663:14837   */\n      pop\n        /* \"#utility.yul\":14928:14934   */\n      0x0100\n        /* \"#utility.yul\":14921:14926   */\n      dup4\n        /* \"#utility.yul\":14917:14935   */\n      add\n        /* \"#utility.yul\":14911:14936   */\n      mload\n        /* \"#utility.yul\":14949:15014   */\n      tag_468\n        /* \"#utility.yul\":15006:15012   */\n      0x0100\n        /* \"#utility.yul\":15001:15004   */\n      dup7\n        /* \"#utility.yul\":14997:15013   */\n      add\n        /* \"#utility.yul\":14983:14995   */\n      dup3\n        /* \"#utility.yul\":14949:15014   */\n      tag_291\n      jump\t// in\n    tag_468:\n        /* \"#utility.yul\":14847:15024   */\n      pop\n        /* \"#utility.yul\":15110:15116   */\n      0x0120\n        /* \"#utility.yul\":15103:15108   */\n      dup4\n        /* \"#utility.yul\":15099:15117   */\n      add\n        /* \"#utility.yul\":15093:15118   */\n      mload\n        /* \"#utility.yul\":15131:15196   */\n      tag_469\n        /* \"#utility.yul\":15188:15194   */\n      0x0120\n        /* \"#utility.yul\":15183:15186   */\n      dup7\n        /* \"#utility.yul\":15179:15195   */\n      add\n        /* \"#utility.yul\":15165:15177   */\n      dup3\n        /* \"#utility.yul\":15131:15196   */\n      tag_291\n      jump\t// in\n    tag_469:\n        /* \"#utility.yul\":15034:15206   */\n      pop\n        /* \"#utility.yul\":15223:15227   */\n      dup1\n        /* \"#utility.yul\":15216:15227   */\n      swap2\n      pop\n        /* \"#utility.yul\":13124:15233   */\n      pop\n        /* \"#utility.yul\":12998:15233   */\n      swap3\n      swap2\n      pop\n      pop\n      jump\t// out\n        /* \"#utility.yul\":15239:15519   */\n    tag_293:\n        /* \"#utility.yul\":15370:15380   */\n      0x00\n        /* \"#utility.yul\":15405:15513   */\n      tag_471\n        /* \"#utility.yul\":15509:15512   */\n      dup4\n        /* \"#utility.yul\":15501:15507   */\n      dup4\n        /* \"#utility.yul\":15405:15513   */\n      tag_292\n      jump\t// in\n    tag_471:\n        /* \"#utility.yul\":15391:15513   */\n      swap1\n      pop\n        /* \"#utility.yul\":15239:15519   */\n      swap3\n      swap2\n      pop\n      pop\n      jump\t// out\n        /* \"#utility.yul\":15525:15669   */\n    tag_294:\n        /* \"#utility.yul\":15626:15630   */\n      0x00\n        /* \"#utility.yul\":15658:15662   */\n      0x20\n        /* \"#utility.yul\":15653:15656   */\n      dup3\n        /* \"#utility.yul\":15649:15663   */\n      add\n        /* \"#utility.yul\":15641:15663   */\n      swap1\n      pop\n        /* \"#utility.yul\":15525:15669   */\n      swap2\n      swap1\n      pop\n      jump\t// out\n        /* \"#utility.yul\":15779:16938   */\n    tag_295:\n        /* \"#utility.yul\":15960:15963   */\n      0x00\n        /* \"#utility.yul\":15989:16074   */\n      tag_474\n        /* \"#utility.yul\":16068:16073   */\n      dup3\n        /* \"#utility.yul\":15989:16074   */\n      tag_288\n      jump\t// in\n    tag_474:\n        /* \"#utility.yul\":16090:16207   */\n      tag_475\n        /* \"#utility.yul\":16200:16206   */\n      dup2\n        /* \"#utility.yul\":16195:16198   */\n      dup6\n        /* \"#utility.yul\":16090:16207   */\n      tag_289\n      jump\t// in\n    tag_475:\n        /* \"#utility.yul\":16083:16207   */\n      swap4\n      pop\n        /* \"#utility.yul\":16233:16236   */\n      dup4\n        /* \"#utility.yul\":16278:16282   */\n      0x20\n        /* \"#utility.yul\":16270:16276   */\n      dup3\n        /* \"#utility.yul\":16266:16283   */\n      mul\n        /* \"#utility.yul\":16261:16264   */\n      dup6\n        /* \"#utility.yul\":16257:16284   */\n      add\n        /* \"#utility.yul\":16308:16395   */\n      tag_476\n        /* \"#utility.yul\":16389:16394   */\n      dup6\n        /* \"#utility.yul\":16308:16395   */\n      tag_290\n      jump\t// in\n    tag_476:\n        /* \"#utility.yul\":16418:16425   */\n      dup1\n        /* \"#utility.yul\":16449:16450   */\n      0x00\n        /* \"#utility.yul\":16434:16893   */\n    tag_477:\n        /* \"#utility.yul\":16459:16465   */\n      dup6\n        /* \"#utility.yul\":16456:16457   */\n      dup2\n        /* \"#utility.yul\":16453:16466   */\n      lt\n        /* \"#utility.yul\":16434:16893   */\n      iszero\n      tag_479\n      jumpi\n        /* \"#utility.yul\":16530:16539   */\n      dup5\n        /* \"#utility.yul\":16524:16528   */\n      dup5\n        /* \"#utility.yul\":16520:16540   */\n      sub\n        /* \"#utility.yul\":16515:16518   */\n      dup10\n        /* \"#utility.yul\":16508:16541   */\n      mstore\n        /* \"#utility.yul\":16581:16587   */\n      dup2\n        /* \"#utility.yul\":16575:16588   */\n      mload\n        /* \"#utility.yul\":16609:16735   */\n      tag_480\n        /* \"#utility.yul\":16730:16734   */\n      dup6\n        /* \"#utility.yul\":16715:16728   */\n      dup3\n        /* \"#utility.yul\":16609:16735   */\n      tag_293\n      jump\t// in\n    tag_480:\n        /* \"#utility.yul\":16601:16735   */\n      swap5\n      pop\n        /* \"#utility.yul\":16758:16849   */\n      tag_481\n        /* \"#utility.yul\":16842:16848   */\n      dup4\n        /* \"#utility.yul\":16758:16849   */\n      tag_294\n      jump\t// in\n    tag_481:\n        /* \"#utility.yul\":16748:16849   */\n      swap3\n      pop\n        /* \"#utility.yul\":16878:16882   */\n      0x20\n        /* \"#utility.yul\":16873:16876   */\n      dup11\n        /* \"#utility.yul\":16869:16883   */\n      add\n        /* \"#utility.yul\":16862:16883   */\n      swap10\n      pop\n        /* \"#utility.yul\":16494:16893   */\n      pop\n        /* \"#utility.yul\":16481:16482   */\n      0x01\n        /* \"#utility.yul\":16478:16479   */\n      dup2\n        /* \"#utility.yul\":16474:16483   */\n      add\n        /* \"#utility.yul\":16469:16483   */\n      swap1\n      pop\n        /* \"#utility.yul\":16434:16893   */\n      jump(tag_477)\n    tag_479:\n        /* \"#utility.yul\":16438:16452   */\n      pop\n        /* \"#utility.yul\":16909:16913   */\n      dup3\n        /* \"#utility.yul\":16902:16913   */\n      swap8\n      pop\n        /* \"#utility.yul\":16929:16932   */\n      dup8\n        /* \"#utility.yul\":16922:16932   */\n      swap6\n      pop\n        /* \"#utility.yul\":15965:16938   */\n      pop\n      pop\n      pop\n      pop\n      pop\n        /* \"#utility.yul\":15779:16938   */\n      swap3\n      swap2\n      pop\n      pop\n      jump\t// out\n        /* \"#utility.yul\":16944:17742   */\n    tag_75:\n        /* \"#utility.yul\":17247:17251   */\n      0x00\n        /* \"#utility.yul\":17285:17287   */\n      0x40\n        /* \"#utility.yul\":17274:17283   */\n      dup3\n        /* \"#utility.yul\":17270:17288   */\n      add\n        /* \"#utility.yul\":17262:17288   */\n      swap1\n      pop\n        /* \"#utility.yul\":17334:17343   */\n      dup2\n        /* \"#utility.yul\":17328:17332   */\n      dup2\n        /* \"#utility.yul\":17324:17344   */\n      sub\n        /* \"#utility.yul\":17320:17321   */\n      0x00\n        /* \"#utility.yul\":17309:17318   */\n      dup4\n        /* \"#utility.yul\":17305:17322   */\n      add\n        /* \"#utility.yul\":17298:17345   */\n      mstore\n        /* \"#utility.yul\":17362:17490   */\n      tag_483\n        /* \"#utility.yul\":17485:17489   */\n      dup2\n        /* \"#utility.yul\":17476:17482   */\n      dup6\n        /* \"#utility.yul\":17362:17490   */\n      tag_287\n      jump\t// in\n    tag_483:\n        /* \"#utility.yul\":17354:17490   */\n      swap1\n      pop\n        /* \"#utility.yul\":17537:17546   */\n      dup2\n        /* \"#utility.yul\":17531:17535   */\n      dup2\n        /* \"#utility.yul\":17527:17547   */\n      sub\n        /* \"#utility.yul\":17522:17524   */\n      0x20\n        /* \"#utility.yul\":17511:17520   */\n      dup4\n        /* \"#utility.yul\":17507:17525   */\n      add\n        /* \"#utility.yul\":17500:17548   */\n      mstore\n        /* \"#utility.yul\":17565:17735   */\n      tag_484\n        /* \"#utility.yul\":17730:17734   */\n      dup2\n        /* \"#utility.yul\":17721:17727   */\n      dup5\n        /* \"#utility.yul\":17565:17735   */\n      tag_295\n      jump\t// in\n    tag_484:\n        /* \"#utility.yul\":17557:17735   */\n      swap1\n      pop\n        /* \"#utility.yul\":16944:17742   */\n      swap4\n      swap3\n      pop\n      pop\n      pop\n      jump\t// out\n        /* \"#utility.yul\":17748:17852   */\n    tag_296:\n        /* \"#utility.yul\":17793:17800   */\n      0x00\n        /* \"#utility.yul\":17822:17846   */\n      tag_486\n        /* \"#utility.yul\":17840:17845   */\n      dup3\n        /* \"#utility.yul\":17822:17846   */\n      tag_266\n      jump\t// in\n    tag_486:\n        /* \"#utility.yul\":17811:17846   */\n      swap1\n      pop\n        /* \"#utility.yul\":17748:17852   */\n      swap2\n      swap1\n      pop\n      jump\t// out\n        /* \"#utility.yul\":17858:17996   */\n    tag_297:\n        /* \"#utility.yul\":17939:17971   */\n      tag_488\n        /* \"#utility.yul\":17965:17970   */\n      dup2\n        /* \"#utility.yul\":17939:17971   */\n      tag_296\n      jump\t// in\n    tag_488:\n        /* \"#utility.yul\":17932:17937   */\n      dup2\n        /* \"#utility.yul\":17929:17972   */\n      eq\n        /* \"#utility.yul\":17919:17990   */\n      tag_489\n      jumpi\n        /* \"#utility.yul\":17986:17987   */\n      0x00\n        /* \"#utility.yul\":17983:17984   */\n      dup1\n        /* \"#utility.yul\":17976:17988   */\n      revert\n        /* \"#utility.yul\":17919:17990   */\n    tag_489:\n        /* \"#utility.yul\":17858:17996   */\n      pop\n      jump\t// out\n        /* \"#utility.yul\":18002:18157   */\n    tag_298:\n        /* \"#utility.yul\":18056:18061   */\n      0x00\n        /* \"#utility.yul\":18094:18100   */\n      dup2\n        /* \"#utility.yul\":18081:18101   */\n      calldataload\n        /* \"#utility.yul\":18072:18101   */\n      swap1\n      pop\n        /* \"#utility.yul\":18110:18151   */\n      tag_491\n        /* \"#utility.yul\":18145:18150   */\n      dup2\n        /* \"#utility.yul\":18110:18151   */\n      tag_297\n      jump\t// in\n    tag_491:\n        /* \"#utility.yul\":18002:18157   */\n      swap3\n      swap2\n      pop\n      pop\n      jump\t// out\n        /* \"#utility.yul\":18163:18653   */\n    tag_79:\n        /* \"#utility.yul\":18239:18245   */\n      0x00\n        /* \"#utility.yul\":18247:18253   */\n      dup1\n        /* \"#utility.yul\":18296:18298   */\n      0x40\n        /* \"#utility.yul\":18284:18293   */\n      dup4\n        /* \"#utility.yul\":18275:18282   */\n      dup6\n        /* \"#utility.yul\":18271:18294   */\n      sub\n        /* \"#utility.yul\":18267:18299   */\n      slt\n        /* \"#utility.yul\":18264:18383   */\n      iszero\n      tag_493\n      jumpi\n        /* \"#utility.yul\":18302:18381   */\n      tag_494\n      tag_256\n      jump\t// in\n    tag_494:\n        /* \"#utility.yul\":18264:18383   */\n    tag_493:\n        /* \"#utility.yul\":18422:18423   */\n      0x00\n        /* \"#utility.yul\":18447:18508   */\n      tag_495\n        /* \"#utility.yul\":18500:18507   */\n      dup6\n        /* \"#utility.yul\":18491:18497   */\n      dup3\n        /* \"#utility.yul\":18480:18489   */\n      dup7\n        /* \"#utility.yul\":18476:18498   */\n      add\n        /* \"#utility.yul\":18447:18508   */\n      tag_298\n      jump\t// in\n    tag_495:\n        /* \"#utility.yul\":18437:18508   */\n      swap3\n      pop\n        /* \"#utility.yul\":18393:18518   */\n      pop\n        /* \"#utility.yul\":18557:18559   */\n      0x20\n        /* \"#utility.yul\":18583:18636   */\n      tag_496\n        /* \"#utility.yul\":18628:18635   */\n      dup6\n        /* \"#utility.yul\":18619:18625   */\n      dup3\n        /* \"#utility.yul\":18608:18617   */\n      dup7\n        /* \"#utility.yul\":18604:18626   */\n      add\n        /* \"#utility.yul\":18583:18636   */\n      tag_260\n      jump\t// in\n    tag_496:\n        /* \"#utility.yul\":18573:18636   */\n      swap2\n      pop\n        /* \"#utility.yul\":18528:18646   */\n      pop\n        /* \"#utility.yul\":18163:18653   */\n      swap3\n      pop\n      swap3\n      swap1\n      pop\n      jump\t// out\n        /* \"#utility.yul\":18659:19493   */\n    tag_84:\n        /* \"#utility.yul\":18747:18753   */\n      0x00\n        /* \"#utility.yul\":18755:18761   */\n      dup1\n        /* \"#utility.yul\":18804:18806   */\n      0x40\n        /* \"#utility.yul\":18792:18801   */\n      dup4\n        /* \"#utility.yul\":18783:18790   */\n      dup6\n        /* \"#utility.yul\":18779:18802   */\n      sub\n        /* \"#utility.yul\":18775:18807   */\n      slt\n        /* \"#utility.yul\":18772:18891   */\n      iszero\n      tag_498\n      jumpi\n        /* \"#utility.yul\":18810:18889   */\n      tag_499\n      tag_256\n      jump\t// in\n    tag_499:\n        /* \"#utility.yul\":18772:18891   */\n    tag_498:\n        /* \"#utility.yul\":18958:18959   */\n      0x00\n        /* \"#utility.yul\":18947:18956   */\n      dup4\n        /* \"#utility.yul\":18943:18960   */\n      add\n        /* \"#utility.yul\":18930:18961   */\n      calldataload\n        /* \"#utility.yul\":18988:19006   */\n      0xffffffffffffffff\n        /* \"#utility.yul\":18980:18986   */\n      dup2\n        /* \"#utility.yul\":18977:19007   */\n      gt\n        /* \"#utility.yul\":18974:19091   */\n      iszero\n      tag_500\n      jumpi\n        /* \"#utility.yul\":19010:19089   */\n      tag_501\n      tag_257\n      jump\t// in\n    tag_501:\n        /* \"#utility.yul\":18974:19091   */\n    tag_500:\n        /* \"#utility.yul\":19115:19178   */\n      tag_502\n        /* \"#utility.yul\":19170:19177   */\n      dup6\n        /* \"#utility.yul\":19161:19167   */\n      dup3\n        /* \"#utility.yul\":19150:19159   */\n      dup7\n        /* \"#utility.yul\":19146:19168   */\n      add\n        /* \"#utility.yul\":19115:19178   */\n      tag_279\n      jump\t// in\n    tag_502:\n        /* \"#utility.yul\":19105:19178   */\n      swap3\n      pop\n        /* \"#utility.yul\":18901:19188   */\n      pop\n        /* \"#utility.yul\":19255:19257   */\n      0x20\n        /* \"#utility.yul\":19244:19253   */\n      dup4\n        /* \"#utility.yul\":19240:19258   */\n      add\n        /* \"#utility.yul\":19227:19259   */\n      calldataload\n        /* \"#utility.yul\":19286:19304   */\n      0xffffffffffffffff\n        /* \"#utility.yul\":19278:19284   */\n      dup2\n        /* \"#utility.yul\":19275:19305   */\n      gt\n        /* \"#utility.yul\":19272:19389   */\n      iszero\n      tag_503\n      jumpi\n        /* \"#utility.yul\":19308:19387   */\n      tag_504\n      tag_257\n      jump\t// in\n    tag_504:\n        /* \"#utility.yul\":19272:19389   */\n    tag_503:\n        /* \"#utility.yul\":19413:19476   */\n      tag_505\n        /* \"#utility.yul\":19468:19475   */\n      dup6\n        /* \"#utility.yul\":19459:19465   */\n      dup3\n        /* \"#utility.yul\":19448:19457   */\n      dup7\n        /* \"#utility.yul\":19444:19466   */\n      add\n        /* \"#utility.yul\":19413:19476   */\n      tag_279\n      jump\t// in\n    tag_505:\n        /* \"#utility.yul\":19403:19476   */\n      swap2\n      pop\n        /* \"#utility.yul\":19198:19486   */\n      pop\n        /* \"#utility.yul\":18659:19493   */\n      swap3\n      pop\n      swap3\n      swap1\n      pop\n      jump\t// out\n        /* \"#utility.yul\":19499:19589   */\n    tag_299:\n        /* \"#utility.yul\":19533:19540   */\n      0x00\n        /* \"#utility.yul\":19576:19581   */\n      dup2\n        /* \"#utility.yul\":19569:19582   */\n      iszero\n        /* \"#utility.yul\":19562:19583   */\n      iszero\n        /* \"#utility.yul\":19551:19583   */\n      swap1\n      pop\n        /* \"#utility.yul\":19499:19589   */\n      swap2\n      swap1\n      pop\n      jump\t// out\n        /* \"#utility.yul\":19595:19704   */\n    tag_300:\n        /* \"#utility.yul\":19676:19697   */\n      tag_508\n        /* \"#utility.yul\":19691:19696   */\n      dup2\n        /* \"#utility.yul\":19676:19697   */\n      tag_299\n      jump\t// in\n    tag_508:\n        /* \"#utility.yul\":19671:19674   */\n      dup3\n        /* \"#utility.yul\":19664:19698   */\n      mstore\n        /* \"#utility.yul\":19595:19704   */\n      pop\n      pop\n      jump\t// out\n        /* \"#utility.yul\":19710:19920   */\n    tag_87:\n        /* \"#utility.yul\":19797:19801   */\n      0x00\n        /* \"#utility.yul\":19835:19837   */\n      0x20\n        /* \"#utility.yul\":19824:19833   */\n      dup3\n        /* \"#utility.yul\":19820:19838   */\n      add\n        /* \"#utility.yul\":19812:19838   */\n      swap1\n      pop\n        /* \"#utility.yul\":19848:19913   */\n      tag_510\n        /* \"#utility.yul\":19910:19911   */\n      0x00\n        /* \"#utility.yul\":19899:19908   */\n      dup4\n        /* \"#utility.yul\":19895:19912   */\n      add\n        /* \"#utility.yul\":19886:19892   */\n      dup5\n        /* \"#utility.yul\":19848:19913   */\n      tag_300\n      jump\t// in\n    tag_510:\n        /* \"#utility.yul\":19710:19920   */\n      swap3\n      swap2\n      pop\n      pop\n      jump\t// out\n        /* \"#utility.yul\":19926:20580   */\n    tag_94:\n        /* \"#utility.yul\":20004:20010   */\n      0x00\n        /* \"#utility.yul\":20012:20018   */\n      dup1\n        /* \"#utility.yul\":20061:20063   */\n      0x40\n        /* \"#utility.yul\":20049:20058   */\n      dup4\n        /* \"#utility.yul\":20040:20047   */\n      dup6\n        /* \"#utility.yul\":20036:20059   */\n      sub\n        /* \"#utility.yul\":20032:20064   */\n      slt\n        /* \"#utility.yul\":20029:20148   */\n      iszero\n      tag_512\n      jumpi\n        /* \"#utility.yul\":20067:20146   */\n      tag_513\n      tag_256\n      jump\t// in\n    tag_513:\n        /* \"#utility.yul\":20029:20148   */\n    tag_512:\n        /* \"#utility.yul\":20187:20188   */\n      0x00\n        /* \"#utility.yul\":20212:20265   */\n      tag_514\n        /* \"#utility.yul\":20257:20264   */\n      dup6\n        /* \"#utility.yul\":20248:20254   */\n      dup3\n        /* \"#utility.yul\":20237:20246   */\n      dup7\n        /* \"#utility.yul\":20233:20255   */\n      add\n        /* \"#utility.yul\":20212:20265   */\n      tag_271\n      jump\t// in\n    tag_514:\n        /* \"#utility.yul\":20202:20265   */\n      swap3\n      pop\n        /* \"#utility.yul\":20158:20275   */\n      pop\n        /* \"#utility.yul\":20342:20344   */\n      0x20\n        /* \"#utility.yul\":20331:20340   */\n      dup4\n        /* \"#utility.yul\":20327:20345   */\n      add\n        /* \"#utility.yul\":20314:20346   */\n      calldataload\n        /* \"#utility.yul\":20373:20391   */\n      0xffffffffffffffff\n        /* \"#utility.yul\":20365:20371   */\n      dup2\n        /* \"#utility.yul\":20362:20392   */\n      gt\n        /* \"#utility.yul\":20359:20476   */\n      iszero\n      tag_515\n      jumpi\n        /* \"#utility.yul\":20395:20474   */\n      tag_516\n      tag_257\n      jump\t// in\n    tag_516:\n        /* \"#utility.yul\":20359:20476   */\n    tag_515:\n        /* \"#utility.yul\":20500:20563   */\n      tag_517\n        /* \"#utility.yul\":20555:20562   */\n      dup6\n        /* \"#utility.yul\":20546:20552   */\n      dup3\n        /* \"#utility.yul\":20535:20544   */\n      dup7\n        /* \"#utility.yul\":20531:20553   */\n      add\n        /* \"#utility.yul\":20500:20563   */\n      tag_279\n      jump\t// in\n    tag_517:\n        /* \"#utility.yul\":20490:20563   */\n      swap2\n      pop\n        /* \"#utility.yul\":20285:20573   */\n      pop\n        /* \"#utility.yul\":19926:20580   */\n      swap3\n      pop\n      swap3\n      swap1\n      pop\n      jump\t// out\n        /* \"#utility.yul\":20586:22767   */\n    tag_101:\n        /* \"#utility.yul\":20756:20762   */\n      0x00\n        /* \"#utility.yul\":20764:20770   */\n      dup1\n        /* \"#utility.yul\":20772:20778   */\n      0x00\n        /* \"#utility.yul\":20780:20786   */\n      dup1\n        /* \"#utility.yul\":20788:20794   */\n      0x00\n        /* \"#utility.yul\":20796:20802   */\n      dup1\n        /* \"#utility.yul\":20804:20810   */\n      0x00\n        /* \"#utility.yul\":20812:20818   */\n      dup1\n        /* \"#utility.yul\":20820:20826   */\n      0x00\n        /* \"#utility.yul\":20828:20834   */\n      dup1\n        /* \"#utility.yul\":20877:20880   */\n      0x0140\n        /* \"#utility.yul\":20865:20874   */\n      dup12\n        /* \"#utility.yul\":20856:20863   */\n      dup14\n        /* \"#utility.yul\":20852:20875   */\n      sub\n        /* \"#utility.yul\":20848:20881   */\n      slt\n        /* \"#utility.yul\":20845:20965   */\n      iszero\n      tag_519\n      jumpi\n        /* \"#utility.yul\":20884:20963   */\n      tag_520\n      tag_256\n      jump\t// in\n    tag_520:\n        /* \"#utility.yul\":20845:20965   */\n    tag_519:\n        /* \"#utility.yul\":21032:21033   */\n      0x00\n        /* \"#utility.yul\":21021:21030   */\n      dup12\n        /* \"#utility.yul\":21017:21034   */\n      add\n        /* \"#utility.yul\":21004:21035   */\n      calldataload\n        /* \"#utility.yul\":21062:21080   */\n      0xffffffffffffffff\n        /* \"#utility.yul\":21054:21060   */\n      dup2\n        /* \"#utility.yul\":21051:21081   */\n      gt\n        /* \"#utility.yul\":21048:21165   */\n      iszero\n      tag_521\n      jumpi\n        /* \"#utility.yul\":21084:21163   */\n      tag_522\n      tag_257\n      jump\t// in\n    tag_522:\n        /* \"#utility.yul\":21048:21165   */\n    tag_521:\n        /* \"#utility.yul\":21189:21252   */\n      tag_523\n        /* \"#utility.yul\":21244:21251   */\n      dup14\n        /* \"#utility.yul\":21235:21241   */\n      dup3\n        /* \"#utility.yul\":21224:21233   */\n      dup15\n        /* \"#utility.yul\":21220:21242   */\n      add\n        /* \"#utility.yul\":21189:21252   */\n      tag_279\n      jump\t// in\n    tag_523:\n        /* \"#utility.yul\":21179:21252   */\n      swap11\n      pop\n        /* \"#utility.yul\":20975:21262   */\n      pop\n        /* \"#utility.yul\":21329:21331   */\n      0x20\n        /* \"#utility.yul\":21318:21327   */\n      dup12\n        /* \"#utility.yul\":21314:21332   */\n      add\n        /* \"#utility.yul\":21301:21333   */\n      calldataload\n        /* \"#utility.yul\":21360:21378   */\n      0xffffffffffffffff\n        /* \"#utility.yul\":21352:21358   */\n      dup2\n        /* \"#utility.yul\":21349:21379   */\n      gt\n        /* \"#utility.yul\":21346:21463   */\n      iszero\n      tag_524\n      jumpi\n        /* \"#utility.yul\":21382:21461   */\n      tag_525\n      tag_257\n      jump\t// in\n    tag_525:\n        /* \"#utility.yul\":21346:21463   */\n    tag_524:\n        /* \"#utility.yul\":21487:21550   */\n      tag_526\n        /* \"#utility.yul\":21542:21549   */\n      dup14\n        /* \"#utility.yul\":21533:21539   */\n      dup3\n        /* \"#utility.yul\":21522:21531   */\n      dup15\n        /* \"#utility.yul\":21518:21540   */\n      add\n        /* \"#utility.yul\":21487:21550   */\n      tag_279\n      jump\t// in\n    tag_526:\n        /* \"#utility.yul\":21477:21550   */\n      swap10\n      pop\n        /* \"#utility.yul\":21272:21560   */\n      pop\n        /* \"#utility.yul\":21627:21629   */\n      0x40\n        /* \"#utility.yul\":21616:21625   */\n      dup12\n        /* \"#utility.yul\":21612:21630   */\n      add\n        /* \"#utility.yul\":21599:21631   */\n      calldataload\n        /* \"#utility.yul\":21658:21676   */\n      0xffffffffffffffff\n        /* \"#utility.yul\":21650:21656   */\n      dup2\n        /* \"#utility.yul\":21647:21677   */\n      gt\n        /* \"#utility.yul\":21644:21761   */\n      iszero\n      tag_527\n      jumpi\n        /* \"#utility.yul\":21680:21759   */\n      tag_528\n      tag_257\n      jump\t// in\n    tag_528:\n        /* \"#utility.yul\":21644:21761   */\n    tag_527:\n        /* \"#utility.yul\":21785:21848   */\n      tag_529\n        /* \"#utility.yul\":21840:21847   */\n      dup14\n        /* \"#utility.yul\":21831:21837   */\n      dup3\n        /* \"#utility.yul\":21820:21829   */\n      dup15\n        /* \"#utility.yul\":21816:21838   */\n      add\n        /* \"#utility.yul\":21785:21848   */\n      tag_279\n      jump\t// in\n    tag_529:\n        /* \"#utility.yul\":21775:21848   */\n      swap9\n      pop\n        /* \"#utility.yul\":21570:21858   */\n      pop\n        /* \"#utility.yul\":21897:21899   */\n      0x60\n        /* \"#utility.yul\":21923:21976   */\n      tag_530\n        /* \"#utility.yul\":21968:21975   */\n      dup14\n        /* \"#utility.yul\":21959:21965   */\n      dup3\n        /* \"#utility.yul\":21948:21957   */\n      dup15\n        /* \"#utility.yul\":21944:21966   */\n      add\n        /* \"#utility.yul\":21923:21976   */\n      tag_260\n      jump\t// in\n    tag_530:\n        /* \"#utility.yul\":21913:21976   */\n      swap8\n      pop\n        /* \"#utility.yul\":21868:21986   */\n      pop\n        /* \"#utility.yul\":22025:22028   */\n      0x80\n        /* \"#utility.yul\":22052:22105   */\n      tag_531\n        /* \"#utility.yul\":22097:22104   */\n      dup14\n        /* \"#utility.yul\":22088:22094   */\n      dup3\n        /* \"#utility.yul\":22077:22086   */\n      dup15\n        /* \"#utility.yul\":22073:22095   */\n      add\n        /* \"#utility.yul\":22052:22105   */\n      tag_260\n      jump\t// in\n    tag_531:\n        /* \"#utility.yul\":22042:22105   */\n      swap7\n      pop\n        /* \"#utility.yul\":21996:22115   */\n      pop\n        /* \"#utility.yul\":22154:22157   */\n      0xa0\n        /* \"#utility.yul\":22181:22234   */\n      tag_532\n        /* \"#utility.yul\":22226:22233   */\n      dup14\n        /* \"#utility.yul\":22217:22223   */\n      dup3\n        /* \"#utility.yul\":22206:22215   */\n      dup15\n        /* \"#utility.yul\":22202:22224   */\n      add\n        /* \"#utility.yul\":22181:22234   */\n      tag_260\n      jump\t// in\n    tag_532:\n        /* \"#utility.yul\":22171:22234   */\n      swap6\n      pop\n        /* \"#utility.yul\":22125:22244   */\n      pop\n        /* \"#utility.yul\":22283:22286   */\n      0xc0\n        /* \"#utility.yul\":22310:22363   */\n      tag_533\n        /* \"#utility.yul\":22355:22362   */\n      dup14\n        /* \"#utility.yul\":22346:22352   */\n      dup3\n        /* \"#utility.yul\":22335:22344   */\n      dup15\n        /* \"#utility.yul\":22331:22353   */\n      add\n        /* \"#utility.yul\":22310:22363   */\n      tag_260\n      jump\t// in\n    tag_533:\n        /* \"#utility.yul\":22300:22363   */\n      swap5\n      pop\n        /* \"#utility.yul\":22254:22373   */\n      pop\n        /* \"#utility.yul\":22412:22415   */\n      0xe0\n        /* \"#utility.yul\":22439:22492   */\n      tag_534\n        /* \"#utility.yul\":22484:22491   */\n      dup14\n        /* \"#utility.yul\":22475:22481   */\n      dup3\n        /* \"#utility.yul\":22464:22473   */\n      dup15\n        /* \"#utility.yul\":22460:22482   */\n      add\n        /* \"#utility.yul\":22439:22492   */\n      tag_260\n      jump\t// in\n    tag_534:\n        /* \"#utility.yul\":22429:22492   */\n      swap4\n      pop\n        /* \"#utility.yul\":22383:22502   */\n      pop\n        /* \"#utility.yul\":22541:22544   */\n      0x0100\n        /* \"#utility.yul\":22568:22621   */\n      tag_535\n        /* \"#utility.yul\":22613:22620   */\n      dup14\n        /* \"#utility.yul\":22604:22610   */\n      dup3\n        /* \"#utility.yul\":22593:22602   */\n      dup15\n        /* \"#utility.yul\":22589:22611   */\n      add\n        /* \"#utility.yul\":22568:22621   */\n      tag_260\n      jump\t// in\n    tag_535:\n        /* \"#utility.yul\":22558:22621   */\n      swap3\n      pop\n        /* \"#utility.yul\":22512:22631   */\n      pop\n        /* \"#utility.yul\":22670:22673   */\n      0x0120\n        /* \"#utility.yul\":22697:22750   */\n      tag_536\n        /* \"#utility.yul\":22742:22749   */\n      dup14\n        /* \"#utility.yul\":22733:22739   */\n      dup3\n        /* \"#utility.yul\":22722:22731   */\n      dup15\n        /* \"#utility.yul\":22718:22740   */\n      add\n        /* \"#utility.yul\":22697:22750   */\n      tag_260\n      jump\t// in\n    tag_536:\n        /* \"#utility.yul\":22687:22750   */\n      swap2\n      pop\n        /* \"#utility.yul\":22641:22760   */\n      pop\n        /* \"#utility.yul\":20586:22767   */\n      swap3\n      swap6\n      swap9\n      swap12\n      swap2\n      swap5\n      swap8\n      swap11\n      pop\n      swap3\n      swap6\n      swap9\n      pop\n      jump\t// out\n        /* \"#utility.yul\":22773:22953   */\n    tag_301:\n        /* \"#utility.yul\":22821:22898   */\n      0x4e487b7100000000000000000000000000000000000000000000000000000000\n        /* \"#utility.yul\":22818:22819   */\n      0x00\n        /* \"#utility.yul\":22811:22899   */\n      mstore\n        /* \"#utility.yul\":22918:22922   */\n      0x22\n        /* \"#utility.yul\":22915:22916   */\n      0x04\n        /* \"#utility.yul\":22908:22923   */\n      mstore\n        /* \"#utility.yul\":22942:22946   */\n      0x24\n        /* \"#utility.yul\":22939:22940   */\n      0x00\n        /* \"#utility.yul\":22932:22947   */\n      revert\n        /* \"#utility.yul\":22959:23279   */\n    tag_115:\n        /* \"#utility.yul\":23003:23009   */\n      0x00\n        /* \"#utility.yul\":23040:23041   */\n      0x02\n        /* \"#utility.yul\":23034:23038   */\n      dup3\n        /* \"#utility.yul\":23030:23042   */\n      div\n        /* \"#utility.yul\":23020:23042   */\n      swap1\n      pop\n        /* \"#utility.yul\":23087:23088   */\n      0x01\n        /* \"#utility.yul\":23081:23085   */\n      dup3\n        /* \"#utility.yul\":23077:23089   */\n      and\n        /* \"#utility.yul\":23108:23126   */\n      dup1\n        /* \"#utility.yul\":23098:23179   */\n      tag_539\n      jumpi\n        /* \"#utility.yul\":23164:23168   */\n      0x7f\n        /* \"#utility.yul\":23156:23162   */\n      dup3\n        /* \"#utility.yul\":23152:23169   */\n      and\n        /* \"#utility.yul\":23142:23169   */\n      swap2\n      pop\n        /* \"#utility.yul\":23098:23179   */\n    tag_539:\n        /* \"#utility.yul\":23226:23228   */\n      0x20\n        /* \"#utility.yul\":23218:23224   */\n      dup3\n        /* \"#utility.yul\":23215:23229   */\n      lt\n        /* \"#utility.yul\":23195:23213   */\n      dup2\n        /* \"#utility.yul\":23192:23230   */\n      sub\n        /* \"#utility.yul\":23189:23273   */\n      tag_540\n      jumpi\n        /* \"#utility.yul\":23245:23263   */\n      tag_541\n      tag_301\n      jump\t// in\n    tag_541:\n        /* \"#utility.yul\":23189:23273   */\n    tag_540:\n        /* \"#utility.yul\":23010:23279   */\n      pop\n        /* \"#utility.yul\":22959:23279   */\n      swap2\n      swap1\n      pop\n      jump\t// out\n        /* \"#utility.yul\":23285:23465   */\n    tag_164:\n        /* \"#utility.yul\":23333:23410   */\n      0x4e487b7100000000000000000000000000000000000000000000000000000000\n        /* \"#utility.yul\":23330:23331   */\n      0x00\n        /* \"#utility.yul\":23323:23411   */\n      mstore\n        /* \"#utility.yul\":23430:23434   */\n      0x32\n        /* \"#utility.yul\":23427:23428   */\n      0x04\n        /* \"#utility.yul\":23420:23435   */\n      mstore\n        /* \"#utility.yul\":23454:23458   */\n      0x24\n        /* \"#utility.yul\":23451:23452   */\n      0x00\n        /* \"#utility.yul\":23444:23459   */\n      revert\n        /* \"#utility.yul\":23471:23619   */\n    tag_302:\n        /* \"#utility.yul\":23573:23584   */\n      0x00\n        /* \"#utility.yul\":23610:23613   */\n      dup2\n        /* \"#utility.yul\":23595:23613   */\n      swap1\n      pop\n        /* \"#utility.yul\":23471:23619   */\n      swap3\n      swap2\n      pop\n      pop\n      jump\t// out\n        /* \"#utility.yul\":23625:24015   */\n    tag_303:\n        /* \"#utility.yul\":23731:23734   */\n      0x00\n        /* \"#utility.yul\":23759:23798   */\n      tag_545\n        /* \"#utility.yul\":23792:23797   */\n      dup3\n        /* \"#utility.yul\":23759:23798   */\n      tag_261\n      jump\t// in\n    tag_545:\n        /* \"#utility.yul\":23814:23903   */\n      tag_546\n        /* \"#utility.yul\":23896:23902   */\n      dup2\n        /* \"#utility.yul\":23891:23894   */\n      dup6\n        /* \"#utility.yul\":23814:23903   */\n      tag_302\n      jump\t// in\n    tag_546:\n        /* \"#utility.yul\":23807:23903   */\n      swap4\n      pop\n        /* \"#utility.yul\":23912:23977   */\n      tag_547\n        /* \"#utility.yul\":23970:23976   */\n      dup2\n        /* \"#utility.yul\":23965:23968   */\n      dup6\n        /* \"#utility.yul\":23958:23962   */\n      0x20\n        /* \"#utility.yul\":23951:23956   */\n      dup7\n        /* \"#utility.yul\":23947:23963   */\n      add\n        /* \"#utility.yul\":23912:23977   */\n      tag_263\n      jump\t// in\n    tag_547:\n        /* \"#utility.yul\":24002:24008   */\n      dup1\n        /* \"#utility.yul\":23997:24000   */\n      dup5\n        /* \"#utility.yul\":23993:24009   */\n      add\n        /* \"#utility.yul\":23986:24009   */\n      swap2\n      pop\n        /* \"#utility.yul\":23735:24015   */\n      pop\n        /* \"#utility.yul\":23625:24015   */\n      swap3\n      swap2\n      pop\n      pop\n      jump\t// out\n        /* \"#utility.yul\":24021:24296   */\n    tag_172:\n        /* \"#utility.yul\":24153:24156   */\n      0x00\n        /* \"#utility.yul\":24175:24270   */\n      tag_549\n        /* \"#utility.yul\":24266:24269   */\n      dup3\n        /* \"#utility.yul\":24257:24263   */\n      dup5\n        /* \"#utility.yul\":24175:24270   */\n      tag_303\n      jump\t// in\n    tag_549:\n        /* \"#utility.yul\":24168:24270   */\n      swap2\n      pop\n        /* \"#utility.yul\":24287:24290   */\n      dup2\n        /* \"#utility.yul\":24280:24290   */\n      swap1\n      pop\n        /* \"#utility.yul\":24021:24296   */\n      swap3\n      swap2\n      pop\n      pop\n      jump\t// out\n        /* \"#utility.yul\":24302:24482   */\n    tag_304:\n        /* \"#utility.yul\":24350:24427   */\n      0x4e487b7100000000000000000000000000000000000000000000000000000000\n        /* \"#utility.yul\":24347:24348   */\n      0x00\n        /* \"#utility.yul\":24340:24428   */\n      mstore\n        /* \"#utility.yul\":24447:24451   */\n      0x11\n        /* \"#utility.yul\":24444:24445   */\n      0x04\n        /* \"#utility.yul\":24437:24452   */\n      mstore\n        /* \"#utility.yul\":24471:24475   */\n      0x24\n        /* \"#utility.yul\":24468:24469   */\n      0x00\n        /* \"#utility.yul\":24461:24476   */\n      revert\n        /* \"#utility.yul\":24488:24721   */\n    tag_192:\n        /* \"#utility.yul\":24527:24530   */\n      0x00\n        /* \"#utility.yul\":24550:24574   */\n      tag_552\n        /* \"#utility.yul\":24568:24573   */\n      dup3\n        /* \"#utility.yul\":24550:24574   */\n      tag_258\n      jump\t// in\n    tag_552:\n        /* \"#utility.yul\":24541:24574   */\n      swap2\n      pop\n        /* \"#utility.yul\":24596:24662   */\n      0xffffffffffffffffffffffffffffffffffffffffffffffffffffffffffffffff\n        /* \"#utility.yul\":24589:24594   */\n      dup3\n        /* \"#utility.yul\":24586:24663   */\n      sub\n        /* \"#utility.yul\":24583:24686   */\n      tag_553\n      jumpi\n        /* \"#utility.yul\":24666:24684   */\n      tag_554\n      tag_304\n      jump\t// in\n    tag_554:\n        /* \"#utility.yul\":24583:24686   */\n    tag_553:\n        /* \"#utility.yul\":24713:24714   */\n      0x01\n        /* \"#utility.yul\":24706:24711   */\n      dup3\n        /* \"#utility.yul\":24702:24715   */\n      add\n        /* \"#utility.yul\":24695:24715   */\n      swap1\n      pop\n        /* \"#utility.yul\":24488:24721   */\n      swap2\n      swap1\n      pop\n      jump\t// out\n        /* \"#utility.yul\":24727:24874   */\n    tag_305:\n        /* \"#utility.yul\":24828:24839   */\n      0x00\n        /* \"#utility.yul\":24865:24868   */\n      dup2\n        /* \"#utility.yul\":24850:24868   */\n      swap1\n      pop\n        /* \"#utility.yul\":24727:24874   */\n      swap3\n      swap2\n      pop\n      pop\n      jump\t// out\n        /* \"#utility.yul\":24880:24994   */\n    tag_306:\n      pop\n      jump\t// out\n        /* \"#utility.yul\":25000:25398   */\n    tag_307:\n        /* \"#utility.yul\":25159:25162   */\n      0x00\n        /* \"#utility.yul\":25180:25263   */\n      tag_558\n        /* \"#utility.yul\":25261:25262   */\n      0x00\n        /* \"#utility.yul\":25256:25259   */\n      dup4\n        /* \"#utility.yul\":25180:25263   */\n      tag_305\n      jump\t// in\n    tag_558:\n        /* \"#utility.yul\":25173:25263   */\n      swap2\n      pop\n        /* \"#utility.yul\":25272:25365   */\n      tag_559\n        /* \"#utility.yul\":25361:25364   */\n      dup3\n        /* \"#utility.yul\":25272:25365   */\n      tag_306\n      jump\t// in\n    tag_559:\n        /* \"#utility.yul\":25390:25391   */\n      0x00\n        /* \"#utility.yul\":25385:25388   */\n      dup3\n        /* \"#utility.yul\":25381:25392   */\n      add\n        /* \"#utility.yul\":25374:25392   */\n      swap1\n      pop\n        /* \"#utility.yul\":25000:25398   */\n      swap2\n      swap1\n      pop\n      jump\t// out\n        /* \"#utility.yul\":25404:25783   */\n    tag_203:\n        /* \"#utility.yul\":25588:25591   */\n      0x00\n        /* \"#utility.yul\":25610:25757   */\n      tag_561\n        /* \"#utility.yul\":25753:25756   */\n      dup3\n        /* \"#utility.yul\":25610:25757   */\n      tag_307\n      jump\t// in\n    tag_561:\n        /* \"#utility.yul\":25603:25757   */\n      swap2\n      pop\n        /* \"#utility.yul\":25774:25777   */\n      dup2\n        /* \"#utility.yul\":25767:25777   */\n      swap1\n      pop\n        /* \"#utility.yul\":25404:25783   */\n      swap2\n      swap1\n      pop\n      jump\t// out\n        /* \"#utility.yul\":25789:25959   */\n    tag_308:\n        /* \"#utility.yul\":25929:25951   */\n      0x4661696c656420746f2073656e64204574686572000000000000000000000000\n        /* \"#utility.yul\":25925:25926   */\n      0x00\n        /* \"#utility.yul\":25917:25923   */\n      dup3\n        /* \"#utility.yul\":25913:25927   */\n      add\n        /* \"#utility.yul\":25906:25952   */\n      mstore\n        /* \"#utility.yul\":25789:25959   */\n      pop\n      jump\t// out\n        /* \"#utility.yul\":25965:26331   */\n    tag_309:\n        /* \"#utility.yul\":26107:26110   */\n      0x00\n        /* \"#utility.yul\":26128:26195   */\n      tag_564\n        /* \"#utility.yul\":26192:26194   */\n      0x14\n        /* \"#utility.yul\":26187:26190   */\n      dup4\n        /* \"#utility.yul\":26128:26195   */\n      tag_262\n      jump\t// in\n    tag_564:\n        /* \"#utility.yul\":26121:26195   */\n      swap2\n      pop\n        /* \"#utility.yul\":26204:26297   */\n      tag_565\n        /* \"#utility.yul\":26293:26296   */\n      dup3\n        /* \"#utility.yul\":26204:26297   */\n      tag_308\n      jump\t// in\n    tag_565:\n        /* \"#utility.yul\":26322:26324   */\n      0x20\n        /* \"#utility.yul\":26317:26320   */\n      dup3\n        /* \"#utility.yul\":26313:26325   */\n      add\n        /* \"#utility.yul\":26306:26325   */\n      swap1\n      pop\n        /* \"#utility.yul\":25965:26331   */\n      swap2\n      swap1\n      pop\n      jump\t// out\n        /* \"#utility.yul\":26337:26756   */\n    tag_209:\n        /* \"#utility.yul\":26503:26507   */\n      0x00\n        /* \"#utility.yul\":26541:26543   */\n      0x20\n        /* \"#utility.yul\":26530:26539   */\n      dup3\n        /* \"#utility.yul\":26526:26544   */\n      add\n        /* \"#utility.yul\":26518:26544   */\n      swap1\n      pop\n        /* \"#utility.yul\":26590:26599   */\n      dup2\n        /* \"#utility.yul\":26584:26588   */\n      dup2\n        /* \"#utility.yul\":26580:26600   */\n      sub\n        /* \"#utility.yul\":26576:26577   */\n      0x00\n        /* \"#utility.yul\":26565:26574   */\n      dup4\n        /* \"#utility.yul\":26561:26578   */\n      add\n        /* \"#utility.yul\":26554:26601   */\n      mstore\n        /* \"#utility.yul\":26618:26749   */\n      tag_567\n        /* \"#utility.yul\":26744:26748   */\n      dup2\n        /* \"#utility.yul\":26618:26749   */\n      tag_309\n      jump\t// in\n    tag_567:\n        /* \"#utility.yul\":26610:26749   */\n      swap1\n      pop\n        /* \"#utility.yul\":26337:26756   */\n      swap2\n      swap1\n      pop\n      jump\t// out\n        /* \"#utility.yul\":26762:26903   */\n    tag_310:\n        /* \"#utility.yul\":26811:26815   */\n      0x00\n        /* \"#utility.yul\":26834:26837   */\n      dup2\n        /* \"#utility.yul\":26826:26837   */\n      swap1\n      pop\n        /* \"#utility.yul\":26857:26860   */\n      dup2\n        /* \"#utility.yul\":26854:26855   */\n      0x00\n        /* \"#utility.yul\":26847:26861   */\n      mstore\n        /* \"#utility.yul\":26891:26895   */\n      0x20\n        /* \"#utility.yul\":26888:26889   */\n      0x00\n        /* \"#utility.yul\":26878:26896   */\n      keccak256\n        /* \"#utility.yul\":26870:26896   */\n      swap1\n      pop\n        /* \"#utility.yul\":26762:26903   */\n      swap2\n      swap1\n      pop\n      jump\t// out\n        /* \"#utility.yul\":26909:27002   */\n    tag_311:\n        /* \"#utility.yul\":26946:26952   */\n      0x00\n        /* \"#utility.yul\":26993:26995   */\n      0x20\n        /* \"#utility.yul\":26988:26990   */\n      0x1f\n        /* \"#utility.yul\":26981:26986   */\n      dup4\n        /* \"#utility.yul\":26977:26991   */\n      add\n        /* \"#utility.yul\":26973:26996   */\n      div\n        /* \"#utility.yul\":26963:26996   */\n      swap1\n      pop\n        /* \"#utility.yul\":26909:27002   */\n      swap2\n      swap1\n      pop\n      jump\t// out\n        /* \"#utility.yul\":27008:27115   */\n    tag_312:\n        /* \"#utility.yul\":27052:27060   */\n      0x00\n        /* \"#utility.yul\":27102:27107   */\n      dup3\n        /* \"#utility.yul\":27096:27100   */\n      dup3\n        /* \"#utility.yul\":27092:27108   */\n      shl\n        /* \"#utility.yul\":27071:27108   */\n      swap1\n      pop\n        /* \"#utility.yul\":27008:27115   */\n      swap3\n      swap2\n      pop\n      pop\n      jump\t// out\n        /* \"#utility.yul\":27121:27514   */\n    tag_313:\n        /* \"#utility.yul\":27190:27196   */\n      0x00\n        /* \"#utility.yul\":27240:27241   */\n      0x08\n        /* \"#utility.yul\":27228:27238   */\n      dup4\n        /* \"#utility.yul\":27224:27242   */\n      mul\n        /* \"#utility.yul\":27263:27360   */\n      tag_572\n        /* \"#utility.yul\":27293:27359   */\n      0xffffffffffffffffffffffffffffffffffffffffffffffffffffffffffffffff\n        /* \"#utility.yul\":27282:27291   */\n      dup3\n        /* \"#utility.yul\":27263:27360   */\n      tag_312\n      jump\t// in\n    tag_572:\n        /* \"#utility.yul\":27381:27420   */\n      tag_573\n        /* \"#utility.yul\":27411:27419   */\n      dup7\n        /* \"#utility.yul\":27400:27409   */\n      dup4\n        /* \"#utility.yul\":27381:27420   */\n      tag_312\n      jump\t// in\n    tag_573:\n        /* \"#utility.yul\":27369:27420   */\n      swap6\n      pop\n        /* \"#utility.yul\":27453:27457   */\n      dup1\n        /* \"#utility.yul\":27449:27458   */\n      not\n        /* \"#utility.yul\":27442:27447   */\n      dup5\n        /* \"#utility.yul\":27438:27459   */\n      and\n        /* \"#utility.yul\":27429:27459   */\n      swap4\n      pop\n        /* \"#utility.yul\":27502:27506   */\n      dup1\n        /* \"#utility.yul\":27492:27500   */\n      dup7\n        /* \"#utility.yul\":27488:27507   */\n      and\n        /* \"#utility.yul\":27481:27486   */\n      dup5\n        /* \"#utility.yul\":27478:27508   */\n      or\n        /* \"#utility.yul\":27468:27508   */\n      swap3\n      pop\n        /* \"#utility.yul\":27197:27514   */\n      pop\n      pop\n        /* \"#utility.yul\":27121:27514   */\n      swap4\n      swap3\n      pop\n      pop\n      pop\n      jump\t// out\n        /* \"#utility.yul\":27520:27580   */\n    tag_314:\n        /* \"#utility.yul\":27548:27551   */\n      0x00\n        /* \"#utility.yul\":27569:27574   */\n      dup2\n        /* \"#utility.yul\":27562:27574   */\n      swap1\n      pop\n        /* \"#utility.yul\":27520:27580   */\n      swap2\n      swap1\n      pop\n      jump\t// out\n        /* \"#utility.yul\":27586:27728   */\n    tag_315:\n        /* \"#utility.yul\":27636:27645   */\n      0x00\n        /* \"#utility.yul\":27669:27722   */\n      tag_576\n        /* \"#utility.yul\":27687:27721   */\n      tag_577\n        /* \"#utility.yul\":27696:27720   */\n      tag_578\n        /* \"#utility.yul\":27714:27719   */\n      dup5\n        /* \"#utility.yul\":27696:27720   */\n      tag_258\n      jump\t// in\n    tag_578:\n        /* \"#utility.yul\":27687:27721   */\n      tag_314\n      jump\t// in\n    tag_577:\n        /* \"#utility.yul\":27669:27722   */\n      tag_258\n      jump\t// in\n    tag_576:\n        /* \"#utility.yul\":27656:27722   */\n      swap1\n      pop\n        /* \"#utility.yul\":27586:27728   */\n      swap2\n      swap1\n      pop\n      jump\t// out\n        /* \"#utility.yul\":27734:27809   */\n    tag_316:\n        /* \"#utility.yul\":27777:27780   */\n      0x00\n        /* \"#utility.yul\":27798:27803   */\n      dup2\n        /* \"#utility.yul\":27791:27803   */\n      swap1\n      pop\n        /* \"#utility.yul\":27734:27809   */\n      swap2\n      swap1\n      pop\n      jump\t// out\n        /* \"#utility.yul\":27815:28084   */\n    tag_317:\n        /* \"#utility.yul\":27925:27964   */\n      tag_581\n        /* \"#utility.yul\":27956:27963   */\n      dup4\n        /* \"#utility.yul\":27925:27964   */\n      tag_315\n      jump\t// in\n    tag_581:\n        /* \"#utility.yul\":27986:28077   */\n      tag_582\n        /* \"#utility.yul\":28035:28076   */\n      tag_583\n        /* \"#utility.yul\":28059:28075   */\n      dup3\n        /* \"#utility.yul\":28035:28076   */\n      tag_316\n      jump\t// in\n    tag_583:\n        /* \"#utility.yul\":28027:28033   */\n      dup5\n        /* \"#utility.yul\":28020:28024   */\n      dup5\n        /* \"#utility.yul\":28014:28025   */\n      sload\n        /* \"#utility.yul\":27986:28077   */\n      tag_313\n      jump\t// in\n    tag_582:\n        /* \"#utility.yul\":27980:27984   */\n      dup3\n        /* \"#utility.yul\":27973:28078   */\n      sstore\n        /* \"#utility.yul\":27891:28084   */\n      pop\n        /* \"#utility.yul\":27815:28084   */\n      pop\n      pop\n      pop\n      jump\t// out\n        /* \"#utility.yul\":28090:28163   */\n    tag_318:\n        /* \"#utility.yul\":28135:28138   */\n      0x00\n        /* \"#utility.yul\":28090:28163   */\n      swap1\n      jump\t// out\n        /* \"#utility.yul\":28169:28358   */\n    tag_319:\n        /* \"#utility.yul\":28246:28278   */\n      tag_586\n      tag_318\n      jump\t// in\n    tag_586:\n        /* \"#utility.yul\":28287:28352   */\n      tag_587\n        /* \"#utility.yul\":28345:28351   */\n      dup2\n        /* \"#utility.yul\":28337:28343   */\n      dup5\n        /* \"#utility.yul\":28331:28335   */\n      dup5\n        /* \"#utility.yul\":28287:28352   */\n      tag_317\n      jump\t// in\n    tag_587:\n        /* \"#utility.yul\":28222:28358   */\n      pop\n        /* \"#utility.yul\":28169:28358   */\n      pop\n      pop\n      jump\t// out\n        /* \"#utility.yul\":28364:28550   */\n    tag_320:\n        /* \"#utility.yul\":28424:28544   */\n    tag_589:\n        /* \"#utility.yul\":28441:28444   */\n      dup2\n        /* \"#utility.yul\":28434:28439   */\n      dup2\n        /* \"#utility.yul\":28431:28445   */\n      lt\n        /* \"#utility.yul\":28424:28544   */\n      iszero\n      tag_591\n      jumpi\n        /* \"#utility.yul\":28495:28534   */\n      tag_592\n        /* \"#utility.yul\":28532:28533   */\n      0x00\n        /* \"#utility.yul\":28525:28530   */\n      dup3\n        /* \"#utility.yul\":28495:28534   */\n      tag_319\n      jump\t// in\n    tag_592:\n        /* \"#utility.yul\":28468:28469   */\n      0x01\n        /* \"#utility.yul\":28461:28466   */\n      dup2\n        /* \"#utility.yul\":28457:28470   */\n      add\n        /* \"#utility.yul\":28448:28470   */\n      swap1\n      pop\n        /* \"#utility.yul\":28424:28544   */\n      jump(tag_589)\n    tag_591:\n        /* \"#utility.yul\":28364:28550   */\n      pop\n      pop\n      jump\t// out\n        /* \"#utility.yul\":28556:29099   */\n    tag_321:\n        /* \"#utility.yul\":28657:28659   */\n      0x1f\n        /* \"#utility.yul\":28652:28655   */\n      dup3\n        /* \"#utility.yul\":28649:28660   */\n      gt\n        /* \"#utility.yul\":28646:29092   */\n      iszero\n      tag_594\n      jumpi\n        /* \"#utility.yul\":28691:28729   */\n      tag_595\n        /* \"#utility.yul\":28723:28728   */\n      dup2\n        /* \"#utility.yul\":28691:28729   */\n      tag_310\n      jump\t// in\n    tag_595:\n        /* \"#utility.yul\":28775:28804   */\n      tag_596\n        /* \"#utility.yul\":28793:28803   */\n      dup5\n        /* \"#utility.yul\":28775:28804   */\n      tag_311\n      jump\t// in\n    tag_596:\n        /* \"#utility.yul\":28765:28773   */\n      dup2\n        /* \"#utility.yul\":28761:28805   */\n      add\n        /* \"#utility.yul\":28958:28960   */\n      0x20\n        /* \"#utility.yul\":28946:28956   */\n      dup6\n        /* \"#utility.yul\":28943:28961   */\n      lt\n        /* \"#utility.yul\":28940:28989   */\n      iszero\n      tag_597\n      jumpi\n        /* \"#utility.yul\":28979:28987   */\n      dup2\n        /* \"#utility.yul\":28964:28987   */\n      swap1\n      pop\n        /* \"#utility.yul\":28940:28989   */\n    tag_597:\n        /* \"#utility.yul\":29002:29082   */\n      tag_598\n        /* \"#utility.yul\":29058:29080   */\n      tag_599\n        /* \"#utility.yul\":29076:29079   */\n      dup6\n        /* \"#utility.yul\":29058:29080   */\n      tag_311\n      jump\t// in\n    tag_599:\n        /* \"#utility.yul\":29048:29056   */\n      dup4\n        /* \"#utility.yul\":29044:29081   */\n      add\n        /* \"#utility.yul\":29031:29042   */\n      dup3\n        /* \"#utility.yul\":29002:29082   */\n      tag_320\n      jump\t// in\n    tag_598:\n        /* \"#utility.yul\":28661:29092   */\n      pop\n      pop\n        /* \"#utility.yul\":28646:29092   */\n    tag_594:\n        /* \"#utility.yul\":28556:29099   */\n      pop\n      pop\n      pop\n      jump\t// out\n        /* \"#utility.yul\":29105:29222   */\n    tag_322:\n        /* \"#utility.yul\":29159:29167   */\n      0x00\n        /* \"#utility.yul\":29209:29214   */\n      dup3\n        /* \"#utility.yul\":29203:29207   */\n      dup3\n        /* \"#utility.yul\":29199:29215   */\n      shr\n        /* \"#utility.yul\":29178:29215   */\n      swap1\n      pop\n        /* \"#utility.yul\":29105:29222   */\n      swap3\n      swap2\n      pop\n      pop\n      jump\t// out\n        /* \"#utility.yul\":29228:29397   */\n    tag_323:\n        /* \"#utility.yul\":29272:29278   */\n      0x00\n        /* \"#utility.yul\":29305:29356   */\n      tag_602\n        /* \"#utility.yul\":29353:29354   */\n      0x00\n        /* \"#utility.yul\":29349:29355   */\n      not\n        /* \"#utility.yul\":29341:29346   */\n      dup5\n        /* \"#utility.yul\":29338:29339   */\n      0x08\n        /* \"#utility.yul\":29334:29347   */\n      mul\n        /* \"#utility.yul\":29305:29356   */\n      tag_322\n      jump\t// in\n    tag_602:\n        /* \"#utility.yul\":29301:29357   */\n      not\n        /* \"#utility.yul\":29386:29390   */\n      dup1\n        /* \"#utility.yul\":29380:29384   */\n      dup4\n        /* \"#utility.yul\":29376:29391   */\n      and\n        /* \"#utility.yul\":29366:29391   */\n      swap2\n      pop\n        /* \"#utility.yul\":29279:29397   */\n      pop\n        /* \"#utility.yul\":29228:29397   */\n      swap3\n      swap2\n      pop\n      pop\n      jump\t// out\n        /* \"#utility.yul\":29402:29697   */\n    tag_324:\n        /* \"#utility.yul\":29478:29482   */\n      0x00\n        /* \"#utility.yul\":29624:29653   */\n      tag_604\n        /* \"#utility.yul\":29649:29652   */\n      dup4\n        /* \"#utility.yul\":29643:29647   */\n      dup4\n        /* \"#utility.yul\":29624:29653   */\n      tag_323\n      jump\t// in\n    tag_604:\n        /* \"#utility.yul\":29616:29653   */\n      swap2\n      pop\n        /* \"#utility.yul\":29686:29689   */\n      dup3\n        /* \"#utility.yul\":29683:29684   */\n      0x02\n        /* \"#utility.yul\":29679:29690   */\n      mul\n        /* \"#utility.yul\":29673:29677   */\n      dup3\n        /* \"#utility.yul\":29670:29691   */\n      or\n        /* \"#utility.yul\":29662:29691   */\n      swap1\n      pop\n        /* \"#utility.yul\":29402:29697   */\n      swap3\n      swap2\n      pop\n      pop\n      jump\t// out\n        /* \"#utility.yul\":29702:31097   */\n    tag_222:\n        /* \"#utility.yul\":29819:29856   */\n      tag_606\n        /* \"#utility.yul\":29852:29855   */\n      dup3\n        /* \"#utility.yul\":29819:29856   */\n      tag_261\n      jump\t// in\n    tag_606:\n        /* \"#utility.yul\":29921:29939   */\n      0xffffffffffffffff\n        /* \"#utility.yul\":29913:29919   */\n      dup2\n        /* \"#utility.yul\":29910:29940   */\n      gt\n        /* \"#utility.yul\":29907:29963   */\n      iszero\n      tag_607\n      jumpi\n        /* \"#utility.yul\":29943:29961   */\n      tag_608\n      tag_154\n      jump\t// in\n    tag_608:\n        /* \"#utility.yul\":29907:29963   */\n    tag_607:\n        /* \"#utility.yul\":29987:30025   */\n      tag_609\n        /* \"#utility.yul\":30019:30023   */\n      dup3\n        /* \"#utility.yul\":30013:30024   */\n      sload\n        /* \"#utility.yul\":29987:30025   */\n      tag_115\n      jump\t// in\n    tag_609:\n        /* \"#utility.yul\":30072:30139   */\n      tag_610\n        /* \"#utility.yul\":30132:30138   */\n      dup3\n        /* \"#utility.yul\":30124:30130   */\n      dup3\n        /* \"#utility.yul\":30118:30122   */\n      dup6\n        /* \"#utility.yul\":30072:30139   */\n      tag_321\n      jump\t// in\n    tag_610:\n        /* \"#utility.yul\":30166:30167   */\n      0x00\n        /* \"#utility.yul\":30190:30194   */\n      0x20\n        /* \"#utility.yul\":30177:30194   */\n      swap1\n      pop\n        /* \"#utility.yul\":30222:30224   */\n      0x1f\n        /* \"#utility.yul\":30214:30220   */\n      dup4\n        /* \"#utility.yul\":30211:30225   */\n      gt\n        /* \"#utility.yul\":30239:30240   */\n      0x01\n        /* \"#utility.yul\":30234:30852   */\n      dup2\n      eq\n      tag_612\n      jumpi\n        /* \"#utility.yul\":30896:30897   */\n      0x00\n        /* \"#utility.yul\":30913:30919   */\n      dup5\n        /* \"#utility.yul\":30910:30987   */\n      iszero\n      tag_613\n      jumpi\n        /* \"#utility.yul\":30962:30971   */\n      dup3\n        /* \"#utility.yul\":30957:30960   */\n      dup8\n        /* \"#utility.yul\":30953:30972   */\n      add\n        /* \"#utility.yul\":30947:30973   */\n      mload\n        /* \"#utility.yul\":30938:30973   */\n      swap1\n      pop\n        /* \"#utility.yul\":30910:30987   */\n    tag_613:\n        /* \"#utility.yul\":31013:31080   */\n      tag_614\n        /* \"#utility.yul\":31073:31079   */\n      dup6\n        /* \"#utility.yul\":31066:31071   */\n      dup3\n        /* \"#utility.yul\":31013:31080   */\n      tag_324\n      jump\t// in\n    tag_614:\n        /* \"#utility.yul\":31007:31011   */\n      dup7\n        /* \"#utility.yul\":31000:31081   */\n      sstore\n        /* \"#utility.yul\":30869:31091   */\n      pop\n        /* \"#utility.yul\":30204:31091   */\n      jump(tag_611)\n        /* \"#utility.yul\":30234:30852   */\n    tag_612:\n        /* \"#utility.yul\":30286:30290   */\n      0x1f\n        /* \"#utility.yul\":30282:30291   */\n      not\n        /* \"#utility.yul\":30274:30280   */\n      dup5\n        /* \"#utility.yul\":30270:30292   */\n      and\n        /* \"#utility.yul\":30320:30357   */\n      tag_615\n        /* \"#utility.yul\":30352:30356   */\n      dup7\n        /* \"#utility.yul\":30320:30357   */\n      tag_310\n      jump\t// in\n    tag_615:\n        /* \"#utility.yul\":30379:30380   */\n      0x00\n        /* \"#utility.yul\":30393:30601   */\n    tag_616:\n        /* \"#utility.yul\":30407:30414   */\n      dup3\n        /* \"#utility.yul\":30404:30405   */\n      dup2\n        /* \"#utility.yul\":30401:30415   */\n      lt\n        /* \"#utility.yul\":30393:30601   */\n      iszero\n      tag_618\n      jumpi\n        /* \"#utility.yul\":30486:30495   */\n      dup5\n        /* \"#utility.yul\":30481:30484   */\n      dup10\n        /* \"#utility.yul\":30477:30496   */\n      add\n        /* \"#utility.yul\":30471:30497   */\n      mload\n        /* \"#utility.yul\":30463:30469   */\n      dup3\n        /* \"#utility.yul\":30456:30498   */\n      sstore\n        /* \"#utility.yul\":30537:30538   */\n      0x01\n        /* \"#utility.yul\":30529:30535   */\n      dup3\n        /* \"#utility.yul\":30525:30539   */\n      add\n        /* \"#utility.yul\":30515:30539   */\n      swap2\n      pop\n        /* \"#utility.yul\":30584:30586   */\n      0x20\n        /* \"#utility.yul\":30573:30582   */\n      dup6\n        /* \"#utility.yul\":30569:30587   */\n      add\n        /* \"#utility.yul\":30556:30587   */\n      swap5\n      pop\n        /* \"#utility.yul\":30430:30434   */\n      0x20\n        /* \"#utility.yul\":30427:30428   */\n      dup2\n        /* \"#utility.yul\":30423:30435   */\n      add\n        /* \"#utility.yul\":30418:30435   */\n      swap1\n      pop\n        /* \"#utility.yul\":30393:30601   */\n      jump(tag_616)\n    tag_618:\n        /* \"#utility.yul\":30629:30635   */\n      dup7\n        /* \"#utility.yul\":30620:30627   */\n      dup4\n        /* \"#utility.yul\":30617:30636   */\n      lt\n        /* \"#utility.yul\":30614:30793   */\n      iszero\n      tag_619\n      jumpi\n        /* \"#utility.yul\":30687:30696   */\n      dup5\n        /* \"#utility.yul\":30682:30685   */\n      dup10\n        /* \"#utility.yul\":30678:30697   */\n      add\n        /* \"#utility.yul\":30672:30698   */\n      mload\n        /* \"#utility.yul\":30730:30778   */\n      tag_620\n        /* \"#utility.yul\":30772:30776   */\n      0x1f\n        /* \"#utility.yul\":30764:30770   */\n      dup10\n        /* \"#utility.yul\":30760:30777   */\n      and\n        /* \"#utility.yul\":30749:30758   */\n      dup3\n        /* \"#utility.yul\":30730:30778   */\n      tag_323\n      jump\t// in\n    tag_620:\n        /* \"#utility.yul\":30722:30728   */\n      dup4\n        /* \"#utility.yul\":30715:30779   */\n      sstore\n        /* \"#utility.yul\":30637:30793   */\n      pop\n        /* \"#utility.yul\":30614:30793   */\n    tag_619:\n        /* \"#utility.yul\":30839:30840   */\n      0x01\n        /* \"#utility.yul\":30835:30836   */\n      0x02\n        /* \"#utility.yul\":30827:30833   */\n      dup9\n        /* \"#utility.yul\":30823:30837   */\n      mul\n        /* \"#utility.yul\":30819:30841   */\n      add\n        /* \"#utility.yul\":30813:30817   */\n      dup9\n        /* \"#utility.yul\":30806:30842   */\n      sstore\n        /* \"#utility.yul\":30241:30852   */\n      pop\n      pop\n      pop\n        /* \"#utility.yul\":30204:31091   */\n    tag_611:\n      pop\n        /* \"#utility.yul\":29794:31097   */\n      pop\n      pop\n      pop\n        /* \"#utility.yul\":29702:31097   */\n      pop\n      pop\n      jump\t// out\n        /* \"#utility.yul\":31103:31294   */\n    tag_227:\n        /* \"#utility.yul\":31143:31146   */\n      0x00\n        /* \"#utility.yul\":31162:31182   */\n      tag_622\n        /* \"#utility.yul\":31180:31181   */\n      dup3\n        /* \"#utility.yul\":31162:31182   */\n      tag_258\n      jump\t// in\n    tag_622:\n        /* \"#utility.yul\":31157:31182   */\n      swap2\n      pop\n        /* \"#utility.yul\":31196:31216   */\n      tag_623\n        /* \"#utility.yul\":31214:31215   */\n      dup4\n        /* \"#utility.yul\":31196:31216   */\n      tag_258\n      jump\t// in\n    tag_623:\n        /* \"#utility.yul\":31191:31216   */\n      swap3\n      pop\n        /* \"#utility.yul\":31239:31240   */\n      dup3\n        /* \"#utility.yul\":31236:31237   */\n      dup3\n        /* \"#utility.yul\":31232:31241   */\n      add\n        /* \"#utility.yul\":31225:31241   */\n      swap1\n      pop\n        /* \"#utility.yul\":31260:31263   */\n      dup1\n        /* \"#utility.yul\":31257:31258   */\n      dup3\n        /* \"#utility.yul\":31254:31264   */\n      gt\n        /* \"#utility.yul\":31251:31287   */\n      iszero\n      tag_624\n      jumpi\n        /* \"#utility.yul\":31267:31285   */\n      tag_625\n      tag_304\n      jump\t// in\n    tag_625:\n        /* \"#utility.yul\":31251:31287   */\n    tag_624:\n        /* \"#utility.yul\":31103:31294   */\n      swap3\n      swap2\n      pop\n      pop\n      jump\t// out\n        /* \"#utility.yul\":31300:31494   */\n    tag_252:\n        /* \"#utility.yul\":31340:31344   */\n      0x00\n        /* \"#utility.yul\":31360:31380   */\n      tag_627\n        /* \"#utility.yul\":31378:31379   */\n      dup3\n        /* \"#utility.yul\":31360:31380   */\n      tag_258\n      jump\t// in\n    tag_627:\n        /* \"#utility.yul\":31355:31380   */\n      swap2\n      pop\n        /* \"#utility.yul\":31394:31414   */\n      tag_628\n        /* \"#utility.yul\":31412:31413   */\n      dup4\n        /* \"#utility.yul\":31394:31414   */\n      tag_258\n      jump\t// in\n    tag_628:\n        /* \"#utility.yul\":31389:31414   */\n      swap3\n      pop\n        /* \"#utility.yul\":31438:31439   */\n      dup3\n        /* \"#utility.yul\":31435:31436   */\n      dup3\n        /* \"#utility.yul\":31431:31440   */\n      sub\n        /* \"#utility.yul\":31423:31440   */\n      swap1\n      pop\n        /* \"#utility.yul\":31462:31463   */\n      dup2\n        /* \"#utility.yul\":31456:31460   */\n      dup2\n        /* \"#utility.yul\":31453:31464   */\n      gt\n        /* \"#utility.yul\":31450:31487   */\n      iszero\n      tag_629\n      jumpi\n        /* \"#utility.yul\":31467:31485   */\n      tag_630\n      tag_304\n      jump\t// in\n    tag_630:\n        /* \"#utility.yul\":31450:31487   */\n    tag_629:\n        /* \"#utility.yul\":31300:31494   */\n      swap3\n      swap2\n      pop\n      pop\n      jump\t// out\n\n    auxdata: 0xa264697066735822122023954af85b5e78dc1c7f73379b45ec87c4d25d8ea5303a93ebfedb0c89479c6464736f6c63430008110033\n}\n","bytecode":{"linkReferences":{},"object":"608060405234801561001057600080fd5b50612afc806100206000396000f3fe6080604052600436106100f75760003560e01c8063a9059cbb1161008a578063d0e30db011610059578063d0e30db0146103b6578063f595c3ab146103c0578063f6153ccd146103e9578063fd70c7dd146104145761010f565b8063a9059cbb14610309578063ab6a9f1714610332578063b69ef8a81461036f578063c7fa10631461039a5761010f565b806364aa65a8116100c657806364aa65a8146102145780636e6061d1146102515780637792a0351461028e578063a8367070146102cb5761010f565b80630a02dcc7146101145780630cb31a801461015157806332f9776314610191578063529a1baf146101d75761010f565b3661010f57633b9aca0034101561010d57600080fd5b005b600080fd5b34801561012057600080fd5b5061013b60048036038101906101369190611b3d565b610451565b6040516101489190611bfa565b60405180910390f35b34801561015d57600080fd5b5061017860048036038101906101739190611b3d565b6104fd565b6040516101889493929190611c6c565b60405180910390f35b34801561019d57600080fd5b506101b860048036038101906101b39190611e12565b61057d565b6040516101ce9a99989796959493929190611e81565b60405180910390f35b3480156101e357600080fd5b506101fe60048036038101906101f99190611f32565b610799565b60405161020b9190611f5f565b60405180910390f35b34801561022057600080fd5b5061023b60048036038101906102369190611f32565b6107b1565b6040516102489190611bfa565b60405180910390f35b34801561025d57600080fd5b5061027860048036038101906102739190611f7a565b610851565b6040516102859190611bfa565b60405180910390f35b34801561029a57600080fd5b506102b560048036038101906102b09190611b3d565b61090a565b6040516102c29190611fba565b60405180910390f35b3480156102d757600080fd5b506102f260048036038101906102ed9190611fd5565b610949565b6040516103009291906122e3565b60405180910390f35b34801561031557600080fd5b50610330600480360381019061032b9190612358565b610f15565b005b34801561033e57600080fd5b5061035960048036038101906103549190612398565b610fc6565b604051610366919061242b565b60405180910390f35b34801561037b57600080fd5b5061038461106d565b6040516103919190611f5f565b60405180910390f35b6103b460048036038101906103af9190612446565b611075565b005b6103be6112ea565b005b3480156103cc57600080fd5b506103e760048036038101906103e291906124a2565b611305565b005b3480156103f557600080fd5b506103fe611a51565b60405161040b9190611f5f565b60405180910390f35b34801561042057600080fd5b5061043b60048036038101906104369190611fd5565b611a57565b6040516104489190611fba565b60405180910390f35b6000818154811061046157600080fd5b90600052602060002001600091509050805461047c90612604565b80601f01602080910402602001604051908101604052809291908181526020018280546104a890612604565b80156104f55780601f106104ca576101008083540402835291602001916104f5565b820191906000526020600020905b8154815290600101906020018083116104d857829003601f168201915b505050505081565b6005818154811061050d57600080fd5b90600052602060002090600402016000915090508060000160009054906101000a900473ffffffffffffffffffffffffffffffffffffffff16908060010160009054906101000a900473ffffffffffffffffffffffffffffffffffffffff16908060020154908060030154905084565b60076020528260005260406000208280516020810182018051848252602083016020850120818352809550505050505060205280600052604060002060009250925050508060000180546105d090612604565b80601f01602080910402602001604051908101604052809291908181526020018280546105fc90612604565b80156106495780601f1061061e57610100808354040283529160200191610649565b820191906000526020600020905b81548152906001019060200180831161062c57829003601f168201915b50505050509080600101805461065e90612604565b80601f016020809104026020016040519081016040528092919081815260200182805461068a90612604565b80156106d75780601f106106ac576101008083540402835291602001916106d7565b820191906000526020600020905b8154815290600101906020018083116106ba57829003601f168201915b5050505050908060020180546106ec90612604565b80601f016020809104026020016040519081016040528092919081815260200182805461071890612604565b80156107655780601f1061073a57610100808354040283529160200191610765565b820191906000526020600020905b81548152906001019060200180831161074857829003601f168201915b505050505090806003015490806004015490806005015490806006015490806007015490806008015490806009015490508a565b60096020528060005260406000206000915090505481565b600260205280600052604060002060009150905080546107d090612604565b80601f01602080910402602001604051908101604052809291908181526020018280546107fc90612604565b80156108495780601f1061081e57610100808354040283529160200191610849565b820191906000526020600020905b81548152906001019060200180831161082c57829003601f168201915b505050505081565b6006602052816000526040600020818154811061086d57600080fd5b9060005260206000200160009150915050805461088990612604565b80601f01602080910402602001604051908101604052809291908181526020018280546108b590612604565b80156109025780601f106108d757610100808354040283529160200191610902565b820191906000526020600020905b8154815290600101906020018083116108e557829003601f168201915b505050505081565b6001818154811061091a57600080fd5b906000526020600020016000915054906101000a900473ffffffffffffffffffffffffffffffffffffffff1681565b60608060003390506000600660008373ffffffffffffffffffffffffffffffffffffffff1673ffffffffffffffffffffffffffffffffffffffff16815260200190815260200160002090506000600660008473ffffffffffffffffffffffffffffffffffffffff1673ffffffffffffffffffffffffffffffffffffffff1681526020019081526020016000208054905067ffffffffffffffff8111156109f2576109f1611ce7565b5b604051908082528060200260200182016040528015610a2b57816020015b610a18611aa0565b815260200190600190039081610a105790505b50905060005b8280549050811015610df5576000838281548110610a5257610a51612635565b5b906000526020600020018054610a6790612604565b80601f0160208091040260200160405190810160405280929190818152602001828054610a9390612604565b8015610ae05780601f10610ab557610100808354040283529160200191610ae0565b820191906000526020600020905b815481529060010190602001808311610ac357829003601f168201915b50505050509050600760008673ffffffffffffffffffffffffffffffffffffffff1673ffffffffffffffffffffffffffffffffffffffff16815260200190815260200160002081604051610b3491906126a0565b9081526020016040518091039020600060038a604051610b5491906126a0565b908152602001604051809103902060009054906101000a900473ffffffffffffffffffffffffffffffffffffffff1673ffffffffffffffffffffffffffffffffffffffff1673ffffffffffffffffffffffffffffffffffffffff16815260200190815260200160002060405180610140016040529081600082018054610bd990612604565b80601f0160208091040260200160405190810160405280929190818152602001828054610c0590612604565b8015610c525780601f10610c2757610100808354040283529160200191610c52565b820191906000526020600020905b815481529060010190602001808311610c3557829003601f168201915b50505050508152602001600182018054610c6b90612604565b80601f0160208091040260200160405190810160405280929190818152602001828054610c9790612604565b8015610ce45780601f10610cb957610100808354040283529160200191610ce4565b820191906000526020600020905b815481529060010190602001808311610cc757829003601f168201915b50505050508152602001600282018054610cfd90612604565b80601f0160208091040260200160405190810160405280929190818152602001828054610d2990612604565b8015610d765780601f10610d4b57610100808354040283529160200191610d76565b820191906000526020600020905b815481529060010190602001808311610d5957829003601f168201915b50505050508152602001600382015481526020016004820154815260200160058201548152602001600682015481526020016007820154815260200160088201548152602001600982015481525050838381518110610dd857610dd7612635565b5b60200260200101819052505080610dee906126e6565b9050610a31565b50600660008473ffffffffffffffffffffffffffffffffffffffff1673ffffffffffffffffffffffffffffffffffffffff1681526020019081526020016000208181805480602002602001604051908101604052809291908181526020016000905b82821015610f03578382906000526020600020018054610e7690612604565b80601f0160208091040260200160405190810160405280929190818152602001828054610ea290612604565b8015610eef5780601f10610ec457610100808354040283529160200191610eef565b820191906000526020600020905b815481529060010190602001808311610ed257829003601f168201915b505050505081526020019060010190610e57565b50505050915094509450505050915091565b60008273ffffffffffffffffffffffffffffffffffffffff1682604051610f3b9061275f565b60006040518083038185875af1925050503d8060008114610f78576040519150601f19603f3d011682016040523d82523d6000602084013e610f7d565b606091505b5050905080610fc1576040517f08c379a0000000000000000000000000000000000000000000000000000000008152600401610fb8906127c0565b60405180910390fd5b505050565b60008060086000600385604051610fdd91906126a0565b908152602001604051809103902060009054906101000a900473ffffffffffffffffffffffffffffffffffffffff1673ffffffffffffffffffffffffffffffffffffffff1673ffffffffffffffffffffffffffffffffffffffff1681526020019081526020016000208460405161105491906126a0565b9081526020016040518091039020541415905092915050565b600047905090565b6000600260008473ffffffffffffffffffffffffffffffffffffffff1673ffffffffffffffffffffffffffffffffffffffff16815260200190815260200160002080546110c190612604565b905014801561113a5750600073ffffffffffffffffffffffffffffffffffffffff166003826040516110f391906126a0565b908152602001604051809103902060009054906101000a900473ffffffffffffffffffffffffffffffffffffffff1673ffffffffffffffffffffffffffffffffffffffff16145b156112e657606434101561114d57600080fd5b600081908060018154018082558091505060019003906000526020600020016000909190919091509081611181919061298c565b506001829080600181540180825580915050600190039060005260206000200160009091909190916101000a81548173ffffffffffffffffffffffffffffffffffffffff021916908373ffffffffffffffffffffffffffffffffffffffff160217905550816003826040516111f691906126a0565b908152602001604051809103902060006101000a81548173ffffffffffffffffffffffffffffffffffffffff021916908373ffffffffffffffffffffffffffffffffffffffff16021790555080600260008473ffffffffffffffffffffffffffffffffffffffff1673ffffffffffffffffffffffffffffffffffffffff168152602001908152602001600020908161128e919061298c565b5034600960008473ffffffffffffffffffffffffffffffffffffffff1673ffffffffffffffffffffffffffffffffffffffff16815260200190815260200160002060008282546112de9190612a5e565b925050819055505b5050565b34600460008282546112fc9190612a5e565b92505081905550565b60003390506000600260008373ffffffffffffffffffffffffffffffffffffffff1673ffffffffffffffffffffffffffffffffffffffff168152602001908152602001600020805461135690612604565b90500361136257600080fd5b600073ffffffffffffffffffffffffffffffffffffffff1660038a60405161138a91906126a0565b908152602001604051809103902060009054906101000a900473ffffffffffffffffffffffffffffffffffffffff1673ffffffffffffffffffffffffffffffffffffffff16036113d957600080fd5b60016009600060038c6040516113ef91906126a0565b908152602001604051809103902060009054906101000a900473ffffffffffffffffffffffffffffffffffffffff1673ffffffffffffffffffffffffffffffffffffffff1673ffffffffffffffffffffffffffffffffffffffff16815260200190815260200160002054101561146457600080fd5b60006007600060038c60405161147a91906126a0565b908152602001604051809103902060009054906101000a900473ffffffffffffffffffffffffffffffffffffffff1673ffffffffffffffffffffffffffffffffffffffff1673ffffffffffffffffffffffffffffffffffffffff16815260200190815260200160002090506114ef8c8b610fc6565b611653576006600060038c60405161150791906126a0565b908152602001604051809103902060009054906101000a900473ffffffffffffffffffffffffffffffffffffffff1673ffffffffffffffffffffffffffffffffffffffff1673ffffffffffffffffffffffffffffffffffffffff1681526020019081526020016000208c9080600181540180825580915050600190039060005260206000200160009091909190915090816115a2919061298c565b506008600060038c6040516115b791906126a0565b908152602001604051809103902060009054906101000a900473ffffffffffffffffffffffffffffffffffffffff1673ffffffffffffffffffffffffffffffffffffffff1673ffffffffffffffffffffffffffffffffffffffff1681526020019081526020016000208c60405161162e91906126a0565b9081526020016040518091039020600081548092919061164d906126e6565b91905055505b6000818d60405161166491906126a0565b908152602001604051809103902090508c8160008573ffffffffffffffffffffffffffffffffffffffff1673ffffffffffffffffffffffffffffffffffffffff16815260200190815260200160002060000190816116c2919061298c565b508b8160008573ffffffffffffffffffffffffffffffffffffffff1673ffffffffffffffffffffffffffffffffffffffff1681526020019081526020016000206001019081611711919061298c565b508a8160008573ffffffffffffffffffffffffffffffffffffffff1673ffffffffffffffffffffffffffffffffffffffff1681526020019081526020016000206002019081611760919061298c565b50898160008573ffffffffffffffffffffffffffffffffffffffff1673ffffffffffffffffffffffffffffffffffffffff16815260200190815260200160002060070181905550888160008573ffffffffffffffffffffffffffffffffffffffff1673ffffffffffffffffffffffffffffffffffffffff16815260200190815260200160002060080181905550878160008573ffffffffffffffffffffffffffffffffffffffff1673ffffffffffffffffffffffffffffffffffffffff16815260200190815260200160002060090181905550868160008573ffffffffffffffffffffffffffffffffffffffff1673ffffffffffffffffffffffffffffffffffffffff16815260200190815260200160002060030181905550858160008573ffffffffffffffffffffffffffffffffffffffff1673ffffffffffffffffffffffffffffffffffffffff16815260200190815260200160002060060181905550848160008573ffffffffffffffffffffffffffffffffffffffff1673ffffffffffffffffffffffffffffffffffffffff16815260200190815260200160002060040181905550838160008573ffffffffffffffffffffffffffffffffffffffff1673ffffffffffffffffffffffffffffffffffffffff1681526020019081526020016000206005018190555060016009600060038e60405161196191906126a0565b908152602001604051809103902060009054906101000a900473ffffffffffffffffffffffffffffffffffffffff1673ffffffffffffffffffffffffffffffffffffffff1673ffffffffffffffffffffffffffffffffffffffff16815260200190815260200160002060008282546119d99190612a92565b925050819055506001600960008573ffffffffffffffffffffffffffffffffffffffff1673ffffffffffffffffffffffffffffffffffffffff1681526020019081526020016000206000828254611a309190612a5e565b92505081905550611a42836001610f15565b50505050505050505050505050565b60045481565b6003818051602081018201805184825260208301602085012081835280955050505050506000915054906101000a900473ffffffffffffffffffffffffffffffffffffffff1681565b604051806101400160405280606081526020016060815260200160608152602001600081526020016000815260200160008152602001600081526020016000815260200160008152602001600081525090565b6000604051905090565b600080fd5b600080fd5b6000819050919050565b611b1a81611b07565b8114611b2557600080fd5b50565b600081359050611b3781611b11565b92915050565b600060208284031215611b5357611b52611afd565b5b6000611b6184828501611b28565b91505092915050565b600081519050919050565b600082825260208201905092915050565b60005b83811015611ba4578082015181840152602081019050611b89565b60008484015250505050565b6000601f19601f8301169050919050565b6000611bcc82611b6a565b611bd68185611b75565b9350611be6818560208601611b86565b611bef81611bb0565b840191505092915050565b60006020820190508181036000830152611c148184611bc1565b905092915050565b600073ffffffffffffffffffffffffffffffffffffffff82169050919050565b6000611c4782611c1c565b9050919050565b611c5781611c3c565b82525050565b611c6681611b07565b82525050565b6000608082019050611c816000830187611c4e565b611c8e6020830186611c4e565b611c9b6040830185611c5d565b611ca86060830184611c5d565b95945050505050565b611cba81611c3c565b8114611cc557600080fd5b50565b600081359050611cd781611cb1565b92915050565b600080fd5b600080fd5b7f4e487b7100000000000000000000000000000000000000000000000000000000600052604160045260246000fd5b611d1f82611bb0565b810181811067ffffffffffffffff82111715611d3e57611d3d611ce7565b5b80604052505050565b6000611d51611af3565b9050611d5d8282611d16565b919050565b600067ffffffffffffffff821115611d7d57611d7c611ce7565b5b611d8682611bb0565b9050602081019050919050565b82818337600083830152505050565b6000611db5611db084611d62565b611d47565b905082815260208101848484011115611dd157611dd0611ce2565b5b611ddc848285611d93565b509392505050565b600082601f830112611df957611df8611cdd565b5b8135611e09848260208601611da2565b91505092915050565b600080600060608486031215611e2b57611e2a611afd565b5b6000611e3986828701611cc8565b935050602084013567ffffffffffffffff811115611e5a57611e59611b02565b5b611e6686828701611de4565b9250506040611e7786828701611cc8565b9150509250925092565b6000610140820190508181036000830152611e9c818d611bc1565b90508181036020830152611eb0818c611bc1565b90508181036040830152611ec4818b611bc1565b9050611ed3606083018a611c5d565b611ee06080830189611c5d565b611eed60a0830188611c5d565b611efa60c0830187611c5d565b611f0760e0830186611c5d565b611f15610100830185611c5d565b611f23610120830184611c5d565b9b9a5050505050505050505050565b600060208284031215611f4857611f47611afd565b5b6000611f5684828501611cc8565b91505092915050565b6000602082019050611f746000830184611c5d565b92915050565b60008060408385031215611f9157611f90611afd565b5b6000611f9f85828601611cc8565b9250506020611fb085828601611b28565b9150509250929050565b6000602082019050611fcf6000830184611c4e565b92915050565b600060208284031215611feb57611fea611afd565b5b600082013567ffffffffffffffff81111561200957612008611b02565b5b61201584828501611de4565b91505092915050565b600081519050919050565b600082825260208201905092915050565b6000819050602082019050919050565b600082825260208201905092915050565b600061206682611b6a565b612070818561204a565b9350612080818560208601611b86565b61208981611bb0565b840191505092915050565b60006120a0838361205b565b905092915050565b6000602082019050919050565b60006120c08261201e565b6120ca8185612029565b9350836020820285016120dc8561203a565b8060005b8581101561211857848403895281516120f98582612094565b9450612104836120a8565b925060208a019950506001810190506120e0565b50829750879550505050505092915050565b600081519050919050565b600082825260208201905092915050565b6000819050602082019050919050565b61215f81611b07565b82525050565b6000610140830160008301518482036000860152612183828261205b565b9150506020830151848203602086015261219d828261205b565b915050604083015184820360408601526121b7828261205b565b91505060608301516121cc6060860182612156565b5060808301516121df6080860182612156565b5060a08301516121f260a0860182612156565b5060c083015161220560c0860182612156565b5060e083015161221860e0860182612156565b5061010083015161222d610100860182612156565b50610120830151612242610120860182612156565b508091505092915050565b60006122598383612165565b905092915050565b6000602082019050919050565b60006122798261212a565b6122838185612135565b93508360208202850161229585612146565b8060005b858110156122d157848403895281516122b2858261224d565b94506122bd83612261565b925060208a01995050600181019050612299565b50829750879550505050505092915050565b600060408201905081810360008301526122fd81856120b5565b90508181036020830152612311818461226e565b90509392505050565b600061232582611c1c565b9050919050565b6123358161231a565b811461234057600080fd5b50565b6000813590506123528161232c565b92915050565b6000806040838503121561236f5761236e611afd565b5b600061237d85828601612343565b925050602061238e85828601611b28565b9150509250929050565b600080604083850312156123af576123ae611afd565b5b600083013567ffffffffffffffff8111156123cd576123cc611b02565b5b6123d985828601611de4565b925050602083013567ffffffffffffffff8111156123fa576123f9611b02565b5b61240685828601611de4565b9150509250929050565b60008115159050919050565b61242581612410565b82525050565b6000602082019050612440600083018461241c565b92915050565b6000806040838503121561245d5761245c611afd565b5b600061246b85828601611cc8565b925050602083013567ffffffffffffffff81111561248c5761248b611b02565b5b61249885828601611de4565b9150509250929050565b6000806000806000806000806000806101408b8d0312156124c6576124c5611afd565b5b60008b013567ffffffffffffffff8111156124e4576124e3611b02565b5b6124f08d828e01611de4565b9a505060208b013567ffffffffffffffff81111561251157612510611b02565b5b61251d8d828e01611de4565b99505060408b013567ffffffffffffffff81111561253e5761253d611b02565b5b61254a8d828e01611de4565b985050606061255b8d828e01611b28565b975050608061256c8d828e01611b28565b96505060a061257d8d828e01611b28565b95505060c061258e8d828e01611b28565b94505060e061259f8d828e01611b28565b9350506101006125b18d828e01611b28565b9250506101206125c38d828e01611b28565b9150509295989b9194979a5092959850565b7f4e487b7100000000000000000000000000000000000000000000000000000000600052602260045260246000fd5b6000600282049050600182168061261c57607f821691505b60208210810361262f5761262e6125d5565b5b50919050565b7f4e487b7100000000000000000000000000000000000000000000000000000000600052603260045260246000fd5b600081905092915050565b600061267a82611b6a565b6126848185612664565b9350612694818560208601611b86565b80840191505092915050565b60006126ac828461266f565b915081905092915050565b7f4e487b7100000000000000000000000000000000000000000000000000000000600052601160045260246000fd5b60006126f182611b07565b91507fffffffffffffffffffffffffffffffffffffffffffffffffffffffffffffffff8203612723576127226126b7565b5b600182019050919050565b600081905092915050565b50565b600061274960008361272e565b915061275482612739565b600082019050919050565b600061276a8261273c565b9150819050919050565b7f4661696c656420746f2073656e64204574686572000000000000000000000000600082015250565b60006127aa601483611b75565b91506127b582612774565b602082019050919050565b600060208201905081810360008301526127d98161279d565b9050919050565b60008190508160005260206000209050919050565b60006020601f8301049050919050565b600082821b905092915050565b6000600883026128427fffffffffffffffffffffffffffffffffffffffffffffffffffffffffffffffff82612805565b61284c8683612805565b95508019841693508086168417925050509392505050565b6000819050919050565b600061288961288461287f84611b07565b612864565b611b07565b9050919050565b6000819050919050565b6128a38361286e565b6128b76128af82612890565b848454612812565b825550505050565b600090565b6128cc6128bf565b6128d781848461289a565b505050565b5b818110156128fb576128f06000826128c4565b6001810190506128dd565b5050565b601f82111561294057612911816127e0565b61291a846127f5565b81016020851015612929578190505b61293d612935856127f5565b8301826128dc565b50505b505050565b600082821c905092915050565b600061296360001984600802612945565b1980831691505092915050565b600061297c8383612952565b9150826002028217905092915050565b61299582611b6a565b67ffffffffffffffff8111156129ae576129ad611ce7565b5b6129b88254612604565b6129c38282856128ff565b600060209050601f8311600181146129f657600084156129e4578287015190505b6129ee8582612970565b865550612a56565b601f198416612a04866127e0565b60005b82811015612a2c57848901518255600182019150602085019450602081019050612a07565b86831015612a495784890151612a45601f891682612952565b8355505b6001600288020188555050505b505050505050565b6000612a6982611b07565b9150612a7483611b07565b9250828201905080821115612a8c57612a8b6126b7565b5b92915050565b6000612a9d82611b07565b9150612aa883611b07565b9250828203905081811115612ac057612abf6126b7565b5b9291505056fea264697066735822122023954af85b5e78dc1c7f73379b45ec87c4d25d8ea5303a93ebfedb0c89479c6464736f6c63430008110033","opcodes":"PUSH1 0x80 PUSH1 0x40 MSTORE CALLVALUE DUP1 ISZERO PUSH2 0x10 JUMPI PUSH1 0x0 DUP1 REVERT JUMPDEST POP PUSH2 0x2AFC DUP1 PUSH2 0x20 PUSH1 0x0 CODECOPY PUSH1 0x0 RETURN INVALID PUSH1 0x80 PUSH1 0x40 MSTORE PUSH1 0x4 CALLDATASIZE LT PUSH2 0xF7 JUMPI PUSH1 0x0 CALLDATALOAD PUSH1 0xE0 SHR DUP1 PUSH4 0xA9059CBB GT PUSH2 0x8A JUMPI DUP1 PUSH4 0xD0E30DB0 GT PUSH2 0x59 JUMPI DUP1 PUSH4 0xD0E30DB0 EQ PUSH2 0x3B6 JUMPI DUP1 PUSH4 0xF595C3AB EQ PUSH2 0x3C0 JUMPI DUP1 PUSH4 0xF6153CCD EQ PUSH2 0x3E9 JUMPI DUP1 PUSH4 0xFD70C7DD EQ PUSH2 0x414 JUMPI PUSH2 0x10F JUMP JUMPDEST DUP1 PUSH4 0xA9059CBB EQ PUSH2 0x309 JUMPI DUP1 PUSH4 0xAB6A9F17 EQ PUSH2 0x332 JUMPI DUP1 PUSH4 0xB69EF8A8 EQ PUSH2 0x36F JUMPI DUP1 PUSH4 0xC7FA1063 EQ PUSH2 0x39A JUMPI PUSH2 0x10F JUMP JUMPDEST DUP1 PUSH4 0x64AA65A8 GT PUSH2 0xC6 JUMPI DUP1 PUSH4 0x64AA65A8 EQ PUSH2 0x214 JUMPI DUP1 PUSH4 0x6E6061D1 EQ PUSH2 0x251 JUMPI DUP1 PUSH4 0x7792A035 EQ PUSH2 0x28E JUMPI DUP1 PUSH4 0xA8367070 EQ PUSH2 0x2CB JUMPI PUSH2 0x10F JUMP JUMPDEST DUP1 PUSH4 0xA02DCC7 EQ PUSH2 0x114 JUMPI DUP1 PUSH4 0xCB31A80 EQ PUSH2 0x151 JUMPI DUP1 PUSH4 0x32F97763 EQ PUSH2 0x191 JUMPI DUP1 PUSH4 0x529A1BAF EQ PUSH2 0x1D7 JUMPI PUSH2 0x10F JUMP JUMPDEST CALLDATASIZE PUSH2 0x10F JUMPI PUSH4 0x3B9ACA00 CALLVALUE LT ISZERO PUSH2 0x10D JUMPI PUSH1 0x0 DUP1 REVERT JUMPDEST STOP JUMPDEST PUSH1 0x0 DUP1 REVERT JUMPDEST CALLVALUE DUP1 ISZERO PUSH2 0x120 JUMPI PUSH1 0x0 DUP1 REVERT JUMPDEST POP PUSH2 0x13B PUSH1 0x4 DUP1 CALLDATASIZE SUB DUP2 ADD SWAP1 PUSH2 0x136 SWAP2 SWAP1 PUSH2 0x1B3D JUMP JUMPDEST PUSH2 0x451 JUMP JUMPDEST PUSH1 0x40 MLOAD PUSH2 0x148 SWAP2 SWAP1 PUSH2 0x1BFA JUMP JUMPDEST PUSH1 0x40 MLOAD DUP1 SWAP2 SUB SWAP1 RETURN JUMPDEST CALLVALUE DUP1 ISZERO PUSH2 0x15D JUMPI PUSH1 0x0 DUP1 REVERT JUMPDEST POP PUSH2 0x178 PUSH1 0x4 DUP1 CALLDATASIZE SUB DUP2 ADD SWAP1 PUSH2 0x173 SWAP2 SWAP1 PUSH2 0x1B3D JUMP JUMPDEST PUSH2 0x4FD JUMP JUMPDEST PUSH1 0x40 MLOAD PUSH2 0x188 SWAP5 SWAP4 SWAP3 SWAP2 SWAP1 PUSH2 0x1C6C JUMP JUMPDEST PUSH1 0x40 MLOAD DUP1 SWAP2 SUB SWAP1 RETURN JUMPDEST CALLVALUE DUP1 ISZERO PUSH2 0x19D JUMPI PUSH1 0x0 DUP1 REVERT JUMPDEST POP PUSH2 0x1B8 PUSH1 0x4 DUP1 CALLDATASIZE SUB DUP2 ADD SWAP1 PUSH2 0x1B3 SWAP2 SWAP1 PUSH2 0x1E12 JUMP JUMPDEST PUSH2 0x57D JUMP JUMPDEST PUSH1 0x40 MLOAD PUSH2 0x1CE SWAP11 SWAP10 SWAP9 SWAP8 SWAP7 SWAP6 SWAP5 SWAP4 SWAP3 SWAP2 SWAP1 PUSH2 0x1E81 JUMP JUMPDEST PUSH1 0x40 MLOAD DUP1 SWAP2 SUB SWAP1 RETURN JUMPDEST CALLVALUE DUP1 ISZERO PUSH2 0x1E3 JUMPI PUSH1 0x0 DUP1 REVERT JUMPDEST POP PUSH2 0x1FE PUSH1 0x4 DUP1 CALLDATASIZE SUB DUP2 ADD SWAP1 PUSH2 0x1F9 SWAP2 SWAP1 PUSH2 0x1F32 JUMP JUMPDEST PUSH2 0x799 JUMP JUMPDEST PUSH1 0x40 MLOAD PUSH2 0x20B SWAP2 SWAP1 PUSH2 0x1F5F JUMP JUMPDEST PUSH1 0x40 MLOAD DUP1 SWAP2 SUB SWAP1 RETURN JUMPDEST CALLVALUE DUP1 ISZERO PUSH2 0x220 JUMPI PUSH1 0x0 DUP1 REVERT JUMPDEST POP PUSH2 0x23B PUSH1 0x4 DUP1 CALLDATASIZE SUB DUP2 ADD SWAP1 PUSH2 0x236 SWAP2 SWAP1 PUSH2 0x1F32 JUMP JUMPDEST PUSH2 0x7B1 JUMP JUMPDEST PUSH1 0x40 MLOAD PUSH2 0x248 SWAP2 SWAP1 PUSH2 0x1BFA JUMP JUMPDEST PUSH1 0x40 MLOAD DUP1 SWAP2 SUB SWAP1 RETURN JUMPDEST CALLVALUE DUP1 ISZERO PUSH2 0x25D JUMPI PUSH1 0x0 DUP1 REVERT JUMPDEST POP PUSH2 0x278 PUSH1 0x4 DUP1 CALLDATASIZE SUB DUP2 ADD SWAP1 PUSH2 0x273 SWAP2 SWAP1 PUSH2 0x1F7A JUMP JUMPDEST PUSH2 0x851 JUMP JUMPDEST PUSH1 0x40 MLOAD PUSH2 0x285 SWAP2 SWAP1 PUSH2 0x1BFA JUMP JUMPDEST PUSH1 0x40 MLOAD DUP1 SWAP2 SUB SWAP1 RETURN JUMPDEST CALLVALUE DUP1 ISZERO PUSH2 0x29A JUMPI PUSH1 0x0 DUP1 REVERT JUMPDEST POP PUSH2 0x2B5 PUSH1 0x4 DUP1 CALLDATASIZE SUB DUP2 ADD SWAP1 PUSH2 0x2B0 SWAP2 SWAP1 PUSH2 0x1B3D JUMP JUMPDEST PUSH2 0x90A JUMP JUMPDEST PUSH1 0x40 MLOAD PUSH2 0x2C2 SWAP2 SWAP1 PUSH2 0x1FBA JUMP JUMPDEST PUSH1 0x40 MLOAD DUP1 SWAP2 SUB SWAP1 RETURN JUMPDEST CALLVALUE DUP1 ISZERO PUSH2 0x2D7 JUMPI PUSH1 0x0 DUP1 REVERT JUMPDEST POP PUSH2 0x2F2 PUSH1 0x4 DUP1 CALLDATASIZE SUB DUP2 ADD SWAP1 PUSH2 0x2ED SWAP2 SWAP1 PUSH2 0x1FD5 JUMP JUMPDEST PUSH2 0x949 JUMP JUMPDEST PUSH1 0x40 MLOAD PUSH2 0x300 SWAP3 SWAP2 SWAP1 PUSH2 0x22E3 JUMP JUMPDEST PUSH1 0x40 MLOAD DUP1 SWAP2 SUB SWAP1 RETURN JUMPDEST CALLVALUE DUP1 ISZERO PUSH2 0x315 JUMPI PUSH1 0x0 DUP1 REVERT JUMPDEST POP PUSH2 0x330 PUSH1 0x4 DUP1 CALLDATASIZE SUB DUP2 ADD SWAP1 PUSH2 0x32B SWAP2 SWAP1 PUSH2 0x2358 JUMP JUMPDEST PUSH2 0xF15 JUMP JUMPDEST STOP JUMPDEST CALLVALUE DUP1 ISZERO PUSH2 0x33E JUMPI PUSH1 0x0 DUP1 REVERT JUMPDEST POP PUSH2 0x359 PUSH1 0x4 DUP1 CALLDATASIZE SUB DUP2 ADD SWAP1 PUSH2 0x354 SWAP2 SWAP1 PUSH2 0x2398 JUMP JUMPDEST PUSH2 0xFC6 JUMP JUMPDEST PUSH1 0x40 MLOAD PUSH2 0x366 SWAP2 SWAP1 PUSH2 0x242B JUMP JUMPDEST PUSH1 0x40 MLOAD DUP1 SWAP2 SUB SWAP1 RETURN JUMPDEST CALLVALUE DUP1 ISZERO PUSH2 0x37B JUMPI PUSH1 0x0 DUP1 REVERT JUMPDEST POP PUSH2 0x384 PUSH2 0x106D JUMP JUMPDEST PUSH1 0x40 MLOAD PUSH2 0x391 SWAP2 SWAP1 PUSH2 0x1F5F JUMP JUMPDEST PUSH1 0x40 MLOAD DUP1 SWAP2 SUB SWAP1 RETURN JUMPDEST PUSH2 0x3B4 PUSH1 0x4 DUP1 CALLDATASIZE SUB DUP2 ADD SWAP1 PUSH2 0x3AF SWAP2 SWAP1 PUSH2 0x2446 JUMP JUMPDEST PUSH2 0x1075 JUMP JUMPDEST STOP JUMPDEST PUSH2 0x3BE PUSH2 0x12EA JUMP JUMPDEST STOP JUMPDEST CALLVALUE DUP1 ISZERO PUSH2 0x3CC JUMPI PUSH1 0x0 DUP1 REVERT JUMPDEST POP PUSH2 0x3E7 PUSH1 0x4 DUP1 CALLDATASIZE SUB DUP2 ADD SWAP1 PUSH2 0x3E2 SWAP2 SWAP1 PUSH2 0x24A2 JUMP JUMPDEST PUSH2 0x1305 JUMP JUMPDEST STOP JUMPDEST CALLVALUE DUP1 ISZERO PUSH2 0x3F5 JUMPI PUSH1 0x0 DUP1 REVERT JUMPDEST POP PUSH2 0x3FE PUSH2 0x1A51 JUMP JUMPDEST PUSH1 0x40 MLOAD PUSH2 0x40B SWAP2 SWAP1 PUSH2 0x1F5F JUMP JUMPDEST PUSH1 0x40 MLOAD DUP1 SWAP2 SUB SWAP1 RETURN JUMPDEST CALLVALUE DUP1 ISZERO PUSH2 0x420 JUMPI PUSH1 0x0 DUP1 REVERT JUMPDEST POP PUSH2 0x43B PUSH1 0x4 DUP1 CALLDATASIZE SUB DUP2 ADD SWAP1 PUSH2 0x436 SWAP2 SWAP1 PUSH2 0x1FD5 JUMP JUMPDEST PUSH2 0x1A57 JUMP JUMPDEST PUSH1 0x40 MLOAD PUSH2 0x448 SWAP2 SWAP1 PUSH2 0x1FBA JUMP JUMPDEST PUSH1 0x40 MLOAD DUP1 SWAP2 SUB SWAP1 RETURN JUMPDEST PUSH1 0x0 DUP2 DUP2 SLOAD DUP2 LT PUSH2 0x461 JUMPI PUSH1 0x0 DUP1 REVERT JUMPDEST SWAP1 PUSH1 0x0 MSTORE PUSH1 0x20 PUSH1 0x0 KECCAK256 ADD PUSH1 0x0 SWAP2 POP SWAP1 POP DUP1 SLOAD PUSH2 0x47C SWAP1 PUSH2 0x2604 JUMP JUMPDEST DUP1 PUSH1 0x1F ADD PUSH1 0x20 DUP1 SWAP2 DIV MUL PUSH1 0x20 ADD PUSH1 0x40 MLOAD SWAP1 DUP2 ADD PUSH1 0x40 MSTORE DUP1 SWAP3 SWAP2 SWAP1 DUP2 DUP2 MSTORE PUSH1 0x20 ADD DUP3 DUP1 SLOAD PUSH2 0x4A8 SWAP1 PUSH2 0x2604 JUMP JUMPDEST DUP1 ISZERO PUSH2 0x4F5 JUMPI DUP1 PUSH1 0x1F LT PUSH2 0x4CA JUMPI PUSH2 0x100 DUP1 DUP4 SLOAD DIV MUL DUP4 MSTORE SWAP2 PUSH1 0x20 ADD SWAP2 PUSH2 0x4F5 JUMP JUMPDEST DUP3 ADD SWAP2 SWAP1 PUSH1 0x0 MSTORE PUSH1 0x20 PUSH1 0x0 KECCAK256 SWAP1 JUMPDEST DUP2 SLOAD DUP2 MSTORE SWAP1 PUSH1 0x1 ADD SWAP1 PUSH1 0x20 ADD DUP1 DUP4 GT PUSH2 0x4D8 JUMPI DUP3 SWAP1 SUB PUSH1 0x1F AND DUP3 ADD SWAP2 JUMPDEST POP POP POP POP POP DUP2 JUMP JUMPDEST PUSH1 0x5 DUP2 DUP2 SLOAD DUP2 LT PUSH2 0x50D JUMPI PUSH1 0x0 DUP1 REVERT JUMPDEST SWAP1 PUSH1 0x0 MSTORE PUSH1 0x20 PUSH1 0x0 KECCAK256 SWAP1 PUSH1 0x4 MUL ADD PUSH1 0x0 SWAP2 POP SWAP1 POP DUP1 PUSH1 0x0 ADD PUSH1 0x0 SWAP1 SLOAD SWAP1 PUSH2 0x100 EXP SWAP1 DIV PUSH20 0xFFFFFFFFFFFFFFFFFFFFFFFFFFFFFFFFFFFFFFFF AND SWAP1 DUP1 PUSH1 0x1 ADD PUSH1 0x0 SWAP1 SLOAD SWAP1 PUSH2 0x100 EXP SWAP1 DIV PUSH20 0xFFFFFFFFFFFFFFFFFFFFFFFFFFFFFFFFFFFFFFFF AND SWAP1 DUP1 PUSH1 0x2 ADD SLOAD SWAP1 DUP1 PUSH1 0x3 ADD SLOAD SWAP1 POP DUP5 JUMP JUMPDEST PUSH1 0x7 PUSH1 0x20 MSTORE DUP3 PUSH1 0x0 MSTORE PUSH1 0x40 PUSH1 0x0 KECCAK256 DUP3 DUP1 MLOAD PUSH1 0x20 DUP2 ADD DUP3 ADD DUP1 MLOAD DUP5 DUP3 MSTORE PUSH1 0x20 DUP4 ADD PUSH1 0x20 DUP6 ADD KECCAK256 DUP2 DUP4 MSTORE DUP1 SWAP6 POP POP POP POP POP POP PUSH1 0x20 MSTORE DUP1 PUSH1 0x0 MSTORE PUSH1 0x40 PUSH1 0x0 KECCAK256 PUSH1 0x0 SWAP3 POP SWAP3 POP POP POP DUP1 PUSH1 0x0 ADD DUP1 SLOAD PUSH2 0x5D0 SWAP1 PUSH2 0x2604 JUMP JUMPDEST DUP1 PUSH1 0x1F ADD PUSH1 0x20 DUP1 SWAP2 DIV MUL PUSH1 0x20 ADD PUSH1 0x40 MLOAD SWAP1 DUP2 ADD PUSH1 0x40 MSTORE DUP1 SWAP3 SWAP2 SWAP1 DUP2 DUP2 MSTORE PUSH1 0x20 ADD DUP3 DUP1 SLOAD PUSH2 0x5FC SWAP1 PUSH2 0x2604 JUMP JUMPDEST DUP1 ISZERO PUSH2 0x649 JUMPI DUP1 PUSH1 0x1F LT PUSH2 0x61E JUMPI PUSH2 0x100 DUP1 DUP4 SLOAD DIV MUL DUP4 MSTORE SWAP2 PUSH1 0x20 ADD SWAP2 PUSH2 0x649 JUMP JUMPDEST DUP3 ADD SWAP2 SWAP1 PUSH1 0x0 MSTORE PUSH1 0x20 PUSH1 0x0 KECCAK256 SWAP1 JUMPDEST DUP2 SLOAD DUP2 MSTORE SWAP1 PUSH1 0x1 ADD SWAP1 PUSH1 0x20 ADD DUP1 DUP4 GT PUSH2 0x62C JUMPI DUP3 SWAP1 SUB PUSH1 0x1F AND DUP3 ADD SWAP2 JUMPDEST POP POP POP POP POP SWAP1 DUP1 PUSH1 0x1 ADD DUP1 SLOAD PUSH2 0x65E SWAP1 PUSH2 0x2604 JUMP JUMPDEST DUP1 PUSH1 0x1F ADD PUSH1 0x20 DUP1 SWAP2 DIV MUL PUSH1 0x20 ADD PUSH1 0x40 MLOAD SWAP1 DUP2 ADD PUSH1 0x40 MSTORE DUP1 SWAP3 SWAP2 SWAP1 DUP2 DUP2 MSTORE PUSH1 0x20 ADD DUP3 DUP1 SLOAD PUSH2 0x68A SWAP1 PUSH2 0x2604 JUMP JUMPDEST DUP1 ISZERO PUSH2 0x6D7 JUMPI DUP1 PUSH1 0x1F LT PUSH2 0x6AC JUMPI PUSH2 0x100 DUP1 DUP4 SLOAD DIV MUL DUP4 MSTORE SWAP2 PUSH1 0x20 ADD SWAP2 PUSH2 0x6D7 JUMP JUMPDEST DUP3 ADD SWAP2 SWAP1 PUSH1 0x0 MSTORE PUSH1 0x20 PUSH1 0x0 KECCAK256 SWAP1 JUMPDEST DUP2 SLOAD DUP2 MSTORE SWAP1 PUSH1 0x1 ADD SWAP1 PUSH1 0x20 ADD DUP1 DUP4 GT PUSH2 0x6BA JUMPI DUP3 SWAP1 SUB PUSH1 0x1F AND DUP3 ADD SWAP2 JUMPDEST POP POP POP POP POP SWAP1 DUP1 PUSH1 0x2 ADD DUP1 SLOAD PUSH2 0x6EC SWAP1 PUSH2 0x2604 JUMP JUMPDEST DUP1 PUSH1 0x1F ADD PUSH1 0x20 DUP1 SWAP2 DIV MUL PUSH1 0x20 ADD PUSH1 0x40 MLOAD SWAP1 DUP2 ADD PUSH1 0x40 MSTORE DUP1 SWAP3 SWAP2 SWAP1 DUP2 DUP2 MSTORE PUSH1 0x20 ADD DUP3 DUP1 SLOAD PUSH2 0x718 SWAP1 PUSH2 0x2604 JUMP JUMPDEST DUP1 ISZERO PUSH2 0x765 JUMPI DUP1 PUSH1 0x1F LT PUSH2 0x73A JUMPI PUSH2 0x100 DUP1 DUP4 SLOAD DIV MUL DUP4 MSTORE SWAP2 PUSH1 0x20 ADD SWAP2 PUSH2 0x765 JUMP JUMPDEST DUP3 ADD SWAP2 SWAP1 PUSH1 0x0 MSTORE PUSH1 0x20 PUSH1 0x0 KECCAK256 SWAP1 JUMPDEST DUP2 SLOAD DUP2 MSTORE SWAP1 PUSH1 0x1 ADD SWAP1 PUSH1 0x20 ADD DUP1 DUP4 GT PUSH2 0x748 JUMPI DUP3 SWAP1 SUB PUSH1 0x1F AND DUP3 ADD SWAP2 JUMPDEST POP POP POP POP POP SWAP1 DUP1 PUSH1 0x3 ADD SLOAD SWAP1 DUP1 PUSH1 0x4 ADD SLOAD SWAP1 DUP1 PUSH1 0x5 ADD SLOAD SWAP1 DUP1 PUSH1 0x6 ADD SLOAD SWAP1 DUP1 PUSH1 0x7 ADD SLOAD SWAP1 DUP1 PUSH1 0x8 ADD SLOAD SWAP1 DUP1 PUSH1 0x9 ADD SLOAD SWAP1 POP DUP11 JUMP JUMPDEST PUSH1 0x9 PUSH1 0x20 MSTORE DUP1 PUSH1 0x0 MSTORE PUSH1 0x40 PUSH1 0x0 KECCAK256 PUSH1 0x0 SWAP2 POP SWAP1 POP SLOAD DUP2 JUMP JUMPDEST PUSH1 0x2 PUSH1 0x20 MSTORE DUP1 PUSH1 0x0 MSTORE PUSH1 0x40 PUSH1 0x0 KECCAK256 PUSH1 0x0 SWAP2 POP SWAP1 POP DUP1 SLOAD PUSH2 0x7D0 SWAP1 PUSH2 0x2604 JUMP JUMPDEST DUP1 PUSH1 0x1F ADD PUSH1 0x20 DUP1 SWAP2 DIV MUL PUSH1 0x20 ADD PUSH1 0x40 MLOAD SWAP1 DUP2 ADD PUSH1 0x40 MSTORE DUP1 SWAP3 SWAP2 SWAP1 DUP2 DUP2 MSTORE PUSH1 0x20 ADD DUP3 DUP1 SLOAD PUSH2 0x7FC SWAP1 PUSH2 0x2604 JUMP JUMPDEST DUP1 ISZERO PUSH2 0x849 JUMPI DUP1 PUSH1 0x1F LT PUSH2 0x81E JUMPI PUSH2 0x100 DUP1 DUP4 SLOAD DIV MUL DUP4 MSTORE SWAP2 PUSH1 0x20 ADD SWAP2 PUSH2 0x849 JUMP JUMPDEST DUP3 ADD SWAP2 SWAP1 PUSH1 0x0 MSTORE PUSH1 0x20 PUSH1 0x0 KECCAK256 SWAP1 JUMPDEST DUP2 SLOAD DUP2 MSTORE SWAP1 PUSH1 0x1 ADD SWAP1 PUSH1 0x20 ADD DUP1 DUP4 GT PUSH2 0x82C JUMPI DUP3 SWAP1 SUB PUSH1 0x1F AND DUP3 ADD SWAP2 JUMPDEST POP POP POP POP POP DUP2 JUMP JUMPDEST PUSH1 0x6 PUSH1 0x20 MSTORE DUP2 PUSH1 0x0 MSTORE PUSH1 0x40 PUSH1 0x0 KECCAK256 DUP2 DUP2 SLOAD DUP2 LT PUSH2 0x86D JUMPI PUSH1 0x0 DUP1 REVERT JUMPDEST SWAP1 PUSH1 0x0 MSTORE PUSH1 0x20 PUSH1 0x0 KECCAK256 ADD PUSH1 0x0 SWAP2 POP SWAP2 POP POP DUP1 SLOAD PUSH2 0x889 SWAP1 PUSH2 0x2604 JUMP JUMPDEST DUP1 PUSH1 0x1F ADD PUSH1 0x20 DUP1 SWAP2 DIV MUL PUSH1 0x20 ADD PUSH1 0x40 MLOAD SWAP1 DUP2 ADD PUSH1 0x40 MSTORE DUP1 SWAP3 SWAP2 SWAP1 DUP2 DUP2 MSTORE PUSH1 0x20 ADD DUP3 DUP1 SLOAD PUSH2 0x8B5 SWAP1 PUSH2 0x2604 JUMP JUMPDEST DUP1 ISZERO PUSH2 0x902 JUMPI DUP1 PUSH1 0x1F LT PUSH2 0x8D7 JUMPI PUSH2 0x100 DUP1 DUP4 SLOAD DIV MUL DUP4 MSTORE SWAP2 PUSH1 0x20 ADD SWAP2 PUSH2 0x902 JUMP JUMPDEST DUP3 ADD SWAP2 SWAP1 PUSH1 0x0 MSTORE PUSH1 0x20 PUSH1 0x0 KECCAK256 SWAP1 JUMPDEST DUP2 SLOAD DUP2 MSTORE SWAP1 PUSH1 0x1 ADD SWAP1 PUSH1 0x20 ADD DUP1 DUP4 GT PUSH2 0x8E5 JUMPI DUP3 SWAP1 SUB PUSH1 0x1F AND DUP3 ADD SWAP2 JUMPDEST POP POP POP POP POP DUP2 JUMP JUMPDEST PUSH1 0x1 DUP2 DUP2 SLOAD DUP2 LT PUSH2 0x91A JUMPI PUSH1 0x0 DUP1 REVERT JUMPDEST SWAP1 PUSH1 0x0 MSTORE PUSH1 0x20 PUSH1 0x0 KECCAK256 ADD PUSH1 0x0 SWAP2 POP SLOAD SWAP1 PUSH2 0x100 EXP SWAP1 DIV PUSH20 0xFFFFFFFFFFFFFFFFFFFFFFFFFFFFFFFFFFFFFFFF AND DUP2 JUMP JUMPDEST PUSH1 0x60 DUP1 PUSH1 0x0 CALLER SWAP1 POP PUSH1 0x0 PUSH1 0x6 PUSH1 0x0 DUP4 PUSH20 0xFFFFFFFFFFFFFFFFFFFFFFFFFFFFFFFFFFFFFFFF AND PUSH20 0xFFFFFFFFFFFFFFFFFFFFFFFFFFFFFFFFFFFFFFFF AND DUP2 MSTORE PUSH1 0x20 ADD SWAP1 DUP2 MSTORE PUSH1 0x20 ADD PUSH1 0x0 KECCAK256 SWAP1 POP PUSH1 0x0 PUSH1 0x6 PUSH1 0x0 DUP5 PUSH20 0xFFFFFFFFFFFFFFFFFFFFFFFFFFFFFFFFFFFFFFFF AND PUSH20 0xFFFFFFFFFFFFFFFFFFFFFFFFFFFFFFFFFFFFFFFF AND DUP2 MSTORE PUSH1 0x20 ADD SWAP1 DUP2 MSTORE PUSH1 0x20 ADD PUSH1 0x0 KECCAK256 DUP1 SLOAD SWAP1 POP PUSH8 0xFFFFFFFFFFFFFFFF DUP2 GT ISZERO PUSH2 0x9F2 JUMPI PUSH2 0x9F1 PUSH2 0x1CE7 JUMP JUMPDEST JUMPDEST PUSH1 0x40 MLOAD SWAP1 DUP1 DUP3 MSTORE DUP1 PUSH1 0x20 MUL PUSH1 0x20 ADD DUP3 ADD PUSH1 0x40 MSTORE DUP1 ISZERO PUSH2 0xA2B JUMPI DUP2 PUSH1 0x20 ADD JUMPDEST PUSH2 0xA18 PUSH2 0x1AA0 JUMP JUMPDEST DUP2 MSTORE PUSH1 0x20 ADD SWAP1 PUSH1 0x1 SWAP1 SUB SWAP1 DUP2 PUSH2 0xA10 JUMPI SWAP1 POP JUMPDEST POP SWAP1 POP PUSH1 0x0 JUMPDEST DUP3 DUP1 SLOAD SWAP1 POP DUP2 LT ISZERO PUSH2 0xDF5 JUMPI PUSH1 0x0 DUP4 DUP3 DUP2 SLOAD DUP2 LT PUSH2 0xA52 JUMPI PUSH2 0xA51 PUSH2 0x2635 JUMP JUMPDEST JUMPDEST SWAP1 PUSH1 0x0 MSTORE PUSH1 0x20 PUSH1 0x0 KECCAK256 ADD DUP1 SLOAD PUSH2 0xA67 SWAP1 PUSH2 0x2604 JUMP JUMPDEST DUP1 PUSH1 0x1F ADD PUSH1 0x20 DUP1 SWAP2 DIV MUL PUSH1 0x20 ADD PUSH1 0x40 MLOAD SWAP1 DUP2 ADD PUSH1 0x40 MSTORE DUP1 SWAP3 SWAP2 SWAP1 DUP2 DUP2 MSTORE PUSH1 0x20 ADD DUP3 DUP1 SLOAD PUSH2 0xA93 SWAP1 PUSH2 0x2604 JUMP JUMPDEST DUP1 ISZERO PUSH2 0xAE0 JUMPI DUP1 PUSH1 0x1F LT PUSH2 0xAB5 JUMPI PUSH2 0x100 DUP1 DUP4 SLOAD DIV MUL DUP4 MSTORE SWAP2 PUSH1 0x20 ADD SWAP2 PUSH2 0xAE0 JUMP JUMPDEST DUP3 ADD SWAP2 SWAP1 PUSH1 0x0 MSTORE PUSH1 0x20 PUSH1 0x0 KECCAK256 SWAP1 JUMPDEST DUP2 SLOAD DUP2 MSTORE SWAP1 PUSH1 0x1 ADD SWAP1 PUSH1 0x20 ADD DUP1 DUP4 GT PUSH2 0xAC3 JUMPI DUP3 SWAP1 SUB PUSH1 0x1F AND DUP3 ADD SWAP2 JUMPDEST POP POP POP POP POP SWAP1 POP PUSH1 0x7 PUSH1 0x0 DUP7 PUSH20 0xFFFFFFFFFFFFFFFFFFFFFFFFFFFFFFFFFFFFFFFF AND PUSH20 0xFFFFFFFFFFFFFFFFFFFFFFFFFFFFFFFFFFFFFFFF AND DUP2 MSTORE PUSH1 0x20 ADD SWAP1 DUP2 MSTORE PUSH1 0x20 ADD PUSH1 0x0 KECCAK256 DUP2 PUSH1 0x40 MLOAD PUSH2 0xB34 SWAP2 SWAP1 PUSH2 0x26A0 JUMP JUMPDEST SWAP1 DUP2 MSTORE PUSH1 0x20 ADD PUSH1 0x40 MLOAD DUP1 SWAP2 SUB SWAP1 KECCAK256 PUSH1 0x0 PUSH1 0x3 DUP11 PUSH1 0x40 MLOAD PUSH2 0xB54 SWAP2 SWAP1 PUSH2 0x26A0 JUMP JUMPDEST SWAP1 DUP2 MSTORE PUSH1 0x20 ADD PUSH1 0x40 MLOAD DUP1 SWAP2 SUB SWAP1 KECCAK256 PUSH1 0x0 SWAP1 SLOAD SWAP1 PUSH2 0x100 EXP SWAP1 DIV PUSH20 0xFFFFFFFFFFFFFFFFFFFFFFFFFFFFFFFFFFFFFFFF AND PUSH20 0xFFFFFFFFFFFFFFFFFFFFFFFFFFFFFFFFFFFFFFFF AND PUSH20 0xFFFFFFFFFFFFFFFFFFFFFFFFFFFFFFFFFFFFFFFF AND DUP2 MSTORE PUSH1 0x20 ADD SWAP1 DUP2 MSTORE PUSH1 0x20 ADD PUSH1 0x0 KECCAK256 PUSH1 0x40 MLOAD DUP1 PUSH2 0x140 ADD PUSH1 0x40 MSTORE SWAP1 DUP2 PUSH1 0x0 DUP3 ADD DUP1 SLOAD PUSH2 0xBD9 SWAP1 PUSH2 0x2604 JUMP JUMPDEST DUP1 PUSH1 0x1F ADD PUSH1 0x20 DUP1 SWAP2 DIV MUL PUSH1 0x20 ADD PUSH1 0x40 MLOAD SWAP1 DUP2 ADD PUSH1 0x40 MSTORE DUP1 SWAP3 SWAP2 SWAP1 DUP2 DUP2 MSTORE PUSH1 0x20 ADD DUP3 DUP1 SLOAD PUSH2 0xC05 SWAP1 PUSH2 0x2604 JUMP JUMPDEST DUP1 ISZERO PUSH2 0xC52 JUMPI DUP1 PUSH1 0x1F LT PUSH2 0xC27 JUMPI PUSH2 0x100 DUP1 DUP4 SLOAD DIV MUL DUP4 MSTORE SWAP2 PUSH1 0x20 ADD SWAP2 PUSH2 0xC52 JUMP JUMPDEST DUP3 ADD SWAP2 SWAP1 PUSH1 0x0 MSTORE PUSH1 0x20 PUSH1 0x0 KECCAK256 SWAP1 JUMPDEST DUP2 SLOAD DUP2 MSTORE SWAP1 PUSH1 0x1 ADD SWAP1 PUSH1 0x20 ADD DUP1 DUP4 GT PUSH2 0xC35 JUMPI DUP3 SWAP1 SUB PUSH1 0x1F AND DUP3 ADD SWAP2 JUMPDEST POP POP POP POP POP DUP2 MSTORE PUSH1 0x20 ADD PUSH1 0x1 DUP3 ADD DUP1 SLOAD PUSH2 0xC6B SWAP1 PUSH2 0x2604 JUMP JUMPDEST DUP1 PUSH1 0x1F ADD PUSH1 0x20 DUP1 SWAP2 DIV MUL PUSH1 0x20 ADD PUSH1 0x40 MLOAD SWAP1 DUP2 ADD PUSH1 0x40 MSTORE DUP1 SWAP3 SWAP2 SWAP1 DUP2 DUP2 MSTORE PUSH1 0x20 ADD DUP3 DUP1 SLOAD PUSH2 0xC97 SWAP1 PUSH2 0x2604 JUMP JUMPDEST DUP1 ISZERO PUSH2 0xCE4 JUMPI DUP1 PUSH1 0x1F LT PUSH2 0xCB9 JUMPI PUSH2 0x100 DUP1 DUP4 SLOAD DIV MUL DUP4 MSTORE SWAP2 PUSH1 0x20 ADD SWAP2 PUSH2 0xCE4 JUMP JUMPDEST DUP3 ADD SWAP2 SWAP1 PUSH1 0x0 MSTORE PUSH1 0x20 PUSH1 0x0 KECCAK256 SWAP1 JUMPDEST DUP2 SLOAD DUP2 MSTORE SWAP1 PUSH1 0x1 ADD SWAP1 PUSH1 0x20 ADD DUP1 DUP4 GT PUSH2 0xCC7 JUMPI DUP3 SWAP1 SUB PUSH1 0x1F AND DUP3 ADD SWAP2 JUMPDEST POP POP POP POP POP DUP2 MSTORE PUSH1 0x20 ADD PUSH1 0x2 DUP3 ADD DUP1 SLOAD PUSH2 0xCFD SWAP1 PUSH2 0x2604 JUMP JUMPDEST DUP1 PUSH1 0x1F ADD PUSH1 0x20 DUP1 SWAP2 DIV MUL PUSH1 0x20 ADD PUSH1 0x40 MLOAD SWAP1 DUP2 ADD PUSH1 0x40 MSTORE DUP1 SWAP3 SWAP2 SWAP1 DUP2 DUP2 MSTORE PUSH1 0x20 ADD DUP3 DUP1 SLOAD PUSH2 0xD29 SWAP1 PUSH2 0x2604 JUMP JUMPDEST DUP1 ISZERO PUSH2 0xD76 JUMPI DUP1 PUSH1 0x1F LT PUSH2 0xD4B JUMPI PUSH2 0x100 DUP1 DUP4 SLOAD DIV MUL DUP4 MSTORE SWAP2 PUSH1 0x20 ADD SWAP2 PUSH2 0xD76 JUMP JUMPDEST DUP3 ADD SWAP2 SWAP1 PUSH1 0x0 MSTORE PUSH1 0x20 PUSH1 0x0 KECCAK256 SWAP1 JUMPDEST DUP2 SLOAD DUP2 MSTORE SWAP1 PUSH1 0x1 ADD SWAP1 PUSH1 0x20 ADD DUP1 DUP4 GT PUSH2 0xD59 JUMPI DUP3 SWAP1 SUB PUSH1 0x1F AND DUP3 ADD SWAP2 JUMPDEST POP POP POP POP POP DUP2 MSTORE PUSH1 0x20 ADD PUSH1 0x3 DUP3 ADD SLOAD DUP2 MSTORE PUSH1 0x20 ADD PUSH1 0x4 DUP3 ADD SLOAD DUP2 MSTORE PUSH1 0x20 ADD PUSH1 0x5 DUP3 ADD SLOAD DUP2 MSTORE PUSH1 0x20 ADD PUSH1 0x6 DUP3 ADD SLOAD DUP2 MSTORE PUSH1 0x20 ADD PUSH1 0x7 DUP3 ADD SLOAD DUP2 MSTORE PUSH1 0x20 ADD PUSH1 0x8 DUP3 ADD SLOAD DUP2 MSTORE PUSH1 0x20 ADD PUSH1 0x9 DUP3 ADD SLOAD DUP2 MSTORE POP POP DUP4 DUP4 DUP2 MLOAD DUP2 LT PUSH2 0xDD8 JUMPI PUSH2 0xDD7 PUSH2 0x2635 JUMP JUMPDEST JUMPDEST PUSH1 0x20 MUL PUSH1 0x20 ADD ADD DUP2 SWAP1 MSTORE POP POP DUP1 PUSH2 0xDEE SWAP1 PUSH2 0x26E6 JUMP JUMPDEST SWAP1 POP PUSH2 0xA31 JUMP JUMPDEST POP PUSH1 0x6 PUSH1 0x0 DUP5 PUSH20 0xFFFFFFFFFFFFFFFFFFFFFFFFFFFFFFFFFFFFFFFF AND PUSH20 0xFFFFFFFFFFFFFFFFFFFFFFFFFFFFFFFFFFFFFFFF AND DUP2 MSTORE PUSH1 0x20 ADD SWAP1 DUP2 MSTORE PUSH1 0x20 ADD PUSH1 0x0 KECCAK256 DUP2 DUP2 DUP1 SLOAD DUP1 PUSH1 0x20 MUL PUSH1 0x20 ADD PUSH1 0x40 MLOAD SWAP1 DUP2 ADD PUSH1 0x40 MSTORE DUP1 SWAP3 SWAP2 SWAP1 DUP2 DUP2 MSTORE PUSH1 0x20 ADD PUSH1 0x0 SWAP1 JUMPDEST DUP3 DUP3 LT ISZERO PUSH2 0xF03 JUMPI DUP4 DUP3 SWAP1 PUSH1 0x0 MSTORE PUSH1 0x20 PUSH1 0x0 KECCAK256 ADD DUP1 SLOAD PUSH2 0xE76 SWAP1 PUSH2 0x2604 JUMP JUMPDEST DUP1 PUSH1 0x1F ADD PUSH1 0x20 DUP1 SWAP2 DIV MUL PUSH1 0x20 ADD PUSH1 0x40 MLOAD SWAP1 DUP2 ADD PUSH1 0x40 MSTORE DUP1 SWAP3 SWAP2 SWAP1 DUP2 DUP2 MSTORE PUSH1 0x20 ADD DUP3 DUP1 SLOAD PUSH2 0xEA2 SWAP1 PUSH2 0x2604 JUMP JUMPDEST DUP1 ISZERO PUSH2 0xEEF JUMPI DUP1 PUSH1 0x1F LT PUSH2 0xEC4 JUMPI PUSH2 0x100 DUP1 DUP4 SLOAD DIV MUL DUP4 MSTORE SWAP2 PUSH1 0x20 ADD SWAP2 PUSH2 0xEEF JUMP JUMPDEST DUP3 ADD SWAP2 SWAP1 PUSH1 0x0 MSTORE PUSH1 0x20 PUSH1 0x0 KECCAK256 SWAP1 JUMPDEST DUP2 SLOAD DUP2 MSTORE SWAP1 PUSH1 0x1 ADD SWAP1 PUSH1 0x20 ADD DUP1 DUP4 GT PUSH2 0xED2 JUMPI DUP3 SWAP1 SUB PUSH1 0x1F AND DUP3 ADD SWAP2 JUMPDEST POP POP POP POP POP DUP2 MSTORE PUSH1 0x20 ADD SWAP1 PUSH1 0x1 ADD SWAP1 PUSH2 0xE57 JUMP JUMPDEST POP POP POP POP SWAP2 POP SWAP5 POP SWAP5 POP POP POP POP SWAP2 POP SWAP2 JUMP JUMPDEST PUSH1 0x0 DUP3 PUSH20 0xFFFFFFFFFFFFFFFFFFFFFFFFFFFFFFFFFFFFFFFF AND DUP3 PUSH1 0x40 MLOAD PUSH2 0xF3B SWAP1 PUSH2 0x275F JUMP JUMPDEST PUSH1 0x0 PUSH1 0x40 MLOAD DUP1 DUP4 SUB DUP2 DUP6 DUP8 GAS CALL SWAP3 POP POP POP RETURNDATASIZE DUP1 PUSH1 0x0 DUP2 EQ PUSH2 0xF78 JUMPI PUSH1 0x40 MLOAD SWAP2 POP PUSH1 0x1F NOT PUSH1 0x3F RETURNDATASIZE ADD AND DUP3 ADD PUSH1 0x40 MSTORE RETURNDATASIZE DUP3 MSTORE RETURNDATASIZE PUSH1 0x0 PUSH1 0x20 DUP5 ADD RETURNDATACOPY PUSH2 0xF7D JUMP JUMPDEST PUSH1 0x60 SWAP2 POP JUMPDEST POP POP SWAP1 POP DUP1 PUSH2 0xFC1 JUMPI PUSH1 0x40 MLOAD PUSH32 0x8C379A000000000000000000000000000000000000000000000000000000000 DUP2 MSTORE PUSH1 0x4 ADD PUSH2 0xFB8 SWAP1 PUSH2 0x27C0 JUMP JUMPDEST PUSH1 0x40 MLOAD DUP1 SWAP2 SUB SWAP1 REVERT JUMPDEST POP POP POP JUMP JUMPDEST PUSH1 0x0 DUP1 PUSH1 0x8 PUSH1 0x0 PUSH1 0x3 DUP6 PUSH1 0x40 MLOAD PUSH2 0xFDD SWAP2 SWAP1 PUSH2 0x26A0 JUMP JUMPDEST SWAP1 DUP2 MSTORE PUSH1 0x20 ADD PUSH1 0x40 MLOAD DUP1 SWAP2 SUB SWAP1 KECCAK256 PUSH1 0x0 SWAP1 SLOAD SWAP1 PUSH2 0x100 EXP SWAP1 DIV PUSH20 0xFFFFFFFFFFFFFFFFFFFFFFFFFFFFFFFFFFFFFFFF AND PUSH20 0xFFFFFFFFFFFFFFFFFFFFFFFFFFFFFFFFFFFFFFFF AND PUSH20 0xFFFFFFFFFFFFFFFFFFFFFFFFFFFFFFFFFFFFFFFF AND DUP2 MSTORE PUSH1 0x20 ADD SWAP1 DUP2 MSTORE PUSH1 0x20 ADD PUSH1 0x0 KECCAK256 DUP5 PUSH1 0x40 MLOAD PUSH2 0x1054 SWAP2 SWAP1 PUSH2 0x26A0 JUMP JUMPDEST SWAP1 DUP2 MSTORE PUSH1 0x20 ADD PUSH1 0x40 MLOAD DUP1 SWAP2 SUB SWAP1 KECCAK256 SLOAD EQ ISZERO SWAP1 POP SWAP3 SWAP2 POP POP JUMP JUMPDEST PUSH1 0x0 SELFBALANCE SWAP1 POP SWAP1 JUMP JUMPDEST PUSH1 0x0 PUSH1 0x2 PUSH1 0x0 DUP5 PUSH20 0xFFFFFFFFFFFFFFFFFFFFFFFFFFFFFFFFFFFFFFFF AND PUSH20 0xFFFFFFFFFFFFFFFFFFFFFFFFFFFFFFFFFFFFFFFF AND DUP2 MSTORE PUSH1 0x20 ADD SWAP1 DUP2 MSTORE PUSH1 0x20 ADD PUSH1 0x0 KECCAK256 DUP1 SLOAD PUSH2 0x10C1 SWAP1 PUSH2 0x2604 JUMP JUMPDEST SWAP1 POP EQ DUP1 ISZERO PUSH2 0x113A JUMPI POP PUSH1 0x0 PUSH20 0xFFFFFFFFFFFFFFFFFFFFFFFFFFFFFFFFFFFFFFFF AND PUSH1 0x3 DUP3 PUSH1 0x40 MLOAD PUSH2 0x10F3 SWAP2 SWAP1 PUSH2 0x26A0 JUMP JUMPDEST SWAP1 DUP2 MSTORE PUSH1 0x20 ADD PUSH1 0x40 MLOAD DUP1 SWAP2 SUB SWAP1 KECCAK256 PUSH1 0x0 SWAP1 SLOAD SWAP1 PUSH2 0x100 EXP SWAP1 DIV PUSH20 0xFFFFFFFFFFFFFFFFFFFFFFFFFFFFFFFFFFFFFFFF AND PUSH20 0xFFFFFFFFFFFFFFFFFFFFFFFFFFFFFFFFFFFFFFFF AND EQ JUMPDEST ISZERO PUSH2 0x12E6 JUMPI PUSH1 0x64 CALLVALUE LT ISZERO PUSH2 0x114D JUMPI PUSH1 0x0 DUP1 REVERT JUMPDEST PUSH1 0x0 DUP2 SWAP1 DUP1 PUSH1 0x1 DUP2 SLOAD ADD DUP1 DUP3 SSTORE DUP1 SWAP2 POP POP PUSH1 0x1 SWAP1 SUB SWAP1 PUSH1 0x0 MSTORE PUSH1 0x20 PUSH1 0x0 KECCAK256 ADD PUSH1 0x0 SWAP1 SWAP2 SWAP1 SWAP2 SWAP1 SWAP2 POP SWAP1 DUP2 PUSH2 0x1181 SWAP2 SWAP1 PUSH2 0x298C JUMP JUMPDEST POP PUSH1 0x1 DUP3 SWAP1 DUP1 PUSH1 0x1 DUP2 SLOAD ADD DUP1 DUP3 SSTORE DUP1 SWAP2 POP POP PUSH1 0x1 SWAP1 SUB SWAP1 PUSH1 0x0 MSTORE PUSH1 0x20 PUSH1 0x0 KECCAK256 ADD PUSH1 0x0 SWAP1 SWAP2 SWAP1 SWAP2 SWAP1 SWAP2 PUSH2 0x100 EXP DUP2 SLOAD DUP2 PUSH20 0xFFFFFFFFFFFFFFFFFFFFFFFFFFFFFFFFFFFFFFFF MUL NOT AND SWAP1 DUP4 PUSH20 0xFFFFFFFFFFFFFFFFFFFFFFFFFFFFFFFFFFFFFFFF AND MUL OR SWAP1 SSTORE POP DUP2 PUSH1 0x3 DUP3 PUSH1 0x40 MLOAD PUSH2 0x11F6 SWAP2 SWAP1 PUSH2 0x26A0 JUMP JUMPDEST SWAP1 DUP2 MSTORE PUSH1 0x20 ADD PUSH1 0x40 MLOAD DUP1 SWAP2 SUB SWAP1 KECCAK256 PUSH1 0x0 PUSH2 0x100 EXP DUP2 SLOAD DUP2 PUSH20 0xFFFFFFFFFFFFFFFFFFFFFFFFFFFFFFFFFFFFFFFF MUL NOT AND SWAP1 DUP4 PUSH20 0xFFFFFFFFFFFFFFFFFFFFFFFFFFFFFFFFFFFFFFFF AND MUL OR SWAP1 SSTORE POP DUP1 PUSH1 0x2 PUSH1 0x0 DUP5 PUSH20 0xFFFFFFFFFFFFFFFFFFFFFFFFFFFFFFFFFFFFFFFF AND PUSH20 0xFFFFFFFFFFFFFFFFFFFFFFFFFFFFFFFFFFFFFFFF AND DUP2 MSTORE PUSH1 0x20 ADD SWAP1 DUP2 MSTORE PUSH1 0x20 ADD PUSH1 0x0 KECCAK256 SWAP1 DUP2 PUSH2 0x128E SWAP2 SWAP1 PUSH2 0x298C JUMP JUMPDEST POP CALLVALUE PUSH1 0x9 PUSH1 0x0 DUP5 PUSH20 0xFFFFFFFFFFFFFFFFFFFFFFFFFFFFFFFFFFFFFFFF AND PUSH20 0xFFFFFFFFFFFFFFFFFFFFFFFFFFFFFFFFFFFFFFFF AND DUP2 MSTORE PUSH1 0x20 ADD SWAP1 DUP2 MSTORE PUSH1 0x20 ADD PUSH1 0x0 KECCAK256 PUSH1 0x0 DUP3 DUP3 SLOAD PUSH2 0x12DE SWAP2 SWAP1 PUSH2 0x2A5E JUMP JUMPDEST SWAP3 POP POP DUP2 SWAP1 SSTORE POP JUMPDEST POP POP JUMP JUMPDEST CALLVALUE PUSH1 0x4 PUSH1 0x0 DUP3 DUP3 SLOAD PUSH2 0x12FC SWAP2 SWAP1 PUSH2 0x2A5E JUMP JUMPDEST SWAP3 POP POP DUP2 SWAP1 SSTORE POP JUMP JUMPDEST PUSH1 0x0 CALLER SWAP1 POP PUSH1 0x0 PUSH1 0x2 PUSH1 0x0 DUP4 PUSH20 0xFFFFFFFFFFFFFFFFFFFFFFFFFFFFFFFFFFFFFFFF AND PUSH20 0xFFFFFFFFFFFFFFFFFFFFFFFFFFFFFFFFFFFFFFFF AND DUP2 MSTORE PUSH1 0x20 ADD SWAP1 DUP2 MSTORE PUSH1 0x20 ADD PUSH1 0x0 KECCAK256 DUP1 SLOAD PUSH2 0x1356 SWAP1 PUSH2 0x2604 JUMP JUMPDEST SWAP1 POP SUB PUSH2 0x1362 JUMPI PUSH1 0x0 DUP1 REVERT JUMPDEST PUSH1 0x0 PUSH20 0xFFFFFFFFFFFFFFFFFFFFFFFFFFFFFFFFFFFFFFFF AND PUSH1 0x3 DUP11 PUSH1 0x40 MLOAD PUSH2 0x138A SWAP2 SWAP1 PUSH2 0x26A0 JUMP JUMPDEST SWAP1 DUP2 MSTORE PUSH1 0x20 ADD PUSH1 0x40 MLOAD DUP1 SWAP2 SUB SWAP1 KECCAK256 PUSH1 0x0 SWAP1 SLOAD SWAP1 PUSH2 0x100 EXP SWAP1 DIV PUSH20 0xFFFFFFFFFFFFFFFFFFFFFFFFFFFFFFFFFFFFFFFF AND PUSH20 0xFFFFFFFFFFFFFFFFFFFFFFFFFFFFFFFFFFFFFFFF AND SUB PUSH2 0x13D9 JUMPI PUSH1 0x0 DUP1 REVERT JUMPDEST PUSH1 0x1 PUSH1 0x9 PUSH1 0x0 PUSH1 0x3 DUP13 PUSH1 0x40 MLOAD PUSH2 0x13EF SWAP2 SWAP1 PUSH2 0x26A0 JUMP JUMPDEST SWAP1 DUP2 MSTORE PUSH1 0x20 ADD PUSH1 0x40 MLOAD DUP1 SWAP2 SUB SWAP1 KECCAK256 PUSH1 0x0 SWAP1 SLOAD SWAP1 PUSH2 0x100 EXP SWAP1 DIV PUSH20 0xFFFFFFFFFFFFFFFFFFFFFFFFFFFFFFFFFFFFFFFF AND PUSH20 0xFFFFFFFFFFFFFFFFFFFFFFFFFFFFFFFFFFFFFFFF AND PUSH20 0xFFFFFFFFFFFFFFFFFFFFFFFFFFFFFFFFFFFFFFFF AND DUP2 MSTORE PUSH1 0x20 ADD SWAP1 DUP2 MSTORE PUSH1 0x20 ADD PUSH1 0x0 KECCAK256 SLOAD LT ISZERO PUSH2 0x1464 JUMPI PUSH1 0x0 DUP1 REVERT JUMPDEST PUSH1 0x0 PUSH1 0x7 PUSH1 0x0 PUSH1 0x3 DUP13 PUSH1 0x40 MLOAD PUSH2 0x147A SWAP2 SWAP1 PUSH2 0x26A0 JUMP JUMPDEST SWAP1 DUP2 MSTORE PUSH1 0x20 ADD PUSH1 0x40 MLOAD DUP1 SWAP2 SUB SWAP1 KECCAK256 PUSH1 0x0 SWAP1 SLOAD SWAP1 PUSH2 0x100 EXP SWAP1 DIV PUSH20 0xFFFFFFFFFFFFFFFFFFFFFFFFFFFFFFFFFFFFFFFF AND PUSH20 0xFFFFFFFFFFFFFFFFFFFFFFFFFFFFFFFFFFFFFFFF AND PUSH20 0xFFFFFFFFFFFFFFFFFFFFFFFFFFFFFFFFFFFFFFFF AND DUP2 MSTORE PUSH1 0x20 ADD SWAP1 DUP2 MSTORE PUSH1 0x20 ADD PUSH1 0x0 KECCAK256 SWAP1 POP PUSH2 0x14EF DUP13 DUP12 PUSH2 0xFC6 JUMP JUMPDEST PUSH2 0x1653 JUMPI PUSH1 0x6 PUSH1 0x0 PUSH1 0x3 DUP13 PUSH1 0x40 MLOAD PUSH2 0x1507 SWAP2 SWAP1 PUSH2 0x26A0 JUMP JUMPDEST SWAP1 DUP2 MSTORE PUSH1 0x20 ADD PUSH1 0x40 MLOAD DUP1 SWAP2 SUB SWAP1 KECCAK256 PUSH1 0x0 SWAP1 SLOAD SWAP1 PUSH2 0x100 EXP SWAP1 DIV PUSH20 0xFFFFFFFFFFFFFFFFFFFFFFFFFFFFFFFFFFFFFFFF AND PUSH20 0xFFFFFFFFFFFFFFFFFFFFFFFFFFFFFFFFFFFFFFFF AND PUSH20 0xFFFFFFFFFFFFFFFFFFFFFFFFFFFFFFFFFFFFFFFF AND DUP2 MSTORE PUSH1 0x20 ADD SWAP1 DUP2 MSTORE PUSH1 0x20 ADD PUSH1 0x0 KECCAK256 DUP13 SWAP1 DUP1 PUSH1 0x1 DUP2 SLOAD ADD DUP1 DUP3 SSTORE DUP1 SWAP2 POP POP PUSH1 0x1 SWAP1 SUB SWAP1 PUSH1 0x0 MSTORE PUSH1 0x20 PUSH1 0x0 KECCAK256 ADD PUSH1 0x0 SWAP1 SWAP2 SWAP1 SWAP2 SWAP1 SWAP2 POP SWAP1 DUP2 PUSH2 0x15A2 SWAP2 SWAP1 PUSH2 0x298C JUMP JUMPDEST POP PUSH1 0x8 PUSH1 0x0 PUSH1 0x3 DUP13 PUSH1 0x40 MLOAD PUSH2 0x15B7 SWAP2 SWAP1 PUSH2 0x26A0 JUMP JUMPDEST SWAP1 DUP2 MSTORE PUSH1 0x20 ADD PUSH1 0x40 MLOAD DUP1 SWAP2 SUB SWAP1 KECCAK256 PUSH1 0x0 SWAP1 SLOAD SWAP1 PUSH2 0x100 EXP SWAP1 DIV PUSH20 0xFFFFFFFFFFFFFFFFFFFFFFFFFFFFFFFFFFFFFFFF AND PUSH20 0xFFFFFFFFFFFFFFFFFFFFFFFFFFFFFFFFFFFFFFFF AND PUSH20 0xFFFFFFFFFFFFFFFFFFFFFFFFFFFFFFFFFFFFFFFF AND DUP2 MSTORE PUSH1 0x20 ADD SWAP1 DUP2 MSTORE PUSH1 0x20 ADD PUSH1 0x0 KECCAK256 DUP13 PUSH1 0x40 MLOAD PUSH2 0x162E SWAP2 SWAP1 PUSH2 0x26A0 JUMP JUMPDEST SWAP1 DUP2 MSTORE PUSH1 0x20 ADD PUSH1 0x40 MLOAD DUP1 SWAP2 SUB SWAP1 KECCAK256 PUSH1 0x0 DUP2 SLOAD DUP1 SWAP3 SWAP2 SWAP1 PUSH2 0x164D SWAP1 PUSH2 0x26E6 JUMP JUMPDEST SWAP2 SWAP1 POP SSTORE POP JUMPDEST PUSH1 0x0 DUP2 DUP14 PUSH1 0x40 MLOAD PUSH2 0x1664 SWAP2 SWAP1 PUSH2 0x26A0 JUMP JUMPDEST SWAP1 DUP2 MSTORE PUSH1 0x20 ADD PUSH1 0x40 MLOAD DUP1 SWAP2 SUB SWAP1 KECCAK256 SWAP1 POP DUP13 DUP2 PUSH1 0x0 DUP6 PUSH20 0xFFFFFFFFFFFFFFFFFFFFFFFFFFFFFFFFFFFFFFFF AND PUSH20 0xFFFFFFFFFFFFFFFFFFFFFFFFFFFFFFFFFFFFFFFF AND DUP2 MSTORE PUSH1 0x20 ADD SWAP1 DUP2 MSTORE PUSH1 0x20 ADD PUSH1 0x0 KECCAK256 PUSH1 0x0 ADD SWAP1 DUP2 PUSH2 0x16C2 SWAP2 SWAP1 PUSH2 0x298C JUMP JUMPDEST POP DUP12 DUP2 PUSH1 0x0 DUP6 PUSH20 0xFFFFFFFFFFFFFFFFFFFFFFFFFFFFFFFFFFFFFFFF AND PUSH20 0xFFFFFFFFFFFFFFFFFFFFFFFFFFFFFFFFFFFFFFFF AND DUP2 MSTORE PUSH1 0x20 ADD SWAP1 DUP2 MSTORE PUSH1 0x20 ADD PUSH1 0x0 KECCAK256 PUSH1 0x1 ADD SWAP1 DUP2 PUSH2 0x1711 SWAP2 SWAP1 PUSH2 0x298C JUMP JUMPDEST POP DUP11 DUP2 PUSH1 0x0 DUP6 PUSH20 0xFFFFFFFFFFFFFFFFFFFFFFFFFFFFFFFFFFFFFFFF AND PUSH20 0xFFFFFFFFFFFFFFFFFFFFFFFFFFFFFFFFFFFFFFFF AND DUP2 MSTORE PUSH1 0x20 ADD SWAP1 DUP2 MSTORE PUSH1 0x20 ADD PUSH1 0x0 KECCAK256 PUSH1 0x2 ADD SWAP1 DUP2 PUSH2 0x1760 SWAP2 SWAP1 PUSH2 0x298C JUMP JUMPDEST POP DUP10 DUP2 PUSH1 0x0 DUP6 PUSH20 0xFFFFFFFFFFFFFFFFFFFFFFFFFFFFFFFFFFFFFFFF AND PUSH20 0xFFFFFFFFFFFFFFFFFFFFFFFFFFFFFFFFFFFFFFFF AND DUP2 MSTORE PUSH1 0x20 ADD SWAP1 DUP2 MSTORE PUSH1 0x20 ADD PUSH1 0x0 KECCAK256 PUSH1 0x7 ADD DUP2 SWAP1 SSTORE POP DUP9 DUP2 PUSH1 0x0 DUP6 PUSH20 0xFFFFFFFFFFFFFFFFFFFFFFFFFFFFFFFFFFFFFFFF AND PUSH20 0xFFFFFFFFFFFFFFFFFFFFFFFFFFFFFFFFFFFFFFFF AND DUP2 MSTORE PUSH1 0x20 ADD SWAP1 DUP2 MSTORE PUSH1 0x20 ADD PUSH1 0x0 KECCAK256 PUSH1 0x8 ADD DUP2 SWAP1 SSTORE POP DUP8 DUP2 PUSH1 0x0 DUP6 PUSH20 0xFFFFFFFFFFFFFFFFFFFFFFFFFFFFFFFFFFFFFFFF AND PUSH20 0xFFFFFFFFFFFFFFFFFFFFFFFFFFFFFFFFFFFFFFFF AND DUP2 MSTORE PUSH1 0x20 ADD SWAP1 DUP2 MSTORE PUSH1 0x20 ADD PUSH1 0x0 KECCAK256 PUSH1 0x9 ADD DUP2 SWAP1 SSTORE POP DUP7 DUP2 PUSH1 0x0 DUP6 PUSH20 0xFFFFFFFFFFFFFFFFFFFFFFFFFFFFFFFFFFFFFFFF AND PUSH20 0xFFFFFFFFFFFFFFFFFFFFFFFFFFFFFFFFFFFFFFFF AND DUP2 MSTORE PUSH1 0x20 ADD SWAP1 DUP2 MSTORE PUSH1 0x20 ADD PUSH1 0x0 KECCAK256 PUSH1 0x3 ADD DUP2 SWAP1 SSTORE POP DUP6 DUP2 PUSH1 0x0 DUP6 PUSH20 0xFFFFFFFFFFFFFFFFFFFFFFFFFFFFFFFFFFFFFFFF AND PUSH20 0xFFFFFFFFFFFFFFFFFFFFFFFFFFFFFFFFFFFFFFFF AND DUP2 MSTORE PUSH1 0x20 ADD SWAP1 DUP2 MSTORE PUSH1 0x20 ADD PUSH1 0x0 KECCAK256 PUSH1 0x6 ADD DUP2 SWAP1 SSTORE POP DUP5 DUP2 PUSH1 0x0 DUP6 PUSH20 0xFFFFFFFFFFFFFFFFFFFFFFFFFFFFFFFFFFFFFFFF AND PUSH20 0xFFFFFFFFFFFFFFFFFFFFFFFFFFFFFFFFFFFFFFFF AND DUP2 MSTORE PUSH1 0x20 ADD SWAP1 DUP2 MSTORE PUSH1 0x20 ADD PUSH1 0x0 KECCAK256 PUSH1 0x4 ADD DUP2 SWAP1 SSTORE POP DUP4 DUP2 PUSH1 0x0 DUP6 PUSH20 0xFFFFFFFFFFFFFFFFFFFFFFFFFFFFFFFFFFFFFFFF AND PUSH20 0xFFFFFFFFFFFFFFFFFFFFFFFFFFFFFFFFFFFFFFFF AND DUP2 MSTORE PUSH1 0x20 ADD SWAP1 DUP2 MSTORE PUSH1 0x20 ADD PUSH1 0x0 KECCAK256 PUSH1 0x5 ADD DUP2 SWAP1 SSTORE POP PUSH1 0x1 PUSH1 0x9 PUSH1 0x0 PUSH1 0x3 DUP15 PUSH1 0x40 MLOAD PUSH2 0x1961 SWAP2 SWAP1 PUSH2 0x26A0 JUMP JUMPDEST SWAP1 DUP2 MSTORE PUSH1 0x20 ADD PUSH1 0x40 MLOAD DUP1 SWAP2 SUB SWAP1 KECCAK256 PUSH1 0x0 SWAP1 SLOAD SWAP1 PUSH2 0x100 EXP SWAP1 DIV PUSH20 0xFFFFFFFFFFFFFFFFFFFFFFFFFFFFFFFFFFFFFFFF AND PUSH20 0xFFFFFFFFFFFFFFFFFFFFFFFFFFFFFFFFFFFFFFFF AND PUSH20 0xFFFFFFFFFFFFFFFFFFFFFFFFFFFFFFFFFFFFFFFF AND DUP2 MSTORE PUSH1 0x20 ADD SWAP1 DUP2 MSTORE PUSH1 0x20 ADD PUSH1 0x0 KECCAK256 PUSH1 0x0 DUP3 DUP3 SLOAD PUSH2 0x19D9 SWAP2 SWAP1 PUSH2 0x2A92 JUMP JUMPDEST SWAP3 POP POP DUP2 SWAP1 SSTORE POP PUSH1 0x1 PUSH1 0x9 PUSH1 0x0 DUP6 PUSH20 0xFFFFFFFFFFFFFFFFFFFFFFFFFFFFFFFFFFFFFFFF AND PUSH20 0xFFFFFFFFFFFFFFFFFFFFFFFFFFFFFFFFFFFFFFFF AND DUP2 MSTORE PUSH1 0x20 ADD SWAP1 DUP2 MSTORE PUSH1 0x20 ADD PUSH1 0x0 KECCAK256 PUSH1 0x0 DUP3 DUP3 SLOAD PUSH2 0x1A30 SWAP2 SWAP1 PUSH2 0x2A5E JUMP JUMPDEST SWAP3 POP POP DUP2 SWAP1 SSTORE POP PUSH2 0x1A42 DUP4 PUSH1 0x1 PUSH2 0xF15 JUMP JUMPDEST POP POP POP POP POP POP POP POP POP POP POP POP POP JUMP JUMPDEST PUSH1 0x4 SLOAD DUP2 JUMP JUMPDEST PUSH1 0x3 DUP2 DUP1 MLOAD PUSH1 0x20 DUP2 ADD DUP3 ADD DUP1 MLOAD DUP5 DUP3 MSTORE PUSH1 0x20 DUP4 ADD PUSH1 0x20 DUP6 ADD KECCAK256 DUP2 DUP4 MSTORE DUP1 SWAP6 POP POP POP POP POP POP PUSH1 0x0 SWAP2 POP SLOAD SWAP1 PUSH2 0x100 EXP SWAP1 DIV PUSH20 0xFFFFFFFFFFFFFFFFFFFFFFFFFFFFFFFFFFFFFFFF AND DUP2 JUMP JUMPDEST PUSH1 0x40 MLOAD DUP1 PUSH2 0x140 ADD PUSH1 0x40 MSTORE DUP1 PUSH1 0x60 DUP2 MSTORE PUSH1 0x20 ADD PUSH1 0x60 DUP2 MSTORE PUSH1 0x20 ADD PUSH1 0x60 DUP2 MSTORE PUSH1 0x20 ADD PUSH1 0x0 DUP2 MSTORE PUSH1 0x20 ADD PUSH1 0x0 DUP2 MSTORE PUSH1 0x20 ADD PUSH1 0x0 DUP2 MSTORE PUSH1 0x20 ADD PUSH1 0x0 DUP2 MSTORE PUSH1 0x20 ADD PUSH1 0x0 DUP2 MSTORE PUSH1 0x20 ADD PUSH1 0x0 DUP2 MSTORE PUSH1 0x20 ADD PUSH1 0x0 DUP2 MSTORE POP SWAP1 JUMP JUMPDEST PUSH1 0x0 PUSH1 0x40 MLOAD SWAP1 POP SWAP1 JUMP JUMPDEST PUSH1 0x0 DUP1 REVERT JUMPDEST PUSH1 0x0 DUP1 REVERT JUMPDEST PUSH1 0x0 DUP2 SWAP1 POP SWAP2 SWAP1 POP JUMP JUMPDEST PUSH2 0x1B1A DUP2 PUSH2 0x1B07 JUMP JUMPDEST DUP2 EQ PUSH2 0x1B25 JUMPI PUSH1 0x0 DUP1 REVERT JUMPDEST POP JUMP JUMPDEST PUSH1 0x0 DUP2 CALLDATALOAD SWAP1 POP PUSH2 0x1B37 DUP2 PUSH2 0x1B11 JUMP JUMPDEST SWAP3 SWAP2 POP POP JUMP JUMPDEST PUSH1 0x0 PUSH1 0x20 DUP3 DUP5 SUB SLT ISZERO PUSH2 0x1B53 JUMPI PUSH2 0x1B52 PUSH2 0x1AFD JUMP JUMPDEST JUMPDEST PUSH1 0x0 PUSH2 0x1B61 DUP5 DUP3 DUP6 ADD PUSH2 0x1B28 JUMP JUMPDEST SWAP2 POP POP SWAP3 SWAP2 POP POP JUMP JUMPDEST PUSH1 0x0 DUP2 MLOAD SWAP1 POP SWAP2 SWAP1 POP JUMP JUMPDEST PUSH1 0x0 DUP3 DUP3 MSTORE PUSH1 0x20 DUP3 ADD SWAP1 POP SWAP3 SWAP2 POP POP JUMP JUMPDEST PUSH1 0x0 JUMPDEST DUP4 DUP2 LT ISZERO PUSH2 0x1BA4 JUMPI DUP1 DUP3 ADD MLOAD DUP2 DUP5 ADD MSTORE PUSH1 0x20 DUP2 ADD SWAP1 POP PUSH2 0x1B89 JUMP JUMPDEST PUSH1 0x0 DUP5 DUP5 ADD MSTORE POP POP POP POP JUMP JUMPDEST PUSH1 0x0 PUSH1 0x1F NOT PUSH1 0x1F DUP4 ADD AND SWAP1 POP SWAP2 SWAP1 POP JUMP JUMPDEST PUSH1 0x0 PUSH2 0x1BCC DUP3 PUSH2 0x1B6A JUMP JUMPDEST PUSH2 0x1BD6 DUP2 DUP6 PUSH2 0x1B75 JUMP JUMPDEST SWAP4 POP PUSH2 0x1BE6 DUP2 DUP6 PUSH1 0x20 DUP7 ADD PUSH2 0x1B86 JUMP JUMPDEST PUSH2 0x1BEF DUP2 PUSH2 0x1BB0 JUMP JUMPDEST DUP5 ADD SWAP2 POP POP SWAP3 SWAP2 POP POP JUMP JUMPDEST PUSH1 0x0 PUSH1 0x20 DUP3 ADD SWAP1 POP DUP2 DUP2 SUB PUSH1 0x0 DUP4 ADD MSTORE PUSH2 0x1C14 DUP2 DUP5 PUSH2 0x1BC1 JUMP JUMPDEST SWAP1 POP SWAP3 SWAP2 POP POP JUMP JUMPDEST PUSH1 0x0 PUSH20 0xFFFFFFFFFFFFFFFFFFFFFFFFFFFFFFFFFFFFFFFF DUP3 AND SWAP1 POP SWAP2 SWAP1 POP JUMP JUMPDEST PUSH1 0x0 PUSH2 0x1C47 DUP3 PUSH2 0x1C1C JUMP JUMPDEST SWAP1 POP SWAP2 SWAP1 POP JUMP JUMPDEST PUSH2 0x1C57 DUP2 PUSH2 0x1C3C JUMP JUMPDEST DUP3 MSTORE POP POP JUMP JUMPDEST PUSH2 0x1C66 DUP2 PUSH2 0x1B07 JUMP JUMPDEST DUP3 MSTORE POP POP JUMP JUMPDEST PUSH1 0x0 PUSH1 0x80 DUP3 ADD SWAP1 POP PUSH2 0x1C81 PUSH1 0x0 DUP4 ADD DUP8 PUSH2 0x1C4E JUMP JUMPDEST PUSH2 0x1C8E PUSH1 0x20 DUP4 ADD DUP7 PUSH2 0x1C4E JUMP JUMPDEST PUSH2 0x1C9B PUSH1 0x40 DUP4 ADD DUP6 PUSH2 0x1C5D JUMP JUMPDEST PUSH2 0x1CA8 PUSH1 0x60 DUP4 ADD DUP5 PUSH2 0x1C5D JUMP JUMPDEST SWAP6 SWAP5 POP POP POP POP POP JUMP JUMPDEST PUSH2 0x1CBA DUP2 PUSH2 0x1C3C JUMP JUMPDEST DUP2 EQ PUSH2 0x1CC5 JUMPI PUSH1 0x0 DUP1 REVERT JUMPDEST POP JUMP JUMPDEST PUSH1 0x0 DUP2 CALLDATALOAD SWAP1 POP PUSH2 0x1CD7 DUP2 PUSH2 0x1CB1 JUMP JUMPDEST SWAP3 SWAP2 POP POP JUMP JUMPDEST PUSH1 0x0 DUP1 REVERT JUMPDEST PUSH1 0x0 DUP1 REVERT JUMPDEST PUSH32 0x4E487B7100000000000000000000000000000000000000000000000000000000 PUSH1 0x0 MSTORE PUSH1 0x41 PUSH1 0x4 MSTORE PUSH1 0x24 PUSH1 0x0 REVERT JUMPDEST PUSH2 0x1D1F DUP3 PUSH2 0x1BB0 JUMP JUMPDEST DUP2 ADD DUP2 DUP2 LT PUSH8 0xFFFFFFFFFFFFFFFF DUP3 GT OR ISZERO PUSH2 0x1D3E JUMPI PUSH2 0x1D3D PUSH2 0x1CE7 JUMP JUMPDEST JUMPDEST DUP1 PUSH1 0x40 MSTORE POP POP POP JUMP JUMPDEST PUSH1 0x0 PUSH2 0x1D51 PUSH2 0x1AF3 JUMP JUMPDEST SWAP1 POP PUSH2 0x1D5D DUP3 DUP3 PUSH2 0x1D16 JUMP JUMPDEST SWAP2 SWAP1 POP JUMP JUMPDEST PUSH1 0x0 PUSH8 0xFFFFFFFFFFFFFFFF DUP3 GT ISZERO PUSH2 0x1D7D JUMPI PUSH2 0x1D7C PUSH2 0x1CE7 JUMP JUMPDEST JUMPDEST PUSH2 0x1D86 DUP3 PUSH2 0x1BB0 JUMP JUMPDEST SWAP1 POP PUSH1 0x20 DUP2 ADD SWAP1 POP SWAP2 SWAP1 POP JUMP JUMPDEST DUP3 DUP2 DUP4 CALLDATACOPY PUSH1 0x0 DUP4 DUP4 ADD MSTORE POP POP POP JUMP JUMPDEST PUSH1 0x0 PUSH2 0x1DB5 PUSH2 0x1DB0 DUP5 PUSH2 0x1D62 JUMP JUMPDEST PUSH2 0x1D47 JUMP JUMPDEST SWAP1 POP DUP3 DUP2 MSTORE PUSH1 0x20 DUP2 ADD DUP5 DUP5 DUP5 ADD GT ISZERO PUSH2 0x1DD1 JUMPI PUSH2 0x1DD0 PUSH2 0x1CE2 JUMP JUMPDEST JUMPDEST PUSH2 0x1DDC DUP5 DUP3 DUP6 PUSH2 0x1D93 JUMP JUMPDEST POP SWAP4 SWAP3 POP POP POP JUMP JUMPDEST PUSH1 0x0 DUP3 PUSH1 0x1F DUP4 ADD SLT PUSH2 0x1DF9 JUMPI PUSH2 0x1DF8 PUSH2 0x1CDD JUMP JUMPDEST JUMPDEST DUP2 CALLDATALOAD PUSH2 0x1E09 DUP5 DUP3 PUSH1 0x20 DUP7 ADD PUSH2 0x1DA2 JUMP JUMPDEST SWAP2 POP POP SWAP3 SWAP2 POP POP JUMP JUMPDEST PUSH1 0x0 DUP1 PUSH1 0x0 PUSH1 0x60 DUP5 DUP7 SUB SLT ISZERO PUSH2 0x1E2B JUMPI PUSH2 0x1E2A PUSH2 0x1AFD JUMP JUMPDEST JUMPDEST PUSH1 0x0 PUSH2 0x1E39 DUP7 DUP3 DUP8 ADD PUSH2 0x1CC8 JUMP JUMPDEST SWAP4 POP POP PUSH1 0x20 DUP5 ADD CALLDATALOAD PUSH8 0xFFFFFFFFFFFFFFFF DUP2 GT ISZERO PUSH2 0x1E5A JUMPI PUSH2 0x1E59 PUSH2 0x1B02 JUMP JUMPDEST JUMPDEST PUSH2 0x1E66 DUP7 DUP3 DUP8 ADD PUSH2 0x1DE4 JUMP JUMPDEST SWAP3 POP POP PUSH1 0x40 PUSH2 0x1E77 DUP7 DUP3 DUP8 ADD PUSH2 0x1CC8 JUMP JUMPDEST SWAP2 POP POP SWAP3 POP SWAP3 POP SWAP3 JUMP JUMPDEST PUSH1 0x0 PUSH2 0x140 DUP3 ADD SWAP1 POP DUP2 DUP2 SUB PUSH1 0x0 DUP4 ADD MSTORE PUSH2 0x1E9C DUP2 DUP14 PUSH2 0x1BC1 JUMP JUMPDEST SWAP1 POP DUP2 DUP2 SUB PUSH1 0x20 DUP4 ADD MSTORE PUSH2 0x1EB0 DUP2 DUP13 PUSH2 0x1BC1 JUMP JUMPDEST SWAP1 POP DUP2 DUP2 SUB PUSH1 0x40 DUP4 ADD MSTORE PUSH2 0x1EC4 DUP2 DUP12 PUSH2 0x1BC1 JUMP JUMPDEST SWAP1 POP PUSH2 0x1ED3 PUSH1 0x60 DUP4 ADD DUP11 PUSH2 0x1C5D JUMP JUMPDEST PUSH2 0x1EE0 PUSH1 0x80 DUP4 ADD DUP10 PUSH2 0x1C5D JUMP JUMPDEST PUSH2 0x1EED PUSH1 0xA0 DUP4 ADD DUP9 PUSH2 0x1C5D JUMP JUMPDEST PUSH2 0x1EFA PUSH1 0xC0 DUP4 ADD DUP8 PUSH2 0x1C5D JUMP JUMPDEST PUSH2 0x1F07 PUSH1 0xE0 DUP4 ADD DUP7 PUSH2 0x1C5D JUMP JUMPDEST PUSH2 0x1F15 PUSH2 0x100 DUP4 ADD DUP6 PUSH2 0x1C5D JUMP JUMPDEST PUSH2 0x1F23 PUSH2 0x120 DUP4 ADD DUP5 PUSH2 0x1C5D JUMP JUMPDEST SWAP12 SWAP11 POP POP POP POP POP POP POP POP POP POP POP JUMP JUMPDEST PUSH1 0x0 PUSH1 0x20 DUP3 DUP5 SUB SLT ISZERO PUSH2 0x1F48 JUMPI PUSH2 0x1F47 PUSH2 0x1AFD JUMP JUMPDEST JUMPDEST PUSH1 0x0 PUSH2 0x1F56 DUP5 DUP3 DUP6 ADD PUSH2 0x1CC8 JUMP JUMPDEST SWAP2 POP POP SWAP3 SWAP2 POP POP JUMP JUMPDEST PUSH1 0x0 PUSH1 0x20 DUP3 ADD SWAP1 POP PUSH2 0x1F74 PUSH1 0x0 DUP4 ADD DUP5 PUSH2 0x1C5D JUMP JUMPDEST SWAP3 SWAP2 POP POP JUMP JUMPDEST PUSH1 0x0 DUP1 PUSH1 0x40 DUP4 DUP6 SUB SLT ISZERO PUSH2 0x1F91 JUMPI PUSH2 0x1F90 PUSH2 0x1AFD JUMP JUMPDEST JUMPDEST PUSH1 0x0 PUSH2 0x1F9F DUP6 DUP3 DUP7 ADD PUSH2 0x1CC8 JUMP JUMPDEST SWAP3 POP POP PUSH1 0x20 PUSH2 0x1FB0 DUP6 DUP3 DUP7 ADD PUSH2 0x1B28 JUMP JUMPDEST SWAP2 POP POP SWAP3 POP SWAP3 SWAP1 POP JUMP JUMPDEST PUSH1 0x0 PUSH1 0x20 DUP3 ADD SWAP1 POP PUSH2 0x1FCF PUSH1 0x0 DUP4 ADD DUP5 PUSH2 0x1C4E JUMP JUMPDEST SWAP3 SWAP2 POP POP JUMP JUMPDEST PUSH1 0x0 PUSH1 0x20 DUP3 DUP5 SUB SLT ISZERO PUSH2 0x1FEB JUMPI PUSH2 0x1FEA PUSH2 0x1AFD JUMP JUMPDEST JUMPDEST PUSH1 0x0 DUP3 ADD CALLDATALOAD PUSH8 0xFFFFFFFFFFFFFFFF DUP2 GT ISZERO PUSH2 0x2009 JUMPI PUSH2 0x2008 PUSH2 0x1B02 JUMP JUMPDEST JUMPDEST PUSH2 0x2015 DUP5 DUP3 DUP6 ADD PUSH2 0x1DE4 JUMP JUMPDEST SWAP2 POP POP SWAP3 SWAP2 POP POP JUMP JUMPDEST PUSH1 0x0 DUP2 MLOAD SWAP1 POP SWAP2 SWAP1 POP JUMP JUMPDEST PUSH1 0x0 DUP3 DUP3 MSTORE PUSH1 0x20 DUP3 ADD SWAP1 POP SWAP3 SWAP2 POP POP JUMP JUMPDEST PUSH1 0x0 DUP2 SWAP1 POP PUSH1 0x20 DUP3 ADD SWAP1 POP SWAP2 SWAP1 POP JUMP JUMPDEST PUSH1 0x0 DUP3 DUP3 MSTORE PUSH1 0x20 DUP3 ADD SWAP1 POP SWAP3 SWAP2 POP POP JUMP JUMPDEST PUSH1 0x0 PUSH2 0x2066 DUP3 PUSH2 0x1B6A JUMP JUMPDEST PUSH2 0x2070 DUP2 DUP6 PUSH2 0x204A JUMP JUMPDEST SWAP4 POP PUSH2 0x2080 DUP2 DUP6 PUSH1 0x20 DUP7 ADD PUSH2 0x1B86 JUMP JUMPDEST PUSH2 0x2089 DUP2 PUSH2 0x1BB0 JUMP JUMPDEST DUP5 ADD SWAP2 POP POP SWAP3 SWAP2 POP POP JUMP JUMPDEST PUSH1 0x0 PUSH2 0x20A0 DUP4 DUP4 PUSH2 0x205B JUMP JUMPDEST SWAP1 POP SWAP3 SWAP2 POP POP JUMP JUMPDEST PUSH1 0x0 PUSH1 0x20 DUP3 ADD SWAP1 POP SWAP2 SWAP1 POP JUMP JUMPDEST PUSH1 0x0 PUSH2 0x20C0 DUP3 PUSH2 0x201E JUMP JUMPDEST PUSH2 0x20CA DUP2 DUP6 PUSH2 0x2029 JUMP JUMPDEST SWAP4 POP DUP4 PUSH1 0x20 DUP3 MUL DUP6 ADD PUSH2 0x20DC DUP6 PUSH2 0x203A JUMP JUMPDEST DUP1 PUSH1 0x0 JUMPDEST DUP6 DUP2 LT ISZERO PUSH2 0x2118 JUMPI DUP5 DUP5 SUB DUP10 MSTORE DUP2 MLOAD PUSH2 0x20F9 DUP6 DUP3 PUSH2 0x2094 JUMP JUMPDEST SWAP5 POP PUSH2 0x2104 DUP4 PUSH2 0x20A8 JUMP JUMPDEST SWAP3 POP PUSH1 0x20 DUP11 ADD SWAP10 POP POP PUSH1 0x1 DUP2 ADD SWAP1 POP PUSH2 0x20E0 JUMP JUMPDEST POP DUP3 SWAP8 POP DUP8 SWAP6 POP POP POP POP POP POP SWAP3 SWAP2 POP POP JUMP JUMPDEST PUSH1 0x0 DUP2 MLOAD SWAP1 POP SWAP2 SWAP1 POP JUMP JUMPDEST PUSH1 0x0 DUP3 DUP3 MSTORE PUSH1 0x20 DUP3 ADD SWAP1 POP SWAP3 SWAP2 POP POP JUMP JUMPDEST PUSH1 0x0 DUP2 SWAP1 POP PUSH1 0x20 DUP3 ADD SWAP1 POP SWAP2 SWAP1 POP JUMP JUMPDEST PUSH2 0x215F DUP2 PUSH2 0x1B07 JUMP JUMPDEST DUP3 MSTORE POP POP JUMP JUMPDEST PUSH1 0x0 PUSH2 0x140 DUP4 ADD PUSH1 0x0 DUP4 ADD MLOAD DUP5 DUP3 SUB PUSH1 0x0 DUP7 ADD MSTORE PUSH2 0x2183 DUP3 DUP3 PUSH2 0x205B JUMP JUMPDEST SWAP2 POP POP PUSH1 0x20 DUP4 ADD MLOAD DUP5 DUP3 SUB PUSH1 0x20 DUP7 ADD MSTORE PUSH2 0x219D DUP3 DUP3 PUSH2 0x205B JUMP JUMPDEST SWAP2 POP POP PUSH1 0x40 DUP4 ADD MLOAD DUP5 DUP3 SUB PUSH1 0x40 DUP7 ADD MSTORE PUSH2 0x21B7 DUP3 DUP3 PUSH2 0x205B JUMP JUMPDEST SWAP2 POP POP PUSH1 0x60 DUP4 ADD MLOAD PUSH2 0x21CC PUSH1 0x60 DUP7 ADD DUP3 PUSH2 0x2156 JUMP JUMPDEST POP PUSH1 0x80 DUP4 ADD MLOAD PUSH2 0x21DF PUSH1 0x80 DUP7 ADD DUP3 PUSH2 0x2156 JUMP JUMPDEST POP PUSH1 0xA0 DUP4 ADD MLOAD PUSH2 0x21F2 PUSH1 0xA0 DUP7 ADD DUP3 PUSH2 0x2156 JUMP JUMPDEST POP PUSH1 0xC0 DUP4 ADD MLOAD PUSH2 0x2205 PUSH1 0xC0 DUP7 ADD DUP3 PUSH2 0x2156 JUMP JUMPDEST POP PUSH1 0xE0 DUP4 ADD MLOAD PUSH2 0x2218 PUSH1 0xE0 DUP7 ADD DUP3 PUSH2 0x2156 JUMP JUMPDEST POP PUSH2 0x100 DUP4 ADD MLOAD PUSH2 0x222D PUSH2 0x100 DUP7 ADD DUP3 PUSH2 0x2156 JUMP JUMPDEST POP PUSH2 0x120 DUP4 ADD MLOAD PUSH2 0x2242 PUSH2 0x120 DUP7 ADD DUP3 PUSH2 0x2156 JUMP JUMPDEST POP DUP1 SWAP2 POP POP SWAP3 SWAP2 POP POP JUMP JUMPDEST PUSH1 0x0 PUSH2 0x2259 DUP4 DUP4 PUSH2 0x2165 JUMP JUMPDEST SWAP1 POP SWAP3 SWAP2 POP POP JUMP JUMPDEST PUSH1 0x0 PUSH1 0x20 DUP3 ADD SWAP1 POP SWAP2 SWAP1 POP JUMP JUMPDEST PUSH1 0x0 PUSH2 0x2279 DUP3 PUSH2 0x212A JUMP JUMPDEST PUSH2 0x2283 DUP2 DUP6 PUSH2 0x2135 JUMP JUMPDEST SWAP4 POP DUP4 PUSH1 0x20 DUP3 MUL DUP6 ADD PUSH2 0x2295 DUP6 PUSH2 0x2146 JUMP JUMPDEST DUP1 PUSH1 0x0 JUMPDEST DUP6 DUP2 LT ISZERO PUSH2 0x22D1 JUMPI DUP5 DUP5 SUB DUP10 MSTORE DUP2 MLOAD PUSH2 0x22B2 DUP6 DUP3 PUSH2 0x224D JUMP JUMPDEST SWAP5 POP PUSH2 0x22BD DUP4 PUSH2 0x2261 JUMP JUMPDEST SWAP3 POP PUSH1 0x20 DUP11 ADD SWAP10 POP POP PUSH1 0x1 DUP2 ADD SWAP1 POP PUSH2 0x2299 JUMP JUMPDEST POP DUP3 SWAP8 POP DUP8 SWAP6 POP POP POP POP POP POP SWAP3 SWAP2 POP POP JUMP JUMPDEST PUSH1 0x0 PUSH1 0x40 DUP3 ADD SWAP1 POP DUP2 DUP2 SUB PUSH1 0x0 DUP4 ADD MSTORE PUSH2 0x22FD DUP2 DUP6 PUSH2 0x20B5 JUMP JUMPDEST SWAP1 POP DUP2 DUP2 SUB PUSH1 0x20 DUP4 ADD MSTORE PUSH2 0x2311 DUP2 DUP5 PUSH2 0x226E JUMP JUMPDEST SWAP1 POP SWAP4 SWAP3 POP POP POP JUMP JUMPDEST PUSH1 0x0 PUSH2 0x2325 DUP3 PUSH2 0x1C1C JUMP JUMPDEST SWAP1 POP SWAP2 SWAP1 POP JUMP JUMPDEST PUSH2 0x2335 DUP2 PUSH2 0x231A JUMP JUMPDEST DUP2 EQ PUSH2 0x2340 JUMPI PUSH1 0x0 DUP1 REVERT JUMPDEST POP JUMP JUMPDEST PUSH1 0x0 DUP2 CALLDATALOAD SWAP1 POP PUSH2 0x2352 DUP2 PUSH2 0x232C JUMP JUMPDEST SWAP3 SWAP2 POP POP JUMP JUMPDEST PUSH1 0x0 DUP1 PUSH1 0x40 DUP4 DUP6 SUB SLT ISZERO PUSH2 0x236F JUMPI PUSH2 0x236E PUSH2 0x1AFD JUMP JUMPDEST JUMPDEST PUSH1 0x0 PUSH2 0x237D DUP6 DUP3 DUP7 ADD PUSH2 0x2343 JUMP JUMPDEST SWAP3 POP POP PUSH1 0x20 PUSH2 0x238E DUP6 DUP3 DUP7 ADD PUSH2 0x1B28 JUMP JUMPDEST SWAP2 POP POP SWAP3 POP SWAP3 SWAP1 POP JUMP JUMPDEST PUSH1 0x0 DUP1 PUSH1 0x40 DUP4 DUP6 SUB SLT ISZERO PUSH2 0x23AF JUMPI PUSH2 0x23AE PUSH2 0x1AFD JUMP JUMPDEST JUMPDEST PUSH1 0x0 DUP4 ADD CALLDATALOAD PUSH8 0xFFFFFFFFFFFFFFFF DUP2 GT ISZERO PUSH2 0x23CD JUMPI PUSH2 0x23CC PUSH2 0x1B02 JUMP JUMPDEST JUMPDEST PUSH2 0x23D9 DUP6 DUP3 DUP7 ADD PUSH2 0x1DE4 JUMP JUMPDEST SWAP3 POP POP PUSH1 0x20 DUP4 ADD CALLDATALOAD PUSH8 0xFFFFFFFFFFFFFFFF DUP2 GT ISZERO PUSH2 0x23FA JUMPI PUSH2 0x23F9 PUSH2 0x1B02 JUMP JUMPDEST JUMPDEST PUSH2 0x2406 DUP6 DUP3 DUP7 ADD PUSH2 0x1DE4 JUMP JUMPDEST SWAP2 POP POP SWAP3 POP SWAP3 SWAP1 POP JUMP JUMPDEST PUSH1 0x0 DUP2 ISZERO ISZERO SWAP1 POP SWAP2 SWAP1 POP JUMP JUMPDEST PUSH2 0x2425 DUP2 PUSH2 0x2410 JUMP JUMPDEST DUP3 MSTORE POP POP JUMP JUMPDEST PUSH1 0x0 PUSH1 0x20 DUP3 ADD SWAP1 POP PUSH2 0x2440 PUSH1 0x0 DUP4 ADD DUP5 PUSH2 0x241C JUMP JUMPDEST SWAP3 SWAP2 POP POP JUMP JUMPDEST PUSH1 0x0 DUP1 PUSH1 0x40 DUP4 DUP6 SUB SLT ISZERO PUSH2 0x245D JUMPI PUSH2 0x245C PUSH2 0x1AFD JUMP JUMPDEST JUMPDEST PUSH1 0x0 PUSH2 0x246B DUP6 DUP3 DUP7 ADD PUSH2 0x1CC8 JUMP JUMPDEST SWAP3 POP POP PUSH1 0x20 DUP4 ADD CALLDATALOAD PUSH8 0xFFFFFFFFFFFFFFFF DUP2 GT ISZERO PUSH2 0x248C JUMPI PUSH2 0x248B PUSH2 0x1B02 JUMP JUMPDEST JUMPDEST PUSH2 0x2498 DUP6 DUP3 DUP7 ADD PUSH2 0x1DE4 JUMP JUMPDEST SWAP2 POP POP SWAP3 POP SWAP3 SWAP1 POP JUMP JUMPDEST PUSH1 0x0 DUP1 PUSH1 0x0 DUP1 PUSH1 0x0 DUP1 PUSH1 0x0 DUP1 PUSH1 0x0 DUP1 PUSH2 0x140 DUP12 DUP14 SUB SLT ISZERO PUSH2 0x24C6 JUMPI PUSH2 0x24C5 PUSH2 0x1AFD JUMP JUMPDEST JUMPDEST PUSH1 0x0 DUP12 ADD CALLDATALOAD PUSH8 0xFFFFFFFFFFFFFFFF DUP2 GT ISZERO PUSH2 0x24E4 JUMPI PUSH2 0x24E3 PUSH2 0x1B02 JUMP JUMPDEST JUMPDEST PUSH2 0x24F0 DUP14 DUP3 DUP15 ADD PUSH2 0x1DE4 JUMP JUMPDEST SWAP11 POP POP PUSH1 0x20 DUP12 ADD CALLDATALOAD PUSH8 0xFFFFFFFFFFFFFFFF DUP2 GT ISZERO PUSH2 0x2511 JUMPI PUSH2 0x2510 PUSH2 0x1B02 JUMP JUMPDEST JUMPDEST PUSH2 0x251D DUP14 DUP3 DUP15 ADD PUSH2 0x1DE4 JUMP JUMPDEST SWAP10 POP POP PUSH1 0x40 DUP12 ADD CALLDATALOAD PUSH8 0xFFFFFFFFFFFFFFFF DUP2 GT ISZERO PUSH2 0x253E JUMPI PUSH2 0x253D PUSH2 0x1B02 JUMP JUMPDEST JUMPDEST PUSH2 0x254A DUP14 DUP3 DUP15 ADD PUSH2 0x1DE4 JUMP JUMPDEST SWAP9 POP POP PUSH1 0x60 PUSH2 0x255B DUP14 DUP3 DUP15 ADD PUSH2 0x1B28 JUMP JUMPDEST SWAP8 POP POP PUSH1 0x80 PUSH2 0x256C DUP14 DUP3 DUP15 ADD PUSH2 0x1B28 JUMP JUMPDEST SWAP7 POP POP PUSH1 0xA0 PUSH2 0x257D DUP14 DUP3 DUP15 ADD PUSH2 0x1B28 JUMP JUMPDEST SWAP6 POP POP PUSH1 0xC0 PUSH2 0x258E DUP14 DUP3 DUP15 ADD PUSH2 0x1B28 JUMP JUMPDEST SWAP5 POP POP PUSH1 0xE0 PUSH2 0x259F DUP14 DUP3 DUP15 ADD PUSH2 0x1B28 JUMP JUMPDEST SWAP4 POP POP PUSH2 0x100 PUSH2 0x25B1 DUP14 DUP3 DUP15 ADD PUSH2 0x1B28 JUMP JUMPDEST SWAP3 POP POP PUSH2 0x120 PUSH2 0x25C3 DUP14 DUP3 DUP15 ADD PUSH2 0x1B28 JUMP JUMPDEST SWAP2 POP POP SWAP3 SWAP6 SWAP9 SWAP12 SWAP2 SWAP5 SWAP8 SWAP11 POP SWAP3 SWAP6 SWAP9 POP JUMP JUMPDEST PUSH32 0x4E487B7100000000000000000000000000000000000000000000000000000000 PUSH1 0x0 MSTORE PUSH1 0x22 PUSH1 0x4 MSTORE PUSH1 0x24 PUSH1 0x0 REVERT JUMPDEST PUSH1 0x0 PUSH1 0x2 DUP3 DIV SWAP1 POP PUSH1 0x1 DUP3 AND DUP1 PUSH2 0x261C JUMPI PUSH1 0x7F DUP3 AND SWAP2 POP JUMPDEST PUSH1 0x20 DUP3 LT DUP2 SUB PUSH2 0x262F JUMPI PUSH2 0x262E PUSH2 0x25D5 JUMP JUMPDEST JUMPDEST POP SWAP2 SWAP1 POP JUMP JUMPDEST PUSH32 0x4E487B7100000000000000000000000000000000000000000000000000000000 PUSH1 0x0 MSTORE PUSH1 0x32 PUSH1 0x4 MSTORE PUSH1 0x24 PUSH1 0x0 REVERT JUMPDEST PUSH1 0x0 DUP2 SWAP1 POP SWAP3 SWAP2 POP POP JUMP JUMPDEST PUSH1 0x0 PUSH2 0x267A DUP3 PUSH2 0x1B6A JUMP JUMPDEST PUSH2 0x2684 DUP2 DUP6 PUSH2 0x2664 JUMP JUMPDEST SWAP4 POP PUSH2 0x2694 DUP2 DUP6 PUSH1 0x20 DUP7 ADD PUSH2 0x1B86 JUMP JUMPDEST DUP1 DUP5 ADD SWAP2 POP POP SWAP3 SWAP2 POP POP JUMP JUMPDEST PUSH1 0x0 PUSH2 0x26AC DUP3 DUP5 PUSH2 0x266F JUMP JUMPDEST SWAP2 POP DUP2 SWAP1 POP SWAP3 SWAP2 POP POP JUMP JUMPDEST PUSH32 0x4E487B7100000000000000000000000000000000000000000000000000000000 PUSH1 0x0 MSTORE PUSH1 0x11 PUSH1 0x4 MSTORE PUSH1 0x24 PUSH1 0x0 REVERT JUMPDEST PUSH1 0x0 PUSH2 0x26F1 DUP3 PUSH2 0x1B07 JUMP JUMPDEST SWAP2 POP PUSH32 0xFFFFFFFFFFFFFFFFFFFFFFFFFFFFFFFFFFFFFFFFFFFFFFFFFFFFFFFFFFFFFFFF DUP3 SUB PUSH2 0x2723 JUMPI PUSH2 0x2722 PUSH2 0x26B7 JUMP JUMPDEST JUMPDEST PUSH1 0x1 DUP3 ADD SWAP1 POP SWAP2 SWAP1 POP JUMP JUMPDEST PUSH1 0x0 DUP2 SWAP1 POP SWAP3 SWAP2 POP POP JUMP JUMPDEST POP JUMP JUMPDEST PUSH1 0x0 PUSH2 0x2749 PUSH1 0x0 DUP4 PUSH2 0x272E JUMP JUMPDEST SWAP2 POP PUSH2 0x2754 DUP3 PUSH2 0x2739 JUMP JUMPDEST PUSH1 0x0 DUP3 ADD SWAP1 POP SWAP2 SWAP1 POP JUMP JUMPDEST PUSH1 0x0 PUSH2 0x276A DUP3 PUSH2 0x273C JUMP JUMPDEST SWAP2 POP DUP2 SWAP1 POP SWAP2 SWAP1 POP JUMP JUMPDEST PUSH32 0x4661696C656420746F2073656E64204574686572000000000000000000000000 PUSH1 0x0 DUP3 ADD MSTORE POP JUMP JUMPDEST PUSH1 0x0 PUSH2 0x27AA PUSH1 0x14 DUP4 PUSH2 0x1B75 JUMP JUMPDEST SWAP2 POP PUSH2 0x27B5 DUP3 PUSH2 0x2774 JUMP JUMPDEST PUSH1 0x20 DUP3 ADD SWAP1 POP SWAP2 SWAP1 POP JUMP JUMPDEST PUSH1 0x0 PUSH1 0x20 DUP3 ADD SWAP1 POP DUP2 DUP2 SUB PUSH1 0x0 DUP4 ADD MSTORE PUSH2 0x27D9 DUP2 PUSH2 0x279D JUMP JUMPDEST SWAP1 POP SWAP2 SWAP1 POP JUMP JUMPDEST PUSH1 0x0 DUP2 SWAP1 POP DUP2 PUSH1 0x0 MSTORE PUSH1 0x20 PUSH1 0x0 KECCAK256 SWAP1 POP SWAP2 SWAP1 POP JUMP JUMPDEST PUSH1 0x0 PUSH1 0x20 PUSH1 0x1F DUP4 ADD DIV SWAP1 POP SWAP2 SWAP1 POP JUMP JUMPDEST PUSH1 0x0 DUP3 DUP3 SHL SWAP1 POP SWAP3 SWAP2 POP POP JUMP JUMPDEST PUSH1 0x0 PUSH1 0x8 DUP4 MUL PUSH2 0x2842 PUSH32 0xFFFFFFFFFFFFFFFFFFFFFFFFFFFFFFFFFFFFFFFFFFFFFFFFFFFFFFFFFFFFFFFF DUP3 PUSH2 0x2805 JUMP JUMPDEST PUSH2 0x284C DUP7 DUP4 PUSH2 0x2805 JUMP JUMPDEST SWAP6 POP DUP1 NOT DUP5 AND SWAP4 POP DUP1 DUP7 AND DUP5 OR SWAP3 POP POP POP SWAP4 SWAP3 POP POP POP JUMP JUMPDEST PUSH1 0x0 DUP2 SWAP1 POP SWAP2 SWAP1 POP JUMP JUMPDEST PUSH1 0x0 PUSH2 0x2889 PUSH2 0x2884 PUSH2 0x287F DUP5 PUSH2 0x1B07 JUMP JUMPDEST PUSH2 0x2864 JUMP JUMPDEST PUSH2 0x1B07 JUMP JUMPDEST SWAP1 POP SWAP2 SWAP1 POP JUMP JUMPDEST PUSH1 0x0 DUP2 SWAP1 POP SWAP2 SWAP1 POP JUMP JUMPDEST PUSH2 0x28A3 DUP4 PUSH2 0x286E JUMP JUMPDEST PUSH2 0x28B7 PUSH2 0x28AF DUP3 PUSH2 0x2890 JUMP JUMPDEST DUP5 DUP5 SLOAD PUSH2 0x2812 JUMP JUMPDEST DUP3 SSTORE POP POP POP POP JUMP JUMPDEST PUSH1 0x0 SWAP1 JUMP JUMPDEST PUSH2 0x28CC PUSH2 0x28BF JUMP JUMPDEST PUSH2 0x28D7 DUP2 DUP5 DUP5 PUSH2 0x289A JUMP JUMPDEST POP POP POP JUMP JUMPDEST JUMPDEST DUP2 DUP2 LT ISZERO PUSH2 0x28FB JUMPI PUSH2 0x28F0 PUSH1 0x0 DUP3 PUSH2 0x28C4 JUMP JUMPDEST PUSH1 0x1 DUP2 ADD SWAP1 POP PUSH2 0x28DD JUMP JUMPDEST POP POP JUMP JUMPDEST PUSH1 0x1F DUP3 GT ISZERO PUSH2 0x2940 JUMPI PUSH2 0x2911 DUP2 PUSH2 0x27E0 JUMP JUMPDEST PUSH2 0x291A DUP5 PUSH2 0x27F5 JUMP JUMPDEST DUP2 ADD PUSH1 0x20 DUP6 LT ISZERO PUSH2 0x2929 JUMPI DUP2 SWAP1 POP JUMPDEST PUSH2 0x293D PUSH2 0x2935 DUP6 PUSH2 0x27F5 JUMP JUMPDEST DUP4 ADD DUP3 PUSH2 0x28DC JUMP JUMPDEST POP POP JUMPDEST POP POP POP JUMP JUMPDEST PUSH1 0x0 DUP3 DUP3 SHR SWAP1 POP SWAP3 SWAP2 POP POP JUMP JUMPDEST PUSH1 0x0 PUSH2 0x2963 PUSH1 0x0 NOT DUP5 PUSH1 0x8 MUL PUSH2 0x2945 JUMP JUMPDEST NOT DUP1 DUP4 AND SWAP2 POP POP SWAP3 SWAP2 POP POP JUMP JUMPDEST PUSH1 0x0 PUSH2 0x297C DUP4 DUP4 PUSH2 0x2952 JUMP JUMPDEST SWAP2 POP DUP3 PUSH1 0x2 MUL DUP3 OR SWAP1 POP SWAP3 SWAP2 POP POP JUMP JUMPDEST PUSH2 0x2995 DUP3 PUSH2 0x1B6A JUMP JUMPDEST PUSH8 0xFFFFFFFFFFFFFFFF DUP2 GT ISZERO PUSH2 0x29AE JUMPI PUSH2 0x29AD PUSH2 0x1CE7 JUMP JUMPDEST JUMPDEST PUSH2 0x29B8 DUP3 SLOAD PUSH2 0x2604 JUMP JUMPDEST PUSH2 0x29C3 DUP3 DUP3 DUP6 PUSH2 0x28FF JUMP JUMPDEST PUSH1 0x0 PUSH1 0x20 SWAP1 POP PUSH1 0x1F DUP4 GT PUSH1 0x1 DUP2 EQ PUSH2 0x29F6 JUMPI PUSH1 0x0 DUP5 ISZERO PUSH2 0x29E4 JUMPI DUP3 DUP8 ADD MLOAD SWAP1 POP JUMPDEST PUSH2 0x29EE DUP6 DUP3 PUSH2 0x2970 JUMP JUMPDEST DUP7 SSTORE POP PUSH2 0x2A56 JUMP JUMPDEST PUSH1 0x1F NOT DUP5 AND PUSH2 0x2A04 DUP7 PUSH2 0x27E0 JUMP JUMPDEST PUSH1 0x0 JUMPDEST DUP3 DUP2 LT ISZERO PUSH2 0x2A2C JUMPI DUP5 DUP10 ADD MLOAD DUP3 SSTORE PUSH1 0x1 DUP3 ADD SWAP2 POP PUSH1 0x20 DUP6 ADD SWAP5 POP PUSH1 0x20 DUP2 ADD SWAP1 POP PUSH2 0x2A07 JUMP JUMPDEST DUP7 DUP4 LT ISZERO PUSH2 0x2A49 JUMPI DUP5 DUP10 ADD MLOAD PUSH2 0x2A45 PUSH1 0x1F DUP10 AND DUP3 PUSH2 0x2952 JUMP JUMPDEST DUP4 SSTORE POP JUMPDEST PUSH1 0x1 PUSH1 0x2 DUP9 MUL ADD DUP9 SSTORE POP POP POP JUMPDEST POP POP POP POP POP POP JUMP JUMPDEST PUSH1 0x0 PUSH2 0x2A69 DUP3 PUSH2 0x1B07 JUMP JUMPDEST SWAP2 POP PUSH2 0x2A74 DUP4 PUSH2 0x1B07 JUMP JUMPDEST SWAP3 POP DUP3 DUP3 ADD SWAP1 POP DUP1 DUP3 GT ISZERO PUSH2 0x2A8C JUMPI PUSH2 0x2A8B PUSH2 0x26B7 JUMP JUMPDEST JUMPDEST SWAP3 SWAP2 POP POP JUMP JUMPDEST PUSH1 0x0 PUSH2 0x2A9D DUP3 PUSH2 0x1B07 JUMP JUMPDEST SWAP2 POP PUSH2 0x2AA8 DUP4 PUSH2 0x1B07 JUMP JUMPDEST SWAP3 POP DUP3 DUP3 SUB SWAP1 POP DUP2 DUP2 GT ISZERO PUSH2 0x2AC0 JUMPI PUSH2 0x2ABF PUSH2 0x26B7 JUMP JUMPDEST JUMPDEST SWAP3 SWAP2 POP POP JUMP INVALID LOG2 PUSH5 0x6970667358 0x22 SLT KECCAK256 0x23 SWAP6 0x4A 0xF8 JUMPDEST 0x5E PUSH25 0xDC1C7F73379B45EC87C4D25D8EA5303A93EBFEDB0C89479C64 PUSH5 0x736F6C6343 STOP ADDMOD GT STOP CALLER "},"gasEstimates":{"creation":{"codeDepositCost":"2200800","executionCost":"2346","totalCost":"2203146"},"external":{"balance()":"406","bank(address)":"2904","billingHistory(uint256)":"infinite","dataSummaryExists(string,string)":"infinite","dataSummaryTable(address,string,address)":"infinite","deposit()":"infinite","fetchUserDataSummary(string)":"infinite","operatorAddresses(uint256)":"5023","operatorsAddrToName(address)":"infinite","operatorsNameToAddr(string)":"infinite","registerRoamingOperator(address,string)":"infinite","serviceProviders(uint256)":"infinite","totalDeposit()":"2495","transfer(address,uint256)":"infinite","uploadUserDataSummary(string,string,string,uint256,uint256,uint256,uint256,uint256,uint256,uint256)":"infinite","userTable(address,uint256)":"infinite"}},"methodIdentifiers":{"balance()":"b69ef8a8","bank(address)":"529a1baf","billingHistory(uint256)":"0cb31a80","dataSummaryExists(string,string)":"ab6a9f17","dataSummaryTable(address,string,address)":"32f97763","deposit()":"d0e30db0","fetchUserDataSummary(string)":"a8367070","operatorAddresses(uint256)":"7792a035","operatorsAddrToName(address)":"64aa65a8","operatorsNameToAddr(string)":"fd70c7dd","registerRoamingOperator(address,string)":"c7fa1063","serviceProviders(uint256)":"0a02dcc7","totalDeposit()":"f6153ccd","transfer(address,uint256)":"a9059cbb","uploadUserDataSummary(string,string,string,uint256,uint256,uint256,uint256,uint256,uint256,uint256)":"f595c3ab","userTable(address,uint256)":"6e6061d1"}},"storageLayout":{"storage":[{"astId":4,"contract":"RoamingDataManagement.sol:RoamingDataManagement","label":"serviceProviders","offset":0,"slot":"0","type":"t_array(t_string_storage)dyn_storage"},{"astId":7,"contract":"RoamingDataManagement.sol:RoamingDataManagement","label":"operatorAddresses","offset":0,"slot":"1","type":"t_array(t_address)dyn_storage"},{"astId":11,"contract":"RoamingDataManagement.sol:RoamingDataManagement","label":"operatorsAddrToName","offset":0,"slot":"2","type":"t_mapping(t_address,t_string_storage)"},{"astId":15,"contract":"RoamingDataManagement.sol:RoamingDataManagement","label":"operatorsNameToAddr","offset":0,"slot":"3","type":"t_mapping(t_string_memory_ptr,t_address)"},{"astId":17,"contract":"RoamingDataManagement.sol:RoamingDataManagement","label":"totalDeposit","offset":0,"slot":"4","type":"t_uint256"},{"astId":51,"contract":"RoamingDataManagement.sol:RoamingDataManagement","label":"billingHistory","offset":0,"slot":"5","type":"t_array(t_struct(BillingRecord)47_storage)dyn_storage"},{"astId":56,"contract":"RoamingDataManagement.sol:RoamingDataManagement","label":"userTable","offset":0,"slot":"6","type":"t_mapping(t_address,t_array(t_string_storage)dyn_storage)"},{"astId":65,"contract":"RoamingDataManagement.sol:RoamingDataManagement","label":"dataSummaryTable","offset":0,"slot":"7","type":"t_mapping(t_address,t_mapping(t_string_memory_ptr,t_mapping(t_address,t_struct(UserDataSummary)38_storage)))"},{"astId":71,"contract":"RoamingDataManagement.sol:RoamingDataManagement","label":"numOfUserDataEntries","offset":0,"slot":"8","type":"t_mapping(t_address,t_mapping(t_string_memory_ptr,t_uint256))"},{"astId":75,"contract":"RoamingDataManagement.sol:RoamingDataManagement","label":"bank","offset":0,"slot":"9","type":"t_mapping(t_address,t_uint256)"}],"types":{"t_address":{"encoding":"inplace","label":"address","numberOfBytes":"20"},"t_array(t_address)dyn_storage":{"base":"t_address","encoding":"dynamic_array","label":"address[]","numberOfBytes":"32"},"t_array(t_string_storage)dyn_storage":{"base":"t_string_storage","encoding":"dynamic_array","label":"string[]","numberOfBytes":"32"},"t_array(t_struct(BillingRecord)47_storage)dyn_storage":{"base":"t_struct(BillingRecord)47_storage","encoding":"dynamic_array","label":"struct RoamingDataManagement.BillingRecord[]","numberOfBytes":"32"},"t_mapping(t_address,t_array(t_string_storage)dyn_storage)":{"encoding":"mapping","key":"t_address","label":"mapping(address => string[])","numberOfBytes":"32","value":"t_array(t_string_storage)dyn_storage"},"t_mapping(t_address,t_mapping(t_string_memory_ptr,t_mapping(t_address,t_struct(UserDataSummary)38_storage)))":{"encoding":"mapping","key":"t_address","label":"mapping(address => mapping(string => mapping(address => struct RoamingDataManagement.UserDataSummary)))","numberOfBytes":"32","value":"t_mapping(t_string_memory_ptr,t_mapping(t_address,t_struct(UserDataSummary)38_storage))"},"t_mapping(t_address,t_mapping(t_string_memory_ptr,t_uint256))":{"encoding":"mapping","key":"t_address","label":"mapping(address => mapping(string => uint256))","numberOfBytes":"32","value":"t_mapping(t_string_memory_ptr,t_uint256)"},"t_mapping(t_address,t_string_storage)":{"encoding":"mapping","key":"t_address","label":"mapping(address => string)","numberOfBytes":"32","value":"t_string_storage"},"t_mapping(t_address,t_struct(UserDataSummary)38_storage)":{"encoding":"mapping","key":"t_address","label":"mapping(address => struct RoamingDataManagement.UserDataSummary)","numberOfBytes":"32","value":"t_struct(UserDataSummary)38_storage"},"t_mapping(t_address,t_uint256)":{"encoding":"mapping","key":"t_address","label":"mapping(address => uint256)","numberOfBytes":"32","value":"t_uint256"},"t_mapping(t_string_memory_ptr,t_address)":{"encoding":"mapping","key":"t_string_memory_ptr","label":"mapping(string => address)","numberOfBytes":"32","value":"t_address"},"t_mapping(t_string_memory_ptr,t_mapping(t_address,t_struct(UserDataSummary)38_storage))":{"encoding":"mapping","key":"t_string_memory_ptr","label":"mapping(string => mapping(address => struct RoamingDataManagement.UserDataSummary))","numberOfBytes":"32","value":"t_mapping(t_address,t_struct(UserDataSummary)38_storage)"},"t_mapping(t_string_memory_ptr,t_uint256)":{"encoding":"mapping","key":"t_string_memory_ptr","label":"mapping(string => uint256)","numberOfBytes":"32","value":"t_uint256"},"t_string_memory_ptr":{"encoding":"bytes","label":"string","numberOfBytes":"32"},"t_string_storage":{"encoding":"bytes","label":"string","numberOfBytes":"32"},"t_struct(BillingRecord)47_storage":{"encoding":"inplace","label":"struct RoamingDataManagement.BillingRecord","members":[{"astId":40,"contract":"RoamingDataManagement.sol:RoamingDataManagement","label":"payer","offset":0,"slot":"0","type":"t_address"},{"astId":42,"contract":"RoamingDataManagement.sol:RoamingDataManagement","label":"payee","offset":0,"slot":"1","type":"t_address"},{"astId":44,"contract":"RoamingDataManagement.sol:RoamingDataManagement","label":"amount","offset":0,"slot":"2","type":"t_uint256"},{"astId":46,"contract":"RoamingDataManagement.sol:RoamingDataManagement","label":"timestamp","offset":0,"slot":"3","type":"t_uint256"}],"numberOfBytes":"128"},"t_struct(UserDataSummary)38_storage":{"encoding":"inplace","label":"struct RoamingDataManagement.UserDataSummary","members":[{"astId":19,"contract":"RoamingDataManagement.sol:RoamingDataManagement","label":"imsi","offset":0,"slot":"0","type":"t_string_storage"},{"astId":21,"contract":"RoamingDataManagement.sol:RoamingDataManagement","label":"number","offset":0,"slot":"1","type":"t_string_storage"},{"astId":23,"contract":"RoamingDataManagement.sol:RoamingDataManagement","label":"serviceProvider","offset":0,"slot":"2","type":"t_string_storage"},{"astId":25,"contract":"RoamingDataManagement.sol:RoamingDataManagement","label":"serviceStartTime","offset":0,"slot":"3","type":"t_uint256"},{"astId":27,"contract":"RoamingDataManagement.sol:RoamingDataManagement","label":"voiceCallStartTime","offset":0,"slot":"4","type":"t_uint256"},{"astId":29,"contract":"RoamingDataManagement.sol:RoamingDataManagement","label":"smsStartTime","offset":0,"slot":"5","type":"t_uint256"},{"astId":31,"contract":"RoamingDataManagement.sol:RoamingDataManagement","label":"internetStartTime","offset":0,"slot":"6","type":"t_uint256"},{"astId":33,"contract":"RoamingDataManagement.sol:RoamingDataManagement","label":"voiceCallUsage","offset":0,"slot":"7","type":"t_uint256"},{"astId":35,"contract":"RoamingDataManagement.sol:RoamingDataManagement","label":"internetUsage","offset":0,"slot":"8","type":"t_uint256"},{"astId":37,"contract":"RoamingDataManagement.sol:RoamingDataManagement","label":"smsUsage","offset":0,"slot":"9","type":"t_uint256"}],"numberOfBytes":"320"},"t_uint256":{"encoding":"inplace","label":"uint256","numberOfBytes":"32"}}},"userdoc":{"kind":"user","methods":{},"version":1}}