{"abi":[{"inputs":[],"stateMutability":"nonpayable","type":"constructor"},{"inputs":[{"internalType":"string","name":"imsi","type":"string"}],"name":"fetchUserDataRecords","outputs":[{"components":[{"internalType":"string","name":"imsi","type":"string"},{"internalType":"string","name":"serviceType","type":"string"},{"internalType":"string","name":"startTime","type":"string"},{"internalType":"string","name":"endTime","type":"string"}],"internalType":"struct RoamingDataManagement.ServiceUsage[]","name":"","type":"tuple[]"}],"stateMutability":"view","type":"function"},{"inputs":[{"internalType":"string","name":"imsi","type":"string"}],"name":"fetchUserDataSummary","outputs":[{"components":[{"internalType":"string","name":"imsi","type":"string"},{"internalType":"string","name":"number","type":"string"},{"internalType":"string","name":"serviceProvider","type":"string"},{"internalType":"uint256","name":"voiceCallUsage","type":"uint256"},{"internalType":"uint256","name":"internetUsage","type":"uint256"},{"internalType":"uint256","name":"serviceUsage","type":"uint256"}],"internalType":"struct RoamingDataManagement.User","name":"","type":"tuple"}],"stateMutability":"view","type":"function"},{"inputs":[{"internalType":"string","name":"imsi","type":"string"}],"name":"registerUser","outputs":[],"stateMutability":"nonpayable","type":"function"},{"inputs":[{"internalType":"uint256","name":"","type":"uint256"}],"name":"serviceProviders","outputs":[{"internalType":"string","name":"","type":"string"}],"stateMutability":"view","type":"function"},{"inputs":[{"internalType":"uint256","name":"","type":"uint256"}],"name":"serviceTypes","outputs":[{"internalType":"string","name":"","type":"string"}],"stateMutability":"view","type":"function"},{"inputs":[{"internalType":"string","name":"imsi","type":"string"},{"internalType":"string","name":"serviceType","type":"string"},{"internalType":"string","name":"startTime","type":"string"},{"internalType":"string","name":"endTime","type":"string"}],"name":"uploadUserDataRecord","outputs":[],"stateMutability":"nonpayable","type":"function"},{"inputs":[{"internalType":"string","name":"imsi","type":"string"},{"internalType":"string","name":"number","type":"string"},{"internalType":"string","name":"serviceProvider","type":"string"},{"internalType":"uint256","name":"voiceCallUsage","type":"uint256"},{"internalType":"uint256","name":"internetUsage","type":"uint256"},{"internalType":"uint256","name":"serviceUsage","type":"uint256"}],"name":"uploadUserDataSummary","outputs":[],"stateMutability":"nonpayable","type":"function"}],"devdoc":{"kind":"dev","methods":{},"version":1},"evm":{"assembly":"    /* \"RoamingDataManagement.sol\":57:2987  contract RoamingDataManagement {... */\n  mstore(0x40, 0x80)\n    /* \"RoamingDataManagement.sol\":190:283  string[] public serviceProviders = [\"Rogers\", \"Fido\", \"T-Mobile\", \"Cricket\", \"Bells\", \"AT&T\"] */\n  mload(0x40)\n  dup1\n  0xc0\n  add\n  0x40\n  mstore\n  dup1\n  mload(0x40)\n  dup1\n  0x40\n  add\n  0x40\n  mstore\n  dup1\n  0x06\n  dup2\n  mstore\n  0x20\n  add\n  0x526f676572730000000000000000000000000000000000000000000000000000\n  dup2\n  mstore\n  pop\n  dup2\n  mstore\n  0x20\n  add\n  mload(0x40)\n  dup1\n  0x40\n  add\n  0x40\n  mstore\n  dup1\n  0x04\n  dup2\n  mstore\n  0x20\n  add\n  0x4669646f00000000000000000000000000000000000000000000000000000000\n  dup2\n  mstore\n  pop\n  dup2\n  mstore\n  0x20\n  add\n  mload(0x40)\n  dup1\n  0x40\n  add\n  0x40\n  mstore\n  dup1\n  0x08\n  dup2\n  mstore\n  0x20\n  add\n  0x542d4d6f62696c65000000000000000000000000000000000000000000000000\n  dup2\n  mstore\n  pop\n  dup2\n  mstore\n  0x20\n  add\n  mload(0x40)\n  dup1\n  0x40\n  add\n  0x40\n  mstore\n  dup1\n  0x07\n  dup2\n  mstore\n  0x20\n  add\n  0x437269636b657400000000000000000000000000000000000000000000000000\n  dup2\n  mstore\n  pop\n  dup2\n  mstore\n  0x20\n  add\n  mload(0x40)\n  dup1\n  0x40\n  add\n  0x40\n  mstore\n  dup1\n  0x05\n  dup2\n  mstore\n  0x20\n  add\n  0x42656c6c73000000000000000000000000000000000000000000000000000000\n  dup2\n  mstore\n  pop\n  dup2\n  mstore\n  0x20\n  add\n  mload(0x40)\n  dup1\n  0x40\n  add\n  0x40\n  mstore\n  dup1\n  0x04\n  dup2\n  mstore\n  0x20\n  add\n  0x4154265400000000000000000000000000000000000000000000000000000000\n  dup2\n  mstore\n  pop\n  dup2\n  mstore\n  pop\n  0x00\n  swap1\n  0x06\n  tag_1\n  swap3\n  swap2\n  swap1\n  tag_2\n  jump\t// in\ntag_1:\n  pop\n    /* \"RoamingDataManagement.sol\":289:601  address[] internal operatorAddresses = [0xD18A6Cd4F4307a51C000aCE84672d3CFca72670d, 0x86E1DDDe08cc9f897bf7333dB30951eEd46383A7,... */\n  mload(0x40)\n  dup1\n  0xc0\n  add\n  0x40\n  mstore\n  dup1\n    /* \"RoamingDataManagement.sol\":329:371  0xD18A6Cd4F4307a51C000aCE84672d3CFca72670d */\n  0xd18a6cd4f4307a51c000ace84672d3cfca72670d\n    /* \"RoamingDataManagement.sol\":289:601  address[] internal operatorAddresses = [0xD18A6Cd4F4307a51C000aCE84672d3CFca72670d, 0x86E1DDDe08cc9f897bf7333dB30951eEd46383A7,... */\n  0xffffffffffffffffffffffffffffffffffffffff\n  and\n  0xffffffffffffffffffffffffffffffffffffffff\n  and\n  dup2\n  mstore\n  0x20\n  add\n    /* \"RoamingDataManagement.sol\":373:415  0x86E1DDDe08cc9f897bf7333dB30951eEd46383A7 */\n  0x86e1ddde08cc9f897bf7333db30951eed46383a7\n    /* \"RoamingDataManagement.sol\":289:601  address[] internal operatorAddresses = [0xD18A6Cd4F4307a51C000aCE84672d3CFca72670d, 0x86E1DDDe08cc9f897bf7333dB30951eEd46383A7,... */\n  0xffffffffffffffffffffffffffffffffffffffff\n  and\n  0xffffffffffffffffffffffffffffffffffffffff\n  and\n  dup2\n  mstore\n  0x20\n  add\n    /* \"RoamingDataManagement.sol\":421:463  0x774A428064D0e6443e7f1368719386B2aA5B53B7 */\n  0x774a428064d0e6443e7f1368719386b2aa5b53b7\n    /* \"RoamingDataManagement.sol\":289:601  address[] internal operatorAddresses = [0xD18A6Cd4F4307a51C000aCE84672d3CFca72670d, 0x86E1DDDe08cc9f897bf7333dB30951eEd46383A7,... */\n  0xffffffffffffffffffffffffffffffffffffffff\n  and\n  0xffffffffffffffffffffffffffffffffffffffff\n  and\n  dup2\n  mstore\n  0x20\n  add\n    /* \"RoamingDataManagement.sol\":465:507  0x401a65d9BFc4641D8153F4bf804c358Da25539BA */\n  0x401a65d9bfc4641d8153f4bf804c358da25539ba\n    /* \"RoamingDataManagement.sol\":289:601  address[] internal operatorAddresses = [0xD18A6Cd4F4307a51C000aCE84672d3CFca72670d, 0x86E1DDDe08cc9f897bf7333dB30951eEd46383A7,... */\n  0xffffffffffffffffffffffffffffffffffffffff\n  and\n  0xffffffffffffffffffffffffffffffffffffffff\n  and\n  dup2\n  mstore\n  0x20\n  add\n    /* \"RoamingDataManagement.sol\":514:556  0xfA5e3ba0C642aB778BE226147826EB20277F299b */\n  0xfa5e3ba0c642ab778be226147826eb20277f299b\n    /* \"RoamingDataManagement.sol\":289:601  address[] internal operatorAddresses = [0xD18A6Cd4F4307a51C000aCE84672d3CFca72670d, 0x86E1DDDe08cc9f897bf7333dB30951eEd46383A7,... */\n  0xffffffffffffffffffffffffffffffffffffffff\n  and\n  0xffffffffffffffffffffffffffffffffffffffff\n  and\n  dup2\n  mstore\n  0x20\n  add\n    /* \"RoamingDataManagement.sol\":558:600  0xcA75d0aE72A14b66e9A9993DCe905677A642605a */\n  0xca75d0ae72a14b66e9a9993dce905677a642605a\n    /* \"RoamingDataManagement.sol\":289:601  address[] internal operatorAddresses = [0xD18A6Cd4F4307a51C000aCE84672d3CFca72670d, 0x86E1DDDe08cc9f897bf7333dB30951eEd46383A7,... */\n  0xffffffffffffffffffffffffffffffffffffffff\n  and\n  0xffffffffffffffffffffffffffffffffffffffff\n  and\n  dup2\n  mstore\n  pop\n  0x01\n  swap1\n  0x06\n  tag_3\n  swap3\n  swap2\n  swap1\n  tag_4\n  jump\t// in\ntag_3:\n  pop\n    /* \"RoamingDataManagement.sol\":649:713  string[] public serviceTypes = [\"Voice Call\", \"SMS\", \"Internet\"] */\n  mload(0x40)\n  dup1\n  0x60\n  add\n  0x40\n  mstore\n  dup1\n  mload(0x40)\n  dup1\n  0x40\n  add\n  0x40\n  mstore\n  dup1\n  0x0a\n  dup2\n  mstore\n  0x20\n  add\n  0x566f6963652043616c6c00000000000000000000000000000000000000000000\n  dup2\n  mstore\n  pop\n  dup2\n  mstore\n  0x20\n  add\n  mload(0x40)\n  dup1\n  0x40\n  add\n  0x40\n  mstore\n  dup1\n  0x03\n  dup2\n  mstore\n  0x20\n  add\n  0x534d530000000000000000000000000000000000000000000000000000000000\n  dup2\n  mstore\n  pop\n  dup2\n  mstore\n  0x20\n  add\n  mload(0x40)\n  dup1\n  0x40\n  add\n  0x40\n  mstore\n  dup1\n  0x08\n  dup2\n  mstore\n  0x20\n  add\n  0x496e7465726e6574000000000000000000000000000000000000000000000000\n  dup2\n  mstore\n  pop\n  dup2\n  mstore\n  pop\n  0x03\n  swap1\n  0x03\n  tag_5\n  swap3\n  swap2\n  swap1\n  tag_6\n  jump\t// in\ntag_5:\n  pop\n    /* \"RoamingDataManagement.sol\":1280:1679  constructor() {... */\n  callvalue\n  dup1\n  iszero\n  tag_7\n  jumpi\n  0x00\n  dup1\n  revert\ntag_7:\n  pop\n    /* \"RoamingDataManagement.sol\":1338:1354  serviceProviders */\n  0x00\n    /* \"RoamingDataManagement.sol\":1355:1356  0 */\n  dup1\n    /* \"RoamingDataManagement.sol\":1338:1357  serviceProviders[0] */\n  dup2\n  sload\n  dup2\n  lt\n  tag_10\n  jumpi\n  tag_11\n  tag_12\n  jump\t// in\ntag_11:\ntag_10:\n  swap1\n  0x00\n  mstore\n  keccak256(0x00, 0x20)\n  add\n    /* \"RoamingDataManagement.sol\":1304:1313  operators */\n  0x02\n    /* \"RoamingDataManagement.sol\":1304:1335  operators[operatorAddresses[0]] */\n  0x00\n    /* \"RoamingDataManagement.sol\":1314:1331  operatorAddresses */\n  0x01\n    /* \"RoamingDataManagement.sol\":1332:1333  0 */\n  0x00\n    /* \"RoamingDataManagement.sol\":1314:1334  operatorAddresses[0] */\n  dup2\n  sload\n  dup2\n  lt\n  tag_14\n  jumpi\n  tag_15\n  tag_12\n  jump\t// in\ntag_15:\ntag_14:\n  swap1\n  0x00\n  mstore\n  keccak256(0x00, 0x20)\n  add\n  0x00\n  swap1\n  sload\n  swap1\n  0x0100\n  exp\n  swap1\n  div\n  0xffffffffffffffffffffffffffffffffffffffff\n  and\n    /* \"RoamingDataManagement.sol\":1304:1335  operators[operatorAddresses[0]] */\n  0xffffffffffffffffffffffffffffffffffffffff\n  and\n  0xffffffffffffffffffffffffffffffffffffffff\n  and\n  dup2\n  mstore\n  0x20\n  add\n  swap1\n  dup2\n  mstore\n  0x20\n  add\n  0x00\n  keccak256\n    /* \"RoamingDataManagement.sol\":1304:1357  operators[operatorAddresses[0]] = serviceProviders[0] */\n  swap1\n  dup2\n  tag_17\n  swap2\n  swap1\n  tag_18\n  jump\t// in\ntag_17:\n  pop\n    /* \"RoamingDataManagement.sol\":1401:1417  serviceProviders */\n  0x00\n    /* \"RoamingDataManagement.sol\":1418:1419  1 */\n  0x01\n    /* \"RoamingDataManagement.sol\":1401:1420  serviceProviders[1] */\n  dup2\n  sload\n  dup2\n  lt\n  tag_19\n  jumpi\n  tag_20\n  tag_12\n  jump\t// in\ntag_20:\ntag_19:\n  swap1\n  0x00\n  mstore\n  keccak256(0x00, 0x20)\n  add\n    /* \"RoamingDataManagement.sol\":1367:1376  operators */\n  0x02\n    /* \"RoamingDataManagement.sol\":1367:1398  operators[operatorAddresses[1]] */\n  0x00\n    /* \"RoamingDataManagement.sol\":1377:1394  operatorAddresses */\n  0x01\n    /* \"RoamingDataManagement.sol\":1395:1396  1 */\n  dup1\n    /* \"RoamingDataManagement.sol\":1377:1397  operatorAddresses[1] */\n  dup2\n  sload\n  dup2\n  lt\n  tag_22\n  jumpi\n  tag_23\n  tag_12\n  jump\t// in\ntag_23:\ntag_22:\n  swap1\n  0x00\n  mstore\n  keccak256(0x00, 0x20)\n  add\n  0x00\n  swap1\n  sload\n  swap1\n  0x0100\n  exp\n  swap1\n  div\n  0xffffffffffffffffffffffffffffffffffffffff\n  and\n    /* \"RoamingDataManagement.sol\":1367:1398  operators[operatorAddresses[1]] */\n  0xffffffffffffffffffffffffffffffffffffffff\n  and\n  0xffffffffffffffffffffffffffffffffffffffff\n  and\n  dup2\n  mstore\n  0x20\n  add\n  swap1\n  dup2\n  mstore\n  0x20\n  add\n  0x00\n  keccak256\n    /* \"RoamingDataManagement.sol\":1367:1420  operators[operatorAddresses[1]] = serviceProviders[1] */\n  swap1\n  dup2\n  tag_25\n  swap2\n  swap1\n  tag_18\n  jump\t// in\ntag_25:\n  pop\n    /* \"RoamingDataManagement.sol\":1464:1480  serviceProviders */\n  0x00\n    /* \"RoamingDataManagement.sol\":1481:1482  2 */\n  0x02\n    /* \"RoamingDataManagement.sol\":1464:1483  serviceProviders[2] */\n  dup2\n  sload\n  dup2\n  lt\n  tag_26\n  jumpi\n  tag_27\n  tag_12\n  jump\t// in\ntag_27:\ntag_26:\n  swap1\n  0x00\n  mstore\n  keccak256(0x00, 0x20)\n  add\n    /* \"RoamingDataManagement.sol\":1430:1439  operators */\n  0x02\n    /* \"RoamingDataManagement.sol\":1430:1461  operators[operatorAddresses[2]] */\n  0x00\n    /* \"RoamingDataManagement.sol\":1440:1457  operatorAddresses */\n  0x01\n    /* \"RoamingDataManagement.sol\":1458:1459  2 */\n  0x02\n    /* \"RoamingDataManagement.sol\":1440:1460  operatorAddresses[2] */\n  dup2\n  sload\n  dup2\n  lt\n  tag_29\n  jumpi\n  tag_30\n  tag_12\n  jump\t// in\ntag_30:\ntag_29:\n  swap1\n  0x00\n  mstore\n  keccak256(0x00, 0x20)\n  add\n  0x00\n  swap1\n  sload\n  swap1\n  0x0100\n  exp\n  swap1\n  div\n  0xffffffffffffffffffffffffffffffffffffffff\n  and\n    /* \"RoamingDataManagement.sol\":1430:1461  operators[operatorAddresses[2]] */\n  0xffffffffffffffffffffffffffffffffffffffff\n  and\n  0xffffffffffffffffffffffffffffffffffffffff\n  and\n  dup2\n  mstore\n  0x20\n  add\n  swap1\n  dup2\n  mstore\n  0x20\n  add\n  0x00\n  keccak256\n    /* \"RoamingDataManagement.sol\":1430:1483  operators[operatorAddresses[2]] = serviceProviders[2] */\n  swap1\n  dup2\n  tag_32\n  swap2\n  swap1\n  tag_18\n  jump\t// in\ntag_32:\n  pop\n    /* \"RoamingDataManagement.sol\":1527:1543  serviceProviders */\n  0x00\n    /* \"RoamingDataManagement.sol\":1544:1545  3 */\n  0x03\n    /* \"RoamingDataManagement.sol\":1527:1546  serviceProviders[3] */\n  dup2\n  sload\n  dup2\n  lt\n  tag_33\n  jumpi\n  tag_34\n  tag_12\n  jump\t// in\ntag_34:\ntag_33:\n  swap1\n  0x00\n  mstore\n  keccak256(0x00, 0x20)\n  add\n    /* \"RoamingDataManagement.sol\":1493:1502  operators */\n  0x02\n    /* \"RoamingDataManagement.sol\":1493:1524  operators[operatorAddresses[3]] */\n  0x00\n    /* \"RoamingDataManagement.sol\":1503:1520  operatorAddresses */\n  0x01\n    /* \"RoamingDataManagement.sol\":1521:1522  3 */\n  0x03\n    /* \"RoamingDataManagement.sol\":1503:1523  operatorAddresses[3] */\n  dup2\n  sload\n  dup2\n  lt\n  tag_36\n  jumpi\n  tag_37\n  tag_12\n  jump\t// in\ntag_37:\ntag_36:\n  swap1\n  0x00\n  mstore\n  keccak256(0x00, 0x20)\n  add\n  0x00\n  swap1\n  sload\n  swap1\n  0x0100\n  exp\n  swap1\n  div\n  0xffffffffffffffffffffffffffffffffffffffff\n  and\n    /* \"RoamingDataManagement.sol\":1493:1524  operators[operatorAddresses[3]] */\n  0xffffffffffffffffffffffffffffffffffffffff\n  and\n  0xffffffffffffffffffffffffffffffffffffffff\n  and\n  dup2\n  mstore\n  0x20\n  add\n  swap1\n  dup2\n  mstore\n  0x20\n  add\n  0x00\n  keccak256\n    /* \"RoamingDataManagement.sol\":1493:1546  operators[operatorAddresses[3]] = serviceProviders[3] */\n  swap1\n  dup2\n  tag_39\n  swap2\n  swap1\n  tag_18\n  jump\t// in\ntag_39:\n  pop\n    /* \"RoamingDataManagement.sol\":1590:1606  serviceProviders */\n  0x00\n    /* \"RoamingDataManagement.sol\":1607:1608  4 */\n  0x04\n    /* \"RoamingDataManagement.sol\":1590:1609  serviceProviders[4] */\n  dup2\n  sload\n  dup2\n  lt\n  tag_40\n  jumpi\n  tag_41\n  tag_12\n  jump\t// in\ntag_41:\ntag_40:\n  swap1\n  0x00\n  mstore\n  keccak256(0x00, 0x20)\n  add\n    /* \"RoamingDataManagement.sol\":1556:1565  operators */\n  0x02\n    /* \"RoamingDataManagement.sol\":1556:1587  operators[operatorAddresses[4]] */\n  0x00\n    /* \"RoamingDataManagement.sol\":1566:1583  operatorAddresses */\n  0x01\n    /* \"RoamingDataManagement.sol\":1584:1585  4 */\n  0x04\n    /* \"RoamingDataManagement.sol\":1566:1586  operatorAddresses[4] */\n  dup2\n  sload\n  dup2\n  lt\n  tag_43\n  jumpi\n  tag_44\n  tag_12\n  jump\t// in\ntag_44:\ntag_43:\n  swap1\n  0x00\n  mstore\n  keccak256(0x00, 0x20)\n  add\n  0x00\n  swap1\n  sload\n  swap1\n  0x0100\n  exp\n  swap1\n  div\n  0xffffffffffffffffffffffffffffffffffffffff\n  and\n    /* \"RoamingDataManagement.sol\":1556:1587  operators[operatorAddresses[4]] */\n  0xffffffffffffffffffffffffffffffffffffffff\n  and\n  0xffffffffffffffffffffffffffffffffffffffff\n  and\n  dup2\n  mstore\n  0x20\n  add\n  swap1\n  dup2\n  mstore\n  0x20\n  add\n  0x00\n  keccak256\n    /* \"RoamingDataManagement.sol\":1556:1609  operators[operatorAddresses[4]] = serviceProviders[4] */\n  swap1\n  dup2\n  tag_46\n  swap2\n  swap1\n  tag_18\n  jump\t// in\ntag_46:\n  pop\n    /* \"RoamingDataManagement.sol\":1653:1669  serviceProviders */\n  0x00\n    /* \"RoamingDataManagement.sol\":1670:1671  5 */\n  0x05\n    /* \"RoamingDataManagement.sol\":1653:1672  serviceProviders[5] */\n  dup2\n  sload\n  dup2\n  lt\n  tag_47\n  jumpi\n  tag_48\n  tag_12\n  jump\t// in\ntag_48:\ntag_47:\n  swap1\n  0x00\n  mstore\n  keccak256(0x00, 0x20)\n  add\n    /* \"RoamingDataManagement.sol\":1619:1628  operators */\n  0x02\n    /* \"RoamingDataManagement.sol\":1619:1650  operators[operatorAddresses[5]] */\n  0x00\n    /* \"RoamingDataManagement.sol\":1629:1646  operatorAddresses */\n  0x01\n    /* \"RoamingDataManagement.sol\":1647:1648  5 */\n  0x05\n    /* \"RoamingDataManagement.sol\":1629:1649  operatorAddresses[5] */\n  dup2\n  sload\n  dup2\n  lt\n  tag_50\n  jumpi\n  tag_51\n  tag_12\n  jump\t// in\ntag_51:\ntag_50:\n  swap1\n  0x00\n  mstore\n  keccak256(0x00, 0x20)\n  add\n  0x00\n  swap1\n  sload\n  swap1\n  0x0100\n  exp\n  swap1\n  div\n  0xffffffffffffffffffffffffffffffffffffffff\n  and\n    /* \"RoamingDataManagement.sol\":1619:1650  operators[operatorAddresses[5]] */\n  0xffffffffffffffffffffffffffffffffffffffff\n  and\n  0xffffffffffffffffffffffffffffffffffffffff\n  and\n  dup2\n  mstore\n  0x20\n  add\n  swap1\n  dup2\n  mstore\n  0x20\n  add\n  0x00\n  keccak256\n    /* \"RoamingDataManagement.sol\":1619:1672  operators[operatorAddresses[5]] = serviceProviders[5] */\n  swap1\n  dup2\n  tag_53\n  swap2\n  swap1\n  tag_18\n  jump\t// in\ntag_53:\n  pop\n    /* \"RoamingDataManagement.sol\":57:2987  contract RoamingDataManagement {... */\n  jump(tag_54)\ntag_2:\n  dup3\n  dup1\n  sload\n  dup3\n  dup3\n  sstore\n  swap1\n  0x00\n  mstore\n  keccak256(0x00, 0x20)\n  swap1\n  dup2\n  add\n  swap3\n  dup3\n  iszero\n  tag_55\n  jumpi\n  swap2\n  0x20\n  mul\n  dup3\n  add\ntag_56:\n  dup3\n  dup2\n  gt\n  iszero\n  tag_57\n  jumpi\n  dup3\n  mload\n  dup3\n  swap1\n  dup2\n  tag_58\n  swap2\n  swap1\n  tag_59\n  jump\t// in\ntag_58:\n  pop\n  swap2\n  0x20\n  add\n  swap2\n  swap1\n  0x01\n  add\n  swap1\n  jump(tag_56)\ntag_57:\ntag_55:\n  pop\n  swap1\n  pop\n  tag_60\n  swap2\n  swap1\n  tag_61\n  jump\t// in\ntag_60:\n  pop\n  swap1\n  jump\t// out\ntag_4:\n  dup3\n  dup1\n  sload\n  dup3\n  dup3\n  sstore\n  swap1\n  0x00\n  mstore\n  keccak256(0x00, 0x20)\n  swap1\n  dup2\n  add\n  swap3\n  dup3\n  iszero\n  tag_62\n  jumpi\n  swap2\n  0x20\n  mul\n  dup3\n  add\ntag_63:\n  dup3\n  dup2\n  gt\n  iszero\n  tag_64\n  jumpi\n  dup3\n  mload\n  dup3\n  exp(0x0100, 0x00)\n  dup2\n  sload\n  dup2\n  0xffffffffffffffffffffffffffffffffffffffff\n  mul\n  not\n  and\n  swap1\n  dup4\n  0xffffffffffffffffffffffffffffffffffffffff\n  and\n  mul\n  or\n  swap1\n  sstore\n  pop\n  swap2\n  0x20\n  add\n  swap2\n  swap1\n  0x01\n  add\n  swap1\n  jump(tag_63)\ntag_64:\ntag_62:\n  pop\n  swap1\n  pop\n  tag_65\n  swap2\n  swap1\n  tag_66\n  jump\t// in\ntag_65:\n  pop\n  swap1\n  jump\t// out\ntag_6:\n  dup3\n  dup1\n  sload\n  dup3\n  dup3\n  sstore\n  swap1\n  0x00\n  mstore\n  keccak256(0x00, 0x20)\n  swap1\n  dup2\n  add\n  swap3\n  dup3\n  iszero\n  tag_67\n  jumpi\n  swap2\n  0x20\n  mul\n  dup3\n  add\ntag_68:\n  dup3\n  dup2\n  gt\n  iszero\n  tag_69\n  jumpi\n  dup3\n  mload\n  dup3\n  swap1\n  dup2\n  tag_70\n  swap2\n  swap1\n  tag_59\n  jump\t// in\ntag_70:\n  pop\n  swap2\n  0x20\n  add\n  swap2\n  swap1\n  0x01\n  add\n  swap1\n  jump(tag_68)\ntag_69:\ntag_67:\n  pop\n  swap1\n  pop\n  tag_71\n  swap2\n  swap1\n  tag_61\n  jump\t// in\ntag_71:\n  pop\n  swap1\n  jump\t// out\ntag_61:\ntag_72:\n  dup1\n  dup3\n  gt\n  iszero\n  tag_73\n  jumpi\n  0x00\n  dup2\n  dup2\n  tag_74\n  swap2\n  swap1\n  tag_75\n  jump\t// in\ntag_74:\n  pop\n  0x01\n  add\n  jump(tag_72)\ntag_73:\n  pop\n  swap1\n  jump\t// out\ntag_66:\ntag_76:\n  dup1\n  dup3\n  gt\n  iszero\n  tag_77\n  jumpi\n  0x00\n  dup2\n  0x00\n  swap1\n  sstore\n  pop\n  0x01\n  add\n  jump(tag_76)\ntag_77:\n  pop\n  swap1\n  jump\t// out\ntag_75:\n  pop\n  dup1\n  sload\n  tag_78\n  swap1\n  tag_79\n  jump\t// in\ntag_78:\n  0x00\n  dup3\n  sstore\n  dup1\n  0x1f\n  lt\n  tag_81\n  jumpi\n  pop\n  jump(tag_80)\ntag_81:\n  0x1f\n  add\n  0x20\n  swap1\n  div\n  swap1\n  0x00\n  mstore\n  keccak256(0x00, 0x20)\n  swap1\n  dup2\n  add\n  swap1\n  tag_82\n  swap2\n  swap1\n  tag_66\n  jump\t// in\ntag_82:\ntag_80:\n  pop\n  jump\t// out\n    /* \"#utility.yul\":7:187   */\ntag_12:\n    /* \"#utility.yul\":55:132   */\n  0x4e487b7100000000000000000000000000000000000000000000000000000000\n    /* \"#utility.yul\":52:53   */\n  0x00\n    /* \"#utility.yul\":45:133   */\n  mstore\n    /* \"#utility.yul\":152:156   */\n  0x32\n    /* \"#utility.yul\":149:150   */\n  0x04\n    /* \"#utility.yul\":142:157   */\n  mstore\n    /* \"#utility.yul\":176:180   */\n  0x24\n    /* \"#utility.yul\":173:174   */\n  0x00\n    /* \"#utility.yul\":166:181   */\n  revert\n    /* \"#utility.yul\":193:373   */\ntag_83:\n    /* \"#utility.yul\":241:318   */\n  0x4e487b7100000000000000000000000000000000000000000000000000000000\n    /* \"#utility.yul\":238:239   */\n  0x00\n    /* \"#utility.yul\":231:319   */\n  mstore\n    /* \"#utility.yul\":338:342   */\n  0x22\n    /* \"#utility.yul\":335:336   */\n  0x04\n    /* \"#utility.yul\":328:343   */\n  mstore\n    /* \"#utility.yul\":362:366   */\n  0x24\n    /* \"#utility.yul\":359:360   */\n  0x00\n    /* \"#utility.yul\":352:367   */\n  revert\n    /* \"#utility.yul\":379:699   */\ntag_79:\n    /* \"#utility.yul\":423:429   */\n  0x00\n    /* \"#utility.yul\":460:461   */\n  0x02\n    /* \"#utility.yul\":454:458   */\n  dup3\n    /* \"#utility.yul\":450:462   */\n  div\n    /* \"#utility.yul\":440:462   */\n  swap1\n  pop\n    /* \"#utility.yul\":507:508   */\n  0x01\n    /* \"#utility.yul\":501:505   */\n  dup3\n    /* \"#utility.yul\":497:509   */\n  and\n    /* \"#utility.yul\":528:546   */\n  dup1\n    /* \"#utility.yul\":518:599   */\n  tag_108\n  jumpi\n    /* \"#utility.yul\":584:588   */\n  0x7f\n    /* \"#utility.yul\":576:582   */\n  dup3\n    /* \"#utility.yul\":572:589   */\n  and\n    /* \"#utility.yul\":562:589   */\n  swap2\n  pop\n    /* \"#utility.yul\":518:599   */\ntag_108:\n    /* \"#utility.yul\":646:648   */\n  0x20\n    /* \"#utility.yul\":638:644   */\n  dup3\n    /* \"#utility.yul\":635:649   */\n  lt\n    /* \"#utility.yul\":615:633   */\n  dup2\n    /* \"#utility.yul\":612:650   */\n  sub\n    /* \"#utility.yul\":609:693   */\n  tag_109\n  jumpi\n    /* \"#utility.yul\":665:683   */\n  tag_110\n  tag_83\n  jump\t// in\ntag_110:\n    /* \"#utility.yul\":609:693   */\ntag_109:\n    /* \"#utility.yul\":430:699   */\n  pop\n    /* \"#utility.yul\":379:699   */\n  swap2\n  swap1\n  pop\n  jump\t// out\n    /* \"#utility.yul\":705:858   */\ntag_84:\n    /* \"#utility.yul\":758:764   */\n  0x00\n    /* \"#utility.yul\":792:797   */\n  dup2\n    /* \"#utility.yul\":786:798   */\n  sload\n    /* \"#utility.yul\":776:798   */\n  swap1\n  pop\n    /* \"#utility.yul\":818:851   */\n  tag_112\n    /* \"#utility.yul\":844:850   */\n  dup2\n    /* \"#utility.yul\":818:851   */\n  tag_79\n  jump\t// in\ntag_112:\n    /* \"#utility.yul\":808:851   */\n  swap1\n  pop\n    /* \"#utility.yul\":705:858   */\n  swap2\n  swap1\n  pop\n  jump\t// out\n    /* \"#utility.yul\":864:1044   */\ntag_85:\n    /* \"#utility.yul\":912:989   */\n  0x4e487b7100000000000000000000000000000000000000000000000000000000\n    /* \"#utility.yul\":909:910   */\n  0x00\n    /* \"#utility.yul\":902:990   */\n  mstore\n    /* \"#utility.yul\":1009:1013   */\n  0x41\n    /* \"#utility.yul\":1006:1007   */\n  0x04\n    /* \"#utility.yul\":999:1014   */\n  mstore\n    /* \"#utility.yul\":1033:1037   */\n  0x24\n    /* \"#utility.yul\":1030:1031   */\n  0x00\n    /* \"#utility.yul\":1023:1038   */\n  revert\n    /* \"#utility.yul\":1050:1191   */\ntag_86:\n    /* \"#utility.yul\":1099:1103   */\n  0x00\n    /* \"#utility.yul\":1122:1125   */\n  dup2\n    /* \"#utility.yul\":1114:1125   */\n  swap1\n  pop\n    /* \"#utility.yul\":1145:1148   */\n  dup2\n    /* \"#utility.yul\":1142:1143   */\n  0x00\n    /* \"#utility.yul\":1135:1149   */\n  mstore\n    /* \"#utility.yul\":1179:1183   */\n  0x20\n    /* \"#utility.yul\":1176:1177   */\n  0x00\n    /* \"#utility.yul\":1166:1184   */\n  keccak256\n    /* \"#utility.yul\":1158:1184   */\n  swap1\n  pop\n    /* \"#utility.yul\":1050:1191   */\n  swap2\n  swap1\n  pop\n  jump\t// out\n    /* \"#utility.yul\":1197:1342   */\ntag_87:\n    /* \"#utility.yul\":1250:1254   */\n  0x00\n    /* \"#utility.yul\":1273:1276   */\n  dup2\n    /* \"#utility.yul\":1265:1276   */\n  swap1\n  pop\n    /* \"#utility.yul\":1296:1299   */\n  dup2\n    /* \"#utility.yul\":1293:1294   */\n  0x00\n    /* \"#utility.yul\":1286:1300   */\n  mstore\n    /* \"#utility.yul\":1330:1334   */\n  0x20\n    /* \"#utility.yul\":1327:1328   */\n  0x00\n    /* \"#utility.yul\":1317:1335   */\n  keccak256\n    /* \"#utility.yul\":1309:1335   */\n  swap1\n  pop\n    /* \"#utility.yul\":1197:1342   */\n  swap2\n  swap1\n  pop\n  jump\t// out\n    /* \"#utility.yul\":1348:1441   */\ntag_88:\n    /* \"#utility.yul\":1385:1391   */\n  0x00\n    /* \"#utility.yul\":1432:1434   */\n  0x20\n    /* \"#utility.yul\":1427:1429   */\n  0x1f\n    /* \"#utility.yul\":1420:1425   */\n  dup4\n    /* \"#utility.yul\":1416:1430   */\n  add\n    /* \"#utility.yul\":1412:1435   */\n  div\n    /* \"#utility.yul\":1402:1435   */\n  swap1\n  pop\n    /* \"#utility.yul\":1348:1441   */\n  swap2\n  swap1\n  pop\n  jump\t// out\n    /* \"#utility.yul\":1447:1554   */\ntag_89:\n    /* \"#utility.yul\":1491:1499   */\n  0x00\n    /* \"#utility.yul\":1541:1546   */\n  dup3\n    /* \"#utility.yul\":1535:1539   */\n  dup3\n    /* \"#utility.yul\":1531:1547   */\n  shl\n    /* \"#utility.yul\":1510:1547   */\n  swap1\n  pop\n    /* \"#utility.yul\":1447:1554   */\n  swap3\n  swap2\n  pop\n  pop\n  jump\t// out\n    /* \"#utility.yul\":1560:1953   */\ntag_90:\n    /* \"#utility.yul\":1629:1635   */\n  0x00\n    /* \"#utility.yul\":1679:1680   */\n  0x08\n    /* \"#utility.yul\":1667:1677   */\n  dup4\n    /* \"#utility.yul\":1663:1681   */\n  mul\n    /* \"#utility.yul\":1702:1799   */\n  tag_119\n    /* \"#utility.yul\":1732:1798   */\n  0xffffffffffffffffffffffffffffffffffffffffffffffffffffffffffffffff\n    /* \"#utility.yul\":1721:1730   */\n  dup3\n    /* \"#utility.yul\":1702:1799   */\n  tag_89\n  jump\t// in\ntag_119:\n    /* \"#utility.yul\":1820:1859   */\n  tag_120\n    /* \"#utility.yul\":1850:1858   */\n  dup7\n    /* \"#utility.yul\":1839:1848   */\n  dup4\n    /* \"#utility.yul\":1820:1859   */\n  tag_89\n  jump\t// in\ntag_120:\n    /* \"#utility.yul\":1808:1859   */\n  swap6\n  pop\n    /* \"#utility.yul\":1892:1896   */\n  dup1\n    /* \"#utility.yul\":1888:1897   */\n  not\n    /* \"#utility.yul\":1881:1886   */\n  dup5\n    /* \"#utility.yul\":1877:1898   */\n  and\n    /* \"#utility.yul\":1868:1898   */\n  swap4\n  pop\n    /* \"#utility.yul\":1941:1945   */\n  dup1\n    /* \"#utility.yul\":1931:1939   */\n  dup7\n    /* \"#utility.yul\":1927:1946   */\n  and\n    /* \"#utility.yul\":1920:1925   */\n  dup5\n    /* \"#utility.yul\":1917:1947   */\n  or\n    /* \"#utility.yul\":1907:1947   */\n  swap3\n  pop\n    /* \"#utility.yul\":1636:1953   */\n  pop\n  pop\n    /* \"#utility.yul\":1560:1953   */\n  swap4\n  swap3\n  pop\n  pop\n  pop\n  jump\t// out\n    /* \"#utility.yul\":1959:2036   */\ntag_91:\n    /* \"#utility.yul\":1996:2003   */\n  0x00\n    /* \"#utility.yul\":2025:2030   */\n  dup2\n    /* \"#utility.yul\":2014:2030   */\n  swap1\n  pop\n    /* \"#utility.yul\":1959:2036   */\n  swap2\n  swap1\n  pop\n  jump\t// out\n    /* \"#utility.yul\":2042:2102   */\ntag_92:\n    /* \"#utility.yul\":2070:2073   */\n  0x00\n    /* \"#utility.yul\":2091:2096   */\n  dup2\n    /* \"#utility.yul\":2084:2096   */\n  swap1\n  pop\n    /* \"#utility.yul\":2042:2102   */\n  swap2\n  swap1\n  pop\n  jump\t// out\n    /* \"#utility.yul\":2108:2250   */\ntag_93:\n    /* \"#utility.yul\":2158:2167   */\n  0x00\n    /* \"#utility.yul\":2191:2244   */\n  tag_124\n    /* \"#utility.yul\":2209:2243   */\n  tag_125\n    /* \"#utility.yul\":2218:2242   */\n  tag_126\n    /* \"#utility.yul\":2236:2241   */\n  dup5\n    /* \"#utility.yul\":2218:2242   */\n  tag_91\n  jump\t// in\ntag_126:\n    /* \"#utility.yul\":2209:2243   */\n  tag_92\n  jump\t// in\ntag_125:\n    /* \"#utility.yul\":2191:2244   */\n  tag_91\n  jump\t// in\ntag_124:\n    /* \"#utility.yul\":2178:2244   */\n  swap1\n  pop\n    /* \"#utility.yul\":2108:2250   */\n  swap2\n  swap1\n  pop\n  jump\t// out\n    /* \"#utility.yul\":2256:2331   */\ntag_94:\n    /* \"#utility.yul\":2299:2302   */\n  0x00\n    /* \"#utility.yul\":2320:2325   */\n  dup2\n    /* \"#utility.yul\":2313:2325   */\n  swap1\n  pop\n    /* \"#utility.yul\":2256:2331   */\n  swap2\n  swap1\n  pop\n  jump\t// out\n    /* \"#utility.yul\":2337:2606   */\ntag_95:\n    /* \"#utility.yul\":2447:2486   */\n  tag_129\n    /* \"#utility.yul\":2478:2485   */\n  dup4\n    /* \"#utility.yul\":2447:2486   */\n  tag_93\n  jump\t// in\ntag_129:\n    /* \"#utility.yul\":2508:2599   */\n  tag_130\n    /* \"#utility.yul\":2557:2598   */\n  tag_131\n    /* \"#utility.yul\":2581:2597   */\n  dup3\n    /* \"#utility.yul\":2557:2598   */\n  tag_94\n  jump\t// in\ntag_131:\n    /* \"#utility.yul\":2549:2555   */\n  dup5\n    /* \"#utility.yul\":2542:2546   */\n  dup5\n    /* \"#utility.yul\":2536:2547   */\n  sload\n    /* \"#utility.yul\":2508:2599   */\n  tag_90\n  jump\t// in\ntag_130:\n    /* \"#utility.yul\":2502:2506   */\n  dup3\n    /* \"#utility.yul\":2495:2600   */\n  sstore\n    /* \"#utility.yul\":2413:2606   */\n  pop\n    /* \"#utility.yul\":2337:2606   */\n  pop\n  pop\n  pop\n  jump\t// out\n    /* \"#utility.yul\":2612:2685   */\ntag_96:\n    /* \"#utility.yul\":2657:2660   */\n  0x00\n    /* \"#utility.yul\":2612:2685   */\n  swap1\n  jump\t// out\n    /* \"#utility.yul\":2691:2880   */\ntag_97:\n    /* \"#utility.yul\":2768:2800   */\n  tag_134\n  tag_96\n  jump\t// in\ntag_134:\n    /* \"#utility.yul\":2809:2874   */\n  tag_135\n    /* \"#utility.yul\":2867:2873   */\n  dup2\n    /* \"#utility.yul\":2859:2865   */\n  dup5\n    /* \"#utility.yul\":2853:2857   */\n  dup5\n    /* \"#utility.yul\":2809:2874   */\n  tag_95\n  jump\t// in\ntag_135:\n    /* \"#utility.yul\":2744:2880   */\n  pop\n    /* \"#utility.yul\":2691:2880   */\n  pop\n  pop\n  jump\t// out\n    /* \"#utility.yul\":2886:3072   */\ntag_98:\n    /* \"#utility.yul\":2946:3066   */\ntag_137:\n    /* \"#utility.yul\":2963:2966   */\n  dup2\n    /* \"#utility.yul\":2956:2961   */\n  dup2\n    /* \"#utility.yul\":2953:2967   */\n  lt\n    /* \"#utility.yul\":2946:3066   */\n  iszero\n  tag_139\n  jumpi\n    /* \"#utility.yul\":3017:3056   */\n  tag_140\n    /* \"#utility.yul\":3054:3055   */\n  0x00\n    /* \"#utility.yul\":3047:3052   */\n  dup3\n    /* \"#utility.yul\":3017:3056   */\n  tag_97\n  jump\t// in\ntag_140:\n    /* \"#utility.yul\":2990:2991   */\n  0x01\n    /* \"#utility.yul\":2983:2988   */\n  dup2\n    /* \"#utility.yul\":2979:2992   */\n  add\n    /* \"#utility.yul\":2970:2992   */\n  swap1\n  pop\n    /* \"#utility.yul\":2946:3066   */\n  jump(tag_137)\ntag_139:\n    /* \"#utility.yul\":2886:3072   */\n  pop\n  pop\n  jump\t// out\n    /* \"#utility.yul\":3078:3621   */\ntag_99:\n    /* \"#utility.yul\":3179:3181   */\n  0x1f\n    /* \"#utility.yul\":3174:3177   */\n  dup3\n    /* \"#utility.yul\":3171:3182   */\n  gt\n    /* \"#utility.yul\":3168:3614   */\n  iszero\n  tag_142\n  jumpi\n    /* \"#utility.yul\":3213:3251   */\n  tag_143\n    /* \"#utility.yul\":3245:3250   */\n  dup2\n    /* \"#utility.yul\":3213:3251   */\n  tag_86\n  jump\t// in\ntag_143:\n    /* \"#utility.yul\":3297:3326   */\n  tag_144\n    /* \"#utility.yul\":3315:3325   */\n  dup5\n    /* \"#utility.yul\":3297:3326   */\n  tag_88\n  jump\t// in\ntag_144:\n    /* \"#utility.yul\":3287:3295   */\n  dup2\n    /* \"#utility.yul\":3283:3327   */\n  add\n    /* \"#utility.yul\":3480:3482   */\n  0x20\n    /* \"#utility.yul\":3468:3478   */\n  dup6\n    /* \"#utility.yul\":3465:3483   */\n  lt\n    /* \"#utility.yul\":3462:3511   */\n  iszero\n  tag_145\n  jumpi\n    /* \"#utility.yul\":3501:3509   */\n  dup2\n    /* \"#utility.yul\":3486:3509   */\n  swap1\n  pop\n    /* \"#utility.yul\":3462:3511   */\ntag_145:\n    /* \"#utility.yul\":3524:3604   */\n  tag_146\n    /* \"#utility.yul\":3580:3602   */\n  tag_147\n    /* \"#utility.yul\":3598:3601   */\n  dup6\n    /* \"#utility.yul\":3580:3602   */\n  tag_88\n  jump\t// in\ntag_147:\n    /* \"#utility.yul\":3570:3578   */\n  dup4\n    /* \"#utility.yul\":3566:3603   */\n  add\n    /* \"#utility.yul\":3553:3564   */\n  dup3\n    /* \"#utility.yul\":3524:3604   */\n  tag_98\n  jump\t// in\ntag_146:\n    /* \"#utility.yul\":3183:3614   */\n  pop\n  pop\n    /* \"#utility.yul\":3168:3614   */\ntag_142:\n    /* \"#utility.yul\":3078:3621   */\n  pop\n  pop\n  pop\n  jump\t// out\n    /* \"#utility.yul\":3627:3744   */\ntag_100:\n    /* \"#utility.yul\":3681:3689   */\n  0x00\n    /* \"#utility.yul\":3731:3736   */\n  dup3\n    /* \"#utility.yul\":3725:3729   */\n  dup3\n    /* \"#utility.yul\":3721:3737   */\n  shr\n    /* \"#utility.yul\":3700:3737   */\n  swap1\n  pop\n    /* \"#utility.yul\":3627:3744   */\n  swap3\n  swap2\n  pop\n  pop\n  jump\t// out\n    /* \"#utility.yul\":3750:3919   */\ntag_101:\n    /* \"#utility.yul\":3794:3800   */\n  0x00\n    /* \"#utility.yul\":3827:3878   */\n  tag_150\n    /* \"#utility.yul\":3875:3876   */\n  0x00\n    /* \"#utility.yul\":3871:3877   */\n  not\n    /* \"#utility.yul\":3863:3868   */\n  dup5\n    /* \"#utility.yul\":3860:3861   */\n  0x08\n    /* \"#utility.yul\":3856:3869   */\n  mul\n    /* \"#utility.yul\":3827:3878   */\n  tag_100\n  jump\t// in\ntag_150:\n    /* \"#utility.yul\":3823:3879   */\n  not\n    /* \"#utility.yul\":3908:3912   */\n  dup1\n    /* \"#utility.yul\":3902:3906   */\n  dup4\n    /* \"#utility.yul\":3898:3913   */\n  and\n    /* \"#utility.yul\":3888:3913   */\n  swap2\n  pop\n    /* \"#utility.yul\":3801:3919   */\n  pop\n    /* \"#utility.yul\":3750:3919   */\n  swap3\n  swap2\n  pop\n  pop\n  jump\t// out\n    /* \"#utility.yul\":3924:4219   */\ntag_102:\n    /* \"#utility.yul\":4000:4004   */\n  0x00\n    /* \"#utility.yul\":4146:4175   */\n  tag_152\n    /* \"#utility.yul\":4171:4174   */\n  dup4\n    /* \"#utility.yul\":4165:4169   */\n  dup4\n    /* \"#utility.yul\":4146:4175   */\n  tag_101\n  jump\t// in\ntag_152:\n    /* \"#utility.yul\":4138:4175   */\n  swap2\n  pop\n    /* \"#utility.yul\":4208:4211   */\n  dup3\n    /* \"#utility.yul\":4205:4206   */\n  0x02\n    /* \"#utility.yul\":4201:4212   */\n  mul\n    /* \"#utility.yul\":4195:4199   */\n  dup3\n    /* \"#utility.yul\":4192:4213   */\n  or\n    /* \"#utility.yul\":4184:4213   */\n  swap1\n  pop\n    /* \"#utility.yul\":3924:4219   */\n  swap3\n  swap2\n  pop\n  pop\n  jump\t// out\n    /* \"#utility.yul\":4224:5687   */\ntag_18:\n    /* \"#utility.yul\":4339:4342   */\n  dup2\n    /* \"#utility.yul\":4333:4337   */\n  dup2\n    /* \"#utility.yul\":4330:4343   */\n  sub\n    /* \"#utility.yul\":4327:4353   */\n  tag_154\n  jumpi\n    /* \"#utility.yul\":4346:4351   */\n  pop\n  pop\n  jump(tag_153)\n    /* \"#utility.yul\":4327:4353   */\ntag_154:\n    /* \"#utility.yul\":4377:4415   */\n  tag_155\n    /* \"#utility.yul\":4411:4414   */\n  dup3\n    /* \"#utility.yul\":4377:4415   */\n  tag_84\n  jump\t// in\ntag_155:\n    /* \"#utility.yul\":4480:4498   */\n  0xffffffffffffffff\n    /* \"#utility.yul\":4472:4478   */\n  dup2\n    /* \"#utility.yul\":4469:4499   */\n  gt\n    /* \"#utility.yul\":4466:4522   */\n  iszero\n  tag_156\n  jumpi\n    /* \"#utility.yul\":4502:4520   */\n  tag_157\n  tag_85\n  jump\t// in\ntag_157:\n    /* \"#utility.yul\":4466:4522   */\ntag_156:\n    /* \"#utility.yul\":4546:4584   */\n  tag_158\n    /* \"#utility.yul\":4578:4582   */\n  dup3\n    /* \"#utility.yul\":4572:4583   */\n  sload\n    /* \"#utility.yul\":4546:4584   */\n  tag_79\n  jump\t// in\ntag_158:\n    /* \"#utility.yul\":4631:4698   */\n  tag_159\n    /* \"#utility.yul\":4691:4697   */\n  dup3\n    /* \"#utility.yul\":4683:4689   */\n  dup3\n    /* \"#utility.yul\":4677:4681   */\n  dup6\n    /* \"#utility.yul\":4631:4698   */\n  tag_99\n  jump\t// in\ntag_159:\n    /* \"#utility.yul\":4725:4726   */\n  0x00\n    /* \"#utility.yul\":4754:4756   */\n  0x1f\n    /* \"#utility.yul\":4746:4752   */\n  dup4\n    /* \"#utility.yul\":4743:4757   */\n  gt\n    /* \"#utility.yul\":4771:4772   */\n  0x01\n    /* \"#utility.yul\":4766:5442   */\n  dup2\n  eq\n  tag_161\n  jumpi\n    /* \"#utility.yul\":5486:5487   */\n  0x00\n    /* \"#utility.yul\":5503:5509   */\n  dup5\n    /* \"#utility.yul\":5500:5577   */\n  iszero\n  tag_162\n  jumpi\n    /* \"#utility.yul\":5552:5561   */\n  dup3\n    /* \"#utility.yul\":5547:5550   */\n  dup8\n    /* \"#utility.yul\":5543:5562   */\n  add\n    /* \"#utility.yul\":5537:5563   */\n  sload\n    /* \"#utility.yul\":5528:5563   */\n  swap1\n  pop\n    /* \"#utility.yul\":5500:5577   */\ntag_162:\n    /* \"#utility.yul\":5603:5670   */\n  tag_163\n    /* \"#utility.yul\":5663:5669   */\n  dup6\n    /* \"#utility.yul\":5656:5661   */\n  dup3\n    /* \"#utility.yul\":5603:5670   */\n  tag_102\n  jump\t// in\ntag_163:\n    /* \"#utility.yul\":5597:5601   */\n  dup7\n    /* \"#utility.yul\":5590:5671   */\n  sstore\n    /* \"#utility.yul\":5459:5681   */\n  pop\n    /* \"#utility.yul\":4736:5681   */\n  jump(tag_160)\n    /* \"#utility.yul\":4766:5442   */\ntag_161:\n    /* \"#utility.yul\":4818:4822   */\n  0x1f\n    /* \"#utility.yul\":4814:4823   */\n  not\n    /* \"#utility.yul\":4806:4812   */\n  dup5\n    /* \"#utility.yul\":4802:4824   */\n  and\n    /* \"#utility.yul\":4844:4884   */\n  tag_164\n    /* \"#utility.yul\":4880:4883   */\n  dup8\n    /* \"#utility.yul\":4844:4884   */\n  tag_87\n  jump\t// in\ntag_164:\n    /* \"#utility.yul\":4837:4884   */\n  swap7\n  pop\n    /* \"#utility.yul\":4911:4948   */\n  tag_165\n    /* \"#utility.yul\":4943:4947   */\n  dup7\n    /* \"#utility.yul\":4911:4948   */\n  tag_86\n  jump\t// in\ntag_165:\n    /* \"#utility.yul\":4970:4971   */\n  0x00\n    /* \"#utility.yul\":4984:5191   */\ntag_166:\n    /* \"#utility.yul\":4998:5005   */\n  dup3\n    /* \"#utility.yul\":4995:4996   */\n  dup2\n    /* \"#utility.yul\":4992:5006   */\n  lt\n    /* \"#utility.yul\":4984:5191   */\n  iszero\n  tag_168\n  jumpi\n    /* \"#utility.yul\":5077:5086   */\n  dup5\n    /* \"#utility.yul\":5072:5075   */\n  dup10\n    /* \"#utility.yul\":5068:5087   */\n  add\n    /* \"#utility.yul\":5062:5088   */\n  sload\n    /* \"#utility.yul\":5054:5060   */\n  dup3\n    /* \"#utility.yul\":5047:5089   */\n  sstore\n    /* \"#utility.yul\":5128:5129   */\n  0x01\n    /* \"#utility.yul\":5120:5126   */\n  dup3\n    /* \"#utility.yul\":5116:5130   */\n  add\n    /* \"#utility.yul\":5106:5130   */\n  swap2\n  pop\n    /* \"#utility.yul\":5175:5176   */\n  0x01\n    /* \"#utility.yul\":5164:5173   */\n  dup6\n    /* \"#utility.yul\":5160:5177   */\n  add\n    /* \"#utility.yul\":5147:5177   */\n  swap5\n  pop\n    /* \"#utility.yul\":5021:5025   */\n  0x20\n    /* \"#utility.yul\":5018:5019   */\n  dup2\n    /* \"#utility.yul\":5014:5026   */\n  add\n    /* \"#utility.yul\":5009:5026   */\n  swap1\n  pop\n    /* \"#utility.yul\":4984:5191   */\n  jump(tag_166)\ntag_168:\n    /* \"#utility.yul\":5219:5225   */\n  dup7\n    /* \"#utility.yul\":5210:5217   */\n  dup4\n    /* \"#utility.yul\":5207:5226   */\n  lt\n    /* \"#utility.yul\":5204:5383   */\n  iszero\n  tag_169\n  jumpi\n    /* \"#utility.yul\":5277:5286   */\n  dup5\n    /* \"#utility.yul\":5272:5275   */\n  dup10\n    /* \"#utility.yul\":5268:5287   */\n  add\n    /* \"#utility.yul\":5262:5288   */\n  sload\n    /* \"#utility.yul\":5320:5368   */\n  tag_170\n    /* \"#utility.yul\":5362:5366   */\n  0x1f\n    /* \"#utility.yul\":5354:5360   */\n  dup10\n    /* \"#utility.yul\":5350:5367   */\n  and\n    /* \"#utility.yul\":5339:5348   */\n  dup3\n    /* \"#utility.yul\":5320:5368   */\n  tag_101\n  jump\t// in\ntag_170:\n    /* \"#utility.yul\":5312:5318   */\n  dup4\n    /* \"#utility.yul\":5305:5369   */\n  sstore\n    /* \"#utility.yul\":5227:5383   */\n  pop\n    /* \"#utility.yul\":5204:5383   */\ntag_169:\n    /* \"#utility.yul\":5429:5430   */\n  0x01\n    /* \"#utility.yul\":5425:5426   */\n  0x02\n    /* \"#utility.yul\":5417:5423   */\n  dup9\n    /* \"#utility.yul\":5413:5427   */\n  mul\n    /* \"#utility.yul\":5409:5431   */\n  add\n    /* \"#utility.yul\":5403:5407   */\n  dup9\n    /* \"#utility.yul\":5396:5432   */\n  sstore\n    /* \"#utility.yul\":4773:5442   */\n  pop\n  pop\n  pop\n    /* \"#utility.yul\":4736:5681   */\ntag_160:\n  pop\n    /* \"#utility.yul\":4317:5687   */\n  pop\n  pop\n  pop\n    /* \"#utility.yul\":4224:5687   */\n  pop\n  pop\ntag_153:\n  jump\t// out\n    /* \"#utility.yul\":5693:5792   */\ntag_103:\n    /* \"#utility.yul\":5745:5751   */\n  0x00\n    /* \"#utility.yul\":5779:5784   */\n  dup2\n    /* \"#utility.yul\":5773:5785   */\n  mload\n    /* \"#utility.yul\":5763:5785   */\n  swap1\n  pop\n    /* \"#utility.yul\":5693:5792   */\n  swap2\n  swap1\n  pop\n  jump\t// out\n    /* \"#utility.yul\":5798:7193   */\ntag_59:\n    /* \"#utility.yul\":5915:5952   */\n  tag_173\n    /* \"#utility.yul\":5948:5951   */\n  dup3\n    /* \"#utility.yul\":5915:5952   */\n  tag_103\n  jump\t// in\ntag_173:\n    /* \"#utility.yul\":6017:6035   */\n  0xffffffffffffffff\n    /* \"#utility.yul\":6009:6015   */\n  dup2\n    /* \"#utility.yul\":6006:6036   */\n  gt\n    /* \"#utility.yul\":6003:6059   */\n  iszero\n  tag_174\n  jumpi\n    /* \"#utility.yul\":6039:6057   */\n  tag_175\n  tag_85\n  jump\t// in\ntag_175:\n    /* \"#utility.yul\":6003:6059   */\ntag_174:\n    /* \"#utility.yul\":6083:6121   */\n  tag_176\n    /* \"#utility.yul\":6115:6119   */\n  dup3\n    /* \"#utility.yul\":6109:6120   */\n  sload\n    /* \"#utility.yul\":6083:6121   */\n  tag_79\n  jump\t// in\ntag_176:\n    /* \"#utility.yul\":6168:6235   */\n  tag_177\n    /* \"#utility.yul\":6228:6234   */\n  dup3\n    /* \"#utility.yul\":6220:6226   */\n  dup3\n    /* \"#utility.yul\":6214:6218   */\n  dup6\n    /* \"#utility.yul\":6168:6235   */\n  tag_99\n  jump\t// in\ntag_177:\n    /* \"#utility.yul\":6262:6263   */\n  0x00\n    /* \"#utility.yul\":6286:6290   */\n  0x20\n    /* \"#utility.yul\":6273:6290   */\n  swap1\n  pop\n    /* \"#utility.yul\":6318:6320   */\n  0x1f\n    /* \"#utility.yul\":6310:6316   */\n  dup4\n    /* \"#utility.yul\":6307:6321   */\n  gt\n    /* \"#utility.yul\":6335:6336   */\n  0x01\n    /* \"#utility.yul\":6330:6948   */\n  dup2\n  eq\n  tag_179\n  jumpi\n    /* \"#utility.yul\":6992:6993   */\n  0x00\n    /* \"#utility.yul\":7009:7015   */\n  dup5\n    /* \"#utility.yul\":7006:7083   */\n  iszero\n  tag_180\n  jumpi\n    /* \"#utility.yul\":7058:7067   */\n  dup3\n    /* \"#utility.yul\":7053:7056   */\n  dup8\n    /* \"#utility.yul\":7049:7068   */\n  add\n    /* \"#utility.yul\":7043:7069   */\n  mload\n    /* \"#utility.yul\":7034:7069   */\n  swap1\n  pop\n    /* \"#utility.yul\":7006:7083   */\ntag_180:\n    /* \"#utility.yul\":7109:7176   */\n  tag_181\n    /* \"#utility.yul\":7169:7175   */\n  dup6\n    /* \"#utility.yul\":7162:7167   */\n  dup3\n    /* \"#utility.yul\":7109:7176   */\n  tag_102\n  jump\t// in\ntag_181:\n    /* \"#utility.yul\":7103:7107   */\n  dup7\n    /* \"#utility.yul\":7096:7177   */\n  sstore\n    /* \"#utility.yul\":6965:7187   */\n  pop\n    /* \"#utility.yul\":6300:7187   */\n  jump(tag_178)\n    /* \"#utility.yul\":6330:6948   */\ntag_179:\n    /* \"#utility.yul\":6382:6386   */\n  0x1f\n    /* \"#utility.yul\":6378:6387   */\n  not\n    /* \"#utility.yul\":6370:6376   */\n  dup5\n    /* \"#utility.yul\":6366:6388   */\n  and\n    /* \"#utility.yul\":6416:6453   */\n  tag_182\n    /* \"#utility.yul\":6448:6452   */\n  dup7\n    /* \"#utility.yul\":6416:6453   */\n  tag_86\n  jump\t// in\ntag_182:\n    /* \"#utility.yul\":6475:6476   */\n  0x00\n    /* \"#utility.yul\":6489:6697   */\ntag_183:\n    /* \"#utility.yul\":6503:6510   */\n  dup3\n    /* \"#utility.yul\":6500:6501   */\n  dup2\n    /* \"#utility.yul\":6497:6511   */\n  lt\n    /* \"#utility.yul\":6489:6697   */\n  iszero\n  tag_185\n  jumpi\n    /* \"#utility.yul\":6582:6591   */\n  dup5\n    /* \"#utility.yul\":6577:6580   */\n  dup10\n    /* \"#utility.yul\":6573:6592   */\n  add\n    /* \"#utility.yul\":6567:6593   */\n  mload\n    /* \"#utility.yul\":6559:6565   */\n  dup3\n    /* \"#utility.yul\":6552:6594   */\n  sstore\n    /* \"#utility.yul\":6633:6634   */\n  0x01\n    /* \"#utility.yul\":6625:6631   */\n  dup3\n    /* \"#utility.yul\":6621:6635   */\n  add\n    /* \"#utility.yul\":6611:6635   */\n  swap2\n  pop\n    /* \"#utility.yul\":6680:6682   */\n  0x20\n    /* \"#utility.yul\":6669:6678   */\n  dup6\n    /* \"#utility.yul\":6665:6683   */\n  add\n    /* \"#utility.yul\":6652:6683   */\n  swap5\n  pop\n    /* \"#utility.yul\":6526:6530   */\n  0x20\n    /* \"#utility.yul\":6523:6524   */\n  dup2\n    /* \"#utility.yul\":6519:6531   */\n  add\n    /* \"#utility.yul\":6514:6531   */\n  swap1\n  pop\n    /* \"#utility.yul\":6489:6697   */\n  jump(tag_183)\ntag_185:\n    /* \"#utility.yul\":6725:6731   */\n  dup7\n    /* \"#utility.yul\":6716:6723   */\n  dup4\n    /* \"#utility.yul\":6713:6732   */\n  lt\n    /* \"#utility.yul\":6710:6889   */\n  iszero\n  tag_186\n  jumpi\n    /* \"#utility.yul\":6783:6792   */\n  dup5\n    /* \"#utility.yul\":6778:6781   */\n  dup10\n    /* \"#utility.yul\":6774:6793   */\n  add\n    /* \"#utility.yul\":6768:6794   */\n  mload\n    /* \"#utility.yul\":6826:6874   */\n  tag_187\n    /* \"#utility.yul\":6868:6872   */\n  0x1f\n    /* \"#utility.yul\":6860:6866   */\n  dup10\n    /* \"#utility.yul\":6856:6873   */\n  and\n    /* \"#utility.yul\":6845:6854   */\n  dup3\n    /* \"#utility.yul\":6826:6874   */\n  tag_101\n  jump\t// in\ntag_187:\n    /* \"#utility.yul\":6818:6824   */\n  dup4\n    /* \"#utility.yul\":6811:6875   */\n  sstore\n    /* \"#utility.yul\":6733:6889   */\n  pop\n    /* \"#utility.yul\":6710:6889   */\ntag_186:\n    /* \"#utility.yul\":6935:6936   */\n  0x01\n    /* \"#utility.yul\":6931:6932   */\n  0x02\n    /* \"#utility.yul\":6923:6929   */\n  dup9\n    /* \"#utility.yul\":6919:6933   */\n  mul\n    /* \"#utility.yul\":6915:6937   */\n  add\n    /* \"#utility.yul\":6909:6913   */\n  dup9\n    /* \"#utility.yul\":6902:6938   */\n  sstore\n    /* \"#utility.yul\":6337:6948   */\n  pop\n  pop\n  pop\n    /* \"#utility.yul\":6300:7187   */\ntag_178:\n  pop\n    /* \"#utility.yul\":5890:7193   */\n  pop\n  pop\n  pop\n    /* \"#utility.yul\":5798:7193   */\n  pop\n  pop\n  jump\t// out\n    /* \"RoamingDataManagement.sol\":57:2987  contract RoamingDataManagement {... */\ntag_54:\n  dataSize(sub_0)\n  dup1\n  dataOffset(sub_0)\n  0x00\n  codecopy\n  0x00\n  return\nstop\n\nsub_0: assembly {\n        /* \"RoamingDataManagement.sol\":57:2987  contract RoamingDataManagement {... */\n      mstore(0x40, 0x80)\n      callvalue\n      dup1\n      iszero\n      tag_1\n      jumpi\n      0x00\n      dup1\n      revert\n    tag_1:\n      pop\n      jumpi(tag_2, lt(calldatasize, 0x04))\n      shr(0xe0, calldataload(0x00))\n      dup1\n      0x704f1b94\n      gt\n      tag_10\n      jumpi\n      dup1\n      0x704f1b94\n      eq\n      tag_6\n      jumpi\n      dup1\n      0x8f1d613d\n      eq\n      tag_7\n      jumpi\n      dup1\n      0xa8367070\n      eq\n      tag_8\n      jumpi\n      dup1\n      0xc2f37305\n      eq\n      tag_9\n      jumpi\n      jump(tag_2)\n    tag_10:\n      dup1\n      0x0a02dcc7\n      eq\n      tag_3\n      jumpi\n      dup1\n      0x3073902f\n      eq\n      tag_4\n      jumpi\n      dup1\n      0x4c3912e7\n      eq\n      tag_5\n      jumpi\n    tag_2:\n      0x00\n      dup1\n      revert\n        /* \"RoamingDataManagement.sol\":190:283  string[] public serviceProviders = [\"Rogers\", \"Fido\", \"T-Mobile\", \"Cricket\", \"Bells\", \"AT&T\"] */\n    tag_3:\n      tag_11\n      0x04\n      dup1\n      calldatasize\n      sub\n      dup2\n      add\n      swap1\n      tag_12\n      swap2\n      swap1\n      tag_13\n      jump\t// in\n    tag_12:\n      tag_14\n      jump\t// in\n    tag_11:\n      mload(0x40)\n      tag_15\n      swap2\n      swap1\n      tag_16\n      jump\t// in\n    tag_15:\n      mload(0x40)\n      dup1\n      swap2\n      sub\n      swap1\n      return\n        /* \"RoamingDataManagement.sol\":2721:2855  function fetchUserDataRecords(string memory imsi) public view returns(ServiceUsage[] memory) {... */\n    tag_4:\n      tag_17\n      0x04\n      dup1\n      calldatasize\n      sub\n      dup2\n      add\n      swap1\n      tag_18\n      swap2\n      swap1\n      tag_19\n      jump\t// in\n    tag_18:\n      tag_20\n      jump\t// in\n    tag_17:\n      mload(0x40)\n      tag_21\n      swap2\n      swap1\n      tag_22\n      jump\t// in\n    tag_21:\n      mload(0x40)\n      dup1\n      swap2\n      sub\n      swap1\n      return\n        /* \"RoamingDataManagement.sol\":649:713  string[] public serviceTypes = [\"Voice Call\", \"SMS\", \"Internet\"] */\n    tag_5:\n      tag_23\n      0x04\n      dup1\n      calldatasize\n      sub\n      dup2\n      add\n      swap1\n      tag_24\n      swap2\n      swap1\n      tag_13\n      jump\t// in\n    tag_24:\n      tag_25\n      jump\t// in\n    tag_23:\n      mload(0x40)\n      tag_26\n      swap2\n      swap1\n      tag_16\n      jump\t// in\n    tag_26:\n      mload(0x40)\n      dup1\n      swap2\n      sub\n      swap1\n      return\n        /* \"RoamingDataManagement.sol\":1686:1795  function registerUser(string memory imsi) public {... */\n    tag_6:\n      tag_27\n      0x04\n      dup1\n      calldatasize\n      sub\n      dup2\n      add\n      swap1\n      tag_28\n      swap2\n      swap1\n      tag_19\n      jump\t// in\n    tag_28:\n      tag_29\n      jump\t// in\n    tag_27:\n      stop\n        /* \"RoamingDataManagement.sol\":1801:2307  function uploadUserDataSummary(string memory imsi, string memory number, string memory serviceProvider, ... */\n    tag_7:\n      tag_30\n      0x04\n      dup1\n      calldatasize\n      sub\n      dup2\n      add\n      swap1\n      tag_31\n      swap2\n      swap1\n      tag_32\n      jump\t// in\n    tag_31:\n      tag_33\n      jump\t// in\n    tag_30:\n      stop\n        /* \"RoamingDataManagement.sol\":2861:2985  function fetchUserDataSummary(string memory imsi) public view returns(User memory) {... */\n    tag_8:\n      tag_34\n      0x04\n      dup1\n      calldatasize\n      sub\n      dup2\n      add\n      swap1\n      tag_35\n      swap2\n      swap1\n      tag_19\n      jump\t// in\n    tag_35:\n      tag_36\n      jump\t// in\n    tag_34:\n      mload(0x40)\n      tag_37\n      swap2\n      swap1\n      tag_38\n      jump\t// in\n    tag_37:\n      mload(0x40)\n      dup1\n      swap2\n      sub\n      swap1\n      return\n        /* \"RoamingDataManagement.sol\":2314:2715  function uploadUserDataRecord(string memory imsi, string memory serviceType, string memory startTime, string memory endTime) public {... */\n    tag_9:\n      tag_39\n      0x04\n      dup1\n      calldatasize\n      sub\n      dup2\n      add\n      swap1\n      tag_40\n      swap2\n      swap1\n      tag_41\n      jump\t// in\n    tag_40:\n      tag_42\n      jump\t// in\n    tag_39:\n      stop\n        /* \"RoamingDataManagement.sol\":190:283  string[] public serviceProviders = [\"Rogers\", \"Fido\", \"T-Mobile\", \"Cricket\", \"Bells\", \"AT&T\"] */\n    tag_14:\n      0x00\n      dup2\n      dup2\n      sload\n      dup2\n      lt\n      tag_43\n      jumpi\n      0x00\n      dup1\n      revert\n    tag_43:\n      swap1\n      0x00\n      mstore\n      keccak256(0x00, 0x20)\n      add\n      0x00\n      swap2\n      pop\n      swap1\n      pop\n      dup1\n      sload\n      tag_45\n      swap1\n      tag_46\n      jump\t// in\n    tag_45:\n      dup1\n      0x1f\n      add\n      0x20\n      dup1\n      swap2\n      div\n      mul\n      0x20\n      add\n      mload(0x40)\n      swap1\n      dup2\n      add\n      0x40\n      mstore\n      dup1\n      swap3\n      swap2\n      swap1\n      dup2\n      dup2\n      mstore\n      0x20\n      add\n      dup3\n      dup1\n      sload\n      tag_47\n      swap1\n      tag_46\n      jump\t// in\n    tag_47:\n      dup1\n      iszero\n      tag_48\n      jumpi\n      dup1\n      0x1f\n      lt\n      tag_49\n      jumpi\n      0x0100\n      dup1\n      dup4\n      sload\n      div\n      mul\n      dup4\n      mstore\n      swap2\n      0x20\n      add\n      swap2\n      jump(tag_48)\n    tag_49:\n      dup3\n      add\n      swap2\n      swap1\n      0x00\n      mstore\n      keccak256(0x00, 0x20)\n      swap1\n    tag_50:\n      dup2\n      sload\n      dup2\n      mstore\n      swap1\n      0x01\n      add\n      swap1\n      0x20\n      add\n      dup1\n      dup4\n      gt\n      tag_50\n      jumpi\n      dup3\n      swap1\n      sub\n      0x1f\n      and\n      dup3\n      add\n      swap2\n    tag_48:\n      pop\n      pop\n      pop\n      pop\n      pop\n      dup2\n      jump\t// out\n        /* \"RoamingDataManagement.sol\":2721:2855  function fetchUserDataRecords(string memory imsi) public view returns(ServiceUsage[] memory) {... */\n    tag_20:\n        /* \"RoamingDataManagement.sol\":2791:2812  ServiceUsage[] memory */\n      0x60\n        /* \"RoamingDataManagement.sol\":2831:2842  dataRecords */\n      0x06\n        /* \"RoamingDataManagement.sol\":2843:2847  imsi */\n      dup3\n        /* \"RoamingDataManagement.sol\":2831:2848  dataRecords[imsi] */\n      mload(0x40)\n      tag_52\n      swap2\n      swap1\n      tag_53\n      jump\t// in\n    tag_52:\n      swap1\n      dup2\n      mstore\n      0x20\n      add\n      mload(0x40)\n      dup1\n      swap2\n      sub\n      swap1\n      keccak256\n        /* \"RoamingDataManagement.sol\":2824:2848  return dataRecords[imsi] */\n      dup1\n      sload\n      dup1\n      0x20\n      mul\n      0x20\n      add\n      mload(0x40)\n      swap1\n      dup2\n      add\n      0x40\n      mstore\n      dup1\n      swap3\n      swap2\n      swap1\n      dup2\n      dup2\n      mstore\n      0x20\n      add\n      0x00\n      swap1\n    tag_54:\n      dup3\n      dup3\n      lt\n      iszero\n      tag_55\n      jumpi\n      dup4\n      dup3\n      swap1\n      0x00\n      mstore\n      keccak256(0x00, 0x20)\n      swap1\n      0x04\n      mul\n      add\n      mload(0x40)\n      dup1\n      0x80\n      add\n      0x40\n      mstore\n      swap1\n      dup2\n      0x00\n      dup3\n      add\n      dup1\n      sload\n      tag_57\n      swap1\n      tag_46\n      jump\t// in\n    tag_57:\n      dup1\n      0x1f\n      add\n      0x20\n      dup1\n      swap2\n      div\n      mul\n      0x20\n      add\n      mload(0x40)\n      swap1\n      dup2\n      add\n      0x40\n      mstore\n      dup1\n      swap3\n      swap2\n      swap1\n      dup2\n      dup2\n      mstore\n      0x20\n      add\n      dup3\n      dup1\n      sload\n      tag_58\n      swap1\n      tag_46\n      jump\t// in\n    tag_58:\n      dup1\n      iszero\n      tag_59\n      jumpi\n      dup1\n      0x1f\n      lt\n      tag_60\n      jumpi\n      0x0100\n      dup1\n      dup4\n      sload\n      div\n      mul\n      dup4\n      mstore\n      swap2\n      0x20\n      add\n      swap2\n      jump(tag_59)\n    tag_60:\n      dup3\n      add\n      swap2\n      swap1\n      0x00\n      mstore\n      keccak256(0x00, 0x20)\n      swap1\n    tag_61:\n      dup2\n      sload\n      dup2\n      mstore\n      swap1\n      0x01\n      add\n      swap1\n      0x20\n      add\n      dup1\n      dup4\n      gt\n      tag_61\n      jumpi\n      dup3\n      swap1\n      sub\n      0x1f\n      and\n      dup3\n      add\n      swap2\n    tag_59:\n      pop\n      pop\n      pop\n      pop\n      pop\n      dup2\n      mstore\n      0x20\n      add\n      0x01\n      dup3\n      add\n      dup1\n      sload\n      tag_62\n      swap1\n      tag_46\n      jump\t// in\n    tag_62:\n      dup1\n      0x1f\n      add\n      0x20\n      dup1\n      swap2\n      div\n      mul\n      0x20\n      add\n      mload(0x40)\n      swap1\n      dup2\n      add\n      0x40\n      mstore\n      dup1\n      swap3\n      swap2\n      swap1\n      dup2\n      dup2\n      mstore\n      0x20\n      add\n      dup3\n      dup1\n      sload\n      tag_63\n      swap1\n      tag_46\n      jump\t// in\n    tag_63:\n      dup1\n      iszero\n      tag_64\n      jumpi\n      dup1\n      0x1f\n      lt\n      tag_65\n      jumpi\n      0x0100\n      dup1\n      dup4\n      sload\n      div\n      mul\n      dup4\n      mstore\n      swap2\n      0x20\n      add\n      swap2\n      jump(tag_64)\n    tag_65:\n      dup3\n      add\n      swap2\n      swap1\n      0x00\n      mstore\n      keccak256(0x00, 0x20)\n      swap1\n    tag_66:\n      dup2\n      sload\n      dup2\n      mstore\n      swap1\n      0x01\n      add\n      swap1\n      0x20\n      add\n      dup1\n      dup4\n      gt\n      tag_66\n      jumpi\n      dup3\n      swap1\n      sub\n      0x1f\n      and\n      dup3\n      add\n      swap2\n    tag_64:\n      pop\n      pop\n      pop\n      pop\n      pop\n      dup2\n      mstore\n      0x20\n      add\n      0x02\n      dup3\n      add\n      dup1\n      sload\n      tag_67\n      swap1\n      tag_46\n      jump\t// in\n    tag_67:\n      dup1\n      0x1f\n      add\n      0x20\n      dup1\n      swap2\n      div\n      mul\n      0x20\n      add\n      mload(0x40)\n      swap1\n      dup2\n      add\n      0x40\n      mstore\n      dup1\n      swap3\n      swap2\n      swap1\n      dup2\n      dup2\n      mstore\n      0x20\n      add\n      dup3\n      dup1\n      sload\n      tag_68\n      swap1\n      tag_46\n      jump\t// in\n    tag_68:\n      dup1\n      iszero\n      tag_69\n      jumpi\n      dup1\n      0x1f\n      lt\n      tag_70\n      jumpi\n      0x0100\n      dup1\n      dup4\n      sload\n      div\n      mul\n      dup4\n      mstore\n      swap2\n      0x20\n      add\n      swap2\n      jump(tag_69)\n    tag_70:\n      dup3\n      add\n      swap2\n      swap1\n      0x00\n      mstore\n      keccak256(0x00, 0x20)\n      swap1\n    tag_71:\n      dup2\n      sload\n      dup2\n      mstore\n      swap1\n      0x01\n      add\n      swap1\n      0x20\n      add\n      dup1\n      dup4\n      gt\n      tag_71\n      jumpi\n      dup3\n      swap1\n      sub\n      0x1f\n      and\n      dup3\n      add\n      swap2\n    tag_69:\n      pop\n      pop\n      pop\n      pop\n      pop\n      dup2\n      mstore\n      0x20\n      add\n      0x03\n      dup3\n      add\n      dup1\n      sload\n      tag_72\n      swap1\n      tag_46\n      jump\t// in\n    tag_72:\n      dup1\n      0x1f\n      add\n      0x20\n      dup1\n      swap2\n      div\n      mul\n      0x20\n      add\n      mload(0x40)\n      swap1\n      dup2\n      add\n      0x40\n      mstore\n      dup1\n      swap3\n      swap2\n      swap1\n      dup2\n      dup2\n      mstore\n      0x20\n      add\n      dup3\n      dup1\n      sload\n      tag_73\n      swap1\n      tag_46\n      jump\t// in\n    tag_73:\n      dup1\n      iszero\n      tag_74\n      jumpi\n      dup1\n      0x1f\n      lt\n      tag_75\n      jumpi\n      0x0100\n      dup1\n      dup4\n      sload\n      div\n      mul\n      dup4\n      mstore\n      swap2\n      0x20\n      add\n      swap2\n      jump(tag_74)\n    tag_75:\n      dup3\n      add\n      swap2\n      swap1\n      0x00\n      mstore\n      keccak256(0x00, 0x20)\n      swap1\n    tag_76:\n      dup2\n      sload\n      dup2\n      mstore\n      swap1\n      0x01\n      add\n      swap1\n      0x20\n      add\n      dup1\n      dup4\n      gt\n      tag_76\n      jumpi\n      dup3\n      swap1\n      sub\n      0x1f\n      and\n      dup3\n      add\n      swap2\n    tag_74:\n      pop\n      pop\n      pop\n      pop\n      pop\n      dup2\n      mstore\n      pop\n      pop\n      dup2\n      mstore\n      0x20\n      add\n      swap1\n      0x01\n      add\n      swap1\n      jump(tag_54)\n    tag_55:\n      pop\n      pop\n      pop\n      pop\n      swap1\n      pop\n        /* \"RoamingDataManagement.sol\":2721:2855  function fetchUserDataRecords(string memory imsi) public view returns(ServiceUsage[] memory) {... */\n      swap2\n      swap1\n      pop\n      jump\t// out\n        /* \"RoamingDataManagement.sol\":649:713  string[] public serviceTypes = [\"Voice Call\", \"SMS\", \"Internet\"] */\n    tag_25:\n      0x03\n      dup2\n      dup2\n      sload\n      dup2\n      lt\n      tag_77\n      jumpi\n      0x00\n      dup1\n      revert\n    tag_77:\n      swap1\n      0x00\n      mstore\n      keccak256(0x00, 0x20)\n      add\n      0x00\n      swap2\n      pop\n      swap1\n      pop\n      dup1\n      sload\n      tag_79\n      swap1\n      tag_46\n      jump\t// in\n    tag_79:\n      dup1\n      0x1f\n      add\n      0x20\n      dup1\n      swap2\n      div\n      mul\n      0x20\n      add\n      mload(0x40)\n      swap1\n      dup2\n      add\n      0x40\n      mstore\n      dup1\n      swap3\n      swap2\n      swap1\n      dup2\n      dup2\n      mstore\n      0x20\n      add\n      dup3\n      dup1\n      sload\n      tag_80\n      swap1\n      tag_46\n      jump\t// in\n    tag_80:\n      dup1\n      iszero\n      tag_81\n      jumpi\n      dup1\n      0x1f\n      lt\n      tag_82\n      jumpi\n      0x0100\n      dup1\n      dup4\n      sload\n      div\n      mul\n      dup4\n      mstore\n      swap2\n      0x20\n      add\n      swap2\n      jump(tag_81)\n    tag_82:\n      dup3\n      add\n      swap2\n      swap1\n      0x00\n      mstore\n      keccak256(0x00, 0x20)\n      swap1\n    tag_83:\n      dup2\n      sload\n      dup2\n      mstore\n      swap1\n      0x01\n      add\n      swap1\n      0x20\n      add\n      dup1\n      dup4\n      gt\n      tag_83\n      jumpi\n      dup3\n      swap1\n      sub\n      0x1f\n      and\n      dup3\n      add\n      swap2\n    tag_81:\n      pop\n      pop\n      pop\n      pop\n      pop\n      dup2\n      jump\t// out\n        /* \"RoamingDataManagement.sol\":1686:1795  function registerUser(string memory imsi) public {... */\n    tag_29:\n        /* \"RoamingDataManagement.sol\":1745:1754  userTable */\n      0x04\n        /* \"RoamingDataManagement.sol\":1755:1764  operators */\n      0x02\n        /* \"RoamingDataManagement.sol\":1755:1776  operators[msg.sender] */\n      0x00\n        /* \"RoamingDataManagement.sol\":1765:1775  msg.sender */\n      caller\n        /* \"RoamingDataManagement.sol\":1755:1776  operators[msg.sender] */\n      0xffffffffffffffffffffffffffffffffffffffff\n      and\n      0xffffffffffffffffffffffffffffffffffffffff\n      and\n      dup2\n      mstore\n      0x20\n      add\n      swap1\n      dup2\n      mstore\n      0x20\n      add\n      0x00\n      keccak256\n        /* \"RoamingDataManagement.sol\":1745:1777  userTable[operators[msg.sender]] */\n      mload(0x40)\n      tag_85\n      swap2\n      swap1\n      tag_86\n      jump\t// in\n    tag_85:\n      swap1\n      dup2\n      mstore\n      0x20\n      add\n      mload(0x40)\n      dup1\n      swap2\n      sub\n      swap1\n      keccak256\n        /* \"RoamingDataManagement.sol\":1783:1787  imsi */\n      dup2\n        /* \"RoamingDataManagement.sol\":1745:1788  userTable[operators[msg.sender]].push(imsi) */\n      swap1\n      dup1\n      0x01\n      dup2\n      sload\n      add\n      dup1\n      dup3\n      sstore\n      dup1\n      swap2\n      pop\n      pop\n      0x01\n      swap1\n      sub\n      swap1\n      0x00\n      mstore\n      keccak256(0x00, 0x20)\n      add\n      0x00\n      swap1\n      swap2\n      swap1\n      swap2\n      swap1\n      swap2\n      pop\n      swap1\n      dup2\n      tag_88\n      swap2\n      swap1\n      tag_89\n      jump\t// in\n    tag_88:\n      pop\n        /* \"RoamingDataManagement.sol\":1686:1795  function registerUser(string memory imsi) public {... */\n      pop\n      jump\t// out\n        /* \"RoamingDataManagement.sol\":1801:2307  function uploadUserDataSummary(string memory imsi, string memory number, string memory serviceProvider, ... */\n    tag_33:\n        /* \"RoamingDataManagement.sol\":2021:2025  imsi */\n      dup6\n        /* \"RoamingDataManagement.sol\":1996:2007  dataSummary */\n      0x05\n        /* \"RoamingDataManagement.sol\":2008:2012  imsi */\n      dup8\n        /* \"RoamingDataManagement.sol\":1996:2013  dataSummary[imsi] */\n      mload(0x40)\n      tag_91\n      swap2\n      swap1\n      tag_53\n      jump\t// in\n    tag_91:\n      swap1\n      dup2\n      mstore\n      0x20\n      add\n      mload(0x40)\n      dup1\n      swap2\n      sub\n      swap1\n      keccak256\n        /* \"RoamingDataManagement.sol\":1996:2018  dataSummary[imsi].imsi */\n      0x00\n      add\n        /* \"RoamingDataManagement.sol\":1996:2025  dataSummary[imsi].imsi = imsi */\n      swap1\n      dup2\n      tag_92\n      swap2\n      swap1\n      tag_89\n      jump\t// in\n    tag_92:\n      pop\n        /* \"RoamingDataManagement.sol\":2062:2068  number */\n      dup5\n        /* \"RoamingDataManagement.sol\":2035:2046  dataSummary */\n      0x05\n        /* \"RoamingDataManagement.sol\":2047:2051  imsi */\n      dup8\n        /* \"RoamingDataManagement.sol\":2035:2052  dataSummary[imsi] */\n      mload(0x40)\n      tag_93\n      swap2\n      swap1\n      tag_53\n      jump\t// in\n    tag_93:\n      swap1\n      dup2\n      mstore\n      0x20\n      add\n      mload(0x40)\n      dup1\n      swap2\n      sub\n      swap1\n      keccak256\n        /* \"RoamingDataManagement.sol\":2035:2059  dataSummary[imsi].number */\n      0x01\n      add\n        /* \"RoamingDataManagement.sol\":2035:2068  dataSummary[imsi].number = number */\n      swap1\n      dup2\n      tag_94\n      swap2\n      swap1\n      tag_89\n      jump\t// in\n    tag_94:\n      pop\n        /* \"RoamingDataManagement.sol\":2114:2129  serviceProvider */\n      dup4\n        /* \"RoamingDataManagement.sol\":2078:2089  dataSummary */\n      0x05\n        /* \"RoamingDataManagement.sol\":2090:2094  imsi */\n      dup8\n        /* \"RoamingDataManagement.sol\":2078:2095  dataSummary[imsi] */\n      mload(0x40)\n      tag_95\n      swap2\n      swap1\n      tag_53\n      jump\t// in\n    tag_95:\n      swap1\n      dup2\n      mstore\n      0x20\n      add\n      mload(0x40)\n      dup1\n      swap2\n      sub\n      swap1\n      keccak256\n        /* \"RoamingDataManagement.sol\":2078:2111  dataSummary[imsi].serviceProvider */\n      0x02\n      add\n        /* \"RoamingDataManagement.sol\":2078:2129  dataSummary[imsi].serviceProvider = serviceProvider */\n      swap1\n      dup2\n      tag_96\n      swap2\n      swap1\n      tag_89\n      jump\t// in\n    tag_96:\n      pop\n        /* \"RoamingDataManagement.sol\":2174:2188  voiceCallUsage */\n      dup3\n        /* \"RoamingDataManagement.sol\":2139:2150  dataSummary */\n      0x05\n        /* \"RoamingDataManagement.sol\":2151:2155  imsi */\n      dup8\n        /* \"RoamingDataManagement.sol\":2139:2156  dataSummary[imsi] */\n      mload(0x40)\n      tag_97\n      swap2\n      swap1\n      tag_53\n      jump\t// in\n    tag_97:\n      swap1\n      dup2\n      mstore\n      0x20\n      add\n      mload(0x40)\n      dup1\n      swap2\n      sub\n      swap1\n      keccak256\n        /* \"RoamingDataManagement.sol\":2139:2171  dataSummary[imsi].voiceCallUsage */\n      0x03\n      add\n        /* \"RoamingDataManagement.sol\":2139:2188  dataSummary[imsi].voiceCallUsage = voiceCallUsage */\n      dup2\n      swap1\n      sstore\n      pop\n        /* \"RoamingDataManagement.sol\":2232:2245  internetUsage */\n      dup2\n        /* \"RoamingDataManagement.sol\":2198:2209  dataSummary */\n      0x05\n        /* \"RoamingDataManagement.sol\":2210:2214  imsi */\n      dup8\n        /* \"RoamingDataManagement.sol\":2198:2215  dataSummary[imsi] */\n      mload(0x40)\n      tag_98\n      swap2\n      swap1\n      tag_53\n      jump\t// in\n    tag_98:\n      swap1\n      dup2\n      mstore\n      0x20\n      add\n      mload(0x40)\n      dup1\n      swap2\n      sub\n      swap1\n      keccak256\n        /* \"RoamingDataManagement.sol\":2198:2229  dataSummary[imsi].internetUsage */\n      0x04\n      add\n        /* \"RoamingDataManagement.sol\":2198:2245  dataSummary[imsi].internetUsage = internetUsage */\n      dup2\n      swap1\n      sstore\n      pop\n        /* \"RoamingDataManagement.sol\":2288:2300  serviceUsage */\n      dup1\n        /* \"RoamingDataManagement.sol\":2255:2266  dataSummary */\n      0x05\n        /* \"RoamingDataManagement.sol\":2267:2271  imsi */\n      dup8\n        /* \"RoamingDataManagement.sol\":2255:2272  dataSummary[imsi] */\n      mload(0x40)\n      tag_99\n      swap2\n      swap1\n      tag_53\n      jump\t// in\n    tag_99:\n      swap1\n      dup2\n      mstore\n      0x20\n      add\n      mload(0x40)\n      dup1\n      swap2\n      sub\n      swap1\n      keccak256\n        /* \"RoamingDataManagement.sol\":2255:2285  dataSummary[imsi].serviceUsage */\n      0x05\n      add\n        /* \"RoamingDataManagement.sol\":2255:2300  dataSummary[imsi].serviceUsage = serviceUsage */\n      dup2\n      swap1\n      sstore\n      pop\n        /* \"RoamingDataManagement.sol\":1801:2307  function uploadUserDataSummary(string memory imsi, string memory number, string memory serviceProvider, ... */\n      pop\n      pop\n      pop\n      pop\n      pop\n      pop\n      jump\t// out\n        /* \"RoamingDataManagement.sol\":2861:2985  function fetchUserDataSummary(string memory imsi) public view returns(User memory) {... */\n    tag_36:\n        /* \"RoamingDataManagement.sol\":2931:2942  User memory */\n      tag_100\n      tag_101\n      jump\t// in\n    tag_100:\n        /* \"RoamingDataManagement.sol\":2961:2972  dataSummary */\n      0x05\n        /* \"RoamingDataManagement.sol\":2973:2977  imsi */\n      dup3\n        /* \"RoamingDataManagement.sol\":2961:2978  dataSummary[imsi] */\n      mload(0x40)\n      tag_103\n      swap2\n      swap1\n      tag_53\n      jump\t// in\n    tag_103:\n      swap1\n      dup2\n      mstore\n      0x20\n      add\n      mload(0x40)\n      dup1\n      swap2\n      sub\n      swap1\n      keccak256\n        /* \"RoamingDataManagement.sol\":2954:2978  return dataSummary[imsi] */\n      mload(0x40)\n      dup1\n      0xc0\n      add\n      0x40\n      mstore\n      swap1\n      dup2\n      0x00\n      dup3\n      add\n      dup1\n      sload\n      tag_104\n      swap1\n      tag_46\n      jump\t// in\n    tag_104:\n      dup1\n      0x1f\n      add\n      0x20\n      dup1\n      swap2\n      div\n      mul\n      0x20\n      add\n      mload(0x40)\n      swap1\n      dup2\n      add\n      0x40\n      mstore\n      dup1\n      swap3\n      swap2\n      swap1\n      dup2\n      dup2\n      mstore\n      0x20\n      add\n      dup3\n      dup1\n      sload\n      tag_105\n      swap1\n      tag_46\n      jump\t// in\n    tag_105:\n      dup1\n      iszero\n      tag_106\n      jumpi\n      dup1\n      0x1f\n      lt\n      tag_107\n      jumpi\n      0x0100\n      dup1\n      dup4\n      sload\n      div\n      mul\n      dup4\n      mstore\n      swap2\n      0x20\n      add\n      swap2\n      jump(tag_106)\n    tag_107:\n      dup3\n      add\n      swap2\n      swap1\n      0x00\n      mstore\n      keccak256(0x00, 0x20)\n      swap1\n    tag_108:\n      dup2\n      sload\n      dup2\n      mstore\n      swap1\n      0x01\n      add\n      swap1\n      0x20\n      add\n      dup1\n      dup4\n      gt\n      tag_108\n      jumpi\n      dup3\n      swap1\n      sub\n      0x1f\n      and\n      dup3\n      add\n      swap2\n    tag_106:\n      pop\n      pop\n      pop\n      pop\n      pop\n      dup2\n      mstore\n      0x20\n      add\n      0x01\n      dup3\n      add\n      dup1\n      sload\n      tag_109\n      swap1\n      tag_46\n      jump\t// in\n    tag_109:\n      dup1\n      0x1f\n      add\n      0x20\n      dup1\n      swap2\n      div\n      mul\n      0x20\n      add\n      mload(0x40)\n      swap1\n      dup2\n      add\n      0x40\n      mstore\n      dup1\n      swap3\n      swap2\n      swap1\n      dup2\n      dup2\n      mstore\n      0x20\n      add\n      dup3\n      dup1\n      sload\n      tag_110\n      swap1\n      tag_46\n      jump\t// in\n    tag_110:\n      dup1\n      iszero\n      tag_111\n      jumpi\n      dup1\n      0x1f\n      lt\n      tag_112\n      jumpi\n      0x0100\n      dup1\n      dup4\n      sload\n      div\n      mul\n      dup4\n      mstore\n      swap2\n      0x20\n      add\n      swap2\n      jump(tag_111)\n    tag_112:\n      dup3\n      add\n      swap2\n      swap1\n      0x00\n      mstore\n      keccak256(0x00, 0x20)\n      swap1\n    tag_113:\n      dup2\n      sload\n      dup2\n      mstore\n      swap1\n      0x01\n      add\n      swap1\n      0x20\n      add\n      dup1\n      dup4\n      gt\n      tag_113\n      jumpi\n      dup3\n      swap1\n      sub\n      0x1f\n      and\n      dup3\n      add\n      swap2\n    tag_111:\n      pop\n      pop\n      pop\n      pop\n      pop\n      dup2\n      mstore\n      0x20\n      add\n      0x02\n      dup3\n      add\n      dup1\n      sload\n      tag_114\n      swap1\n      tag_46\n      jump\t// in\n    tag_114:\n      dup1\n      0x1f\n      add\n      0x20\n      dup1\n      swap2\n      div\n      mul\n      0x20\n      add\n      mload(0x40)\n      swap1\n      dup2\n      add\n      0x40\n      mstore\n      dup1\n      swap3\n      swap2\n      swap1\n      dup2\n      dup2\n      mstore\n      0x20\n      add\n      dup3\n      dup1\n      sload\n      tag_115\n      swap1\n      tag_46\n      jump\t// in\n    tag_115:\n      dup1\n      iszero\n      tag_116\n      jumpi\n      dup1\n      0x1f\n      lt\n      tag_117\n      jumpi\n      0x0100\n      dup1\n      dup4\n      sload\n      div\n      mul\n      dup4\n      mstore\n      swap2\n      0x20\n      add\n      swap2\n      jump(tag_116)\n    tag_117:\n      dup3\n      add\n      swap2\n      swap1\n      0x00\n      mstore\n      keccak256(0x00, 0x20)\n      swap1\n    tag_118:\n      dup2\n      sload\n      dup2\n      mstore\n      swap1\n      0x01\n      add\n      swap1\n      0x20\n      add\n      dup1\n      dup4\n      gt\n      tag_118\n      jumpi\n      dup3\n      swap1\n      sub\n      0x1f\n      and\n      dup3\n      add\n      swap2\n    tag_116:\n      pop\n      pop\n      pop\n      pop\n      pop\n      dup2\n      mstore\n      0x20\n      add\n      0x03\n      dup3\n      add\n      sload\n      dup2\n      mstore\n      0x20\n      add\n      0x04\n      dup3\n      add\n      sload\n      dup2\n      mstore\n      0x20\n      add\n      0x05\n      dup3\n      add\n      sload\n      dup2\n      mstore\n      pop\n      pop\n      swap1\n      pop\n        /* \"RoamingDataManagement.sol\":2861:2985  function fetchUserDataSummary(string memory imsi) public view returns(User memory) {... */\n      swap2\n      swap1\n      pop\n      jump\t// out\n        /* \"RoamingDataManagement.sol\":2314:2715  function uploadUserDataRecord(string memory imsi, string memory serviceType, string memory startTime, string memory endTime) public {... */\n    tag_42:\n        /* \"RoamingDataManagement.sol\":2456:2477  ServiceUsage memory s */\n      0x00\n        /* \"RoamingDataManagement.sol\":2480:2672  ServiceUsage(... */\n      mload(0x40)\n      dup1\n      0x80\n      add\n      0x40\n      mstore\n      dup1\n        /* \"RoamingDataManagement.sol\":2530:2534  imsi */\n      dup7\n        /* \"RoamingDataManagement.sol\":2480:2672  ServiceUsage(... */\n      dup2\n      mstore\n      0x20\n      add\n        /* \"RoamingDataManagement.sol\":2565:2576  serviceType */\n      dup6\n        /* \"RoamingDataManagement.sol\":2480:2672  ServiceUsage(... */\n      dup2\n      mstore\n      0x20\n      add\n        /* \"RoamingDataManagement.sol\":2605:2614  startTime */\n      dup5\n        /* \"RoamingDataManagement.sol\":2480:2672  ServiceUsage(... */\n      dup2\n      mstore\n      0x20\n      add\n        /* \"RoamingDataManagement.sol\":2641:2648  endTime */\n      dup4\n        /* \"RoamingDataManagement.sol\":2480:2672  ServiceUsage(... */\n      dup2\n      mstore\n      pop\n        /* \"RoamingDataManagement.sol\":2456:2672  ServiceUsage memory s = ServiceUsage(... */\n      swap1\n      pop\n        /* \"RoamingDataManagement.sol\":2683:2694  dataRecords */\n      0x06\n        /* \"RoamingDataManagement.sol\":2695:2699  imsi */\n      dup6\n        /* \"RoamingDataManagement.sol\":2683:2700  dataRecords[imsi] */\n      mload(0x40)\n      tag_120\n      swap2\n      swap1\n      tag_53\n      jump\t// in\n    tag_120:\n      swap1\n      dup2\n      mstore\n      0x20\n      add\n      mload(0x40)\n      dup1\n      swap2\n      sub\n      swap1\n      keccak256\n        /* \"RoamingDataManagement.sol\":2706:2707  s */\n      dup2\n        /* \"RoamingDataManagement.sol\":2683:2708  dataRecords[imsi].push(s) */\n      swap1\n      dup1\n      0x01\n      dup2\n      sload\n      add\n      dup1\n      dup3\n      sstore\n      dup1\n      swap2\n      pop\n      pop\n      0x01\n      swap1\n      sub\n      swap1\n      0x00\n      mstore\n      keccak256(0x00, 0x20)\n      swap1\n      0x04\n      mul\n      add\n      0x00\n      swap1\n      swap2\n      swap1\n      swap2\n      swap1\n      swap2\n      pop\n      0x00\n      dup3\n      add\n      mload\n      dup2\n      0x00\n      add\n      swap1\n      dup2\n      tag_122\n      swap2\n      swap1\n      tag_89\n      jump\t// in\n    tag_122:\n      pop\n      0x20\n      dup3\n      add\n      mload\n      dup2\n      0x01\n      add\n      swap1\n      dup2\n      tag_123\n      swap2\n      swap1\n      tag_89\n      jump\t// in\n    tag_123:\n      pop\n      0x40\n      dup3\n      add\n      mload\n      dup2\n      0x02\n      add\n      swap1\n      dup2\n      tag_124\n      swap2\n      swap1\n      tag_89\n      jump\t// in\n    tag_124:\n      pop\n      0x60\n      dup3\n      add\n      mload\n      dup2\n      0x03\n      add\n      swap1\n      dup2\n      tag_125\n      swap2\n      swap1\n      tag_89\n      jump\t// in\n    tag_125:\n      pop\n      pop\n      pop\n        /* \"RoamingDataManagement.sol\":2446:2715  {... */\n      pop\n        /* \"RoamingDataManagement.sol\":2314:2715  function uploadUserDataRecord(string memory imsi, string memory serviceType, string memory startTime, string memory endTime) public {... */\n      pop\n      pop\n      pop\n      pop\n      jump\t// out\n    tag_101:\n      mload(0x40)\n      dup1\n      0xc0\n      add\n      0x40\n      mstore\n      dup1\n      0x60\n      dup2\n      mstore\n      0x20\n      add\n      0x60\n      dup2\n      mstore\n      0x20\n      add\n      0x60\n      dup2\n      mstore\n      0x20\n      add\n      0x00\n      dup2\n      mstore\n      0x20\n      add\n      0x00\n      dup2\n      mstore\n      0x20\n      add\n      0x00\n      dup2\n      mstore\n      pop\n      swap1\n      jump\t// out\n        /* \"#utility.yul\":7:82   */\n    tag_126:\n        /* \"#utility.yul\":40:46   */\n      0x00\n        /* \"#utility.yul\":73:75   */\n      0x40\n        /* \"#utility.yul\":67:76   */\n      mload\n        /* \"#utility.yul\":57:76   */\n      swap1\n      pop\n        /* \"#utility.yul\":7:82   */\n      swap1\n      jump\t// out\n        /* \"#utility.yul\":88:205   */\n    tag_127:\n        /* \"#utility.yul\":197:198   */\n      0x00\n        /* \"#utility.yul\":194:195   */\n      dup1\n        /* \"#utility.yul\":187:199   */\n      revert\n        /* \"#utility.yul\":211:328   */\n    tag_128:\n        /* \"#utility.yul\":320:321   */\n      0x00\n        /* \"#utility.yul\":317:318   */\n      dup1\n        /* \"#utility.yul\":310:322   */\n      revert\n        /* \"#utility.yul\":334:411   */\n    tag_129:\n        /* \"#utility.yul\":371:378   */\n      0x00\n        /* \"#utility.yul\":400:405   */\n      dup2\n        /* \"#utility.yul\":389:405   */\n      swap1\n      pop\n        /* \"#utility.yul\":334:411   */\n      swap2\n      swap1\n      pop\n      jump\t// out\n        /* \"#utility.yul\":417:539   */\n    tag_130:\n        /* \"#utility.yul\":490:514   */\n      tag_182\n        /* \"#utility.yul\":508:513   */\n      dup2\n        /* \"#utility.yul\":490:514   */\n      tag_129\n      jump\t// in\n    tag_182:\n        /* \"#utility.yul\":483:488   */\n      dup2\n        /* \"#utility.yul\":480:515   */\n      eq\n        /* \"#utility.yul\":470:533   */\n      tag_183\n      jumpi\n        /* \"#utility.yul\":529:530   */\n      0x00\n        /* \"#utility.yul\":526:527   */\n      dup1\n        /* \"#utility.yul\":519:531   */\n      revert\n        /* \"#utility.yul\":470:533   */\n    tag_183:\n        /* \"#utility.yul\":417:539   */\n      pop\n      jump\t// out\n        /* \"#utility.yul\":545:684   */\n    tag_131:\n        /* \"#utility.yul\":591:596   */\n      0x00\n        /* \"#utility.yul\":629:635   */\n      dup2\n        /* \"#utility.yul\":616:636   */\n      calldataload\n        /* \"#utility.yul\":607:636   */\n      swap1\n      pop\n        /* \"#utility.yul\":645:678   */\n      tag_185\n        /* \"#utility.yul\":672:677   */\n      dup2\n        /* \"#utility.yul\":645:678   */\n      tag_130\n      jump\t// in\n    tag_185:\n        /* \"#utility.yul\":545:684   */\n      swap3\n      swap2\n      pop\n      pop\n      jump\t// out\n        /* \"#utility.yul\":690:1019   */\n    tag_13:\n        /* \"#utility.yul\":749:755   */\n      0x00\n        /* \"#utility.yul\":798:800   */\n      0x20\n        /* \"#utility.yul\":786:795   */\n      dup3\n        /* \"#utility.yul\":777:784   */\n      dup5\n        /* \"#utility.yul\":773:796   */\n      sub\n        /* \"#utility.yul\":769:801   */\n      slt\n        /* \"#utility.yul\":766:885   */\n      iszero\n      tag_187\n      jumpi\n        /* \"#utility.yul\":804:883   */\n      tag_188\n      tag_127\n      jump\t// in\n    tag_188:\n        /* \"#utility.yul\":766:885   */\n    tag_187:\n        /* \"#utility.yul\":924:925   */\n      0x00\n        /* \"#utility.yul\":949:1002   */\n      tag_189\n        /* \"#utility.yul\":994:1001   */\n      dup5\n        /* \"#utility.yul\":985:991   */\n      dup3\n        /* \"#utility.yul\":974:983   */\n      dup6\n        /* \"#utility.yul\":970:992   */\n      add\n        /* \"#utility.yul\":949:1002   */\n      tag_131\n      jump\t// in\n    tag_189:\n        /* \"#utility.yul\":939:1002   */\n      swap2\n      pop\n        /* \"#utility.yul\":895:1012   */\n      pop\n        /* \"#utility.yul\":690:1019   */\n      swap3\n      swap2\n      pop\n      pop\n      jump\t// out\n        /* \"#utility.yul\":1025:1124   */\n    tag_132:\n        /* \"#utility.yul\":1077:1083   */\n      0x00\n        /* \"#utility.yul\":1111:1116   */\n      dup2\n        /* \"#utility.yul\":1105:1117   */\n      mload\n        /* \"#utility.yul\":1095:1117   */\n      swap1\n      pop\n        /* \"#utility.yul\":1025:1124   */\n      swap2\n      swap1\n      pop\n      jump\t// out\n        /* \"#utility.yul\":1130:1299   */\n    tag_133:\n        /* \"#utility.yul\":1214:1225   */\n      0x00\n        /* \"#utility.yul\":1248:1254   */\n      dup3\n        /* \"#utility.yul\":1243:1246   */\n      dup3\n        /* \"#utility.yul\":1236:1255   */\n      mstore\n        /* \"#utility.yul\":1288:1292   */\n      0x20\n        /* \"#utility.yul\":1283:1286   */\n      dup3\n        /* \"#utility.yul\":1279:1293   */\n      add\n        /* \"#utility.yul\":1264:1293   */\n      swap1\n      pop\n        /* \"#utility.yul\":1130:1299   */\n      swap3\n      swap2\n      pop\n      pop\n      jump\t// out\n        /* \"#utility.yul\":1305:1612   */\n    tag_134:\n        /* \"#utility.yul\":1373:1374   */\n      0x00\n        /* \"#utility.yul\":1383:1496   */\n    tag_193:\n        /* \"#utility.yul\":1397:1403   */\n      dup4\n        /* \"#utility.yul\":1394:1395   */\n      dup2\n        /* \"#utility.yul\":1391:1404   */\n      lt\n        /* \"#utility.yul\":1383:1496   */\n      iszero\n      tag_195\n      jumpi\n        /* \"#utility.yul\":1482:1483   */\n      dup1\n        /* \"#utility.yul\":1477:1480   */\n      dup3\n        /* \"#utility.yul\":1473:1484   */\n      add\n        /* \"#utility.yul\":1467:1485   */\n      mload\n        /* \"#utility.yul\":1463:1464   */\n      dup2\n        /* \"#utility.yul\":1458:1461   */\n      dup5\n        /* \"#utility.yul\":1454:1465   */\n      add\n        /* \"#utility.yul\":1447:1486   */\n      mstore\n        /* \"#utility.yul\":1419:1421   */\n      0x20\n        /* \"#utility.yul\":1416:1417   */\n      dup2\n        /* \"#utility.yul\":1412:1422   */\n      add\n        /* \"#utility.yul\":1407:1422   */\n      swap1\n      pop\n        /* \"#utility.yul\":1383:1496   */\n      jump(tag_193)\n    tag_195:\n        /* \"#utility.yul\":1514:1520   */\n      dup4\n        /* \"#utility.yul\":1511:1512   */\n      dup2\n        /* \"#utility.yul\":1508:1521   */\n      gt\n        /* \"#utility.yul\":1505:1606   */\n      iszero\n      tag_196\n      jumpi\n        /* \"#utility.yul\":1594:1595   */\n      0x00\n        /* \"#utility.yul\":1585:1591   */\n      dup5\n        /* \"#utility.yul\":1580:1583   */\n      dup5\n        /* \"#utility.yul\":1576:1592   */\n      add\n        /* \"#utility.yul\":1569:1596   */\n      mstore\n        /* \"#utility.yul\":1505:1606   */\n    tag_196:\n        /* \"#utility.yul\":1354:1612   */\n      pop\n        /* \"#utility.yul\":1305:1612   */\n      pop\n      pop\n      pop\n      jump\t// out\n        /* \"#utility.yul\":1618:1720   */\n    tag_135:\n        /* \"#utility.yul\":1659:1665   */\n      0x00\n        /* \"#utility.yul\":1710:1712   */\n      0x1f\n        /* \"#utility.yul\":1706:1713   */\n      not\n        /* \"#utility.yul\":1701:1703   */\n      0x1f\n        /* \"#utility.yul\":1694:1699   */\n      dup4\n        /* \"#utility.yul\":1690:1704   */\n      add\n        /* \"#utility.yul\":1686:1714   */\n      and\n        /* \"#utility.yul\":1676:1714   */\n      swap1\n      pop\n        /* \"#utility.yul\":1618:1720   */\n      swap2\n      swap1\n      pop\n      jump\t// out\n        /* \"#utility.yul\":1726:2090   */\n    tag_136:\n        /* \"#utility.yul\":1814:1817   */\n      0x00\n        /* \"#utility.yul\":1842:1881   */\n      tag_199\n        /* \"#utility.yul\":1875:1880   */\n      dup3\n        /* \"#utility.yul\":1842:1881   */\n      tag_132\n      jump\t// in\n    tag_199:\n        /* \"#utility.yul\":1897:1968   */\n      tag_200\n        /* \"#utility.yul\":1961:1967   */\n      dup2\n        /* \"#utility.yul\":1956:1959   */\n      dup6\n        /* \"#utility.yul\":1897:1968   */\n      tag_133\n      jump\t// in\n    tag_200:\n        /* \"#utility.yul\":1890:1968   */\n      swap4\n      pop\n        /* \"#utility.yul\":1977:2029   */\n      tag_201\n        /* \"#utility.yul\":2022:2028   */\n      dup2\n        /* \"#utility.yul\":2017:2020   */\n      dup6\n        /* \"#utility.yul\":2010:2014   */\n      0x20\n        /* \"#utility.yul\":2003:2008   */\n      dup7\n        /* \"#utility.yul\":1999:2015   */\n      add\n        /* \"#utility.yul\":1977:2029   */\n      tag_134\n      jump\t// in\n    tag_201:\n        /* \"#utility.yul\":2054:2083   */\n      tag_202\n        /* \"#utility.yul\":2076:2082   */\n      dup2\n        /* \"#utility.yul\":2054:2083   */\n      tag_135\n      jump\t// in\n    tag_202:\n        /* \"#utility.yul\":2049:2052   */\n      dup5\n        /* \"#utility.yul\":2045:2084   */\n      add\n        /* \"#utility.yul\":2038:2084   */\n      swap2\n      pop\n        /* \"#utility.yul\":1818:2090   */\n      pop\n        /* \"#utility.yul\":1726:2090   */\n      swap3\n      swap2\n      pop\n      pop\n      jump\t// out\n        /* \"#utility.yul\":2096:2409   */\n    tag_16:\n        /* \"#utility.yul\":2209:2213   */\n      0x00\n        /* \"#utility.yul\":2247:2249   */\n      0x20\n        /* \"#utility.yul\":2236:2245   */\n      dup3\n        /* \"#utility.yul\":2232:2250   */\n      add\n        /* \"#utility.yul\":2224:2250   */\n      swap1\n      pop\n        /* \"#utility.yul\":2296:2305   */\n      dup2\n        /* \"#utility.yul\":2290:2294   */\n      dup2\n        /* \"#utility.yul\":2286:2306   */\n      sub\n        /* \"#utility.yul\":2282:2283   */\n      0x00\n        /* \"#utility.yul\":2271:2280   */\n      dup4\n        /* \"#utility.yul\":2267:2284   */\n      add\n        /* \"#utility.yul\":2260:2307   */\n      mstore\n        /* \"#utility.yul\":2324:2402   */\n      tag_204\n        /* \"#utility.yul\":2397:2401   */\n      dup2\n        /* \"#utility.yul\":2388:2394   */\n      dup5\n        /* \"#utility.yul\":2324:2402   */\n      tag_136\n      jump\t// in\n    tag_204:\n        /* \"#utility.yul\":2316:2402   */\n      swap1\n      pop\n        /* \"#utility.yul\":2096:2409   */\n      swap3\n      swap2\n      pop\n      pop\n      jump\t// out\n        /* \"#utility.yul\":2415:2532   */\n    tag_137:\n        /* \"#utility.yul\":2524:2525   */\n      0x00\n        /* \"#utility.yul\":2521:2522   */\n      dup1\n        /* \"#utility.yul\":2514:2526   */\n      revert\n        /* \"#utility.yul\":2538:2655   */\n    tag_138:\n        /* \"#utility.yul\":2647:2648   */\n      0x00\n        /* \"#utility.yul\":2644:2645   */\n      dup1\n        /* \"#utility.yul\":2637:2649   */\n      revert\n        /* \"#utility.yul\":2661:2841   */\n    tag_139:\n        /* \"#utility.yul\":2709:2786   */\n      0x4e487b7100000000000000000000000000000000000000000000000000000000\n        /* \"#utility.yul\":2706:2707   */\n      0x00\n        /* \"#utility.yul\":2699:2787   */\n      mstore\n        /* \"#utility.yul\":2806:2810   */\n      0x41\n        /* \"#utility.yul\":2803:2804   */\n      0x04\n        /* \"#utility.yul\":2796:2811   */\n      mstore\n        /* \"#utility.yul\":2830:2834   */\n      0x24\n        /* \"#utility.yul\":2827:2828   */\n      0x00\n        /* \"#utility.yul\":2820:2835   */\n      revert\n        /* \"#utility.yul\":2847:3128   */\n    tag_140:\n        /* \"#utility.yul\":2930:2957   */\n      tag_209\n        /* \"#utility.yul\":2952:2956   */\n      dup3\n        /* \"#utility.yul\":2930:2957   */\n      tag_135\n      jump\t// in\n    tag_209:\n        /* \"#utility.yul\":2922:2928   */\n      dup2\n        /* \"#utility.yul\":2918:2958   */\n      add\n        /* \"#utility.yul\":3060:3066   */\n      dup2\n        /* \"#utility.yul\":3048:3058   */\n      dup2\n        /* \"#utility.yul\":3045:3067   */\n      lt\n        /* \"#utility.yul\":3024:3042   */\n      0xffffffffffffffff\n        /* \"#utility.yul\":3012:3022   */\n      dup3\n        /* \"#utility.yul\":3009:3043   */\n      gt\n        /* \"#utility.yul\":3006:3068   */\n      or\n        /* \"#utility.yul\":3003:3091   */\n      iszero\n      tag_210\n      jumpi\n        /* \"#utility.yul\":3071:3089   */\n      tag_211\n      tag_139\n      jump\t// in\n    tag_211:\n        /* \"#utility.yul\":3003:3091   */\n    tag_210:\n        /* \"#utility.yul\":3111:3121   */\n      dup1\n        /* \"#utility.yul\":3107:3109   */\n      0x40\n        /* \"#utility.yul\":3100:3122   */\n      mstore\n        /* \"#utility.yul\":2890:3128   */\n      pop\n        /* \"#utility.yul\":2847:3128   */\n      pop\n      pop\n      jump\t// out\n        /* \"#utility.yul\":3134:3263   */\n    tag_141:\n        /* \"#utility.yul\":3168:3174   */\n      0x00\n        /* \"#utility.yul\":3195:3215   */\n      tag_213\n      tag_126\n      jump\t// in\n    tag_213:\n        /* \"#utility.yul\":3185:3215   */\n      swap1\n      pop\n        /* \"#utility.yul\":3224:3257   */\n      tag_214\n        /* \"#utility.yul\":3252:3256   */\n      dup3\n        /* \"#utility.yul\":3244:3250   */\n      dup3\n        /* \"#utility.yul\":3224:3257   */\n      tag_140\n      jump\t// in\n    tag_214:\n        /* \"#utility.yul\":3134:3263   */\n      swap2\n      swap1\n      pop\n      jump\t// out\n        /* \"#utility.yul\":3269:3577   */\n    tag_142:\n        /* \"#utility.yul\":3331:3335   */\n      0x00\n        /* \"#utility.yul\":3421:3439   */\n      0xffffffffffffffff\n        /* \"#utility.yul\":3413:3419   */\n      dup3\n        /* \"#utility.yul\":3410:3440   */\n      gt\n        /* \"#utility.yul\":3407:3463   */\n      iszero\n      tag_216\n      jumpi\n        /* \"#utility.yul\":3443:3461   */\n      tag_217\n      tag_139\n      jump\t// in\n    tag_217:\n        /* \"#utility.yul\":3407:3463   */\n    tag_216:\n        /* \"#utility.yul\":3481:3510   */\n      tag_218\n        /* \"#utility.yul\":3503:3509   */\n      dup3\n        /* \"#utility.yul\":3481:3510   */\n      tag_135\n      jump\t// in\n    tag_218:\n        /* \"#utility.yul\":3473:3510   */\n      swap1\n      pop\n        /* \"#utility.yul\":3565:3569   */\n      0x20\n        /* \"#utility.yul\":3559:3563   */\n      dup2\n        /* \"#utility.yul\":3555:3570   */\n      add\n        /* \"#utility.yul\":3547:3570   */\n      swap1\n      pop\n        /* \"#utility.yul\":3269:3577   */\n      swap2\n      swap1\n      pop\n      jump\t// out\n        /* \"#utility.yul\":3583:3737   */\n    tag_143:\n        /* \"#utility.yul\":3667:3673   */\n      dup3\n        /* \"#utility.yul\":3662:3665   */\n      dup2\n        /* \"#utility.yul\":3657:3660   */\n      dup4\n        /* \"#utility.yul\":3644:3674   */\n      calldatacopy\n        /* \"#utility.yul\":3729:3730   */\n      0x00\n        /* \"#utility.yul\":3720:3726   */\n      dup4\n        /* \"#utility.yul\":3715:3718   */\n      dup4\n        /* \"#utility.yul\":3711:3727   */\n      add\n        /* \"#utility.yul\":3704:3731   */\n      mstore\n        /* \"#utility.yul\":3583:3737   */\n      pop\n      pop\n      pop\n      jump\t// out\n        /* \"#utility.yul\":3743:4155   */\n    tag_144:\n        /* \"#utility.yul\":3821:3826   */\n      0x00\n        /* \"#utility.yul\":3846:3912   */\n      tag_221\n        /* \"#utility.yul\":3862:3911   */\n      tag_222\n        /* \"#utility.yul\":3904:3910   */\n      dup5\n        /* \"#utility.yul\":3862:3911   */\n      tag_142\n      jump\t// in\n    tag_222:\n        /* \"#utility.yul\":3846:3912   */\n      tag_141\n      jump\t// in\n    tag_221:\n        /* \"#utility.yul\":3837:3912   */\n      swap1\n      pop\n        /* \"#utility.yul\":3935:3941   */\n      dup3\n        /* \"#utility.yul\":3928:3933   */\n      dup2\n        /* \"#utility.yul\":3921:3942   */\n      mstore\n        /* \"#utility.yul\":3973:3977   */\n      0x20\n        /* \"#utility.yul\":3966:3971   */\n      dup2\n        /* \"#utility.yul\":3962:3978   */\n      add\n        /* \"#utility.yul\":4011:4014   */\n      dup5\n        /* \"#utility.yul\":4002:4008   */\n      dup5\n        /* \"#utility.yul\":3997:4000   */\n      dup5\n        /* \"#utility.yul\":3993:4009   */\n      add\n        /* \"#utility.yul\":3990:4015   */\n      gt\n        /* \"#utility.yul\":3987:4099   */\n      iszero\n      tag_223\n      jumpi\n        /* \"#utility.yul\":4018:4097   */\n      tag_224\n      tag_138\n      jump\t// in\n    tag_224:\n        /* \"#utility.yul\":3987:4099   */\n    tag_223:\n        /* \"#utility.yul\":4108:4149   */\n      tag_225\n        /* \"#utility.yul\":4142:4148   */\n      dup5\n        /* \"#utility.yul\":4137:4140   */\n      dup3\n        /* \"#utility.yul\":4132:4135   */\n      dup6\n        /* \"#utility.yul\":4108:4149   */\n      tag_143\n      jump\t// in\n    tag_225:\n        /* \"#utility.yul\":3827:4155   */\n      pop\n        /* \"#utility.yul\":3743:4155   */\n      swap4\n      swap3\n      pop\n      pop\n      pop\n      jump\t// out\n        /* \"#utility.yul\":4175:4515   */\n    tag_145:\n        /* \"#utility.yul\":4231:4236   */\n      0x00\n        /* \"#utility.yul\":4280:4283   */\n      dup3\n        /* \"#utility.yul\":4273:4277   */\n      0x1f\n        /* \"#utility.yul\":4265:4271   */\n      dup4\n        /* \"#utility.yul\":4261:4278   */\n      add\n        /* \"#utility.yul\":4257:4284   */\n      slt\n        /* \"#utility.yul\":4247:4369   */\n      tag_227\n      jumpi\n        /* \"#utility.yul\":4288:4367   */\n      tag_228\n      tag_137\n      jump\t// in\n    tag_228:\n        /* \"#utility.yul\":4247:4369   */\n    tag_227:\n        /* \"#utility.yul\":4405:4411   */\n      dup2\n        /* \"#utility.yul\":4392:4412   */\n      calldataload\n        /* \"#utility.yul\":4430:4509   */\n      tag_229\n        /* \"#utility.yul\":4505:4508   */\n      dup5\n        /* \"#utility.yul\":4497:4503   */\n      dup3\n        /* \"#utility.yul\":4490:4494   */\n      0x20\n        /* \"#utility.yul\":4482:4488   */\n      dup7\n        /* \"#utility.yul\":4478:4495   */\n      add\n        /* \"#utility.yul\":4430:4509   */\n      tag_144\n      jump\t// in\n    tag_229:\n        /* \"#utility.yul\":4421:4509   */\n      swap2\n      pop\n        /* \"#utility.yul\":4237:4515   */\n      pop\n        /* \"#utility.yul\":4175:4515   */\n      swap3\n      swap2\n      pop\n      pop\n      jump\t// out\n        /* \"#utility.yul\":4521:5030   */\n    tag_19:\n        /* \"#utility.yul\":4590:4596   */\n      0x00\n        /* \"#utility.yul\":4639:4641   */\n      0x20\n        /* \"#utility.yul\":4627:4636   */\n      dup3\n        /* \"#utility.yul\":4618:4625   */\n      dup5\n        /* \"#utility.yul\":4614:4637   */\n      sub\n        /* \"#utility.yul\":4610:4642   */\n      slt\n        /* \"#utility.yul\":4607:4726   */\n      iszero\n      tag_231\n      jumpi\n        /* \"#utility.yul\":4645:4724   */\n      tag_232\n      tag_127\n      jump\t// in\n    tag_232:\n        /* \"#utility.yul\":4607:4726   */\n    tag_231:\n        /* \"#utility.yul\":4793:4794   */\n      0x00\n        /* \"#utility.yul\":4782:4791   */\n      dup3\n        /* \"#utility.yul\":4778:4795   */\n      add\n        /* \"#utility.yul\":4765:4796   */\n      calldataload\n        /* \"#utility.yul\":4823:4841   */\n      0xffffffffffffffff\n        /* \"#utility.yul\":4815:4821   */\n      dup2\n        /* \"#utility.yul\":4812:4842   */\n      gt\n        /* \"#utility.yul\":4809:4926   */\n      iszero\n      tag_233\n      jumpi\n        /* \"#utility.yul\":4845:4924   */\n      tag_234\n      tag_128\n      jump\t// in\n    tag_234:\n        /* \"#utility.yul\":4809:4926   */\n    tag_233:\n        /* \"#utility.yul\":4950:5013   */\n      tag_235\n        /* \"#utility.yul\":5005:5012   */\n      dup5\n        /* \"#utility.yul\":4996:5002   */\n      dup3\n        /* \"#utility.yul\":4985:4994   */\n      dup6\n        /* \"#utility.yul\":4981:5003   */\n      add\n        /* \"#utility.yul\":4950:5013   */\n      tag_145\n      jump\t// in\n    tag_235:\n        /* \"#utility.yul\":4940:5013   */\n      swap2\n      pop\n        /* \"#utility.yul\":4736:5023   */\n      pop\n        /* \"#utility.yul\":4521:5030   */\n      swap3\n      swap2\n      pop\n      pop\n      jump\t// out\n        /* \"#utility.yul\":5036:5178   */\n    tag_146:\n        /* \"#utility.yul\":5131:5137   */\n      0x00\n        /* \"#utility.yul\":5165:5170   */\n      dup2\n        /* \"#utility.yul\":5159:5171   */\n      mload\n        /* \"#utility.yul\":5149:5171   */\n      swap1\n      pop\n        /* \"#utility.yul\":5036:5178   */\n      swap2\n      swap1\n      pop\n      jump\t// out\n        /* \"#utility.yul\":5184:5396   */\n    tag_147:\n        /* \"#utility.yul\":5311:5322   */\n      0x00\n        /* \"#utility.yul\":5345:5351   */\n      dup3\n        /* \"#utility.yul\":5340:5343   */\n      dup3\n        /* \"#utility.yul\":5333:5352   */\n      mstore\n        /* \"#utility.yul\":5385:5389   */\n      0x20\n        /* \"#utility.yul\":5380:5383   */\n      dup3\n        /* \"#utility.yul\":5376:5390   */\n      add\n        /* \"#utility.yul\":5361:5390   */\n      swap1\n      pop\n        /* \"#utility.yul\":5184:5396   */\n      swap3\n      swap2\n      pop\n      pop\n      jump\t// out\n        /* \"#utility.yul\":5402:5562   */\n    tag_148:\n        /* \"#utility.yul\":5497:5501   */\n      0x00\n        /* \"#utility.yul\":5520:5523   */\n      dup2\n        /* \"#utility.yul\":5512:5523   */\n      swap1\n      pop\n        /* \"#utility.yul\":5550:5554   */\n      0x20\n        /* \"#utility.yul\":5545:5548   */\n      dup3\n        /* \"#utility.yul\":5541:5555   */\n      add\n        /* \"#utility.yul\":5533:5555   */\n      swap1\n      pop\n        /* \"#utility.yul\":5402:5562   */\n      swap2\n      swap1\n      pop\n      jump\t// out\n        /* \"#utility.yul\":5568:5727   */\n    tag_149:\n        /* \"#utility.yul\":5642:5653   */\n      0x00\n        /* \"#utility.yul\":5676:5682   */\n      dup3\n        /* \"#utility.yul\":5671:5674   */\n      dup3\n        /* \"#utility.yul\":5664:5683   */\n      mstore\n        /* \"#utility.yul\":5716:5720   */\n      0x20\n        /* \"#utility.yul\":5711:5714   */\n      dup3\n        /* \"#utility.yul\":5707:5721   */\n      add\n        /* \"#utility.yul\":5692:5721   */\n      swap1\n      pop\n        /* \"#utility.yul\":5568:5727   */\n      swap3\n      swap2\n      pop\n      pop\n      jump\t// out\n        /* \"#utility.yul\":5733:6077   */\n    tag_150:\n        /* \"#utility.yul\":5811:5814   */\n      0x00\n        /* \"#utility.yul\":5839:5878   */\n      tag_241\n        /* \"#utility.yul\":5872:5877   */\n      dup3\n        /* \"#utility.yul\":5839:5878   */\n      tag_132\n      jump\t// in\n    tag_241:\n        /* \"#utility.yul\":5894:5955   */\n      tag_242\n        /* \"#utility.yul\":5948:5954   */\n      dup2\n        /* \"#utility.yul\":5943:5946   */\n      dup6\n        /* \"#utility.yul\":5894:5955   */\n      tag_149\n      jump\t// in\n    tag_242:\n        /* \"#utility.yul\":5887:5955   */\n      swap4\n      pop\n        /* \"#utility.yul\":5964:6016   */\n      tag_243\n        /* \"#utility.yul\":6009:6015   */\n      dup2\n        /* \"#utility.yul\":6004:6007   */\n      dup6\n        /* \"#utility.yul\":5997:6001   */\n      0x20\n        /* \"#utility.yul\":5990:5995   */\n      dup7\n        /* \"#utility.yul\":5986:6002   */\n      add\n        /* \"#utility.yul\":5964:6016   */\n      tag_134\n      jump\t// in\n    tag_243:\n        /* \"#utility.yul\":6041:6070   */\n      tag_244\n        /* \"#utility.yul\":6063:6069   */\n      dup2\n        /* \"#utility.yul\":6041:6070   */\n      tag_135\n      jump\t// in\n    tag_244:\n        /* \"#utility.yul\":6036:6039   */\n      dup5\n        /* \"#utility.yul\":6032:6071   */\n      add\n        /* \"#utility.yul\":6025:6071   */\n      swap2\n      pop\n        /* \"#utility.yul\":5815:6077   */\n      pop\n        /* \"#utility.yul\":5733:6077   */\n      swap3\n      swap2\n      pop\n      pop\n      jump\t// out\n        /* \"#utility.yul\":6177:7355   */\n    tag_151:\n        /* \"#utility.yul\":6292:6295   */\n      0x00\n        /* \"#utility.yul\":6328:6332   */\n      0x80\n        /* \"#utility.yul\":6323:6326   */\n      dup4\n        /* \"#utility.yul\":6319:6333   */\n      add\n        /* \"#utility.yul\":6415:6419   */\n      0x00\n        /* \"#utility.yul\":6408:6413   */\n      dup4\n        /* \"#utility.yul\":6404:6420   */\n      add\n        /* \"#utility.yul\":6398:6421   */\n      mload\n        /* \"#utility.yul\":6468:6471   */\n      dup5\n        /* \"#utility.yul\":6462:6466   */\n      dup3\n        /* \"#utility.yul\":6458:6472   */\n      sub\n        /* \"#utility.yul\":6451:6455   */\n      0x00\n        /* \"#utility.yul\":6446:6449   */\n      dup7\n        /* \"#utility.yul\":6442:6456   */\n      add\n        /* \"#utility.yul\":6435:6473   */\n      mstore\n        /* \"#utility.yul\":6494:6567   */\n      tag_246\n        /* \"#utility.yul\":6562:6566   */\n      dup3\n        /* \"#utility.yul\":6548:6560   */\n      dup3\n        /* \"#utility.yul\":6494:6567   */\n      tag_150\n      jump\t// in\n    tag_246:\n        /* \"#utility.yul\":6486:6567   */\n      swap2\n      pop\n        /* \"#utility.yul\":6343:6578   */\n      pop\n        /* \"#utility.yul\":6667:6671   */\n      0x20\n        /* \"#utility.yul\":6660:6665   */\n      dup4\n        /* \"#utility.yul\":6656:6672   */\n      add\n        /* \"#utility.yul\":6650:6673   */\n      mload\n        /* \"#utility.yul\":6720:6723   */\n      dup5\n        /* \"#utility.yul\":6714:6718   */\n      dup3\n        /* \"#utility.yul\":6710:6724   */\n      sub\n        /* \"#utility.yul\":6703:6707   */\n      0x20\n        /* \"#utility.yul\":6698:6701   */\n      dup7\n        /* \"#utility.yul\":6694:6708   */\n      add\n        /* \"#utility.yul\":6687:6725   */\n      mstore\n        /* \"#utility.yul\":6746:6819   */\n      tag_247\n        /* \"#utility.yul\":6814:6818   */\n      dup3\n        /* \"#utility.yul\":6800:6812   */\n      dup3\n        /* \"#utility.yul\":6746:6819   */\n      tag_150\n      jump\t// in\n    tag_247:\n        /* \"#utility.yul\":6738:6819   */\n      swap2\n      pop\n        /* \"#utility.yul\":6588:6830   */\n      pop\n        /* \"#utility.yul\":6917:6921   */\n      0x40\n        /* \"#utility.yul\":6910:6915   */\n      dup4\n        /* \"#utility.yul\":6906:6922   */\n      add\n        /* \"#utility.yul\":6900:6923   */\n      mload\n        /* \"#utility.yul\":6970:6973   */\n      dup5\n        /* \"#utility.yul\":6964:6968   */\n      dup3\n        /* \"#utility.yul\":6960:6974   */\n      sub\n        /* \"#utility.yul\":6953:6957   */\n      0x40\n        /* \"#utility.yul\":6948:6951   */\n      dup7\n        /* \"#utility.yul\":6944:6958   */\n      add\n        /* \"#utility.yul\":6937:6975   */\n      mstore\n        /* \"#utility.yul\":6996:7069   */\n      tag_248\n        /* \"#utility.yul\":7064:7068   */\n      dup3\n        /* \"#utility.yul\":7050:7062   */\n      dup3\n        /* \"#utility.yul\":6996:7069   */\n      tag_150\n      jump\t// in\n    tag_248:\n        /* \"#utility.yul\":6988:7069   */\n      swap2\n      pop\n        /* \"#utility.yul\":6840:7080   */\n      pop\n        /* \"#utility.yul\":7165:7169   */\n      0x60\n        /* \"#utility.yul\":7158:7163   */\n      dup4\n        /* \"#utility.yul\":7154:7170   */\n      add\n        /* \"#utility.yul\":7148:7171   */\n      mload\n        /* \"#utility.yul\":7218:7221   */\n      dup5\n        /* \"#utility.yul\":7212:7216   */\n      dup3\n        /* \"#utility.yul\":7208:7222   */\n      sub\n        /* \"#utility.yul\":7201:7205   */\n      0x60\n        /* \"#utility.yul\":7196:7199   */\n      dup7\n        /* \"#utility.yul\":7192:7206   */\n      add\n        /* \"#utility.yul\":7185:7223   */\n      mstore\n        /* \"#utility.yul\":7244:7317   */\n      tag_249\n        /* \"#utility.yul\":7312:7316   */\n      dup3\n        /* \"#utility.yul\":7298:7310   */\n      dup3\n        /* \"#utility.yul\":7244:7317   */\n      tag_150\n      jump\t// in\n    tag_249:\n        /* \"#utility.yul\":7236:7317   */\n      swap2\n      pop\n        /* \"#utility.yul\":7090:7328   */\n      pop\n        /* \"#utility.yul\":7345:7349   */\n      dup1\n        /* \"#utility.yul\":7338:7349   */\n      swap2\n      pop\n        /* \"#utility.yul\":6297:7355   */\n      pop\n        /* \"#utility.yul\":6177:7355   */\n      swap3\n      swap2\n      pop\n      pop\n      jump\t// out\n        /* \"#utility.yul\":7361:7629   */\n    tag_152:\n        /* \"#utility.yul\":7486:7496   */\n      0x00\n        /* \"#utility.yul\":7521:7623   */\n      tag_251\n        /* \"#utility.yul\":7619:7622   */\n      dup4\n        /* \"#utility.yul\":7611:7617   */\n      dup4\n        /* \"#utility.yul\":7521:7623   */\n      tag_151\n      jump\t// in\n    tag_251:\n        /* \"#utility.yul\":7507:7623   */\n      swap1\n      pop\n        /* \"#utility.yul\":7361:7629   */\n      swap3\n      swap2\n      pop\n      pop\n      jump\t// out\n        /* \"#utility.yul\":7635:7776   */\n    tag_153:\n        /* \"#utility.yul\":7733:7737   */\n      0x00\n        /* \"#utility.yul\":7765:7769   */\n      0x20\n        /* \"#utility.yul\":7760:7763   */\n      dup3\n        /* \"#utility.yul\":7756:7770   */\n      add\n        /* \"#utility.yul\":7748:7770   */\n      swap1\n      pop\n        /* \"#utility.yul\":7635:7776   */\n      swap2\n      swap1\n      pop\n      jump\t// out\n        /* \"#utility.yul\":7880:9015   */\n    tag_154:\n        /* \"#utility.yul\":8055:8058   */\n      0x00\n        /* \"#utility.yul\":8084:8166   */\n      tag_254\n        /* \"#utility.yul\":8160:8165   */\n      dup3\n        /* \"#utility.yul\":8084:8166   */\n      tag_146\n      jump\t// in\n    tag_254:\n        /* \"#utility.yul\":8182:8296   */\n      tag_255\n        /* \"#utility.yul\":8289:8295   */\n      dup2\n        /* \"#utility.yul\":8284:8287   */\n      dup6\n        /* \"#utility.yul\":8182:8296   */\n      tag_147\n      jump\t// in\n    tag_255:\n        /* \"#utility.yul\":8175:8296   */\n      swap4\n      pop\n        /* \"#utility.yul\":8322:8325   */\n      dup4\n        /* \"#utility.yul\":8367:8371   */\n      0x20\n        /* \"#utility.yul\":8359:8365   */\n      dup3\n        /* \"#utility.yul\":8355:8372   */\n      mul\n        /* \"#utility.yul\":8350:8353   */\n      dup6\n        /* \"#utility.yul\":8346:8373   */\n      add\n        /* \"#utility.yul\":8397:8481   */\n      tag_256\n        /* \"#utility.yul\":8475:8480   */\n      dup6\n        /* \"#utility.yul\":8397:8481   */\n      tag_148\n      jump\t// in\n    tag_256:\n        /* \"#utility.yul\":8504:8511   */\n      dup1\n        /* \"#utility.yul\":8535:8536   */\n      0x00\n        /* \"#utility.yul\":8520:8970   */\n    tag_257:\n        /* \"#utility.yul\":8545:8551   */\n      dup6\n        /* \"#utility.yul\":8542:8543   */\n      dup2\n        /* \"#utility.yul\":8539:8552   */\n      lt\n        /* \"#utility.yul\":8520:8970   */\n      iszero\n      tag_259\n      jumpi\n        /* \"#utility.yul\":8616:8625   */\n      dup5\n        /* \"#utility.yul\":8610:8614   */\n      dup5\n        /* \"#utility.yul\":8606:8626   */\n      sub\n        /* \"#utility.yul\":8601:8604   */\n      dup10\n        /* \"#utility.yul\":8594:8627   */\n      mstore\n        /* \"#utility.yul\":8667:8673   */\n      dup2\n        /* \"#utility.yul\":8661:8674   */\n      mload\n        /* \"#utility.yul\":8695:8815   */\n      tag_260\n        /* \"#utility.yul\":8810:8814   */\n      dup6\n        /* \"#utility.yul\":8795:8808   */\n      dup3\n        /* \"#utility.yul\":8695:8815   */\n      tag_152\n      jump\t// in\n    tag_260:\n        /* \"#utility.yul\":8687:8815   */\n      swap5\n      pop\n        /* \"#utility.yul\":8838:8926   */\n      tag_261\n        /* \"#utility.yul\":8919:8925   */\n      dup4\n        /* \"#utility.yul\":8838:8926   */\n      tag_153\n      jump\t// in\n    tag_261:\n        /* \"#utility.yul\":8828:8926   */\n      swap3\n      pop\n        /* \"#utility.yul\":8955:8959   */\n      0x20\n        /* \"#utility.yul\":8950:8953   */\n      dup11\n        /* \"#utility.yul\":8946:8960   */\n      add\n        /* \"#utility.yul\":8939:8960   */\n      swap10\n      pop\n        /* \"#utility.yul\":8580:8970   */\n      pop\n        /* \"#utility.yul\":8567:8568   */\n      0x01\n        /* \"#utility.yul\":8564:8565   */\n      dup2\n        /* \"#utility.yul\":8560:8569   */\n      add\n        /* \"#utility.yul\":8555:8569   */\n      swap1\n      pop\n        /* \"#utility.yul\":8520:8970   */\n      jump(tag_257)\n    tag_259:\n        /* \"#utility.yul\":8524:8538   */\n      pop\n        /* \"#utility.yul\":8986:8990   */\n      dup3\n        /* \"#utility.yul\":8979:8990   */\n      swap8\n      pop\n        /* \"#utility.yul\":9006:9009   */\n      dup8\n        /* \"#utility.yul\":8999:9009   */\n      swap6\n      pop\n        /* \"#utility.yul\":8060:9015   */\n      pop\n      pop\n      pop\n      pop\n      pop\n        /* \"#utility.yul\":7880:9015   */\n      swap3\n      swap2\n      pop\n      pop\n      jump\t// out\n        /* \"#utility.yul\":9021:9506   */\n    tag_22:\n        /* \"#utility.yul\":9220:9224   */\n      0x00\n        /* \"#utility.yul\":9258:9260   */\n      0x20\n        /* \"#utility.yul\":9247:9256   */\n      dup3\n        /* \"#utility.yul\":9243:9261   */\n      add\n        /* \"#utility.yul\":9235:9261   */\n      swap1\n      pop\n        /* \"#utility.yul\":9307:9316   */\n      dup2\n        /* \"#utility.yul\":9301:9305   */\n      dup2\n        /* \"#utility.yul\":9297:9317   */\n      sub\n        /* \"#utility.yul\":9293:9294   */\n      0x00\n        /* \"#utility.yul\":9282:9291   */\n      dup4\n        /* \"#utility.yul\":9278:9295   */\n      add\n        /* \"#utility.yul\":9271:9318   */\n      mstore\n        /* \"#utility.yul\":9335:9499   */\n      tag_263\n        /* \"#utility.yul\":9494:9498   */\n      dup2\n        /* \"#utility.yul\":9485:9491   */\n      dup5\n        /* \"#utility.yul\":9335:9499   */\n      tag_154\n      jump\t// in\n    tag_263:\n        /* \"#utility.yul\":9327:9499   */\n      swap1\n      pop\n        /* \"#utility.yul\":9021:9506   */\n      swap3\n      swap2\n      pop\n      pop\n      jump\t// out\n        /* \"#utility.yul\":9512:11109   */\n    tag_32:\n        /* \"#utility.yul\":9646:9652   */\n      0x00\n        /* \"#utility.yul\":9654:9660   */\n      dup1\n        /* \"#utility.yul\":9662:9668   */\n      0x00\n        /* \"#utility.yul\":9670:9676   */\n      dup1\n        /* \"#utility.yul\":9678:9684   */\n      0x00\n        /* \"#utility.yul\":9686:9692   */\n      dup1\n        /* \"#utility.yul\":9735:9738   */\n      0xc0\n        /* \"#utility.yul\":9723:9732   */\n      dup8\n        /* \"#utility.yul\":9714:9721   */\n      dup10\n        /* \"#utility.yul\":9710:9733   */\n      sub\n        /* \"#utility.yul\":9706:9739   */\n      slt\n        /* \"#utility.yul\":9703:9823   */\n      iszero\n      tag_265\n      jumpi\n        /* \"#utility.yul\":9742:9821   */\n      tag_266\n      tag_127\n      jump\t// in\n    tag_266:\n        /* \"#utility.yul\":9703:9823   */\n    tag_265:\n        /* \"#utility.yul\":9890:9891   */\n      0x00\n        /* \"#utility.yul\":9879:9888   */\n      dup8\n        /* \"#utility.yul\":9875:9892   */\n      add\n        /* \"#utility.yul\":9862:9893   */\n      calldataload\n        /* \"#utility.yul\":9920:9938   */\n      0xffffffffffffffff\n        /* \"#utility.yul\":9912:9918   */\n      dup2\n        /* \"#utility.yul\":9909:9939   */\n      gt\n        /* \"#utility.yul\":9906:10023   */\n      iszero\n      tag_267\n      jumpi\n        /* \"#utility.yul\":9942:10021   */\n      tag_268\n      tag_128\n      jump\t// in\n    tag_268:\n        /* \"#utility.yul\":9906:10023   */\n    tag_267:\n        /* \"#utility.yul\":10047:10110   */\n      tag_269\n        /* \"#utility.yul\":10102:10109   */\n      dup10\n        /* \"#utility.yul\":10093:10099   */\n      dup3\n        /* \"#utility.yul\":10082:10091   */\n      dup11\n        /* \"#utility.yul\":10078:10100   */\n      add\n        /* \"#utility.yul\":10047:10110   */\n      tag_145\n      jump\t// in\n    tag_269:\n        /* \"#utility.yul\":10037:10110   */\n      swap7\n      pop\n        /* \"#utility.yul\":9833:10120   */\n      pop\n        /* \"#utility.yul\":10187:10189   */\n      0x20\n        /* \"#utility.yul\":10176:10185   */\n      dup8\n        /* \"#utility.yul\":10172:10190   */\n      add\n        /* \"#utility.yul\":10159:10191   */\n      calldataload\n        /* \"#utility.yul\":10218:10236   */\n      0xffffffffffffffff\n        /* \"#utility.yul\":10210:10216   */\n      dup2\n        /* \"#utility.yul\":10207:10237   */\n      gt\n        /* \"#utility.yul\":10204:10321   */\n      iszero\n      tag_270\n      jumpi\n        /* \"#utility.yul\":10240:10319   */\n      tag_271\n      tag_128\n      jump\t// in\n    tag_271:\n        /* \"#utility.yul\":10204:10321   */\n    tag_270:\n        /* \"#utility.yul\":10345:10408   */\n      tag_272\n        /* \"#utility.yul\":10400:10407   */\n      dup10\n        /* \"#utility.yul\":10391:10397   */\n      dup3\n        /* \"#utility.yul\":10380:10389   */\n      dup11\n        /* \"#utility.yul\":10376:10398   */\n      add\n        /* \"#utility.yul\":10345:10408   */\n      tag_145\n      jump\t// in\n    tag_272:\n        /* \"#utility.yul\":10335:10408   */\n      swap6\n      pop\n        /* \"#utility.yul\":10130:10418   */\n      pop\n        /* \"#utility.yul\":10485:10487   */\n      0x40\n        /* \"#utility.yul\":10474:10483   */\n      dup8\n        /* \"#utility.yul\":10470:10488   */\n      add\n        /* \"#utility.yul\":10457:10489   */\n      calldataload\n        /* \"#utility.yul\":10516:10534   */\n      0xffffffffffffffff\n        /* \"#utility.yul\":10508:10514   */\n      dup2\n        /* \"#utility.yul\":10505:10535   */\n      gt\n        /* \"#utility.yul\":10502:10619   */\n      iszero\n      tag_273\n      jumpi\n        /* \"#utility.yul\":10538:10617   */\n      tag_274\n      tag_128\n      jump\t// in\n    tag_274:\n        /* \"#utility.yul\":10502:10619   */\n    tag_273:\n        /* \"#utility.yul\":10643:10706   */\n      tag_275\n        /* \"#utility.yul\":10698:10705   */\n      dup10\n        /* \"#utility.yul\":10689:10695   */\n      dup3\n        /* \"#utility.yul\":10678:10687   */\n      dup11\n        /* \"#utility.yul\":10674:10696   */\n      add\n        /* \"#utility.yul\":10643:10706   */\n      tag_145\n      jump\t// in\n    tag_275:\n        /* \"#utility.yul\":10633:10706   */\n      swap5\n      pop\n        /* \"#utility.yul\":10428:10716   */\n      pop\n        /* \"#utility.yul\":10755:10757   */\n      0x60\n        /* \"#utility.yul\":10781:10834   */\n      tag_276\n        /* \"#utility.yul\":10826:10833   */\n      dup10\n        /* \"#utility.yul\":10817:10823   */\n      dup3\n        /* \"#utility.yul\":10806:10815   */\n      dup11\n        /* \"#utility.yul\":10802:10824   */\n      add\n        /* \"#utility.yul\":10781:10834   */\n      tag_131\n      jump\t// in\n    tag_276:\n        /* \"#utility.yul\":10771:10834   */\n      swap4\n      pop\n        /* \"#utility.yul\":10726:10844   */\n      pop\n        /* \"#utility.yul\":10883:10886   */\n      0x80\n        /* \"#utility.yul\":10910:10963   */\n      tag_277\n        /* \"#utility.yul\":10955:10962   */\n      dup10\n        /* \"#utility.yul\":10946:10952   */\n      dup3\n        /* \"#utility.yul\":10935:10944   */\n      dup11\n        /* \"#utility.yul\":10931:10953   */\n      add\n        /* \"#utility.yul\":10910:10963   */\n      tag_131\n      jump\t// in\n    tag_277:\n        /* \"#utility.yul\":10900:10963   */\n      swap3\n      pop\n        /* \"#utility.yul\":10854:10973   */\n      pop\n        /* \"#utility.yul\":11012:11015   */\n      0xa0\n        /* \"#utility.yul\":11039:11092   */\n      tag_278\n        /* \"#utility.yul\":11084:11091   */\n      dup10\n        /* \"#utility.yul\":11075:11081   */\n      dup3\n        /* \"#utility.yul\":11064:11073   */\n      dup11\n        /* \"#utility.yul\":11060:11082   */\n      add\n        /* \"#utility.yul\":11039:11092   */\n      tag_131\n      jump\t// in\n    tag_278:\n        /* \"#utility.yul\":11029:11092   */\n      swap2\n      pop\n        /* \"#utility.yul\":10983:11102   */\n      pop\n        /* \"#utility.yul\":9512:11109   */\n      swap3\n      swap6\n      pop\n      swap3\n      swap6\n      pop\n      swap3\n      swap6\n      jump\t// out\n        /* \"#utility.yul\":11115:11223   */\n    tag_155:\n        /* \"#utility.yul\":11192:11216   */\n      tag_280\n        /* \"#utility.yul\":11210:11215   */\n      dup2\n        /* \"#utility.yul\":11192:11216   */\n      tag_129\n      jump\t// in\n    tag_280:\n        /* \"#utility.yul\":11187:11190   */\n      dup3\n        /* \"#utility.yul\":11180:11217   */\n      mstore\n        /* \"#utility.yul\":11115:11223   */\n      pop\n      pop\n      jump\t// out\n        /* \"#utility.yul\":11307:12781   */\n    tag_156:\n        /* \"#utility.yul\":11416:11419   */\n      0x00\n        /* \"#utility.yul\":11452:11456   */\n      0xc0\n        /* \"#utility.yul\":11447:11450   */\n      dup4\n        /* \"#utility.yul\":11443:11457   */\n      add\n        /* \"#utility.yul\":11539:11543   */\n      0x00\n        /* \"#utility.yul\":11532:11537   */\n      dup4\n        /* \"#utility.yul\":11528:11544   */\n      add\n        /* \"#utility.yul\":11522:11545   */\n      mload\n        /* \"#utility.yul\":11592:11595   */\n      dup5\n        /* \"#utility.yul\":11586:11590   */\n      dup3\n        /* \"#utility.yul\":11582:11596   */\n      sub\n        /* \"#utility.yul\":11575:11579   */\n      0x00\n        /* \"#utility.yul\":11570:11573   */\n      dup7\n        /* \"#utility.yul\":11566:11580   */\n      add\n        /* \"#utility.yul\":11559:11597   */\n      mstore\n        /* \"#utility.yul\":11618:11691   */\n      tag_282\n        /* \"#utility.yul\":11686:11690   */\n      dup3\n        /* \"#utility.yul\":11672:11684   */\n      dup3\n        /* \"#utility.yul\":11618:11691   */\n      tag_150\n      jump\t// in\n    tag_282:\n        /* \"#utility.yul\":11610:11691   */\n      swap2\n      pop\n        /* \"#utility.yul\":11467:11702   */\n      pop\n        /* \"#utility.yul\":11786:11790   */\n      0x20\n        /* \"#utility.yul\":11779:11784   */\n      dup4\n        /* \"#utility.yul\":11775:11791   */\n      add\n        /* \"#utility.yul\":11769:11792   */\n      mload\n        /* \"#utility.yul\":11839:11842   */\n      dup5\n        /* \"#utility.yul\":11833:11837   */\n      dup3\n        /* \"#utility.yul\":11829:11843   */\n      sub\n        /* \"#utility.yul\":11822:11826   */\n      0x20\n        /* \"#utility.yul\":11817:11820   */\n      dup7\n        /* \"#utility.yul\":11813:11827   */\n      add\n        /* \"#utility.yul\":11806:11844   */\n      mstore\n        /* \"#utility.yul\":11865:11938   */\n      tag_283\n        /* \"#utility.yul\":11933:11937   */\n      dup3\n        /* \"#utility.yul\":11919:11931   */\n      dup3\n        /* \"#utility.yul\":11865:11938   */\n      tag_150\n      jump\t// in\n    tag_283:\n        /* \"#utility.yul\":11857:11938   */\n      swap2\n      pop\n        /* \"#utility.yul\":11712:11949   */\n      pop\n        /* \"#utility.yul\":12042:12046   */\n      0x40\n        /* \"#utility.yul\":12035:12040   */\n      dup4\n        /* \"#utility.yul\":12031:12047   */\n      add\n        /* \"#utility.yul\":12025:12048   */\n      mload\n        /* \"#utility.yul\":12095:12098   */\n      dup5\n        /* \"#utility.yul\":12089:12093   */\n      dup3\n        /* \"#utility.yul\":12085:12099   */\n      sub\n        /* \"#utility.yul\":12078:12082   */\n      0x40\n        /* \"#utility.yul\":12073:12076   */\n      dup7\n        /* \"#utility.yul\":12069:12083   */\n      add\n        /* \"#utility.yul\":12062:12100   */\n      mstore\n        /* \"#utility.yul\":12121:12194   */\n      tag_284\n        /* \"#utility.yul\":12189:12193   */\n      dup3\n        /* \"#utility.yul\":12175:12187   */\n      dup3\n        /* \"#utility.yul\":12121:12194   */\n      tag_150\n      jump\t// in\n    tag_284:\n        /* \"#utility.yul\":12113:12194   */\n      swap2\n      pop\n        /* \"#utility.yul\":11959:12205   */\n      pop\n        /* \"#utility.yul\":12297:12301   */\n      0x60\n        /* \"#utility.yul\":12290:12295   */\n      dup4\n        /* \"#utility.yul\":12286:12302   */\n      add\n        /* \"#utility.yul\":12280:12303   */\n      mload\n        /* \"#utility.yul\":12316:12379   */\n      tag_285\n        /* \"#utility.yul\":12373:12377   */\n      0x60\n        /* \"#utility.yul\":12368:12371   */\n      dup7\n        /* \"#utility.yul\":12364:12378   */\n      add\n        /* \"#utility.yul\":12350:12362   */\n      dup3\n        /* \"#utility.yul\":12316:12379   */\n      tag_155\n      jump\t// in\n    tag_285:\n        /* \"#utility.yul\":12215:12389   */\n      pop\n        /* \"#utility.yul\":12480:12484   */\n      0x80\n        /* \"#utility.yul\":12473:12478   */\n      dup4\n        /* \"#utility.yul\":12469:12485   */\n      add\n        /* \"#utility.yul\":12463:12486   */\n      mload\n        /* \"#utility.yul\":12499:12562   */\n      tag_286\n        /* \"#utility.yul\":12556:12560   */\n      0x80\n        /* \"#utility.yul\":12551:12554   */\n      dup7\n        /* \"#utility.yul\":12547:12561   */\n      add\n        /* \"#utility.yul\":12533:12545   */\n      dup3\n        /* \"#utility.yul\":12499:12562   */\n      tag_155\n      jump\t// in\n    tag_286:\n        /* \"#utility.yul\":12399:12572   */\n      pop\n        /* \"#utility.yul\":12662:12666   */\n      0xa0\n        /* \"#utility.yul\":12655:12660   */\n      dup4\n        /* \"#utility.yul\":12651:12667   */\n      add\n        /* \"#utility.yul\":12645:12668   */\n      mload\n        /* \"#utility.yul\":12681:12744   */\n      tag_287\n        /* \"#utility.yul\":12738:12742   */\n      0xa0\n        /* \"#utility.yul\":12733:12736   */\n      dup7\n        /* \"#utility.yul\":12729:12743   */\n      add\n        /* \"#utility.yul\":12715:12727   */\n      dup3\n        /* \"#utility.yul\":12681:12744   */\n      tag_155\n      jump\t// in\n    tag_287:\n        /* \"#utility.yul\":12582:12754   */\n      pop\n        /* \"#utility.yul\":12771:12775   */\n      dup1\n        /* \"#utility.yul\":12764:12775   */\n      swap2\n      pop\n        /* \"#utility.yul\":11421:12781   */\n      pop\n        /* \"#utility.yul\":11307:12781   */\n      swap3\n      swap2\n      pop\n      pop\n      jump\t// out\n        /* \"#utility.yul\":12787:13140   */\n    tag_38:\n        /* \"#utility.yul\":12920:12924   */\n      0x00\n        /* \"#utility.yul\":12958:12960   */\n      0x20\n        /* \"#utility.yul\":12947:12956   */\n      dup3\n        /* \"#utility.yul\":12943:12961   */\n      add\n        /* \"#utility.yul\":12935:12961   */\n      swap1\n      pop\n        /* \"#utility.yul\":13007:13016   */\n      dup2\n        /* \"#utility.yul\":13001:13005   */\n      dup2\n        /* \"#utility.yul\":12997:13017   */\n      sub\n        /* \"#utility.yul\":12993:12994   */\n      0x00\n        /* \"#utility.yul\":12982:12991   */\n      dup4\n        /* \"#utility.yul\":12978:12995   */\n      add\n        /* \"#utility.yul\":12971:13018   */\n      mstore\n        /* \"#utility.yul\":13035:13133   */\n      tag_289\n        /* \"#utility.yul\":13128:13132   */\n      dup2\n        /* \"#utility.yul\":13119:13125   */\n      dup5\n        /* \"#utility.yul\":13035:13133   */\n      tag_156\n      jump\t// in\n    tag_289:\n        /* \"#utility.yul\":13027:13133   */\n      swap1\n      pop\n        /* \"#utility.yul\":12787:13140   */\n      swap3\n      swap2\n      pop\n      pop\n      jump\t// out\n        /* \"#utility.yul\":13146:14631   */\n    tag_41:\n        /* \"#utility.yul\":13272:13278   */\n      0x00\n        /* \"#utility.yul\":13280:13286   */\n      dup1\n        /* \"#utility.yul\":13288:13294   */\n      0x00\n        /* \"#utility.yul\":13296:13302   */\n      dup1\n        /* \"#utility.yul\":13345:13348   */\n      0x80\n        /* \"#utility.yul\":13333:13342   */\n      dup6\n        /* \"#utility.yul\":13324:13331   */\n      dup8\n        /* \"#utility.yul\":13320:13343   */\n      sub\n        /* \"#utility.yul\":13316:13349   */\n      slt\n        /* \"#utility.yul\":13313:13433   */\n      iszero\n      tag_291\n      jumpi\n        /* \"#utility.yul\":13352:13431   */\n      tag_292\n      tag_127\n      jump\t// in\n    tag_292:\n        /* \"#utility.yul\":13313:13433   */\n    tag_291:\n        /* \"#utility.yul\":13500:13501   */\n      0x00\n        /* \"#utility.yul\":13489:13498   */\n      dup6\n        /* \"#utility.yul\":13485:13502   */\n      add\n        /* \"#utility.yul\":13472:13503   */\n      calldataload\n        /* \"#utility.yul\":13530:13548   */\n      0xffffffffffffffff\n        /* \"#utility.yul\":13522:13528   */\n      dup2\n        /* \"#utility.yul\":13519:13549   */\n      gt\n        /* \"#utility.yul\":13516:13633   */\n      iszero\n      tag_293\n      jumpi\n        /* \"#utility.yul\":13552:13631   */\n      tag_294\n      tag_128\n      jump\t// in\n    tag_294:\n        /* \"#utility.yul\":13516:13633   */\n    tag_293:\n        /* \"#utility.yul\":13657:13720   */\n      tag_295\n        /* \"#utility.yul\":13712:13719   */\n      dup8\n        /* \"#utility.yul\":13703:13709   */\n      dup3\n        /* \"#utility.yul\":13692:13701   */\n      dup9\n        /* \"#utility.yul\":13688:13710   */\n      add\n        /* \"#utility.yul\":13657:13720   */\n      tag_145\n      jump\t// in\n    tag_295:\n        /* \"#utility.yul\":13647:13720   */\n      swap5\n      pop\n        /* \"#utility.yul\":13443:13730   */\n      pop\n        /* \"#utility.yul\":13797:13799   */\n      0x20\n        /* \"#utility.yul\":13786:13795   */\n      dup6\n        /* \"#utility.yul\":13782:13800   */\n      add\n        /* \"#utility.yul\":13769:13801   */\n      calldataload\n        /* \"#utility.yul\":13828:13846   */\n      0xffffffffffffffff\n        /* \"#utility.yul\":13820:13826   */\n      dup2\n        /* \"#utility.yul\":13817:13847   */\n      gt\n        /* \"#utility.yul\":13814:13931   */\n      iszero\n      tag_296\n      jumpi\n        /* \"#utility.yul\":13850:13929   */\n      tag_297\n      tag_128\n      jump\t// in\n    tag_297:\n        /* \"#utility.yul\":13814:13931   */\n    tag_296:\n        /* \"#utility.yul\":13955:14018   */\n      tag_298\n        /* \"#utility.yul\":14010:14017   */\n      dup8\n        /* \"#utility.yul\":14001:14007   */\n      dup3\n        /* \"#utility.yul\":13990:13999   */\n      dup9\n        /* \"#utility.yul\":13986:14008   */\n      add\n        /* \"#utility.yul\":13955:14018   */\n      tag_145\n      jump\t// in\n    tag_298:\n        /* \"#utility.yul\":13945:14018   */\n      swap4\n      pop\n        /* \"#utility.yul\":13740:14028   */\n      pop\n        /* \"#utility.yul\":14095:14097   */\n      0x40\n        /* \"#utility.yul\":14084:14093   */\n      dup6\n        /* \"#utility.yul\":14080:14098   */\n      add\n        /* \"#utility.yul\":14067:14099   */\n      calldataload\n        /* \"#utility.yul\":14126:14144   */\n      0xffffffffffffffff\n        /* \"#utility.yul\":14118:14124   */\n      dup2\n        /* \"#utility.yul\":14115:14145   */\n      gt\n        /* \"#utility.yul\":14112:14229   */\n      iszero\n      tag_299\n      jumpi\n        /* \"#utility.yul\":14148:14227   */\n      tag_300\n      tag_128\n      jump\t// in\n    tag_300:\n        /* \"#utility.yul\":14112:14229   */\n    tag_299:\n        /* \"#utility.yul\":14253:14316   */\n      tag_301\n        /* \"#utility.yul\":14308:14315   */\n      dup8\n        /* \"#utility.yul\":14299:14305   */\n      dup3\n        /* \"#utility.yul\":14288:14297   */\n      dup9\n        /* \"#utility.yul\":14284:14306   */\n      add\n        /* \"#utility.yul\":14253:14316   */\n      tag_145\n      jump\t// in\n    tag_301:\n        /* \"#utility.yul\":14243:14316   */\n      swap3\n      pop\n        /* \"#utility.yul\":14038:14326   */\n      pop\n        /* \"#utility.yul\":14393:14395   */\n      0x60\n        /* \"#utility.yul\":14382:14391   */\n      dup6\n        /* \"#utility.yul\":14378:14396   */\n      add\n        /* \"#utility.yul\":14365:14397   */\n      calldataload\n        /* \"#utility.yul\":14424:14442   */\n      0xffffffffffffffff\n        /* \"#utility.yul\":14416:14422   */\n      dup2\n        /* \"#utility.yul\":14413:14443   */\n      gt\n        /* \"#utility.yul\":14410:14527   */\n      iszero\n      tag_302\n      jumpi\n        /* \"#utility.yul\":14446:14525   */\n      tag_303\n      tag_128\n      jump\t// in\n    tag_303:\n        /* \"#utility.yul\":14410:14527   */\n    tag_302:\n        /* \"#utility.yul\":14551:14614   */\n      tag_304\n        /* \"#utility.yul\":14606:14613   */\n      dup8\n        /* \"#utility.yul\":14597:14603   */\n      dup3\n        /* \"#utility.yul\":14586:14595   */\n      dup9\n        /* \"#utility.yul\":14582:14604   */\n      add\n        /* \"#utility.yul\":14551:14614   */\n      tag_145\n      jump\t// in\n    tag_304:\n        /* \"#utility.yul\":14541:14614   */\n      swap2\n      pop\n        /* \"#utility.yul\":14336:14624   */\n      pop\n        /* \"#utility.yul\":13146:14631   */\n      swap3\n      swap6\n      swap2\n      swap5\n      pop\n      swap3\n      pop\n      jump\t// out\n        /* \"#utility.yul\":14637:14817   */\n    tag_157:\n        /* \"#utility.yul\":14685:14762   */\n      0x4e487b7100000000000000000000000000000000000000000000000000000000\n        /* \"#utility.yul\":14682:14683   */\n      0x00\n        /* \"#utility.yul\":14675:14763   */\n      mstore\n        /* \"#utility.yul\":14782:14786   */\n      0x22\n        /* \"#utility.yul\":14779:14780   */\n      0x04\n        /* \"#utility.yul\":14772:14787   */\n      mstore\n        /* \"#utility.yul\":14806:14810   */\n      0x24\n        /* \"#utility.yul\":14803:14804   */\n      0x00\n        /* \"#utility.yul\":14796:14811   */\n      revert\n        /* \"#utility.yul\":14823:15143   */\n    tag_46:\n        /* \"#utility.yul\":14867:14873   */\n      0x00\n        /* \"#utility.yul\":14904:14905   */\n      0x02\n        /* \"#utility.yul\":14898:14902   */\n      dup3\n        /* \"#utility.yul\":14894:14906   */\n      div\n        /* \"#utility.yul\":14884:14906   */\n      swap1\n      pop\n        /* \"#utility.yul\":14951:14952   */\n      0x01\n        /* \"#utility.yul\":14945:14949   */\n      dup3\n        /* \"#utility.yul\":14941:14953   */\n      and\n        /* \"#utility.yul\":14972:14990   */\n      dup1\n        /* \"#utility.yul\":14962:15043   */\n      tag_307\n      jumpi\n        /* \"#utility.yul\":15028:15032   */\n      0x7f\n        /* \"#utility.yul\":15020:15026   */\n      dup3\n        /* \"#utility.yul\":15016:15033   */\n      and\n        /* \"#utility.yul\":15006:15033   */\n      swap2\n      pop\n        /* \"#utility.yul\":14962:15043   */\n    tag_307:\n        /* \"#utility.yul\":15090:15092   */\n      0x20\n        /* \"#utility.yul\":15082:15088   */\n      dup3\n        /* \"#utility.yul\":15079:15093   */\n      lt\n        /* \"#utility.yul\":15059:15077   */\n      dup2\n        /* \"#utility.yul\":15056:15094   */\n      sub\n        /* \"#utility.yul\":15053:15137   */\n      tag_308\n      jumpi\n        /* \"#utility.yul\":15109:15127   */\n      tag_309\n      tag_157\n      jump\t// in\n    tag_309:\n        /* \"#utility.yul\":15053:15137   */\n    tag_308:\n        /* \"#utility.yul\":14874:15143   */\n      pop\n        /* \"#utility.yul\":14823:15143   */\n      swap2\n      swap1\n      pop\n      jump\t// out\n        /* \"#utility.yul\":15149:15297   */\n    tag_158:\n        /* \"#utility.yul\":15251:15262   */\n      0x00\n        /* \"#utility.yul\":15288:15291   */\n      dup2\n        /* \"#utility.yul\":15273:15291   */\n      swap1\n      pop\n        /* \"#utility.yul\":15149:15297   */\n      swap3\n      swap2\n      pop\n      pop\n      jump\t// out\n        /* \"#utility.yul\":15303:15680   */\n    tag_159:\n        /* \"#utility.yul\":15409:15412   */\n      0x00\n        /* \"#utility.yul\":15437:15476   */\n      tag_312\n        /* \"#utility.yul\":15470:15475   */\n      dup3\n        /* \"#utility.yul\":15437:15476   */\n      tag_132\n      jump\t// in\n    tag_312:\n        /* \"#utility.yul\":15492:15581   */\n      tag_313\n        /* \"#utility.yul\":15574:15580   */\n      dup2\n        /* \"#utility.yul\":15569:15572   */\n      dup6\n        /* \"#utility.yul\":15492:15581   */\n      tag_158\n      jump\t// in\n    tag_313:\n        /* \"#utility.yul\":15485:15581   */\n      swap4\n      pop\n        /* \"#utility.yul\":15590:15642   */\n      tag_314\n        /* \"#utility.yul\":15635:15641   */\n      dup2\n        /* \"#utility.yul\":15630:15633   */\n      dup6\n        /* \"#utility.yul\":15623:15627   */\n      0x20\n        /* \"#utility.yul\":15616:15621   */\n      dup7\n        /* \"#utility.yul\":15612:15628   */\n      add\n        /* \"#utility.yul\":15590:15642   */\n      tag_134\n      jump\t// in\n    tag_314:\n        /* \"#utility.yul\":15667:15673   */\n      dup1\n        /* \"#utility.yul\":15662:15665   */\n      dup5\n        /* \"#utility.yul\":15658:15674   */\n      add\n        /* \"#utility.yul\":15651:15674   */\n      swap2\n      pop\n        /* \"#utility.yul\":15413:15680   */\n      pop\n        /* \"#utility.yul\":15303:15680   */\n      swap3\n      swap2\n      pop\n      pop\n      jump\t// out\n        /* \"#utility.yul\":15686:15961   */\n    tag_53:\n        /* \"#utility.yul\":15818:15821   */\n      0x00\n        /* \"#utility.yul\":15840:15935   */\n      tag_316\n        /* \"#utility.yul\":15931:15934   */\n      dup3\n        /* \"#utility.yul\":15922:15928   */\n      dup5\n        /* \"#utility.yul\":15840:15935   */\n      tag_159\n      jump\t// in\n    tag_316:\n        /* \"#utility.yul\":15833:15935   */\n      swap2\n      pop\n        /* \"#utility.yul\":15952:15955   */\n      dup2\n        /* \"#utility.yul\":15945:15955   */\n      swap1\n      pop\n        /* \"#utility.yul\":15686:15961   */\n      swap3\n      swap2\n      pop\n      pop\n      jump\t// out\n        /* \"#utility.yul\":15967:16108   */\n    tag_160:\n        /* \"#utility.yul\":16016:16020   */\n      0x00\n        /* \"#utility.yul\":16039:16042   */\n      dup2\n        /* \"#utility.yul\":16031:16042   */\n      swap1\n      pop\n        /* \"#utility.yul\":16062:16065   */\n      dup2\n        /* \"#utility.yul\":16059:16060   */\n      0x00\n        /* \"#utility.yul\":16052:16066   */\n      mstore\n        /* \"#utility.yul\":16096:16100   */\n      0x20\n        /* \"#utility.yul\":16093:16094   */\n      0x00\n        /* \"#utility.yul\":16083:16101   */\n      keccak256\n        /* \"#utility.yul\":16075:16101   */\n      swap1\n      pop\n        /* \"#utility.yul\":15967:16108   */\n      swap2\n      swap1\n      pop\n      jump\t// out\n        /* \"#utility.yul\":16138:17012   */\n    tag_161:\n        /* \"#utility.yul\":16241:16244   */\n      0x00\n        /* \"#utility.yul\":16278:16283   */\n      dup2\n        /* \"#utility.yul\":16272:16284   */\n      sload\n        /* \"#utility.yul\":16307:16343   */\n      tag_319\n        /* \"#utility.yul\":16333:16342   */\n      dup2\n        /* \"#utility.yul\":16307:16343   */\n      tag_46\n      jump\t// in\n    tag_319:\n        /* \"#utility.yul\":16359:16448   */\n      tag_320\n        /* \"#utility.yul\":16441:16447   */\n      dup2\n        /* \"#utility.yul\":16436:16439   */\n      dup7\n        /* \"#utility.yul\":16359:16448   */\n      tag_158\n      jump\t// in\n    tag_320:\n        /* \"#utility.yul\":16352:16448   */\n      swap5\n      pop\n        /* \"#utility.yul\":16479:16480   */\n      0x01\n        /* \"#utility.yul\":16468:16477   */\n      dup3\n        /* \"#utility.yul\":16464:16481   */\n      and\n        /* \"#utility.yul\":16495:16496   */\n      0x00\n        /* \"#utility.yul\":16490:16656   */\n      dup2\n      eq\n      tag_322\n      jumpi\n        /* \"#utility.yul\":16670:16671   */\n      0x01\n        /* \"#utility.yul\":16665:17006   */\n      dup2\n      eq\n      tag_323\n      jumpi\n        /* \"#utility.yul\":16457:17006   */\n      jump(tag_321)\n        /* \"#utility.yul\":16490:16656   */\n    tag_322:\n        /* \"#utility.yul\":16574:16578   */\n      0xff\n        /* \"#utility.yul\":16570:16579   */\n      not\n        /* \"#utility.yul\":16559:16568   */\n      dup4\n        /* \"#utility.yul\":16555:16580   */\n      and\n        /* \"#utility.yul\":16550:16553   */\n      dup7\n        /* \"#utility.yul\":16543:16581   */\n      mstore\n        /* \"#utility.yul\":16636:16642   */\n      dup2\n        /* \"#utility.yul\":16629:16643   */\n      iszero\n        /* \"#utility.yul\":16622:16644   */\n      iszero\n        /* \"#utility.yul\":16614:16620   */\n      dup3\n        /* \"#utility.yul\":16610:16645   */\n      mul\n        /* \"#utility.yul\":16605:16608   */\n      dup7\n        /* \"#utility.yul\":16601:16646   */\n      add\n        /* \"#utility.yul\":16594:16646   */\n      swap4\n      pop\n        /* \"#utility.yul\":16490:16656   */\n      jump(tag_321)\n        /* \"#utility.yul\":16665:17006   */\n    tag_323:\n        /* \"#utility.yul\":16732:16770   */\n      tag_324\n        /* \"#utility.yul\":16764:16769   */\n      dup6\n        /* \"#utility.yul\":16732:16770   */\n      tag_160\n      jump\t// in\n    tag_324:\n        /* \"#utility.yul\":16792:16793   */\n      0x00\n        /* \"#utility.yul\":16806:16960   */\n    tag_325:\n        /* \"#utility.yul\":16820:16826   */\n      dup4\n        /* \"#utility.yul\":16817:16818   */\n      dup2\n        /* \"#utility.yul\":16814:16827   */\n      lt\n        /* \"#utility.yul\":16806:16960   */\n      iszero\n      tag_327\n      jumpi\n        /* \"#utility.yul\":16894:16901   */\n      dup2\n        /* \"#utility.yul\":16888:16902   */\n      sload\n        /* \"#utility.yul\":16884:16885   */\n      dup2\n        /* \"#utility.yul\":16879:16882   */\n      dup10\n        /* \"#utility.yul\":16875:16886   */\n      add\n        /* \"#utility.yul\":16868:16903   */\n      mstore\n        /* \"#utility.yul\":16944:16945   */\n      0x01\n        /* \"#utility.yul\":16935:16942   */\n      dup3\n        /* \"#utility.yul\":16931:16946   */\n      add\n        /* \"#utility.yul\":16920:16946   */\n      swap2\n      pop\n        /* \"#utility.yul\":16842:16846   */\n      0x20\n        /* \"#utility.yul\":16839:16840   */\n      dup2\n        /* \"#utility.yul\":16835:16847   */\n      add\n        /* \"#utility.yul\":16830:16847   */\n      swap1\n      pop\n        /* \"#utility.yul\":16806:16960   */\n      jump(tag_325)\n    tag_327:\n        /* \"#utility.yul\":16989:16995   */\n      dup4\n        /* \"#utility.yul\":16984:16987   */\n      dup9\n        /* \"#utility.yul\":16980:16996   */\n      add\n        /* \"#utility.yul\":16973:16996   */\n      swap6\n      pop\n        /* \"#utility.yul\":16672:17006   */\n      pop\n      pop\n        /* \"#utility.yul\":16457:17006   */\n    tag_321:\n      pop\n        /* \"#utility.yul\":16245:17012   */\n      pop\n      pop\n        /* \"#utility.yul\":16138:17012   */\n      swap3\n      swap2\n      pop\n      pop\n      jump\t// out\n        /* \"#utility.yul\":17018:17287   */\n    tag_86:\n        /* \"#utility.yul\":17147:17150   */\n      0x00\n        /* \"#utility.yul\":17169:17261   */\n      tag_329\n        /* \"#utility.yul\":17257:17260   */\n      dup3\n        /* \"#utility.yul\":17248:17254   */\n      dup5\n        /* \"#utility.yul\":17169:17261   */\n      tag_161\n      jump\t// in\n    tag_329:\n        /* \"#utility.yul\":17162:17261   */\n      swap2\n      pop\n        /* \"#utility.yul\":17278:17281   */\n      dup2\n        /* \"#utility.yul\":17271:17281   */\n      swap1\n      pop\n        /* \"#utility.yul\":17018:17287   */\n      swap3\n      swap2\n      pop\n      pop\n      jump\t// out\n        /* \"#utility.yul\":17293:17386   */\n    tag_162:\n        /* \"#utility.yul\":17330:17336   */\n      0x00\n        /* \"#utility.yul\":17377:17379   */\n      0x20\n        /* \"#utility.yul\":17372:17374   */\n      0x1f\n        /* \"#utility.yul\":17365:17370   */\n      dup4\n        /* \"#utility.yul\":17361:17375   */\n      add\n        /* \"#utility.yul\":17357:17380   */\n      div\n        /* \"#utility.yul\":17347:17380   */\n      swap1\n      pop\n        /* \"#utility.yul\":17293:17386   */\n      swap2\n      swap1\n      pop\n      jump\t// out\n        /* \"#utility.yul\":17392:17499   */\n    tag_163:\n        /* \"#utility.yul\":17436:17444   */\n      0x00\n        /* \"#utility.yul\":17486:17491   */\n      dup3\n        /* \"#utility.yul\":17480:17484   */\n      dup3\n        /* \"#utility.yul\":17476:17492   */\n      shl\n        /* \"#utility.yul\":17455:17492   */\n      swap1\n      pop\n        /* \"#utility.yul\":17392:17499   */\n      swap3\n      swap2\n      pop\n      pop\n      jump\t// out\n        /* \"#utility.yul\":17505:17898   */\n    tag_164:\n        /* \"#utility.yul\":17574:17580   */\n      0x00\n        /* \"#utility.yul\":17624:17625   */\n      0x08\n        /* \"#utility.yul\":17612:17622   */\n      dup4\n        /* \"#utility.yul\":17608:17626   */\n      mul\n        /* \"#utility.yul\":17647:17744   */\n      tag_333\n        /* \"#utility.yul\":17677:17743   */\n      0xffffffffffffffffffffffffffffffffffffffffffffffffffffffffffffffff\n        /* \"#utility.yul\":17666:17675   */\n      dup3\n        /* \"#utility.yul\":17647:17744   */\n      tag_163\n      jump\t// in\n    tag_333:\n        /* \"#utility.yul\":17765:17804   */\n      tag_334\n        /* \"#utility.yul\":17795:17803   */\n      dup7\n        /* \"#utility.yul\":17784:17793   */\n      dup4\n        /* \"#utility.yul\":17765:17804   */\n      tag_163\n      jump\t// in\n    tag_334:\n        /* \"#utility.yul\":17753:17804   */\n      swap6\n      pop\n        /* \"#utility.yul\":17837:17841   */\n      dup1\n        /* \"#utility.yul\":17833:17842   */\n      not\n        /* \"#utility.yul\":17826:17831   */\n      dup5\n        /* \"#utility.yul\":17822:17843   */\n      and\n        /* \"#utility.yul\":17813:17843   */\n      swap4\n      pop\n        /* \"#utility.yul\":17886:17890   */\n      dup1\n        /* \"#utility.yul\":17876:17884   */\n      dup7\n        /* \"#utility.yul\":17872:17891   */\n      and\n        /* \"#utility.yul\":17865:17870   */\n      dup5\n        /* \"#utility.yul\":17862:17892   */\n      or\n        /* \"#utility.yul\":17852:17892   */\n      swap3\n      pop\n        /* \"#utility.yul\":17581:17898   */\n      pop\n      pop\n        /* \"#utility.yul\":17505:17898   */\n      swap4\n      swap3\n      pop\n      pop\n      pop\n      jump\t// out\n        /* \"#utility.yul\":17904:17964   */\n    tag_165:\n        /* \"#utility.yul\":17932:17935   */\n      0x00\n        /* \"#utility.yul\":17953:17958   */\n      dup2\n        /* \"#utility.yul\":17946:17958   */\n      swap1\n      pop\n        /* \"#utility.yul\":17904:17964   */\n      swap2\n      swap1\n      pop\n      jump\t// out\n        /* \"#utility.yul\":17970:18112   */\n    tag_166:\n        /* \"#utility.yul\":18020:18029   */\n      0x00\n        /* \"#utility.yul\":18053:18106   */\n      tag_337\n        /* \"#utility.yul\":18071:18105   */\n      tag_338\n        /* \"#utility.yul\":18080:18104   */\n      tag_339\n        /* \"#utility.yul\":18098:18103   */\n      dup5\n        /* \"#utility.yul\":18080:18104   */\n      tag_129\n      jump\t// in\n    tag_339:\n        /* \"#utility.yul\":18071:18105   */\n      tag_165\n      jump\t// in\n    tag_338:\n        /* \"#utility.yul\":18053:18106   */\n      tag_129\n      jump\t// in\n    tag_337:\n        /* \"#utility.yul\":18040:18106   */\n      swap1\n      pop\n        /* \"#utility.yul\":17970:18112   */\n      swap2\n      swap1\n      pop\n      jump\t// out\n        /* \"#utility.yul\":18118:18193   */\n    tag_167:\n        /* \"#utility.yul\":18161:18164   */\n      0x00\n        /* \"#utility.yul\":18182:18187   */\n      dup2\n        /* \"#utility.yul\":18175:18187   */\n      swap1\n      pop\n        /* \"#utility.yul\":18118:18193   */\n      swap2\n      swap1\n      pop\n      jump\t// out\n        /* \"#utility.yul\":18199:18468   */\n    tag_168:\n        /* \"#utility.yul\":18309:18348   */\n      tag_342\n        /* \"#utility.yul\":18340:18347   */\n      dup4\n        /* \"#utility.yul\":18309:18348   */\n      tag_166\n      jump\t// in\n    tag_342:\n        /* \"#utility.yul\":18370:18461   */\n      tag_343\n        /* \"#utility.yul\":18419:18460   */\n      tag_344\n        /* \"#utility.yul\":18443:18459   */\n      dup3\n        /* \"#utility.yul\":18419:18460   */\n      tag_167\n      jump\t// in\n    tag_344:\n        /* \"#utility.yul\":18411:18417   */\n      dup5\n        /* \"#utility.yul\":18404:18408   */\n      dup5\n        /* \"#utility.yul\":18398:18409   */\n      sload\n        /* \"#utility.yul\":18370:18461   */\n      tag_164\n      jump\t// in\n    tag_343:\n        /* \"#utility.yul\":18364:18368   */\n      dup3\n        /* \"#utility.yul\":18357:18462   */\n      sstore\n        /* \"#utility.yul\":18275:18468   */\n      pop\n        /* \"#utility.yul\":18199:18468   */\n      pop\n      pop\n      pop\n      jump\t// out\n        /* \"#utility.yul\":18474:18547   */\n    tag_169:\n        /* \"#utility.yul\":18519:18522   */\n      0x00\n        /* \"#utility.yul\":18474:18547   */\n      swap1\n      jump\t// out\n        /* \"#utility.yul\":18553:18742   */\n    tag_170:\n        /* \"#utility.yul\":18630:18662   */\n      tag_347\n      tag_169\n      jump\t// in\n    tag_347:\n        /* \"#utility.yul\":18671:18736   */\n      tag_348\n        /* \"#utility.yul\":18729:18735   */\n      dup2\n        /* \"#utility.yul\":18721:18727   */\n      dup5\n        /* \"#utility.yul\":18715:18719   */\n      dup5\n        /* \"#utility.yul\":18671:18736   */\n      tag_168\n      jump\t// in\n    tag_348:\n        /* \"#utility.yul\":18606:18742   */\n      pop\n        /* \"#utility.yul\":18553:18742   */\n      pop\n      pop\n      jump\t// out\n        /* \"#utility.yul\":18748:18934   */\n    tag_171:\n        /* \"#utility.yul\":18808:18928   */\n    tag_350:\n        /* \"#utility.yul\":18825:18828   */\n      dup2\n        /* \"#utility.yul\":18818:18823   */\n      dup2\n        /* \"#utility.yul\":18815:18829   */\n      lt\n        /* \"#utility.yul\":18808:18928   */\n      iszero\n      tag_352\n      jumpi\n        /* \"#utility.yul\":18879:18918   */\n      tag_353\n        /* \"#utility.yul\":18916:18917   */\n      0x00\n        /* \"#utility.yul\":18909:18914   */\n      dup3\n        /* \"#utility.yul\":18879:18918   */\n      tag_170\n      jump\t// in\n    tag_353:\n        /* \"#utility.yul\":18852:18853   */\n      0x01\n        /* \"#utility.yul\":18845:18850   */\n      dup2\n        /* \"#utility.yul\":18841:18854   */\n      add\n        /* \"#utility.yul\":18832:18854   */\n      swap1\n      pop\n        /* \"#utility.yul\":18808:18928   */\n      jump(tag_350)\n    tag_352:\n        /* \"#utility.yul\":18748:18934   */\n      pop\n      pop\n      jump\t// out\n        /* \"#utility.yul\":18940:19483   */\n    tag_172:\n        /* \"#utility.yul\":19041:19043   */\n      0x1f\n        /* \"#utility.yul\":19036:19039   */\n      dup3\n        /* \"#utility.yul\":19033:19044   */\n      gt\n        /* \"#utility.yul\":19030:19476   */\n      iszero\n      tag_355\n      jumpi\n        /* \"#utility.yul\":19075:19113   */\n      tag_356\n        /* \"#utility.yul\":19107:19112   */\n      dup2\n        /* \"#utility.yul\":19075:19113   */\n      tag_160\n      jump\t// in\n    tag_356:\n        /* \"#utility.yul\":19159:19188   */\n      tag_357\n        /* \"#utility.yul\":19177:19187   */\n      dup5\n        /* \"#utility.yul\":19159:19188   */\n      tag_162\n      jump\t// in\n    tag_357:\n        /* \"#utility.yul\":19149:19157   */\n      dup2\n        /* \"#utility.yul\":19145:19189   */\n      add\n        /* \"#utility.yul\":19342:19344   */\n      0x20\n        /* \"#utility.yul\":19330:19340   */\n      dup6\n        /* \"#utility.yul\":19327:19345   */\n      lt\n        /* \"#utility.yul\":19324:19373   */\n      iszero\n      tag_358\n      jumpi\n        /* \"#utility.yul\":19363:19371   */\n      dup2\n        /* \"#utility.yul\":19348:19371   */\n      swap1\n      pop\n        /* \"#utility.yul\":19324:19373   */\n    tag_358:\n        /* \"#utility.yul\":19386:19466   */\n      tag_359\n        /* \"#utility.yul\":19442:19464   */\n      tag_360\n        /* \"#utility.yul\":19460:19463   */\n      dup6\n        /* \"#utility.yul\":19442:19464   */\n      tag_162\n      jump\t// in\n    tag_360:\n        /* \"#utility.yul\":19432:19440   */\n      dup4\n        /* \"#utility.yul\":19428:19465   */\n      add\n        /* \"#utility.yul\":19415:19426   */\n      dup3\n        /* \"#utility.yul\":19386:19466   */\n      tag_171\n      jump\t// in\n    tag_359:\n        /* \"#utility.yul\":19045:19476   */\n      pop\n      pop\n        /* \"#utility.yul\":19030:19476   */\n    tag_355:\n        /* \"#utility.yul\":18940:19483   */\n      pop\n      pop\n      pop\n      jump\t// out\n        /* \"#utility.yul\":19489:19606   */\n    tag_173:\n        /* \"#utility.yul\":19543:19551   */\n      0x00\n        /* \"#utility.yul\":19593:19598   */\n      dup3\n        /* \"#utility.yul\":19587:19591   */\n      dup3\n        /* \"#utility.yul\":19583:19599   */\n      shr\n        /* \"#utility.yul\":19562:19599   */\n      swap1\n      pop\n        /* \"#utility.yul\":19489:19606   */\n      swap3\n      swap2\n      pop\n      pop\n      jump\t// out\n        /* \"#utility.yul\":19612:19781   */\n    tag_174:\n        /* \"#utility.yul\":19656:19662   */\n      0x00\n        /* \"#utility.yul\":19689:19740   */\n      tag_363\n        /* \"#utility.yul\":19737:19738   */\n      0x00\n        /* \"#utility.yul\":19733:19739   */\n      not\n        /* \"#utility.yul\":19725:19730   */\n      dup5\n        /* \"#utility.yul\":19722:19723   */\n      0x08\n        /* \"#utility.yul\":19718:19731   */\n      mul\n        /* \"#utility.yul\":19689:19740   */\n      tag_173\n      jump\t// in\n    tag_363:\n        /* \"#utility.yul\":19685:19741   */\n      not\n        /* \"#utility.yul\":19770:19774   */\n      dup1\n        /* \"#utility.yul\":19764:19768   */\n      dup4\n        /* \"#utility.yul\":19760:19775   */\n      and\n        /* \"#utility.yul\":19750:19775   */\n      swap2\n      pop\n        /* \"#utility.yul\":19663:19781   */\n      pop\n        /* \"#utility.yul\":19612:19781   */\n      swap3\n      swap2\n      pop\n      pop\n      jump\t// out\n        /* \"#utility.yul\":19786:20081   */\n    tag_175:\n        /* \"#utility.yul\":19862:19866   */\n      0x00\n        /* \"#utility.yul\":20008:20037   */\n      tag_365\n        /* \"#utility.yul\":20033:20036   */\n      dup4\n        /* \"#utility.yul\":20027:20031   */\n      dup4\n        /* \"#utility.yul\":20008:20037   */\n      tag_174\n      jump\t// in\n    tag_365:\n        /* \"#utility.yul\":20000:20037   */\n      swap2\n      pop\n        /* \"#utility.yul\":20070:20073   */\n      dup3\n        /* \"#utility.yul\":20067:20068   */\n      0x02\n        /* \"#utility.yul\":20063:20074   */\n      mul\n        /* \"#utility.yul\":20057:20061   */\n      dup3\n        /* \"#utility.yul\":20054:20075   */\n      or\n        /* \"#utility.yul\":20046:20075   */\n      swap1\n      pop\n        /* \"#utility.yul\":19786:20081   */\n      swap3\n      swap2\n      pop\n      pop\n      jump\t// out\n        /* \"#utility.yul\":20086:21481   */\n    tag_89:\n        /* \"#utility.yul\":20203:20240   */\n      tag_367\n        /* \"#utility.yul\":20236:20239   */\n      dup3\n        /* \"#utility.yul\":20203:20240   */\n      tag_132\n      jump\t// in\n    tag_367:\n        /* \"#utility.yul\":20305:20323   */\n      0xffffffffffffffff\n        /* \"#utility.yul\":20297:20303   */\n      dup2\n        /* \"#utility.yul\":20294:20324   */\n      gt\n        /* \"#utility.yul\":20291:20347   */\n      iszero\n      tag_368\n      jumpi\n        /* \"#utility.yul\":20327:20345   */\n      tag_369\n      tag_139\n      jump\t// in\n    tag_369:\n        /* \"#utility.yul\":20291:20347   */\n    tag_368:\n        /* \"#utility.yul\":20371:20409   */\n      tag_370\n        /* \"#utility.yul\":20403:20407   */\n      dup3\n        /* \"#utility.yul\":20397:20408   */\n      sload\n        /* \"#utility.yul\":20371:20409   */\n      tag_46\n      jump\t// in\n    tag_370:\n        /* \"#utility.yul\":20456:20523   */\n      tag_371\n        /* \"#utility.yul\":20516:20522   */\n      dup3\n        /* \"#utility.yul\":20508:20514   */\n      dup3\n        /* \"#utility.yul\":20502:20506   */\n      dup6\n        /* \"#utility.yul\":20456:20523   */\n      tag_172\n      jump\t// in\n    tag_371:\n        /* \"#utility.yul\":20550:20551   */\n      0x00\n        /* \"#utility.yul\":20574:20578   */\n      0x20\n        /* \"#utility.yul\":20561:20578   */\n      swap1\n      pop\n        /* \"#utility.yul\":20606:20608   */\n      0x1f\n        /* \"#utility.yul\":20598:20604   */\n      dup4\n        /* \"#utility.yul\":20595:20609   */\n      gt\n        /* \"#utility.yul\":20623:20624   */\n      0x01\n        /* \"#utility.yul\":20618:21236   */\n      dup2\n      eq\n      tag_373\n      jumpi\n        /* \"#utility.yul\":21280:21281   */\n      0x00\n        /* \"#utility.yul\":21297:21303   */\n      dup5\n        /* \"#utility.yul\":21294:21371   */\n      iszero\n      tag_374\n      jumpi\n        /* \"#utility.yul\":21346:21355   */\n      dup3\n        /* \"#utility.yul\":21341:21344   */\n      dup8\n        /* \"#utility.yul\":21337:21356   */\n      add\n        /* \"#utility.yul\":21331:21357   */\n      mload\n        /* \"#utility.yul\":21322:21357   */\n      swap1\n      pop\n        /* \"#utility.yul\":21294:21371   */\n    tag_374:\n        /* \"#utility.yul\":21397:21464   */\n      tag_375\n        /* \"#utility.yul\":21457:21463   */\n      dup6\n        /* \"#utility.yul\":21450:21455   */\n      dup3\n        /* \"#utility.yul\":21397:21464   */\n      tag_175\n      jump\t// in\n    tag_375:\n        /* \"#utility.yul\":21391:21395   */\n      dup7\n        /* \"#utility.yul\":21384:21465   */\n      sstore\n        /* \"#utility.yul\":21253:21475   */\n      pop\n        /* \"#utility.yul\":20588:21475   */\n      jump(tag_372)\n        /* \"#utility.yul\":20618:21236   */\n    tag_373:\n        /* \"#utility.yul\":20670:20674   */\n      0x1f\n        /* \"#utility.yul\":20666:20675   */\n      not\n        /* \"#utility.yul\":20658:20664   */\n      dup5\n        /* \"#utility.yul\":20654:20676   */\n      and\n        /* \"#utility.yul\":20704:20741   */\n      tag_376\n        /* \"#utility.yul\":20736:20740   */\n      dup7\n        /* \"#utility.yul\":20704:20741   */\n      tag_160\n      jump\t// in\n    tag_376:\n        /* \"#utility.yul\":20763:20764   */\n      0x00\n        /* \"#utility.yul\":20777:20985   */\n    tag_377:\n        /* \"#utility.yul\":20791:20798   */\n      dup3\n        /* \"#utility.yul\":20788:20789   */\n      dup2\n        /* \"#utility.yul\":20785:20799   */\n      lt\n        /* \"#utility.yul\":20777:20985   */\n      iszero\n      tag_379\n      jumpi\n        /* \"#utility.yul\":20870:20879   */\n      dup5\n        /* \"#utility.yul\":20865:20868   */\n      dup10\n        /* \"#utility.yul\":20861:20880   */\n      add\n        /* \"#utility.yul\":20855:20881   */\n      mload\n        /* \"#utility.yul\":20847:20853   */\n      dup3\n        /* \"#utility.yul\":20840:20882   */\n      sstore\n        /* \"#utility.yul\":20921:20922   */\n      0x01\n        /* \"#utility.yul\":20913:20919   */\n      dup3\n        /* \"#utility.yul\":20909:20923   */\n      add\n        /* \"#utility.yul\":20899:20923   */\n      swap2\n      pop\n        /* \"#utility.yul\":20968:20970   */\n      0x20\n        /* \"#utility.yul\":20957:20966   */\n      dup6\n        /* \"#utility.yul\":20953:20971   */\n      add\n        /* \"#utility.yul\":20940:20971   */\n      swap5\n      pop\n        /* \"#utility.yul\":20814:20818   */\n      0x20\n        /* \"#utility.yul\":20811:20812   */\n      dup2\n        /* \"#utility.yul\":20807:20819   */\n      add\n        /* \"#utility.yul\":20802:20819   */\n      swap1\n      pop\n        /* \"#utility.yul\":20777:20985   */\n      jump(tag_377)\n    tag_379:\n        /* \"#utility.yul\":21013:21019   */\n      dup7\n        /* \"#utility.yul\":21004:21011   */\n      dup4\n        /* \"#utility.yul\":21001:21020   */\n      lt\n        /* \"#utility.yul\":20998:21177   */\n      iszero\n      tag_380\n      jumpi\n        /* \"#utility.yul\":21071:21080   */\n      dup5\n        /* \"#utility.yul\":21066:21069   */\n      dup10\n        /* \"#utility.yul\":21062:21081   */\n      add\n        /* \"#utility.yul\":21056:21082   */\n      mload\n        /* \"#utility.yul\":21114:21162   */\n      tag_381\n        /* \"#utility.yul\":21156:21160   */\n      0x1f\n        /* \"#utility.yul\":21148:21154   */\n      dup10\n        /* \"#utility.yul\":21144:21161   */\n      and\n        /* \"#utility.yul\":21133:21142   */\n      dup3\n        /* \"#utility.yul\":21114:21162   */\n      tag_174\n      jump\t// in\n    tag_381:\n        /* \"#utility.yul\":21106:21112   */\n      dup4\n        /* \"#utility.yul\":21099:21163   */\n      sstore\n        /* \"#utility.yul\":21021:21177   */\n      pop\n        /* \"#utility.yul\":20998:21177   */\n    tag_380:\n        /* \"#utility.yul\":21223:21224   */\n      0x01\n        /* \"#utility.yul\":21219:21220   */\n      0x02\n        /* \"#utility.yul\":21211:21217   */\n      dup9\n        /* \"#utility.yul\":21207:21221   */\n      mul\n        /* \"#utility.yul\":21203:21225   */\n      add\n        /* \"#utility.yul\":21197:21201   */\n      dup9\n        /* \"#utility.yul\":21190:21226   */\n      sstore\n        /* \"#utility.yul\":20625:21236   */\n      pop\n      pop\n      pop\n        /* \"#utility.yul\":20588:21475   */\n    tag_372:\n      pop\n        /* \"#utility.yul\":20178:21481   */\n      pop\n      pop\n      pop\n        /* \"#utility.yul\":20086:21481   */\n      pop\n      pop\n      jump\t// out\n\n    auxdata: 0xa26469706673582212200ab63381b3f59bcb274acc7add1e553adebda8385b176cc4161f55174490bab364736f6c634300080f0033\n}\n","bytecode":{"linkReferences":{},"object":"60806040526040518060c001604052806040518060400160405280600681526020017f526f67657273000000000000000000000000000000000000000000000000000081525081526020016040518060400160405280600481526020017f4669646f0000000000000000000000000000000000000000000000000000000081525081526020016040518060400160405280600881526020017f542d4d6f62696c6500000000000000000000000000000000000000000000000081525081526020016040518060400160405280600781526020017f437269636b65740000000000000000000000000000000000000000000000000081525081526020016040518060400160405280600581526020017f42656c6c7300000000000000000000000000000000000000000000000000000081525081526020016040518060400160405280600481526020017f41542654000000000000000000000000000000000000000000000000000000008152508152506000906006620001819291906200084d565b506040518060c0016040528073d18a6cd4f4307a51c000ace84672d3cfca72670d73ffffffffffffffffffffffffffffffffffffffff1673ffffffffffffffffffffffffffffffffffffffff1681526020017386e1ddde08cc9f897bf7333db30951eed46383a773ffffffffffffffffffffffffffffffffffffffff1673ffffffffffffffffffffffffffffffffffffffff16815260200173774a428064d0e6443e7f1368719386b2aa5b53b773ffffffffffffffffffffffffffffffffffffffff1673ffffffffffffffffffffffffffffffffffffffff16815260200173401a65d9bfc4641d8153f4bf804c358da25539ba73ffffffffffffffffffffffffffffffffffffffff1673ffffffffffffffffffffffffffffffffffffffff16815260200173fa5e3ba0c642ab778be226147826eb20277f299b73ffffffffffffffffffffffffffffffffffffffff1673ffffffffffffffffffffffffffffffffffffffff16815260200173ca75d0ae72a14b66e9a9993dce905677a642605a73ffffffffffffffffffffffffffffffffffffffff1673ffffffffffffffffffffffffffffffffffffffff16815250600190600662000341929190620008ad565b5060405180606001604052806040518060400160405280600a81526020017f566f6963652043616c6c0000000000000000000000000000000000000000000081525081526020016040518060400160405280600381526020017f534d53000000000000000000000000000000000000000000000000000000000081525081526020016040518060400160405280600881526020017f496e7465726e657400000000000000000000000000000000000000000000000081525081525060039060036200040e9291906200093c565b503480156200041c57600080fd5b506000808154811062000434576200043362000a29565b5b906000526020600020016002600060016000815481106200045a576200045962000a29565b5b9060005260206000200160009054906101000a900473ffffffffffffffffffffffffffffffffffffffff1673ffffffffffffffffffffffffffffffffffffffff1673ffffffffffffffffffffffffffffffffffffffff1681526020019081526020016000209081620004cd919062000cf4565b506000600181548110620004e657620004e562000a29565b5b9060005260206000200160026000600180815481106200050b576200050a62000a29565b5b9060005260206000200160009054906101000a900473ffffffffffffffffffffffffffffffffffffffff1673ffffffffffffffffffffffffffffffffffffffff1673ffffffffffffffffffffffffffffffffffffffff16815260200190815260200160002090816200057e919062000cf4565b50600060028154811062000597576200059662000a29565b5b90600052602060002001600260006001600281548110620005bd57620005bc62000a29565b5b9060005260206000200160009054906101000a900473ffffffffffffffffffffffffffffffffffffffff1673ffffffffffffffffffffffffffffffffffffffff1673ffffffffffffffffffffffffffffffffffffffff168152602001908152602001600020908162000630919062000cf4565b50600060038154811062000649576200064862000a29565b5b906000526020600020016002600060016003815481106200066f576200066e62000a29565b5b9060005260206000200160009054906101000a900473ffffffffffffffffffffffffffffffffffffffff1673ffffffffffffffffffffffffffffffffffffffff1673ffffffffffffffffffffffffffffffffffffffff1681526020019081526020016000209081620006e2919062000cf4565b506000600481548110620006fb57620006fa62000a29565b5b9060005260206000200160026000600160048154811062000721576200072062000a29565b5b9060005260206000200160009054906101000a900473ffffffffffffffffffffffffffffffffffffffff1673ffffffffffffffffffffffffffffffffffffffff1673ffffffffffffffffffffffffffffffffffffffff168152602001908152602001600020908162000794919062000cf4565b506000600581548110620007ad57620007ac62000a29565b5b90600052602060002001600260006001600581548110620007d357620007d262000a29565b5b9060005260206000200160009054906101000a900473ffffffffffffffffffffffffffffffffffffffff1673ffffffffffffffffffffffffffffffffffffffff1673ffffffffffffffffffffffffffffffffffffffff168152602001908152602001600020908162000846919062000cf4565b5062000ee7565b8280548282559060005260206000209081019282156200089a579160200282015b828111156200089957825182908162000888919062000e00565b50916020019190600101906200086e565b5b509050620008a991906200099c565b5090565b82805482825590600052602060002090810192821562000929579160200282015b82811115620009285782518260006101000a81548173ffffffffffffffffffffffffffffffffffffffff021916908373ffffffffffffffffffffffffffffffffffffffff16021790555091602001919060010190620008ce565b5b509050620009389190620009c4565b5090565b82805482825590600052602060002090810192821562000989579160200282015b828111156200098857825182908162000977919062000e00565b50916020019190600101906200095d565b5b5090506200099891906200099c565b5090565b5b80821115620009c05760008181620009b69190620009e3565b506001016200099d565b5090565b5b80821115620009df576000816000905550600101620009c5565b5090565b508054620009f19062000a87565b6000825580601f1062000a05575062000a26565b601f01602090049060005260206000209081019062000a259190620009c4565b5b50565b7f4e487b7100000000000000000000000000000000000000000000000000000000600052603260045260246000fd5b7f4e487b7100000000000000000000000000000000000000000000000000000000600052602260045260246000fd5b6000600282049050600182168062000aa057607f821691505b60208210810362000ab65762000ab562000a58565b5b50919050565b60008154905062000acd8162000a87565b9050919050565b7f4e487b7100000000000000000000000000000000000000000000000000000000600052604160045260246000fd5b60008190508160005260206000209050919050565b60008190508160005260206000209050919050565b60006020601f8301049050919050565b600082821b905092915050565b60006008830262000b7c7fffffffffffffffffffffffffffffffffffffffffffffffffffffffffffffffff8262000b3d565b62000b88868362000b3d565b95508019841693508086168417925050509392505050565b6000819050919050565b6000819050919050565b600062000bd562000bcf62000bc98462000ba0565b62000baa565b62000ba0565b9050919050565b6000819050919050565b62000bf18362000bb4565b62000c0962000c008262000bdc565b84845462000b4a565b825550505050565b600090565b62000c2062000c11565b62000c2d81848462000be6565b505050565b5b8181101562000c555762000c4960008262000c16565b60018101905062000c33565b5050565b601f82111562000ca45762000c6e8162000b03565b62000c798462000b2d565b8101602085101562000c89578190505b62000ca162000c988562000b2d565b83018262000c32565b50505b505050565b600082821c905092915050565b600062000cc96000198460080262000ca9565b1980831691505092915050565b600062000ce4838362000cb6565b9150826002028217905092915050565b81810362000d0457505062000df3565b62000d0f8262000abc565b67ffffffffffffffff81111562000d2b5762000d2a62000ad4565b5b62000d37825462000a87565b62000d4482828562000c59565b6000601f83116001811462000d78576000841562000d63578287015490505b62000d6f858262000cd6565b86555062000dec565b601f19841662000d888762000b18565b965062000d958662000b03565b60005b8281101562000dbf5784890154825560018201915060018501945060208101905062000d98565b8683101562000ddf578489015462000ddb601f89168262000cb6565b8355505b6001600288020188555050505b5050505050505b565b600081519050919050565b62000e0b8262000df5565b67ffffffffffffffff81111562000e275762000e2662000ad4565b5b62000e33825462000a87565b62000e4082828562000c59565b600060209050601f83116001811462000e78576000841562000e63578287015190505b62000e6f858262000cd6565b86555062000edf565b601f19841662000e888662000b03565b60005b8281101562000eb25784890151825560018201915060208501945060208101905062000e8b565b8683101562000ed2578489015162000ece601f89168262000cb6565b8355505b6001600288020188555050505b505050505050565b6115338062000ef76000396000f3fe608060405234801561001057600080fd5b506004361061007d5760003560e01c8063704f1b941161005b578063704f1b94146101125780638f1d613d1461012e578063a83670701461014a578063c2f373051461017a5761007d565b80630a02dcc7146100825780633073902f146100b25780634c3912e7146100e2575b600080fd5b61009c60048036038101906100979190610aa6565b610196565b6040516100a99190610b6c565b60405180910390f35b6100cc60048036038101906100c79190610cc3565b610242565b6040516100d99190610e90565b60405180910390f35b6100fc60048036038101906100f79190610aa6565b610507565b6040516101099190610b6c565b60405180910390f35b61012c60048036038101906101279190610cc3565b6105b3565b005b61014860048036038101906101439190610eb2565b610645565b005b610164600480360381019061015f9190610cc3565b61074c565b6040516101719190611039565b60405180910390f35b610194600480360381019061018f919061105b565b610958565b005b600081815481106101a657600080fd5b9060005260206000200160009150905080546101c190611161565b80601f01602080910402602001604051908101604052809291908181526020018280546101ed90611161565b801561023a5780601f1061020f5761010080835404028352916020019161023a565b820191906000526020600020905b81548152906001019060200180831161021d57829003601f168201915b505050505081565b606060068260405161025491906111ce565b9081526020016040518091039020805480602002602001604051908101604052809291908181526020016000905b828210156104fc57838290600052602060002090600402016040518060800160405290816000820180546102b590611161565b80601f01602080910402602001604051908101604052809291908181526020018280546102e190611161565b801561032e5780601f106103035761010080835404028352916020019161032e565b820191906000526020600020905b81548152906001019060200180831161031157829003601f168201915b5050505050815260200160018201805461034790611161565b80601f016020809104026020016040519081016040528092919081815260200182805461037390611161565b80156103c05780601f10610395576101008083540402835291602001916103c0565b820191906000526020600020905b8154815290600101906020018083116103a357829003601f168201915b505050505081526020016002820180546103d990611161565b80601f016020809104026020016040519081016040528092919081815260200182805461040590611161565b80156104525780601f1061042757610100808354040283529160200191610452565b820191906000526020600020905b81548152906001019060200180831161043557829003601f168201915b5050505050815260200160038201805461046b90611161565b80601f016020809104026020016040519081016040528092919081815260200182805461049790611161565b80156104e45780601f106104b9576101008083540402835291602001916104e4565b820191906000526020600020905b8154815290600101906020018083116104c757829003601f168201915b50505050508152505081526020019060010190610282565b505050509050919050565b6003818154811061051757600080fd5b90600052602060002001600091509050805461053290611161565b80601f016020809104026020016040519081016040528092919081815260200182805461055e90611161565b80156105ab5780601f10610580576101008083540402835291602001916105ab565b820191906000526020600020905b81548152906001019060200180831161058e57829003601f168201915b505050505081565b6004600260003373ffffffffffffffffffffffffffffffffffffffff1673ffffffffffffffffffffffffffffffffffffffff168152602001908152602001600020604051610601919061127d565b908152602001604051809103902081908060018154018082558091505060019003906000526020600020016000909190919091509081610641919061142b565b5050565b8560058760405161065691906111ce565b90815260200160405180910390206000019081610673919061142b565b508460058760405161068591906111ce565b908152602001604051809103902060010190816106a2919061142b565b50836005876040516106b491906111ce565b908152602001604051809103902060020190816106d1919061142b565b50826005876040516106e391906111ce565b9081526020016040518091039020600301819055508160058760405161070991906111ce565b9081526020016040518091039020600401819055508060058760405161072f91906111ce565b908152602001604051809103902060050181905550505050505050565b610754610a26565b60058260405161076491906111ce565b90815260200160405180910390206040518060c001604052908160008201805461078d90611161565b80601f01602080910402602001604051908101604052809291908181526020018280546107b990611161565b80156108065780601f106107db57610100808354040283529160200191610806565b820191906000526020600020905b8154815290600101906020018083116107e957829003601f168201915b5050505050815260200160018201805461081f90611161565b80601f016020809104026020016040519081016040528092919081815260200182805461084b90611161565b80156108985780601f1061086d57610100808354040283529160200191610898565b820191906000526020600020905b81548152906001019060200180831161087b57829003601f168201915b505050505081526020016002820180546108b190611161565b80601f01602080910402602001604051908101604052809291908181526020018280546108dd90611161565b801561092a5780601f106108ff5761010080835404028352916020019161092a565b820191906000526020600020905b81548152906001019060200180831161090d57829003601f168201915b5050505050815260200160038201548152602001600482015481526020016005820154815250509050919050565b6000604051806080016040528086815260200185815260200184815260200183815250905060068560405161098d91906111ce565b908152602001604051809103902081908060018154018082558091505060019003906000526020600020906004020160009091909190915060008201518160000190816109da919061142b565b5060208201518160010190816109f0919061142b565b506040820151816002019081610a06919061142b565b506060820151816003019081610a1c919061142b565b5050505050505050565b6040518060c001604052806060815260200160608152602001606081526020016000815260200160008152602001600081525090565b6000604051905090565b600080fd5b600080fd5b6000819050919050565b610a8381610a70565b8114610a8e57600080fd5b50565b600081359050610aa081610a7a565b92915050565b600060208284031215610abc57610abb610a66565b5b6000610aca84828501610a91565b91505092915050565b600081519050919050565b600082825260208201905092915050565b60005b83811015610b0d578082015181840152602081019050610af2565b83811115610b1c576000848401525b50505050565b6000601f19601f8301169050919050565b6000610b3e82610ad3565b610b488185610ade565b9350610b58818560208601610aef565b610b6181610b22565b840191505092915050565b60006020820190508181036000830152610b868184610b33565b905092915050565b600080fd5b600080fd5b7f4e487b7100000000000000000000000000000000000000000000000000000000600052604160045260246000fd5b610bd082610b22565b810181811067ffffffffffffffff82111715610bef57610bee610b98565b5b80604052505050565b6000610c02610a5c565b9050610c0e8282610bc7565b919050565b600067ffffffffffffffff821115610c2e57610c2d610b98565b5b610c3782610b22565b9050602081019050919050565b82818337600083830152505050565b6000610c66610c6184610c13565b610bf8565b905082815260208101848484011115610c8257610c81610b93565b5b610c8d848285610c44565b509392505050565b600082601f830112610caa57610ca9610b8e565b5b8135610cba848260208601610c53565b91505092915050565b600060208284031215610cd957610cd8610a66565b5b600082013567ffffffffffffffff811115610cf757610cf6610a6b565b5b610d0384828501610c95565b91505092915050565b600081519050919050565b600082825260208201905092915050565b6000819050602082019050919050565b600082825260208201905092915050565b6000610d5482610ad3565b610d5e8185610d38565b9350610d6e818560208601610aef565b610d7781610b22565b840191505092915050565b60006080830160008301518482036000860152610d9f8282610d49565b91505060208301518482036020860152610db98282610d49565b91505060408301518482036040860152610dd38282610d49565b91505060608301518482036060860152610ded8282610d49565b9150508091505092915050565b6000610e068383610d82565b905092915050565b6000602082019050919050565b6000610e2682610d0c565b610e308185610d17565b935083602082028501610e4285610d28565b8060005b85811015610e7e5784840389528151610e5f8582610dfa565b9450610e6a83610e0e565b925060208a01995050600181019050610e46565b50829750879550505050505092915050565b60006020820190508181036000830152610eaa8184610e1b565b905092915050565b60008060008060008060c08789031215610ecf57610ece610a66565b5b600087013567ffffffffffffffff811115610eed57610eec610a6b565b5b610ef989828a01610c95565b965050602087013567ffffffffffffffff811115610f1a57610f19610a6b565b5b610f2689828a01610c95565b955050604087013567ffffffffffffffff811115610f4757610f46610a6b565b5b610f5389828a01610c95565b9450506060610f6489828a01610a91565b9350506080610f7589828a01610a91565b92505060a0610f8689828a01610a91565b9150509295509295509295565b610f9c81610a70565b82525050565b600060c0830160008301518482036000860152610fbf8282610d49565b91505060208301518482036020860152610fd98282610d49565b91505060408301518482036040860152610ff38282610d49565b91505060608301516110086060860182610f93565b50608083015161101b6080860182610f93565b5060a083015161102e60a0860182610f93565b508091505092915050565b600060208201905081810360008301526110538184610fa2565b905092915050565b6000806000806080858703121561107557611074610a66565b5b600085013567ffffffffffffffff81111561109357611092610a6b565b5b61109f87828801610c95565b945050602085013567ffffffffffffffff8111156110c0576110bf610a6b565b5b6110cc87828801610c95565b935050604085013567ffffffffffffffff8111156110ed576110ec610a6b565b5b6110f987828801610c95565b925050606085013567ffffffffffffffff81111561111a57611119610a6b565b5b61112687828801610c95565b91505092959194509250565b7f4e487b7100000000000000000000000000000000000000000000000000000000600052602260045260246000fd5b6000600282049050600182168061117957607f821691505b60208210810361118c5761118b611132565b5b50919050565b600081905092915050565b60006111a882610ad3565b6111b28185611192565b93506111c2818560208601610aef565b80840191505092915050565b60006111da828461119d565b915081905092915050565b60008190508160005260206000209050919050565b6000815461120781611161565b6112118186611192565b9450600182166000811461122c576001811461124157611274565b60ff1983168652811515820286019350611274565b61124a856111e5565b60005b8381101561126c5781548189015260018201915060208101905061124d565b838801955050505b50505092915050565b600061128982846111fa565b915081905092915050565b60006020601f8301049050919050565b600082821b905092915050565b6000600883026112e17fffffffffffffffffffffffffffffffffffffffffffffffffffffffffffffffff826112a4565b6112eb86836112a4565b95508019841693508086168417925050509392505050565b6000819050919050565b600061132861132361131e84610a70565b611303565b610a70565b9050919050565b6000819050919050565b6113428361130d565b61135661134e8261132f565b8484546112b1565b825550505050565b600090565b61136b61135e565b611376818484611339565b505050565b5b8181101561139a5761138f600082611363565b60018101905061137c565b5050565b601f8211156113df576113b0816111e5565b6113b984611294565b810160208510156113c8578190505b6113dc6113d485611294565b83018261137b565b50505b505050565b600082821c905092915050565b6000611402600019846008026113e4565b1980831691505092915050565b600061141b83836113f1565b9150826002028217905092915050565b61143482610ad3565b67ffffffffffffffff81111561144d5761144c610b98565b5b6114578254611161565b61146282828561139e565b600060209050601f8311600181146114955760008415611483578287015190505b61148d858261140f565b8655506114f5565b601f1984166114a3866111e5565b60005b828110156114cb578489015182556001820191506020850194506020810190506114a6565b868310156114e857848901516114e4601f8916826113f1565b8355505b6001600288020188555050505b50505050505056fea26469706673582212200ab63381b3f59bcb274acc7add1e553adebda8385b176cc4161f55174490bab364736f6c634300080f0033","opcodes":"PUSH1 0x80 PUSH1 0x40 MSTORE PUSH1 0x40 MLOAD DUP1 PUSH1 0xC0 ADD PUSH1 0x40 MSTORE DUP1 PUSH1 0x40 MLOAD DUP1 PUSH1 0x40 ADD PUSH1 0x40 MSTORE DUP1 PUSH1 0x6 DUP2 MSTORE PUSH1 0x20 ADD PUSH32 0x526F676572730000000000000000000000000000000000000000000000000000 DUP2 MSTORE POP DUP2 MSTORE PUSH1 0x20 ADD PUSH1 0x40 MLOAD DUP1 PUSH1 0x40 ADD PUSH1 0x40 MSTORE DUP1 PUSH1 0x4 DUP2 MSTORE PUSH1 0x20 ADD PUSH32 0x4669646F00000000000000000000000000000000000000000000000000000000 DUP2 MSTORE POP DUP2 MSTORE PUSH1 0x20 ADD PUSH1 0x40 MLOAD DUP1 PUSH1 0x40 ADD PUSH1 0x40 MSTORE DUP1 PUSH1 0x8 DUP2 MSTORE PUSH1 0x20 ADD PUSH32 0x542D4D6F62696C65000000000000000000000000000000000000000000000000 DUP2 MSTORE POP DUP2 MSTORE PUSH1 0x20 ADD PUSH1 0x40 MLOAD DUP1 PUSH1 0x40 ADD PUSH1 0x40 MSTORE DUP1 PUSH1 0x7 DUP2 MSTORE PUSH1 0x20 ADD PUSH32 0x437269636B657400000000000000000000000000000000000000000000000000 DUP2 MSTORE POP DUP2 MSTORE PUSH1 0x20 ADD PUSH1 0x40 MLOAD DUP1 PUSH1 0x40 ADD PUSH1 0x40 MSTORE DUP1 PUSH1 0x5 DUP2 MSTORE PUSH1 0x20 ADD PUSH32 0x42656C6C73000000000000000000000000000000000000000000000000000000 DUP2 MSTORE POP DUP2 MSTORE PUSH1 0x20 ADD PUSH1 0x40 MLOAD DUP1 PUSH1 0x40 ADD PUSH1 0x40 MSTORE DUP1 PUSH1 0x4 DUP2 MSTORE PUSH1 0x20 ADD PUSH32 0x4154265400000000000000000000000000000000000000000000000000000000 DUP2 MSTORE POP DUP2 MSTORE POP PUSH1 0x0 SWAP1 PUSH1 0x6 PUSH3 0x181 SWAP3 SWAP2 SWAP1 PUSH3 0x84D JUMP JUMPDEST POP PUSH1 0x40 MLOAD DUP1 PUSH1 0xC0 ADD PUSH1 0x40 MSTORE DUP1 PUSH20 0xD18A6CD4F4307A51C000ACE84672D3CFCA72670D PUSH20 0xFFFFFFFFFFFFFFFFFFFFFFFFFFFFFFFFFFFFFFFF AND PUSH20 0xFFFFFFFFFFFFFFFFFFFFFFFFFFFFFFFFFFFFFFFF AND DUP2 MSTORE PUSH1 0x20 ADD PUSH20 0x86E1DDDE08CC9F897BF7333DB30951EED46383A7 PUSH20 0xFFFFFFFFFFFFFFFFFFFFFFFFFFFFFFFFFFFFFFFF AND PUSH20 0xFFFFFFFFFFFFFFFFFFFFFFFFFFFFFFFFFFFFFFFF AND DUP2 MSTORE PUSH1 0x20 ADD PUSH20 0x774A428064D0E6443E7F1368719386B2AA5B53B7 PUSH20 0xFFFFFFFFFFFFFFFFFFFFFFFFFFFFFFFFFFFFFFFF AND PUSH20 0xFFFFFFFFFFFFFFFFFFFFFFFFFFFFFFFFFFFFFFFF AND DUP2 MSTORE PUSH1 0x20 ADD PUSH20 0x401A65D9BFC4641D8153F4BF804C358DA25539BA PUSH20 0xFFFFFFFFFFFFFFFFFFFFFFFFFFFFFFFFFFFFFFFF AND PUSH20 0xFFFFFFFFFFFFFFFFFFFFFFFFFFFFFFFFFFFFFFFF AND DUP2 MSTORE PUSH1 0x20 ADD PUSH20 0xFA5E3BA0C642AB778BE226147826EB20277F299B PUSH20 0xFFFFFFFFFFFFFFFFFFFFFFFFFFFFFFFFFFFFFFFF AND PUSH20 0xFFFFFFFFFFFFFFFFFFFFFFFFFFFFFFFFFFFFFFFF AND DUP2 MSTORE PUSH1 0x20 ADD PUSH20 0xCA75D0AE72A14B66E9A9993DCE905677A642605A PUSH20 0xFFFFFFFFFFFFFFFFFFFFFFFFFFFFFFFFFFFFFFFF AND PUSH20 0xFFFFFFFFFFFFFFFFFFFFFFFFFFFFFFFFFFFFFFFF AND DUP2 MSTORE POP PUSH1 0x1 SWAP1 PUSH1 0x6 PUSH3 0x341 SWAP3 SWAP2 SWAP1 PUSH3 0x8AD JUMP JUMPDEST POP PUSH1 0x40 MLOAD DUP1 PUSH1 0x60 ADD PUSH1 0x40 MSTORE DUP1 PUSH1 0x40 MLOAD DUP1 PUSH1 0x40 ADD PUSH1 0x40 MSTORE DUP1 PUSH1 0xA DUP2 MSTORE PUSH1 0x20 ADD PUSH32 0x566F6963652043616C6C00000000000000000000000000000000000000000000 DUP2 MSTORE POP DUP2 MSTORE PUSH1 0x20 ADD PUSH1 0x40 MLOAD DUP1 PUSH1 0x40 ADD PUSH1 0x40 MSTORE DUP1 PUSH1 0x3 DUP2 MSTORE PUSH1 0x20 ADD PUSH32 0x534D530000000000000000000000000000000000000000000000000000000000 DUP2 MSTORE POP DUP2 MSTORE PUSH1 0x20 ADD PUSH1 0x40 MLOAD DUP1 PUSH1 0x40 ADD PUSH1 0x40 MSTORE DUP1 PUSH1 0x8 DUP2 MSTORE PUSH1 0x20 ADD PUSH32 0x496E7465726E6574000000000000000000000000000000000000000000000000 DUP2 MSTORE POP DUP2 MSTORE POP PUSH1 0x3 SWAP1 PUSH1 0x3 PUSH3 0x40E SWAP3 SWAP2 SWAP1 PUSH3 0x93C JUMP JUMPDEST POP CALLVALUE DUP1 ISZERO PUSH3 0x41C JUMPI PUSH1 0x0 DUP1 REVERT JUMPDEST POP PUSH1 0x0 DUP1 DUP2 SLOAD DUP2 LT PUSH3 0x434 JUMPI PUSH3 0x433 PUSH3 0xA29 JUMP JUMPDEST JUMPDEST SWAP1 PUSH1 0x0 MSTORE PUSH1 0x20 PUSH1 0x0 KECCAK256 ADD PUSH1 0x2 PUSH1 0x0 PUSH1 0x1 PUSH1 0x0 DUP2 SLOAD DUP2 LT PUSH3 0x45A JUMPI PUSH3 0x459 PUSH3 0xA29 JUMP JUMPDEST JUMPDEST SWAP1 PUSH1 0x0 MSTORE PUSH1 0x20 PUSH1 0x0 KECCAK256 ADD PUSH1 0x0 SWAP1 SLOAD SWAP1 PUSH2 0x100 EXP SWAP1 DIV PUSH20 0xFFFFFFFFFFFFFFFFFFFFFFFFFFFFFFFFFFFFFFFF AND PUSH20 0xFFFFFFFFFFFFFFFFFFFFFFFFFFFFFFFFFFFFFFFF AND PUSH20 0xFFFFFFFFFFFFFFFFFFFFFFFFFFFFFFFFFFFFFFFF AND DUP2 MSTORE PUSH1 0x20 ADD SWAP1 DUP2 MSTORE PUSH1 0x20 ADD PUSH1 0x0 KECCAK256 SWAP1 DUP2 PUSH3 0x4CD SWAP2 SWAP1 PUSH3 0xCF4 JUMP JUMPDEST POP PUSH1 0x0 PUSH1 0x1 DUP2 SLOAD DUP2 LT PUSH3 0x4E6 JUMPI PUSH3 0x4E5 PUSH3 0xA29 JUMP JUMPDEST JUMPDEST SWAP1 PUSH1 0x0 MSTORE PUSH1 0x20 PUSH1 0x0 KECCAK256 ADD PUSH1 0x2 PUSH1 0x0 PUSH1 0x1 DUP1 DUP2 SLOAD DUP2 LT PUSH3 0x50B JUMPI PUSH3 0x50A PUSH3 0xA29 JUMP JUMPDEST JUMPDEST SWAP1 PUSH1 0x0 MSTORE PUSH1 0x20 PUSH1 0x0 KECCAK256 ADD PUSH1 0x0 SWAP1 SLOAD SWAP1 PUSH2 0x100 EXP SWAP1 DIV PUSH20 0xFFFFFFFFFFFFFFFFFFFFFFFFFFFFFFFFFFFFFFFF AND PUSH20 0xFFFFFFFFFFFFFFFFFFFFFFFFFFFFFFFFFFFFFFFF AND PUSH20 0xFFFFFFFFFFFFFFFFFFFFFFFFFFFFFFFFFFFFFFFF AND DUP2 MSTORE PUSH1 0x20 ADD SWAP1 DUP2 MSTORE PUSH1 0x20 ADD PUSH1 0x0 KECCAK256 SWAP1 DUP2 PUSH3 0x57E SWAP2 SWAP1 PUSH3 0xCF4 JUMP JUMPDEST POP PUSH1 0x0 PUSH1 0x2 DUP2 SLOAD DUP2 LT PUSH3 0x597 JUMPI PUSH3 0x596 PUSH3 0xA29 JUMP JUMPDEST JUMPDEST SWAP1 PUSH1 0x0 MSTORE PUSH1 0x20 PUSH1 0x0 KECCAK256 ADD PUSH1 0x2 PUSH1 0x0 PUSH1 0x1 PUSH1 0x2 DUP2 SLOAD DUP2 LT PUSH3 0x5BD JUMPI PUSH3 0x5BC PUSH3 0xA29 JUMP JUMPDEST JUMPDEST SWAP1 PUSH1 0x0 MSTORE PUSH1 0x20 PUSH1 0x0 KECCAK256 ADD PUSH1 0x0 SWAP1 SLOAD SWAP1 PUSH2 0x100 EXP SWAP1 DIV PUSH20 0xFFFFFFFFFFFFFFFFFFFFFFFFFFFFFFFFFFFFFFFF AND PUSH20 0xFFFFFFFFFFFFFFFFFFFFFFFFFFFFFFFFFFFFFFFF AND PUSH20 0xFFFFFFFFFFFFFFFFFFFFFFFFFFFFFFFFFFFFFFFF AND DUP2 MSTORE PUSH1 0x20 ADD SWAP1 DUP2 MSTORE PUSH1 0x20 ADD PUSH1 0x0 KECCAK256 SWAP1 DUP2 PUSH3 0x630 SWAP2 SWAP1 PUSH3 0xCF4 JUMP JUMPDEST POP PUSH1 0x0 PUSH1 0x3 DUP2 SLOAD DUP2 LT PUSH3 0x649 JUMPI PUSH3 0x648 PUSH3 0xA29 JUMP JUMPDEST JUMPDEST SWAP1 PUSH1 0x0 MSTORE PUSH1 0x20 PUSH1 0x0 KECCAK256 ADD PUSH1 0x2 PUSH1 0x0 PUSH1 0x1 PUSH1 0x3 DUP2 SLOAD DUP2 LT PUSH3 0x66F JUMPI PUSH3 0x66E PUSH3 0xA29 JUMP JUMPDEST JUMPDEST SWAP1 PUSH1 0x0 MSTORE PUSH1 0x20 PUSH1 0x0 KECCAK256 ADD PUSH1 0x0 SWAP1 SLOAD SWAP1 PUSH2 0x100 EXP SWAP1 DIV PUSH20 0xFFFFFFFFFFFFFFFFFFFFFFFFFFFFFFFFFFFFFFFF AND PUSH20 0xFFFFFFFFFFFFFFFFFFFFFFFFFFFFFFFFFFFFFFFF AND PUSH20 0xFFFFFFFFFFFFFFFFFFFFFFFFFFFFFFFFFFFFFFFF AND DUP2 MSTORE PUSH1 0x20 ADD SWAP1 DUP2 MSTORE PUSH1 0x20 ADD PUSH1 0x0 KECCAK256 SWAP1 DUP2 PUSH3 0x6E2 SWAP2 SWAP1 PUSH3 0xCF4 JUMP JUMPDEST POP PUSH1 0x0 PUSH1 0x4 DUP2 SLOAD DUP2 LT PUSH3 0x6FB JUMPI PUSH3 0x6FA PUSH3 0xA29 JUMP JUMPDEST JUMPDEST SWAP1 PUSH1 0x0 MSTORE PUSH1 0x20 PUSH1 0x0 KECCAK256 ADD PUSH1 0x2 PUSH1 0x0 PUSH1 0x1 PUSH1 0x4 DUP2 SLOAD DUP2 LT PUSH3 0x721 JUMPI PUSH3 0x720 PUSH3 0xA29 JUMP JUMPDEST JUMPDEST SWAP1 PUSH1 0x0 MSTORE PUSH1 0x20 PUSH1 0x0 KECCAK256 ADD PUSH1 0x0 SWAP1 SLOAD SWAP1 PUSH2 0x100 EXP SWAP1 DIV PUSH20 0xFFFFFFFFFFFFFFFFFFFFFFFFFFFFFFFFFFFFFFFF AND PUSH20 0xFFFFFFFFFFFFFFFFFFFFFFFFFFFFFFFFFFFFFFFF AND PUSH20 0xFFFFFFFFFFFFFFFFFFFFFFFFFFFFFFFFFFFFFFFF AND DUP2 MSTORE PUSH1 0x20 ADD SWAP1 DUP2 MSTORE PUSH1 0x20 ADD PUSH1 0x0 KECCAK256 SWAP1 DUP2 PUSH3 0x794 SWAP2 SWAP1 PUSH3 0xCF4 JUMP JUMPDEST POP PUSH1 0x0 PUSH1 0x5 DUP2 SLOAD DUP2 LT PUSH3 0x7AD JUMPI PUSH3 0x7AC PUSH3 0xA29 JUMP JUMPDEST JUMPDEST SWAP1 PUSH1 0x0 MSTORE PUSH1 0x20 PUSH1 0x0 KECCAK256 ADD PUSH1 0x2 PUSH1 0x0 PUSH1 0x1 PUSH1 0x5 DUP2 SLOAD DUP2 LT PUSH3 0x7D3 JUMPI PUSH3 0x7D2 PUSH3 0xA29 JUMP JUMPDEST JUMPDEST SWAP1 PUSH1 0x0 MSTORE PUSH1 0x20 PUSH1 0x0 KECCAK256 ADD PUSH1 0x0 SWAP1 SLOAD SWAP1 PUSH2 0x100 EXP SWAP1 DIV PUSH20 0xFFFFFFFFFFFFFFFFFFFFFFFFFFFFFFFFFFFFFFFF AND PUSH20 0xFFFFFFFFFFFFFFFFFFFFFFFFFFFFFFFFFFFFFFFF AND PUSH20 0xFFFFFFFFFFFFFFFFFFFFFFFFFFFFFFFFFFFFFFFF AND DUP2 MSTORE PUSH1 0x20 ADD SWAP1 DUP2 MSTORE PUSH1 0x20 ADD PUSH1 0x0 KECCAK256 SWAP1 DUP2 PUSH3 0x846 SWAP2 SWAP1 PUSH3 0xCF4 JUMP JUMPDEST POP PUSH3 0xEE7 JUMP JUMPDEST DUP3 DUP1 SLOAD DUP3 DUP3 SSTORE SWAP1 PUSH1 0x0 MSTORE PUSH1 0x20 PUSH1 0x0 KECCAK256 SWAP1 DUP2 ADD SWAP3 DUP3 ISZERO PUSH3 0x89A JUMPI SWAP2 PUSH1 0x20 MUL DUP3 ADD JUMPDEST DUP3 DUP2 GT ISZERO PUSH3 0x899 JUMPI DUP3 MLOAD DUP3 SWAP1 DUP2 PUSH3 0x888 SWAP2 SWAP1 PUSH3 0xE00 JUMP JUMPDEST POP SWAP2 PUSH1 0x20 ADD SWAP2 SWAP1 PUSH1 0x1 ADD SWAP1 PUSH3 0x86E JUMP JUMPDEST JUMPDEST POP SWAP1 POP PUSH3 0x8A9 SWAP2 SWAP1 PUSH3 0x99C JUMP JUMPDEST POP SWAP1 JUMP JUMPDEST DUP3 DUP1 SLOAD DUP3 DUP3 SSTORE SWAP1 PUSH1 0x0 MSTORE PUSH1 0x20 PUSH1 0x0 KECCAK256 SWAP1 DUP2 ADD SWAP3 DUP3 ISZERO PUSH3 0x929 JUMPI SWAP2 PUSH1 0x20 MUL DUP3 ADD JUMPDEST DUP3 DUP2 GT ISZERO PUSH3 0x928 JUMPI DUP3 MLOAD DUP3 PUSH1 0x0 PUSH2 0x100 EXP DUP2 SLOAD DUP2 PUSH20 0xFFFFFFFFFFFFFFFFFFFFFFFFFFFFFFFFFFFFFFFF MUL NOT AND SWAP1 DUP4 PUSH20 0xFFFFFFFFFFFFFFFFFFFFFFFFFFFFFFFFFFFFFFFF AND MUL OR SWAP1 SSTORE POP SWAP2 PUSH1 0x20 ADD SWAP2 SWAP1 PUSH1 0x1 ADD SWAP1 PUSH3 0x8CE JUMP JUMPDEST JUMPDEST POP SWAP1 POP PUSH3 0x938 SWAP2 SWAP1 PUSH3 0x9C4 JUMP JUMPDEST POP SWAP1 JUMP JUMPDEST DUP3 DUP1 SLOAD DUP3 DUP3 SSTORE SWAP1 PUSH1 0x0 MSTORE PUSH1 0x20 PUSH1 0x0 KECCAK256 SWAP1 DUP2 ADD SWAP3 DUP3 ISZERO PUSH3 0x989 JUMPI SWAP2 PUSH1 0x20 MUL DUP3 ADD JUMPDEST DUP3 DUP2 GT ISZERO PUSH3 0x988 JUMPI DUP3 MLOAD DUP3 SWAP1 DUP2 PUSH3 0x977 SWAP2 SWAP1 PUSH3 0xE00 JUMP JUMPDEST POP SWAP2 PUSH1 0x20 ADD SWAP2 SWAP1 PUSH1 0x1 ADD SWAP1 PUSH3 0x95D JUMP JUMPDEST JUMPDEST POP SWAP1 POP PUSH3 0x998 SWAP2 SWAP1 PUSH3 0x99C JUMP JUMPDEST POP SWAP1 JUMP JUMPDEST JUMPDEST DUP1 DUP3 GT ISZERO PUSH3 0x9C0 JUMPI PUSH1 0x0 DUP2 DUP2 PUSH3 0x9B6 SWAP2 SWAP1 PUSH3 0x9E3 JUMP JUMPDEST POP PUSH1 0x1 ADD PUSH3 0x99D JUMP JUMPDEST POP SWAP1 JUMP JUMPDEST JUMPDEST DUP1 DUP3 GT ISZERO PUSH3 0x9DF JUMPI PUSH1 0x0 DUP2 PUSH1 0x0 SWAP1 SSTORE POP PUSH1 0x1 ADD PUSH3 0x9C5 JUMP JUMPDEST POP SWAP1 JUMP JUMPDEST POP DUP1 SLOAD PUSH3 0x9F1 SWAP1 PUSH3 0xA87 JUMP JUMPDEST PUSH1 0x0 DUP3 SSTORE DUP1 PUSH1 0x1F LT PUSH3 0xA05 JUMPI POP PUSH3 0xA26 JUMP JUMPDEST PUSH1 0x1F ADD PUSH1 0x20 SWAP1 DIV SWAP1 PUSH1 0x0 MSTORE PUSH1 0x20 PUSH1 0x0 KECCAK256 SWAP1 DUP2 ADD SWAP1 PUSH3 0xA25 SWAP2 SWAP1 PUSH3 0x9C4 JUMP JUMPDEST JUMPDEST POP JUMP JUMPDEST PUSH32 0x4E487B7100000000000000000000000000000000000000000000000000000000 PUSH1 0x0 MSTORE PUSH1 0x32 PUSH1 0x4 MSTORE PUSH1 0x24 PUSH1 0x0 REVERT JUMPDEST PUSH32 0x4E487B7100000000000000000000000000000000000000000000000000000000 PUSH1 0x0 MSTORE PUSH1 0x22 PUSH1 0x4 MSTORE PUSH1 0x24 PUSH1 0x0 REVERT JUMPDEST PUSH1 0x0 PUSH1 0x2 DUP3 DIV SWAP1 POP PUSH1 0x1 DUP3 AND DUP1 PUSH3 0xAA0 JUMPI PUSH1 0x7F DUP3 AND SWAP2 POP JUMPDEST PUSH1 0x20 DUP3 LT DUP2 SUB PUSH3 0xAB6 JUMPI PUSH3 0xAB5 PUSH3 0xA58 JUMP JUMPDEST JUMPDEST POP SWAP2 SWAP1 POP JUMP JUMPDEST PUSH1 0x0 DUP2 SLOAD SWAP1 POP PUSH3 0xACD DUP2 PUSH3 0xA87 JUMP JUMPDEST SWAP1 POP SWAP2 SWAP1 POP JUMP JUMPDEST PUSH32 0x4E487B7100000000000000000000000000000000000000000000000000000000 PUSH1 0x0 MSTORE PUSH1 0x41 PUSH1 0x4 MSTORE PUSH1 0x24 PUSH1 0x0 REVERT JUMPDEST PUSH1 0x0 DUP2 SWAP1 POP DUP2 PUSH1 0x0 MSTORE PUSH1 0x20 PUSH1 0x0 KECCAK256 SWAP1 POP SWAP2 SWAP1 POP JUMP JUMPDEST PUSH1 0x0 DUP2 SWAP1 POP DUP2 PUSH1 0x0 MSTORE PUSH1 0x20 PUSH1 0x0 KECCAK256 SWAP1 POP SWAP2 SWAP1 POP JUMP JUMPDEST PUSH1 0x0 PUSH1 0x20 PUSH1 0x1F DUP4 ADD DIV SWAP1 POP SWAP2 SWAP1 POP JUMP JUMPDEST PUSH1 0x0 DUP3 DUP3 SHL SWAP1 POP SWAP3 SWAP2 POP POP JUMP JUMPDEST PUSH1 0x0 PUSH1 0x8 DUP4 MUL PUSH3 0xB7C PUSH32 0xFFFFFFFFFFFFFFFFFFFFFFFFFFFFFFFFFFFFFFFFFFFFFFFFFFFFFFFFFFFFFFFF DUP3 PUSH3 0xB3D JUMP JUMPDEST PUSH3 0xB88 DUP7 DUP4 PUSH3 0xB3D JUMP JUMPDEST SWAP6 POP DUP1 NOT DUP5 AND SWAP4 POP DUP1 DUP7 AND DUP5 OR SWAP3 POP POP POP SWAP4 SWAP3 POP POP POP JUMP JUMPDEST PUSH1 0x0 DUP2 SWAP1 POP SWAP2 SWAP1 POP JUMP JUMPDEST PUSH1 0x0 DUP2 SWAP1 POP SWAP2 SWAP1 POP JUMP JUMPDEST PUSH1 0x0 PUSH3 0xBD5 PUSH3 0xBCF PUSH3 0xBC9 DUP5 PUSH3 0xBA0 JUMP JUMPDEST PUSH3 0xBAA JUMP JUMPDEST PUSH3 0xBA0 JUMP JUMPDEST SWAP1 POP SWAP2 SWAP1 POP JUMP JUMPDEST PUSH1 0x0 DUP2 SWAP1 POP SWAP2 SWAP1 POP JUMP JUMPDEST PUSH3 0xBF1 DUP4 PUSH3 0xBB4 JUMP JUMPDEST PUSH3 0xC09 PUSH3 0xC00 DUP3 PUSH3 0xBDC JUMP JUMPDEST DUP5 DUP5 SLOAD PUSH3 0xB4A JUMP JUMPDEST DUP3 SSTORE POP POP POP POP JUMP JUMPDEST PUSH1 0x0 SWAP1 JUMP JUMPDEST PUSH3 0xC20 PUSH3 0xC11 JUMP JUMPDEST PUSH3 0xC2D DUP2 DUP5 DUP5 PUSH3 0xBE6 JUMP JUMPDEST POP POP POP JUMP JUMPDEST JUMPDEST DUP2 DUP2 LT ISZERO PUSH3 0xC55 JUMPI PUSH3 0xC49 PUSH1 0x0 DUP3 PUSH3 0xC16 JUMP JUMPDEST PUSH1 0x1 DUP2 ADD SWAP1 POP PUSH3 0xC33 JUMP JUMPDEST POP POP JUMP JUMPDEST PUSH1 0x1F DUP3 GT ISZERO PUSH3 0xCA4 JUMPI PUSH3 0xC6E DUP2 PUSH3 0xB03 JUMP JUMPDEST PUSH3 0xC79 DUP5 PUSH3 0xB2D JUMP JUMPDEST DUP2 ADD PUSH1 0x20 DUP6 LT ISZERO PUSH3 0xC89 JUMPI DUP2 SWAP1 POP JUMPDEST PUSH3 0xCA1 PUSH3 0xC98 DUP6 PUSH3 0xB2D JUMP JUMPDEST DUP4 ADD DUP3 PUSH3 0xC32 JUMP JUMPDEST POP POP JUMPDEST POP POP POP JUMP JUMPDEST PUSH1 0x0 DUP3 DUP3 SHR SWAP1 POP SWAP3 SWAP2 POP POP JUMP JUMPDEST PUSH1 0x0 PUSH3 0xCC9 PUSH1 0x0 NOT DUP5 PUSH1 0x8 MUL PUSH3 0xCA9 JUMP JUMPDEST NOT DUP1 DUP4 AND SWAP2 POP POP SWAP3 SWAP2 POP POP JUMP JUMPDEST PUSH1 0x0 PUSH3 0xCE4 DUP4 DUP4 PUSH3 0xCB6 JUMP JUMPDEST SWAP2 POP DUP3 PUSH1 0x2 MUL DUP3 OR SWAP1 POP SWAP3 SWAP2 POP POP JUMP JUMPDEST DUP2 DUP2 SUB PUSH3 0xD04 JUMPI POP POP PUSH3 0xDF3 JUMP JUMPDEST PUSH3 0xD0F DUP3 PUSH3 0xABC JUMP JUMPDEST PUSH8 0xFFFFFFFFFFFFFFFF DUP2 GT ISZERO PUSH3 0xD2B JUMPI PUSH3 0xD2A PUSH3 0xAD4 JUMP JUMPDEST JUMPDEST PUSH3 0xD37 DUP3 SLOAD PUSH3 0xA87 JUMP JUMPDEST PUSH3 0xD44 DUP3 DUP3 DUP6 PUSH3 0xC59 JUMP JUMPDEST PUSH1 0x0 PUSH1 0x1F DUP4 GT PUSH1 0x1 DUP2 EQ PUSH3 0xD78 JUMPI PUSH1 0x0 DUP5 ISZERO PUSH3 0xD63 JUMPI DUP3 DUP8 ADD SLOAD SWAP1 POP JUMPDEST PUSH3 0xD6F DUP6 DUP3 PUSH3 0xCD6 JUMP JUMPDEST DUP7 SSTORE POP PUSH3 0xDEC JUMP JUMPDEST PUSH1 0x1F NOT DUP5 AND PUSH3 0xD88 DUP8 PUSH3 0xB18 JUMP JUMPDEST SWAP7 POP PUSH3 0xD95 DUP7 PUSH3 0xB03 JUMP JUMPDEST PUSH1 0x0 JUMPDEST DUP3 DUP2 LT ISZERO PUSH3 0xDBF JUMPI DUP5 DUP10 ADD SLOAD DUP3 SSTORE PUSH1 0x1 DUP3 ADD SWAP2 POP PUSH1 0x1 DUP6 ADD SWAP5 POP PUSH1 0x20 DUP2 ADD SWAP1 POP PUSH3 0xD98 JUMP JUMPDEST DUP7 DUP4 LT ISZERO PUSH3 0xDDF JUMPI DUP5 DUP10 ADD SLOAD PUSH3 0xDDB PUSH1 0x1F DUP10 AND DUP3 PUSH3 0xCB6 JUMP JUMPDEST DUP4 SSTORE POP JUMPDEST PUSH1 0x1 PUSH1 0x2 DUP9 MUL ADD DUP9 SSTORE POP POP POP JUMPDEST POP POP POP POP POP POP JUMPDEST JUMP JUMPDEST PUSH1 0x0 DUP2 MLOAD SWAP1 POP SWAP2 SWAP1 POP JUMP JUMPDEST PUSH3 0xE0B DUP3 PUSH3 0xDF5 JUMP JUMPDEST PUSH8 0xFFFFFFFFFFFFFFFF DUP2 GT ISZERO PUSH3 0xE27 JUMPI PUSH3 0xE26 PUSH3 0xAD4 JUMP JUMPDEST JUMPDEST PUSH3 0xE33 DUP3 SLOAD PUSH3 0xA87 JUMP JUMPDEST PUSH3 0xE40 DUP3 DUP3 DUP6 PUSH3 0xC59 JUMP JUMPDEST PUSH1 0x0 PUSH1 0x20 SWAP1 POP PUSH1 0x1F DUP4 GT PUSH1 0x1 DUP2 EQ PUSH3 0xE78 JUMPI PUSH1 0x0 DUP5 ISZERO PUSH3 0xE63 JUMPI DUP3 DUP8 ADD MLOAD SWAP1 POP JUMPDEST PUSH3 0xE6F DUP6 DUP3 PUSH3 0xCD6 JUMP JUMPDEST DUP7 SSTORE POP PUSH3 0xEDF JUMP JUMPDEST PUSH1 0x1F NOT DUP5 AND PUSH3 0xE88 DUP7 PUSH3 0xB03 JUMP JUMPDEST PUSH1 0x0 JUMPDEST DUP3 DUP2 LT ISZERO PUSH3 0xEB2 JUMPI DUP5 DUP10 ADD MLOAD DUP3 SSTORE PUSH1 0x1 DUP3 ADD SWAP2 POP PUSH1 0x20 DUP6 ADD SWAP5 POP PUSH1 0x20 DUP2 ADD SWAP1 POP PUSH3 0xE8B JUMP JUMPDEST DUP7 DUP4 LT ISZERO PUSH3 0xED2 JUMPI DUP5 DUP10 ADD MLOAD PUSH3 0xECE PUSH1 0x1F DUP10 AND DUP3 PUSH3 0xCB6 JUMP JUMPDEST DUP4 SSTORE POP JUMPDEST PUSH1 0x1 PUSH1 0x2 DUP9 MUL ADD DUP9 SSTORE POP POP POP JUMPDEST POP POP POP POP POP POP JUMP JUMPDEST PUSH2 0x1533 DUP1 PUSH3 0xEF7 PUSH1 0x0 CODECOPY PUSH1 0x0 RETURN INVALID PUSH1 0x80 PUSH1 0x40 MSTORE CALLVALUE DUP1 ISZERO PUSH2 0x10 JUMPI PUSH1 0x0 DUP1 REVERT JUMPDEST POP PUSH1 0x4 CALLDATASIZE LT PUSH2 0x7D JUMPI PUSH1 0x0 CALLDATALOAD PUSH1 0xE0 SHR DUP1 PUSH4 0x704F1B94 GT PUSH2 0x5B JUMPI DUP1 PUSH4 0x704F1B94 EQ PUSH2 0x112 JUMPI DUP1 PUSH4 0x8F1D613D EQ PUSH2 0x12E JUMPI DUP1 PUSH4 0xA8367070 EQ PUSH2 0x14A JUMPI DUP1 PUSH4 0xC2F37305 EQ PUSH2 0x17A JUMPI PUSH2 0x7D JUMP JUMPDEST DUP1 PUSH4 0xA02DCC7 EQ PUSH2 0x82 JUMPI DUP1 PUSH4 0x3073902F EQ PUSH2 0xB2 JUMPI DUP1 PUSH4 0x4C3912E7 EQ PUSH2 0xE2 JUMPI JUMPDEST PUSH1 0x0 DUP1 REVERT JUMPDEST PUSH2 0x9C PUSH1 0x4 DUP1 CALLDATASIZE SUB DUP2 ADD SWAP1 PUSH2 0x97 SWAP2 SWAP1 PUSH2 0xAA6 JUMP JUMPDEST PUSH2 0x196 JUMP JUMPDEST PUSH1 0x40 MLOAD PUSH2 0xA9 SWAP2 SWAP1 PUSH2 0xB6C JUMP JUMPDEST PUSH1 0x40 MLOAD DUP1 SWAP2 SUB SWAP1 RETURN JUMPDEST PUSH2 0xCC PUSH1 0x4 DUP1 CALLDATASIZE SUB DUP2 ADD SWAP1 PUSH2 0xC7 SWAP2 SWAP1 PUSH2 0xCC3 JUMP JUMPDEST PUSH2 0x242 JUMP JUMPDEST PUSH1 0x40 MLOAD PUSH2 0xD9 SWAP2 SWAP1 PUSH2 0xE90 JUMP JUMPDEST PUSH1 0x40 MLOAD DUP1 SWAP2 SUB SWAP1 RETURN JUMPDEST PUSH2 0xFC PUSH1 0x4 DUP1 CALLDATASIZE SUB DUP2 ADD SWAP1 PUSH2 0xF7 SWAP2 SWAP1 PUSH2 0xAA6 JUMP JUMPDEST PUSH2 0x507 JUMP JUMPDEST PUSH1 0x40 MLOAD PUSH2 0x109 SWAP2 SWAP1 PUSH2 0xB6C JUMP JUMPDEST PUSH1 0x40 MLOAD DUP1 SWAP2 SUB SWAP1 RETURN JUMPDEST PUSH2 0x12C PUSH1 0x4 DUP1 CALLDATASIZE SUB DUP2 ADD SWAP1 PUSH2 0x127 SWAP2 SWAP1 PUSH2 0xCC3 JUMP JUMPDEST PUSH2 0x5B3 JUMP JUMPDEST STOP JUMPDEST PUSH2 0x148 PUSH1 0x4 DUP1 CALLDATASIZE SUB DUP2 ADD SWAP1 PUSH2 0x143 SWAP2 SWAP1 PUSH2 0xEB2 JUMP JUMPDEST PUSH2 0x645 JUMP JUMPDEST STOP JUMPDEST PUSH2 0x164 PUSH1 0x4 DUP1 CALLDATASIZE SUB DUP2 ADD SWAP1 PUSH2 0x15F SWAP2 SWAP1 PUSH2 0xCC3 JUMP JUMPDEST PUSH2 0x74C JUMP JUMPDEST PUSH1 0x40 MLOAD PUSH2 0x171 SWAP2 SWAP1 PUSH2 0x1039 JUMP JUMPDEST PUSH1 0x40 MLOAD DUP1 SWAP2 SUB SWAP1 RETURN JUMPDEST PUSH2 0x194 PUSH1 0x4 DUP1 CALLDATASIZE SUB DUP2 ADD SWAP1 PUSH2 0x18F SWAP2 SWAP1 PUSH2 0x105B JUMP JUMPDEST PUSH2 0x958 JUMP JUMPDEST STOP JUMPDEST PUSH1 0x0 DUP2 DUP2 SLOAD DUP2 LT PUSH2 0x1A6 JUMPI PUSH1 0x0 DUP1 REVERT JUMPDEST SWAP1 PUSH1 0x0 MSTORE PUSH1 0x20 PUSH1 0x0 KECCAK256 ADD PUSH1 0x0 SWAP2 POP SWAP1 POP DUP1 SLOAD PUSH2 0x1C1 SWAP1 PUSH2 0x1161 JUMP JUMPDEST DUP1 PUSH1 0x1F ADD PUSH1 0x20 DUP1 SWAP2 DIV MUL PUSH1 0x20 ADD PUSH1 0x40 MLOAD SWAP1 DUP2 ADD PUSH1 0x40 MSTORE DUP1 SWAP3 SWAP2 SWAP1 DUP2 DUP2 MSTORE PUSH1 0x20 ADD DUP3 DUP1 SLOAD PUSH2 0x1ED SWAP1 PUSH2 0x1161 JUMP JUMPDEST DUP1 ISZERO PUSH2 0x23A JUMPI DUP1 PUSH1 0x1F LT PUSH2 0x20F JUMPI PUSH2 0x100 DUP1 DUP4 SLOAD DIV MUL DUP4 MSTORE SWAP2 PUSH1 0x20 ADD SWAP2 PUSH2 0x23A JUMP JUMPDEST DUP3 ADD SWAP2 SWAP1 PUSH1 0x0 MSTORE PUSH1 0x20 PUSH1 0x0 KECCAK256 SWAP1 JUMPDEST DUP2 SLOAD DUP2 MSTORE SWAP1 PUSH1 0x1 ADD SWAP1 PUSH1 0x20 ADD DUP1 DUP4 GT PUSH2 0x21D JUMPI DUP3 SWAP1 SUB PUSH1 0x1F AND DUP3 ADD SWAP2 JUMPDEST POP POP POP POP POP DUP2 JUMP JUMPDEST PUSH1 0x60 PUSH1 0x6 DUP3 PUSH1 0x40 MLOAD PUSH2 0x254 SWAP2 SWAP1 PUSH2 0x11CE JUMP JUMPDEST SWAP1 DUP2 MSTORE PUSH1 0x20 ADD PUSH1 0x40 MLOAD DUP1 SWAP2 SUB SWAP1 KECCAK256 DUP1 SLOAD DUP1 PUSH1 0x20 MUL PUSH1 0x20 ADD PUSH1 0x40 MLOAD SWAP1 DUP2 ADD PUSH1 0x40 MSTORE DUP1 SWAP3 SWAP2 SWAP1 DUP2 DUP2 MSTORE PUSH1 0x20 ADD PUSH1 0x0 SWAP1 JUMPDEST DUP3 DUP3 LT ISZERO PUSH2 0x4FC JUMPI DUP4 DUP3 SWAP1 PUSH1 0x0 MSTORE PUSH1 0x20 PUSH1 0x0 KECCAK256 SWAP1 PUSH1 0x4 MUL ADD PUSH1 0x40 MLOAD DUP1 PUSH1 0x80 ADD PUSH1 0x40 MSTORE SWAP1 DUP2 PUSH1 0x0 DUP3 ADD DUP1 SLOAD PUSH2 0x2B5 SWAP1 PUSH2 0x1161 JUMP JUMPDEST DUP1 PUSH1 0x1F ADD PUSH1 0x20 DUP1 SWAP2 DIV MUL PUSH1 0x20 ADD PUSH1 0x40 MLOAD SWAP1 DUP2 ADD PUSH1 0x40 MSTORE DUP1 SWAP3 SWAP2 SWAP1 DUP2 DUP2 MSTORE PUSH1 0x20 ADD DUP3 DUP1 SLOAD PUSH2 0x2E1 SWAP1 PUSH2 0x1161 JUMP JUMPDEST DUP1 ISZERO PUSH2 0x32E JUMPI DUP1 PUSH1 0x1F LT PUSH2 0x303 JUMPI PUSH2 0x100 DUP1 DUP4 SLOAD DIV MUL DUP4 MSTORE SWAP2 PUSH1 0x20 ADD SWAP2 PUSH2 0x32E JUMP JUMPDEST DUP3 ADD SWAP2 SWAP1 PUSH1 0x0 MSTORE PUSH1 0x20 PUSH1 0x0 KECCAK256 SWAP1 JUMPDEST DUP2 SLOAD DUP2 MSTORE SWAP1 PUSH1 0x1 ADD SWAP1 PUSH1 0x20 ADD DUP1 DUP4 GT PUSH2 0x311 JUMPI DUP3 SWAP1 SUB PUSH1 0x1F AND DUP3 ADD SWAP2 JUMPDEST POP POP POP POP POP DUP2 MSTORE PUSH1 0x20 ADD PUSH1 0x1 DUP3 ADD DUP1 SLOAD PUSH2 0x347 SWAP1 PUSH2 0x1161 JUMP JUMPDEST DUP1 PUSH1 0x1F ADD PUSH1 0x20 DUP1 SWAP2 DIV MUL PUSH1 0x20 ADD PUSH1 0x40 MLOAD SWAP1 DUP2 ADD PUSH1 0x40 MSTORE DUP1 SWAP3 SWAP2 SWAP1 DUP2 DUP2 MSTORE PUSH1 0x20 ADD DUP3 DUP1 SLOAD PUSH2 0x373 SWAP1 PUSH2 0x1161 JUMP JUMPDEST DUP1 ISZERO PUSH2 0x3C0 JUMPI DUP1 PUSH1 0x1F LT PUSH2 0x395 JUMPI PUSH2 0x100 DUP1 DUP4 SLOAD DIV MUL DUP4 MSTORE SWAP2 PUSH1 0x20 ADD SWAP2 PUSH2 0x3C0 JUMP JUMPDEST DUP3 ADD SWAP2 SWAP1 PUSH1 0x0 MSTORE PUSH1 0x20 PUSH1 0x0 KECCAK256 SWAP1 JUMPDEST DUP2 SLOAD DUP2 MSTORE SWAP1 PUSH1 0x1 ADD SWAP1 PUSH1 0x20 ADD DUP1 DUP4 GT PUSH2 0x3A3 JUMPI DUP3 SWAP1 SUB PUSH1 0x1F AND DUP3 ADD SWAP2 JUMPDEST POP POP POP POP POP DUP2 MSTORE PUSH1 0x20 ADD PUSH1 0x2 DUP3 ADD DUP1 SLOAD PUSH2 0x3D9 SWAP1 PUSH2 0x1161 JUMP JUMPDEST DUP1 PUSH1 0x1F ADD PUSH1 0x20 DUP1 SWAP2 DIV MUL PUSH1 0x20 ADD PUSH1 0x40 MLOAD SWAP1 DUP2 ADD PUSH1 0x40 MSTORE DUP1 SWAP3 SWAP2 SWAP1 DUP2 DUP2 MSTORE PUSH1 0x20 ADD DUP3 DUP1 SLOAD PUSH2 0x405 SWAP1 PUSH2 0x1161 JUMP JUMPDEST DUP1 ISZERO PUSH2 0x452 JUMPI DUP1 PUSH1 0x1F LT PUSH2 0x427 JUMPI PUSH2 0x100 DUP1 DUP4 SLOAD DIV MUL DUP4 MSTORE SWAP2 PUSH1 0x20 ADD SWAP2 PUSH2 0x452 JUMP JUMPDEST DUP3 ADD SWAP2 SWAP1 PUSH1 0x0 MSTORE PUSH1 0x20 PUSH1 0x0 KECCAK256 SWAP1 JUMPDEST DUP2 SLOAD DUP2 MSTORE SWAP1 PUSH1 0x1 ADD SWAP1 PUSH1 0x20 ADD DUP1 DUP4 GT PUSH2 0x435 JUMPI DUP3 SWAP1 SUB PUSH1 0x1F AND DUP3 ADD SWAP2 JUMPDEST POP POP POP POP POP DUP2 MSTORE PUSH1 0x20 ADD PUSH1 0x3 DUP3 ADD DUP1 SLOAD PUSH2 0x46B SWAP1 PUSH2 0x1161 JUMP JUMPDEST DUP1 PUSH1 0x1F ADD PUSH1 0x20 DUP1 SWAP2 DIV MUL PUSH1 0x20 ADD PUSH1 0x40 MLOAD SWAP1 DUP2 ADD PUSH1 0x40 MSTORE DUP1 SWAP3 SWAP2 SWAP1 DUP2 DUP2 MSTORE PUSH1 0x20 ADD DUP3 DUP1 SLOAD PUSH2 0x497 SWAP1 PUSH2 0x1161 JUMP JUMPDEST DUP1 ISZERO PUSH2 0x4E4 JUMPI DUP1 PUSH1 0x1F LT PUSH2 0x4B9 JUMPI PUSH2 0x100 DUP1 DUP4 SLOAD DIV MUL DUP4 MSTORE SWAP2 PUSH1 0x20 ADD SWAP2 PUSH2 0x4E4 JUMP JUMPDEST DUP3 ADD SWAP2 SWAP1 PUSH1 0x0 MSTORE PUSH1 0x20 PUSH1 0x0 KECCAK256 SWAP1 JUMPDEST DUP2 SLOAD DUP2 MSTORE SWAP1 PUSH1 0x1 ADD SWAP1 PUSH1 0x20 ADD DUP1 DUP4 GT PUSH2 0x4C7 JUMPI DUP3 SWAP1 SUB PUSH1 0x1F AND DUP3 ADD SWAP2 JUMPDEST POP POP POP POP POP DUP2 MSTORE POP POP DUP2 MSTORE PUSH1 0x20 ADD SWAP1 PUSH1 0x1 ADD SWAP1 PUSH2 0x282 JUMP JUMPDEST POP POP POP POP SWAP1 POP SWAP2 SWAP1 POP JUMP JUMPDEST PUSH1 0x3 DUP2 DUP2 SLOAD DUP2 LT PUSH2 0x517 JUMPI PUSH1 0x0 DUP1 REVERT JUMPDEST SWAP1 PUSH1 0x0 MSTORE PUSH1 0x20 PUSH1 0x0 KECCAK256 ADD PUSH1 0x0 SWAP2 POP SWAP1 POP DUP1 SLOAD PUSH2 0x532 SWAP1 PUSH2 0x1161 JUMP JUMPDEST DUP1 PUSH1 0x1F ADD PUSH1 0x20 DUP1 SWAP2 DIV MUL PUSH1 0x20 ADD PUSH1 0x40 MLOAD SWAP1 DUP2 ADD PUSH1 0x40 MSTORE DUP1 SWAP3 SWAP2 SWAP1 DUP2 DUP2 MSTORE PUSH1 0x20 ADD DUP3 DUP1 SLOAD PUSH2 0x55E SWAP1 PUSH2 0x1161 JUMP JUMPDEST DUP1 ISZERO PUSH2 0x5AB JUMPI DUP1 PUSH1 0x1F LT PUSH2 0x580 JUMPI PUSH2 0x100 DUP1 DUP4 SLOAD DIV MUL DUP4 MSTORE SWAP2 PUSH1 0x20 ADD SWAP2 PUSH2 0x5AB JUMP JUMPDEST DUP3 ADD SWAP2 SWAP1 PUSH1 0x0 MSTORE PUSH1 0x20 PUSH1 0x0 KECCAK256 SWAP1 JUMPDEST DUP2 SLOAD DUP2 MSTORE SWAP1 PUSH1 0x1 ADD SWAP1 PUSH1 0x20 ADD DUP1 DUP4 GT PUSH2 0x58E JUMPI DUP3 SWAP1 SUB PUSH1 0x1F AND DUP3 ADD SWAP2 JUMPDEST POP POP POP POP POP DUP2 JUMP JUMPDEST PUSH1 0x4 PUSH1 0x2 PUSH1 0x0 CALLER PUSH20 0xFFFFFFFFFFFFFFFFFFFFFFFFFFFFFFFFFFFFFFFF AND PUSH20 0xFFFFFFFFFFFFFFFFFFFFFFFFFFFFFFFFFFFFFFFF AND DUP2 MSTORE PUSH1 0x20 ADD SWAP1 DUP2 MSTORE PUSH1 0x20 ADD PUSH1 0x0 KECCAK256 PUSH1 0x40 MLOAD PUSH2 0x601 SWAP2 SWAP1 PUSH2 0x127D JUMP JUMPDEST SWAP1 DUP2 MSTORE PUSH1 0x20 ADD PUSH1 0x40 MLOAD DUP1 SWAP2 SUB SWAP1 KECCAK256 DUP2 SWAP1 DUP1 PUSH1 0x1 DUP2 SLOAD ADD DUP1 DUP3 SSTORE DUP1 SWAP2 POP POP PUSH1 0x1 SWAP1 SUB SWAP1 PUSH1 0x0 MSTORE PUSH1 0x20 PUSH1 0x0 KECCAK256 ADD PUSH1 0x0 SWAP1 SWAP2 SWAP1 SWAP2 SWAP1 SWAP2 POP SWAP1 DUP2 PUSH2 0x641 SWAP2 SWAP1 PUSH2 0x142B JUMP JUMPDEST POP POP JUMP JUMPDEST DUP6 PUSH1 0x5 DUP8 PUSH1 0x40 MLOAD PUSH2 0x656 SWAP2 SWAP1 PUSH2 0x11CE JUMP JUMPDEST SWAP1 DUP2 MSTORE PUSH1 0x20 ADD PUSH1 0x40 MLOAD DUP1 SWAP2 SUB SWAP1 KECCAK256 PUSH1 0x0 ADD SWAP1 DUP2 PUSH2 0x673 SWAP2 SWAP1 PUSH2 0x142B JUMP JUMPDEST POP DUP5 PUSH1 0x5 DUP8 PUSH1 0x40 MLOAD PUSH2 0x685 SWAP2 SWAP1 PUSH2 0x11CE JUMP JUMPDEST SWAP1 DUP2 MSTORE PUSH1 0x20 ADD PUSH1 0x40 MLOAD DUP1 SWAP2 SUB SWAP1 KECCAK256 PUSH1 0x1 ADD SWAP1 DUP2 PUSH2 0x6A2 SWAP2 SWAP1 PUSH2 0x142B JUMP JUMPDEST POP DUP4 PUSH1 0x5 DUP8 PUSH1 0x40 MLOAD PUSH2 0x6B4 SWAP2 SWAP1 PUSH2 0x11CE JUMP JUMPDEST SWAP1 DUP2 MSTORE PUSH1 0x20 ADD PUSH1 0x40 MLOAD DUP1 SWAP2 SUB SWAP1 KECCAK256 PUSH1 0x2 ADD SWAP1 DUP2 PUSH2 0x6D1 SWAP2 SWAP1 PUSH2 0x142B JUMP JUMPDEST POP DUP3 PUSH1 0x5 DUP8 PUSH1 0x40 MLOAD PUSH2 0x6E3 SWAP2 SWAP1 PUSH2 0x11CE JUMP JUMPDEST SWAP1 DUP2 MSTORE PUSH1 0x20 ADD PUSH1 0x40 MLOAD DUP1 SWAP2 SUB SWAP1 KECCAK256 PUSH1 0x3 ADD DUP2 SWAP1 SSTORE POP DUP2 PUSH1 0x5 DUP8 PUSH1 0x40 MLOAD PUSH2 0x709 SWAP2 SWAP1 PUSH2 0x11CE JUMP JUMPDEST SWAP1 DUP2 MSTORE PUSH1 0x20 ADD PUSH1 0x40 MLOAD DUP1 SWAP2 SUB SWAP1 KECCAK256 PUSH1 0x4 ADD DUP2 SWAP1 SSTORE POP DUP1 PUSH1 0x5 DUP8 PUSH1 0x40 MLOAD PUSH2 0x72F SWAP2 SWAP1 PUSH2 0x11CE JUMP JUMPDEST SWAP1 DUP2 MSTORE PUSH1 0x20 ADD PUSH1 0x40 MLOAD DUP1 SWAP2 SUB SWAP1 KECCAK256 PUSH1 0x5 ADD DUP2 SWAP1 SSTORE POP POP POP POP POP POP POP JUMP JUMPDEST PUSH2 0x754 PUSH2 0xA26 JUMP JUMPDEST PUSH1 0x5 DUP3 PUSH1 0x40 MLOAD PUSH2 0x764 SWAP2 SWAP1 PUSH2 0x11CE JUMP JUMPDEST SWAP1 DUP2 MSTORE PUSH1 0x20 ADD PUSH1 0x40 MLOAD DUP1 SWAP2 SUB SWAP1 KECCAK256 PUSH1 0x40 MLOAD DUP1 PUSH1 0xC0 ADD PUSH1 0x40 MSTORE SWAP1 DUP2 PUSH1 0x0 DUP3 ADD DUP1 SLOAD PUSH2 0x78D SWAP1 PUSH2 0x1161 JUMP JUMPDEST DUP1 PUSH1 0x1F ADD PUSH1 0x20 DUP1 SWAP2 DIV MUL PUSH1 0x20 ADD PUSH1 0x40 MLOAD SWAP1 DUP2 ADD PUSH1 0x40 MSTORE DUP1 SWAP3 SWAP2 SWAP1 DUP2 DUP2 MSTORE PUSH1 0x20 ADD DUP3 DUP1 SLOAD PUSH2 0x7B9 SWAP1 PUSH2 0x1161 JUMP JUMPDEST DUP1 ISZERO PUSH2 0x806 JUMPI DUP1 PUSH1 0x1F LT PUSH2 0x7DB JUMPI PUSH2 0x100 DUP1 DUP4 SLOAD DIV MUL DUP4 MSTORE SWAP2 PUSH1 0x20 ADD SWAP2 PUSH2 0x806 JUMP JUMPDEST DUP3 ADD SWAP2 SWAP1 PUSH1 0x0 MSTORE PUSH1 0x20 PUSH1 0x0 KECCAK256 SWAP1 JUMPDEST DUP2 SLOAD DUP2 MSTORE SWAP1 PUSH1 0x1 ADD SWAP1 PUSH1 0x20 ADD DUP1 DUP4 GT PUSH2 0x7E9 JUMPI DUP3 SWAP1 SUB PUSH1 0x1F AND DUP3 ADD SWAP2 JUMPDEST POP POP POP POP POP DUP2 MSTORE PUSH1 0x20 ADD PUSH1 0x1 DUP3 ADD DUP1 SLOAD PUSH2 0x81F SWAP1 PUSH2 0x1161 JUMP JUMPDEST DUP1 PUSH1 0x1F ADD PUSH1 0x20 DUP1 SWAP2 DIV MUL PUSH1 0x20 ADD PUSH1 0x40 MLOAD SWAP1 DUP2 ADD PUSH1 0x40 MSTORE DUP1 SWAP3 SWAP2 SWAP1 DUP2 DUP2 MSTORE PUSH1 0x20 ADD DUP3 DUP1 SLOAD PUSH2 0x84B SWAP1 PUSH2 0x1161 JUMP JUMPDEST DUP1 ISZERO PUSH2 0x898 JUMPI DUP1 PUSH1 0x1F LT PUSH2 0x86D JUMPI PUSH2 0x100 DUP1 DUP4 SLOAD DIV MUL DUP4 MSTORE SWAP2 PUSH1 0x20 ADD SWAP2 PUSH2 0x898 JUMP JUMPDEST DUP3 ADD SWAP2 SWAP1 PUSH1 0x0 MSTORE PUSH1 0x20 PUSH1 0x0 KECCAK256 SWAP1 JUMPDEST DUP2 SLOAD DUP2 MSTORE SWAP1 PUSH1 0x1 ADD SWAP1 PUSH1 0x20 ADD DUP1 DUP4 GT PUSH2 0x87B JUMPI DUP3 SWAP1 SUB PUSH1 0x1F AND DUP3 ADD SWAP2 JUMPDEST POP POP POP POP POP DUP2 MSTORE PUSH1 0x20 ADD PUSH1 0x2 DUP3 ADD DUP1 SLOAD PUSH2 0x8B1 SWAP1 PUSH2 0x1161 JUMP JUMPDEST DUP1 PUSH1 0x1F ADD PUSH1 0x20 DUP1 SWAP2 DIV MUL PUSH1 0x20 ADD PUSH1 0x40 MLOAD SWAP1 DUP2 ADD PUSH1 0x40 MSTORE DUP1 SWAP3 SWAP2 SWAP1 DUP2 DUP2 MSTORE PUSH1 0x20 ADD DUP3 DUP1 SLOAD PUSH2 0x8DD SWAP1 PUSH2 0x1161 JUMP JUMPDEST DUP1 ISZERO PUSH2 0x92A JUMPI DUP1 PUSH1 0x1F LT PUSH2 0x8FF JUMPI PUSH2 0x100 DUP1 DUP4 SLOAD DIV MUL DUP4 MSTORE SWAP2 PUSH1 0x20 ADD SWAP2 PUSH2 0x92A JUMP JUMPDEST DUP3 ADD SWAP2 SWAP1 PUSH1 0x0 MSTORE PUSH1 0x20 PUSH1 0x0 KECCAK256 SWAP1 JUMPDEST DUP2 SLOAD DUP2 MSTORE SWAP1 PUSH1 0x1 ADD SWAP1 PUSH1 0x20 ADD DUP1 DUP4 GT PUSH2 0x90D JUMPI DUP3 SWAP1 SUB PUSH1 0x1F AND DUP3 ADD SWAP2 JUMPDEST POP POP POP POP POP DUP2 MSTORE PUSH1 0x20 ADD PUSH1 0x3 DUP3 ADD SLOAD DUP2 MSTORE PUSH1 0x20 ADD PUSH1 0x4 DUP3 ADD SLOAD DUP2 MSTORE PUSH1 0x20 ADD PUSH1 0x5 DUP3 ADD SLOAD DUP2 MSTORE POP POP SWAP1 POP SWAP2 SWAP1 POP JUMP JUMPDEST PUSH1 0x0 PUSH1 0x40 MLOAD DUP1 PUSH1 0x80 ADD PUSH1 0x40 MSTORE DUP1 DUP7 DUP2 MSTORE PUSH1 0x20 ADD DUP6 DUP2 MSTORE PUSH1 0x20 ADD DUP5 DUP2 MSTORE PUSH1 0x20 ADD DUP4 DUP2 MSTORE POP SWAP1 POP PUSH1 0x6 DUP6 PUSH1 0x40 MLOAD PUSH2 0x98D SWAP2 SWAP1 PUSH2 0x11CE JUMP JUMPDEST SWAP1 DUP2 MSTORE PUSH1 0x20 ADD PUSH1 0x40 MLOAD DUP1 SWAP2 SUB SWAP1 KECCAK256 DUP2 SWAP1 DUP1 PUSH1 0x1 DUP2 SLOAD ADD DUP1 DUP3 SSTORE DUP1 SWAP2 POP POP PUSH1 0x1 SWAP1 SUB SWAP1 PUSH1 0x0 MSTORE PUSH1 0x20 PUSH1 0x0 KECCAK256 SWAP1 PUSH1 0x4 MUL ADD PUSH1 0x0 SWAP1 SWAP2 SWAP1 SWAP2 SWAP1 SWAP2 POP PUSH1 0x0 DUP3 ADD MLOAD DUP2 PUSH1 0x0 ADD SWAP1 DUP2 PUSH2 0x9DA SWAP2 SWAP1 PUSH2 0x142B JUMP JUMPDEST POP PUSH1 0x20 DUP3 ADD MLOAD DUP2 PUSH1 0x1 ADD SWAP1 DUP2 PUSH2 0x9F0 SWAP2 SWAP1 PUSH2 0x142B JUMP JUMPDEST POP PUSH1 0x40 DUP3 ADD MLOAD DUP2 PUSH1 0x2 ADD SWAP1 DUP2 PUSH2 0xA06 SWAP2 SWAP1 PUSH2 0x142B JUMP JUMPDEST POP PUSH1 0x60 DUP3 ADD MLOAD DUP2 PUSH1 0x3 ADD SWAP1 DUP2 PUSH2 0xA1C SWAP2 SWAP1 PUSH2 0x142B JUMP JUMPDEST POP POP POP POP POP POP POP POP JUMP JUMPDEST PUSH1 0x40 MLOAD DUP1 PUSH1 0xC0 ADD PUSH1 0x40 MSTORE DUP1 PUSH1 0x60 DUP2 MSTORE PUSH1 0x20 ADD PUSH1 0x60 DUP2 MSTORE PUSH1 0x20 ADD PUSH1 0x60 DUP2 MSTORE PUSH1 0x20 ADD PUSH1 0x0 DUP2 MSTORE PUSH1 0x20 ADD PUSH1 0x0 DUP2 MSTORE PUSH1 0x20 ADD PUSH1 0x0 DUP2 MSTORE POP SWAP1 JUMP JUMPDEST PUSH1 0x0 PUSH1 0x40 MLOAD SWAP1 POP SWAP1 JUMP JUMPDEST PUSH1 0x0 DUP1 REVERT JUMPDEST PUSH1 0x0 DUP1 REVERT JUMPDEST PUSH1 0x0 DUP2 SWAP1 POP SWAP2 SWAP1 POP JUMP JUMPDEST PUSH2 0xA83 DUP2 PUSH2 0xA70 JUMP JUMPDEST DUP2 EQ PUSH2 0xA8E JUMPI PUSH1 0x0 DUP1 REVERT JUMPDEST POP JUMP JUMPDEST PUSH1 0x0 DUP2 CALLDATALOAD SWAP1 POP PUSH2 0xAA0 DUP2 PUSH2 0xA7A JUMP JUMPDEST SWAP3 SWAP2 POP POP JUMP JUMPDEST PUSH1 0x0 PUSH1 0x20 DUP3 DUP5 SUB SLT ISZERO PUSH2 0xABC JUMPI PUSH2 0xABB PUSH2 0xA66 JUMP JUMPDEST JUMPDEST PUSH1 0x0 PUSH2 0xACA DUP5 DUP3 DUP6 ADD PUSH2 0xA91 JUMP JUMPDEST SWAP2 POP POP SWAP3 SWAP2 POP POP JUMP JUMPDEST PUSH1 0x0 DUP2 MLOAD SWAP1 POP SWAP2 SWAP1 POP JUMP JUMPDEST PUSH1 0x0 DUP3 DUP3 MSTORE PUSH1 0x20 DUP3 ADD SWAP1 POP SWAP3 SWAP2 POP POP JUMP JUMPDEST PUSH1 0x0 JUMPDEST DUP4 DUP2 LT ISZERO PUSH2 0xB0D JUMPI DUP1 DUP3 ADD MLOAD DUP2 DUP5 ADD MSTORE PUSH1 0x20 DUP2 ADD SWAP1 POP PUSH2 0xAF2 JUMP JUMPDEST DUP4 DUP2 GT ISZERO PUSH2 0xB1C JUMPI PUSH1 0x0 DUP5 DUP5 ADD MSTORE JUMPDEST POP POP POP POP JUMP JUMPDEST PUSH1 0x0 PUSH1 0x1F NOT PUSH1 0x1F DUP4 ADD AND SWAP1 POP SWAP2 SWAP1 POP JUMP JUMPDEST PUSH1 0x0 PUSH2 0xB3E DUP3 PUSH2 0xAD3 JUMP JUMPDEST PUSH2 0xB48 DUP2 DUP6 PUSH2 0xADE JUMP JUMPDEST SWAP4 POP PUSH2 0xB58 DUP2 DUP6 PUSH1 0x20 DUP7 ADD PUSH2 0xAEF JUMP JUMPDEST PUSH2 0xB61 DUP2 PUSH2 0xB22 JUMP JUMPDEST DUP5 ADD SWAP2 POP POP SWAP3 SWAP2 POP POP JUMP JUMPDEST PUSH1 0x0 PUSH1 0x20 DUP3 ADD SWAP1 POP DUP2 DUP2 SUB PUSH1 0x0 DUP4 ADD MSTORE PUSH2 0xB86 DUP2 DUP5 PUSH2 0xB33 JUMP JUMPDEST SWAP1 POP SWAP3 SWAP2 POP POP JUMP JUMPDEST PUSH1 0x0 DUP1 REVERT JUMPDEST PUSH1 0x0 DUP1 REVERT JUMPDEST PUSH32 0x4E487B7100000000000000000000000000000000000000000000000000000000 PUSH1 0x0 MSTORE PUSH1 0x41 PUSH1 0x4 MSTORE PUSH1 0x24 PUSH1 0x0 REVERT JUMPDEST PUSH2 0xBD0 DUP3 PUSH2 0xB22 JUMP JUMPDEST DUP2 ADD DUP2 DUP2 LT PUSH8 0xFFFFFFFFFFFFFFFF DUP3 GT OR ISZERO PUSH2 0xBEF JUMPI PUSH2 0xBEE PUSH2 0xB98 JUMP JUMPDEST JUMPDEST DUP1 PUSH1 0x40 MSTORE POP POP POP JUMP JUMPDEST PUSH1 0x0 PUSH2 0xC02 PUSH2 0xA5C JUMP JUMPDEST SWAP1 POP PUSH2 0xC0E DUP3 DUP3 PUSH2 0xBC7 JUMP JUMPDEST SWAP2 SWAP1 POP JUMP JUMPDEST PUSH1 0x0 PUSH8 0xFFFFFFFFFFFFFFFF DUP3 GT ISZERO PUSH2 0xC2E JUMPI PUSH2 0xC2D PUSH2 0xB98 JUMP JUMPDEST JUMPDEST PUSH2 0xC37 DUP3 PUSH2 0xB22 JUMP JUMPDEST SWAP1 POP PUSH1 0x20 DUP2 ADD SWAP1 POP SWAP2 SWAP1 POP JUMP JUMPDEST DUP3 DUP2 DUP4 CALLDATACOPY PUSH1 0x0 DUP4 DUP4 ADD MSTORE POP POP POP JUMP JUMPDEST PUSH1 0x0 PUSH2 0xC66 PUSH2 0xC61 DUP5 PUSH2 0xC13 JUMP JUMPDEST PUSH2 0xBF8 JUMP JUMPDEST SWAP1 POP DUP3 DUP2 MSTORE PUSH1 0x20 DUP2 ADD DUP5 DUP5 DUP5 ADD GT ISZERO PUSH2 0xC82 JUMPI PUSH2 0xC81 PUSH2 0xB93 JUMP JUMPDEST JUMPDEST PUSH2 0xC8D DUP5 DUP3 DUP6 PUSH2 0xC44 JUMP JUMPDEST POP SWAP4 SWAP3 POP POP POP JUMP JUMPDEST PUSH1 0x0 DUP3 PUSH1 0x1F DUP4 ADD SLT PUSH2 0xCAA JUMPI PUSH2 0xCA9 PUSH2 0xB8E JUMP JUMPDEST JUMPDEST DUP2 CALLDATALOAD PUSH2 0xCBA DUP5 DUP3 PUSH1 0x20 DUP7 ADD PUSH2 0xC53 JUMP JUMPDEST SWAP2 POP POP SWAP3 SWAP2 POP POP JUMP JUMPDEST PUSH1 0x0 PUSH1 0x20 DUP3 DUP5 SUB SLT ISZERO PUSH2 0xCD9 JUMPI PUSH2 0xCD8 PUSH2 0xA66 JUMP JUMPDEST JUMPDEST PUSH1 0x0 DUP3 ADD CALLDATALOAD PUSH8 0xFFFFFFFFFFFFFFFF DUP2 GT ISZERO PUSH2 0xCF7 JUMPI PUSH2 0xCF6 PUSH2 0xA6B JUMP JUMPDEST JUMPDEST PUSH2 0xD03 DUP5 DUP3 DUP6 ADD PUSH2 0xC95 JUMP JUMPDEST SWAP2 POP POP SWAP3 SWAP2 POP POP JUMP JUMPDEST PUSH1 0x0 DUP2 MLOAD SWAP1 POP SWAP2 SWAP1 POP JUMP JUMPDEST PUSH1 0x0 DUP3 DUP3 MSTORE PUSH1 0x20 DUP3 ADD SWAP1 POP SWAP3 SWAP2 POP POP JUMP JUMPDEST PUSH1 0x0 DUP2 SWAP1 POP PUSH1 0x20 DUP3 ADD SWAP1 POP SWAP2 SWAP1 POP JUMP JUMPDEST PUSH1 0x0 DUP3 DUP3 MSTORE PUSH1 0x20 DUP3 ADD SWAP1 POP SWAP3 SWAP2 POP POP JUMP JUMPDEST PUSH1 0x0 PUSH2 0xD54 DUP3 PUSH2 0xAD3 JUMP JUMPDEST PUSH2 0xD5E DUP2 DUP6 PUSH2 0xD38 JUMP JUMPDEST SWAP4 POP PUSH2 0xD6E DUP2 DUP6 PUSH1 0x20 DUP7 ADD PUSH2 0xAEF JUMP JUMPDEST PUSH2 0xD77 DUP2 PUSH2 0xB22 JUMP JUMPDEST DUP5 ADD SWAP2 POP POP SWAP3 SWAP2 POP POP JUMP JUMPDEST PUSH1 0x0 PUSH1 0x80 DUP4 ADD PUSH1 0x0 DUP4 ADD MLOAD DUP5 DUP3 SUB PUSH1 0x0 DUP7 ADD MSTORE PUSH2 0xD9F DUP3 DUP3 PUSH2 0xD49 JUMP JUMPDEST SWAP2 POP POP PUSH1 0x20 DUP4 ADD MLOAD DUP5 DUP3 SUB PUSH1 0x20 DUP7 ADD MSTORE PUSH2 0xDB9 DUP3 DUP3 PUSH2 0xD49 JUMP JUMPDEST SWAP2 POP POP PUSH1 0x40 DUP4 ADD MLOAD DUP5 DUP3 SUB PUSH1 0x40 DUP7 ADD MSTORE PUSH2 0xDD3 DUP3 DUP3 PUSH2 0xD49 JUMP JUMPDEST SWAP2 POP POP PUSH1 0x60 DUP4 ADD MLOAD DUP5 DUP3 SUB PUSH1 0x60 DUP7 ADD MSTORE PUSH2 0xDED DUP3 DUP3 PUSH2 0xD49 JUMP JUMPDEST SWAP2 POP POP DUP1 SWAP2 POP POP SWAP3 SWAP2 POP POP JUMP JUMPDEST PUSH1 0x0 PUSH2 0xE06 DUP4 DUP4 PUSH2 0xD82 JUMP JUMPDEST SWAP1 POP SWAP3 SWAP2 POP POP JUMP JUMPDEST PUSH1 0x0 PUSH1 0x20 DUP3 ADD SWAP1 POP SWAP2 SWAP1 POP JUMP JUMPDEST PUSH1 0x0 PUSH2 0xE26 DUP3 PUSH2 0xD0C JUMP JUMPDEST PUSH2 0xE30 DUP2 DUP6 PUSH2 0xD17 JUMP JUMPDEST SWAP4 POP DUP4 PUSH1 0x20 DUP3 MUL DUP6 ADD PUSH2 0xE42 DUP6 PUSH2 0xD28 JUMP JUMPDEST DUP1 PUSH1 0x0 JUMPDEST DUP6 DUP2 LT ISZERO PUSH2 0xE7E JUMPI DUP5 DUP5 SUB DUP10 MSTORE DUP2 MLOAD PUSH2 0xE5F DUP6 DUP3 PUSH2 0xDFA JUMP JUMPDEST SWAP5 POP PUSH2 0xE6A DUP4 PUSH2 0xE0E JUMP JUMPDEST SWAP3 POP PUSH1 0x20 DUP11 ADD SWAP10 POP POP PUSH1 0x1 DUP2 ADD SWAP1 POP PUSH2 0xE46 JUMP JUMPDEST POP DUP3 SWAP8 POP DUP8 SWAP6 POP POP POP POP POP POP SWAP3 SWAP2 POP POP JUMP JUMPDEST PUSH1 0x0 PUSH1 0x20 DUP3 ADD SWAP1 POP DUP2 DUP2 SUB PUSH1 0x0 DUP4 ADD MSTORE PUSH2 0xEAA DUP2 DUP5 PUSH2 0xE1B JUMP JUMPDEST SWAP1 POP SWAP3 SWAP2 POP POP JUMP JUMPDEST PUSH1 0x0 DUP1 PUSH1 0x0 DUP1 PUSH1 0x0 DUP1 PUSH1 0xC0 DUP8 DUP10 SUB SLT ISZERO PUSH2 0xECF JUMPI PUSH2 0xECE PUSH2 0xA66 JUMP JUMPDEST JUMPDEST PUSH1 0x0 DUP8 ADD CALLDATALOAD PUSH8 0xFFFFFFFFFFFFFFFF DUP2 GT ISZERO PUSH2 0xEED JUMPI PUSH2 0xEEC PUSH2 0xA6B JUMP JUMPDEST JUMPDEST PUSH2 0xEF9 DUP10 DUP3 DUP11 ADD PUSH2 0xC95 JUMP JUMPDEST SWAP7 POP POP PUSH1 0x20 DUP8 ADD CALLDATALOAD PUSH8 0xFFFFFFFFFFFFFFFF DUP2 GT ISZERO PUSH2 0xF1A JUMPI PUSH2 0xF19 PUSH2 0xA6B JUMP JUMPDEST JUMPDEST PUSH2 0xF26 DUP10 DUP3 DUP11 ADD PUSH2 0xC95 JUMP JUMPDEST SWAP6 POP POP PUSH1 0x40 DUP8 ADD CALLDATALOAD PUSH8 0xFFFFFFFFFFFFFFFF DUP2 GT ISZERO PUSH2 0xF47 JUMPI PUSH2 0xF46 PUSH2 0xA6B JUMP JUMPDEST JUMPDEST PUSH2 0xF53 DUP10 DUP3 DUP11 ADD PUSH2 0xC95 JUMP JUMPDEST SWAP5 POP POP PUSH1 0x60 PUSH2 0xF64 DUP10 DUP3 DUP11 ADD PUSH2 0xA91 JUMP JUMPDEST SWAP4 POP POP PUSH1 0x80 PUSH2 0xF75 DUP10 DUP3 DUP11 ADD PUSH2 0xA91 JUMP JUMPDEST SWAP3 POP POP PUSH1 0xA0 PUSH2 0xF86 DUP10 DUP3 DUP11 ADD PUSH2 0xA91 JUMP JUMPDEST SWAP2 POP POP SWAP3 SWAP6 POP SWAP3 SWAP6 POP SWAP3 SWAP6 JUMP JUMPDEST PUSH2 0xF9C DUP2 PUSH2 0xA70 JUMP JUMPDEST DUP3 MSTORE POP POP JUMP JUMPDEST PUSH1 0x0 PUSH1 0xC0 DUP4 ADD PUSH1 0x0 DUP4 ADD MLOAD DUP5 DUP3 SUB PUSH1 0x0 DUP7 ADD MSTORE PUSH2 0xFBF DUP3 DUP3 PUSH2 0xD49 JUMP JUMPDEST SWAP2 POP POP PUSH1 0x20 DUP4 ADD MLOAD DUP5 DUP3 SUB PUSH1 0x20 DUP7 ADD MSTORE PUSH2 0xFD9 DUP3 DUP3 PUSH2 0xD49 JUMP JUMPDEST SWAP2 POP POP PUSH1 0x40 DUP4 ADD MLOAD DUP5 DUP3 SUB PUSH1 0x40 DUP7 ADD MSTORE PUSH2 0xFF3 DUP3 DUP3 PUSH2 0xD49 JUMP JUMPDEST SWAP2 POP POP PUSH1 0x60 DUP4 ADD MLOAD PUSH2 0x1008 PUSH1 0x60 DUP7 ADD DUP3 PUSH2 0xF93 JUMP JUMPDEST POP PUSH1 0x80 DUP4 ADD MLOAD PUSH2 0x101B PUSH1 0x80 DUP7 ADD DUP3 PUSH2 0xF93 JUMP JUMPDEST POP PUSH1 0xA0 DUP4 ADD MLOAD PUSH2 0x102E PUSH1 0xA0 DUP7 ADD DUP3 PUSH2 0xF93 JUMP JUMPDEST POP DUP1 SWAP2 POP POP SWAP3 SWAP2 POP POP JUMP JUMPDEST PUSH1 0x0 PUSH1 0x20 DUP3 ADD SWAP1 POP DUP2 DUP2 SUB PUSH1 0x0 DUP4 ADD MSTORE PUSH2 0x1053 DUP2 DUP5 PUSH2 0xFA2 JUMP JUMPDEST SWAP1 POP SWAP3 SWAP2 POP POP JUMP JUMPDEST PUSH1 0x0 DUP1 PUSH1 0x0 DUP1 PUSH1 0x80 DUP6 DUP8 SUB SLT ISZERO PUSH2 0x1075 JUMPI PUSH2 0x1074 PUSH2 0xA66 JUMP JUMPDEST JUMPDEST PUSH1 0x0 DUP6 ADD CALLDATALOAD PUSH8 0xFFFFFFFFFFFFFFFF DUP2 GT ISZERO PUSH2 0x1093 JUMPI PUSH2 0x1092 PUSH2 0xA6B JUMP JUMPDEST JUMPDEST PUSH2 0x109F DUP8 DUP3 DUP9 ADD PUSH2 0xC95 JUMP JUMPDEST SWAP5 POP POP PUSH1 0x20 DUP6 ADD CALLDATALOAD PUSH8 0xFFFFFFFFFFFFFFFF DUP2 GT ISZERO PUSH2 0x10C0 JUMPI PUSH2 0x10BF PUSH2 0xA6B JUMP JUMPDEST JUMPDEST PUSH2 0x10CC DUP8 DUP3 DUP9 ADD PUSH2 0xC95 JUMP JUMPDEST SWAP4 POP POP PUSH1 0x40 DUP6 ADD CALLDATALOAD PUSH8 0xFFFFFFFFFFFFFFFF DUP2 GT ISZERO PUSH2 0x10ED JUMPI PUSH2 0x10EC PUSH2 0xA6B JUMP JUMPDEST JUMPDEST PUSH2 0x10F9 DUP8 DUP3 DUP9 ADD PUSH2 0xC95 JUMP JUMPDEST SWAP3 POP POP PUSH1 0x60 DUP6 ADD CALLDATALOAD PUSH8 0xFFFFFFFFFFFFFFFF DUP2 GT ISZERO PUSH2 0x111A JUMPI PUSH2 0x1119 PUSH2 0xA6B JUMP JUMPDEST JUMPDEST PUSH2 0x1126 DUP8 DUP3 DUP9 ADD PUSH2 0xC95 JUMP JUMPDEST SWAP2 POP POP SWAP3 SWAP6 SWAP2 SWAP5 POP SWAP3 POP JUMP JUMPDEST PUSH32 0x4E487B7100000000000000000000000000000000000000000000000000000000 PUSH1 0x0 MSTORE PUSH1 0x22 PUSH1 0x4 MSTORE PUSH1 0x24 PUSH1 0x0 REVERT JUMPDEST PUSH1 0x0 PUSH1 0x2 DUP3 DIV SWAP1 POP PUSH1 0x1 DUP3 AND DUP1 PUSH2 0x1179 JUMPI PUSH1 0x7F DUP3 AND SWAP2 POP JUMPDEST PUSH1 0x20 DUP3 LT DUP2 SUB PUSH2 0x118C JUMPI PUSH2 0x118B PUSH2 0x1132 JUMP JUMPDEST JUMPDEST POP SWAP2 SWAP1 POP JUMP JUMPDEST PUSH1 0x0 DUP2 SWAP1 POP SWAP3 SWAP2 POP POP JUMP JUMPDEST PUSH1 0x0 PUSH2 0x11A8 DUP3 PUSH2 0xAD3 JUMP JUMPDEST PUSH2 0x11B2 DUP2 DUP6 PUSH2 0x1192 JUMP JUMPDEST SWAP4 POP PUSH2 0x11C2 DUP2 DUP6 PUSH1 0x20 DUP7 ADD PUSH2 0xAEF JUMP JUMPDEST DUP1 DUP5 ADD SWAP2 POP POP SWAP3 SWAP2 POP POP JUMP JUMPDEST PUSH1 0x0 PUSH2 0x11DA DUP3 DUP5 PUSH2 0x119D JUMP JUMPDEST SWAP2 POP DUP2 SWAP1 POP SWAP3 SWAP2 POP POP JUMP JUMPDEST PUSH1 0x0 DUP2 SWAP1 POP DUP2 PUSH1 0x0 MSTORE PUSH1 0x20 PUSH1 0x0 KECCAK256 SWAP1 POP SWAP2 SWAP1 POP JUMP JUMPDEST PUSH1 0x0 DUP2 SLOAD PUSH2 0x1207 DUP2 PUSH2 0x1161 JUMP JUMPDEST PUSH2 0x1211 DUP2 DUP7 PUSH2 0x1192 JUMP JUMPDEST SWAP5 POP PUSH1 0x1 DUP3 AND PUSH1 0x0 DUP2 EQ PUSH2 0x122C JUMPI PUSH1 0x1 DUP2 EQ PUSH2 0x1241 JUMPI PUSH2 0x1274 JUMP JUMPDEST PUSH1 0xFF NOT DUP4 AND DUP7 MSTORE DUP2 ISZERO ISZERO DUP3 MUL DUP7 ADD SWAP4 POP PUSH2 0x1274 JUMP JUMPDEST PUSH2 0x124A DUP6 PUSH2 0x11E5 JUMP JUMPDEST PUSH1 0x0 JUMPDEST DUP4 DUP2 LT ISZERO PUSH2 0x126C JUMPI DUP2 SLOAD DUP2 DUP10 ADD MSTORE PUSH1 0x1 DUP3 ADD SWAP2 POP PUSH1 0x20 DUP2 ADD SWAP1 POP PUSH2 0x124D JUMP JUMPDEST DUP4 DUP9 ADD SWAP6 POP POP POP JUMPDEST POP POP POP SWAP3 SWAP2 POP POP JUMP JUMPDEST PUSH1 0x0 PUSH2 0x1289 DUP3 DUP5 PUSH2 0x11FA JUMP JUMPDEST SWAP2 POP DUP2 SWAP1 POP SWAP3 SWAP2 POP POP JUMP JUMPDEST PUSH1 0x0 PUSH1 0x20 PUSH1 0x1F DUP4 ADD DIV SWAP1 POP SWAP2 SWAP1 POP JUMP JUMPDEST PUSH1 0x0 DUP3 DUP3 SHL SWAP1 POP SWAP3 SWAP2 POP POP JUMP JUMPDEST PUSH1 0x0 PUSH1 0x8 DUP4 MUL PUSH2 0x12E1 PUSH32 0xFFFFFFFFFFFFFFFFFFFFFFFFFFFFFFFFFFFFFFFFFFFFFFFFFFFFFFFFFFFFFFFF DUP3 PUSH2 0x12A4 JUMP JUMPDEST PUSH2 0x12EB DUP7 DUP4 PUSH2 0x12A4 JUMP JUMPDEST SWAP6 POP DUP1 NOT DUP5 AND SWAP4 POP DUP1 DUP7 AND DUP5 OR SWAP3 POP POP POP SWAP4 SWAP3 POP POP POP JUMP JUMPDEST PUSH1 0x0 DUP2 SWAP1 POP SWAP2 SWAP1 POP JUMP JUMPDEST PUSH1 0x0 PUSH2 0x1328 PUSH2 0x1323 PUSH2 0x131E DUP5 PUSH2 0xA70 JUMP JUMPDEST PUSH2 0x1303 JUMP JUMPDEST PUSH2 0xA70 JUMP JUMPDEST SWAP1 POP SWAP2 SWAP1 POP JUMP JUMPDEST PUSH1 0x0 DUP2 SWAP1 POP SWAP2 SWAP1 POP JUMP JUMPDEST PUSH2 0x1342 DUP4 PUSH2 0x130D JUMP JUMPDEST PUSH2 0x1356 PUSH2 0x134E DUP3 PUSH2 0x132F JUMP JUMPDEST DUP5 DUP5 SLOAD PUSH2 0x12B1 JUMP JUMPDEST DUP3 SSTORE POP POP POP POP JUMP JUMPDEST PUSH1 0x0 SWAP1 JUMP JUMPDEST PUSH2 0x136B PUSH2 0x135E JUMP JUMPDEST PUSH2 0x1376 DUP2 DUP5 DUP5 PUSH2 0x1339 JUMP JUMPDEST POP POP POP JUMP JUMPDEST JUMPDEST DUP2 DUP2 LT ISZERO PUSH2 0x139A JUMPI PUSH2 0x138F PUSH1 0x0 DUP3 PUSH2 0x1363 JUMP JUMPDEST PUSH1 0x1 DUP2 ADD SWAP1 POP PUSH2 0x137C JUMP JUMPDEST POP POP JUMP JUMPDEST PUSH1 0x1F DUP3 GT ISZERO PUSH2 0x13DF JUMPI PUSH2 0x13B0 DUP2 PUSH2 0x11E5 JUMP JUMPDEST PUSH2 0x13B9 DUP5 PUSH2 0x1294 JUMP JUMPDEST DUP2 ADD PUSH1 0x20 DUP6 LT ISZERO PUSH2 0x13C8 JUMPI DUP2 SWAP1 POP JUMPDEST PUSH2 0x13DC PUSH2 0x13D4 DUP6 PUSH2 0x1294 JUMP JUMPDEST DUP4 ADD DUP3 PUSH2 0x137B JUMP JUMPDEST POP POP JUMPDEST POP POP POP JUMP JUMPDEST PUSH1 0x0 DUP3 DUP3 SHR SWAP1 POP SWAP3 SWAP2 POP POP JUMP JUMPDEST PUSH1 0x0 PUSH2 0x1402 PUSH1 0x0 NOT DUP5 PUSH1 0x8 MUL PUSH2 0x13E4 JUMP JUMPDEST NOT DUP1 DUP4 AND SWAP2 POP POP SWAP3 SWAP2 POP POP JUMP JUMPDEST PUSH1 0x0 PUSH2 0x141B DUP4 DUP4 PUSH2 0x13F1 JUMP JUMPDEST SWAP2 POP DUP3 PUSH1 0x2 MUL DUP3 OR SWAP1 POP SWAP3 SWAP2 POP POP JUMP JUMPDEST PUSH2 0x1434 DUP3 PUSH2 0xAD3 JUMP JUMPDEST PUSH8 0xFFFFFFFFFFFFFFFF DUP2 GT ISZERO PUSH2 0x144D JUMPI PUSH2 0x144C PUSH2 0xB98 JUMP JUMPDEST JUMPDEST PUSH2 0x1457 DUP3 SLOAD PUSH2 0x1161 JUMP JUMPDEST PUSH2 0x1462 DUP3 DUP3 DUP6 PUSH2 0x139E JUMP JUMPDEST PUSH1 0x0 PUSH1 0x20 SWAP1 POP PUSH1 0x1F DUP4 GT PUSH1 0x1 DUP2 EQ PUSH2 0x1495 JUMPI PUSH1 0x0 DUP5 ISZERO PUSH2 0x1483 JUMPI DUP3 DUP8 ADD MLOAD SWAP1 POP JUMPDEST PUSH2 0x148D DUP6 DUP3 PUSH2 0x140F JUMP JUMPDEST DUP7 SSTORE POP PUSH2 0x14F5 JUMP JUMPDEST PUSH1 0x1F NOT DUP5 AND PUSH2 0x14A3 DUP7 PUSH2 0x11E5 JUMP JUMPDEST PUSH1 0x0 JUMPDEST DUP3 DUP2 LT ISZERO PUSH2 0x14CB JUMPI DUP5 DUP10 ADD MLOAD DUP3 SSTORE PUSH1 0x1 DUP3 ADD SWAP2 POP PUSH1 0x20 DUP6 ADD SWAP5 POP PUSH1 0x20 DUP2 ADD SWAP1 POP PUSH2 0x14A6 JUMP JUMPDEST DUP7 DUP4 LT ISZERO PUSH2 0x14E8 JUMPI DUP5 DUP10 ADD MLOAD PUSH2 0x14E4 PUSH1 0x1F DUP10 AND DUP3 PUSH2 0x13F1 JUMP JUMPDEST DUP4 SSTORE POP JUMPDEST PUSH1 0x1 PUSH1 0x2 DUP9 MUL ADD DUP9 SSTORE POP POP POP JUMPDEST POP POP POP POP POP POP JUMP INVALID LOG2 PUSH5 0x6970667358 0x22 SLT KECCAK256 EXP 0xB6 CALLER DUP2 0xB3 CREATE2 SWAP12 0xCB 0x27 0x4A 0xCC PUSH27 0xDD1E553ADEBDA8385B176CC4161F55174490BAB364736F6C634300 ADDMOD 0xF STOP CALLER "},"gasEstimates":{"creation":{"codeDepositCost":"1085400","executionCost":"infinite","totalCost":"infinite"},"external":{"fetchUserDataRecords(string)":"infinite","fetchUserDataSummary(string)":"infinite","registerUser(string)":"infinite","serviceProviders(uint256)":"infinite","serviceTypes(uint256)":"infinite","uploadUserDataRecord(string,string,string,string)":"infinite","uploadUserDataSummary(string,string,string,uint256,uint256,uint256)":"infinite"}},"methodIdentifiers":{"fetchUserDataRecords(string)":"3073902f","fetchUserDataSummary(string)":"a8367070","registerUser(string)":"704f1b94","serviceProviders(uint256)":"0a02dcc7","serviceTypes(uint256)":"4c3912e7","uploadUserDataRecord(string,string,string,string)":"c2f37305","uploadUserDataSummary(string,string,string,uint256,uint256,uint256)":"8f1d613d"}},"storageLayout":{"storage":[{"astId":22,"contract":"RoamingDataManagement.sol:RoamingDataManagement","label":"serviceProviders","offset":0,"slot":"0","type":"t_array(t_string_storage)dyn_storage"},{"astId":32,"contract":"RoamingDataManagement.sol:RoamingDataManagement","label":"operatorAddresses","offset":0,"slot":"1","type":"t_array(t_address)dyn_storage"},{"astId":36,"contract":"RoamingDataManagement.sol:RoamingDataManagement","label":"operators","offset":0,"slot":"2","type":"t_mapping(t_address,t_string_storage)"},{"astId":43,"contract":"RoamingDataManagement.sol:RoamingDataManagement","label":"serviceTypes","offset":0,"slot":"3","type":"t_array(t_string_storage)dyn_storage"},{"astId":70,"contract":"RoamingDataManagement.sol:RoamingDataManagement","label":"userTable","offset":0,"slot":"4","type":"t_mapping(t_string_memory_ptr,t_array(t_string_storage)dyn_storage)"},{"astId":75,"contract":"RoamingDataManagement.sol:RoamingDataManagement","label":"dataSummary","offset":0,"slot":"5","type":"t_mapping(t_string_memory_ptr,t_struct(User)65_storage)"},{"astId":81,"contract":"RoamingDataManagement.sol:RoamingDataManagement","label":"dataRecords","offset":0,"slot":"6","type":"t_mapping(t_string_memory_ptr,t_array(t_struct(ServiceUsage)52_storage)dyn_storage)"}],"types":{"t_address":{"encoding":"inplace","label":"address","numberOfBytes":"20"},"t_array(t_address)dyn_storage":{"base":"t_address","encoding":"dynamic_array","label":"address[]","numberOfBytes":"32"},"t_array(t_string_storage)dyn_storage":{"base":"t_string_storage","encoding":"dynamic_array","label":"string[]","numberOfBytes":"32"},"t_array(t_struct(ServiceUsage)52_storage)dyn_storage":{"base":"t_struct(ServiceUsage)52_storage","encoding":"dynamic_array","label":"struct RoamingDataManagement.ServiceUsage[]","numberOfBytes":"32"},"t_mapping(t_address,t_string_storage)":{"encoding":"mapping","key":"t_address","label":"mapping(address => string)","numberOfBytes":"32","value":"t_string_storage"},"t_mapping(t_string_memory_ptr,t_array(t_string_storage)dyn_storage)":{"encoding":"mapping","key":"t_string_memory_ptr","label":"mapping(string => string[])","numberOfBytes":"32","value":"t_array(t_string_storage)dyn_storage"},"t_mapping(t_string_memory_ptr,t_array(t_struct(ServiceUsage)52_storage)dyn_storage)":{"encoding":"mapping","key":"t_string_memory_ptr","label":"mapping(string => struct RoamingDataManagement.ServiceUsage[])","numberOfBytes":"32","value":"t_array(t_struct(ServiceUsage)52_storage)dyn_storage"},"t_mapping(t_string_memory_ptr,t_struct(User)65_storage)":{"encoding":"mapping","key":"t_string_memory_ptr","label":"mapping(string => struct RoamingDataManagement.User)","numberOfBytes":"32","value":"t_struct(User)65_storage"},"t_string_memory_ptr":{"encoding":"bytes","label":"string","numberOfBytes":"32"},"t_string_storage":{"encoding":"bytes","label":"string","numberOfBytes":"32"},"t_struct(ServiceUsage)52_storage":{"encoding":"inplace","label":"struct RoamingDataManagement.ServiceUsage","members":[{"astId":45,"contract":"RoamingDataManagement.sol:RoamingDataManagement","label":"imsi","offset":0,"slot":"0","type":"t_string_storage"},{"astId":47,"contract":"RoamingDataManagement.sol:RoamingDataManagement","label":"serviceType","offset":0,"slot":"1","type":"t_string_storage"},{"astId":49,"contract":"RoamingDataManagement.sol:RoamingDataManagement","label":"startTime","offset":0,"slot":"2","type":"t_string_storage"},{"astId":51,"contract":"RoamingDataManagement.sol:RoamingDataManagement","label":"endTime","offset":0,"slot":"3","type":"t_string_storage"}],"numberOfBytes":"128"},"t_struct(User)65_storage":{"encoding":"inplace","label":"struct RoamingDataManagement.User","members":[{"astId":54,"contract":"RoamingDataManagement.sol:RoamingDataManagement","label":"imsi","offset":0,"slot":"0","type":"t_string_storage"},{"astId":56,"contract":"RoamingDataManagement.sol:RoamingDataManagement","label":"number","offset":0,"slot":"1","type":"t_string_storage"},{"astId":58,"contract":"RoamingDataManagement.sol:RoamingDataManagement","label":"serviceProvider","offset":0,"slot":"2","type":"t_string_storage"},{"astId":60,"contract":"RoamingDataManagement.sol:RoamingDataManagement","label":"voiceCallUsage","offset":0,"slot":"3","type":"t_uint256"},{"astId":62,"contract":"RoamingDataManagement.sol:RoamingDataManagement","label":"internetUsage","offset":0,"slot":"4","type":"t_uint256"},{"astId":64,"contract":"RoamingDataManagement.sol:RoamingDataManagement","label":"serviceUsage","offset":0,"slot":"5","type":"t_uint256"}],"numberOfBytes":"192"},"t_uint256":{"encoding":"inplace","label":"uint256","numberOfBytes":"32"}}},"userdoc":{"kind":"user","methods":{},"version":1}}